{
  "abi": [
    {
      "anonymous": false,
      "inputs": [
        {
          "indexed": true,
          "internalType": "address",
          "name": "previousOwner",
          "type": "address"
        },
        {
          "indexed": true,
          "internalType": "address",
          "name": "newOwner",
          "type": "address"
        }
      ],
      "name": "OwnershipTransferred",
      "type": "event"
    },
    {
      "constant": false,
      "inputs": [
        {
          "internalType": "uint256",
          "name": "num",
          "type": "uint256"
        }
      ],
      "name": "advanceEpochs",
      "outputs": [],
      "payable": false,
      "stateMutability": "nonpayable",
      "type": "function"
    },
    {
      "constant": false,
      "inputs": [
        {
          "internalType": "address",
          "name": "acc",
          "type": "address"
        },
        {
          "internalType": "address",
          "name": "from",
          "type": "address"
        }
      ],
      "name": "copyCode",
      "outputs": [],
      "payable": false,
      "stateMutability": "nonpayable",
      "type": "function"
    },
    {
      "constant": false,
      "inputs": [
        {
          "internalType": "uint256",
          "name": "validatorID",
          "type": "uint256"
        },
        {
          "internalType": "uint256",
          "name": "status",
          "type": "uint256"
        }
      ],
      "name": "deactivateValidator",
      "outputs": [],
      "payable": false,
      "stateMutability": "nonpayable",
      "type": "function"
    },
    {
      "constant": false,
      "inputs": [
        {
          "internalType": "address",
          "name": "executable",
          "type": "address"
        }
      ],
      "name": "execute",
      "outputs": [],
      "payable": false,
      "stateMutability": "nonpayable",
      "type": "function"
    },
    {
      "constant": false,
      "inputs": [
        {
          "internalType": "address",
          "name": "acc",
          "type": "address"
        },
        {
          "internalType": "uint256",
          "name": "diff",
          "type": "uint256"
        }
      ],
      "name": "incBalance",
      "outputs": [],
      "payable": false,
      "stateMutability": "nonpayable",
      "type": "function"
    },
    {
      "constant": false,
      "inputs": [
        {
          "internalType": "address",
          "name": "acc",
          "type": "address"
        },
        {
          "internalType": "uint256",
          "name": "diff",
          "type": "uint256"
        }
      ],
      "name": "incNonce",
      "outputs": [],
      "payable": false,
      "stateMutability": "nonpayable",
      "type": "function"
    },
    {
      "constant": false,
      "inputs": [
        {
          "internalType": "address payable",
          "name": "_sfc",
          "type": "address"
        },
        {
          "internalType": "address",
          "name": "_driver",
          "type": "address"
        },
        {
          "internalType": "address",
          "name": "_owner",
          "type": "address"
        }
      ],
      "name": "initialize",
      "outputs": [],
      "payable": false,
      "stateMutability": "nonpayable",
      "type": "function"
    },
    {
      "constant": true,
      "inputs": [],
      "name": "isOwner",
      "outputs": [
        {
          "internalType": "bool",
          "name": "",
          "type": "bool"
        }
      ],
      "payable": false,
      "stateMutability": "view",
      "type": "function"
    },
    {
      "constant": false,
      "inputs": [
        {
          "internalType": "address",
          "name": "newDriverAuth",
          "type": "address"
        }
      ],
      "name": "migrateTo",
      "outputs": [],
      "payable": false,
      "stateMutability": "nonpayable",
      "type": "function"
    },
    {
      "constant": false,
      "inputs": [
        {
          "internalType": "address",
          "name": "executable",
          "type": "address"
        },
        {
          "internalType": "address",
          "name": "newOwner",
          "type": "address"
        },
        {
          "internalType": "bytes32",
          "name": "selfCodeHash",
          "type": "bytes32"
        },
        {
          "internalType": "bytes32",
          "name": "driverCodeHash",
          "type": "bytes32"
        }
      ],
      "name": "mutExecute",
      "outputs": [],
      "payable": false,
      "stateMutability": "nonpayable",
      "type": "function"
    },
    {
      "constant": true,
      "inputs": [],
      "name": "owner",
      "outputs": [
        {
          "internalType": "address",
          "name": "",
          "type": "address"
        }
      ],
      "payable": false,
      "stateMutability": "view",
      "type": "function"
    },
    {
      "constant": false,
      "inputs": [],
      "name": "renounceOwnership",
      "outputs": [],
      "payable": false,
      "stateMutability": "nonpayable",
      "type": "function"
    },
    {
      "constant": false,
      "inputs": [
        {
          "internalType": "uint256[]",
          "name": "offlineTimes",
          "type": "uint256[]"
        },
        {
          "internalType": "uint256[]",
          "name": "offlineBlocks",
          "type": "uint256[]"
        },
        {
          "internalType": "uint256[]",
          "name": "uptimes",
          "type": "uint256[]"
        },
        {
          "internalType": "uint256[]",
          "name": "originatedTxsFee",
          "type": "uint256[]"
        },
        {
          "internalType": "uint256",
          "name": "usedGas",
          "type": "uint256"
        }
      ],
      "name": "sealEpoch",
      "outputs": [],
      "payable": false,
      "stateMutability": "nonpayable",
      "type": "function"
    },
    {
      "constant": false,
      "inputs": [
        {
          "internalType": "uint256[]",
          "name": "nextValidatorIDs",
          "type": "uint256[]"
        }
      ],
      "name": "sealEpochValidators",
      "outputs": [],
      "payable": false,
      "stateMutability": "nonpayable",
      "type": "function"
    },
    {
      "constant": false,
      "inputs": [
        {
          "internalType": "address",
          "name": "delegator",
          "type": "address"
        },
        {
          "internalType": "uint256",
          "name": "toValidatorID",
          "type": "uint256"
        },
        {
          "internalType": "uint256",
          "name": "stake",
          "type": "uint256"
        },
        {
          "internalType": "uint256",
          "name": "lockedStake",
          "type": "uint256"
        },
        {
          "internalType": "uint256",
          "name": "lockupFromEpoch",
          "type": "uint256"
        },
        {
          "internalType": "uint256",
          "name": "lockupEndTime",
          "type": "uint256"
        },
        {
          "internalType": "uint256",
          "name": "lockupDuration",
          "type": "uint256"
        },
        {
          "internalType": "uint256",
          "name": "earlyUnlockPenalty",
          "type": "uint256"
        },
        {
          "internalType": "uint256",
          "name": "rewards",
          "type": "uint256"
        }
      ],
      "name": "setGenesisDelegation",
      "outputs": [],
      "payable": false,
      "stateMutability": "nonpayable",
      "type": "function"
    },
    {
      "constant": false,
      "inputs": [
        {
          "internalType": "address",
          "name": "_auth",
          "type": "address"
        },
        {
          "internalType": "uint256",
          "name": "validatorID",
          "type": "uint256"
        },
        {
          "internalType": "bytes",
          "name": "pubkey",
          "type": "bytes"
        },
        {
          "internalType": "uint256",
          "name": "status",
          "type": "uint256"
        },
        {
          "internalType": "uint256",
          "name": "createdEpoch",
          "type": "uint256"
        },
        {
          "internalType": "uint256",
          "name": "createdTime",
          "type": "uint256"
        },
        {
          "internalType": "uint256",
          "name": "deactivatedEpoch",
          "type": "uint256"
        },
        {
          "internalType": "uint256",
          "name": "deactivatedTime",
          "type": "uint256"
        }
      ],
      "name": "setGenesisValidator",
      "outputs": [],
      "payable": false,
      "stateMutability": "nonpayable",
      "type": "function"
    },
    {
      "constant": false,
      "inputs": [
        {
          "internalType": "address",
          "name": "newOwner",
          "type": "address"
        }
      ],
      "name": "transferOwnership",
      "outputs": [],
      "payable": false,
      "stateMutability": "nonpayable",
      "type": "function"
    },
    {
      "constant": false,
      "inputs": [
        {
          "internalType": "uint256",
          "name": "minGasPrice",
          "type": "uint256"
        }
      ],
      "name": "updateMinGasPrice",
      "outputs": [],
      "payable": false,
      "stateMutability": "nonpayable",
      "type": "function"
    },
    {
      "constant": false,
      "inputs": [
        {
          "internalType": "bytes",
          "name": "diff",
          "type": "bytes"
        }
      ],
      "name": "updateNetworkRules",
      "outputs": [],
      "payable": false,
      "stateMutability": "nonpayable",
      "type": "function"
    },
    {
      "constant": false,
      "inputs": [
        {
          "internalType": "uint256",
          "name": "version",
          "type": "uint256"
        }
      ],
      "name": "updateNetworkVersion",
      "outputs": [],
      "payable": false,
      "stateMutability": "nonpayable",
      "type": "function"
    },
    {
      "constant": false,
      "inputs": [
        {
          "internalType": "uint256",
          "name": "validatorID",
          "type": "uint256"
        },
        {
          "internalType": "bytes",
          "name": "pubkey",
          "type": "bytes"
        }
      ],
      "name": "updateValidatorPubkey",
      "outputs": [],
      "payable": false,
      "stateMutability": "nonpayable",
      "type": "function"
    },
    {
      "constant": false,
      "inputs": [
        {
          "internalType": "uint256",
          "name": "validatorID",
          "type": "uint256"
        },
        {
          "internalType": "uint256",
          "name": "value",
          "type": "uint256"
        }
      ],
      "name": "updateValidatorWeight",
      "outputs": [],
      "payable": false,
      "stateMutability": "nonpayable",
      "type": "function"
    },
    {
      "constant": false,
      "inputs": [
        {
          "internalType": "address",
          "name": "acc",
          "type": "address"
        },
        {
          "internalType": "address",
          "name": "from",
          "type": "address"
        }
      ],
      "name": "upgradeCode",
      "outputs": [],
      "payable": false,
      "stateMutability": "nonpayable",
      "type": "function"
    }
  ],
  "bytecode": "608060405234801561001057600080fd5b50611deb806100206000396000f3fe608060405234801561001057600080fd5b506004361061014d5760003560e01c806366e7ea0f116100c3578063b9cc6b1c1161007c578063b9cc6b1c146105e0578063c0c53b8b1461064e578063d6a0c7af14610686578063e08d7e66146106b4578063f2fde38b14610722578063fd1b6ec1146107485761014d565b806366e7ea0f1461051d578063715018a61461054957806379bead38146105515780638da5cb5b1461057d5780638f32d59b146105a1578063a4066fbe146105bd5761014d565b8063242a6e3f11610115578063242a6e3f14610245578063267ab446146102ba5780634b64e492146102d75780634ddaf8f2146102fd5780634feb92f314610323578063592fe0c0146103bf5761014d565b806307aaf344146101525780630aeeca001461017157806318f628d41461018e5780631cef4fab146101e65780631e702f8314610222575b600080fd5b61016f6004803603602081101561016857600080fd5b5035610776565b005b61016f6004803603602081101561018757600080fd5b50356108ec565b61016f60048036036101208110156101a557600080fd5b506001600160a01b038135169060208101359060408101359060608101359060808101359060a08101359060c08101359060e081013590610100013561097f565b61016f600480360360808110156101fc57600080fd5b506001600160a01b03813581169160208101359091169060408101359060600135610a73565b61016f6004803603604081101561023857600080fd5b5080359060200135610acc565b61016f6004803603604081101561025b57600080fd5b81359190810190604081016020820135600160201b81111561027c57600080fd5b82018360208201111561028e57600080fd5b803590602001918460018302840111600160201b831117156102af57600080fd5b509092509050610b85565b61016f600480360360208110156102d057600080fd5b5035610c6f565b61016f600480360360208110156102ed57600080fd5b50356001600160a01b0316610d03565b61016f6004803603602081101561031357600080fd5b50356001600160a01b0316610d7c565b61016f600480360361010081101561033a57600080fd5b6001600160a01b0382351691602081013591810190606081016040820135600160201b81111561036957600080fd5b82018360208201111561037b57600080fd5b803590602001918460018302840111600160201b8311171561039c57600080fd5b919350915080359060208101359060408101359060608101359060800135610e11565b61016f600480360360a08110156103d557600080fd5b810190602081018135600160201b8111156103ef57600080fd5b82018360208201111561040157600080fd5b803590602001918460208302840111600160201b8311171561042257600080fd5b919390929091602081019035600160201b81111561043f57600080fd5b82018360208201111561045157600080fd5b803590602001918460208302840111600160201b8311171561047257600080fd5b919390929091602081019035600160201b81111561048f57600080fd5b8201836020820111156104a157600080fd5b803590602001918460208302840111600160201b831117156104c257600080fd5b919390929091602081019035600160201b8111156104df57600080fd5b8201836020820111156104f157600080fd5b803590602001918460208302840111600160201b8311171561051257600080fd5b919350915035610f2b565b61016f6004803603604081101561053357600080fd5b506001600160a01b038135169060200135611096565b61016f6111a8565b61016f6004803603604081101561056757600080fd5b506001600160a01b038135169060200135611239565b6105856112d5565b604080516001600160a01b039092168252519081900360200190f35b6105a96112e4565b604080519115158252519081900360200190f35b61016f600480360360408110156105d357600080fd5b50803590602001356112f5565b61016f600480360360208110156105f657600080fd5b810190602081018135600160201b81111561061057600080fd5b82018360208201111561062257600080fd5b803590602001918460018302840111600160201b8311171561064357600080fd5b509092509050611396565b61016f6004803603606081101561066457600080fd5b506001600160a01b038135811691602081013582169160409091013516611454565b61016f6004803603604081101561069c57600080fd5b506001600160a01b0381358116916020013516611531565b61016f600480360360208110156106ca57600080fd5b810190602081018135600160201b8111156106e457600080fd5b8201836020820111156106f657600080fd5b803590602001918460208302840111600160201b8311171561071757600080fd5b5090925090506115ce565b61016f6004803603602081101561073857600080fd5b50356001600160a01b0316611694565b61016f6004803603604081101561075e57600080fd5b506001600160a01b03813581169160200135166116e4565b6066546001600160a01b031633146107c3576040805162461bcd60e51b815260206004820152601e6024820152600080516020611d51833981519152604482015290519081900360640190fd5b60675460408051808201909152601a81527f7b2245636f6e6f6d79223a7b224d696e4761735072696365223a00000000000060208201526001600160a01b039091169063b9cc6b1c906108399061081985611786565b604051806040016040528060028152602001617d7d60f01b81525061183a565b6040518263ffffffff1660e01b81526004018080602001828103825283818151815260200191508051906020019080838360005b8381101561088557818101518382015260200161086d565b50505050905090810190601f1680156108b25780820380516001836020036101000a031916815260200191505b5092505050600060405180830381600087803b1580156108d157600080fd5b505af11580156108e5573d6000803e3d6000fd5b5050505050565b6108f46112e4565b610933576040805162461bcd60e51b81526020600482018190526024820152600080516020611d03833981519152604482015290519081900360640190fd5b606754604080516205776560e91b81526004810184905290516001600160a01b0390921691630aeeca009160248082019260009290919082900301818387803b1580156108d157600080fd5b6067546001600160a01b031633146109c85760405162461bcd60e51b8152600401808060200182810382526025815260200180611d926025913960400191505060405180910390fd5b6066546040805163063d8a3560e21b81526001600160a01b038c81166004830152602482018c9052604482018b9052606482018a90526084820189905260a4820188905260c4820187905260e482018690526101048201859052915191909216916318f628d49161012480830192600092919082900301818387803b158015610a5057600080fd5b505af1158015610a64573d6000803e3d6000fd5b50505050505050505050505050565b610a7b6112e4565b610aba576040805162461bcd60e51b81526020600482018190526024820152600080516020611d03833981519152604482015290519081900360640190fd5b610ac684848484611990565b50505050565b6067546001600160a01b03163314610b155760405162461bcd60e51b8152600401808060200182810382526025815260200180611d926025913960400191505060405180910390fd5b60665460408051631e702f8360e01b8152600481018590526024810184905290516001600160a01b0390921691631e702f839160448082019260009290919082900301818387803b158015610b6957600080fd5b505af1158015610b7d573d6000803e3d6000fd5b505050505050565b6066546001600160a01b03163314610bd2576040805162461bcd60e51b815260206004820152601e6024820152600080516020611d51833981519152604482015290519081900360640190fd5b6067546040805163242a6e3f60e01b81526004810186815260248201928352604482018590526001600160a01b039093169263242a6e3f928792879287929091606401848480828437600081840152601f19601f820116905080830192505050945050505050600060405180830381600087803b158015610c5257600080fd5b505af1158015610c66573d6000803e3d6000fd5b50505050505050565b610c776112e4565b610cb6576040805162461bcd60e51b81526020600482018190526024820152600080516020611d03833981519152604482015290519081900360640190fd5b6067546040805163133d5a2360e11b81526004810184905290516001600160a01b039092169163267ab4469160248082019260009290919082900301818387803b1580156108d157600080fd5b610d0b6112e4565b610d4a576040805162461bcd60e51b81526020600482018190526024820152600080516020611d03833981519152604482015290519081900360640190fd5b610d7981610d566112d5565b610d5f30611aba565b606754610d74906001600160a01b0316611aba565b611990565b50565b610d846112e4565b610dc3576040805162461bcd60e51b81526020600482018190526024820152600080516020611d03833981519152604482015290519081900360640190fd5b6067546040805163da7fc24f60e01b81526001600160a01b0384811660048301529151919092169163da7fc24f91602480830192600092919082900301818387803b1580156108d157600080fd5b6067546001600160a01b03163314610e5a5760405162461bcd60e51b8152600401808060200182810382526025815260200180611d926025913960400191505060405180910390fd5b606660009054906101000a90046001600160a01b03166001600160a01b0316634feb92f38a8a8a8a8a8a8a8a8a6040518a63ffffffff1660e01b8152600401808a6001600160a01b03166001600160a01b03168152602001898152602001806020018781526020018681526020018581526020018481526020018381526020018281038252898982818152602001925080828437600081840152601f19601f8201169050808301925050509a5050505050505050505050600060405180830381600087803b158015610a5057600080fd5b6067546001600160a01b03163314610f745760405162461bcd60e51b8152600401808060200182810382526025815260200180611d926025913960400191505060405180910390fd5b606660009054906101000a90046001600160a01b03166001600160a01b031663592fe0c08a8a8a8a8a8a8a8a8a6040518a63ffffffff1660e01b8152600401808060200180602001806020018060200186815260200185810385528e8e82818152602001925060200280828437600083820152601f01601f191690910186810385528c8152602090810191508d908d0280828437600083820152601f01601f191690910186810384528a8152602090810191508b908b0280828437600083820152601f01601f19169091018681038352888152602090810191508990890280828437600081840152601f19601f8201169050808301925050509d5050505050505050505050505050600060405180830381600087803b158015610a5057600080fd5b6066546001600160a01b031633146110e3576040805162461bcd60e51b815260206004820152601e6024820152600080516020611d51833981519152604482015290519081900360640190fd5b6066546001600160a01b0383811691161461112f5760405162461bcd60e51b8152600401808060200182810382526021815260200180611d716021913960400191505060405180910390fd5b6067546001600160a01b039081169063e30443bc908490611159908216318563ffffffff611abe16565b6040518363ffffffff1660e01b815260040180836001600160a01b03166001600160a01b0316815260200182815260200192505050600060405180830381600087803b158015610b6957600080fd5b6111b06112e4565b6111ef576040805162461bcd60e51b81526020600482018190526024820152600080516020611d03833981519152604482015290519081900360640190fd5b6033546040516000916001600160a01b0316907f8be0079c531659141344cd1fd0a4f28419497f9722a3daafe3b4186f6b6457e0908390a3603380546001600160a01b0319169055565b6112416112e4565b611280576040805162461bcd60e51b81526020600482018190526024820152600080516020611d03833981519152604482015290519081900360640190fd5b60675460408051630f37d5a760e31b81526001600160a01b03858116600483015260248201859052915191909216916379bead3891604480830192600092919082900301818387803b158015610b6957600080fd5b6033546001600160a01b031690565b6033546001600160a01b0316331490565b6066546001600160a01b03163314611342576040805162461bcd60e51b815260206004820152601e6024820152600080516020611d51833981519152604482015290519081900360640190fd5b6067546040805163520337df60e11b8152600481018590526024810184905290516001600160a01b039092169163a4066fbe9160448082019260009290919082900301818387803b158015610b6957600080fd5b61139e6112e4565b6113dd576040805162461bcd60e51b81526020600482018190526024820152600080516020611d03833981519152604482015290519081900360640190fd5b606754604051632e731ac760e21b8152602060048201908152602482018490526001600160a01b039092169163b9cc6b1c91859185918190604401848480828437600081840152601f19601f8201169050808301925050509350505050600060405180830381600087803b158015610b6957600080fd5b600054610100900460ff168061146d575061146d611b1f565b8061147b575060005460ff16155b6114b65760405162461bcd60e51b815260040180806020018281038252602e815260200180611d23602e913960400191505060405180910390fd5b600054610100900460ff161580156114e1576000805460ff1961ff0019909116610100171660011790555b6114ea82611b25565b606780546001600160a01b038086166001600160a01b03199283161790925560668054928716929091169190911790558015610ac6576000805461ff001916905550505050565b6115396112e4565b611578576040805162461bcd60e51b81526020600482018190526024820152600080516020611d03833981519152604482015290519081900360640190fd5b6067546040805163d6a0c7af60e01b81526001600160a01b03858116600483015284811660248301529151919092169163d6a0c7af91604480830192600092919082900301818387803b158015610b6957600080fd5b6067546001600160a01b031633146116175760405162461bcd60e51b8152600401808060200182810382526025815260200180611d926025913960400191505060405180910390fd5b606654604051637046bf3360e11b8152602060048201818152602483018590526001600160a01b039093169263e08d7e6692869286929182916044909101908590850280828437600081840152601f19601f8201169050808301925050509350505050600060405180830381600087803b158015610b6957600080fd5b61169c6112e4565b6116db576040805162461bcd60e51b81526020600482018190526024820152600080516020611d03833981519152604482015290519081900360640190fd5b610d7981611c17565b6116ec6112e4565b61172b576040805162461bcd60e51b81526020600482018190526024820152600080516020611d03833981519152604482015290519081900360640190fd5b61173482611cb8565b8015611744575061174481611cb8565b611578576040805162461bcd60e51b815260206004820152600e60248201526d1b9bdd08184818dbdb9d1c9858dd60921b604482015290519081900360640190fd5b6060816117ab57506040805180820190915260018152600360fc1b6020820152611835565b60006117b683611cbe565b90506060816040519080825280601f01601f1916602001820160405280156117e5576020820181803883390190505b50905060001982015b841561183057600a850660300160f81b82828151811061180a57fe5b60200101906001600160f81b031916908160001a905350600a85049450600019016117ee565b509150505b919050565b60608084905060608490506060849050606081518351855101016040519080825280601f01601f19166020018201604052801561187e576020820181803883390190505b509050806000805b86518110156118d75786818151811061189b57fe5b602001015160f81c60f81b8383806001019450815181106118b857fe5b60200101906001600160f81b031916908160001a905350600101611886565b5060005b855181101561192c578581815181106118f057fe5b602001015160f81c60f81b83838060010194508151811061190d57fe5b60200101906001600160f81b031916908160001a9053506001016118db565b5060005b84518110156119815784818151811061194557fe5b602001015160f81c60f81b83838060010194508151811061196257fe5b60200101906001600160f81b031916908160001a905350600101611930565b50909998505050505050505050565b61199984611c17565b836001600160a01b031663614619546040518163ffffffff1660e01b8152600401600060405180830381600087803b1580156119d457600080fd5b505af11580156119e8573d6000803e3d6000fd5b505050506119f583611c17565b816119ff30611aba565b14611a51576040805162461bcd60e51b815260206004820152601c60248201527f73656c6620636f6465206861736820646f65736e2774206d6174636800000000604482015290519081900360640190fd5b6067548190611a68906001600160a01b0316611aba565b14610ac6576040805162461bcd60e51b815260206004820152601e60248201527f64726976657220636f6465206861736820646f65736e2774206d617463680000604482015290519081900360640190fd5b3f90565b600082820183811015611b18576040805162461bcd60e51b815260206004820152601b60248201527f536166654d6174683a206164646974696f6e206f766572666c6f770000000000604482015290519081900360640190fd5b9392505050565b303b1590565b600054610100900460ff1680611b3e5750611b3e611b1f565b80611b4c575060005460ff16155b611b875760405162461bcd60e51b815260040180806020018281038252602e815260200180611d23602e913960400191505060405180910390fd5b600054610100900460ff16158015611bb2576000805460ff1961ff0019909116610100171660011790555b603380546001600160a01b0319166001600160a01b0384811691909117918290556040519116906000907f8be0079c531659141344cd1fd0a4f28419497f9722a3daafe3b4186f6b6457e0908290a38015611c13576000805461ff00191690555b5050565b6001600160a01b038116611c5c5760405162461bcd60e51b8152600401808060200182810382526026815260200180611cdd6026913960400191505060405180910390fd5b6033546040516001600160a01b038084169216907f8be0079c531659141344cd1fd0a4f28419497f9722a3daafe3b4186f6b6457e090600090a3603380546001600160a01b0319166001600160a01b0392909216919091179055565b3b151590565b6000805b8215611cd657600101600a83049250611cc2565b9291505056fe4f776e61626c653a206e6577206f776e657220697320746865207a65726f20616464726573734f776e61626c653a2063616c6c6572206973206e6f7420746865206f776e6572436f6e747261637420696e7374616e63652068617320616c7265616479206265656e20696e697469616c697a656463616c6c6572206973206e6f74207468652053464320636f6e74726163740000726563697069656e74206973206e6f74207468652053464320636f6e747261637463616c6c6572206973206e6f7420746865204e6f646544726976657220636f6e7472616374a265627a7a7231582096292a6ef9712bbfb9c178899fbe9cba672f12d5d8b8b1b605458c5a9147269964736f6c63430005110032",
  "bytecodeSha1": "58661ee30442f00680251ee2ac8dff8855568223",
  "compiler": {
    "evm_version": "istanbul",
    "optimizer": {
      "enabled": true,
      "runs": 200
    },
    "version": "0.5.17+commit.d19bba13"
  },
  "contractName": "NodeDriverAuth",
  "language": "Solidity",
  "natspec": {
    "methods": {
      "isOwner()": {
        "details": "Returns true if the caller is the current owner."
      },
      "owner()": {
        "details": "Returns the address of the current owner."
      },
      "renounceOwnership()": {
        "details": "Leaves the contract without owner. It will not be possible to call `onlyOwner` functions anymore. Can only be called by the current owner.     * > Note: Renouncing ownership will leave the contract without an owner, thereby removing any functionality that is only available to the owner."
      },
      "transferOwnership(address)": {
        "details": "Transfers ownership of the contract to a new account (`newOwner`). Can only be called by the current owner."
      }
    }
  },
  "opcodes": "PUSH1 0x80 PUSH1 0x40 MSTORE CALLVALUE DUP1 ISZERO PUSH2 0x10 JUMPI PUSH1 0x0 DUP1 REVERT JUMPDEST POP PUSH1 0x4 CALLDATASIZE LT PUSH2 0x14D JUMPI PUSH1 0x0 CALLDATALOAD PUSH1 0xE0 SHR DUP1 PUSH4 0x66E7EA0F GT PUSH2 0xC3 JUMPI DUP1 PUSH4 0xB9CC6B1C GT PUSH2 0x7C JUMPI DUP1 PUSH4 0xB9CC6B1C EQ PUSH2 0x5E0 JUMPI DUP1 PUSH4 0xC0C53B8B EQ PUSH2 0x64E JUMPI DUP1 PUSH4 0xD6A0C7AF EQ PUSH2 0x686 JUMPI DUP1 PUSH4 0xE08D7E66 EQ PUSH2 0x6B4 JUMPI DUP1 PUSH4 0xF2FDE38B EQ PUSH2 0x722 JUMPI DUP1 PUSH4 0xFD1B6EC1 EQ PUSH2 0x748 JUMPI PUSH2 0x14D JUMP JUMPDEST DUP1 PUSH4 0x66E7EA0F EQ PUSH2 0x51D JUMPI DUP1 PUSH4 0x715018A6 EQ PUSH2 0x549 JUMPI DUP1 PUSH4 0x79BEAD38 EQ PUSH2 0x551 JUMPI DUP1 PUSH4 0x8DA5CB5B EQ PUSH2 0x57D JUMPI DUP1 PUSH4 0x8F32D59B EQ PUSH2 0x5A1 JUMPI DUP1 PUSH4 0xA4066FBE EQ PUSH2 0x5BD JUMPI PUSH2 0x14D JUMP JUMPDEST DUP1 PUSH4 0x242A6E3F GT PUSH2 0x115 JUMPI DUP1 PUSH4 0x242A6E3F EQ PUSH2 0x245 JUMPI DUP1 PUSH4 0x267AB446 EQ PUSH2 0x2BA JUMPI DUP1 PUSH4 0x4B64E492 EQ PUSH2 0x2D7 JUMPI DUP1 PUSH4 0x4DDAF8F2 EQ PUSH2 0x2FD JUMPI DUP1 PUSH4 0x4FEB92F3 EQ PUSH2 0x323 JUMPI DUP1 PUSH4 0x592FE0C0 EQ PUSH2 0x3BF JUMPI PUSH2 0x14D JUMP JUMPDEST DUP1 PUSH4 0x7AAF344 EQ PUSH2 0x152 JUMPI DUP1 PUSH4 0xAEECA00 EQ PUSH2 0x171 JUMPI DUP1 PUSH4 0x18F628D4 EQ PUSH2 0x18E JUMPI DUP1 PUSH4 0x1CEF4FAB EQ PUSH2 0x1E6 JUMPI DUP1 PUSH4 0x1E702F83 EQ PUSH2 0x222 JUMPI JUMPDEST PUSH1 0x0 DUP1 REVERT JUMPDEST PUSH2 0x16F PUSH1 0x4 DUP1 CALLDATASIZE SUB PUSH1 0x20 DUP2 LT ISZERO PUSH2 0x168 JUMPI PUSH1 0x0 DUP1 REVERT JUMPDEST POP CALLDATALOAD PUSH2 0x776 JUMP JUMPDEST STOP JUMPDEST PUSH2 0x16F PUSH1 0x4 DUP1 CALLDATASIZE SUB PUSH1 0x20 DUP2 LT ISZERO PUSH2 0x187 JUMPI PUSH1 0x0 DUP1 REVERT JUMPDEST POP CALLDATALOAD PUSH2 0x8EC JUMP JUMPDEST PUSH2 0x16F PUSH1 0x4 DUP1 CALLDATASIZE SUB PUSH2 0x120 DUP2 LT ISZERO PUSH2 0x1A5 JUMPI PUSH1 0x0 DUP1 REVERT JUMPDEST POP PUSH1 0x1 PUSH1 0x1 PUSH1 0xA0 SHL SUB DUP2 CALLDATALOAD AND SWAP1 PUSH1 0x20 DUP2 ADD CALLDATALOAD SWAP1 PUSH1 0x40 DUP2 ADD CALLDATALOAD SWAP1 PUSH1 0x60 DUP2 ADD CALLDATALOAD SWAP1 PUSH1 0x80 DUP2 ADD CALLDATALOAD SWAP1 PUSH1 0xA0 DUP2 ADD CALLDATALOAD SWAP1 PUSH1 0xC0 DUP2 ADD CALLDATALOAD SWAP1 PUSH1 0xE0 DUP2 ADD CALLDATALOAD SWAP1 PUSH2 0x100 ADD CALLDATALOAD PUSH2 0x97F JUMP JUMPDEST PUSH2 0x16F PUSH1 0x4 DUP1 CALLDATASIZE SUB PUSH1 0x80 DUP2 LT ISZERO PUSH2 0x1FC JUMPI PUSH1 0x0 DUP1 REVERT JUMPDEST POP PUSH1 0x1 PUSH1 0x1 PUSH1 0xA0 SHL SUB DUP2 CALLDATALOAD DUP2 AND SWAP2 PUSH1 0x20 DUP2 ADD CALLDATALOAD SWAP1 SWAP2 AND SWAP1 PUSH1 0x40 DUP2 ADD CALLDATALOAD SWAP1 PUSH1 0x60 ADD CALLDATALOAD PUSH2 0xA73 JUMP JUMPDEST PUSH2 0x16F PUSH1 0x4 DUP1 CALLDATASIZE SUB PUSH1 0x40 DUP2 LT ISZERO PUSH2 0x238 JUMPI PUSH1 0x0 DUP1 REVERT JUMPDEST POP DUP1 CALLDATALOAD SWAP1 PUSH1 0x20 ADD CALLDATALOAD PUSH2 0xACC JUMP JUMPDEST PUSH2 0x16F PUSH1 0x4 DUP1 CALLDATASIZE SUB PUSH1 0x40 DUP2 LT ISZERO PUSH2 0x25B JUMPI PUSH1 0x0 DUP1 REVERT JUMPDEST DUP2 CALLDATALOAD SWAP2 SWAP1 DUP2 ADD SWAP1 PUSH1 0x40 DUP2 ADD PUSH1 0x20 DUP3 ADD CALLDATALOAD PUSH1 0x1 PUSH1 0x20 SHL DUP2 GT ISZERO PUSH2 0x27C JUMPI PUSH1 0x0 DUP1 REVERT JUMPDEST DUP3 ADD DUP4 PUSH1 0x20 DUP3 ADD GT ISZERO PUSH2 0x28E JUMPI PUSH1 0x0 DUP1 REVERT JUMPDEST DUP1 CALLDATALOAD SWAP1 PUSH1 0x20 ADD SWAP2 DUP5 PUSH1 0x1 DUP4 MUL DUP5 ADD GT PUSH1 0x1 PUSH1 0x20 SHL DUP4 GT OR ISZERO PUSH2 0x2AF JUMPI PUSH1 0x0 DUP1 REVERT JUMPDEST POP SWAP1 SWAP3 POP SWAP1 POP PUSH2 0xB85 JUMP JUMPDEST PUSH2 0x16F PUSH1 0x4 DUP1 CALLDATASIZE SUB PUSH1 0x20 DUP2 LT ISZERO PUSH2 0x2D0 JUMPI PUSH1 0x0 DUP1 REVERT JUMPDEST POP CALLDATALOAD PUSH2 0xC6F JUMP JUMPDEST PUSH2 0x16F PUSH1 0x4 DUP1 CALLDATASIZE SUB PUSH1 0x20 DUP2 LT ISZERO PUSH2 0x2ED JUMPI PUSH1 0x0 DUP1 REVERT JUMPDEST POP CALLDATALOAD PUSH1 0x1 PUSH1 0x1 PUSH1 0xA0 SHL SUB AND PUSH2 0xD03 JUMP JUMPDEST PUSH2 0x16F PUSH1 0x4 DUP1 CALLDATASIZE SUB PUSH1 0x20 DUP2 LT ISZERO PUSH2 0x313 JUMPI PUSH1 0x0 DUP1 REVERT JUMPDEST POP CALLDATALOAD PUSH1 0x1 PUSH1 0x1 PUSH1 0xA0 SHL SUB AND PUSH2 0xD7C JUMP JUMPDEST PUSH2 0x16F PUSH1 0x4 DUP1 CALLDATASIZE SUB PUSH2 0x100 DUP2 LT ISZERO PUSH2 0x33A JUMPI PUSH1 0x0 DUP1 REVERT JUMPDEST PUSH1 0x1 PUSH1 0x1 PUSH1 0xA0 SHL SUB DUP3 CALLDATALOAD AND SWAP2 PUSH1 0x20 DUP2 ADD CALLDATALOAD SWAP2 DUP2 ADD SWAP1 PUSH1 0x60 DUP2 ADD PUSH1 0x40 DUP3 ADD CALLDATALOAD PUSH1 0x1 PUSH1 0x20 SHL DUP2 GT ISZERO PUSH2 0x369 JUMPI PUSH1 0x0 DUP1 REVERT JUMPDEST DUP3 ADD DUP4 PUSH1 0x20 DUP3 ADD GT ISZERO PUSH2 0x37B JUMPI PUSH1 0x0 DUP1 REVERT JUMPDEST DUP1 CALLDATALOAD SWAP1 PUSH1 0x20 ADD SWAP2 DUP5 PUSH1 0x1 DUP4 MUL DUP5 ADD GT PUSH1 0x1 PUSH1 0x20 SHL DUP4 GT OR ISZERO PUSH2 0x39C JUMPI PUSH1 0x0 DUP1 REVERT JUMPDEST SWAP2 SWAP4 POP SWAP2 POP DUP1 CALLDATALOAD SWAP1 PUSH1 0x20 DUP2 ADD CALLDATALOAD SWAP1 PUSH1 0x40 DUP2 ADD CALLDATALOAD SWAP1 PUSH1 0x60 DUP2 ADD CALLDATALOAD SWAP1 PUSH1 0x80 ADD CALLDATALOAD PUSH2 0xE11 JUMP JUMPDEST PUSH2 0x16F PUSH1 0x4 DUP1 CALLDATASIZE SUB PUSH1 0xA0 DUP2 LT ISZERO PUSH2 0x3D5 JUMPI PUSH1 0x0 DUP1 REVERT JUMPDEST DUP2 ADD SWAP1 PUSH1 0x20 DUP2 ADD DUP2 CALLDATALOAD PUSH1 0x1 PUSH1 0x20 SHL DUP2 GT ISZERO PUSH2 0x3EF JUMPI PUSH1 0x0 DUP1 REVERT JUMPDEST DUP3 ADD DUP4 PUSH1 0x20 DUP3 ADD GT ISZERO PUSH2 0x401 JUMPI PUSH1 0x0 DUP1 REVERT JUMPDEST DUP1 CALLDATALOAD SWAP1 PUSH1 0x20 ADD SWAP2 DUP5 PUSH1 0x20 DUP4 MUL DUP5 ADD GT PUSH1 0x1 PUSH1 0x20 SHL DUP4 GT OR ISZERO PUSH2 0x422 JUMPI PUSH1 0x0 DUP1 REVERT JUMPDEST SWAP2 SWAP4 SWAP1 SWAP3 SWAP1 SWAP2 PUSH1 0x20 DUP2 ADD SWAP1 CALLDATALOAD PUSH1 0x1 PUSH1 0x20 SHL DUP2 GT ISZERO PUSH2 0x43F JUMPI PUSH1 0x0 DUP1 REVERT JUMPDEST DUP3 ADD DUP4 PUSH1 0x20 DUP3 ADD GT ISZERO PUSH2 0x451 JUMPI PUSH1 0x0 DUP1 REVERT JUMPDEST DUP1 CALLDATALOAD SWAP1 PUSH1 0x20 ADD SWAP2 DUP5 PUSH1 0x20 DUP4 MUL DUP5 ADD GT PUSH1 0x1 PUSH1 0x20 SHL DUP4 GT OR ISZERO PUSH2 0x472 JUMPI PUSH1 0x0 DUP1 REVERT JUMPDEST SWAP2 SWAP4 SWAP1 SWAP3 SWAP1 SWAP2 PUSH1 0x20 DUP2 ADD SWAP1 CALLDATALOAD PUSH1 0x1 PUSH1 0x20 SHL DUP2 GT ISZERO PUSH2 0x48F JUMPI PUSH1 0x0 DUP1 REVERT JUMPDEST DUP3 ADD DUP4 PUSH1 0x20 DUP3 ADD GT ISZERO PUSH2 0x4A1 JUMPI PUSH1 0x0 DUP1 REVERT JUMPDEST DUP1 CALLDATALOAD SWAP1 PUSH1 0x20 ADD SWAP2 DUP5 PUSH1 0x20 DUP4 MUL DUP5 ADD GT PUSH1 0x1 PUSH1 0x20 SHL DUP4 GT OR ISZERO PUSH2 0x4C2 JUMPI PUSH1 0x0 DUP1 REVERT JUMPDEST SWAP2 SWAP4 SWAP1 SWAP3 SWAP1 SWAP2 PUSH1 0x20 DUP2 ADD SWAP1 CALLDATALOAD PUSH1 0x1 PUSH1 0x20 SHL DUP2 GT ISZERO PUSH2 0x4DF JUMPI PUSH1 0x0 DUP1 REVERT JUMPDEST DUP3 ADD DUP4 PUSH1 0x20 DUP3 ADD GT ISZERO PUSH2 0x4F1 JUMPI PUSH1 0x0 DUP1 REVERT JUMPDEST DUP1 CALLDATALOAD SWAP1 PUSH1 0x20 ADD SWAP2 DUP5 PUSH1 0x20 DUP4 MUL DUP5 ADD GT PUSH1 0x1 PUSH1 0x20 SHL DUP4 GT OR ISZERO PUSH2 0x512 JUMPI PUSH1 0x0 DUP1 REVERT JUMPDEST SWAP2 SWAP4 POP SWAP2 POP CALLDATALOAD PUSH2 0xF2B JUMP JUMPDEST PUSH2 0x16F PUSH1 0x4 DUP1 CALLDATASIZE SUB PUSH1 0x40 DUP2 LT ISZERO PUSH2 0x533 JUMPI PUSH1 0x0 DUP1 REVERT JUMPDEST POP PUSH1 0x1 PUSH1 0x1 PUSH1 0xA0 SHL SUB DUP2 CALLDATALOAD AND SWAP1 PUSH1 0x20 ADD CALLDATALOAD PUSH2 0x1096 JUMP JUMPDEST PUSH2 0x16F PUSH2 0x11A8 JUMP JUMPDEST PUSH2 0x16F PUSH1 0x4 DUP1 CALLDATASIZE SUB PUSH1 0x40 DUP2 LT ISZERO PUSH2 0x567 JUMPI PUSH1 0x0 DUP1 REVERT JUMPDEST POP PUSH1 0x1 PUSH1 0x1 PUSH1 0xA0 SHL SUB DUP2 CALLDATALOAD AND SWAP1 PUSH1 0x20 ADD CALLDATALOAD PUSH2 0x1239 JUMP JUMPDEST PUSH2 0x585 PUSH2 0x12D5 JUMP JUMPDEST PUSH1 0x40 DUP1 MLOAD PUSH1 0x1 PUSH1 0x1 PUSH1 0xA0 SHL SUB SWAP1 SWAP3 AND DUP3 MSTORE MLOAD SWAP1 DUP2 SWAP1 SUB PUSH1 0x20 ADD SWAP1 RETURN JUMPDEST PUSH2 0x5A9 PUSH2 0x12E4 JUMP JUMPDEST PUSH1 0x40 DUP1 MLOAD SWAP2 ISZERO ISZERO DUP3 MSTORE MLOAD SWAP1 DUP2 SWAP1 SUB PUSH1 0x20 ADD SWAP1 RETURN JUMPDEST PUSH2 0x16F PUSH1 0x4 DUP1 CALLDATASIZE SUB PUSH1 0x40 DUP2 LT ISZERO PUSH2 0x5D3 JUMPI PUSH1 0x0 DUP1 REVERT JUMPDEST POP DUP1 CALLDATALOAD SWAP1 PUSH1 0x20 ADD CALLDATALOAD PUSH2 0x12F5 JUMP JUMPDEST PUSH2 0x16F PUSH1 0x4 DUP1 CALLDATASIZE SUB PUSH1 0x20 DUP2 LT ISZERO PUSH2 0x5F6 JUMPI PUSH1 0x0 DUP1 REVERT JUMPDEST DUP2 ADD SWAP1 PUSH1 0x20 DUP2 ADD DUP2 CALLDATALOAD PUSH1 0x1 PUSH1 0x20 SHL DUP2 GT ISZERO PUSH2 0x610 JUMPI PUSH1 0x0 DUP1 REVERT JUMPDEST DUP3 ADD DUP4 PUSH1 0x20 DUP3 ADD GT ISZERO PUSH2 0x622 JUMPI PUSH1 0x0 DUP1 REVERT JUMPDEST DUP1 CALLDATALOAD SWAP1 PUSH1 0x20 ADD SWAP2 DUP5 PUSH1 0x1 DUP4 MUL DUP5 ADD GT PUSH1 0x1 PUSH1 0x20 SHL DUP4 GT OR ISZERO PUSH2 0x643 JUMPI PUSH1 0x0 DUP1 REVERT JUMPDEST POP SWAP1 SWAP3 POP SWAP1 POP PUSH2 0x1396 JUMP JUMPDEST PUSH2 0x16F PUSH1 0x4 DUP1 CALLDATASIZE SUB PUSH1 0x60 DUP2 LT ISZERO PUSH2 0x664 JUMPI PUSH1 0x0 DUP1 REVERT JUMPDEST POP PUSH1 0x1 PUSH1 0x1 PUSH1 0xA0 SHL SUB DUP2 CALLDATALOAD DUP2 AND SWAP2 PUSH1 0x20 DUP2 ADD CALLDATALOAD DUP3 AND SWAP2 PUSH1 0x40 SWAP1 SWAP2 ADD CALLDATALOAD AND PUSH2 0x1454 JUMP JUMPDEST PUSH2 0x16F PUSH1 0x4 DUP1 CALLDATASIZE SUB PUSH1 0x40 DUP2 LT ISZERO PUSH2 0x69C JUMPI PUSH1 0x0 DUP1 REVERT JUMPDEST POP PUSH1 0x1 PUSH1 0x1 PUSH1 0xA0 SHL SUB DUP2 CALLDATALOAD DUP2 AND SWAP2 PUSH1 0x20 ADD CALLDATALOAD AND PUSH2 0x1531 JUMP JUMPDEST PUSH2 0x16F PUSH1 0x4 DUP1 CALLDATASIZE SUB PUSH1 0x20 DUP2 LT ISZERO PUSH2 0x6CA JUMPI PUSH1 0x0 DUP1 REVERT JUMPDEST DUP2 ADD SWAP1 PUSH1 0x20 DUP2 ADD DUP2 CALLDATALOAD PUSH1 0x1 PUSH1 0x20 SHL DUP2 GT ISZERO PUSH2 0x6E4 JUMPI PUSH1 0x0 DUP1 REVERT JUMPDEST DUP3 ADD DUP4 PUSH1 0x20 DUP3 ADD GT ISZERO PUSH2 0x6F6 JUMPI PUSH1 0x0 DUP1 REVERT JUMPDEST DUP1 CALLDATALOAD SWAP1 PUSH1 0x20 ADD SWAP2 DUP5 PUSH1 0x20 DUP4 MUL DUP5 ADD GT PUSH1 0x1 PUSH1 0x20 SHL DUP4 GT OR ISZERO PUSH2 0x717 JUMPI PUSH1 0x0 DUP1 REVERT JUMPDEST POP SWAP1 SWAP3 POP SWAP1 POP PUSH2 0x15CE JUMP JUMPDEST PUSH2 0x16F PUSH1 0x4 DUP1 CALLDATASIZE SUB PUSH1 0x20 DUP2 LT ISZERO PUSH2 0x738 JUMPI PUSH1 0x0 DUP1 REVERT JUMPDEST POP CALLDATALOAD PUSH1 0x1 PUSH1 0x1 PUSH1 0xA0 SHL SUB AND PUSH2 0x1694 JUMP JUMPDEST PUSH2 0x16F PUSH1 0x4 DUP1 CALLDATASIZE SUB PUSH1 0x40 DUP2 LT ISZERO PUSH2 0x75E JUMPI PUSH1 0x0 DUP1 REVERT JUMPDEST POP PUSH1 0x1 PUSH1 0x1 PUSH1 0xA0 SHL SUB DUP2 CALLDATALOAD DUP2 AND SWAP2 PUSH1 0x20 ADD CALLDATALOAD AND PUSH2 0x16E4 JUMP JUMPDEST PUSH1 0x66 SLOAD PUSH1 0x1 PUSH1 0x1 PUSH1 0xA0 SHL SUB AND CALLER EQ PUSH2 0x7C3 JUMPI PUSH1 0x40 DUP1 MLOAD PUSH3 0x461BCD PUSH1 0xE5 SHL DUP2 MSTORE PUSH1 0x20 PUSH1 0x4 DUP3 ADD MSTORE PUSH1 0x1E PUSH1 0x24 DUP3 ADD MSTORE PUSH1 0x0 DUP1 MLOAD PUSH1 0x20 PUSH2 0x1D51 DUP4 CODECOPY DUP2 MLOAD SWAP2 MSTORE PUSH1 0x44 DUP3 ADD MSTORE SWAP1 MLOAD SWAP1 DUP2 SWAP1 SUB PUSH1 0x64 ADD SWAP1 REVERT JUMPDEST PUSH1 0x67 SLOAD PUSH1 0x40 DUP1 MLOAD DUP1 DUP3 ADD SWAP1 SWAP2 MSTORE PUSH1 0x1A DUP2 MSTORE PUSH32 0x7B2245636F6E6F6D79223A7B224D696E4761735072696365223A000000000000 PUSH1 0x20 DUP3 ADD MSTORE PUSH1 0x1 PUSH1 0x1 PUSH1 0xA0 SHL SUB SWAP1 SWAP2 AND SWAP1 PUSH4 0xB9CC6B1C SWAP1 PUSH2 0x839 SWAP1 PUSH2 0x819 DUP6 PUSH2 0x1786 JUMP JUMPDEST PUSH1 0x40 MLOAD DUP1 PUSH1 0x40 ADD PUSH1 0x40 MSTORE DUP1 PUSH1 0x2 DUP2 MSTORE PUSH1 0x20 ADD PUSH2 0x7D7D PUSH1 0xF0 SHL DUP2 MSTORE POP PUSH2 0x183A JUMP JUMPDEST PUSH1 0x40 MLOAD DUP3 PUSH4 0xFFFFFFFF AND PUSH1 0xE0 SHL DUP2 MSTORE PUSH1 0x4 ADD DUP1 DUP1 PUSH1 0x20 ADD DUP3 DUP2 SUB DUP3 MSTORE DUP4 DUP2 DUP2 MLOAD DUP2 MSTORE PUSH1 0x20 ADD SWAP2 POP DUP1 MLOAD SWAP1 PUSH1 0x20 ADD SWAP1 DUP1 DUP4 DUP4 PUSH1 0x0 JUMPDEST DUP4 DUP2 LT ISZERO PUSH2 0x885 JUMPI DUP2 DUP2 ADD MLOAD DUP4 DUP3 ADD MSTORE PUSH1 0x20 ADD PUSH2 0x86D JUMP JUMPDEST POP POP POP POP SWAP1 POP SWAP1 DUP2 ADD SWAP1 PUSH1 0x1F AND DUP1 ISZERO PUSH2 0x8B2 JUMPI DUP1 DUP3 SUB DUP1 MLOAD PUSH1 0x1 DUP4 PUSH1 0x20 SUB PUSH2 0x100 EXP SUB NOT AND DUP2 MSTORE PUSH1 0x20 ADD SWAP2 POP JUMPDEST POP SWAP3 POP POP POP PUSH1 0x0 PUSH1 0x40 MLOAD DUP1 DUP4 SUB DUP2 PUSH1 0x0 DUP8 DUP1 EXTCODESIZE ISZERO DUP1 ISZERO PUSH2 0x8D1 JUMPI PUSH1 0x0 DUP1 REVERT JUMPDEST POP GAS CALL ISZERO DUP1 ISZERO PUSH2 0x8E5 JUMPI RETURNDATASIZE PUSH1 0x0 DUP1 RETURNDATACOPY RETURNDATASIZE PUSH1 0x0 REVERT JUMPDEST POP POP POP POP POP JUMP JUMPDEST PUSH2 0x8F4 PUSH2 0x12E4 JUMP JUMPDEST PUSH2 0x933 JUMPI PUSH1 0x40 DUP1 MLOAD PUSH3 0x461BCD PUSH1 0xE5 SHL DUP2 MSTORE PUSH1 0x20 PUSH1 0x4 DUP3 ADD DUP2 SWAP1 MSTORE PUSH1 0x24 DUP3 ADD MSTORE PUSH1 0x0 DUP1 MLOAD PUSH1 0x20 PUSH2 0x1D03 DUP4 CODECOPY DUP2 MLOAD SWAP2 MSTORE PUSH1 0x44 DUP3 ADD MSTORE SWAP1 MLOAD SWAP1 DUP2 SWAP1 SUB PUSH1 0x64 ADD SWAP1 REVERT JUMPDEST PUSH1 0x67 SLOAD PUSH1 0x40 DUP1 MLOAD PUSH3 0x57765 PUSH1 0xE9 SHL DUP2 MSTORE PUSH1 0x4 DUP2 ADD DUP5 SWAP1 MSTORE SWAP1 MLOAD PUSH1 0x1 PUSH1 0x1 PUSH1 0xA0 SHL SUB SWAP1 SWAP3 AND SWAP2 PUSH4 0xAEECA00 SWAP2 PUSH1 0x24 DUP1 DUP3 ADD SWAP3 PUSH1 0x0 SWAP3 SWAP1 SWAP2 SWAP1 DUP3 SWAP1 SUB ADD DUP2 DUP4 DUP8 DUP1 EXTCODESIZE ISZERO DUP1 ISZERO PUSH2 0x8D1 JUMPI PUSH1 0x0 DUP1 REVERT JUMPDEST PUSH1 0x67 SLOAD PUSH1 0x1 PUSH1 0x1 PUSH1 0xA0 SHL SUB AND CALLER EQ PUSH2 0x9C8 JUMPI PUSH1 0x40 MLOAD PUSH3 0x461BCD PUSH1 0xE5 SHL DUP2 MSTORE PUSH1 0x4 ADD DUP1 DUP1 PUSH1 0x20 ADD DUP3 DUP2 SUB DUP3 MSTORE PUSH1 0x25 DUP2 MSTORE PUSH1 0x20 ADD DUP1 PUSH2 0x1D92 PUSH1 0x25 SWAP2 CODECOPY PUSH1 0x40 ADD SWAP2 POP POP PUSH1 0x40 MLOAD DUP1 SWAP2 SUB SWAP1 REVERT JUMPDEST PUSH1 0x66 SLOAD PUSH1 0x40 DUP1 MLOAD PUSH4 0x63D8A35 PUSH1 0xE2 SHL DUP2 MSTORE PUSH1 0x1 PUSH1 0x1 PUSH1 0xA0 SHL SUB DUP13 DUP2 AND PUSH1 0x4 DUP4 ADD MSTORE PUSH1 0x24 DUP3 ADD DUP13 SWAP1 MSTORE PUSH1 0x44 DUP3 ADD DUP12 SWAP1 MSTORE PUSH1 0x64 DUP3 ADD DUP11 SWAP1 MSTORE PUSH1 0x84 DUP3 ADD DUP10 SWAP1 MSTORE PUSH1 0xA4 DUP3 ADD DUP9 SWAP1 MSTORE PUSH1 0xC4 DUP3 ADD DUP8 SWAP1 MSTORE PUSH1 0xE4 DUP3 ADD DUP7 SWAP1 MSTORE PUSH2 0x104 DUP3 ADD DUP6 SWAP1 MSTORE SWAP2 MLOAD SWAP2 SWAP1 SWAP3 AND SWAP2 PUSH4 0x18F628D4 SWAP2 PUSH2 0x124 DUP1 DUP4 ADD SWAP3 PUSH1 0x0 SWAP3 SWAP2 SWAP1 DUP3 SWAP1 SUB ADD DUP2 DUP4 DUP8 DUP1 EXTCODESIZE ISZERO DUP1 ISZERO PUSH2 0xA50 JUMPI PUSH1 0x0 DUP1 REVERT JUMPDEST POP GAS CALL ISZERO DUP1 ISZERO PUSH2 0xA64 JUMPI RETURNDATASIZE PUSH1 0x0 DUP1 RETURNDATACOPY RETURNDATASIZE PUSH1 0x0 REVERT JUMPDEST POP POP POP POP POP POP POP POP POP POP POP POP POP JUMP JUMPDEST PUSH2 0xA7B PUSH2 0x12E4 JUMP JUMPDEST PUSH2 0xABA JUMPI PUSH1 0x40 DUP1 MLOAD PUSH3 0x461BCD PUSH1 0xE5 SHL DUP2 MSTORE PUSH1 0x20 PUSH1 0x4 DUP3 ADD DUP2 SWAP1 MSTORE PUSH1 0x24 DUP3 ADD MSTORE PUSH1 0x0 DUP1 MLOAD PUSH1 0x20 PUSH2 0x1D03 DUP4 CODECOPY DUP2 MLOAD SWAP2 MSTORE PUSH1 0x44 DUP3 ADD MSTORE SWAP1 MLOAD SWAP1 DUP2 SWAP1 SUB PUSH1 0x64 ADD SWAP1 REVERT JUMPDEST PUSH2 0xAC6 DUP5 DUP5 DUP5 DUP5 PUSH2 0x1990 JUMP JUMPDEST POP POP POP POP JUMP JUMPDEST PUSH1 0x67 SLOAD PUSH1 0x1 PUSH1 0x1 PUSH1 0xA0 SHL SUB AND CALLER EQ PUSH2 0xB15 JUMPI PUSH1 0x40 MLOAD PUSH3 0x461BCD PUSH1 0xE5 SHL DUP2 MSTORE PUSH1 0x4 ADD DUP1 DUP1 PUSH1 0x20 ADD DUP3 DUP2 SUB DUP3 MSTORE PUSH1 0x25 DUP2 MSTORE PUSH1 0x20 ADD DUP1 PUSH2 0x1D92 PUSH1 0x25 SWAP2 CODECOPY PUSH1 0x40 ADD SWAP2 POP POP PUSH1 0x40 MLOAD DUP1 SWAP2 SUB SWAP1 REVERT JUMPDEST PUSH1 0x66 SLOAD PUSH1 0x40 DUP1 MLOAD PUSH4 0x1E702F83 PUSH1 0xE0 SHL DUP2 MSTORE PUSH1 0x4 DUP2 ADD DUP6 SWAP1 MSTORE PUSH1 0x24 DUP2 ADD DUP5 SWAP1 MSTORE SWAP1 MLOAD PUSH1 0x1 PUSH1 0x1 PUSH1 0xA0 SHL SUB SWAP1 SWAP3 AND SWAP2 PUSH4 0x1E702F83 SWAP2 PUSH1 0x44 DUP1 DUP3 ADD SWAP3 PUSH1 0x0 SWAP3 SWAP1 SWAP2 SWAP1 DUP3 SWAP1 SUB ADD DUP2 DUP4 DUP8 DUP1 EXTCODESIZE ISZERO DUP1 ISZERO PUSH2 0xB69 JUMPI PUSH1 0x0 DUP1 REVERT JUMPDEST POP GAS CALL ISZERO DUP1 ISZERO PUSH2 0xB7D JUMPI RETURNDATASIZE PUSH1 0x0 DUP1 RETURNDATACOPY RETURNDATASIZE PUSH1 0x0 REVERT JUMPDEST POP POP POP POP POP POP JUMP JUMPDEST PUSH1 0x66 SLOAD PUSH1 0x1 PUSH1 0x1 PUSH1 0xA0 SHL SUB AND CALLER EQ PUSH2 0xBD2 JUMPI PUSH1 0x40 DUP1 MLOAD PUSH3 0x461BCD PUSH1 0xE5 SHL DUP2 MSTORE PUSH1 0x20 PUSH1 0x4 DUP3 ADD MSTORE PUSH1 0x1E PUSH1 0x24 DUP3 ADD MSTORE PUSH1 0x0 DUP1 MLOAD PUSH1 0x20 PUSH2 0x1D51 DUP4 CODECOPY DUP2 MLOAD SWAP2 MSTORE PUSH1 0x44 DUP3 ADD MSTORE SWAP1 MLOAD SWAP1 DUP2 SWAP1 SUB PUSH1 0x64 ADD SWAP1 REVERT JUMPDEST PUSH1 0x67 SLOAD PUSH1 0x40 DUP1 MLOAD PUSH4 0x242A6E3F PUSH1 0xE0 SHL DUP2 MSTORE PUSH1 0x4 DUP2 ADD DUP7 DUP2 MSTORE PUSH1 0x24 DUP3 ADD SWAP3 DUP4 MSTORE PUSH1 0x44 DUP3 ADD DUP6 SWAP1 MSTORE PUSH1 0x1 PUSH1 0x1 PUSH1 0xA0 SHL SUB SWAP1 SWAP4 AND SWAP3 PUSH4 0x242A6E3F SWAP3 DUP8 SWAP3 DUP8 SWAP3 DUP8 SWAP3 SWAP1 SWAP2 PUSH1 0x64 ADD DUP5 DUP5 DUP1 DUP3 DUP5 CALLDATACOPY PUSH1 0x0 DUP2 DUP5 ADD MSTORE PUSH1 0x1F NOT PUSH1 0x1F DUP3 ADD AND SWAP1 POP DUP1 DUP4 ADD SWAP3 POP POP POP SWAP5 POP POP POP POP POP PUSH1 0x0 PUSH1 0x40 MLOAD DUP1 DUP4 SUB DUP2 PUSH1 0x0 DUP8 DUP1 EXTCODESIZE ISZERO DUP1 ISZERO PUSH2 0xC52 JUMPI PUSH1 0x0 DUP1 REVERT JUMPDEST POP GAS CALL ISZERO DUP1 ISZERO PUSH2 0xC66 JUMPI RETURNDATASIZE PUSH1 0x0 DUP1 RETURNDATACOPY RETURNDATASIZE PUSH1 0x0 REVERT JUMPDEST POP POP POP POP POP POP POP JUMP JUMPDEST PUSH2 0xC77 PUSH2 0x12E4 JUMP JUMPDEST PUSH2 0xCB6 JUMPI PUSH1 0x40 DUP1 MLOAD PUSH3 0x461BCD PUSH1 0xE5 SHL DUP2 MSTORE PUSH1 0x20 PUSH1 0x4 DUP3 ADD DUP2 SWAP1 MSTORE PUSH1 0x24 DUP3 ADD MSTORE PUSH1 0x0 DUP1 MLOAD PUSH1 0x20 PUSH2 0x1D03 DUP4 CODECOPY DUP2 MLOAD SWAP2 MSTORE PUSH1 0x44 DUP3 ADD MSTORE SWAP1 MLOAD SWAP1 DUP2 SWAP1 SUB PUSH1 0x64 ADD SWAP1 REVERT JUMPDEST PUSH1 0x67 SLOAD PUSH1 0x40 DUP1 MLOAD PUSH4 0x133D5A23 PUSH1 0xE1 SHL DUP2 MSTORE PUSH1 0x4 DUP2 ADD DUP5 SWAP1 MSTORE SWAP1 MLOAD PUSH1 0x1 PUSH1 0x1 PUSH1 0xA0 SHL SUB SWAP1 SWAP3 AND SWAP2 PUSH4 0x267AB446 SWAP2 PUSH1 0x24 DUP1 DUP3 ADD SWAP3 PUSH1 0x0 SWAP3 SWAP1 SWAP2 SWAP1 DUP3 SWAP1 SUB ADD DUP2 DUP4 DUP8 DUP1 EXTCODESIZE ISZERO DUP1 ISZERO PUSH2 0x8D1 JUMPI PUSH1 0x0 DUP1 REVERT JUMPDEST PUSH2 0xD0B PUSH2 0x12E4 JUMP JUMPDEST PUSH2 0xD4A JUMPI PUSH1 0x40 DUP1 MLOAD PUSH3 0x461BCD PUSH1 0xE5 SHL DUP2 MSTORE PUSH1 0x20 PUSH1 0x4 DUP3 ADD DUP2 SWAP1 MSTORE PUSH1 0x24 DUP3 ADD MSTORE PUSH1 0x0 DUP1 MLOAD PUSH1 0x20 PUSH2 0x1D03 DUP4 CODECOPY DUP2 MLOAD SWAP2 MSTORE PUSH1 0x44 DUP3 ADD MSTORE SWAP1 MLOAD SWAP1 DUP2 SWAP1 SUB PUSH1 0x64 ADD SWAP1 REVERT JUMPDEST PUSH2 0xD79 DUP2 PUSH2 0xD56 PUSH2 0x12D5 JUMP JUMPDEST PUSH2 0xD5F ADDRESS PUSH2 0x1ABA JUMP JUMPDEST PUSH1 0x67 SLOAD PUSH2 0xD74 SWAP1 PUSH1 0x1 PUSH1 0x1 PUSH1 0xA0 SHL SUB AND PUSH2 0x1ABA JUMP JUMPDEST PUSH2 0x1990 JUMP JUMPDEST POP JUMP JUMPDEST PUSH2 0xD84 PUSH2 0x12E4 JUMP JUMPDEST PUSH2 0xDC3 JUMPI PUSH1 0x40 DUP1 MLOAD PUSH3 0x461BCD PUSH1 0xE5 SHL DUP2 MSTORE PUSH1 0x20 PUSH1 0x4 DUP3 ADD DUP2 SWAP1 MSTORE PUSH1 0x24 DUP3 ADD MSTORE PUSH1 0x0 DUP1 MLOAD PUSH1 0x20 PUSH2 0x1D03 DUP4 CODECOPY DUP2 MLOAD SWAP2 MSTORE PUSH1 0x44 DUP3 ADD MSTORE SWAP1 MLOAD SWAP1 DUP2 SWAP1 SUB PUSH1 0x64 ADD SWAP1 REVERT JUMPDEST PUSH1 0x67 SLOAD PUSH1 0x40 DUP1 MLOAD PUSH4 0xDA7FC24F PUSH1 0xE0 SHL DUP2 MSTORE PUSH1 0x1 PUSH1 0x1 PUSH1 0xA0 SHL SUB DUP5 DUP2 AND PUSH1 0x4 DUP4 ADD MSTORE SWAP2 MLOAD SWAP2 SWAP1 SWAP3 AND SWAP2 PUSH4 0xDA7FC24F SWAP2 PUSH1 0x24 DUP1 DUP4 ADD SWAP3 PUSH1 0x0 SWAP3 SWAP2 SWAP1 DUP3 SWAP1 SUB ADD DUP2 DUP4 DUP8 DUP1 EXTCODESIZE ISZERO DUP1 ISZERO PUSH2 0x8D1 JUMPI PUSH1 0x0 DUP1 REVERT JUMPDEST PUSH1 0x67 SLOAD PUSH1 0x1 PUSH1 0x1 PUSH1 0xA0 SHL SUB AND CALLER EQ PUSH2 0xE5A JUMPI PUSH1 0x40 MLOAD PUSH3 0x461BCD PUSH1 0xE5 SHL DUP2 MSTORE PUSH1 0x4 ADD DUP1 DUP1 PUSH1 0x20 ADD DUP3 DUP2 SUB DUP3 MSTORE PUSH1 0x25 DUP2 MSTORE PUSH1 0x20 ADD DUP1 PUSH2 0x1D92 PUSH1 0x25 SWAP2 CODECOPY PUSH1 0x40 ADD SWAP2 POP POP PUSH1 0x40 MLOAD DUP1 SWAP2 SUB SWAP1 REVERT JUMPDEST PUSH1 0x66 PUSH1 0x0 SWAP1 SLOAD SWAP1 PUSH2 0x100 EXP SWAP1 DIV PUSH1 0x1 PUSH1 0x1 PUSH1 0xA0 SHL SUB AND PUSH1 0x1 PUSH1 0x1 PUSH1 0xA0 SHL SUB AND PUSH4 0x4FEB92F3 DUP11 DUP11 DUP11 DUP11 DUP11 DUP11 DUP11 DUP11 DUP11 PUSH1 0x40 MLOAD DUP11 PUSH4 0xFFFFFFFF AND PUSH1 0xE0 SHL DUP2 MSTORE PUSH1 0x4 ADD DUP1 DUP11 PUSH1 0x1 PUSH1 0x1 PUSH1 0xA0 SHL SUB AND PUSH1 0x1 PUSH1 0x1 PUSH1 0xA0 SHL SUB AND DUP2 MSTORE PUSH1 0x20 ADD DUP10 DUP2 MSTORE PUSH1 0x20 ADD DUP1 PUSH1 0x20 ADD DUP8 DUP2 MSTORE PUSH1 0x20 ADD DUP7 DUP2 MSTORE PUSH1 0x20 ADD DUP6 DUP2 MSTORE PUSH1 0x20 ADD DUP5 DUP2 MSTORE PUSH1 0x20 ADD DUP4 DUP2 MSTORE PUSH1 0x20 ADD DUP3 DUP2 SUB DUP3 MSTORE DUP10 DUP10 DUP3 DUP2 DUP2 MSTORE PUSH1 0x20 ADD SWAP3 POP DUP1 DUP3 DUP5 CALLDATACOPY PUSH1 0x0 DUP2 DUP5 ADD MSTORE PUSH1 0x1F NOT PUSH1 0x1F DUP3 ADD AND SWAP1 POP DUP1 DUP4 ADD SWAP3 POP POP POP SWAP11 POP POP POP POP POP POP POP POP POP POP POP PUSH1 0x0 PUSH1 0x40 MLOAD DUP1 DUP4 SUB DUP2 PUSH1 0x0 DUP8 DUP1 EXTCODESIZE ISZERO DUP1 ISZERO PUSH2 0xA50 JUMPI PUSH1 0x0 DUP1 REVERT JUMPDEST PUSH1 0x67 SLOAD PUSH1 0x1 PUSH1 0x1 PUSH1 0xA0 SHL SUB AND CALLER EQ PUSH2 0xF74 JUMPI PUSH1 0x40 MLOAD PUSH3 0x461BCD PUSH1 0xE5 SHL DUP2 MSTORE PUSH1 0x4 ADD DUP1 DUP1 PUSH1 0x20 ADD DUP3 DUP2 SUB DUP3 MSTORE PUSH1 0x25 DUP2 MSTORE PUSH1 0x20 ADD DUP1 PUSH2 0x1D92 PUSH1 0x25 SWAP2 CODECOPY PUSH1 0x40 ADD SWAP2 POP POP PUSH1 0x40 MLOAD DUP1 SWAP2 SUB SWAP1 REVERT JUMPDEST PUSH1 0x66 PUSH1 0x0 SWAP1 SLOAD SWAP1 PUSH2 0x100 EXP SWAP1 DIV PUSH1 0x1 PUSH1 0x1 PUSH1 0xA0 SHL SUB AND PUSH1 0x1 PUSH1 0x1 PUSH1 0xA0 SHL SUB AND PUSH4 0x592FE0C0 DUP11 DUP11 DUP11 DUP11 DUP11 DUP11 DUP11 DUP11 DUP11 PUSH1 0x40 MLOAD DUP11 PUSH4 0xFFFFFFFF AND PUSH1 0xE0 SHL DUP2 MSTORE PUSH1 0x4 ADD DUP1 DUP1 PUSH1 0x20 ADD DUP1 PUSH1 0x20 ADD DUP1 PUSH1 0x20 ADD DUP1 PUSH1 0x20 ADD DUP7 DUP2 MSTORE PUSH1 0x20 ADD DUP6 DUP2 SUB DUP6 MSTORE DUP15 DUP15 DUP3 DUP2 DUP2 MSTORE PUSH1 0x20 ADD SWAP3 POP PUSH1 0x20 MUL DUP1 DUP3 DUP5 CALLDATACOPY PUSH1 0x0 DUP4 DUP3 ADD MSTORE PUSH1 0x1F ADD PUSH1 0x1F NOT AND SWAP1 SWAP2 ADD DUP7 DUP2 SUB DUP6 MSTORE DUP13 DUP2 MSTORE PUSH1 0x20 SWAP1 DUP2 ADD SWAP2 POP DUP14 SWAP1 DUP14 MUL DUP1 DUP3 DUP5 CALLDATACOPY PUSH1 0x0 DUP4 DUP3 ADD MSTORE PUSH1 0x1F ADD PUSH1 0x1F NOT AND SWAP1 SWAP2 ADD DUP7 DUP2 SUB DUP5 MSTORE DUP11 DUP2 MSTORE PUSH1 0x20 SWAP1 DUP2 ADD SWAP2 POP DUP12 SWAP1 DUP12 MUL DUP1 DUP3 DUP5 CALLDATACOPY PUSH1 0x0 DUP4 DUP3 ADD MSTORE PUSH1 0x1F ADD PUSH1 0x1F NOT AND SWAP1 SWAP2 ADD DUP7 DUP2 SUB DUP4 MSTORE DUP9 DUP2 MSTORE PUSH1 0x20 SWAP1 DUP2 ADD SWAP2 POP DUP10 SWAP1 DUP10 MUL DUP1 DUP3 DUP5 CALLDATACOPY PUSH1 0x0 DUP2 DUP5 ADD MSTORE PUSH1 0x1F NOT PUSH1 0x1F DUP3 ADD AND SWAP1 POP DUP1 DUP4 ADD SWAP3 POP POP POP SWAP14 POP POP POP POP POP POP POP POP POP POP POP POP POP POP PUSH1 0x0 PUSH1 0x40 MLOAD DUP1 DUP4 SUB DUP2 PUSH1 0x0 DUP8 DUP1 EXTCODESIZE ISZERO DUP1 ISZERO PUSH2 0xA50 JUMPI PUSH1 0x0 DUP1 REVERT JUMPDEST PUSH1 0x66 SLOAD PUSH1 0x1 PUSH1 0x1 PUSH1 0xA0 SHL SUB AND CALLER EQ PUSH2 0x10E3 JUMPI PUSH1 0x40 DUP1 MLOAD PUSH3 0x461BCD PUSH1 0xE5 SHL DUP2 MSTORE PUSH1 0x20 PUSH1 0x4 DUP3 ADD MSTORE PUSH1 0x1E PUSH1 0x24 DUP3 ADD MSTORE PUSH1 0x0 DUP1 MLOAD PUSH1 0x20 PUSH2 0x1D51 DUP4 CODECOPY DUP2 MLOAD SWAP2 MSTORE PUSH1 0x44 DUP3 ADD MSTORE SWAP1 MLOAD SWAP1 DUP2 SWAP1 SUB PUSH1 0x64 ADD SWAP1 REVERT JUMPDEST PUSH1 0x66 SLOAD PUSH1 0x1 PUSH1 0x1 PUSH1 0xA0 SHL SUB DUP4 DUP2 AND SWAP2 AND EQ PUSH2 0x112F JUMPI PUSH1 0x40 MLOAD PUSH3 0x461BCD PUSH1 0xE5 SHL DUP2 MSTORE PUSH1 0x4 ADD DUP1 DUP1 PUSH1 0x20 ADD DUP3 DUP2 SUB DUP3 MSTORE PUSH1 0x21 DUP2 MSTORE PUSH1 0x20 ADD DUP1 PUSH2 0x1D71 PUSH1 0x21 SWAP2 CODECOPY PUSH1 0x40 ADD SWAP2 POP POP PUSH1 0x40 MLOAD DUP1 SWAP2 SUB SWAP1 REVERT JUMPDEST PUSH1 0x67 SLOAD PUSH1 0x1 PUSH1 0x1 PUSH1 0xA0 SHL SUB SWAP1 DUP2 AND SWAP1 PUSH4 0xE30443BC SWAP1 DUP5 SWAP1 PUSH2 0x1159 SWAP1 DUP3 AND BALANCE DUP6 PUSH4 0xFFFFFFFF PUSH2 0x1ABE AND JUMP JUMPDEST PUSH1 0x40 MLOAD DUP4 PUSH4 0xFFFFFFFF AND PUSH1 0xE0 SHL DUP2 MSTORE PUSH1 0x4 ADD DUP1 DUP4 PUSH1 0x1 PUSH1 0x1 PUSH1 0xA0 SHL SUB AND PUSH1 0x1 PUSH1 0x1 PUSH1 0xA0 SHL SUB AND DUP2 MSTORE PUSH1 0x20 ADD DUP3 DUP2 MSTORE PUSH1 0x20 ADD SWAP3 POP POP POP PUSH1 0x0 PUSH1 0x40 MLOAD DUP1 DUP4 SUB DUP2 PUSH1 0x0 DUP8 DUP1 EXTCODESIZE ISZERO DUP1 ISZERO PUSH2 0xB69 JUMPI PUSH1 0x0 DUP1 REVERT JUMPDEST PUSH2 0x11B0 PUSH2 0x12E4 JUMP JUMPDEST PUSH2 0x11EF JUMPI PUSH1 0x40 DUP1 MLOAD PUSH3 0x461BCD PUSH1 0xE5 SHL DUP2 MSTORE PUSH1 0x20 PUSH1 0x4 DUP3 ADD DUP2 SWAP1 MSTORE PUSH1 0x24 DUP3 ADD MSTORE PUSH1 0x0 DUP1 MLOAD PUSH1 0x20 PUSH2 0x1D03 DUP4 CODECOPY DUP2 MLOAD SWAP2 MSTORE PUSH1 0x44 DUP3 ADD MSTORE SWAP1 MLOAD SWAP1 DUP2 SWAP1 SUB PUSH1 0x64 ADD SWAP1 REVERT JUMPDEST PUSH1 0x33 SLOAD PUSH1 0x40 MLOAD PUSH1 0x0 SWAP2 PUSH1 0x1 PUSH1 0x1 PUSH1 0xA0 SHL SUB AND SWAP1 PUSH32 0x8BE0079C531659141344CD1FD0A4F28419497F9722A3DAAFE3B4186F6B6457E0 SWAP1 DUP4 SWAP1 LOG3 PUSH1 0x33 DUP1 SLOAD PUSH1 0x1 PUSH1 0x1 PUSH1 0xA0 SHL SUB NOT AND SWAP1 SSTORE JUMP JUMPDEST PUSH2 0x1241 PUSH2 0x12E4 JUMP JUMPDEST PUSH2 0x1280 JUMPI PUSH1 0x40 DUP1 MLOAD PUSH3 0x461BCD PUSH1 0xE5 SHL DUP2 MSTORE PUSH1 0x20 PUSH1 0x4 DUP3 ADD DUP2 SWAP1 MSTORE PUSH1 0x24 DUP3 ADD MSTORE PUSH1 0x0 DUP1 MLOAD PUSH1 0x20 PUSH2 0x1D03 DUP4 CODECOPY DUP2 MLOAD SWAP2 MSTORE PUSH1 0x44 DUP3 ADD MSTORE SWAP1 MLOAD SWAP1 DUP2 SWAP1 SUB PUSH1 0x64 ADD SWAP1 REVERT JUMPDEST PUSH1 0x67 SLOAD PUSH1 0x40 DUP1 MLOAD PUSH4 0xF37D5A7 PUSH1 0xE3 SHL DUP2 MSTORE PUSH1 0x1 PUSH1 0x1 PUSH1 0xA0 SHL SUB DUP6 DUP2 AND PUSH1 0x4 DUP4 ADD MSTORE PUSH1 0x24 DUP3 ADD DUP6 SWAP1 MSTORE SWAP2 MLOAD SWAP2 SWAP1 SWAP3 AND SWAP2 PUSH4 0x79BEAD38 SWAP2 PUSH1 0x44 DUP1 DUP4 ADD SWAP3 PUSH1 0x0 SWAP3 SWAP2 SWAP1 DUP3 SWAP1 SUB ADD DUP2 DUP4 DUP8 DUP1 EXTCODESIZE ISZERO DUP1 ISZERO PUSH2 0xB69 JUMPI PUSH1 0x0 DUP1 REVERT JUMPDEST PUSH1 0x33 SLOAD PUSH1 0x1 PUSH1 0x1 PUSH1 0xA0 SHL SUB AND SWAP1 JUMP JUMPDEST PUSH1 0x33 SLOAD PUSH1 0x1 PUSH1 0x1 PUSH1 0xA0 SHL SUB AND CALLER EQ SWAP1 JUMP JUMPDEST PUSH1 0x66 SLOAD PUSH1 0x1 PUSH1 0x1 PUSH1 0xA0 SHL SUB AND CALLER EQ PUSH2 0x1342 JUMPI PUSH1 0x40 DUP1 MLOAD PUSH3 0x461BCD PUSH1 0xE5 SHL DUP2 MSTORE PUSH1 0x20 PUSH1 0x4 DUP3 ADD MSTORE PUSH1 0x1E PUSH1 0x24 DUP3 ADD MSTORE PUSH1 0x0 DUP1 MLOAD PUSH1 0x20 PUSH2 0x1D51 DUP4 CODECOPY DUP2 MLOAD SWAP2 MSTORE PUSH1 0x44 DUP3 ADD MSTORE SWAP1 MLOAD SWAP1 DUP2 SWAP1 SUB PUSH1 0x64 ADD SWAP1 REVERT JUMPDEST PUSH1 0x67 SLOAD PUSH1 0x40 DUP1 MLOAD PUSH4 0x520337DF PUSH1 0xE1 SHL DUP2 MSTORE PUSH1 0x4 DUP2 ADD DUP6 SWAP1 MSTORE PUSH1 0x24 DUP2 ADD DUP5 SWAP1 MSTORE SWAP1 MLOAD PUSH1 0x1 PUSH1 0x1 PUSH1 0xA0 SHL SUB SWAP1 SWAP3 AND SWAP2 PUSH4 0xA4066FBE SWAP2 PUSH1 0x44 DUP1 DUP3 ADD SWAP3 PUSH1 0x0 SWAP3 SWAP1 SWAP2 SWAP1 DUP3 SWAP1 SUB ADD DUP2 DUP4 DUP8 DUP1 EXTCODESIZE ISZERO DUP1 ISZERO PUSH2 0xB69 JUMPI PUSH1 0x0 DUP1 REVERT JUMPDEST PUSH2 0x139E PUSH2 0x12E4 JUMP JUMPDEST PUSH2 0x13DD JUMPI PUSH1 0x40 DUP1 MLOAD PUSH3 0x461BCD PUSH1 0xE5 SHL DUP2 MSTORE PUSH1 0x20 PUSH1 0x4 DUP3 ADD DUP2 SWAP1 MSTORE PUSH1 0x24 DUP3 ADD MSTORE PUSH1 0x0 DUP1 MLOAD PUSH1 0x20 PUSH2 0x1D03 DUP4 CODECOPY DUP2 MLOAD SWAP2 MSTORE PUSH1 0x44 DUP3 ADD MSTORE SWAP1 MLOAD SWAP1 DUP2 SWAP1 SUB PUSH1 0x64 ADD SWAP1 REVERT JUMPDEST PUSH1 0x67 SLOAD PUSH1 0x40 MLOAD PUSH4 0x2E731AC7 PUSH1 0xE2 SHL DUP2 MSTORE PUSH1 0x20 PUSH1 0x4 DUP3 ADD SWAP1 DUP2 MSTORE PUSH1 0x24 DUP3 ADD DUP5 SWAP1 MSTORE PUSH1 0x1 PUSH1 0x1 PUSH1 0xA0 SHL SUB SWAP1 SWAP3 AND SWAP2 PUSH4 0xB9CC6B1C SWAP2 DUP6 SWAP2 DUP6 SWAP2 DUP2 SWAP1 PUSH1 0x44 ADD DUP5 DUP5 DUP1 DUP3 DUP5 CALLDATACOPY PUSH1 0x0 DUP2 DUP5 ADD MSTORE PUSH1 0x1F NOT PUSH1 0x1F DUP3 ADD AND SWAP1 POP DUP1 DUP4 ADD SWAP3 POP POP POP SWAP4 POP POP POP POP PUSH1 0x0 PUSH1 0x40 MLOAD DUP1 DUP4 SUB DUP2 PUSH1 0x0 DUP8 DUP1 EXTCODESIZE ISZERO DUP1 ISZERO PUSH2 0xB69 JUMPI PUSH1 0x0 DUP1 REVERT JUMPDEST PUSH1 0x0 SLOAD PUSH2 0x100 SWAP1 DIV PUSH1 0xFF AND DUP1 PUSH2 0x146D JUMPI POP PUSH2 0x146D PUSH2 0x1B1F JUMP JUMPDEST DUP1 PUSH2 0x147B JUMPI POP PUSH1 0x0 SLOAD PUSH1 0xFF AND ISZERO JUMPDEST PUSH2 0x14B6 JUMPI PUSH1 0x40 MLOAD PUSH3 0x461BCD PUSH1 0xE5 SHL DUP2 MSTORE PUSH1 0x4 ADD DUP1 DUP1 PUSH1 0x20 ADD DUP3 DUP2 SUB DUP3 MSTORE PUSH1 0x2E DUP2 MSTORE PUSH1 0x20 ADD DUP1 PUSH2 0x1D23 PUSH1 0x2E SWAP2 CODECOPY PUSH1 0x40 ADD SWAP2 POP POP PUSH1 0x40 MLOAD DUP1 SWAP2 SUB SWAP1 REVERT JUMPDEST PUSH1 0x0 SLOAD PUSH2 0x100 SWAP1 DIV PUSH1 0xFF AND ISZERO DUP1 ISZERO PUSH2 0x14E1 JUMPI PUSH1 0x0 DUP1 SLOAD PUSH1 0xFF NOT PUSH2 0xFF00 NOT SWAP1 SWAP2 AND PUSH2 0x100 OR AND PUSH1 0x1 OR SWAP1 SSTORE JUMPDEST PUSH2 0x14EA DUP3 PUSH2 0x1B25 JUMP JUMPDEST PUSH1 0x67 DUP1 SLOAD PUSH1 0x1 PUSH1 0x1 PUSH1 0xA0 SHL SUB DUP1 DUP7 AND PUSH1 0x1 PUSH1 0x1 PUSH1 0xA0 SHL SUB NOT SWAP3 DUP4 AND OR SWAP1 SWAP3 SSTORE PUSH1 0x66 DUP1 SLOAD SWAP3 DUP8 AND SWAP3 SWAP1 SWAP2 AND SWAP2 SWAP1 SWAP2 OR SWAP1 SSTORE DUP1 ISZERO PUSH2 0xAC6 JUMPI PUSH1 0x0 DUP1 SLOAD PUSH2 0xFF00 NOT AND SWAP1 SSTORE POP POP POP POP JUMP JUMPDEST PUSH2 0x1539 PUSH2 0x12E4 JUMP JUMPDEST PUSH2 0x1578 JUMPI PUSH1 0x40 DUP1 MLOAD PUSH3 0x461BCD PUSH1 0xE5 SHL DUP2 MSTORE PUSH1 0x20 PUSH1 0x4 DUP3 ADD DUP2 SWAP1 MSTORE PUSH1 0x24 DUP3 ADD MSTORE PUSH1 0x0 DUP1 MLOAD PUSH1 0x20 PUSH2 0x1D03 DUP4 CODECOPY DUP2 MLOAD SWAP2 MSTORE PUSH1 0x44 DUP3 ADD MSTORE SWAP1 MLOAD SWAP1 DUP2 SWAP1 SUB PUSH1 0x64 ADD SWAP1 REVERT JUMPDEST PUSH1 0x67 SLOAD PUSH1 0x40 DUP1 MLOAD PUSH4 0xD6A0C7AF PUSH1 0xE0 SHL DUP2 MSTORE PUSH1 0x1 PUSH1 0x1 PUSH1 0xA0 SHL SUB DUP6 DUP2 AND PUSH1 0x4 DUP4 ADD MSTORE DUP5 DUP2 AND PUSH1 0x24 DUP4 ADD MSTORE SWAP2 MLOAD SWAP2 SWAP1 SWAP3 AND SWAP2 PUSH4 0xD6A0C7AF SWAP2 PUSH1 0x44 DUP1 DUP4 ADD SWAP3 PUSH1 0x0 SWAP3 SWAP2 SWAP1 DUP3 SWAP1 SUB ADD DUP2 DUP4 DUP8 DUP1 EXTCODESIZE ISZERO DUP1 ISZERO PUSH2 0xB69 JUMPI PUSH1 0x0 DUP1 REVERT JUMPDEST PUSH1 0x67 SLOAD PUSH1 0x1 PUSH1 0x1 PUSH1 0xA0 SHL SUB AND CALLER EQ PUSH2 0x1617 JUMPI PUSH1 0x40 MLOAD PUSH3 0x461BCD PUSH1 0xE5 SHL DUP2 MSTORE PUSH1 0x4 ADD DUP1 DUP1 PUSH1 0x20 ADD DUP3 DUP2 SUB DUP3 MSTORE PUSH1 0x25 DUP2 MSTORE PUSH1 0x20 ADD DUP1 PUSH2 0x1D92 PUSH1 0x25 SWAP2 CODECOPY PUSH1 0x40 ADD SWAP2 POP POP PUSH1 0x40 MLOAD DUP1 SWAP2 SUB SWAP1 REVERT JUMPDEST PUSH1 0x66 SLOAD PUSH1 0x40 MLOAD PUSH4 0x7046BF33 PUSH1 0xE1 SHL DUP2 MSTORE PUSH1 0x20 PUSH1 0x4 DUP3 ADD DUP2 DUP2 MSTORE PUSH1 0x24 DUP4 ADD DUP6 SWAP1 MSTORE PUSH1 0x1 PUSH1 0x1 PUSH1 0xA0 SHL SUB SWAP1 SWAP4 AND SWAP3 PUSH4 0xE08D7E66 SWAP3 DUP7 SWAP3 DUP7 SWAP3 SWAP2 DUP3 SWAP2 PUSH1 0x44 SWAP1 SWAP2 ADD SWAP1 DUP6 SWAP1 DUP6 MUL DUP1 DUP3 DUP5 CALLDATACOPY PUSH1 0x0 DUP2 DUP5 ADD MSTORE PUSH1 0x1F NOT PUSH1 0x1F DUP3 ADD AND SWAP1 POP DUP1 DUP4 ADD SWAP3 POP POP POP SWAP4 POP POP POP POP PUSH1 0x0 PUSH1 0x40 MLOAD DUP1 DUP4 SUB DUP2 PUSH1 0x0 DUP8 DUP1 EXTCODESIZE ISZERO DUP1 ISZERO PUSH2 0xB69 JUMPI PUSH1 0x0 DUP1 REVERT JUMPDEST PUSH2 0x169C PUSH2 0x12E4 JUMP JUMPDEST PUSH2 0x16DB JUMPI PUSH1 0x40 DUP1 MLOAD PUSH3 0x461BCD PUSH1 0xE5 SHL DUP2 MSTORE PUSH1 0x20 PUSH1 0x4 DUP3 ADD DUP2 SWAP1 MSTORE PUSH1 0x24 DUP3 ADD MSTORE PUSH1 0x0 DUP1 MLOAD PUSH1 0x20 PUSH2 0x1D03 DUP4 CODECOPY DUP2 MLOAD SWAP2 MSTORE PUSH1 0x44 DUP3 ADD MSTORE SWAP1 MLOAD SWAP1 DUP2 SWAP1 SUB PUSH1 0x64 ADD SWAP1 REVERT JUMPDEST PUSH2 0xD79 DUP2 PUSH2 0x1C17 JUMP JUMPDEST PUSH2 0x16EC PUSH2 0x12E4 JUMP JUMPDEST PUSH2 0x172B JUMPI PUSH1 0x40 DUP1 MLOAD PUSH3 0x461BCD PUSH1 0xE5 SHL DUP2 MSTORE PUSH1 0x20 PUSH1 0x4 DUP3 ADD DUP2 SWAP1 MSTORE PUSH1 0x24 DUP3 ADD MSTORE PUSH1 0x0 DUP1 MLOAD PUSH1 0x20 PUSH2 0x1D03 DUP4 CODECOPY DUP2 MLOAD SWAP2 MSTORE PUSH1 0x44 DUP3 ADD MSTORE SWAP1 MLOAD SWAP1 DUP2 SWAP1 SUB PUSH1 0x64 ADD SWAP1 REVERT JUMPDEST PUSH2 0x1734 DUP3 PUSH2 0x1CB8 JUMP JUMPDEST DUP1 ISZERO PUSH2 0x1744 JUMPI POP PUSH2 0x1744 DUP2 PUSH2 0x1CB8 JUMP JUMPDEST PUSH2 0x1578 JUMPI PUSH1 0x40 DUP1 MLOAD PUSH3 0x461BCD PUSH1 0xE5 SHL DUP2 MSTORE PUSH1 0x20 PUSH1 0x4 DUP3 ADD MSTORE PUSH1 0xE PUSH1 0x24 DUP3 ADD MSTORE PUSH14 0x1B9BDD08184818DBDB9D1C9858DD PUSH1 0x92 SHL PUSH1 0x44 DUP3 ADD MSTORE SWAP1 MLOAD SWAP1 DUP2 SWAP1 SUB PUSH1 0x64 ADD SWAP1 REVERT JUMPDEST PUSH1 0x60 DUP2 PUSH2 0x17AB JUMPI POP PUSH1 0x40 DUP1 MLOAD DUP1 DUP3 ADD SWAP1 SWAP2 MSTORE PUSH1 0x1 DUP2 MSTORE PUSH1 0x3 PUSH1 0xFC SHL PUSH1 0x20 DUP3 ADD MSTORE PUSH2 0x1835 JUMP JUMPDEST PUSH1 0x0 PUSH2 0x17B6 DUP4 PUSH2 0x1CBE JUMP JUMPDEST SWAP1 POP PUSH1 0x60 DUP2 PUSH1 0x40 MLOAD SWAP1 DUP1 DUP3 MSTORE DUP1 PUSH1 0x1F ADD PUSH1 0x1F NOT AND PUSH1 0x20 ADD DUP3 ADD PUSH1 0x40 MSTORE DUP1 ISZERO PUSH2 0x17E5 JUMPI PUSH1 0x20 DUP3 ADD DUP2 DUP1 CODESIZE DUP4 CODECOPY ADD SWAP1 POP JUMPDEST POP SWAP1 POP PUSH1 0x0 NOT DUP3 ADD JUMPDEST DUP5 ISZERO PUSH2 0x1830 JUMPI PUSH1 0xA DUP6 MOD PUSH1 0x30 ADD PUSH1 0xF8 SHL DUP3 DUP3 DUP2 MLOAD DUP2 LT PUSH2 0x180A JUMPI INVALID JUMPDEST PUSH1 0x20 ADD ADD SWAP1 PUSH1 0x1 PUSH1 0x1 PUSH1 0xF8 SHL SUB NOT AND SWAP1 DUP2 PUSH1 0x0 BYTE SWAP1 MSTORE8 POP PUSH1 0xA DUP6 DIV SWAP5 POP PUSH1 0x0 NOT ADD PUSH2 0x17EE JUMP JUMPDEST POP SWAP2 POP POP JUMPDEST SWAP2 SWAP1 POP JUMP JUMPDEST PUSH1 0x60 DUP1 DUP5 SWAP1 POP PUSH1 0x60 DUP5 SWAP1 POP PUSH1 0x60 DUP5 SWAP1 POP PUSH1 0x60 DUP2 MLOAD DUP4 MLOAD DUP6 MLOAD ADD ADD PUSH1 0x40 MLOAD SWAP1 DUP1 DUP3 MSTORE DUP1 PUSH1 0x1F ADD PUSH1 0x1F NOT AND PUSH1 0x20 ADD DUP3 ADD PUSH1 0x40 MSTORE DUP1 ISZERO PUSH2 0x187E JUMPI PUSH1 0x20 DUP3 ADD DUP2 DUP1 CODESIZE DUP4 CODECOPY ADD SWAP1 POP JUMPDEST POP SWAP1 POP DUP1 PUSH1 0x0 DUP1 JUMPDEST DUP7 MLOAD DUP2 LT ISZERO PUSH2 0x18D7 JUMPI DUP7 DUP2 DUP2 MLOAD DUP2 LT PUSH2 0x189B JUMPI INVALID JUMPDEST PUSH1 0x20 ADD ADD MLOAD PUSH1 0xF8 SHR PUSH1 0xF8 SHL DUP4 DUP4 DUP1 PUSH1 0x1 ADD SWAP5 POP DUP2 MLOAD DUP2 LT PUSH2 0x18B8 JUMPI INVALID JUMPDEST PUSH1 0x20 ADD ADD SWAP1 PUSH1 0x1 PUSH1 0x1 PUSH1 0xF8 SHL SUB NOT AND SWAP1 DUP2 PUSH1 0x0 BYTE SWAP1 MSTORE8 POP PUSH1 0x1 ADD PUSH2 0x1886 JUMP JUMPDEST POP PUSH1 0x0 JUMPDEST DUP6 MLOAD DUP2 LT ISZERO PUSH2 0x192C JUMPI DUP6 DUP2 DUP2 MLOAD DUP2 LT PUSH2 0x18F0 JUMPI INVALID JUMPDEST PUSH1 0x20 ADD ADD MLOAD PUSH1 0xF8 SHR PUSH1 0xF8 SHL DUP4 DUP4 DUP1 PUSH1 0x1 ADD SWAP5 POP DUP2 MLOAD DUP2 LT PUSH2 0x190D JUMPI INVALID JUMPDEST PUSH1 0x20 ADD ADD SWAP1 PUSH1 0x1 PUSH1 0x1 PUSH1 0xF8 SHL SUB NOT AND SWAP1 DUP2 PUSH1 0x0 BYTE SWAP1 MSTORE8 POP PUSH1 0x1 ADD PUSH2 0x18DB JUMP JUMPDEST POP PUSH1 0x0 JUMPDEST DUP5 MLOAD DUP2 LT ISZERO PUSH2 0x1981 JUMPI DUP5 DUP2 DUP2 MLOAD DUP2 LT PUSH2 0x1945 JUMPI INVALID JUMPDEST PUSH1 0x20 ADD ADD MLOAD PUSH1 0xF8 SHR PUSH1 0xF8 SHL DUP4 DUP4 DUP1 PUSH1 0x1 ADD SWAP5 POP DUP2 MLOAD DUP2 LT PUSH2 0x1962 JUMPI INVALID JUMPDEST PUSH1 0x20 ADD ADD SWAP1 PUSH1 0x1 PUSH1 0x1 PUSH1 0xF8 SHL SUB NOT AND SWAP1 DUP2 PUSH1 0x0 BYTE SWAP1 MSTORE8 POP PUSH1 0x1 ADD PUSH2 0x1930 JUMP JUMPDEST POP SWAP1 SWAP10 SWAP9 POP POP POP POP POP POP POP POP POP JUMP JUMPDEST PUSH2 0x1999 DUP5 PUSH2 0x1C17 JUMP JUMPDEST DUP4 PUSH1 0x1 PUSH1 0x1 PUSH1 0xA0 SHL SUB AND PUSH4 0x61461954 PUSH1 0x40 MLOAD DUP2 PUSH4 0xFFFFFFFF AND PUSH1 0xE0 SHL DUP2 MSTORE PUSH1 0x4 ADD PUSH1 0x0 PUSH1 0x40 MLOAD DUP1 DUP4 SUB DUP2 PUSH1 0x0 DUP8 DUP1 EXTCODESIZE ISZERO DUP1 ISZERO PUSH2 0x19D4 JUMPI PUSH1 0x0 DUP1 REVERT JUMPDEST POP GAS CALL ISZERO DUP1 ISZERO PUSH2 0x19E8 JUMPI RETURNDATASIZE PUSH1 0x0 DUP1 RETURNDATACOPY RETURNDATASIZE PUSH1 0x0 REVERT JUMPDEST POP POP POP POP PUSH2 0x19F5 DUP4 PUSH2 0x1C17 JUMP JUMPDEST DUP2 PUSH2 0x19FF ADDRESS PUSH2 0x1ABA JUMP JUMPDEST EQ PUSH2 0x1A51 JUMPI PUSH1 0x40 DUP1 MLOAD PUSH3 0x461BCD PUSH1 0xE5 SHL DUP2 MSTORE PUSH1 0x20 PUSH1 0x4 DUP3 ADD MSTORE PUSH1 0x1C PUSH1 0x24 DUP3 ADD MSTORE PUSH32 0x73656C6620636F6465206861736820646F65736E2774206D6174636800000000 PUSH1 0x44 DUP3 ADD MSTORE SWAP1 MLOAD SWAP1 DUP2 SWAP1 SUB PUSH1 0x64 ADD SWAP1 REVERT JUMPDEST PUSH1 0x67 SLOAD DUP2 SWAP1 PUSH2 0x1A68 SWAP1 PUSH1 0x1 PUSH1 0x1 PUSH1 0xA0 SHL SUB AND PUSH2 0x1ABA JUMP JUMPDEST EQ PUSH2 0xAC6 JUMPI PUSH1 0x40 DUP1 MLOAD PUSH3 0x461BCD PUSH1 0xE5 SHL DUP2 MSTORE PUSH1 0x20 PUSH1 0x4 DUP3 ADD MSTORE PUSH1 0x1E PUSH1 0x24 DUP3 ADD MSTORE PUSH32 0x64726976657220636F6465206861736820646F65736E2774206D617463680000 PUSH1 0x44 DUP3 ADD MSTORE SWAP1 MLOAD SWAP1 DUP2 SWAP1 SUB PUSH1 0x64 ADD SWAP1 REVERT JUMPDEST EXTCODEHASH SWAP1 JUMP JUMPDEST PUSH1 0x0 DUP3 DUP3 ADD DUP4 DUP2 LT ISZERO PUSH2 0x1B18 JUMPI PUSH1 0x40 DUP1 MLOAD PUSH3 0x461BCD PUSH1 0xE5 SHL DUP2 MSTORE PUSH1 0x20 PUSH1 0x4 DUP3 ADD MSTORE PUSH1 0x1B PUSH1 0x24 DUP3 ADD MSTORE PUSH32 0x536166654D6174683A206164646974696F6E206F766572666C6F770000000000 PUSH1 0x44 DUP3 ADD MSTORE SWAP1 MLOAD SWAP1 DUP2 SWAP1 SUB PUSH1 0x64 ADD SWAP1 REVERT JUMPDEST SWAP4 SWAP3 POP POP POP JUMP JUMPDEST ADDRESS EXTCODESIZE ISZERO SWAP1 JUMP JUMPDEST PUSH1 0x0 SLOAD PUSH2 0x100 SWAP1 DIV PUSH1 0xFF AND DUP1 PUSH2 0x1B3E JUMPI POP PUSH2 0x1B3E PUSH2 0x1B1F JUMP JUMPDEST DUP1 PUSH2 0x1B4C JUMPI POP PUSH1 0x0 SLOAD PUSH1 0xFF AND ISZERO JUMPDEST PUSH2 0x1B87 JUMPI PUSH1 0x40 MLOAD PUSH3 0x461BCD PUSH1 0xE5 SHL DUP2 MSTORE PUSH1 0x4 ADD DUP1 DUP1 PUSH1 0x20 ADD DUP3 DUP2 SUB DUP3 MSTORE PUSH1 0x2E DUP2 MSTORE PUSH1 0x20 ADD DUP1 PUSH2 0x1D23 PUSH1 0x2E SWAP2 CODECOPY PUSH1 0x40 ADD SWAP2 POP POP PUSH1 0x40 MLOAD DUP1 SWAP2 SUB SWAP1 REVERT JUMPDEST PUSH1 0x0 SLOAD PUSH2 0x100 SWAP1 DIV PUSH1 0xFF AND ISZERO DUP1 ISZERO PUSH2 0x1BB2 JUMPI PUSH1 0x0 DUP1 SLOAD PUSH1 0xFF NOT PUSH2 0xFF00 NOT SWAP1 SWAP2 AND PUSH2 0x100 OR AND PUSH1 0x1 OR SWAP1 SSTORE JUMPDEST PUSH1 0x33 DUP1 SLOAD PUSH1 0x1 PUSH1 0x1 PUSH1 0xA0 SHL SUB NOT AND PUSH1 0x1 PUSH1 0x1 PUSH1 0xA0 SHL SUB DUP5 DUP2 AND SWAP2 SWAP1 SWAP2 OR SWAP2 DUP3 SWAP1 SSTORE PUSH1 0x40 MLOAD SWAP2 AND SWAP1 PUSH1 0x0 SWAP1 PUSH32 0x8BE0079C531659141344CD1FD0A4F28419497F9722A3DAAFE3B4186F6B6457E0 SWAP1 DUP3 SWAP1 LOG3 DUP1 ISZERO PUSH2 0x1C13 JUMPI PUSH1 0x0 DUP1 SLOAD PUSH2 0xFF00 NOT AND SWAP1 SSTORE JUMPDEST POP POP JUMP JUMPDEST PUSH1 0x1 PUSH1 0x1 PUSH1 0xA0 SHL SUB DUP2 AND PUSH2 0x1C5C JUMPI PUSH1 0x40 MLOAD PUSH3 0x461BCD PUSH1 0xE5 SHL DUP2 MSTORE PUSH1 0x4 ADD DUP1 DUP1 PUSH1 0x20 ADD DUP3 DUP2 SUB DUP3 MSTORE PUSH1 0x26 DUP2 MSTORE PUSH1 0x20 ADD DUP1 PUSH2 0x1CDD PUSH1 0x26 SWAP2 CODECOPY PUSH1 0x40 ADD SWAP2 POP POP PUSH1 0x40 MLOAD DUP1 SWAP2 SUB SWAP1 REVERT JUMPDEST PUSH1 0x33 SLOAD PUSH1 0x40 MLOAD PUSH1 0x1 PUSH1 0x1 PUSH1 0xA0 SHL SUB DUP1 DUP5 AND SWAP3 AND SWAP1 PUSH32 0x8BE0079C531659141344CD1FD0A4F28419497F9722A3DAAFE3B4186F6B6457E0 SWAP1 PUSH1 0x0 SWAP1 LOG3 PUSH1 0x33 DUP1 SLOAD PUSH1 0x1 PUSH1 0x1 PUSH1 0xA0 SHL SUB NOT AND PUSH1 0x1 PUSH1 0x1 PUSH1 0xA0 SHL SUB SWAP3 SWAP1 SWAP3 AND SWAP2 SWAP1 SWAP2 OR SWAP1 SSTORE JUMP JUMPDEST EXTCODESIZE ISZERO ISZERO SWAP1 JUMP JUMPDEST PUSH1 0x0 DUP1 JUMPDEST DUP3 ISZERO PUSH2 0x1CD6 JUMPI PUSH1 0x1 ADD PUSH1 0xA DUP4 DIV SWAP3 POP PUSH2 0x1CC2 JUMP JUMPDEST SWAP3 SWAP2 POP POP JUMP INVALID 0x4F PUSH24 0x6E61626C653A206E6577206F776E65722069732074686520 PUSH27 0x65726F20616464726573734F776E61626C653A2063616C6C657220 PUSH10 0x73206E6F742074686520 PUSH16 0x776E6572436F6E747261637420696E73 PUSH21 0x616E63652068617320616C7265616479206265656E KECCAK256 PUSH10 0x6E697469616C697A6564 PUSH4 0x616C6C65 PUSH19 0x206973206E6F74207468652053464320636F6E PUSH21 0x726163740000726563697069656E74206973206E6F PUSH21 0x207468652053464320636F6E747261637463616C6C PUSH6 0x72206973206E PUSH16 0x7420746865204E6F6465447269766572 KECCAK256 PUSH4 0x6F6E7472 PUSH2 0x6374 LOG2 PUSH6 0x627A7A723158 KECCAK256 SWAP7 0x29 0x2A PUSH15 0xF9712BBFB9C178899FBE9CBA672F12 0xD5 0xD8 0xB8 0xB1 0xB6 SDIV GASLIMIT DUP13 GAS SWAP2 SELFBALANCE 0x26 SWAP10 PUSH5 0x736F6C6343 STOP SDIV GT STOP ORIGIN ",
  "sha1": "f190b46ca64c32b35ea2e5765f039384eb1dae48",
  "source": "pragma solidity ^0.5.0;\n\ninterface SFCI {\n    function currentSealedEpoch() external view returns (uint256);\n\n    function getEpochSnapshot(uint256) external view returns (uint256 endTime, uint256 epochFee, uint256 totalBaseRewardWeight, uint256 totalTxRewardWeight, uint256 _baseRewardPerSecond, uint256 totalStake, uint256 totalSupply);\n\n    function getLockupInfo(address, uint256) external view returns (uint256 lockedStake, uint256 fromEpoch, uint256 endTime, uint256 duration);\n\n    function getStake(address, uint256) external view returns (uint256);\n\n    function getStashedLockupRewards(address, uint256) external view returns (uint256 lockupExtraReward, uint256 lockupBaseReward, uint256 unlockedReward);\n\n    function getValidator(uint256) external view returns (uint256 status, uint256 deactivatedTime, uint256 deactivatedEpoch, uint256 receivedStake, uint256 createdEpoch, uint256 createdTime, address auth);\n\n    function getValidatorID(address) external view returns (uint256);\n\n    function getValidatorPubkey(uint256) external view returns (bytes memory);\n\n    function getWithdrawalRequest(address, uint256, uint256) external view returns (uint256 epoch, uint256 time, uint256 amount);\n\n    function isOwner() external view returns (bool);\n\n    function lastValidatorID() external view returns (uint256);\n\n    function minGasPrice() external view returns (uint256);\n\n    function owner() external view returns (address);\n\n    function renounceOwnership() external;\n\n    function slashingRefundRatio(uint256) external view returns (uint256);\n\n    function stakeTokenizerAddress() external view returns (address);\n\n    function stashedRewardsUntilEpoch(address, uint256) external view returns (uint256);\n\n    function totalActiveStake() external view returns (uint256);\n\n    function totalSlashedStake() external view returns (uint256);\n\n    function totalStake() external view returns (uint256);\n\n    function totalSupply() external view returns (uint256);\n\n    function transferOwnership(address newOwner) external;\n\n    function treasuryAddress() external view returns (address);\n\n    function version() external pure returns (bytes3);\n\n    function currentEpoch() external view returns (uint256);\n\n    function updateConstsAddress(address v) external;\n\n    function constsAddress() external view returns (address);\n\n    function getEpochValidatorIDs(uint256 epoch) external view returns (uint256[] memory);\n\n    function getEpochReceivedStake(uint256 epoch, uint256 validatorID) external view returns (uint256);\n\n    function getEpochAccumulatedRewardPerToken(uint256 epoch, uint256 validatorID) external view returns (uint256);\n\n    function getEpochAccumulatedUptime(uint256 epoch, uint256 validatorID) external view returns (uint256);\n\n    function getEpochAccumulatedOriginatedTxsFee(uint256 epoch, uint256 validatorID) external view returns (uint256);\n\n    function getEpochOfflineTime(uint256 epoch, uint256 validatorID) external view returns (uint256);\n\n    function getEpochOfflineBlocks(uint256 epoch, uint256 validatorID) external view returns (uint256);\n\n    function rewardsStash(address delegator, uint256 validatorID) external view returns (uint256);\n\n    function getLockedStake(address delegator, uint256 toValidatorID) external view returns (uint256);\n\n    function createValidator(bytes calldata pubkey) external payable;\n\n    function getSelfStake(uint256 validatorID) external view returns (uint256);\n\n    function delegate(uint256 toValidatorID) external payable;\n\n    function undelegate(uint256 toValidatorID, uint256 wrID, uint256 amount) external;\n\n    function isSlashed(uint256 validatorID) external view returns (bool);\n\n    function withdraw(uint256 toValidatorID, uint256 wrID) external;\n\n    function deactivateValidator(uint256 validatorID, uint256 status) external;\n\n    function pendingRewards(address delegator, uint256 toValidatorID) external view returns (uint256);\n\n    function stashRewards(address delegator, uint256 toValidatorID) external;\n\n    function claimRewards(uint256 toValidatorID) external;\n\n    function restakeRewards(uint256 toValidatorID) external;\n\n    function updateBaseRewardPerSecond(uint256 value) external;\n\n    function updateOfflinePenaltyThreshold(uint256 blocksNum, uint256 time) external;\n\n    function updateSlashingRefundRatio(uint256 validatorID, uint256 refundRatio) external;\n\n    function updateStakeTokenizerAddress(address addr) external;\n\n    function updateTreasuryAddress(address v) external;\n\n    function mintFTM(address receiver, uint256 amount, string calldata justification) external;\n\n    function burnFTM(uint256 amount) external;\n\n    function sealEpoch(uint256[] calldata offlineTime, uint256[] calldata offlineBlocks, uint256[] calldata uptimes, uint256[] calldata originatedTxsFee, uint256 epochGas) external;\n\n    function sealEpochValidators(uint256[] calldata nextValidatorIDs) external;\n\n    function isLockedUp(address delegator, uint256 toValidatorID) external view returns (bool);\n\n    function getUnlockedStake(address delegator, uint256 toValidatorID) external view returns (uint256);\n\n    function lockStake(uint256 toValidatorID, uint256 lockupDuration, uint256 amount) external;\n\n    function relockStake(uint256 toValidatorID, uint256 lockupDuration, uint256 amount) external;\n\n    function unlockStake(uint256 toValidatorID, uint256 amount) external returns (uint256);\n\n    function initialize(uint256 sealedEpoch, uint256 _totalSupply, address nodeDriver, address lib, address consts, address _owner) external;\n\n    function setGenesisValidator(address auth, uint256 validatorID, bytes calldata pubkey, uint256 status, uint256 createdEpoch, uint256 createdTime, uint256 deactivatedEpoch, uint256 deactivatedTime) external;\n\n    function setGenesisDelegation(address delegator, uint256 toValidatorID, uint256 stake, uint256 lockedStake, uint256 lockupFromEpoch, uint256 lockupEndTime, uint256 lockupDuration, uint256 earlyUnlockPenalty, uint256 rewards) external;\n\n    function updateVoteBookAddress(address v) external;\n\n    function voteBookAddress(address v) external view returns (address);\n}\n\n// File: contracts/common/Initializable.sol\n\npragma solidity >=0.4.24 <0.7.0;\n\n\n/**\n * @title Initializable\n *\n * @dev Helper contract to support initializer functions. To use it, replace\n * the constructor with a function that has the `initializer` modifier.\n * WARNING: Unlike constructors, initializer functions must be manually\n * invoked. This applies both to deploying an Initializable contract, as well\n * as extending an Initializable contract via inheritance.\n * WARNING: When used with inheritance, manual care must be taken to not invoke\n * a parent initializer twice, or ensure that all initializers are idempotent,\n * because this is not dealt with automatically as with constructors.\n */\ncontract Initializable {\n\n  /**\n   * @dev Indicates that the contract has been initialized.\n   */\n  bool private initialized;\n\n  /**\n   * @dev Indicates that the contract is in the process of being initialized.\n   */\n  bool private initializing;\n\n  /**\n   * @dev Modifier to use in the initializer function of a contract.\n   */\n  modifier initializer() {\n    require(initializing || isConstructor() || !initialized, \"Contract instance has already been initialized\");\n\n    bool isTopLevelCall = !initializing;\n    if (isTopLevelCall) {\n      initializing = true;\n      initialized = true;\n    }\n\n    _;\n\n    if (isTopLevelCall) {\n      initializing = false;\n    }\n  }\n\n  /// @dev Returns true if and only if the function is running in the constructor\n  function isConstructor() private view returns (bool) {\n    // extcodesize checks the size of the code stored in an address, and\n    // address returns the current address. Since the code is still not\n    // deployed when running a constructor, any checks on its code size will\n    // yield zero, making it an effective way to detect if a contract is\n    // under construction or not.\n    address self = address(this);\n    uint256 cs;\n    assembly { cs := extcodesize(self) }\n    return cs == 0;\n  }\n\n  // Reserved storage space to allow for layout changes in the future.\n  uint256[50] private ______gap;\n}\n\n// File: contracts/ownership/Ownable.sol\n\npragma solidity ^0.5.0;\n\n\n/**\n * @dev Contract module which provides a basic access control mechanism, where\n * there is an account (an owner) that can be granted exclusive access to\n * specific functions.\n *\n * This module is used through inheritance. It will make available the modifier\n * `onlyOwner`, which can be aplied to your functions to restrict their use to\n * the owner.\n */\ncontract Ownable is Initializable {\n    address private _owner;\n\n    event OwnershipTransferred(address indexed previousOwner, address indexed newOwner);\n\n    /**\n     * @dev Initializes the contract setting the deployer as the initial owner.\n     */\n    function initialize(address sender) internal initializer {\n        _owner = sender;\n        emit OwnershipTransferred(address(0), _owner);\n    }\n\n    /**\n     * @dev Returns the address of the current owner.\n     */\n    function owner() public view returns (address) {\n        return _owner;\n    }\n\n    /**\n     * @dev Throws if called by any account other than the owner.\n     */\n    modifier onlyOwner() {\n        require(isOwner(), \"Ownable: caller is not the owner\");\n        _;\n    }\n\n    /**\n     * @dev Returns true if the caller is the current owner.\n     */\n    function isOwner() public view returns (bool) {\n        return msg.sender == _owner;\n    }\n\n    /**\n     * @dev Leaves the contract without owner. It will not be possible to call\n     * `onlyOwner` functions anymore. Can only be called by the current owner.\n     *\n     * > Note: Renouncing ownership will leave the contract without an owner,\n     * thereby removing any functionality that is only available to the owner.\n     */\n    function renounceOwnership() public onlyOwner {\n        emit OwnershipTransferred(_owner, address(0));\n        _owner = address(0);\n    }\n\n    /**\n     * @dev Transfers ownership of the contract to a new account (`newOwner`).\n     * Can only be called by the current owner.\n     */\n    function transferOwnership(address newOwner) public onlyOwner {\n        _transferOwnership(newOwner);\n    }\n\n    /**\n     * @dev Transfers ownership of the contract to a new account (`newOwner`).\n     */\n    function _transferOwnership(address newOwner) internal {\n        require(newOwner != address(0), \"Ownable: new owner is the zero address\");\n        emit OwnershipTransferred(_owner, newOwner);\n        _owner = newOwner;\n    }\n\n    uint256[50] private ______gap;\n}\n\n// File: @openzeppelin/contracts/math/SafeMath.sol\n\npragma solidity ^0.5.0;\n\n/**\n * @dev Wrappers over Solidity's arithmetic operations with added overflow\n * checks.\n *\n * Arithmetic operations in Solidity wrap on overflow. This can easily result\n * in bugs, because programmers usually assume that an overflow raises an\n * error, which is the standard behavior in high level programming languages.\n * `SafeMath` restores this intuition by reverting the transaction when an\n * operation overflows.\n *\n * Using this library instead of the unchecked operations eliminates an entire\n * class of bugs, so it's recommended to use it always.\n */\nlibrary SafeMath {\n    /**\n     * @dev Returns the addition of two unsigned integers, reverting on\n     * overflow.\n     *\n     * Counterpart to Solidity's `+` operator.\n     *\n     * Requirements:\n     * - Addition cannot overflow.\n     */\n    function add(uint256 a, uint256 b) internal pure returns (uint256) {\n        uint256 c = a + b;\n        require(c >= a, \"SafeMath: addition overflow\");\n\n        return c;\n    }\n\n    /**\n     * @dev Returns the subtraction of two unsigned integers, reverting on\n     * overflow (when the result is negative).\n     *\n     * Counterpart to Solidity's `-` operator.\n     *\n     * Requirements:\n     * - Subtraction cannot overflow.\n     */\n    function sub(uint256 a, uint256 b) internal pure returns (uint256) {\n        return sub(a, b, \"SafeMath: subtraction overflow\");\n    }\n\n    /**\n     * @dev Returns the subtraction of two unsigned integers, reverting with custom message on\n     * overflow (when the result is negative).\n     *\n     * Counterpart to Solidity's `-` operator.\n     *\n     * Requirements:\n     * - Subtraction cannot overflow.\n     *\n     * _Available since v2.4.0._\n     */\n    function sub(uint256 a, uint256 b, string memory errorMessage) internal pure returns (uint256) {\n        require(b <= a, errorMessage);\n        uint256 c = a - b;\n\n        return c;\n    }\n\n    /**\n     * @dev Returns the multiplication of two unsigned integers, reverting on\n     * overflow.\n     *\n     * Counterpart to Solidity's `*` operator.\n     *\n     * Requirements:\n     * - Multiplication cannot overflow.\n     */\n    function mul(uint256 a, uint256 b) internal pure returns (uint256) {\n        // Gas optimization: this is cheaper than requiring 'a' not being zero, but the\n        // benefit is lost if 'b' is also tested.\n        // See: https://github.com/OpenZeppelin/openzeppelin-contracts/pull/522\n        if (a == 0) {\n            return 0;\n        }\n\n        uint256 c = a * b;\n        require(c / a == b, \"SafeMath: multiplication overflow\");\n\n        return c;\n    }\n\n    /**\n     * @dev Returns the integer division of two unsigned integers. Reverts on\n     * division by zero. The result is rounded towards zero.\n     *\n     * Counterpart to Solidity's `/` operator. Note: this function uses a\n     * `revert` opcode (which leaves remaining gas untouched) while Solidity\n     * uses an invalid opcode to revert (consuming all remaining gas).\n     *\n     * Requirements:\n     * - The divisor cannot be zero.\n     */\n    function div(uint256 a, uint256 b) internal pure returns (uint256) {\n        return div(a, b, \"SafeMath: division by zero\");\n    }\n\n    /**\n     * @dev Returns the integer division of two unsigned integers. Reverts with custom message on\n     * division by zero. The result is rounded towards zero.\n     *\n     * Counterpart to Solidity's `/` operator. Note: this function uses a\n     * `revert` opcode (which leaves remaining gas untouched) while Solidity\n     * uses an invalid opcode to revert (consuming all remaining gas).\n     *\n     * Requirements:\n     * - The divisor cannot be zero.\n     *\n     * _Available since v2.4.0._\n     */\n    function div(uint256 a, uint256 b, string memory errorMessage) internal pure returns (uint256) {\n        // Solidity only automatically asserts when dividing by 0\n        require(b > 0, errorMessage);\n        uint256 c = a / b;\n        // assert(a == b * c + a % b); // There is no case in which this doesn't hold\n\n        return c;\n    }\n\n    /**\n     * @dev Returns the remainder of dividing two unsigned integers. (unsigned integer modulo),\n     * Reverts when dividing by zero.\n     *\n     * Counterpart to Solidity's `%` operator. This function uses a `revert`\n     * opcode (which leaves remaining gas untouched) while Solidity uses an\n     * invalid opcode to revert (consuming all remaining gas).\n     *\n     * Requirements:\n     * - The divisor cannot be zero.\n     */\n    function mod(uint256 a, uint256 b) internal pure returns (uint256) {\n        return mod(a, b, \"SafeMath: modulo by zero\");\n    }\n\n    /**\n     * @dev Returns the remainder of dividing two unsigned integers. (unsigned integer modulo),\n     * Reverts with custom message when dividing by zero.\n     *\n     * Counterpart to Solidity's `%` operator. This function uses a `revert`\n     * opcode (which leaves remaining gas untouched) while Solidity uses an\n     * invalid opcode to revert (consuming all remaining gas).\n     *\n     * Requirements:\n     * - The divisor cannot be zero.\n     *\n     * _Available since v2.4.0._\n     */\n    function mod(uint256 a, uint256 b, string memory errorMessage) internal pure returns (uint256) {\n        require(b != 0, errorMessage);\n        return a % b;\n    }\n}\n\n// File: contracts/sfc/NodeDriver.sol\n\npragma solidity ^0.5.0;\n\n\n\n\n\n\ninterface NodeDriverExecutable {\n    function execute() external;\n}\n\ncontract NodeDriverAuth is Initializable, Ownable {\n    using SafeMath for uint256;\n\n    SFCI internal sfc;\n    NodeDriver internal driver;\n\n    // Initialize NodeDriverAuth, NodeDriver and SFC in one call to allow fewer genesis transactions\n    function initialize(address payable _sfc, address _driver, address _owner) external initializer {\n        Ownable.initialize(_owner);\n        driver = NodeDriver(_driver);\n        sfc = SFCI(_sfc);\n    }\n\n    modifier onlySFC() {\n        require(msg.sender == address(sfc), \"caller is not the SFC contract\");\n        _;\n    }\n\n    modifier onlyDriver() {\n        require(msg.sender == address(driver), \"caller is not the NodeDriver contract\");\n        _;\n    }\n\n    function migrateTo(address newDriverAuth) external onlyOwner {\n        driver.setBackend(newDriverAuth);\n    }\n\n    function _execute(address executable, address newOwner, bytes32 selfCodeHash, bytes32 driverCodeHash) internal {\n        _transferOwnership(executable);\n        NodeDriverExecutable(executable).execute();\n        _transferOwnership(newOwner);\n        //require(driver.backend() == address(this), \"ownership of driver is lost\");\n        require(_getCodeHash(address(this)) == selfCodeHash, \"self code hash doesn't match\");\n        require(_getCodeHash(address(driver)) == driverCodeHash, \"driver code hash doesn't match\");\n    }\n\n    function execute(address executable) external onlyOwner {\n        _execute(executable, owner(), _getCodeHash(address(this)), _getCodeHash(address(driver)));\n    }\n\n    function mutExecute(address executable, address newOwner, bytes32 selfCodeHash, bytes32 driverCodeHash) external onlyOwner {\n        _execute(executable, newOwner, selfCodeHash, driverCodeHash);\n    }\n\n    function incBalance(address acc, uint256 diff) external onlySFC {\n        require(acc == address(sfc), \"recipient is not the SFC contract\");\n        driver.setBalance(acc, address(acc).balance.add(diff));\n    }\n\n    function upgradeCode(address acc, address from) external onlyOwner {\n        require(isContract(acc) && isContract(from), \"not a contract\");\n        driver.copyCode(acc, from);\n    }\n\n    function copyCode(address acc, address from) external onlyOwner {\n        driver.copyCode(acc, from);\n    }\n\n    function incNonce(address acc, uint256 diff) external onlyOwner {\n        driver.incNonce(acc, diff);\n    }\n\n    function updateNetworkRules(bytes calldata diff) external onlyOwner {\n        driver.updateNetworkRules(diff);\n    }\n\n    function updateMinGasPrice(uint256 minGasPrice) external onlySFC {\n        driver.updateNetworkRules(bytes(strConcat(\"{\\\"Economy\\\":{\\\"MinGasPrice\\\":\", uint256ToStr(minGasPrice), \"}}\")));\n    }\n\n    function updateNetworkVersion(uint256 version) external onlyOwner {\n        driver.updateNetworkVersion(version);\n    }\n\n    function advanceEpochs(uint256 num) external onlyOwner {\n        driver.advanceEpochs(num);\n    }\n\n    function updateValidatorWeight(uint256 validatorID, uint256 value) external onlySFC {\n        driver.updateValidatorWeight(validatorID, value);\n    }\n\n    function updateValidatorPubkey(uint256 validatorID, bytes calldata pubkey) external onlySFC {\n        driver.updateValidatorPubkey(validatorID, pubkey);\n    }\n\n    function setGenesisValidator(address _auth, uint256 validatorID, bytes calldata pubkey, uint256 status, uint256 createdEpoch, uint256 createdTime, uint256 deactivatedEpoch, uint256 deactivatedTime) external onlyDriver {\n        sfc.setGenesisValidator(_auth, validatorID, pubkey, status, createdEpoch, createdTime, deactivatedEpoch, deactivatedTime);\n    }\n\n    function setGenesisDelegation(address delegator, uint256 toValidatorID, uint256 stake, uint256 lockedStake, uint256 lockupFromEpoch, uint256 lockupEndTime, uint256 lockupDuration, uint256 earlyUnlockPenalty, uint256 rewards) external onlyDriver {\n        sfc.setGenesisDelegation(delegator, toValidatorID, stake, lockedStake, lockupFromEpoch, lockupEndTime, lockupDuration, earlyUnlockPenalty, rewards);\n    }\n\n    function deactivateValidator(uint256 validatorID, uint256 status) external onlyDriver {\n        sfc.deactivateValidator(validatorID, status);\n    }\n\n    function sealEpochValidators(uint256[] calldata nextValidatorIDs) external onlyDriver {\n        sfc.sealEpochValidators(nextValidatorIDs);\n    }\n\n    function sealEpoch(uint256[] calldata offlineTimes, uint256[] calldata offlineBlocks, uint256[] calldata uptimes, uint256[] calldata originatedTxsFee, uint256 usedGas) external onlyDriver {\n        sfc.sealEpoch(offlineTimes, offlineBlocks, uptimes, originatedTxsFee, usedGas);\n    }\n\n    function isContract(address account) internal view returns (bool) {\n        uint256 size;\n        // solhint-disable-next-line no-inline-assembly\n        assembly {size := extcodesize(account)}\n        return size > 0;\n    }\n\n    function decimalsNum(uint256 num) internal pure returns (uint256) {\n        uint decimals;\n        while (num != 0) {\n            decimals++;\n            num /= 10;\n        }\n        return decimals;\n    }\n\n    function uint256ToStr(uint256 num) internal pure returns (string memory) {\n        if (num == 0) {\n            return \"0\";\n        }\n        uint decimals = decimalsNum(num);\n        bytes memory bstr = new bytes(decimals);\n        uint strIdx = decimals - 1;\n        while (num != 0) {\n            bstr[strIdx] = byte(uint8(48 + num % 10));\n            num /= 10;\n            strIdx--;\n        }\n        return string(bstr);\n    }\n\n    function strConcat(string memory _a, string memory _b, string memory _c) internal pure returns (string memory) {\n        bytes memory _ba = bytes(_a);\n        bytes memory _bb = bytes(_b);\n        bytes memory _bc = bytes(_c);\n        string memory abc = new string(_ba.length + _bb.length + _bc.length);\n        bytes memory babc = bytes(abc);\n        uint k = 0;\n        uint i = 0;\n        for (i = 0; i < _ba.length; i++) {\n            babc[k++] = _ba[i];\n        }\n        for (i = 0; i < _bb.length; i++) {\n            babc[k++] = _bb[i];\n        }\n        for (i = 0; i < _bc.length; i++) {\n            babc[k++] = _bc[i];\n        }\n        return string(babc);\n    }\n\n    function _getCodeHash(address addr) internal view returns (bytes32) {\n        bytes32 codeHash;\n        assembly {codeHash := extcodehash(addr)}\n        return codeHash;\n    }\n}\n\ncontract NodeDriver is Initializable {\n    uint256 private erased0;\n    NodeDriverAuth internal backend;\n    EVMWriter internal evmWriter;\n\n    event UpdatedBackend(address indexed backend);\n\n    function setBackend(address _backend) external onlyBackend {\n        emit UpdatedBackend(_backend);\n        backend = NodeDriverAuth(_backend);\n    }\n\n    modifier onlyBackend() {\n        require(msg.sender == address(backend), \"caller is not the backend\");\n        _;\n    }\n\n    event UpdateValidatorWeight(uint256 indexed validatorID, uint256 weight);\n    event UpdateValidatorPubkey(uint256 indexed validatorID, bytes pubkey);\n\n    event UpdateNetworkRules(bytes diff);\n    event UpdateNetworkVersion(uint256 version);\n    event AdvanceEpochs(uint256 num);\n\n    function initialize(address _backend, address _evmWriterAddress) external initializer {\n        backend = NodeDriverAuth(_backend);\n        emit UpdatedBackend(_backend);\n        evmWriter = EVMWriter(_evmWriterAddress);\n    }\n\n    function setBalance(address acc, uint256 value) external onlyBackend {\n        evmWriter.setBalance(acc, value);\n    }\n\n    function copyCode(address acc, address from) external onlyBackend {\n        evmWriter.copyCode(acc, from);\n    }\n\n    function swapCode(address acc, address with) external onlyBackend {\n        evmWriter.swapCode(acc, with);\n    }\n\n    function setStorage(address acc, bytes32 key, bytes32 value) external onlyBackend {\n        evmWriter.setStorage(acc, key, value);\n    }\n\n    function incNonce(address acc, uint256 diff) external onlyBackend {\n        evmWriter.incNonce(acc, diff);\n    }\n\n    function updateNetworkRules(bytes calldata diff) external onlyBackend {\n        emit UpdateNetworkRules(diff);\n    }\n\n    function updateNetworkVersion(uint256 version) external onlyBackend {\n        emit UpdateNetworkVersion(version);\n    }\n\n    function advanceEpochs(uint256 num) external onlyBackend {\n        emit AdvanceEpochs(num);\n    }\n\n    function updateValidatorWeight(uint256 validatorID, uint256 value) external onlyBackend {\n        emit UpdateValidatorWeight(validatorID, value);\n    }\n\n    function updateValidatorPubkey(uint256 validatorID, bytes calldata pubkey) external onlyBackend {\n        emit UpdateValidatorPubkey(validatorID, pubkey);\n    }\n\n    modifier onlyNode() {\n        require(msg.sender == address(0), \"not callable\");\n        _;\n    }\n\n    // Methods which are called only by the node\n\n    function setGenesisValidator(address _auth, uint256 validatorID, bytes calldata pubkey, uint256 status, uint256 createdEpoch, uint256 createdTime, uint256 deactivatedEpoch, uint256 deactivatedTime) external onlyNode {\n        backend.setGenesisValidator(_auth, validatorID, pubkey, status, createdEpoch, createdTime, deactivatedEpoch, deactivatedTime);\n    }\n\n    function setGenesisDelegation(address delegator, uint256 toValidatorID, uint256 stake, uint256 lockedStake, uint256 lockupFromEpoch, uint256 lockupEndTime, uint256 lockupDuration, uint256 earlyUnlockPenalty, uint256 rewards) external onlyNode {\n        backend.setGenesisDelegation(delegator, toValidatorID, stake, lockedStake, lockupFromEpoch, lockupEndTime, lockupDuration, earlyUnlockPenalty, rewards);\n    }\n\n    function deactivateValidator(uint256 validatorID, uint256 status) external onlyNode {\n        backend.deactivateValidator(validatorID, status);\n    }\n\n    function sealEpochValidators(uint256[] calldata nextValidatorIDs) external onlyNode {\n        backend.sealEpochValidators(nextValidatorIDs);\n    }\n\n    function sealEpoch(uint256[] calldata offlineTimes, uint256[] calldata offlineBlocks, uint256[] calldata uptimes, uint256[] calldata originatedTxsFee) external onlyNode {\n        backend.sealEpoch(offlineTimes, offlineBlocks, uptimes, originatedTxsFee, 841669690);\n    }\n\n    function sealEpochV1(uint256[] calldata offlineTimes, uint256[] calldata offlineBlocks, uint256[] calldata uptimes, uint256[] calldata originatedTxsFee, uint256 usedGas) external onlyNode {\n        backend.sealEpoch(offlineTimes, offlineBlocks, uptimes, originatedTxsFee, usedGas);\n    }\n}\n\ninterface EVMWriter {\n    function setBalance(address acc, uint256 value) external;\n\n    function copyCode(address acc, address from) external;\n\n    function swapCode(address acc, address with) external;\n\n    function setStorage(address acc, bytes32 key, bytes32 value) external;\n\n    function incNonce(address acc, uint256 diff) external;\n}\n\n// File: contracts/version/Version.sol\n\npragma solidity ^0.5.0;\n\n/**\n * @dev Version contract gives the versioning information of the implementation contract\n */\ncontract Version {\n    /**\n     * @dev Returns the address of the current owner.\n     */\n    function version() public pure returns (bytes3) {\n        // version 3.0.4\n        return \"304\";\n    }\n}\n\n// File: contracts/common/Decimal.sol\n\npragma solidity ^0.5.0;\n\nlibrary Decimal {\n    // unit is used for decimals, e.g. 0.123456\n    function unit() internal pure returns (uint256) {\n        return 1e18;\n    }\n}\n\n// File: contracts/sfc/ConstantsManager.sol\n\npragma solidity ^0.5.0;\n\n\n\n\ncontract ConstantsManager is Ownable {\n    using SafeMath for uint256;\n\n    // Minimum amount of stake for a validator, i.e., 500000 FTM\n    uint256 public minSelfStake;\n    // Maximum ratio of delegations a validator can have, say, 15 times of self-stake\n    uint256 public maxDelegatedRatio;\n    // The commission fee in percentage a validator will get from a delegation, e.g., 15%\n    uint256 public validatorCommission;\n    // The percentage of fees to burn, e.g., 20%\n    uint256 public burntFeeShare;\n    // The percentage of fees to transfer to treasury address, e.g., 10%\n    uint256 public treasuryFeeShare;\n    // The ratio of the reward rate at base rate (no lock), e.g., 30%\n    uint256 public unlockedRewardRatio;\n    // The minimum duration of a stake/delegation lockup, e.g. 2 weeks\n    uint256 public minLockupDuration;\n    // The maximum duration of a stake/delegation lockup, e.g. 1 year\n    uint256 public maxLockupDuration;\n    // the number of epochs that undelegated stake is locked for\n    uint256 public withdrawalPeriodEpochs;\n    // the number of seconds that undelegated stake is locked for\n    uint256 public withdrawalPeriodTime;\n\n    uint256 public baseRewardPerSecond;\n    uint256 public offlinePenaltyThresholdBlocksNum;\n    uint256 public offlinePenaltyThresholdTime;\n    uint256 public targetGasPowerPerSecond;\n    uint256 public gasPriceBalancingCounterweight;\n\n    address private secondaryOwner_erased;\n\n//    event SecondaryOwnershipTransferred(address indexed previousOwner, address indexed newOwner);\n\n    function initialize() external initializer {\n        Ownable.initialize(msg.sender);\n    }\n\n//    function setSecondaryOwner(address v) onlyOwner external {\n//        emit SecondaryOwnershipTransferred(secondaryOwner, v);\n//        secondaryOwner = v;\n//    }\n\n    function updateMinSelfStake(uint256 v) onlyOwner external {\n        require(v >= 100000 * 1e18, \"too small value\");\n        require(v <= 10000000 * 1e18, \"too large value\");\n        minSelfStake = v;\n    }\n\n    function updateMaxDelegatedRatio(uint256 v) onlyOwner external {\n        require(v >= Decimal.unit(), \"too small value\");\n        require(v <= 31 * Decimal.unit(), \"too large value\");\n        maxDelegatedRatio = v;\n    }\n\n    function updateValidatorCommission(uint256 v) onlyOwner external {\n        require(v <= Decimal.unit() / 2, \"too large value\");\n        validatorCommission = v;\n    }\n\n    function updateBurntFeeShare(uint256 v) onlyOwner external {\n        require(v <= Decimal.unit() / 2, \"too large value\");\n        burntFeeShare = v;\n    }\n\n    function updateTreasuryFeeShare(uint256 v) onlyOwner external {\n        require(v <= Decimal.unit() / 2, \"too large value\");\n        treasuryFeeShare = v;\n    }\n\n    function updateUnlockedRewardRatio(uint256 v) onlyOwner external {\n        require(v >= (5 * Decimal.unit()) / 100, \"too small value\");\n        require(v <= Decimal.unit() / 2, \"too large value\");\n        unlockedRewardRatio = v;\n    }\n\n    function updateMinLockupDuration(uint256 v) onlyOwner external {\n        require(v >= 86400, \"too small value\");\n        require(v <= 86400 * 30, \"too large value\");\n        minLockupDuration = v;\n    }\n\n    function updateMaxLockupDuration(uint256 v) onlyOwner external {\n        require(v >= 86400 * 30, \"too small value\");\n        require(v <= 86400 * 1460, \"too large value\");\n        maxLockupDuration = v;\n    }\n\n    function updateWithdrawalPeriodEpochs(uint256 v) onlyOwner external {\n        require(v >= 2, \"too small value\");\n        require(v <= 100, \"too large value\");\n        withdrawalPeriodEpochs = v;\n    }\n\n    function updateWithdrawalPeriodTime(uint256 v) onlyOwner external {\n        require(v >= 86400, \"too small value\");\n        require(v <= 30 * 86400, \"too large value\");\n        withdrawalPeriodTime = v;\n    }\n\n    function updateBaseRewardPerSecond(uint256 v) onlyOwner external {\n        require(v >= 0.5 * 1e18, \"too small value\");\n        require(v <= 32 * 1e18, \"too large value\");\n        baseRewardPerSecond = v;\n    }\n\n    function updateOfflinePenaltyThresholdTime(uint256 v) onlyOwner external {\n        require(v >= 86400, \"too small value\");\n        require(v <= 10 * 86400, \"too large value\");\n        offlinePenaltyThresholdTime = v;\n    }\n\n    function updateOfflinePenaltyThresholdBlocksNum(uint256 v) onlyOwner external {\n        require(v >= 100, \"too small value\");\n        require(v <= 1000000, \"too large value\");\n        offlinePenaltyThresholdBlocksNum = v;\n    }\n\n    function updateTargetGasPowerPerSecond(uint256 v) onlyOwner external {\n        require(v >= 1000000, \"too small value\");\n        require(v <= 500000000, \"too large value\");\n        targetGasPowerPerSecond = v;\n    }\n\n    function updateGasPriceBalancingCounterweight(uint256 v) onlyOwner external {\n        require(v >= 100, \"too small value\");\n        require(v <= 10 * 86400, \"too large value\");\n        gasPriceBalancingCounterweight = v;\n    }\n}\n\n// File: contracts/sfc/SFCState.sol\n\npragma solidity ^0.5.0;\n\n\n\n\ncontract SFCState is Initializable, Ownable {\n    using SafeMath for uint256;\n    /**\n     * @dev The staking for validation\n     */\n    struct Validator {\n        uint256 status;\n        uint256 deactivatedTime;\n        uint256 deactivatedEpoch;\n\n        uint256 receivedStake;\n        uint256 createdEpoch;\n        uint256 createdTime;\n\n        address auth;\n    }\n\n    NodeDriverAuth internal node;\n\n    struct Rewards {\n        uint256 lockupExtraReward;\n        uint256 lockupBaseReward;\n        uint256 unlockedReward;\n    }\n\n    uint256 public currentSealedEpoch;\n    mapping(uint256 => Validator) public getValidator;\n    mapping(address => uint256) public getValidatorID;\n    mapping(uint256 => bytes) public getValidatorPubkey;\n\n    uint256 public lastValidatorID;\n    uint256 public totalStake;\n    uint256 public totalActiveStake;\n    uint256 public totalSlashedStake;\n\n    mapping(address => mapping(uint256 => Rewards)) internal _rewardsStash; // addr, validatorID -> Rewards\n\n    mapping(address => mapping(uint256 => uint256)) public stashedRewardsUntilEpoch;\n\n    struct WithdrawalRequest {\n        uint256 epoch;\n        uint256 time;\n\n        uint256 amount;\n    }\n\n    mapping(address => mapping(uint256 => mapping(uint256 => WithdrawalRequest))) public getWithdrawalRequest;\n\n    struct LockedDelegation {\n        uint256 lockedStake;\n        uint256 fromEpoch;\n        uint256 endTime;\n        uint256 duration;\n    }\n\n    mapping(address => mapping(uint256 => uint256)) public getStake;\n\n    mapping(address => mapping(uint256 => LockedDelegation)) public getLockupInfo;\n\n    mapping(address => mapping(uint256 => Rewards)) public getStashedLockupRewards;\n\n    struct EpochSnapshot {\n        mapping(uint256 => uint256) receivedStake;\n        mapping(uint256 => uint256) accumulatedRewardPerToken;\n        mapping(uint256 => uint256) accumulatedUptime;\n        mapping(uint256 => uint256) accumulatedOriginatedTxsFee;\n        mapping(uint256 => uint256) offlineTime;\n        mapping(uint256 => uint256) offlineBlocks;\n\n        uint256[] validatorIDs;\n\n        uint256 endTime;\n        uint256 epochFee;\n        uint256 totalBaseRewardWeight;\n        uint256 totalTxRewardWeight;\n        uint256 baseRewardPerSecond;\n        uint256 totalStake;\n        uint256 totalSupply;\n    }\n\n    uint256 private erased0;\n    uint256 public totalSupply;\n    mapping(uint256 => EpochSnapshot) public getEpochSnapshot;\n\n    uint256 private erased1;\n    uint256 private erased2;\n\n    mapping(uint256 => uint256) public slashingRefundRatio; // validator ID -> (slashing refund ratio)\n\n    address public stakeTokenizerAddress;\n\n    uint256 private erased3;\n    uint256 private erased4;\n    uint256 public minGasPrice;\n\n    address public treasuryAddress;\n\n    address internal libAddress;\n\n    ConstantsManager internal c;\n\n    address public voteBookAddress;\n}\n\n// File: contracts/sfc/SFCBase.sol\n\npragma solidity ^0.5.0;\n\n\ncontract SFCBase is SFCState {\n    using SafeMath for uint256;\n\n    uint256 internal constant OK_STATUS = 0;\n    uint256 internal constant WITHDRAWN_BIT = 1;\n    uint256 internal constant OFFLINE_BIT = 1 << 3;\n    uint256 internal constant DOUBLESIGN_BIT = 1 << 7;\n    uint256 internal constant CHEATER_MASK = DOUBLESIGN_BIT;\n\n    event DeactivatedValidator(uint256 indexed validatorID, uint256 deactivatedEpoch, uint256 deactivatedTime);\n    event ChangedValidatorStatus(uint256 indexed validatorID, uint256 status);\n\n    function isNode(address addr) internal view returns (bool) {\n        return addr == address(node);\n    }\n\n    modifier onlyDriver() {\n        require(isNode(msg.sender), \"caller is not the NodeDriverAuth contract\");\n        _;\n    }\n\n    function currentEpoch() public view returns (uint256) {\n        return currentSealedEpoch + 1;\n    }\n\n    function _calcRawValidatorEpochTxReward(uint256 epochFee, uint256 txRewardWeight, uint256 totalTxRewardWeight) internal view returns (uint256) {\n        if (txRewardWeight == 0) {\n            return 0;\n        }\n        uint256 txReward = epochFee.mul(txRewardWeight).div(totalTxRewardWeight);\n        // fee reward except burntFeeShare and treasuryFeeShare\n        return txReward.mul(Decimal.unit() - c.burntFeeShare() - c.treasuryFeeShare()).div(Decimal.unit());\n    }\n\n    function _calcRawValidatorEpochBaseReward(uint256 epochDuration, uint256 _baseRewardPerSecond, uint256 baseRewardWeight, uint256 totalBaseRewardWeight) internal pure returns (uint256) {\n        if (baseRewardWeight == 0) {\n            return 0;\n        }\n        uint256 totalReward = epochDuration.mul(_baseRewardPerSecond);\n        return totalReward.mul(baseRewardWeight).div(totalBaseRewardWeight);\n    }\n\n    function _mintNativeToken(uint256 amount) internal {\n        // balance will be increased after the transaction is processed\n        node.incBalance(address(this), amount);\n        totalSupply = totalSupply.add(amount);\n    }\n\n    function sumRewards(Rewards memory a, Rewards memory b) internal pure returns (Rewards memory) {\n        return Rewards(a.lockupExtraReward.add(b.lockupExtraReward), a.lockupBaseReward.add(b.lockupBaseReward), a.unlockedReward.add(b.unlockedReward));\n    }\n\n    function sumRewards(Rewards memory a, Rewards memory b, Rewards memory c) internal pure returns (Rewards memory) {\n        return sumRewards(sumRewards(a, b), c);\n    }\n\n    function _scaleLockupReward(uint256 fullReward, uint256 lockupDuration) internal view returns (Rewards memory reward) {\n        reward = Rewards(0, 0, 0);\n        uint256 unlockedRewardRatio = c.unlockedRewardRatio();\n        if (lockupDuration != 0) {\n            uint256 maxLockupExtraRatio = Decimal.unit() - unlockedRewardRatio;\n            uint256 lockupExtraRatio = maxLockupExtraRatio.mul(lockupDuration).div(c.maxLockupDuration());\n            uint256 totalScaledReward = fullReward.mul(unlockedRewardRatio + lockupExtraRatio).div(Decimal.unit());\n            reward.lockupBaseReward = fullReward.mul(unlockedRewardRatio).div(Decimal.unit());\n            reward.lockupExtraReward = totalScaledReward - reward.lockupBaseReward;\n        } else {\n            reward.unlockedReward = fullReward.mul(unlockedRewardRatio).div(Decimal.unit());\n        }\n        return reward;\n    }\n\n    function _recountVotes(address delegator, address validatorAuth, bool strict) internal {\n        if (voteBookAddress != address(0)) {\n            // Don't allow recountVotes to use up all the gas\n            (bool success,) = voteBookAddress.call.gas(8000000)(abi.encodeWithSignature(\"recountVotes(address,address)\", delegator, validatorAuth));\n            // Don't revert if recountVotes failed unless strict mode enabled\n            require(success || !strict, \"gov votes recounting failed\");\n        }\n    }\n\n    function _setValidatorDeactivated(uint256 validatorID, uint256 status) internal {\n        if (getValidator[validatorID].status == OK_STATUS && status != OK_STATUS) {\n            totalActiveStake = totalActiveStake.sub(getValidator[validatorID].receivedStake);\n        }\n        // status as a number is proportional to severity\n        if (status > getValidator[validatorID].status) {\n            getValidator[validatorID].status = status;\n            if (getValidator[validatorID].deactivatedEpoch == 0) {\n                getValidator[validatorID].deactivatedEpoch = currentEpoch();\n                getValidator[validatorID].deactivatedTime = _now();\n                emit DeactivatedValidator(validatorID, getValidator[validatorID].deactivatedEpoch, getValidator[validatorID].deactivatedTime);\n            }\n            emit ChangedValidatorStatus(validatorID, status);\n        }\n    }\n\n    function _syncValidator(uint256 validatorID, bool syncPubkey) public {\n        require(_validatorExists(validatorID), \"validator doesn't exist\");\n        // emit special log for node\n        uint256 weight = getValidator[validatorID].receivedStake;\n        if (getValidator[validatorID].status != OK_STATUS) {\n            weight = 0;\n        }\n        node.updateValidatorWeight(validatorID, weight);\n        if (syncPubkey && weight != 0) {\n            node.updateValidatorPubkey(validatorID, getValidatorPubkey[validatorID]);\n        }\n    }\n\n    function _validatorExists(uint256 validatorID) view internal returns (bool) {\n        return getValidator[validatorID].createdTime != 0;\n    }\n\n    function _calcValidatorCommission(uint256 rawReward, uint256 commission) internal pure returns (uint256)  {\n        return rawReward.mul(commission).div(Decimal.unit());\n    }\n\n    function getLockedStake(address delegator, uint256 toValidatorID) public view returns (uint256) {\n        if (!isLockedUp(delegator, toValidatorID)) {\n            return 0;\n        }\n        return getLockupInfo[delegator][toValidatorID].lockedStake;\n    }\n\n    function isLockedUp(address delegator, uint256 toValidatorID) view public returns (bool) {\n        return getLockupInfo[delegator][toValidatorID].endTime != 0 && getLockupInfo[delegator][toValidatorID].lockedStake != 0 && _now() <= getLockupInfo[delegator][toValidatorID].endTime;\n    }\n\n    function _now() internal view returns (uint256) {\n        return block.timestamp;\n    }\n}\n\n// File: contracts/sfc/GasPriceConstants.sol\n\npragma solidity ^0.5.0;\n\n\nlibrary GP {\n    function trimGasPriceChangeRatio(uint256 x) internal pure returns (uint256) {\n        if (x > Decimal.unit() * 105 / 100) {\n            return Decimal.unit() * 105 / 100;\n        }\n        if (x < Decimal.unit() * 95 / 100) {\n            return Decimal.unit() * 95 / 100;\n        }\n        return x;\n    }\n\n    function trimMinGasPrice(uint256 x) internal pure returns (uint256) {\n        if (x > 1000000 * 1e9) {\n            return 1000000 * 1e9;\n        }\n        if (x < 1e9) {\n            return 1e9;\n        }\n        return x;\n    }\n\n    function initialMinGasPrice() internal pure returns (uint256) {\n        return 100 * 1e9;\n    }\n}\n\n// File: contracts/sfc/SFC.sol\n\npragma solidity ^0.5.0;\n\n\n\n\n/**\n * @dev Stakers contract defines data structure and methods for validators / validators.\n */\ncontract SFC is SFCBase, Version {\n    function _delegate(address implementation) internal {\n        assembly {\n        // Copy msg.data. We take full control of memory in this inline assembly\n        // block because it will not return to Solidity code. We overwrite the\n        // Solidity scratch pad at memory position 0.\n            calldatacopy(0, 0, calldatasize)\n\n        // Call the implementation.\n        // out and outsize are 0 because we don't know the size yet.\n            let result := delegatecall(gas, implementation, 0, calldatasize, 0, 0)\n\n        // Copy the returned data.\n            returndatacopy(0, 0, returndatasize)\n\n            switch result\n            // delegatecall returns 0 on error.\n            case 0 {revert(0, returndatasize)}\n            default {return (0, returndatasize)}\n        }\n    }\n\n    function() payable external {\n        require(msg.data.length != 0, \"transfers not allowed\");\n        _delegate(libAddress);\n    }\n\n    event UpdatedBaseRewardPerSec(uint256 value);\n    event UpdatedOfflinePenaltyThreshold(uint256 blocksNum, uint256 period);\n\n    /*\n    Constructor\n    */\n\n    function initialize(uint256 sealedEpoch, uint256 _totalSupply, address nodeDriver, address lib, address _c, address owner) external initializer {\n        Ownable.initialize(owner);\n        currentSealedEpoch = sealedEpoch;\n        node = NodeDriverAuth(nodeDriver);\n        libAddress = lib;\n        c = ConstantsManager(_c);\n        totalSupply = _totalSupply;\n        minGasPrice = GP.initialMinGasPrice();\n        getEpochSnapshot[sealedEpoch].endTime = _now();\n    }\n\n    function updateStakeTokenizerAddress(address addr) onlyOwner external {\n        stakeTokenizerAddress = addr;\n    }\n\n    function updateLibAddress(address v) onlyOwner external {\n        libAddress = v;\n    }\n\n    function updateTreasuryAddress(address v) onlyOwner external {\n        treasuryAddress = v;\n    }\n\n    function updateConstsAddress(address v) onlyOwner external {\n        c = ConstantsManager(v);\n    }\n\n    function constsAddress() external view returns (address) {\n        return address(c);\n    }\n\n    function updateVoteBookAddress(address v) onlyOwner external {\n        voteBookAddress = v;\n    }\n\n    /*\n    Epoch callbacks\n    */\n\n    function _sealEpoch_offline(EpochSnapshot storage snapshot, uint256[] memory validatorIDs, uint256[] memory offlineTime, uint256[] memory offlineBlocks) internal {\n        // mark offline nodes\n        for (uint256 i = 0; i < validatorIDs.length; i++) {\n            if (offlineBlocks[i] > c.offlinePenaltyThresholdBlocksNum() && offlineTime[i] >= c.offlinePenaltyThresholdTime()) {\n                _setValidatorDeactivated(validatorIDs[i], OFFLINE_BIT);\n                _syncValidator(validatorIDs[i], false);\n            }\n            // log data\n            snapshot.offlineTime[validatorIDs[i]] = offlineTime[i];\n            snapshot.offlineBlocks[validatorIDs[i]] = offlineBlocks[i];\n        }\n    }\n\n    struct _SealEpochRewardsCtx {\n        uint256[] baseRewardWeights;\n        uint256 totalBaseRewardWeight;\n        uint256[] txRewardWeights;\n        uint256 totalTxRewardWeight;\n        uint256 epochFee;\n    }\n\n    function _sealEpoch_rewards(uint256 epochDuration, EpochSnapshot storage snapshot, EpochSnapshot storage prevSnapshot, uint256[] memory validatorIDs, uint256[] memory uptimes, uint256[] memory accumulatedOriginatedTxsFee) internal {\n        _SealEpochRewardsCtx memory ctx = _SealEpochRewardsCtx(new uint[](validatorIDs.length), 0, new uint[](validatorIDs.length), 0, 0);\n\n        for (uint256 i = 0; i < validatorIDs.length; i++) {\n            uint256 prevAccumulatedTxsFee = prevSnapshot.accumulatedOriginatedTxsFee[validatorIDs[i]];\n            uint256 originatedTxsFee = 0;\n            if (accumulatedOriginatedTxsFee[i] > prevAccumulatedTxsFee) {\n                originatedTxsFee = accumulatedOriginatedTxsFee[i] - prevAccumulatedTxsFee;\n            }\n            // txRewardWeight = {originatedTxsFee} * {uptime}\n            // originatedTxsFee is roughly proportional to {uptime} * {stake}, so the whole formula is roughly\n            // {stake} * {uptime} ^ 2\n            ctx.txRewardWeights[i] = originatedTxsFee * uptimes[i] / epochDuration;\n            ctx.totalTxRewardWeight = ctx.totalTxRewardWeight.add(ctx.txRewardWeights[i]);\n            ctx.epochFee = ctx.epochFee.add(originatedTxsFee);\n        }\n\n        for (uint256 i = 0; i < validatorIDs.length; i++) {\n            // baseRewardWeight = {stake} * {uptime ^ 2}\n            ctx.baseRewardWeights[i] = (((snapshot.receivedStake[validatorIDs[i]] * uptimes[i]) / epochDuration) * uptimes[i]) / epochDuration;\n            ctx.totalBaseRewardWeight = ctx.totalBaseRewardWeight.add(ctx.baseRewardWeights[i]);\n        }\n\n        for (uint256 i = 0; i < validatorIDs.length; i++) {\n            uint256 rawReward = _calcRawValidatorEpochBaseReward(epochDuration, c.baseRewardPerSecond(), ctx.baseRewardWeights[i], ctx.totalBaseRewardWeight);\n            rawReward = rawReward.add(_calcRawValidatorEpochTxReward(ctx.epochFee, ctx.txRewardWeights[i], ctx.totalTxRewardWeight));\n\n            uint256 validatorID = validatorIDs[i];\n            address validatorAddr = getValidator[validatorID].auth;\n            // accounting validator's commission\n            uint256 commissionRewardFull = _calcValidatorCommission(rawReward, c.validatorCommission());\n            uint256 selfStake = getStake[validatorAddr][validatorID];\n            if (selfStake != 0) {\n                uint256 lCommissionRewardFull = (commissionRewardFull * getLockedStake(validatorAddr, validatorID)) / selfStake;\n                uint256 uCommissionRewardFull = commissionRewardFull - lCommissionRewardFull;\n                Rewards memory lCommissionReward = _scaleLockupReward(lCommissionRewardFull, getLockupInfo[validatorAddr][validatorID].duration);\n                Rewards memory uCommissionReward = _scaleLockupReward(uCommissionRewardFull, 0);\n                _rewardsStash[validatorAddr][validatorID] = sumRewards(_rewardsStash[validatorAddr][validatorID], lCommissionReward, uCommissionReward);\n                getStashedLockupRewards[validatorAddr][validatorID] = sumRewards(getStashedLockupRewards[validatorAddr][validatorID], lCommissionReward, uCommissionReward);\n            }\n            // accounting reward per token for delegators\n            uint256 delegatorsReward = rawReward - commissionRewardFull;\n            // note: use latest stake for the sake of rewards distribution accuracy, not snapshot.receivedStake\n            uint256 receivedStake = getValidator[validatorID].receivedStake;\n            uint256 rewardPerToken = 0;\n            if (receivedStake != 0) {\n                rewardPerToken = (delegatorsReward * Decimal.unit()) / receivedStake;\n            }\n            snapshot.accumulatedRewardPerToken[validatorID] = prevSnapshot.accumulatedRewardPerToken[validatorID] + rewardPerToken;\n\n            snapshot.accumulatedOriginatedTxsFee[validatorID] = accumulatedOriginatedTxsFee[i];\n            snapshot.accumulatedUptime[validatorID] = prevSnapshot.accumulatedUptime[validatorID] + uptimes[i];\n        }\n\n        snapshot.epochFee = ctx.epochFee;\n        snapshot.totalBaseRewardWeight = ctx.totalBaseRewardWeight;\n        snapshot.totalTxRewardWeight = ctx.totalTxRewardWeight;\n        if (totalSupply > snapshot.epochFee) {\n            totalSupply -= snapshot.epochFee;\n        } else {\n            totalSupply = 0;\n        }\n\n        // transfer 10% of fees to treasury\n        if (treasuryAddress != address(0)) {\n            uint256 feeShare = ctx.epochFee * c.treasuryFeeShare() / Decimal.unit();\n            _mintNativeToken(feeShare);\n            treasuryAddress.call.value(feeShare)(\"\");\n        }\n    }\n\n\n    function _sealEpoch_minGasPrice(uint256 epochDuration, uint256 epochGas) internal {\n        // change minGasPrice proportionally to the difference between target and received epochGas\n        uint256 targetEpochGas = epochDuration * c.targetGasPowerPerSecond() + 1;\n        uint256 gasPriceDeltaRatio = epochGas * Decimal.unit() / targetEpochGas;\n        uint256 counterweight = c.gasPriceBalancingCounterweight();\n        // scale down the change speed (estimate gasPriceDeltaRatio ^ (epochDuration / counterweight))\n        gasPriceDeltaRatio = (epochDuration * gasPriceDeltaRatio + counterweight * Decimal.unit()) / (epochDuration + counterweight);\n        // limit the max/min possible delta in one epoch\n        gasPriceDeltaRatio = GP.trimGasPriceChangeRatio(gasPriceDeltaRatio);\n\n        // apply the ratio\n        uint256 newMinGasPrice = minGasPrice * gasPriceDeltaRatio / Decimal.unit();\n        // limit the max/min possible minGasPrice\n        newMinGasPrice = GP.trimMinGasPrice(newMinGasPrice);\n        // apply new minGasPrice\n        minGasPrice = newMinGasPrice;\n    }\n\n    function sealEpoch(uint256[] calldata offlineTime, uint256[] calldata offlineBlocks, uint256[] calldata uptimes, uint256[] calldata originatedTxsFee, uint256 epochGas) external onlyDriver {\n        EpochSnapshot storage snapshot = getEpochSnapshot[currentEpoch()];\n        uint256[] memory validatorIDs = snapshot.validatorIDs;\n\n        _sealEpoch_offline(snapshot, validatorIDs, offlineTime, offlineBlocks);\n        {\n            EpochSnapshot storage prevSnapshot = getEpochSnapshot[currentSealedEpoch];\n            uint256 epochDuration = 1;\n            if (_now() > prevSnapshot.endTime) {\n                epochDuration = _now() - prevSnapshot.endTime;\n            }\n            _sealEpoch_rewards(epochDuration, snapshot, prevSnapshot, validatorIDs, uptimes, originatedTxsFee);\n            _sealEpoch_minGasPrice(epochDuration, epochGas);\n        }\n\n        currentSealedEpoch = currentEpoch();\n        snapshot.endTime = _now();\n        snapshot.baseRewardPerSecond = c.baseRewardPerSecond();\n        snapshot.totalSupply = totalSupply;\n    }\n\n    function sealEpochValidators(uint256[] calldata nextValidatorIDs) external onlyDriver {\n        EpochSnapshot storage snapshot = getEpochSnapshot[currentEpoch()];\n        // fill data for the next snapshot\n        for (uint256 i = 0; i < nextValidatorIDs.length; i++) {\n            uint256 validatorID = nextValidatorIDs[i];\n            uint256 receivedStake = getValidator[validatorID].receivedStake;\n            snapshot.receivedStake[validatorID] = receivedStake;\n            snapshot.totalStake = snapshot.totalStake.add(receivedStake);\n        }\n        snapshot.validatorIDs = nextValidatorIDs;\n        node.updateMinGasPrice(minGasPrice);\n    }\n}",
  "sourcePath": "contracts/SFC.sol",
  "type": "contract"
}