{
  "abi": [
    {
      "anonymous": false,
      "inputs": [
        {
          "indexed": true,
          "internalType": "uint256",
          "name": "validatorID",
          "type": "uint256"
        },
        {
          "indexed": false,
          "internalType": "uint256",
          "name": "status",
          "type": "uint256"
        }
      ],
      "name": "ChangedValidatorStatus",
      "type": "event"
    },
    {
      "anonymous": false,
      "inputs": [
        {
          "indexed": true,
          "internalType": "uint256",
          "name": "validatorID",
          "type": "uint256"
        },
        {
          "indexed": false,
          "internalType": "uint256",
          "name": "deactivatedEpoch",
          "type": "uint256"
        },
        {
          "indexed": false,
          "internalType": "uint256",
          "name": "deactivatedTime",
          "type": "uint256"
        }
      ],
      "name": "DeactivatedValidator",
      "type": "event"
    },
    {
      "anonymous": false,
      "inputs": [
        {
          "indexed": true,
          "internalType": "address",
          "name": "previousOwner",
          "type": "address"
        },
        {
          "indexed": true,
          "internalType": "address",
          "name": "newOwner",
          "type": "address"
        }
      ],
      "name": "OwnershipTransferred",
      "type": "event"
    },
    {
      "anonymous": false,
      "inputs": [
        {
          "indexed": false,
          "internalType": "uint256",
          "name": "value",
          "type": "uint256"
        }
      ],
      "name": "UpdatedBaseRewardPerSec",
      "type": "event"
    },
    {
      "anonymous": false,
      "inputs": [
        {
          "indexed": false,
          "internalType": "uint256",
          "name": "blocksNum",
          "type": "uint256"
        },
        {
          "indexed": false,
          "internalType": "uint256",
          "name": "period",
          "type": "uint256"
        }
      ],
      "name": "UpdatedOfflinePenaltyThreshold",
      "type": "event"
    },
    {
      "payable": true,
      "stateMutability": "payable",
      "type": "fallback"
    },
    {
      "constant": false,
      "inputs": [
        {
          "internalType": "uint256",
          "name": "validatorID",
          "type": "uint256"
        },
        {
          "internalType": "bool",
          "name": "syncPubkey",
          "type": "bool"
        }
      ],
      "name": "_syncValidator",
      "outputs": [],
      "payable": false,
      "stateMutability": "nonpayable",
      "type": "function"
    },
    {
      "constant": true,
      "inputs": [],
      "name": "constsAddress",
      "outputs": [
        {
          "internalType": "address",
          "name": "",
          "type": "address"
        }
      ],
      "payable": false,
      "stateMutability": "view",
      "type": "function"
    },
    {
      "constant": true,
      "inputs": [],
      "name": "currentEpoch",
      "outputs": [
        {
          "internalType": "uint256",
          "name": "",
          "type": "uint256"
        }
      ],
      "payable": false,
      "stateMutability": "view",
      "type": "function"
    },
    {
      "constant": true,
      "inputs": [],
      "name": "currentSealedEpoch",
      "outputs": [
        {
          "internalType": "uint256",
          "name": "",
          "type": "uint256"
        }
      ],
      "payable": false,
      "stateMutability": "view",
      "type": "function"
    },
    {
      "constant": true,
      "inputs": [
        {
          "internalType": "uint256",
          "name": "",
          "type": "uint256"
        }
      ],
      "name": "getEpochSnapshot",
      "outputs": [
        {
          "internalType": "uint256",
          "name": "endTime",
          "type": "uint256"
        },
        {
          "internalType": "uint256",
          "name": "epochFee",
          "type": "uint256"
        },
        {
          "internalType": "uint256",
          "name": "totalBaseRewardWeight",
          "type": "uint256"
        },
        {
          "internalType": "uint256",
          "name": "totalTxRewardWeight",
          "type": "uint256"
        },
        {
          "internalType": "uint256",
          "name": "baseRewardPerSecond",
          "type": "uint256"
        },
        {
          "internalType": "uint256",
          "name": "totalStake",
          "type": "uint256"
        },
        {
          "internalType": "uint256",
          "name": "totalSupply",
          "type": "uint256"
        }
      ],
      "payable": false,
      "stateMutability": "view",
      "type": "function"
    },
    {
      "constant": true,
      "inputs": [
        {
          "internalType": "address",
          "name": "delegator",
          "type": "address"
        },
        {
          "internalType": "uint256",
          "name": "toValidatorID",
          "type": "uint256"
        }
      ],
      "name": "getLockedStake",
      "outputs": [
        {
          "internalType": "uint256",
          "name": "",
          "type": "uint256"
        }
      ],
      "payable": false,
      "stateMutability": "view",
      "type": "function"
    },
    {
      "constant": true,
      "inputs": [
        {
          "internalType": "address",
          "name": "",
          "type": "address"
        },
        {
          "internalType": "uint256",
          "name": "",
          "type": "uint256"
        }
      ],
      "name": "getLockupInfo",
      "outputs": [
        {
          "internalType": "uint256",
          "name": "lockedStake",
          "type": "uint256"
        },
        {
          "internalType": "uint256",
          "name": "fromEpoch",
          "type": "uint256"
        },
        {
          "internalType": "uint256",
          "name": "endTime",
          "type": "uint256"
        },
        {
          "internalType": "uint256",
          "name": "duration",
          "type": "uint256"
        }
      ],
      "payable": false,
      "stateMutability": "view",
      "type": "function"
    },
    {
      "constant": true,
      "inputs": [
        {
          "internalType": "address",
          "name": "",
          "type": "address"
        },
        {
          "internalType": "uint256",
          "name": "",
          "type": "uint256"
        }
      ],
      "name": "getStake",
      "outputs": [
        {
          "internalType": "uint256",
          "name": "",
          "type": "uint256"
        }
      ],
      "payable": false,
      "stateMutability": "view",
      "type": "function"
    },
    {
      "constant": true,
      "inputs": [
        {
          "internalType": "address",
          "name": "",
          "type": "address"
        },
        {
          "internalType": "uint256",
          "name": "",
          "type": "uint256"
        }
      ],
      "name": "getStashedLockupRewards",
      "outputs": [
        {
          "internalType": "uint256",
          "name": "lockupExtraReward",
          "type": "uint256"
        },
        {
          "internalType": "uint256",
          "name": "lockupBaseReward",
          "type": "uint256"
        },
        {
          "internalType": "uint256",
          "name": "unlockedReward",
          "type": "uint256"
        }
      ],
      "payable": false,
      "stateMutability": "view",
      "type": "function"
    },
    {
      "constant": true,
      "inputs": [
        {
          "internalType": "uint256",
          "name": "",
          "type": "uint256"
        }
      ],
      "name": "getValidator",
      "outputs": [
        {
          "internalType": "uint256",
          "name": "status",
          "type": "uint256"
        },
        {
          "internalType": "uint256",
          "name": "deactivatedTime",
          "type": "uint256"
        },
        {
          "internalType": "uint256",
          "name": "deactivatedEpoch",
          "type": "uint256"
        },
        {
          "internalType": "uint256",
          "name": "receivedStake",
          "type": "uint256"
        },
        {
          "internalType": "uint256",
          "name": "createdEpoch",
          "type": "uint256"
        },
        {
          "internalType": "uint256",
          "name": "createdTime",
          "type": "uint256"
        },
        {
          "internalType": "address",
          "name": "auth",
          "type": "address"
        }
      ],
      "payable": false,
      "stateMutability": "view",
      "type": "function"
    },
    {
      "constant": true,
      "inputs": [
        {
          "internalType": "address",
          "name": "",
          "type": "address"
        }
      ],
      "name": "getValidatorID",
      "outputs": [
        {
          "internalType": "uint256",
          "name": "",
          "type": "uint256"
        }
      ],
      "payable": false,
      "stateMutability": "view",
      "type": "function"
    },
    {
      "constant": true,
      "inputs": [
        {
          "internalType": "uint256",
          "name": "",
          "type": "uint256"
        }
      ],
      "name": "getValidatorPubkey",
      "outputs": [
        {
          "internalType": "bytes",
          "name": "",
          "type": "bytes"
        }
      ],
      "payable": false,
      "stateMutability": "view",
      "type": "function"
    },
    {
      "constant": true,
      "inputs": [
        {
          "internalType": "address",
          "name": "",
          "type": "address"
        },
        {
          "internalType": "uint256",
          "name": "",
          "type": "uint256"
        },
        {
          "internalType": "uint256",
          "name": "",
          "type": "uint256"
        }
      ],
      "name": "getWithdrawalRequest",
      "outputs": [
        {
          "internalType": "uint256",
          "name": "epoch",
          "type": "uint256"
        },
        {
          "internalType": "uint256",
          "name": "time",
          "type": "uint256"
        },
        {
          "internalType": "uint256",
          "name": "amount",
          "type": "uint256"
        }
      ],
      "payable": false,
      "stateMutability": "view",
      "type": "function"
    },
    {
      "constant": false,
      "inputs": [
        {
          "internalType": "uint256",
          "name": "sealedEpoch",
          "type": "uint256"
        },
        {
          "internalType": "uint256",
          "name": "_totalSupply",
          "type": "uint256"
        },
        {
          "internalType": "address",
          "name": "nodeDriver",
          "type": "address"
        },
        {
          "internalType": "address",
          "name": "lib",
          "type": "address"
        },
        {
          "internalType": "address",
          "name": "_c",
          "type": "address"
        },
        {
          "internalType": "address",
          "name": "owner",
          "type": "address"
        }
      ],
      "name": "initialize",
      "outputs": [],
      "payable": false,
      "stateMutability": "nonpayable",
      "type": "function"
    },
    {
      "constant": true,
      "inputs": [
        {
          "internalType": "address",
          "name": "delegator",
          "type": "address"
        },
        {
          "internalType": "uint256",
          "name": "toValidatorID",
          "type": "uint256"
        }
      ],
      "name": "isLockedUp",
      "outputs": [
        {
          "internalType": "bool",
          "name": "",
          "type": "bool"
        }
      ],
      "payable": false,
      "stateMutability": "view",
      "type": "function"
    },
    {
      "constant": true,
      "inputs": [],
      "name": "isOwner",
      "outputs": [
        {
          "internalType": "bool",
          "name": "",
          "type": "bool"
        }
      ],
      "payable": false,
      "stateMutability": "view",
      "type": "function"
    },
    {
      "constant": true,
      "inputs": [],
      "name": "lastValidatorID",
      "outputs": [
        {
          "internalType": "uint256",
          "name": "",
          "type": "uint256"
        }
      ],
      "payable": false,
      "stateMutability": "view",
      "type": "function"
    },
    {
      "constant": true,
      "inputs": [],
      "name": "minGasPrice",
      "outputs": [
        {
          "internalType": "uint256",
          "name": "",
          "type": "uint256"
        }
      ],
      "payable": false,
      "stateMutability": "view",
      "type": "function"
    },
    {
      "constant": true,
      "inputs": [],
      "name": "owner",
      "outputs": [
        {
          "internalType": "address",
          "name": "",
          "type": "address"
        }
      ],
      "payable": false,
      "stateMutability": "view",
      "type": "function"
    },
    {
      "constant": false,
      "inputs": [],
      "name": "renounceOwnership",
      "outputs": [],
      "payable": false,
      "stateMutability": "nonpayable",
      "type": "function"
    },
    {
      "constant": false,
      "inputs": [
        {
          "internalType": "uint256[]",
          "name": "offlineTime",
          "type": "uint256[]"
        },
        {
          "internalType": "uint256[]",
          "name": "offlineBlocks",
          "type": "uint256[]"
        },
        {
          "internalType": "uint256[]",
          "name": "uptimes",
          "type": "uint256[]"
        },
        {
          "internalType": "uint256[]",
          "name": "originatedTxsFee",
          "type": "uint256[]"
        },
        {
          "internalType": "uint256",
          "name": "epochGas",
          "type": "uint256"
        }
      ],
      "name": "sealEpoch",
      "outputs": [],
      "payable": false,
      "stateMutability": "nonpayable",
      "type": "function"
    },
    {
      "constant": false,
      "inputs": [
        {
          "internalType": "uint256[]",
          "name": "nextValidatorIDs",
          "type": "uint256[]"
        }
      ],
      "name": "sealEpochValidators",
      "outputs": [],
      "payable": false,
      "stateMutability": "nonpayable",
      "type": "function"
    },
    {
      "constant": true,
      "inputs": [
        {
          "internalType": "uint256",
          "name": "",
          "type": "uint256"
        }
      ],
      "name": "slashingRefundRatio",
      "outputs": [
        {
          "internalType": "uint256",
          "name": "",
          "type": "uint256"
        }
      ],
      "payable": false,
      "stateMutability": "view",
      "type": "function"
    },
    {
      "constant": true,
      "inputs": [],
      "name": "stakeTokenizerAddress",
      "outputs": [
        {
          "internalType": "address",
          "name": "",
          "type": "address"
        }
      ],
      "payable": false,
      "stateMutability": "view",
      "type": "function"
    },
    {
      "constant": true,
      "inputs": [
        {
          "internalType": "address",
          "name": "",
          "type": "address"
        },
        {
          "internalType": "uint256",
          "name": "",
          "type": "uint256"
        }
      ],
      "name": "stashedRewardsUntilEpoch",
      "outputs": [
        {
          "internalType": "uint256",
          "name": "",
          "type": "uint256"
        }
      ],
      "payable": false,
      "stateMutability": "view",
      "type": "function"
    },
    {
      "constant": true,
      "inputs": [],
      "name": "totalActiveStake",
      "outputs": [
        {
          "internalType": "uint256",
          "name": "",
          "type": "uint256"
        }
      ],
      "payable": false,
      "stateMutability": "view",
      "type": "function"
    },
    {
      "constant": true,
      "inputs": [],
      "name": "totalSlashedStake",
      "outputs": [
        {
          "internalType": "uint256",
          "name": "",
          "type": "uint256"
        }
      ],
      "payable": false,
      "stateMutability": "view",
      "type": "function"
    },
    {
      "constant": true,
      "inputs": [],
      "name": "totalStake",
      "outputs": [
        {
          "internalType": "uint256",
          "name": "",
          "type": "uint256"
        }
      ],
      "payable": false,
      "stateMutability": "view",
      "type": "function"
    },
    {
      "constant": true,
      "inputs": [],
      "name": "totalSupply",
      "outputs": [
        {
          "internalType": "uint256",
          "name": "",
          "type": "uint256"
        }
      ],
      "payable": false,
      "stateMutability": "view",
      "type": "function"
    },
    {
      "constant": false,
      "inputs": [
        {
          "internalType": "address",
          "name": "newOwner",
          "type": "address"
        }
      ],
      "name": "transferOwnership",
      "outputs": [],
      "payable": false,
      "stateMutability": "nonpayable",
      "type": "function"
    },
    {
      "constant": true,
      "inputs": [],
      "name": "treasuryAddress",
      "outputs": [
        {
          "internalType": "address",
          "name": "",
          "type": "address"
        }
      ],
      "payable": false,
      "stateMutability": "view",
      "type": "function"
    },
    {
      "constant": false,
      "inputs": [
        {
          "internalType": "address",
          "name": "v",
          "type": "address"
        }
      ],
      "name": "updateConstsAddress",
      "outputs": [],
      "payable": false,
      "stateMutability": "nonpayable",
      "type": "function"
    },
    {
      "constant": false,
      "inputs": [
        {
          "internalType": "address",
          "name": "v",
          "type": "address"
        }
      ],
      "name": "updateLibAddress",
      "outputs": [],
      "payable": false,
      "stateMutability": "nonpayable",
      "type": "function"
    },
    {
      "constant": false,
      "inputs": [
        {
          "internalType": "address",
          "name": "addr",
          "type": "address"
        }
      ],
      "name": "updateStakeTokenizerAddress",
      "outputs": [],
      "payable": false,
      "stateMutability": "nonpayable",
      "type": "function"
    },
    {
      "constant": false,
      "inputs": [
        {
          "internalType": "address",
          "name": "v",
          "type": "address"
        }
      ],
      "name": "updateTreasuryAddress",
      "outputs": [],
      "payable": false,
      "stateMutability": "nonpayable",
      "type": "function"
    },
    {
      "constant": false,
      "inputs": [
        {
          "internalType": "address",
          "name": "v",
          "type": "address"
        }
      ],
      "name": "updateVoteBookAddress",
      "outputs": [],
      "payable": false,
      "stateMutability": "nonpayable",
      "type": "function"
    },
    {
      "constant": true,
      "inputs": [],
      "name": "version",
      "outputs": [
        {
          "internalType": "bytes3",
          "name": "",
          "type": "bytes3"
        }
      ],
      "payable": false,
      "stateMutability": "pure",
      "type": "function"
    },
    {
      "constant": true,
      "inputs": [],
      "name": "voteBookAddress",
      "outputs": [
        {
          "internalType": "address",
          "name": "",
          "type": "address"
        }
      ],
      "payable": false,
      "stateMutability": "view",
      "type": "function"
    }
  ],
  "bytecode": "608060405234801561001057600080fd5b50613015806100206000396000f3fe6080604052600436106102255760003560e01c80638b0e9f3f11610123578063c65ee0e1116100ab578063d46fa5181161006f578063d46fa51814610a6d578063d96ed50514610a82578063e08d7e6614610a97578063e6f45adf14610b12578063f2fde38b14610b4557610225565b8063c65ee0e11461098a578063c7be95de146109b4578063cc8343aa146109c9578063cfd47663146109fb578063cfdbb7cd14610a3457610225565b8063a2f6e6bc116100f2578063a2f6e6bc14610865578063a86a056f14610898578063b5d89627146108d1578063b810e4111461093c578063c5f956af1461097557610225565b80638b0e9f3f146107b35780638da5cb5b146107c85780638f32d59b146107dd57806396c7ee461461080657610225565b8063592fe0c0116101b15780637cacb1d6116101755780637cacb1d614610684578063841e456114610699578063854873e1146106cc578063860c27501461076b578063893675c61461079e57610225565b8063592fe0c0146104a15780635fab23a81461060c578063670322f814610621578063715018a61461065a578063766718081461066f57610225565b80631f270152116101f85780631f2701521461036857806328f73148146103c557806339b80c00146103da57806354fd4d501461043c578063550359a01461046e57610225565b80630135b1db146102865780630e559d82146102cb57806310e51e14146102fc57806318160ddd14610353575b3661026f576040805162461bcd60e51b81526020600482015260156024820152741d1c985b9cd9995c9cc81b9bdd08185b1b1bddd959605a1b604482015290519081900360640190fd5b608054610284906001600160a01b0316610b78565b005b34801561029257600080fd5b506102b9600480360360208110156102a957600080fd5b50356001600160a01b0316610ba1565b60408051918252519081900360200190f35b3480156102d757600080fd5b506102e0610bb3565b604080516001600160a01b039092168252519081900360200190f35b34801561030857600080fd5b50610284600480360360c081101561031f57600080fd5b508035906020810135906001600160a01b0360408201358116916060810135821691608082013581169160a0013516610bc2565b34801561035f57600080fd5b506102b9610cdf565b34801561037457600080fd5b506103a76004803603606081101561038b57600080fd5b506001600160a01b038135169060208101359060400135610ce5565b60408051938452602084019290925282820152519081900360600190f35b3480156103d157600080fd5b506102b9610d17565b3480156103e657600080fd5b50610404600480360360208110156103fd57600080fd5b5035610d1d565b604080519788526020880196909652868601949094526060860192909252608085015260a084015260c0830152519081900360e00190f35b34801561044857600080fd5b50610451610d5f565b604080516001600160e81b03199092168252519081900360200190f35b34801561047a57600080fd5b506102846004803603602081101561049157600080fd5b50356001600160a01b0316610d6a565b3480156104ad57600080fd5b50610284600480360360a08110156104c457600080fd5b810190602081018135600160201b8111156104de57600080fd5b8201836020820111156104f057600080fd5b803590602001918460208302840111600160201b8311171561051157600080fd5b919390929091602081019035600160201b81111561052e57600080fd5b82018360208201111561054057600080fd5b803590602001918460208302840111600160201b8311171561056157600080fd5b919390929091602081019035600160201b81111561057e57600080fd5b82018360208201111561059057600080fd5b803590602001918460208302840111600160201b831117156105b157600080fd5b919390929091602081019035600160201b8111156105ce57600080fd5b8201836020820111156105e057600080fd5b803590602001918460208302840111600160201b8311171561060157600080fd5b919350915035610dd3565b34801561061857600080fd5b506102b9611075565b34801561062d57600080fd5b506102b96004803603604081101561064457600080fd5b506001600160a01b03813516906020013561107b565b34801561066657600080fd5b506102846110bf565b34801561067b57600080fd5b506102b9611150565b34801561069057600080fd5b506102b9611159565b3480156106a557600080fd5b50610284600480360360208110156106bc57600080fd5b50356001600160a01b031661115f565b3480156106d857600080fd5b506106f6600480360360208110156106ef57600080fd5b50356111c8565b6040805160208082528351818301528351919283929083019185019080838360005b83811015610730578181015183820152602001610718565b50505050905090810190601f16801561075d5780820380516001836020036101000a031916815260200191505b509250505060405180910390f35b34801561077757600080fd5b506102846004803603602081101561078e57600080fd5b50356001600160a01b0316611263565b3480156107aa57600080fd5b506102e06112cc565b3480156107bf57600080fd5b506102b96112db565b3480156107d457600080fd5b506102e06112e1565b3480156107e957600080fd5b506107f26112f0565b604080519115158252519081900360200190f35b34801561081257600080fd5b5061083f6004803603604081101561082957600080fd5b506001600160a01b038135169060200135611301565b604080519485526020850193909352838301919091526060830152519081900360800190f35b34801561087157600080fd5b506102846004803603602081101561088857600080fd5b50356001600160a01b0316611333565b3480156108a457600080fd5b506102b9600480360360408110156108bb57600080fd5b506001600160a01b03813516906020013561139c565b3480156108dd57600080fd5b506108fb600480360360208110156108f457600080fd5b50356113b9565b604080519788526020880196909652868601949094526060860192909252608085015260a08401526001600160a01b031660c0830152519081900360e00190f35b34801561094857600080fd5b506103a76004803603604081101561095f57600080fd5b506001600160a01b0381351690602001356113ff565b34801561098157600080fd5b506102e061142b565b34801561099657600080fd5b506102b9600480360360208110156109ad57600080fd5b503561143a565b3480156109c057600080fd5b506102b961144c565b3480156109d557600080fd5b50610284600480360360408110156109ec57600080fd5b50803590602001351515611452565b348015610a0757600080fd5b506102b960048036036040811015610a1e57600080fd5b506001600160a01b038135169060200135611631565b348015610a4057600080fd5b506107f260048036036040811015610a5757600080fd5b506001600160a01b03813516906020013561164e565b348015610a7957600080fd5b506102e06116e5565b348015610a8e57600080fd5b506102b96116f4565b348015610aa357600080fd5b5061028460048036036020811015610aba57600080fd5b810190602081018135600160201b811115610ad457600080fd5b820183602082011115610ae657600080fd5b803590602001918460208302840111600160201b83111715610b0757600080fd5b5090925090506116fa565b348015610b1e57600080fd5b5061028460048036036020811015610b3557600080fd5b50356001600160a01b0316611825565b348015610b5157600080fd5b5061028460048036036020811015610b6857600080fd5b50356001600160a01b031661188e565b3660008037600080366000845af43d6000803e808015610b97573d6000f35b3d6000fd5b505050565b60696020526000908152604090205481565b607b546001600160a01b031681565b600054610100900460ff1680610bdb5750610bdb6118e1565b80610be9575060005460ff16155b610c245760405162461bcd60e51b815260040180806020018281038252602e815260200180612fb3602e913960400191505060405180910390fd5b600054610100900460ff16158015610c4f576000805460ff1961ff0019909116610100171660011790555b610c58826118e7565b6067879055606680546001600160a01b038088166001600160a01b0319928316179092556080805487841690831617905560818054928616929091169190911790556076869055610ca76119d9565b607e55610cb26119e2565b6000888152607760205260409020600701558015610cd6576000805461ff00191690555b50505050505050565b60765481565b607160209081526000938452604080852082529284528284209052825290208054600182015460029092015490919083565b606d5481565b607760205280600052604060002060009150905080600701549080600801549080600901549080600a01549080600b01549080600c01549080600d0154905087565b620ccc0d60ea1b5b90565b610d726112f0565b610db1576040805162461bcd60e51b81526020600482018190526024820152600080516020612f93833981519152604482015290519081900360640190fd5b608280546001600160a01b0319166001600160a01b0392909216919091179055565b610ddc336119e6565b610e175760405162461bcd60e51b8152600401808060200182810382526029815260200180612f496029913960400191505060405180910390fd5b600060776000610e25611150565b81526020019081526020016000209050606081600601805480602002602001604051908101604052809291908181526020018280548015610e8557602002820191906000526020600020905b815481526020019060010190808311610e71575b50505050509050610f0c82828d8d80806020026020016040519081016040528093929190818152602001838360200280828437600081840152601f19601f820116905080830192505050505050508c8c808060200260200160405190810160405280939291908181526020018383602002808284376000920191909152506119fd92505050565b60675460009081526077602052604090206007810154600190610f2d6119e2565b1115610f44578160070154610f406119e2565b0390505b610fc6818584868d8d80806020026020016040519081016040528093929190818152602001838360200280828437600081840152601f19601f820116905080830192505050505050508c8c80806020026020016040519081016040528093929190818152602001838360200280828437600092019190915250611c0492505050565b610fd081866123d5565b5050610fda611150565b606755610fe56119e2565b60078301556081546040805163d9a7c1f960e01b815290516001600160a01b039092169163d9a7c1f991600480820192602092909190829003018186803b15801561102f57600080fd5b505afa158015611043573d6000803e3d6000fd5b505050506040513d602081101561105957600080fd5b5051600b83015550607654600d90910155505050505050505050565b606e5481565b6000611087838361164e565b611093575060006110b9565b506001600160a01b03821660009081526073602090815260408083208484529091529020545b92915050565b6110c76112f0565b611106576040805162461bcd60e51b81526020600482018190526024820152600080516020612f93833981519152604482015290519081900360640190fd5b6033546040516000916001600160a01b0316907f8be0079c531659141344cd1fd0a4f28419497f9722a3daafe3b4186f6b6457e0908390a3603380546001600160a01b0319169055565b60675460010190565b60675481565b6111676112f0565b6111a6576040805162461bcd60e51b81526020600482018190526024820152600080516020612f93833981519152604482015290519081900360640190fd5b607f80546001600160a01b0319166001600160a01b0392909216919091179055565b606a6020908152600091825260409182902080548351601f60026000196101006001861615020190931692909204918201849004840281018401909452808452909183018282801561125b5780601f106112305761010080835404028352916020019161125b565b820191906000526020600020905b81548152906001019060200180831161123e57829003601f168201915b505050505081565b61126b6112f0565b6112aa576040805162461bcd60e51b81526020600482018190526024820152600080516020612f93833981519152604482015290519081900360640190fd5b608180546001600160a01b0319166001600160a01b0392909216919091179055565b6082546001600160a01b031681565b606c5481565b6033546001600160a01b031690565b6033546001600160a01b0316331490565b607360209081526000928352604080842090915290825290208054600182015460028301546003909301549192909184565b61133b6112f0565b61137a576040805162461bcd60e51b81526020600482018190526024820152600080516020612f93833981519152604482015290519081900360640190fd5b607b80546001600160a01b0319166001600160a01b0392909216919091179055565b607060209081526000928352604080842090915290825290205481565b606860205260009081526040902080546001820154600283015460038401546004850154600586015460069096015494959394929391929091906001600160a01b031687565b607460209081526000928352604080842090915290825290208054600182015460029092015490919083565b607f546001600160a01b031681565b607a6020526000908152604090205481565b606b5481565b61145b82612535565b6114ac576040805162461bcd60e51b815260206004820152601760248201527f76616c696461746f7220646f65736e2774206578697374000000000000000000604482015290519081900360640190fd5b600082815260686020526040902060038101549054156114ca575060005b6066546040805163520337df60e11b8152600481018690526024810184905290516001600160a01b039092169163a4066fbe9160448082019260009290919082900301818387803b15801561151e57600080fd5b505af1158015611532573d6000803e3d6000fd5b5050505081801561154257508015155b15610b9c576066546000848152606a602052604090819020815163242a6e3f60e01b81526004810187815260248201938452825460026000196001831615610100020190911604604483018190526001600160a01b039095169463242a6e3f948994939091606490910190849080156115fc5780601f106115d1576101008083540402835291602001916115fc565b820191906000526020600020905b8154815290600101906020018083116115df57829003601f168201915b50509350505050600060405180830381600087803b15801561161d57600080fd5b505af1158015610cd6573d6000803e3d6000fd5b607260209081526000928352604080842090915290825290205481565b6001600160a01b0382166000908152607360209081526040808320848452909152812060020154158015906116a557506001600160a01b038316600090815260736020908152604080832085845290915290205415155b80156116de57506001600160a01b03831660009081526073602090815260408083208584529091529020600201546116db6119e2565b11155b9392505050565b6081546001600160a01b031690565b607e5481565b611703336119e6565b61173e5760405162461bcd60e51b8152600401808060200182810382526029815260200180612f496029913960400191505060405180910390fd5b60006077600061174c611150565b8152602001908152602001600020905060008090505b828110156117c557600084848381811061177857fe5b60209081029290920135600081815260688452604080822060030154948890529020839055600c8601549093506117b691508263ffffffff61254c16565b600c8501555050600101611762565b506117d4600682018484612e71565b50606654607e54604080516301eabcd160e21b81526004810192909252516001600160a01b03909216916307aaf3449160248082019260009290919082900301818387803b15801561161d57600080fd5b61182d6112f0565b61186c576040805162461bcd60e51b81526020600482018190526024820152600080516020612f93833981519152604482015290519081900360640190fd5b608080546001600160a01b0319166001600160a01b0392909216919091179055565b6118966112f0565b6118d5576040805162461bcd60e51b81526020600482018190526024820152600080516020612f93833981519152604482015290519081900360640190fd5b6118de816125a6565b50565b303b1590565b600054610100900460ff168061190057506119006118e1565b8061190e575060005460ff16155b6119495760405162461bcd60e51b815260040180806020018281038252602e815260200180612fb3602e913960400191505060405180910390fd5b600054610100900460ff16158015611974576000805460ff1961ff0019909116610100171660011790555b603380546001600160a01b0319166001600160a01b0384811691909117918290556040519116906000907f8be0079c531659141344cd1fd0a4f28419497f9722a3daafe3b4186f6b6457e0908290a380156119d5576000805461ff00191690555b5050565b64174876e80090565b4290565b6066546001600160a01b038281169116145b919050565b60005b8351811015611bfd57608160009054906101000a90046001600160a01b03166001600160a01b0316635a68f01a6040518163ffffffff1660e01b815260040160206040518083038186803b158015611a5757600080fd5b505afa158015611a6b573d6000803e3d6000fd5b505050506040513d6020811015611a8157600080fd5b50518251839083908110611a9157fe5b6020026020010151118015611b335750608160009054906101000a90046001600160a01b03166001600160a01b031662cc7f836040518163ffffffff1660e01b815260040160206040518083038186803b158015611aee57600080fd5b505afa158015611b02573d6000803e3d6000fd5b505050506040513d6020811015611b1857600080fd5b50518351849083908110611b2857fe5b602002602001015110155b15611b7457611b56848281518110611b4757fe5b60200260200101516008612647565b611b74848281518110611b6557fe5b60200260200101516000611452565b828181518110611b8057fe5b6020026020010151856004016000868481518110611b9a57fe5b6020026020010151815260200190815260200160002081905550818181518110611bc057fe5b6020026020010151856005016000868481518110611bda57fe5b602090810291909101810151825281019190915260400160002055600101611a00565b5050505050565b611c0c612eb8565b6040518060a001604052808551604051908082528060200260200182016040528015611c42578160200160208202803883390190505b508152602001600081526020018551604051908082528060200260200182016040528015611c7a578160200160208202803883390190505b508152602001600081526020016000815250905060008090505b8451811015611d95576000866003016000878481518110611cb157fe5b60200260200101518152602001908152602001600020549050600080905081858481518110611cdc57fe5b60200260200101511115611d035781858481518110611cf757fe5b60200260200101510390505b89868481518110611d1057fe5b6020026020010151820281611d2157fe5b0484604001518481518110611d3257fe5b602002602001018181525050611d6c84604001518481518110611d5157fe5b6020026020010151856060015161254c90919063ffffffff16565b60608501526080840151611d86908263ffffffff61254c16565b60808501525050600101611c94565b5060005b8451811015611e5e5787848281518110611daf57fe5b602002602001015189868481518110611dc457fe5b60200260200101518a60000160008a8781518110611dde57fe5b60200260200101518152602001908152602001600020540281611dfd57fe5b040281611e0657fe5b0482600001518281518110611e1757fe5b602002602001018181525050611e5182600001518281518110611e3657fe5b6020026020010151836020015161254c90919063ffffffff16565b6020830152600101611d99565b5060005b8451811015612284576000611f0b89608160009054906101000a90046001600160a01b03166001600160a01b031663d9a7c1f96040518163ffffffff1660e01b815260040160206040518083038186803b158015611ebf57600080fd5b505afa158015611ed3573d6000803e3d6000fd5b505050506040513d6020811015611ee957600080fd5b50518551805186908110611ef957fe5b60200260200101518660200151612771565b9050611f47611f3a846080015185604001518581518110611f2857fe5b602002602001015186606001516127c0565b829063ffffffff61254c16565b90506000868381518110611f5757fe5b602090810291909101810151600081815260688352604080822060060154608154825163a778651560e01b815292519496506001600160a01b03918216959394611ff4948994929093169263a77865159260048082019391829003018186803b158015611fc357600080fd5b505afa158015611fd7573d6000803e3d6000fd5b505050506040513d6020811015611fed57600080fd5b50516128f7565b6001600160a01b0383166000908152607260209081526040808320878452909152902054909150801561219b5760008161202e858761107b565b84028161203757fe5b049050808303612045612ee7565b6001600160a01b03861660009081526073602090815260408083208a8452909152902060030154612077908490612914565b9050612081612ee7565b61208c836000612914565b6001600160a01b0388166000908152606f602090815260408083208c845282529182902082516060810184528154815260018201549281019290925260020154918101919091529091506120e1908383612ad6565b6001600160a01b0388166000818152606f602090815260408083208d84528252808320855181558583015160018083019190915595820151600291820155938352607482528083208d84528252918290208251606081018452815481529481015491850191909152909101549082015261215c908383612ad6565b6001600160a01b03881660009081526074602090815260408083208c845282529182902083518155908301516001820155910151600290910155505050505b6000848152606860205260408120600301548387039181156121cd57816121c0612af1565b8402816121c957fe5b0490505b808e600101600089815260200190815260200160002054018f6001016000898152602001908152602001600020819055508a898151811061220a57fe5b60200260200101518f6003016000898152602001908152602001600020819055508b898151811061223757fe5b60200260200101518e600201600089815260200190815260200160002054018f60020160008981526020019081526020016000208190555050505050505050508080600101915050611e62565b50608081015160088701819055602082015160098801556060820151600a88015560765411156122c2576008860154607680549190910390556122c8565b60006076555b607f546001600160a01b031615610cd65760006122e3612af1565b608160009054906101000a90046001600160a01b03166001600160a01b03166394c3e9146040518163ffffffff1660e01b815260040160206040518083038186803b15801561233157600080fd5b505afa158015612345573d6000803e3d6000fd5b505050506040513d602081101561235b57600080fd5b50516080840151028161236a57fe5b04905061237681612afd565b607f546040516001600160a01b03909116908290600081818185875af1925050503d80600081146123c3576040519150601f19603f3d011682016040523d82523d6000602084013e6123c8565b606091505b5050505050505050505050565b60815460408051630e8fbd9b60e21b815290516000926001600160a01b031691633a3ef66c916004808301926020929190829003018186803b15801561241a57600080fd5b505afa15801561242e573d6000803e3d6000fd5b505050506040513d602081101561244457600080fd5b505183026001019050600081612458612af1565b84028161246157fe5b0490506000608160009054906101000a90046001600160a01b03166001600160a01b0316632c8c36a56040518163ffffffff1660e01b815260040160206040518083038186803b1580156124b457600080fd5b505afa1580156124c8573d6000803e3d6000fd5b505050506040513d60208110156124de57600080fd5b505190508481016124ed612af1565b820283870201816124fa57fe5b04915061250682612b82565b91506000612512612af1565b83607e54028161251e57fe5b04905061252a81612bf0565b607e55505050505050565b600090815260686020526040902060050154151590565b6000828201838110156116de576040805162461bcd60e51b815260206004820152601b60248201527f536166654d6174683a206164646974696f6e206f766572666c6f770000000000604482015290519081900360640190fd5b6001600160a01b0381166125eb5760405162461bcd60e51b8152600401808060200182810382526026815260200180612f236026913960400191505060405180910390fd5b6033546040516001600160a01b038084169216907f8be0079c531659141344cd1fd0a4f28419497f9722a3daafe3b4186f6b6457e090600090a3603380546001600160a01b0319166001600160a01b0392909216919091179055565b60008281526068602052604090205415801561266257508015155b1561268f57600082815260686020526040902060030154606d5461268b9163ffffffff612c2616565b606d555b6000828152606860205260409020548111156119d557600082815260686020526040902081815560020154612737576126c6611150565b6000838152606860205260409020600201556126e06119e2565b6000838152606860209081526040918290206001810184905560020154825190815290810192909252805184927fac4801c32a6067ff757446524ee4e7a373797278ac3c883eac5c693b4ad72e4792908290030190a25b60408051828152905183917fcd35267e7654194727477d6c78b541a553483cff7f92a055d17868d3da6e953e919081900360200190a25050565b600082612780575060006127b8565b6000612792868663ffffffff612c6816565b90506127b4836127a8838763ffffffff612c6816565b9063ffffffff612cc116565b9150505b949350505050565b6000826127cf575060006116de565b60006127e5836127a8878763ffffffff612c6816565b90506128ee6127f2612af1565b60815460408051632530fa4560e21b815290516127a8926001600160a01b0316916394c3e914916004808301926020929190829003018186803b15801561283857600080fd5b505afa15801561284c573d6000803e3d6000fd5b505050506040513d602081101561286257600080fd5b50516081546040805163c74dd62160e01b815290516001600160a01b039092169163c74dd62191600480820192602092909190829003018186803b1580156128a957600080fd5b505afa1580156128bd573d6000803e3d6000fd5b505050506040513d60208110156128d357600080fd5b50516128dd612af1565b030384612c6890919063ffffffff16565b95945050505050565b60006116de612904612af1565b6127a8858563ffffffff612c6816565b61291c612ee7565b60405180606001604052806000815260200160008152602001600081525090506000608160009054906101000a90046001600160a01b03166001600160a01b0316635e2308d26040518163ffffffff1660e01b815260040160206040518083038186803b15801561298c57600080fd5b505afa1580156129a0573d6000803e3d6000fd5b505050506040513d60208110156129b657600080fd5b505190508215612aae576000816129cb612af1565b0390506000612a5d608160009054906101000a90046001600160a01b03166001600160a01b0316630d4955e36040518163ffffffff1660e01b815260040160206040518083038186803b158015612a2157600080fd5b505afa158015612a35573d6000803e3d6000fd5b505050506040513d6020811015612a4b57600080fd5b50516127a8848863ffffffff612c6816565b90506000612a7e612a6c612af1565b6127a88987860163ffffffff612c6816565b9050612a9b612a8b612af1565b6127a8898763ffffffff612c6816565b602086018190529003845250612acf9050565b612ac9612ab9612af1565b6127a8868463ffffffff612c6816565b60408301525b5092915050565b612ade612ee7565b6127b8612aeb8585612d03565b83612d03565b670de0b6b3a764000090565b606654604080516366e7ea0f60e01b81523060048201526024810184905290516001600160a01b03909216916366e7ea0f9160448082019260009290919082900301818387803b158015612b5057600080fd5b505af1158015612b64573d6000803e3d6000fd5b5050607654612b7c925090508263ffffffff61254c16565b60765550565b60006064612b8e612af1565b60690281612b9857fe5b04821115612bbc576064612baa612af1565b60690281612bb457fe5b0490506119f8565b6064612bc6612af1565b605f0281612bd057fe5b04821015612bec576064612be2612af1565b605f0281612bb457fe5b5090565b600066038d7ea4c68000821115612c0f575066038d7ea4c680006119f8565b633b9aca00821015612bec5750633b9aca006119f8565b60006116de83836040518060400160405280601e81526020017f536166654d6174683a207375627472616374696f6e206f766572666c6f770000815250612d75565b600082612c77575060006110b9565b82820282848281612c8457fe5b04146116de5760405162461bcd60e51b8152600401808060200182810382526021815260200180612f726021913960400191505060405180910390fd5b60006116de83836040518060400160405280601a81526020017f536166654d6174683a206469766973696f6e206279207a65726f000000000000815250612e0c565b612d0b612ee7565b6040805160608101909152825184518291612d2c919063ffffffff61254c16565b8152602001612d4c8460200151866020015161254c90919063ffffffff16565b8152602001612d6c8460400151866040015161254c90919063ffffffff16565b90529392505050565b60008184841115612e045760405162461bcd60e51b81526004018080602001828103825283818151815260200191508051906020019080838360005b83811015612dc9578181015183820152602001612db1565b50505050905090810190601f168015612df65780820380516001836020036101000a031916815260200191505b509250505060405180910390fd5b505050900390565b60008183612e5b5760405162461bcd60e51b8152602060048201818152835160248401528351909283926044909101919085019080838360008315612dc9578181015183820152602001612db1565b506000838581612e6757fe5b0495945050505050565b828054828255906000526020600020908101928215612eac579160200282015b82811115612eac578235825591602001919060010190612e91565b50612bec929150612f08565b6040518060a0016040528060608152602001600081526020016060815260200160008152602001600081525090565b60405180606001604052806000815260200160008152602001600081525090565b610d6791905b80821115612bec5760008155600101612f0e56fe4f776e61626c653a206e6577206f776e657220697320746865207a65726f206164647265737363616c6c6572206973206e6f7420746865204e6f64654472697665724175746820636f6e7472616374536166654d6174683a206d756c7469706c69636174696f6e206f766572666c6f774f776e61626c653a2063616c6c6572206973206e6f7420746865206f776e6572436f6e747261637420696e7374616e63652068617320616c7265616479206265656e20696e697469616c697a6564a265627a7a723158200fa979f9ecda1c08bc6a0240999a396a6f399a5a64038c456b2271f7c8e1ebbb64736f6c63430005110032",
  "bytecodeSha1": "7813c666cdeb916a0cf7660ab2131f2e00f532e9",
  "compiler": {
    "evm_version": "istanbul",
    "optimizer": {
      "enabled": true,
      "runs": 200
    },
    "version": "0.5.17+commit.d19bba13"
  },
  "contractName": "SFC",
  "language": "Solidity",
  "natspec": {
    "details": "Stakers contract defines data structure and methods for validators / validators.",
    "methods": {
      "isOwner()": {
        "details": "Returns true if the caller is the current owner."
      },
      "owner()": {
        "details": "Returns the address of the current owner."
      },
      "renounceOwnership()": {
        "details": "Leaves the contract without owner. It will not be possible to call `onlyOwner` functions anymore. Can only be called by the current owner.     * > Note: Renouncing ownership will leave the contract without an owner, thereby removing any functionality that is only available to the owner."
      },
      "transferOwnership(address)": {
        "details": "Transfers ownership of the contract to a new account (`newOwner`). Can only be called by the current owner."
      },
      "version()": {
        "details": "Returns the address of the current owner."
      }
    }
  },
  "opcodes": "PUSH1 0x80 PUSH1 0x40 MSTORE PUSH1 0x4 CALLDATASIZE LT PUSH2 0x225 JUMPI PUSH1 0x0 CALLDATALOAD PUSH1 0xE0 SHR DUP1 PUSH4 0x8B0E9F3F GT PUSH2 0x123 JUMPI DUP1 PUSH4 0xC65EE0E1 GT PUSH2 0xAB JUMPI DUP1 PUSH4 0xD46FA518 GT PUSH2 0x6F JUMPI DUP1 PUSH4 0xD46FA518 EQ PUSH2 0xA6D JUMPI DUP1 PUSH4 0xD96ED505 EQ PUSH2 0xA82 JUMPI DUP1 PUSH4 0xE08D7E66 EQ PUSH2 0xA97 JUMPI DUP1 PUSH4 0xE6F45ADF EQ PUSH2 0xB12 JUMPI DUP1 PUSH4 0xF2FDE38B EQ PUSH2 0xB45 JUMPI PUSH2 0x225 JUMP JUMPDEST DUP1 PUSH4 0xC65EE0E1 EQ PUSH2 0x98A JUMPI DUP1 PUSH4 0xC7BE95DE EQ PUSH2 0x9B4 JUMPI DUP1 PUSH4 0xCC8343AA EQ PUSH2 0x9C9 JUMPI DUP1 PUSH4 0xCFD47663 EQ PUSH2 0x9FB JUMPI DUP1 PUSH4 0xCFDBB7CD EQ PUSH2 0xA34 JUMPI PUSH2 0x225 JUMP JUMPDEST DUP1 PUSH4 0xA2F6E6BC GT PUSH2 0xF2 JUMPI DUP1 PUSH4 0xA2F6E6BC EQ PUSH2 0x865 JUMPI DUP1 PUSH4 0xA86A056F EQ PUSH2 0x898 JUMPI DUP1 PUSH4 0xB5D89627 EQ PUSH2 0x8D1 JUMPI DUP1 PUSH4 0xB810E411 EQ PUSH2 0x93C JUMPI DUP1 PUSH4 0xC5F956AF EQ PUSH2 0x975 JUMPI PUSH2 0x225 JUMP JUMPDEST DUP1 PUSH4 0x8B0E9F3F EQ PUSH2 0x7B3 JUMPI DUP1 PUSH4 0x8DA5CB5B EQ PUSH2 0x7C8 JUMPI DUP1 PUSH4 0x8F32D59B EQ PUSH2 0x7DD JUMPI DUP1 PUSH4 0x96C7EE46 EQ PUSH2 0x806 JUMPI PUSH2 0x225 JUMP JUMPDEST DUP1 PUSH4 0x592FE0C0 GT PUSH2 0x1B1 JUMPI DUP1 PUSH4 0x7CACB1D6 GT PUSH2 0x175 JUMPI DUP1 PUSH4 0x7CACB1D6 EQ PUSH2 0x684 JUMPI DUP1 PUSH4 0x841E4561 EQ PUSH2 0x699 JUMPI DUP1 PUSH4 0x854873E1 EQ PUSH2 0x6CC JUMPI DUP1 PUSH4 0x860C2750 EQ PUSH2 0x76B JUMPI DUP1 PUSH4 0x893675C6 EQ PUSH2 0x79E JUMPI PUSH2 0x225 JUMP JUMPDEST DUP1 PUSH4 0x592FE0C0 EQ PUSH2 0x4A1 JUMPI DUP1 PUSH4 0x5FAB23A8 EQ PUSH2 0x60C JUMPI DUP1 PUSH4 0x670322F8 EQ PUSH2 0x621 JUMPI DUP1 PUSH4 0x715018A6 EQ PUSH2 0x65A JUMPI DUP1 PUSH4 0x76671808 EQ PUSH2 0x66F JUMPI PUSH2 0x225 JUMP JUMPDEST DUP1 PUSH4 0x1F270152 GT PUSH2 0x1F8 JUMPI DUP1 PUSH4 0x1F270152 EQ PUSH2 0x368 JUMPI DUP1 PUSH4 0x28F73148 EQ PUSH2 0x3C5 JUMPI DUP1 PUSH4 0x39B80C00 EQ PUSH2 0x3DA JUMPI DUP1 PUSH4 0x54FD4D50 EQ PUSH2 0x43C JUMPI DUP1 PUSH4 0x550359A0 EQ PUSH2 0x46E JUMPI PUSH2 0x225 JUMP JUMPDEST DUP1 PUSH4 0x135B1DB EQ PUSH2 0x286 JUMPI DUP1 PUSH4 0xE559D82 EQ PUSH2 0x2CB JUMPI DUP1 PUSH4 0x10E51E14 EQ PUSH2 0x2FC JUMPI DUP1 PUSH4 0x18160DDD EQ PUSH2 0x353 JUMPI JUMPDEST CALLDATASIZE PUSH2 0x26F JUMPI PUSH1 0x40 DUP1 MLOAD PUSH3 0x461BCD PUSH1 0xE5 SHL DUP2 MSTORE PUSH1 0x20 PUSH1 0x4 DUP3 ADD MSTORE PUSH1 0x15 PUSH1 0x24 DUP3 ADD MSTORE PUSH21 0x1D1C985B9CD9995C9CC81B9BDD08185B1B1BDDD959 PUSH1 0x5A SHL PUSH1 0x44 DUP3 ADD MSTORE SWAP1 MLOAD SWAP1 DUP2 SWAP1 SUB PUSH1 0x64 ADD SWAP1 REVERT JUMPDEST PUSH1 0x80 SLOAD PUSH2 0x284 SWAP1 PUSH1 0x1 PUSH1 0x1 PUSH1 0xA0 SHL SUB AND PUSH2 0xB78 JUMP JUMPDEST STOP JUMPDEST CALLVALUE DUP1 ISZERO PUSH2 0x292 JUMPI PUSH1 0x0 DUP1 REVERT JUMPDEST POP PUSH2 0x2B9 PUSH1 0x4 DUP1 CALLDATASIZE SUB PUSH1 0x20 DUP2 LT ISZERO PUSH2 0x2A9 JUMPI PUSH1 0x0 DUP1 REVERT JUMPDEST POP CALLDATALOAD PUSH1 0x1 PUSH1 0x1 PUSH1 0xA0 SHL SUB AND PUSH2 0xBA1 JUMP JUMPDEST PUSH1 0x40 DUP1 MLOAD SWAP2 DUP3 MSTORE MLOAD SWAP1 DUP2 SWAP1 SUB PUSH1 0x20 ADD SWAP1 RETURN JUMPDEST CALLVALUE DUP1 ISZERO PUSH2 0x2D7 JUMPI PUSH1 0x0 DUP1 REVERT JUMPDEST POP PUSH2 0x2E0 PUSH2 0xBB3 JUMP JUMPDEST PUSH1 0x40 DUP1 MLOAD PUSH1 0x1 PUSH1 0x1 PUSH1 0xA0 SHL SUB SWAP1 SWAP3 AND DUP3 MSTORE MLOAD SWAP1 DUP2 SWAP1 SUB PUSH1 0x20 ADD SWAP1 RETURN JUMPDEST CALLVALUE DUP1 ISZERO PUSH2 0x308 JUMPI PUSH1 0x0 DUP1 REVERT JUMPDEST POP PUSH2 0x284 PUSH1 0x4 DUP1 CALLDATASIZE SUB PUSH1 0xC0 DUP2 LT ISZERO PUSH2 0x31F JUMPI PUSH1 0x0 DUP1 REVERT JUMPDEST POP DUP1 CALLDATALOAD SWAP1 PUSH1 0x20 DUP2 ADD CALLDATALOAD SWAP1 PUSH1 0x1 PUSH1 0x1 PUSH1 0xA0 SHL SUB PUSH1 0x40 DUP3 ADD CALLDATALOAD DUP2 AND SWAP2 PUSH1 0x60 DUP2 ADD CALLDATALOAD DUP3 AND SWAP2 PUSH1 0x80 DUP3 ADD CALLDATALOAD DUP2 AND SWAP2 PUSH1 0xA0 ADD CALLDATALOAD AND PUSH2 0xBC2 JUMP JUMPDEST CALLVALUE DUP1 ISZERO PUSH2 0x35F JUMPI PUSH1 0x0 DUP1 REVERT JUMPDEST POP PUSH2 0x2B9 PUSH2 0xCDF JUMP JUMPDEST CALLVALUE DUP1 ISZERO PUSH2 0x374 JUMPI PUSH1 0x0 DUP1 REVERT JUMPDEST POP PUSH2 0x3A7 PUSH1 0x4 DUP1 CALLDATASIZE SUB PUSH1 0x60 DUP2 LT ISZERO PUSH2 0x38B JUMPI PUSH1 0x0 DUP1 REVERT JUMPDEST POP PUSH1 0x1 PUSH1 0x1 PUSH1 0xA0 SHL SUB DUP2 CALLDATALOAD AND SWAP1 PUSH1 0x20 DUP2 ADD CALLDATALOAD SWAP1 PUSH1 0x40 ADD CALLDATALOAD PUSH2 0xCE5 JUMP JUMPDEST PUSH1 0x40 DUP1 MLOAD SWAP4 DUP5 MSTORE PUSH1 0x20 DUP5 ADD SWAP3 SWAP1 SWAP3 MSTORE DUP3 DUP3 ADD MSTORE MLOAD SWAP1 DUP2 SWAP1 SUB PUSH1 0x60 ADD SWAP1 RETURN JUMPDEST CALLVALUE DUP1 ISZERO PUSH2 0x3D1 JUMPI PUSH1 0x0 DUP1 REVERT JUMPDEST POP PUSH2 0x2B9 PUSH2 0xD17 JUMP JUMPDEST CALLVALUE DUP1 ISZERO PUSH2 0x3E6 JUMPI PUSH1 0x0 DUP1 REVERT JUMPDEST POP PUSH2 0x404 PUSH1 0x4 DUP1 CALLDATASIZE SUB PUSH1 0x20 DUP2 LT ISZERO PUSH2 0x3FD JUMPI PUSH1 0x0 DUP1 REVERT JUMPDEST POP CALLDATALOAD PUSH2 0xD1D JUMP JUMPDEST PUSH1 0x40 DUP1 MLOAD SWAP8 DUP9 MSTORE PUSH1 0x20 DUP9 ADD SWAP7 SWAP1 SWAP7 MSTORE DUP7 DUP7 ADD SWAP5 SWAP1 SWAP5 MSTORE PUSH1 0x60 DUP7 ADD SWAP3 SWAP1 SWAP3 MSTORE PUSH1 0x80 DUP6 ADD MSTORE PUSH1 0xA0 DUP5 ADD MSTORE PUSH1 0xC0 DUP4 ADD MSTORE MLOAD SWAP1 DUP2 SWAP1 SUB PUSH1 0xE0 ADD SWAP1 RETURN JUMPDEST CALLVALUE DUP1 ISZERO PUSH2 0x448 JUMPI PUSH1 0x0 DUP1 REVERT JUMPDEST POP PUSH2 0x451 PUSH2 0xD5F JUMP JUMPDEST PUSH1 0x40 DUP1 MLOAD PUSH1 0x1 PUSH1 0x1 PUSH1 0xE8 SHL SUB NOT SWAP1 SWAP3 AND DUP3 MSTORE MLOAD SWAP1 DUP2 SWAP1 SUB PUSH1 0x20 ADD SWAP1 RETURN JUMPDEST CALLVALUE DUP1 ISZERO PUSH2 0x47A JUMPI PUSH1 0x0 DUP1 REVERT JUMPDEST POP PUSH2 0x284 PUSH1 0x4 DUP1 CALLDATASIZE SUB PUSH1 0x20 DUP2 LT ISZERO PUSH2 0x491 JUMPI PUSH1 0x0 DUP1 REVERT JUMPDEST POP CALLDATALOAD PUSH1 0x1 PUSH1 0x1 PUSH1 0xA0 SHL SUB AND PUSH2 0xD6A JUMP JUMPDEST CALLVALUE DUP1 ISZERO PUSH2 0x4AD JUMPI PUSH1 0x0 DUP1 REVERT JUMPDEST POP PUSH2 0x284 PUSH1 0x4 DUP1 CALLDATASIZE SUB PUSH1 0xA0 DUP2 LT ISZERO PUSH2 0x4C4 JUMPI PUSH1 0x0 DUP1 REVERT JUMPDEST DUP2 ADD SWAP1 PUSH1 0x20 DUP2 ADD DUP2 CALLDATALOAD PUSH1 0x1 PUSH1 0x20 SHL DUP2 GT ISZERO PUSH2 0x4DE JUMPI PUSH1 0x0 DUP1 REVERT JUMPDEST DUP3 ADD DUP4 PUSH1 0x20 DUP3 ADD GT ISZERO PUSH2 0x4F0 JUMPI PUSH1 0x0 DUP1 REVERT JUMPDEST DUP1 CALLDATALOAD SWAP1 PUSH1 0x20 ADD SWAP2 DUP5 PUSH1 0x20 DUP4 MUL DUP5 ADD GT PUSH1 0x1 PUSH1 0x20 SHL DUP4 GT OR ISZERO PUSH2 0x511 JUMPI PUSH1 0x0 DUP1 REVERT JUMPDEST SWAP2 SWAP4 SWAP1 SWAP3 SWAP1 SWAP2 PUSH1 0x20 DUP2 ADD SWAP1 CALLDATALOAD PUSH1 0x1 PUSH1 0x20 SHL DUP2 GT ISZERO PUSH2 0x52E JUMPI PUSH1 0x0 DUP1 REVERT JUMPDEST DUP3 ADD DUP4 PUSH1 0x20 DUP3 ADD GT ISZERO PUSH2 0x540 JUMPI PUSH1 0x0 DUP1 REVERT JUMPDEST DUP1 CALLDATALOAD SWAP1 PUSH1 0x20 ADD SWAP2 DUP5 PUSH1 0x20 DUP4 MUL DUP5 ADD GT PUSH1 0x1 PUSH1 0x20 SHL DUP4 GT OR ISZERO PUSH2 0x561 JUMPI PUSH1 0x0 DUP1 REVERT JUMPDEST SWAP2 SWAP4 SWAP1 SWAP3 SWAP1 SWAP2 PUSH1 0x20 DUP2 ADD SWAP1 CALLDATALOAD PUSH1 0x1 PUSH1 0x20 SHL DUP2 GT ISZERO PUSH2 0x57E JUMPI PUSH1 0x0 DUP1 REVERT JUMPDEST DUP3 ADD DUP4 PUSH1 0x20 DUP3 ADD GT ISZERO PUSH2 0x590 JUMPI PUSH1 0x0 DUP1 REVERT JUMPDEST DUP1 CALLDATALOAD SWAP1 PUSH1 0x20 ADD SWAP2 DUP5 PUSH1 0x20 DUP4 MUL DUP5 ADD GT PUSH1 0x1 PUSH1 0x20 SHL DUP4 GT OR ISZERO PUSH2 0x5B1 JUMPI PUSH1 0x0 DUP1 REVERT JUMPDEST SWAP2 SWAP4 SWAP1 SWAP3 SWAP1 SWAP2 PUSH1 0x20 DUP2 ADD SWAP1 CALLDATALOAD PUSH1 0x1 PUSH1 0x20 SHL DUP2 GT ISZERO PUSH2 0x5CE JUMPI PUSH1 0x0 DUP1 REVERT JUMPDEST DUP3 ADD DUP4 PUSH1 0x20 DUP3 ADD GT ISZERO PUSH2 0x5E0 JUMPI PUSH1 0x0 DUP1 REVERT JUMPDEST DUP1 CALLDATALOAD SWAP1 PUSH1 0x20 ADD SWAP2 DUP5 PUSH1 0x20 DUP4 MUL DUP5 ADD GT PUSH1 0x1 PUSH1 0x20 SHL DUP4 GT OR ISZERO PUSH2 0x601 JUMPI PUSH1 0x0 DUP1 REVERT JUMPDEST SWAP2 SWAP4 POP SWAP2 POP CALLDATALOAD PUSH2 0xDD3 JUMP JUMPDEST CALLVALUE DUP1 ISZERO PUSH2 0x618 JUMPI PUSH1 0x0 DUP1 REVERT JUMPDEST POP PUSH2 0x2B9 PUSH2 0x1075 JUMP JUMPDEST CALLVALUE DUP1 ISZERO PUSH2 0x62D JUMPI PUSH1 0x0 DUP1 REVERT JUMPDEST POP PUSH2 0x2B9 PUSH1 0x4 DUP1 CALLDATASIZE SUB PUSH1 0x40 DUP2 LT ISZERO PUSH2 0x644 JUMPI PUSH1 0x0 DUP1 REVERT JUMPDEST POP PUSH1 0x1 PUSH1 0x1 PUSH1 0xA0 SHL SUB DUP2 CALLDATALOAD AND SWAP1 PUSH1 0x20 ADD CALLDATALOAD PUSH2 0x107B JUMP JUMPDEST CALLVALUE DUP1 ISZERO PUSH2 0x666 JUMPI PUSH1 0x0 DUP1 REVERT JUMPDEST POP PUSH2 0x284 PUSH2 0x10BF JUMP JUMPDEST CALLVALUE DUP1 ISZERO PUSH2 0x67B JUMPI PUSH1 0x0 DUP1 REVERT JUMPDEST POP PUSH2 0x2B9 PUSH2 0x1150 JUMP JUMPDEST CALLVALUE DUP1 ISZERO PUSH2 0x690 JUMPI PUSH1 0x0 DUP1 REVERT JUMPDEST POP PUSH2 0x2B9 PUSH2 0x1159 JUMP JUMPDEST CALLVALUE DUP1 ISZERO PUSH2 0x6A5 JUMPI PUSH1 0x0 DUP1 REVERT JUMPDEST POP PUSH2 0x284 PUSH1 0x4 DUP1 CALLDATASIZE SUB PUSH1 0x20 DUP2 LT ISZERO PUSH2 0x6BC JUMPI PUSH1 0x0 DUP1 REVERT JUMPDEST POP CALLDATALOAD PUSH1 0x1 PUSH1 0x1 PUSH1 0xA0 SHL SUB AND PUSH2 0x115F JUMP JUMPDEST CALLVALUE DUP1 ISZERO PUSH2 0x6D8 JUMPI PUSH1 0x0 DUP1 REVERT JUMPDEST POP PUSH2 0x6F6 PUSH1 0x4 DUP1 CALLDATASIZE SUB PUSH1 0x20 DUP2 LT ISZERO PUSH2 0x6EF JUMPI PUSH1 0x0 DUP1 REVERT JUMPDEST POP CALLDATALOAD PUSH2 0x11C8 JUMP JUMPDEST PUSH1 0x40 DUP1 MLOAD PUSH1 0x20 DUP1 DUP3 MSTORE DUP4 MLOAD DUP2 DUP4 ADD MSTORE DUP4 MLOAD SWAP2 SWAP3 DUP4 SWAP3 SWAP1 DUP4 ADD SWAP2 DUP6 ADD SWAP1 DUP1 DUP4 DUP4 PUSH1 0x0 JUMPDEST DUP4 DUP2 LT ISZERO PUSH2 0x730 JUMPI DUP2 DUP2 ADD MLOAD DUP4 DUP3 ADD MSTORE PUSH1 0x20 ADD PUSH2 0x718 JUMP JUMPDEST POP POP POP POP SWAP1 POP SWAP1 DUP2 ADD SWAP1 PUSH1 0x1F AND DUP1 ISZERO PUSH2 0x75D JUMPI DUP1 DUP3 SUB DUP1 MLOAD PUSH1 0x1 DUP4 PUSH1 0x20 SUB PUSH2 0x100 EXP SUB NOT AND DUP2 MSTORE PUSH1 0x20 ADD SWAP2 POP JUMPDEST POP SWAP3 POP POP POP PUSH1 0x40 MLOAD DUP1 SWAP2 SUB SWAP1 RETURN JUMPDEST CALLVALUE DUP1 ISZERO PUSH2 0x777 JUMPI PUSH1 0x0 DUP1 REVERT JUMPDEST POP PUSH2 0x284 PUSH1 0x4 DUP1 CALLDATASIZE SUB PUSH1 0x20 DUP2 LT ISZERO PUSH2 0x78E JUMPI PUSH1 0x0 DUP1 REVERT JUMPDEST POP CALLDATALOAD PUSH1 0x1 PUSH1 0x1 PUSH1 0xA0 SHL SUB AND PUSH2 0x1263 JUMP JUMPDEST CALLVALUE DUP1 ISZERO PUSH2 0x7AA JUMPI PUSH1 0x0 DUP1 REVERT JUMPDEST POP PUSH2 0x2E0 PUSH2 0x12CC JUMP JUMPDEST CALLVALUE DUP1 ISZERO PUSH2 0x7BF JUMPI PUSH1 0x0 DUP1 REVERT JUMPDEST POP PUSH2 0x2B9 PUSH2 0x12DB JUMP JUMPDEST CALLVALUE DUP1 ISZERO PUSH2 0x7D4 JUMPI PUSH1 0x0 DUP1 REVERT JUMPDEST POP PUSH2 0x2E0 PUSH2 0x12E1 JUMP JUMPDEST CALLVALUE DUP1 ISZERO PUSH2 0x7E9 JUMPI PUSH1 0x0 DUP1 REVERT JUMPDEST POP PUSH2 0x7F2 PUSH2 0x12F0 JUMP JUMPDEST PUSH1 0x40 DUP1 MLOAD SWAP2 ISZERO ISZERO DUP3 MSTORE MLOAD SWAP1 DUP2 SWAP1 SUB PUSH1 0x20 ADD SWAP1 RETURN JUMPDEST CALLVALUE DUP1 ISZERO PUSH2 0x812 JUMPI PUSH1 0x0 DUP1 REVERT JUMPDEST POP PUSH2 0x83F PUSH1 0x4 DUP1 CALLDATASIZE SUB PUSH1 0x40 DUP2 LT ISZERO PUSH2 0x829 JUMPI PUSH1 0x0 DUP1 REVERT JUMPDEST POP PUSH1 0x1 PUSH1 0x1 PUSH1 0xA0 SHL SUB DUP2 CALLDATALOAD AND SWAP1 PUSH1 0x20 ADD CALLDATALOAD PUSH2 0x1301 JUMP JUMPDEST PUSH1 0x40 DUP1 MLOAD SWAP5 DUP6 MSTORE PUSH1 0x20 DUP6 ADD SWAP4 SWAP1 SWAP4 MSTORE DUP4 DUP4 ADD SWAP2 SWAP1 SWAP2 MSTORE PUSH1 0x60 DUP4 ADD MSTORE MLOAD SWAP1 DUP2 SWAP1 SUB PUSH1 0x80 ADD SWAP1 RETURN JUMPDEST CALLVALUE DUP1 ISZERO PUSH2 0x871 JUMPI PUSH1 0x0 DUP1 REVERT JUMPDEST POP PUSH2 0x284 PUSH1 0x4 DUP1 CALLDATASIZE SUB PUSH1 0x20 DUP2 LT ISZERO PUSH2 0x888 JUMPI PUSH1 0x0 DUP1 REVERT JUMPDEST POP CALLDATALOAD PUSH1 0x1 PUSH1 0x1 PUSH1 0xA0 SHL SUB AND PUSH2 0x1333 JUMP JUMPDEST CALLVALUE DUP1 ISZERO PUSH2 0x8A4 JUMPI PUSH1 0x0 DUP1 REVERT JUMPDEST POP PUSH2 0x2B9 PUSH1 0x4 DUP1 CALLDATASIZE SUB PUSH1 0x40 DUP2 LT ISZERO PUSH2 0x8BB JUMPI PUSH1 0x0 DUP1 REVERT JUMPDEST POP PUSH1 0x1 PUSH1 0x1 PUSH1 0xA0 SHL SUB DUP2 CALLDATALOAD AND SWAP1 PUSH1 0x20 ADD CALLDATALOAD PUSH2 0x139C JUMP JUMPDEST CALLVALUE DUP1 ISZERO PUSH2 0x8DD JUMPI PUSH1 0x0 DUP1 REVERT JUMPDEST POP PUSH2 0x8FB PUSH1 0x4 DUP1 CALLDATASIZE SUB PUSH1 0x20 DUP2 LT ISZERO PUSH2 0x8F4 JUMPI PUSH1 0x0 DUP1 REVERT JUMPDEST POP CALLDATALOAD PUSH2 0x13B9 JUMP JUMPDEST PUSH1 0x40 DUP1 MLOAD SWAP8 DUP9 MSTORE PUSH1 0x20 DUP9 ADD SWAP7 SWAP1 SWAP7 MSTORE DUP7 DUP7 ADD SWAP5 SWAP1 SWAP5 MSTORE PUSH1 0x60 DUP7 ADD SWAP3 SWAP1 SWAP3 MSTORE PUSH1 0x80 DUP6 ADD MSTORE PUSH1 0xA0 DUP5 ADD MSTORE PUSH1 0x1 PUSH1 0x1 PUSH1 0xA0 SHL SUB AND PUSH1 0xC0 DUP4 ADD MSTORE MLOAD SWAP1 DUP2 SWAP1 SUB PUSH1 0xE0 ADD SWAP1 RETURN JUMPDEST CALLVALUE DUP1 ISZERO PUSH2 0x948 JUMPI PUSH1 0x0 DUP1 REVERT JUMPDEST POP PUSH2 0x3A7 PUSH1 0x4 DUP1 CALLDATASIZE SUB PUSH1 0x40 DUP2 LT ISZERO PUSH2 0x95F JUMPI PUSH1 0x0 DUP1 REVERT JUMPDEST POP PUSH1 0x1 PUSH1 0x1 PUSH1 0xA0 SHL SUB DUP2 CALLDATALOAD AND SWAP1 PUSH1 0x20 ADD CALLDATALOAD PUSH2 0x13FF JUMP JUMPDEST CALLVALUE DUP1 ISZERO PUSH2 0x981 JUMPI PUSH1 0x0 DUP1 REVERT JUMPDEST POP PUSH2 0x2E0 PUSH2 0x142B JUMP JUMPDEST CALLVALUE DUP1 ISZERO PUSH2 0x996 JUMPI PUSH1 0x0 DUP1 REVERT JUMPDEST POP PUSH2 0x2B9 PUSH1 0x4 DUP1 CALLDATASIZE SUB PUSH1 0x20 DUP2 LT ISZERO PUSH2 0x9AD JUMPI PUSH1 0x0 DUP1 REVERT JUMPDEST POP CALLDATALOAD PUSH2 0x143A JUMP JUMPDEST CALLVALUE DUP1 ISZERO PUSH2 0x9C0 JUMPI PUSH1 0x0 DUP1 REVERT JUMPDEST POP PUSH2 0x2B9 PUSH2 0x144C JUMP JUMPDEST CALLVALUE DUP1 ISZERO PUSH2 0x9D5 JUMPI PUSH1 0x0 DUP1 REVERT JUMPDEST POP PUSH2 0x284 PUSH1 0x4 DUP1 CALLDATASIZE SUB PUSH1 0x40 DUP2 LT ISZERO PUSH2 0x9EC JUMPI PUSH1 0x0 DUP1 REVERT JUMPDEST POP DUP1 CALLDATALOAD SWAP1 PUSH1 0x20 ADD CALLDATALOAD ISZERO ISZERO PUSH2 0x1452 JUMP JUMPDEST CALLVALUE DUP1 ISZERO PUSH2 0xA07 JUMPI PUSH1 0x0 DUP1 REVERT JUMPDEST POP PUSH2 0x2B9 PUSH1 0x4 DUP1 CALLDATASIZE SUB PUSH1 0x40 DUP2 LT ISZERO PUSH2 0xA1E JUMPI PUSH1 0x0 DUP1 REVERT JUMPDEST POP PUSH1 0x1 PUSH1 0x1 PUSH1 0xA0 SHL SUB DUP2 CALLDATALOAD AND SWAP1 PUSH1 0x20 ADD CALLDATALOAD PUSH2 0x1631 JUMP JUMPDEST CALLVALUE DUP1 ISZERO PUSH2 0xA40 JUMPI PUSH1 0x0 DUP1 REVERT JUMPDEST POP PUSH2 0x7F2 PUSH1 0x4 DUP1 CALLDATASIZE SUB PUSH1 0x40 DUP2 LT ISZERO PUSH2 0xA57 JUMPI PUSH1 0x0 DUP1 REVERT JUMPDEST POP PUSH1 0x1 PUSH1 0x1 PUSH1 0xA0 SHL SUB DUP2 CALLDATALOAD AND SWAP1 PUSH1 0x20 ADD CALLDATALOAD PUSH2 0x164E JUMP JUMPDEST CALLVALUE DUP1 ISZERO PUSH2 0xA79 JUMPI PUSH1 0x0 DUP1 REVERT JUMPDEST POP PUSH2 0x2E0 PUSH2 0x16E5 JUMP JUMPDEST CALLVALUE DUP1 ISZERO PUSH2 0xA8E JUMPI PUSH1 0x0 DUP1 REVERT JUMPDEST POP PUSH2 0x2B9 PUSH2 0x16F4 JUMP JUMPDEST CALLVALUE DUP1 ISZERO PUSH2 0xAA3 JUMPI PUSH1 0x0 DUP1 REVERT JUMPDEST POP PUSH2 0x284 PUSH1 0x4 DUP1 CALLDATASIZE SUB PUSH1 0x20 DUP2 LT ISZERO PUSH2 0xABA JUMPI PUSH1 0x0 DUP1 REVERT JUMPDEST DUP2 ADD SWAP1 PUSH1 0x20 DUP2 ADD DUP2 CALLDATALOAD PUSH1 0x1 PUSH1 0x20 SHL DUP2 GT ISZERO PUSH2 0xAD4 JUMPI PUSH1 0x0 DUP1 REVERT JUMPDEST DUP3 ADD DUP4 PUSH1 0x20 DUP3 ADD GT ISZERO PUSH2 0xAE6 JUMPI PUSH1 0x0 DUP1 REVERT JUMPDEST DUP1 CALLDATALOAD SWAP1 PUSH1 0x20 ADD SWAP2 DUP5 PUSH1 0x20 DUP4 MUL DUP5 ADD GT PUSH1 0x1 PUSH1 0x20 SHL DUP4 GT OR ISZERO PUSH2 0xB07 JUMPI PUSH1 0x0 DUP1 REVERT JUMPDEST POP SWAP1 SWAP3 POP SWAP1 POP PUSH2 0x16FA JUMP JUMPDEST CALLVALUE DUP1 ISZERO PUSH2 0xB1E JUMPI PUSH1 0x0 DUP1 REVERT JUMPDEST POP PUSH2 0x284 PUSH1 0x4 DUP1 CALLDATASIZE SUB PUSH1 0x20 DUP2 LT ISZERO PUSH2 0xB35 JUMPI PUSH1 0x0 DUP1 REVERT JUMPDEST POP CALLDATALOAD PUSH1 0x1 PUSH1 0x1 PUSH1 0xA0 SHL SUB AND PUSH2 0x1825 JUMP JUMPDEST CALLVALUE DUP1 ISZERO PUSH2 0xB51 JUMPI PUSH1 0x0 DUP1 REVERT JUMPDEST POP PUSH2 0x284 PUSH1 0x4 DUP1 CALLDATASIZE SUB PUSH1 0x20 DUP2 LT ISZERO PUSH2 0xB68 JUMPI PUSH1 0x0 DUP1 REVERT JUMPDEST POP CALLDATALOAD PUSH1 0x1 PUSH1 0x1 PUSH1 0xA0 SHL SUB AND PUSH2 0x188E JUMP JUMPDEST CALLDATASIZE PUSH1 0x0 DUP1 CALLDATACOPY PUSH1 0x0 DUP1 CALLDATASIZE PUSH1 0x0 DUP5 GAS DELEGATECALL RETURNDATASIZE PUSH1 0x0 DUP1 RETURNDATACOPY DUP1 DUP1 ISZERO PUSH2 0xB97 JUMPI RETURNDATASIZE PUSH1 0x0 RETURN JUMPDEST RETURNDATASIZE PUSH1 0x0 REVERT JUMPDEST POP POP POP JUMP JUMPDEST PUSH1 0x69 PUSH1 0x20 MSTORE PUSH1 0x0 SWAP1 DUP2 MSTORE PUSH1 0x40 SWAP1 KECCAK256 SLOAD DUP2 JUMP JUMPDEST PUSH1 0x7B SLOAD PUSH1 0x1 PUSH1 0x1 PUSH1 0xA0 SHL SUB AND DUP2 JUMP JUMPDEST PUSH1 0x0 SLOAD PUSH2 0x100 SWAP1 DIV PUSH1 0xFF AND DUP1 PUSH2 0xBDB JUMPI POP PUSH2 0xBDB PUSH2 0x18E1 JUMP JUMPDEST DUP1 PUSH2 0xBE9 JUMPI POP PUSH1 0x0 SLOAD PUSH1 0xFF AND ISZERO JUMPDEST PUSH2 0xC24 JUMPI PUSH1 0x40 MLOAD PUSH3 0x461BCD PUSH1 0xE5 SHL DUP2 MSTORE PUSH1 0x4 ADD DUP1 DUP1 PUSH1 0x20 ADD DUP3 DUP2 SUB DUP3 MSTORE PUSH1 0x2E DUP2 MSTORE PUSH1 0x20 ADD DUP1 PUSH2 0x2FB3 PUSH1 0x2E SWAP2 CODECOPY PUSH1 0x40 ADD SWAP2 POP POP PUSH1 0x40 MLOAD DUP1 SWAP2 SUB SWAP1 REVERT JUMPDEST PUSH1 0x0 SLOAD PUSH2 0x100 SWAP1 DIV PUSH1 0xFF AND ISZERO DUP1 ISZERO PUSH2 0xC4F JUMPI PUSH1 0x0 DUP1 SLOAD PUSH1 0xFF NOT PUSH2 0xFF00 NOT SWAP1 SWAP2 AND PUSH2 0x100 OR AND PUSH1 0x1 OR SWAP1 SSTORE JUMPDEST PUSH2 0xC58 DUP3 PUSH2 0x18E7 JUMP JUMPDEST PUSH1 0x67 DUP8 SWAP1 SSTORE PUSH1 0x66 DUP1 SLOAD PUSH1 0x1 PUSH1 0x1 PUSH1 0xA0 SHL SUB DUP1 DUP9 AND PUSH1 0x1 PUSH1 0x1 PUSH1 0xA0 SHL SUB NOT SWAP3 DUP4 AND OR SWAP1 SWAP3 SSTORE PUSH1 0x80 DUP1 SLOAD DUP8 DUP5 AND SWAP1 DUP4 AND OR SWAP1 SSTORE PUSH1 0x81 DUP1 SLOAD SWAP3 DUP7 AND SWAP3 SWAP1 SWAP2 AND SWAP2 SWAP1 SWAP2 OR SWAP1 SSTORE PUSH1 0x76 DUP7 SWAP1 SSTORE PUSH2 0xCA7 PUSH2 0x19D9 JUMP JUMPDEST PUSH1 0x7E SSTORE PUSH2 0xCB2 PUSH2 0x19E2 JUMP JUMPDEST PUSH1 0x0 DUP9 DUP2 MSTORE PUSH1 0x77 PUSH1 0x20 MSTORE PUSH1 0x40 SWAP1 KECCAK256 PUSH1 0x7 ADD SSTORE DUP1 ISZERO PUSH2 0xCD6 JUMPI PUSH1 0x0 DUP1 SLOAD PUSH2 0xFF00 NOT AND SWAP1 SSTORE JUMPDEST POP POP POP POP POP POP POP JUMP JUMPDEST PUSH1 0x76 SLOAD DUP2 JUMP JUMPDEST PUSH1 0x71 PUSH1 0x20 SWAP1 DUP2 MSTORE PUSH1 0x0 SWAP4 DUP5 MSTORE PUSH1 0x40 DUP1 DUP6 KECCAK256 DUP3 MSTORE SWAP3 DUP5 MSTORE DUP3 DUP5 KECCAK256 SWAP1 MSTORE DUP3 MSTORE SWAP1 KECCAK256 DUP1 SLOAD PUSH1 0x1 DUP3 ADD SLOAD PUSH1 0x2 SWAP1 SWAP3 ADD SLOAD SWAP1 SWAP2 SWAP1 DUP4 JUMP JUMPDEST PUSH1 0x6D SLOAD DUP2 JUMP JUMPDEST PUSH1 0x77 PUSH1 0x20 MSTORE DUP1 PUSH1 0x0 MSTORE PUSH1 0x40 PUSH1 0x0 KECCAK256 PUSH1 0x0 SWAP2 POP SWAP1 POP DUP1 PUSH1 0x7 ADD SLOAD SWAP1 DUP1 PUSH1 0x8 ADD SLOAD SWAP1 DUP1 PUSH1 0x9 ADD SLOAD SWAP1 DUP1 PUSH1 0xA ADD SLOAD SWAP1 DUP1 PUSH1 0xB ADD SLOAD SWAP1 DUP1 PUSH1 0xC ADD SLOAD SWAP1 DUP1 PUSH1 0xD ADD SLOAD SWAP1 POP DUP8 JUMP JUMPDEST PUSH3 0xCCC0D PUSH1 0xEA SHL JUMPDEST SWAP1 JUMP JUMPDEST PUSH2 0xD72 PUSH2 0x12F0 JUMP JUMPDEST PUSH2 0xDB1 JUMPI PUSH1 0x40 DUP1 MLOAD PUSH3 0x461BCD PUSH1 0xE5 SHL DUP2 MSTORE PUSH1 0x20 PUSH1 0x4 DUP3 ADD DUP2 SWAP1 MSTORE PUSH1 0x24 DUP3 ADD MSTORE PUSH1 0x0 DUP1 MLOAD PUSH1 0x20 PUSH2 0x2F93 DUP4 CODECOPY DUP2 MLOAD SWAP2 MSTORE PUSH1 0x44 DUP3 ADD MSTORE SWAP1 MLOAD SWAP1 DUP2 SWAP1 SUB PUSH1 0x64 ADD SWAP1 REVERT JUMPDEST PUSH1 0x82 DUP1 SLOAD PUSH1 0x1 PUSH1 0x1 PUSH1 0xA0 SHL SUB NOT AND PUSH1 0x1 PUSH1 0x1 PUSH1 0xA0 SHL SUB SWAP3 SWAP1 SWAP3 AND SWAP2 SWAP1 SWAP2 OR SWAP1 SSTORE JUMP JUMPDEST PUSH2 0xDDC CALLER PUSH2 0x19E6 JUMP JUMPDEST PUSH2 0xE17 JUMPI PUSH1 0x40 MLOAD PUSH3 0x461BCD PUSH1 0xE5 SHL DUP2 MSTORE PUSH1 0x4 ADD DUP1 DUP1 PUSH1 0x20 ADD DUP3 DUP2 SUB DUP3 MSTORE PUSH1 0x29 DUP2 MSTORE PUSH1 0x20 ADD DUP1 PUSH2 0x2F49 PUSH1 0x29 SWAP2 CODECOPY PUSH1 0x40 ADD SWAP2 POP POP PUSH1 0x40 MLOAD DUP1 SWAP2 SUB SWAP1 REVERT JUMPDEST PUSH1 0x0 PUSH1 0x77 PUSH1 0x0 PUSH2 0xE25 PUSH2 0x1150 JUMP JUMPDEST DUP2 MSTORE PUSH1 0x20 ADD SWAP1 DUP2 MSTORE PUSH1 0x20 ADD PUSH1 0x0 KECCAK256 SWAP1 POP PUSH1 0x60 DUP2 PUSH1 0x6 ADD DUP1 SLOAD DUP1 PUSH1 0x20 MUL PUSH1 0x20 ADD PUSH1 0x40 MLOAD SWAP1 DUP2 ADD PUSH1 0x40 MSTORE DUP1 SWAP3 SWAP2 SWAP1 DUP2 DUP2 MSTORE PUSH1 0x20 ADD DUP3 DUP1 SLOAD DUP1 ISZERO PUSH2 0xE85 JUMPI PUSH1 0x20 MUL DUP3 ADD SWAP2 SWAP1 PUSH1 0x0 MSTORE PUSH1 0x20 PUSH1 0x0 KECCAK256 SWAP1 JUMPDEST DUP2 SLOAD DUP2 MSTORE PUSH1 0x20 ADD SWAP1 PUSH1 0x1 ADD SWAP1 DUP1 DUP4 GT PUSH2 0xE71 JUMPI JUMPDEST POP POP POP POP POP SWAP1 POP PUSH2 0xF0C DUP3 DUP3 DUP14 DUP14 DUP1 DUP1 PUSH1 0x20 MUL PUSH1 0x20 ADD PUSH1 0x40 MLOAD SWAP1 DUP2 ADD PUSH1 0x40 MSTORE DUP1 SWAP4 SWAP3 SWAP2 SWAP1 DUP2 DUP2 MSTORE PUSH1 0x20 ADD DUP4 DUP4 PUSH1 0x20 MUL DUP1 DUP3 DUP5 CALLDATACOPY PUSH1 0x0 DUP2 DUP5 ADD MSTORE PUSH1 0x1F NOT PUSH1 0x1F DUP3 ADD AND SWAP1 POP DUP1 DUP4 ADD SWAP3 POP POP POP POP POP POP POP DUP13 DUP13 DUP1 DUP1 PUSH1 0x20 MUL PUSH1 0x20 ADD PUSH1 0x40 MLOAD SWAP1 DUP2 ADD PUSH1 0x40 MSTORE DUP1 SWAP4 SWAP3 SWAP2 SWAP1 DUP2 DUP2 MSTORE PUSH1 0x20 ADD DUP4 DUP4 PUSH1 0x20 MUL DUP1 DUP3 DUP5 CALLDATACOPY PUSH1 0x0 SWAP3 ADD SWAP2 SWAP1 SWAP2 MSTORE POP PUSH2 0x19FD SWAP3 POP POP POP JUMP JUMPDEST PUSH1 0x67 SLOAD PUSH1 0x0 SWAP1 DUP2 MSTORE PUSH1 0x77 PUSH1 0x20 MSTORE PUSH1 0x40 SWAP1 KECCAK256 PUSH1 0x7 DUP2 ADD SLOAD PUSH1 0x1 SWAP1 PUSH2 0xF2D PUSH2 0x19E2 JUMP JUMPDEST GT ISZERO PUSH2 0xF44 JUMPI DUP2 PUSH1 0x7 ADD SLOAD PUSH2 0xF40 PUSH2 0x19E2 JUMP JUMPDEST SUB SWAP1 POP JUMPDEST PUSH2 0xFC6 DUP2 DUP6 DUP5 DUP7 DUP14 DUP14 DUP1 DUP1 PUSH1 0x20 MUL PUSH1 0x20 ADD PUSH1 0x40 MLOAD SWAP1 DUP2 ADD PUSH1 0x40 MSTORE DUP1 SWAP4 SWAP3 SWAP2 SWAP1 DUP2 DUP2 MSTORE PUSH1 0x20 ADD DUP4 DUP4 PUSH1 0x20 MUL DUP1 DUP3 DUP5 CALLDATACOPY PUSH1 0x0 DUP2 DUP5 ADD MSTORE PUSH1 0x1F NOT PUSH1 0x1F DUP3 ADD AND SWAP1 POP DUP1 DUP4 ADD SWAP3 POP POP POP POP POP POP POP DUP13 DUP13 DUP1 DUP1 PUSH1 0x20 MUL PUSH1 0x20 ADD PUSH1 0x40 MLOAD SWAP1 DUP2 ADD PUSH1 0x40 MSTORE DUP1 SWAP4 SWAP3 SWAP2 SWAP1 DUP2 DUP2 MSTORE PUSH1 0x20 ADD DUP4 DUP4 PUSH1 0x20 MUL DUP1 DUP3 DUP5 CALLDATACOPY PUSH1 0x0 SWAP3 ADD SWAP2 SWAP1 SWAP2 MSTORE POP PUSH2 0x1C04 SWAP3 POP POP POP JUMP JUMPDEST PUSH2 0xFD0 DUP2 DUP7 PUSH2 0x23D5 JUMP JUMPDEST POP POP PUSH2 0xFDA PUSH2 0x1150 JUMP JUMPDEST PUSH1 0x67 SSTORE PUSH2 0xFE5 PUSH2 0x19E2 JUMP JUMPDEST PUSH1 0x7 DUP4 ADD SSTORE PUSH1 0x81 SLOAD PUSH1 0x40 DUP1 MLOAD PUSH4 0xD9A7C1F9 PUSH1 0xE0 SHL DUP2 MSTORE SWAP1 MLOAD PUSH1 0x1 PUSH1 0x1 PUSH1 0xA0 SHL SUB SWAP1 SWAP3 AND SWAP2 PUSH4 0xD9A7C1F9 SWAP2 PUSH1 0x4 DUP1 DUP3 ADD SWAP3 PUSH1 0x20 SWAP3 SWAP1 SWAP2 SWAP1 DUP3 SWAP1 SUB ADD DUP2 DUP7 DUP1 EXTCODESIZE ISZERO DUP1 ISZERO PUSH2 0x102F JUMPI PUSH1 0x0 DUP1 REVERT JUMPDEST POP GAS STATICCALL ISZERO DUP1 ISZERO PUSH2 0x1043 JUMPI RETURNDATASIZE PUSH1 0x0 DUP1 RETURNDATACOPY RETURNDATASIZE PUSH1 0x0 REVERT JUMPDEST POP POP POP POP PUSH1 0x40 MLOAD RETURNDATASIZE PUSH1 0x20 DUP2 LT ISZERO PUSH2 0x1059 JUMPI PUSH1 0x0 DUP1 REVERT JUMPDEST POP MLOAD PUSH1 0xB DUP4 ADD SSTORE POP PUSH1 0x76 SLOAD PUSH1 0xD SWAP1 SWAP2 ADD SSTORE POP POP POP POP POP POP POP POP POP JUMP JUMPDEST PUSH1 0x6E SLOAD DUP2 JUMP JUMPDEST PUSH1 0x0 PUSH2 0x1087 DUP4 DUP4 PUSH2 0x164E JUMP JUMPDEST PUSH2 0x1093 JUMPI POP PUSH1 0x0 PUSH2 0x10B9 JUMP JUMPDEST POP PUSH1 0x1 PUSH1 0x1 PUSH1 0xA0 SHL SUB DUP3 AND PUSH1 0x0 SWAP1 DUP2 MSTORE PUSH1 0x73 PUSH1 0x20 SWAP1 DUP2 MSTORE PUSH1 0x40 DUP1 DUP4 KECCAK256 DUP5 DUP5 MSTORE SWAP1 SWAP2 MSTORE SWAP1 KECCAK256 SLOAD JUMPDEST SWAP3 SWAP2 POP POP JUMP JUMPDEST PUSH2 0x10C7 PUSH2 0x12F0 JUMP JUMPDEST PUSH2 0x1106 JUMPI PUSH1 0x40 DUP1 MLOAD PUSH3 0x461BCD PUSH1 0xE5 SHL DUP2 MSTORE PUSH1 0x20 PUSH1 0x4 DUP3 ADD DUP2 SWAP1 MSTORE PUSH1 0x24 DUP3 ADD MSTORE PUSH1 0x0 DUP1 MLOAD PUSH1 0x20 PUSH2 0x2F93 DUP4 CODECOPY DUP2 MLOAD SWAP2 MSTORE PUSH1 0x44 DUP3 ADD MSTORE SWAP1 MLOAD SWAP1 DUP2 SWAP1 SUB PUSH1 0x64 ADD SWAP1 REVERT JUMPDEST PUSH1 0x33 SLOAD PUSH1 0x40 MLOAD PUSH1 0x0 SWAP2 PUSH1 0x1 PUSH1 0x1 PUSH1 0xA0 SHL SUB AND SWAP1 PUSH32 0x8BE0079C531659141344CD1FD0A4F28419497F9722A3DAAFE3B4186F6B6457E0 SWAP1 DUP4 SWAP1 LOG3 PUSH1 0x33 DUP1 SLOAD PUSH1 0x1 PUSH1 0x1 PUSH1 0xA0 SHL SUB NOT AND SWAP1 SSTORE JUMP JUMPDEST PUSH1 0x67 SLOAD PUSH1 0x1 ADD SWAP1 JUMP JUMPDEST PUSH1 0x67 SLOAD DUP2 JUMP JUMPDEST PUSH2 0x1167 PUSH2 0x12F0 JUMP JUMPDEST PUSH2 0x11A6 JUMPI PUSH1 0x40 DUP1 MLOAD PUSH3 0x461BCD PUSH1 0xE5 SHL DUP2 MSTORE PUSH1 0x20 PUSH1 0x4 DUP3 ADD DUP2 SWAP1 MSTORE PUSH1 0x24 DUP3 ADD MSTORE PUSH1 0x0 DUP1 MLOAD PUSH1 0x20 PUSH2 0x2F93 DUP4 CODECOPY DUP2 MLOAD SWAP2 MSTORE PUSH1 0x44 DUP3 ADD MSTORE SWAP1 MLOAD SWAP1 DUP2 SWAP1 SUB PUSH1 0x64 ADD SWAP1 REVERT JUMPDEST PUSH1 0x7F DUP1 SLOAD PUSH1 0x1 PUSH1 0x1 PUSH1 0xA0 SHL SUB NOT AND PUSH1 0x1 PUSH1 0x1 PUSH1 0xA0 SHL SUB SWAP3 SWAP1 SWAP3 AND SWAP2 SWAP1 SWAP2 OR SWAP1 SSTORE JUMP JUMPDEST PUSH1 0x6A PUSH1 0x20 SWAP1 DUP2 MSTORE PUSH1 0x0 SWAP2 DUP3 MSTORE PUSH1 0x40 SWAP2 DUP3 SWAP1 KECCAK256 DUP1 SLOAD DUP4 MLOAD PUSH1 0x1F PUSH1 0x2 PUSH1 0x0 NOT PUSH2 0x100 PUSH1 0x1 DUP7 AND ISZERO MUL ADD SWAP1 SWAP4 AND SWAP3 SWAP1 SWAP3 DIV SWAP2 DUP3 ADD DUP5 SWAP1 DIV DUP5 MUL DUP2 ADD DUP5 ADD SWAP1 SWAP5 MSTORE DUP1 DUP5 MSTORE SWAP1 SWAP2 DUP4 ADD DUP3 DUP3 DUP1 ISZERO PUSH2 0x125B JUMPI DUP1 PUSH1 0x1F LT PUSH2 0x1230 JUMPI PUSH2 0x100 DUP1 DUP4 SLOAD DIV MUL DUP4 MSTORE SWAP2 PUSH1 0x20 ADD SWAP2 PUSH2 0x125B JUMP JUMPDEST DUP3 ADD SWAP2 SWAP1 PUSH1 0x0 MSTORE PUSH1 0x20 PUSH1 0x0 KECCAK256 SWAP1 JUMPDEST DUP2 SLOAD DUP2 MSTORE SWAP1 PUSH1 0x1 ADD SWAP1 PUSH1 0x20 ADD DUP1 DUP4 GT PUSH2 0x123E JUMPI DUP3 SWAP1 SUB PUSH1 0x1F AND DUP3 ADD SWAP2 JUMPDEST POP POP POP POP POP DUP2 JUMP JUMPDEST PUSH2 0x126B PUSH2 0x12F0 JUMP JUMPDEST PUSH2 0x12AA JUMPI PUSH1 0x40 DUP1 MLOAD PUSH3 0x461BCD PUSH1 0xE5 SHL DUP2 MSTORE PUSH1 0x20 PUSH1 0x4 DUP3 ADD DUP2 SWAP1 MSTORE PUSH1 0x24 DUP3 ADD MSTORE PUSH1 0x0 DUP1 MLOAD PUSH1 0x20 PUSH2 0x2F93 DUP4 CODECOPY DUP2 MLOAD SWAP2 MSTORE PUSH1 0x44 DUP3 ADD MSTORE SWAP1 MLOAD SWAP1 DUP2 SWAP1 SUB PUSH1 0x64 ADD SWAP1 REVERT JUMPDEST PUSH1 0x81 DUP1 SLOAD PUSH1 0x1 PUSH1 0x1 PUSH1 0xA0 SHL SUB NOT AND PUSH1 0x1 PUSH1 0x1 PUSH1 0xA0 SHL SUB SWAP3 SWAP1 SWAP3 AND SWAP2 SWAP1 SWAP2 OR SWAP1 SSTORE JUMP JUMPDEST PUSH1 0x82 SLOAD PUSH1 0x1 PUSH1 0x1 PUSH1 0xA0 SHL SUB AND DUP2 JUMP JUMPDEST PUSH1 0x6C SLOAD DUP2 JUMP JUMPDEST PUSH1 0x33 SLOAD PUSH1 0x1 PUSH1 0x1 PUSH1 0xA0 SHL SUB AND SWAP1 JUMP JUMPDEST PUSH1 0x33 SLOAD PUSH1 0x1 PUSH1 0x1 PUSH1 0xA0 SHL SUB AND CALLER EQ SWAP1 JUMP JUMPDEST PUSH1 0x73 PUSH1 0x20 SWAP1 DUP2 MSTORE PUSH1 0x0 SWAP3 DUP4 MSTORE PUSH1 0x40 DUP1 DUP5 KECCAK256 SWAP1 SWAP2 MSTORE SWAP1 DUP3 MSTORE SWAP1 KECCAK256 DUP1 SLOAD PUSH1 0x1 DUP3 ADD SLOAD PUSH1 0x2 DUP4 ADD SLOAD PUSH1 0x3 SWAP1 SWAP4 ADD SLOAD SWAP2 SWAP3 SWAP1 SWAP2 DUP5 JUMP JUMPDEST PUSH2 0x133B PUSH2 0x12F0 JUMP JUMPDEST PUSH2 0x137A JUMPI PUSH1 0x40 DUP1 MLOAD PUSH3 0x461BCD PUSH1 0xE5 SHL DUP2 MSTORE PUSH1 0x20 PUSH1 0x4 DUP3 ADD DUP2 SWAP1 MSTORE PUSH1 0x24 DUP3 ADD MSTORE PUSH1 0x0 DUP1 MLOAD PUSH1 0x20 PUSH2 0x2F93 DUP4 CODECOPY DUP2 MLOAD SWAP2 MSTORE PUSH1 0x44 DUP3 ADD MSTORE SWAP1 MLOAD SWAP1 DUP2 SWAP1 SUB PUSH1 0x64 ADD SWAP1 REVERT JUMPDEST PUSH1 0x7B DUP1 SLOAD PUSH1 0x1 PUSH1 0x1 PUSH1 0xA0 SHL SUB NOT AND PUSH1 0x1 PUSH1 0x1 PUSH1 0xA0 SHL SUB SWAP3 SWAP1 SWAP3 AND SWAP2 SWAP1 SWAP2 OR SWAP1 SSTORE JUMP JUMPDEST PUSH1 0x70 PUSH1 0x20 SWAP1 DUP2 MSTORE PUSH1 0x0 SWAP3 DUP4 MSTORE PUSH1 0x40 DUP1 DUP5 KECCAK256 SWAP1 SWAP2 MSTORE SWAP1 DUP3 MSTORE SWAP1 KECCAK256 SLOAD DUP2 JUMP JUMPDEST PUSH1 0x68 PUSH1 0x20 MSTORE PUSH1 0x0 SWAP1 DUP2 MSTORE PUSH1 0x40 SWAP1 KECCAK256 DUP1 SLOAD PUSH1 0x1 DUP3 ADD SLOAD PUSH1 0x2 DUP4 ADD SLOAD PUSH1 0x3 DUP5 ADD SLOAD PUSH1 0x4 DUP6 ADD SLOAD PUSH1 0x5 DUP7 ADD SLOAD PUSH1 0x6 SWAP1 SWAP7 ADD SLOAD SWAP5 SWAP6 SWAP4 SWAP5 SWAP3 SWAP4 SWAP2 SWAP3 SWAP1 SWAP2 SWAP1 PUSH1 0x1 PUSH1 0x1 PUSH1 0xA0 SHL SUB AND DUP8 JUMP JUMPDEST PUSH1 0x74 PUSH1 0x20 SWAP1 DUP2 MSTORE PUSH1 0x0 SWAP3 DUP4 MSTORE PUSH1 0x40 DUP1 DUP5 KECCAK256 SWAP1 SWAP2 MSTORE SWAP1 DUP3 MSTORE SWAP1 KECCAK256 DUP1 SLOAD PUSH1 0x1 DUP3 ADD SLOAD PUSH1 0x2 SWAP1 SWAP3 ADD SLOAD SWAP1 SWAP2 SWAP1 DUP4 JUMP JUMPDEST PUSH1 0x7F SLOAD PUSH1 0x1 PUSH1 0x1 PUSH1 0xA0 SHL SUB AND DUP2 JUMP JUMPDEST PUSH1 0x7A PUSH1 0x20 MSTORE PUSH1 0x0 SWAP1 DUP2 MSTORE PUSH1 0x40 SWAP1 KECCAK256 SLOAD DUP2 JUMP JUMPDEST PUSH1 0x6B SLOAD DUP2 JUMP JUMPDEST PUSH2 0x145B DUP3 PUSH2 0x2535 JUMP JUMPDEST PUSH2 0x14AC JUMPI PUSH1 0x40 DUP1 MLOAD PUSH3 0x461BCD PUSH1 0xE5 SHL DUP2 MSTORE PUSH1 0x20 PUSH1 0x4 DUP3 ADD MSTORE PUSH1 0x17 PUSH1 0x24 DUP3 ADD MSTORE PUSH32 0x76616C696461746F7220646F65736E2774206578697374000000000000000000 PUSH1 0x44 DUP3 ADD MSTORE SWAP1 MLOAD SWAP1 DUP2 SWAP1 SUB PUSH1 0x64 ADD SWAP1 REVERT JUMPDEST PUSH1 0x0 DUP3 DUP2 MSTORE PUSH1 0x68 PUSH1 0x20 MSTORE PUSH1 0x40 SWAP1 KECCAK256 PUSH1 0x3 DUP2 ADD SLOAD SWAP1 SLOAD ISZERO PUSH2 0x14CA JUMPI POP PUSH1 0x0 JUMPDEST PUSH1 0x66 SLOAD PUSH1 0x40 DUP1 MLOAD PUSH4 0x520337DF PUSH1 0xE1 SHL DUP2 MSTORE PUSH1 0x4 DUP2 ADD DUP7 SWAP1 MSTORE PUSH1 0x24 DUP2 ADD DUP5 SWAP1 MSTORE SWAP1 MLOAD PUSH1 0x1 PUSH1 0x1 PUSH1 0xA0 SHL SUB SWAP1 SWAP3 AND SWAP2 PUSH4 0xA4066FBE SWAP2 PUSH1 0x44 DUP1 DUP3 ADD SWAP3 PUSH1 0x0 SWAP3 SWAP1 SWAP2 SWAP1 DUP3 SWAP1 SUB ADD DUP2 DUP4 DUP8 DUP1 EXTCODESIZE ISZERO DUP1 ISZERO PUSH2 0x151E JUMPI PUSH1 0x0 DUP1 REVERT JUMPDEST POP GAS CALL ISZERO DUP1 ISZERO PUSH2 0x1532 JUMPI RETURNDATASIZE PUSH1 0x0 DUP1 RETURNDATACOPY RETURNDATASIZE PUSH1 0x0 REVERT JUMPDEST POP POP POP POP DUP2 DUP1 ISZERO PUSH2 0x1542 JUMPI POP DUP1 ISZERO ISZERO JUMPDEST ISZERO PUSH2 0xB9C JUMPI PUSH1 0x66 SLOAD PUSH1 0x0 DUP5 DUP2 MSTORE PUSH1 0x6A PUSH1 0x20 MSTORE PUSH1 0x40 SWAP1 DUP2 SWAP1 KECCAK256 DUP2 MLOAD PUSH4 0x242A6E3F PUSH1 0xE0 SHL DUP2 MSTORE PUSH1 0x4 DUP2 ADD DUP8 DUP2 MSTORE PUSH1 0x24 DUP3 ADD SWAP4 DUP5 MSTORE DUP3 SLOAD PUSH1 0x2 PUSH1 0x0 NOT PUSH1 0x1 DUP4 AND ISZERO PUSH2 0x100 MUL ADD SWAP1 SWAP2 AND DIV PUSH1 0x44 DUP4 ADD DUP2 SWAP1 MSTORE PUSH1 0x1 PUSH1 0x1 PUSH1 0xA0 SHL SUB SWAP1 SWAP6 AND SWAP5 PUSH4 0x242A6E3F SWAP5 DUP10 SWAP5 SWAP4 SWAP1 SWAP2 PUSH1 0x64 SWAP1 SWAP2 ADD SWAP1 DUP5 SWAP1 DUP1 ISZERO PUSH2 0x15FC JUMPI DUP1 PUSH1 0x1F LT PUSH2 0x15D1 JUMPI PUSH2 0x100 DUP1 DUP4 SLOAD DIV MUL DUP4 MSTORE SWAP2 PUSH1 0x20 ADD SWAP2 PUSH2 0x15FC JUMP JUMPDEST DUP3 ADD SWAP2 SWAP1 PUSH1 0x0 MSTORE PUSH1 0x20 PUSH1 0x0 KECCAK256 SWAP1 JUMPDEST DUP2 SLOAD DUP2 MSTORE SWAP1 PUSH1 0x1 ADD SWAP1 PUSH1 0x20 ADD DUP1 DUP4 GT PUSH2 0x15DF JUMPI DUP3 SWAP1 SUB PUSH1 0x1F AND DUP3 ADD SWAP2 JUMPDEST POP POP SWAP4 POP POP POP POP PUSH1 0x0 PUSH1 0x40 MLOAD DUP1 DUP4 SUB DUP2 PUSH1 0x0 DUP8 DUP1 EXTCODESIZE ISZERO DUP1 ISZERO PUSH2 0x161D JUMPI PUSH1 0x0 DUP1 REVERT JUMPDEST POP GAS CALL ISZERO DUP1 ISZERO PUSH2 0xCD6 JUMPI RETURNDATASIZE PUSH1 0x0 DUP1 RETURNDATACOPY RETURNDATASIZE PUSH1 0x0 REVERT JUMPDEST PUSH1 0x72 PUSH1 0x20 SWAP1 DUP2 MSTORE PUSH1 0x0 SWAP3 DUP4 MSTORE PUSH1 0x40 DUP1 DUP5 KECCAK256 SWAP1 SWAP2 MSTORE SWAP1 DUP3 MSTORE SWAP1 KECCAK256 SLOAD DUP2 JUMP JUMPDEST PUSH1 0x1 PUSH1 0x1 PUSH1 0xA0 SHL SUB DUP3 AND PUSH1 0x0 SWAP1 DUP2 MSTORE PUSH1 0x73 PUSH1 0x20 SWAP1 DUP2 MSTORE PUSH1 0x40 DUP1 DUP4 KECCAK256 DUP5 DUP5 MSTORE SWAP1 SWAP2 MSTORE DUP2 KECCAK256 PUSH1 0x2 ADD SLOAD ISZERO DUP1 ISZERO SWAP1 PUSH2 0x16A5 JUMPI POP PUSH1 0x1 PUSH1 0x1 PUSH1 0xA0 SHL SUB DUP4 AND PUSH1 0x0 SWAP1 DUP2 MSTORE PUSH1 0x73 PUSH1 0x20 SWAP1 DUP2 MSTORE PUSH1 0x40 DUP1 DUP4 KECCAK256 DUP6 DUP5 MSTORE SWAP1 SWAP2 MSTORE SWAP1 KECCAK256 SLOAD ISZERO ISZERO JUMPDEST DUP1 ISZERO PUSH2 0x16DE JUMPI POP PUSH1 0x1 PUSH1 0x1 PUSH1 0xA0 SHL SUB DUP4 AND PUSH1 0x0 SWAP1 DUP2 MSTORE PUSH1 0x73 PUSH1 0x20 SWAP1 DUP2 MSTORE PUSH1 0x40 DUP1 DUP4 KECCAK256 DUP6 DUP5 MSTORE SWAP1 SWAP2 MSTORE SWAP1 KECCAK256 PUSH1 0x2 ADD SLOAD PUSH2 0x16DB PUSH2 0x19E2 JUMP JUMPDEST GT ISZERO JUMPDEST SWAP4 SWAP3 POP POP POP JUMP JUMPDEST PUSH1 0x81 SLOAD PUSH1 0x1 PUSH1 0x1 PUSH1 0xA0 SHL SUB AND SWAP1 JUMP JUMPDEST PUSH1 0x7E SLOAD DUP2 JUMP JUMPDEST PUSH2 0x1703 CALLER PUSH2 0x19E6 JUMP JUMPDEST PUSH2 0x173E JUMPI PUSH1 0x40 MLOAD PUSH3 0x461BCD PUSH1 0xE5 SHL DUP2 MSTORE PUSH1 0x4 ADD DUP1 DUP1 PUSH1 0x20 ADD DUP3 DUP2 SUB DUP3 MSTORE PUSH1 0x29 DUP2 MSTORE PUSH1 0x20 ADD DUP1 PUSH2 0x2F49 PUSH1 0x29 SWAP2 CODECOPY PUSH1 0x40 ADD SWAP2 POP POP PUSH1 0x40 MLOAD DUP1 SWAP2 SUB SWAP1 REVERT JUMPDEST PUSH1 0x0 PUSH1 0x77 PUSH1 0x0 PUSH2 0x174C PUSH2 0x1150 JUMP JUMPDEST DUP2 MSTORE PUSH1 0x20 ADD SWAP1 DUP2 MSTORE PUSH1 0x20 ADD PUSH1 0x0 KECCAK256 SWAP1 POP PUSH1 0x0 DUP1 SWAP1 POP JUMPDEST DUP3 DUP2 LT ISZERO PUSH2 0x17C5 JUMPI PUSH1 0x0 DUP5 DUP5 DUP4 DUP2 DUP2 LT PUSH2 0x1778 JUMPI INVALID JUMPDEST PUSH1 0x20 SWAP1 DUP2 MUL SWAP3 SWAP1 SWAP3 ADD CALLDATALOAD PUSH1 0x0 DUP2 DUP2 MSTORE PUSH1 0x68 DUP5 MSTORE PUSH1 0x40 DUP1 DUP3 KECCAK256 PUSH1 0x3 ADD SLOAD SWAP5 DUP9 SWAP1 MSTORE SWAP1 KECCAK256 DUP4 SWAP1 SSTORE PUSH1 0xC DUP7 ADD SLOAD SWAP1 SWAP4 POP PUSH2 0x17B6 SWAP2 POP DUP3 PUSH4 0xFFFFFFFF PUSH2 0x254C AND JUMP JUMPDEST PUSH1 0xC DUP6 ADD SSTORE POP POP PUSH1 0x1 ADD PUSH2 0x1762 JUMP JUMPDEST POP PUSH2 0x17D4 PUSH1 0x6 DUP3 ADD DUP5 DUP5 PUSH2 0x2E71 JUMP JUMPDEST POP PUSH1 0x66 SLOAD PUSH1 0x7E SLOAD PUSH1 0x40 DUP1 MLOAD PUSH4 0x1EABCD1 PUSH1 0xE2 SHL DUP2 MSTORE PUSH1 0x4 DUP2 ADD SWAP3 SWAP1 SWAP3 MSTORE MLOAD PUSH1 0x1 PUSH1 0x1 PUSH1 0xA0 SHL SUB SWAP1 SWAP3 AND SWAP2 PUSH4 0x7AAF344 SWAP2 PUSH1 0x24 DUP1 DUP3 ADD SWAP3 PUSH1 0x0 SWAP3 SWAP1 SWAP2 SWAP1 DUP3 SWAP1 SUB ADD DUP2 DUP4 DUP8 DUP1 EXTCODESIZE ISZERO DUP1 ISZERO PUSH2 0x161D JUMPI PUSH1 0x0 DUP1 REVERT JUMPDEST PUSH2 0x182D PUSH2 0x12F0 JUMP JUMPDEST PUSH2 0x186C JUMPI PUSH1 0x40 DUP1 MLOAD PUSH3 0x461BCD PUSH1 0xE5 SHL DUP2 MSTORE PUSH1 0x20 PUSH1 0x4 DUP3 ADD DUP2 SWAP1 MSTORE PUSH1 0x24 DUP3 ADD MSTORE PUSH1 0x0 DUP1 MLOAD PUSH1 0x20 PUSH2 0x2F93 DUP4 CODECOPY DUP2 MLOAD SWAP2 MSTORE PUSH1 0x44 DUP3 ADD MSTORE SWAP1 MLOAD SWAP1 DUP2 SWAP1 SUB PUSH1 0x64 ADD SWAP1 REVERT JUMPDEST PUSH1 0x80 DUP1 SLOAD PUSH1 0x1 PUSH1 0x1 PUSH1 0xA0 SHL SUB NOT AND PUSH1 0x1 PUSH1 0x1 PUSH1 0xA0 SHL SUB SWAP3 SWAP1 SWAP3 AND SWAP2 SWAP1 SWAP2 OR SWAP1 SSTORE JUMP JUMPDEST PUSH2 0x1896 PUSH2 0x12F0 JUMP JUMPDEST PUSH2 0x18D5 JUMPI PUSH1 0x40 DUP1 MLOAD PUSH3 0x461BCD PUSH1 0xE5 SHL DUP2 MSTORE PUSH1 0x20 PUSH1 0x4 DUP3 ADD DUP2 SWAP1 MSTORE PUSH1 0x24 DUP3 ADD MSTORE PUSH1 0x0 DUP1 MLOAD PUSH1 0x20 PUSH2 0x2F93 DUP4 CODECOPY DUP2 MLOAD SWAP2 MSTORE PUSH1 0x44 DUP3 ADD MSTORE SWAP1 MLOAD SWAP1 DUP2 SWAP1 SUB PUSH1 0x64 ADD SWAP1 REVERT JUMPDEST PUSH2 0x18DE DUP2 PUSH2 0x25A6 JUMP JUMPDEST POP JUMP JUMPDEST ADDRESS EXTCODESIZE ISZERO SWAP1 JUMP JUMPDEST PUSH1 0x0 SLOAD PUSH2 0x100 SWAP1 DIV PUSH1 0xFF AND DUP1 PUSH2 0x1900 JUMPI POP PUSH2 0x1900 PUSH2 0x18E1 JUMP JUMPDEST DUP1 PUSH2 0x190E JUMPI POP PUSH1 0x0 SLOAD PUSH1 0xFF AND ISZERO JUMPDEST PUSH2 0x1949 JUMPI PUSH1 0x40 MLOAD PUSH3 0x461BCD PUSH1 0xE5 SHL DUP2 MSTORE PUSH1 0x4 ADD DUP1 DUP1 PUSH1 0x20 ADD DUP3 DUP2 SUB DUP3 MSTORE PUSH1 0x2E DUP2 MSTORE PUSH1 0x20 ADD DUP1 PUSH2 0x2FB3 PUSH1 0x2E SWAP2 CODECOPY PUSH1 0x40 ADD SWAP2 POP POP PUSH1 0x40 MLOAD DUP1 SWAP2 SUB SWAP1 REVERT JUMPDEST PUSH1 0x0 SLOAD PUSH2 0x100 SWAP1 DIV PUSH1 0xFF AND ISZERO DUP1 ISZERO PUSH2 0x1974 JUMPI PUSH1 0x0 DUP1 SLOAD PUSH1 0xFF NOT PUSH2 0xFF00 NOT SWAP1 SWAP2 AND PUSH2 0x100 OR AND PUSH1 0x1 OR SWAP1 SSTORE JUMPDEST PUSH1 0x33 DUP1 SLOAD PUSH1 0x1 PUSH1 0x1 PUSH1 0xA0 SHL SUB NOT AND PUSH1 0x1 PUSH1 0x1 PUSH1 0xA0 SHL SUB DUP5 DUP2 AND SWAP2 SWAP1 SWAP2 OR SWAP2 DUP3 SWAP1 SSTORE PUSH1 0x40 MLOAD SWAP2 AND SWAP1 PUSH1 0x0 SWAP1 PUSH32 0x8BE0079C531659141344CD1FD0A4F28419497F9722A3DAAFE3B4186F6B6457E0 SWAP1 DUP3 SWAP1 LOG3 DUP1 ISZERO PUSH2 0x19D5 JUMPI PUSH1 0x0 DUP1 SLOAD PUSH2 0xFF00 NOT AND SWAP1 SSTORE JUMPDEST POP POP JUMP JUMPDEST PUSH5 0x174876E800 SWAP1 JUMP JUMPDEST TIMESTAMP SWAP1 JUMP JUMPDEST PUSH1 0x66 SLOAD PUSH1 0x1 PUSH1 0x1 PUSH1 0xA0 SHL SUB DUP3 DUP2 AND SWAP2 AND EQ JUMPDEST SWAP2 SWAP1 POP JUMP JUMPDEST PUSH1 0x0 JUMPDEST DUP4 MLOAD DUP2 LT ISZERO PUSH2 0x1BFD JUMPI PUSH1 0x81 PUSH1 0x0 SWAP1 SLOAD SWAP1 PUSH2 0x100 EXP SWAP1 DIV PUSH1 0x1 PUSH1 0x1 PUSH1 0xA0 SHL SUB AND PUSH1 0x1 PUSH1 0x1 PUSH1 0xA0 SHL SUB AND PUSH4 0x5A68F01A PUSH1 0x40 MLOAD DUP2 PUSH4 0xFFFFFFFF AND PUSH1 0xE0 SHL DUP2 MSTORE PUSH1 0x4 ADD PUSH1 0x20 PUSH1 0x40 MLOAD DUP1 DUP4 SUB DUP2 DUP7 DUP1 EXTCODESIZE ISZERO DUP1 ISZERO PUSH2 0x1A57 JUMPI PUSH1 0x0 DUP1 REVERT JUMPDEST POP GAS STATICCALL ISZERO DUP1 ISZERO PUSH2 0x1A6B JUMPI RETURNDATASIZE PUSH1 0x0 DUP1 RETURNDATACOPY RETURNDATASIZE PUSH1 0x0 REVERT JUMPDEST POP POP POP POP PUSH1 0x40 MLOAD RETURNDATASIZE PUSH1 0x20 DUP2 LT ISZERO PUSH2 0x1A81 JUMPI PUSH1 0x0 DUP1 REVERT JUMPDEST POP MLOAD DUP3 MLOAD DUP4 SWAP1 DUP4 SWAP1 DUP2 LT PUSH2 0x1A91 JUMPI INVALID JUMPDEST PUSH1 0x20 MUL PUSH1 0x20 ADD ADD MLOAD GT DUP1 ISZERO PUSH2 0x1B33 JUMPI POP PUSH1 0x81 PUSH1 0x0 SWAP1 SLOAD SWAP1 PUSH2 0x100 EXP SWAP1 DIV PUSH1 0x1 PUSH1 0x1 PUSH1 0xA0 SHL SUB AND PUSH1 0x1 PUSH1 0x1 PUSH1 0xA0 SHL SUB AND PUSH3 0xCC7F83 PUSH1 0x40 MLOAD DUP2 PUSH4 0xFFFFFFFF AND PUSH1 0xE0 SHL DUP2 MSTORE PUSH1 0x4 ADD PUSH1 0x20 PUSH1 0x40 MLOAD DUP1 DUP4 SUB DUP2 DUP7 DUP1 EXTCODESIZE ISZERO DUP1 ISZERO PUSH2 0x1AEE JUMPI PUSH1 0x0 DUP1 REVERT JUMPDEST POP GAS STATICCALL ISZERO DUP1 ISZERO PUSH2 0x1B02 JUMPI RETURNDATASIZE PUSH1 0x0 DUP1 RETURNDATACOPY RETURNDATASIZE PUSH1 0x0 REVERT JUMPDEST POP POP POP POP PUSH1 0x40 MLOAD RETURNDATASIZE PUSH1 0x20 DUP2 LT ISZERO PUSH2 0x1B18 JUMPI PUSH1 0x0 DUP1 REVERT JUMPDEST POP MLOAD DUP4 MLOAD DUP5 SWAP1 DUP4 SWAP1 DUP2 LT PUSH2 0x1B28 JUMPI INVALID JUMPDEST PUSH1 0x20 MUL PUSH1 0x20 ADD ADD MLOAD LT ISZERO JUMPDEST ISZERO PUSH2 0x1B74 JUMPI PUSH2 0x1B56 DUP5 DUP3 DUP2 MLOAD DUP2 LT PUSH2 0x1B47 JUMPI INVALID JUMPDEST PUSH1 0x20 MUL PUSH1 0x20 ADD ADD MLOAD PUSH1 0x8 PUSH2 0x2647 JUMP JUMPDEST PUSH2 0x1B74 DUP5 DUP3 DUP2 MLOAD DUP2 LT PUSH2 0x1B65 JUMPI INVALID JUMPDEST PUSH1 0x20 MUL PUSH1 0x20 ADD ADD MLOAD PUSH1 0x0 PUSH2 0x1452 JUMP JUMPDEST DUP3 DUP2 DUP2 MLOAD DUP2 LT PUSH2 0x1B80 JUMPI INVALID JUMPDEST PUSH1 0x20 MUL PUSH1 0x20 ADD ADD MLOAD DUP6 PUSH1 0x4 ADD PUSH1 0x0 DUP7 DUP5 DUP2 MLOAD DUP2 LT PUSH2 0x1B9A JUMPI INVALID JUMPDEST PUSH1 0x20 MUL PUSH1 0x20 ADD ADD MLOAD DUP2 MSTORE PUSH1 0x20 ADD SWAP1 DUP2 MSTORE PUSH1 0x20 ADD PUSH1 0x0 KECCAK256 DUP2 SWAP1 SSTORE POP DUP2 DUP2 DUP2 MLOAD DUP2 LT PUSH2 0x1BC0 JUMPI INVALID JUMPDEST PUSH1 0x20 MUL PUSH1 0x20 ADD ADD MLOAD DUP6 PUSH1 0x5 ADD PUSH1 0x0 DUP7 DUP5 DUP2 MLOAD DUP2 LT PUSH2 0x1BDA JUMPI INVALID JUMPDEST PUSH1 0x20 SWAP1 DUP2 MUL SWAP2 SWAP1 SWAP2 ADD DUP2 ADD MLOAD DUP3 MSTORE DUP2 ADD SWAP2 SWAP1 SWAP2 MSTORE PUSH1 0x40 ADD PUSH1 0x0 KECCAK256 SSTORE PUSH1 0x1 ADD PUSH2 0x1A00 JUMP JUMPDEST POP POP POP POP POP JUMP JUMPDEST PUSH2 0x1C0C PUSH2 0x2EB8 JUMP JUMPDEST PUSH1 0x40 MLOAD DUP1 PUSH1 0xA0 ADD PUSH1 0x40 MSTORE DUP1 DUP6 MLOAD PUSH1 0x40 MLOAD SWAP1 DUP1 DUP3 MSTORE DUP1 PUSH1 0x20 MUL PUSH1 0x20 ADD DUP3 ADD PUSH1 0x40 MSTORE DUP1 ISZERO PUSH2 0x1C42 JUMPI DUP2 PUSH1 0x20 ADD PUSH1 0x20 DUP3 MUL DUP1 CODESIZE DUP4 CODECOPY ADD SWAP1 POP JUMPDEST POP DUP2 MSTORE PUSH1 0x20 ADD PUSH1 0x0 DUP2 MSTORE PUSH1 0x20 ADD DUP6 MLOAD PUSH1 0x40 MLOAD SWAP1 DUP1 DUP3 MSTORE DUP1 PUSH1 0x20 MUL PUSH1 0x20 ADD DUP3 ADD PUSH1 0x40 MSTORE DUP1 ISZERO PUSH2 0x1C7A JUMPI DUP2 PUSH1 0x20 ADD PUSH1 0x20 DUP3 MUL DUP1 CODESIZE DUP4 CODECOPY ADD SWAP1 POP JUMPDEST POP DUP2 MSTORE PUSH1 0x20 ADD PUSH1 0x0 DUP2 MSTORE PUSH1 0x20 ADD PUSH1 0x0 DUP2 MSTORE POP SWAP1 POP PUSH1 0x0 DUP1 SWAP1 POP JUMPDEST DUP5 MLOAD DUP2 LT ISZERO PUSH2 0x1D95 JUMPI PUSH1 0x0 DUP7 PUSH1 0x3 ADD PUSH1 0x0 DUP8 DUP5 DUP2 MLOAD DUP2 LT PUSH2 0x1CB1 JUMPI INVALID JUMPDEST PUSH1 0x20 MUL PUSH1 0x20 ADD ADD MLOAD DUP2 MSTORE PUSH1 0x20 ADD SWAP1 DUP2 MSTORE PUSH1 0x20 ADD PUSH1 0x0 KECCAK256 SLOAD SWAP1 POP PUSH1 0x0 DUP1 SWAP1 POP DUP2 DUP6 DUP5 DUP2 MLOAD DUP2 LT PUSH2 0x1CDC JUMPI INVALID JUMPDEST PUSH1 0x20 MUL PUSH1 0x20 ADD ADD MLOAD GT ISZERO PUSH2 0x1D03 JUMPI DUP2 DUP6 DUP5 DUP2 MLOAD DUP2 LT PUSH2 0x1CF7 JUMPI INVALID JUMPDEST PUSH1 0x20 MUL PUSH1 0x20 ADD ADD MLOAD SUB SWAP1 POP JUMPDEST DUP10 DUP7 DUP5 DUP2 MLOAD DUP2 LT PUSH2 0x1D10 JUMPI INVALID JUMPDEST PUSH1 0x20 MUL PUSH1 0x20 ADD ADD MLOAD DUP3 MUL DUP2 PUSH2 0x1D21 JUMPI INVALID JUMPDEST DIV DUP5 PUSH1 0x40 ADD MLOAD DUP5 DUP2 MLOAD DUP2 LT PUSH2 0x1D32 JUMPI INVALID JUMPDEST PUSH1 0x20 MUL PUSH1 0x20 ADD ADD DUP2 DUP2 MSTORE POP POP PUSH2 0x1D6C DUP5 PUSH1 0x40 ADD MLOAD DUP5 DUP2 MLOAD DUP2 LT PUSH2 0x1D51 JUMPI INVALID JUMPDEST PUSH1 0x20 MUL PUSH1 0x20 ADD ADD MLOAD DUP6 PUSH1 0x60 ADD MLOAD PUSH2 0x254C SWAP1 SWAP2 SWAP1 PUSH4 0xFFFFFFFF AND JUMP JUMPDEST PUSH1 0x60 DUP6 ADD MSTORE PUSH1 0x80 DUP5 ADD MLOAD PUSH2 0x1D86 SWAP1 DUP3 PUSH4 0xFFFFFFFF PUSH2 0x254C AND JUMP JUMPDEST PUSH1 0x80 DUP6 ADD MSTORE POP POP PUSH1 0x1 ADD PUSH2 0x1C94 JUMP JUMPDEST POP PUSH1 0x0 JUMPDEST DUP5 MLOAD DUP2 LT ISZERO PUSH2 0x1E5E JUMPI DUP8 DUP5 DUP3 DUP2 MLOAD DUP2 LT PUSH2 0x1DAF JUMPI INVALID JUMPDEST PUSH1 0x20 MUL PUSH1 0x20 ADD ADD MLOAD DUP10 DUP7 DUP5 DUP2 MLOAD DUP2 LT PUSH2 0x1DC4 JUMPI INVALID JUMPDEST PUSH1 0x20 MUL PUSH1 0x20 ADD ADD MLOAD DUP11 PUSH1 0x0 ADD PUSH1 0x0 DUP11 DUP8 DUP2 MLOAD DUP2 LT PUSH2 0x1DDE JUMPI INVALID JUMPDEST PUSH1 0x20 MUL PUSH1 0x20 ADD ADD MLOAD DUP2 MSTORE PUSH1 0x20 ADD SWAP1 DUP2 MSTORE PUSH1 0x20 ADD PUSH1 0x0 KECCAK256 SLOAD MUL DUP2 PUSH2 0x1DFD JUMPI INVALID JUMPDEST DIV MUL DUP2 PUSH2 0x1E06 JUMPI INVALID JUMPDEST DIV DUP3 PUSH1 0x0 ADD MLOAD DUP3 DUP2 MLOAD DUP2 LT PUSH2 0x1E17 JUMPI INVALID JUMPDEST PUSH1 0x20 MUL PUSH1 0x20 ADD ADD DUP2 DUP2 MSTORE POP POP PUSH2 0x1E51 DUP3 PUSH1 0x0 ADD MLOAD DUP3 DUP2 MLOAD DUP2 LT PUSH2 0x1E36 JUMPI INVALID JUMPDEST PUSH1 0x20 MUL PUSH1 0x20 ADD ADD MLOAD DUP4 PUSH1 0x20 ADD MLOAD PUSH2 0x254C SWAP1 SWAP2 SWAP1 PUSH4 0xFFFFFFFF AND JUMP JUMPDEST PUSH1 0x20 DUP4 ADD MSTORE PUSH1 0x1 ADD PUSH2 0x1D99 JUMP JUMPDEST POP PUSH1 0x0 JUMPDEST DUP5 MLOAD DUP2 LT ISZERO PUSH2 0x2284 JUMPI PUSH1 0x0 PUSH2 0x1F0B DUP10 PUSH1 0x81 PUSH1 0x0 SWAP1 SLOAD SWAP1 PUSH2 0x100 EXP SWAP1 DIV PUSH1 0x1 PUSH1 0x1 PUSH1 0xA0 SHL SUB AND PUSH1 0x1 PUSH1 0x1 PUSH1 0xA0 SHL SUB AND PUSH4 0xD9A7C1F9 PUSH1 0x40 MLOAD DUP2 PUSH4 0xFFFFFFFF AND PUSH1 0xE0 SHL DUP2 MSTORE PUSH1 0x4 ADD PUSH1 0x20 PUSH1 0x40 MLOAD DUP1 DUP4 SUB DUP2 DUP7 DUP1 EXTCODESIZE ISZERO DUP1 ISZERO PUSH2 0x1EBF JUMPI PUSH1 0x0 DUP1 REVERT JUMPDEST POP GAS STATICCALL ISZERO DUP1 ISZERO PUSH2 0x1ED3 JUMPI RETURNDATASIZE PUSH1 0x0 DUP1 RETURNDATACOPY RETURNDATASIZE PUSH1 0x0 REVERT JUMPDEST POP POP POP POP PUSH1 0x40 MLOAD RETURNDATASIZE PUSH1 0x20 DUP2 LT ISZERO PUSH2 0x1EE9 JUMPI PUSH1 0x0 DUP1 REVERT JUMPDEST POP MLOAD DUP6 MLOAD DUP1 MLOAD DUP7 SWAP1 DUP2 LT PUSH2 0x1EF9 JUMPI INVALID JUMPDEST PUSH1 0x20 MUL PUSH1 0x20 ADD ADD MLOAD DUP7 PUSH1 0x20 ADD MLOAD PUSH2 0x2771 JUMP JUMPDEST SWAP1 POP PUSH2 0x1F47 PUSH2 0x1F3A DUP5 PUSH1 0x80 ADD MLOAD DUP6 PUSH1 0x40 ADD MLOAD DUP6 DUP2 MLOAD DUP2 LT PUSH2 0x1F28 JUMPI INVALID JUMPDEST PUSH1 0x20 MUL PUSH1 0x20 ADD ADD MLOAD DUP7 PUSH1 0x60 ADD MLOAD PUSH2 0x27C0 JUMP JUMPDEST DUP3 SWAP1 PUSH4 0xFFFFFFFF PUSH2 0x254C AND JUMP JUMPDEST SWAP1 POP PUSH1 0x0 DUP7 DUP4 DUP2 MLOAD DUP2 LT PUSH2 0x1F57 JUMPI INVALID JUMPDEST PUSH1 0x20 SWAP1 DUP2 MUL SWAP2 SWAP1 SWAP2 ADD DUP2 ADD MLOAD PUSH1 0x0 DUP2 DUP2 MSTORE PUSH1 0x68 DUP4 MSTORE PUSH1 0x40 DUP1 DUP3 KECCAK256 PUSH1 0x6 ADD SLOAD PUSH1 0x81 SLOAD DUP3 MLOAD PUSH4 0xA7786515 PUSH1 0xE0 SHL DUP2 MSTORE SWAP3 MLOAD SWAP5 SWAP7 POP PUSH1 0x1 PUSH1 0x1 PUSH1 0xA0 SHL SUB SWAP2 DUP3 AND SWAP6 SWAP4 SWAP5 PUSH2 0x1FF4 SWAP5 DUP10 SWAP5 SWAP3 SWAP1 SWAP4 AND SWAP3 PUSH4 0xA7786515 SWAP3 PUSH1 0x4 DUP1 DUP3 ADD SWAP4 SWAP2 DUP3 SWAP1 SUB ADD DUP2 DUP7 DUP1 EXTCODESIZE ISZERO DUP1 ISZERO PUSH2 0x1FC3 JUMPI PUSH1 0x0 DUP1 REVERT JUMPDEST POP GAS STATICCALL ISZERO DUP1 ISZERO PUSH2 0x1FD7 JUMPI RETURNDATASIZE PUSH1 0x0 DUP1 RETURNDATACOPY RETURNDATASIZE PUSH1 0x0 REVERT JUMPDEST POP POP POP POP PUSH1 0x40 MLOAD RETURNDATASIZE PUSH1 0x20 DUP2 LT ISZERO PUSH2 0x1FED JUMPI PUSH1 0x0 DUP1 REVERT JUMPDEST POP MLOAD PUSH2 0x28F7 JUMP JUMPDEST PUSH1 0x1 PUSH1 0x1 PUSH1 0xA0 SHL SUB DUP4 AND PUSH1 0x0 SWAP1 DUP2 MSTORE PUSH1 0x72 PUSH1 0x20 SWAP1 DUP2 MSTORE PUSH1 0x40 DUP1 DUP4 KECCAK256 DUP8 DUP5 MSTORE SWAP1 SWAP2 MSTORE SWAP1 KECCAK256 SLOAD SWAP1 SWAP2 POP DUP1 ISZERO PUSH2 0x219B JUMPI PUSH1 0x0 DUP2 PUSH2 0x202E DUP6 DUP8 PUSH2 0x107B JUMP JUMPDEST DUP5 MUL DUP2 PUSH2 0x2037 JUMPI INVALID JUMPDEST DIV SWAP1 POP DUP1 DUP4 SUB PUSH2 0x2045 PUSH2 0x2EE7 JUMP JUMPDEST PUSH1 0x1 PUSH1 0x1 PUSH1 0xA0 SHL SUB DUP7 AND PUSH1 0x0 SWAP1 DUP2 MSTORE PUSH1 0x73 PUSH1 0x20 SWAP1 DUP2 MSTORE PUSH1 0x40 DUP1 DUP4 KECCAK256 DUP11 DUP5 MSTORE SWAP1 SWAP2 MSTORE SWAP1 KECCAK256 PUSH1 0x3 ADD SLOAD PUSH2 0x2077 SWAP1 DUP5 SWAP1 PUSH2 0x2914 JUMP JUMPDEST SWAP1 POP PUSH2 0x2081 PUSH2 0x2EE7 JUMP JUMPDEST PUSH2 0x208C DUP4 PUSH1 0x0 PUSH2 0x2914 JUMP JUMPDEST PUSH1 0x1 PUSH1 0x1 PUSH1 0xA0 SHL SUB DUP9 AND PUSH1 0x0 SWAP1 DUP2 MSTORE PUSH1 0x6F PUSH1 0x20 SWAP1 DUP2 MSTORE PUSH1 0x40 DUP1 DUP4 KECCAK256 DUP13 DUP5 MSTORE DUP3 MSTORE SWAP2 DUP3 SWAP1 KECCAK256 DUP3 MLOAD PUSH1 0x60 DUP2 ADD DUP5 MSTORE DUP2 SLOAD DUP2 MSTORE PUSH1 0x1 DUP3 ADD SLOAD SWAP3 DUP2 ADD SWAP3 SWAP1 SWAP3 MSTORE PUSH1 0x2 ADD SLOAD SWAP2 DUP2 ADD SWAP2 SWAP1 SWAP2 MSTORE SWAP1 SWAP2 POP PUSH2 0x20E1 SWAP1 DUP4 DUP4 PUSH2 0x2AD6 JUMP JUMPDEST PUSH1 0x1 PUSH1 0x1 PUSH1 0xA0 SHL SUB DUP9 AND PUSH1 0x0 DUP2 DUP2 MSTORE PUSH1 0x6F PUSH1 0x20 SWAP1 DUP2 MSTORE PUSH1 0x40 DUP1 DUP4 KECCAK256 DUP14 DUP5 MSTORE DUP3 MSTORE DUP1 DUP4 KECCAK256 DUP6 MLOAD DUP2 SSTORE DUP6 DUP4 ADD MLOAD PUSH1 0x1 DUP1 DUP4 ADD SWAP2 SWAP1 SWAP2 SSTORE SWAP6 DUP3 ADD MLOAD PUSH1 0x2 SWAP2 DUP3 ADD SSTORE SWAP4 DUP4 MSTORE PUSH1 0x74 DUP3 MSTORE DUP1 DUP4 KECCAK256 DUP14 DUP5 MSTORE DUP3 MSTORE SWAP2 DUP3 SWAP1 KECCAK256 DUP3 MLOAD PUSH1 0x60 DUP2 ADD DUP5 MSTORE DUP2 SLOAD DUP2 MSTORE SWAP5 DUP2 ADD SLOAD SWAP2 DUP6 ADD SWAP2 SWAP1 SWAP2 MSTORE SWAP1 SWAP2 ADD SLOAD SWAP1 DUP3 ADD MSTORE PUSH2 0x215C SWAP1 DUP4 DUP4 PUSH2 0x2AD6 JUMP JUMPDEST PUSH1 0x1 PUSH1 0x1 PUSH1 0xA0 SHL SUB DUP9 AND PUSH1 0x0 SWAP1 DUP2 MSTORE PUSH1 0x74 PUSH1 0x20 SWAP1 DUP2 MSTORE PUSH1 0x40 DUP1 DUP4 KECCAK256 DUP13 DUP5 MSTORE DUP3 MSTORE SWAP2 DUP3 SWAP1 KECCAK256 DUP4 MLOAD DUP2 SSTORE SWAP1 DUP4 ADD MLOAD PUSH1 0x1 DUP3 ADD SSTORE SWAP2 ADD MLOAD PUSH1 0x2 SWAP1 SWAP2 ADD SSTORE POP POP POP POP JUMPDEST PUSH1 0x0 DUP5 DUP2 MSTORE PUSH1 0x68 PUSH1 0x20 MSTORE PUSH1 0x40 DUP2 KECCAK256 PUSH1 0x3 ADD SLOAD DUP4 DUP8 SUB SWAP2 DUP2 ISZERO PUSH2 0x21CD JUMPI DUP2 PUSH2 0x21C0 PUSH2 0x2AF1 JUMP JUMPDEST DUP5 MUL DUP2 PUSH2 0x21C9 JUMPI INVALID JUMPDEST DIV SWAP1 POP JUMPDEST DUP1 DUP15 PUSH1 0x1 ADD PUSH1 0x0 DUP10 DUP2 MSTORE PUSH1 0x20 ADD SWAP1 DUP2 MSTORE PUSH1 0x20 ADD PUSH1 0x0 KECCAK256 SLOAD ADD DUP16 PUSH1 0x1 ADD PUSH1 0x0 DUP10 DUP2 MSTORE PUSH1 0x20 ADD SWAP1 DUP2 MSTORE PUSH1 0x20 ADD PUSH1 0x0 KECCAK256 DUP2 SWAP1 SSTORE POP DUP11 DUP10 DUP2 MLOAD DUP2 LT PUSH2 0x220A JUMPI INVALID JUMPDEST PUSH1 0x20 MUL PUSH1 0x20 ADD ADD MLOAD DUP16 PUSH1 0x3 ADD PUSH1 0x0 DUP10 DUP2 MSTORE PUSH1 0x20 ADD SWAP1 DUP2 MSTORE PUSH1 0x20 ADD PUSH1 0x0 KECCAK256 DUP2 SWAP1 SSTORE POP DUP12 DUP10 DUP2 MLOAD DUP2 LT PUSH2 0x2237 JUMPI INVALID JUMPDEST PUSH1 0x20 MUL PUSH1 0x20 ADD ADD MLOAD DUP15 PUSH1 0x2 ADD PUSH1 0x0 DUP10 DUP2 MSTORE PUSH1 0x20 ADD SWAP1 DUP2 MSTORE PUSH1 0x20 ADD PUSH1 0x0 KECCAK256 SLOAD ADD DUP16 PUSH1 0x2 ADD PUSH1 0x0 DUP10 DUP2 MSTORE PUSH1 0x20 ADD SWAP1 DUP2 MSTORE PUSH1 0x20 ADD PUSH1 0x0 KECCAK256 DUP2 SWAP1 SSTORE POP POP POP POP POP POP POP POP POP DUP1 DUP1 PUSH1 0x1 ADD SWAP2 POP POP PUSH2 0x1E62 JUMP JUMPDEST POP PUSH1 0x80 DUP2 ADD MLOAD PUSH1 0x8 DUP8 ADD DUP2 SWAP1 SSTORE PUSH1 0x20 DUP3 ADD MLOAD PUSH1 0x9 DUP9 ADD SSTORE PUSH1 0x60 DUP3 ADD MLOAD PUSH1 0xA DUP9 ADD SSTORE PUSH1 0x76 SLOAD GT ISZERO PUSH2 0x22C2 JUMPI PUSH1 0x8 DUP7 ADD SLOAD PUSH1 0x76 DUP1 SLOAD SWAP2 SWAP1 SWAP2 SUB SWAP1 SSTORE PUSH2 0x22C8 JUMP JUMPDEST PUSH1 0x0 PUSH1 0x76 SSTORE JUMPDEST PUSH1 0x7F SLOAD PUSH1 0x1 PUSH1 0x1 PUSH1 0xA0 SHL SUB AND ISZERO PUSH2 0xCD6 JUMPI PUSH1 0x0 PUSH2 0x22E3 PUSH2 0x2AF1 JUMP JUMPDEST PUSH1 0x81 PUSH1 0x0 SWAP1 SLOAD SWAP1 PUSH2 0x100 EXP SWAP1 DIV PUSH1 0x1 PUSH1 0x1 PUSH1 0xA0 SHL SUB AND PUSH1 0x1 PUSH1 0x1 PUSH1 0xA0 SHL SUB AND PUSH4 0x94C3E914 PUSH1 0x40 MLOAD DUP2 PUSH4 0xFFFFFFFF AND PUSH1 0xE0 SHL DUP2 MSTORE PUSH1 0x4 ADD PUSH1 0x20 PUSH1 0x40 MLOAD DUP1 DUP4 SUB DUP2 DUP7 DUP1 EXTCODESIZE ISZERO DUP1 ISZERO PUSH2 0x2331 JUMPI PUSH1 0x0 DUP1 REVERT JUMPDEST POP GAS STATICCALL ISZERO DUP1 ISZERO PUSH2 0x2345 JUMPI RETURNDATASIZE PUSH1 0x0 DUP1 RETURNDATACOPY RETURNDATASIZE PUSH1 0x0 REVERT JUMPDEST POP POP POP POP PUSH1 0x40 MLOAD RETURNDATASIZE PUSH1 0x20 DUP2 LT ISZERO PUSH2 0x235B JUMPI PUSH1 0x0 DUP1 REVERT JUMPDEST POP MLOAD PUSH1 0x80 DUP5 ADD MLOAD MUL DUP2 PUSH2 0x236A JUMPI INVALID JUMPDEST DIV SWAP1 POP PUSH2 0x2376 DUP2 PUSH2 0x2AFD JUMP JUMPDEST PUSH1 0x7F SLOAD PUSH1 0x40 MLOAD PUSH1 0x1 PUSH1 0x1 PUSH1 0xA0 SHL SUB SWAP1 SWAP2 AND SWAP1 DUP3 SWAP1 PUSH1 0x0 DUP2 DUP2 DUP2 DUP6 DUP8 GAS CALL SWAP3 POP POP POP RETURNDATASIZE DUP1 PUSH1 0x0 DUP2 EQ PUSH2 0x23C3 JUMPI PUSH1 0x40 MLOAD SWAP2 POP PUSH1 0x1F NOT PUSH1 0x3F RETURNDATASIZE ADD AND DUP3 ADD PUSH1 0x40 MSTORE RETURNDATASIZE DUP3 MSTORE RETURNDATASIZE PUSH1 0x0 PUSH1 0x20 DUP5 ADD RETURNDATACOPY PUSH2 0x23C8 JUMP JUMPDEST PUSH1 0x60 SWAP2 POP JUMPDEST POP POP POP POP POP POP POP POP POP POP POP JUMP JUMPDEST PUSH1 0x81 SLOAD PUSH1 0x40 DUP1 MLOAD PUSH4 0xE8FBD9B PUSH1 0xE2 SHL DUP2 MSTORE SWAP1 MLOAD PUSH1 0x0 SWAP3 PUSH1 0x1 PUSH1 0x1 PUSH1 0xA0 SHL SUB AND SWAP2 PUSH4 0x3A3EF66C SWAP2 PUSH1 0x4 DUP1 DUP4 ADD SWAP3 PUSH1 0x20 SWAP3 SWAP2 SWAP1 DUP3 SWAP1 SUB ADD DUP2 DUP7 DUP1 EXTCODESIZE ISZERO DUP1 ISZERO PUSH2 0x241A JUMPI PUSH1 0x0 DUP1 REVERT JUMPDEST POP GAS STATICCALL ISZERO DUP1 ISZERO PUSH2 0x242E JUMPI RETURNDATASIZE PUSH1 0x0 DUP1 RETURNDATACOPY RETURNDATASIZE PUSH1 0x0 REVERT JUMPDEST POP POP POP POP PUSH1 0x40 MLOAD RETURNDATASIZE PUSH1 0x20 DUP2 LT ISZERO PUSH2 0x2444 JUMPI PUSH1 0x0 DUP1 REVERT JUMPDEST POP MLOAD DUP4 MUL PUSH1 0x1 ADD SWAP1 POP PUSH1 0x0 DUP2 PUSH2 0x2458 PUSH2 0x2AF1 JUMP JUMPDEST DUP5 MUL DUP2 PUSH2 0x2461 JUMPI INVALID JUMPDEST DIV SWAP1 POP PUSH1 0x0 PUSH1 0x81 PUSH1 0x0 SWAP1 SLOAD SWAP1 PUSH2 0x100 EXP SWAP1 DIV PUSH1 0x1 PUSH1 0x1 PUSH1 0xA0 SHL SUB AND PUSH1 0x1 PUSH1 0x1 PUSH1 0xA0 SHL SUB AND PUSH4 0x2C8C36A5 PUSH1 0x40 MLOAD DUP2 PUSH4 0xFFFFFFFF AND PUSH1 0xE0 SHL DUP2 MSTORE PUSH1 0x4 ADD PUSH1 0x20 PUSH1 0x40 MLOAD DUP1 DUP4 SUB DUP2 DUP7 DUP1 EXTCODESIZE ISZERO DUP1 ISZERO PUSH2 0x24B4 JUMPI PUSH1 0x0 DUP1 REVERT JUMPDEST POP GAS STATICCALL ISZERO DUP1 ISZERO PUSH2 0x24C8 JUMPI RETURNDATASIZE PUSH1 0x0 DUP1 RETURNDATACOPY RETURNDATASIZE PUSH1 0x0 REVERT JUMPDEST POP POP POP POP PUSH1 0x40 MLOAD RETURNDATASIZE PUSH1 0x20 DUP2 LT ISZERO PUSH2 0x24DE JUMPI PUSH1 0x0 DUP1 REVERT JUMPDEST POP MLOAD SWAP1 POP DUP5 DUP2 ADD PUSH2 0x24ED PUSH2 0x2AF1 JUMP JUMPDEST DUP3 MUL DUP4 DUP8 MUL ADD DUP2 PUSH2 0x24FA JUMPI INVALID JUMPDEST DIV SWAP2 POP PUSH2 0x2506 DUP3 PUSH2 0x2B82 JUMP JUMPDEST SWAP2 POP PUSH1 0x0 PUSH2 0x2512 PUSH2 0x2AF1 JUMP JUMPDEST DUP4 PUSH1 0x7E SLOAD MUL DUP2 PUSH2 0x251E JUMPI INVALID JUMPDEST DIV SWAP1 POP PUSH2 0x252A DUP2 PUSH2 0x2BF0 JUMP JUMPDEST PUSH1 0x7E SSTORE POP POP POP POP POP POP JUMP JUMPDEST PUSH1 0x0 SWAP1 DUP2 MSTORE PUSH1 0x68 PUSH1 0x20 MSTORE PUSH1 0x40 SWAP1 KECCAK256 PUSH1 0x5 ADD SLOAD ISZERO ISZERO SWAP1 JUMP JUMPDEST PUSH1 0x0 DUP3 DUP3 ADD DUP4 DUP2 LT ISZERO PUSH2 0x16DE JUMPI PUSH1 0x40 DUP1 MLOAD PUSH3 0x461BCD PUSH1 0xE5 SHL DUP2 MSTORE PUSH1 0x20 PUSH1 0x4 DUP3 ADD MSTORE PUSH1 0x1B PUSH1 0x24 DUP3 ADD MSTORE PUSH32 0x536166654D6174683A206164646974696F6E206F766572666C6F770000000000 PUSH1 0x44 DUP3 ADD MSTORE SWAP1 MLOAD SWAP1 DUP2 SWAP1 SUB PUSH1 0x64 ADD SWAP1 REVERT JUMPDEST PUSH1 0x1 PUSH1 0x1 PUSH1 0xA0 SHL SUB DUP2 AND PUSH2 0x25EB JUMPI PUSH1 0x40 MLOAD PUSH3 0x461BCD PUSH1 0xE5 SHL DUP2 MSTORE PUSH1 0x4 ADD DUP1 DUP1 PUSH1 0x20 ADD DUP3 DUP2 SUB DUP3 MSTORE PUSH1 0x26 DUP2 MSTORE PUSH1 0x20 ADD DUP1 PUSH2 0x2F23 PUSH1 0x26 SWAP2 CODECOPY PUSH1 0x40 ADD SWAP2 POP POP PUSH1 0x40 MLOAD DUP1 SWAP2 SUB SWAP1 REVERT JUMPDEST PUSH1 0x33 SLOAD PUSH1 0x40 MLOAD PUSH1 0x1 PUSH1 0x1 PUSH1 0xA0 SHL SUB DUP1 DUP5 AND SWAP3 AND SWAP1 PUSH32 0x8BE0079C531659141344CD1FD0A4F28419497F9722A3DAAFE3B4186F6B6457E0 SWAP1 PUSH1 0x0 SWAP1 LOG3 PUSH1 0x33 DUP1 SLOAD PUSH1 0x1 PUSH1 0x1 PUSH1 0xA0 SHL SUB NOT AND PUSH1 0x1 PUSH1 0x1 PUSH1 0xA0 SHL SUB SWAP3 SWAP1 SWAP3 AND SWAP2 SWAP1 SWAP2 OR SWAP1 SSTORE JUMP JUMPDEST PUSH1 0x0 DUP3 DUP2 MSTORE PUSH1 0x68 PUSH1 0x20 MSTORE PUSH1 0x40 SWAP1 KECCAK256 SLOAD ISZERO DUP1 ISZERO PUSH2 0x2662 JUMPI POP DUP1 ISZERO ISZERO JUMPDEST ISZERO PUSH2 0x268F JUMPI PUSH1 0x0 DUP3 DUP2 MSTORE PUSH1 0x68 PUSH1 0x20 MSTORE PUSH1 0x40 SWAP1 KECCAK256 PUSH1 0x3 ADD SLOAD PUSH1 0x6D SLOAD PUSH2 0x268B SWAP2 PUSH4 0xFFFFFFFF PUSH2 0x2C26 AND JUMP JUMPDEST PUSH1 0x6D SSTORE JUMPDEST PUSH1 0x0 DUP3 DUP2 MSTORE PUSH1 0x68 PUSH1 0x20 MSTORE PUSH1 0x40 SWAP1 KECCAK256 SLOAD DUP2 GT ISZERO PUSH2 0x19D5 JUMPI PUSH1 0x0 DUP3 DUP2 MSTORE PUSH1 0x68 PUSH1 0x20 MSTORE PUSH1 0x40 SWAP1 KECCAK256 DUP2 DUP2 SSTORE PUSH1 0x2 ADD SLOAD PUSH2 0x2737 JUMPI PUSH2 0x26C6 PUSH2 0x1150 JUMP JUMPDEST PUSH1 0x0 DUP4 DUP2 MSTORE PUSH1 0x68 PUSH1 0x20 MSTORE PUSH1 0x40 SWAP1 KECCAK256 PUSH1 0x2 ADD SSTORE PUSH2 0x26E0 PUSH2 0x19E2 JUMP JUMPDEST PUSH1 0x0 DUP4 DUP2 MSTORE PUSH1 0x68 PUSH1 0x20 SWAP1 DUP2 MSTORE PUSH1 0x40 SWAP2 DUP3 SWAP1 KECCAK256 PUSH1 0x1 DUP2 ADD DUP5 SWAP1 SSTORE PUSH1 0x2 ADD SLOAD DUP3 MLOAD SWAP1 DUP2 MSTORE SWAP1 DUP2 ADD SWAP3 SWAP1 SWAP3 MSTORE DUP1 MLOAD DUP5 SWAP3 PUSH32 0xAC4801C32A6067FF757446524EE4E7A373797278AC3C883EAC5C693B4AD72E47 SWAP3 SWAP1 DUP3 SWAP1 SUB ADD SWAP1 LOG2 JUMPDEST PUSH1 0x40 DUP1 MLOAD DUP3 DUP2 MSTORE SWAP1 MLOAD DUP4 SWAP2 PUSH32 0xCD35267E7654194727477D6C78B541A553483CFF7F92A055D17868D3DA6E953E SWAP2 SWAP1 DUP2 SWAP1 SUB PUSH1 0x20 ADD SWAP1 LOG2 POP POP JUMP JUMPDEST PUSH1 0x0 DUP3 PUSH2 0x2780 JUMPI POP PUSH1 0x0 PUSH2 0x27B8 JUMP JUMPDEST PUSH1 0x0 PUSH2 0x2792 DUP7 DUP7 PUSH4 0xFFFFFFFF PUSH2 0x2C68 AND JUMP JUMPDEST SWAP1 POP PUSH2 0x27B4 DUP4 PUSH2 0x27A8 DUP4 DUP8 PUSH4 0xFFFFFFFF PUSH2 0x2C68 AND JUMP JUMPDEST SWAP1 PUSH4 0xFFFFFFFF PUSH2 0x2CC1 AND JUMP JUMPDEST SWAP2 POP POP JUMPDEST SWAP5 SWAP4 POP POP POP POP JUMP JUMPDEST PUSH1 0x0 DUP3 PUSH2 0x27CF JUMPI POP PUSH1 0x0 PUSH2 0x16DE JUMP JUMPDEST PUSH1 0x0 PUSH2 0x27E5 DUP4 PUSH2 0x27A8 DUP8 DUP8 PUSH4 0xFFFFFFFF PUSH2 0x2C68 AND JUMP JUMPDEST SWAP1 POP PUSH2 0x28EE PUSH2 0x27F2 PUSH2 0x2AF1 JUMP JUMPDEST PUSH1 0x81 SLOAD PUSH1 0x40 DUP1 MLOAD PUSH4 0x2530FA45 PUSH1 0xE2 SHL DUP2 MSTORE SWAP1 MLOAD PUSH2 0x27A8 SWAP3 PUSH1 0x1 PUSH1 0x1 PUSH1 0xA0 SHL SUB AND SWAP2 PUSH4 0x94C3E914 SWAP2 PUSH1 0x4 DUP1 DUP4 ADD SWAP3 PUSH1 0x20 SWAP3 SWAP2 SWAP1 DUP3 SWAP1 SUB ADD DUP2 DUP7 DUP1 EXTCODESIZE ISZERO DUP1 ISZERO PUSH2 0x2838 JUMPI PUSH1 0x0 DUP1 REVERT JUMPDEST POP GAS STATICCALL ISZERO DUP1 ISZERO PUSH2 0x284C JUMPI RETURNDATASIZE PUSH1 0x0 DUP1 RETURNDATACOPY RETURNDATASIZE PUSH1 0x0 REVERT JUMPDEST POP POP POP POP PUSH1 0x40 MLOAD RETURNDATASIZE PUSH1 0x20 DUP2 LT ISZERO PUSH2 0x2862 JUMPI PUSH1 0x0 DUP1 REVERT JUMPDEST POP MLOAD PUSH1 0x81 SLOAD PUSH1 0x40 DUP1 MLOAD PUSH4 0xC74DD621 PUSH1 0xE0 SHL DUP2 MSTORE SWAP1 MLOAD PUSH1 0x1 PUSH1 0x1 PUSH1 0xA0 SHL SUB SWAP1 SWAP3 AND SWAP2 PUSH4 0xC74DD621 SWAP2 PUSH1 0x4 DUP1 DUP3 ADD SWAP3 PUSH1 0x20 SWAP3 SWAP1 SWAP2 SWAP1 DUP3 SWAP1 SUB ADD DUP2 DUP7 DUP1 EXTCODESIZE ISZERO DUP1 ISZERO PUSH2 0x28A9 JUMPI PUSH1 0x0 DUP1 REVERT JUMPDEST POP GAS STATICCALL ISZERO DUP1 ISZERO PUSH2 0x28BD JUMPI RETURNDATASIZE PUSH1 0x0 DUP1 RETURNDATACOPY RETURNDATASIZE PUSH1 0x0 REVERT JUMPDEST POP POP POP POP PUSH1 0x40 MLOAD RETURNDATASIZE PUSH1 0x20 DUP2 LT ISZERO PUSH2 0x28D3 JUMPI PUSH1 0x0 DUP1 REVERT JUMPDEST POP MLOAD PUSH2 0x28DD PUSH2 0x2AF1 JUMP JUMPDEST SUB SUB DUP5 PUSH2 0x2C68 SWAP1 SWAP2 SWAP1 PUSH4 0xFFFFFFFF AND JUMP JUMPDEST SWAP6 SWAP5 POP POP POP POP POP JUMP JUMPDEST PUSH1 0x0 PUSH2 0x16DE PUSH2 0x2904 PUSH2 0x2AF1 JUMP JUMPDEST PUSH2 0x27A8 DUP6 DUP6 PUSH4 0xFFFFFFFF PUSH2 0x2C68 AND JUMP JUMPDEST PUSH2 0x291C PUSH2 0x2EE7 JUMP JUMPDEST PUSH1 0x40 MLOAD DUP1 PUSH1 0x60 ADD PUSH1 0x40 MSTORE DUP1 PUSH1 0x0 DUP2 MSTORE PUSH1 0x20 ADD PUSH1 0x0 DUP2 MSTORE PUSH1 0x20 ADD PUSH1 0x0 DUP2 MSTORE POP SWAP1 POP PUSH1 0x0 PUSH1 0x81 PUSH1 0x0 SWAP1 SLOAD SWAP1 PUSH2 0x100 EXP SWAP1 DIV PUSH1 0x1 PUSH1 0x1 PUSH1 0xA0 SHL SUB AND PUSH1 0x1 PUSH1 0x1 PUSH1 0xA0 SHL SUB AND PUSH4 0x5E2308D2 PUSH1 0x40 MLOAD DUP2 PUSH4 0xFFFFFFFF AND PUSH1 0xE0 SHL DUP2 MSTORE PUSH1 0x4 ADD PUSH1 0x20 PUSH1 0x40 MLOAD DUP1 DUP4 SUB DUP2 DUP7 DUP1 EXTCODESIZE ISZERO DUP1 ISZERO PUSH2 0x298C JUMPI PUSH1 0x0 DUP1 REVERT JUMPDEST POP GAS STATICCALL ISZERO DUP1 ISZERO PUSH2 0x29A0 JUMPI RETURNDATASIZE PUSH1 0x0 DUP1 RETURNDATACOPY RETURNDATASIZE PUSH1 0x0 REVERT JUMPDEST POP POP POP POP PUSH1 0x40 MLOAD RETURNDATASIZE PUSH1 0x20 DUP2 LT ISZERO PUSH2 0x29B6 JUMPI PUSH1 0x0 DUP1 REVERT JUMPDEST POP MLOAD SWAP1 POP DUP3 ISZERO PUSH2 0x2AAE JUMPI PUSH1 0x0 DUP2 PUSH2 0x29CB PUSH2 0x2AF1 JUMP JUMPDEST SUB SWAP1 POP PUSH1 0x0 PUSH2 0x2A5D PUSH1 0x81 PUSH1 0x0 SWAP1 SLOAD SWAP1 PUSH2 0x100 EXP SWAP1 DIV PUSH1 0x1 PUSH1 0x1 PUSH1 0xA0 SHL SUB AND PUSH1 0x1 PUSH1 0x1 PUSH1 0xA0 SHL SUB AND PUSH4 0xD4955E3 PUSH1 0x40 MLOAD DUP2 PUSH4 0xFFFFFFFF AND PUSH1 0xE0 SHL DUP2 MSTORE PUSH1 0x4 ADD PUSH1 0x20 PUSH1 0x40 MLOAD DUP1 DUP4 SUB DUP2 DUP7 DUP1 EXTCODESIZE ISZERO DUP1 ISZERO PUSH2 0x2A21 JUMPI PUSH1 0x0 DUP1 REVERT JUMPDEST POP GAS STATICCALL ISZERO DUP1 ISZERO PUSH2 0x2A35 JUMPI RETURNDATASIZE PUSH1 0x0 DUP1 RETURNDATACOPY RETURNDATASIZE PUSH1 0x0 REVERT JUMPDEST POP POP POP POP PUSH1 0x40 MLOAD RETURNDATASIZE PUSH1 0x20 DUP2 LT ISZERO PUSH2 0x2A4B JUMPI PUSH1 0x0 DUP1 REVERT JUMPDEST POP MLOAD PUSH2 0x27A8 DUP5 DUP9 PUSH4 0xFFFFFFFF PUSH2 0x2C68 AND JUMP JUMPDEST SWAP1 POP PUSH1 0x0 PUSH2 0x2A7E PUSH2 0x2A6C PUSH2 0x2AF1 JUMP JUMPDEST PUSH2 0x27A8 DUP10 DUP8 DUP7 ADD PUSH4 0xFFFFFFFF PUSH2 0x2C68 AND JUMP JUMPDEST SWAP1 POP PUSH2 0x2A9B PUSH2 0x2A8B PUSH2 0x2AF1 JUMP JUMPDEST PUSH2 0x27A8 DUP10 DUP8 PUSH4 0xFFFFFFFF PUSH2 0x2C68 AND JUMP JUMPDEST PUSH1 0x20 DUP7 ADD DUP2 SWAP1 MSTORE SWAP1 SUB DUP5 MSTORE POP PUSH2 0x2ACF SWAP1 POP JUMP JUMPDEST PUSH2 0x2AC9 PUSH2 0x2AB9 PUSH2 0x2AF1 JUMP JUMPDEST PUSH2 0x27A8 DUP7 DUP5 PUSH4 0xFFFFFFFF PUSH2 0x2C68 AND JUMP JUMPDEST PUSH1 0x40 DUP4 ADD MSTORE JUMPDEST POP SWAP3 SWAP2 POP POP JUMP JUMPDEST PUSH2 0x2ADE PUSH2 0x2EE7 JUMP JUMPDEST PUSH2 0x27B8 PUSH2 0x2AEB DUP6 DUP6 PUSH2 0x2D03 JUMP JUMPDEST DUP4 PUSH2 0x2D03 JUMP JUMPDEST PUSH8 0xDE0B6B3A7640000 SWAP1 JUMP JUMPDEST PUSH1 0x66 SLOAD PUSH1 0x40 DUP1 MLOAD PUSH4 0x66E7EA0F PUSH1 0xE0 SHL DUP2 MSTORE ADDRESS PUSH1 0x4 DUP3 ADD MSTORE PUSH1 0x24 DUP2 ADD DUP5 SWAP1 MSTORE SWAP1 MLOAD PUSH1 0x1 PUSH1 0x1 PUSH1 0xA0 SHL SUB SWAP1 SWAP3 AND SWAP2 PUSH4 0x66E7EA0F SWAP2 PUSH1 0x44 DUP1 DUP3 ADD SWAP3 PUSH1 0x0 SWAP3 SWAP1 SWAP2 SWAP1 DUP3 SWAP1 SUB ADD DUP2 DUP4 DUP8 DUP1 EXTCODESIZE ISZERO DUP1 ISZERO PUSH2 0x2B50 JUMPI PUSH1 0x0 DUP1 REVERT JUMPDEST POP GAS CALL ISZERO DUP1 ISZERO PUSH2 0x2B64 JUMPI RETURNDATASIZE PUSH1 0x0 DUP1 RETURNDATACOPY RETURNDATASIZE PUSH1 0x0 REVERT JUMPDEST POP POP PUSH1 0x76 SLOAD PUSH2 0x2B7C SWAP3 POP SWAP1 POP DUP3 PUSH4 0xFFFFFFFF PUSH2 0x254C AND JUMP JUMPDEST PUSH1 0x76 SSTORE POP JUMP JUMPDEST PUSH1 0x0 PUSH1 0x64 PUSH2 0x2B8E PUSH2 0x2AF1 JUMP JUMPDEST PUSH1 0x69 MUL DUP2 PUSH2 0x2B98 JUMPI INVALID JUMPDEST DIV DUP3 GT ISZERO PUSH2 0x2BBC JUMPI PUSH1 0x64 PUSH2 0x2BAA PUSH2 0x2AF1 JUMP JUMPDEST PUSH1 0x69 MUL DUP2 PUSH2 0x2BB4 JUMPI INVALID JUMPDEST DIV SWAP1 POP PUSH2 0x19F8 JUMP JUMPDEST PUSH1 0x64 PUSH2 0x2BC6 PUSH2 0x2AF1 JUMP JUMPDEST PUSH1 0x5F MUL DUP2 PUSH2 0x2BD0 JUMPI INVALID JUMPDEST DIV DUP3 LT ISZERO PUSH2 0x2BEC JUMPI PUSH1 0x64 PUSH2 0x2BE2 PUSH2 0x2AF1 JUMP JUMPDEST PUSH1 0x5F MUL DUP2 PUSH2 0x2BB4 JUMPI INVALID JUMPDEST POP SWAP1 JUMP JUMPDEST PUSH1 0x0 PUSH7 0x38D7EA4C68000 DUP3 GT ISZERO PUSH2 0x2C0F JUMPI POP PUSH7 0x38D7EA4C68000 PUSH2 0x19F8 JUMP JUMPDEST PUSH4 0x3B9ACA00 DUP3 LT ISZERO PUSH2 0x2BEC JUMPI POP PUSH4 0x3B9ACA00 PUSH2 0x19F8 JUMP JUMPDEST PUSH1 0x0 PUSH2 0x16DE DUP4 DUP4 PUSH1 0x40 MLOAD DUP1 PUSH1 0x40 ADD PUSH1 0x40 MSTORE DUP1 PUSH1 0x1E DUP2 MSTORE PUSH1 0x20 ADD PUSH32 0x536166654D6174683A207375627472616374696F6E206F766572666C6F770000 DUP2 MSTORE POP PUSH2 0x2D75 JUMP JUMPDEST PUSH1 0x0 DUP3 PUSH2 0x2C77 JUMPI POP PUSH1 0x0 PUSH2 0x10B9 JUMP JUMPDEST DUP3 DUP3 MUL DUP3 DUP5 DUP3 DUP2 PUSH2 0x2C84 JUMPI INVALID JUMPDEST DIV EQ PUSH2 0x16DE JUMPI PUSH1 0x40 MLOAD PUSH3 0x461BCD PUSH1 0xE5 SHL DUP2 MSTORE PUSH1 0x4 ADD DUP1 DUP1 PUSH1 0x20 ADD DUP3 DUP2 SUB DUP3 MSTORE PUSH1 0x21 DUP2 MSTORE PUSH1 0x20 ADD DUP1 PUSH2 0x2F72 PUSH1 0x21 SWAP2 CODECOPY PUSH1 0x40 ADD SWAP2 POP POP PUSH1 0x40 MLOAD DUP1 SWAP2 SUB SWAP1 REVERT JUMPDEST PUSH1 0x0 PUSH2 0x16DE DUP4 DUP4 PUSH1 0x40 MLOAD DUP1 PUSH1 0x40 ADD PUSH1 0x40 MSTORE DUP1 PUSH1 0x1A DUP2 MSTORE PUSH1 0x20 ADD PUSH32 0x536166654D6174683A206469766973696F6E206279207A65726F000000000000 DUP2 MSTORE POP PUSH2 0x2E0C JUMP JUMPDEST PUSH2 0x2D0B PUSH2 0x2EE7 JUMP JUMPDEST PUSH1 0x40 DUP1 MLOAD PUSH1 0x60 DUP2 ADD SWAP1 SWAP2 MSTORE DUP3 MLOAD DUP5 MLOAD DUP3 SWAP2 PUSH2 0x2D2C SWAP2 SWAP1 PUSH4 0xFFFFFFFF PUSH2 0x254C AND JUMP JUMPDEST DUP2 MSTORE PUSH1 0x20 ADD PUSH2 0x2D4C DUP5 PUSH1 0x20 ADD MLOAD DUP7 PUSH1 0x20 ADD MLOAD PUSH2 0x254C SWAP1 SWAP2 SWAP1 PUSH4 0xFFFFFFFF AND JUMP JUMPDEST DUP2 MSTORE PUSH1 0x20 ADD PUSH2 0x2D6C DUP5 PUSH1 0x40 ADD MLOAD DUP7 PUSH1 0x40 ADD MLOAD PUSH2 0x254C SWAP1 SWAP2 SWAP1 PUSH4 0xFFFFFFFF AND JUMP JUMPDEST SWAP1 MSTORE SWAP4 SWAP3 POP POP POP JUMP JUMPDEST PUSH1 0x0 DUP2 DUP5 DUP5 GT ISZERO PUSH2 0x2E04 JUMPI PUSH1 0x40 MLOAD PUSH3 0x461BCD PUSH1 0xE5 SHL DUP2 MSTORE PUSH1 0x4 ADD DUP1 DUP1 PUSH1 0x20 ADD DUP3 DUP2 SUB DUP3 MSTORE DUP4 DUP2 DUP2 MLOAD DUP2 MSTORE PUSH1 0x20 ADD SWAP2 POP DUP1 MLOAD SWAP1 PUSH1 0x20 ADD SWAP1 DUP1 DUP4 DUP4 PUSH1 0x0 JUMPDEST DUP4 DUP2 LT ISZERO PUSH2 0x2DC9 JUMPI DUP2 DUP2 ADD MLOAD DUP4 DUP3 ADD MSTORE PUSH1 0x20 ADD PUSH2 0x2DB1 JUMP JUMPDEST POP POP POP POP SWAP1 POP SWAP1 DUP2 ADD SWAP1 PUSH1 0x1F AND DUP1 ISZERO PUSH2 0x2DF6 JUMPI DUP1 DUP3 SUB DUP1 MLOAD PUSH1 0x1 DUP4 PUSH1 0x20 SUB PUSH2 0x100 EXP SUB NOT AND DUP2 MSTORE PUSH1 0x20 ADD SWAP2 POP JUMPDEST POP SWAP3 POP POP POP PUSH1 0x40 MLOAD DUP1 SWAP2 SUB SWAP1 REVERT JUMPDEST POP POP POP SWAP1 SUB SWAP1 JUMP JUMPDEST PUSH1 0x0 DUP2 DUP4 PUSH2 0x2E5B JUMPI PUSH1 0x40 MLOAD PUSH3 0x461BCD PUSH1 0xE5 SHL DUP2 MSTORE PUSH1 0x20 PUSH1 0x4 DUP3 ADD DUP2 DUP2 MSTORE DUP4 MLOAD PUSH1 0x24 DUP5 ADD MSTORE DUP4 MLOAD SWAP1 SWAP3 DUP4 SWAP3 PUSH1 0x44 SWAP1 SWAP2 ADD SWAP2 SWAP1 DUP6 ADD SWAP1 DUP1 DUP4 DUP4 PUSH1 0x0 DUP4 ISZERO PUSH2 0x2DC9 JUMPI DUP2 DUP2 ADD MLOAD DUP4 DUP3 ADD MSTORE PUSH1 0x20 ADD PUSH2 0x2DB1 JUMP JUMPDEST POP PUSH1 0x0 DUP4 DUP6 DUP2 PUSH2 0x2E67 JUMPI INVALID JUMPDEST DIV SWAP6 SWAP5 POP POP POP POP POP JUMP JUMPDEST DUP3 DUP1 SLOAD DUP3 DUP3 SSTORE SWAP1 PUSH1 0x0 MSTORE PUSH1 0x20 PUSH1 0x0 KECCAK256 SWAP1 DUP2 ADD SWAP3 DUP3 ISZERO PUSH2 0x2EAC JUMPI SWAP2 PUSH1 0x20 MUL DUP3 ADD JUMPDEST DUP3 DUP2 GT ISZERO PUSH2 0x2EAC JUMPI DUP3 CALLDATALOAD DUP3 SSTORE SWAP2 PUSH1 0x20 ADD SWAP2 SWAP1 PUSH1 0x1 ADD SWAP1 PUSH2 0x2E91 JUMP JUMPDEST POP PUSH2 0x2BEC SWAP3 SWAP2 POP PUSH2 0x2F08 JUMP JUMPDEST PUSH1 0x40 MLOAD DUP1 PUSH1 0xA0 ADD PUSH1 0x40 MSTORE DUP1 PUSH1 0x60 DUP2 MSTORE PUSH1 0x20 ADD PUSH1 0x0 DUP2 MSTORE PUSH1 0x20 ADD PUSH1 0x60 DUP2 MSTORE PUSH1 0x20 ADD PUSH1 0x0 DUP2 MSTORE PUSH1 0x20 ADD PUSH1 0x0 DUP2 MSTORE POP SWAP1 JUMP JUMPDEST PUSH1 0x40 MLOAD DUP1 PUSH1 0x60 ADD PUSH1 0x40 MSTORE DUP1 PUSH1 0x0 DUP2 MSTORE PUSH1 0x20 ADD PUSH1 0x0 DUP2 MSTORE PUSH1 0x20 ADD PUSH1 0x0 DUP2 MSTORE POP SWAP1 JUMP JUMPDEST PUSH2 0xD67 SWAP2 SWAP1 JUMPDEST DUP1 DUP3 GT ISZERO PUSH2 0x2BEC JUMPI PUSH1 0x0 DUP2 SSTORE PUSH1 0x1 ADD PUSH2 0x2F0E JUMP INVALID 0x4F PUSH24 0x6E61626C653A206E6577206F776E65722069732074686520 PUSH27 0x65726F206164647265737363616C6C6572206973206E6F74207468 PUSH6 0x204E6F646544 PUSH19 0x697665724175746820636F6E74726163745361 PUSH7 0x654D6174683A20 PUSH14 0x756C7469706C69636174696F6E20 PUSH16 0x766572666C6F774F776E61626C653A20 PUSH4 0x616C6C65 PUSH19 0x206973206E6F7420746865206F776E6572436F PUSH15 0x747261637420696E7374616E636520 PUSH9 0x617320616C72656164 PUSH26 0x206265656E20696E697469616C697A6564A265627A7A72315820 0xF 0xA9 PUSH26 0xF9ECDA1C08BC6A0240999A396A6F399A5A64038C456B2271F7C8 0xE1 0xEB 0xBB PUSH5 0x736F6C6343 STOP SDIV GT STOP ORIGIN ",
  "sha1": "f190b46ca64c32b35ea2e5765f039384eb1dae48",
  "source": "pragma solidity ^0.5.0;\n\ninterface SFCI {\n    function currentSealedEpoch() external view returns (uint256);\n\n    function getEpochSnapshot(uint256) external view returns (uint256 endTime, uint256 epochFee, uint256 totalBaseRewardWeight, uint256 totalTxRewardWeight, uint256 _baseRewardPerSecond, uint256 totalStake, uint256 totalSupply);\n\n    function getLockupInfo(address, uint256) external view returns (uint256 lockedStake, uint256 fromEpoch, uint256 endTime, uint256 duration);\n\n    function getStake(address, uint256) external view returns (uint256);\n\n    function getStashedLockupRewards(address, uint256) external view returns (uint256 lockupExtraReward, uint256 lockupBaseReward, uint256 unlockedReward);\n\n    function getValidator(uint256) external view returns (uint256 status, uint256 deactivatedTime, uint256 deactivatedEpoch, uint256 receivedStake, uint256 createdEpoch, uint256 createdTime, address auth);\n\n    function getValidatorID(address) external view returns (uint256);\n\n    function getValidatorPubkey(uint256) external view returns (bytes memory);\n\n    function getWithdrawalRequest(address, uint256, uint256) external view returns (uint256 epoch, uint256 time, uint256 amount);\n\n    function isOwner() external view returns (bool);\n\n    function lastValidatorID() external view returns (uint256);\n\n    function minGasPrice() external view returns (uint256);\n\n    function owner() external view returns (address);\n\n    function renounceOwnership() external;\n\n    function slashingRefundRatio(uint256) external view returns (uint256);\n\n    function stakeTokenizerAddress() external view returns (address);\n\n    function stashedRewardsUntilEpoch(address, uint256) external view returns (uint256);\n\n    function totalActiveStake() external view returns (uint256);\n\n    function totalSlashedStake() external view returns (uint256);\n\n    function totalStake() external view returns (uint256);\n\n    function totalSupply() external view returns (uint256);\n\n    function transferOwnership(address newOwner) external;\n\n    function treasuryAddress() external view returns (address);\n\n    function version() external pure returns (bytes3);\n\n    function currentEpoch() external view returns (uint256);\n\n    function updateConstsAddress(address v) external;\n\n    function constsAddress() external view returns (address);\n\n    function getEpochValidatorIDs(uint256 epoch) external view returns (uint256[] memory);\n\n    function getEpochReceivedStake(uint256 epoch, uint256 validatorID) external view returns (uint256);\n\n    function getEpochAccumulatedRewardPerToken(uint256 epoch, uint256 validatorID) external view returns (uint256);\n\n    function getEpochAccumulatedUptime(uint256 epoch, uint256 validatorID) external view returns (uint256);\n\n    function getEpochAccumulatedOriginatedTxsFee(uint256 epoch, uint256 validatorID) external view returns (uint256);\n\n    function getEpochOfflineTime(uint256 epoch, uint256 validatorID) external view returns (uint256);\n\n    function getEpochOfflineBlocks(uint256 epoch, uint256 validatorID) external view returns (uint256);\n\n    function rewardsStash(address delegator, uint256 validatorID) external view returns (uint256);\n\n    function getLockedStake(address delegator, uint256 toValidatorID) external view returns (uint256);\n\n    function createValidator(bytes calldata pubkey) external payable;\n\n    function getSelfStake(uint256 validatorID) external view returns (uint256);\n\n    function delegate(uint256 toValidatorID) external payable;\n\n    function undelegate(uint256 toValidatorID, uint256 wrID, uint256 amount) external;\n\n    function isSlashed(uint256 validatorID) external view returns (bool);\n\n    function withdraw(uint256 toValidatorID, uint256 wrID) external;\n\n    function deactivateValidator(uint256 validatorID, uint256 status) external;\n\n    function pendingRewards(address delegator, uint256 toValidatorID) external view returns (uint256);\n\n    function stashRewards(address delegator, uint256 toValidatorID) external;\n\n    function claimRewards(uint256 toValidatorID) external;\n\n    function restakeRewards(uint256 toValidatorID) external;\n\n    function updateBaseRewardPerSecond(uint256 value) external;\n\n    function updateOfflinePenaltyThreshold(uint256 blocksNum, uint256 time) external;\n\n    function updateSlashingRefundRatio(uint256 validatorID, uint256 refundRatio) external;\n\n    function updateStakeTokenizerAddress(address addr) external;\n\n    function updateTreasuryAddress(address v) external;\n\n    function mintFTM(address receiver, uint256 amount, string calldata justification) external;\n\n    function burnFTM(uint256 amount) external;\n\n    function sealEpoch(uint256[] calldata offlineTime, uint256[] calldata offlineBlocks, uint256[] calldata uptimes, uint256[] calldata originatedTxsFee, uint256 epochGas) external;\n\n    function sealEpochValidators(uint256[] calldata nextValidatorIDs) external;\n\n    function isLockedUp(address delegator, uint256 toValidatorID) external view returns (bool);\n\n    function getUnlockedStake(address delegator, uint256 toValidatorID) external view returns (uint256);\n\n    function lockStake(uint256 toValidatorID, uint256 lockupDuration, uint256 amount) external;\n\n    function relockStake(uint256 toValidatorID, uint256 lockupDuration, uint256 amount) external;\n\n    function unlockStake(uint256 toValidatorID, uint256 amount) external returns (uint256);\n\n    function initialize(uint256 sealedEpoch, uint256 _totalSupply, address nodeDriver, address lib, address consts, address _owner) external;\n\n    function setGenesisValidator(address auth, uint256 validatorID, bytes calldata pubkey, uint256 status, uint256 createdEpoch, uint256 createdTime, uint256 deactivatedEpoch, uint256 deactivatedTime) external;\n\n    function setGenesisDelegation(address delegator, uint256 toValidatorID, uint256 stake, uint256 lockedStake, uint256 lockupFromEpoch, uint256 lockupEndTime, uint256 lockupDuration, uint256 earlyUnlockPenalty, uint256 rewards) external;\n\n    function updateVoteBookAddress(address v) external;\n\n    function voteBookAddress(address v) external view returns (address);\n}\n\n// File: contracts/common/Initializable.sol\n\npragma solidity >=0.4.24 <0.7.0;\n\n\n/**\n * @title Initializable\n *\n * @dev Helper contract to support initializer functions. To use it, replace\n * the constructor with a function that has the `initializer` modifier.\n * WARNING: Unlike constructors, initializer functions must be manually\n * invoked. This applies both to deploying an Initializable contract, as well\n * as extending an Initializable contract via inheritance.\n * WARNING: When used with inheritance, manual care must be taken to not invoke\n * a parent initializer twice, or ensure that all initializers are idempotent,\n * because this is not dealt with automatically as with constructors.\n */\ncontract Initializable {\n\n  /**\n   * @dev Indicates that the contract has been initialized.\n   */\n  bool private initialized;\n\n  /**\n   * @dev Indicates that the contract is in the process of being initialized.\n   */\n  bool private initializing;\n\n  /**\n   * @dev Modifier to use in the initializer function of a contract.\n   */\n  modifier initializer() {\n    require(initializing || isConstructor() || !initialized, \"Contract instance has already been initialized\");\n\n    bool isTopLevelCall = !initializing;\n    if (isTopLevelCall) {\n      initializing = true;\n      initialized = true;\n    }\n\n    _;\n\n    if (isTopLevelCall) {\n      initializing = false;\n    }\n  }\n\n  /// @dev Returns true if and only if the function is running in the constructor\n  function isConstructor() private view returns (bool) {\n    // extcodesize checks the size of the code stored in an address, and\n    // address returns the current address. Since the code is still not\n    // deployed when running a constructor, any checks on its code size will\n    // yield zero, making it an effective way to detect if a contract is\n    // under construction or not.\n    address self = address(this);\n    uint256 cs;\n    assembly { cs := extcodesize(self) }\n    return cs == 0;\n  }\n\n  // Reserved storage space to allow for layout changes in the future.\n  uint256[50] private ______gap;\n}\n\n// File: contracts/ownership/Ownable.sol\n\npragma solidity ^0.5.0;\n\n\n/**\n * @dev Contract module which provides a basic access control mechanism, where\n * there is an account (an owner) that can be granted exclusive access to\n * specific functions.\n *\n * This module is used through inheritance. It will make available the modifier\n * `onlyOwner`, which can be aplied to your functions to restrict their use to\n * the owner.\n */\ncontract Ownable is Initializable {\n    address private _owner;\n\n    event OwnershipTransferred(address indexed previousOwner, address indexed newOwner);\n\n    /**\n     * @dev Initializes the contract setting the deployer as the initial owner.\n     */\n    function initialize(address sender) internal initializer {\n        _owner = sender;\n        emit OwnershipTransferred(address(0), _owner);\n    }\n\n    /**\n     * @dev Returns the address of the current owner.\n     */\n    function owner() public view returns (address) {\n        return _owner;\n    }\n\n    /**\n     * @dev Throws if called by any account other than the owner.\n     */\n    modifier onlyOwner() {\n        require(isOwner(), \"Ownable: caller is not the owner\");\n        _;\n    }\n\n    /**\n     * @dev Returns true if the caller is the current owner.\n     */\n    function isOwner() public view returns (bool) {\n        return msg.sender == _owner;\n    }\n\n    /**\n     * @dev Leaves the contract without owner. It will not be possible to call\n     * `onlyOwner` functions anymore. Can only be called by the current owner.\n     *\n     * > Note: Renouncing ownership will leave the contract without an owner,\n     * thereby removing any functionality that is only available to the owner.\n     */\n    function renounceOwnership() public onlyOwner {\n        emit OwnershipTransferred(_owner, address(0));\n        _owner = address(0);\n    }\n\n    /**\n     * @dev Transfers ownership of the contract to a new account (`newOwner`).\n     * Can only be called by the current owner.\n     */\n    function transferOwnership(address newOwner) public onlyOwner {\n        _transferOwnership(newOwner);\n    }\n\n    /**\n     * @dev Transfers ownership of the contract to a new account (`newOwner`).\n     */\n    function _transferOwnership(address newOwner) internal {\n        require(newOwner != address(0), \"Ownable: new owner is the zero address\");\n        emit OwnershipTransferred(_owner, newOwner);\n        _owner = newOwner;\n    }\n\n    uint256[50] private ______gap;\n}\n\n// File: @openzeppelin/contracts/math/SafeMath.sol\n\npragma solidity ^0.5.0;\n\n/**\n * @dev Wrappers over Solidity's arithmetic operations with added overflow\n * checks.\n *\n * Arithmetic operations in Solidity wrap on overflow. This can easily result\n * in bugs, because programmers usually assume that an overflow raises an\n * error, which is the standard behavior in high level programming languages.\n * `SafeMath` restores this intuition by reverting the transaction when an\n * operation overflows.\n *\n * Using this library instead of the unchecked operations eliminates an entire\n * class of bugs, so it's recommended to use it always.\n */\nlibrary SafeMath {\n    /**\n     * @dev Returns the addition of two unsigned integers, reverting on\n     * overflow.\n     *\n     * Counterpart to Solidity's `+` operator.\n     *\n     * Requirements:\n     * - Addition cannot overflow.\n     */\n    function add(uint256 a, uint256 b) internal pure returns (uint256) {\n        uint256 c = a + b;\n        require(c >= a, \"SafeMath: addition overflow\");\n\n        return c;\n    }\n\n    /**\n     * @dev Returns the subtraction of two unsigned integers, reverting on\n     * overflow (when the result is negative).\n     *\n     * Counterpart to Solidity's `-` operator.\n     *\n     * Requirements:\n     * - Subtraction cannot overflow.\n     */\n    function sub(uint256 a, uint256 b) internal pure returns (uint256) {\n        return sub(a, b, \"SafeMath: subtraction overflow\");\n    }\n\n    /**\n     * @dev Returns the subtraction of two unsigned integers, reverting with custom message on\n     * overflow (when the result is negative).\n     *\n     * Counterpart to Solidity's `-` operator.\n     *\n     * Requirements:\n     * - Subtraction cannot overflow.\n     *\n     * _Available since v2.4.0._\n     */\n    function sub(uint256 a, uint256 b, string memory errorMessage) internal pure returns (uint256) {\n        require(b <= a, errorMessage);\n        uint256 c = a - b;\n\n        return c;\n    }\n\n    /**\n     * @dev Returns the multiplication of two unsigned integers, reverting on\n     * overflow.\n     *\n     * Counterpart to Solidity's `*` operator.\n     *\n     * Requirements:\n     * - Multiplication cannot overflow.\n     */\n    function mul(uint256 a, uint256 b) internal pure returns (uint256) {\n        // Gas optimization: this is cheaper than requiring 'a' not being zero, but the\n        // benefit is lost if 'b' is also tested.\n        // See: https://github.com/OpenZeppelin/openzeppelin-contracts/pull/522\n        if (a == 0) {\n            return 0;\n        }\n\n        uint256 c = a * b;\n        require(c / a == b, \"SafeMath: multiplication overflow\");\n\n        return c;\n    }\n\n    /**\n     * @dev Returns the integer division of two unsigned integers. Reverts on\n     * division by zero. The result is rounded towards zero.\n     *\n     * Counterpart to Solidity's `/` operator. Note: this function uses a\n     * `revert` opcode (which leaves remaining gas untouched) while Solidity\n     * uses an invalid opcode to revert (consuming all remaining gas).\n     *\n     * Requirements:\n     * - The divisor cannot be zero.\n     */\n    function div(uint256 a, uint256 b) internal pure returns (uint256) {\n        return div(a, b, \"SafeMath: division by zero\");\n    }\n\n    /**\n     * @dev Returns the integer division of two unsigned integers. Reverts with custom message on\n     * division by zero. The result is rounded towards zero.\n     *\n     * Counterpart to Solidity's `/` operator. Note: this function uses a\n     * `revert` opcode (which leaves remaining gas untouched) while Solidity\n     * uses an invalid opcode to revert (consuming all remaining gas).\n     *\n     * Requirements:\n     * - The divisor cannot be zero.\n     *\n     * _Available since v2.4.0._\n     */\n    function div(uint256 a, uint256 b, string memory errorMessage) internal pure returns (uint256) {\n        // Solidity only automatically asserts when dividing by 0\n        require(b > 0, errorMessage);\n        uint256 c = a / b;\n        // assert(a == b * c + a % b); // There is no case in which this doesn't hold\n\n        return c;\n    }\n\n    /**\n     * @dev Returns the remainder of dividing two unsigned integers. (unsigned integer modulo),\n     * Reverts when dividing by zero.\n     *\n     * Counterpart to Solidity's `%` operator. This function uses a `revert`\n     * opcode (which leaves remaining gas untouched) while Solidity uses an\n     * invalid opcode to revert (consuming all remaining gas).\n     *\n     * Requirements:\n     * - The divisor cannot be zero.\n     */\n    function mod(uint256 a, uint256 b) internal pure returns (uint256) {\n        return mod(a, b, \"SafeMath: modulo by zero\");\n    }\n\n    /**\n     * @dev Returns the remainder of dividing two unsigned integers. (unsigned integer modulo),\n     * Reverts with custom message when dividing by zero.\n     *\n     * Counterpart to Solidity's `%` operator. This function uses a `revert`\n     * opcode (which leaves remaining gas untouched) while Solidity uses an\n     * invalid opcode to revert (consuming all remaining gas).\n     *\n     * Requirements:\n     * - The divisor cannot be zero.\n     *\n     * _Available since v2.4.0._\n     */\n    function mod(uint256 a, uint256 b, string memory errorMessage) internal pure returns (uint256) {\n        require(b != 0, errorMessage);\n        return a % b;\n    }\n}\n\n// File: contracts/sfc/NodeDriver.sol\n\npragma solidity ^0.5.0;\n\n\n\n\n\n\ninterface NodeDriverExecutable {\n    function execute() external;\n}\n\ncontract NodeDriverAuth is Initializable, Ownable {\n    using SafeMath for uint256;\n\n    SFCI internal sfc;\n    NodeDriver internal driver;\n\n    // Initialize NodeDriverAuth, NodeDriver and SFC in one call to allow fewer genesis transactions\n    function initialize(address payable _sfc, address _driver, address _owner) external initializer {\n        Ownable.initialize(_owner);\n        driver = NodeDriver(_driver);\n        sfc = SFCI(_sfc);\n    }\n\n    modifier onlySFC() {\n        require(msg.sender == address(sfc), \"caller is not the SFC contract\");\n        _;\n    }\n\n    modifier onlyDriver() {\n        require(msg.sender == address(driver), \"caller is not the NodeDriver contract\");\n        _;\n    }\n\n    function migrateTo(address newDriverAuth) external onlyOwner {\n        driver.setBackend(newDriverAuth);\n    }\n\n    function _execute(address executable, address newOwner, bytes32 selfCodeHash, bytes32 driverCodeHash) internal {\n        _transferOwnership(executable);\n        NodeDriverExecutable(executable).execute();\n        _transferOwnership(newOwner);\n        //require(driver.backend() == address(this), \"ownership of driver is lost\");\n        require(_getCodeHash(address(this)) == selfCodeHash, \"self code hash doesn't match\");\n        require(_getCodeHash(address(driver)) == driverCodeHash, \"driver code hash doesn't match\");\n    }\n\n    function execute(address executable) external onlyOwner {\n        _execute(executable, owner(), _getCodeHash(address(this)), _getCodeHash(address(driver)));\n    }\n\n    function mutExecute(address executable, address newOwner, bytes32 selfCodeHash, bytes32 driverCodeHash) external onlyOwner {\n        _execute(executable, newOwner, selfCodeHash, driverCodeHash);\n    }\n\n    function incBalance(address acc, uint256 diff) external onlySFC {\n        require(acc == address(sfc), \"recipient is not the SFC contract\");\n        driver.setBalance(acc, address(acc).balance.add(diff));\n    }\n\n    function upgradeCode(address acc, address from) external onlyOwner {\n        require(isContract(acc) && isContract(from), \"not a contract\");\n        driver.copyCode(acc, from);\n    }\n\n    function copyCode(address acc, address from) external onlyOwner {\n        driver.copyCode(acc, from);\n    }\n\n    function incNonce(address acc, uint256 diff) external onlyOwner {\n        driver.incNonce(acc, diff);\n    }\n\n    function updateNetworkRules(bytes calldata diff) external onlyOwner {\n        driver.updateNetworkRules(diff);\n    }\n\n    function updateMinGasPrice(uint256 minGasPrice) external onlySFC {\n        driver.updateNetworkRules(bytes(strConcat(\"{\\\"Economy\\\":{\\\"MinGasPrice\\\":\", uint256ToStr(minGasPrice), \"}}\")));\n    }\n\n    function updateNetworkVersion(uint256 version) external onlyOwner {\n        driver.updateNetworkVersion(version);\n    }\n\n    function advanceEpochs(uint256 num) external onlyOwner {\n        driver.advanceEpochs(num);\n    }\n\n    function updateValidatorWeight(uint256 validatorID, uint256 value) external onlySFC {\n        driver.updateValidatorWeight(validatorID, value);\n    }\n\n    function updateValidatorPubkey(uint256 validatorID, bytes calldata pubkey) external onlySFC {\n        driver.updateValidatorPubkey(validatorID, pubkey);\n    }\n\n    function setGenesisValidator(address _auth, uint256 validatorID, bytes calldata pubkey, uint256 status, uint256 createdEpoch, uint256 createdTime, uint256 deactivatedEpoch, uint256 deactivatedTime) external onlyDriver {\n        sfc.setGenesisValidator(_auth, validatorID, pubkey, status, createdEpoch, createdTime, deactivatedEpoch, deactivatedTime);\n    }\n\n    function setGenesisDelegation(address delegator, uint256 toValidatorID, uint256 stake, uint256 lockedStake, uint256 lockupFromEpoch, uint256 lockupEndTime, uint256 lockupDuration, uint256 earlyUnlockPenalty, uint256 rewards) external onlyDriver {\n        sfc.setGenesisDelegation(delegator, toValidatorID, stake, lockedStake, lockupFromEpoch, lockupEndTime, lockupDuration, earlyUnlockPenalty, rewards);\n    }\n\n    function deactivateValidator(uint256 validatorID, uint256 status) external onlyDriver {\n        sfc.deactivateValidator(validatorID, status);\n    }\n\n    function sealEpochValidators(uint256[] calldata nextValidatorIDs) external onlyDriver {\n        sfc.sealEpochValidators(nextValidatorIDs);\n    }\n\n    function sealEpoch(uint256[] calldata offlineTimes, uint256[] calldata offlineBlocks, uint256[] calldata uptimes, uint256[] calldata originatedTxsFee, uint256 usedGas) external onlyDriver {\n        sfc.sealEpoch(offlineTimes, offlineBlocks, uptimes, originatedTxsFee, usedGas);\n    }\n\n    function isContract(address account) internal view returns (bool) {\n        uint256 size;\n        // solhint-disable-next-line no-inline-assembly\n        assembly {size := extcodesize(account)}\n        return size > 0;\n    }\n\n    function decimalsNum(uint256 num) internal pure returns (uint256) {\n        uint decimals;\n        while (num != 0) {\n            decimals++;\n            num /= 10;\n        }\n        return decimals;\n    }\n\n    function uint256ToStr(uint256 num) internal pure returns (string memory) {\n        if (num == 0) {\n            return \"0\";\n        }\n        uint decimals = decimalsNum(num);\n        bytes memory bstr = new bytes(decimals);\n        uint strIdx = decimals - 1;\n        while (num != 0) {\n            bstr[strIdx] = byte(uint8(48 + num % 10));\n            num /= 10;\n            strIdx--;\n        }\n        return string(bstr);\n    }\n\n    function strConcat(string memory _a, string memory _b, string memory _c) internal pure returns (string memory) {\n        bytes memory _ba = bytes(_a);\n        bytes memory _bb = bytes(_b);\n        bytes memory _bc = bytes(_c);\n        string memory abc = new string(_ba.length + _bb.length + _bc.length);\n        bytes memory babc = bytes(abc);\n        uint k = 0;\n        uint i = 0;\n        for (i = 0; i < _ba.length; i++) {\n            babc[k++] = _ba[i];\n        }\n        for (i = 0; i < _bb.length; i++) {\n            babc[k++] = _bb[i];\n        }\n        for (i = 0; i < _bc.length; i++) {\n            babc[k++] = _bc[i];\n        }\n        return string(babc);\n    }\n\n    function _getCodeHash(address addr) internal view returns (bytes32) {\n        bytes32 codeHash;\n        assembly {codeHash := extcodehash(addr)}\n        return codeHash;\n    }\n}\n\ncontract NodeDriver is Initializable {\n    uint256 private erased0;\n    NodeDriverAuth internal backend;\n    EVMWriter internal evmWriter;\n\n    event UpdatedBackend(address indexed backend);\n\n    function setBackend(address _backend) external onlyBackend {\n        emit UpdatedBackend(_backend);\n        backend = NodeDriverAuth(_backend);\n    }\n\n    modifier onlyBackend() {\n        require(msg.sender == address(backend), \"caller is not the backend\");\n        _;\n    }\n\n    event UpdateValidatorWeight(uint256 indexed validatorID, uint256 weight);\n    event UpdateValidatorPubkey(uint256 indexed validatorID, bytes pubkey);\n\n    event UpdateNetworkRules(bytes diff);\n    event UpdateNetworkVersion(uint256 version);\n    event AdvanceEpochs(uint256 num);\n\n    function initialize(address _backend, address _evmWriterAddress) external initializer {\n        backend = NodeDriverAuth(_backend);\n        emit UpdatedBackend(_backend);\n        evmWriter = EVMWriter(_evmWriterAddress);\n    }\n\n    function setBalance(address acc, uint256 value) external onlyBackend {\n        evmWriter.setBalance(acc, value);\n    }\n\n    function copyCode(address acc, address from) external onlyBackend {\n        evmWriter.copyCode(acc, from);\n    }\n\n    function swapCode(address acc, address with) external onlyBackend {\n        evmWriter.swapCode(acc, with);\n    }\n\n    function setStorage(address acc, bytes32 key, bytes32 value) external onlyBackend {\n        evmWriter.setStorage(acc, key, value);\n    }\n\n    function incNonce(address acc, uint256 diff) external onlyBackend {\n        evmWriter.incNonce(acc, diff);\n    }\n\n    function updateNetworkRules(bytes calldata diff) external onlyBackend {\n        emit UpdateNetworkRules(diff);\n    }\n\n    function updateNetworkVersion(uint256 version) external onlyBackend {\n        emit UpdateNetworkVersion(version);\n    }\n\n    function advanceEpochs(uint256 num) external onlyBackend {\n        emit AdvanceEpochs(num);\n    }\n\n    function updateValidatorWeight(uint256 validatorID, uint256 value) external onlyBackend {\n        emit UpdateValidatorWeight(validatorID, value);\n    }\n\n    function updateValidatorPubkey(uint256 validatorID, bytes calldata pubkey) external onlyBackend {\n        emit UpdateValidatorPubkey(validatorID, pubkey);\n    }\n\n    modifier onlyNode() {\n        require(msg.sender == address(0), \"not callable\");\n        _;\n    }\n\n    // Methods which are called only by the node\n\n    function setGenesisValidator(address _auth, uint256 validatorID, bytes calldata pubkey, uint256 status, uint256 createdEpoch, uint256 createdTime, uint256 deactivatedEpoch, uint256 deactivatedTime) external onlyNode {\n        backend.setGenesisValidator(_auth, validatorID, pubkey, status, createdEpoch, createdTime, deactivatedEpoch, deactivatedTime);\n    }\n\n    function setGenesisDelegation(address delegator, uint256 toValidatorID, uint256 stake, uint256 lockedStake, uint256 lockupFromEpoch, uint256 lockupEndTime, uint256 lockupDuration, uint256 earlyUnlockPenalty, uint256 rewards) external onlyNode {\n        backend.setGenesisDelegation(delegator, toValidatorID, stake, lockedStake, lockupFromEpoch, lockupEndTime, lockupDuration, earlyUnlockPenalty, rewards);\n    }\n\n    function deactivateValidator(uint256 validatorID, uint256 status) external onlyNode {\n        backend.deactivateValidator(validatorID, status);\n    }\n\n    function sealEpochValidators(uint256[] calldata nextValidatorIDs) external onlyNode {\n        backend.sealEpochValidators(nextValidatorIDs);\n    }\n\n    function sealEpoch(uint256[] calldata offlineTimes, uint256[] calldata offlineBlocks, uint256[] calldata uptimes, uint256[] calldata originatedTxsFee) external onlyNode {\n        backend.sealEpoch(offlineTimes, offlineBlocks, uptimes, originatedTxsFee, 841669690);\n    }\n\n    function sealEpochV1(uint256[] calldata offlineTimes, uint256[] calldata offlineBlocks, uint256[] calldata uptimes, uint256[] calldata originatedTxsFee, uint256 usedGas) external onlyNode {\n        backend.sealEpoch(offlineTimes, offlineBlocks, uptimes, originatedTxsFee, usedGas);\n    }\n}\n\ninterface EVMWriter {\n    function setBalance(address acc, uint256 value) external;\n\n    function copyCode(address acc, address from) external;\n\n    function swapCode(address acc, address with) external;\n\n    function setStorage(address acc, bytes32 key, bytes32 value) external;\n\n    function incNonce(address acc, uint256 diff) external;\n}\n\n// File: contracts/version/Version.sol\n\npragma solidity ^0.5.0;\n\n/**\n * @dev Version contract gives the versioning information of the implementation contract\n */\ncontract Version {\n    /**\n     * @dev Returns the address of the current owner.\n     */\n    function version() public pure returns (bytes3) {\n        // version 3.0.4\n        return \"304\";\n    }\n}\n\n// File: contracts/common/Decimal.sol\n\npragma solidity ^0.5.0;\n\nlibrary Decimal {\n    // unit is used for decimals, e.g. 0.123456\n    function unit() internal pure returns (uint256) {\n        return 1e18;\n    }\n}\n\n// File: contracts/sfc/ConstantsManager.sol\n\npragma solidity ^0.5.0;\n\n\n\n\ncontract ConstantsManager is Ownable {\n    using SafeMath for uint256;\n\n    // Minimum amount of stake for a validator, i.e., 500000 FTM\n    uint256 public minSelfStake;\n    // Maximum ratio of delegations a validator can have, say, 15 times of self-stake\n    uint256 public maxDelegatedRatio;\n    // The commission fee in percentage a validator will get from a delegation, e.g., 15%\n    uint256 public validatorCommission;\n    // The percentage of fees to burn, e.g., 20%\n    uint256 public burntFeeShare;\n    // The percentage of fees to transfer to treasury address, e.g., 10%\n    uint256 public treasuryFeeShare;\n    // The ratio of the reward rate at base rate (no lock), e.g., 30%\n    uint256 public unlockedRewardRatio;\n    // The minimum duration of a stake/delegation lockup, e.g. 2 weeks\n    uint256 public minLockupDuration;\n    // The maximum duration of a stake/delegation lockup, e.g. 1 year\n    uint256 public maxLockupDuration;\n    // the number of epochs that undelegated stake is locked for\n    uint256 public withdrawalPeriodEpochs;\n    // the number of seconds that undelegated stake is locked for\n    uint256 public withdrawalPeriodTime;\n\n    uint256 public baseRewardPerSecond;\n    uint256 public offlinePenaltyThresholdBlocksNum;\n    uint256 public offlinePenaltyThresholdTime;\n    uint256 public targetGasPowerPerSecond;\n    uint256 public gasPriceBalancingCounterweight;\n\n    address private secondaryOwner_erased;\n\n//    event SecondaryOwnershipTransferred(address indexed previousOwner, address indexed newOwner);\n\n    function initialize() external initializer {\n        Ownable.initialize(msg.sender);\n    }\n\n//    function setSecondaryOwner(address v) onlyOwner external {\n//        emit SecondaryOwnershipTransferred(secondaryOwner, v);\n//        secondaryOwner = v;\n//    }\n\n    function updateMinSelfStake(uint256 v) onlyOwner external {\n        require(v >= 100000 * 1e18, \"too small value\");\n        require(v <= 10000000 * 1e18, \"too large value\");\n        minSelfStake = v;\n    }\n\n    function updateMaxDelegatedRatio(uint256 v) onlyOwner external {\n        require(v >= Decimal.unit(), \"too small value\");\n        require(v <= 31 * Decimal.unit(), \"too large value\");\n        maxDelegatedRatio = v;\n    }\n\n    function updateValidatorCommission(uint256 v) onlyOwner external {\n        require(v <= Decimal.unit() / 2, \"too large value\");\n        validatorCommission = v;\n    }\n\n    function updateBurntFeeShare(uint256 v) onlyOwner external {\n        require(v <= Decimal.unit() / 2, \"too large value\");\n        burntFeeShare = v;\n    }\n\n    function updateTreasuryFeeShare(uint256 v) onlyOwner external {\n        require(v <= Decimal.unit() / 2, \"too large value\");\n        treasuryFeeShare = v;\n    }\n\n    function updateUnlockedRewardRatio(uint256 v) onlyOwner external {\n        require(v >= (5 * Decimal.unit()) / 100, \"too small value\");\n        require(v <= Decimal.unit() / 2, \"too large value\");\n        unlockedRewardRatio = v;\n    }\n\n    function updateMinLockupDuration(uint256 v) onlyOwner external {\n        require(v >= 86400, \"too small value\");\n        require(v <= 86400 * 30, \"too large value\");\n        minLockupDuration = v;\n    }\n\n    function updateMaxLockupDuration(uint256 v) onlyOwner external {\n        require(v >= 86400 * 30, \"too small value\");\n        require(v <= 86400 * 1460, \"too large value\");\n        maxLockupDuration = v;\n    }\n\n    function updateWithdrawalPeriodEpochs(uint256 v) onlyOwner external {\n        require(v >= 2, \"too small value\");\n        require(v <= 100, \"too large value\");\n        withdrawalPeriodEpochs = v;\n    }\n\n    function updateWithdrawalPeriodTime(uint256 v) onlyOwner external {\n        require(v >= 86400, \"too small value\");\n        require(v <= 30 * 86400, \"too large value\");\n        withdrawalPeriodTime = v;\n    }\n\n    function updateBaseRewardPerSecond(uint256 v) onlyOwner external {\n        require(v >= 0.5 * 1e18, \"too small value\");\n        require(v <= 32 * 1e18, \"too large value\");\n        baseRewardPerSecond = v;\n    }\n\n    function updateOfflinePenaltyThresholdTime(uint256 v) onlyOwner external {\n        require(v >= 86400, \"too small value\");\n        require(v <= 10 * 86400, \"too large value\");\n        offlinePenaltyThresholdTime = v;\n    }\n\n    function updateOfflinePenaltyThresholdBlocksNum(uint256 v) onlyOwner external {\n        require(v >= 100, \"too small value\");\n        require(v <= 1000000, \"too large value\");\n        offlinePenaltyThresholdBlocksNum = v;\n    }\n\n    function updateTargetGasPowerPerSecond(uint256 v) onlyOwner external {\n        require(v >= 1000000, \"too small value\");\n        require(v <= 500000000, \"too large value\");\n        targetGasPowerPerSecond = v;\n    }\n\n    function updateGasPriceBalancingCounterweight(uint256 v) onlyOwner external {\n        require(v >= 100, \"too small value\");\n        require(v <= 10 * 86400, \"too large value\");\n        gasPriceBalancingCounterweight = v;\n    }\n}\n\n// File: contracts/sfc/SFCState.sol\n\npragma solidity ^0.5.0;\n\n\n\n\ncontract SFCState is Initializable, Ownable {\n    using SafeMath for uint256;\n    /**\n     * @dev The staking for validation\n     */\n    struct Validator {\n        uint256 status;\n        uint256 deactivatedTime;\n        uint256 deactivatedEpoch;\n\n        uint256 receivedStake;\n        uint256 createdEpoch;\n        uint256 createdTime;\n\n        address auth;\n    }\n\n    NodeDriverAuth internal node;\n\n    struct Rewards {\n        uint256 lockupExtraReward;\n        uint256 lockupBaseReward;\n        uint256 unlockedReward;\n    }\n\n    uint256 public currentSealedEpoch;\n    mapping(uint256 => Validator) public getValidator;\n    mapping(address => uint256) public getValidatorID;\n    mapping(uint256 => bytes) public getValidatorPubkey;\n\n    uint256 public lastValidatorID;\n    uint256 public totalStake;\n    uint256 public totalActiveStake;\n    uint256 public totalSlashedStake;\n\n    mapping(address => mapping(uint256 => Rewards)) internal _rewardsStash; // addr, validatorID -> Rewards\n\n    mapping(address => mapping(uint256 => uint256)) public stashedRewardsUntilEpoch;\n\n    struct WithdrawalRequest {\n        uint256 epoch;\n        uint256 time;\n\n        uint256 amount;\n    }\n\n    mapping(address => mapping(uint256 => mapping(uint256 => WithdrawalRequest))) public getWithdrawalRequest;\n\n    struct LockedDelegation {\n        uint256 lockedStake;\n        uint256 fromEpoch;\n        uint256 endTime;\n        uint256 duration;\n    }\n\n    mapping(address => mapping(uint256 => uint256)) public getStake;\n\n    mapping(address => mapping(uint256 => LockedDelegation)) public getLockupInfo;\n\n    mapping(address => mapping(uint256 => Rewards)) public getStashedLockupRewards;\n\n    struct EpochSnapshot {\n        mapping(uint256 => uint256) receivedStake;\n        mapping(uint256 => uint256) accumulatedRewardPerToken;\n        mapping(uint256 => uint256) accumulatedUptime;\n        mapping(uint256 => uint256) accumulatedOriginatedTxsFee;\n        mapping(uint256 => uint256) offlineTime;\n        mapping(uint256 => uint256) offlineBlocks;\n\n        uint256[] validatorIDs;\n\n        uint256 endTime;\n        uint256 epochFee;\n        uint256 totalBaseRewardWeight;\n        uint256 totalTxRewardWeight;\n        uint256 baseRewardPerSecond;\n        uint256 totalStake;\n        uint256 totalSupply;\n    }\n\n    uint256 private erased0;\n    uint256 public totalSupply;\n    mapping(uint256 => EpochSnapshot) public getEpochSnapshot;\n\n    uint256 private erased1;\n    uint256 private erased2;\n\n    mapping(uint256 => uint256) public slashingRefundRatio; // validator ID -> (slashing refund ratio)\n\n    address public stakeTokenizerAddress;\n\n    uint256 private erased3;\n    uint256 private erased4;\n    uint256 public minGasPrice;\n\n    address public treasuryAddress;\n\n    address internal libAddress;\n\n    ConstantsManager internal c;\n\n    address public voteBookAddress;\n}\n\n// File: contracts/sfc/SFCBase.sol\n\npragma solidity ^0.5.0;\n\n\ncontract SFCBase is SFCState {\n    using SafeMath for uint256;\n\n    uint256 internal constant OK_STATUS = 0;\n    uint256 internal constant WITHDRAWN_BIT = 1;\n    uint256 internal constant OFFLINE_BIT = 1 << 3;\n    uint256 internal constant DOUBLESIGN_BIT = 1 << 7;\n    uint256 internal constant CHEATER_MASK = DOUBLESIGN_BIT;\n\n    event DeactivatedValidator(uint256 indexed validatorID, uint256 deactivatedEpoch, uint256 deactivatedTime);\n    event ChangedValidatorStatus(uint256 indexed validatorID, uint256 status);\n\n    function isNode(address addr) internal view returns (bool) {\n        return addr == address(node);\n    }\n\n    modifier onlyDriver() {\n        require(isNode(msg.sender), \"caller is not the NodeDriverAuth contract\");\n        _;\n    }\n\n    function currentEpoch() public view returns (uint256) {\n        return currentSealedEpoch + 1;\n    }\n\n    function _calcRawValidatorEpochTxReward(uint256 epochFee, uint256 txRewardWeight, uint256 totalTxRewardWeight) internal view returns (uint256) {\n        if (txRewardWeight == 0) {\n            return 0;\n        }\n        uint256 txReward = epochFee.mul(txRewardWeight).div(totalTxRewardWeight);\n        // fee reward except burntFeeShare and treasuryFeeShare\n        return txReward.mul(Decimal.unit() - c.burntFeeShare() - c.treasuryFeeShare()).div(Decimal.unit());\n    }\n\n    function _calcRawValidatorEpochBaseReward(uint256 epochDuration, uint256 _baseRewardPerSecond, uint256 baseRewardWeight, uint256 totalBaseRewardWeight) internal pure returns (uint256) {\n        if (baseRewardWeight == 0) {\n            return 0;\n        }\n        uint256 totalReward = epochDuration.mul(_baseRewardPerSecond);\n        return totalReward.mul(baseRewardWeight).div(totalBaseRewardWeight);\n    }\n\n    function _mintNativeToken(uint256 amount) internal {\n        // balance will be increased after the transaction is processed\n        node.incBalance(address(this), amount);\n        totalSupply = totalSupply.add(amount);\n    }\n\n    function sumRewards(Rewards memory a, Rewards memory b) internal pure returns (Rewards memory) {\n        return Rewards(a.lockupExtraReward.add(b.lockupExtraReward), a.lockupBaseReward.add(b.lockupBaseReward), a.unlockedReward.add(b.unlockedReward));\n    }\n\n    function sumRewards(Rewards memory a, Rewards memory b, Rewards memory c) internal pure returns (Rewards memory) {\n        return sumRewards(sumRewards(a, b), c);\n    }\n\n    function _scaleLockupReward(uint256 fullReward, uint256 lockupDuration) internal view returns (Rewards memory reward) {\n        reward = Rewards(0, 0, 0);\n        uint256 unlockedRewardRatio = c.unlockedRewardRatio();\n        if (lockupDuration != 0) {\n            uint256 maxLockupExtraRatio = Decimal.unit() - unlockedRewardRatio;\n            uint256 lockupExtraRatio = maxLockupExtraRatio.mul(lockupDuration).div(c.maxLockupDuration());\n            uint256 totalScaledReward = fullReward.mul(unlockedRewardRatio + lockupExtraRatio).div(Decimal.unit());\n            reward.lockupBaseReward = fullReward.mul(unlockedRewardRatio).div(Decimal.unit());\n            reward.lockupExtraReward = totalScaledReward - reward.lockupBaseReward;\n        } else {\n            reward.unlockedReward = fullReward.mul(unlockedRewardRatio).div(Decimal.unit());\n        }\n        return reward;\n    }\n\n    function _recountVotes(address delegator, address validatorAuth, bool strict) internal {\n        if (voteBookAddress != address(0)) {\n            // Don't allow recountVotes to use up all the gas\n            (bool success,) = voteBookAddress.call.gas(8000000)(abi.encodeWithSignature(\"recountVotes(address,address)\", delegator, validatorAuth));\n            // Don't revert if recountVotes failed unless strict mode enabled\n            require(success || !strict, \"gov votes recounting failed\");\n        }\n    }\n\n    function _setValidatorDeactivated(uint256 validatorID, uint256 status) internal {\n        if (getValidator[validatorID].status == OK_STATUS && status != OK_STATUS) {\n            totalActiveStake = totalActiveStake.sub(getValidator[validatorID].receivedStake);\n        }\n        // status as a number is proportional to severity\n        if (status > getValidator[validatorID].status) {\n            getValidator[validatorID].status = status;\n            if (getValidator[validatorID].deactivatedEpoch == 0) {\n                getValidator[validatorID].deactivatedEpoch = currentEpoch();\n                getValidator[validatorID].deactivatedTime = _now();\n                emit DeactivatedValidator(validatorID, getValidator[validatorID].deactivatedEpoch, getValidator[validatorID].deactivatedTime);\n            }\n            emit ChangedValidatorStatus(validatorID, status);\n        }\n    }\n\n    function _syncValidator(uint256 validatorID, bool syncPubkey) public {\n        require(_validatorExists(validatorID), \"validator doesn't exist\");\n        // emit special log for node\n        uint256 weight = getValidator[validatorID].receivedStake;\n        if (getValidator[validatorID].status != OK_STATUS) {\n            weight = 0;\n        }\n        node.updateValidatorWeight(validatorID, weight);\n        if (syncPubkey && weight != 0) {\n            node.updateValidatorPubkey(validatorID, getValidatorPubkey[validatorID]);\n        }\n    }\n\n    function _validatorExists(uint256 validatorID) view internal returns (bool) {\n        return getValidator[validatorID].createdTime != 0;\n    }\n\n    function _calcValidatorCommission(uint256 rawReward, uint256 commission) internal pure returns (uint256)  {\n        return rawReward.mul(commission).div(Decimal.unit());\n    }\n\n    function getLockedStake(address delegator, uint256 toValidatorID) public view returns (uint256) {\n        if (!isLockedUp(delegator, toValidatorID)) {\n            return 0;\n        }\n        return getLockupInfo[delegator][toValidatorID].lockedStake;\n    }\n\n    function isLockedUp(address delegator, uint256 toValidatorID) view public returns (bool) {\n        return getLockupInfo[delegator][toValidatorID].endTime != 0 && getLockupInfo[delegator][toValidatorID].lockedStake != 0 && _now() <= getLockupInfo[delegator][toValidatorID].endTime;\n    }\n\n    function _now() internal view returns (uint256) {\n        return block.timestamp;\n    }\n}\n\n// File: contracts/sfc/GasPriceConstants.sol\n\npragma solidity ^0.5.0;\n\n\nlibrary GP {\n    function trimGasPriceChangeRatio(uint256 x) internal pure returns (uint256) {\n        if (x > Decimal.unit() * 105 / 100) {\n            return Decimal.unit() * 105 / 100;\n        }\n        if (x < Decimal.unit() * 95 / 100) {\n            return Decimal.unit() * 95 / 100;\n        }\n        return x;\n    }\n\n    function trimMinGasPrice(uint256 x) internal pure returns (uint256) {\n        if (x > 1000000 * 1e9) {\n            return 1000000 * 1e9;\n        }\n        if (x < 1e9) {\n            return 1e9;\n        }\n        return x;\n    }\n\n    function initialMinGasPrice() internal pure returns (uint256) {\n        return 100 * 1e9;\n    }\n}\n\n// File: contracts/sfc/SFC.sol\n\npragma solidity ^0.5.0;\n\n\n\n\n/**\n * @dev Stakers contract defines data structure and methods for validators / validators.\n */\ncontract SFC is SFCBase, Version {\n    function _delegate(address implementation) internal {\n        assembly {\n        // Copy msg.data. We take full control of memory in this inline assembly\n        // block because it will not return to Solidity code. We overwrite the\n        // Solidity scratch pad at memory position 0.\n            calldatacopy(0, 0, calldatasize)\n\n        // Call the implementation.\n        // out and outsize are 0 because we don't know the size yet.\n            let result := delegatecall(gas, implementation, 0, calldatasize, 0, 0)\n\n        // Copy the returned data.\n            returndatacopy(0, 0, returndatasize)\n\n            switch result\n            // delegatecall returns 0 on error.\n            case 0 {revert(0, returndatasize)}\n            default {return (0, returndatasize)}\n        }\n    }\n\n    function() payable external {\n        require(msg.data.length != 0, \"transfers not allowed\");\n        _delegate(libAddress);\n    }\n\n    event UpdatedBaseRewardPerSec(uint256 value);\n    event UpdatedOfflinePenaltyThreshold(uint256 blocksNum, uint256 period);\n\n    /*\n    Constructor\n    */\n\n    function initialize(uint256 sealedEpoch, uint256 _totalSupply, address nodeDriver, address lib, address _c, address owner) external initializer {\n        Ownable.initialize(owner);\n        currentSealedEpoch = sealedEpoch;\n        node = NodeDriverAuth(nodeDriver);\n        libAddress = lib;\n        c = ConstantsManager(_c);\n        totalSupply = _totalSupply;\n        minGasPrice = GP.initialMinGasPrice();\n        getEpochSnapshot[sealedEpoch].endTime = _now();\n    }\n\n    function updateStakeTokenizerAddress(address addr) onlyOwner external {\n        stakeTokenizerAddress = addr;\n    }\n\n    function updateLibAddress(address v) onlyOwner external {\n        libAddress = v;\n    }\n\n    function updateTreasuryAddress(address v) onlyOwner external {\n        treasuryAddress = v;\n    }\n\n    function updateConstsAddress(address v) onlyOwner external {\n        c = ConstantsManager(v);\n    }\n\n    function constsAddress() external view returns (address) {\n        return address(c);\n    }\n\n    function updateVoteBookAddress(address v) onlyOwner external {\n        voteBookAddress = v;\n    }\n\n    /*\n    Epoch callbacks\n    */\n\n    function _sealEpoch_offline(EpochSnapshot storage snapshot, uint256[] memory validatorIDs, uint256[] memory offlineTime, uint256[] memory offlineBlocks) internal {\n        // mark offline nodes\n        for (uint256 i = 0; i < validatorIDs.length; i++) {\n            if (offlineBlocks[i] > c.offlinePenaltyThresholdBlocksNum() && offlineTime[i] >= c.offlinePenaltyThresholdTime()) {\n                _setValidatorDeactivated(validatorIDs[i], OFFLINE_BIT);\n                _syncValidator(validatorIDs[i], false);\n            }\n            // log data\n            snapshot.offlineTime[validatorIDs[i]] = offlineTime[i];\n            snapshot.offlineBlocks[validatorIDs[i]] = offlineBlocks[i];\n        }\n    }\n\n    struct _SealEpochRewardsCtx {\n        uint256[] baseRewardWeights;\n        uint256 totalBaseRewardWeight;\n        uint256[] txRewardWeights;\n        uint256 totalTxRewardWeight;\n        uint256 epochFee;\n    }\n\n    function _sealEpoch_rewards(uint256 epochDuration, EpochSnapshot storage snapshot, EpochSnapshot storage prevSnapshot, uint256[] memory validatorIDs, uint256[] memory uptimes, uint256[] memory accumulatedOriginatedTxsFee) internal {\n        _SealEpochRewardsCtx memory ctx = _SealEpochRewardsCtx(new uint[](validatorIDs.length), 0, new uint[](validatorIDs.length), 0, 0);\n\n        for (uint256 i = 0; i < validatorIDs.length; i++) {\n            uint256 prevAccumulatedTxsFee = prevSnapshot.accumulatedOriginatedTxsFee[validatorIDs[i]];\n            uint256 originatedTxsFee = 0;\n            if (accumulatedOriginatedTxsFee[i] > prevAccumulatedTxsFee) {\n                originatedTxsFee = accumulatedOriginatedTxsFee[i] - prevAccumulatedTxsFee;\n            }\n            // txRewardWeight = {originatedTxsFee} * {uptime}\n            // originatedTxsFee is roughly proportional to {uptime} * {stake}, so the whole formula is roughly\n            // {stake} * {uptime} ^ 2\n            ctx.txRewardWeights[i] = originatedTxsFee * uptimes[i] / epochDuration;\n            ctx.totalTxRewardWeight = ctx.totalTxRewardWeight.add(ctx.txRewardWeights[i]);\n            ctx.epochFee = ctx.epochFee.add(originatedTxsFee);\n        }\n\n        for (uint256 i = 0; i < validatorIDs.length; i++) {\n            // baseRewardWeight = {stake} * {uptime ^ 2}\n            ctx.baseRewardWeights[i] = (((snapshot.receivedStake[validatorIDs[i]] * uptimes[i]) / epochDuration) * uptimes[i]) / epochDuration;\n            ctx.totalBaseRewardWeight = ctx.totalBaseRewardWeight.add(ctx.baseRewardWeights[i]);\n        }\n\n        for (uint256 i = 0; i < validatorIDs.length; i++) {\n            uint256 rawReward = _calcRawValidatorEpochBaseReward(epochDuration, c.baseRewardPerSecond(), ctx.baseRewardWeights[i], ctx.totalBaseRewardWeight);\n            rawReward = rawReward.add(_calcRawValidatorEpochTxReward(ctx.epochFee, ctx.txRewardWeights[i], ctx.totalTxRewardWeight));\n\n            uint256 validatorID = validatorIDs[i];\n            address validatorAddr = getValidator[validatorID].auth;\n            // accounting validator's commission\n            uint256 commissionRewardFull = _calcValidatorCommission(rawReward, c.validatorCommission());\n            uint256 selfStake = getStake[validatorAddr][validatorID];\n            if (selfStake != 0) {\n                uint256 lCommissionRewardFull = (commissionRewardFull * getLockedStake(validatorAddr, validatorID)) / selfStake;\n                uint256 uCommissionRewardFull = commissionRewardFull - lCommissionRewardFull;\n                Rewards memory lCommissionReward = _scaleLockupReward(lCommissionRewardFull, getLockupInfo[validatorAddr][validatorID].duration);\n                Rewards memory uCommissionReward = _scaleLockupReward(uCommissionRewardFull, 0);\n                _rewardsStash[validatorAddr][validatorID] = sumRewards(_rewardsStash[validatorAddr][validatorID], lCommissionReward, uCommissionReward);\n                getStashedLockupRewards[validatorAddr][validatorID] = sumRewards(getStashedLockupRewards[validatorAddr][validatorID], lCommissionReward, uCommissionReward);\n            }\n            // accounting reward per token for delegators\n            uint256 delegatorsReward = rawReward - commissionRewardFull;\n            // note: use latest stake for the sake of rewards distribution accuracy, not snapshot.receivedStake\n            uint256 receivedStake = getValidator[validatorID].receivedStake;\n            uint256 rewardPerToken = 0;\n            if (receivedStake != 0) {\n                rewardPerToken = (delegatorsReward * Decimal.unit()) / receivedStake;\n            }\n            snapshot.accumulatedRewardPerToken[validatorID] = prevSnapshot.accumulatedRewardPerToken[validatorID] + rewardPerToken;\n\n            snapshot.accumulatedOriginatedTxsFee[validatorID] = accumulatedOriginatedTxsFee[i];\n            snapshot.accumulatedUptime[validatorID] = prevSnapshot.accumulatedUptime[validatorID] + uptimes[i];\n        }\n\n        snapshot.epochFee = ctx.epochFee;\n        snapshot.totalBaseRewardWeight = ctx.totalBaseRewardWeight;\n        snapshot.totalTxRewardWeight = ctx.totalTxRewardWeight;\n        if (totalSupply > snapshot.epochFee) {\n            totalSupply -= snapshot.epochFee;\n        } else {\n            totalSupply = 0;\n        }\n\n        // transfer 10% of fees to treasury\n        if (treasuryAddress != address(0)) {\n            uint256 feeShare = ctx.epochFee * c.treasuryFeeShare() / Decimal.unit();\n            _mintNativeToken(feeShare);\n            treasuryAddress.call.value(feeShare)(\"\");\n        }\n    }\n\n\n    function _sealEpoch_minGasPrice(uint256 epochDuration, uint256 epochGas) internal {\n        // change minGasPrice proportionally to the difference between target and received epochGas\n        uint256 targetEpochGas = epochDuration * c.targetGasPowerPerSecond() + 1;\n        uint256 gasPriceDeltaRatio = epochGas * Decimal.unit() / targetEpochGas;\n        uint256 counterweight = c.gasPriceBalancingCounterweight();\n        // scale down the change speed (estimate gasPriceDeltaRatio ^ (epochDuration / counterweight))\n        gasPriceDeltaRatio = (epochDuration * gasPriceDeltaRatio + counterweight * Decimal.unit()) / (epochDuration + counterweight);\n        // limit the max/min possible delta in one epoch\n        gasPriceDeltaRatio = GP.trimGasPriceChangeRatio(gasPriceDeltaRatio);\n\n        // apply the ratio\n        uint256 newMinGasPrice = minGasPrice * gasPriceDeltaRatio / Decimal.unit();\n        // limit the max/min possible minGasPrice\n        newMinGasPrice = GP.trimMinGasPrice(newMinGasPrice);\n        // apply new minGasPrice\n        minGasPrice = newMinGasPrice;\n    }\n\n    function sealEpoch(uint256[] calldata offlineTime, uint256[] calldata offlineBlocks, uint256[] calldata uptimes, uint256[] calldata originatedTxsFee, uint256 epochGas) external onlyDriver {\n        EpochSnapshot storage snapshot = getEpochSnapshot[currentEpoch()];\n        uint256[] memory validatorIDs = snapshot.validatorIDs;\n\n        _sealEpoch_offline(snapshot, validatorIDs, offlineTime, offlineBlocks);\n        {\n            EpochSnapshot storage prevSnapshot = getEpochSnapshot[currentSealedEpoch];\n            uint256 epochDuration = 1;\n            if (_now() > prevSnapshot.endTime) {\n                epochDuration = _now() - prevSnapshot.endTime;\n            }\n            _sealEpoch_rewards(epochDuration, snapshot, prevSnapshot, validatorIDs, uptimes, originatedTxsFee);\n            _sealEpoch_minGasPrice(epochDuration, epochGas);\n        }\n\n        currentSealedEpoch = currentEpoch();\n        snapshot.endTime = _now();\n        snapshot.baseRewardPerSecond = c.baseRewardPerSecond();\n        snapshot.totalSupply = totalSupply;\n    }\n\n    function sealEpochValidators(uint256[] calldata nextValidatorIDs) external onlyDriver {\n        EpochSnapshot storage snapshot = getEpochSnapshot[currentEpoch()];\n        // fill data for the next snapshot\n        for (uint256 i = 0; i < nextValidatorIDs.length; i++) {\n            uint256 validatorID = nextValidatorIDs[i];\n            uint256 receivedStake = getValidator[validatorID].receivedStake;\n            snapshot.receivedStake[validatorID] = receivedStake;\n            snapshot.totalStake = snapshot.totalStake.add(receivedStake);\n        }\n        snapshot.validatorIDs = nextValidatorIDs;\n        node.updateMinGasPrice(minGasPrice);\n    }\n}",
  "sourcePath": "contracts/SFC.sol",
  "type": "contract"
}