{
  "abi": [
    {
      "anonymous": false,
      "inputs": [
        {
          "indexed": true,
          "internalType": "uint256",
          "name": "validatorID",
          "type": "uint256"
        },
        {
          "indexed": false,
          "internalType": "uint256",
          "name": "status",
          "type": "uint256"
        }
      ],
      "name": "ChangedValidatorStatus",
      "type": "event"
    },
    {
      "anonymous": false,
      "inputs": [
        {
          "indexed": true,
          "internalType": "uint256",
          "name": "validatorID",
          "type": "uint256"
        },
        {
          "indexed": false,
          "internalType": "uint256",
          "name": "deactivatedEpoch",
          "type": "uint256"
        },
        {
          "indexed": false,
          "internalType": "uint256",
          "name": "deactivatedTime",
          "type": "uint256"
        }
      ],
      "name": "DeactivatedValidator",
      "type": "event"
    },
    {
      "anonymous": false,
      "inputs": [
        {
          "indexed": true,
          "internalType": "address",
          "name": "previousOwner",
          "type": "address"
        },
        {
          "indexed": true,
          "internalType": "address",
          "name": "newOwner",
          "type": "address"
        }
      ],
      "name": "OwnershipTransferred",
      "type": "event"
    },
    {
      "constant": false,
      "inputs": [
        {
          "internalType": "uint256",
          "name": "validatorID",
          "type": "uint256"
        },
        {
          "internalType": "bool",
          "name": "syncPubkey",
          "type": "bool"
        }
      ],
      "name": "_syncValidator",
      "outputs": [],
      "payable": false,
      "stateMutability": "nonpayable",
      "type": "function"
    },
    {
      "constant": true,
      "inputs": [],
      "name": "currentEpoch",
      "outputs": [
        {
          "internalType": "uint256",
          "name": "",
          "type": "uint256"
        }
      ],
      "payable": false,
      "stateMutability": "view",
      "type": "function"
    },
    {
      "constant": true,
      "inputs": [],
      "name": "currentSealedEpoch",
      "outputs": [
        {
          "internalType": "uint256",
          "name": "",
          "type": "uint256"
        }
      ],
      "payable": false,
      "stateMutability": "view",
      "type": "function"
    },
    {
      "constant": true,
      "inputs": [
        {
          "internalType": "uint256",
          "name": "",
          "type": "uint256"
        }
      ],
      "name": "getEpochSnapshot",
      "outputs": [
        {
          "internalType": "uint256",
          "name": "endTime",
          "type": "uint256"
        },
        {
          "internalType": "uint256",
          "name": "epochFee",
          "type": "uint256"
        },
        {
          "internalType": "uint256",
          "name": "totalBaseRewardWeight",
          "type": "uint256"
        },
        {
          "internalType": "uint256",
          "name": "totalTxRewardWeight",
          "type": "uint256"
        },
        {
          "internalType": "uint256",
          "name": "baseRewardPerSecond",
          "type": "uint256"
        },
        {
          "internalType": "uint256",
          "name": "totalStake",
          "type": "uint256"
        },
        {
          "internalType": "uint256",
          "name": "totalSupply",
          "type": "uint256"
        }
      ],
      "payable": false,
      "stateMutability": "view",
      "type": "function"
    },
    {
      "constant": true,
      "inputs": [
        {
          "internalType": "address",
          "name": "delegator",
          "type": "address"
        },
        {
          "internalType": "uint256",
          "name": "toValidatorID",
          "type": "uint256"
        }
      ],
      "name": "getLockedStake",
      "outputs": [
        {
          "internalType": "uint256",
          "name": "",
          "type": "uint256"
        }
      ],
      "payable": false,
      "stateMutability": "view",
      "type": "function"
    },
    {
      "constant": true,
      "inputs": [
        {
          "internalType": "address",
          "name": "",
          "type": "address"
        },
        {
          "internalType": "uint256",
          "name": "",
          "type": "uint256"
        }
      ],
      "name": "getLockupInfo",
      "outputs": [
        {
          "internalType": "uint256",
          "name": "lockedStake",
          "type": "uint256"
        },
        {
          "internalType": "uint256",
          "name": "fromEpoch",
          "type": "uint256"
        },
        {
          "internalType": "uint256",
          "name": "endTime",
          "type": "uint256"
        },
        {
          "internalType": "uint256",
          "name": "duration",
          "type": "uint256"
        }
      ],
      "payable": false,
      "stateMutability": "view",
      "type": "function"
    },
    {
      "constant": true,
      "inputs": [
        {
          "internalType": "address",
          "name": "",
          "type": "address"
        },
        {
          "internalType": "uint256",
          "name": "",
          "type": "uint256"
        }
      ],
      "name": "getStake",
      "outputs": [
        {
          "internalType": "uint256",
          "name": "",
          "type": "uint256"
        }
      ],
      "payable": false,
      "stateMutability": "view",
      "type": "function"
    },
    {
      "constant": true,
      "inputs": [
        {
          "internalType": "address",
          "name": "",
          "type": "address"
        },
        {
          "internalType": "uint256",
          "name": "",
          "type": "uint256"
        }
      ],
      "name": "getStashedLockupRewards",
      "outputs": [
        {
          "internalType": "uint256",
          "name": "lockupExtraReward",
          "type": "uint256"
        },
        {
          "internalType": "uint256",
          "name": "lockupBaseReward",
          "type": "uint256"
        },
        {
          "internalType": "uint256",
          "name": "unlockedReward",
          "type": "uint256"
        }
      ],
      "payable": false,
      "stateMutability": "view",
      "type": "function"
    },
    {
      "constant": true,
      "inputs": [
        {
          "internalType": "uint256",
          "name": "",
          "type": "uint256"
        }
      ],
      "name": "getValidator",
      "outputs": [
        {
          "internalType": "uint256",
          "name": "status",
          "type": "uint256"
        },
        {
          "internalType": "uint256",
          "name": "deactivatedTime",
          "type": "uint256"
        },
        {
          "internalType": "uint256",
          "name": "deactivatedEpoch",
          "type": "uint256"
        },
        {
          "internalType": "uint256",
          "name": "receivedStake",
          "type": "uint256"
        },
        {
          "internalType": "uint256",
          "name": "createdEpoch",
          "type": "uint256"
        },
        {
          "internalType": "uint256",
          "name": "createdTime",
          "type": "uint256"
        },
        {
          "internalType": "address",
          "name": "auth",
          "type": "address"
        }
      ],
      "payable": false,
      "stateMutability": "view",
      "type": "function"
    },
    {
      "constant": true,
      "inputs": [
        {
          "internalType": "address",
          "name": "",
          "type": "address"
        }
      ],
      "name": "getValidatorID",
      "outputs": [
        {
          "internalType": "uint256",
          "name": "",
          "type": "uint256"
        }
      ],
      "payable": false,
      "stateMutability": "view",
      "type": "function"
    },
    {
      "constant": true,
      "inputs": [
        {
          "internalType": "uint256",
          "name": "",
          "type": "uint256"
        }
      ],
      "name": "getValidatorPubkey",
      "outputs": [
        {
          "internalType": "bytes",
          "name": "",
          "type": "bytes"
        }
      ],
      "payable": false,
      "stateMutability": "view",
      "type": "function"
    },
    {
      "constant": true,
      "inputs": [
        {
          "internalType": "address",
          "name": "",
          "type": "address"
        },
        {
          "internalType": "uint256",
          "name": "",
          "type": "uint256"
        },
        {
          "internalType": "uint256",
          "name": "",
          "type": "uint256"
        }
      ],
      "name": "getWithdrawalRequest",
      "outputs": [
        {
          "internalType": "uint256",
          "name": "epoch",
          "type": "uint256"
        },
        {
          "internalType": "uint256",
          "name": "time",
          "type": "uint256"
        },
        {
          "internalType": "uint256",
          "name": "amount",
          "type": "uint256"
        }
      ],
      "payable": false,
      "stateMutability": "view",
      "type": "function"
    },
    {
      "constant": true,
      "inputs": [
        {
          "internalType": "address",
          "name": "delegator",
          "type": "address"
        },
        {
          "internalType": "uint256",
          "name": "toValidatorID",
          "type": "uint256"
        }
      ],
      "name": "isLockedUp",
      "outputs": [
        {
          "internalType": "bool",
          "name": "",
          "type": "bool"
        }
      ],
      "payable": false,
      "stateMutability": "view",
      "type": "function"
    },
    {
      "constant": true,
      "inputs": [],
      "name": "isOwner",
      "outputs": [
        {
          "internalType": "bool",
          "name": "",
          "type": "bool"
        }
      ],
      "payable": false,
      "stateMutability": "view",
      "type": "function"
    },
    {
      "constant": true,
      "inputs": [],
      "name": "lastValidatorID",
      "outputs": [
        {
          "internalType": "uint256",
          "name": "",
          "type": "uint256"
        }
      ],
      "payable": false,
      "stateMutability": "view",
      "type": "function"
    },
    {
      "constant": true,
      "inputs": [],
      "name": "minGasPrice",
      "outputs": [
        {
          "internalType": "uint256",
          "name": "",
          "type": "uint256"
        }
      ],
      "payable": false,
      "stateMutability": "view",
      "type": "function"
    },
    {
      "constant": true,
      "inputs": [],
      "name": "owner",
      "outputs": [
        {
          "internalType": "address",
          "name": "",
          "type": "address"
        }
      ],
      "payable": false,
      "stateMutability": "view",
      "type": "function"
    },
    {
      "constant": false,
      "inputs": [],
      "name": "renounceOwnership",
      "outputs": [],
      "payable": false,
      "stateMutability": "nonpayable",
      "type": "function"
    },
    {
      "constant": true,
      "inputs": [
        {
          "internalType": "uint256",
          "name": "",
          "type": "uint256"
        }
      ],
      "name": "slashingRefundRatio",
      "outputs": [
        {
          "internalType": "uint256",
          "name": "",
          "type": "uint256"
        }
      ],
      "payable": false,
      "stateMutability": "view",
      "type": "function"
    },
    {
      "constant": true,
      "inputs": [],
      "name": "stakeTokenizerAddress",
      "outputs": [
        {
          "internalType": "address",
          "name": "",
          "type": "address"
        }
      ],
      "payable": false,
      "stateMutability": "view",
      "type": "function"
    },
    {
      "constant": true,
      "inputs": [
        {
          "internalType": "address",
          "name": "",
          "type": "address"
        },
        {
          "internalType": "uint256",
          "name": "",
          "type": "uint256"
        }
      ],
      "name": "stashedRewardsUntilEpoch",
      "outputs": [
        {
          "internalType": "uint256",
          "name": "",
          "type": "uint256"
        }
      ],
      "payable": false,
      "stateMutability": "view",
      "type": "function"
    },
    {
      "constant": true,
      "inputs": [],
      "name": "totalActiveStake",
      "outputs": [
        {
          "internalType": "uint256",
          "name": "",
          "type": "uint256"
        }
      ],
      "payable": false,
      "stateMutability": "view",
      "type": "function"
    },
    {
      "constant": true,
      "inputs": [],
      "name": "totalSlashedStake",
      "outputs": [
        {
          "internalType": "uint256",
          "name": "",
          "type": "uint256"
        }
      ],
      "payable": false,
      "stateMutability": "view",
      "type": "function"
    },
    {
      "constant": true,
      "inputs": [],
      "name": "totalStake",
      "outputs": [
        {
          "internalType": "uint256",
          "name": "",
          "type": "uint256"
        }
      ],
      "payable": false,
      "stateMutability": "view",
      "type": "function"
    },
    {
      "constant": true,
      "inputs": [],
      "name": "totalSupply",
      "outputs": [
        {
          "internalType": "uint256",
          "name": "",
          "type": "uint256"
        }
      ],
      "payable": false,
      "stateMutability": "view",
      "type": "function"
    },
    {
      "constant": false,
      "inputs": [
        {
          "internalType": "address",
          "name": "newOwner",
          "type": "address"
        }
      ],
      "name": "transferOwnership",
      "outputs": [],
      "payable": false,
      "stateMutability": "nonpayable",
      "type": "function"
    },
    {
      "constant": true,
      "inputs": [],
      "name": "treasuryAddress",
      "outputs": [
        {
          "internalType": "address",
          "name": "",
          "type": "address"
        }
      ],
      "payable": false,
      "stateMutability": "view",
      "type": "function"
    },
    {
      "constant": true,
      "inputs": [],
      "name": "voteBookAddress",
      "outputs": [
        {
          "internalType": "address",
          "name": "",
          "type": "address"
        }
      ],
      "payable": false,
      "stateMutability": "view",
      "type": "function"
    }
  ],
  "bytecode": "608060405234801561001057600080fd5b50610d42806100206000396000f3fe608060405234801561001057600080fd5b50600436106101c45760003560e01c80638da5cb5b116100f9578063c65ee0e111610097578063cfd4766311610071578063cfd4766314610548578063cfdbb7cd14610574578063d96ed505146105a0578063f2fde38b146105a8576101c4565b8063c65ee0e1146104fe578063c7be95de1461051b578063cc8343aa14610523576101c4565b8063a86a056f116100d3578063a86a056f14610440578063b5d896271461046c578063b810e411146104ca578063c5f956af146104f6576101c4565b80638da5cb5b146103ca5780638f32d59b146103d257806396c7ee46146103ee576101c4565b8063670322f8116101665780637cacb1d6116101405780637cacb1d614610320578063854873e114610328578063893675c6146103ba5780638b0e9f3f146103c2576101c4565b8063670322f8146102e2578063715018a61461030e5780637667180814610318576101c4565b80631f270152116101a25780631f2701521461022d57806328f731481461027d57806339b80c00146102855780635fab23a8146102da576101c4565b80630135b1db146101c95780630e559d821461020157806318160ddd14610225575b600080fd5b6101ef600480360360208110156101df57600080fd5b50356001600160a01b03166105ce565b60408051918252519081900360200190f35b6102096105e0565b604080516001600160a01b039092168252519081900360200190f35b6101ef6105ef565b61025f6004803603606081101561024357600080fd5b506001600160a01b0381351690602081013590604001356105f5565b60408051938452602084019290925282820152519081900360600190f35b6101ef610627565b6102a26004803603602081101561029b57600080fd5b503561062d565b604080519788526020880196909652868601949094526060860192909252608085015260a084015260c0830152519081900360e00190f35b6101ef61066f565b6101ef600480360360408110156102f857600080fd5b506001600160a01b038135169060200135610675565b6103166106b9565b005b6101ef61075c565b6101ef610765565b6103456004803603602081101561033e57600080fd5b503561076b565b6040805160208082528351818301528351919283929083019185019080838360005b8381101561037f578181015183820152602001610367565b50505050905090810190601f1680156103ac5780820380516001836020036101000a031916815260200191505b509250505060405180910390f35b610209610806565b6101ef610815565b61020961081b565b6103da61082a565b604080519115158252519081900360200190f35b61041a6004803603604081101561040457600080fd5b506001600160a01b03813516906020013561083b565b604080519485526020850193909352838301919091526060830152519081900360800190f35b6101ef6004803603604081101561045657600080fd5b506001600160a01b03813516906020013561086d565b6104896004803603602081101561048257600080fd5b503561088a565b604080519788526020880196909652868601949094526060860192909252608085015260a08401526001600160a01b031660c0830152519081900360e00190f35b61025f600480360360408110156104e057600080fd5b506001600160a01b0381351690602001356108d0565b6102096108fc565b6101ef6004803603602081101561051457600080fd5b503561090b565b6101ef61091d565b6103166004803603604081101561053957600080fd5b50803590602001351515610923565b6101ef6004803603604081101561055e57600080fd5b506001600160a01b038135169060200135610b0c565b6103da6004803603604081101561058a57600080fd5b506001600160a01b038135169060200135610b29565b6101ef610bc0565b610316600480360360208110156105be57600080fd5b50356001600160a01b0316610bc6565b60696020526000908152604090205481565b607b546001600160a01b031681565b60765481565b607160209081526000938452604080852082529284528284209052825290208054600182015460029092015490919083565b606d5481565b607760205280600052604060002060009150905080600701549080600801549080600901549080600a01549080600b01549080600c01549080600d0154905087565b606e5481565b60006106818383610b29565b61068d575060006106b3565b506001600160a01b03821660009081526073602090815260408083208484529091529020545b92915050565b6106c161082a565b610712576040805162461bcd60e51b815260206004820181905260248201527f4f776e61626c653a2063616c6c6572206973206e6f7420746865206f776e6572604482015290519081900360640190fd5b6033546040516000916001600160a01b0316907f8be0079c531659141344cd1fd0a4f28419497f9722a3daafe3b4186f6b6457e0908390a3603380546001600160a01b0319169055565b60675460010190565b60675481565b606a6020908152600091825260409182902080548351601f6002600019610100600186161502019093169290920491820184900484028101840190945280845290918301828280156107fe5780601f106107d3576101008083540402835291602001916107fe565b820191906000526020600020905b8154815290600101906020018083116107e157829003601f168201915b505050505081565b6082546001600160a01b031681565b606c5481565b6033546001600160a01b031690565b6033546001600160a01b0316331490565b607360209081526000928352604080842090915290825290208054600182015460028301546003909301549192909184565b607060209081526000928352604080842090915290825290205481565b606860205260009081526040902080546001820154600283015460038401546004850154600586015460069096015494959394929391929091906001600160a01b031687565b607460209081526000928352604080842090915290825290208054600182015460029092015490919083565b607f546001600160a01b031681565b607a6020526000908152604090205481565b606b5481565b61092c82610c2b565b61097d576040805162461bcd60e51b815260206004820152601760248201527f76616c696461746f7220646f65736e2774206578697374000000000000000000604482015290519081900360640190fd5b6000828152606860205260409020600381015490541561099b575060005b6066546040805163520337df60e11b8152600481018690526024810184905290516001600160a01b039092169163a4066fbe9160448082019260009290919082900301818387803b1580156109ef57600080fd5b505af1158015610a03573d6000803e3d6000fd5b50505050818015610a1357508015155b15610b07576066546000848152606a602052604090819020815163242a6e3f60e01b81526004810187815260248201938452825460026000196001831615610100020190911604604483018190526001600160a01b039095169463242a6e3f94899493909160649091019084908015610acd5780601f10610aa257610100808354040283529160200191610acd565b820191906000526020600020905b815481529060010190602001808311610ab057829003601f168201915b50509350505050600060405180830381600087803b158015610aee57600080fd5b505af1158015610b02573d6000803e3d6000fd5b505050505b505050565b607260209081526000928352604080842090915290825290205481565b6001600160a01b038216600090815260736020908152604080832084845290915281206002015415801590610b8057506001600160a01b038316600090815260736020908152604080832085845290915290205415155b8015610bb957506001600160a01b0383166000908152607360209081526040808320858452909152902060020154610bb6610c42565b11155b9392505050565b607e5481565b610bce61082a565b610c1f576040805162461bcd60e51b815260206004820181905260248201527f4f776e61626c653a2063616c6c6572206973206e6f7420746865206f776e6572604482015290519081900360640190fd5b610c2881610c46565b50565b600090815260686020526040902060050154151590565b4290565b6001600160a01b038116610c8b5760405162461bcd60e51b8152600401808060200182810382526026815260200180610ce86026913960400191505060405180910390fd5b6033546040516001600160a01b038084169216907f8be0079c531659141344cd1fd0a4f28419497f9722a3daafe3b4186f6b6457e090600090a3603380546001600160a01b0319166001600160a01b039290921691909117905556fe4f776e61626c653a206e6577206f776e657220697320746865207a65726f2061646472657373a265627a7a72315820331628e98dc0ea360e3310f5b9b3722709e6263877fb3c5f9077b1ac24aeb8d464736f6c63430005110032",
  "bytecodeSha1": "2e3701bd00bd80ac2d8fc3579a48ea73a438ca36",
  "compiler": {
    "evm_version": "istanbul",
    "optimizer": {
      "enabled": true,
      "runs": 200
    },
    "version": "0.5.17+commit.d19bba13"
  },
  "contractName": "SFCBase",
  "language": "Solidity",
  "natspec": {
    "methods": {
      "isOwner()": {
        "details": "Returns true if the caller is the current owner."
      },
      "owner()": {
        "details": "Returns the address of the current owner."
      },
      "renounceOwnership()": {
        "details": "Leaves the contract without owner. It will not be possible to call `onlyOwner` functions anymore. Can only be called by the current owner.     * > Note: Renouncing ownership will leave the contract without an owner, thereby removing any functionality that is only available to the owner."
      },
      "transferOwnership(address)": {
        "details": "Transfers ownership of the contract to a new account (`newOwner`). Can only be called by the current owner."
      }
    }
  },
  "opcodes": "PUSH1 0x80 PUSH1 0x40 MSTORE CALLVALUE DUP1 ISZERO PUSH2 0x10 JUMPI PUSH1 0x0 DUP1 REVERT JUMPDEST POP PUSH1 0x4 CALLDATASIZE LT PUSH2 0x1C4 JUMPI PUSH1 0x0 CALLDATALOAD PUSH1 0xE0 SHR DUP1 PUSH4 0x8DA5CB5B GT PUSH2 0xF9 JUMPI DUP1 PUSH4 0xC65EE0E1 GT PUSH2 0x97 JUMPI DUP1 PUSH4 0xCFD47663 GT PUSH2 0x71 JUMPI DUP1 PUSH4 0xCFD47663 EQ PUSH2 0x548 JUMPI DUP1 PUSH4 0xCFDBB7CD EQ PUSH2 0x574 JUMPI DUP1 PUSH4 0xD96ED505 EQ PUSH2 0x5A0 JUMPI DUP1 PUSH4 0xF2FDE38B EQ PUSH2 0x5A8 JUMPI PUSH2 0x1C4 JUMP JUMPDEST DUP1 PUSH4 0xC65EE0E1 EQ PUSH2 0x4FE JUMPI DUP1 PUSH4 0xC7BE95DE EQ PUSH2 0x51B JUMPI DUP1 PUSH4 0xCC8343AA EQ PUSH2 0x523 JUMPI PUSH2 0x1C4 JUMP JUMPDEST DUP1 PUSH4 0xA86A056F GT PUSH2 0xD3 JUMPI DUP1 PUSH4 0xA86A056F EQ PUSH2 0x440 JUMPI DUP1 PUSH4 0xB5D89627 EQ PUSH2 0x46C JUMPI DUP1 PUSH4 0xB810E411 EQ PUSH2 0x4CA JUMPI DUP1 PUSH4 0xC5F956AF EQ PUSH2 0x4F6 JUMPI PUSH2 0x1C4 JUMP JUMPDEST DUP1 PUSH4 0x8DA5CB5B EQ PUSH2 0x3CA JUMPI DUP1 PUSH4 0x8F32D59B EQ PUSH2 0x3D2 JUMPI DUP1 PUSH4 0x96C7EE46 EQ PUSH2 0x3EE JUMPI PUSH2 0x1C4 JUMP JUMPDEST DUP1 PUSH4 0x670322F8 GT PUSH2 0x166 JUMPI DUP1 PUSH4 0x7CACB1D6 GT PUSH2 0x140 JUMPI DUP1 PUSH4 0x7CACB1D6 EQ PUSH2 0x320 JUMPI DUP1 PUSH4 0x854873E1 EQ PUSH2 0x328 JUMPI DUP1 PUSH4 0x893675C6 EQ PUSH2 0x3BA JUMPI DUP1 PUSH4 0x8B0E9F3F EQ PUSH2 0x3C2 JUMPI PUSH2 0x1C4 JUMP JUMPDEST DUP1 PUSH4 0x670322F8 EQ PUSH2 0x2E2 JUMPI DUP1 PUSH4 0x715018A6 EQ PUSH2 0x30E JUMPI DUP1 PUSH4 0x76671808 EQ PUSH2 0x318 JUMPI PUSH2 0x1C4 JUMP JUMPDEST DUP1 PUSH4 0x1F270152 GT PUSH2 0x1A2 JUMPI DUP1 PUSH4 0x1F270152 EQ PUSH2 0x22D JUMPI DUP1 PUSH4 0x28F73148 EQ PUSH2 0x27D JUMPI DUP1 PUSH4 0x39B80C00 EQ PUSH2 0x285 JUMPI DUP1 PUSH4 0x5FAB23A8 EQ PUSH2 0x2DA JUMPI PUSH2 0x1C4 JUMP JUMPDEST DUP1 PUSH4 0x135B1DB EQ PUSH2 0x1C9 JUMPI DUP1 PUSH4 0xE559D82 EQ PUSH2 0x201 JUMPI DUP1 PUSH4 0x18160DDD EQ PUSH2 0x225 JUMPI JUMPDEST PUSH1 0x0 DUP1 REVERT JUMPDEST PUSH2 0x1EF PUSH1 0x4 DUP1 CALLDATASIZE SUB PUSH1 0x20 DUP2 LT ISZERO PUSH2 0x1DF JUMPI PUSH1 0x0 DUP1 REVERT JUMPDEST POP CALLDATALOAD PUSH1 0x1 PUSH1 0x1 PUSH1 0xA0 SHL SUB AND PUSH2 0x5CE JUMP JUMPDEST PUSH1 0x40 DUP1 MLOAD SWAP2 DUP3 MSTORE MLOAD SWAP1 DUP2 SWAP1 SUB PUSH1 0x20 ADD SWAP1 RETURN JUMPDEST PUSH2 0x209 PUSH2 0x5E0 JUMP JUMPDEST PUSH1 0x40 DUP1 MLOAD PUSH1 0x1 PUSH1 0x1 PUSH1 0xA0 SHL SUB SWAP1 SWAP3 AND DUP3 MSTORE MLOAD SWAP1 DUP2 SWAP1 SUB PUSH1 0x20 ADD SWAP1 RETURN JUMPDEST PUSH2 0x1EF PUSH2 0x5EF JUMP JUMPDEST PUSH2 0x25F PUSH1 0x4 DUP1 CALLDATASIZE SUB PUSH1 0x60 DUP2 LT ISZERO PUSH2 0x243 JUMPI PUSH1 0x0 DUP1 REVERT JUMPDEST POP PUSH1 0x1 PUSH1 0x1 PUSH1 0xA0 SHL SUB DUP2 CALLDATALOAD AND SWAP1 PUSH1 0x20 DUP2 ADD CALLDATALOAD SWAP1 PUSH1 0x40 ADD CALLDATALOAD PUSH2 0x5F5 JUMP JUMPDEST PUSH1 0x40 DUP1 MLOAD SWAP4 DUP5 MSTORE PUSH1 0x20 DUP5 ADD SWAP3 SWAP1 SWAP3 MSTORE DUP3 DUP3 ADD MSTORE MLOAD SWAP1 DUP2 SWAP1 SUB PUSH1 0x60 ADD SWAP1 RETURN JUMPDEST PUSH2 0x1EF PUSH2 0x627 JUMP JUMPDEST PUSH2 0x2A2 PUSH1 0x4 DUP1 CALLDATASIZE SUB PUSH1 0x20 DUP2 LT ISZERO PUSH2 0x29B JUMPI PUSH1 0x0 DUP1 REVERT JUMPDEST POP CALLDATALOAD PUSH2 0x62D JUMP JUMPDEST PUSH1 0x40 DUP1 MLOAD SWAP8 DUP9 MSTORE PUSH1 0x20 DUP9 ADD SWAP7 SWAP1 SWAP7 MSTORE DUP7 DUP7 ADD SWAP5 SWAP1 SWAP5 MSTORE PUSH1 0x60 DUP7 ADD SWAP3 SWAP1 SWAP3 MSTORE PUSH1 0x80 DUP6 ADD MSTORE PUSH1 0xA0 DUP5 ADD MSTORE PUSH1 0xC0 DUP4 ADD MSTORE MLOAD SWAP1 DUP2 SWAP1 SUB PUSH1 0xE0 ADD SWAP1 RETURN JUMPDEST PUSH2 0x1EF PUSH2 0x66F JUMP JUMPDEST PUSH2 0x1EF PUSH1 0x4 DUP1 CALLDATASIZE SUB PUSH1 0x40 DUP2 LT ISZERO PUSH2 0x2F8 JUMPI PUSH1 0x0 DUP1 REVERT JUMPDEST POP PUSH1 0x1 PUSH1 0x1 PUSH1 0xA0 SHL SUB DUP2 CALLDATALOAD AND SWAP1 PUSH1 0x20 ADD CALLDATALOAD PUSH2 0x675 JUMP JUMPDEST PUSH2 0x316 PUSH2 0x6B9 JUMP JUMPDEST STOP JUMPDEST PUSH2 0x1EF PUSH2 0x75C JUMP JUMPDEST PUSH2 0x1EF PUSH2 0x765 JUMP JUMPDEST PUSH2 0x345 PUSH1 0x4 DUP1 CALLDATASIZE SUB PUSH1 0x20 DUP2 LT ISZERO PUSH2 0x33E JUMPI PUSH1 0x0 DUP1 REVERT JUMPDEST POP CALLDATALOAD PUSH2 0x76B JUMP JUMPDEST PUSH1 0x40 DUP1 MLOAD PUSH1 0x20 DUP1 DUP3 MSTORE DUP4 MLOAD DUP2 DUP4 ADD MSTORE DUP4 MLOAD SWAP2 SWAP3 DUP4 SWAP3 SWAP1 DUP4 ADD SWAP2 DUP6 ADD SWAP1 DUP1 DUP4 DUP4 PUSH1 0x0 JUMPDEST DUP4 DUP2 LT ISZERO PUSH2 0x37F JUMPI DUP2 DUP2 ADD MLOAD DUP4 DUP3 ADD MSTORE PUSH1 0x20 ADD PUSH2 0x367 JUMP JUMPDEST POP POP POP POP SWAP1 POP SWAP1 DUP2 ADD SWAP1 PUSH1 0x1F AND DUP1 ISZERO PUSH2 0x3AC JUMPI DUP1 DUP3 SUB DUP1 MLOAD PUSH1 0x1 DUP4 PUSH1 0x20 SUB PUSH2 0x100 EXP SUB NOT AND DUP2 MSTORE PUSH1 0x20 ADD SWAP2 POP JUMPDEST POP SWAP3 POP POP POP PUSH1 0x40 MLOAD DUP1 SWAP2 SUB SWAP1 RETURN JUMPDEST PUSH2 0x209 PUSH2 0x806 JUMP JUMPDEST PUSH2 0x1EF PUSH2 0x815 JUMP JUMPDEST PUSH2 0x209 PUSH2 0x81B JUMP JUMPDEST PUSH2 0x3DA PUSH2 0x82A JUMP JUMPDEST PUSH1 0x40 DUP1 MLOAD SWAP2 ISZERO ISZERO DUP3 MSTORE MLOAD SWAP1 DUP2 SWAP1 SUB PUSH1 0x20 ADD SWAP1 RETURN JUMPDEST PUSH2 0x41A PUSH1 0x4 DUP1 CALLDATASIZE SUB PUSH1 0x40 DUP2 LT ISZERO PUSH2 0x404 JUMPI PUSH1 0x0 DUP1 REVERT JUMPDEST POP PUSH1 0x1 PUSH1 0x1 PUSH1 0xA0 SHL SUB DUP2 CALLDATALOAD AND SWAP1 PUSH1 0x20 ADD CALLDATALOAD PUSH2 0x83B JUMP JUMPDEST PUSH1 0x40 DUP1 MLOAD SWAP5 DUP6 MSTORE PUSH1 0x20 DUP6 ADD SWAP4 SWAP1 SWAP4 MSTORE DUP4 DUP4 ADD SWAP2 SWAP1 SWAP2 MSTORE PUSH1 0x60 DUP4 ADD MSTORE MLOAD SWAP1 DUP2 SWAP1 SUB PUSH1 0x80 ADD SWAP1 RETURN JUMPDEST PUSH2 0x1EF PUSH1 0x4 DUP1 CALLDATASIZE SUB PUSH1 0x40 DUP2 LT ISZERO PUSH2 0x456 JUMPI PUSH1 0x0 DUP1 REVERT JUMPDEST POP PUSH1 0x1 PUSH1 0x1 PUSH1 0xA0 SHL SUB DUP2 CALLDATALOAD AND SWAP1 PUSH1 0x20 ADD CALLDATALOAD PUSH2 0x86D JUMP JUMPDEST PUSH2 0x489 PUSH1 0x4 DUP1 CALLDATASIZE SUB PUSH1 0x20 DUP2 LT ISZERO PUSH2 0x482 JUMPI PUSH1 0x0 DUP1 REVERT JUMPDEST POP CALLDATALOAD PUSH2 0x88A JUMP JUMPDEST PUSH1 0x40 DUP1 MLOAD SWAP8 DUP9 MSTORE PUSH1 0x20 DUP9 ADD SWAP7 SWAP1 SWAP7 MSTORE DUP7 DUP7 ADD SWAP5 SWAP1 SWAP5 MSTORE PUSH1 0x60 DUP7 ADD SWAP3 SWAP1 SWAP3 MSTORE PUSH1 0x80 DUP6 ADD MSTORE PUSH1 0xA0 DUP5 ADD MSTORE PUSH1 0x1 PUSH1 0x1 PUSH1 0xA0 SHL SUB AND PUSH1 0xC0 DUP4 ADD MSTORE MLOAD SWAP1 DUP2 SWAP1 SUB PUSH1 0xE0 ADD SWAP1 RETURN JUMPDEST PUSH2 0x25F PUSH1 0x4 DUP1 CALLDATASIZE SUB PUSH1 0x40 DUP2 LT ISZERO PUSH2 0x4E0 JUMPI PUSH1 0x0 DUP1 REVERT JUMPDEST POP PUSH1 0x1 PUSH1 0x1 PUSH1 0xA0 SHL SUB DUP2 CALLDATALOAD AND SWAP1 PUSH1 0x20 ADD CALLDATALOAD PUSH2 0x8D0 JUMP JUMPDEST PUSH2 0x209 PUSH2 0x8FC JUMP JUMPDEST PUSH2 0x1EF PUSH1 0x4 DUP1 CALLDATASIZE SUB PUSH1 0x20 DUP2 LT ISZERO PUSH2 0x514 JUMPI PUSH1 0x0 DUP1 REVERT JUMPDEST POP CALLDATALOAD PUSH2 0x90B JUMP JUMPDEST PUSH2 0x1EF PUSH2 0x91D JUMP JUMPDEST PUSH2 0x316 PUSH1 0x4 DUP1 CALLDATASIZE SUB PUSH1 0x40 DUP2 LT ISZERO PUSH2 0x539 JUMPI PUSH1 0x0 DUP1 REVERT JUMPDEST POP DUP1 CALLDATALOAD SWAP1 PUSH1 0x20 ADD CALLDATALOAD ISZERO ISZERO PUSH2 0x923 JUMP JUMPDEST PUSH2 0x1EF PUSH1 0x4 DUP1 CALLDATASIZE SUB PUSH1 0x40 DUP2 LT ISZERO PUSH2 0x55E JUMPI PUSH1 0x0 DUP1 REVERT JUMPDEST POP PUSH1 0x1 PUSH1 0x1 PUSH1 0xA0 SHL SUB DUP2 CALLDATALOAD AND SWAP1 PUSH1 0x20 ADD CALLDATALOAD PUSH2 0xB0C JUMP JUMPDEST PUSH2 0x3DA PUSH1 0x4 DUP1 CALLDATASIZE SUB PUSH1 0x40 DUP2 LT ISZERO PUSH2 0x58A JUMPI PUSH1 0x0 DUP1 REVERT JUMPDEST POP PUSH1 0x1 PUSH1 0x1 PUSH1 0xA0 SHL SUB DUP2 CALLDATALOAD AND SWAP1 PUSH1 0x20 ADD CALLDATALOAD PUSH2 0xB29 JUMP JUMPDEST PUSH2 0x1EF PUSH2 0xBC0 JUMP JUMPDEST PUSH2 0x316 PUSH1 0x4 DUP1 CALLDATASIZE SUB PUSH1 0x20 DUP2 LT ISZERO PUSH2 0x5BE JUMPI PUSH1 0x0 DUP1 REVERT JUMPDEST POP CALLDATALOAD PUSH1 0x1 PUSH1 0x1 PUSH1 0xA0 SHL SUB AND PUSH2 0xBC6 JUMP JUMPDEST PUSH1 0x69 PUSH1 0x20 MSTORE PUSH1 0x0 SWAP1 DUP2 MSTORE PUSH1 0x40 SWAP1 KECCAK256 SLOAD DUP2 JUMP JUMPDEST PUSH1 0x7B SLOAD PUSH1 0x1 PUSH1 0x1 PUSH1 0xA0 SHL SUB AND DUP2 JUMP JUMPDEST PUSH1 0x76 SLOAD DUP2 JUMP JUMPDEST PUSH1 0x71 PUSH1 0x20 SWAP1 DUP2 MSTORE PUSH1 0x0 SWAP4 DUP5 MSTORE PUSH1 0x40 DUP1 DUP6 KECCAK256 DUP3 MSTORE SWAP3 DUP5 MSTORE DUP3 DUP5 KECCAK256 SWAP1 MSTORE DUP3 MSTORE SWAP1 KECCAK256 DUP1 SLOAD PUSH1 0x1 DUP3 ADD SLOAD PUSH1 0x2 SWAP1 SWAP3 ADD SLOAD SWAP1 SWAP2 SWAP1 DUP4 JUMP JUMPDEST PUSH1 0x6D SLOAD DUP2 JUMP JUMPDEST PUSH1 0x77 PUSH1 0x20 MSTORE DUP1 PUSH1 0x0 MSTORE PUSH1 0x40 PUSH1 0x0 KECCAK256 PUSH1 0x0 SWAP2 POP SWAP1 POP DUP1 PUSH1 0x7 ADD SLOAD SWAP1 DUP1 PUSH1 0x8 ADD SLOAD SWAP1 DUP1 PUSH1 0x9 ADD SLOAD SWAP1 DUP1 PUSH1 0xA ADD SLOAD SWAP1 DUP1 PUSH1 0xB ADD SLOAD SWAP1 DUP1 PUSH1 0xC ADD SLOAD SWAP1 DUP1 PUSH1 0xD ADD SLOAD SWAP1 POP DUP8 JUMP JUMPDEST PUSH1 0x6E SLOAD DUP2 JUMP JUMPDEST PUSH1 0x0 PUSH2 0x681 DUP4 DUP4 PUSH2 0xB29 JUMP JUMPDEST PUSH2 0x68D JUMPI POP PUSH1 0x0 PUSH2 0x6B3 JUMP JUMPDEST POP PUSH1 0x1 PUSH1 0x1 PUSH1 0xA0 SHL SUB DUP3 AND PUSH1 0x0 SWAP1 DUP2 MSTORE PUSH1 0x73 PUSH1 0x20 SWAP1 DUP2 MSTORE PUSH1 0x40 DUP1 DUP4 KECCAK256 DUP5 DUP5 MSTORE SWAP1 SWAP2 MSTORE SWAP1 KECCAK256 SLOAD JUMPDEST SWAP3 SWAP2 POP POP JUMP JUMPDEST PUSH2 0x6C1 PUSH2 0x82A JUMP JUMPDEST PUSH2 0x712 JUMPI PUSH1 0x40 DUP1 MLOAD PUSH3 0x461BCD PUSH1 0xE5 SHL DUP2 MSTORE PUSH1 0x20 PUSH1 0x4 DUP3 ADD DUP2 SWAP1 MSTORE PUSH1 0x24 DUP3 ADD MSTORE PUSH32 0x4F776E61626C653A2063616C6C6572206973206E6F7420746865206F776E6572 PUSH1 0x44 DUP3 ADD MSTORE SWAP1 MLOAD SWAP1 DUP2 SWAP1 SUB PUSH1 0x64 ADD SWAP1 REVERT JUMPDEST PUSH1 0x33 SLOAD PUSH1 0x40 MLOAD PUSH1 0x0 SWAP2 PUSH1 0x1 PUSH1 0x1 PUSH1 0xA0 SHL SUB AND SWAP1 PUSH32 0x8BE0079C531659141344CD1FD0A4F28419497F9722A3DAAFE3B4186F6B6457E0 SWAP1 DUP4 SWAP1 LOG3 PUSH1 0x33 DUP1 SLOAD PUSH1 0x1 PUSH1 0x1 PUSH1 0xA0 SHL SUB NOT AND SWAP1 SSTORE JUMP JUMPDEST PUSH1 0x67 SLOAD PUSH1 0x1 ADD SWAP1 JUMP JUMPDEST PUSH1 0x67 SLOAD DUP2 JUMP JUMPDEST PUSH1 0x6A PUSH1 0x20 SWAP1 DUP2 MSTORE PUSH1 0x0 SWAP2 DUP3 MSTORE PUSH1 0x40 SWAP2 DUP3 SWAP1 KECCAK256 DUP1 SLOAD DUP4 MLOAD PUSH1 0x1F PUSH1 0x2 PUSH1 0x0 NOT PUSH2 0x100 PUSH1 0x1 DUP7 AND ISZERO MUL ADD SWAP1 SWAP4 AND SWAP3 SWAP1 SWAP3 DIV SWAP2 DUP3 ADD DUP5 SWAP1 DIV DUP5 MUL DUP2 ADD DUP5 ADD SWAP1 SWAP5 MSTORE DUP1 DUP5 MSTORE SWAP1 SWAP2 DUP4 ADD DUP3 DUP3 DUP1 ISZERO PUSH2 0x7FE JUMPI DUP1 PUSH1 0x1F LT PUSH2 0x7D3 JUMPI PUSH2 0x100 DUP1 DUP4 SLOAD DIV MUL DUP4 MSTORE SWAP2 PUSH1 0x20 ADD SWAP2 PUSH2 0x7FE JUMP JUMPDEST DUP3 ADD SWAP2 SWAP1 PUSH1 0x0 MSTORE PUSH1 0x20 PUSH1 0x0 KECCAK256 SWAP1 JUMPDEST DUP2 SLOAD DUP2 MSTORE SWAP1 PUSH1 0x1 ADD SWAP1 PUSH1 0x20 ADD DUP1 DUP4 GT PUSH2 0x7E1 JUMPI DUP3 SWAP1 SUB PUSH1 0x1F AND DUP3 ADD SWAP2 JUMPDEST POP POP POP POP POP DUP2 JUMP JUMPDEST PUSH1 0x82 SLOAD PUSH1 0x1 PUSH1 0x1 PUSH1 0xA0 SHL SUB AND DUP2 JUMP JUMPDEST PUSH1 0x6C SLOAD DUP2 JUMP JUMPDEST PUSH1 0x33 SLOAD PUSH1 0x1 PUSH1 0x1 PUSH1 0xA0 SHL SUB AND SWAP1 JUMP JUMPDEST PUSH1 0x33 SLOAD PUSH1 0x1 PUSH1 0x1 PUSH1 0xA0 SHL SUB AND CALLER EQ SWAP1 JUMP JUMPDEST PUSH1 0x73 PUSH1 0x20 SWAP1 DUP2 MSTORE PUSH1 0x0 SWAP3 DUP4 MSTORE PUSH1 0x40 DUP1 DUP5 KECCAK256 SWAP1 SWAP2 MSTORE SWAP1 DUP3 MSTORE SWAP1 KECCAK256 DUP1 SLOAD PUSH1 0x1 DUP3 ADD SLOAD PUSH1 0x2 DUP4 ADD SLOAD PUSH1 0x3 SWAP1 SWAP4 ADD SLOAD SWAP2 SWAP3 SWAP1 SWAP2 DUP5 JUMP JUMPDEST PUSH1 0x70 PUSH1 0x20 SWAP1 DUP2 MSTORE PUSH1 0x0 SWAP3 DUP4 MSTORE PUSH1 0x40 DUP1 DUP5 KECCAK256 SWAP1 SWAP2 MSTORE SWAP1 DUP3 MSTORE SWAP1 KECCAK256 SLOAD DUP2 JUMP JUMPDEST PUSH1 0x68 PUSH1 0x20 MSTORE PUSH1 0x0 SWAP1 DUP2 MSTORE PUSH1 0x40 SWAP1 KECCAK256 DUP1 SLOAD PUSH1 0x1 DUP3 ADD SLOAD PUSH1 0x2 DUP4 ADD SLOAD PUSH1 0x3 DUP5 ADD SLOAD PUSH1 0x4 DUP6 ADD SLOAD PUSH1 0x5 DUP7 ADD SLOAD PUSH1 0x6 SWAP1 SWAP7 ADD SLOAD SWAP5 SWAP6 SWAP4 SWAP5 SWAP3 SWAP4 SWAP2 SWAP3 SWAP1 SWAP2 SWAP1 PUSH1 0x1 PUSH1 0x1 PUSH1 0xA0 SHL SUB AND DUP8 JUMP JUMPDEST PUSH1 0x74 PUSH1 0x20 SWAP1 DUP2 MSTORE PUSH1 0x0 SWAP3 DUP4 MSTORE PUSH1 0x40 DUP1 DUP5 KECCAK256 SWAP1 SWAP2 MSTORE SWAP1 DUP3 MSTORE SWAP1 KECCAK256 DUP1 SLOAD PUSH1 0x1 DUP3 ADD SLOAD PUSH1 0x2 SWAP1 SWAP3 ADD SLOAD SWAP1 SWAP2 SWAP1 DUP4 JUMP JUMPDEST PUSH1 0x7F SLOAD PUSH1 0x1 PUSH1 0x1 PUSH1 0xA0 SHL SUB AND DUP2 JUMP JUMPDEST PUSH1 0x7A PUSH1 0x20 MSTORE PUSH1 0x0 SWAP1 DUP2 MSTORE PUSH1 0x40 SWAP1 KECCAK256 SLOAD DUP2 JUMP JUMPDEST PUSH1 0x6B SLOAD DUP2 JUMP JUMPDEST PUSH2 0x92C DUP3 PUSH2 0xC2B JUMP JUMPDEST PUSH2 0x97D JUMPI PUSH1 0x40 DUP1 MLOAD PUSH3 0x461BCD PUSH1 0xE5 SHL DUP2 MSTORE PUSH1 0x20 PUSH1 0x4 DUP3 ADD MSTORE PUSH1 0x17 PUSH1 0x24 DUP3 ADD MSTORE PUSH32 0x76616C696461746F7220646F65736E2774206578697374000000000000000000 PUSH1 0x44 DUP3 ADD MSTORE SWAP1 MLOAD SWAP1 DUP2 SWAP1 SUB PUSH1 0x64 ADD SWAP1 REVERT JUMPDEST PUSH1 0x0 DUP3 DUP2 MSTORE PUSH1 0x68 PUSH1 0x20 MSTORE PUSH1 0x40 SWAP1 KECCAK256 PUSH1 0x3 DUP2 ADD SLOAD SWAP1 SLOAD ISZERO PUSH2 0x99B JUMPI POP PUSH1 0x0 JUMPDEST PUSH1 0x66 SLOAD PUSH1 0x40 DUP1 MLOAD PUSH4 0x520337DF PUSH1 0xE1 SHL DUP2 MSTORE PUSH1 0x4 DUP2 ADD DUP7 SWAP1 MSTORE PUSH1 0x24 DUP2 ADD DUP5 SWAP1 MSTORE SWAP1 MLOAD PUSH1 0x1 PUSH1 0x1 PUSH1 0xA0 SHL SUB SWAP1 SWAP3 AND SWAP2 PUSH4 0xA4066FBE SWAP2 PUSH1 0x44 DUP1 DUP3 ADD SWAP3 PUSH1 0x0 SWAP3 SWAP1 SWAP2 SWAP1 DUP3 SWAP1 SUB ADD DUP2 DUP4 DUP8 DUP1 EXTCODESIZE ISZERO DUP1 ISZERO PUSH2 0x9EF JUMPI PUSH1 0x0 DUP1 REVERT JUMPDEST POP GAS CALL ISZERO DUP1 ISZERO PUSH2 0xA03 JUMPI RETURNDATASIZE PUSH1 0x0 DUP1 RETURNDATACOPY RETURNDATASIZE PUSH1 0x0 REVERT JUMPDEST POP POP POP POP DUP2 DUP1 ISZERO PUSH2 0xA13 JUMPI POP DUP1 ISZERO ISZERO JUMPDEST ISZERO PUSH2 0xB07 JUMPI PUSH1 0x66 SLOAD PUSH1 0x0 DUP5 DUP2 MSTORE PUSH1 0x6A PUSH1 0x20 MSTORE PUSH1 0x40 SWAP1 DUP2 SWAP1 KECCAK256 DUP2 MLOAD PUSH4 0x242A6E3F PUSH1 0xE0 SHL DUP2 MSTORE PUSH1 0x4 DUP2 ADD DUP8 DUP2 MSTORE PUSH1 0x24 DUP3 ADD SWAP4 DUP5 MSTORE DUP3 SLOAD PUSH1 0x2 PUSH1 0x0 NOT PUSH1 0x1 DUP4 AND ISZERO PUSH2 0x100 MUL ADD SWAP1 SWAP2 AND DIV PUSH1 0x44 DUP4 ADD DUP2 SWAP1 MSTORE PUSH1 0x1 PUSH1 0x1 PUSH1 0xA0 SHL SUB SWAP1 SWAP6 AND SWAP5 PUSH4 0x242A6E3F SWAP5 DUP10 SWAP5 SWAP4 SWAP1 SWAP2 PUSH1 0x64 SWAP1 SWAP2 ADD SWAP1 DUP5 SWAP1 DUP1 ISZERO PUSH2 0xACD JUMPI DUP1 PUSH1 0x1F LT PUSH2 0xAA2 JUMPI PUSH2 0x100 DUP1 DUP4 SLOAD DIV MUL DUP4 MSTORE SWAP2 PUSH1 0x20 ADD SWAP2 PUSH2 0xACD JUMP JUMPDEST DUP3 ADD SWAP2 SWAP1 PUSH1 0x0 MSTORE PUSH1 0x20 PUSH1 0x0 KECCAK256 SWAP1 JUMPDEST DUP2 SLOAD DUP2 MSTORE SWAP1 PUSH1 0x1 ADD SWAP1 PUSH1 0x20 ADD DUP1 DUP4 GT PUSH2 0xAB0 JUMPI DUP3 SWAP1 SUB PUSH1 0x1F AND DUP3 ADD SWAP2 JUMPDEST POP POP SWAP4 POP POP POP POP PUSH1 0x0 PUSH1 0x40 MLOAD DUP1 DUP4 SUB DUP2 PUSH1 0x0 DUP8 DUP1 EXTCODESIZE ISZERO DUP1 ISZERO PUSH2 0xAEE JUMPI PUSH1 0x0 DUP1 REVERT JUMPDEST POP GAS CALL ISZERO DUP1 ISZERO PUSH2 0xB02 JUMPI RETURNDATASIZE PUSH1 0x0 DUP1 RETURNDATACOPY RETURNDATASIZE PUSH1 0x0 REVERT JUMPDEST POP POP POP POP JUMPDEST POP POP POP JUMP JUMPDEST PUSH1 0x72 PUSH1 0x20 SWAP1 DUP2 MSTORE PUSH1 0x0 SWAP3 DUP4 MSTORE PUSH1 0x40 DUP1 DUP5 KECCAK256 SWAP1 SWAP2 MSTORE SWAP1 DUP3 MSTORE SWAP1 KECCAK256 SLOAD DUP2 JUMP JUMPDEST PUSH1 0x1 PUSH1 0x1 PUSH1 0xA0 SHL SUB DUP3 AND PUSH1 0x0 SWAP1 DUP2 MSTORE PUSH1 0x73 PUSH1 0x20 SWAP1 DUP2 MSTORE PUSH1 0x40 DUP1 DUP4 KECCAK256 DUP5 DUP5 MSTORE SWAP1 SWAP2 MSTORE DUP2 KECCAK256 PUSH1 0x2 ADD SLOAD ISZERO DUP1 ISZERO SWAP1 PUSH2 0xB80 JUMPI POP PUSH1 0x1 PUSH1 0x1 PUSH1 0xA0 SHL SUB DUP4 AND PUSH1 0x0 SWAP1 DUP2 MSTORE PUSH1 0x73 PUSH1 0x20 SWAP1 DUP2 MSTORE PUSH1 0x40 DUP1 DUP4 KECCAK256 DUP6 DUP5 MSTORE SWAP1 SWAP2 MSTORE SWAP1 KECCAK256 SLOAD ISZERO ISZERO JUMPDEST DUP1 ISZERO PUSH2 0xBB9 JUMPI POP PUSH1 0x1 PUSH1 0x1 PUSH1 0xA0 SHL SUB DUP4 AND PUSH1 0x0 SWAP1 DUP2 MSTORE PUSH1 0x73 PUSH1 0x20 SWAP1 DUP2 MSTORE PUSH1 0x40 DUP1 DUP4 KECCAK256 DUP6 DUP5 MSTORE SWAP1 SWAP2 MSTORE SWAP1 KECCAK256 PUSH1 0x2 ADD SLOAD PUSH2 0xBB6 PUSH2 0xC42 JUMP JUMPDEST GT ISZERO JUMPDEST SWAP4 SWAP3 POP POP POP JUMP JUMPDEST PUSH1 0x7E SLOAD DUP2 JUMP JUMPDEST PUSH2 0xBCE PUSH2 0x82A JUMP JUMPDEST PUSH2 0xC1F JUMPI PUSH1 0x40 DUP1 MLOAD PUSH3 0x461BCD PUSH1 0xE5 SHL DUP2 MSTORE PUSH1 0x20 PUSH1 0x4 DUP3 ADD DUP2 SWAP1 MSTORE PUSH1 0x24 DUP3 ADD MSTORE PUSH32 0x4F776E61626C653A2063616C6C6572206973206E6F7420746865206F776E6572 PUSH1 0x44 DUP3 ADD MSTORE SWAP1 MLOAD SWAP1 DUP2 SWAP1 SUB PUSH1 0x64 ADD SWAP1 REVERT JUMPDEST PUSH2 0xC28 DUP2 PUSH2 0xC46 JUMP JUMPDEST POP JUMP JUMPDEST PUSH1 0x0 SWAP1 DUP2 MSTORE PUSH1 0x68 PUSH1 0x20 MSTORE PUSH1 0x40 SWAP1 KECCAK256 PUSH1 0x5 ADD SLOAD ISZERO ISZERO SWAP1 JUMP JUMPDEST TIMESTAMP SWAP1 JUMP JUMPDEST PUSH1 0x1 PUSH1 0x1 PUSH1 0xA0 SHL SUB DUP2 AND PUSH2 0xC8B JUMPI PUSH1 0x40 MLOAD PUSH3 0x461BCD PUSH1 0xE5 SHL DUP2 MSTORE PUSH1 0x4 ADD DUP1 DUP1 PUSH1 0x20 ADD DUP3 DUP2 SUB DUP3 MSTORE PUSH1 0x26 DUP2 MSTORE PUSH1 0x20 ADD DUP1 PUSH2 0xCE8 PUSH1 0x26 SWAP2 CODECOPY PUSH1 0x40 ADD SWAP2 POP POP PUSH1 0x40 MLOAD DUP1 SWAP2 SUB SWAP1 REVERT JUMPDEST PUSH1 0x33 SLOAD PUSH1 0x40 MLOAD PUSH1 0x1 PUSH1 0x1 PUSH1 0xA0 SHL SUB DUP1 DUP5 AND SWAP3 AND SWAP1 PUSH32 0x8BE0079C531659141344CD1FD0A4F28419497F9722A3DAAFE3B4186F6B6457E0 SWAP1 PUSH1 0x0 SWAP1 LOG3 PUSH1 0x33 DUP1 SLOAD PUSH1 0x1 PUSH1 0x1 PUSH1 0xA0 SHL SUB NOT AND PUSH1 0x1 PUSH1 0x1 PUSH1 0xA0 SHL SUB SWAP3 SWAP1 SWAP3 AND SWAP2 SWAP1 SWAP2 OR SWAP1 SSTORE JUMP INVALID 0x4F PUSH24 0x6E61626C653A206E6577206F776E65722069732074686520 PUSH27 0x65726F2061646472657373A265627A7A72315820331628E98DC0EA CALLDATASIZE 0xE CALLER LT CREATE2 0xB9 0xB3 PUSH19 0x2709E6263877FB3C5F9077B1AC24AEB8D46473 PUSH16 0x6C634300051100320000000000000000 ",
  "sha1": "f190b46ca64c32b35ea2e5765f039384eb1dae48",
  "source": "pragma solidity ^0.5.0;\n\ninterface SFCI {\n    function currentSealedEpoch() external view returns (uint256);\n\n    function getEpochSnapshot(uint256) external view returns (uint256 endTime, uint256 epochFee, uint256 totalBaseRewardWeight, uint256 totalTxRewardWeight, uint256 _baseRewardPerSecond, uint256 totalStake, uint256 totalSupply);\n\n    function getLockupInfo(address, uint256) external view returns (uint256 lockedStake, uint256 fromEpoch, uint256 endTime, uint256 duration);\n\n    function getStake(address, uint256) external view returns (uint256);\n\n    function getStashedLockupRewards(address, uint256) external view returns (uint256 lockupExtraReward, uint256 lockupBaseReward, uint256 unlockedReward);\n\n    function getValidator(uint256) external view returns (uint256 status, uint256 deactivatedTime, uint256 deactivatedEpoch, uint256 receivedStake, uint256 createdEpoch, uint256 createdTime, address auth);\n\n    function getValidatorID(address) external view returns (uint256);\n\n    function getValidatorPubkey(uint256) external view returns (bytes memory);\n\n    function getWithdrawalRequest(address, uint256, uint256) external view returns (uint256 epoch, uint256 time, uint256 amount);\n\n    function isOwner() external view returns (bool);\n\n    function lastValidatorID() external view returns (uint256);\n\n    function minGasPrice() external view returns (uint256);\n\n    function owner() external view returns (address);\n\n    function renounceOwnership() external;\n\n    function slashingRefundRatio(uint256) external view returns (uint256);\n\n    function stakeTokenizerAddress() external view returns (address);\n\n    function stashedRewardsUntilEpoch(address, uint256) external view returns (uint256);\n\n    function totalActiveStake() external view returns (uint256);\n\n    function totalSlashedStake() external view returns (uint256);\n\n    function totalStake() external view returns (uint256);\n\n    function totalSupply() external view returns (uint256);\n\n    function transferOwnership(address newOwner) external;\n\n    function treasuryAddress() external view returns (address);\n\n    function version() external pure returns (bytes3);\n\n    function currentEpoch() external view returns (uint256);\n\n    function updateConstsAddress(address v) external;\n\n    function constsAddress() external view returns (address);\n\n    function getEpochValidatorIDs(uint256 epoch) external view returns (uint256[] memory);\n\n    function getEpochReceivedStake(uint256 epoch, uint256 validatorID) external view returns (uint256);\n\n    function getEpochAccumulatedRewardPerToken(uint256 epoch, uint256 validatorID) external view returns (uint256);\n\n    function getEpochAccumulatedUptime(uint256 epoch, uint256 validatorID) external view returns (uint256);\n\n    function getEpochAccumulatedOriginatedTxsFee(uint256 epoch, uint256 validatorID) external view returns (uint256);\n\n    function getEpochOfflineTime(uint256 epoch, uint256 validatorID) external view returns (uint256);\n\n    function getEpochOfflineBlocks(uint256 epoch, uint256 validatorID) external view returns (uint256);\n\n    function rewardsStash(address delegator, uint256 validatorID) external view returns (uint256);\n\n    function getLockedStake(address delegator, uint256 toValidatorID) external view returns (uint256);\n\n    function createValidator(bytes calldata pubkey) external payable;\n\n    function getSelfStake(uint256 validatorID) external view returns (uint256);\n\n    function delegate(uint256 toValidatorID) external payable;\n\n    function undelegate(uint256 toValidatorID, uint256 wrID, uint256 amount) external;\n\n    function isSlashed(uint256 validatorID) external view returns (bool);\n\n    function withdraw(uint256 toValidatorID, uint256 wrID) external;\n\n    function deactivateValidator(uint256 validatorID, uint256 status) external;\n\n    function pendingRewards(address delegator, uint256 toValidatorID) external view returns (uint256);\n\n    function stashRewards(address delegator, uint256 toValidatorID) external;\n\n    function claimRewards(uint256 toValidatorID) external;\n\n    function restakeRewards(uint256 toValidatorID) external;\n\n    function updateBaseRewardPerSecond(uint256 value) external;\n\n    function updateOfflinePenaltyThreshold(uint256 blocksNum, uint256 time) external;\n\n    function updateSlashingRefundRatio(uint256 validatorID, uint256 refundRatio) external;\n\n    function updateStakeTokenizerAddress(address addr) external;\n\n    function updateTreasuryAddress(address v) external;\n\n    function mintFTM(address receiver, uint256 amount, string calldata justification) external;\n\n    function burnFTM(uint256 amount) external;\n\n    function sealEpoch(uint256[] calldata offlineTime, uint256[] calldata offlineBlocks, uint256[] calldata uptimes, uint256[] calldata originatedTxsFee, uint256 epochGas) external;\n\n    function sealEpochValidators(uint256[] calldata nextValidatorIDs) external;\n\n    function isLockedUp(address delegator, uint256 toValidatorID) external view returns (bool);\n\n    function getUnlockedStake(address delegator, uint256 toValidatorID) external view returns (uint256);\n\n    function lockStake(uint256 toValidatorID, uint256 lockupDuration, uint256 amount) external;\n\n    function relockStake(uint256 toValidatorID, uint256 lockupDuration, uint256 amount) external;\n\n    function unlockStake(uint256 toValidatorID, uint256 amount) external returns (uint256);\n\n    function initialize(uint256 sealedEpoch, uint256 _totalSupply, address nodeDriver, address lib, address consts, address _owner) external;\n\n    function setGenesisValidator(address auth, uint256 validatorID, bytes calldata pubkey, uint256 status, uint256 createdEpoch, uint256 createdTime, uint256 deactivatedEpoch, uint256 deactivatedTime) external;\n\n    function setGenesisDelegation(address delegator, uint256 toValidatorID, uint256 stake, uint256 lockedStake, uint256 lockupFromEpoch, uint256 lockupEndTime, uint256 lockupDuration, uint256 earlyUnlockPenalty, uint256 rewards) external;\n\n    function updateVoteBookAddress(address v) external;\n\n    function voteBookAddress(address v) external view returns (address);\n}\n\n// File: contracts/common/Initializable.sol\n\npragma solidity >=0.4.24 <0.7.0;\n\n\n/**\n * @title Initializable\n *\n * @dev Helper contract to support initializer functions. To use it, replace\n * the constructor with a function that has the `initializer` modifier.\n * WARNING: Unlike constructors, initializer functions must be manually\n * invoked. This applies both to deploying an Initializable contract, as well\n * as extending an Initializable contract via inheritance.\n * WARNING: When used with inheritance, manual care must be taken to not invoke\n * a parent initializer twice, or ensure that all initializers are idempotent,\n * because this is not dealt with automatically as with constructors.\n */\ncontract Initializable {\n\n  /**\n   * @dev Indicates that the contract has been initialized.\n   */\n  bool private initialized;\n\n  /**\n   * @dev Indicates that the contract is in the process of being initialized.\n   */\n  bool private initializing;\n\n  /**\n   * @dev Modifier to use in the initializer function of a contract.\n   */\n  modifier initializer() {\n    require(initializing || isConstructor() || !initialized, \"Contract instance has already been initialized\");\n\n    bool isTopLevelCall = !initializing;\n    if (isTopLevelCall) {\n      initializing = true;\n      initialized = true;\n    }\n\n    _;\n\n    if (isTopLevelCall) {\n      initializing = false;\n    }\n  }\n\n  /// @dev Returns true if and only if the function is running in the constructor\n  function isConstructor() private view returns (bool) {\n    // extcodesize checks the size of the code stored in an address, and\n    // address returns the current address. Since the code is still not\n    // deployed when running a constructor, any checks on its code size will\n    // yield zero, making it an effective way to detect if a contract is\n    // under construction or not.\n    address self = address(this);\n    uint256 cs;\n    assembly { cs := extcodesize(self) }\n    return cs == 0;\n  }\n\n  // Reserved storage space to allow for layout changes in the future.\n  uint256[50] private ______gap;\n}\n\n// File: contracts/ownership/Ownable.sol\n\npragma solidity ^0.5.0;\n\n\n/**\n * @dev Contract module which provides a basic access control mechanism, where\n * there is an account (an owner) that can be granted exclusive access to\n * specific functions.\n *\n * This module is used through inheritance. It will make available the modifier\n * `onlyOwner`, which can be aplied to your functions to restrict their use to\n * the owner.\n */\ncontract Ownable is Initializable {\n    address private _owner;\n\n    event OwnershipTransferred(address indexed previousOwner, address indexed newOwner);\n\n    /**\n     * @dev Initializes the contract setting the deployer as the initial owner.\n     */\n    function initialize(address sender) internal initializer {\n        _owner = sender;\n        emit OwnershipTransferred(address(0), _owner);\n    }\n\n    /**\n     * @dev Returns the address of the current owner.\n     */\n    function owner() public view returns (address) {\n        return _owner;\n    }\n\n    /**\n     * @dev Throws if called by any account other than the owner.\n     */\n    modifier onlyOwner() {\n        require(isOwner(), \"Ownable: caller is not the owner\");\n        _;\n    }\n\n    /**\n     * @dev Returns true if the caller is the current owner.\n     */\n    function isOwner() public view returns (bool) {\n        return msg.sender == _owner;\n    }\n\n    /**\n     * @dev Leaves the contract without owner. It will not be possible to call\n     * `onlyOwner` functions anymore. Can only be called by the current owner.\n     *\n     * > Note: Renouncing ownership will leave the contract without an owner,\n     * thereby removing any functionality that is only available to the owner.\n     */\n    function renounceOwnership() public onlyOwner {\n        emit OwnershipTransferred(_owner, address(0));\n        _owner = address(0);\n    }\n\n    /**\n     * @dev Transfers ownership of the contract to a new account (`newOwner`).\n     * Can only be called by the current owner.\n     */\n    function transferOwnership(address newOwner) public onlyOwner {\n        _transferOwnership(newOwner);\n    }\n\n    /**\n     * @dev Transfers ownership of the contract to a new account (`newOwner`).\n     */\n    function _transferOwnership(address newOwner) internal {\n        require(newOwner != address(0), \"Ownable: new owner is the zero address\");\n        emit OwnershipTransferred(_owner, newOwner);\n        _owner = newOwner;\n    }\n\n    uint256[50] private ______gap;\n}\n\n// File: @openzeppelin/contracts/math/SafeMath.sol\n\npragma solidity ^0.5.0;\n\n/**\n * @dev Wrappers over Solidity's arithmetic operations with added overflow\n * checks.\n *\n * Arithmetic operations in Solidity wrap on overflow. This can easily result\n * in bugs, because programmers usually assume that an overflow raises an\n * error, which is the standard behavior in high level programming languages.\n * `SafeMath` restores this intuition by reverting the transaction when an\n * operation overflows.\n *\n * Using this library instead of the unchecked operations eliminates an entire\n * class of bugs, so it's recommended to use it always.\n */\nlibrary SafeMath {\n    /**\n     * @dev Returns the addition of two unsigned integers, reverting on\n     * overflow.\n     *\n     * Counterpart to Solidity's `+` operator.\n     *\n     * Requirements:\n     * - Addition cannot overflow.\n     */\n    function add(uint256 a, uint256 b) internal pure returns (uint256) {\n        uint256 c = a + b;\n        require(c >= a, \"SafeMath: addition overflow\");\n\n        return c;\n    }\n\n    /**\n     * @dev Returns the subtraction of two unsigned integers, reverting on\n     * overflow (when the result is negative).\n     *\n     * Counterpart to Solidity's `-` operator.\n     *\n     * Requirements:\n     * - Subtraction cannot overflow.\n     */\n    function sub(uint256 a, uint256 b) internal pure returns (uint256) {\n        return sub(a, b, \"SafeMath: subtraction overflow\");\n    }\n\n    /**\n     * @dev Returns the subtraction of two unsigned integers, reverting with custom message on\n     * overflow (when the result is negative).\n     *\n     * Counterpart to Solidity's `-` operator.\n     *\n     * Requirements:\n     * - Subtraction cannot overflow.\n     *\n     * _Available since v2.4.0._\n     */\n    function sub(uint256 a, uint256 b, string memory errorMessage) internal pure returns (uint256) {\n        require(b <= a, errorMessage);\n        uint256 c = a - b;\n\n        return c;\n    }\n\n    /**\n     * @dev Returns the multiplication of two unsigned integers, reverting on\n     * overflow.\n     *\n     * Counterpart to Solidity's `*` operator.\n     *\n     * Requirements:\n     * - Multiplication cannot overflow.\n     */\n    function mul(uint256 a, uint256 b) internal pure returns (uint256) {\n        // Gas optimization: this is cheaper than requiring 'a' not being zero, but the\n        // benefit is lost if 'b' is also tested.\n        // See: https://github.com/OpenZeppelin/openzeppelin-contracts/pull/522\n        if (a == 0) {\n            return 0;\n        }\n\n        uint256 c = a * b;\n        require(c / a == b, \"SafeMath: multiplication overflow\");\n\n        return c;\n    }\n\n    /**\n     * @dev Returns the integer division of two unsigned integers. Reverts on\n     * division by zero. The result is rounded towards zero.\n     *\n     * Counterpart to Solidity's `/` operator. Note: this function uses a\n     * `revert` opcode (which leaves remaining gas untouched) while Solidity\n     * uses an invalid opcode to revert (consuming all remaining gas).\n     *\n     * Requirements:\n     * - The divisor cannot be zero.\n     */\n    function div(uint256 a, uint256 b) internal pure returns (uint256) {\n        return div(a, b, \"SafeMath: division by zero\");\n    }\n\n    /**\n     * @dev Returns the integer division of two unsigned integers. Reverts with custom message on\n     * division by zero. The result is rounded towards zero.\n     *\n     * Counterpart to Solidity's `/` operator. Note: this function uses a\n     * `revert` opcode (which leaves remaining gas untouched) while Solidity\n     * uses an invalid opcode to revert (consuming all remaining gas).\n     *\n     * Requirements:\n     * - The divisor cannot be zero.\n     *\n     * _Available since v2.4.0._\n     */\n    function div(uint256 a, uint256 b, string memory errorMessage) internal pure returns (uint256) {\n        // Solidity only automatically asserts when dividing by 0\n        require(b > 0, errorMessage);\n        uint256 c = a / b;\n        // assert(a == b * c + a % b); // There is no case in which this doesn't hold\n\n        return c;\n    }\n\n    /**\n     * @dev Returns the remainder of dividing two unsigned integers. (unsigned integer modulo),\n     * Reverts when dividing by zero.\n     *\n     * Counterpart to Solidity's `%` operator. This function uses a `revert`\n     * opcode (which leaves remaining gas untouched) while Solidity uses an\n     * invalid opcode to revert (consuming all remaining gas).\n     *\n     * Requirements:\n     * - The divisor cannot be zero.\n     */\n    function mod(uint256 a, uint256 b) internal pure returns (uint256) {\n        return mod(a, b, \"SafeMath: modulo by zero\");\n    }\n\n    /**\n     * @dev Returns the remainder of dividing two unsigned integers. (unsigned integer modulo),\n     * Reverts with custom message when dividing by zero.\n     *\n     * Counterpart to Solidity's `%` operator. This function uses a `revert`\n     * opcode (which leaves remaining gas untouched) while Solidity uses an\n     * invalid opcode to revert (consuming all remaining gas).\n     *\n     * Requirements:\n     * - The divisor cannot be zero.\n     *\n     * _Available since v2.4.0._\n     */\n    function mod(uint256 a, uint256 b, string memory errorMessage) internal pure returns (uint256) {\n        require(b != 0, errorMessage);\n        return a % b;\n    }\n}\n\n// File: contracts/sfc/NodeDriver.sol\n\npragma solidity ^0.5.0;\n\n\n\n\n\n\ninterface NodeDriverExecutable {\n    function execute() external;\n}\n\ncontract NodeDriverAuth is Initializable, Ownable {\n    using SafeMath for uint256;\n\n    SFCI internal sfc;\n    NodeDriver internal driver;\n\n    // Initialize NodeDriverAuth, NodeDriver and SFC in one call to allow fewer genesis transactions\n    function initialize(address payable _sfc, address _driver, address _owner) external initializer {\n        Ownable.initialize(_owner);\n        driver = NodeDriver(_driver);\n        sfc = SFCI(_sfc);\n    }\n\n    modifier onlySFC() {\n        require(msg.sender == address(sfc), \"caller is not the SFC contract\");\n        _;\n    }\n\n    modifier onlyDriver() {\n        require(msg.sender == address(driver), \"caller is not the NodeDriver contract\");\n        _;\n    }\n\n    function migrateTo(address newDriverAuth) external onlyOwner {\n        driver.setBackend(newDriverAuth);\n    }\n\n    function _execute(address executable, address newOwner, bytes32 selfCodeHash, bytes32 driverCodeHash) internal {\n        _transferOwnership(executable);\n        NodeDriverExecutable(executable).execute();\n        _transferOwnership(newOwner);\n        //require(driver.backend() == address(this), \"ownership of driver is lost\");\n        require(_getCodeHash(address(this)) == selfCodeHash, \"self code hash doesn't match\");\n        require(_getCodeHash(address(driver)) == driverCodeHash, \"driver code hash doesn't match\");\n    }\n\n    function execute(address executable) external onlyOwner {\n        _execute(executable, owner(), _getCodeHash(address(this)), _getCodeHash(address(driver)));\n    }\n\n    function mutExecute(address executable, address newOwner, bytes32 selfCodeHash, bytes32 driverCodeHash) external onlyOwner {\n        _execute(executable, newOwner, selfCodeHash, driverCodeHash);\n    }\n\n    function incBalance(address acc, uint256 diff) external onlySFC {\n        require(acc == address(sfc), \"recipient is not the SFC contract\");\n        driver.setBalance(acc, address(acc).balance.add(diff));\n    }\n\n    function upgradeCode(address acc, address from) external onlyOwner {\n        require(isContract(acc) && isContract(from), \"not a contract\");\n        driver.copyCode(acc, from);\n    }\n\n    function copyCode(address acc, address from) external onlyOwner {\n        driver.copyCode(acc, from);\n    }\n\n    function incNonce(address acc, uint256 diff) external onlyOwner {\n        driver.incNonce(acc, diff);\n    }\n\n    function updateNetworkRules(bytes calldata diff) external onlyOwner {\n        driver.updateNetworkRules(diff);\n    }\n\n    function updateMinGasPrice(uint256 minGasPrice) external onlySFC {\n        driver.updateNetworkRules(bytes(strConcat(\"{\\\"Economy\\\":{\\\"MinGasPrice\\\":\", uint256ToStr(minGasPrice), \"}}\")));\n    }\n\n    function updateNetworkVersion(uint256 version) external onlyOwner {\n        driver.updateNetworkVersion(version);\n    }\n\n    function advanceEpochs(uint256 num) external onlyOwner {\n        driver.advanceEpochs(num);\n    }\n\n    function updateValidatorWeight(uint256 validatorID, uint256 value) external onlySFC {\n        driver.updateValidatorWeight(validatorID, value);\n    }\n\n    function updateValidatorPubkey(uint256 validatorID, bytes calldata pubkey) external onlySFC {\n        driver.updateValidatorPubkey(validatorID, pubkey);\n    }\n\n    function setGenesisValidator(address _auth, uint256 validatorID, bytes calldata pubkey, uint256 status, uint256 createdEpoch, uint256 createdTime, uint256 deactivatedEpoch, uint256 deactivatedTime) external onlyDriver {\n        sfc.setGenesisValidator(_auth, validatorID, pubkey, status, createdEpoch, createdTime, deactivatedEpoch, deactivatedTime);\n    }\n\n    function setGenesisDelegation(address delegator, uint256 toValidatorID, uint256 stake, uint256 lockedStake, uint256 lockupFromEpoch, uint256 lockupEndTime, uint256 lockupDuration, uint256 earlyUnlockPenalty, uint256 rewards) external onlyDriver {\n        sfc.setGenesisDelegation(delegator, toValidatorID, stake, lockedStake, lockupFromEpoch, lockupEndTime, lockupDuration, earlyUnlockPenalty, rewards);\n    }\n\n    function deactivateValidator(uint256 validatorID, uint256 status) external onlyDriver {\n        sfc.deactivateValidator(validatorID, status);\n    }\n\n    function sealEpochValidators(uint256[] calldata nextValidatorIDs) external onlyDriver {\n        sfc.sealEpochValidators(nextValidatorIDs);\n    }\n\n    function sealEpoch(uint256[] calldata offlineTimes, uint256[] calldata offlineBlocks, uint256[] calldata uptimes, uint256[] calldata originatedTxsFee, uint256 usedGas) external onlyDriver {\n        sfc.sealEpoch(offlineTimes, offlineBlocks, uptimes, originatedTxsFee, usedGas);\n    }\n\n    function isContract(address account) internal view returns (bool) {\n        uint256 size;\n        // solhint-disable-next-line no-inline-assembly\n        assembly {size := extcodesize(account)}\n        return size > 0;\n    }\n\n    function decimalsNum(uint256 num) internal pure returns (uint256) {\n        uint decimals;\n        while (num != 0) {\n            decimals++;\n            num /= 10;\n        }\n        return decimals;\n    }\n\n    function uint256ToStr(uint256 num) internal pure returns (string memory) {\n        if (num == 0) {\n            return \"0\";\n        }\n        uint decimals = decimalsNum(num);\n        bytes memory bstr = new bytes(decimals);\n        uint strIdx = decimals - 1;\n        while (num != 0) {\n            bstr[strIdx] = byte(uint8(48 + num % 10));\n            num /= 10;\n            strIdx--;\n        }\n        return string(bstr);\n    }\n\n    function strConcat(string memory _a, string memory _b, string memory _c) internal pure returns (string memory) {\n        bytes memory _ba = bytes(_a);\n        bytes memory _bb = bytes(_b);\n        bytes memory _bc = bytes(_c);\n        string memory abc = new string(_ba.length + _bb.length + _bc.length);\n        bytes memory babc = bytes(abc);\n        uint k = 0;\n        uint i = 0;\n        for (i = 0; i < _ba.length; i++) {\n            babc[k++] = _ba[i];\n        }\n        for (i = 0; i < _bb.length; i++) {\n            babc[k++] = _bb[i];\n        }\n        for (i = 0; i < _bc.length; i++) {\n            babc[k++] = _bc[i];\n        }\n        return string(babc);\n    }\n\n    function _getCodeHash(address addr) internal view returns (bytes32) {\n        bytes32 codeHash;\n        assembly {codeHash := extcodehash(addr)}\n        return codeHash;\n    }\n}\n\ncontract NodeDriver is Initializable {\n    uint256 private erased0;\n    NodeDriverAuth internal backend;\n    EVMWriter internal evmWriter;\n\n    event UpdatedBackend(address indexed backend);\n\n    function setBackend(address _backend) external onlyBackend {\n        emit UpdatedBackend(_backend);\n        backend = NodeDriverAuth(_backend);\n    }\n\n    modifier onlyBackend() {\n        require(msg.sender == address(backend), \"caller is not the backend\");\n        _;\n    }\n\n    event UpdateValidatorWeight(uint256 indexed validatorID, uint256 weight);\n    event UpdateValidatorPubkey(uint256 indexed validatorID, bytes pubkey);\n\n    event UpdateNetworkRules(bytes diff);\n    event UpdateNetworkVersion(uint256 version);\n    event AdvanceEpochs(uint256 num);\n\n    function initialize(address _backend, address _evmWriterAddress) external initializer {\n        backend = NodeDriverAuth(_backend);\n        emit UpdatedBackend(_backend);\n        evmWriter = EVMWriter(_evmWriterAddress);\n    }\n\n    function setBalance(address acc, uint256 value) external onlyBackend {\n        evmWriter.setBalance(acc, value);\n    }\n\n    function copyCode(address acc, address from) external onlyBackend {\n        evmWriter.copyCode(acc, from);\n    }\n\n    function swapCode(address acc, address with) external onlyBackend {\n        evmWriter.swapCode(acc, with);\n    }\n\n    function setStorage(address acc, bytes32 key, bytes32 value) external onlyBackend {\n        evmWriter.setStorage(acc, key, value);\n    }\n\n    function incNonce(address acc, uint256 diff) external onlyBackend {\n        evmWriter.incNonce(acc, diff);\n    }\n\n    function updateNetworkRules(bytes calldata diff) external onlyBackend {\n        emit UpdateNetworkRules(diff);\n    }\n\n    function updateNetworkVersion(uint256 version) external onlyBackend {\n        emit UpdateNetworkVersion(version);\n    }\n\n    function advanceEpochs(uint256 num) external onlyBackend {\n        emit AdvanceEpochs(num);\n    }\n\n    function updateValidatorWeight(uint256 validatorID, uint256 value) external onlyBackend {\n        emit UpdateValidatorWeight(validatorID, value);\n    }\n\n    function updateValidatorPubkey(uint256 validatorID, bytes calldata pubkey) external onlyBackend {\n        emit UpdateValidatorPubkey(validatorID, pubkey);\n    }\n\n    modifier onlyNode() {\n        require(msg.sender == address(0), \"not callable\");\n        _;\n    }\n\n    // Methods which are called only by the node\n\n    function setGenesisValidator(address _auth, uint256 validatorID, bytes calldata pubkey, uint256 status, uint256 createdEpoch, uint256 createdTime, uint256 deactivatedEpoch, uint256 deactivatedTime) external onlyNode {\n        backend.setGenesisValidator(_auth, validatorID, pubkey, status, createdEpoch, createdTime, deactivatedEpoch, deactivatedTime);\n    }\n\n    function setGenesisDelegation(address delegator, uint256 toValidatorID, uint256 stake, uint256 lockedStake, uint256 lockupFromEpoch, uint256 lockupEndTime, uint256 lockupDuration, uint256 earlyUnlockPenalty, uint256 rewards) external onlyNode {\n        backend.setGenesisDelegation(delegator, toValidatorID, stake, lockedStake, lockupFromEpoch, lockupEndTime, lockupDuration, earlyUnlockPenalty, rewards);\n    }\n\n    function deactivateValidator(uint256 validatorID, uint256 status) external onlyNode {\n        backend.deactivateValidator(validatorID, status);\n    }\n\n    function sealEpochValidators(uint256[] calldata nextValidatorIDs) external onlyNode {\n        backend.sealEpochValidators(nextValidatorIDs);\n    }\n\n    function sealEpoch(uint256[] calldata offlineTimes, uint256[] calldata offlineBlocks, uint256[] calldata uptimes, uint256[] calldata originatedTxsFee) external onlyNode {\n        backend.sealEpoch(offlineTimes, offlineBlocks, uptimes, originatedTxsFee, 841669690);\n    }\n\n    function sealEpochV1(uint256[] calldata offlineTimes, uint256[] calldata offlineBlocks, uint256[] calldata uptimes, uint256[] calldata originatedTxsFee, uint256 usedGas) external onlyNode {\n        backend.sealEpoch(offlineTimes, offlineBlocks, uptimes, originatedTxsFee, usedGas);\n    }\n}\n\ninterface EVMWriter {\n    function setBalance(address acc, uint256 value) external;\n\n    function copyCode(address acc, address from) external;\n\n    function swapCode(address acc, address with) external;\n\n    function setStorage(address acc, bytes32 key, bytes32 value) external;\n\n    function incNonce(address acc, uint256 diff) external;\n}\n\n// File: contracts/version/Version.sol\n\npragma solidity ^0.5.0;\n\n/**\n * @dev Version contract gives the versioning information of the implementation contract\n */\ncontract Version {\n    /**\n     * @dev Returns the address of the current owner.\n     */\n    function version() public pure returns (bytes3) {\n        // version 3.0.4\n        return \"304\";\n    }\n}\n\n// File: contracts/common/Decimal.sol\n\npragma solidity ^0.5.0;\n\nlibrary Decimal {\n    // unit is used for decimals, e.g. 0.123456\n    function unit() internal pure returns (uint256) {\n        return 1e18;\n    }\n}\n\n// File: contracts/sfc/ConstantsManager.sol\n\npragma solidity ^0.5.0;\n\n\n\n\ncontract ConstantsManager is Ownable {\n    using SafeMath for uint256;\n\n    // Minimum amount of stake for a validator, i.e., 500000 FTM\n    uint256 public minSelfStake;\n    // Maximum ratio of delegations a validator can have, say, 15 times of self-stake\n    uint256 public maxDelegatedRatio;\n    // The commission fee in percentage a validator will get from a delegation, e.g., 15%\n    uint256 public validatorCommission;\n    // The percentage of fees to burn, e.g., 20%\n    uint256 public burntFeeShare;\n    // The percentage of fees to transfer to treasury address, e.g., 10%\n    uint256 public treasuryFeeShare;\n    // The ratio of the reward rate at base rate (no lock), e.g., 30%\n    uint256 public unlockedRewardRatio;\n    // The minimum duration of a stake/delegation lockup, e.g. 2 weeks\n    uint256 public minLockupDuration;\n    // The maximum duration of a stake/delegation lockup, e.g. 1 year\n    uint256 public maxLockupDuration;\n    // the number of epochs that undelegated stake is locked for\n    uint256 public withdrawalPeriodEpochs;\n    // the number of seconds that undelegated stake is locked for\n    uint256 public withdrawalPeriodTime;\n\n    uint256 public baseRewardPerSecond;\n    uint256 public offlinePenaltyThresholdBlocksNum;\n    uint256 public offlinePenaltyThresholdTime;\n    uint256 public targetGasPowerPerSecond;\n    uint256 public gasPriceBalancingCounterweight;\n\n    address private secondaryOwner_erased;\n\n//    event SecondaryOwnershipTransferred(address indexed previousOwner, address indexed newOwner);\n\n    function initialize() external initializer {\n        Ownable.initialize(msg.sender);\n    }\n\n//    function setSecondaryOwner(address v) onlyOwner external {\n//        emit SecondaryOwnershipTransferred(secondaryOwner, v);\n//        secondaryOwner = v;\n//    }\n\n    function updateMinSelfStake(uint256 v) onlyOwner external {\n        require(v >= 100000 * 1e18, \"too small value\");\n        require(v <= 10000000 * 1e18, \"too large value\");\n        minSelfStake = v;\n    }\n\n    function updateMaxDelegatedRatio(uint256 v) onlyOwner external {\n        require(v >= Decimal.unit(), \"too small value\");\n        require(v <= 31 * Decimal.unit(), \"too large value\");\n        maxDelegatedRatio = v;\n    }\n\n    function updateValidatorCommission(uint256 v) onlyOwner external {\n        require(v <= Decimal.unit() / 2, \"too large value\");\n        validatorCommission = v;\n    }\n\n    function updateBurntFeeShare(uint256 v) onlyOwner external {\n        require(v <= Decimal.unit() / 2, \"too large value\");\n        burntFeeShare = v;\n    }\n\n    function updateTreasuryFeeShare(uint256 v) onlyOwner external {\n        require(v <= Decimal.unit() / 2, \"too large value\");\n        treasuryFeeShare = v;\n    }\n\n    function updateUnlockedRewardRatio(uint256 v) onlyOwner external {\n        require(v >= (5 * Decimal.unit()) / 100, \"too small value\");\n        require(v <= Decimal.unit() / 2, \"too large value\");\n        unlockedRewardRatio = v;\n    }\n\n    function updateMinLockupDuration(uint256 v) onlyOwner external {\n        require(v >= 86400, \"too small value\");\n        require(v <= 86400 * 30, \"too large value\");\n        minLockupDuration = v;\n    }\n\n    function updateMaxLockupDuration(uint256 v) onlyOwner external {\n        require(v >= 86400 * 30, \"too small value\");\n        require(v <= 86400 * 1460, \"too large value\");\n        maxLockupDuration = v;\n    }\n\n    function updateWithdrawalPeriodEpochs(uint256 v) onlyOwner external {\n        require(v >= 2, \"too small value\");\n        require(v <= 100, \"too large value\");\n        withdrawalPeriodEpochs = v;\n    }\n\n    function updateWithdrawalPeriodTime(uint256 v) onlyOwner external {\n        require(v >= 86400, \"too small value\");\n        require(v <= 30 * 86400, \"too large value\");\n        withdrawalPeriodTime = v;\n    }\n\n    function updateBaseRewardPerSecond(uint256 v) onlyOwner external {\n        require(v >= 0.5 * 1e18, \"too small value\");\n        require(v <= 32 * 1e18, \"too large value\");\n        baseRewardPerSecond = v;\n    }\n\n    function updateOfflinePenaltyThresholdTime(uint256 v) onlyOwner external {\n        require(v >= 86400, \"too small value\");\n        require(v <= 10 * 86400, \"too large value\");\n        offlinePenaltyThresholdTime = v;\n    }\n\n    function updateOfflinePenaltyThresholdBlocksNum(uint256 v) onlyOwner external {\n        require(v >= 100, \"too small value\");\n        require(v <= 1000000, \"too large value\");\n        offlinePenaltyThresholdBlocksNum = v;\n    }\n\n    function updateTargetGasPowerPerSecond(uint256 v) onlyOwner external {\n        require(v >= 1000000, \"too small value\");\n        require(v <= 500000000, \"too large value\");\n        targetGasPowerPerSecond = v;\n    }\n\n    function updateGasPriceBalancingCounterweight(uint256 v) onlyOwner external {\n        require(v >= 100, \"too small value\");\n        require(v <= 10 * 86400, \"too large value\");\n        gasPriceBalancingCounterweight = v;\n    }\n}\n\n// File: contracts/sfc/SFCState.sol\n\npragma solidity ^0.5.0;\n\n\n\n\ncontract SFCState is Initializable, Ownable {\n    using SafeMath for uint256;\n    /**\n     * @dev The staking for validation\n     */\n    struct Validator {\n        uint256 status;\n        uint256 deactivatedTime;\n        uint256 deactivatedEpoch;\n\n        uint256 receivedStake;\n        uint256 createdEpoch;\n        uint256 createdTime;\n\n        address auth;\n    }\n\n    NodeDriverAuth internal node;\n\n    struct Rewards {\n        uint256 lockupExtraReward;\n        uint256 lockupBaseReward;\n        uint256 unlockedReward;\n    }\n\n    uint256 public currentSealedEpoch;\n    mapping(uint256 => Validator) public getValidator;\n    mapping(address => uint256) public getValidatorID;\n    mapping(uint256 => bytes) public getValidatorPubkey;\n\n    uint256 public lastValidatorID;\n    uint256 public totalStake;\n    uint256 public totalActiveStake;\n    uint256 public totalSlashedStake;\n\n    mapping(address => mapping(uint256 => Rewards)) internal _rewardsStash; // addr, validatorID -> Rewards\n\n    mapping(address => mapping(uint256 => uint256)) public stashedRewardsUntilEpoch;\n\n    struct WithdrawalRequest {\n        uint256 epoch;\n        uint256 time;\n\n        uint256 amount;\n    }\n\n    mapping(address => mapping(uint256 => mapping(uint256 => WithdrawalRequest))) public getWithdrawalRequest;\n\n    struct LockedDelegation {\n        uint256 lockedStake;\n        uint256 fromEpoch;\n        uint256 endTime;\n        uint256 duration;\n    }\n\n    mapping(address => mapping(uint256 => uint256)) public getStake;\n\n    mapping(address => mapping(uint256 => LockedDelegation)) public getLockupInfo;\n\n    mapping(address => mapping(uint256 => Rewards)) public getStashedLockupRewards;\n\n    struct EpochSnapshot {\n        mapping(uint256 => uint256) receivedStake;\n        mapping(uint256 => uint256) accumulatedRewardPerToken;\n        mapping(uint256 => uint256) accumulatedUptime;\n        mapping(uint256 => uint256) accumulatedOriginatedTxsFee;\n        mapping(uint256 => uint256) offlineTime;\n        mapping(uint256 => uint256) offlineBlocks;\n\n        uint256[] validatorIDs;\n\n        uint256 endTime;\n        uint256 epochFee;\n        uint256 totalBaseRewardWeight;\n        uint256 totalTxRewardWeight;\n        uint256 baseRewardPerSecond;\n        uint256 totalStake;\n        uint256 totalSupply;\n    }\n\n    uint256 private erased0;\n    uint256 public totalSupply;\n    mapping(uint256 => EpochSnapshot) public getEpochSnapshot;\n\n    uint256 private erased1;\n    uint256 private erased2;\n\n    mapping(uint256 => uint256) public slashingRefundRatio; // validator ID -> (slashing refund ratio)\n\n    address public stakeTokenizerAddress;\n\n    uint256 private erased3;\n    uint256 private erased4;\n    uint256 public minGasPrice;\n\n    address public treasuryAddress;\n\n    address internal libAddress;\n\n    ConstantsManager internal c;\n\n    address public voteBookAddress;\n}\n\n// File: contracts/sfc/SFCBase.sol\n\npragma solidity ^0.5.0;\n\n\ncontract SFCBase is SFCState {\n    using SafeMath for uint256;\n\n    uint256 internal constant OK_STATUS = 0;\n    uint256 internal constant WITHDRAWN_BIT = 1;\n    uint256 internal constant OFFLINE_BIT = 1 << 3;\n    uint256 internal constant DOUBLESIGN_BIT = 1 << 7;\n    uint256 internal constant CHEATER_MASK = DOUBLESIGN_BIT;\n\n    event DeactivatedValidator(uint256 indexed validatorID, uint256 deactivatedEpoch, uint256 deactivatedTime);\n    event ChangedValidatorStatus(uint256 indexed validatorID, uint256 status);\n\n    function isNode(address addr) internal view returns (bool) {\n        return addr == address(node);\n    }\n\n    modifier onlyDriver() {\n        require(isNode(msg.sender), \"caller is not the NodeDriverAuth contract\");\n        _;\n    }\n\n    function currentEpoch() public view returns (uint256) {\n        return currentSealedEpoch + 1;\n    }\n\n    function _calcRawValidatorEpochTxReward(uint256 epochFee, uint256 txRewardWeight, uint256 totalTxRewardWeight) internal view returns (uint256) {\n        if (txRewardWeight == 0) {\n            return 0;\n        }\n        uint256 txReward = epochFee.mul(txRewardWeight).div(totalTxRewardWeight);\n        // fee reward except burntFeeShare and treasuryFeeShare\n        return txReward.mul(Decimal.unit() - c.burntFeeShare() - c.treasuryFeeShare()).div(Decimal.unit());\n    }\n\n    function _calcRawValidatorEpochBaseReward(uint256 epochDuration, uint256 _baseRewardPerSecond, uint256 baseRewardWeight, uint256 totalBaseRewardWeight) internal pure returns (uint256) {\n        if (baseRewardWeight == 0) {\n            return 0;\n        }\n        uint256 totalReward = epochDuration.mul(_baseRewardPerSecond);\n        return totalReward.mul(baseRewardWeight).div(totalBaseRewardWeight);\n    }\n\n    function _mintNativeToken(uint256 amount) internal {\n        // balance will be increased after the transaction is processed\n        node.incBalance(address(this), amount);\n        totalSupply = totalSupply.add(amount);\n    }\n\n    function sumRewards(Rewards memory a, Rewards memory b) internal pure returns (Rewards memory) {\n        return Rewards(a.lockupExtraReward.add(b.lockupExtraReward), a.lockupBaseReward.add(b.lockupBaseReward), a.unlockedReward.add(b.unlockedReward));\n    }\n\n    function sumRewards(Rewards memory a, Rewards memory b, Rewards memory c) internal pure returns (Rewards memory) {\n        return sumRewards(sumRewards(a, b), c);\n    }\n\n    function _scaleLockupReward(uint256 fullReward, uint256 lockupDuration) internal view returns (Rewards memory reward) {\n        reward = Rewards(0, 0, 0);\n        uint256 unlockedRewardRatio = c.unlockedRewardRatio();\n        if (lockupDuration != 0) {\n            uint256 maxLockupExtraRatio = Decimal.unit() - unlockedRewardRatio;\n            uint256 lockupExtraRatio = maxLockupExtraRatio.mul(lockupDuration).div(c.maxLockupDuration());\n            uint256 totalScaledReward = fullReward.mul(unlockedRewardRatio + lockupExtraRatio).div(Decimal.unit());\n            reward.lockupBaseReward = fullReward.mul(unlockedRewardRatio).div(Decimal.unit());\n            reward.lockupExtraReward = totalScaledReward - reward.lockupBaseReward;\n        } else {\n            reward.unlockedReward = fullReward.mul(unlockedRewardRatio).div(Decimal.unit());\n        }\n        return reward;\n    }\n\n    function _recountVotes(address delegator, address validatorAuth, bool strict) internal {\n        if (voteBookAddress != address(0)) {\n            // Don't allow recountVotes to use up all the gas\n            (bool success,) = voteBookAddress.call.gas(8000000)(abi.encodeWithSignature(\"recountVotes(address,address)\", delegator, validatorAuth));\n            // Don't revert if recountVotes failed unless strict mode enabled\n            require(success || !strict, \"gov votes recounting failed\");\n        }\n    }\n\n    function _setValidatorDeactivated(uint256 validatorID, uint256 status) internal {\n        if (getValidator[validatorID].status == OK_STATUS && status != OK_STATUS) {\n            totalActiveStake = totalActiveStake.sub(getValidator[validatorID].receivedStake);\n        }\n        // status as a number is proportional to severity\n        if (status > getValidator[validatorID].status) {\n            getValidator[validatorID].status = status;\n            if (getValidator[validatorID].deactivatedEpoch == 0) {\n                getValidator[validatorID].deactivatedEpoch = currentEpoch();\n                getValidator[validatorID].deactivatedTime = _now();\n                emit DeactivatedValidator(validatorID, getValidator[validatorID].deactivatedEpoch, getValidator[validatorID].deactivatedTime);\n            }\n            emit ChangedValidatorStatus(validatorID, status);\n        }\n    }\n\n    function _syncValidator(uint256 validatorID, bool syncPubkey) public {\n        require(_validatorExists(validatorID), \"validator doesn't exist\");\n        // emit special log for node\n        uint256 weight = getValidator[validatorID].receivedStake;\n        if (getValidator[validatorID].status != OK_STATUS) {\n            weight = 0;\n        }\n        node.updateValidatorWeight(validatorID, weight);\n        if (syncPubkey && weight != 0) {\n            node.updateValidatorPubkey(validatorID, getValidatorPubkey[validatorID]);\n        }\n    }\n\n    function _validatorExists(uint256 validatorID) view internal returns (bool) {\n        return getValidator[validatorID].createdTime != 0;\n    }\n\n    function _calcValidatorCommission(uint256 rawReward, uint256 commission) internal pure returns (uint256)  {\n        return rawReward.mul(commission).div(Decimal.unit());\n    }\n\n    function getLockedStake(address delegator, uint256 toValidatorID) public view returns (uint256) {\n        if (!isLockedUp(delegator, toValidatorID)) {\n            return 0;\n        }\n        return getLockupInfo[delegator][toValidatorID].lockedStake;\n    }\n\n    function isLockedUp(address delegator, uint256 toValidatorID) view public returns (bool) {\n        return getLockupInfo[delegator][toValidatorID].endTime != 0 && getLockupInfo[delegator][toValidatorID].lockedStake != 0 && _now() <= getLockupInfo[delegator][toValidatorID].endTime;\n    }\n\n    function _now() internal view returns (uint256) {\n        return block.timestamp;\n    }\n}\n\n// File: contracts/sfc/GasPriceConstants.sol\n\npragma solidity ^0.5.0;\n\n\nlibrary GP {\n    function trimGasPriceChangeRatio(uint256 x) internal pure returns (uint256) {\n        if (x > Decimal.unit() * 105 / 100) {\n            return Decimal.unit() * 105 / 100;\n        }\n        if (x < Decimal.unit() * 95 / 100) {\n            return Decimal.unit() * 95 / 100;\n        }\n        return x;\n    }\n\n    function trimMinGasPrice(uint256 x) internal pure returns (uint256) {\n        if (x > 1000000 * 1e9) {\n            return 1000000 * 1e9;\n        }\n        if (x < 1e9) {\n            return 1e9;\n        }\n        return x;\n    }\n\n    function initialMinGasPrice() internal pure returns (uint256) {\n        return 100 * 1e9;\n    }\n}\n\n// File: contracts/sfc/SFC.sol\n\npragma solidity ^0.5.0;\n\n\n\n\n/**\n * @dev Stakers contract defines data structure and methods for validators / validators.\n */\ncontract SFC is SFCBase, Version {\n    function _delegate(address implementation) internal {\n        assembly {\n        // Copy msg.data. We take full control of memory in this inline assembly\n        // block because it will not return to Solidity code. We overwrite the\n        // Solidity scratch pad at memory position 0.\n            calldatacopy(0, 0, calldatasize)\n\n        // Call the implementation.\n        // out and outsize are 0 because we don't know the size yet.\n            let result := delegatecall(gas, implementation, 0, calldatasize, 0, 0)\n\n        // Copy the returned data.\n            returndatacopy(0, 0, returndatasize)\n\n            switch result\n            // delegatecall returns 0 on error.\n            case 0 {revert(0, returndatasize)}\n            default {return (0, returndatasize)}\n        }\n    }\n\n    function() payable external {\n        require(msg.data.length != 0, \"transfers not allowed\");\n        _delegate(libAddress);\n    }\n\n    event UpdatedBaseRewardPerSec(uint256 value);\n    event UpdatedOfflinePenaltyThreshold(uint256 blocksNum, uint256 period);\n\n    /*\n    Constructor\n    */\n\n    function initialize(uint256 sealedEpoch, uint256 _totalSupply, address nodeDriver, address lib, address _c, address owner) external initializer {\n        Ownable.initialize(owner);\n        currentSealedEpoch = sealedEpoch;\n        node = NodeDriverAuth(nodeDriver);\n        libAddress = lib;\n        c = ConstantsManager(_c);\n        totalSupply = _totalSupply;\n        minGasPrice = GP.initialMinGasPrice();\n        getEpochSnapshot[sealedEpoch].endTime = _now();\n    }\n\n    function updateStakeTokenizerAddress(address addr) onlyOwner external {\n        stakeTokenizerAddress = addr;\n    }\n\n    function updateLibAddress(address v) onlyOwner external {\n        libAddress = v;\n    }\n\n    function updateTreasuryAddress(address v) onlyOwner external {\n        treasuryAddress = v;\n    }\n\n    function updateConstsAddress(address v) onlyOwner external {\n        c = ConstantsManager(v);\n    }\n\n    function constsAddress() external view returns (address) {\n        return address(c);\n    }\n\n    function updateVoteBookAddress(address v) onlyOwner external {\n        voteBookAddress = v;\n    }\n\n    /*\n    Epoch callbacks\n    */\n\n    function _sealEpoch_offline(EpochSnapshot storage snapshot, uint256[] memory validatorIDs, uint256[] memory offlineTime, uint256[] memory offlineBlocks) internal {\n        // mark offline nodes\n        for (uint256 i = 0; i < validatorIDs.length; i++) {\n            if (offlineBlocks[i] > c.offlinePenaltyThresholdBlocksNum() && offlineTime[i] >= c.offlinePenaltyThresholdTime()) {\n                _setValidatorDeactivated(validatorIDs[i], OFFLINE_BIT);\n                _syncValidator(validatorIDs[i], false);\n            }\n            // log data\n            snapshot.offlineTime[validatorIDs[i]] = offlineTime[i];\n            snapshot.offlineBlocks[validatorIDs[i]] = offlineBlocks[i];\n        }\n    }\n\n    struct _SealEpochRewardsCtx {\n        uint256[] baseRewardWeights;\n        uint256 totalBaseRewardWeight;\n        uint256[] txRewardWeights;\n        uint256 totalTxRewardWeight;\n        uint256 epochFee;\n    }\n\n    function _sealEpoch_rewards(uint256 epochDuration, EpochSnapshot storage snapshot, EpochSnapshot storage prevSnapshot, uint256[] memory validatorIDs, uint256[] memory uptimes, uint256[] memory accumulatedOriginatedTxsFee) internal {\n        _SealEpochRewardsCtx memory ctx = _SealEpochRewardsCtx(new uint[](validatorIDs.length), 0, new uint[](validatorIDs.length), 0, 0);\n\n        for (uint256 i = 0; i < validatorIDs.length; i++) {\n            uint256 prevAccumulatedTxsFee = prevSnapshot.accumulatedOriginatedTxsFee[validatorIDs[i]];\n            uint256 originatedTxsFee = 0;\n            if (accumulatedOriginatedTxsFee[i] > prevAccumulatedTxsFee) {\n                originatedTxsFee = accumulatedOriginatedTxsFee[i] - prevAccumulatedTxsFee;\n            }\n            // txRewardWeight = {originatedTxsFee} * {uptime}\n            // originatedTxsFee is roughly proportional to {uptime} * {stake}, so the whole formula is roughly\n            // {stake} * {uptime} ^ 2\n            ctx.txRewardWeights[i] = originatedTxsFee * uptimes[i] / epochDuration;\n            ctx.totalTxRewardWeight = ctx.totalTxRewardWeight.add(ctx.txRewardWeights[i]);\n            ctx.epochFee = ctx.epochFee.add(originatedTxsFee);\n        }\n\n        for (uint256 i = 0; i < validatorIDs.length; i++) {\n            // baseRewardWeight = {stake} * {uptime ^ 2}\n            ctx.baseRewardWeights[i] = (((snapshot.receivedStake[validatorIDs[i]] * uptimes[i]) / epochDuration) * uptimes[i]) / epochDuration;\n            ctx.totalBaseRewardWeight = ctx.totalBaseRewardWeight.add(ctx.baseRewardWeights[i]);\n        }\n\n        for (uint256 i = 0; i < validatorIDs.length; i++) {\n            uint256 rawReward = _calcRawValidatorEpochBaseReward(epochDuration, c.baseRewardPerSecond(), ctx.baseRewardWeights[i], ctx.totalBaseRewardWeight);\n            rawReward = rawReward.add(_calcRawValidatorEpochTxReward(ctx.epochFee, ctx.txRewardWeights[i], ctx.totalTxRewardWeight));\n\n            uint256 validatorID = validatorIDs[i];\n            address validatorAddr = getValidator[validatorID].auth;\n            // accounting validator's commission\n            uint256 commissionRewardFull = _calcValidatorCommission(rawReward, c.validatorCommission());\n            uint256 selfStake = getStake[validatorAddr][validatorID];\n            if (selfStake != 0) {\n                uint256 lCommissionRewardFull = (commissionRewardFull * getLockedStake(validatorAddr, validatorID)) / selfStake;\n                uint256 uCommissionRewardFull = commissionRewardFull - lCommissionRewardFull;\n                Rewards memory lCommissionReward = _scaleLockupReward(lCommissionRewardFull, getLockupInfo[validatorAddr][validatorID].duration);\n                Rewards memory uCommissionReward = _scaleLockupReward(uCommissionRewardFull, 0);\n                _rewardsStash[validatorAddr][validatorID] = sumRewards(_rewardsStash[validatorAddr][validatorID], lCommissionReward, uCommissionReward);\n                getStashedLockupRewards[validatorAddr][validatorID] = sumRewards(getStashedLockupRewards[validatorAddr][validatorID], lCommissionReward, uCommissionReward);\n            }\n            // accounting reward per token for delegators\n            uint256 delegatorsReward = rawReward - commissionRewardFull;\n            // note: use latest stake for the sake of rewards distribution accuracy, not snapshot.receivedStake\n            uint256 receivedStake = getValidator[validatorID].receivedStake;\n            uint256 rewardPerToken = 0;\n            if (receivedStake != 0) {\n                rewardPerToken = (delegatorsReward * Decimal.unit()) / receivedStake;\n            }\n            snapshot.accumulatedRewardPerToken[validatorID] = prevSnapshot.accumulatedRewardPerToken[validatorID] + rewardPerToken;\n\n            snapshot.accumulatedOriginatedTxsFee[validatorID] = accumulatedOriginatedTxsFee[i];\n            snapshot.accumulatedUptime[validatorID] = prevSnapshot.accumulatedUptime[validatorID] + uptimes[i];\n        }\n\n        snapshot.epochFee = ctx.epochFee;\n        snapshot.totalBaseRewardWeight = ctx.totalBaseRewardWeight;\n        snapshot.totalTxRewardWeight = ctx.totalTxRewardWeight;\n        if (totalSupply > snapshot.epochFee) {\n            totalSupply -= snapshot.epochFee;\n        } else {\n            totalSupply = 0;\n        }\n\n        // transfer 10% of fees to treasury\n        if (treasuryAddress != address(0)) {\n            uint256 feeShare = ctx.epochFee * c.treasuryFeeShare() / Decimal.unit();\n            _mintNativeToken(feeShare);\n            treasuryAddress.call.value(feeShare)(\"\");\n        }\n    }\n\n\n    function _sealEpoch_minGasPrice(uint256 epochDuration, uint256 epochGas) internal {\n        // change minGasPrice proportionally to the difference between target and received epochGas\n        uint256 targetEpochGas = epochDuration * c.targetGasPowerPerSecond() + 1;\n        uint256 gasPriceDeltaRatio = epochGas * Decimal.unit() / targetEpochGas;\n        uint256 counterweight = c.gasPriceBalancingCounterweight();\n        // scale down the change speed (estimate gasPriceDeltaRatio ^ (epochDuration / counterweight))\n        gasPriceDeltaRatio = (epochDuration * gasPriceDeltaRatio + counterweight * Decimal.unit()) / (epochDuration + counterweight);\n        // limit the max/min possible delta in one epoch\n        gasPriceDeltaRatio = GP.trimGasPriceChangeRatio(gasPriceDeltaRatio);\n\n        // apply the ratio\n        uint256 newMinGasPrice = minGasPrice * gasPriceDeltaRatio / Decimal.unit();\n        // limit the max/min possible minGasPrice\n        newMinGasPrice = GP.trimMinGasPrice(newMinGasPrice);\n        // apply new minGasPrice\n        minGasPrice = newMinGasPrice;\n    }\n\n    function sealEpoch(uint256[] calldata offlineTime, uint256[] calldata offlineBlocks, uint256[] calldata uptimes, uint256[] calldata originatedTxsFee, uint256 epochGas) external onlyDriver {\n        EpochSnapshot storage snapshot = getEpochSnapshot[currentEpoch()];\n        uint256[] memory validatorIDs = snapshot.validatorIDs;\n\n        _sealEpoch_offline(snapshot, validatorIDs, offlineTime, offlineBlocks);\n        {\n            EpochSnapshot storage prevSnapshot = getEpochSnapshot[currentSealedEpoch];\n            uint256 epochDuration = 1;\n            if (_now() > prevSnapshot.endTime) {\n                epochDuration = _now() - prevSnapshot.endTime;\n            }\n            _sealEpoch_rewards(epochDuration, snapshot, prevSnapshot, validatorIDs, uptimes, originatedTxsFee);\n            _sealEpoch_minGasPrice(epochDuration, epochGas);\n        }\n\n        currentSealedEpoch = currentEpoch();\n        snapshot.endTime = _now();\n        snapshot.baseRewardPerSecond = c.baseRewardPerSecond();\n        snapshot.totalSupply = totalSupply;\n    }\n\n    function sealEpochValidators(uint256[] calldata nextValidatorIDs) external onlyDriver {\n        EpochSnapshot storage snapshot = getEpochSnapshot[currentEpoch()];\n        // fill data for the next snapshot\n        for (uint256 i = 0; i < nextValidatorIDs.length; i++) {\n            uint256 validatorID = nextValidatorIDs[i];\n            uint256 receivedStake = getValidator[validatorID].receivedStake;\n            snapshot.receivedStake[validatorID] = receivedStake;\n            snapshot.totalStake = snapshot.totalStake.add(receivedStake);\n        }\n        snapshot.validatorIDs = nextValidatorIDs;\n        node.updateMinGasPrice(minGasPrice);\n    }\n}",
  "sourcePath": "contracts/SFC.sol",
  "type": "contract"
}