{"abi":[{"anonymous":false,"inputs":[{"indexed":false,"internalType":"string","name":"message","type":"string"}],"name":"Debug","type":"event"},{"anonymous":false,"inputs":[{"indexed":false,"internalType":"string","name":"message","type":"string"},{"indexed":false,"internalType":"bytes32","name":"hash","type":"bytes32"}],"name":"DebugBytes32","type":"event"},{"anonymous":false,"inputs":[{"indexed":false,"internalType":"string","name":"message","type":"string"},{"indexed":false,"internalType":"uint256","name":"value","type":"uint256"}],"name":"DebugUint","type":"event"},{"anonymous":false,"inputs":[{"indexed":false,"internalType":"string","name":"playerName","type":"string"}],"name":"PlayerName","type":"event"},{"anonymous":false,"inputs":[{"indexed":false,"internalType":"string","name":"serverIP","type":"string"}],"name":"ServerIP","type":"event"},{"inputs":[{"internalType":"bytes32","name":"hash","type":"bytes32"}],"name":"echoHash","outputs":[{"internalType":"bytes32","name":"","type":"bytes32"}],"stateMutability":"pure","type":"function"},{"inputs":[],"name":"getComputedHash","outputs":[{"internalType":"bytes32","name":"","type":"bytes32"}],"stateMutability":"view","type":"function"},{"inputs":[{"internalType":"bytes32","name":"submittedHash","type":"bytes32"}],"name":"submitHashAndVerify","outputs":[{"internalType":"bool","name":"","type":"bool"}],"stateMutability":"view","type":"function"},{"inputs":[{"components":[{"internalType":"string","name":"serverIP","type":"string"},{"internalType":"string[]","name":"playerNames","type":"string[]"}],"internalType":"struct PlayerListHasher.ServerPlayers[]","name":"serverPlayerLists","type":"tuple[]"}],"name":"submitServerPlayersList","outputs":[],"stateMutability":"nonpayable","type":"function"}],"bytecode":"608060405234801561001057600080fd5b506107aa806100206000396000f3fe608060405234801561001057600080fd5b506004361061004b5760003560e01c806236a479146100505780635cf2737314610067578063a3fc369514610078578063cf09f9531461008d575b600080fd5b6000545b6040519081526020015b60405180910390f35b61005461007536600461042d565b90565b61008b61008636600461054a565b6100b2565b005b6100a261009b36600461042d565b6000541490565b604051901515815260200161005e565b60607f7cdb51e9dbbc205231228146c3246e7f914aa6d4a33170e43ecc8e3593481d1a604051610105906020808252600f908201526e119d5b98dd1a5bdb8818d85b1b1959608a1b604082015260600190565b60405180910390a17f2c78221d853bf45521bf53ad2802eb4470185a3cad34373f42e4639a8fdeb197825160405161017791906040808252601b908201527f4e756d626572206f6620736572766572506c617965724c6973747300000000006060820152602081019190915260800190565b60405180910390a160005b82518110156103bc577fded0be08ec529d2105309ae4fafe0c2588b536edad1b94d87c12e5790c71f22c8382815181106101be576101be6106d8565b6020026020010151600001516040516101d79190610712565b60405180910390a1818382815181106101f2576101f26106d8565b60200260200101516000015160405160200161020f929190610745565b60405160208183030381529060405291507f2c78221d853bf45521bf53ad2802eb4470185a3cad34373f42e4639a8fdeb197838281518110610253576102536106d8565b602002602001015160200151516040516102b2919060408082526022908201527f4e756d626572206f6620706c617965724e616d657320666f7220736572766572606082015261049560f41b6080820152602081019190915260a00190565b60405180910390a160005b8382815181106102cf576102cf6106d8565b602002602001015160200151518110156103b3577fcc1073c311c6ca2e4dd7ea23e9786ff694b795200b0d1857e96688fd4fe0c054848381518110610316576103166106d8565b6020026020010151602001518281518110610333576103336106d8565b60200260200101516040516103489190610712565b60405180910390a182848381518110610363576103636106d8565b6020026020010151602001518281518110610380576103806106d8565b6020026020010151604051602001610399929190610745565b60408051601f1981840301815291905292506001016102bd565b50600101610182565b508051602082012060008190556040517fddf94c665588bb5bfd4ea6fbfff0eda54f15ae7587942a2322e807db90bf8a8a91610421916040808252600d908201526c086dedae0eae8cac840d0c2e6d609b1b6060820152602081019190915260800190565b60405180910390a15050565b60006020828403121561043f57600080fd5b5035919050565b634e487b7160e01b600052604160045260246000fd5b6040805190810167ffffffffffffffff8111828210171561047f5761047f610446565b60405290565b604051601f8201601f1916810167ffffffffffffffff811182821017156104ae576104ae610446565b604052919050565b600067ffffffffffffffff8211156104d0576104d0610446565b5060051b60200190565b600082601f8301126104eb57600080fd5b813567ffffffffffffffff81111561050557610505610446565b610518601f8201601f1916602001610485565b81815284602083860101111561052d57600080fd5b816020850160208301376000918101602001919091529392505050565b60006020828403121561055c57600080fd5b67ffffffffffffffff808335111561057357600080fd5b8235830184601f82011261058657600080fd5b61059861059382356104b6565b610485565b81358082526020808301929160051b840101878111156105b757600080fd5b602084015b818110156106cb5785813511156105d257600080fd5b803585016040818b03601f190112156105ea57600080fd5b6105f261045c565b876020830135111561060357600080fd5b6106158b6020808501358501016104da565b8152876040830135111561062857600080fd5b6040820135820191508a603f83011261064057600080fd5b6020820135610651610593826104b6565b81815260059190911b83016040019060208101908d83111561067257600080fd5b604085015b838110156106ab578b8135111561068d57600080fd5b61069d8f604083358901016104da565b835260209283019201610677565b5080602085015250505080865250506020840193506020810190506105bc565b5090979650505050505050565b634e487b7160e01b600052603260045260246000fd5b60005b838110156107095781810151838201526020016106f1565b50506000910152565b60208152600082518060208401526107318160408501602087016106ee565b601f01601f19169190910160400192915050565b600083516107578184602088016106ee565b83519083019061076b8183602088016106ee565b0194935050505056fea26469706673582212203fd7a90a3836652e42ed14af8ab8b74c9c6cd9c32ec94c96a7e28fd12bce4b2864736f6c63430008180033","bytecodeSha1":"d42499e65f66098a9b28e70ed061726d705f89e2","compiler":{"evm_version":"istanbul","optimizer":{"enabled":true,"runs":200},"version":"0.8.24+commit.e11b9ed9"},"contractName":"PlayerListHasher","language":"Solidity","natspec":{"kind":"dev","methods":{},"version":1},"opcodes":"PUSH1 0x80 PUSH1 0x40 MSTORE CALLVALUE DUP1 ISZERO PUSH2 0x10 JUMPI PUSH1 0x0 DUP1 REVERT JUMPDEST POP PUSH1 0x4 CALLDATASIZE LT PUSH2 0x4B JUMPI PUSH1 0x0 CALLDATALOAD PUSH1 0xE0 SHR DUP1 PUSH3 0x36A479 EQ PUSH2 0x50 JUMPI DUP1 PUSH4 0x5CF27373 EQ PUSH2 0x67 JUMPI DUP1 PUSH4 0xA3FC3695 EQ PUSH2 0x78 JUMPI DUP1 PUSH4 0xCF09F953 EQ PUSH2 0x8D JUMPI JUMPDEST PUSH1 0x0 DUP1 REVERT JUMPDEST PUSH1 0x0 SLOAD JUMPDEST PUSH1 0x40 MLOAD SWAP1 DUP2 MSTORE PUSH1 0x20 ADD JUMPDEST PUSH1 0x40 MLOAD DUP1 SWAP2 SUB SWAP1 RETURN JUMPDEST PUSH2 0x54 PUSH2 0x75 CALLDATASIZE PUSH1 0x4 PUSH2 0x42D JUMP JUMPDEST SWAP1 JUMP JUMPDEST PUSH2 0x8B PUSH2 0x86 CALLDATASIZE PUSH1 0x4 PUSH2 0x54A JUMP JUMPDEST PUSH2 0xB2 JUMP JUMPDEST STOP JUMPDEST PUSH2 0xA2 PUSH2 0x9B CALLDATASIZE PUSH1 0x4 PUSH2 0x42D JUMP JUMPDEST PUSH1 0x0 SLOAD EQ SWAP1 JUMP JUMPDEST PUSH1 0x40 MLOAD SWAP1 ISZERO ISZERO DUP2 MSTORE PUSH1 0x20 ADD PUSH2 0x5E JUMP JUMPDEST PUSH1 0x60 PUSH32 0x7CDB51E9DBBC205231228146C3246E7F914AA6D4A33170E43ECC8E3593481D1A PUSH1 0x40 MLOAD PUSH2 0x105 SWAP1 PUSH1 0x20 DUP1 DUP3 MSTORE PUSH1 0xF SWAP1 DUP3 ADD MSTORE PUSH15 0x119D5B98DD1A5BDB8818D85B1B1959 PUSH1 0x8A SHL PUSH1 0x40 DUP3 ADD MSTORE PUSH1 0x60 ADD SWAP1 JUMP JUMPDEST PUSH1 0x40 MLOAD DUP1 SWAP2 SUB SWAP1 LOG1 PUSH32 0x2C78221D853BF45521BF53AD2802EB4470185A3CAD34373F42E4639A8FDEB197 DUP3 MLOAD PUSH1 0x40 MLOAD PUSH2 0x177 SWAP2 SWAP1 PUSH1 0x40 DUP1 DUP3 MSTORE PUSH1 0x1B SWAP1 DUP3 ADD MSTORE PUSH32 0x4E756D626572206F6620736572766572506C617965724C697374730000000000 PUSH1 0x60 DUP3 ADD MSTORE PUSH1 0x20 DUP2 ADD SWAP2 SWAP1 SWAP2 MSTORE PUSH1 0x80 ADD SWAP1 JUMP JUMPDEST PUSH1 0x40 MLOAD DUP1 SWAP2 SUB SWAP1 LOG1 PUSH1 0x0 JUMPDEST DUP3 MLOAD DUP2 LT ISZERO PUSH2 0x3BC JUMPI PUSH32 0xDED0BE08EC529D2105309AE4FAFE0C2588B536EDAD1B94D87C12E5790C71F22C DUP4 DUP3 DUP2 MLOAD DUP2 LT PUSH2 0x1BE JUMPI PUSH2 0x1BE PUSH2 0x6D8 JUMP JUMPDEST PUSH1 0x20 MUL PUSH1 0x20 ADD ADD MLOAD PUSH1 0x0 ADD MLOAD PUSH1 0x40 MLOAD PUSH2 0x1D7 SWAP2 SWAP1 PUSH2 0x712 JUMP JUMPDEST PUSH1 0x40 MLOAD DUP1 SWAP2 SUB SWAP1 LOG1 DUP2 DUP4 DUP3 DUP2 MLOAD DUP2 LT PUSH2 0x1F2 JUMPI PUSH2 0x1F2 PUSH2 0x6D8 JUMP JUMPDEST PUSH1 0x20 MUL PUSH1 0x20 ADD ADD MLOAD PUSH1 0x0 ADD MLOAD PUSH1 0x40 MLOAD PUSH1 0x20 ADD PUSH2 0x20F SWAP3 SWAP2 SWAP1 PUSH2 0x745 JUMP JUMPDEST PUSH1 0x40 MLOAD PUSH1 0x20 DUP2 DUP4 SUB SUB DUP2 MSTORE SWAP1 PUSH1 0x40 MSTORE SWAP2 POP PUSH32 0x2C78221D853BF45521BF53AD2802EB4470185A3CAD34373F42E4639A8FDEB197 DUP4 DUP3 DUP2 MLOAD DUP2 LT PUSH2 0x253 JUMPI PUSH2 0x253 PUSH2 0x6D8 JUMP JUMPDEST PUSH1 0x20 MUL PUSH1 0x20 ADD ADD MLOAD PUSH1 0x20 ADD MLOAD MLOAD PUSH1 0x40 MLOAD PUSH2 0x2B2 SWAP2 SWAP1 PUSH1 0x40 DUP1 DUP3 MSTORE PUSH1 0x22 SWAP1 DUP3 ADD MSTORE PUSH32 0x4E756D626572206F6620706C617965724E616D657320666F7220736572766572 PUSH1 0x60 DUP3 ADD MSTORE PUSH2 0x495 PUSH1 0xF4 SHL PUSH1 0x80 DUP3 ADD MSTORE PUSH1 0x20 DUP2 ADD SWAP2 SWAP1 SWAP2 MSTORE PUSH1 0xA0 ADD SWAP1 JUMP JUMPDEST PUSH1 0x40 MLOAD DUP1 SWAP2 SUB SWAP1 LOG1 PUSH1 0x0 JUMPDEST DUP4 DUP3 DUP2 MLOAD DUP2 LT PUSH2 0x2CF JUMPI PUSH2 0x2CF PUSH2 0x6D8 JUMP JUMPDEST PUSH1 0x20 MUL PUSH1 0x20 ADD ADD MLOAD PUSH1 0x20 ADD MLOAD MLOAD DUP2 LT ISZERO PUSH2 0x3B3 JUMPI PUSH32 0xCC1073C311C6CA2E4DD7EA23E9786FF694B795200B0D1857E96688FD4FE0C054 DUP5 DUP4 DUP2 MLOAD DUP2 LT PUSH2 0x316 JUMPI PUSH2 0x316 PUSH2 0x6D8 JUMP JUMPDEST PUSH1 0x20 MUL PUSH1 0x20 ADD ADD MLOAD PUSH1 0x20 ADD MLOAD DUP3 DUP2 MLOAD DUP2 LT PUSH2 0x333 JUMPI PUSH2 0x333 PUSH2 0x6D8 JUMP JUMPDEST PUSH1 0x20 MUL PUSH1 0x20 ADD ADD MLOAD PUSH1 0x40 MLOAD PUSH2 0x348 SWAP2 SWAP1 PUSH2 0x712 JUMP JUMPDEST PUSH1 0x40 MLOAD DUP1 SWAP2 SUB SWAP1 LOG1 DUP3 DUP5 DUP4 DUP2 MLOAD DUP2 LT PUSH2 0x363 JUMPI PUSH2 0x363 PUSH2 0x6D8 JUMP JUMPDEST PUSH1 0x20 MUL PUSH1 0x20 ADD ADD MLOAD PUSH1 0x20 ADD MLOAD DUP3 DUP2 MLOAD DUP2 LT PUSH2 0x380 JUMPI PUSH2 0x380 PUSH2 0x6D8 JUMP JUMPDEST PUSH1 0x20 MUL PUSH1 0x20 ADD ADD MLOAD PUSH1 0x40 MLOAD PUSH1 0x20 ADD PUSH2 0x399 SWAP3 SWAP2 SWAP1 PUSH2 0x745 JUMP JUMPDEST PUSH1 0x40 DUP1 MLOAD PUSH1 0x1F NOT DUP2 DUP5 SUB ADD DUP2 MSTORE SWAP2 SWAP1 MSTORE SWAP3 POP PUSH1 0x1 ADD PUSH2 0x2BD JUMP JUMPDEST POP PUSH1 0x1 ADD PUSH2 0x182 JUMP JUMPDEST POP DUP1 MLOAD PUSH1 0x20 DUP3 ADD KECCAK256 PUSH1 0x0 DUP2 SWAP1 SSTORE PUSH1 0x40 MLOAD PUSH32 0xDDF94C665588BB5BFD4EA6FBFFF0EDA54F15AE7587942A2322E807DB90BF8A8A SWAP2 PUSH2 0x421 SWAP2 PUSH1 0x40 DUP1 DUP3 MSTORE PUSH1 0xD SWAP1 DUP3 ADD MSTORE PUSH13 0x86DEDAE0EAE8CAC840D0C2E6D PUSH1 0x9B SHL PUSH1 0x60 DUP3 ADD MSTORE PUSH1 0x20 DUP2 ADD SWAP2 SWAP1 SWAP2 MSTORE PUSH1 0x80 ADD SWAP1 JUMP JUMPDEST PUSH1 0x40 MLOAD DUP1 SWAP2 SUB SWAP1 LOG1 POP POP JUMP JUMPDEST PUSH1 0x0 PUSH1 0x20 DUP3 DUP5 SUB SLT ISZERO PUSH2 0x43F JUMPI PUSH1 0x0 DUP1 REVERT JUMPDEST POP CALLDATALOAD SWAP2 SWAP1 POP JUMP JUMPDEST PUSH4 0x4E487B71 PUSH1 0xE0 SHL PUSH1 0x0 MSTORE PUSH1 0x41 PUSH1 0x4 MSTORE PUSH1 0x24 PUSH1 0x0 REVERT JUMPDEST PUSH1 0x40 DUP1 MLOAD SWAP1 DUP2 ADD PUSH8 0xFFFFFFFFFFFFFFFF DUP2 GT DUP3 DUP3 LT OR ISZERO PUSH2 0x47F JUMPI PUSH2 0x47F PUSH2 0x446 JUMP JUMPDEST PUSH1 0x40 MSTORE SWAP1 JUMP JUMPDEST PUSH1 0x40 MLOAD PUSH1 0x1F DUP3 ADD PUSH1 0x1F NOT AND DUP2 ADD PUSH8 0xFFFFFFFFFFFFFFFF DUP2 GT DUP3 DUP3 LT OR ISZERO PUSH2 0x4AE JUMPI PUSH2 0x4AE PUSH2 0x446 JUMP JUMPDEST PUSH1 0x40 MSTORE SWAP2 SWAP1 POP JUMP JUMPDEST PUSH1 0x0 PUSH8 0xFFFFFFFFFFFFFFFF DUP3 GT ISZERO PUSH2 0x4D0 JUMPI PUSH2 0x4D0 PUSH2 0x446 JUMP JUMPDEST POP PUSH1 0x5 SHL PUSH1 0x20 ADD SWAP1 JUMP JUMPDEST PUSH1 0x0 DUP3 PUSH1 0x1F DUP4 ADD SLT PUSH2 0x4EB JUMPI PUSH1 0x0 DUP1 REVERT JUMPDEST DUP2 CALLDATALOAD PUSH8 0xFFFFFFFFFFFFFFFF DUP2 GT ISZERO PUSH2 0x505 JUMPI PUSH2 0x505 PUSH2 0x446 JUMP JUMPDEST PUSH2 0x518 PUSH1 0x1F DUP3 ADD PUSH1 0x1F NOT AND PUSH1 0x20 ADD PUSH2 0x485 JUMP JUMPDEST DUP2 DUP2 MSTORE DUP5 PUSH1 0x20 DUP4 DUP7 ADD ADD GT ISZERO PUSH2 0x52D JUMPI PUSH1 0x0 DUP1 REVERT JUMPDEST DUP2 PUSH1 0x20 DUP6 ADD PUSH1 0x20 DUP4 ADD CALLDATACOPY PUSH1 0x0 SWAP2 DUP2 ADD PUSH1 0x20 ADD SWAP2 SWAP1 SWAP2 MSTORE SWAP4 SWAP3 POP POP POP JUMP JUMPDEST PUSH1 0x0 PUSH1 0x20 DUP3 DUP5 SUB SLT ISZERO PUSH2 0x55C JUMPI PUSH1 0x0 DUP1 REVERT JUMPDEST PUSH8 0xFFFFFFFFFFFFFFFF DUP1 DUP4 CALLDATALOAD GT ISZERO PUSH2 0x573 JUMPI PUSH1 0x0 DUP1 REVERT JUMPDEST DUP3 CALLDATALOAD DUP4 ADD DUP5 PUSH1 0x1F DUP3 ADD SLT PUSH2 0x586 JUMPI PUSH1 0x0 DUP1 REVERT JUMPDEST PUSH2 0x598 PUSH2 0x593 DUP3 CALLDATALOAD PUSH2 0x4B6 JUMP JUMPDEST PUSH2 0x485 JUMP JUMPDEST DUP2 CALLDATALOAD DUP1 DUP3 MSTORE PUSH1 0x20 DUP1 DUP4 ADD SWAP3 SWAP2 PUSH1 0x5 SHL DUP5 ADD ADD DUP8 DUP2 GT ISZERO PUSH2 0x5B7 JUMPI PUSH1 0x0 DUP1 REVERT JUMPDEST PUSH1 0x20 DUP5 ADD JUMPDEST DUP2 DUP2 LT ISZERO PUSH2 0x6CB JUMPI DUP6 DUP2 CALLDATALOAD GT ISZERO PUSH2 0x5D2 JUMPI PUSH1 0x0 DUP1 REVERT JUMPDEST DUP1 CALLDATALOAD DUP6 ADD PUSH1 0x40 DUP2 DUP12 SUB PUSH1 0x1F NOT ADD SLT ISZERO PUSH2 0x5EA JUMPI PUSH1 0x0 DUP1 REVERT JUMPDEST PUSH2 0x5F2 PUSH2 0x45C JUMP JUMPDEST DUP8 PUSH1 0x20 DUP4 ADD CALLDATALOAD GT ISZERO PUSH2 0x603 JUMPI PUSH1 0x0 DUP1 REVERT JUMPDEST PUSH2 0x615 DUP12 PUSH1 0x20 DUP1 DUP6 ADD CALLDATALOAD DUP6 ADD ADD PUSH2 0x4DA JUMP JUMPDEST DUP2 MSTORE DUP8 PUSH1 0x40 DUP4 ADD CALLDATALOAD GT ISZERO PUSH2 0x628 JUMPI PUSH1 0x0 DUP1 REVERT JUMPDEST PUSH1 0x40 DUP3 ADD CALLDATALOAD DUP3 ADD SWAP2 POP DUP11 PUSH1 0x3F DUP4 ADD SLT PUSH2 0x640 JUMPI PUSH1 0x0 DUP1 REVERT JUMPDEST PUSH1 0x20 DUP3 ADD CALLDATALOAD PUSH2 0x651 PUSH2 0x593 DUP3 PUSH2 0x4B6 JUMP JUMPDEST DUP2 DUP2 MSTORE PUSH1 0x5 SWAP2 SWAP1 SWAP2 SHL DUP4 ADD PUSH1 0x40 ADD SWAP1 PUSH1 0x20 DUP2 ADD SWAP1 DUP14 DUP4 GT ISZERO PUSH2 0x672 JUMPI PUSH1 0x0 DUP1 REVERT JUMPDEST PUSH1 0x40 DUP6 ADD JUMPDEST DUP4 DUP2 LT ISZERO PUSH2 0x6AB JUMPI DUP12 DUP2 CALLDATALOAD GT ISZERO PUSH2 0x68D JUMPI PUSH1 0x0 DUP1 REVERT JUMPDEST PUSH2 0x69D DUP16 PUSH1 0x40 DUP4 CALLDATALOAD DUP10 ADD ADD PUSH2 0x4DA JUMP JUMPDEST DUP4 MSTORE PUSH1 0x20 SWAP3 DUP4 ADD SWAP3 ADD PUSH2 0x677 JUMP JUMPDEST POP DUP1 PUSH1 0x20 DUP6 ADD MSTORE POP POP POP DUP1 DUP7 MSTORE POP POP PUSH1 0x20 DUP5 ADD SWAP4 POP PUSH1 0x20 DUP2 ADD SWAP1 POP PUSH2 0x5BC JUMP JUMPDEST POP SWAP1 SWAP8 SWAP7 POP POP POP POP POP POP POP JUMP JUMPDEST PUSH4 0x4E487B71 PUSH1 0xE0 SHL PUSH1 0x0 MSTORE PUSH1 0x32 PUSH1 0x4 MSTORE PUSH1 0x24 PUSH1 0x0 REVERT JUMPDEST PUSH1 0x0 JUMPDEST DUP4 DUP2 LT ISZERO PUSH2 0x709 JUMPI DUP2 DUP2 ADD MLOAD DUP4 DUP3 ADD MSTORE PUSH1 0x20 ADD PUSH2 0x6F1 JUMP JUMPDEST POP POP PUSH1 0x0 SWAP2 ADD MSTORE JUMP JUMPDEST PUSH1 0x20 DUP2 MSTORE PUSH1 0x0 DUP3 MLOAD DUP1 PUSH1 0x20 DUP5 ADD MSTORE PUSH2 0x731 DUP2 PUSH1 0x40 DUP6 ADD PUSH1 0x20 DUP8 ADD PUSH2 0x6EE JUMP JUMPDEST PUSH1 0x1F ADD PUSH1 0x1F NOT AND SWAP2 SWAP1 SWAP2 ADD PUSH1 0x40 ADD SWAP3 SWAP2 POP POP JUMP JUMPDEST PUSH1 0x0 DUP4 MLOAD PUSH2 0x757 DUP2 DUP5 PUSH1 0x20 DUP9 ADD PUSH2 0x6EE JUMP JUMPDEST DUP4 MLOAD SWAP1 DUP4 ADD SWAP1 PUSH2 0x76B DUP2 DUP4 PUSH1 0x20 DUP9 ADD PUSH2 0x6EE JUMP JUMPDEST ADD SWAP5 SWAP4 POP POP POP POP JUMP INVALID LOG2 PUSH5 0x6970667358 0x22 SLT KECCAK256 EXTCODEHASH 0xD7 0xA9 EXP CODESIZE CALLDATASIZE PUSH6 0x2E42ED14AF8A 0xB8 0xB7 0x4C SWAP13 PUSH13 0xD9C32EC94C96A7E28FD12BCE4B 0x28 PUSH5 0x736F6C6343 STOP ADDMOD XOR STOP CALLER ","sha1":"7bed6f4bcf134b4beac0c513227e7e35eac337b9","source":"// SPDX-License-Identifier: MIT\npragma solidity ^0.8.0;\n\ncontract PlayerListHasher {\n\n    struct ServerPlayers {\n        string serverIP;\n        string[] playerNames;\n    }\n    event Debug(string message);\n    event DebugUint(string message, uint value);\n    event DebugBytes32(string message, bytes32 hash);\n    event ServerIP(string serverIP);\n    event PlayerName(string playerName);\n    bytes32 private lastComputedHash;\n\n    // Function to submit server player lists and compute their keccak256 hash\n    function submitServerPlayersList(ServerPlayers[] memory serverPlayerLists) public {\n        bytes memory encodedData;\n\n        emit Debug(\"Function called\");\n        emit DebugUint(\"Number of serverPlayerLists\", serverPlayerLists.length);\n\n        for (uint i = 0; i < serverPlayerLists.length; i++) {\n            emit ServerIP(serverPlayerLists[i].serverIP);\n            encodedData = abi.encodePacked(encodedData, serverPlayerLists[i].serverIP);\n\n            emit DebugUint(\"Number of playerNames for serverIP\", serverPlayerLists[i].playerNames.length);\n            for (uint j = 0; j < serverPlayerLists[i].playerNames.length; j++) {\n                emit PlayerName(serverPlayerLists[i].playerNames[j]);\n                encodedData = abi.encodePacked(encodedData, serverPlayerLists[i].playerNames[j]);\n            }\n        }\n\n        // Compute and store the hash\n        lastComputedHash = keccak256(encodedData);\n        emit DebugBytes32(\"Computed hash\", lastComputedHash);\n    }\n\n    // Function to get the last computed hash\n    function getComputedHash() public view returns (bytes32) {\n        return lastComputedHash;\n    }\n\n    // Function to submit a hash and verify it against the last computed hash\n    function submitHashAndVerify(bytes32 submittedHash) public view returns (bool) {\n        return (submittedHash == lastComputedHash);\n    }\n\n    function echoHash(bytes32 hash) public pure returns (bytes32) {\n        return hash;\n    }\n}\n","sourcePath":"contracts/testhash.sol","type":"contract","deployment":{"address":"0x11092C307dD03D6E2876e16cdf3a8A8372921e0d","chainid":"86098","blockHeight":162053}}