{"abi":[{"anonymous":false,"inputs":[{"indexed":false,"internalType":"bytes","name":"encodedData","type":"bytes"}],"name":"EncodedData","type":"event"},{"inputs":[{"internalType":"bytes32","name":"hash","type":"bytes32"}],"name":"echoHash","outputs":[{"internalType":"bytes32","name":"","type":"bytes32"}],"stateMutability":"pure","type":"function"},{"inputs":[],"name":"getComputedHash","outputs":[{"internalType":"bytes32","name":"","type":"bytes32"}],"stateMutability":"view","type":"function"},{"inputs":[{"internalType":"bytes32","name":"submittedHash","type":"bytes32"}],"name":"submitHashAndVerify","outputs":[{"internalType":"bool","name":"","type":"bool"}],"stateMutability":"view","type":"function"},{"inputs":[{"components":[{"internalType":"string","name":"serverIP","type":"string"},{"internalType":"string[]","name":"playerNames","type":"string[]"}],"internalType":"struct PlayerListHasher.ServerPlayers[]","name":"serverPlayerLists","type":"tuple[]"}],"name":"submitServerPlayersList","outputs":[],"stateMutability":"nonpayable","type":"function"}],"bytecode":"608060405234801561001057600080fd5b5061054f806100206000396000f3fe608060405234801561001057600080fd5b506004361061004b5760003560e01c806236a479146100505780635cf2737314610067578063a3fc369514610078578063cf09f9531461008d575b600080fd5b6000545b6040519081526020015b60405180910390f35b6100546100753660046101d2565b90565b61008b6100863660046102ef565b6100b2565b005b6100a261009b3660046101d2565b6000541490565b604051901515815260200161005e565b606060005b825181101561019657818382815181106100d3576100d361047d565b6020026020010151600001516040516020016100f09291906104b7565b604051602081830303815290604052915060005b8382815181106101165761011661047d565b6020026020010151602001515181101561018d578284838151811061013d5761013d61047d565b602002602001015160200151828151811061015a5761015a61047d565b60200260200101516040516020016101739291906104b7565b60408051601f198184030181529190529250600101610104565b506001016100b7565b507fc7141718c98b98915637a29753ebd036f810bd5b325c3d1a9ce947794844ed6d816040516101c691906104e6565b60405180910390a15050565b6000602082840312156101e457600080fd5b5035919050565b634e487b7160e01b600052604160045260246000fd5b6040805190810167ffffffffffffffff81118282101715610224576102246101eb565b60405290565b604051601f8201601f1916810167ffffffffffffffff81118282101715610253576102536101eb565b604052919050565b600067ffffffffffffffff821115610275576102756101eb565b5060051b60200190565b600082601f83011261029057600080fd5b813567ffffffffffffffff8111156102aa576102aa6101eb565b6102bd601f8201601f191660200161022a565b8181528460208386010111156102d257600080fd5b816020850160208301376000918101602001919091529392505050565b60006020828403121561030157600080fd5b67ffffffffffffffff808335111561031857600080fd5b8235830184601f82011261032b57600080fd5b61033d610338823561025b565b61022a565b81358082526020808301929160051b8401018781111561035c57600080fd5b602084015b8181101561047057858135111561037757600080fd5b803585016040818b03601f1901121561038f57600080fd5b610397610201565b87602083013511156103a857600080fd5b6103ba8b60208085013585010161027f565b815287604083013511156103cd57600080fd5b6040820135820191508a603f8301126103e557600080fd5b60208201356103f66103388261025b565b81815260059190911b83016040019060208101908d83111561041757600080fd5b604085015b83811015610450578b8135111561043257600080fd5b6104428f6040833589010161027f565b83526020928301920161041c565b508060208501525050508086525050602084019350602081019050610361565b5090979650505050505050565b634e487b7160e01b600052603260045260246000fd5b60005b838110156104ae578181015183820152602001610496565b50506000910152565b600083516104c9818460208801610493565b8351908301906104dd818360208801610493565b01949350505050565b6020815260008251806020840152610505816040850160208701610493565b601f01601f1916919091016040019291505056fea2646970667358221220f2ecd7d3f0424240d340555d86bfa9fc7d74763606ac361ccacad562f8fe815164736f6c63430008180033","bytecodeSha1":"1a8e52900bf99c26b5ac297f47364c76b6f4cf28","compiler":{"evm_version":"istanbul","optimizer":{"enabled":true,"runs":200},"version":"0.8.24+commit.e11b9ed9"},"contractName":"PlayerListHasher","language":"Solidity","natspec":{"kind":"dev","methods":{},"version":1},"opcodes":"PUSH1 0x80 PUSH1 0x40 MSTORE CALLVALUE DUP1 ISZERO PUSH2 0x10 JUMPI PUSH1 0x0 DUP1 REVERT JUMPDEST POP PUSH1 0x4 CALLDATASIZE LT PUSH2 0x4B JUMPI PUSH1 0x0 CALLDATALOAD PUSH1 0xE0 SHR DUP1 PUSH3 0x36A479 EQ PUSH2 0x50 JUMPI DUP1 PUSH4 0x5CF27373 EQ PUSH2 0x67 JUMPI DUP1 PUSH4 0xA3FC3695 EQ PUSH2 0x78 JUMPI DUP1 PUSH4 0xCF09F953 EQ PUSH2 0x8D JUMPI JUMPDEST PUSH1 0x0 DUP1 REVERT JUMPDEST PUSH1 0x0 SLOAD JUMPDEST PUSH1 0x40 MLOAD SWAP1 DUP2 MSTORE PUSH1 0x20 ADD JUMPDEST PUSH1 0x40 MLOAD DUP1 SWAP2 SUB SWAP1 RETURN JUMPDEST PUSH2 0x54 PUSH2 0x75 CALLDATASIZE PUSH1 0x4 PUSH2 0x1D2 JUMP JUMPDEST SWAP1 JUMP JUMPDEST PUSH2 0x8B PUSH2 0x86 CALLDATASIZE PUSH1 0x4 PUSH2 0x2EF JUMP JUMPDEST PUSH2 0xB2 JUMP JUMPDEST STOP JUMPDEST PUSH2 0xA2 PUSH2 0x9B CALLDATASIZE PUSH1 0x4 PUSH2 0x1D2 JUMP JUMPDEST PUSH1 0x0 SLOAD EQ SWAP1 JUMP JUMPDEST PUSH1 0x40 MLOAD SWAP1 ISZERO ISZERO DUP2 MSTORE PUSH1 0x20 ADD PUSH2 0x5E JUMP JUMPDEST PUSH1 0x60 PUSH1 0x0 JUMPDEST DUP3 MLOAD DUP2 LT ISZERO PUSH2 0x196 JUMPI DUP2 DUP4 DUP3 DUP2 MLOAD DUP2 LT PUSH2 0xD3 JUMPI PUSH2 0xD3 PUSH2 0x47D JUMP JUMPDEST PUSH1 0x20 MUL PUSH1 0x20 ADD ADD MLOAD PUSH1 0x0 ADD MLOAD PUSH1 0x40 MLOAD PUSH1 0x20 ADD PUSH2 0xF0 SWAP3 SWAP2 SWAP1 PUSH2 0x4B7 JUMP JUMPDEST PUSH1 0x40 MLOAD PUSH1 0x20 DUP2 DUP4 SUB SUB DUP2 MSTORE SWAP1 PUSH1 0x40 MSTORE SWAP2 POP PUSH1 0x0 JUMPDEST DUP4 DUP3 DUP2 MLOAD DUP2 LT PUSH2 0x116 JUMPI PUSH2 0x116 PUSH2 0x47D JUMP JUMPDEST PUSH1 0x20 MUL PUSH1 0x20 ADD ADD MLOAD PUSH1 0x20 ADD MLOAD MLOAD DUP2 LT ISZERO PUSH2 0x18D JUMPI DUP3 DUP5 DUP4 DUP2 MLOAD DUP2 LT PUSH2 0x13D JUMPI PUSH2 0x13D PUSH2 0x47D JUMP JUMPDEST PUSH1 0x20 MUL PUSH1 0x20 ADD ADD MLOAD PUSH1 0x20 ADD MLOAD DUP3 DUP2 MLOAD DUP2 LT PUSH2 0x15A JUMPI PUSH2 0x15A PUSH2 0x47D JUMP JUMPDEST PUSH1 0x20 MUL PUSH1 0x20 ADD ADD MLOAD PUSH1 0x40 MLOAD PUSH1 0x20 ADD PUSH2 0x173 SWAP3 SWAP2 SWAP1 PUSH2 0x4B7 JUMP JUMPDEST PUSH1 0x40 DUP1 MLOAD PUSH1 0x1F NOT DUP2 DUP5 SUB ADD DUP2 MSTORE SWAP2 SWAP1 MSTORE SWAP3 POP PUSH1 0x1 ADD PUSH2 0x104 JUMP JUMPDEST POP PUSH1 0x1 ADD PUSH2 0xB7 JUMP JUMPDEST POP PUSH32 0xC7141718C98B98915637A29753EBD036F810BD5B325C3D1A9CE947794844ED6D DUP2 PUSH1 0x40 MLOAD PUSH2 0x1C6 SWAP2 SWAP1 PUSH2 0x4E6 JUMP JUMPDEST PUSH1 0x40 MLOAD DUP1 SWAP2 SUB SWAP1 LOG1 POP POP JUMP JUMPDEST PUSH1 0x0 PUSH1 0x20 DUP3 DUP5 SUB SLT ISZERO PUSH2 0x1E4 JUMPI PUSH1 0x0 DUP1 REVERT JUMPDEST POP CALLDATALOAD SWAP2 SWAP1 POP JUMP JUMPDEST PUSH4 0x4E487B71 PUSH1 0xE0 SHL PUSH1 0x0 MSTORE PUSH1 0x41 PUSH1 0x4 MSTORE PUSH1 0x24 PUSH1 0x0 REVERT JUMPDEST PUSH1 0x40 DUP1 MLOAD SWAP1 DUP2 ADD PUSH8 0xFFFFFFFFFFFFFFFF DUP2 GT DUP3 DUP3 LT OR ISZERO PUSH2 0x224 JUMPI PUSH2 0x224 PUSH2 0x1EB JUMP JUMPDEST PUSH1 0x40 MSTORE SWAP1 JUMP JUMPDEST PUSH1 0x40 MLOAD PUSH1 0x1F DUP3 ADD PUSH1 0x1F NOT AND DUP2 ADD PUSH8 0xFFFFFFFFFFFFFFFF DUP2 GT DUP3 DUP3 LT OR ISZERO PUSH2 0x253 JUMPI PUSH2 0x253 PUSH2 0x1EB JUMP JUMPDEST PUSH1 0x40 MSTORE SWAP2 SWAP1 POP JUMP JUMPDEST PUSH1 0x0 PUSH8 0xFFFFFFFFFFFFFFFF DUP3 GT ISZERO PUSH2 0x275 JUMPI PUSH2 0x275 PUSH2 0x1EB JUMP JUMPDEST POP PUSH1 0x5 SHL PUSH1 0x20 ADD SWAP1 JUMP JUMPDEST PUSH1 0x0 DUP3 PUSH1 0x1F DUP4 ADD SLT PUSH2 0x290 JUMPI PUSH1 0x0 DUP1 REVERT JUMPDEST DUP2 CALLDATALOAD PUSH8 0xFFFFFFFFFFFFFFFF DUP2 GT ISZERO PUSH2 0x2AA JUMPI PUSH2 0x2AA PUSH2 0x1EB JUMP JUMPDEST PUSH2 0x2BD PUSH1 0x1F DUP3 ADD PUSH1 0x1F NOT AND PUSH1 0x20 ADD PUSH2 0x22A JUMP JUMPDEST DUP2 DUP2 MSTORE DUP5 PUSH1 0x20 DUP4 DUP7 ADD ADD GT ISZERO PUSH2 0x2D2 JUMPI PUSH1 0x0 DUP1 REVERT JUMPDEST DUP2 PUSH1 0x20 DUP6 ADD PUSH1 0x20 DUP4 ADD CALLDATACOPY PUSH1 0x0 SWAP2 DUP2 ADD PUSH1 0x20 ADD SWAP2 SWAP1 SWAP2 MSTORE SWAP4 SWAP3 POP POP POP JUMP JUMPDEST PUSH1 0x0 PUSH1 0x20 DUP3 DUP5 SUB SLT ISZERO PUSH2 0x301 JUMPI PUSH1 0x0 DUP1 REVERT JUMPDEST PUSH8 0xFFFFFFFFFFFFFFFF DUP1 DUP4 CALLDATALOAD GT ISZERO PUSH2 0x318 JUMPI PUSH1 0x0 DUP1 REVERT JUMPDEST DUP3 CALLDATALOAD DUP4 ADD DUP5 PUSH1 0x1F DUP3 ADD SLT PUSH2 0x32B JUMPI PUSH1 0x0 DUP1 REVERT JUMPDEST PUSH2 0x33D PUSH2 0x338 DUP3 CALLDATALOAD PUSH2 0x25B JUMP JUMPDEST PUSH2 0x22A JUMP JUMPDEST DUP2 CALLDATALOAD DUP1 DUP3 MSTORE PUSH1 0x20 DUP1 DUP4 ADD SWAP3 SWAP2 PUSH1 0x5 SHL DUP5 ADD ADD DUP8 DUP2 GT ISZERO PUSH2 0x35C JUMPI PUSH1 0x0 DUP1 REVERT JUMPDEST PUSH1 0x20 DUP5 ADD JUMPDEST DUP2 DUP2 LT ISZERO PUSH2 0x470 JUMPI DUP6 DUP2 CALLDATALOAD GT ISZERO PUSH2 0x377 JUMPI PUSH1 0x0 DUP1 REVERT JUMPDEST DUP1 CALLDATALOAD DUP6 ADD PUSH1 0x40 DUP2 DUP12 SUB PUSH1 0x1F NOT ADD SLT ISZERO PUSH2 0x38F JUMPI PUSH1 0x0 DUP1 REVERT JUMPDEST PUSH2 0x397 PUSH2 0x201 JUMP JUMPDEST DUP8 PUSH1 0x20 DUP4 ADD CALLDATALOAD GT ISZERO PUSH2 0x3A8 JUMPI PUSH1 0x0 DUP1 REVERT JUMPDEST PUSH2 0x3BA DUP12 PUSH1 0x20 DUP1 DUP6 ADD CALLDATALOAD DUP6 ADD ADD PUSH2 0x27F JUMP JUMPDEST DUP2 MSTORE DUP8 PUSH1 0x40 DUP4 ADD CALLDATALOAD GT ISZERO PUSH2 0x3CD JUMPI PUSH1 0x0 DUP1 REVERT JUMPDEST PUSH1 0x40 DUP3 ADD CALLDATALOAD DUP3 ADD SWAP2 POP DUP11 PUSH1 0x3F DUP4 ADD SLT PUSH2 0x3E5 JUMPI PUSH1 0x0 DUP1 REVERT JUMPDEST PUSH1 0x20 DUP3 ADD CALLDATALOAD PUSH2 0x3F6 PUSH2 0x338 DUP3 PUSH2 0x25B JUMP JUMPDEST DUP2 DUP2 MSTORE PUSH1 0x5 SWAP2 SWAP1 SWAP2 SHL DUP4 ADD PUSH1 0x40 ADD SWAP1 PUSH1 0x20 DUP2 ADD SWAP1 DUP14 DUP4 GT ISZERO PUSH2 0x417 JUMPI PUSH1 0x0 DUP1 REVERT JUMPDEST PUSH1 0x40 DUP6 ADD JUMPDEST DUP4 DUP2 LT ISZERO PUSH2 0x450 JUMPI DUP12 DUP2 CALLDATALOAD GT ISZERO PUSH2 0x432 JUMPI PUSH1 0x0 DUP1 REVERT JUMPDEST PUSH2 0x442 DUP16 PUSH1 0x40 DUP4 CALLDATALOAD DUP10 ADD ADD PUSH2 0x27F JUMP JUMPDEST DUP4 MSTORE PUSH1 0x20 SWAP3 DUP4 ADD SWAP3 ADD PUSH2 0x41C JUMP JUMPDEST POP DUP1 PUSH1 0x20 DUP6 ADD MSTORE POP POP POP DUP1 DUP7 MSTORE POP POP PUSH1 0x20 DUP5 ADD SWAP4 POP PUSH1 0x20 DUP2 ADD SWAP1 POP PUSH2 0x361 JUMP JUMPDEST POP SWAP1 SWAP8 SWAP7 POP POP POP POP POP POP POP JUMP JUMPDEST PUSH4 0x4E487B71 PUSH1 0xE0 SHL PUSH1 0x0 MSTORE PUSH1 0x32 PUSH1 0x4 MSTORE PUSH1 0x24 PUSH1 0x0 REVERT JUMPDEST PUSH1 0x0 JUMPDEST DUP4 DUP2 LT ISZERO PUSH2 0x4AE JUMPI DUP2 DUP2 ADD MLOAD DUP4 DUP3 ADD MSTORE PUSH1 0x20 ADD PUSH2 0x496 JUMP JUMPDEST POP POP PUSH1 0x0 SWAP2 ADD MSTORE JUMP JUMPDEST PUSH1 0x0 DUP4 MLOAD PUSH2 0x4C9 DUP2 DUP5 PUSH1 0x20 DUP9 ADD PUSH2 0x493 JUMP JUMPDEST DUP4 MLOAD SWAP1 DUP4 ADD SWAP1 PUSH2 0x4DD DUP2 DUP4 PUSH1 0x20 DUP9 ADD PUSH2 0x493 JUMP JUMPDEST ADD SWAP5 SWAP4 POP POP POP POP JUMP JUMPDEST PUSH1 0x20 DUP2 MSTORE PUSH1 0x0 DUP3 MLOAD DUP1 PUSH1 0x20 DUP5 ADD MSTORE PUSH2 0x505 DUP2 PUSH1 0x40 DUP6 ADD PUSH1 0x20 DUP8 ADD PUSH2 0x493 JUMP JUMPDEST PUSH1 0x1F ADD PUSH1 0x1F NOT AND SWAP2 SWAP1 SWAP2 ADD PUSH1 0x40 ADD SWAP3 SWAP2 POP POP JUMP INVALID LOG2 PUSH5 0x6970667358 0x22 SLT KECCAK256 CALLCODE 0xEC 0xD7 0xD3 CREATE TIMESTAMP TIMESTAMP BLOCKHASH 0xD3 BLOCKHASH SSTORE TSTORE DUP7 0xBF 0xA9 0xFC PUSH30 0x74763606AC361CCACAD562F8FE815164736F6C6343000818003300000000 ","sha1":"24e88be3e232182be006dadbbd9f82310e46f870","source":"// SPDX-License-Identifier: MIT\npragma solidity ^0.8.0;\n\ncontract PlayerListHasher {\n\n    struct ServerPlayers {\n        string serverIP;\n        string[] playerNames;\n    }\n\n    bytes32 private lastComputedHash;\n\n    // Function to submit server player lists and compute their keccak256 hash\n    // Define an event to emit the encoded data\n    event EncodedData(bytes encodedData);\n\n    // Function to submit server player lists and emit their encoded form\n    function submitServerPlayersList(ServerPlayers[] memory serverPlayerLists) public {\n        bytes memory encodedData;\n\n        for (uint i = 0; i < serverPlayerLists.length; i++) {\n            encodedData = abi.encodePacked(encodedData, serverPlayerLists[i].serverIP);\n            for (uint j = 0; j < serverPlayerLists[i].playerNames.length; j++) {\n                encodedData = abi.encodePacked(encodedData, serverPlayerLists[i].playerNames[j]);\n            }\n        }\n\n        // Emit the encoded data\n        emit EncodedData(encodedData);\n    }\n\n    // Function to get the last computed hash\n    function getComputedHash() public view returns (bytes32) {\n        return lastComputedHash;\n    }\n\n    // Function to submit a hash and verify it against the last computed hash\n    function submitHashAndVerify(bytes32 submittedHash) public view returns (bool) {\n        return (submittedHash == lastComputedHash);\n    }\n\n    function echoHash(bytes32 hash) public pure returns (bytes32) {\n        return hash;\n    }\n}\n","sourcePath":"contracts/testhash.sol","type":"contract","deployment":{"address":"0x67d1007807e38eE102011182EAcf786Fa38cE1cB","chainid":"86098","blockHeight":162140}}