{"bytecode":"6080604052600b80546001600160a01b031990811673b03a6afd440a2a9db8834f1a6093680f02f1114c17909155600c805490911673a1d070f108cbef4a48ffc1a79258d5c24e05db6817905534801561005857600080fd5b50600080546001600160a01b031990811673b3830ae69ee5962355e84f6bbac274ff337960e517909155600b546001805483166001600160a01b03928316179055600c546002805490931691161790556126e3806100b76000396000f3fe608060405234801561001057600080fd5b50600436106101005760003560e01c806384e7e3d311610097578063d0b6b6db11610066578063d0b6b6db1461023a578063f59cc9781461024d578063f785eb2a14610256578063facd743b1461027657600080fd5b806384e7e3d31461020257806395a743e01461020b5780639d4635201461021e578063bc0e4ade1461022757600080fd5b80635c9c3ed2116100d35780635c9c3ed21461017a57806361803e75146101d45780636b4674eb146101e75780636f1aab4a146101fa57600080fd5b80631e9ad44614610105578063420230601461012757806356bf7b571461013c5780635920b40714610167575b600080fd5b610114670de0b6b3a764000081565b6040519081526020015b60405180910390f35b61013a610135366004611b7c565b610299565b005b60005461014f906001600160a01b031681565b6040516001600160a01b03909116815260200161011e565b61013a610175366004611bea565b6103f2565b6101bf610188366004611d37565b8151602081840181018051600482529282019482019490942091909352909152600090815260409020805460019091015460ff1682565b6040805192835290151560208301520161011e565b61013a6101e2366004611b7c565b61066c565b61013a6101f5366004611b7c565b6108dd565b610114604081565b61011461012c81565b61013a610219366004611dc4565b610a3b565b610114600a5481565b61013a610235366004611b7c565b610e64565b60025461014f906001600160a01b031681565b61011461025881565b610269610264366004611f7f565b6110c2565b60405161011e9190611ff1565b61028961028436600461200b565b61117b565b604051901515815260200161011e565b6000816040516020016102ac9190612028565b60408051601f19818403018152908290526000805463333f611160e01b8452919350916001600160a01b039091169063333f6111906102f590899089908990889060040161206e565b6020604051808303816000875af1158015610314573d6000803e3d6000fd5b505050506040513d601f19601f82011682018060405250810190610338919061214e565b9050806103bc5760405162461bcd60e51b815260206004820152604160248201527f417574686f72697a6174696f6e206661696c656420666f722070726f706f736560448201527f6420757064617465206f66204d696e7420636f6e7472616374206164647265736064820152607360f81b608482015260a4015b60405180910390fd5b505033600090815260066020526040902080546001600160a01b0319166001600160a01b03929092169190911790556009555050565b60005460408051603160f81b6020820152815160018183030181526021820192839052634a89d52b60e01b9092526001600160a01b0390921691634a89d52b91610445918791879187919060250161206e565b6020604051808303816000875af1158015610464573d6000803e3d6000fd5b505050506040513d601f19601f82011682018060405250810190610488919061214e565b6104d45760405162461bcd60e51b815260206004820152601b60248201527f4c616d706f7274206f7261636c6520636865636b206661696c6564000000000060448201526064016103b3565b6000836040516020016104e7919061216b565b60408051808303601f190181529082905280516020909101206000805463b9d57c5f60e01b845260048401839052919350916001600160a01b039091169063b9d57c5f90602401606060405180830381865afa15801561054b573d6000803e3d6000fd5b505050506040513d601f19601f8201168201806040525081019061056f91906121a2565b6001546040516334a88c5b60e01b8152336004820152919450600093508392506001600160a01b0316906334a88c5b906024016040805180830381865afa1580156105be573d6000803e3d6000fd5b505050506040513d601f19601f820116820180604052508101906105e291906121dd565b91509150818314806105f357508083145b6106505760405162461bcd60e51b815260206004820152602860248201527f43616c6c65722773206f7261636c65206b657920696e64657820646f6573206e6044820152670dee840dac2e8c6d60c31b60648201526084016103b3565b5050336000908152600860205260409020959095555050505050565b60008160405160200161067f9190612028565b60408051808303601f19018152918152336000908152600760205220549091506001600160a01b038381169116146107115760405162461bcd60e51b815260206004820152602f60248201527f506c61796572446174616261736520636f6e747261637420616464726573732060448201526e0eae0c8c2e8ca40dad2e6dac2e8c6d608b1b60648201526084016103b3565b600085604051602001610724919061216b565b604051602081830303815290604052805190602001209050806009540361075d5760405162461bcd60e51b81526004016103b390612201565b6000805460405163333f611160e01b81526001600160a01b039091169063333f611190610794908a908a908a90899060040161206e565b6020604051808303816000875af11580156107b3573d6000803e3d6000fd5b505050506040513d601f19601f820116820180604052508101906107d7919061214e565b9050806108635760405162461bcd60e51b815260206004820152604e60248201527f417574686f72697a6174696f6e206661696c6564206f6e20636f6e6669726d6160448201527f74696f6e206f6620506c61796572446174616261736520636f6e74726163742060648201526d616464726573732075706461746560901b608482015260a4016103b3565b600180546001600160a01b0319166001600160a01b0386169081179091556040519081527f6c200b5398af2592ba382dbf2a45376bbb22a24cab265709486fa967a5b4203d9060200160405180910390a1505033600090815260076020526040812080546001600160a01b03191690556009555050505050565b6000816040516020016108f09190612028565b60408051601f19818403018152908290526000805463333f611160e01b8452919350916001600160a01b039091169063333f61119061093990899089908990889060040161206e565b6020604051808303816000875af1158015610958573d6000803e3d6000fd5b505050506040513d601f19601f8201168201806040525081019061097c919061214e565b905080610a055760405162461bcd60e51b815260206004820152604b60248201527f417574686f72697a6174696f6e206661696c656420666f722070726f706f736560448201527f6420757064617465206f6620506c61796572446174616261736520636f6e747260648201526a616374206164647265737360a81b608482015260a4016103b3565b505033600090815260076020526040902080546001600160a01b0319166001600160a01b03929092169190911790556009555050565b610a448261117b565b610a9c5760405162461bcd60e51b8152602060048201526024808201527f43616c6c6572206973206e6f74206120726567697374657265642076616c696460448201526330ba37b960e11b60648201526084016103b3565b606060005b8451811015610b805781858281518110610abd57610abd612268565b602002602001015160000151604051602001610ada92919061227e565b604051602081830303815290604052915060005b858281518110610b0057610b00612268565b60200260200101516020015151811015610b775782868381518110610b2757610b27612268565b6020026020010151602001518281518110610b4457610b44612268565b6020026020010151604051602001610b5d92919061227e565b60408051601f198184030181529190529250600101610aee565b50600101610aa1565b5080516020808301919091206001600160a01b038516600090815260089092526040909120548114610c0f5760405162461bcd60e51b815260206004820152603260248201527f4c697374206861736820646f6573206e6f74206d617463682070726576696f7560448201527139b63c90383937bb34b232b2103430b9b41760711b60648201526084016103b3565b6000805b8651811015610dfa576000878281518110610c3057610c30612268565b60200260200101516020015151905060408184610c4d91906122c3565b1115610c595750610dfa565b610c6381846122c3565b9250606060005b898481518110610c7c57610c7c612268565b60200260200101516020015151811015610cf357818a8581518110610ca357610ca3612268565b6020026020010151602001518281518110610cc057610cc0612268565b6020026020010151604051602001610cd992919061227e565b60408051601f198184030181529190529150600101610c6a565b508051602082012089518a9085908110610d0f57610d0f612268565b602002602001015160200151600560008381526020019081526020016000209080519060200190610d41929190611a76565b50610d698a8581518110610d5757610d57612268565b6020026020010151600001518a6111f0565b604051806040016040528082815260200189151581525060048b8681518110610d9457610d94612268565b602002602001015160000151604051610dad91906122d6565b90815260408051602092819003830190206001600160a01b038d16600090815290835220825181559101516001918201805460ff1916911515919091179055939093019250610c13915050565b50600a544290600090610e0d90836122f2565b90506000610e1d61012c8461231b565b610e299061012c6122f2565b905061012c8210158015610e3e575061012c81105b15610e5957610e4b6112d5565b610e5581846122f2565b600a555b505050505050505050565b600081604051602001610e779190612028565b60408051808303601f19018152918152336000908152600660205220549091506001600160a01b03838116911614610eff5760405162461bcd60e51b815260206004820152602560248201527f4d696e7420636f6e7472616374206164647265737320757064617465206d69736044820152640dac2e8c6d60db1b60648201526084016103b3565b600085604051602001610f12919061216b565b6040516020818303038152906040528051906020012090508060095403610f4b5760405162461bcd60e51b81526004016103b390612201565b6000805460405163333f611160e01b81526001600160a01b039091169063333f611190610f82908a908a908a90899060040161206e565b6020604051808303816000875af1158015610fa1573d6000803e3d6000fd5b505050506040513d601f19601f82011682018060405250810190610fc5919061214e565b9050806110485760405162461bcd60e51b8152602060048201526044602482018190527f417574686f72697a6174696f6e206661696c6564206f6e20636f6e6669726d61908201527f74696f6e206f66204d696e7420636f6e747261637420616464726573732075706064820152636461746560e01b608482015260a4016103b3565b600280546001600160a01b0319166001600160a01b0386169081179091556040519081527f7814765089fa4d113b377eb0859fd345095a106617367857878087a128595ec49060200160405180910390a1505033600090815260066020526040812080546001600160a01b03191690556009555050505050565b600560205281600052604060002081815481106110de57600080fd5b906000526020600020016000915091505080546110fa9061232f565b80601f01602080910402602001604051908101604052809291908181526020018280546111269061232f565b80156111735780601f1061114857610100808354040283529160200191611173565b820191906000526020600020905b81548152906001019060200180831161115657829003601f168201915b505050505081565b60015460405163facd743b60e01b81526001600160a01b038381166004830152600092169063facd743b90602401602060405180830381865afa1580156111c6573d6000803e3d6000fd5b505050506040513d601f19601f820116820180604052508101906111ea919061214e565b92915050565b6000805b60038460405161120491906122d6565b9081526040519081900360200190205481101561127f57826001600160a01b031660038560405161123591906122d6565b9081526020016040518091039020828154811061125457611254612268565b6000918252602090912001546001600160a01b031603611277576001915061127f565b6001016111f4565b50806112d05760038360405161129591906122d6565b90815260405160209181900382019020805460018101825560009182529190200180546001600160a01b0319166001600160a01b0384161790555b505050565b60015460408051633dc0ff7d60e01b815290516000926001600160a01b031691633dc0ff7d91600480830192869291908290030181865afa15801561131e573d6000803e3d6000fd5b505050506040513d6000823e601f3d908101601f191682016040526113469190810190612369565b905060005b815181101561139857600082828151811061136857611368612268565b60200260200101519050600061137d826113a4565b9050801561138e5761138e81611649565b505060010161134b565b506113a1611824565b50565b6000806003836040516113b791906122d6565b908152604080519182900360209081018320805480830285018301909352828452919083018282801561141357602002820191906000526020600020905b81546001600160a01b031681526001909101906020018083116113f5575b50505050509050600060648251603c61142c9190612455565b611436919061246c565b8251909150600090819081906001600160401b0381111561145957611459611c4c565b60405190808252806020026020018201604052801561149e57816020015b60408051808201909152600080825260208201528152602001906001900390816114775790505b50905060005b85518110156116295760006004896040516114bf91906122d6565b908152602001604051809103902060008884815181106114e1576114e1612268565b60200260200101516001600160a01b03166001600160a01b031681526020019081526020016000206000015490506000805b845181101561157f578285828151811061152f5761152f612268565b602002602001015160000151036115775784818151811061155257611552612268565b6020026020010151602001805180919061156b90612480565b9052506001915061157f565b600101611513565b50806115b957604051806040016040528083815260200160018152508484815181106115ad576115ad612268565b60200260200101819052505b848484815181106115cc576115cc612268565b602002602001015160200151111561161f578383815181106115f0576115f0612268565b602002602001015160200151945083838151811061161057611610612268565b60200260200101516000015195505b50506001016114a4565b5083821061163c57509095945050505050565b5060009695505050505050565b600081815260056020908152604080832080548251818502810185019093528083529192909190849084015b828210156117215783829060005260206000200180546116949061232f565b80601f01602080910402602001604051908101604052809291908181526020018280546116c09061232f565b801561170d5780601f106116e25761010080835404028352916020019161170d565b820191906000526020600020905b8154815290600101906020018083116116f057829003601f168201915b505050505081526020019060010190611675565b5050505090506000611732826119c3565b9050600061173e611a3c565b905060005b825181101561181d5760006001600160a01b031683828151811061176957611769612268565b60200260200101516001600160a01b0316146118155760025483516001600160a01b039091169063f0dda65c908590849081106117a8576117a8612268565b6020026020010151846040518363ffffffff1660e01b81526004016117e29291906001600160a01b03929092168252602082015260400190565b600060405180830381600087803b1580156117fc57600080fd5b505af1158015611810573d6000803e3d6000fd5b505050505b600101611743565b5050505050565b60015460408051633dc0ff7d60e01b815290516000926001600160a01b031691633dc0ff7d91600480830192869291908290030181865afa15801561186d573d6000803e3d6000fd5b505050506040513d6000823e601f3d908101601f191682016040526118959190810190612369565b905060005b81518110156119bf5760008282815181106118b7576118b7612268565b6020026020010151905060006003826040516118d391906122d6565b908152604080519182900360209081018320805480830285018301909352828452919083018282801561192f57602002820191906000526020600020905b81546001600160a01b03168152600190910190602001808311611911575b5050505050905060005b81518110156119b457600060048460405161195491906122d6565b9081526020016040518091039020600084848151811061197657611976612268565b6020908102919091018101516001600160a01b031682528101919091526040016000206001908101805460ff19169215159290921790915501611939565b50505060010161189a565b5050565b600154600a546040516385d8f13d60e01b81526060926001600160a01b0316916385d8f13d916119f7918691600401612499565b600060405180830381865afa158015611a14573d6000803e3d6000fd5b505050506040513d6000823e601f3d908101601f191682016040526111ea9190810190612505565b600080600a5442611a4d91906122f2565b9050610258811115611a5e57506102585b611a70670de0b6b3a764000082612455565b91505090565b828054828255906000526020600020908101928215611abc579160200282015b82811115611abc5782518290611aac90826125ee565b5091602001919060010190611a96565b50611ac8929150611acc565b5090565b80821115611ac8576000611ae08282611ae9565b50600101611acc565b508054611af59061232f565b6000825580601f10611b05575050565b601f0160209004906000526020600020908101906113a191905b80821115611ac85760008155600101611b1f565b8061400081018310156111ea57600080fd5b8061200081018310156111ea57600080fd5b6001600160a01b03811681146113a157600080fd5b8035611b7781611b57565b919050565b6000806000806140608587031215611b9357600080fd5b611b9d8686611b33565b93506140008501356001600160401b03811115611bb957600080fd5b611bc587828801611b45565b9350506140208501359150614040850135611bdf81611b57565b939692955090935050565b6000806000806140608587031215611c0157600080fd5b84359350611c128660208701611b33565b92506140208501356001600160401b03811115611c2e57600080fd5b611c3a87828801611b45565b94979396509394614040013593505050565b634e487b7160e01b600052604160045260246000fd5b604080519081016001600160401b0381118282101715611c8457611c84611c4c565b60405290565b604051601f8201601f191681016001600160401b0381118282101715611cb257611cb2611c4c565b604052919050565b60006001600160401b03821115611cd357611cd3611c4c565b50601f01601f191660200190565b600082601f830112611cf257600080fd5b8135611d05611d0082611cba565b611c8a565b818152846020838601011115611d1a57600080fd5b816020850160208301376000918101602001919091529392505050565b60008060408385031215611d4a57600080fd5b82356001600160401b03811115611d6057600080fd5b611d6c85828601611ce1565b9250506020830135611d7d81611b57565b809150509250929050565b60006001600160401b03821115611da157611da1611c4c565b5060051b60200190565b80151581146113a157600080fd5b8035611b7781611dab565b600080600060608486031215611dd957600080fd5b6001600160401b038085351115611def57600080fd5b8435850186601f820112611e0257600080fd5b611e0f611d008235611d88565b81358082526020808301929160051b840101891015611e2d57600080fd5b602083015b6020843560051b850101811015611f55578481351115611e5157600080fd5b803584016040818c03601f19011215611e6957600080fd5b611e71611c62565b8660208301351115611e8257600080fd5b611e948c602080850135850101611ce1565b81528660408301351115611ea757600080fd5b6040820135820191508b603f830112611ebf57600080fd5b611ecf611d006020840135611d88565b602083810135808352908201919060051b84016040018e1015611ef157600080fd5b604084015b6040602086013560051b860101811015611f36578981351115611f1857600080fd5b611f288f60408335880101611ce1565b835260209283019201611ef6565b5080602084015250508085525050602083019250602081019050611e32565b509550611f689250505060208501611b6c565b9150611f7660408501611db9565b90509250925092565b60008060408385031215611f9257600080fd5b50508035926020909101359150565b60005b83811015611fbc578181015183820152602001611fa4565b50506000910152565b60008151808452611fdd816020860160208601611fa1565b601f01601f19169290920160200192915050565b6020815260006120046020830184611fc5565b9392505050565b60006020828403121561201d57600080fd5b813561200481611b57565b60609190911b6bffffffffffffffffffffffff1916815260140190565b81835281816020850137506000828201602090810191909152601f909101601f19169091010190565b60006140608281018388845b61010081101561209b5760408083853792830192919091019060010161207a565b50505061400084019190915261606083018660005b6101008110156121265785830361405f190184528135368a9003601e190181126120d957600080fd5b890160208181019135906001600160401b038211156120f757600080fd5b81360383131561210657600080fd5b612111868385612045565b968101969550939093019250506001016120b0565b5050856140208501528381036140408501526121428186611fc5565b98975050505050505050565b60006020828403121561216057600080fd5b815161200481611dab565b60008183825b61010081101561219257604080838537928301929190910190600101612171565b5050506140008201905092915050565b6000806000606084860312156121b757600080fd5b8351600381106121c657600080fd5b602085015160409095015190969495509392505050565b600080604083850312156121f057600080fd5b505080516020909101519092909150565b60208082526041908201527f53616d6520504b48207573656420666f7220626f74682073746570733b20757360408201527f652061207365706172617465206b657920666f7220636f6e6669726d6174696f6060820152603760f91b608082015260a00190565b634e487b7160e01b600052603260045260246000fd5b60008351612290818460208801611fa1565b8351908301906122a4818360208801611fa1565b01949350505050565b634e487b7160e01b600052601160045260246000fd5b808201808211156111ea576111ea6122ad565b600082516122e8818460208701611fa1565b9190910192915050565b818103818111156111ea576111ea6122ad565b634e487b7160e01b600052601260045260246000fd5b60008261232a5761232a612305565b500690565b600181811c9082168061234357607f821691505b60208210810361236357634e487b7160e01b600052602260045260246000fd5b50919050565b6000602080838503121561237c57600080fd5b82516001600160401b038082111561239357600080fd5b818501915085601f8301126123a757600080fd5b81516123b5611d0082611d88565b81815260059190911b830184019084810190888311156123d457600080fd5b8585015b83811015612448578051858111156123f05760008081fd5b8601603f81018b136124025760008081fd5b878101516040612414611d0083611cba565b8281528d828486010111156124295760008081fd5b612438838c8301848701611fa1565b86525050509186019186016123d8565b5098975050505050505050565b80820281158282048414176111ea576111ea6122ad565b60008261247b5761247b612305565b500490565b600060018201612492576124926122ad565b5060010190565b6000604082016040835280855180835260608501915060608160051b8601019250602080880160005b838110156124f057605f198887030185526124de868351611fc5565b955093820193908201906001016124c2565b50505050506020929092019290925292915050565b6000602080838503121561251857600080fd5b82516001600160401b0381111561252e57600080fd5b8301601f8101851361253f57600080fd5b805161254d611d0082611d88565b81815260059190911b8201830190838101908783111561256c57600080fd5b928401925b8284101561259357835161258481611b57565b82529284019290840190612571565b979650505050505050565b601f8211156112d0576000816000526020600020601f850160051c810160208610156125c75750805b601f850160051c820191505b818110156125e6578281556001016125d3565b505050505050565b81516001600160401b0381111561260757612607611c4c565b61261b81612615845461232f565b8461259e565b602080601f83116001811461265057600084156126385750858301515b600019600386901b1c1916600185901b1785556125e6565b600085815260208120601f198616915b8281101561267f57888601518255948401946001909101908401612660565b508582101561269d5787850151600019600388901b60f8161c191681555b5050505050600190811b0190555056fea2646970667358221220ad5c5eeb0398eb908da32e8914f7df9a79ddb12c8437273b2e9a30fd358eece764736f6c63430008180033","bytecodeSha1":"3ee1ab55eefe988c70a3476641fb883ad4313a75","type":"contract","abi":[{"inputs":[],"stateMutability":"nonpayable","type":"constructor","name":"constructor"},{"anonymous":false,"inputs":[{"indexed":false,"internalType":"address","name":"mintContractAddress","type":"address"}],"name":"MintContractUpdated","type":"event"},{"anonymous":false,"inputs":[{"indexed":false,"internalType":"address","name":"playerDatabaseAddress","type":"address"}],"name":"PlayerDatabaseAddressUpdated","type":"event"},{"inputs":[],"name":"MAX_MINT_TIME","outputs":[{"internalType":"uint256","name":"","type":"uint256"}],"stateMutability":"view","type":"function"},{"inputs":[],"name":"MAX_PLAYERS_PER_SUBMISSION","outputs":[{"internalType":"uint256","name":"","type":"uint256"}],"stateMutability":"view","type":"function"},{"inputs":[],"name":"MINT_INTERVAL","outputs":[{"internalType":"uint256","name":"","type":"uint256"}],"stateMutability":"view","type":"function"},{"inputs":[],"name":"TOKENS_PER_SECOND","outputs":[{"internalType":"uint256","name":"","type":"uint256"}],"stateMutability":"view","type":"function"},{"inputs":[{"internalType":"bytes32","name":"","type":"bytes32"},{"internalType":"uint256","name":"","type":"uint256"}],"name":"hashToPlayerList","outputs":[{"internalType":"string","name":"","type":"string"}],"stateMutability":"view","type":"function"},{"inputs":[{"internalType":"address","name":"_address","type":"address"}],"name":"isValidator","outputs":[{"internalType":"bool","name":"","type":"bool"}],"stateMutability":"view","type":"function"},{"inputs":[],"name":"lamportBase","outputs":[{"internalType":"contract ILamportBase","name":"","type":"address"}],"stateMutability":"view","type":"function"},{"inputs":[],"name":"lastMintTime","outputs":[{"internalType":"uint256","name":"","type":"uint256"}],"stateMutability":"view","type":"function"},{"inputs":[],"name":"mintContract","outputs":[{"internalType":"contract IGP_Mint","name":"","type":"address"}],"stateMutability":"view","type":"function"},{"inputs":[{"internalType":"string","name":"","type":"string"},{"internalType":"address","name":"","type":"address"}],"name":"serverSubmissions","outputs":[{"internalType":"bytes32","name":"playerListHash","type":"bytes32"},{"internalType":"bool","name":"canMint","type":"bool"}],"stateMutability":"view","type":"function"},{"inputs":[{"internalType":"bytes32","name":"playerListHash","type":"bytes32"},{"internalType":"bytes32[2][256]","name":"currentpub","type":"bytes32[2][256]"},{"internalType":"bytes[256]","name":"sig","type":"bytes[256]"},{"internalType":"bytes32","name":"nextPKH","type":"bytes32"}],"name":"submitPlayerListStepOne","outputs":[],"stateMutability":"nonpayable","type":"function"},{"inputs":[{"components":[{"internalType":"string","name":"serverIP","type":"string"},{"internalType":"string[]","name":"playerNames","type":"string[]"}],"internalType":"struct GameValidator.ServerPlayers[]","name":"serverPlayerLists","type":"tuple[]"},{"internalType":"address","name":"validatorID","type":"address"},{"internalType":"bool","name":"canMintFlag","type":"bool"}],"name":"submitPlayerListStepTwo","outputs":[],"stateMutability":"nonpayable","type":"function"},{"inputs":[{"internalType":"bytes32[2][256]","name":"currentpub","type":"bytes32[2][256]"},{"internalType":"bytes[256]","name":"sig","type":"bytes[256]"},{"internalType":"bytes32","name":"nextPKH","type":"bytes32"},{"internalType":"address","name":"mintContractAddress","type":"address"}],"name":"updateMintContractAddressStepOne","outputs":[],"stateMutability":"nonpayable","type":"function"},{"inputs":[{"internalType":"bytes32[2][256]","name":"currentpub","type":"bytes32[2][256]"},{"internalType":"bytes[256]","name":"sig","type":"bytes[256]"},{"internalType":"bytes32","name":"nextPKH","type":"bytes32"},{"internalType":"address","name":"mintContractAddress","type":"address"}],"name":"updateMintContractAddressStepTwo","outputs":[],"stateMutability":"nonpayable","type":"function"},{"inputs":[{"internalType":"bytes32[2][256]","name":"currentpub","type":"bytes32[2][256]"},{"internalType":"bytes[256]","name":"sig","type":"bytes[256]"},{"internalType":"bytes32","name":"nextPKH","type":"bytes32"},{"internalType":"address","name":"playerDatabaseAddress","type":"address"}],"name":"updatePlayerDatabaseAddressStepOne","outputs":[],"stateMutability":"nonpayable","type":"function"},{"inputs":[{"internalType":"bytes32[2][256]","name":"currentpub","type":"bytes32[2][256]"},{"internalType":"bytes[256]","name":"sig","type":"bytes[256]"},{"internalType":"bytes32","name":"nextPKH","type":"bytes32"},{"internalType":"address","name":"playerDatabaseAddress","type":"address"}],"name":"updatePlayerDatabaseAddressStepTwo","outputs":[],"stateMutability":"nonpayable","type":"function"}],"compiler":{"version":"0.8.24+commit.e11b9ed9","evm_version":"istanbul","optimizer":{"enabled":true,"runs":200}},"contractName":"GameValidator","language":"Solidity","natspec":{"methods":{},"kind":"dev","version":1},"opcodes":"PUSH1 0x80 PUSH1 0x40 MSTORE CALLVALUE DUP1 ISZERO PUSH2 0x10 JUMPI PUSH1 0x0 DUP1 REVERT JUMPDEST POP PUSH1 0x4 CALLDATASIZE LT PUSH2 0x100 JUMPI PUSH1 0x0 CALLDATALOAD PUSH1 0xE0 SHR DUP1 PUSH4 0x84E7E3D3 GT PUSH2 0x97 JUMPI DUP1 PUSH4 0xD0B6B6DB GT PUSH2 0x66 JUMPI DUP1 PUSH4 0xD0B6B6DB EQ PUSH2 0x23A JUMPI DUP1 PUSH4 0xF59CC978 EQ PUSH2 0x24D JUMPI DUP1 PUSH4 0xF785EB2A EQ PUSH2 0x256 JUMPI DUP1 PUSH4 0xFACD743B EQ PUSH2 0x276 JUMPI PUSH1 0x0 DUP1 REVERT JUMPDEST DUP1 PUSH4 0x84E7E3D3 EQ PUSH2 0x202 JUMPI DUP1 PUSH4 0x95A743E0 EQ PUSH2 0x20B JUMPI DUP1 PUSH4 0x9D463520 EQ PUSH2 0x21E JUMPI DUP1 PUSH4 0xBC0E4ADE EQ PUSH2 0x227 JUMPI PUSH1 0x0 DUP1 REVERT JUMPDEST DUP1 PUSH4 0x5C9C3ED2 GT PUSH2 0xD3 JUMPI DUP1 PUSH4 0x5C9C3ED2 EQ PUSH2 0x17A JUMPI DUP1 PUSH4 0x61803E75 EQ PUSH2 0x1D4 JUMPI DUP1 PUSH4 0x6B4674EB EQ PUSH2 0x1E7 JUMPI DUP1 PUSH4 0x6F1AAB4A EQ PUSH2 0x1FA JUMPI PUSH1 0x0 DUP1 REVERT JUMPDEST DUP1 PUSH4 0x1E9AD446 EQ PUSH2 0x105 JUMPI DUP1 PUSH4 0x42023060 EQ PUSH2 0x127 JUMPI DUP1 PUSH4 0x56BF7B57 EQ PUSH2 0x13C JUMPI DUP1 PUSH4 0x5920B407 EQ PUSH2 0x167 JUMPI JUMPDEST PUSH1 0x0 DUP1 REVERT JUMPDEST PUSH2 0x114 PUSH8 0xDE0B6B3A7640000 DUP2 JUMP JUMPDEST PUSH1 0x40 MLOAD SWAP1 DUP2 MSTORE PUSH1 0x20 ADD JUMPDEST PUSH1 0x40 MLOAD DUP1 SWAP2 SUB SWAP1 RETURN JUMPDEST PUSH2 0x13A PUSH2 0x135 CALLDATASIZE PUSH1 0x4 PUSH2 0x1B7C JUMP JUMPDEST PUSH2 0x299 JUMP JUMPDEST STOP JUMPDEST PUSH1 0x0 SLOAD PUSH2 0x14F SWAP1 PUSH1 0x1 PUSH1 0x1 PUSH1 0xA0 SHL SUB AND DUP2 JUMP JUMPDEST PUSH1 0x40 MLOAD PUSH1 0x1 PUSH1 0x1 PUSH1 0xA0 SHL SUB SWAP1 SWAP2 AND DUP2 MSTORE PUSH1 0x20 ADD PUSH2 0x11E JUMP JUMPDEST PUSH2 0x13A PUSH2 0x175 CALLDATASIZE PUSH1 0x4 PUSH2 0x1BEA JUMP JUMPDEST PUSH2 0x3F2 JUMP JUMPDEST PUSH2 0x1BF PUSH2 0x188 CALLDATASIZE PUSH1 0x4 PUSH2 0x1D37 JUMP JUMPDEST DUP2 MLOAD PUSH1 0x20 DUP2 DUP5 ADD DUP2 ADD DUP1 MLOAD PUSH1 0x4 DUP3 MSTORE SWAP3 DUP3 ADD SWAP5 DUP3 ADD SWAP5 SWAP1 SWAP5 KECCAK256 SWAP2 SWAP1 SWAP4 MSTORE SWAP1 SWAP2 MSTORE PUSH1 0x0 SWAP1 DUP2 MSTORE PUSH1 0x40 SWAP1 KECCAK256 DUP1 SLOAD PUSH1 0x1 SWAP1 SWAP2 ADD SLOAD PUSH1 0xFF AND DUP3 JUMP JUMPDEST PUSH1 0x40 DUP1 MLOAD SWAP3 DUP4 MSTORE SWAP1 ISZERO ISZERO PUSH1 0x20 DUP4 ADD MSTORE ADD PUSH2 0x11E JUMP JUMPDEST PUSH2 0x13A PUSH2 0x1E2 CALLDATASIZE PUSH1 0x4 PUSH2 0x1B7C JUMP JUMPDEST PUSH2 0x66C JUMP JUMPDEST PUSH2 0x13A PUSH2 0x1F5 CALLDATASIZE PUSH1 0x4 PUSH2 0x1B7C JUMP JUMPDEST PUSH2 0x8DD JUMP JUMPDEST PUSH2 0x114 PUSH1 0x40 DUP2 JUMP JUMPDEST PUSH2 0x114 PUSH2 0x12C DUP2 JUMP JUMPDEST PUSH2 0x13A PUSH2 0x219 CALLDATASIZE PUSH1 0x4 PUSH2 0x1DC4 JUMP JUMPDEST PUSH2 0xA3B JUMP JUMPDEST PUSH2 0x114 PUSH1 0xA SLOAD DUP2 JUMP JUMPDEST PUSH2 0x13A PUSH2 0x235 CALLDATASIZE PUSH1 0x4 PUSH2 0x1B7C JUMP JUMPDEST PUSH2 0xE64 JUMP JUMPDEST PUSH1 0x2 SLOAD PUSH2 0x14F SWAP1 PUSH1 0x1 PUSH1 0x1 PUSH1 0xA0 SHL SUB AND DUP2 JUMP JUMPDEST PUSH2 0x114 PUSH2 0x258 DUP2 JUMP JUMPDEST PUSH2 0x269 PUSH2 0x264 CALLDATASIZE PUSH1 0x4 PUSH2 0x1F7F JUMP JUMPDEST PUSH2 0x10C2 JUMP JUMPDEST PUSH1 0x40 MLOAD PUSH2 0x11E SWAP2 SWAP1 PUSH2 0x1FF1 JUMP JUMPDEST PUSH2 0x289 PUSH2 0x284 CALLDATASIZE PUSH1 0x4 PUSH2 0x200B JUMP JUMPDEST PUSH2 0x117B JUMP JUMPDEST PUSH1 0x40 MLOAD SWAP1 ISZERO ISZERO DUP2 MSTORE PUSH1 0x20 ADD PUSH2 0x11E JUMP JUMPDEST PUSH1 0x0 DUP2 PUSH1 0x40 MLOAD PUSH1 0x20 ADD PUSH2 0x2AC SWAP2 SWAP1 PUSH2 0x2028 JUMP JUMPDEST PUSH1 0x40 DUP1 MLOAD PUSH1 0x1F NOT DUP2 DUP5 SUB ADD DUP2 MSTORE SWAP1 DUP3 SWAP1 MSTORE PUSH1 0x0 DUP1 SLOAD PUSH4 0x333F6111 PUSH1 0xE0 SHL DUP5 MSTORE SWAP2 SWAP4 POP SWAP2 PUSH1 0x1 PUSH1 0x1 PUSH1 0xA0 SHL SUB SWAP1 SWAP2 AND SWAP1 PUSH4 0x333F6111 SWAP1 PUSH2 0x2F5 SWAP1 DUP10 SWAP1 DUP10 SWAP1 DUP10 SWAP1 DUP9 SWAP1 PUSH1 0x4 ADD PUSH2 0x206E JUMP JUMPDEST PUSH1 0x20 PUSH1 0x40 MLOAD DUP1 DUP4 SUB DUP2 PUSH1 0x0 DUP8 GAS CALL ISZERO DUP1 ISZERO PUSH2 0x314 JUMPI RETURNDATASIZE PUSH1 0x0 DUP1 RETURNDATACOPY RETURNDATASIZE PUSH1 0x0 REVERT JUMPDEST POP POP POP POP PUSH1 0x40 MLOAD RETURNDATASIZE PUSH1 0x1F NOT PUSH1 0x1F DUP3 ADD AND DUP3 ADD DUP1 PUSH1 0x40 MSTORE POP DUP2 ADD SWAP1 PUSH2 0x338 SWAP2 SWAP1 PUSH2 0x214E JUMP JUMPDEST SWAP1 POP DUP1 PUSH2 0x3BC JUMPI PUSH1 0x40 MLOAD PUSH3 0x461BCD PUSH1 0xE5 SHL DUP2 MSTORE PUSH1 0x20 PUSH1 0x4 DUP3 ADD MSTORE PUSH1 0x41 PUSH1 0x24 DUP3 ADD MSTORE PUSH32 0x417574686F72697A6174696F6E206661696C656420666F722070726F706F7365 PUSH1 0x44 DUP3 ADD MSTORE PUSH32 0x6420757064617465206F66204D696E7420636F6E747261637420616464726573 PUSH1 0x64 DUP3 ADD MSTORE PUSH1 0x73 PUSH1 0xF8 SHL PUSH1 0x84 DUP3 ADD MSTORE PUSH1 0xA4 ADD JUMPDEST PUSH1 0x40 MLOAD DUP1 SWAP2 SUB SWAP1 REVERT JUMPDEST POP POP CALLER PUSH1 0x0 SWAP1 DUP2 MSTORE PUSH1 0x6 PUSH1 0x20 MSTORE PUSH1 0x40 SWAP1 KECCAK256 DUP1 SLOAD PUSH1 0x1 PUSH1 0x1 PUSH1 0xA0 SHL SUB NOT AND PUSH1 0x1 PUSH1 0x1 PUSH1 0xA0 SHL SUB SWAP3 SWAP1 SWAP3 AND SWAP2 SWAP1 SWAP2 OR SWAP1 SSTORE PUSH1 0x9 SSTORE POP POP JUMP JUMPDEST PUSH1 0x0 SLOAD PUSH1 0x40 DUP1 MLOAD PUSH1 0x31 PUSH1 0xF8 SHL PUSH1 0x20 DUP3 ADD MSTORE DUP2 MLOAD PUSH1 0x1 DUP2 DUP4 SUB ADD DUP2 MSTORE PUSH1 0x21 DUP3 ADD SWAP3 DUP4 SWAP1 MSTORE PUSH4 0x4A89D52B PUSH1 0xE0 SHL SWAP1 SWAP3 MSTORE PUSH1 0x1 PUSH1 0x1 PUSH1 0xA0 SHL SUB SWAP1 SWAP3 AND SWAP2 PUSH4 0x4A89D52B SWAP2 PUSH2 0x445 SWAP2 DUP8 SWAP2 DUP8 SWAP2 DUP8 SWAP2 SWAP1 PUSH1 0x25 ADD PUSH2 0x206E JUMP JUMPDEST PUSH1 0x20 PUSH1 0x40 MLOAD DUP1 DUP4 SUB DUP2 PUSH1 0x0 DUP8 GAS CALL ISZERO DUP1 ISZERO PUSH2 0x464 JUMPI RETURNDATASIZE PUSH1 0x0 DUP1 RETURNDATACOPY RETURNDATASIZE PUSH1 0x0 REVERT JUMPDEST POP POP POP POP PUSH1 0x40 MLOAD RETURNDATASIZE PUSH1 0x1F NOT PUSH1 0x1F DUP3 ADD AND DUP3 ADD DUP1 PUSH1 0x40 MSTORE POP DUP2 ADD SWAP1 PUSH2 0x488 SWAP2 SWAP1 PUSH2 0x214E JUMP JUMPDEST PUSH2 0x4D4 JUMPI PUSH1 0x40 MLOAD PUSH3 0x461BCD PUSH1 0xE5 SHL DUP2 MSTORE PUSH1 0x20 PUSH1 0x4 DUP3 ADD MSTORE PUSH1 0x1B PUSH1 0x24 DUP3 ADD MSTORE PUSH32 0x4C616D706F7274206F7261636C6520636865636B206661696C65640000000000 PUSH1 0x44 DUP3 ADD MSTORE PUSH1 0x64 ADD PUSH2 0x3B3 JUMP JUMPDEST PUSH1 0x0 DUP4 PUSH1 0x40 MLOAD PUSH1 0x20 ADD PUSH2 0x4E7 SWAP2 SWAP1 PUSH2 0x216B JUMP JUMPDEST PUSH1 0x40 DUP1 MLOAD DUP1 DUP4 SUB PUSH1 0x1F NOT ADD DUP2 MSTORE SWAP1 DUP3 SWAP1 MSTORE DUP1 MLOAD PUSH1 0x20 SWAP1 SWAP2 ADD KECCAK256 PUSH1 0x0 DUP1 SLOAD PUSH4 0xB9D57C5F PUSH1 0xE0 SHL DUP5 MSTORE PUSH1 0x4 DUP5 ADD DUP4 SWAP1 MSTORE SWAP2 SWAP4 POP SWAP2 PUSH1 0x1 PUSH1 0x1 PUSH1 0xA0 SHL SUB SWAP1 SWAP2 AND SWAP1 PUSH4 0xB9D57C5F SWAP1 PUSH1 0x24 ADD PUSH1 0x60 PUSH1 0x40 MLOAD DUP1 DUP4 SUB DUP2 DUP7 GAS STATICCALL ISZERO DUP1 ISZERO PUSH2 0x54B JUMPI RETURNDATASIZE PUSH1 0x0 DUP1 RETURNDATACOPY RETURNDATASIZE PUSH1 0x0 REVERT JUMPDEST POP POP POP POP PUSH1 0x40 MLOAD RETURNDATASIZE PUSH1 0x1F NOT PUSH1 0x1F DUP3 ADD AND DUP3 ADD DUP1 PUSH1 0x40 MSTORE POP DUP2 ADD SWAP1 PUSH2 0x56F SWAP2 SWAP1 PUSH2 0x21A2 JUMP JUMPDEST PUSH1 0x1 SLOAD PUSH1 0x40 MLOAD PUSH4 0x34A88C5B PUSH1 0xE0 SHL DUP2 MSTORE CALLER PUSH1 0x4 DUP3 ADD MSTORE SWAP2 SWAP5 POP PUSH1 0x0 SWAP4 POP DUP4 SWAP3 POP PUSH1 0x1 PUSH1 0x1 PUSH1 0xA0 SHL SUB AND SWAP1 PUSH4 0x34A88C5B SWAP1 PUSH1 0x24 ADD PUSH1 0x40 DUP1 MLOAD DUP1 DUP4 SUB DUP2 DUP7 GAS STATICCALL ISZERO DUP1 ISZERO PUSH2 0x5BE JUMPI RETURNDATASIZE PUSH1 0x0 DUP1 RETURNDATACOPY RETURNDATASIZE PUSH1 0x0 REVERT JUMPDEST POP POP POP POP PUSH1 0x40 MLOAD RETURNDATASIZE PUSH1 0x1F NOT PUSH1 0x1F DUP3 ADD AND DUP3 ADD DUP1 PUSH1 0x40 MSTORE POP DUP2 ADD SWAP1 PUSH2 0x5E2 SWAP2 SWAP1 PUSH2 0x21DD JUMP JUMPDEST SWAP2 POP SWAP2 POP DUP2 DUP4 EQ DUP1 PUSH2 0x5F3 JUMPI POP DUP1 DUP4 EQ JUMPDEST PUSH2 0x650 JUMPI PUSH1 0x40 MLOAD PUSH3 0x461BCD PUSH1 0xE5 SHL DUP2 MSTORE PUSH1 0x20 PUSH1 0x4 DUP3 ADD MSTORE PUSH1 0x28 PUSH1 0x24 DUP3 ADD MSTORE PUSH32 0x43616C6C65722773206F7261636C65206B657920696E64657820646F6573206E PUSH1 0x44 DUP3 ADD MSTORE PUSH8 0xDEE840DAC2E8C6D PUSH1 0xC3 SHL PUSH1 0x64 DUP3 ADD MSTORE PUSH1 0x84 ADD PUSH2 0x3B3 JUMP JUMPDEST POP POP CALLER PUSH1 0x0 SWAP1 DUP2 MSTORE PUSH1 0x8 PUSH1 0x20 MSTORE PUSH1 0x40 SWAP1 KECCAK256 SWAP6 SWAP1 SWAP6 SSTORE POP POP POP POP POP JUMP JUMPDEST PUSH1 0x0 DUP2 PUSH1 0x40 MLOAD PUSH1 0x20 ADD PUSH2 0x67F SWAP2 SWAP1 PUSH2 0x2028 JUMP JUMPDEST PUSH1 0x40 DUP1 MLOAD DUP1 DUP4 SUB PUSH1 0x1F NOT ADD DUP2 MSTORE SWAP2 DUP2 MSTORE CALLER PUSH1 0x0 SWAP1 DUP2 MSTORE PUSH1 0x7 PUSH1 0x20 MSTORE KECCAK256 SLOAD SWAP1 SWAP2 POP PUSH1 0x1 PUSH1 0x1 PUSH1 0xA0 SHL SUB DUP4 DUP2 AND SWAP2 AND EQ PUSH2 0x711 JUMPI PUSH1 0x40 MLOAD PUSH3 0x461BCD PUSH1 0xE5 SHL DUP2 MSTORE PUSH1 0x20 PUSH1 0x4 DUP3 ADD MSTORE PUSH1 0x2F PUSH1 0x24 DUP3 ADD MSTORE PUSH32 0x506C61796572446174616261736520636F6E7472616374206164647265737320 PUSH1 0x44 DUP3 ADD MSTORE PUSH15 0xEAE0C8C2E8CA40DAD2E6DAC2E8C6D PUSH1 0x8B SHL PUSH1 0x64 DUP3 ADD MSTORE PUSH1 0x84 ADD PUSH2 0x3B3 JUMP JUMPDEST PUSH1 0x0 DUP6 PUSH1 0x40 MLOAD PUSH1 0x20 ADD PUSH2 0x724 SWAP2 SWAP1 PUSH2 0x216B JUMP JUMPDEST PUSH1 0x40 MLOAD PUSH1 0x20 DUP2 DUP4 SUB SUB DUP2 MSTORE SWAP1 PUSH1 0x40 MSTORE DUP1 MLOAD SWAP1 PUSH1 0x20 ADD KECCAK256 SWAP1 POP DUP1 PUSH1 0x9 SLOAD SUB PUSH2 0x75D JUMPI PUSH1 0x40 MLOAD PUSH3 0x461BCD PUSH1 0xE5 SHL DUP2 MSTORE PUSH1 0x4 ADD PUSH2 0x3B3 SWAP1 PUSH2 0x2201 JUMP JUMPDEST PUSH1 0x0 DUP1 SLOAD PUSH1 0x40 MLOAD PUSH4 0x333F6111 PUSH1 0xE0 SHL DUP2 MSTORE PUSH1 0x1 PUSH1 0x1 PUSH1 0xA0 SHL SUB SWAP1 SWAP2 AND SWAP1 PUSH4 0x333F6111 SWAP1 PUSH2 0x794 SWAP1 DUP11 SWAP1 DUP11 SWAP1 DUP11 SWAP1 DUP10 SWAP1 PUSH1 0x4 ADD PUSH2 0x206E JUMP JUMPDEST PUSH1 0x20 PUSH1 0x40 MLOAD DUP1 DUP4 SUB DUP2 PUSH1 0x0 DUP8 GAS CALL ISZERO DUP1 ISZERO PUSH2 0x7B3 JUMPI RETURNDATASIZE PUSH1 0x0 DUP1 RETURNDATACOPY RETURNDATASIZE PUSH1 0x0 REVERT JUMPDEST POP POP POP POP PUSH1 0x40 MLOAD RETURNDATASIZE PUSH1 0x1F NOT PUSH1 0x1F DUP3 ADD AND DUP3 ADD DUP1 PUSH1 0x40 MSTORE POP DUP2 ADD SWAP1 PUSH2 0x7D7 SWAP2 SWAP1 PUSH2 0x214E JUMP JUMPDEST SWAP1 POP DUP1 PUSH2 0x863 JUMPI PUSH1 0x40 MLOAD PUSH3 0x461BCD PUSH1 0xE5 SHL DUP2 MSTORE PUSH1 0x20 PUSH1 0x4 DUP3 ADD MSTORE PUSH1 0x4E PUSH1 0x24 DUP3 ADD MSTORE PUSH32 0x417574686F72697A6174696F6E206661696C6564206F6E20636F6E6669726D61 PUSH1 0x44 DUP3 ADD MSTORE PUSH32 0x74696F6E206F6620506C61796572446174616261736520636F6E747261637420 PUSH1 0x64 DUP3 ADD MSTORE PUSH14 0x6164647265737320757064617465 PUSH1 0x90 SHL PUSH1 0x84 DUP3 ADD MSTORE PUSH1 0xA4 ADD PUSH2 0x3B3 JUMP JUMPDEST PUSH1 0x1 DUP1 SLOAD PUSH1 0x1 PUSH1 0x1 PUSH1 0xA0 SHL SUB NOT AND PUSH1 0x1 PUSH1 0x1 PUSH1 0xA0 SHL SUB DUP7 AND SWAP1 DUP2 OR SWAP1 SWAP2 SSTORE PUSH1 0x40 MLOAD SWAP1 DUP2 MSTORE PUSH32 0x6C200B5398AF2592BA382DBF2A45376BBB22A24CAB265709486FA967A5B4203D SWAP1 PUSH1 0x20 ADD PUSH1 0x40 MLOAD DUP1 SWAP2 SUB SWAP1 LOG1 POP POP CALLER PUSH1 0x0 SWAP1 DUP2 MSTORE PUSH1 0x7 PUSH1 0x20 MSTORE PUSH1 0x40 DUP2 KECCAK256 DUP1 SLOAD PUSH1 0x1 PUSH1 0x1 PUSH1 0xA0 SHL SUB NOT AND SWAP1 SSTORE PUSH1 0x9 SSTORE POP POP POP POP POP JUMP JUMPDEST PUSH1 0x0 DUP2 PUSH1 0x40 MLOAD PUSH1 0x20 ADD PUSH2 0x8F0 SWAP2 SWAP1 PUSH2 0x2028 JUMP JUMPDEST PUSH1 0x40 DUP1 MLOAD PUSH1 0x1F NOT DUP2 DUP5 SUB ADD DUP2 MSTORE SWAP1 DUP3 SWAP1 MSTORE PUSH1 0x0 DUP1 SLOAD PUSH4 0x333F6111 PUSH1 0xE0 SHL DUP5 MSTORE SWAP2 SWAP4 POP SWAP2 PUSH1 0x1 PUSH1 0x1 PUSH1 0xA0 SHL SUB SWAP1 SWAP2 AND SWAP1 PUSH4 0x333F6111 SWAP1 PUSH2 0x939 SWAP1 DUP10 SWAP1 DUP10 SWAP1 DUP10 SWAP1 DUP9 SWAP1 PUSH1 0x4 ADD PUSH2 0x206E JUMP JUMPDEST PUSH1 0x20 PUSH1 0x40 MLOAD DUP1 DUP4 SUB DUP2 PUSH1 0x0 DUP8 GAS CALL ISZERO DUP1 ISZERO PUSH2 0x958 JUMPI RETURNDATASIZE PUSH1 0x0 DUP1 RETURNDATACOPY RETURNDATASIZE PUSH1 0x0 REVERT JUMPDEST POP POP POP POP PUSH1 0x40 MLOAD RETURNDATASIZE PUSH1 0x1F NOT PUSH1 0x1F DUP3 ADD AND DUP3 ADD DUP1 PUSH1 0x40 MSTORE POP DUP2 ADD SWAP1 PUSH2 0x97C SWAP2 SWAP1 PUSH2 0x214E JUMP JUMPDEST SWAP1 POP DUP1 PUSH2 0xA05 JUMPI PUSH1 0x40 MLOAD PUSH3 0x461BCD PUSH1 0xE5 SHL DUP2 MSTORE PUSH1 0x20 PUSH1 0x4 DUP3 ADD MSTORE PUSH1 0x4B PUSH1 0x24 DUP3 ADD MSTORE PUSH32 0x417574686F72697A6174696F6E206661696C656420666F722070726F706F7365 PUSH1 0x44 DUP3 ADD MSTORE PUSH32 0x6420757064617465206F6620506C61796572446174616261736520636F6E7472 PUSH1 0x64 DUP3 ADD MSTORE PUSH11 0x6163742061646472657373 PUSH1 0xA8 SHL PUSH1 0x84 DUP3 ADD MSTORE PUSH1 0xA4 ADD PUSH2 0x3B3 JUMP JUMPDEST POP POP CALLER PUSH1 0x0 SWAP1 DUP2 MSTORE PUSH1 0x7 PUSH1 0x20 MSTORE PUSH1 0x40 SWAP1 KECCAK256 DUP1 SLOAD PUSH1 0x1 PUSH1 0x1 PUSH1 0xA0 SHL SUB NOT AND PUSH1 0x1 PUSH1 0x1 PUSH1 0xA0 SHL SUB SWAP3 SWAP1 SWAP3 AND SWAP2 SWAP1 SWAP2 OR SWAP1 SSTORE PUSH1 0x9 SSTORE POP POP JUMP JUMPDEST PUSH2 0xA44 DUP3 PUSH2 0x117B JUMP JUMPDEST PUSH2 0xA9C JUMPI PUSH1 0x40 MLOAD PUSH3 0x461BCD PUSH1 0xE5 SHL DUP2 MSTORE PUSH1 0x20 PUSH1 0x4 DUP3 ADD MSTORE PUSH1 0x24 DUP1 DUP3 ADD MSTORE PUSH32 0x43616C6C6572206973206E6F74206120726567697374657265642076616C6964 PUSH1 0x44 DUP3 ADD MSTORE PUSH4 0x30BA37B9 PUSH1 0xE1 SHL PUSH1 0x64 DUP3 ADD MSTORE PUSH1 0x84 ADD PUSH2 0x3B3 JUMP JUMPDEST PUSH1 0x60 PUSH1 0x0 JUMPDEST DUP5 MLOAD DUP2 LT ISZERO PUSH2 0xB80 JUMPI DUP2 DUP6 DUP3 DUP2 MLOAD DUP2 LT PUSH2 0xABD JUMPI PUSH2 0xABD PUSH2 0x2268 JUMP JUMPDEST PUSH1 0x20 MUL PUSH1 0x20 ADD ADD MLOAD PUSH1 0x0 ADD MLOAD PUSH1 0x40 MLOAD PUSH1 0x20 ADD PUSH2 0xADA SWAP3 SWAP2 SWAP1 PUSH2 0x227E JUMP JUMPDEST PUSH1 0x40 MLOAD PUSH1 0x20 DUP2 DUP4 SUB SUB DUP2 MSTORE SWAP1 PUSH1 0x40 MSTORE SWAP2 POP PUSH1 0x0 JUMPDEST DUP6 DUP3 DUP2 MLOAD DUP2 LT PUSH2 0xB00 JUMPI PUSH2 0xB00 PUSH2 0x2268 JUMP JUMPDEST PUSH1 0x20 MUL PUSH1 0x20 ADD ADD MLOAD PUSH1 0x20 ADD MLOAD MLOAD DUP2 LT ISZERO PUSH2 0xB77 JUMPI DUP3 DUP7 DUP4 DUP2 MLOAD DUP2 LT PUSH2 0xB27 JUMPI PUSH2 0xB27 PUSH2 0x2268 JUMP JUMPDEST PUSH1 0x20 MUL PUSH1 0x20 ADD ADD MLOAD PUSH1 0x20 ADD MLOAD DUP3 DUP2 MLOAD DUP2 LT PUSH2 0xB44 JUMPI PUSH2 0xB44 PUSH2 0x2268 JUMP JUMPDEST PUSH1 0x20 MUL PUSH1 0x20 ADD ADD MLOAD PUSH1 0x40 MLOAD PUSH1 0x20 ADD PUSH2 0xB5D SWAP3 SWAP2 SWAP1 PUSH2 0x227E JUMP JUMPDEST PUSH1 0x40 DUP1 MLOAD PUSH1 0x1F NOT DUP2 DUP5 SUB ADD DUP2 MSTORE SWAP2 SWAP1 MSTORE SWAP3 POP PUSH1 0x1 ADD PUSH2 0xAEE JUMP JUMPDEST POP PUSH1 0x1 ADD PUSH2 0xAA1 JUMP JUMPDEST POP DUP1 MLOAD PUSH1 0x20 DUP1 DUP4 ADD SWAP2 SWAP1 SWAP2 KECCAK256 PUSH1 0x1 PUSH1 0x1 PUSH1 0xA0 SHL SUB DUP6 AND PUSH1 0x0 SWAP1 DUP2 MSTORE PUSH1 0x8 SWAP1 SWAP3 MSTORE PUSH1 0x40 SWAP1 SWAP2 KECCAK256 SLOAD DUP2 EQ PUSH2 0xC0F JUMPI PUSH1 0x40 MLOAD PUSH3 0x461BCD PUSH1 0xE5 SHL DUP2 MSTORE PUSH1 0x20 PUSH1 0x4 DUP3 ADD MSTORE PUSH1 0x32 PUSH1 0x24 DUP3 ADD MSTORE PUSH32 0x4C697374206861736820646F6573206E6F74206D617463682070726576696F75 PUSH1 0x44 DUP3 ADD MSTORE PUSH18 0x39B63C90383937BB34B232B2103430B9B417 PUSH1 0x71 SHL PUSH1 0x64 DUP3 ADD MSTORE PUSH1 0x84 ADD PUSH2 0x3B3 JUMP JUMPDEST PUSH1 0x0 DUP1 JUMPDEST DUP7 MLOAD DUP2 LT ISZERO PUSH2 0xDFA JUMPI PUSH1 0x0 DUP8 DUP3 DUP2 MLOAD DUP2 LT PUSH2 0xC30 JUMPI PUSH2 0xC30 PUSH2 0x2268 JUMP JUMPDEST PUSH1 0x20 MUL PUSH1 0x20 ADD ADD MLOAD PUSH1 0x20 ADD MLOAD MLOAD SWAP1 POP PUSH1 0x40 DUP2 DUP5 PUSH2 0xC4D SWAP2 SWAP1 PUSH2 0x22C3 JUMP JUMPDEST GT ISZERO PUSH2 0xC59 JUMPI POP PUSH2 0xDFA JUMP JUMPDEST PUSH2 0xC63 DUP2 DUP5 PUSH2 0x22C3 JUMP JUMPDEST SWAP3 POP PUSH1 0x60 PUSH1 0x0 JUMPDEST DUP10 DUP5 DUP2 MLOAD DUP2 LT PUSH2 0xC7C JUMPI PUSH2 0xC7C PUSH2 0x2268 JUMP JUMPDEST PUSH1 0x20 MUL PUSH1 0x20 ADD ADD MLOAD PUSH1 0x20 ADD MLOAD MLOAD DUP2 LT ISZERO PUSH2 0xCF3 JUMPI DUP2 DUP11 DUP6 DUP2 MLOAD DUP2 LT PUSH2 0xCA3 JUMPI PUSH2 0xCA3 PUSH2 0x2268 JUMP JUMPDEST PUSH1 0x20 MUL PUSH1 0x20 ADD ADD MLOAD PUSH1 0x20 ADD MLOAD DUP3 DUP2 MLOAD DUP2 LT PUSH2 0xCC0 JUMPI PUSH2 0xCC0 PUSH2 0x2268 JUMP JUMPDEST PUSH1 0x20 MUL PUSH1 0x20 ADD ADD MLOAD PUSH1 0x40 MLOAD PUSH1 0x20 ADD PUSH2 0xCD9 SWAP3 SWAP2 SWAP1 PUSH2 0x227E JUMP JUMPDEST PUSH1 0x40 DUP1 MLOAD PUSH1 0x1F NOT DUP2 DUP5 SUB ADD DUP2 MSTORE SWAP2 SWAP1 MSTORE SWAP2 POP PUSH1 0x1 ADD PUSH2 0xC6A JUMP JUMPDEST POP DUP1 MLOAD PUSH1 0x20 DUP3 ADD KECCAK256 DUP10 MLOAD DUP11 SWAP1 DUP6 SWAP1 DUP2 LT PUSH2 0xD0F JUMPI PUSH2 0xD0F PUSH2 0x2268 JUMP JUMPDEST PUSH1 0x20 MUL PUSH1 0x20 ADD ADD MLOAD PUSH1 0x20 ADD MLOAD PUSH1 0x5 PUSH1 0x0 DUP4 DUP2 MSTORE PUSH1 0x20 ADD SWAP1 DUP2 MSTORE PUSH1 0x20 ADD PUSH1 0x0 KECCAK256 SWAP1 DUP1 MLOAD SWAP1 PUSH1 0x20 ADD SWAP1 PUSH2 0xD41 SWAP3 SWAP2 SWAP1 PUSH2 0x1A76 JUMP JUMPDEST POP PUSH2 0xD69 DUP11 DUP6 DUP2 MLOAD DUP2 LT PUSH2 0xD57 JUMPI PUSH2 0xD57 PUSH2 0x2268 JUMP JUMPDEST PUSH1 0x20 MUL PUSH1 0x20 ADD ADD MLOAD PUSH1 0x0 ADD MLOAD DUP11 PUSH2 0x11F0 JUMP JUMPDEST PUSH1 0x40 MLOAD DUP1 PUSH1 0x40 ADD PUSH1 0x40 MSTORE DUP1 DUP3 DUP2 MSTORE PUSH1 0x20 ADD DUP10 ISZERO ISZERO DUP2 MSTORE POP PUSH1 0x4 DUP12 DUP7 DUP2 MLOAD DUP2 LT PUSH2 0xD94 JUMPI PUSH2 0xD94 PUSH2 0x2268 JUMP JUMPDEST PUSH1 0x20 MUL PUSH1 0x20 ADD ADD MLOAD PUSH1 0x0 ADD MLOAD PUSH1 0x40 MLOAD PUSH2 0xDAD SWAP2 SWAP1 PUSH2 0x22D6 JUMP JUMPDEST SWAP1 DUP2 MSTORE PUSH1 0x40 DUP1 MLOAD PUSH1 0x20 SWAP3 DUP2 SWAP1 SUB DUP4 ADD SWAP1 KECCAK256 PUSH1 0x1 PUSH1 0x1 PUSH1 0xA0 SHL SUB DUP14 AND PUSH1 0x0 SWAP1 DUP2 MSTORE SWAP1 DUP4 MSTORE KECCAK256 DUP3 MLOAD DUP2 SSTORE SWAP2 ADD MLOAD PUSH1 0x1 SWAP2 DUP3 ADD DUP1 SLOAD PUSH1 0xFF NOT AND SWAP2 ISZERO ISZERO SWAP2 SWAP1 SWAP2 OR SWAP1 SSTORE SWAP4 SWAP1 SWAP4 ADD SWAP3 POP PUSH2 0xC13 SWAP2 POP POP JUMP JUMPDEST POP PUSH1 0xA SLOAD TIMESTAMP SWAP1 PUSH1 0x0 SWAP1 PUSH2 0xE0D SWAP1 DUP4 PUSH2 0x22F2 JUMP JUMPDEST SWAP1 POP PUSH1 0x0 PUSH2 0xE1D PUSH2 0x12C DUP5 PUSH2 0x231B JUMP JUMPDEST PUSH2 0xE29 SWAP1 PUSH2 0x12C PUSH2 0x22F2 JUMP JUMPDEST SWAP1 POP PUSH2 0x12C DUP3 LT ISZERO DUP1 ISZERO PUSH2 0xE3E JUMPI POP PUSH2 0x12C DUP2 LT JUMPDEST ISZERO PUSH2 0xE59 JUMPI PUSH2 0xE4B PUSH2 0x12D5 JUMP JUMPDEST PUSH2 0xE55 DUP2 DUP5 PUSH2 0x22F2 JUMP JUMPDEST PUSH1 0xA SSTORE JUMPDEST POP POP POP POP POP POP POP POP POP JUMP JUMPDEST PUSH1 0x0 DUP2 PUSH1 0x40 MLOAD PUSH1 0x20 ADD PUSH2 0xE77 SWAP2 SWAP1 PUSH2 0x2028 JUMP JUMPDEST PUSH1 0x40 DUP1 MLOAD DUP1 DUP4 SUB PUSH1 0x1F NOT ADD DUP2 MSTORE SWAP2 DUP2 MSTORE CALLER PUSH1 0x0 SWAP1 DUP2 MSTORE PUSH1 0x6 PUSH1 0x20 MSTORE KECCAK256 SLOAD SWAP1 SWAP2 POP PUSH1 0x1 PUSH1 0x1 PUSH1 0xA0 SHL SUB DUP4 DUP2 AND SWAP2 AND EQ PUSH2 0xEFF JUMPI PUSH1 0x40 MLOAD PUSH3 0x461BCD PUSH1 0xE5 SHL DUP2 MSTORE PUSH1 0x20 PUSH1 0x4 DUP3 ADD MSTORE PUSH1 0x25 PUSH1 0x24 DUP3 ADD MSTORE PUSH32 0x4D696E7420636F6E7472616374206164647265737320757064617465206D6973 PUSH1 0x44 DUP3 ADD MSTORE PUSH5 0xDAC2E8C6D PUSH1 0xDB SHL PUSH1 0x64 DUP3 ADD MSTORE PUSH1 0x84 ADD PUSH2 0x3B3 JUMP JUMPDEST PUSH1 0x0 DUP6 PUSH1 0x40 MLOAD PUSH1 0x20 ADD PUSH2 0xF12 SWAP2 SWAP1 PUSH2 0x216B JUMP JUMPDEST PUSH1 0x40 MLOAD PUSH1 0x20 DUP2 DUP4 SUB SUB DUP2 MSTORE SWAP1 PUSH1 0x40 MSTORE DUP1 MLOAD SWAP1 PUSH1 0x20 ADD KECCAK256 SWAP1 POP DUP1 PUSH1 0x9 SLOAD SUB PUSH2 0xF4B JUMPI PUSH1 0x40 MLOAD PUSH3 0x461BCD PUSH1 0xE5 SHL DUP2 MSTORE PUSH1 0x4 ADD PUSH2 0x3B3 SWAP1 PUSH2 0x2201 JUMP JUMPDEST PUSH1 0x0 DUP1 SLOAD PUSH1 0x40 MLOAD PUSH4 0x333F6111 PUSH1 0xE0 SHL DUP2 MSTORE PUSH1 0x1 PUSH1 0x1 PUSH1 0xA0 SHL SUB SWAP1 SWAP2 AND SWAP1 PUSH4 0x333F6111 SWAP1 PUSH2 0xF82 SWAP1 DUP11 SWAP1 DUP11 SWAP1 DUP11 SWAP1 DUP10 SWAP1 PUSH1 0x4 ADD PUSH2 0x206E JUMP JUMPDEST PUSH1 0x20 PUSH1 0x40 MLOAD DUP1 DUP4 SUB DUP2 PUSH1 0x0 DUP8 GAS CALL ISZERO DUP1 ISZERO PUSH2 0xFA1 JUMPI RETURNDATASIZE PUSH1 0x0 DUP1 RETURNDATACOPY RETURNDATASIZE PUSH1 0x0 REVERT JUMPDEST POP POP POP POP PUSH1 0x40 MLOAD RETURNDATASIZE PUSH1 0x1F NOT PUSH1 0x1F DUP3 ADD AND DUP3 ADD DUP1 PUSH1 0x40 MSTORE POP DUP2 ADD SWAP1 PUSH2 0xFC5 SWAP2 SWAP1 PUSH2 0x214E JUMP JUMPDEST SWAP1 POP DUP1 PUSH2 0x1048 JUMPI PUSH1 0x40 MLOAD PUSH3 0x461BCD PUSH1 0xE5 SHL DUP2 MSTORE PUSH1 0x20 PUSH1 0x4 DUP3 ADD MSTORE PUSH1 0x44 PUSH1 0x24 DUP3 ADD DUP2 SWAP1 MSTORE PUSH32 0x417574686F72697A6174696F6E206661696C6564206F6E20636F6E6669726D61 SWAP1 DUP3 ADD MSTORE PUSH32 0x74696F6E206F66204D696E7420636F6E74726163742061646472657373207570 PUSH1 0x64 DUP3 ADD MSTORE PUSH4 0x64617465 PUSH1 0xE0 SHL PUSH1 0x84 DUP3 ADD MSTORE PUSH1 0xA4 ADD PUSH2 0x3B3 JUMP JUMPDEST PUSH1 0x2 DUP1 SLOAD PUSH1 0x1 PUSH1 0x1 PUSH1 0xA0 SHL SUB NOT AND PUSH1 0x1 PUSH1 0x1 PUSH1 0xA0 SHL SUB DUP7 AND SWAP1 DUP2 OR SWAP1 SWAP2 SSTORE PUSH1 0x40 MLOAD SWAP1 DUP2 MSTORE PUSH32 0x7814765089FA4D113B377EB0859FD345095A106617367857878087A128595EC4 SWAP1 PUSH1 0x20 ADD PUSH1 0x40 MLOAD DUP1 SWAP2 SUB SWAP1 LOG1 POP POP CALLER PUSH1 0x0 SWAP1 DUP2 MSTORE PUSH1 0x6 PUSH1 0x20 MSTORE PUSH1 0x40 DUP2 KECCAK256 DUP1 SLOAD PUSH1 0x1 PUSH1 0x1 PUSH1 0xA0 SHL SUB NOT AND SWAP1 SSTORE PUSH1 0x9 SSTORE POP POP POP POP POP JUMP JUMPDEST PUSH1 0x5 PUSH1 0x20 MSTORE DUP2 PUSH1 0x0 MSTORE PUSH1 0x40 PUSH1 0x0 KECCAK256 DUP2 DUP2 SLOAD DUP2 LT PUSH2 0x10DE JUMPI PUSH1 0x0 DUP1 REVERT JUMPDEST SWAP1 PUSH1 0x0 MSTORE PUSH1 0x20 PUSH1 0x0 KECCAK256 ADD PUSH1 0x0 SWAP2 POP SWAP2 POP POP DUP1 SLOAD PUSH2 0x10FA SWAP1 PUSH2 0x232F JUMP JUMPDEST DUP1 PUSH1 0x1F ADD PUSH1 0x20 DUP1 SWAP2 DIV MUL PUSH1 0x20 ADD PUSH1 0x40 MLOAD SWAP1 DUP2 ADD PUSH1 0x40 MSTORE DUP1 SWAP3 SWAP2 SWAP1 DUP2 DUP2 MSTORE PUSH1 0x20 ADD DUP3 DUP1 SLOAD PUSH2 0x1126 SWAP1 PUSH2 0x232F JUMP JUMPDEST DUP1 ISZERO PUSH2 0x1173 JUMPI DUP1 PUSH1 0x1F LT PUSH2 0x1148 JUMPI PUSH2 0x100 DUP1 DUP4 SLOAD DIV MUL DUP4 MSTORE SWAP2 PUSH1 0x20 ADD SWAP2 PUSH2 0x1173 JUMP JUMPDEST DUP3 ADD SWAP2 SWAP1 PUSH1 0x0 MSTORE PUSH1 0x20 PUSH1 0x0 KECCAK256 SWAP1 JUMPDEST DUP2 SLOAD DUP2 MSTORE SWAP1 PUSH1 0x1 ADD SWAP1 PUSH1 0x20 ADD DUP1 DUP4 GT PUSH2 0x1156 JUMPI DUP3 SWAP1 SUB PUSH1 0x1F AND DUP3 ADD SWAP2 JUMPDEST POP POP POP POP POP DUP2 JUMP JUMPDEST PUSH1 0x1 SLOAD PUSH1 0x40 MLOAD PUSH4 0xFACD743B PUSH1 0xE0 SHL DUP2 MSTORE PUSH1 0x1 PUSH1 0x1 PUSH1 0xA0 SHL SUB DUP4 DUP2 AND PUSH1 0x4 DUP4 ADD MSTORE PUSH1 0x0 SWAP3 AND SWAP1 PUSH4 0xFACD743B SWAP1 PUSH1 0x24 ADD PUSH1 0x20 PUSH1 0x40 MLOAD DUP1 DUP4 SUB DUP2 DUP7 GAS STATICCALL ISZERO DUP1 ISZERO PUSH2 0x11C6 JUMPI RETURNDATASIZE PUSH1 0x0 DUP1 RETURNDATACOPY RETURNDATASIZE PUSH1 0x0 REVERT JUMPDEST POP POP POP POP PUSH1 0x40 MLOAD RETURNDATASIZE PUSH1 0x1F NOT PUSH1 0x1F DUP3 ADD AND DUP3 ADD DUP1 PUSH1 0x40 MSTORE POP DUP2 ADD SWAP1 PUSH2 0x11EA SWAP2 SWAP1 PUSH2 0x214E JUMP JUMPDEST SWAP3 SWAP2 POP POP JUMP JUMPDEST PUSH1 0x0 DUP1 JUMPDEST PUSH1 0x3 DUP5 PUSH1 0x40 MLOAD PUSH2 0x1204 SWAP2 SWAP1 PUSH2 0x22D6 JUMP JUMPDEST SWAP1 DUP2 MSTORE PUSH1 0x40 MLOAD SWAP1 DUP2 SWAP1 SUB PUSH1 0x20 ADD SWAP1 KECCAK256 SLOAD DUP2 LT ISZERO PUSH2 0x127F JUMPI DUP3 PUSH1 0x1 PUSH1 0x1 PUSH1 0xA0 SHL SUB AND PUSH1 0x3 DUP6 PUSH1 0x40 MLOAD PUSH2 0x1235 SWAP2 SWAP1 PUSH2 0x22D6 JUMP JUMPDEST SWAP1 DUP2 MSTORE PUSH1 0x20 ADD PUSH1 0x40 MLOAD DUP1 SWAP2 SUB SWAP1 KECCAK256 DUP3 DUP2 SLOAD DUP2 LT PUSH2 0x1254 JUMPI PUSH2 0x1254 PUSH2 0x2268 JUMP JUMPDEST PUSH1 0x0 SWAP2 DUP3 MSTORE PUSH1 0x20 SWAP1 SWAP2 KECCAK256 ADD SLOAD PUSH1 0x1 PUSH1 0x1 PUSH1 0xA0 SHL SUB AND SUB PUSH2 0x1277 JUMPI PUSH1 0x1 SWAP2 POP PUSH2 0x127F JUMP JUMPDEST PUSH1 0x1 ADD PUSH2 0x11F4 JUMP JUMPDEST POP DUP1 PUSH2 0x12D0 JUMPI PUSH1 0x3 DUP4 PUSH1 0x40 MLOAD PUSH2 0x1295 SWAP2 SWAP1 PUSH2 0x22D6 JUMP JUMPDEST SWAP1 DUP2 MSTORE PUSH1 0x40 MLOAD PUSH1 0x20 SWAP2 DUP2 SWAP1 SUB DUP3 ADD SWAP1 KECCAK256 DUP1 SLOAD PUSH1 0x1 DUP2 ADD DUP3 SSTORE PUSH1 0x0 SWAP2 DUP3 MSTORE SWAP2 SWAP1 KECCAK256 ADD DUP1 SLOAD PUSH1 0x1 PUSH1 0x1 PUSH1 0xA0 SHL SUB NOT AND PUSH1 0x1 PUSH1 0x1 PUSH1 0xA0 SHL SUB DUP5 AND OR SWAP1 SSTORE JUMPDEST POP POP POP JUMP JUMPDEST PUSH1 0x1 SLOAD PUSH1 0x40 DUP1 MLOAD PUSH4 0x3DC0FF7D PUSH1 0xE0 SHL DUP2 MSTORE SWAP1 MLOAD PUSH1 0x0 SWAP3 PUSH1 0x1 PUSH1 0x1 PUSH1 0xA0 SHL SUB AND SWAP2 PUSH4 0x3DC0FF7D SWAP2 PUSH1 0x4 DUP1 DUP4 ADD SWAP3 DUP7 SWAP3 SWAP2 SWAP1 DUP3 SWAP1 SUB ADD DUP2 DUP7 GAS STATICCALL ISZERO DUP1 ISZERO PUSH2 0x131E JUMPI RETURNDATASIZE PUSH1 0x0 DUP1 RETURNDATACOPY RETURNDATASIZE PUSH1 0x0 REVERT JUMPDEST POP POP POP POP PUSH1 0x40 MLOAD RETURNDATASIZE PUSH1 0x0 DUP3 RETURNDATACOPY PUSH1 0x1F RETURNDATASIZE SWAP1 DUP2 ADD PUSH1 0x1F NOT AND DUP3 ADD PUSH1 0x40 MSTORE PUSH2 0x1346 SWAP2 SWAP1 DUP2 ADD SWAP1 PUSH2 0x2369 JUMP JUMPDEST SWAP1 POP PUSH1 0x0 JUMPDEST DUP2 MLOAD DUP2 LT ISZERO PUSH2 0x1398 JUMPI PUSH1 0x0 DUP3 DUP3 DUP2 MLOAD DUP2 LT PUSH2 0x1368 JUMPI PUSH2 0x1368 PUSH2 0x2268 JUMP JUMPDEST PUSH1 0x20 MUL PUSH1 0x20 ADD ADD MLOAD SWAP1 POP PUSH1 0x0 PUSH2 0x137D DUP3 PUSH2 0x13A4 JUMP JUMPDEST SWAP1 POP DUP1 ISZERO PUSH2 0x138E JUMPI PUSH2 0x138E DUP2 PUSH2 0x1649 JUMP JUMPDEST POP POP PUSH1 0x1 ADD PUSH2 0x134B JUMP JUMPDEST POP PUSH2 0x13A1 PUSH2 0x1824 JUMP JUMPDEST POP JUMP JUMPDEST PUSH1 0x0 DUP1 PUSH1 0x3 DUP4 PUSH1 0x40 MLOAD PUSH2 0x13B7 SWAP2 SWAP1 PUSH2 0x22D6 JUMP JUMPDEST SWAP1 DUP2 MSTORE PUSH1 0x40 DUP1 MLOAD SWAP2 DUP3 SWAP1 SUB PUSH1 0x20 SWAP1 DUP2 ADD DUP4 KECCAK256 DUP1 SLOAD DUP1 DUP4 MUL DUP6 ADD DUP4 ADD SWAP1 SWAP4 MSTORE DUP3 DUP5 MSTORE SWAP2 SWAP1 DUP4 ADD DUP3 DUP3 DUP1 ISZERO PUSH2 0x1413 JUMPI PUSH1 0x20 MUL DUP3 ADD SWAP2 SWAP1 PUSH1 0x0 MSTORE PUSH1 0x20 PUSH1 0x0 KECCAK256 SWAP1 JUMPDEST DUP2 SLOAD PUSH1 0x1 PUSH1 0x1 PUSH1 0xA0 SHL SUB AND DUP2 MSTORE PUSH1 0x1 SWAP1 SWAP2 ADD SWAP1 PUSH1 0x20 ADD DUP1 DUP4 GT PUSH2 0x13F5 JUMPI JUMPDEST POP POP POP POP POP SWAP1 POP PUSH1 0x0 PUSH1 0x64 DUP3 MLOAD PUSH1 0x3C PUSH2 0x142C SWAP2 SWAP1 PUSH2 0x2455 JUMP JUMPDEST PUSH2 0x1436 SWAP2 SWAP1 PUSH2 0x246C JUMP JUMPDEST DUP3 MLOAD SWAP1 SWAP2 POP PUSH1 0x0 SWAP1 DUP2 SWAP1 DUP2 SWAP1 PUSH1 0x1 PUSH1 0x1 PUSH1 0x40 SHL SUB DUP2 GT ISZERO PUSH2 0x1459 JUMPI PUSH2 0x1459 PUSH2 0x1C4C JUMP JUMPDEST PUSH1 0x40 MLOAD SWAP1 DUP1 DUP3 MSTORE DUP1 PUSH1 0x20 MUL PUSH1 0x20 ADD DUP3 ADD PUSH1 0x40 MSTORE DUP1 ISZERO PUSH2 0x149E JUMPI DUP2 PUSH1 0x20 ADD JUMPDEST PUSH1 0x40 DUP1 MLOAD DUP1 DUP3 ADD SWAP1 SWAP2 MSTORE PUSH1 0x0 DUP1 DUP3 MSTORE PUSH1 0x20 DUP3 ADD MSTORE DUP2 MSTORE PUSH1 0x20 ADD SWAP1 PUSH1 0x1 SWAP1 SUB SWAP1 DUP2 PUSH2 0x1477 JUMPI SWAP1 POP JUMPDEST POP SWAP1 POP PUSH1 0x0 JUMPDEST DUP6 MLOAD DUP2 LT ISZERO PUSH2 0x1629 JUMPI PUSH1 0x0 PUSH1 0x4 DUP10 PUSH1 0x40 MLOAD PUSH2 0x14BF SWAP2 SWAP1 PUSH2 0x22D6 JUMP JUMPDEST SWAP1 DUP2 MSTORE PUSH1 0x20 ADD PUSH1 0x40 MLOAD DUP1 SWAP2 SUB SWAP1 KECCAK256 PUSH1 0x0 DUP9 DUP5 DUP2 MLOAD DUP2 LT PUSH2 0x14E1 JUMPI PUSH2 0x14E1 PUSH2 0x2268 JUMP JUMPDEST PUSH1 0x20 MUL PUSH1 0x20 ADD ADD MLOAD PUSH1 0x1 PUSH1 0x1 PUSH1 0xA0 SHL SUB AND PUSH1 0x1 PUSH1 0x1 PUSH1 0xA0 SHL SUB AND DUP2 MSTORE PUSH1 0x20 ADD SWAP1 DUP2 MSTORE PUSH1 0x20 ADD PUSH1 0x0 KECCAK256 PUSH1 0x0 ADD SLOAD SWAP1 POP PUSH1 0x0 DUP1 JUMPDEST DUP5 MLOAD DUP2 LT ISZERO PUSH2 0x157F JUMPI DUP3 DUP6 DUP3 DUP2 MLOAD DUP2 LT PUSH2 0x152F JUMPI PUSH2 0x152F PUSH2 0x2268 JUMP JUMPDEST PUSH1 0x20 MUL PUSH1 0x20 ADD ADD MLOAD PUSH1 0x0 ADD MLOAD SUB PUSH2 0x1577 JUMPI DUP5 DUP2 DUP2 MLOAD DUP2 LT PUSH2 0x1552 JUMPI PUSH2 0x1552 PUSH2 0x2268 JUMP JUMPDEST PUSH1 0x20 MUL PUSH1 0x20 ADD ADD MLOAD PUSH1 0x20 ADD DUP1 MLOAD DUP1 SWAP2 SWAP1 PUSH2 0x156B SWAP1 PUSH2 0x2480 JUMP JUMPDEST SWAP1 MSTORE POP PUSH1 0x1 SWAP2 POP PUSH2 0x157F JUMP JUMPDEST PUSH1 0x1 ADD PUSH2 0x1513 JUMP JUMPDEST POP DUP1 PUSH2 0x15B9 JUMPI PUSH1 0x40 MLOAD DUP1 PUSH1 0x40 ADD PUSH1 0x40 MSTORE DUP1 DUP4 DUP2 MSTORE PUSH1 0x20 ADD PUSH1 0x1 DUP2 MSTORE POP DUP5 DUP5 DUP2 MLOAD DUP2 LT PUSH2 0x15AD JUMPI PUSH2 0x15AD PUSH2 0x2268 JUMP JUMPDEST PUSH1 0x20 MUL PUSH1 0x20 ADD ADD DUP2 SWAP1 MSTORE POP JUMPDEST DUP5 DUP5 DUP5 DUP2 MLOAD DUP2 LT PUSH2 0x15CC JUMPI PUSH2 0x15CC PUSH2 0x2268 JUMP JUMPDEST PUSH1 0x20 MUL PUSH1 0x20 ADD ADD MLOAD PUSH1 0x20 ADD MLOAD GT ISZERO PUSH2 0x161F JUMPI DUP4 DUP4 DUP2 MLOAD DUP2 LT PUSH2 0x15F0 JUMPI PUSH2 0x15F0 PUSH2 0x2268 JUMP JUMPDEST PUSH1 0x20 MUL PUSH1 0x20 ADD ADD MLOAD PUSH1 0x20 ADD MLOAD SWAP5 POP DUP4 DUP4 DUP2 MLOAD DUP2 LT PUSH2 0x1610 JUMPI PUSH2 0x1610 PUSH2 0x2268 JUMP JUMPDEST PUSH1 0x20 MUL PUSH1 0x20 ADD ADD MLOAD PUSH1 0x0 ADD MLOAD SWAP6 POP JUMPDEST POP POP PUSH1 0x1 ADD PUSH2 0x14A4 JUMP JUMPDEST POP DUP4 DUP3 LT PUSH2 0x163C JUMPI POP SWAP1 SWAP6 SWAP5 POP POP POP POP POP JUMP JUMPDEST POP PUSH1 0x0 SWAP7 SWAP6 POP POP POP POP POP POP JUMP JUMPDEST PUSH1 0x0 DUP2 DUP2 MSTORE PUSH1 0x5 PUSH1 0x20 SWAP1 DUP2 MSTORE PUSH1 0x40 DUP1 DUP4 KECCAK256 DUP1 SLOAD DUP3 MLOAD DUP2 DUP6 MUL DUP2 ADD DUP6 ADD SWAP1 SWAP4 MSTORE DUP1 DUP4 MSTORE SWAP2 SWAP3 SWAP1 SWAP2 SWAP1 DUP5 SWAP1 DUP5 ADD JUMPDEST DUP3 DUP3 LT ISZERO PUSH2 0x1721 JUMPI DUP4 DUP3 SWAP1 PUSH1 0x0 MSTORE PUSH1 0x20 PUSH1 0x0 KECCAK256 ADD DUP1 SLOAD PUSH2 0x1694 SWAP1 PUSH2 0x232F JUMP JUMPDEST DUP1 PUSH1 0x1F ADD PUSH1 0x20 DUP1 SWAP2 DIV MUL PUSH1 0x20 ADD PUSH1 0x40 MLOAD SWAP1 DUP2 ADD PUSH1 0x40 MSTORE DUP1 SWAP3 SWAP2 SWAP1 DUP2 DUP2 MSTORE PUSH1 0x20 ADD DUP3 DUP1 SLOAD PUSH2 0x16C0 SWAP1 PUSH2 0x232F JUMP JUMPDEST DUP1 ISZERO PUSH2 0x170D JUMPI DUP1 PUSH1 0x1F LT PUSH2 0x16E2 JUMPI PUSH2 0x100 DUP1 DUP4 SLOAD DIV MUL DUP4 MSTORE SWAP2 PUSH1 0x20 ADD SWAP2 PUSH2 0x170D JUMP JUMPDEST DUP3 ADD SWAP2 SWAP1 PUSH1 0x0 MSTORE PUSH1 0x20 PUSH1 0x0 KECCAK256 SWAP1 JUMPDEST DUP2 SLOAD DUP2 MSTORE SWAP1 PUSH1 0x1 ADD SWAP1 PUSH1 0x20 ADD DUP1 DUP4 GT PUSH2 0x16F0 JUMPI DUP3 SWAP1 SUB PUSH1 0x1F AND DUP3 ADD SWAP2 JUMPDEST POP POP POP POP POP DUP2 MSTORE PUSH1 0x20 ADD SWAP1 PUSH1 0x1 ADD SWAP1 PUSH2 0x1675 JUMP JUMPDEST POP POP POP POP SWAP1 POP PUSH1 0x0 PUSH2 0x1732 DUP3 PUSH2 0x19C3 JUMP JUMPDEST SWAP1 POP PUSH1 0x0 PUSH2 0x173E PUSH2 0x1A3C JUMP JUMPDEST SWAP1 POP PUSH1 0x0 JUMPDEST DUP3 MLOAD DUP2 LT ISZERO PUSH2 0x181D JUMPI PUSH1 0x0 PUSH1 0x1 PUSH1 0x1 PUSH1 0xA0 SHL SUB AND DUP4 DUP3 DUP2 MLOAD DUP2 LT PUSH2 0x1769 JUMPI PUSH2 0x1769 PUSH2 0x2268 JUMP JUMPDEST PUSH1 0x20 MUL PUSH1 0x20 ADD ADD MLOAD PUSH1 0x1 PUSH1 0x1 PUSH1 0xA0 SHL SUB AND EQ PUSH2 0x1815 JUMPI PUSH1 0x2 SLOAD DUP4 MLOAD PUSH1 0x1 PUSH1 0x1 PUSH1 0xA0 SHL SUB SWAP1 SWAP2 AND SWAP1 PUSH4 0xF0DDA65C SWAP1 DUP6 SWAP1 DUP5 SWAP1 DUP2 LT PUSH2 0x17A8 JUMPI PUSH2 0x17A8 PUSH2 0x2268 JUMP JUMPDEST PUSH1 0x20 MUL PUSH1 0x20 ADD ADD MLOAD DUP5 PUSH1 0x40 MLOAD DUP4 PUSH4 0xFFFFFFFF AND PUSH1 0xE0 SHL DUP2 MSTORE PUSH1 0x4 ADD PUSH2 0x17E2 SWAP3 SWAP2 SWAP1 PUSH1 0x1 PUSH1 0x1 PUSH1 0xA0 SHL SUB SWAP3 SWAP1 SWAP3 AND DUP3 MSTORE PUSH1 0x20 DUP3 ADD MSTORE PUSH1 0x40 ADD SWAP1 JUMP JUMPDEST PUSH1 0x0 PUSH1 0x40 MLOAD DUP1 DUP4 SUB DUP2 PUSH1 0x0 DUP8 DUP1 EXTCODESIZE ISZERO DUP1 ISZERO PUSH2 0x17FC JUMPI PUSH1 0x0 DUP1 REVERT JUMPDEST POP GAS CALL ISZERO DUP1 ISZERO PUSH2 0x1810 JUMPI RETURNDATASIZE PUSH1 0x0 DUP1 RETURNDATACOPY RETURNDATASIZE PUSH1 0x0 REVERT JUMPDEST POP POP POP POP JUMPDEST PUSH1 0x1 ADD PUSH2 0x1743 JUMP JUMPDEST POP POP POP POP POP JUMP JUMPDEST PUSH1 0x1 SLOAD PUSH1 0x40 DUP1 MLOAD PUSH4 0x3DC0FF7D PUSH1 0xE0 SHL DUP2 MSTORE SWAP1 MLOAD PUSH1 0x0 SWAP3 PUSH1 0x1 PUSH1 0x1 PUSH1 0xA0 SHL SUB AND SWAP2 PUSH4 0x3DC0FF7D SWAP2 PUSH1 0x4 DUP1 DUP4 ADD SWAP3 DUP7 SWAP3 SWAP2 SWAP1 DUP3 SWAP1 SUB ADD DUP2 DUP7 GAS STATICCALL ISZERO DUP1 ISZERO PUSH2 0x186D JUMPI RETURNDATASIZE PUSH1 0x0 DUP1 RETURNDATACOPY RETURNDATASIZE PUSH1 0x0 REVERT JUMPDEST POP POP POP POP PUSH1 0x40 MLOAD RETURNDATASIZE PUSH1 0x0 DUP3 RETURNDATACOPY PUSH1 0x1F RETURNDATASIZE SWAP1 DUP2 ADD PUSH1 0x1F NOT AND DUP3 ADD PUSH1 0x40 MSTORE PUSH2 0x1895 SWAP2 SWAP1 DUP2 ADD SWAP1 PUSH2 0x2369 JUMP JUMPDEST SWAP1 POP PUSH1 0x0 JUMPDEST DUP2 MLOAD DUP2 LT ISZERO PUSH2 0x19BF JUMPI PUSH1 0x0 DUP3 DUP3 DUP2 MLOAD DUP2 LT PUSH2 0x18B7 JUMPI PUSH2 0x18B7 PUSH2 0x2268 JUMP JUMPDEST PUSH1 0x20 MUL PUSH1 0x20 ADD ADD MLOAD SWAP1 POP PUSH1 0x0 PUSH1 0x3 DUP3 PUSH1 0x40 MLOAD PUSH2 0x18D3 SWAP2 SWAP1 PUSH2 0x22D6 JUMP JUMPDEST SWAP1 DUP2 MSTORE PUSH1 0x40 DUP1 MLOAD SWAP2 DUP3 SWAP1 SUB PUSH1 0x20 SWAP1 DUP2 ADD DUP4 KECCAK256 DUP1 SLOAD DUP1 DUP4 MUL DUP6 ADD DUP4 ADD SWAP1 SWAP4 MSTORE DUP3 DUP5 MSTORE SWAP2 SWAP1 DUP4 ADD DUP3 DUP3 DUP1 ISZERO PUSH2 0x192F JUMPI PUSH1 0x20 MUL DUP3 ADD SWAP2 SWAP1 PUSH1 0x0 MSTORE PUSH1 0x20 PUSH1 0x0 KECCAK256 SWAP1 JUMPDEST DUP2 SLOAD PUSH1 0x1 PUSH1 0x1 PUSH1 0xA0 SHL SUB AND DUP2 MSTORE PUSH1 0x1 SWAP1 SWAP2 ADD SWAP1 PUSH1 0x20 ADD DUP1 DUP4 GT PUSH2 0x1911 JUMPI JUMPDEST POP POP POP POP POP SWAP1 POP PUSH1 0x0 JUMPDEST DUP2 MLOAD DUP2 LT ISZERO PUSH2 0x19B4 JUMPI PUSH1 0x0 PUSH1 0x4 DUP5 PUSH1 0x40 MLOAD PUSH2 0x1954 SWAP2 SWAP1 PUSH2 0x22D6 JUMP JUMPDEST SWAP1 DUP2 MSTORE PUSH1 0x20 ADD PUSH1 0x40 MLOAD DUP1 SWAP2 SUB SWAP1 KECCAK256 PUSH1 0x0 DUP5 DUP5 DUP2 MLOAD DUP2 LT PUSH2 0x1976 JUMPI PUSH2 0x1976 PUSH2 0x2268 JUMP JUMPDEST PUSH1 0x20 SWAP1 DUP2 MUL SWAP2 SWAP1 SWAP2 ADD DUP2 ADD MLOAD PUSH1 0x1 PUSH1 0x1 PUSH1 0xA0 SHL SUB AND DUP3 MSTORE DUP2 ADD SWAP2 SWAP1 SWAP2 MSTORE PUSH1 0x40 ADD PUSH1 0x0 KECCAK256 PUSH1 0x1 SWAP1 DUP2 ADD DUP1 SLOAD PUSH1 0xFF NOT AND SWAP3 ISZERO ISZERO SWAP3 SWAP1 SWAP3 OR SWAP1 SWAP2 SSTORE ADD PUSH2 0x1939 JUMP JUMPDEST POP POP POP PUSH1 0x1 ADD PUSH2 0x189A JUMP JUMPDEST POP POP JUMP JUMPDEST PUSH1 0x1 SLOAD PUSH1 0xA SLOAD PUSH1 0x40 MLOAD PUSH4 0x85D8F13D PUSH1 0xE0 SHL DUP2 MSTORE PUSH1 0x60 SWAP3 PUSH1 0x1 PUSH1 0x1 PUSH1 0xA0 SHL SUB AND SWAP2 PUSH4 0x85D8F13D SWAP2 PUSH2 0x19F7 SWAP2 DUP7 SWAP2 PUSH1 0x4 ADD PUSH2 0x2499 JUMP JUMPDEST PUSH1 0x0 PUSH1 0x40 MLOAD DUP1 DUP4 SUB DUP2 DUP7 GAS STATICCALL ISZERO DUP1 ISZERO PUSH2 0x1A14 JUMPI RETURNDATASIZE PUSH1 0x0 DUP1 RETURNDATACOPY RETURNDATASIZE PUSH1 0x0 REVERT JUMPDEST POP POP POP POP PUSH1 0x40 MLOAD RETURNDATASIZE PUSH1 0x0 DUP3 RETURNDATACOPY PUSH1 0x1F RETURNDATASIZE SWAP1 DUP2 ADD PUSH1 0x1F NOT AND DUP3 ADD PUSH1 0x40 MSTORE PUSH2 0x11EA SWAP2 SWAP1 DUP2 ADD SWAP1 PUSH2 0x2505 JUMP JUMPDEST PUSH1 0x0 DUP1 PUSH1 0xA SLOAD TIMESTAMP PUSH2 0x1A4D SWAP2 SWAP1 PUSH2 0x22F2 JUMP JUMPDEST SWAP1 POP PUSH2 0x258 DUP2 GT ISZERO PUSH2 0x1A5E JUMPI POP PUSH2 0x258 JUMPDEST PUSH2 0x1A70 PUSH8 0xDE0B6B3A7640000 DUP3 PUSH2 0x2455 JUMP JUMPDEST SWAP2 POP POP SWAP1 JUMP JUMPDEST DUP3 DUP1 SLOAD DUP3 DUP3 SSTORE SWAP1 PUSH1 0x0 MSTORE PUSH1 0x20 PUSH1 0x0 KECCAK256 SWAP1 DUP2 ADD SWAP3 DUP3 ISZERO PUSH2 0x1ABC JUMPI SWAP2 PUSH1 0x20 MUL DUP3 ADD JUMPDEST DUP3 DUP2 GT ISZERO PUSH2 0x1ABC JUMPI DUP3 MLOAD DUP3 SWAP1 PUSH2 0x1AAC SWAP1 DUP3 PUSH2 0x25EE JUMP JUMPDEST POP SWAP2 PUSH1 0x20 ADD SWAP2 SWAP1 PUSH1 0x1 ADD SWAP1 PUSH2 0x1A96 JUMP JUMPDEST POP PUSH2 0x1AC8 SWAP3 SWAP2 POP PUSH2 0x1ACC JUMP JUMPDEST POP SWAP1 JUMP JUMPDEST DUP1 DUP3 GT ISZERO PUSH2 0x1AC8 JUMPI PUSH1 0x0 PUSH2 0x1AE0 DUP3 DUP3 PUSH2 0x1AE9 JUMP JUMPDEST POP PUSH1 0x1 ADD PUSH2 0x1ACC JUMP JUMPDEST POP DUP1 SLOAD PUSH2 0x1AF5 SWAP1 PUSH2 0x232F JUMP JUMPDEST PUSH1 0x0 DUP3 SSTORE DUP1 PUSH1 0x1F LT PUSH2 0x1B05 JUMPI POP POP JUMP JUMPDEST PUSH1 0x1F ADD PUSH1 0x20 SWAP1 DIV SWAP1 PUSH1 0x0 MSTORE PUSH1 0x20 PUSH1 0x0 KECCAK256 SWAP1 DUP2 ADD SWAP1 PUSH2 0x13A1 SWAP2 SWAP1 JUMPDEST DUP1 DUP3 GT ISZERO PUSH2 0x1AC8 JUMPI PUSH1 0x0 DUP2 SSTORE PUSH1 0x1 ADD PUSH2 0x1B1F JUMP JUMPDEST DUP1 PUSH2 0x4000 DUP2 ADD DUP4 LT ISZERO PUSH2 0x11EA JUMPI PUSH1 0x0 DUP1 REVERT JUMPDEST DUP1 PUSH2 0x2000 DUP2 ADD DUP4 LT ISZERO PUSH2 0x11EA JUMPI PUSH1 0x0 DUP1 REVERT JUMPDEST PUSH1 0x1 PUSH1 0x1 PUSH1 0xA0 SHL SUB DUP2 AND DUP2 EQ PUSH2 0x13A1 JUMPI PUSH1 0x0 DUP1 REVERT JUMPDEST DUP1 CALLDATALOAD PUSH2 0x1B77 DUP2 PUSH2 0x1B57 JUMP JUMPDEST SWAP2 SWAP1 POP JUMP JUMPDEST PUSH1 0x0 DUP1 PUSH1 0x0 DUP1 PUSH2 0x4060 DUP6 DUP8 SUB SLT ISZERO PUSH2 0x1B93 JUMPI PUSH1 0x0 DUP1 REVERT JUMPDEST PUSH2 0x1B9D DUP7 DUP7 PUSH2 0x1B33 JUMP JUMPDEST SWAP4 POP PUSH2 0x4000 DUP6 ADD CALLDATALOAD PUSH1 0x1 PUSH1 0x1 PUSH1 0x40 SHL SUB DUP2 GT ISZERO PUSH2 0x1BB9 JUMPI PUSH1 0x0 DUP1 REVERT JUMPDEST PUSH2 0x1BC5 DUP8 DUP3 DUP9 ADD PUSH2 0x1B45 JUMP JUMPDEST SWAP4 POP POP PUSH2 0x4020 DUP6 ADD CALLDATALOAD SWAP2 POP PUSH2 0x4040 DUP6 ADD CALLDATALOAD PUSH2 0x1BDF DUP2 PUSH2 0x1B57 JUMP JUMPDEST SWAP4 SWAP7 SWAP3 SWAP6 POP SWAP1 SWAP4 POP POP JUMP JUMPDEST PUSH1 0x0 DUP1 PUSH1 0x0 DUP1 PUSH2 0x4060 DUP6 DUP8 SUB SLT ISZERO PUSH2 0x1C01 JUMPI PUSH1 0x0 DUP1 REVERT JUMPDEST DUP5 CALLDATALOAD SWAP4 POP PUSH2 0x1C12 DUP7 PUSH1 0x20 DUP8 ADD PUSH2 0x1B33 JUMP JUMPDEST SWAP3 POP PUSH2 0x4020 DUP6 ADD CALLDATALOAD PUSH1 0x1 PUSH1 0x1 PUSH1 0x40 SHL SUB DUP2 GT ISZERO PUSH2 0x1C2E JUMPI PUSH1 0x0 DUP1 REVERT JUMPDEST PUSH2 0x1C3A DUP8 DUP3 DUP9 ADD PUSH2 0x1B45 JUMP JUMPDEST SWAP5 SWAP8 SWAP4 SWAP7 POP SWAP4 SWAP5 PUSH2 0x4040 ADD CALLDATALOAD SWAP4 POP POP POP JUMP JUMPDEST PUSH4 0x4E487B71 PUSH1 0xE0 SHL PUSH1 0x0 MSTORE PUSH1 0x41 PUSH1 0x4 MSTORE PUSH1 0x24 PUSH1 0x0 REVERT JUMPDEST PUSH1 0x40 DUP1 MLOAD SWAP1 DUP2 ADD PUSH1 0x1 PUSH1 0x1 PUSH1 0x40 SHL SUB DUP2 GT DUP3 DUP3 LT OR ISZERO PUSH2 0x1C84 JUMPI PUSH2 0x1C84 PUSH2 0x1C4C JUMP JUMPDEST PUSH1 0x40 MSTORE SWAP1 JUMP JUMPDEST PUSH1 0x40 MLOAD PUSH1 0x1F DUP3 ADD PUSH1 0x1F NOT AND DUP2 ADD PUSH1 0x1 PUSH1 0x1 PUSH1 0x40 SHL SUB DUP2 GT DUP3 DUP3 LT OR ISZERO PUSH2 0x1CB2 JUMPI PUSH2 0x1CB2 PUSH2 0x1C4C JUMP JUMPDEST PUSH1 0x40 MSTORE SWAP2 SWAP1 POP JUMP JUMPDEST PUSH1 0x0 PUSH1 0x1 PUSH1 0x1 PUSH1 0x40 SHL SUB DUP3 GT ISZERO PUSH2 0x1CD3 JUMPI PUSH2 0x1CD3 PUSH2 0x1C4C JUMP JUMPDEST POP PUSH1 0x1F ADD PUSH1 0x1F NOT AND PUSH1 0x20 ADD SWAP1 JUMP JUMPDEST PUSH1 0x0 DUP3 PUSH1 0x1F DUP4 ADD SLT PUSH2 0x1CF2 JUMPI PUSH1 0x0 DUP1 REVERT JUMPDEST DUP2 CALLDATALOAD PUSH2 0x1D05 PUSH2 0x1D00 DUP3 PUSH2 0x1CBA JUMP JUMPDEST PUSH2 0x1C8A JUMP JUMPDEST DUP2 DUP2 MSTORE DUP5 PUSH1 0x20 DUP4 DUP7 ADD ADD GT ISZERO PUSH2 0x1D1A JUMPI PUSH1 0x0 DUP1 REVERT JUMPDEST DUP2 PUSH1 0x20 DUP6 ADD PUSH1 0x20 DUP4 ADD CALLDATACOPY PUSH1 0x0 SWAP2 DUP2 ADD PUSH1 0x20 ADD SWAP2 SWAP1 SWAP2 MSTORE SWAP4 SWAP3 POP POP POP JUMP JUMPDEST PUSH1 0x0 DUP1 PUSH1 0x40 DUP4 DUP6 SUB SLT ISZERO PUSH2 0x1D4A JUMPI PUSH1 0x0 DUP1 REVERT JUMPDEST DUP3 CALLDATALOAD PUSH1 0x1 PUSH1 0x1 PUSH1 0x40 SHL SUB DUP2 GT ISZERO PUSH2 0x1D60 JUMPI PUSH1 0x0 DUP1 REVERT JUMPDEST PUSH2 0x1D6C DUP6 DUP3 DUP7 ADD PUSH2 0x1CE1 JUMP JUMPDEST SWAP3 POP POP PUSH1 0x20 DUP4 ADD CALLDATALOAD PUSH2 0x1D7D DUP2 PUSH2 0x1B57 JUMP JUMPDEST DUP1 SWAP2 POP POP SWAP3 POP SWAP3 SWAP1 POP JUMP JUMPDEST PUSH1 0x0 PUSH1 0x1 PUSH1 0x1 PUSH1 0x40 SHL SUB DUP3 GT ISZERO PUSH2 0x1DA1 JUMPI PUSH2 0x1DA1 PUSH2 0x1C4C JUMP JUMPDEST POP PUSH1 0x5 SHL PUSH1 0x20 ADD SWAP1 JUMP JUMPDEST DUP1 ISZERO ISZERO DUP2 EQ PUSH2 0x13A1 JUMPI PUSH1 0x0 DUP1 REVERT JUMPDEST DUP1 CALLDATALOAD PUSH2 0x1B77 DUP2 PUSH2 0x1DAB JUMP JUMPDEST PUSH1 0x0 DUP1 PUSH1 0x0 PUSH1 0x60 DUP5 DUP7 SUB SLT ISZERO PUSH2 0x1DD9 JUMPI PUSH1 0x0 DUP1 REVERT JUMPDEST PUSH1 0x1 PUSH1 0x1 PUSH1 0x40 SHL SUB DUP1 DUP6 CALLDATALOAD GT ISZERO PUSH2 0x1DEF JUMPI PUSH1 0x0 DUP1 REVERT JUMPDEST DUP5 CALLDATALOAD DUP6 ADD DUP7 PUSH1 0x1F DUP3 ADD SLT PUSH2 0x1E02 JUMPI PUSH1 0x0 DUP1 REVERT JUMPDEST PUSH2 0x1E0F PUSH2 0x1D00 DUP3 CALLDATALOAD PUSH2 0x1D88 JUMP JUMPDEST DUP2 CALLDATALOAD DUP1 DUP3 MSTORE PUSH1 0x20 DUP1 DUP4 ADD SWAP3 SWAP2 PUSH1 0x5 SHL DUP5 ADD ADD DUP10 LT ISZERO PUSH2 0x1E2D JUMPI PUSH1 0x0 DUP1 REVERT JUMPDEST PUSH1 0x20 DUP4 ADD JUMPDEST PUSH1 0x20 DUP5 CALLDATALOAD PUSH1 0x5 SHL DUP6 ADD ADD DUP2 LT ISZERO PUSH2 0x1F55 JUMPI DUP5 DUP2 CALLDATALOAD GT ISZERO PUSH2 0x1E51 JUMPI PUSH1 0x0 DUP1 REVERT JUMPDEST DUP1 CALLDATALOAD DUP5 ADD PUSH1 0x40 DUP2 DUP13 SUB PUSH1 0x1F NOT ADD SLT ISZERO PUSH2 0x1E69 JUMPI PUSH1 0x0 DUP1 REVERT JUMPDEST PUSH2 0x1E71 PUSH2 0x1C62 JUMP JUMPDEST DUP7 PUSH1 0x20 DUP4 ADD CALLDATALOAD GT ISZERO PUSH2 0x1E82 JUMPI PUSH1 0x0 DUP1 REVERT JUMPDEST PUSH2 0x1E94 DUP13 PUSH1 0x20 DUP1 DUP6 ADD CALLDATALOAD DUP6 ADD ADD PUSH2 0x1CE1 JUMP JUMPDEST DUP2 MSTORE DUP7 PUSH1 0x40 DUP4 ADD CALLDATALOAD GT ISZERO PUSH2 0x1EA7 JUMPI PUSH1 0x0 DUP1 REVERT JUMPDEST PUSH1 0x40 DUP3 ADD CALLDATALOAD DUP3 ADD SWAP2 POP DUP12 PUSH1 0x3F DUP4 ADD SLT PUSH2 0x1EBF JUMPI PUSH1 0x0 DUP1 REVERT JUMPDEST PUSH2 0x1ECF PUSH2 0x1D00 PUSH1 0x20 DUP5 ADD CALLDATALOAD PUSH2 0x1D88 JUMP JUMPDEST PUSH1 0x20 DUP4 DUP2 ADD CALLDATALOAD DUP1 DUP4 MSTORE SWAP1 DUP3 ADD SWAP2 SWAP1 PUSH1 0x5 SHL DUP5 ADD PUSH1 0x40 ADD DUP15 LT ISZERO PUSH2 0x1EF1 JUMPI PUSH1 0x0 DUP1 REVERT JUMPDEST PUSH1 0x40 DUP5 ADD JUMPDEST PUSH1 0x40 PUSH1 0x20 DUP7 ADD CALLDATALOAD PUSH1 0x5 SHL DUP7 ADD ADD DUP2 LT ISZERO PUSH2 0x1F36 JUMPI DUP10 DUP2 CALLDATALOAD GT ISZERO PUSH2 0x1F18 JUMPI PUSH1 0x0 DUP1 REVERT JUMPDEST PUSH2 0x1F28 DUP16 PUSH1 0x40 DUP4 CALLDATALOAD DUP9 ADD ADD PUSH2 0x1CE1 JUMP JUMPDEST DUP4 MSTORE PUSH1 0x20 SWAP3 DUP4 ADD SWAP3 ADD PUSH2 0x1EF6 JUMP JUMPDEST POP DUP1 PUSH1 0x20 DUP5 ADD MSTORE POP POP DUP1 DUP6 MSTORE POP POP PUSH1 0x20 DUP4 ADD SWAP3 POP PUSH1 0x20 DUP2 ADD SWAP1 POP PUSH2 0x1E32 JUMP JUMPDEST POP SWAP6 POP PUSH2 0x1F68 SWAP3 POP POP POP PUSH1 0x20 DUP6 ADD PUSH2 0x1B6C JUMP JUMPDEST SWAP2 POP PUSH2 0x1F76 PUSH1 0x40 DUP6 ADD PUSH2 0x1DB9 JUMP JUMPDEST SWAP1 POP SWAP3 POP SWAP3 POP SWAP3 JUMP JUMPDEST PUSH1 0x0 DUP1 PUSH1 0x40 DUP4 DUP6 SUB SLT ISZERO PUSH2 0x1F92 JUMPI PUSH1 0x0 DUP1 REVERT JUMPDEST POP POP DUP1 CALLDATALOAD SWAP3 PUSH1 0x20 SWAP1 SWAP2 ADD CALLDATALOAD SWAP2 POP JUMP JUMPDEST PUSH1 0x0 JUMPDEST DUP4 DUP2 LT ISZERO PUSH2 0x1FBC JUMPI DUP2 DUP2 ADD MLOAD DUP4 DUP3 ADD MSTORE PUSH1 0x20 ADD PUSH2 0x1FA4 JUMP JUMPDEST POP POP PUSH1 0x0 SWAP2 ADD MSTORE JUMP JUMPDEST PUSH1 0x0 DUP2 MLOAD DUP1 DUP5 MSTORE PUSH2 0x1FDD DUP2 PUSH1 0x20 DUP7 ADD PUSH1 0x20 DUP7 ADD PUSH2 0x1FA1 JUMP JUMPDEST PUSH1 0x1F ADD PUSH1 0x1F NOT AND SWAP3 SWAP1 SWAP3 ADD PUSH1 0x20 ADD SWAP3 SWAP2 POP POP JUMP JUMPDEST PUSH1 0x20 DUP2 MSTORE PUSH1 0x0 PUSH2 0x2004 PUSH1 0x20 DUP4 ADD DUP5 PUSH2 0x1FC5 JUMP JUMPDEST SWAP4 SWAP3 POP POP POP JUMP JUMPDEST PUSH1 0x0 PUSH1 0x20 DUP3 DUP5 SUB SLT ISZERO PUSH2 0x201D JUMPI PUSH1 0x0 DUP1 REVERT JUMPDEST DUP2 CALLDATALOAD PUSH2 0x2004 DUP2 PUSH2 0x1B57 JUMP JUMPDEST PUSH1 0x60 SWAP2 SWAP1 SWAP2 SHL PUSH12 0xFFFFFFFFFFFFFFFFFFFFFFFF NOT AND DUP2 MSTORE PUSH1 0x14 ADD SWAP1 JUMP JUMPDEST DUP2 DUP4 MSTORE DUP2 DUP2 PUSH1 0x20 DUP6 ADD CALLDATACOPY POP PUSH1 0x0 DUP3 DUP3 ADD PUSH1 0x20 SWAP1 DUP2 ADD SWAP2 SWAP1 SWAP2 MSTORE PUSH1 0x1F SWAP1 SWAP2 ADD PUSH1 0x1F NOT AND SWAP1 SWAP2 ADD ADD SWAP1 JUMP JUMPDEST PUSH1 0x0 PUSH2 0x4060 DUP3 DUP2 ADD DUP4 DUP9 DUP5 JUMPDEST PUSH2 0x100 DUP2 LT ISZERO PUSH2 0x209B JUMPI PUSH1 0x40 DUP1 DUP4 DUP6 CALLDATACOPY SWAP3 DUP4 ADD SWAP3 SWAP2 SWAP1 SWAP2 ADD SWAP1 PUSH1 0x1 ADD PUSH2 0x207A JUMP JUMPDEST POP POP POP PUSH2 0x4000 DUP5 ADD SWAP2 SWAP1 SWAP2 MSTORE PUSH2 0x6060 DUP4 ADD DUP7 PUSH1 0x0 JUMPDEST PUSH2 0x100 DUP2 LT ISZERO PUSH2 0x2126 JUMPI DUP6 DUP4 SUB PUSH2 0x405F NOT ADD DUP5 MSTORE DUP2 CALLDATALOAD CALLDATASIZE DUP11 SWAP1 SUB PUSH1 0x1E NOT ADD DUP2 SLT PUSH2 0x20D9 JUMPI PUSH1 0x0 DUP1 REVERT JUMPDEST DUP10 ADD PUSH1 0x20 DUP2 DUP2 ADD SWAP2 CALLDATALOAD SWAP1 PUSH1 0x1 PUSH1 0x1 PUSH1 0x40 SHL SUB DUP3 GT ISZERO PUSH2 0x20F7 JUMPI PUSH1 0x0 DUP1 REVERT JUMPDEST DUP2 CALLDATASIZE SUB DUP4 SGT ISZERO PUSH2 0x2106 JUMPI PUSH1 0x0 DUP1 REVERT JUMPDEST PUSH2 0x2111 DUP7 DUP4 DUP6 PUSH2 0x2045 JUMP JUMPDEST SWAP7 DUP2 ADD SWAP7 SWAP6 POP SWAP4 SWAP1 SWAP4 ADD SWAP3 POP POP PUSH1 0x1 ADD PUSH2 0x20B0 JUMP JUMPDEST POP POP DUP6 PUSH2 0x4020 DUP6 ADD MSTORE DUP4 DUP2 SUB PUSH2 0x4040 DUP6 ADD MSTORE PUSH2 0x2142 DUP2 DUP7 PUSH2 0x1FC5 JUMP JUMPDEST SWAP9 SWAP8 POP POP POP POP POP POP POP POP JUMP JUMPDEST PUSH1 0x0 PUSH1 0x20 DUP3 DUP5 SUB SLT ISZERO PUSH2 0x2160 JUMPI PUSH1 0x0 DUP1 REVERT JUMPDEST DUP2 MLOAD PUSH2 0x2004 DUP2 PUSH2 0x1DAB JUMP JUMPDEST PUSH1 0x0 DUP2 DUP4 DUP3 JUMPDEST PUSH2 0x100 DUP2 LT ISZERO PUSH2 0x2192 JUMPI PUSH1 0x40 DUP1 DUP4 DUP6 CALLDATACOPY SWAP3 DUP4 ADD SWAP3 SWAP2 SWAP1 SWAP2 ADD SWAP1 PUSH1 0x1 ADD PUSH2 0x2171 JUMP JUMPDEST POP POP POP PUSH2 0x4000 DUP3 ADD SWAP1 POP SWAP3 SWAP2 POP POP JUMP JUMPDEST PUSH1 0x0 DUP1 PUSH1 0x0 PUSH1 0x60 DUP5 DUP7 SUB SLT ISZERO PUSH2 0x21B7 JUMPI PUSH1 0x0 DUP1 REVERT JUMPDEST DUP4 MLOAD PUSH1 0x3 DUP2 LT PUSH2 0x21C6 JUMPI PUSH1 0x0 DUP1 REVERT JUMPDEST PUSH1 0x20 DUP6 ADD MLOAD PUSH1 0x40 SWAP1 SWAP6 ADD MLOAD SWAP1 SWAP7 SWAP5 SWAP6 POP SWAP4 SWAP3 POP POP POP JUMP JUMPDEST PUSH1 0x0 DUP1 PUSH1 0x40 DUP4 DUP6 SUB SLT ISZERO PUSH2 0x21F0 JUMPI PUSH1 0x0 DUP1 REVERT JUMPDEST POP POP DUP1 MLOAD PUSH1 0x20 SWAP1 SWAP2 ADD MLOAD SWAP1 SWAP3 SWAP1 SWAP2 POP JUMP JUMPDEST PUSH1 0x20 DUP1 DUP3 MSTORE PUSH1 0x41 SWAP1 DUP3 ADD MSTORE PUSH32 0x53616D6520504B48207573656420666F7220626F74682073746570733B207573 PUSH1 0x40 DUP3 ADD MSTORE PUSH32 0x652061207365706172617465206B657920666F7220636F6E6669726D6174696F PUSH1 0x60 DUP3 ADD MSTORE PUSH1 0x37 PUSH1 0xF9 SHL PUSH1 0x80 DUP3 ADD MSTORE PUSH1 0xA0 ADD SWAP1 JUMP JUMPDEST PUSH4 0x4E487B71 PUSH1 0xE0 SHL PUSH1 0x0 MSTORE PUSH1 0x32 PUSH1 0x4 MSTORE PUSH1 0x24 PUSH1 0x0 REVERT JUMPDEST PUSH1 0x0 DUP4 MLOAD PUSH2 0x2290 DUP2 DUP5 PUSH1 0x20 DUP9 ADD PUSH2 0x1FA1 JUMP JUMPDEST DUP4 MLOAD SWAP1 DUP4 ADD SWAP1 PUSH2 0x22A4 DUP2 DUP4 PUSH1 0x20 DUP9 ADD PUSH2 0x1FA1 JUMP JUMPDEST ADD SWAP5 SWAP4 POP POP POP POP JUMP JUMPDEST PUSH4 0x4E487B71 PUSH1 0xE0 SHL PUSH1 0x0 MSTORE PUSH1 0x11 PUSH1 0x4 MSTORE PUSH1 0x24 PUSH1 0x0 REVERT JUMPDEST DUP1 DUP3 ADD DUP1 DUP3 GT ISZERO PUSH2 0x11EA JUMPI PUSH2 0x11EA PUSH2 0x22AD JUMP JUMPDEST PUSH1 0x0 DUP3 MLOAD PUSH2 0x22E8 DUP2 DUP5 PUSH1 0x20 DUP8 ADD PUSH2 0x1FA1 JUMP JUMPDEST SWAP2 SWAP1 SWAP2 ADD SWAP3 SWAP2 POP POP JUMP JUMPDEST DUP2 DUP2 SUB DUP2 DUP2 GT ISZERO PUSH2 0x11EA JUMPI PUSH2 0x11EA PUSH2 0x22AD JUMP JUMPDEST PUSH4 0x4E487B71 PUSH1 0xE0 SHL PUSH1 0x0 MSTORE PUSH1 0x12 PUSH1 0x4 MSTORE PUSH1 0x24 PUSH1 0x0 REVERT JUMPDEST PUSH1 0x0 DUP3 PUSH2 0x232A JUMPI PUSH2 0x232A PUSH2 0x2305 JUMP JUMPDEST POP MOD SWAP1 JUMP JUMPDEST PUSH1 0x1 DUP2 DUP2 SHR SWAP1 DUP3 AND DUP1 PUSH2 0x2343 JUMPI PUSH1 0x7F DUP3 AND SWAP2 POP JUMPDEST PUSH1 0x20 DUP3 LT DUP2 SUB PUSH2 0x2363 JUMPI PUSH4 0x4E487B71 PUSH1 0xE0 SHL PUSH1 0x0 MSTORE PUSH1 0x22 PUSH1 0x4 MSTORE PUSH1 0x24 PUSH1 0x0 REVERT JUMPDEST POP SWAP2 SWAP1 POP JUMP JUMPDEST PUSH1 0x0 PUSH1 0x20 DUP1 DUP4 DUP6 SUB SLT ISZERO PUSH2 0x237C JUMPI PUSH1 0x0 DUP1 REVERT JUMPDEST DUP3 MLOAD PUSH1 0x1 PUSH1 0x1 PUSH1 0x40 SHL SUB DUP1 DUP3 GT ISZERO PUSH2 0x2393 JUMPI PUSH1 0x0 DUP1 REVERT JUMPDEST DUP2 DUP6 ADD SWAP2 POP DUP6 PUSH1 0x1F DUP4 ADD SLT PUSH2 0x23A7 JUMPI PUSH1 0x0 DUP1 REVERT JUMPDEST DUP2 MLOAD PUSH2 0x23B5 PUSH2 0x1D00 DUP3 PUSH2 0x1D88 JUMP JUMPDEST DUP2 DUP2 MSTORE PUSH1 0x5 SWAP2 SWAP1 SWAP2 SHL DUP4 ADD DUP5 ADD SWAP1 DUP5 DUP2 ADD SWAP1 DUP9 DUP4 GT ISZERO PUSH2 0x23D4 JUMPI PUSH1 0x0 DUP1 REVERT JUMPDEST DUP6 DUP6 ADD JUMPDEST DUP4 DUP2 LT ISZERO PUSH2 0x2448 JUMPI DUP1 MLOAD DUP6 DUP2 GT ISZERO PUSH2 0x23F0 JUMPI PUSH1 0x0 DUP1 DUP2 REVERT JUMPDEST DUP7 ADD PUSH1 0x3F DUP2 ADD DUP12 SGT PUSH2 0x2402 JUMPI PUSH1 0x0 DUP1 DUP2 REVERT JUMPDEST DUP8 DUP2 ADD MLOAD PUSH1 0x40 PUSH2 0x2414 PUSH2 0x1D00 DUP4 PUSH2 0x1CBA JUMP JUMPDEST DUP3 DUP2 MSTORE DUP14 DUP3 DUP5 DUP7 ADD ADD GT ISZERO PUSH2 0x2429 JUMPI PUSH1 0x0 DUP1 DUP2 REVERT JUMPDEST PUSH2 0x2438 DUP4 DUP13 DUP4 ADD DUP5 DUP8 ADD PUSH2 0x1FA1 JUMP JUMPDEST DUP7 MSTORE POP POP POP SWAP2 DUP7 ADD SWAP2 DUP7 ADD PUSH2 0x23D8 JUMP JUMPDEST POP SWAP9 SWAP8 POP POP POP POP POP POP POP POP JUMP JUMPDEST DUP1 DUP3 MUL DUP2 ISZERO DUP3 DUP3 DIV DUP5 EQ OR PUSH2 0x11EA JUMPI PUSH2 0x11EA PUSH2 0x22AD JUMP JUMPDEST PUSH1 0x0 DUP3 PUSH2 0x247B JUMPI PUSH2 0x247B PUSH2 0x2305 JUMP JUMPDEST POP DIV SWAP1 JUMP JUMPDEST PUSH1 0x0 PUSH1 0x1 DUP3 ADD PUSH2 0x2492 JUMPI PUSH2 0x2492 PUSH2 0x22AD JUMP JUMPDEST POP PUSH1 0x1 ADD SWAP1 JUMP JUMPDEST PUSH1 0x0 PUSH1 0x40 DUP3 ADD PUSH1 0x40 DUP4 MSTORE DUP1 DUP6 MLOAD DUP1 DUP4 MSTORE PUSH1 0x60 DUP6 ADD SWAP2 POP PUSH1 0x60 DUP2 PUSH1 0x5 SHL DUP7 ADD ADD SWAP3 POP PUSH1 0x20 DUP1 DUP9 ADD PUSH1 0x0 JUMPDEST DUP4 DUP2 LT ISZERO PUSH2 0x24F0 JUMPI PUSH1 0x5F NOT DUP9 DUP8 SUB ADD DUP6 MSTORE PUSH2 0x24DE DUP7 DUP4 MLOAD PUSH2 0x1FC5 JUMP JUMPDEST SWAP6 POP SWAP4 DUP3 ADD SWAP4 SWAP1 DUP3 ADD SWAP1 PUSH1 0x1 ADD PUSH2 0x24C2 JUMP JUMPDEST POP POP POP POP POP PUSH1 0x20 SWAP3 SWAP1 SWAP3 ADD SWAP3 SWAP1 SWAP3 MSTORE SWAP3 SWAP2 POP POP JUMP JUMPDEST PUSH1 0x0 PUSH1 0x20 DUP1 DUP4 DUP6 SUB SLT ISZERO PUSH2 0x2518 JUMPI PUSH1 0x0 DUP1 REVERT JUMPDEST DUP3 MLOAD PUSH1 0x1 PUSH1 0x1 PUSH1 0x40 SHL SUB DUP2 GT ISZERO PUSH2 0x252E JUMPI PUSH1 0x0 DUP1 REVERT JUMPDEST DUP4 ADD PUSH1 0x1F DUP2 ADD DUP6 SGT PUSH2 0x253F JUMPI PUSH1 0x0 DUP1 REVERT JUMPDEST DUP1 MLOAD PUSH2 0x254D PUSH2 0x1D00 DUP3 PUSH2 0x1D88 JUMP JUMPDEST DUP2 DUP2 MSTORE PUSH1 0x5 SWAP2 SWAP1 SWAP2 SHL DUP3 ADD DUP4 ADD SWAP1 DUP4 DUP2 ADD SWAP1 DUP8 DUP4 GT ISZERO PUSH2 0x256C JUMPI PUSH1 0x0 DUP1 REVERT JUMPDEST SWAP3 DUP5 ADD SWAP3 JUMPDEST DUP3 DUP5 LT ISZERO PUSH2 0x2593 JUMPI DUP4 MLOAD PUSH2 0x2584 DUP2 PUSH2 0x1B57 JUMP JUMPDEST DUP3 MSTORE SWAP3 DUP5 ADD SWAP3 SWAP1 DUP5 ADD SWAP1 PUSH2 0x2571 JUMP JUMPDEST SWAP8 SWAP7 POP POP POP POP POP POP POP JUMP JUMPDEST PUSH1 0x1F DUP3 GT ISZERO PUSH2 0x12D0 JUMPI PUSH1 0x0 DUP2 PUSH1 0x0 MSTORE PUSH1 0x20 PUSH1 0x0 KECCAK256 PUSH1 0x1F DUP6 ADD PUSH1 0x5 SHR DUP2 ADD PUSH1 0x20 DUP7 LT ISZERO PUSH2 0x25C7 JUMPI POP DUP1 JUMPDEST PUSH1 0x1F DUP6 ADD PUSH1 0x5 SHR DUP3 ADD SWAP2 POP JUMPDEST DUP2 DUP2 LT ISZERO PUSH2 0x25E6 JUMPI DUP3 DUP2 SSTORE PUSH1 0x1 ADD PUSH2 0x25D3 JUMP JUMPDEST POP POP POP POP POP POP JUMP JUMPDEST DUP2 MLOAD PUSH1 0x1 PUSH1 0x1 PUSH1 0x40 SHL SUB DUP2 GT ISZERO PUSH2 0x2607 JUMPI PUSH2 0x2607 PUSH2 0x1C4C JUMP JUMPDEST PUSH2 0x261B DUP2 PUSH2 0x2615 DUP5 SLOAD PUSH2 0x232F JUMP JUMPDEST DUP5 PUSH2 0x259E JUMP JUMPDEST PUSH1 0x20 DUP1 PUSH1 0x1F DUP4 GT PUSH1 0x1 DUP2 EQ PUSH2 0x2650 JUMPI PUSH1 0x0 DUP5 ISZERO PUSH2 0x2638 JUMPI POP DUP6 DUP4 ADD MLOAD JUMPDEST PUSH1 0x0 NOT PUSH1 0x3 DUP7 SWAP1 SHL SHR NOT AND PUSH1 0x1 DUP6 SWAP1 SHL OR DUP6 SSTORE PUSH2 0x25E6 JUMP JUMPDEST PUSH1 0x0 DUP6 DUP2 MSTORE PUSH1 0x20 DUP2 KECCAK256 PUSH1 0x1F NOT DUP7 AND SWAP2 JUMPDEST DUP3 DUP2 LT ISZERO PUSH2 0x267F JUMPI DUP9 DUP7 ADD MLOAD DUP3 SSTORE SWAP5 DUP5 ADD SWAP5 PUSH1 0x1 SWAP1 SWAP2 ADD SWAP1 DUP5 ADD PUSH2 0x2660 JUMP JUMPDEST POP DUP6 DUP3 LT ISZERO PUSH2 0x269D JUMPI DUP8 DUP6 ADD MLOAD PUSH1 0x0 NOT PUSH1 0x3 DUP9 SWAP1 SHL PUSH1 0xF8 AND SHR NOT AND DUP2 SSTORE JUMPDEST POP POP POP POP POP PUSH1 0x1 SWAP1 DUP2 SHL ADD SWAP1 SSTORE POP JUMP INVALID LOG2 PUSH5 0x6970667358 0x22 SLT KECCAK256 0xAD TLOAD MCOPY 0xEB SUB SWAP9 0xEB SWAP1 DUP14 LOG3 0x2E DUP10 EQ 0xF7 0xDF SWAP11 PUSH26 0xDDB12C8437273B2E9A30FD358EECE764736F6C63430008180033 ","sha1":"40e869c1d1ba96697937e881610469b1ad5c154b","source":"// SPDX-License-Identifier: MIT\n\npragma solidity ^0.8.0;\ninterface ILamportBase {\n\n    enum KeyType { MASTER, ORACLE, DELETED }\n\n    function performLamportOracleCheck(\n        bytes32[2][256] calldata currentpub,\n        bytes[256] calldata sig,\n        bytes32 nextPKH,\n        bytes memory prepacked\n    ) external returns (bool);\n    function performLamportMasterCheck(\n        bytes32[2][256] calldata currentpub,\n        bytes[256] calldata sig,\n        bytes32 nextPKH,\n        bytes memory prepacked\n    ) external returns (bool);\n\n    function getKeyAndIndexByPKH(bytes32 pkh) external view returns (KeyType, bytes32, uint);\n\n}\n\ninterface IPlayerDatabase {\n\n    function getOracleKeyIndices(address _address) external view returns (uint256 oracleKeyIndex1, uint256 oracleKeyIndex2);\n    function getAllPlayerNames() external view returns (string[] memory);\n    function getServerIPList() external view returns (string[] memory);\n    function getValidRewardAddressesByNames(string[] memory playerNames, uint256 lastMintTime) external view returns (address[] memory);\n    function isValidator(address _address) external view returns (bool);\n\n}\ninterface IGP_Mint {\n    function mintTokens(address to, uint256 amount) external;\n    // Add other function signatures as needed\n}\ncontract GameValidator {\n\n    ILamportBase public lamportBase;\n\n    IPlayerDatabase playerDatabase;\n    IGP_Mint public mintContract;\n    event MintContractUpdated(address mintContractAddress);\n    event PlayerDatabaseAddressUpdated(address playerDatabaseAddress);\n\n    mapping(string => address[]) private validatorsPerServerIP;\n    mapping(string => mapping(address => ServerSubmission)) public serverSubmissions; \n    mapping(bytes32 => string[]) public hashToPlayerList; // playerListHash -> playerNames\n    mapping(address => address) private proposedMintContractAddresses;\n    mapping(address => address) private proposedPlayerDatabaseAddresses;\n    mapping(address => bytes32) private submittedPlayerListHashes;\n\n    bytes32 private lastUsedNextPKH;\n\n    uint256 public lastMintTime;\n    uint256 public constant MINT_INTERVAL = 5 minutes;\n    uint256 public constant MAX_PLAYERS_PER_SUBMISSION = 64;\n    uint256 public constant MAX_MINT_TIME = 10 minutes; // 10 minutes cap\n    uint256 public constant TOKENS_PER_SECOND = (1e18 * 60) / 60; // 1e18 represents 1 token, and we divide by 60 seconds\n    address _playerDatabaseAddress = 0xB03A6aFd440a2a9db8834F1A6093680f02f1114C;\n    address _mintContractAddress = 0xa1D070F108CBeF4A48FFC1A79258d5C24E05DB68;\n    constructor() {\n\n        lamportBase = ILamportBase(0xB3830AE69EE5962355e84f6bbAC274Ff337960E5);\n        playerDatabase = IPlayerDatabase(_playerDatabaseAddress);\n        mintContract = IGP_Mint(_mintContractAddress);\n    }\n\n    struct ServerSubmission {\n        //address validator;\n        bytes32 playerListHash; // Hash of the player list for gas efficiency\n        bool canMint;\n    }\n\n    struct ServerPlayers {\n        string serverIP;\n        string[] playerNames;\n    }\n    //mapping(string => ServerSubmission[]) public serverSubmissions; // serverIP -> submissions\n    struct HashCount {\n        bytes32 hash;\n        uint256 count;\n    }\n\n\n    function updateMintContractAddressStepOne(\n        bytes32[2][256] calldata currentpub,\n        bytes[256] calldata sig,\n        bytes32 nextPKH,\n        address mintContractAddress\n    ) public {\n        // Encode the new contract address to bytes for the Lamport check\n        bytes memory prepacked = abi.encodePacked(mintContractAddress);\n\n        // Perform the Lamport Master Check directly calling lamportBase\n        bool isAuthorized = lamportBase.performLamportMasterCheck(currentpub, sig, nextPKH, prepacked);\n        \n        // Ensure that the Lamport Master Check passed\n        require(isAuthorized, \"Authorization failed for proposed update of Mint contract address\");\n\n        // Temporarily store the proposed Mint contract address for the sender\n        proposedMintContractAddresses[msg.sender] = mintContractAddress;\n        lastUsedNextPKH = nextPKH;\n    }\n\n    function updateMintContractAddressStepTwo(\n        bytes32[2][256] calldata currentpub,\n        bytes[256] calldata sig,\n        bytes32 nextPKH,\n        address mintContractAddress\n    ) public {\n        // Encode the new contract address to bytes for the Lamport check\n        bytes memory prepacked = abi.encodePacked(mintContractAddress);\n\n        // Perform the Lamport Master Check again\n\n        // Verify that the proposed contract address matches the address being confirmed\n        require(proposedMintContractAddresses[msg.sender] == mintContractAddress, \"Mint contract address update mismatch\");\n\n        // Ensure a different key is used for the confirmation step\n        bytes32 currentPKH = keccak256(abi.encodePacked(currentpub));\n        require(lastUsedNextPKH != currentPKH, \"Same PKH used for both steps; use a separate key for confirmation\");\n        bool isAuthorized = lamportBase.performLamportMasterCheck(currentpub, sig, nextPKH, prepacked);\n\n        // Ensure that the Lamport Master Check passed\n        require(isAuthorized, \"Authorization failed on confirmation of Mint contract address update\");\n\n        // Officially update the Mint contract address\n        mintContract = IGP_Mint(mintContractAddress);\n        emit MintContractUpdated(mintContractAddress);\n\n        // Clear the temporary storage\n        delete proposedMintContractAddresses[msg.sender];\n        lastUsedNextPKH = bytes32(0);\n    }\n\n    // Function to set the PlayerDatabase contract address\n    function updatePlayerDatabaseAddressStepOne(\n        bytes32[2][256] calldata currentpub,\n        bytes[256] calldata sig,\n        bytes32 nextPKH,\n        address playerDatabaseAddress\n    ) public {\n        // Encode the new PlayerDatabase contract address to bytes for the Lamport check\n        bytes memory prepacked = abi.encodePacked(playerDatabaseAddress);\n\n        // Perform the Lamport Master Check directly calling lamportBase\n        bool isAuthorized = lamportBase.performLamportMasterCheck(currentpub, sig, nextPKH, prepacked);\n        \n        // Ensure that the Lamport Master Check passed\n        require(isAuthorized, \"Authorization failed for proposed update of PlayerDatabase contract address\");\n\n        // Temporarily store the proposed PlayerDatabase contract address for the sender\n        proposedPlayerDatabaseAddresses[msg.sender] = playerDatabaseAddress;\n        lastUsedNextPKH = nextPKH;\n    }\n\n    function updatePlayerDatabaseAddressStepTwo(\n        bytes32[2][256] calldata currentpub,\n        bytes[256] calldata sig,\n        bytes32 nextPKH,\n        address playerDatabaseAddress\n    ) public {\n        // Encode the new PlayerDatabase contract address to bytes for the Lamport check\n        bytes memory prepacked = abi.encodePacked(playerDatabaseAddress);\n\n        // Perform the Lamport Master Check again\n\n        // Verify that the proposed contract address matches the address being confirmed\n        require(proposedPlayerDatabaseAddresses[msg.sender] == playerDatabaseAddress, \"PlayerDatabase contract address update mismatch\");\n\n        // Ensure a different key is used for the confirmation step\n        bytes32 currentPKH = keccak256(abi.encodePacked(currentpub));\n        require(lastUsedNextPKH != currentPKH, \"Same PKH used for both steps; use a separate key for confirmation\");\n        bool isAuthorized = lamportBase.performLamportMasterCheck(currentpub, sig, nextPKH, prepacked);\n\n        // Ensure that the Lamport Master Check passed\n        require(isAuthorized, \"Authorization failed on confirmation of PlayerDatabase contract address update\");\n\n        // Officially update the PlayerDatabase contract address\n        playerDatabase = IPlayerDatabase(playerDatabaseAddress);\n        emit PlayerDatabaseAddressUpdated(playerDatabaseAddress); // Assuming the existence of this event for traceability\n\n        // Clear the temporary storage\n        delete proposedPlayerDatabaseAddresses[msg.sender];\n        lastUsedNextPKH = bytes32(0);\n    }\n    \n    function calculateMintAmount() private view returns (uint256) {\n        uint256 elapsedSeconds = block.timestamp - lastMintTime;\n\n        if (elapsedSeconds > MAX_MINT_TIME) {\n            elapsedSeconds = MAX_MINT_TIME; // Cap the elapsed time to MAX_MINT_TIME\n        }\n\n        return elapsedSeconds * TOKENS_PER_SECOND; // Calculate the mint amount based on elapsed time\n    }\n\n    function updateValidatorsList(string memory serverIP, address validator) private {\n        bool validatorExists = false;\n        for (uint i = 0; i < validatorsPerServerIP[serverIP].length; i++) {\n            if (validatorsPerServerIP[serverIP][i] == validator) {\n                validatorExists = true;\n                break;\n            }\n        }\n        if (!validatorExists) {\n            validatorsPerServerIP[serverIP].push(validator);\n        }\n    }\n\n    function submitPlayerListStepOne(\n        bytes32 playerListHash,\n        bytes32[2][256] calldata currentpub,\n        bytes[256] calldata sig,\n        bytes32 nextPKH\n    ) public {\n        // Perform Lamport Oracle check with \"1\" as the prepacked value\n        require(\n            lamportBase.performLamportOracleCheck(\n                currentpub,\n                sig,\n                nextPKH,\n                abi.encodePacked(\"1\")\n            ),\n            \"Lamport oracle check failed\"\n        );\n\n        // Calculate pkh from currentpub to ensure the caller is authorized\n        bytes32 pkh = keccak256(abi.encodePacked(currentpub));\n        (, , uint index) = lamportBase.getKeyAndIndexByPKH(pkh);\n        (uint256 oracleKeyIndex1, uint256 oracleKeyIndex2) = playerDatabase.getOracleKeyIndices(msg.sender);\n        require(\n            index == oracleKeyIndex1 || index == oracleKeyIndex2,\n            \"Caller's oracle key index does not match\"\n        );\n\n        submittedPlayerListHashes[msg.sender] = playerListHash;\n    }\n\n\n    function submitPlayerListStepTwo(ServerPlayers[] memory serverPlayerLists, address validatorID, bool canMintFlag) public {\n        require(isValidator(validatorID), \"Caller is not a registered validator\");\n        bytes memory encodedData;\n        for (uint i = 0; i < serverPlayerLists.length; i++) {\n            encodedData = abi.encodePacked(encodedData, serverPlayerLists[i].serverIP); // Include server IP in the hash\n            for (uint j = 0; j < serverPlayerLists[i].playerNames.length; j++) {\n                encodedData = abi.encodePacked(encodedData, serverPlayerLists[i].playerNames[j]);\n            }\n        }\n        bytes32 computedHash = keccak256(encodedData);\n        require(computedHash == submittedPlayerListHashes[validatorID], \"List hash does not match previously provided hash.\");\n\n        uint256 totalPlayerCount = 0;\n\n\n        for (uint i = 0; i < serverPlayerLists.length; i++) {\n            uint256 serverPlayerCount = serverPlayerLists[i].playerNames.length;\n            if (totalPlayerCount + serverPlayerCount > MAX_PLAYERS_PER_SUBMISSION) {\n                break; // Stop if the max players per submission is exceeded\n            }\n            totalPlayerCount += serverPlayerCount;\n\n            // Encode each string in the playerNames array individually\n            bytes memory encodedPlayerNames;\n            for (uint j = 0; j < serverPlayerLists[i].playerNames.length; j++) {\n                encodedPlayerNames = abi.encodePacked(encodedPlayerNames, serverPlayerLists[i].playerNames[j]);\n            }\n\n            // Compute the hash of the concatenated byte array\n            bytes32 playerListHash = keccak256(encodedPlayerNames);\n            hashToPlayerList[playerListHash] = serverPlayerLists[i].playerNames;\n\n            // Update or add the validator to the list for this server IP\n            updateValidatorsList(serverPlayerLists[i].serverIP, validatorID);\n\n            // Overwrite the existing submission for this server IP and validator\n            serverSubmissions[serverPlayerLists[i].serverIP][validatorID] = ServerSubmission({\n                playerListHash: playerListHash,\n                canMint: canMintFlag\n            });\n        }\n        // Check if it's time to perform mass minting\n        uint256 currentTime = block.timestamp;\n        uint256 timeSinceLastMint = currentTime - lastMintTime;\n        uint256 timeToNextInterval = MINT_INTERVAL - (currentTime % MINT_INTERVAL);\n\n        if (timeSinceLastMint >= MINT_INTERVAL && timeToNextInterval < MINT_INTERVAL) {\n            performMassMinting();\n            lastMintTime = currentTime - timeToNextInterval; // Align with the 5-minute interval\n        }\n    }\n    // function submitPlayerList(ServerPlayers[] memory serverPlayerLists, address validatorID, bool canMintFlag) public {\n    //     require(isValidator(validatorID), \"Caller is not a registered validator\");\n\n    //     uint256 totalPlayerCount = 0;\n\n    //     for (uint i = 0; i < serverPlayerLists.length; i++) {\n    //         uint256 serverPlayerCount = serverPlayerLists[i].playerNames.length;\n    //         if (totalPlayerCount + serverPlayerCount > MAX_PLAYERS_PER_SUBMISSION) {\n    //             break; // Stop if the max players per submission is exceeded\n    //         }\n\n    //         totalPlayerCount += serverPlayerCount;\n\n    //         // Create a hash for the player list\n    //         bytes32 playerListHash = keccak256(abi.encodePacked(serverPlayerLists[i].playerNames));\n    //         hashToPlayerList[playerListHash] = serverPlayerLists[i].playerNames;\n\n    //         // Overwrite the existing submission for this server IP and validator\n    //         serverSubmissions[serverPlayerLists[i].serverIP][validatorID] = ServerSubmission({\n    //             playerListHash: playerListHash,\n    //             canMint: canMintFlag\n    //         });\n    //     }\n    // }\n\n    function isValidator(address _address) public view returns (bool) {\n        //PlayerDatabase playerDatabase = PlayerDatabase(playerDatabaseAddress);\n        return playerDatabase.isValidator(_address);\n    }\n\n    function resetSubmissions() private {\n        string[] memory serverIPs = playerDatabase.getServerIPList();\n        for (uint i = 0; i < serverIPs.length; i++) {\n            string memory serverIP = serverIPs[i];\n            address[] memory validators = validatorsPerServerIP[serverIP];\n            for (uint j = 0; j < validators.length; j++) {\n                serverSubmissions[serverIP][validators[j]].canMint = false;\n            }\n        }\n    }\n\n    // Function to perform mass minting\n    function performMassMinting() private {\n        string[] memory serverIPs = playerDatabase.getServerIPList();\n        for (uint i = 0; i < serverIPs.length; i++) {\n            string memory serverIP = serverIPs[i];\n            bytes32 commonHash = findMostCommonHash(serverIP);\n            if (commonHash != bytes32(0)) {\n                mintForServer(commonHash);\n            }\n        }\n        resetSubmissions();\n    }\n    function mintForServer(bytes32 playerListHash) private {\n        // Retrieve the player list for the given hash\n        string[] memory playerList = hashToPlayerList[playerListHash];\n        address[] memory rewardAddresses = getValidRewardAddressesByNames(playerList);\n\n        uint256 mintAmount = calculateMintAmount(); // Define logic for mint amount\n\n        // Mint tokens for each player\n        for (uint i = 0; i < rewardAddresses.length; i++) {\n            if (rewardAddresses[i] != address(0)) { // Check for valid address\n                mintContract.mintTokens(rewardAddresses[i], mintAmount);\n            }\n        }\n    }\n    function findMostCommonHash(string memory serverIP) private view returns (bytes32) {\n        // Assume validatorsPerServerIP is a mapping that tracks validators per server IP\n        address[] memory validators = validatorsPerServerIP[serverIP];\n        uint256 majorityThreshold = (validators.length * 60) / 100; // 60% of total validators\n\n        bytes32 majorityHash = bytes32(0);\n        uint256 highestCount = 0;\n\n        // Use a structure to keep track of each hash count\n\n\n        HashCount[] memory hashCounts = new HashCount[](validators.length);\n\n        // Count occurrences of each hash\n        for (uint i = 0; i < validators.length; i++) {\n            bytes32 currentHash = serverSubmissions[serverIP][validators[i]].playerListHash;\n            bool found = false;\n\n            for (uint j = 0; j < hashCounts.length; j++) {\n                if (hashCounts[j].hash == currentHash) {\n                    hashCounts[j].count++;\n                    found = true;\n                    break;\n                }\n            }\n\n            if (!found) {\n                hashCounts[i] = HashCount({hash: currentHash, count: 1});\n            }\n\n            // Update majority hash if necessary\n            if (hashCounts[i].count > highestCount) {\n                highestCount = hashCounts[i].count;\n                majorityHash = hashCounts[i].hash;\n            }\n        }\n\n        // Check if the highest count meets the majority threshold\n        if (highestCount >= majorityThreshold) {\n            return majorityHash;\n        }\n\n        return bytes32(0); // No majority found\n    }\n\n    // Helper function to check if a hash is present in the tempUniqueHashes array\n\n\n    function getValidRewardAddressesByNames(string[] memory playerNames) private view returns (address[] memory) {\n        return playerDatabase.getValidRewardAddressesByNames(playerNames, lastMintTime);\n    }\n\n\n\n    // Additional functions...\n}\n","sourcePath":"contracts/4_GP_Validator_0-10.sol","deployment":{"address":"0x742294571Ac5e19b28543beA69FD4955F9C7DA69","chainid":"86098","blockHeight":174570}}