{"bytecode":"6080604052600180546001600160a01b03191673b03a6afd440a2a9db8834f1a6093680f02f1114c17905534801561003657600080fd5b50600154600080546001600160a01b0319166001600160a01b039092169190911790556105bd806100686000396000f3fe608060405234801561001057600080fd5b50600436106100625760003560e01c80631785f53c1461006757806340a141ff1461007c57806365225c851461008f5780639fca5169146100a2578063c38c5813146100b5578063cb744993146100c8575b600080fd5b61007a6100753660046102e7565b6100f7565b005b61007a61008a3660046102e7565b610162565b61007a61009d3660046103bc565b61019c565b61007a6100b03660046102e7565b610259565b61007a6100c33660046102e7565b610292565b6000546100db906001600160a01b031681565b6040516001600160a01b03909116815260200160405180910390f35b600080546040516316227ecd60e21b81526001600160a01b0384811660048301526024820193909352911690635889fb34906044015b600060405180830381600087803b15801561014757600080fd5b505af115801561015b573d6000803e3d6000fd5b5050505050565b6000805460405163aca2490b60e01b81526001600160a01b038481166004830152602482019390935291169063aca2490b9060440161012d565b60005460405163d28c446d60e01b81526001600160a01b039091169063d28c446d906101d6908990899089908990899089906004016104f1565b600060405180830381600087803b1580156101f057600080fd5b505af1158015610204573d6000803e3d6000fd5b50505050856001600160a01b03167ff7e417d94e320ea0ed6bd683d9adfcf7f636b9926cff016ab28b644d1defabaa8686868686604051610249959493929190610545565b60405180910390a2505050505050565b60005460405163aca2490b60e01b81526001600160a01b038381166004830152600160248301529091169063aca2490b9060440161012d565b6000546040516316227ecd60e21b81526001600160a01b0383811660048301526001602483015290911690635889fb349060440161012d565b80356001600160a01b03811681146102e257600080fd5b919050565b6000602082840312156102f957600080fd5b610302826102cb565b9392505050565b803580151581146102e257600080fd5b634e487b7160e01b600052604160045260246000fd5b600082601f83011261034057600080fd5b813567ffffffffffffffff8082111561035b5761035b610319565b604051601f8301601f19908116603f0116810190828211818310171561038357610383610319565b8160405283815286602085880101111561039c57600080fd5b836020870160208301376000602085830101528094505050505092915050565b60008060008060008060a087890312156103d557600080fd5b6103de876102cb565b9550602087013567ffffffffffffffff808211156103fb57600080fd5b818901915089601f83011261040f57600080fd5b81358181111561041e57600080fd5b8a602082850101111561043057600080fd5b602083019750955061044460408a01610309565b945061045260608a01610309565b9350608089013591508082111561046857600080fd5b5061047589828a0161032f565b9150509295509295509295565b81835281816020850137506000828201602090810191909152601f909101601f19169091010190565b6000815180845260005b818110156104d1576020818501810151868301820152016104b5565b506000602082860101526020601f19601f83011685010191505092915050565b6001600160a01b038716815260a0602082018190526000906105169083018789610482565b85151560408401528415156060840152828103608084015261053881856104ab565b9998505050505050505050565b608081526000610559608083018789610482565b85151560208401528415156040840152828103606084015261057b81856104ab565b9897505050505050505056fea264697066735822122054e52bf25ae20690c550d6efdf92ac17db5a1e949980deaf921cf4b636c305d864736f6c63430008150033","bytecodeSha1":"02c320c037eb0e4417c216e02854d65d49a8e899","type":"contract","abi":[{"inputs":[],"stateMutability":"nonpayable","type":"constructor","name":"constructor"},{"anonymous":false,"inputs":[{"indexed":true,"internalType":"address","name":"playerAddress","type":"address"},{"indexed":false,"internalType":"string","name":"steamID","type":"string"},{"indexed":false,"internalType":"bool","name":"isValidator","type":"bool"},{"indexed":false,"internalType":"bool","name":"isRegistered","type":"bool"},{"indexed":false,"internalType":"string","name":"_playerName","type":"string"}],"name":"PlayerOnboarded","type":"event"},{"inputs":[{"internalType":"address","name":"_address","type":"address"},{"internalType":"string","name":"_steamID","type":"string"},{"internalType":"bool","name":"_isValidator","type":"bool"},{"internalType":"bool","name":"_isRegistered","type":"bool"},{"internalType":"string","name":"_playerName","type":"string"}],"name":"onboardPlayer","outputs":[],"stateMutability":"nonpayable","type":"function"},{"inputs":[],"name":"playerDatabase","outputs":[{"internalType":"contract IPlayerDatabase","name":"","type":"address"}],"stateMutability":"view","type":"function"},{"inputs":[{"internalType":"address","name":"admin","type":"address"}],"name":"registerAdmin","outputs":[],"stateMutability":"nonpayable","type":"function"},{"inputs":[{"internalType":"address","name":"validator","type":"address"}],"name":"registerValidator","outputs":[],"stateMutability":"nonpayable","type":"function"},{"inputs":[{"internalType":"address","name":"admin","type":"address"}],"name":"removeAdmin","outputs":[],"stateMutability":"nonpayable","type":"function"},{"inputs":[{"internalType":"address","name":"validator","type":"address"}],"name":"removeValidator","outputs":[],"stateMutability":"nonpayable","type":"function"}],"compiler":{"version":"0.8.21+commit.d9974bed","evm_version":"istanbul","optimizer":{"enabled":true,"runs":200}},"contractName":"PlayerOnboardContract","language":"Solidity","natspec":{"methods":{},"kind":"dev","version":1},"opcodes":"PUSH1 0x80 PUSH1 0x40 MSTORE CALLVALUE DUP1 ISZERO PUSH2 0x10 JUMPI PUSH1 0x0 DUP1 REVERT JUMPDEST POP PUSH1 0x4 CALLDATASIZE LT PUSH2 0x62 JUMPI PUSH1 0x0 CALLDATALOAD PUSH1 0xE0 SHR DUP1 PUSH4 0x1785F53C EQ PUSH2 0x67 JUMPI DUP1 PUSH4 0x40A141FF EQ PUSH2 0x7C JUMPI DUP1 PUSH4 0x65225C85 EQ PUSH2 0x8F JUMPI DUP1 PUSH4 0x9FCA5169 EQ PUSH2 0xA2 JUMPI DUP1 PUSH4 0xC38C5813 EQ PUSH2 0xB5 JUMPI DUP1 PUSH4 0xCB744993 EQ PUSH2 0xC8 JUMPI JUMPDEST PUSH1 0x0 DUP1 REVERT JUMPDEST PUSH2 0x7A PUSH2 0x75 CALLDATASIZE PUSH1 0x4 PUSH2 0x2E7 JUMP JUMPDEST PUSH2 0xF7 JUMP JUMPDEST STOP JUMPDEST PUSH2 0x7A PUSH2 0x8A CALLDATASIZE PUSH1 0x4 PUSH2 0x2E7 JUMP JUMPDEST PUSH2 0x162 JUMP JUMPDEST PUSH2 0x7A PUSH2 0x9D CALLDATASIZE PUSH1 0x4 PUSH2 0x3BC JUMP JUMPDEST PUSH2 0x19C JUMP JUMPDEST PUSH2 0x7A PUSH2 0xB0 CALLDATASIZE PUSH1 0x4 PUSH2 0x2E7 JUMP JUMPDEST PUSH2 0x259 JUMP JUMPDEST PUSH2 0x7A PUSH2 0xC3 CALLDATASIZE PUSH1 0x4 PUSH2 0x2E7 JUMP JUMPDEST PUSH2 0x292 JUMP JUMPDEST PUSH1 0x0 SLOAD PUSH2 0xDB SWAP1 PUSH1 0x1 PUSH1 0x1 PUSH1 0xA0 SHL SUB AND DUP2 JUMP JUMPDEST PUSH1 0x40 MLOAD PUSH1 0x1 PUSH1 0x1 PUSH1 0xA0 SHL SUB SWAP1 SWAP2 AND DUP2 MSTORE PUSH1 0x20 ADD PUSH1 0x40 MLOAD DUP1 SWAP2 SUB SWAP1 RETURN JUMPDEST PUSH1 0x0 DUP1 SLOAD PUSH1 0x40 MLOAD PUSH4 0x16227ECD PUSH1 0xE2 SHL DUP2 MSTORE PUSH1 0x1 PUSH1 0x1 PUSH1 0xA0 SHL SUB DUP5 DUP2 AND PUSH1 0x4 DUP4 ADD MSTORE PUSH1 0x24 DUP3 ADD SWAP4 SWAP1 SWAP4 MSTORE SWAP2 AND SWAP1 PUSH4 0x5889FB34 SWAP1 PUSH1 0x44 ADD JUMPDEST PUSH1 0x0 PUSH1 0x40 MLOAD DUP1 DUP4 SUB DUP2 PUSH1 0x0 DUP8 DUP1 EXTCODESIZE ISZERO DUP1 ISZERO PUSH2 0x147 JUMPI PUSH1 0x0 DUP1 REVERT JUMPDEST POP GAS CALL ISZERO DUP1 ISZERO PUSH2 0x15B JUMPI RETURNDATASIZE PUSH1 0x0 DUP1 RETURNDATACOPY RETURNDATASIZE PUSH1 0x0 REVERT JUMPDEST POP POP POP POP POP JUMP JUMPDEST PUSH1 0x0 DUP1 SLOAD PUSH1 0x40 MLOAD PUSH4 0xACA2490B PUSH1 0xE0 SHL DUP2 MSTORE PUSH1 0x1 PUSH1 0x1 PUSH1 0xA0 SHL SUB DUP5 DUP2 AND PUSH1 0x4 DUP4 ADD MSTORE PUSH1 0x24 DUP3 ADD SWAP4 SWAP1 SWAP4 MSTORE SWAP2 AND SWAP1 PUSH4 0xACA2490B SWAP1 PUSH1 0x44 ADD PUSH2 0x12D JUMP JUMPDEST PUSH1 0x0 SLOAD PUSH1 0x40 MLOAD PUSH4 0xD28C446D PUSH1 0xE0 SHL DUP2 MSTORE PUSH1 0x1 PUSH1 0x1 PUSH1 0xA0 SHL SUB SWAP1 SWAP2 AND SWAP1 PUSH4 0xD28C446D SWAP1 PUSH2 0x1D6 SWAP1 DUP10 SWAP1 DUP10 SWAP1 DUP10 SWAP1 DUP10 SWAP1 DUP10 SWAP1 DUP10 SWAP1 PUSH1 0x4 ADD PUSH2 0x4F1 JUMP JUMPDEST PUSH1 0x0 PUSH1 0x40 MLOAD DUP1 DUP4 SUB DUP2 PUSH1 0x0 DUP8 DUP1 EXTCODESIZE ISZERO DUP1 ISZERO PUSH2 0x1F0 JUMPI PUSH1 0x0 DUP1 REVERT JUMPDEST POP GAS CALL ISZERO DUP1 ISZERO PUSH2 0x204 JUMPI RETURNDATASIZE PUSH1 0x0 DUP1 RETURNDATACOPY RETURNDATASIZE PUSH1 0x0 REVERT JUMPDEST POP POP POP POP DUP6 PUSH1 0x1 PUSH1 0x1 PUSH1 0xA0 SHL SUB AND PUSH32 0xF7E417D94E320EA0ED6BD683D9ADFCF7F636B9926CFF016AB28B644D1DEFABAA DUP7 DUP7 DUP7 DUP7 DUP7 PUSH1 0x40 MLOAD PUSH2 0x249 SWAP6 SWAP5 SWAP4 SWAP3 SWAP2 SWAP1 PUSH2 0x545 JUMP JUMPDEST PUSH1 0x40 MLOAD DUP1 SWAP2 SUB SWAP1 LOG2 POP POP POP POP POP POP JUMP JUMPDEST PUSH1 0x0 SLOAD PUSH1 0x40 MLOAD PUSH4 0xACA2490B PUSH1 0xE0 SHL DUP2 MSTORE PUSH1 0x1 PUSH1 0x1 PUSH1 0xA0 SHL SUB DUP4 DUP2 AND PUSH1 0x4 DUP4 ADD MSTORE PUSH1 0x1 PUSH1 0x24 DUP4 ADD MSTORE SWAP1 SWAP2 AND SWAP1 PUSH4 0xACA2490B SWAP1 PUSH1 0x44 ADD PUSH2 0x12D JUMP JUMPDEST PUSH1 0x0 SLOAD PUSH1 0x40 MLOAD PUSH4 0x16227ECD PUSH1 0xE2 SHL DUP2 MSTORE PUSH1 0x1 PUSH1 0x1 PUSH1 0xA0 SHL SUB DUP4 DUP2 AND PUSH1 0x4 DUP4 ADD MSTORE PUSH1 0x1 PUSH1 0x24 DUP4 ADD MSTORE SWAP1 SWAP2 AND SWAP1 PUSH4 0x5889FB34 SWAP1 PUSH1 0x44 ADD PUSH2 0x12D JUMP JUMPDEST DUP1 CALLDATALOAD PUSH1 0x1 PUSH1 0x1 PUSH1 0xA0 SHL SUB DUP2 AND DUP2 EQ PUSH2 0x2E2 JUMPI PUSH1 0x0 DUP1 REVERT JUMPDEST SWAP2 SWAP1 POP JUMP JUMPDEST PUSH1 0x0 PUSH1 0x20 DUP3 DUP5 SUB SLT ISZERO PUSH2 0x2F9 JUMPI PUSH1 0x0 DUP1 REVERT JUMPDEST PUSH2 0x302 DUP3 PUSH2 0x2CB JUMP JUMPDEST SWAP4 SWAP3 POP POP POP JUMP JUMPDEST DUP1 CALLDATALOAD DUP1 ISZERO ISZERO DUP2 EQ PUSH2 0x2E2 JUMPI PUSH1 0x0 DUP1 REVERT JUMPDEST PUSH4 0x4E487B71 PUSH1 0xE0 SHL PUSH1 0x0 MSTORE PUSH1 0x41 PUSH1 0x4 MSTORE PUSH1 0x24 PUSH1 0x0 REVERT JUMPDEST PUSH1 0x0 DUP3 PUSH1 0x1F DUP4 ADD SLT PUSH2 0x340 JUMPI PUSH1 0x0 DUP1 REVERT JUMPDEST DUP2 CALLDATALOAD PUSH8 0xFFFFFFFFFFFFFFFF DUP1 DUP3 GT ISZERO PUSH2 0x35B JUMPI PUSH2 0x35B PUSH2 0x319 JUMP JUMPDEST PUSH1 0x40 MLOAD PUSH1 0x1F DUP4 ADD PUSH1 0x1F NOT SWAP1 DUP2 AND PUSH1 0x3F ADD AND DUP2 ADD SWAP1 DUP3 DUP3 GT DUP2 DUP4 LT OR ISZERO PUSH2 0x383 JUMPI PUSH2 0x383 PUSH2 0x319 JUMP JUMPDEST DUP2 PUSH1 0x40 MSTORE DUP4 DUP2 MSTORE DUP7 PUSH1 0x20 DUP6 DUP9 ADD ADD GT ISZERO PUSH2 0x39C JUMPI PUSH1 0x0 DUP1 REVERT JUMPDEST DUP4 PUSH1 0x20 DUP8 ADD PUSH1 0x20 DUP4 ADD CALLDATACOPY PUSH1 0x0 PUSH1 0x20 DUP6 DUP4 ADD ADD MSTORE DUP1 SWAP5 POP POP POP POP POP SWAP3 SWAP2 POP POP JUMP JUMPDEST PUSH1 0x0 DUP1 PUSH1 0x0 DUP1 PUSH1 0x0 DUP1 PUSH1 0xA0 DUP8 DUP10 SUB SLT ISZERO PUSH2 0x3D5 JUMPI PUSH1 0x0 DUP1 REVERT JUMPDEST PUSH2 0x3DE DUP8 PUSH2 0x2CB JUMP JUMPDEST SWAP6 POP PUSH1 0x20 DUP8 ADD CALLDATALOAD PUSH8 0xFFFFFFFFFFFFFFFF DUP1 DUP3 GT ISZERO PUSH2 0x3FB JUMPI PUSH1 0x0 DUP1 REVERT JUMPDEST DUP2 DUP10 ADD SWAP2 POP DUP10 PUSH1 0x1F DUP4 ADD SLT PUSH2 0x40F JUMPI PUSH1 0x0 DUP1 REVERT JUMPDEST DUP2 CALLDATALOAD DUP2 DUP2 GT ISZERO PUSH2 0x41E JUMPI PUSH1 0x0 DUP1 REVERT JUMPDEST DUP11 PUSH1 0x20 DUP3 DUP6 ADD ADD GT ISZERO PUSH2 0x430 JUMPI PUSH1 0x0 DUP1 REVERT JUMPDEST PUSH1 0x20 DUP4 ADD SWAP8 POP SWAP6 POP PUSH2 0x444 PUSH1 0x40 DUP11 ADD PUSH2 0x309 JUMP JUMPDEST SWAP5 POP PUSH2 0x452 PUSH1 0x60 DUP11 ADD PUSH2 0x309 JUMP JUMPDEST SWAP4 POP PUSH1 0x80 DUP10 ADD CALLDATALOAD SWAP2 POP DUP1 DUP3 GT ISZERO PUSH2 0x468 JUMPI PUSH1 0x0 DUP1 REVERT JUMPDEST POP PUSH2 0x475 DUP10 DUP3 DUP11 ADD PUSH2 0x32F JUMP JUMPDEST SWAP2 POP POP SWAP3 SWAP6 POP SWAP3 SWAP6 POP SWAP3 SWAP6 JUMP JUMPDEST DUP2 DUP4 MSTORE DUP2 DUP2 PUSH1 0x20 DUP6 ADD CALLDATACOPY POP PUSH1 0x0 DUP3 DUP3 ADD PUSH1 0x20 SWAP1 DUP2 ADD SWAP2 SWAP1 SWAP2 MSTORE PUSH1 0x1F SWAP1 SWAP2 ADD PUSH1 0x1F NOT AND SWAP1 SWAP2 ADD ADD SWAP1 JUMP JUMPDEST PUSH1 0x0 DUP2 MLOAD DUP1 DUP5 MSTORE PUSH1 0x0 JUMPDEST DUP2 DUP2 LT ISZERO PUSH2 0x4D1 JUMPI PUSH1 0x20 DUP2 DUP6 ADD DUP2 ADD MLOAD DUP7 DUP4 ADD DUP3 ADD MSTORE ADD PUSH2 0x4B5 JUMP JUMPDEST POP PUSH1 0x0 PUSH1 0x20 DUP3 DUP7 ADD ADD MSTORE PUSH1 0x20 PUSH1 0x1F NOT PUSH1 0x1F DUP4 ADD AND DUP6 ADD ADD SWAP2 POP POP SWAP3 SWAP2 POP POP JUMP JUMPDEST PUSH1 0x1 PUSH1 0x1 PUSH1 0xA0 SHL SUB DUP8 AND DUP2 MSTORE PUSH1 0xA0 PUSH1 0x20 DUP3 ADD DUP2 SWAP1 MSTORE PUSH1 0x0 SWAP1 PUSH2 0x516 SWAP1 DUP4 ADD DUP8 DUP10 PUSH2 0x482 JUMP JUMPDEST DUP6 ISZERO ISZERO PUSH1 0x40 DUP5 ADD MSTORE DUP5 ISZERO ISZERO PUSH1 0x60 DUP5 ADD MSTORE DUP3 DUP2 SUB PUSH1 0x80 DUP5 ADD MSTORE PUSH2 0x538 DUP2 DUP6 PUSH2 0x4AB JUMP JUMPDEST SWAP10 SWAP9 POP POP POP POP POP POP POP POP POP JUMP JUMPDEST PUSH1 0x80 DUP2 MSTORE PUSH1 0x0 PUSH2 0x559 PUSH1 0x80 DUP4 ADD DUP8 DUP10 PUSH2 0x482 JUMP JUMPDEST DUP6 ISZERO ISZERO PUSH1 0x20 DUP5 ADD MSTORE DUP5 ISZERO ISZERO PUSH1 0x40 DUP5 ADD MSTORE DUP3 DUP2 SUB PUSH1 0x60 DUP5 ADD MSTORE PUSH2 0x57B DUP2 DUP6 PUSH2 0x4AB JUMP JUMPDEST SWAP9 SWAP8 POP POP POP POP POP POP POP POP JUMP INVALID LOG2 PUSH5 0x6970667358 0x22 SLT KECCAK256 SLOAD 0xE5 0x2B CALLCODE GAS 0xE2 MOD SWAP1 0xC5 POP 0xD6 0xEF 0xDF SWAP3 0xAC OR 0xDB GAS 0x1E SWAP5 SWAP10 DUP1 0xDE 0xAF SWAP3 SHR DELEGATECALL 0xB6 CALLDATASIZE 0xC3 SDIV 0xD8 PUSH5 0x736F6C6343 STOP ADDMOD ISZERO STOP CALLER ","sha1":"4ec9eabb344e74368c8f789d97a341a064f35764","source":"// SPDX-License-Identifier: MIT\n\npragma solidity ^0.8.0;\n\n// interface IPlayerDatabaseSubcontract {\n//     function addOrUpdatePlayer(address _address, string calldata _steamID, bool _isValidator, bool _isRegistered) external;\n// }\n\ninterface IPlayerDatabase {\n    function addOrUpdatePlayer(address _address, string calldata _steamID, bool _isValidator, bool _isRegistered, string memory _playerName) external;\n    // Include other functions from PlayerDatabase that PlayerOnrampContract needs to call\n\n    function setGameAdminStatus(address admin, bool status) external;\n    function setValidatorStatus(address validator, bool status) external;\n\n}\n\ncontract PlayerOnboardContract {\n    IPlayerDatabase public playerDatabase;\n\n    event PlayerOnboarded(address indexed playerAddress, string steamID, bool isValidator, bool isRegistered, string _playerName);\n    address _playerDatabaseAddress = 0xB03A6aFd440a2a9db8834F1A6093680f02f1114C;\n\n    constructor() {\n        playerDatabase = IPlayerDatabase(_playerDatabaseAddress);\n    }\n\n    function onboardPlayer(address _address, string calldata _steamID, bool _isValidator, bool _isRegistered, string memory _playerName) public {\n        // Additional logic and security checks as needed\n        playerDatabase.addOrUpdatePlayer(_address, _steamID, _isValidator, _isRegistered, _playerName);\n        emit PlayerOnboarded(_address, _steamID, _isValidator, _isRegistered, _playerName);\n    }\n\n    // Additional functions and logic as required for onramping...\n\n\n    function registerValidator(address validator) public {\n        // Add appropriate checks here\n        playerDatabase.setValidatorStatus(validator, true);\n    }\n\n    function removeValidator(address validator) public {\n        // Add appropriate checks here\n        playerDatabase.setValidatorStatus(validator, false);\n    }\n\n    function registerAdmin(address admin) public {\n        // Add appropriate checks here\n        playerDatabase.setGameAdminStatus(admin, true);\n    }\n\n    function removeAdmin(address admin) public {\n        // Add appropriate checks here\n        playerDatabase.setGameAdminStatus(admin, false);\n    }\n}\n// contract PlayerOnrampContract {\n//     IMintyDatabaseSubcontract public mintyDatabase;\n\n//     event PlayerOnboarded(address indexed playerAddress, string steamID, bool isValidator, bool isRegistered);\n\n//     constructor(address _mintyDatabaseAddress) {\n//         mintyDatabase = IMintyDatabaseSubcontract(_mintyDatabaseAddress);\n//     }\n\n//     function onboardPlayer(address _address, string calldata _steamID, bool _isValidator, bool _isRegistered) public {\n//         // Additional logic and security checks as needed\n//         mintyDatabase.addOrUpdatePlayer(_address, _steamID, _isValidator, _isRegistered);\n//         emit PlayerOnboarded(_address, _steamID, _isValidator, _isRegistered);\n//     }\n\n//     // Additional functions and logic as required for onramping...\n// }\n","sourcePath":"contracts/5_GP_Onboard.sol","deployment":{"address":"0x800065Da887de69bCCB75Bd0c1Fdc332C9540407","chainid":"86098","blockHeight":140068}}