{"bytecode":"608060405234801561001057600080fd5b50600080546001600160a01b0319167386989606a88841e2fb56787806a5f7a3a89641e21790556105a2806100466000396000f3fe608060405234801561001057600080fd5b506004361061004c5760003560e01c806306d6e51e14610051578063286dd3f514610066578063336e204f14610079578063e6d4d2171461008c575b600080fd5b61006461005f36600461030f565b61009f565b005b610064610074366004610339565b610149565b61006461008736600461030f565b6101ea565b61006461009a36600461039e565b610223565b60005460405163d47b2e9960e01b81526001600160a01b038481166004830152602482018490529091169063d47b2e99906044015b600060405180830381600087803b1580156100ee57600080fd5b505af19250505080156100ff575060015b61012a576040516000815260008051602061054d833981519152906020015b60405180910390a15050565b6040516001815260008051602061054d8339815191529060200161011e565b600054604051638ab1d68160e01b81526001600160a01b03838116600483015290911690638ab1d68190602401600060405180830381600087803b15801561019057600080fd5b505af19250505080156101a1575060015b6101cb576040516000815260008051602061054d833981519152906020015b60405180910390a150565b6040516001815260008051602061054d833981519152906020016101c0565b600054604051636118b1c360e01b81526001600160a01b0384811660048301526024820184905290911690636118b1c3906044016100d4565b600054604051630d299ed560e11b81526001600160a01b0390911690631a533daa906102559085908590600401610448565b600060405180830381600087803b15801561026f57600080fd5b505af1925050508015610280575060015b61012a5761028c6104a6565b806308c379a0036102d257506102a06104c2565b806102ab57506102d4565b6040516000815260008051602061054d8339815191529060200160405180910390a1505050565b505b6040516000815260008051602061054d8339815191529060200161011e565b80356001600160a01b038116811461030a57600080fd5b919050565b6000806040838503121561032257600080fd5b61032b836102f3565b946020939093013593505050565b60006020828403121561034b57600080fd5b610354826102f3565b9392505050565b634e487b7160e01b600052604160045260246000fd5b601f8201601f1916810167ffffffffffffffff811182821017156103975761039761035b565b6040525050565b600080604083850312156103b157600080fd5b6103ba836102f3565b915060208084013567ffffffffffffffff808211156103d857600080fd5b818601915086601f8301126103ec57600080fd5b8135818111156103fe576103fe61035b565b6040519150610416601f8201601f1916850183610371565b808252878482850101111561042a57600080fd5b80848401858401376000848284010152508093505050509250929050565b60018060a01b038316815260006020604081840152835180604085015260005b8181101561048457858101830151858201606001528201610468565b506000606082860101526060601f19601f830116850101925050509392505050565b600060033d11156104bf5760046000803e5060005160e01c5b90565b600060443d10156104d05790565b6040516003193d81016004833e81513d67ffffffffffffffff816024840111818411171561050057505050505090565b82850191508151818111156105185750505050505090565b843d87010160208285010111156105325750505050505090565b61054160208286010187610371565b50909594505050505056feed9840e0775590557ad736875d96c95cf1458b766335f74339951a32c82a9e33a26469706673582212208c428a5b4cc53d143b094ac33abbc02898ccc83335c6f16bb3f292299228c7ca64736f6c63430008150033","bytecodeSha1":"000bd649423706f9fea157a8d352ca27b3463256","type":"contract","abi":[{"inputs":[],"stateMutability":"nonpayable","type":"constructor","name":"constructor"},{"anonymous":false,"inputs":[{"indexed":false,"internalType":"bool","name":"success","type":"bool"}],"name":"OperationResult","type":"event"},{"inputs":[{"internalType":"address","name":"_address","type":"address"},{"internalType":"string","name":"anonID","type":"string"}],"name":"addAddressToWhitelist","outputs":[],"stateMutability":"nonpayable","type":"function"},{"inputs":[{"internalType":"address","name":"user","type":"address"},{"internalType":"uint256","name":"_minutes","type":"uint256"}],"name":"addMinutesPlayed","outputs":[],"stateMutability":"nonpayable","type":"function"},{"inputs":[{"internalType":"address","name":"_address","type":"address"}],"name":"removeAddressFromWhitelist","outputs":[],"stateMutability":"nonpayable","type":"function"},{"inputs":[{"internalType":"address","name":"_address","type":"address"},{"internalType":"uint256","name":"_quota","type":"uint256"}],"name":"setQuotaForAddress","outputs":[],"stateMutability":"nonpayable","type":"function"}],"compiler":{"version":"0.8.21+commit.d9974bed","evm_version":"istanbul","optimizer":{"enabled":true,"runs":200}},"contractName":"WhitelistTest","language":"Solidity","natspec":{"methods":{},"kind":"dev","version":1},"opcodes":"PUSH1 0x80 PUSH1 0x40 MSTORE CALLVALUE DUP1 ISZERO PUSH2 0x10 JUMPI PUSH1 0x0 DUP1 REVERT JUMPDEST POP PUSH1 0x4 CALLDATASIZE LT PUSH2 0x4C JUMPI PUSH1 0x0 CALLDATALOAD PUSH1 0xE0 SHR DUP1 PUSH4 0x6D6E51E EQ PUSH2 0x51 JUMPI DUP1 PUSH4 0x286DD3F5 EQ PUSH2 0x66 JUMPI DUP1 PUSH4 0x336E204F EQ PUSH2 0x79 JUMPI DUP1 PUSH4 0xE6D4D217 EQ PUSH2 0x8C JUMPI JUMPDEST PUSH1 0x0 DUP1 REVERT JUMPDEST PUSH2 0x64 PUSH2 0x5F CALLDATASIZE PUSH1 0x4 PUSH2 0x30F JUMP JUMPDEST PUSH2 0x9F JUMP JUMPDEST STOP JUMPDEST PUSH2 0x64 PUSH2 0x74 CALLDATASIZE PUSH1 0x4 PUSH2 0x339 JUMP JUMPDEST PUSH2 0x149 JUMP JUMPDEST PUSH2 0x64 PUSH2 0x87 CALLDATASIZE PUSH1 0x4 PUSH2 0x30F JUMP JUMPDEST PUSH2 0x1EA JUMP JUMPDEST PUSH2 0x64 PUSH2 0x9A CALLDATASIZE PUSH1 0x4 PUSH2 0x39E JUMP JUMPDEST PUSH2 0x223 JUMP JUMPDEST PUSH1 0x0 SLOAD PUSH1 0x40 MLOAD PUSH4 0xD47B2E99 PUSH1 0xE0 SHL DUP2 MSTORE PUSH1 0x1 PUSH1 0x1 PUSH1 0xA0 SHL SUB DUP5 DUP2 AND PUSH1 0x4 DUP4 ADD MSTORE PUSH1 0x24 DUP3 ADD DUP5 SWAP1 MSTORE SWAP1 SWAP2 AND SWAP1 PUSH4 0xD47B2E99 SWAP1 PUSH1 0x44 ADD JUMPDEST PUSH1 0x0 PUSH1 0x40 MLOAD DUP1 DUP4 SUB DUP2 PUSH1 0x0 DUP8 DUP1 EXTCODESIZE ISZERO DUP1 ISZERO PUSH2 0xEE JUMPI PUSH1 0x0 DUP1 REVERT JUMPDEST POP GAS CALL SWAP3 POP POP POP DUP1 ISZERO PUSH2 0xFF JUMPI POP PUSH1 0x1 JUMPDEST PUSH2 0x12A JUMPI PUSH1 0x40 MLOAD PUSH1 0x0 DUP2 MSTORE PUSH1 0x0 DUP1 MLOAD PUSH1 0x20 PUSH2 0x54D DUP4 CODECOPY DUP2 MLOAD SWAP2 MSTORE SWAP1 PUSH1 0x20 ADD JUMPDEST PUSH1 0x40 MLOAD DUP1 SWAP2 SUB SWAP1 LOG1 POP POP JUMP JUMPDEST PUSH1 0x40 MLOAD PUSH1 0x1 DUP2 MSTORE PUSH1 0x0 DUP1 MLOAD PUSH1 0x20 PUSH2 0x54D DUP4 CODECOPY DUP2 MLOAD SWAP2 MSTORE SWAP1 PUSH1 0x20 ADD PUSH2 0x11E JUMP JUMPDEST PUSH1 0x0 SLOAD PUSH1 0x40 MLOAD PUSH4 0x8AB1D681 PUSH1 0xE0 SHL DUP2 MSTORE PUSH1 0x1 PUSH1 0x1 PUSH1 0xA0 SHL SUB DUP4 DUP2 AND PUSH1 0x4 DUP4 ADD MSTORE SWAP1 SWAP2 AND SWAP1 PUSH4 0x8AB1D681 SWAP1 PUSH1 0x24 ADD PUSH1 0x0 PUSH1 0x40 MLOAD DUP1 DUP4 SUB DUP2 PUSH1 0x0 DUP8 DUP1 EXTCODESIZE ISZERO DUP1 ISZERO PUSH2 0x190 JUMPI PUSH1 0x0 DUP1 REVERT JUMPDEST POP GAS CALL SWAP3 POP POP POP DUP1 ISZERO PUSH2 0x1A1 JUMPI POP PUSH1 0x1 JUMPDEST PUSH2 0x1CB JUMPI PUSH1 0x40 MLOAD PUSH1 0x0 DUP2 MSTORE PUSH1 0x0 DUP1 MLOAD PUSH1 0x20 PUSH2 0x54D DUP4 CODECOPY DUP2 MLOAD SWAP2 MSTORE SWAP1 PUSH1 0x20 ADD JUMPDEST PUSH1 0x40 MLOAD DUP1 SWAP2 SUB SWAP1 LOG1 POP JUMP JUMPDEST PUSH1 0x40 MLOAD PUSH1 0x1 DUP2 MSTORE PUSH1 0x0 DUP1 MLOAD PUSH1 0x20 PUSH2 0x54D DUP4 CODECOPY DUP2 MLOAD SWAP2 MSTORE SWAP1 PUSH1 0x20 ADD PUSH2 0x1C0 JUMP JUMPDEST PUSH1 0x0 SLOAD PUSH1 0x40 MLOAD PUSH4 0x6118B1C3 PUSH1 0xE0 SHL DUP2 MSTORE PUSH1 0x1 PUSH1 0x1 PUSH1 0xA0 SHL SUB DUP5 DUP2 AND PUSH1 0x4 DUP4 ADD MSTORE PUSH1 0x24 DUP3 ADD DUP5 SWAP1 MSTORE SWAP1 SWAP2 AND SWAP1 PUSH4 0x6118B1C3 SWAP1 PUSH1 0x44 ADD PUSH2 0xD4 JUMP JUMPDEST PUSH1 0x0 SLOAD PUSH1 0x40 MLOAD PUSH4 0xD299ED5 PUSH1 0xE1 SHL DUP2 MSTORE PUSH1 0x1 PUSH1 0x1 PUSH1 0xA0 SHL SUB SWAP1 SWAP2 AND SWAP1 PUSH4 0x1A533DAA SWAP1 PUSH2 0x255 SWAP1 DUP6 SWAP1 DUP6 SWAP1 PUSH1 0x4 ADD PUSH2 0x448 JUMP JUMPDEST PUSH1 0x0 PUSH1 0x40 MLOAD DUP1 DUP4 SUB DUP2 PUSH1 0x0 DUP8 DUP1 EXTCODESIZE ISZERO DUP1 ISZERO PUSH2 0x26F JUMPI PUSH1 0x0 DUP1 REVERT JUMPDEST POP GAS CALL SWAP3 POP POP POP DUP1 ISZERO PUSH2 0x280 JUMPI POP PUSH1 0x1 JUMPDEST PUSH2 0x12A JUMPI PUSH2 0x28C PUSH2 0x4A6 JUMP JUMPDEST DUP1 PUSH4 0x8C379A0 SUB PUSH2 0x2D2 JUMPI POP PUSH2 0x2A0 PUSH2 0x4C2 JUMP JUMPDEST DUP1 PUSH2 0x2AB JUMPI POP PUSH2 0x2D4 JUMP JUMPDEST PUSH1 0x40 MLOAD PUSH1 0x0 DUP2 MSTORE PUSH1 0x0 DUP1 MLOAD PUSH1 0x20 PUSH2 0x54D DUP4 CODECOPY DUP2 MLOAD SWAP2 MSTORE SWAP1 PUSH1 0x20 ADD PUSH1 0x40 MLOAD DUP1 SWAP2 SUB SWAP1 LOG1 POP POP POP JUMP JUMPDEST POP JUMPDEST PUSH1 0x40 MLOAD PUSH1 0x0 DUP2 MSTORE PUSH1 0x0 DUP1 MLOAD PUSH1 0x20 PUSH2 0x54D DUP4 CODECOPY DUP2 MLOAD SWAP2 MSTORE SWAP1 PUSH1 0x20 ADD PUSH2 0x11E JUMP JUMPDEST DUP1 CALLDATALOAD PUSH1 0x1 PUSH1 0x1 PUSH1 0xA0 SHL SUB DUP2 AND DUP2 EQ PUSH2 0x30A JUMPI PUSH1 0x0 DUP1 REVERT JUMPDEST SWAP2 SWAP1 POP JUMP JUMPDEST PUSH1 0x0 DUP1 PUSH1 0x40 DUP4 DUP6 SUB SLT ISZERO PUSH2 0x322 JUMPI PUSH1 0x0 DUP1 REVERT JUMPDEST PUSH2 0x32B DUP4 PUSH2 0x2F3 JUMP JUMPDEST SWAP5 PUSH1 0x20 SWAP4 SWAP1 SWAP4 ADD CALLDATALOAD SWAP4 POP POP POP JUMP JUMPDEST PUSH1 0x0 PUSH1 0x20 DUP3 DUP5 SUB SLT ISZERO PUSH2 0x34B JUMPI PUSH1 0x0 DUP1 REVERT JUMPDEST PUSH2 0x354 DUP3 PUSH2 0x2F3 JUMP JUMPDEST SWAP4 SWAP3 POP POP POP JUMP JUMPDEST PUSH4 0x4E487B71 PUSH1 0xE0 SHL PUSH1 0x0 MSTORE PUSH1 0x41 PUSH1 0x4 MSTORE PUSH1 0x24 PUSH1 0x0 REVERT JUMPDEST PUSH1 0x1F DUP3 ADD PUSH1 0x1F NOT AND DUP2 ADD PUSH8 0xFFFFFFFFFFFFFFFF DUP2 GT DUP3 DUP3 LT OR ISZERO PUSH2 0x397 JUMPI PUSH2 0x397 PUSH2 0x35B JUMP JUMPDEST PUSH1 0x40 MSTORE POP POP JUMP JUMPDEST PUSH1 0x0 DUP1 PUSH1 0x40 DUP4 DUP6 SUB SLT ISZERO PUSH2 0x3B1 JUMPI PUSH1 0x0 DUP1 REVERT JUMPDEST PUSH2 0x3BA DUP4 PUSH2 0x2F3 JUMP JUMPDEST SWAP2 POP PUSH1 0x20 DUP1 DUP5 ADD CALLDATALOAD PUSH8 0xFFFFFFFFFFFFFFFF DUP1 DUP3 GT ISZERO PUSH2 0x3D8 JUMPI PUSH1 0x0 DUP1 REVERT JUMPDEST DUP2 DUP7 ADD SWAP2 POP DUP7 PUSH1 0x1F DUP4 ADD SLT PUSH2 0x3EC JUMPI PUSH1 0x0 DUP1 REVERT JUMPDEST DUP2 CALLDATALOAD DUP2 DUP2 GT ISZERO PUSH2 0x3FE JUMPI PUSH2 0x3FE PUSH2 0x35B JUMP JUMPDEST PUSH1 0x40 MLOAD SWAP2 POP PUSH2 0x416 PUSH1 0x1F DUP3 ADD PUSH1 0x1F NOT AND DUP6 ADD DUP4 PUSH2 0x371 JUMP JUMPDEST DUP1 DUP3 MSTORE DUP8 DUP5 DUP3 DUP6 ADD ADD GT ISZERO PUSH2 0x42A JUMPI PUSH1 0x0 DUP1 REVERT JUMPDEST DUP1 DUP5 DUP5 ADD DUP6 DUP5 ADD CALLDATACOPY PUSH1 0x0 DUP5 DUP3 DUP5 ADD ADD MSTORE POP DUP1 SWAP4 POP POP POP POP SWAP3 POP SWAP3 SWAP1 POP JUMP JUMPDEST PUSH1 0x1 DUP1 PUSH1 0xA0 SHL SUB DUP4 AND DUP2 MSTORE PUSH1 0x0 PUSH1 0x20 PUSH1 0x40 DUP2 DUP5 ADD MSTORE DUP4 MLOAD DUP1 PUSH1 0x40 DUP6 ADD MSTORE PUSH1 0x0 JUMPDEST DUP2 DUP2 LT ISZERO PUSH2 0x484 JUMPI DUP6 DUP2 ADD DUP4 ADD MLOAD DUP6 DUP3 ADD PUSH1 0x60 ADD MSTORE DUP3 ADD PUSH2 0x468 JUMP JUMPDEST POP PUSH1 0x0 PUSH1 0x60 DUP3 DUP7 ADD ADD MSTORE PUSH1 0x60 PUSH1 0x1F NOT PUSH1 0x1F DUP4 ADD AND DUP6 ADD ADD SWAP3 POP POP POP SWAP4 SWAP3 POP POP POP JUMP JUMPDEST PUSH1 0x0 PUSH1 0x3 RETURNDATASIZE GT ISZERO PUSH2 0x4BF JUMPI PUSH1 0x4 PUSH1 0x0 DUP1 RETURNDATACOPY POP PUSH1 0x0 MLOAD PUSH1 0xE0 SHR JUMPDEST SWAP1 JUMP JUMPDEST PUSH1 0x0 PUSH1 0x44 RETURNDATASIZE LT ISZERO PUSH2 0x4D0 JUMPI SWAP1 JUMP JUMPDEST PUSH1 0x40 MLOAD PUSH1 0x3 NOT RETURNDATASIZE DUP2 ADD PUSH1 0x4 DUP4 RETURNDATACOPY DUP2 MLOAD RETURNDATASIZE PUSH8 0xFFFFFFFFFFFFFFFF DUP2 PUSH1 0x24 DUP5 ADD GT DUP2 DUP5 GT OR ISZERO PUSH2 0x500 JUMPI POP POP POP POP POP SWAP1 JUMP JUMPDEST DUP3 DUP6 ADD SWAP2 POP DUP2 MLOAD DUP2 DUP2 GT ISZERO PUSH2 0x518 JUMPI POP POP POP POP POP POP SWAP1 JUMP JUMPDEST DUP5 RETURNDATASIZE DUP8 ADD ADD PUSH1 0x20 DUP3 DUP6 ADD ADD GT ISZERO PUSH2 0x532 JUMPI POP POP POP POP POP POP SWAP1 JUMP JUMPDEST PUSH2 0x541 PUSH1 0x20 DUP3 DUP7 ADD ADD DUP8 PUSH2 0x371 JUMP JUMPDEST POP SWAP1 SWAP6 SWAP5 POP POP POP POP POP JUMP INVALID 0xED SWAP9 BLOCKHASH 0xE0 PUSH24 0x5590557AD736875D96C95CF1458B766335F74339951A32C8 0x2A SWAP15 CALLER LOG2 PUSH5 0x6970667358 0x22 SLT KECCAK256 DUP13 TIMESTAMP DUP11 JUMPDEST 0x4C 0xC5 RETURNDATASIZE EQ EXTCODESIZE MULMOD 0x4A 0xC3 GASPRICE 0xBB 0xC0 0x28 SWAP9 0xCC 0xC8 CALLER CALLDATALOAD 0xC6 CALL PUSH12 0xB3F292299228C7CA64736F6C PUSH4 0x43000815 STOP CALLER ","sha1":"7153722e19ff80ed834d58bb1c14d6540deb16f2","source":"// SPDX-License-Identifier: MIT\npragma solidity ^0.8.0;\n\ninterface ISystemContract {\n    function addToWhitelist(address _address, string calldata anonID) external;\n    function setHourlyTxQuota(address _address, uint256 _quota) external;\n    function removeFromWhitelist(address _address) external;\n    function incrementMinutesPlayed(address user, uint256 _minutes) external;\n}\n\ncontract WhitelistTest {\n    ISystemContract systemContract;\n\n    event OperationResult(bool success);\n\n    constructor() {\n        systemContract = ISystemContract(0x86989606A88841E2Fb56787806a5f7a3A89641e2);\n    }\n\n    function addAddressToWhitelist(address _address, string memory anonID) public {\n        try systemContract.addToWhitelist(_address, anonID) {\n            emit OperationResult(true);\n        } catch Error(string memory reason) {\n            // This catches failures specifically from revert statements\n            emit OperationResult(false);\n        } catch {\n            // This catches other types of failures (e.g., out-of-gas, etc.)\n            emit OperationResult(false);\n        }\n    }\n\n    function setQuotaForAddress(address _address, uint256 _quota) public {\n        try systemContract.setHourlyTxQuota(_address, _quota) {\n            emit OperationResult(true);\n        } catch {\n            emit OperationResult(false);\n        }\n    }\n\n    function removeAddressFromWhitelist(address _address) public {\n        try systemContract.removeFromWhitelist(_address) {\n            emit OperationResult(true);\n        } catch {\n            emit OperationResult(false);\n        }\n    }\n\n    function addMinutesPlayed(address user, uint256 _minutes) public {\n        try systemContract.incrementMinutesPlayed(user, _minutes) {\n            emit OperationResult(true);\n        } catch {\n            emit OperationResult(false);\n        }\n    }\n}\n","sourcePath":"contracts/Whitelist_test.sol","deployment":{"address":"0x948e7B62804b676Fe0196bCA4fEE7da7d5b8aBBa","chainid":"86098","blockHeight":369}}