{"abi":[{"inputs":[],"stateMutability":"nonpayable","type":"constructor","name":"constructor"},{"anonymous":false,"inputs":[{"indexed":false,"internalType":"string","name":"action","type":"string"},{"indexed":false,"internalType":"string","name":"error","type":"string"}],"name":"ErrorCaught","type":"event"},{"anonymous":false,"inputs":[{"indexed":false,"internalType":"bool","name":"success","type":"bool"},{"indexed":false,"internalType":"string","name":"message","type":"string"}],"name":"OperationResult","type":"event"},{"inputs":[{"internalType":"address","name":"_address","type":"address"},{"internalType":"string","name":"anonID","type":"string"}],"name":"addAddressToWhitelist","outputs":[],"stateMutability":"nonpayable","type":"function"},{"inputs":[{"internalType":"address","name":"user","type":"address"},{"internalType":"uint256","name":"_minutes","type":"uint256"}],"name":"addMinutesPlayed","outputs":[],"stateMutability":"nonpayable","type":"function"},{"inputs":[{"internalType":"address","name":"_address","type":"address"}],"name":"removeAddressFromWhitelist","outputs":[],"stateMutability":"nonpayable","type":"function"},{"inputs":[{"internalType":"address","name":"_address","type":"address"},{"internalType":"uint256","name":"_quota","type":"uint256"}],"name":"setQuotaForAddress","outputs":[],"stateMutability":"nonpayable","type":"function"}],"bytecode":"608060405234801561001057600080fd5b50600080546001600160a01b03191673d8c7938087d17e3b72d545e99d47cab0199d6bb8179055610cd0806100466000396000f3fe608060405234801561001057600080fd5b506004361061004c5760003560e01c806306d6e51e14610051578063286dd3f514610066578063336e204f14610079578063e6d4d2171461008c575b600080fd5b61006461005f36600461081e565b61009f565b005b610064610074366004610848565b61028a565b61006461008736600461081e565b61046a565b61006461009a3660046108ad565b610644565b60005460405163d47b2e9960e01b81526001600160a01b038481166004830152602482018490529091169063d47b2e9990604401600060405180830381600087803b1580156100ed57600080fd5b505af19250505080156100fe575060015b6102295761010a610957565b806308c379a00361017b575061011e610973565b80610129575061017d565b600080516020610c7b833981519152600082604051610149929190610a43565b60405180910390a1600080516020610c5b8339815191528160405161016e9190610a66565b60405180910390a1505050565b505b600080516020610c7b83398151915260006040516101fa9115158152604060208201819052603e908201527f696e6372656d656e744d696e75746573506c61796564206661696c656420776960608201527f74686f757420612073706563696669632072657665727420726561736f6e0000608082015260a00190565b60405180910390a1600080516020610c5b83398151915260405161021d90610aa8565b60405180910390a15050565b600080516020610c7b833981519152600160405161021d91151581526040602082018190526021908201527f4d696e7574657320706c61796564206164646564207375636365737366756c6c6060820152607960f81b608082015260a00190565b600054604051638ab1d68160e01b81526001600160a01b03838116600483015290911690638ab1d68190602401600060405180830381600087803b1580156102d157600080fd5b505af19250505080156102e2575060015b6103ff576102ee610957565b806308c379a0036103525750610302610973565b8061030d5750610354565b600080516020610c7b83398151915260008260405161032d929190610a43565b60405180910390a1600080516020610c5b8339815191528160405161021d9190610b06565b505b600080516020610c7b83398151915260006040516103d19115158152604060208201819052603b908201527f72656d6f766546726f6d57686974656c697374206661696c656420776974686f60608201527f757420612073706563696669632072657665727420726561736f6e0000000000608082015260a00190565b60405180910390a1600080516020610c5b8339815191526040516103f490610b39565b60405180910390a150565b600080516020610c7b83398151915260016040516103f49115158152604060208201819052602b908201527f41646472657373207375636365737366756c6c792072656d6f7665642066726f60608201526a1b481dda1a5d195b1a5cdd60aa1b608082015260a00190565b600054604051636118b1c360e01b81526001600160a01b0384811660048301526024820184905290911690636118b1c390604401600060405180830381600087803b1580156104b857600080fd5b505af19250505080156104c9575060015b6105db576104d5610957565b806308c379a00361053957506104e9610973565b806104f4575061053b565b600080516020610c7b833981519152600082604051610514929190610a43565b60405180910390a1600080516020610c5b8339815191528160405161016e9190610b6c565b505b600080516020610c7b83398151915260006040516105b891151581526040602082018190526038908201527f736574486f75726c79547851756f7461206661696c656420776974686f75742060608201527f612073706563696669632072657665727420726561736f6e0000000000000000608082015260a00190565b60405180910390a1600080516020610c5b83398151915260405161021d90610b9c565b600080516020610c7b833981519152600160405161021d91151581526040602082018190526029908201527f486f75726c79207472616e73616374696f6e2071756f746120736574207375636060820152686365737366756c6c7960b81b608082015260a00190565b600054604051630d299ed560e11b81526001600160a01b0390911690631a533daa906106769085908590600401610bcc565b600060405180830381600087803b15801561069057600080fd5b505af19250505080156106a1575060015b6107ac576106ad610957565b806308c379a00361071157506106c1610973565b806106cc5750610713565b600080516020610c7b8339815191526000826040516106ec929190610a43565b60405180910390a1600080516020610c5b8339815191528160405161016e9190610bf0565b505b600080516020610c7b833981519152600060405161078991151581526040602082018190526036908201527f616464546f57686974656c697374206661696c656420776974686f757420612060608201527539b832b1b4b334b1903932bb32b93a103932b0b9b7b760511b608082015260a00190565b60405180910390a1600080516020610c5b83398151915260405161021d90610c25565b600080516020610c7b833981519152600160405161021d911515815260406020808301829052908201527f41646472657373207375636365737366756c6c792077686974656c6973746564606082015260800190565b80356001600160a01b038116811461081957600080fd5b919050565b6000806040838503121561083157600080fd5b61083a83610802565b946020939093013593505050565b60006020828403121561085a57600080fd5b61086382610802565b9392505050565b634e487b7160e01b600052604160045260246000fd5b601f8201601f1916810167ffffffffffffffff811182821017156108a6576108a661086a565b6040525050565b600080604083850312156108c057600080fd5b6108c983610802565b915060208084013567ffffffffffffffff808211156108e757600080fd5b818601915086601f8301126108fb57600080fd5b81358181111561090d5761090d61086a565b6040519150610925601f8201601f1916850183610880565b808252878482850101111561093957600080fd5b80848401858401376000848284010152508093505050509250929050565b600060033d11156109705760046000803e5060005160e01c5b90565b600060443d10156109815790565b6040516003193d81016004833e81513d67ffffffffffffffff81602484011181841117156109b157505050505090565b82850191508151818111156109c95750505050505090565b843d87010160208285010111156109e35750505050505090565b6109f260208286010187610880565b509095945050505050565b6000815180845260005b81811015610a2357602081850181015186830182015201610a07565b506000602082860101526020601f19601f83011685010191505092915050565b8215158152604060208201526000610a5e60408301846109fd565b949350505050565b604081526000610a9660408301601081526f185919135a5b9d5d195cd41b185e595960821b602082015260400190565b8281036020840152610a5e81856109fd565b604081526000610ad860408301601081526f185919135a5b9d5d195cd41b185e595960821b602082015260400190565b828103602084015261086381600f81526e556e6b6e6f776e206661696c75726560881b602082015260400190565b604081526000610a966040830160138152721c995b5bdd99519c9bdb55da1a5d195b1a5cdd606a1b602082015260400190565b604081526000610ad86040830160138152721c995b5bdd99519c9bdb55da1a5d195b1a5cdd606a1b602082015260400190565b604081526000610a9660408301601081526f736574486f75726c79547851756f746160801b602082015260400190565b604081526000610ad860408301601081526f736574486f75726c79547851756f746160801b602082015260400190565b6001600160a01b0383168152604060208201819052600090610a5e908301846109fd565b604081526000610a966040830160158152741859191059191c995cdcd51bd5da1a5d195b1a5cdd605a1b602082015260400190565b604081526000610ad86040830160158152741859191059191c995cdcd51bd5da1a5d195b1a5cdd605a1b60208201526040019056fef00fda5e9c179d3911a7894f0560c8ebfa4926cbcc2cf5169adb000b440cc9a4d353110df4eda5869325be482c3fdd2f26ccbccc779d11b2d7afac5c7c5eb19da26469706673582212208891d679c0c34c33b76c0789e04717c469e1a475f716400e039c1c83bb9c538164736f6c63430008150033","bytecodeSha1":"e76b3c1dec63c9b48f7756bab3b41091f5995eab","compiler":{"evm_version":"istanbul","optimizer":{"enabled":true,"runs":200},"version":"0.8.21+commit.d9974bed"},"contractName":"WhitelistTest","language":"Solidity","natspec":{"kind":"dev","methods":{},"version":1},"opcodes":"PUSH1 0x80 PUSH1 0x40 MSTORE CALLVALUE DUP1 ISZERO PUSH2 0x10 JUMPI PUSH1 0x0 DUP1 REVERT JUMPDEST POP PUSH1 0x4 CALLDATASIZE LT PUSH2 0x4C JUMPI PUSH1 0x0 CALLDATALOAD PUSH1 0xE0 SHR DUP1 PUSH4 0x6D6E51E EQ PUSH2 0x51 JUMPI DUP1 PUSH4 0x286DD3F5 EQ PUSH2 0x66 JUMPI DUP1 PUSH4 0x336E204F EQ PUSH2 0x79 JUMPI DUP1 PUSH4 0xE6D4D217 EQ PUSH2 0x8C JUMPI JUMPDEST PUSH1 0x0 DUP1 REVERT JUMPDEST PUSH2 0x64 PUSH2 0x5F CALLDATASIZE PUSH1 0x4 PUSH2 0x81E JUMP JUMPDEST PUSH2 0x9F JUMP JUMPDEST STOP JUMPDEST PUSH2 0x64 PUSH2 0x74 CALLDATASIZE PUSH1 0x4 PUSH2 0x848 JUMP JUMPDEST PUSH2 0x28A JUMP JUMPDEST PUSH2 0x64 PUSH2 0x87 CALLDATASIZE PUSH1 0x4 PUSH2 0x81E JUMP JUMPDEST PUSH2 0x46A JUMP JUMPDEST PUSH2 0x64 PUSH2 0x9A CALLDATASIZE PUSH1 0x4 PUSH2 0x8AD JUMP JUMPDEST PUSH2 0x644 JUMP JUMPDEST PUSH1 0x0 SLOAD PUSH1 0x40 MLOAD PUSH4 0xD47B2E99 PUSH1 0xE0 SHL DUP2 MSTORE PUSH1 0x1 PUSH1 0x1 PUSH1 0xA0 SHL SUB DUP5 DUP2 AND PUSH1 0x4 DUP4 ADD MSTORE PUSH1 0x24 DUP3 ADD DUP5 SWAP1 MSTORE SWAP1 SWAP2 AND SWAP1 PUSH4 0xD47B2E99 SWAP1 PUSH1 0x44 ADD PUSH1 0x0 PUSH1 0x40 MLOAD DUP1 DUP4 SUB DUP2 PUSH1 0x0 DUP8 DUP1 EXTCODESIZE ISZERO DUP1 ISZERO PUSH2 0xED JUMPI PUSH1 0x0 DUP1 REVERT JUMPDEST POP GAS CALL SWAP3 POP POP POP DUP1 ISZERO PUSH2 0xFE JUMPI POP PUSH1 0x1 JUMPDEST PUSH2 0x229 JUMPI PUSH2 0x10A PUSH2 0x957 JUMP JUMPDEST DUP1 PUSH4 0x8C379A0 SUB PUSH2 0x17B JUMPI POP PUSH2 0x11E PUSH2 0x973 JUMP JUMPDEST DUP1 PUSH2 0x129 JUMPI POP PUSH2 0x17D JUMP JUMPDEST PUSH1 0x0 DUP1 MLOAD PUSH1 0x20 PUSH2 0xC7B DUP4 CODECOPY DUP2 MLOAD SWAP2 MSTORE PUSH1 0x0 DUP3 PUSH1 0x40 MLOAD PUSH2 0x149 SWAP3 SWAP2 SWAP1 PUSH2 0xA43 JUMP JUMPDEST PUSH1 0x40 MLOAD DUP1 SWAP2 SUB SWAP1 LOG1 PUSH1 0x0 DUP1 MLOAD PUSH1 0x20 PUSH2 0xC5B DUP4 CODECOPY DUP2 MLOAD SWAP2 MSTORE DUP2 PUSH1 0x40 MLOAD PUSH2 0x16E SWAP2 SWAP1 PUSH2 0xA66 JUMP JUMPDEST PUSH1 0x40 MLOAD DUP1 SWAP2 SUB SWAP1 LOG1 POP POP POP JUMP JUMPDEST POP JUMPDEST PUSH1 0x0 DUP1 MLOAD PUSH1 0x20 PUSH2 0xC7B DUP4 CODECOPY DUP2 MLOAD SWAP2 MSTORE PUSH1 0x0 PUSH1 0x40 MLOAD PUSH2 0x1FA SWAP2 ISZERO ISZERO DUP2 MSTORE PUSH1 0x40 PUSH1 0x20 DUP3 ADD DUP2 SWAP1 MSTORE PUSH1 0x3E SWAP1 DUP3 ADD MSTORE PUSH32 0x696E6372656D656E744D696E75746573506C61796564206661696C6564207769 PUSH1 0x60 DUP3 ADD MSTORE PUSH32 0x74686F757420612073706563696669632072657665727420726561736F6E0000 PUSH1 0x80 DUP3 ADD MSTORE PUSH1 0xA0 ADD SWAP1 JUMP JUMPDEST PUSH1 0x40 MLOAD DUP1 SWAP2 SUB SWAP1 LOG1 PUSH1 0x0 DUP1 MLOAD PUSH1 0x20 PUSH2 0xC5B DUP4 CODECOPY DUP2 MLOAD SWAP2 MSTORE PUSH1 0x40 MLOAD PUSH2 0x21D SWAP1 PUSH2 0xAA8 JUMP JUMPDEST PUSH1 0x40 MLOAD DUP1 SWAP2 SUB SWAP1 LOG1 POP POP JUMP JUMPDEST PUSH1 0x0 DUP1 MLOAD PUSH1 0x20 PUSH2 0xC7B DUP4 CODECOPY DUP2 MLOAD SWAP2 MSTORE PUSH1 0x1 PUSH1 0x40 MLOAD PUSH2 0x21D SWAP2 ISZERO ISZERO DUP2 MSTORE PUSH1 0x40 PUSH1 0x20 DUP3 ADD DUP2 SWAP1 MSTORE PUSH1 0x21 SWAP1 DUP3 ADD MSTORE PUSH32 0x4D696E7574657320706C61796564206164646564207375636365737366756C6C PUSH1 0x60 DUP3 ADD MSTORE PUSH1 0x79 PUSH1 0xF8 SHL PUSH1 0x80 DUP3 ADD MSTORE PUSH1 0xA0 ADD SWAP1 JUMP JUMPDEST PUSH1 0x0 SLOAD PUSH1 0x40 MLOAD PUSH4 0x8AB1D681 PUSH1 0xE0 SHL DUP2 MSTORE PUSH1 0x1 PUSH1 0x1 PUSH1 0xA0 SHL SUB DUP4 DUP2 AND PUSH1 0x4 DUP4 ADD MSTORE SWAP1 SWAP2 AND SWAP1 PUSH4 0x8AB1D681 SWAP1 PUSH1 0x24 ADD PUSH1 0x0 PUSH1 0x40 MLOAD DUP1 DUP4 SUB DUP2 PUSH1 0x0 DUP8 DUP1 EXTCODESIZE ISZERO DUP1 ISZERO PUSH2 0x2D1 JUMPI PUSH1 0x0 DUP1 REVERT JUMPDEST POP GAS CALL SWAP3 POP POP POP DUP1 ISZERO PUSH2 0x2E2 JUMPI POP PUSH1 0x1 JUMPDEST PUSH2 0x3FF JUMPI PUSH2 0x2EE PUSH2 0x957 JUMP JUMPDEST DUP1 PUSH4 0x8C379A0 SUB PUSH2 0x352 JUMPI POP PUSH2 0x302 PUSH2 0x973 JUMP JUMPDEST DUP1 PUSH2 0x30D JUMPI POP PUSH2 0x354 JUMP JUMPDEST PUSH1 0x0 DUP1 MLOAD PUSH1 0x20 PUSH2 0xC7B DUP4 CODECOPY DUP2 MLOAD SWAP2 MSTORE PUSH1 0x0 DUP3 PUSH1 0x40 MLOAD PUSH2 0x32D SWAP3 SWAP2 SWAP1 PUSH2 0xA43 JUMP JUMPDEST PUSH1 0x40 MLOAD DUP1 SWAP2 SUB SWAP1 LOG1 PUSH1 0x0 DUP1 MLOAD PUSH1 0x20 PUSH2 0xC5B DUP4 CODECOPY DUP2 MLOAD SWAP2 MSTORE DUP2 PUSH1 0x40 MLOAD PUSH2 0x21D SWAP2 SWAP1 PUSH2 0xB06 JUMP JUMPDEST POP JUMPDEST PUSH1 0x0 DUP1 MLOAD PUSH1 0x20 PUSH2 0xC7B DUP4 CODECOPY DUP2 MLOAD SWAP2 MSTORE PUSH1 0x0 PUSH1 0x40 MLOAD PUSH2 0x3D1 SWAP2 ISZERO ISZERO DUP2 MSTORE PUSH1 0x40 PUSH1 0x20 DUP3 ADD DUP2 SWAP1 MSTORE PUSH1 0x3B SWAP1 DUP3 ADD MSTORE PUSH32 0x72656D6F766546726F6D57686974656C697374206661696C656420776974686F PUSH1 0x60 DUP3 ADD MSTORE PUSH32 0x757420612073706563696669632072657665727420726561736F6E0000000000 PUSH1 0x80 DUP3 ADD MSTORE PUSH1 0xA0 ADD SWAP1 JUMP JUMPDEST PUSH1 0x40 MLOAD DUP1 SWAP2 SUB SWAP1 LOG1 PUSH1 0x0 DUP1 MLOAD PUSH1 0x20 PUSH2 0xC5B DUP4 CODECOPY DUP2 MLOAD SWAP2 MSTORE PUSH1 0x40 MLOAD PUSH2 0x3F4 SWAP1 PUSH2 0xB39 JUMP JUMPDEST PUSH1 0x40 MLOAD DUP1 SWAP2 SUB SWAP1 LOG1 POP JUMP JUMPDEST PUSH1 0x0 DUP1 MLOAD PUSH1 0x20 PUSH2 0xC7B DUP4 CODECOPY DUP2 MLOAD SWAP2 MSTORE PUSH1 0x1 PUSH1 0x40 MLOAD PUSH2 0x3F4 SWAP2 ISZERO ISZERO DUP2 MSTORE PUSH1 0x40 PUSH1 0x20 DUP3 ADD DUP2 SWAP1 MSTORE PUSH1 0x2B SWAP1 DUP3 ADD MSTORE PUSH32 0x41646472657373207375636365737366756C6C792072656D6F7665642066726F PUSH1 0x60 DUP3 ADD MSTORE PUSH11 0x1B481DDA1A5D195B1A5CDD PUSH1 0xAA SHL PUSH1 0x80 DUP3 ADD MSTORE PUSH1 0xA0 ADD SWAP1 JUMP JUMPDEST PUSH1 0x0 SLOAD PUSH1 0x40 MLOAD PUSH4 0x6118B1C3 PUSH1 0xE0 SHL DUP2 MSTORE PUSH1 0x1 PUSH1 0x1 PUSH1 0xA0 SHL SUB DUP5 DUP2 AND PUSH1 0x4 DUP4 ADD MSTORE PUSH1 0x24 DUP3 ADD DUP5 SWAP1 MSTORE SWAP1 SWAP2 AND SWAP1 PUSH4 0x6118B1C3 SWAP1 PUSH1 0x44 ADD PUSH1 0x0 PUSH1 0x40 MLOAD DUP1 DUP4 SUB DUP2 PUSH1 0x0 DUP8 DUP1 EXTCODESIZE ISZERO DUP1 ISZERO PUSH2 0x4B8 JUMPI PUSH1 0x0 DUP1 REVERT JUMPDEST POP GAS CALL SWAP3 POP POP POP DUP1 ISZERO PUSH2 0x4C9 JUMPI POP PUSH1 0x1 JUMPDEST PUSH2 0x5DB JUMPI PUSH2 0x4D5 PUSH2 0x957 JUMP JUMPDEST DUP1 PUSH4 0x8C379A0 SUB PUSH2 0x539 JUMPI POP PUSH2 0x4E9 PUSH2 0x973 JUMP JUMPDEST DUP1 PUSH2 0x4F4 JUMPI POP PUSH2 0x53B JUMP JUMPDEST PUSH1 0x0 DUP1 MLOAD PUSH1 0x20 PUSH2 0xC7B DUP4 CODECOPY DUP2 MLOAD SWAP2 MSTORE PUSH1 0x0 DUP3 PUSH1 0x40 MLOAD PUSH2 0x514 SWAP3 SWAP2 SWAP1 PUSH2 0xA43 JUMP JUMPDEST PUSH1 0x40 MLOAD DUP1 SWAP2 SUB SWAP1 LOG1 PUSH1 0x0 DUP1 MLOAD PUSH1 0x20 PUSH2 0xC5B DUP4 CODECOPY DUP2 MLOAD SWAP2 MSTORE DUP2 PUSH1 0x40 MLOAD PUSH2 0x16E SWAP2 SWAP1 PUSH2 0xB6C JUMP JUMPDEST POP JUMPDEST PUSH1 0x0 DUP1 MLOAD PUSH1 0x20 PUSH2 0xC7B DUP4 CODECOPY DUP2 MLOAD SWAP2 MSTORE PUSH1 0x0 PUSH1 0x40 MLOAD PUSH2 0x5B8 SWAP2 ISZERO ISZERO DUP2 MSTORE PUSH1 0x40 PUSH1 0x20 DUP3 ADD DUP2 SWAP1 MSTORE PUSH1 0x38 SWAP1 DUP3 ADD MSTORE PUSH32 0x736574486F75726C79547851756F7461206661696C656420776974686F757420 PUSH1 0x60 DUP3 ADD MSTORE PUSH32 0x612073706563696669632072657665727420726561736F6E0000000000000000 PUSH1 0x80 DUP3 ADD MSTORE PUSH1 0xA0 ADD SWAP1 JUMP JUMPDEST PUSH1 0x40 MLOAD DUP1 SWAP2 SUB SWAP1 LOG1 PUSH1 0x0 DUP1 MLOAD PUSH1 0x20 PUSH2 0xC5B DUP4 CODECOPY DUP2 MLOAD SWAP2 MSTORE PUSH1 0x40 MLOAD PUSH2 0x21D SWAP1 PUSH2 0xB9C JUMP JUMPDEST PUSH1 0x0 DUP1 MLOAD PUSH1 0x20 PUSH2 0xC7B DUP4 CODECOPY DUP2 MLOAD SWAP2 MSTORE PUSH1 0x1 PUSH1 0x40 MLOAD PUSH2 0x21D SWAP2 ISZERO ISZERO DUP2 MSTORE PUSH1 0x40 PUSH1 0x20 DUP3 ADD DUP2 SWAP1 MSTORE PUSH1 0x29 SWAP1 DUP3 ADD MSTORE PUSH32 0x486F75726C79207472616E73616374696F6E2071756F74612073657420737563 PUSH1 0x60 DUP3 ADD MSTORE PUSH9 0x6365737366756C6C79 PUSH1 0xB8 SHL PUSH1 0x80 DUP3 ADD MSTORE PUSH1 0xA0 ADD SWAP1 JUMP JUMPDEST PUSH1 0x0 SLOAD PUSH1 0x40 MLOAD PUSH4 0xD299ED5 PUSH1 0xE1 SHL DUP2 MSTORE PUSH1 0x1 PUSH1 0x1 PUSH1 0xA0 SHL SUB SWAP1 SWAP2 AND SWAP1 PUSH4 0x1A533DAA SWAP1 PUSH2 0x676 SWAP1 DUP6 SWAP1 DUP6 SWAP1 PUSH1 0x4 ADD PUSH2 0xBCC JUMP JUMPDEST PUSH1 0x0 PUSH1 0x40 MLOAD DUP1 DUP4 SUB DUP2 PUSH1 0x0 DUP8 DUP1 EXTCODESIZE ISZERO DUP1 ISZERO PUSH2 0x690 JUMPI PUSH1 0x0 DUP1 REVERT JUMPDEST POP GAS CALL SWAP3 POP POP POP DUP1 ISZERO PUSH2 0x6A1 JUMPI POP PUSH1 0x1 JUMPDEST PUSH2 0x7AC JUMPI PUSH2 0x6AD PUSH2 0x957 JUMP JUMPDEST DUP1 PUSH4 0x8C379A0 SUB PUSH2 0x711 JUMPI POP PUSH2 0x6C1 PUSH2 0x973 JUMP JUMPDEST DUP1 PUSH2 0x6CC JUMPI POP PUSH2 0x713 JUMP JUMPDEST PUSH1 0x0 DUP1 MLOAD PUSH1 0x20 PUSH2 0xC7B DUP4 CODECOPY DUP2 MLOAD SWAP2 MSTORE PUSH1 0x0 DUP3 PUSH1 0x40 MLOAD PUSH2 0x6EC SWAP3 SWAP2 SWAP1 PUSH2 0xA43 JUMP JUMPDEST PUSH1 0x40 MLOAD DUP1 SWAP2 SUB SWAP1 LOG1 PUSH1 0x0 DUP1 MLOAD PUSH1 0x20 PUSH2 0xC5B DUP4 CODECOPY DUP2 MLOAD SWAP2 MSTORE DUP2 PUSH1 0x40 MLOAD PUSH2 0x16E SWAP2 SWAP1 PUSH2 0xBF0 JUMP JUMPDEST POP JUMPDEST PUSH1 0x0 DUP1 MLOAD PUSH1 0x20 PUSH2 0xC7B DUP4 CODECOPY DUP2 MLOAD SWAP2 MSTORE PUSH1 0x0 PUSH1 0x40 MLOAD PUSH2 0x789 SWAP2 ISZERO ISZERO DUP2 MSTORE PUSH1 0x40 PUSH1 0x20 DUP3 ADD DUP2 SWAP1 MSTORE PUSH1 0x36 SWAP1 DUP3 ADD MSTORE PUSH32 0x616464546F57686974656C697374206661696C656420776974686F7574206120 PUSH1 0x60 DUP3 ADD MSTORE PUSH22 0x39B832B1B4B334B1903932BB32B93A103932B0B9B7B7 PUSH1 0x51 SHL PUSH1 0x80 DUP3 ADD MSTORE PUSH1 0xA0 ADD SWAP1 JUMP JUMPDEST PUSH1 0x40 MLOAD DUP1 SWAP2 SUB SWAP1 LOG1 PUSH1 0x0 DUP1 MLOAD PUSH1 0x20 PUSH2 0xC5B DUP4 CODECOPY DUP2 MLOAD SWAP2 MSTORE PUSH1 0x40 MLOAD PUSH2 0x21D SWAP1 PUSH2 0xC25 JUMP JUMPDEST PUSH1 0x0 DUP1 MLOAD PUSH1 0x20 PUSH2 0xC7B DUP4 CODECOPY DUP2 MLOAD SWAP2 MSTORE PUSH1 0x1 PUSH1 0x40 MLOAD PUSH2 0x21D SWAP2 ISZERO ISZERO DUP2 MSTORE PUSH1 0x40 PUSH1 0x20 DUP1 DUP4 ADD DUP3 SWAP1 MSTORE SWAP1 DUP3 ADD MSTORE PUSH32 0x41646472657373207375636365737366756C6C792077686974656C6973746564 PUSH1 0x60 DUP3 ADD MSTORE PUSH1 0x80 ADD SWAP1 JUMP JUMPDEST DUP1 CALLDATALOAD PUSH1 0x1 PUSH1 0x1 PUSH1 0xA0 SHL SUB DUP2 AND DUP2 EQ PUSH2 0x819 JUMPI PUSH1 0x0 DUP1 REVERT JUMPDEST SWAP2 SWAP1 POP JUMP JUMPDEST PUSH1 0x0 DUP1 PUSH1 0x40 DUP4 DUP6 SUB SLT ISZERO PUSH2 0x831 JUMPI PUSH1 0x0 DUP1 REVERT JUMPDEST PUSH2 0x83A DUP4 PUSH2 0x802 JUMP JUMPDEST SWAP5 PUSH1 0x20 SWAP4 SWAP1 SWAP4 ADD CALLDATALOAD SWAP4 POP POP POP JUMP JUMPDEST PUSH1 0x0 PUSH1 0x20 DUP3 DUP5 SUB SLT ISZERO PUSH2 0x85A JUMPI PUSH1 0x0 DUP1 REVERT JUMPDEST PUSH2 0x863 DUP3 PUSH2 0x802 JUMP JUMPDEST SWAP4 SWAP3 POP POP POP JUMP JUMPDEST PUSH4 0x4E487B71 PUSH1 0xE0 SHL PUSH1 0x0 MSTORE PUSH1 0x41 PUSH1 0x4 MSTORE PUSH1 0x24 PUSH1 0x0 REVERT JUMPDEST PUSH1 0x1F DUP3 ADD PUSH1 0x1F NOT AND DUP2 ADD PUSH8 0xFFFFFFFFFFFFFFFF DUP2 GT DUP3 DUP3 LT OR ISZERO PUSH2 0x8A6 JUMPI PUSH2 0x8A6 PUSH2 0x86A JUMP JUMPDEST PUSH1 0x40 MSTORE POP POP JUMP JUMPDEST PUSH1 0x0 DUP1 PUSH1 0x40 DUP4 DUP6 SUB SLT ISZERO PUSH2 0x8C0 JUMPI PUSH1 0x0 DUP1 REVERT JUMPDEST PUSH2 0x8C9 DUP4 PUSH2 0x802 JUMP JUMPDEST SWAP2 POP PUSH1 0x20 DUP1 DUP5 ADD CALLDATALOAD PUSH8 0xFFFFFFFFFFFFFFFF DUP1 DUP3 GT ISZERO PUSH2 0x8E7 JUMPI PUSH1 0x0 DUP1 REVERT JUMPDEST DUP2 DUP7 ADD SWAP2 POP DUP7 PUSH1 0x1F DUP4 ADD SLT PUSH2 0x8FB JUMPI PUSH1 0x0 DUP1 REVERT JUMPDEST DUP2 CALLDATALOAD DUP2 DUP2 GT ISZERO PUSH2 0x90D JUMPI PUSH2 0x90D PUSH2 0x86A JUMP JUMPDEST PUSH1 0x40 MLOAD SWAP2 POP PUSH2 0x925 PUSH1 0x1F DUP3 ADD PUSH1 0x1F NOT AND DUP6 ADD DUP4 PUSH2 0x880 JUMP JUMPDEST DUP1 DUP3 MSTORE DUP8 DUP5 DUP3 DUP6 ADD ADD GT ISZERO PUSH2 0x939 JUMPI PUSH1 0x0 DUP1 REVERT JUMPDEST DUP1 DUP5 DUP5 ADD DUP6 DUP5 ADD CALLDATACOPY PUSH1 0x0 DUP5 DUP3 DUP5 ADD ADD MSTORE POP DUP1 SWAP4 POP POP POP POP SWAP3 POP SWAP3 SWAP1 POP JUMP JUMPDEST PUSH1 0x0 PUSH1 0x3 RETURNDATASIZE GT ISZERO PUSH2 0x970 JUMPI PUSH1 0x4 PUSH1 0x0 DUP1 RETURNDATACOPY POP PUSH1 0x0 MLOAD PUSH1 0xE0 SHR JUMPDEST SWAP1 JUMP JUMPDEST PUSH1 0x0 PUSH1 0x44 RETURNDATASIZE LT ISZERO PUSH2 0x981 JUMPI SWAP1 JUMP JUMPDEST PUSH1 0x40 MLOAD PUSH1 0x3 NOT RETURNDATASIZE DUP2 ADD PUSH1 0x4 DUP4 RETURNDATACOPY DUP2 MLOAD RETURNDATASIZE PUSH8 0xFFFFFFFFFFFFFFFF DUP2 PUSH1 0x24 DUP5 ADD GT DUP2 DUP5 GT OR ISZERO PUSH2 0x9B1 JUMPI POP POP POP POP POP SWAP1 JUMP JUMPDEST DUP3 DUP6 ADD SWAP2 POP DUP2 MLOAD DUP2 DUP2 GT ISZERO PUSH2 0x9C9 JUMPI POP POP POP POP POP POP SWAP1 JUMP JUMPDEST DUP5 RETURNDATASIZE DUP8 ADD ADD PUSH1 0x20 DUP3 DUP6 ADD ADD GT ISZERO PUSH2 0x9E3 JUMPI POP POP POP POP POP POP SWAP1 JUMP JUMPDEST PUSH2 0x9F2 PUSH1 0x20 DUP3 DUP7 ADD ADD DUP8 PUSH2 0x880 JUMP JUMPDEST POP SWAP1 SWAP6 SWAP5 POP POP POP POP POP JUMP JUMPDEST PUSH1 0x0 DUP2 MLOAD DUP1 DUP5 MSTORE PUSH1 0x0 JUMPDEST DUP2 DUP2 LT ISZERO PUSH2 0xA23 JUMPI PUSH1 0x20 DUP2 DUP6 ADD DUP2 ADD MLOAD DUP7 DUP4 ADD DUP3 ADD MSTORE ADD PUSH2 0xA07 JUMP JUMPDEST POP PUSH1 0x0 PUSH1 0x20 DUP3 DUP7 ADD ADD MSTORE PUSH1 0x20 PUSH1 0x1F NOT PUSH1 0x1F DUP4 ADD AND DUP6 ADD ADD SWAP2 POP POP SWAP3 SWAP2 POP POP JUMP JUMPDEST DUP3 ISZERO ISZERO DUP2 MSTORE PUSH1 0x40 PUSH1 0x20 DUP3 ADD MSTORE PUSH1 0x0 PUSH2 0xA5E PUSH1 0x40 DUP4 ADD DUP5 PUSH2 0x9FD JUMP JUMPDEST SWAP5 SWAP4 POP POP POP POP JUMP JUMPDEST PUSH1 0x40 DUP2 MSTORE PUSH1 0x0 PUSH2 0xA96 PUSH1 0x40 DUP4 ADD PUSH1 0x10 DUP2 MSTORE PUSH16 0x185919135A5B9D5D195CD41B185E5959 PUSH1 0x82 SHL PUSH1 0x20 DUP3 ADD MSTORE PUSH1 0x40 ADD SWAP1 JUMP JUMPDEST DUP3 DUP2 SUB PUSH1 0x20 DUP5 ADD MSTORE PUSH2 0xA5E DUP2 DUP6 PUSH2 0x9FD JUMP JUMPDEST PUSH1 0x40 DUP2 MSTORE PUSH1 0x0 PUSH2 0xAD8 PUSH1 0x40 DUP4 ADD PUSH1 0x10 DUP2 MSTORE PUSH16 0x185919135A5B9D5D195CD41B185E5959 PUSH1 0x82 SHL PUSH1 0x20 DUP3 ADD MSTORE PUSH1 0x40 ADD SWAP1 JUMP JUMPDEST DUP3 DUP2 SUB PUSH1 0x20 DUP5 ADD MSTORE PUSH2 0x863 DUP2 PUSH1 0xF DUP2 MSTORE PUSH15 0x556E6B6E6F776E206661696C757265 PUSH1 0x88 SHL PUSH1 0x20 DUP3 ADD MSTORE PUSH1 0x40 ADD SWAP1 JUMP JUMPDEST PUSH1 0x40 DUP2 MSTORE PUSH1 0x0 PUSH2 0xA96 PUSH1 0x40 DUP4 ADD PUSH1 0x13 DUP2 MSTORE PUSH19 0x1C995B5BDD99519C9BDB55DA1A5D195B1A5CDD PUSH1 0x6A SHL PUSH1 0x20 DUP3 ADD MSTORE PUSH1 0x40 ADD SWAP1 JUMP JUMPDEST PUSH1 0x40 DUP2 MSTORE PUSH1 0x0 PUSH2 0xAD8 PUSH1 0x40 DUP4 ADD PUSH1 0x13 DUP2 MSTORE PUSH19 0x1C995B5BDD99519C9BDB55DA1A5D195B1A5CDD PUSH1 0x6A SHL PUSH1 0x20 DUP3 ADD MSTORE PUSH1 0x40 ADD SWAP1 JUMP JUMPDEST PUSH1 0x40 DUP2 MSTORE PUSH1 0x0 PUSH2 0xA96 PUSH1 0x40 DUP4 ADD PUSH1 0x10 DUP2 MSTORE PUSH16 0x736574486F75726C79547851756F7461 PUSH1 0x80 SHL PUSH1 0x20 DUP3 ADD MSTORE PUSH1 0x40 ADD SWAP1 JUMP JUMPDEST PUSH1 0x40 DUP2 MSTORE PUSH1 0x0 PUSH2 0xAD8 PUSH1 0x40 DUP4 ADD PUSH1 0x10 DUP2 MSTORE PUSH16 0x736574486F75726C79547851756F7461 PUSH1 0x80 SHL PUSH1 0x20 DUP3 ADD MSTORE PUSH1 0x40 ADD SWAP1 JUMP JUMPDEST PUSH1 0x1 PUSH1 0x1 PUSH1 0xA0 SHL SUB DUP4 AND DUP2 MSTORE PUSH1 0x40 PUSH1 0x20 DUP3 ADD DUP2 SWAP1 MSTORE PUSH1 0x0 SWAP1 PUSH2 0xA5E SWAP1 DUP4 ADD DUP5 PUSH2 0x9FD JUMP JUMPDEST PUSH1 0x40 DUP2 MSTORE PUSH1 0x0 PUSH2 0xA96 PUSH1 0x40 DUP4 ADD PUSH1 0x15 DUP2 MSTORE PUSH21 0x1859191059191C995CDCD51BD5DA1A5D195B1A5CDD PUSH1 0x5A SHL PUSH1 0x20 DUP3 ADD MSTORE PUSH1 0x40 ADD SWAP1 JUMP JUMPDEST PUSH1 0x40 DUP2 MSTORE PUSH1 0x0 PUSH2 0xAD8 PUSH1 0x40 DUP4 ADD PUSH1 0x15 DUP2 MSTORE PUSH21 0x1859191059191C995CDCD51BD5DA1A5D195B1A5CDD PUSH1 0x5A SHL PUSH1 0x20 DUP3 ADD MSTORE PUSH1 0x40 ADD SWAP1 JUMP INVALID CREATE 0xF 0xDA 0x5E SWAP13 OR SWAP14 CODECOPY GT 0xA7 DUP10 0x4F SDIV PUSH1 0xC8 0xEB STATICCALL 0x49 0x26 0xCB 0xCC 0x2C CREATE2 AND SWAP11 0xDB STOP SIGNEXTEND DIFFICULTY 0xC 0xC9 LOG4 0xD3 MSTORE8 GT 0xD DELEGATECALL 0xED 0xA5 DUP7 SWAP4 0x25 0xBE BASEFEE 0x2C EXTCODEHASH 0xDD 0x2F 0x26 0xCC 0xBC 0xCC PUSH24 0x9D11B2D7AFAC5C7C5EB19DA26469706673582212208891D6 PUSH26 0xC0C34C33B76C0789E04717C469E1A475F716400E039C1C83BB9C MSTORE8 DUP2 PUSH5 0x736F6C6343 STOP ADDMOD ISZERO STOP CALLER ","sha1":"0f83e13fc5e57fe2aaa6682b7f6efd54351da9cf","source":"// SPDX-License-Identifier: MIT\npragma solidity ^0.8.0;\n\ninterface ISystemContract {\n    function addToWhitelist(address _address, string calldata anonID) external;\n    function setHourlyTxQuota(address _address, uint256 _quota) external;\n    function removeFromWhitelist(address _address) external;\n    function incrementMinutesPlayed(address user, uint256 _minutes) external;\n}\n\ncontract WhitelistTest {\n    ISystemContract systemContract;\n\n    event OperationResult(bool success, string message);\n    event ErrorCaught(string action, string error);\n\n    constructor() {\n        systemContract = ISystemContract(0xD8C7938087D17E3B72D545e99d47Cab0199d6bB8);\n    }\n\n    function addAddressToWhitelist(address _address, string memory anonID) public {\n        try systemContract.addToWhitelist(_address, anonID) {\n            emit OperationResult(true, \"Address successfully whitelisted\");\n        } catch Error(string memory reason) {\n            emit OperationResult(false, reason);\n            emit ErrorCaught(\"addAddressToWhitelist\", reason);\n        } catch {\n            emit OperationResult(false, \"addToWhitelist failed without a specific revert reason\");\n            emit ErrorCaught(\"addAddressToWhitelist\", \"Unknown failure\");\n        }\n    }\n\n    function setQuotaForAddress(address _address, uint256 _quota) public {\n        try systemContract.setHourlyTxQuota(_address, _quota) {\n            emit OperationResult(true, \"Hourly transaction quota set successfully\");\n        } catch Error(string memory reason) {\n            emit OperationResult(false, reason);\n            emit ErrorCaught(\"setHourlyTxQuota\", reason);\n        } catch {\n            emit OperationResult(false, \"setHourlyTxQuota failed without a specific revert reason\");\n            emit ErrorCaught(\"setHourlyTxQuota\", \"Unknown failure\");\n        }\n    }\n\n    function removeAddressFromWhitelist(address _address) public {\n        try systemContract.removeFromWhitelist(_address) {\n            emit OperationResult(true, \"Address successfully removed from whitelist\");\n        } catch Error(string memory reason) {\n            emit OperationResult(false, reason);\n            emit ErrorCaught(\"removeFromWhitelist\", reason);\n        } catch {\n            emit OperationResult(false, \"removeFromWhitelist failed without a specific revert reason\");\n            emit ErrorCaught(\"removeFromWhitelist\", \"Unknown failure\");\n        }\n    }\n\n    function addMinutesPlayed(address user, uint256 _minutes) public {\n        try systemContract.incrementMinutesPlayed(user, _minutes) {\n            emit OperationResult(true, \"Minutes played added successfully\");\n        } catch Error(string memory reason) {\n            emit OperationResult(false, reason);\n            emit ErrorCaught(\"addMinutesPlayed\", reason);\n        } catch {\n            emit OperationResult(false, \"incrementMinutesPlayed failed without a specific revert reason\");\n            emit ErrorCaught(\"addMinutesPlayed\", \"Unknown failure\");\n        }\n    }\n}","sourcePath":"contracts/Whitelist_test.sol","type":"contract","deployment":{"address":"0xaF79BCaAF044BeD82ECdB37e04b8617B1FFDE2e8","chainid":"86098","blockHeight":2483}}