{"abi":[{"inputs":[],"stateMutability":"nonpayable","type":"constructor","name":"constructor"},{"anonymous":false,"inputs":[{"indexed":true,"internalType":"address","name":"userAddress","type":"address"},{"indexed":false,"internalType":"uint256","name":"lastClaimValue","type":"uint256"},{"indexed":false,"internalType":"uint256","name":"minutesPlayed","type":"uint256"}],"name":"ClaimedGP","type":"event"},{"anonymous":false,"inputs":[{"indexed":true,"internalType":"address","name":"newCommissionAddress","type":"address"}],"name":"CommissionAddressSet","type":"event"},{"anonymous":false,"inputs":[{"indexed":false,"internalType":"uint256","name":"newCoinCommission","type":"uint256"}],"name":"CommissionSet","type":"event"},{"anonymous":false,"inputs":[{"indexed":false,"internalType":"address","name":"contractAddress","type":"address"}],"name":"ContractPermissionGranted","type":"event"},{"anonymous":false,"inputs":[{"indexed":false,"internalType":"address","name":"contractAddress","type":"address"}],"name":"ContractPermissionRevoked","type":"event"},{"anonymous":false,"inputs":[{"indexed":false,"internalType":"uint256","name":"newFreeGasCap","type":"uint256"}],"name":"FreeGasCapSet","type":"event"},{"anonymous":false,"inputs":[{"indexed":false,"internalType":"enum AnonIDContract.KeyType","name":"keyType","type":"uint8"},{"indexed":false,"internalType":"bytes32","name":"newPKH","type":"bytes32"}],"name":"KeyAdded","type":"event"},{"anonymous":false,"inputs":[{"indexed":false,"internalType":"enum AnonIDContract.KeyType","name":"originalKeyType","type":"uint8"},{"indexed":false,"internalType":"bytes32","name":"originalPKH","type":"bytes32"},{"indexed":false,"internalType":"bytes32","name":"modifiedPKH","type":"bytes32"},{"indexed":false,"internalType":"enum AnonIDContract.KeyType","name":"newKeyType","type":"uint8"}],"name":"KeyModified","type":"event"},{"anonymous":false,"inputs":[{"indexed":false,"internalType":"uint256","name":"hash","type":"uint256"}],"name":"LogLastCalculatedHash","type":"event"},{"anonymous":false,"inputs":[{"indexed":true,"internalType":"address","name":"user","type":"address"},{"indexed":false,"internalType":"uint256","name":"_minutes","type":"uint256"}],"name":"MinutesPlayedIncremented","type":"event"},{"anonymous":false,"inputs":[{"indexed":false,"internalType":"enum AnonIDContract.KeyType","name":"keyType","type":"uint8"},{"indexed":false,"internalType":"bytes32","name":"previousPKH","type":"bytes32"},{"indexed":false,"internalType":"bytes32","name":"newPKH","type":"bytes32"}],"name":"PkhUpdated","type":"event"},{"anonymous":false,"inputs":[{"indexed":true,"internalType":"address","name":"_address","type":"address"},{"indexed":false,"internalType":"uint256","name":"_quota","type":"uint256"}],"name":"QuotaSet","type":"event"},{"anonymous":false,"inputs":[{"indexed":true,"internalType":"address","name":"_address","type":"address"}],"name":"RemovedFromWhitelist","type":"event"},{"anonymous":false,"inputs":[{"indexed":true,"internalType":"address","name":"_user","type":"address"},{"indexed":false,"internalType":"uint256","name":"timestamp","type":"uint256"}],"name":"TxRecorded","type":"event"},{"anonymous":false,"inputs":[{"indexed":false,"internalType":"uint256","name":"hashedData","type":"uint256"}],"name":"VerificationFailed","type":"event"},{"anonymous":false,"inputs":[{"indexed":true,"internalType":"address","name":"_address","type":"address"},{"indexed":false,"internalType":"bytes32","name":"hashedID","type":"bytes32"}],"name":"Whitelisted","type":"event"},{"inputs":[],"name":"_coinCommission","outputs":[{"internalType":"uint256","name":"","type":"uint256"}],"stateMutability":"view","type":"function"},{"inputs":[{"internalType":"address","name":"_address","type":"address"},{"internalType":"string","name":"anonID","type":"string"}],"name":"addToWhitelist","outputs":[],"stateMutability":"nonpayable","type":"function"},{"inputs":[{"internalType":"address","name":"","type":"address"}],"name":"addressToHashedID","outputs":[{"internalType":"bytes32","name":"","type":"bytes32"}],"stateMutability":"view","type":"function"},{"inputs":[],"name":"callMinStake","outputs":[{"internalType":"uint256","name":"minStakeValue","type":"uint256"}],"stateMutability":"nonpayable","type":"function"},{"inputs":[],"name":"claimGP","outputs":[],"stateMutability":"nonpayable","type":"function"},{"inputs":[],"name":"coinCommission","outputs":[{"internalType":"uint256","name":"","type":"uint256"}],"stateMutability":"view","type":"function"},{"inputs":[],"name":"commissionAddress","outputs":[{"internalType":"address","name":"","type":"address"}],"stateMutability":"view","type":"function"},{"inputs":[{"internalType":"bytes32[2][256]","name":"currentpub","type":"bytes32[2][256]"},{"internalType":"bytes[256]","name":"sig","type":"bytes[256]"},{"internalType":"bytes32","name":"nextPKH","type":"bytes32"},{"internalType":"bytes","name":"bytecode","type":"bytes"}],"name":"createContractStepOne","outputs":[],"stateMutability":"nonpayable","type":"function"},{"inputs":[{"internalType":"bytes32[2][256]","name":"currentpub","type":"bytes32[2][256]"},{"internalType":"bytes[256]","name":"sig","type":"bytes[256]"},{"internalType":"bytes32","name":"nextPKH","type":"bytes32"},{"internalType":"bytes","name":"bytecode","type":"bytes"}],"name":"createContractStepTwo","outputs":[{"internalType":"address","name":"","type":"address"}],"stateMutability":"nonpayable","type":"function"},{"inputs":[{"internalType":"bytes32[2][256]","name":"currentpub","type":"bytes32[2][256]"},{"internalType":"bytes[256]","name":"sig","type":"bytes[256]"},{"internalType":"bytes32","name":"nextPKH","type":"bytes32"},{"internalType":"bytes","name":"newmasterPKH","type":"bytes"}],"name":"createMasterKeyStepOne","outputs":[],"stateMutability":"nonpayable","type":"function"},{"inputs":[{"internalType":"bytes32[2][256]","name":"currentpub","type":"bytes32[2][256]"},{"internalType":"bytes[256]","name":"sig","type":"bytes[256]"},{"internalType":"bytes32","name":"nextPKH","type":"bytes32"},{"internalType":"bytes32","name":"newmasterPKH","type":"bytes32"}],"name":"createMasterKeyStepTwo","outputs":[],"stateMutability":"nonpayable","type":"function"},{"inputs":[{"internalType":"bytes32[2][256]","name":"currentpub","type":"bytes32[2][256]"},{"internalType":"bytes32","name":"nextPKH","type":"bytes32"},{"internalType":"bytes[256]","name":"sig","type":"bytes[256]"},{"internalType":"bytes32","name":"neworaclePKH","type":"bytes32"}],"name":"createOracleKeyFromMaster","outputs":[],"stateMutability":"nonpayable","type":"function"},{"inputs":[{"internalType":"bytes32[2][256]","name":"currentpub","type":"bytes32[2][256]"},{"internalType":"bytes[256]","name":"sig","type":"bytes[256]"},{"internalType":"bytes32","name":"nextPKH","type":"bytes32"},{"internalType":"bytes32","name":"deleteKeyHash","type":"bytes32"}],"name":"deleteKeyStepOne","outputs":[],"stateMutability":"nonpayable","type":"function"},{"inputs":[{"internalType":"bytes32[2][256]","name":"currentpub","type":"bytes32[2][256]"},{"internalType":"bytes[256]","name":"sig","type":"bytes[256]"},{"internalType":"bytes32","name":"nextPKH","type":"bytes32"},{"internalType":"bytes32","name":"confirmDeleteKeyHash","type":"bytes32"}],"name":"deleteKeyStepTwo","outputs":[],"stateMutability":"nonpayable","type":"function"},{"inputs":[],"name":"freeGasCap","outputs":[{"internalType":"uint256","name":"","type":"uint256"}],"stateMutability":"view","type":"function"},{"inputs":[{"internalType":"bytes32","name":"pkh","type":"bytes32"}],"name":"getKeyAndPosByPKH","outputs":[{"internalType":"enum AnonIDContract.KeyType","name":"","type":"uint8"},{"internalType":"bytes32","name":"","type":"bytes32"},{"internalType":"uint256","name":"","type":"uint256"}],"stateMutability":"view","type":"function"},{"inputs":[{"internalType":"address","name":"user","type":"address"}],"name":"getMinutesPlayed","outputs":[{"internalType":"uint256","name":"","type":"uint256"}],"stateMutability":"view","type":"function"},{"inputs":[{"internalType":"enum AnonIDContract.KeyType","name":"privilege","type":"uint8"}],"name":"getPKHsByPrivilege","outputs":[{"internalType":"bytes32[]","name":"","type":"bytes32[]"}],"stateMutability":"view","type":"function"},{"inputs":[{"internalType":"address","name":"contractAddress","type":"address"},{"internalType":"bytes32[2][256]","name":"currentpub","type":"bytes32[2][256]"},{"internalType":"bytes[256]","name":"sig","type":"bytes[256]"},{"internalType":"bytes32","name":"nextPKH","type":"bytes32"}],"name":"grantActivityContractPermission","outputs":[],"stateMutability":"nonpayable","type":"function"},{"inputs":[{"internalType":"address","name":"","type":"address"}],"name":"hourlyTxQuota","outputs":[{"internalType":"uint256","name":"","type":"uint256"}],"stateMutability":"view","type":"function"},{"inputs":[{"internalType":"address","name":"user","type":"address"},{"internalType":"uint256","name":"_minutes","type":"uint256"}],"name":"incrementMinutesPlayed","outputs":[],"stateMutability":"nonpayable","type":"function"},{"inputs":[{"internalType":"address","name":"","type":"address"}],"name":"isContractPermitted","outputs":[{"internalType":"bool","name":"","type":"bool"}],"stateMutability":"view","type":"function"},{"inputs":[{"internalType":"address","name":"_user","type":"address"}],"name":"isThisTxFree","outputs":[{"internalType":"bool","name":"","type":"bool"}],"stateMutability":"nonpayable","type":"function"},{"inputs":[{"internalType":"address","name":"_address","type":"address"}],"name":"isWhitelisted","outputs":[{"internalType":"bool","name":"","type":"bool"}],"stateMutability":"view","type":"function"},{"inputs":[{"internalType":"bytes32","name":"","type":"bytes32"}],"name":"keyData","outputs":[{"internalType":"enum AnonIDContract.KeyType","name":"keyType","type":"uint8"},{"internalType":"bytes32","name":"pkh","type":"bytes32"}],"stateMutability":"view","type":"function"},{"inputs":[{"internalType":"uint256","name":"","type":"uint256"}],"name":"keys","outputs":[{"internalType":"enum AnonIDContract.KeyType","name":"keyType","type":"uint8"},{"internalType":"bytes32","name":"pkh","type":"bytes32"}],"stateMutability":"view","type":"function"},{"inputs":[{"internalType":"address","name":"","type":"address"}],"name":"lastClaim","outputs":[{"internalType":"uint256","name":"","type":"uint256"}],"stateMutability":"view","type":"function"},{"inputs":[{"internalType":"address","name":"","type":"address"}],"name":"lastLastClaim","outputs":[{"internalType":"uint256","name":"","type":"uint256"}],"stateMutability":"view","type":"function"},{"inputs":[],"name":"lastUsedBytecodeHash","outputs":[{"internalType":"bytes32","name":"","type":"bytes32"}],"stateMutability":"view","type":"function"},{"inputs":[],"name":"lastUsedNextPKH","outputs":[{"internalType":"bytes32","name":"","type":"bytes32"}],"stateMutability":"view","type":"function"},{"inputs":[],"name":"lastVerificationResult","outputs":[{"internalType":"bool","name":"","type":"bool"}],"stateMutability":"view","type":"function"},{"inputs":[{"internalType":"address","name":"","type":"address"}],"name":"minutesPlayed","outputs":[{"internalType":"uint256","name":"","type":"uint256"}],"stateMutability":"view","type":"function"},{"inputs":[{"internalType":"address","name":"_address","type":"address"}],"name":"removeFromWhitelist","outputs":[],"stateMutability":"nonpayable","type":"function"},{"inputs":[{"internalType":"address","name":"contractAddress","type":"address"},{"internalType":"bytes32[2][256]","name":"currentpub","type":"bytes32[2][256]"},{"internalType":"bytes[256]","name":"sig","type":"bytes[256]"},{"internalType":"bytes32","name":"nextPKH","type":"bytes32"}],"name":"revokeActivityContractPermission","outputs":[],"stateMutability":"nonpayable","type":"function"},{"inputs":[{"internalType":"bytes32[2][256]","name":"currentpub","type":"bytes32[2][256]"},{"internalType":"bytes[256]","name":"sig","type":"bytes[256]"},{"internalType":"bytes32","name":"nextPKH","type":"bytes32"},{"internalType":"uint256","name":"newCoinCommission","type":"uint256"}],"name":"setCoinCommissionStepOne","outputs":[],"stateMutability":"nonpayable","type":"function"},{"inputs":[{"internalType":"bytes32[2][256]","name":"currentpub","type":"bytes32[2][256]"},{"internalType":"bytes[256]","name":"sig","type":"bytes[256]"},{"internalType":"bytes32","name":"nextPKH","type":"bytes32"},{"internalType":"uint256","name":"newCoinCommission","type":"uint256"}],"name":"setCoinCommissionStepTwo","outputs":[],"stateMutability":"nonpayable","type":"function"},{"inputs":[{"internalType":"bytes32[2][256]","name":"currentpub","type":"bytes32[2][256]"},{"internalType":"bytes[256]","name":"sig","type":"bytes[256]"},{"internalType":"bytes32","name":"nextPKH","type":"bytes32"},{"internalType":"address","name":"newCommissionAddress","type":"address"}],"name":"setCommissionAddressStepOne","outputs":[],"stateMutability":"nonpayable","type":"function"},{"inputs":[{"internalType":"bytes32[2][256]","name":"currentpub","type":"bytes32[2][256]"},{"internalType":"bytes[256]","name":"sig","type":"bytes[256]"},{"internalType":"bytes32","name":"nextPKH","type":"bytes32"},{"internalType":"address","name":"newCommissionAddress","type":"address"}],"name":"setCommissionAddressStepTwo","outputs":[],"stateMutability":"nonpayable","type":"function"},{"inputs":[{"internalType":"uint256","name":"_newCap","type":"uint256"},{"internalType":"bytes32[2][256]","name":"currentpub","type":"bytes32[2][256]"},{"internalType":"bytes[256]","name":"sig","type":"bytes[256]"},{"internalType":"bytes32","name":"nextPKH","type":"bytes32"}],"name":"setFreeGasCap","outputs":[],"stateMutability":"nonpayable","type":"function"},{"inputs":[{"internalType":"address","name":"_address","type":"address"},{"internalType":"uint256","name":"_quota","type":"uint256"}],"name":"setHourlyTxQuota","outputs":[],"stateMutability":"nonpayable","type":"function"},{"inputs":[{"internalType":"bytes32[2][256]","name":"currentpub","type":"bytes32[2][256]"},{"internalType":"bytes[256]","name":"sig","type":"bytes[256]"},{"internalType":"bytes32","name":"nextPKH","type":"bytes32"},{"internalType":"bytes","name":"newMinStake","type":"bytes"}],"name":"updateMinStakeStepOne","outputs":[],"stateMutability":"nonpayable","type":"function"},{"inputs":[{"internalType":"bytes32[2][256]","name":"currentpub","type":"bytes32[2][256]"},{"internalType":"bytes[256]","name":"sig","type":"bytes[256]"},{"internalType":"bytes32","name":"nextPKH","type":"bytes32"},{"internalType":"bytes32","name":"newMinStake","type":"bytes32"}],"name":"updateMinStakeStepTwo","outputs":[],"stateMutability":"payable","type":"function"},{"inputs":[{"internalType":"address","name":"","type":"address"},{"internalType":"uint256","name":"","type":"uint256"}],"name":"userTxTimestamps","outputs":[{"internalType":"uint256","name":"","type":"uint256"}],"stateMutability":"view","type":"function"},{"inputs":[{"internalType":"uint256","name":"bits","type":"uint256"},{"internalType":"bytes[256]","name":"sig","type":"bytes[256]"},{"internalType":"bytes32[2][256]","name":"pub","type":"bytes32[2][256]"}],"name":"verify_u256","outputs":[{"internalType":"bool","name":"","type":"bool"}],"stateMutability":"pure","type":"function"},{"inputs":[{"internalType":"address","name":"","type":"address"}],"name":"whitelist","outputs":[{"internalType":"bool","name":"","type":"bool"}],"stateMutability":"view","type":"function"}],"bytecode":"60806040523480156200001157600080fd5b506200003f60007fb7b18ded9664d1a8e923a5942ec1ca5cd8c13c40eb1a5215d5800600f5a587be62000105565b6200006c60007f1ed304ab73e124b0b99406dfa1388a492a818837b4b41ce5693ad84dacfc3f2562000105565b6200009960017fd62569e61a6423c880a429676be48756c931fe0519121684f5fb05cbd17877fa62000105565b600680546001600160a01b031990811673fd003ca44bbf4e9fb0b2ff1a33fc2f05a6c2eff91790915560078054821673fc00face000000000000000000000000000000001790556008805490911673d1005eed0000000000000000000000000000000017905562000269565b6000604051806040016040528084600281111562000127576200012762000226565b8152602001839052600f805460018181018355600092909252825160029182027f8d1108e10bcb7c27dddfc02ed9d693a074039d026cf4ea4240b40f7d581ac802018054949550859490939192849260ff199092169190849081111562000192576200019262000226565b0217905550602091820151600191820155600084815260109092526040909120825181548493839160ff191690836002811115620001d457620001d462000226565b0217905550602082015181600101559050507f2172c7b01a6de957d29fd6166a23025d181bf56538ad606a526ab2d62603f3fc8383604051620002199291906200023c565b60405180910390a1505050565b634e487b7160e01b600052602160045260246000fd5b60408101600384106200025f57634e487b7160e01b600052602160045260246000fd5b9281526020015290565b613fcd80620002796000396000f3fe6080604052600436106102725760003560e01c80637e08deae1161014f578063af82f3e7116100c1578063d83c413c1161007a578063d83c413c146107f5578063e256d9a614610815578063e673d71f1461082a578063e8f3c92b1461084a578063f82e84fd1461085d578063fb632d891461087d57600080fd5b8063af82f3e714610725578063b3910c9f14610745578063b889b2b714610765578063b97b4f771461077b578063ba690677146107a8578063d47b2e99146107d557600080fd5b80638eb8f1a6116101135780638eb8f1a61461063d578063931742d31461065d5780639b19251a1461067b578063a9711ee3146106ab578063ae61d2c2146106e5578063aec43f5a1461070557600080fd5b80637e08deae146105c85780638705d945146105e85780638775b01f146105fd578063894a1e8e146104335780638ab1d6811461061d57600080fd5b80634bdd4499116101e85780635961f500116101ac5780635961f500146104c05780635c16e15e146104e05780636118b1c31461050d5780636c8dd0bd1461052d578063753ac6dc1461055a578063787325ca1461059257600080fd5b80634bdd44991461041d5780634e657d2a146104335780634fbbc63f146104535780635325758e146104805780635796841a146104a057600080fd5b80632fd5c2471161023a5780632fd5c247146103505780633337db521461036a5780633af32abf1461038e5780633b5b27d7146103c75780633e13566b146103e75780634a672870146103fd57600080fd5b806303545eac1461027757806305aacc7d146102bc5780630cb6aaf1146102eb578063142eb8c8146103195780631a533daa14610330575b600080fd5b34801561028357600080fd5b506102a76102923660046137c7565b60096020526000908152604090205460ff1681565b60405190151581526020015b60405180910390f35b3480156102c857600080fd5b506102dc6102d73660046137e2565b6108aa565b6040516102b393929190613833565b3480156102f757600080fd5b5061030b6103063660046137e2565b6109ac565b6040516102b3929190613852565b34801561032557600080fd5b5061032e6109de565b005b34801561033c57600080fd5b5061032e61034b3660046138f9565b610b1a565b34801561035c57600080fd5b506011546102a79060ff1681565b34801561037657600080fd5b5061038060015481565b6040519081526020016102b3565b34801561039a57600080fd5b506102a76103a93660046137c7565b6001600160a01b03166000908152600a602052604090205460ff1690565b3480156103d357600080fd5b506103806103e236600461395b565b610c46565b3480156103f357600080fd5b5061038060035481565b34801561040957600080fd5b5061032e6104183660046139af565b610c77565b34801561042957600080fd5b5061038060155481565b34801561043f57600080fd5b5061032e61044e366004613a12565b610e48565b34801561045f57600080fd5b5061038061046e3660046137c7565b600d6020526000908152604090205481565b34801561048c57600080fd5b5061032e61049b366004613aa9565b610fbf565b3480156104ac57600080fd5b5061032e6104bb3660046139af565b611151565b3480156104cc57600080fd5b5061032e6104db366004613b13565b611390565b3480156104ec57600080fd5b506103806104fb3660046137c7565b600c6020526000908152604090205481565b34801561051957600080fd5b5061032e61052836600461395b565b6115ed565b34801561053957600080fd5b506103806105483660046137c7565b600b6020526000908152604090205481565b34801561056657600080fd5b5061057a610575366004613a12565b611726565b6040516001600160a01b0390911681526020016102b3565b34801561059e57600080fd5b506103806105ad3660046137c7565b6001600160a01b03166000908152600b602052604090205490565b3480156105d457600080fd5b5061032e6105e33660046139af565b611975565b3480156105f457600080fd5b50600154610380565b34801561060957600080fd5b506102a76106183660046137c7565b611c23565b34801561062957600080fd5b5061032e6106383660046137c7565b611e1f565b34801561064957600080fd5b5061032e610658366004613b80565b611f0c565b34801561066957600080fd5b506006546001600160a01b031661057a565b34801561068757600080fd5b506102a76106963660046137c7565b600a6020526000908152604090205460ff1681565b3480156106b757600080fd5b5061030b6106c63660046137e2565b6010602052600090815260409020805460019091015460ff9091169082565b3480156106f157600080fd5b5061032e610700366004613b13565b61208b565b34801561071157600080fd5b5061032e610720366004613aa9565b612229565b34801561073157600080fd5b506102a7610740366004613bc6565b6123e2565b34801561075157600080fd5b5061032e610760366004613c1f565b612497565b34801561077157600080fd5b5061038060005481565b34801561078757600080fd5b5061079b610796366004613c47565b612633565b6040516102b39190613c68565b3480156107b457600080fd5b506103806107c33660046137c7565b600e6020526000908152604090205481565b3480156107e157600080fd5b5061032e6107f036600461395b565b6127e3565b34801561080157600080fd5b5061032e6108103660046139af565b6128b9565b34801561082157600080fd5b50610380612a37565b34801561083657600080fd5b5061032e6108453660046139af565b612b4e565b61032e6108583660046139af565b61306e565b34801561086957600080fd5b5061032e610878366004613a12565b613385565b34801561088957600080fd5b506103806108983660046137c7565b60056020526000908152604090205481565b60008181526010602052604080822081518083019092528054839283928392829060ff1660028111156108df576108df6137fb565b60028111156108f0576108f06137fb565b81526001919091015460209182015281015190915060000361092d5760405162461bcd60e51b815260040161092490613cac565b60405180910390fd5b60005b600f5481101561098c5785600f828154811061094e5761094e613ce3565b9060005260206000209060020201600101540361097a57815160209092015191945090925090506109a5565b8061098481613d0f565b915050610930565b5060405162461bcd60e51b815260040161092490613cac565b9193909250565b600f81815481106109bc57600080fd5b60009182526020909120600290910201805460019091015460ff909116915082565b336000818152600a602052604090205460ff16610a3d5760405162461bcd60e51b815260206004820152601760248201527f55736572206973206e6f742077686974656c69737465640000000000000000006044820152606401610924565b6001600160a01b0381166000908152600c6020908152604080832054600d9092529091205480821015610aa95760405162461bcd60e51b8152602060048201526014602482015273496e76616c696420636c61696d2076616c75657360601b6044820152606401610924565b6001600160a01b0383166000818152600d60209081526040808320869055600b80835281842054600c84529382902084905582528051868152918201929092527fdc5ec23a202853e756bbb0c4f4cb94deea4936fcc71756da3ddebf99aabf6c9e91015b60405180910390a2505050565b3360009081526009602052604090205460ff16610b495760405162461bcd60e51b815260040161092490613d28565b600081604051602001610b5c9190613d8d565b60408051601f1981840301815291815281516020928301206001600160a01b0386166000908152600a90935291205490915060ff1615610bde5760405162461bcd60e51b815260206004820152601b60248201527f4164647265737320616c72656164792077686974656c697374656400000000006044820152606401610924565b6001600160a01b038316600081815260056020818152604080842092909255600a8152818320805460ff19166001179055600e815291819020849055518381527fc27d38ad1bdb4164d72e05492b5ce6099b4169e9f20b41d3c7cf35c114a64d5b9101610b0d565b60046020528160005260406000208181548110610c6257600080fd5b90600052602060002001600091509150505481565b83838383604051602001610c8d91815260200190565b604051602081830303815290604052600084604051602001610caf9190613da9565b60408051601f19818403018152919052805160209091012090506000808281526010602052604090205460ff166002811115610ced57610ced6137fb565b14610d0a5760405162461bcd60e51b815260040161092490613de0565b60008284604051602001610d1f929190613e15565b60408051601f198184030181529082905280516020918201208083529250600080516020613f58833981519152910160405180910390a16000610d638287896123e2565b6011805460ff1916821515179055905080610dee57604051828152600080516020613f38833981519152906020015b60405180910390a160405162461bcd60e51b815260206004820152602360248201527f416e6f6e4944436f6e74726163743a20566572696669636174696f6e206661696044820152621b195960ea1b6064820152608401610924565b60008381526010602052604090819020549051600080516020613f7883398151915291610e249160ff9091169086908990613833565b60405180910390a1610e368386613504565b50505060029490945550505050505050565b83838383604051602001610e5c9190613d8d565b604051602081830303815290604052600084604051602001610e7e9190613da9565b60408051601f19818403018152919052805160209091012090506000808281526010602052604090205460ff166002811115610ebc57610ebc6137fb565b14610ed95760405162461bcd60e51b815260040161092490613de0565b60008284604051602001610eee929190613e15565b60408051601f198184030181529082905280516020918201208083529250600080516020613f58833981519152910160405180910390a16000610f328287896123e2565b6011805460ff1916821515179055905080610f6557604051828152600080516020613f3883398151915290602001610d92565b60008381526010602052604090819020549051600080516020613f7883398151915291610f9b9160ff9091169086908990613833565b60405180910390a1610fad8386613504565b50505060159590955550505050505050565b82828286604051602001610fd39190613e37565b604051602081830303815290604052600084604051602001610ff59190613da9565b60408051601f19818403018152919052805160209091012090506000808281526010602052604090205460ff166002811115611033576110336137fb565b146110505760405162461bcd60e51b815260040161092490613de0565b60008284604051602001611065929190613e15565b60408051601f198184030181529082905280516020918201208083529250600080516020613f58833981519152910160405180910390a160006110a98287896123e2565b6011805460ff19168215151790559050806110dc57604051828152600080516020613f3883398151915290602001610d92565b60008381526010602052604090819020549051600080516020613f78833981519152916111129160ff9091169086908990613833565b60405180910390a16111248386613504565b5050506001600160a01b039097166000908152600960205260409020805460ff1916905550505050505050565b8383838360405160200161116791815260200190565b6040516020818303038152906040526000846040516020016111899190613da9565b60408051601f19818403018152919052805160209091012090506000808281526010602052604090205460ff1660028111156111c7576111c76137fb565b146111e45760405162461bcd60e51b815260040161092490613de0565b600082846040516020016111f9929190613e15565b60408051601f198184030181529082905280516020918201208083529250600080516020613f58833981519152910160405180910390a1600061123d8287896123e2565b6011805460ff191682151517905590508061127057604051828152600080516020613f3883398151915290602001610d92565b60008381526010602052604090819020549051600080516020613f78833981519152916112a69160ff9091169086908990613833565b60405180910390a16112b88386613504565b60008b6040516020016112cb9190613da9565b60408051601f198184030181529190528051602090910120601580546000909155909150811415806113715760405162461bcd60e51b815260206004820152604360248201527f416e6f6e4944436f6e74726163743a20504b48206d617463686573206c61737460448201527f207573656420504b482028757365207365706172617465207365636f6e64206b60648201526265792960e81b608482015260a401610924565b61137c60008b6136a2565b505060006015555050505050505050505050565b838383836040516020016113a49190613e37565b6040516020818303038152906040526000846040516020016113c69190613da9565b60408051601f19818403018152919052805160209091012090506000808281526010602052604090205460ff166002811115611404576114046137fb565b146114215760405162461bcd60e51b815260040161092490613de0565b60008284604051602001611436929190613e15565b60408051601f198184030181529082905280516020918201208083529250600080516020613f58833981519152910160405180910390a1600061147a8287896123e2565b6011805460ff19168215151790559050806114ad57604051828152600080516020613f3883398151915290602001610d92565b60008381526010602052604090819020549051600080516020613f78833981519152916114e39160ff9091169086908990613833565b60405180910390a16114f58386613504565b876040516020016115069190613e37565b6040516020818303038152906040528051906020012060125414611594576040805162461bcd60e51b81526020600482015260248101919091527f416e6f6e4944436f6e74726163743a204d69736d61746368656420616464726560448201527f73732068617368206265747765656e2073746570206f6e6520616e642074776f6064820152608401610924565b600680546001600160a01b0319166001600160a01b038a16908117909155600060128190556040517f78cb7d38f54b570d3aa94edfe9942ff10d8b002a73299229ea4ece39479eb1169190a25050505050505050505050565b3360009081526009602052604090205460ff166116655760405162461bcd60e51b815260206004820152603060248201527f4e6f74207065726d697474656420746f206d6f6469667920686f75726c79207460448201526f72616e73616374696f6e2071756f746160801b6064820152608401610924565b6001600160a01b0382166000908152600a602052604090205460ff166116cd5760405162461bcd60e51b815260206004820152601e60248201527f41646472657373206e6f7420666f756e6420696e2077686974656c69737400006044820152606401610924565b6001600160a01b03821660008181526005602052604090819020839055517f49e4e7ca63dcc35a72589f844cb844ce25176e8e1aff16f1ad1fb46624c653729061171a9084815260200190565b60405180910390a25050565b60008484848460405160200161173c9190613d8d565b60405160208183030381529060405260008460405160200161175e9190613da9565b60408051601f19818403018152919052805160209091012090506000808281526010602052604090205460ff16600281111561179c5761179c6137fb565b146117b95760405162461bcd60e51b815260040161092490613de0565b600082846040516020016117ce929190613e15565b60408051601f198184030181529082905280516020918201208083529250600080516020613f58833981519152910160405180910390a160006118128287896123e2565b6011805460ff191682151517905590508061184557604051828152600080516020613f3883398151915290602001610d92565b60008381526010602052604090819020549051600080516020613f788339815191529161187b9160ff9091169086908990613833565b60405180910390a161188d8386613504565b600354895160208b0120146119025760405162461bcd60e51b815260206004820152603560248201527f42797465636f646520646f6573206e6f74206d617463682070726576696f7573604482015274363c90383937bb34b232b210313cba32b1b7b2329760591b6064820152608401610924565b6000895160208b016000f090506001600160a01b0381166119655760405162461bcd60e51b815260206004820152601860248201527f436f6e7472616374206372656174696f6e206661696c656400000000000000006044820152606401610924565b9c9b505050505050505050505050565b8383838360405160200161198b91815260200190565b6040516020818303038152906040526000846040516020016119ad9190613da9565b60408051601f19818403018152919052805160209091012090506000808281526010602052604090205460ff1660028111156119eb576119eb6137fb565b14611a085760405162461bcd60e51b815260040161092490613de0565b60008284604051602001611a1d929190613e15565b60408051601f198184030181529082905280516020918201208083529250600080516020613f58833981519152910160405180910390a16000611a618287896123e2565b6011805460ff1916821515179055905080611a9457604051828152600080516020613f3883398151915290602001610d92565b60008381526010602052604090819020549051600080516020613f7883398151915291611aca9160ff9091169086908990613833565b60405180910390a1611adc8386613504565b6014881115611b535760405162461bcd60e51b815260206004820152603760248201527f416e6f6e4944436f6e74726163743a20436f6d6d697373696f6e2073686f756c60448201527f64206265206265747765656e20302520616e64203230250000000000000000006064820152608401610924565b6002548814611bd85760405162461bcd60e51b815260206004820152604560248201527f416e6f6e4944436f6e74726163743a204d69736d61746368656420636f6d6d6960448201527f7373696f6e2076616c756573206265747765656e2073746570206f6e6520616e606482015264642074776f60d81b608482015260a401610924565b600188905560006002556040518881527f11bf320227562bd5f6c9b575913cf92b3b996b47873159df227324ae1bb4d0ea906020015b60405180910390a15050505050505050505050565b6000334114611c9a5760405162461bcd60e51b815260206004820152603860248201527f4f6e6c79207468652063757272656e7420626c6f636b277320636f696e62617360448201527f652063616e2063616c6c20746869732066756e6374696f6e00000000000000006064820152608401610924565b6001600160a01b0382166000908152600a602052604090205460ff16611cc257506000919050565b6001600160a01b03821660008181526004602090815260409182902091514281529192917f9ed0861f8fc182c8888f48e900842f475ccd2a3c93c6f966168eaa67d52d2ee1910160405180910390a26001600160a01b038316600090815260056020526040902054815403611e0257610e1081600081548110611d4757611d47613ce3565b906000526020600020015442611d5d9190613e54565b11611d6b5750600092915050565b60005b8154611d7c90600190613e54565b811015611dda5781611d8f826001613e67565b81548110611d9f57611d9f613ce3565b9060005260206000200154828281548110611dbc57611dbc613ce3565b60009182526020909120015580611dd281613d0f565b915050611d6e565b5080805480611deb57611deb613e7a565b600190038181906000526020600020016000905590555b805460018181018355600092835260209092204291015592915050565b3360009081526009602052604090205460ff16611e4e5760405162461bcd60e51b815260040161092490613d28565b6001600160a01b0381166000908152600a602052604090205460ff16611eb65760405162461bcd60e51b815260206004820152601e60248201527f41646472657373206e6f7420666f756e6420696e2077686974656c69737400006044820152606401610924565b6001600160a01b0381166000818152600a60209081526040808320805460ff19169055600e909152808220829055517fcdd2e9b91a56913d370075169cefa1602ba36be5301664f752192bb1709df7579190a250565b83828483604051602001611f2291815260200190565b604051602081830303815290604052600084604051602001611f449190613da9565b60408051601f19818403018152919052805160209091012090506000808281526010602052604090205460ff166002811115611f8257611f826137fb565b14611f9f5760405162461bcd60e51b815260040161092490613de0565b60008284604051602001611fb4929190613e15565b60408051601f198184030181529082905280516020918201208083529250600080516020613f58833981519152910160405180910390a16000611ff88287896123e2565b6011805460ff191682151517905590508061202b57604051828152600080516020613f3883398151915290602001610d92565b60008381526010602052604090819020549051600080516020613f78833981519152916120619160ff9091169086908990613833565b60405180910390a16120738386613504565b61207e6001896136a2565b5050505050505050505050565b8383838360405160200161209f9190613e37565b6040516020818303038152906040526000846040516020016120c19190613da9565b60408051601f19818403018152919052805160209091012090506000808281526010602052604090205460ff1660028111156120ff576120ff6137fb565b1461211c5760405162461bcd60e51b815260040161092490613de0565b60008284604051602001612131929190613e15565b60408051601f198184030181529082905280516020918201208083529250600080516020613f58833981519152910160405180910390a160006121758287896123e2565b6011805460ff19168215151790559050806121a857604051828152600080516020613f3883398151915290602001610d92565b60008381526010602052604090819020549051600080516020613f78833981519152916121de9160ff9091169086908990613833565b60405180910390a16121f08386613504565b876040516020016122019190613e37565b60408051601f1981840301815291905280516020909101206012555050505050505050505050565b8282828660405160200161223d9190613e37565b60405160208183030381529060405260008460405160200161225f9190613da9565b60408051601f19818403018152919052805160209091012090506000808281526010602052604090205460ff16600281111561229d5761229d6137fb565b146122ba5760405162461bcd60e51b815260040161092490613de0565b600082846040516020016122cf929190613e15565b60408051601f198184030181529082905280516020918201208083529250600080516020613f58833981519152910160405180910390a160006123138287896123e2565b6011805460ff191682151517905590508061234657604051828152600080516020613f3883398151915290602001610d92565b60008381526010602052604090819020549051600080516020613f788339815191529161237c9160ff9091169086908990613833565b60405180910390a161238e8386613504565b6001600160a01b038b16600081815260096020908152604091829020805460ff1916600117905590519182527f9c2d3039f3d15023b5382d61054aae8f70288e4bffb8676398baca3c389e8f189101611c0e565b6000805b61010081101561248a578381610100811061240357612403613ce3565b6020028101906124139190613e90565b604051612421929190613ede565b60405180910390208382610100811061243c5761243c613ce3565b6040020160008360ff036001901b88161161245857600061245b565b60015b60ff166002811061246e5761246e613ce3565b602002013514612482576000915050612490565b6001016123e6565b50600190505b9392505050565b828282866040516020016124ad91815260200190565b6040516020818303038152906040526000846040516020016124cf9190613da9565b60408051601f19818403018152919052805160209091012090506000808281526010602052604090205460ff16600281111561250d5761250d6137fb565b1461252a5760405162461bcd60e51b815260040161092490613de0565b6000828460405160200161253f929190613e15565b60408051601f198184030181529082905280516020918201208083529250600080516020613f58833981519152910160405180910390a160006125838287896123e2565b6011805460ff19168215151790559050806125b657604051828152600080516020613f3883398151915290602001610d92565b60008381526010602052604090819020549051600080516020613f78833981519152916125ec9160ff9091169086908990613833565b60405180910390a16125fe8386613504565b60008b90556040518b81527f58098eeec115cba633a1b8765151f8a2e4efbdcb42846e0968e430d56e21d37090602001611c0e565b600f5460609060009067ffffffffffffffff8111156126545761265461386d565b60405190808252806020026020018201604052801561267d578160200160208202803683370190505b5090506000805b600f5481101561273e578460028111156126a0576126a06137fb565b600f82815481106126b3576126b3613ce3565b600091825260209091206002918202015460ff16908111156126d7576126d76137fb565b0361272c57600f81815481106126ef576126ef613ce3565b90600052602060002090600202016001015483838151811061271357612713613ce3565b60209081029190910101528161272881613d0f565b9250505b8061273681613d0f565b915050612684565b5060008167ffffffffffffffff81111561275a5761275a61386d565b604051908082528060200260200182016040528015612783578160200160208202803683370190505b50905060005b828110156127da578381815181106127a3576127a3613ce3565b60200260200101518282815181106127bd576127bd613ce3565b6020908102919091010152806127d281613d0f565b915050612789565b50949350505050565b3360009081526009602052604090205460ff166128515760405162461bcd60e51b815260206004820152602660248201527f4e6f74207065726d697474656420746f206d6f64696679206d696e75746573206044820152651c1b185e595960d21b6064820152608401610924565b6001600160a01b0382166000908152600b602052604081208054839290612879908490613e67565b90915550506040518181526001600160a01b038316907f54ecab596bd73e6a3fd6d8bb310aa69a74c3f78ddc040f88c6f5d06dffb3542b9060200161171a565b838383836040516020016128cf91815260200190565b6040516020818303038152906040526000846040516020016128f19190613da9565b60408051601f19818403018152919052805160209091012090506000808281526010602052604090205460ff16600281111561292f5761292f6137fb565b1461294c5760405162461bcd60e51b815260040161092490613de0565b60008284604051602001612961929190613e15565b60408051601f198184030181529082905280516020918201208083529250600080516020613f58833981519152910160405180910390a160006129a58287896123e2565b6011805460ff19168215151790559050806129d857604051828152600080516020613f3883398151915290602001610d92565b60008381526010602052604090819020549051600080516020613f7883398151915291612a0e9160ff9091169086908990613833565b60405180910390a1612a208386613504565b505050601394909455505050601491909155505050565b60085460408051600481526024810182526020810180516001600160e01b0316631bad9e0560e11b17905290516000927f375b3c0a792940dac787da40232e8cc6a34abc755014c8e76617ad03f30ecdc892849283926001600160a01b031691612aa091613d8d565b600060405180830381855afa9150503d8060008114612adb576040519150601f19603f3d011682016040523d82523d6000602084013e612ae0565b606091505b509150915081612b325760405162461bcd60e51b815260206004820152601760248201527f43616c6c20746f206d696e5374616b65206661696c65640000000000000000006044820152606401610924565b80806020019051810190612b469190613eee565b935050505090565b83838383604051602001612b6491815260200190565b604051602081830303815290604052600084604051602001612b869190613da9565b60408051601f19818403018152919052805160209091012090506000808281526010602052604090205460ff166002811115612bc457612bc46137fb565b14612be15760405162461bcd60e51b815260040161092490613de0565b60008284604051602001612bf6929190613e15565b60408051601f198184030181529082905280516020918201208083529250600080516020613f58833981519152910160405180910390a16000612c3a8287896123e2565b6011805460ff1916821515179055905080612c6d57604051828152600080516020613f3883398151915290602001610d92565b60008381526010602052604090819020549051600080516020613f7883398151915291612ca39160ff9091169086908990613833565b60405180910390a1612cb58386613504565b60008b604051602001612cc89190613da9565b6040516020818303038152906040528051906020012090506014548103612d655760405162461bcd60e51b8152602060048201526044602482018190527f416e6f6e4944436f6e74726163743a2043616e6e6f7420757365207468652073908201527f616d65206b6579636861696e20747769636520666f7220746869732066756e636064820152633a34b7b760e11b608482015260a401610924565b8860135414612dc05760405162461bcd60e51b815260206004820152602160248201527f416e6f6e4944436f6e74726163743a204b65797320646f206e6f74206d6174636044820152600d60fb1b6064820152608401610924565b601454818a6000808481526010602052604090205460ff166002811115612de957612de96137fb565b148015612e16575060008281526010602052604081205460ff166002811115612e1457612e146137fb565b145b612e7c5760405162461bcd60e51b815260206004820152603160248201527f416e6f6e4944436f6e74726163743a2050726f7669646564206b65797320617260448201527065206e6f74206d6173746572206b65797360781b6064820152608401610924565b828114158015612e8c5750818114155b612ef55760405162461bcd60e51b815260206004820152603460248201527f416e6f6e4944436f6e74726163743a204d6173746572206b6579732063616e6e6044820152736f742064656c657465207468656d73656c76657360601b6064820152608401610924565b6000818152601060205260408120600101549003612f645760405162461bcd60e51b815260206004820152602660248201527f416e6f6e4944436f6e74726163743a204e6f2073756368206b6579202864656c6044820152656574696f6e2960d01b6064820152608401610924565b60005b600f548110156130525781600f8281548110612f8557612f85613ce3565b9060005260206000209060020201600101540361304057600082815260106020818152604080842080548251428186015244818501528351808203850181526060909101938490528051908501209588905293909252630de1e7ed60e41b841860018301819055600260ff198516811790935560ff90931693917f0643be3612916977c69d5ed1abb75a50cca49df49ba2444d836e2a0cf65fe0749161303091869189918791613f07565b60405180910390a1505050613052565b8061304a81613d0f565b915050612f67565b5050600060138190556014555050505050505050505050505050565b8383838360405160200161308491815260200190565b6040516020818303038152906040526000846040516020016130a69190613da9565b60408051601f19818403018152919052805160209091012090506000808281526010602052604090205460ff1660028111156130e4576130e46137fb565b146131015760405162461bcd60e51b815260040161092490613de0565b60008284604051602001613116929190613e15565b60408051601f198184030181529082905280516020918201208083529250600080516020613f58833981519152910160405180910390a1600061315a8287896123e2565b6011805460ff191682151517905590508061318d57604051828152600080516020613f3883398151915290602001610d92565b60008381526010602052604090819020549051600080516020613f78833981519152916131c39160ff9091169086908990613833565b60405180910390a16131d58386613504565b60008b6040516020016131e89190613da9565b60408051601f1981840301815291905280516020909101206015805460009091559091508114158061325c5760405162461bcd60e51b815260206004820181905260248201527f504b4820646f6573206e6f74206d61746368206c617374207573656420504b486044820152606401610924565b6040805160248082018d905282518083039091018152604490910182526020810180516001600160e01b031663866c4b1760e01b17905260075491517f866c4b17874b90200e8c3db8234ea2fd494f2e10e49db71a5f989d59700cc996926000916001600160a01b039091169034906132d6908590613d8d565b60006040518083038185875af1925050503d8060008114613313576040519150601f19603f3d011682016040523d82523d6000602084013e613318565b606091505b50509050806133735760405162461bcd60e51b815260206004820152602160248201527f43616c6c20746f207570646174654d696e53656c665374616b65206661696c656044820152601960fa1b6064820152608401610924565b50505050505050505050505050505050565b838383836040516020016133999190613d8d565b6040516020818303038152906040526000846040516020016133bb9190613da9565b60408051601f19818403018152919052805160209091012090506000808281526010602052604090205460ff1660028111156133f9576133f96137fb565b146134165760405162461bcd60e51b815260040161092490613de0565b6000828460405160200161342b929190613e15565b60408051601f198184030181529082905280516020918201208083529250600080516020613f58833981519152910160405180910390a1600061346f8287896123e2565b6011805460ff19168215151790559050806134a257604051828152600080516020613f3883398151915290602001610d92565b60008381526010602052604090819020549051600080516020613f78833981519152916134d89160ff9091169086908990613833565b60405180910390a16134ea8386613504565b505085516020909601959095206003555050505050505050565b60008281526010602052604081206001015490036135345760405162461bcd60e51b815260040161092490613cac565b6040805180820182526000848152601060205291822054819060ff166002811115613561576135616137fb565b815260209081018490526000848152601090915260409020815181549293508392829060ff1916600183600281111561359c5761359c6137fb565b02179055506020918201516001918201556000858152601090925260408220805460ff19168155018190555b600f548110156136725783600f82815481106135e6576135e6613ce3565b906000526020600020906002020160010154036136605781600f828154811061361157613611613ce3565b906000526020600020906002020160008201518160000160006101000a81548160ff02191690836002811115613649576136496137fb565b021790555060208201518160010155905050613672565b8061366a81613d0f565b9150506135c8565b508051604051600080516020613f78833981519152916136959186908690613833565b60405180910390a1505050565b600060405180604001604052808460028111156136c1576136c16137fb565b8152602001839052600f805460018181018355600092909252825160029182027f8d1108e10bcb7c27dddfc02ed9d693a074039d026cf4ea4240b40f7d581ac802018054949550859490939192849260ff1990921691908490811115613729576137296137fb565b0217905550602091820151600191820155600084815260109092526040909120825181548493839160ff191690836002811115613768576137686137fb565b0217905550602082015181600101559050507f2172c7b01a6de957d29fd6166a23025d181bf56538ad606a526ab2d62603f3fc8383604051613695929190613852565b80356001600160a01b03811681146137c257600080fd5b919050565b6000602082840312156137d957600080fd5b612490826137ab565b6000602082840312156137f457600080fd5b5035919050565b634e487b7160e01b600052602160045260246000fd5b6003811061382f57634e487b7160e01b600052602160045260246000fd5b9052565b606081016138418286613811565b602082019390935260400152919050565b604081016138608285613811565b8260208301529392505050565b634e487b7160e01b600052604160045260246000fd5b600067ffffffffffffffff8084111561389e5761389e61386d565b604051601f8501601f19908116603f011681019082821181831017156138c6576138c661386d565b816040528093508581528686860111156138df57600080fd5b858560208301376000602087830101525050509392505050565b6000806040838503121561390c57600080fd5b613915836137ab565b9150602083013567ffffffffffffffff81111561393157600080fd5b8301601f8101851361394257600080fd5b61395185823560208401613883565b9150509250929050565b6000806040838503121561396e57600080fd5b613977836137ab565b946020939093013593505050565b80614000810183101561399757600080fd5b92915050565b80612000810183101561399757600080fd5b60008060008061406085870312156139c657600080fd5b6139d08686613985565b935061400085013567ffffffffffffffff8111156139ed57600080fd5b6139f98782880161399d565b9497949650505050614020830135926140400135919050565b6000806000806140608587031215613a2957600080fd5b613a338686613985565b935061400085013567ffffffffffffffff80821115613a5157600080fd5b613a5d8883890161399d565b94506140208701359350614040870135915080821115613a7c57600080fd5b508501601f81018713613a8e57600080fd5b613a9d87823560208401613883565b91505092959194509250565b6000806000806140608587031215613ac057600080fd5b613ac9856137ab565b9350613ad88660208701613985565b925061402085013567ffffffffffffffff811115613af557600080fd5b613b018782880161399d565b94979396509394614040013593505050565b6000806000806140608587031215613b2a57600080fd5b613b348686613985565b935061400085013567ffffffffffffffff811115613b5157600080fd5b613b5d8782880161399d565b9350506140208501359150613b7561404086016137ab565b905092959194509250565b6000806000806140608587031215613b9757600080fd5b613ba18686613985565b9350614000850135925061402085013567ffffffffffffffff811115613af557600080fd5b60008060006140408486031215613bdc57600080fd5b83359250602084013567ffffffffffffffff811115613bfa57600080fd5b613c068682870161399d565b925050613c168560408601613985565b90509250925092565b6000806000806140608587031215613c3657600080fd5b84359350613ad88660208701613985565b600060208284031215613c5957600080fd5b81356003811061249057600080fd5b6020808252825182820181905260009190848201906040850190845b81811015613ca057835183529284019291840191600101613c84565b50909695505050505050565b6020808252601b908201527f416e6f6e4944436f6e74726163743a204e6f2073756368206b65790000000000604082015260600190565b634e487b7160e01b600052603260045260246000fd5b634e487b7160e01b600052601160045260246000fd5b600060018201613d2157613d21613cf9565b5060010190565b60208082526021908201527f4e6f74207065726d697474656420746f206d6f646966792077686974656c69736040820152601d60fa1b606082015260800190565b60005b83811015613d84578181015183820152602001613d6c565b50506000910152565b60008251613d9f818460208701613d69565b9190910192915050565b60008183825b610100811015613dd057604080838537928301929190910190600101613daf565b5050506140008201905092915050565b6020808252818101527f416e6f6e4944436f6e74726163743a204e6f742061206d6173746572206b6579604082015260600190565b60008351613e27818460208801613d69565b9190910191825250602001919050565b60609190911b6bffffffffffffffffffffffff1916815260140190565b8181038181111561399757613997613cf9565b8082018082111561399757613997613cf9565b634e487b7160e01b600052603160045260246000fd5b6000808335601e19843603018112613ea757600080fd5b83018035915067ffffffffffffffff821115613ec257600080fd5b602001915036819003821315613ed757600080fd5b9250929050565b8183823760009101908152919050565b600060208284031215613f0057600080fd5b5051919050565b60808101613f158287613811565b846020830152836040830152613f2e6060830184613811565b9594505050505056fe32629d580208e19f97e5752eef849e102f803999c88aa7f75e12b1744eecd5a7d87e68f36f73a7eb22739d6639e36cafebfcde0b5543340b39f42cac68fdd1f06825a39bd161f4ef5aab6cfd2c26db3ee0005c11b43cffd544fc876312116edda26469706673582212208f1ed769167021cab2c84d572ffe9ad774cebd03507078bb1168f4c29129513664736f6c63430008150033","bytecodeSha1":"d6d9d68f5760d2e32352313225e9aca57309c791","compiler":{"evm_version":"istanbul","optimizer":{"enabled":true,"runs":200},"version":"0.8.21+commit.d9974bed"},"contractName":"AnonIDContract","language":"Solidity","natspec":{"kind":"dev","methods":{},"version":1},"opcodes":"PUSH1 0x80 PUSH1 0x40 MSTORE PUSH1 0x4 CALLDATASIZE LT PUSH2 0x272 JUMPI PUSH1 0x0 CALLDATALOAD PUSH1 0xE0 SHR DUP1 PUSH4 0x7E08DEAE GT PUSH2 0x14F JUMPI DUP1 PUSH4 0xAF82F3E7 GT PUSH2 0xC1 JUMPI DUP1 PUSH4 0xD83C413C GT PUSH2 0x7A JUMPI DUP1 PUSH4 0xD83C413C EQ PUSH2 0x7F5 JUMPI DUP1 PUSH4 0xE256D9A6 EQ PUSH2 0x815 JUMPI DUP1 PUSH4 0xE673D71F EQ PUSH2 0x82A JUMPI DUP1 PUSH4 0xE8F3C92B EQ PUSH2 0x84A JUMPI DUP1 PUSH4 0xF82E84FD EQ PUSH2 0x85D JUMPI DUP1 PUSH4 0xFB632D89 EQ PUSH2 0x87D JUMPI PUSH1 0x0 DUP1 REVERT JUMPDEST DUP1 PUSH4 0xAF82F3E7 EQ PUSH2 0x725 JUMPI DUP1 PUSH4 0xB3910C9F EQ PUSH2 0x745 JUMPI DUP1 PUSH4 0xB889B2B7 EQ PUSH2 0x765 JUMPI DUP1 PUSH4 0xB97B4F77 EQ PUSH2 0x77B JUMPI DUP1 PUSH4 0xBA690677 EQ PUSH2 0x7A8 JUMPI DUP1 PUSH4 0xD47B2E99 EQ PUSH2 0x7D5 JUMPI PUSH1 0x0 DUP1 REVERT JUMPDEST DUP1 PUSH4 0x8EB8F1A6 GT PUSH2 0x113 JUMPI DUP1 PUSH4 0x8EB8F1A6 EQ PUSH2 0x63D JUMPI DUP1 PUSH4 0x931742D3 EQ PUSH2 0x65D JUMPI DUP1 PUSH4 0x9B19251A EQ PUSH2 0x67B JUMPI DUP1 PUSH4 0xA9711EE3 EQ PUSH2 0x6AB JUMPI DUP1 PUSH4 0xAE61D2C2 EQ PUSH2 0x6E5 JUMPI DUP1 PUSH4 0xAEC43F5A EQ PUSH2 0x705 JUMPI PUSH1 0x0 DUP1 REVERT JUMPDEST DUP1 PUSH4 0x7E08DEAE EQ PUSH2 0x5C8 JUMPI DUP1 PUSH4 0x8705D945 EQ PUSH2 0x5E8 JUMPI DUP1 PUSH4 0x8775B01F EQ PUSH2 0x5FD JUMPI DUP1 PUSH4 0x894A1E8E EQ PUSH2 0x433 JUMPI DUP1 PUSH4 0x8AB1D681 EQ PUSH2 0x61D JUMPI PUSH1 0x0 DUP1 REVERT JUMPDEST DUP1 PUSH4 0x4BDD4499 GT PUSH2 0x1E8 JUMPI DUP1 PUSH4 0x5961F500 GT PUSH2 0x1AC JUMPI DUP1 PUSH4 0x5961F500 EQ PUSH2 0x4C0 JUMPI DUP1 PUSH4 0x5C16E15E EQ PUSH2 0x4E0 JUMPI DUP1 PUSH4 0x6118B1C3 EQ PUSH2 0x50D JUMPI DUP1 PUSH4 0x6C8DD0BD EQ PUSH2 0x52D JUMPI DUP1 PUSH4 0x753AC6DC EQ PUSH2 0x55A JUMPI DUP1 PUSH4 0x787325CA EQ PUSH2 0x592 JUMPI PUSH1 0x0 DUP1 REVERT JUMPDEST DUP1 PUSH4 0x4BDD4499 EQ PUSH2 0x41D JUMPI DUP1 PUSH4 0x4E657D2A EQ PUSH2 0x433 JUMPI DUP1 PUSH4 0x4FBBC63F EQ PUSH2 0x453 JUMPI DUP1 PUSH4 0x5325758E EQ PUSH2 0x480 JUMPI DUP1 PUSH4 0x5796841A EQ PUSH2 0x4A0 JUMPI PUSH1 0x0 DUP1 REVERT JUMPDEST DUP1 PUSH4 0x2FD5C247 GT PUSH2 0x23A JUMPI DUP1 PUSH4 0x2FD5C247 EQ PUSH2 0x350 JUMPI DUP1 PUSH4 0x3337DB52 EQ PUSH2 0x36A JUMPI DUP1 PUSH4 0x3AF32ABF EQ PUSH2 0x38E JUMPI DUP1 PUSH4 0x3B5B27D7 EQ PUSH2 0x3C7 JUMPI DUP1 PUSH4 0x3E13566B EQ PUSH2 0x3E7 JUMPI DUP1 PUSH4 0x4A672870 EQ PUSH2 0x3FD JUMPI PUSH1 0x0 DUP1 REVERT JUMPDEST DUP1 PUSH4 0x3545EAC EQ PUSH2 0x277 JUMPI DUP1 PUSH4 0x5AACC7D EQ PUSH2 0x2BC JUMPI DUP1 PUSH4 0xCB6AAF1 EQ PUSH2 0x2EB JUMPI DUP1 PUSH4 0x142EB8C8 EQ PUSH2 0x319 JUMPI DUP1 PUSH4 0x1A533DAA EQ PUSH2 0x330 JUMPI JUMPDEST PUSH1 0x0 DUP1 REVERT JUMPDEST CALLVALUE DUP1 ISZERO PUSH2 0x283 JUMPI PUSH1 0x0 DUP1 REVERT JUMPDEST POP PUSH2 0x2A7 PUSH2 0x292 CALLDATASIZE PUSH1 0x4 PUSH2 0x37C7 JUMP JUMPDEST PUSH1 0x9 PUSH1 0x20 MSTORE PUSH1 0x0 SWAP1 DUP2 MSTORE PUSH1 0x40 SWAP1 KECCAK256 SLOAD PUSH1 0xFF AND DUP2 JUMP JUMPDEST PUSH1 0x40 MLOAD SWAP1 ISZERO ISZERO DUP2 MSTORE PUSH1 0x20 ADD JUMPDEST PUSH1 0x40 MLOAD DUP1 SWAP2 SUB SWAP1 RETURN JUMPDEST CALLVALUE DUP1 ISZERO PUSH2 0x2C8 JUMPI PUSH1 0x0 DUP1 REVERT JUMPDEST POP PUSH2 0x2DC PUSH2 0x2D7 CALLDATASIZE PUSH1 0x4 PUSH2 0x37E2 JUMP JUMPDEST PUSH2 0x8AA JUMP JUMPDEST PUSH1 0x40 MLOAD PUSH2 0x2B3 SWAP4 SWAP3 SWAP2 SWAP1 PUSH2 0x3833 JUMP JUMPDEST CALLVALUE DUP1 ISZERO PUSH2 0x2F7 JUMPI PUSH1 0x0 DUP1 REVERT JUMPDEST POP PUSH2 0x30B PUSH2 0x306 CALLDATASIZE PUSH1 0x4 PUSH2 0x37E2 JUMP JUMPDEST PUSH2 0x9AC JUMP JUMPDEST PUSH1 0x40 MLOAD PUSH2 0x2B3 SWAP3 SWAP2 SWAP1 PUSH2 0x3852 JUMP JUMPDEST CALLVALUE DUP1 ISZERO PUSH2 0x325 JUMPI PUSH1 0x0 DUP1 REVERT JUMPDEST POP PUSH2 0x32E PUSH2 0x9DE JUMP JUMPDEST STOP JUMPDEST CALLVALUE DUP1 ISZERO PUSH2 0x33C JUMPI PUSH1 0x0 DUP1 REVERT JUMPDEST POP PUSH2 0x32E PUSH2 0x34B CALLDATASIZE PUSH1 0x4 PUSH2 0x38F9 JUMP JUMPDEST PUSH2 0xB1A JUMP JUMPDEST CALLVALUE DUP1 ISZERO PUSH2 0x35C JUMPI PUSH1 0x0 DUP1 REVERT JUMPDEST POP PUSH1 0x11 SLOAD PUSH2 0x2A7 SWAP1 PUSH1 0xFF AND DUP2 JUMP JUMPDEST CALLVALUE DUP1 ISZERO PUSH2 0x376 JUMPI PUSH1 0x0 DUP1 REVERT JUMPDEST POP PUSH2 0x380 PUSH1 0x1 SLOAD DUP2 JUMP JUMPDEST PUSH1 0x40 MLOAD SWAP1 DUP2 MSTORE PUSH1 0x20 ADD PUSH2 0x2B3 JUMP JUMPDEST CALLVALUE DUP1 ISZERO PUSH2 0x39A JUMPI PUSH1 0x0 DUP1 REVERT JUMPDEST POP PUSH2 0x2A7 PUSH2 0x3A9 CALLDATASIZE PUSH1 0x4 PUSH2 0x37C7 JUMP JUMPDEST PUSH1 0x1 PUSH1 0x1 PUSH1 0xA0 SHL SUB AND PUSH1 0x0 SWAP1 DUP2 MSTORE PUSH1 0xA PUSH1 0x20 MSTORE PUSH1 0x40 SWAP1 KECCAK256 SLOAD PUSH1 0xFF AND SWAP1 JUMP JUMPDEST CALLVALUE DUP1 ISZERO PUSH2 0x3D3 JUMPI PUSH1 0x0 DUP1 REVERT JUMPDEST POP PUSH2 0x380 PUSH2 0x3E2 CALLDATASIZE PUSH1 0x4 PUSH2 0x395B JUMP JUMPDEST PUSH2 0xC46 JUMP JUMPDEST CALLVALUE DUP1 ISZERO PUSH2 0x3F3 JUMPI PUSH1 0x0 DUP1 REVERT JUMPDEST POP PUSH2 0x380 PUSH1 0x3 SLOAD DUP2 JUMP JUMPDEST CALLVALUE DUP1 ISZERO PUSH2 0x409 JUMPI PUSH1 0x0 DUP1 REVERT JUMPDEST POP PUSH2 0x32E PUSH2 0x418 CALLDATASIZE PUSH1 0x4 PUSH2 0x39AF JUMP JUMPDEST PUSH2 0xC77 JUMP JUMPDEST CALLVALUE DUP1 ISZERO PUSH2 0x429 JUMPI PUSH1 0x0 DUP1 REVERT JUMPDEST POP PUSH2 0x380 PUSH1 0x15 SLOAD DUP2 JUMP JUMPDEST CALLVALUE DUP1 ISZERO PUSH2 0x43F JUMPI PUSH1 0x0 DUP1 REVERT JUMPDEST POP PUSH2 0x32E PUSH2 0x44E CALLDATASIZE PUSH1 0x4 PUSH2 0x3A12 JUMP JUMPDEST PUSH2 0xE48 JUMP JUMPDEST CALLVALUE DUP1 ISZERO PUSH2 0x45F JUMPI PUSH1 0x0 DUP1 REVERT JUMPDEST POP PUSH2 0x380 PUSH2 0x46E CALLDATASIZE PUSH1 0x4 PUSH2 0x37C7 JUMP JUMPDEST PUSH1 0xD PUSH1 0x20 MSTORE PUSH1 0x0 SWAP1 DUP2 MSTORE PUSH1 0x40 SWAP1 KECCAK256 SLOAD DUP2 JUMP JUMPDEST CALLVALUE DUP1 ISZERO PUSH2 0x48C JUMPI PUSH1 0x0 DUP1 REVERT JUMPDEST POP PUSH2 0x32E PUSH2 0x49B CALLDATASIZE PUSH1 0x4 PUSH2 0x3AA9 JUMP JUMPDEST PUSH2 0xFBF JUMP JUMPDEST CALLVALUE DUP1 ISZERO PUSH2 0x4AC JUMPI PUSH1 0x0 DUP1 REVERT JUMPDEST POP PUSH2 0x32E PUSH2 0x4BB CALLDATASIZE PUSH1 0x4 PUSH2 0x39AF JUMP JUMPDEST PUSH2 0x1151 JUMP JUMPDEST CALLVALUE DUP1 ISZERO PUSH2 0x4CC JUMPI PUSH1 0x0 DUP1 REVERT JUMPDEST POP PUSH2 0x32E PUSH2 0x4DB CALLDATASIZE PUSH1 0x4 PUSH2 0x3B13 JUMP JUMPDEST PUSH2 0x1390 JUMP JUMPDEST CALLVALUE DUP1 ISZERO PUSH2 0x4EC JUMPI PUSH1 0x0 DUP1 REVERT JUMPDEST POP PUSH2 0x380 PUSH2 0x4FB CALLDATASIZE PUSH1 0x4 PUSH2 0x37C7 JUMP JUMPDEST PUSH1 0xC PUSH1 0x20 MSTORE PUSH1 0x0 SWAP1 DUP2 MSTORE PUSH1 0x40 SWAP1 KECCAK256 SLOAD DUP2 JUMP JUMPDEST CALLVALUE DUP1 ISZERO PUSH2 0x519 JUMPI PUSH1 0x0 DUP1 REVERT JUMPDEST POP PUSH2 0x32E PUSH2 0x528 CALLDATASIZE PUSH1 0x4 PUSH2 0x395B JUMP JUMPDEST PUSH2 0x15ED JUMP JUMPDEST CALLVALUE DUP1 ISZERO PUSH2 0x539 JUMPI PUSH1 0x0 DUP1 REVERT JUMPDEST POP PUSH2 0x380 PUSH2 0x548 CALLDATASIZE PUSH1 0x4 PUSH2 0x37C7 JUMP JUMPDEST PUSH1 0xB PUSH1 0x20 MSTORE PUSH1 0x0 SWAP1 DUP2 MSTORE PUSH1 0x40 SWAP1 KECCAK256 SLOAD DUP2 JUMP JUMPDEST CALLVALUE DUP1 ISZERO PUSH2 0x566 JUMPI PUSH1 0x0 DUP1 REVERT JUMPDEST POP PUSH2 0x57A PUSH2 0x575 CALLDATASIZE PUSH1 0x4 PUSH2 0x3A12 JUMP JUMPDEST PUSH2 0x1726 JUMP JUMPDEST PUSH1 0x40 MLOAD PUSH1 0x1 PUSH1 0x1 PUSH1 0xA0 SHL SUB SWAP1 SWAP2 AND DUP2 MSTORE PUSH1 0x20 ADD PUSH2 0x2B3 JUMP JUMPDEST CALLVALUE DUP1 ISZERO PUSH2 0x59E JUMPI PUSH1 0x0 DUP1 REVERT JUMPDEST POP PUSH2 0x380 PUSH2 0x5AD CALLDATASIZE PUSH1 0x4 PUSH2 0x37C7 JUMP JUMPDEST PUSH1 0x1 PUSH1 0x1 PUSH1 0xA0 SHL SUB AND PUSH1 0x0 SWAP1 DUP2 MSTORE PUSH1 0xB PUSH1 0x20 MSTORE PUSH1 0x40 SWAP1 KECCAK256 SLOAD SWAP1 JUMP JUMPDEST CALLVALUE DUP1 ISZERO PUSH2 0x5D4 JUMPI PUSH1 0x0 DUP1 REVERT JUMPDEST POP PUSH2 0x32E PUSH2 0x5E3 CALLDATASIZE PUSH1 0x4 PUSH2 0x39AF JUMP JUMPDEST PUSH2 0x1975 JUMP JUMPDEST CALLVALUE DUP1 ISZERO PUSH2 0x5F4 JUMPI PUSH1 0x0 DUP1 REVERT JUMPDEST POP PUSH1 0x1 SLOAD PUSH2 0x380 JUMP JUMPDEST CALLVALUE DUP1 ISZERO PUSH2 0x609 JUMPI PUSH1 0x0 DUP1 REVERT JUMPDEST POP PUSH2 0x2A7 PUSH2 0x618 CALLDATASIZE PUSH1 0x4 PUSH2 0x37C7 JUMP JUMPDEST PUSH2 0x1C23 JUMP JUMPDEST CALLVALUE DUP1 ISZERO PUSH2 0x629 JUMPI PUSH1 0x0 DUP1 REVERT JUMPDEST POP PUSH2 0x32E PUSH2 0x638 CALLDATASIZE PUSH1 0x4 PUSH2 0x37C7 JUMP JUMPDEST PUSH2 0x1E1F JUMP JUMPDEST CALLVALUE DUP1 ISZERO PUSH2 0x649 JUMPI PUSH1 0x0 DUP1 REVERT JUMPDEST POP PUSH2 0x32E PUSH2 0x658 CALLDATASIZE PUSH1 0x4 PUSH2 0x3B80 JUMP JUMPDEST PUSH2 0x1F0C JUMP JUMPDEST CALLVALUE DUP1 ISZERO PUSH2 0x669 JUMPI PUSH1 0x0 DUP1 REVERT JUMPDEST POP PUSH1 0x6 SLOAD PUSH1 0x1 PUSH1 0x1 PUSH1 0xA0 SHL SUB AND PUSH2 0x57A JUMP JUMPDEST CALLVALUE DUP1 ISZERO PUSH2 0x687 JUMPI PUSH1 0x0 DUP1 REVERT JUMPDEST POP PUSH2 0x2A7 PUSH2 0x696 CALLDATASIZE PUSH1 0x4 PUSH2 0x37C7 JUMP JUMPDEST PUSH1 0xA PUSH1 0x20 MSTORE PUSH1 0x0 SWAP1 DUP2 MSTORE PUSH1 0x40 SWAP1 KECCAK256 SLOAD PUSH1 0xFF AND DUP2 JUMP JUMPDEST CALLVALUE DUP1 ISZERO PUSH2 0x6B7 JUMPI PUSH1 0x0 DUP1 REVERT JUMPDEST POP PUSH2 0x30B PUSH2 0x6C6 CALLDATASIZE PUSH1 0x4 PUSH2 0x37E2 JUMP JUMPDEST PUSH1 0x10 PUSH1 0x20 MSTORE PUSH1 0x0 SWAP1 DUP2 MSTORE PUSH1 0x40 SWAP1 KECCAK256 DUP1 SLOAD PUSH1 0x1 SWAP1 SWAP2 ADD SLOAD PUSH1 0xFF SWAP1 SWAP2 AND SWAP1 DUP3 JUMP JUMPDEST CALLVALUE DUP1 ISZERO PUSH2 0x6F1 JUMPI PUSH1 0x0 DUP1 REVERT JUMPDEST POP PUSH2 0x32E PUSH2 0x700 CALLDATASIZE PUSH1 0x4 PUSH2 0x3B13 JUMP JUMPDEST PUSH2 0x208B JUMP JUMPDEST CALLVALUE DUP1 ISZERO PUSH2 0x711 JUMPI PUSH1 0x0 DUP1 REVERT JUMPDEST POP PUSH2 0x32E PUSH2 0x720 CALLDATASIZE PUSH1 0x4 PUSH2 0x3AA9 JUMP JUMPDEST PUSH2 0x2229 JUMP JUMPDEST CALLVALUE DUP1 ISZERO PUSH2 0x731 JUMPI PUSH1 0x0 DUP1 REVERT JUMPDEST POP PUSH2 0x2A7 PUSH2 0x740 CALLDATASIZE PUSH1 0x4 PUSH2 0x3BC6 JUMP JUMPDEST PUSH2 0x23E2 JUMP JUMPDEST CALLVALUE DUP1 ISZERO PUSH2 0x751 JUMPI PUSH1 0x0 DUP1 REVERT JUMPDEST POP PUSH2 0x32E PUSH2 0x760 CALLDATASIZE PUSH1 0x4 PUSH2 0x3C1F JUMP JUMPDEST PUSH2 0x2497 JUMP JUMPDEST CALLVALUE DUP1 ISZERO PUSH2 0x771 JUMPI PUSH1 0x0 DUP1 REVERT JUMPDEST POP PUSH2 0x380 PUSH1 0x0 SLOAD DUP2 JUMP JUMPDEST CALLVALUE DUP1 ISZERO PUSH2 0x787 JUMPI PUSH1 0x0 DUP1 REVERT JUMPDEST POP PUSH2 0x79B PUSH2 0x796 CALLDATASIZE PUSH1 0x4 PUSH2 0x3C47 JUMP JUMPDEST PUSH2 0x2633 JUMP JUMPDEST PUSH1 0x40 MLOAD PUSH2 0x2B3 SWAP2 SWAP1 PUSH2 0x3C68 JUMP JUMPDEST CALLVALUE DUP1 ISZERO PUSH2 0x7B4 JUMPI PUSH1 0x0 DUP1 REVERT JUMPDEST POP PUSH2 0x380 PUSH2 0x7C3 CALLDATASIZE PUSH1 0x4 PUSH2 0x37C7 JUMP JUMPDEST PUSH1 0xE PUSH1 0x20 MSTORE PUSH1 0x0 SWAP1 DUP2 MSTORE PUSH1 0x40 SWAP1 KECCAK256 SLOAD DUP2 JUMP JUMPDEST CALLVALUE DUP1 ISZERO PUSH2 0x7E1 JUMPI PUSH1 0x0 DUP1 REVERT JUMPDEST POP PUSH2 0x32E PUSH2 0x7F0 CALLDATASIZE PUSH1 0x4 PUSH2 0x395B JUMP JUMPDEST PUSH2 0x27E3 JUMP JUMPDEST CALLVALUE DUP1 ISZERO PUSH2 0x801 JUMPI PUSH1 0x0 DUP1 REVERT JUMPDEST POP PUSH2 0x32E PUSH2 0x810 CALLDATASIZE PUSH1 0x4 PUSH2 0x39AF JUMP JUMPDEST PUSH2 0x28B9 JUMP JUMPDEST CALLVALUE DUP1 ISZERO PUSH2 0x821 JUMPI PUSH1 0x0 DUP1 REVERT JUMPDEST POP PUSH2 0x380 PUSH2 0x2A37 JUMP JUMPDEST CALLVALUE DUP1 ISZERO PUSH2 0x836 JUMPI PUSH1 0x0 DUP1 REVERT JUMPDEST POP PUSH2 0x32E PUSH2 0x845 CALLDATASIZE PUSH1 0x4 PUSH2 0x39AF JUMP JUMPDEST PUSH2 0x2B4E JUMP JUMPDEST PUSH2 0x32E PUSH2 0x858 CALLDATASIZE PUSH1 0x4 PUSH2 0x39AF JUMP JUMPDEST PUSH2 0x306E JUMP JUMPDEST CALLVALUE DUP1 ISZERO PUSH2 0x869 JUMPI PUSH1 0x0 DUP1 REVERT JUMPDEST POP PUSH2 0x32E PUSH2 0x878 CALLDATASIZE PUSH1 0x4 PUSH2 0x3A12 JUMP JUMPDEST PUSH2 0x3385 JUMP JUMPDEST CALLVALUE DUP1 ISZERO PUSH2 0x889 JUMPI PUSH1 0x0 DUP1 REVERT JUMPDEST POP PUSH2 0x380 PUSH2 0x898 CALLDATASIZE PUSH1 0x4 PUSH2 0x37C7 JUMP JUMPDEST PUSH1 0x5 PUSH1 0x20 MSTORE PUSH1 0x0 SWAP1 DUP2 MSTORE PUSH1 0x40 SWAP1 KECCAK256 SLOAD DUP2 JUMP JUMPDEST PUSH1 0x0 DUP2 DUP2 MSTORE PUSH1 0x10 PUSH1 0x20 MSTORE PUSH1 0x40 DUP1 DUP3 KECCAK256 DUP2 MLOAD DUP1 DUP4 ADD SWAP1 SWAP3 MSTORE DUP1 SLOAD DUP4 SWAP3 DUP4 SWAP3 DUP4 SWAP3 DUP3 SWAP1 PUSH1 0xFF AND PUSH1 0x2 DUP2 GT ISZERO PUSH2 0x8DF JUMPI PUSH2 0x8DF PUSH2 0x37FB JUMP JUMPDEST PUSH1 0x2 DUP2 GT ISZERO PUSH2 0x8F0 JUMPI PUSH2 0x8F0 PUSH2 0x37FB JUMP JUMPDEST DUP2 MSTORE PUSH1 0x1 SWAP2 SWAP1 SWAP2 ADD SLOAD PUSH1 0x20 SWAP2 DUP3 ADD MSTORE DUP2 ADD MLOAD SWAP1 SWAP2 POP PUSH1 0x0 SUB PUSH2 0x92D JUMPI PUSH1 0x40 MLOAD PUSH3 0x461BCD PUSH1 0xE5 SHL DUP2 MSTORE PUSH1 0x4 ADD PUSH2 0x924 SWAP1 PUSH2 0x3CAC JUMP JUMPDEST PUSH1 0x40 MLOAD DUP1 SWAP2 SUB SWAP1 REVERT JUMPDEST PUSH1 0x0 JUMPDEST PUSH1 0xF SLOAD DUP2 LT ISZERO PUSH2 0x98C JUMPI DUP6 PUSH1 0xF DUP3 DUP2 SLOAD DUP2 LT PUSH2 0x94E JUMPI PUSH2 0x94E PUSH2 0x3CE3 JUMP JUMPDEST SWAP1 PUSH1 0x0 MSTORE PUSH1 0x20 PUSH1 0x0 KECCAK256 SWAP1 PUSH1 0x2 MUL ADD PUSH1 0x1 ADD SLOAD SUB PUSH2 0x97A JUMPI DUP2 MLOAD PUSH1 0x20 SWAP1 SWAP3 ADD MLOAD SWAP2 SWAP5 POP SWAP1 SWAP3 POP SWAP1 POP PUSH2 0x9A5 JUMP JUMPDEST DUP1 PUSH2 0x984 DUP2 PUSH2 0x3D0F JUMP JUMPDEST SWAP2 POP POP PUSH2 0x930 JUMP JUMPDEST POP PUSH1 0x40 MLOAD PUSH3 0x461BCD PUSH1 0xE5 SHL DUP2 MSTORE PUSH1 0x4 ADD PUSH2 0x924 SWAP1 PUSH2 0x3CAC JUMP JUMPDEST SWAP2 SWAP4 SWAP1 SWAP3 POP JUMP JUMPDEST PUSH1 0xF DUP2 DUP2 SLOAD DUP2 LT PUSH2 0x9BC JUMPI PUSH1 0x0 DUP1 REVERT JUMPDEST PUSH1 0x0 SWAP2 DUP3 MSTORE PUSH1 0x20 SWAP1 SWAP2 KECCAK256 PUSH1 0x2 SWAP1 SWAP2 MUL ADD DUP1 SLOAD PUSH1 0x1 SWAP1 SWAP2 ADD SLOAD PUSH1 0xFF SWAP1 SWAP2 AND SWAP2 POP DUP3 JUMP JUMPDEST CALLER PUSH1 0x0 DUP2 DUP2 MSTORE PUSH1 0xA PUSH1 0x20 MSTORE PUSH1 0x40 SWAP1 KECCAK256 SLOAD PUSH1 0xFF AND PUSH2 0xA3D JUMPI PUSH1 0x40 MLOAD PUSH3 0x461BCD PUSH1 0xE5 SHL DUP2 MSTORE PUSH1 0x20 PUSH1 0x4 DUP3 ADD MSTORE PUSH1 0x17 PUSH1 0x24 DUP3 ADD MSTORE PUSH32 0x55736572206973206E6F742077686974656C6973746564000000000000000000 PUSH1 0x44 DUP3 ADD MSTORE PUSH1 0x64 ADD PUSH2 0x924 JUMP JUMPDEST PUSH1 0x1 PUSH1 0x1 PUSH1 0xA0 SHL SUB DUP2 AND PUSH1 0x0 SWAP1 DUP2 MSTORE PUSH1 0xC PUSH1 0x20 SWAP1 DUP2 MSTORE PUSH1 0x40 DUP1 DUP4 KECCAK256 SLOAD PUSH1 0xD SWAP1 SWAP3 MSTORE SWAP1 SWAP2 KECCAK256 SLOAD DUP1 DUP3 LT ISZERO PUSH2 0xAA9 JUMPI PUSH1 0x40 MLOAD PUSH3 0x461BCD PUSH1 0xE5 SHL DUP2 MSTORE PUSH1 0x20 PUSH1 0x4 DUP3 ADD MSTORE PUSH1 0x14 PUSH1 0x24 DUP3 ADD MSTORE PUSH20 0x496E76616C696420636C61696D2076616C756573 PUSH1 0x60 SHL PUSH1 0x44 DUP3 ADD MSTORE PUSH1 0x64 ADD PUSH2 0x924 JUMP JUMPDEST PUSH1 0x1 PUSH1 0x1 PUSH1 0xA0 SHL SUB DUP4 AND PUSH1 0x0 DUP2 DUP2 MSTORE PUSH1 0xD PUSH1 0x20 SWAP1 DUP2 MSTORE PUSH1 0x40 DUP1 DUP4 KECCAK256 DUP7 SWAP1 SSTORE PUSH1 0xB DUP1 DUP4 MSTORE DUP2 DUP5 KECCAK256 SLOAD PUSH1 0xC DUP5 MSTORE SWAP4 DUP3 SWAP1 KECCAK256 DUP5 SWAP1 SSTORE DUP3 MSTORE DUP1 MLOAD DUP7 DUP2 MSTORE SWAP2 DUP3 ADD SWAP3 SWAP1 SWAP3 MSTORE PUSH32 0xDC5EC23A202853E756BBB0C4F4CB94DEEA4936FCC71756DA3DDEBF99AABF6C9E SWAP2 ADD JUMPDEST PUSH1 0x40 MLOAD DUP1 SWAP2 SUB SWAP1 LOG2 POP POP POP JUMP JUMPDEST CALLER PUSH1 0x0 SWAP1 DUP2 MSTORE PUSH1 0x9 PUSH1 0x20 MSTORE PUSH1 0x40 SWAP1 KECCAK256 SLOAD PUSH1 0xFF AND PUSH2 0xB49 JUMPI PUSH1 0x40 MLOAD PUSH3 0x461BCD PUSH1 0xE5 SHL DUP2 MSTORE PUSH1 0x4 ADD PUSH2 0x924 SWAP1 PUSH2 0x3D28 JUMP JUMPDEST PUSH1 0x0 DUP2 PUSH1 0x40 MLOAD PUSH1 0x20 ADD PUSH2 0xB5C SWAP2 SWAP1 PUSH2 0x3D8D JUMP JUMPDEST PUSH1 0x40 DUP1 MLOAD PUSH1 0x1F NOT DUP2 DUP5 SUB ADD DUP2 MSTORE SWAP2 DUP2 MSTORE DUP2 MLOAD PUSH1 0x20 SWAP3 DUP4 ADD KECCAK256 PUSH1 0x1 PUSH1 0x1 PUSH1 0xA0 SHL SUB DUP7 AND PUSH1 0x0 SWAP1 DUP2 MSTORE PUSH1 0xA SWAP1 SWAP4 MSTORE SWAP2 KECCAK256 SLOAD SWAP1 SWAP2 POP PUSH1 0xFF AND ISZERO PUSH2 0xBDE JUMPI PUSH1 0x40 MLOAD PUSH3 0x461BCD PUSH1 0xE5 SHL DUP2 MSTORE PUSH1 0x20 PUSH1 0x4 DUP3 ADD MSTORE PUSH1 0x1B PUSH1 0x24 DUP3 ADD MSTORE PUSH32 0x4164647265737320616C72656164792077686974656C69737465640000000000 PUSH1 0x44 DUP3 ADD MSTORE PUSH1 0x64 ADD PUSH2 0x924 JUMP JUMPDEST PUSH1 0x1 PUSH1 0x1 PUSH1 0xA0 SHL SUB DUP4 AND PUSH1 0x0 DUP2 DUP2 MSTORE PUSH1 0x5 PUSH1 0x20 DUP2 DUP2 MSTORE PUSH1 0x40 DUP1 DUP5 KECCAK256 SWAP3 SWAP1 SWAP3 SSTORE PUSH1 0xA DUP2 MSTORE DUP2 DUP4 KECCAK256 DUP1 SLOAD PUSH1 0xFF NOT AND PUSH1 0x1 OR SWAP1 SSTORE PUSH1 0xE DUP2 MSTORE SWAP2 DUP2 SWAP1 KECCAK256 DUP5 SWAP1 SSTORE MLOAD DUP4 DUP2 MSTORE PUSH32 0xC27D38AD1BDB4164D72E05492B5CE6099B4169E9F20B41D3C7CF35C114A64D5B SWAP2 ADD PUSH2 0xB0D JUMP JUMPDEST PUSH1 0x4 PUSH1 0x20 MSTORE DUP2 PUSH1 0x0 MSTORE PUSH1 0x40 PUSH1 0x0 KECCAK256 DUP2 DUP2 SLOAD DUP2 LT PUSH2 0xC62 JUMPI PUSH1 0x0 DUP1 REVERT JUMPDEST SWAP1 PUSH1 0x0 MSTORE PUSH1 0x20 PUSH1 0x0 KECCAK256 ADD PUSH1 0x0 SWAP2 POP SWAP2 POP POP SLOAD DUP2 JUMP JUMPDEST DUP4 DUP4 DUP4 DUP4 PUSH1 0x40 MLOAD PUSH1 0x20 ADD PUSH2 0xC8D SWAP2 DUP2 MSTORE PUSH1 0x20 ADD SWAP1 JUMP JUMPDEST PUSH1 0x40 MLOAD PUSH1 0x20 DUP2 DUP4 SUB SUB DUP2 MSTORE SWAP1 PUSH1 0x40 MSTORE PUSH1 0x0 DUP5 PUSH1 0x40 MLOAD PUSH1 0x20 ADD PUSH2 0xCAF SWAP2 SWAP1 PUSH2 0x3DA9 JUMP JUMPDEST PUSH1 0x40 DUP1 MLOAD PUSH1 0x1F NOT DUP2 DUP5 SUB ADD DUP2 MSTORE SWAP2 SWAP1 MSTORE DUP1 MLOAD PUSH1 0x20 SWAP1 SWAP2 ADD KECCAK256 SWAP1 POP PUSH1 0x0 DUP1 DUP3 DUP2 MSTORE PUSH1 0x10 PUSH1 0x20 MSTORE PUSH1 0x40 SWAP1 KECCAK256 SLOAD PUSH1 0xFF AND PUSH1 0x2 DUP2 GT ISZERO PUSH2 0xCED JUMPI PUSH2 0xCED PUSH2 0x37FB JUMP JUMPDEST EQ PUSH2 0xD0A JUMPI PUSH1 0x40 MLOAD PUSH3 0x461BCD PUSH1 0xE5 SHL DUP2 MSTORE PUSH1 0x4 ADD PUSH2 0x924 SWAP1 PUSH2 0x3DE0 JUMP JUMPDEST PUSH1 0x0 DUP3 DUP5 PUSH1 0x40 MLOAD PUSH1 0x20 ADD PUSH2 0xD1F SWAP3 SWAP2 SWAP1 PUSH2 0x3E15 JUMP JUMPDEST PUSH1 0x40 DUP1 MLOAD PUSH1 0x1F NOT DUP2 DUP5 SUB ADD DUP2 MSTORE SWAP1 DUP3 SWAP1 MSTORE DUP1 MLOAD PUSH1 0x20 SWAP2 DUP3 ADD KECCAK256 DUP1 DUP4 MSTORE SWAP3 POP PUSH1 0x0 DUP1 MLOAD PUSH1 0x20 PUSH2 0x3F58 DUP4 CODECOPY DUP2 MLOAD SWAP2 MSTORE SWAP2 ADD PUSH1 0x40 MLOAD DUP1 SWAP2 SUB SWAP1 LOG1 PUSH1 0x0 PUSH2 0xD63 DUP3 DUP8 DUP10 PUSH2 0x23E2 JUMP JUMPDEST PUSH1 0x11 DUP1 SLOAD PUSH1 0xFF NOT AND DUP3 ISZERO ISZERO OR SWAP1 SSTORE SWAP1 POP DUP1 PUSH2 0xDEE JUMPI PUSH1 0x40 MLOAD DUP3 DUP2 MSTORE PUSH1 0x0 DUP1 MLOAD PUSH1 0x20 PUSH2 0x3F38 DUP4 CODECOPY DUP2 MLOAD SWAP2 MSTORE SWAP1 PUSH1 0x20 ADD JUMPDEST PUSH1 0x40 MLOAD DUP1 SWAP2 SUB SWAP1 LOG1 PUSH1 0x40 MLOAD PUSH3 0x461BCD PUSH1 0xE5 SHL DUP2 MSTORE PUSH1 0x20 PUSH1 0x4 DUP3 ADD MSTORE PUSH1 0x23 PUSH1 0x24 DUP3 ADD MSTORE PUSH32 0x416E6F6E4944436F6E74726163743A20566572696669636174696F6E20666169 PUSH1 0x44 DUP3 ADD MSTORE PUSH3 0x1B1959 PUSH1 0xEA SHL PUSH1 0x64 DUP3 ADD MSTORE PUSH1 0x84 ADD PUSH2 0x924 JUMP JUMPDEST PUSH1 0x0 DUP4 DUP2 MSTORE PUSH1 0x10 PUSH1 0x20 MSTORE PUSH1 0x40 SWAP1 DUP2 SWAP1 KECCAK256 SLOAD SWAP1 MLOAD PUSH1 0x0 DUP1 MLOAD PUSH1 0x20 PUSH2 0x3F78 DUP4 CODECOPY DUP2 MLOAD SWAP2 MSTORE SWAP2 PUSH2 0xE24 SWAP2 PUSH1 0xFF SWAP1 SWAP2 AND SWAP1 DUP7 SWAP1 DUP10 SWAP1 PUSH2 0x3833 JUMP JUMPDEST PUSH1 0x40 MLOAD DUP1 SWAP2 SUB SWAP1 LOG1 PUSH2 0xE36 DUP4 DUP7 PUSH2 0x3504 JUMP JUMPDEST POP POP POP PUSH1 0x2 SWAP5 SWAP1 SWAP5 SSTORE POP POP POP POP POP POP POP JUMP JUMPDEST DUP4 DUP4 DUP4 DUP4 PUSH1 0x40 MLOAD PUSH1 0x20 ADD PUSH2 0xE5C SWAP2 SWAP1 PUSH2 0x3D8D JUMP JUMPDEST PUSH1 0x40 MLOAD PUSH1 0x20 DUP2 DUP4 SUB SUB DUP2 MSTORE SWAP1 PUSH1 0x40 MSTORE PUSH1 0x0 DUP5 PUSH1 0x40 MLOAD PUSH1 0x20 ADD PUSH2 0xE7E SWAP2 SWAP1 PUSH2 0x3DA9 JUMP JUMPDEST PUSH1 0x40 DUP1 MLOAD PUSH1 0x1F NOT DUP2 DUP5 SUB ADD DUP2 MSTORE SWAP2 SWAP1 MSTORE DUP1 MLOAD PUSH1 0x20 SWAP1 SWAP2 ADD KECCAK256 SWAP1 POP PUSH1 0x0 DUP1 DUP3 DUP2 MSTORE PUSH1 0x10 PUSH1 0x20 MSTORE PUSH1 0x40 SWAP1 KECCAK256 SLOAD PUSH1 0xFF AND PUSH1 0x2 DUP2 GT ISZERO PUSH2 0xEBC JUMPI PUSH2 0xEBC PUSH2 0x37FB JUMP JUMPDEST EQ PUSH2 0xED9 JUMPI PUSH1 0x40 MLOAD PUSH3 0x461BCD PUSH1 0xE5 SHL DUP2 MSTORE PUSH1 0x4 ADD PUSH2 0x924 SWAP1 PUSH2 0x3DE0 JUMP JUMPDEST PUSH1 0x0 DUP3 DUP5 PUSH1 0x40 MLOAD PUSH1 0x20 ADD PUSH2 0xEEE SWAP3 SWAP2 SWAP1 PUSH2 0x3E15 JUMP JUMPDEST PUSH1 0x40 DUP1 MLOAD PUSH1 0x1F NOT DUP2 DUP5 SUB ADD DUP2 MSTORE SWAP1 DUP3 SWAP1 MSTORE DUP1 MLOAD PUSH1 0x20 SWAP2 DUP3 ADD KECCAK256 DUP1 DUP4 MSTORE SWAP3 POP PUSH1 0x0 DUP1 MLOAD PUSH1 0x20 PUSH2 0x3F58 DUP4 CODECOPY DUP2 MLOAD SWAP2 MSTORE SWAP2 ADD PUSH1 0x40 MLOAD DUP1 SWAP2 SUB SWAP1 LOG1 PUSH1 0x0 PUSH2 0xF32 DUP3 DUP8 DUP10 PUSH2 0x23E2 JUMP JUMPDEST PUSH1 0x11 DUP1 SLOAD PUSH1 0xFF NOT AND DUP3 ISZERO ISZERO OR SWAP1 SSTORE SWAP1 POP DUP1 PUSH2 0xF65 JUMPI PUSH1 0x40 MLOAD DUP3 DUP2 MSTORE PUSH1 0x0 DUP1 MLOAD PUSH1 0x20 PUSH2 0x3F38 DUP4 CODECOPY DUP2 MLOAD SWAP2 MSTORE SWAP1 PUSH1 0x20 ADD PUSH2 0xD92 JUMP JUMPDEST PUSH1 0x0 DUP4 DUP2 MSTORE PUSH1 0x10 PUSH1 0x20 MSTORE PUSH1 0x40 SWAP1 DUP2 SWAP1 KECCAK256 SLOAD SWAP1 MLOAD PUSH1 0x0 DUP1 MLOAD PUSH1 0x20 PUSH2 0x3F78 DUP4 CODECOPY DUP2 MLOAD SWAP2 MSTORE SWAP2 PUSH2 0xF9B SWAP2 PUSH1 0xFF SWAP1 SWAP2 AND SWAP1 DUP7 SWAP1 DUP10 SWAP1 PUSH2 0x3833 JUMP JUMPDEST PUSH1 0x40 MLOAD DUP1 SWAP2 SUB SWAP1 LOG1 PUSH2 0xFAD DUP4 DUP7 PUSH2 0x3504 JUMP JUMPDEST POP POP POP PUSH1 0x15 SWAP6 SWAP1 SWAP6 SSTORE POP POP POP POP POP POP POP JUMP JUMPDEST DUP3 DUP3 DUP3 DUP7 PUSH1 0x40 MLOAD PUSH1 0x20 ADD PUSH2 0xFD3 SWAP2 SWAP1 PUSH2 0x3E37 JUMP JUMPDEST PUSH1 0x40 MLOAD PUSH1 0x20 DUP2 DUP4 SUB SUB DUP2 MSTORE SWAP1 PUSH1 0x40 MSTORE PUSH1 0x0 DUP5 PUSH1 0x40 MLOAD PUSH1 0x20 ADD PUSH2 0xFF5 SWAP2 SWAP1 PUSH2 0x3DA9 JUMP JUMPDEST PUSH1 0x40 DUP1 MLOAD PUSH1 0x1F NOT DUP2 DUP5 SUB ADD DUP2 MSTORE SWAP2 SWAP1 MSTORE DUP1 MLOAD PUSH1 0x20 SWAP1 SWAP2 ADD KECCAK256 SWAP1 POP PUSH1 0x0 DUP1 DUP3 DUP2 MSTORE PUSH1 0x10 PUSH1 0x20 MSTORE PUSH1 0x40 SWAP1 KECCAK256 SLOAD PUSH1 0xFF AND PUSH1 0x2 DUP2 GT ISZERO PUSH2 0x1033 JUMPI PUSH2 0x1033 PUSH2 0x37FB JUMP JUMPDEST EQ PUSH2 0x1050 JUMPI PUSH1 0x40 MLOAD PUSH3 0x461BCD PUSH1 0xE5 SHL DUP2 MSTORE PUSH1 0x4 ADD PUSH2 0x924 SWAP1 PUSH2 0x3DE0 JUMP JUMPDEST PUSH1 0x0 DUP3 DUP5 PUSH1 0x40 MLOAD PUSH1 0x20 ADD PUSH2 0x1065 SWAP3 SWAP2 SWAP1 PUSH2 0x3E15 JUMP JUMPDEST PUSH1 0x40 DUP1 MLOAD PUSH1 0x1F NOT DUP2 DUP5 SUB ADD DUP2 MSTORE SWAP1 DUP3 SWAP1 MSTORE DUP1 MLOAD PUSH1 0x20 SWAP2 DUP3 ADD KECCAK256 DUP1 DUP4 MSTORE SWAP3 POP PUSH1 0x0 DUP1 MLOAD PUSH1 0x20 PUSH2 0x3F58 DUP4 CODECOPY DUP2 MLOAD SWAP2 MSTORE SWAP2 ADD PUSH1 0x40 MLOAD DUP1 SWAP2 SUB SWAP1 LOG1 PUSH1 0x0 PUSH2 0x10A9 DUP3 DUP8 DUP10 PUSH2 0x23E2 JUMP JUMPDEST PUSH1 0x11 DUP1 SLOAD PUSH1 0xFF NOT AND DUP3 ISZERO ISZERO OR SWAP1 SSTORE SWAP1 POP DUP1 PUSH2 0x10DC JUMPI PUSH1 0x40 MLOAD DUP3 DUP2 MSTORE PUSH1 0x0 DUP1 MLOAD PUSH1 0x20 PUSH2 0x3F38 DUP4 CODECOPY DUP2 MLOAD SWAP2 MSTORE SWAP1 PUSH1 0x20 ADD PUSH2 0xD92 JUMP JUMPDEST PUSH1 0x0 DUP4 DUP2 MSTORE PUSH1 0x10 PUSH1 0x20 MSTORE PUSH1 0x40 SWAP1 DUP2 SWAP1 KECCAK256 SLOAD SWAP1 MLOAD PUSH1 0x0 DUP1 MLOAD PUSH1 0x20 PUSH2 0x3F78 DUP4 CODECOPY DUP2 MLOAD SWAP2 MSTORE SWAP2 PUSH2 0x1112 SWAP2 PUSH1 0xFF SWAP1 SWAP2 AND SWAP1 DUP7 SWAP1 DUP10 SWAP1 PUSH2 0x3833 JUMP JUMPDEST PUSH1 0x40 MLOAD DUP1 SWAP2 SUB SWAP1 LOG1 PUSH2 0x1124 DUP4 DUP7 PUSH2 0x3504 JUMP JUMPDEST POP POP POP PUSH1 0x1 PUSH1 0x1 PUSH1 0xA0 SHL SUB SWAP1 SWAP8 AND PUSH1 0x0 SWAP1 DUP2 MSTORE PUSH1 0x9 PUSH1 0x20 MSTORE PUSH1 0x40 SWAP1 KECCAK256 DUP1 SLOAD PUSH1 0xFF NOT AND SWAP1 SSTORE POP POP POP POP POP POP POP JUMP JUMPDEST DUP4 DUP4 DUP4 DUP4 PUSH1 0x40 MLOAD PUSH1 0x20 ADD PUSH2 0x1167 SWAP2 DUP2 MSTORE PUSH1 0x20 ADD SWAP1 JUMP JUMPDEST PUSH1 0x40 MLOAD PUSH1 0x20 DUP2 DUP4 SUB SUB DUP2 MSTORE SWAP1 PUSH1 0x40 MSTORE PUSH1 0x0 DUP5 PUSH1 0x40 MLOAD PUSH1 0x20 ADD PUSH2 0x1189 SWAP2 SWAP1 PUSH2 0x3DA9 JUMP JUMPDEST PUSH1 0x40 DUP1 MLOAD PUSH1 0x1F NOT DUP2 DUP5 SUB ADD DUP2 MSTORE SWAP2 SWAP1 MSTORE DUP1 MLOAD PUSH1 0x20 SWAP1 SWAP2 ADD KECCAK256 SWAP1 POP PUSH1 0x0 DUP1 DUP3 DUP2 MSTORE PUSH1 0x10 PUSH1 0x20 MSTORE PUSH1 0x40 SWAP1 KECCAK256 SLOAD PUSH1 0xFF AND PUSH1 0x2 DUP2 GT ISZERO PUSH2 0x11C7 JUMPI PUSH2 0x11C7 PUSH2 0x37FB JUMP JUMPDEST EQ PUSH2 0x11E4 JUMPI PUSH1 0x40 MLOAD PUSH3 0x461BCD PUSH1 0xE5 SHL DUP2 MSTORE PUSH1 0x4 ADD PUSH2 0x924 SWAP1 PUSH2 0x3DE0 JUMP JUMPDEST PUSH1 0x0 DUP3 DUP5 PUSH1 0x40 MLOAD PUSH1 0x20 ADD PUSH2 0x11F9 SWAP3 SWAP2 SWAP1 PUSH2 0x3E15 JUMP JUMPDEST PUSH1 0x40 DUP1 MLOAD PUSH1 0x1F NOT DUP2 DUP5 SUB ADD DUP2 MSTORE SWAP1 DUP3 SWAP1 MSTORE DUP1 MLOAD PUSH1 0x20 SWAP2 DUP3 ADD KECCAK256 DUP1 DUP4 MSTORE SWAP3 POP PUSH1 0x0 DUP1 MLOAD PUSH1 0x20 PUSH2 0x3F58 DUP4 CODECOPY DUP2 MLOAD SWAP2 MSTORE SWAP2 ADD PUSH1 0x40 MLOAD DUP1 SWAP2 SUB SWAP1 LOG1 PUSH1 0x0 PUSH2 0x123D DUP3 DUP8 DUP10 PUSH2 0x23E2 JUMP JUMPDEST PUSH1 0x11 DUP1 SLOAD PUSH1 0xFF NOT AND DUP3 ISZERO ISZERO OR SWAP1 SSTORE SWAP1 POP DUP1 PUSH2 0x1270 JUMPI PUSH1 0x40 MLOAD DUP3 DUP2 MSTORE PUSH1 0x0 DUP1 MLOAD PUSH1 0x20 PUSH2 0x3F38 DUP4 CODECOPY DUP2 MLOAD SWAP2 MSTORE SWAP1 PUSH1 0x20 ADD PUSH2 0xD92 JUMP JUMPDEST PUSH1 0x0 DUP4 DUP2 MSTORE PUSH1 0x10 PUSH1 0x20 MSTORE PUSH1 0x40 SWAP1 DUP2 SWAP1 KECCAK256 SLOAD SWAP1 MLOAD PUSH1 0x0 DUP1 MLOAD PUSH1 0x20 PUSH2 0x3F78 DUP4 CODECOPY DUP2 MLOAD SWAP2 MSTORE SWAP2 PUSH2 0x12A6 SWAP2 PUSH1 0xFF SWAP1 SWAP2 AND SWAP1 DUP7 SWAP1 DUP10 SWAP1 PUSH2 0x3833 JUMP JUMPDEST PUSH1 0x40 MLOAD DUP1 SWAP2 SUB SWAP1 LOG1 PUSH2 0x12B8 DUP4 DUP7 PUSH2 0x3504 JUMP JUMPDEST PUSH1 0x0 DUP12 PUSH1 0x40 MLOAD PUSH1 0x20 ADD PUSH2 0x12CB SWAP2 SWAP1 PUSH2 0x3DA9 JUMP JUMPDEST PUSH1 0x40 DUP1 MLOAD PUSH1 0x1F NOT DUP2 DUP5 SUB ADD DUP2 MSTORE SWAP2 SWAP1 MSTORE DUP1 MLOAD PUSH1 0x20 SWAP1 SWAP2 ADD KECCAK256 PUSH1 0x15 DUP1 SLOAD PUSH1 0x0 SWAP1 SWAP2 SSTORE SWAP1 SWAP2 POP DUP2 EQ ISZERO DUP1 PUSH2 0x1371 JUMPI PUSH1 0x40 MLOAD PUSH3 0x461BCD PUSH1 0xE5 SHL DUP2 MSTORE PUSH1 0x20 PUSH1 0x4 DUP3 ADD MSTORE PUSH1 0x43 PUSH1 0x24 DUP3 ADD MSTORE PUSH32 0x416E6F6E4944436F6E74726163743A20504B48206D617463686573206C617374 PUSH1 0x44 DUP3 ADD MSTORE PUSH32 0x207573656420504B482028757365207365706172617465207365636F6E64206B PUSH1 0x64 DUP3 ADD MSTORE PUSH3 0x657929 PUSH1 0xE8 SHL PUSH1 0x84 DUP3 ADD MSTORE PUSH1 0xA4 ADD PUSH2 0x924 JUMP JUMPDEST PUSH2 0x137C PUSH1 0x0 DUP12 PUSH2 0x36A2 JUMP JUMPDEST POP POP PUSH1 0x0 PUSH1 0x15 SSTORE POP POP POP POP POP POP POP POP POP POP POP JUMP JUMPDEST DUP4 DUP4 DUP4 DUP4 PUSH1 0x40 MLOAD PUSH1 0x20 ADD PUSH2 0x13A4 SWAP2 SWAP1 PUSH2 0x3E37 JUMP JUMPDEST PUSH1 0x40 MLOAD PUSH1 0x20 DUP2 DUP4 SUB SUB DUP2 MSTORE SWAP1 PUSH1 0x40 MSTORE PUSH1 0x0 DUP5 PUSH1 0x40 MLOAD PUSH1 0x20 ADD PUSH2 0x13C6 SWAP2 SWAP1 PUSH2 0x3DA9 JUMP JUMPDEST PUSH1 0x40 DUP1 MLOAD PUSH1 0x1F NOT DUP2 DUP5 SUB ADD DUP2 MSTORE SWAP2 SWAP1 MSTORE DUP1 MLOAD PUSH1 0x20 SWAP1 SWAP2 ADD KECCAK256 SWAP1 POP PUSH1 0x0 DUP1 DUP3 DUP2 MSTORE PUSH1 0x10 PUSH1 0x20 MSTORE PUSH1 0x40 SWAP1 KECCAK256 SLOAD PUSH1 0xFF AND PUSH1 0x2 DUP2 GT ISZERO PUSH2 0x1404 JUMPI PUSH2 0x1404 PUSH2 0x37FB JUMP JUMPDEST EQ PUSH2 0x1421 JUMPI PUSH1 0x40 MLOAD PUSH3 0x461BCD PUSH1 0xE5 SHL DUP2 MSTORE PUSH1 0x4 ADD PUSH2 0x924 SWAP1 PUSH2 0x3DE0 JUMP JUMPDEST PUSH1 0x0 DUP3 DUP5 PUSH1 0x40 MLOAD PUSH1 0x20 ADD PUSH2 0x1436 SWAP3 SWAP2 SWAP1 PUSH2 0x3E15 JUMP JUMPDEST PUSH1 0x40 DUP1 MLOAD PUSH1 0x1F NOT DUP2 DUP5 SUB ADD DUP2 MSTORE SWAP1 DUP3 SWAP1 MSTORE DUP1 MLOAD PUSH1 0x20 SWAP2 DUP3 ADD KECCAK256 DUP1 DUP4 MSTORE SWAP3 POP PUSH1 0x0 DUP1 MLOAD PUSH1 0x20 PUSH2 0x3F58 DUP4 CODECOPY DUP2 MLOAD SWAP2 MSTORE SWAP2 ADD PUSH1 0x40 MLOAD DUP1 SWAP2 SUB SWAP1 LOG1 PUSH1 0x0 PUSH2 0x147A DUP3 DUP8 DUP10 PUSH2 0x23E2 JUMP JUMPDEST PUSH1 0x11 DUP1 SLOAD PUSH1 0xFF NOT AND DUP3 ISZERO ISZERO OR SWAP1 SSTORE SWAP1 POP DUP1 PUSH2 0x14AD JUMPI PUSH1 0x40 MLOAD DUP3 DUP2 MSTORE PUSH1 0x0 DUP1 MLOAD PUSH1 0x20 PUSH2 0x3F38 DUP4 CODECOPY DUP2 MLOAD SWAP2 MSTORE SWAP1 PUSH1 0x20 ADD PUSH2 0xD92 JUMP JUMPDEST PUSH1 0x0 DUP4 DUP2 MSTORE PUSH1 0x10 PUSH1 0x20 MSTORE PUSH1 0x40 SWAP1 DUP2 SWAP1 KECCAK256 SLOAD SWAP1 MLOAD PUSH1 0x0 DUP1 MLOAD PUSH1 0x20 PUSH2 0x3F78 DUP4 CODECOPY DUP2 MLOAD SWAP2 MSTORE SWAP2 PUSH2 0x14E3 SWAP2 PUSH1 0xFF SWAP1 SWAP2 AND SWAP1 DUP7 SWAP1 DUP10 SWAP1 PUSH2 0x3833 JUMP JUMPDEST PUSH1 0x40 MLOAD DUP1 SWAP2 SUB SWAP1 LOG1 PUSH2 0x14F5 DUP4 DUP7 PUSH2 0x3504 JUMP JUMPDEST DUP8 PUSH1 0x40 MLOAD PUSH1 0x20 ADD PUSH2 0x1506 SWAP2 SWAP1 PUSH2 0x3E37 JUMP JUMPDEST PUSH1 0x40 MLOAD PUSH1 0x20 DUP2 DUP4 SUB SUB DUP2 MSTORE SWAP1 PUSH1 0x40 MSTORE DUP1 MLOAD SWAP1 PUSH1 0x20 ADD KECCAK256 PUSH1 0x12 SLOAD EQ PUSH2 0x1594 JUMPI PUSH1 0x40 DUP1 MLOAD PUSH3 0x461BCD PUSH1 0xE5 SHL DUP2 MSTORE PUSH1 0x20 PUSH1 0x4 DUP3 ADD MSTORE PUSH1 0x24 DUP2 ADD SWAP2 SWAP1 SWAP2 MSTORE PUSH32 0x416E6F6E4944436F6E74726163743A204D69736D617463686564206164647265 PUSH1 0x44 DUP3 ADD MSTORE PUSH32 0x73732068617368206265747765656E2073746570206F6E6520616E642074776F PUSH1 0x64 DUP3 ADD MSTORE PUSH1 0x84 ADD PUSH2 0x924 JUMP JUMPDEST PUSH1 0x6 DUP1 SLOAD PUSH1 0x1 PUSH1 0x1 PUSH1 0xA0 SHL SUB NOT AND PUSH1 0x1 PUSH1 0x1 PUSH1 0xA0 SHL SUB DUP11 AND SWAP1 DUP2 OR SWAP1 SWAP2 SSTORE PUSH1 0x0 PUSH1 0x12 DUP2 SWAP1 SSTORE PUSH1 0x40 MLOAD PUSH32 0x78CB7D38F54B570D3AA94EDFE9942FF10D8B002A73299229EA4ECE39479EB116 SWAP2 SWAP1 LOG2 POP POP POP POP POP POP POP POP POP POP POP JUMP JUMPDEST CALLER PUSH1 0x0 SWAP1 DUP2 MSTORE PUSH1 0x9 PUSH1 0x20 MSTORE PUSH1 0x40 SWAP1 KECCAK256 SLOAD PUSH1 0xFF AND PUSH2 0x1665 JUMPI PUSH1 0x40 MLOAD PUSH3 0x461BCD PUSH1 0xE5 SHL DUP2 MSTORE PUSH1 0x20 PUSH1 0x4 DUP3 ADD MSTORE PUSH1 0x30 PUSH1 0x24 DUP3 ADD MSTORE PUSH32 0x4E6F74207065726D697474656420746F206D6F6469667920686F75726C792074 PUSH1 0x44 DUP3 ADD MSTORE PUSH16 0x72616E73616374696F6E2071756F7461 PUSH1 0x80 SHL PUSH1 0x64 DUP3 ADD MSTORE PUSH1 0x84 ADD PUSH2 0x924 JUMP JUMPDEST PUSH1 0x1 PUSH1 0x1 PUSH1 0xA0 SHL SUB DUP3 AND PUSH1 0x0 SWAP1 DUP2 MSTORE PUSH1 0xA PUSH1 0x20 MSTORE PUSH1 0x40 SWAP1 KECCAK256 SLOAD PUSH1 0xFF AND PUSH2 0x16CD JUMPI PUSH1 0x40 MLOAD PUSH3 0x461BCD PUSH1 0xE5 SHL DUP2 MSTORE PUSH1 0x20 PUSH1 0x4 DUP3 ADD MSTORE PUSH1 0x1E PUSH1 0x24 DUP3 ADD MSTORE PUSH32 0x41646472657373206E6F7420666F756E6420696E2077686974656C6973740000 PUSH1 0x44 DUP3 ADD MSTORE PUSH1 0x64 ADD PUSH2 0x924 JUMP JUMPDEST PUSH1 0x1 PUSH1 0x1 PUSH1 0xA0 SHL SUB DUP3 AND PUSH1 0x0 DUP2 DUP2 MSTORE PUSH1 0x5 PUSH1 0x20 MSTORE PUSH1 0x40 SWAP1 DUP2 SWAP1 KECCAK256 DUP4 SWAP1 SSTORE MLOAD PUSH32 0x49E4E7CA63DCC35A72589F844CB844CE25176E8E1AFF16F1AD1FB46624C65372 SWAP1 PUSH2 0x171A SWAP1 DUP5 DUP2 MSTORE PUSH1 0x20 ADD SWAP1 JUMP JUMPDEST PUSH1 0x40 MLOAD DUP1 SWAP2 SUB SWAP1 LOG2 POP POP JUMP JUMPDEST PUSH1 0x0 DUP5 DUP5 DUP5 DUP5 PUSH1 0x40 MLOAD PUSH1 0x20 ADD PUSH2 0x173C SWAP2 SWAP1 PUSH2 0x3D8D JUMP JUMPDEST PUSH1 0x40 MLOAD PUSH1 0x20 DUP2 DUP4 SUB SUB DUP2 MSTORE SWAP1 PUSH1 0x40 MSTORE PUSH1 0x0 DUP5 PUSH1 0x40 MLOAD PUSH1 0x20 ADD PUSH2 0x175E SWAP2 SWAP1 PUSH2 0x3DA9 JUMP JUMPDEST PUSH1 0x40 DUP1 MLOAD PUSH1 0x1F NOT DUP2 DUP5 SUB ADD DUP2 MSTORE SWAP2 SWAP1 MSTORE DUP1 MLOAD PUSH1 0x20 SWAP1 SWAP2 ADD KECCAK256 SWAP1 POP PUSH1 0x0 DUP1 DUP3 DUP2 MSTORE PUSH1 0x10 PUSH1 0x20 MSTORE PUSH1 0x40 SWAP1 KECCAK256 SLOAD PUSH1 0xFF AND PUSH1 0x2 DUP2 GT ISZERO PUSH2 0x179C JUMPI PUSH2 0x179C PUSH2 0x37FB JUMP JUMPDEST EQ PUSH2 0x17B9 JUMPI PUSH1 0x40 MLOAD PUSH3 0x461BCD PUSH1 0xE5 SHL DUP2 MSTORE PUSH1 0x4 ADD PUSH2 0x924 SWAP1 PUSH2 0x3DE0 JUMP JUMPDEST PUSH1 0x0 DUP3 DUP5 PUSH1 0x40 MLOAD PUSH1 0x20 ADD PUSH2 0x17CE SWAP3 SWAP2 SWAP1 PUSH2 0x3E15 JUMP JUMPDEST PUSH1 0x40 DUP1 MLOAD PUSH1 0x1F NOT DUP2 DUP5 SUB ADD DUP2 MSTORE SWAP1 DUP3 SWAP1 MSTORE DUP1 MLOAD PUSH1 0x20 SWAP2 DUP3 ADD KECCAK256 DUP1 DUP4 MSTORE SWAP3 POP PUSH1 0x0 DUP1 MLOAD PUSH1 0x20 PUSH2 0x3F58 DUP4 CODECOPY DUP2 MLOAD SWAP2 MSTORE SWAP2 ADD PUSH1 0x40 MLOAD DUP1 SWAP2 SUB SWAP1 LOG1 PUSH1 0x0 PUSH2 0x1812 DUP3 DUP8 DUP10 PUSH2 0x23E2 JUMP JUMPDEST PUSH1 0x11 DUP1 SLOAD PUSH1 0xFF NOT AND DUP3 ISZERO ISZERO OR SWAP1 SSTORE SWAP1 POP DUP1 PUSH2 0x1845 JUMPI PUSH1 0x40 MLOAD DUP3 DUP2 MSTORE PUSH1 0x0 DUP1 MLOAD PUSH1 0x20 PUSH2 0x3F38 DUP4 CODECOPY DUP2 MLOAD SWAP2 MSTORE SWAP1 PUSH1 0x20 ADD PUSH2 0xD92 JUMP JUMPDEST PUSH1 0x0 DUP4 DUP2 MSTORE PUSH1 0x10 PUSH1 0x20 MSTORE PUSH1 0x40 SWAP1 DUP2 SWAP1 KECCAK256 SLOAD SWAP1 MLOAD PUSH1 0x0 DUP1 MLOAD PUSH1 0x20 PUSH2 0x3F78 DUP4 CODECOPY DUP2 MLOAD SWAP2 MSTORE SWAP2 PUSH2 0x187B SWAP2 PUSH1 0xFF SWAP1 SWAP2 AND SWAP1 DUP7 SWAP1 DUP10 SWAP1 PUSH2 0x3833 JUMP JUMPDEST PUSH1 0x40 MLOAD DUP1 SWAP2 SUB SWAP1 LOG1 PUSH2 0x188D DUP4 DUP7 PUSH2 0x3504 JUMP JUMPDEST PUSH1 0x3 SLOAD DUP10 MLOAD PUSH1 0x20 DUP12 ADD KECCAK256 EQ PUSH2 0x1902 JUMPI PUSH1 0x40 MLOAD PUSH3 0x461BCD PUSH1 0xE5 SHL DUP2 MSTORE PUSH1 0x20 PUSH1 0x4 DUP3 ADD MSTORE PUSH1 0x35 PUSH1 0x24 DUP3 ADD MSTORE PUSH32 0x42797465636F646520646F6573206E6F74206D617463682070726576696F7573 PUSH1 0x44 DUP3 ADD MSTORE PUSH21 0x363C90383937BB34B232B210313CBA32B1B7B23297 PUSH1 0x59 SHL PUSH1 0x64 DUP3 ADD MSTORE PUSH1 0x84 ADD PUSH2 0x924 JUMP JUMPDEST PUSH1 0x0 DUP10 MLOAD PUSH1 0x20 DUP12 ADD PUSH1 0x0 CREATE SWAP1 POP PUSH1 0x1 PUSH1 0x1 PUSH1 0xA0 SHL SUB DUP2 AND PUSH2 0x1965 JUMPI PUSH1 0x40 MLOAD PUSH3 0x461BCD PUSH1 0xE5 SHL DUP2 MSTORE PUSH1 0x20 PUSH1 0x4 DUP3 ADD MSTORE PUSH1 0x18 PUSH1 0x24 DUP3 ADD MSTORE PUSH32 0x436F6E7472616374206372656174696F6E206661696C65640000000000000000 PUSH1 0x44 DUP3 ADD MSTORE PUSH1 0x64 ADD PUSH2 0x924 JUMP JUMPDEST SWAP13 SWAP12 POP POP POP POP POP POP POP POP POP POP POP POP JUMP JUMPDEST DUP4 DUP4 DUP4 DUP4 PUSH1 0x40 MLOAD PUSH1 0x20 ADD PUSH2 0x198B SWAP2 DUP2 MSTORE PUSH1 0x20 ADD SWAP1 JUMP JUMPDEST PUSH1 0x40 MLOAD PUSH1 0x20 DUP2 DUP4 SUB SUB DUP2 MSTORE SWAP1 PUSH1 0x40 MSTORE PUSH1 0x0 DUP5 PUSH1 0x40 MLOAD PUSH1 0x20 ADD PUSH2 0x19AD SWAP2 SWAP1 PUSH2 0x3DA9 JUMP JUMPDEST PUSH1 0x40 DUP1 MLOAD PUSH1 0x1F NOT DUP2 DUP5 SUB ADD DUP2 MSTORE SWAP2 SWAP1 MSTORE DUP1 MLOAD PUSH1 0x20 SWAP1 SWAP2 ADD KECCAK256 SWAP1 POP PUSH1 0x0 DUP1 DUP3 DUP2 MSTORE PUSH1 0x10 PUSH1 0x20 MSTORE PUSH1 0x40 SWAP1 KECCAK256 SLOAD PUSH1 0xFF AND PUSH1 0x2 DUP2 GT ISZERO PUSH2 0x19EB JUMPI PUSH2 0x19EB PUSH2 0x37FB JUMP JUMPDEST EQ PUSH2 0x1A08 JUMPI PUSH1 0x40 MLOAD PUSH3 0x461BCD PUSH1 0xE5 SHL DUP2 MSTORE PUSH1 0x4 ADD PUSH2 0x924 SWAP1 PUSH2 0x3DE0 JUMP JUMPDEST PUSH1 0x0 DUP3 DUP5 PUSH1 0x40 MLOAD PUSH1 0x20 ADD PUSH2 0x1A1D SWAP3 SWAP2 SWAP1 PUSH2 0x3E15 JUMP JUMPDEST PUSH1 0x40 DUP1 MLOAD PUSH1 0x1F NOT DUP2 DUP5 SUB ADD DUP2 MSTORE SWAP1 DUP3 SWAP1 MSTORE DUP1 MLOAD PUSH1 0x20 SWAP2 DUP3 ADD KECCAK256 DUP1 DUP4 MSTORE SWAP3 POP PUSH1 0x0 DUP1 MLOAD PUSH1 0x20 PUSH2 0x3F58 DUP4 CODECOPY DUP2 MLOAD SWAP2 MSTORE SWAP2 ADD PUSH1 0x40 MLOAD DUP1 SWAP2 SUB SWAP1 LOG1 PUSH1 0x0 PUSH2 0x1A61 DUP3 DUP8 DUP10 PUSH2 0x23E2 JUMP JUMPDEST PUSH1 0x11 DUP1 SLOAD PUSH1 0xFF NOT AND DUP3 ISZERO ISZERO OR SWAP1 SSTORE SWAP1 POP DUP1 PUSH2 0x1A94 JUMPI PUSH1 0x40 MLOAD DUP3 DUP2 MSTORE PUSH1 0x0 DUP1 MLOAD PUSH1 0x20 PUSH2 0x3F38 DUP4 CODECOPY DUP2 MLOAD SWAP2 MSTORE SWAP1 PUSH1 0x20 ADD PUSH2 0xD92 JUMP JUMPDEST PUSH1 0x0 DUP4 DUP2 MSTORE PUSH1 0x10 PUSH1 0x20 MSTORE PUSH1 0x40 SWAP1 DUP2 SWAP1 KECCAK256 SLOAD SWAP1 MLOAD PUSH1 0x0 DUP1 MLOAD PUSH1 0x20 PUSH2 0x3F78 DUP4 CODECOPY DUP2 MLOAD SWAP2 MSTORE SWAP2 PUSH2 0x1ACA SWAP2 PUSH1 0xFF SWAP1 SWAP2 AND SWAP1 DUP7 SWAP1 DUP10 SWAP1 PUSH2 0x3833 JUMP JUMPDEST PUSH1 0x40 MLOAD DUP1 SWAP2 SUB SWAP1 LOG1 PUSH2 0x1ADC DUP4 DUP7 PUSH2 0x3504 JUMP JUMPDEST PUSH1 0x14 DUP9 GT ISZERO PUSH2 0x1B53 JUMPI PUSH1 0x40 MLOAD PUSH3 0x461BCD PUSH1 0xE5 SHL DUP2 MSTORE PUSH1 0x20 PUSH1 0x4 DUP3 ADD MSTORE PUSH1 0x37 PUSH1 0x24 DUP3 ADD MSTORE PUSH32 0x416E6F6E4944436F6E74726163743A20436F6D6D697373696F6E2073686F756C PUSH1 0x44 DUP3 ADD MSTORE PUSH32 0x64206265206265747765656E20302520616E6420323025000000000000000000 PUSH1 0x64 DUP3 ADD MSTORE PUSH1 0x84 ADD PUSH2 0x924 JUMP JUMPDEST PUSH1 0x2 SLOAD DUP9 EQ PUSH2 0x1BD8 JUMPI PUSH1 0x40 MLOAD PUSH3 0x461BCD PUSH1 0xE5 SHL DUP2 MSTORE PUSH1 0x20 PUSH1 0x4 DUP3 ADD MSTORE PUSH1 0x45 PUSH1 0x24 DUP3 ADD MSTORE PUSH32 0x416E6F6E4944436F6E74726163743A204D69736D61746368656420636F6D6D69 PUSH1 0x44 DUP3 ADD MSTORE PUSH32 0x7373696F6E2076616C756573206265747765656E2073746570206F6E6520616E PUSH1 0x64 DUP3 ADD MSTORE PUSH5 0x642074776F PUSH1 0xD8 SHL PUSH1 0x84 DUP3 ADD MSTORE PUSH1 0xA4 ADD PUSH2 0x924 JUMP JUMPDEST PUSH1 0x1 DUP9 SWAP1 SSTORE PUSH1 0x0 PUSH1 0x2 SSTORE PUSH1 0x40 MLOAD DUP9 DUP2 MSTORE PUSH32 0x11BF320227562BD5F6C9B575913CF92B3B996B47873159DF227324AE1BB4D0EA SWAP1 PUSH1 0x20 ADD JUMPDEST PUSH1 0x40 MLOAD DUP1 SWAP2 SUB SWAP1 LOG1 POP POP POP POP POP POP POP POP POP POP POP JUMP JUMPDEST PUSH1 0x0 CALLER COINBASE EQ PUSH2 0x1C9A JUMPI PUSH1 0x40 MLOAD PUSH3 0x461BCD PUSH1 0xE5 SHL DUP2 MSTORE PUSH1 0x20 PUSH1 0x4 DUP3 ADD MSTORE PUSH1 0x38 PUSH1 0x24 DUP3 ADD MSTORE PUSH32 0x4F6E6C79207468652063757272656E7420626C6F636B277320636F696E626173 PUSH1 0x44 DUP3 ADD MSTORE PUSH32 0x652063616E2063616C6C20746869732066756E6374696F6E0000000000000000 PUSH1 0x64 DUP3 ADD MSTORE PUSH1 0x84 ADD PUSH2 0x924 JUMP JUMPDEST PUSH1 0x1 PUSH1 0x1 PUSH1 0xA0 SHL SUB DUP3 AND PUSH1 0x0 SWAP1 DUP2 MSTORE PUSH1 0xA PUSH1 0x20 MSTORE PUSH1 0x40 SWAP1 KECCAK256 SLOAD PUSH1 0xFF AND PUSH2 0x1CC2 JUMPI POP PUSH1 0x0 SWAP2 SWAP1 POP JUMP JUMPDEST PUSH1 0x1 PUSH1 0x1 PUSH1 0xA0 SHL SUB DUP3 AND PUSH1 0x0 DUP2 DUP2 MSTORE PUSH1 0x4 PUSH1 0x20 SWAP1 DUP2 MSTORE PUSH1 0x40 SWAP2 DUP3 SWAP1 KECCAK256 SWAP2 MLOAD TIMESTAMP DUP2 MSTORE SWAP2 SWAP3 SWAP2 PUSH32 0x9ED0861F8FC182C8888F48E900842F475CCD2A3C93C6F966168EAA67D52D2EE1 SWAP2 ADD PUSH1 0x40 MLOAD DUP1 SWAP2 SUB SWAP1 LOG2 PUSH1 0x1 PUSH1 0x1 PUSH1 0xA0 SHL SUB DUP4 AND PUSH1 0x0 SWAP1 DUP2 MSTORE PUSH1 0x5 PUSH1 0x20 MSTORE PUSH1 0x40 SWAP1 KECCAK256 SLOAD DUP2 SLOAD SUB PUSH2 0x1E02 JUMPI PUSH2 0xE10 DUP2 PUSH1 0x0 DUP2 SLOAD DUP2 LT PUSH2 0x1D47 JUMPI PUSH2 0x1D47 PUSH2 0x3CE3 JUMP JUMPDEST SWAP1 PUSH1 0x0 MSTORE PUSH1 0x20 PUSH1 0x0 KECCAK256 ADD SLOAD TIMESTAMP PUSH2 0x1D5D SWAP2 SWAP1 PUSH2 0x3E54 JUMP JUMPDEST GT PUSH2 0x1D6B JUMPI POP PUSH1 0x0 SWAP3 SWAP2 POP POP JUMP JUMPDEST PUSH1 0x0 JUMPDEST DUP2 SLOAD PUSH2 0x1D7C SWAP1 PUSH1 0x1 SWAP1 PUSH2 0x3E54 JUMP JUMPDEST DUP2 LT ISZERO PUSH2 0x1DDA JUMPI DUP2 PUSH2 0x1D8F DUP3 PUSH1 0x1 PUSH2 0x3E67 JUMP JUMPDEST DUP2 SLOAD DUP2 LT PUSH2 0x1D9F JUMPI PUSH2 0x1D9F PUSH2 0x3CE3 JUMP JUMPDEST SWAP1 PUSH1 0x0 MSTORE PUSH1 0x20 PUSH1 0x0 KECCAK256 ADD SLOAD DUP3 DUP3 DUP2 SLOAD DUP2 LT PUSH2 0x1DBC JUMPI PUSH2 0x1DBC PUSH2 0x3CE3 JUMP JUMPDEST PUSH1 0x0 SWAP2 DUP3 MSTORE PUSH1 0x20 SWAP1 SWAP2 KECCAK256 ADD SSTORE DUP1 PUSH2 0x1DD2 DUP2 PUSH2 0x3D0F JUMP JUMPDEST SWAP2 POP POP PUSH2 0x1D6E JUMP JUMPDEST POP DUP1 DUP1 SLOAD DUP1 PUSH2 0x1DEB JUMPI PUSH2 0x1DEB PUSH2 0x3E7A JUMP JUMPDEST PUSH1 0x1 SWAP1 SUB DUP2 DUP2 SWAP1 PUSH1 0x0 MSTORE PUSH1 0x20 PUSH1 0x0 KECCAK256 ADD PUSH1 0x0 SWAP1 SSTORE SWAP1 SSTORE JUMPDEST DUP1 SLOAD PUSH1 0x1 DUP2 DUP2 ADD DUP4 SSTORE PUSH1 0x0 SWAP3 DUP4 MSTORE PUSH1 0x20 SWAP1 SWAP3 KECCAK256 TIMESTAMP SWAP2 ADD SSTORE SWAP3 SWAP2 POP POP JUMP JUMPDEST CALLER PUSH1 0x0 SWAP1 DUP2 MSTORE PUSH1 0x9 PUSH1 0x20 MSTORE PUSH1 0x40 SWAP1 KECCAK256 SLOAD PUSH1 0xFF AND PUSH2 0x1E4E JUMPI PUSH1 0x40 MLOAD PUSH3 0x461BCD PUSH1 0xE5 SHL DUP2 MSTORE PUSH1 0x4 ADD PUSH2 0x924 SWAP1 PUSH2 0x3D28 JUMP JUMPDEST PUSH1 0x1 PUSH1 0x1 PUSH1 0xA0 SHL SUB DUP2 AND PUSH1 0x0 SWAP1 DUP2 MSTORE PUSH1 0xA PUSH1 0x20 MSTORE PUSH1 0x40 SWAP1 KECCAK256 SLOAD PUSH1 0xFF AND PUSH2 0x1EB6 JUMPI PUSH1 0x40 MLOAD PUSH3 0x461BCD PUSH1 0xE5 SHL DUP2 MSTORE PUSH1 0x20 PUSH1 0x4 DUP3 ADD MSTORE PUSH1 0x1E PUSH1 0x24 DUP3 ADD MSTORE PUSH32 0x41646472657373206E6F7420666F756E6420696E2077686974656C6973740000 PUSH1 0x44 DUP3 ADD MSTORE PUSH1 0x64 ADD PUSH2 0x924 JUMP JUMPDEST PUSH1 0x1 PUSH1 0x1 PUSH1 0xA0 SHL SUB DUP2 AND PUSH1 0x0 DUP2 DUP2 MSTORE PUSH1 0xA PUSH1 0x20 SWAP1 DUP2 MSTORE PUSH1 0x40 DUP1 DUP4 KECCAK256 DUP1 SLOAD PUSH1 0xFF NOT AND SWAP1 SSTORE PUSH1 0xE SWAP1 SWAP2 MSTORE DUP1 DUP3 KECCAK256 DUP3 SWAP1 SSTORE MLOAD PUSH32 0xCDD2E9B91A56913D370075169CEFA1602BA36BE5301664F752192BB1709DF757 SWAP2 SWAP1 LOG2 POP JUMP JUMPDEST DUP4 DUP3 DUP5 DUP4 PUSH1 0x40 MLOAD PUSH1 0x20 ADD PUSH2 0x1F22 SWAP2 DUP2 MSTORE PUSH1 0x20 ADD SWAP1 JUMP JUMPDEST PUSH1 0x40 MLOAD PUSH1 0x20 DUP2 DUP4 SUB SUB DUP2 MSTORE SWAP1 PUSH1 0x40 MSTORE PUSH1 0x0 DUP5 PUSH1 0x40 MLOAD PUSH1 0x20 ADD PUSH2 0x1F44 SWAP2 SWAP1 PUSH2 0x3DA9 JUMP JUMPDEST PUSH1 0x40 DUP1 MLOAD PUSH1 0x1F NOT DUP2 DUP5 SUB ADD DUP2 MSTORE SWAP2 SWAP1 MSTORE DUP1 MLOAD PUSH1 0x20 SWAP1 SWAP2 ADD KECCAK256 SWAP1 POP PUSH1 0x0 DUP1 DUP3 DUP2 MSTORE PUSH1 0x10 PUSH1 0x20 MSTORE PUSH1 0x40 SWAP1 KECCAK256 SLOAD PUSH1 0xFF AND PUSH1 0x2 DUP2 GT ISZERO PUSH2 0x1F82 JUMPI PUSH2 0x1F82 PUSH2 0x37FB JUMP JUMPDEST EQ PUSH2 0x1F9F JUMPI PUSH1 0x40 MLOAD PUSH3 0x461BCD PUSH1 0xE5 SHL DUP2 MSTORE PUSH1 0x4 ADD PUSH2 0x924 SWAP1 PUSH2 0x3DE0 JUMP JUMPDEST PUSH1 0x0 DUP3 DUP5 PUSH1 0x40 MLOAD PUSH1 0x20 ADD PUSH2 0x1FB4 SWAP3 SWAP2 SWAP1 PUSH2 0x3E15 JUMP JUMPDEST PUSH1 0x40 DUP1 MLOAD PUSH1 0x1F NOT DUP2 DUP5 SUB ADD DUP2 MSTORE SWAP1 DUP3 SWAP1 MSTORE DUP1 MLOAD PUSH1 0x20 SWAP2 DUP3 ADD KECCAK256 DUP1 DUP4 MSTORE SWAP3 POP PUSH1 0x0 DUP1 MLOAD PUSH1 0x20 PUSH2 0x3F58 DUP4 CODECOPY DUP2 MLOAD SWAP2 MSTORE SWAP2 ADD PUSH1 0x40 MLOAD DUP1 SWAP2 SUB SWAP1 LOG1 PUSH1 0x0 PUSH2 0x1FF8 DUP3 DUP8 DUP10 PUSH2 0x23E2 JUMP JUMPDEST PUSH1 0x11 DUP1 SLOAD PUSH1 0xFF NOT AND DUP3 ISZERO ISZERO OR SWAP1 SSTORE SWAP1 POP DUP1 PUSH2 0x202B JUMPI PUSH1 0x40 MLOAD DUP3 DUP2 MSTORE PUSH1 0x0 DUP1 MLOAD PUSH1 0x20 PUSH2 0x3F38 DUP4 CODECOPY DUP2 MLOAD SWAP2 MSTORE SWAP1 PUSH1 0x20 ADD PUSH2 0xD92 JUMP JUMPDEST PUSH1 0x0 DUP4 DUP2 MSTORE PUSH1 0x10 PUSH1 0x20 MSTORE PUSH1 0x40 SWAP1 DUP2 SWAP1 KECCAK256 SLOAD SWAP1 MLOAD PUSH1 0x0 DUP1 MLOAD PUSH1 0x20 PUSH2 0x3F78 DUP4 CODECOPY DUP2 MLOAD SWAP2 MSTORE SWAP2 PUSH2 0x2061 SWAP2 PUSH1 0xFF SWAP1 SWAP2 AND SWAP1 DUP7 SWAP1 DUP10 SWAP1 PUSH2 0x3833 JUMP JUMPDEST PUSH1 0x40 MLOAD DUP1 SWAP2 SUB SWAP1 LOG1 PUSH2 0x2073 DUP4 DUP7 PUSH2 0x3504 JUMP JUMPDEST PUSH2 0x207E PUSH1 0x1 DUP10 PUSH2 0x36A2 JUMP JUMPDEST POP POP POP POP POP POP POP POP POP POP POP JUMP JUMPDEST DUP4 DUP4 DUP4 DUP4 PUSH1 0x40 MLOAD PUSH1 0x20 ADD PUSH2 0x209F SWAP2 SWAP1 PUSH2 0x3E37 JUMP JUMPDEST PUSH1 0x40 MLOAD PUSH1 0x20 DUP2 DUP4 SUB SUB DUP2 MSTORE SWAP1 PUSH1 0x40 MSTORE PUSH1 0x0 DUP5 PUSH1 0x40 MLOAD PUSH1 0x20 ADD PUSH2 0x20C1 SWAP2 SWAP1 PUSH2 0x3DA9 JUMP JUMPDEST PUSH1 0x40 DUP1 MLOAD PUSH1 0x1F NOT DUP2 DUP5 SUB ADD DUP2 MSTORE SWAP2 SWAP1 MSTORE DUP1 MLOAD PUSH1 0x20 SWAP1 SWAP2 ADD KECCAK256 SWAP1 POP PUSH1 0x0 DUP1 DUP3 DUP2 MSTORE PUSH1 0x10 PUSH1 0x20 MSTORE PUSH1 0x40 SWAP1 KECCAK256 SLOAD PUSH1 0xFF AND PUSH1 0x2 DUP2 GT ISZERO PUSH2 0x20FF JUMPI PUSH2 0x20FF PUSH2 0x37FB JUMP JUMPDEST EQ PUSH2 0x211C JUMPI PUSH1 0x40 MLOAD PUSH3 0x461BCD PUSH1 0xE5 SHL DUP2 MSTORE PUSH1 0x4 ADD PUSH2 0x924 SWAP1 PUSH2 0x3DE0 JUMP JUMPDEST PUSH1 0x0 DUP3 DUP5 PUSH1 0x40 MLOAD PUSH1 0x20 ADD PUSH2 0x2131 SWAP3 SWAP2 SWAP1 PUSH2 0x3E15 JUMP JUMPDEST PUSH1 0x40 DUP1 MLOAD PUSH1 0x1F NOT DUP2 DUP5 SUB ADD DUP2 MSTORE SWAP1 DUP3 SWAP1 MSTORE DUP1 MLOAD PUSH1 0x20 SWAP2 DUP3 ADD KECCAK256 DUP1 DUP4 MSTORE SWAP3 POP PUSH1 0x0 DUP1 MLOAD PUSH1 0x20 PUSH2 0x3F58 DUP4 CODECOPY DUP2 MLOAD SWAP2 MSTORE SWAP2 ADD PUSH1 0x40 MLOAD DUP1 SWAP2 SUB SWAP1 LOG1 PUSH1 0x0 PUSH2 0x2175 DUP3 DUP8 DUP10 PUSH2 0x23E2 JUMP JUMPDEST PUSH1 0x11 DUP1 SLOAD PUSH1 0xFF NOT AND DUP3 ISZERO ISZERO OR SWAP1 SSTORE SWAP1 POP DUP1 PUSH2 0x21A8 JUMPI PUSH1 0x40 MLOAD DUP3 DUP2 MSTORE PUSH1 0x0 DUP1 MLOAD PUSH1 0x20 PUSH2 0x3F38 DUP4 CODECOPY DUP2 MLOAD SWAP2 MSTORE SWAP1 PUSH1 0x20 ADD PUSH2 0xD92 JUMP JUMPDEST PUSH1 0x0 DUP4 DUP2 MSTORE PUSH1 0x10 PUSH1 0x20 MSTORE PUSH1 0x40 SWAP1 DUP2 SWAP1 KECCAK256 SLOAD SWAP1 MLOAD PUSH1 0x0 DUP1 MLOAD PUSH1 0x20 PUSH2 0x3F78 DUP4 CODECOPY DUP2 MLOAD SWAP2 MSTORE SWAP2 PUSH2 0x21DE SWAP2 PUSH1 0xFF SWAP1 SWAP2 AND SWAP1 DUP7 SWAP1 DUP10 SWAP1 PUSH2 0x3833 JUMP JUMPDEST PUSH1 0x40 MLOAD DUP1 SWAP2 SUB SWAP1 LOG1 PUSH2 0x21F0 DUP4 DUP7 PUSH2 0x3504 JUMP JUMPDEST DUP8 PUSH1 0x40 MLOAD PUSH1 0x20 ADD PUSH2 0x2201 SWAP2 SWAP1 PUSH2 0x3E37 JUMP JUMPDEST PUSH1 0x40 DUP1 MLOAD PUSH1 0x1F NOT DUP2 DUP5 SUB ADD DUP2 MSTORE SWAP2 SWAP1 MSTORE DUP1 MLOAD PUSH1 0x20 SWAP1 SWAP2 ADD KECCAK256 PUSH1 0x12 SSTORE POP POP POP POP POP POP POP POP POP POP POP JUMP JUMPDEST DUP3 DUP3 DUP3 DUP7 PUSH1 0x40 MLOAD PUSH1 0x20 ADD PUSH2 0x223D SWAP2 SWAP1 PUSH2 0x3E37 JUMP JUMPDEST PUSH1 0x40 MLOAD PUSH1 0x20 DUP2 DUP4 SUB SUB DUP2 MSTORE SWAP1 PUSH1 0x40 MSTORE PUSH1 0x0 DUP5 PUSH1 0x40 MLOAD PUSH1 0x20 ADD PUSH2 0x225F SWAP2 SWAP1 PUSH2 0x3DA9 JUMP JUMPDEST PUSH1 0x40 DUP1 MLOAD PUSH1 0x1F NOT DUP2 DUP5 SUB ADD DUP2 MSTORE SWAP2 SWAP1 MSTORE DUP1 MLOAD PUSH1 0x20 SWAP1 SWAP2 ADD KECCAK256 SWAP1 POP PUSH1 0x0 DUP1 DUP3 DUP2 MSTORE PUSH1 0x10 PUSH1 0x20 MSTORE PUSH1 0x40 SWAP1 KECCAK256 SLOAD PUSH1 0xFF AND PUSH1 0x2 DUP2 GT ISZERO PUSH2 0x229D JUMPI PUSH2 0x229D PUSH2 0x37FB JUMP JUMPDEST EQ PUSH2 0x22BA JUMPI PUSH1 0x40 MLOAD PUSH3 0x461BCD PUSH1 0xE5 SHL DUP2 MSTORE PUSH1 0x4 ADD PUSH2 0x924 SWAP1 PUSH2 0x3DE0 JUMP JUMPDEST PUSH1 0x0 DUP3 DUP5 PUSH1 0x40 MLOAD PUSH1 0x20 ADD PUSH2 0x22CF SWAP3 SWAP2 SWAP1 PUSH2 0x3E15 JUMP JUMPDEST PUSH1 0x40 DUP1 MLOAD PUSH1 0x1F NOT DUP2 DUP5 SUB ADD DUP2 MSTORE SWAP1 DUP3 SWAP1 MSTORE DUP1 MLOAD PUSH1 0x20 SWAP2 DUP3 ADD KECCAK256 DUP1 DUP4 MSTORE SWAP3 POP PUSH1 0x0 DUP1 MLOAD PUSH1 0x20 PUSH2 0x3F58 DUP4 CODECOPY DUP2 MLOAD SWAP2 MSTORE SWAP2 ADD PUSH1 0x40 MLOAD DUP1 SWAP2 SUB SWAP1 LOG1 PUSH1 0x0 PUSH2 0x2313 DUP3 DUP8 DUP10 PUSH2 0x23E2 JUMP JUMPDEST PUSH1 0x11 DUP1 SLOAD PUSH1 0xFF NOT AND DUP3 ISZERO ISZERO OR SWAP1 SSTORE SWAP1 POP DUP1 PUSH2 0x2346 JUMPI PUSH1 0x40 MLOAD DUP3 DUP2 MSTORE PUSH1 0x0 DUP1 MLOAD PUSH1 0x20 PUSH2 0x3F38 DUP4 CODECOPY DUP2 MLOAD SWAP2 MSTORE SWAP1 PUSH1 0x20 ADD PUSH2 0xD92 JUMP JUMPDEST PUSH1 0x0 DUP4 DUP2 MSTORE PUSH1 0x10 PUSH1 0x20 MSTORE PUSH1 0x40 SWAP1 DUP2 SWAP1 KECCAK256 SLOAD SWAP1 MLOAD PUSH1 0x0 DUP1 MLOAD PUSH1 0x20 PUSH2 0x3F78 DUP4 CODECOPY DUP2 MLOAD SWAP2 MSTORE SWAP2 PUSH2 0x237C SWAP2 PUSH1 0xFF SWAP1 SWAP2 AND SWAP1 DUP7 SWAP1 DUP10 SWAP1 PUSH2 0x3833 JUMP JUMPDEST PUSH1 0x40 MLOAD DUP1 SWAP2 SUB SWAP1 LOG1 PUSH2 0x238E DUP4 DUP7 PUSH2 0x3504 JUMP JUMPDEST PUSH1 0x1 PUSH1 0x1 PUSH1 0xA0 SHL SUB DUP12 AND PUSH1 0x0 DUP2 DUP2 MSTORE PUSH1 0x9 PUSH1 0x20 SWAP1 DUP2 MSTORE PUSH1 0x40 SWAP2 DUP3 SWAP1 KECCAK256 DUP1 SLOAD PUSH1 0xFF NOT AND PUSH1 0x1 OR SWAP1 SSTORE SWAP1 MLOAD SWAP2 DUP3 MSTORE PUSH32 0x9C2D3039F3D15023B5382D61054AAE8F70288E4BFFB8676398BACA3C389E8F18 SWAP2 ADD PUSH2 0x1C0E JUMP JUMPDEST PUSH1 0x0 DUP1 JUMPDEST PUSH2 0x100 DUP2 LT ISZERO PUSH2 0x248A JUMPI DUP4 DUP2 PUSH2 0x100 DUP2 LT PUSH2 0x2403 JUMPI PUSH2 0x2403 PUSH2 0x3CE3 JUMP JUMPDEST PUSH1 0x20 MUL DUP2 ADD SWAP1 PUSH2 0x2413 SWAP2 SWAP1 PUSH2 0x3E90 JUMP JUMPDEST PUSH1 0x40 MLOAD PUSH2 0x2421 SWAP3 SWAP2 SWAP1 PUSH2 0x3EDE JUMP JUMPDEST PUSH1 0x40 MLOAD DUP1 SWAP2 SUB SWAP1 KECCAK256 DUP4 DUP3 PUSH2 0x100 DUP2 LT PUSH2 0x243C JUMPI PUSH2 0x243C PUSH2 0x3CE3 JUMP JUMPDEST PUSH1 0x40 MUL ADD PUSH1 0x0 DUP4 PUSH1 0xFF SUB PUSH1 0x1 SWAP1 SHL DUP9 AND GT PUSH2 0x2458 JUMPI PUSH1 0x0 PUSH2 0x245B JUMP JUMPDEST PUSH1 0x1 JUMPDEST PUSH1 0xFF AND PUSH1 0x2 DUP2 LT PUSH2 0x246E JUMPI PUSH2 0x246E PUSH2 0x3CE3 JUMP JUMPDEST PUSH1 0x20 MUL ADD CALLDATALOAD EQ PUSH2 0x2482 JUMPI PUSH1 0x0 SWAP2 POP POP PUSH2 0x2490 JUMP JUMPDEST PUSH1 0x1 ADD PUSH2 0x23E6 JUMP JUMPDEST POP PUSH1 0x1 SWAP1 POP JUMPDEST SWAP4 SWAP3 POP POP POP JUMP JUMPDEST DUP3 DUP3 DUP3 DUP7 PUSH1 0x40 MLOAD PUSH1 0x20 ADD PUSH2 0x24AD SWAP2 DUP2 MSTORE PUSH1 0x20 ADD SWAP1 JUMP JUMPDEST PUSH1 0x40 MLOAD PUSH1 0x20 DUP2 DUP4 SUB SUB DUP2 MSTORE SWAP1 PUSH1 0x40 MSTORE PUSH1 0x0 DUP5 PUSH1 0x40 MLOAD PUSH1 0x20 ADD PUSH2 0x24CF SWAP2 SWAP1 PUSH2 0x3DA9 JUMP JUMPDEST PUSH1 0x40 DUP1 MLOAD PUSH1 0x1F NOT DUP2 DUP5 SUB ADD DUP2 MSTORE SWAP2 SWAP1 MSTORE DUP1 MLOAD PUSH1 0x20 SWAP1 SWAP2 ADD KECCAK256 SWAP1 POP PUSH1 0x0 DUP1 DUP3 DUP2 MSTORE PUSH1 0x10 PUSH1 0x20 MSTORE PUSH1 0x40 SWAP1 KECCAK256 SLOAD PUSH1 0xFF AND PUSH1 0x2 DUP2 GT ISZERO PUSH2 0x250D JUMPI PUSH2 0x250D PUSH2 0x37FB JUMP JUMPDEST EQ PUSH2 0x252A JUMPI PUSH1 0x40 MLOAD PUSH3 0x461BCD PUSH1 0xE5 SHL DUP2 MSTORE PUSH1 0x4 ADD PUSH2 0x924 SWAP1 PUSH2 0x3DE0 JUMP JUMPDEST PUSH1 0x0 DUP3 DUP5 PUSH1 0x40 MLOAD PUSH1 0x20 ADD PUSH2 0x253F SWAP3 SWAP2 SWAP1 PUSH2 0x3E15 JUMP JUMPDEST PUSH1 0x40 DUP1 MLOAD PUSH1 0x1F NOT DUP2 DUP5 SUB ADD DUP2 MSTORE SWAP1 DUP3 SWAP1 MSTORE DUP1 MLOAD PUSH1 0x20 SWAP2 DUP3 ADD KECCAK256 DUP1 DUP4 MSTORE SWAP3 POP PUSH1 0x0 DUP1 MLOAD PUSH1 0x20 PUSH2 0x3F58 DUP4 CODECOPY DUP2 MLOAD SWAP2 MSTORE SWAP2 ADD PUSH1 0x40 MLOAD DUP1 SWAP2 SUB SWAP1 LOG1 PUSH1 0x0 PUSH2 0x2583 DUP3 DUP8 DUP10 PUSH2 0x23E2 JUMP JUMPDEST PUSH1 0x11 DUP1 SLOAD PUSH1 0xFF NOT AND DUP3 ISZERO ISZERO OR SWAP1 SSTORE SWAP1 POP DUP1 PUSH2 0x25B6 JUMPI PUSH1 0x40 MLOAD DUP3 DUP2 MSTORE PUSH1 0x0 DUP1 MLOAD PUSH1 0x20 PUSH2 0x3F38 DUP4 CODECOPY DUP2 MLOAD SWAP2 MSTORE SWAP1 PUSH1 0x20 ADD PUSH2 0xD92 JUMP JUMPDEST PUSH1 0x0 DUP4 DUP2 MSTORE PUSH1 0x10 PUSH1 0x20 MSTORE PUSH1 0x40 SWAP1 DUP2 SWAP1 KECCAK256 SLOAD SWAP1 MLOAD PUSH1 0x0 DUP1 MLOAD PUSH1 0x20 PUSH2 0x3F78 DUP4 CODECOPY DUP2 MLOAD SWAP2 MSTORE SWAP2 PUSH2 0x25EC SWAP2 PUSH1 0xFF SWAP1 SWAP2 AND SWAP1 DUP7 SWAP1 DUP10 SWAP1 PUSH2 0x3833 JUMP JUMPDEST PUSH1 0x40 MLOAD DUP1 SWAP2 SUB SWAP1 LOG1 PUSH2 0x25FE DUP4 DUP7 PUSH2 0x3504 JUMP JUMPDEST PUSH1 0x0 DUP12 SWAP1 SSTORE PUSH1 0x40 MLOAD DUP12 DUP2 MSTORE PUSH32 0x58098EEEC115CBA633A1B8765151F8A2E4EFBDCB42846E0968E430D56E21D370 SWAP1 PUSH1 0x20 ADD PUSH2 0x1C0E JUMP JUMPDEST PUSH1 0xF SLOAD PUSH1 0x60 SWAP1 PUSH1 0x0 SWAP1 PUSH8 0xFFFFFFFFFFFFFFFF DUP2 GT ISZERO PUSH2 0x2654 JUMPI PUSH2 0x2654 PUSH2 0x386D JUMP JUMPDEST PUSH1 0x40 MLOAD SWAP1 DUP1 DUP3 MSTORE DUP1 PUSH1 0x20 MUL PUSH1 0x20 ADD DUP3 ADD PUSH1 0x40 MSTORE DUP1 ISZERO PUSH2 0x267D JUMPI DUP2 PUSH1 0x20 ADD PUSH1 0x20 DUP3 MUL DUP1 CALLDATASIZE DUP4 CALLDATACOPY ADD SWAP1 POP JUMPDEST POP SWAP1 POP PUSH1 0x0 DUP1 JUMPDEST PUSH1 0xF SLOAD DUP2 LT ISZERO PUSH2 0x273E JUMPI DUP5 PUSH1 0x2 DUP2 GT ISZERO PUSH2 0x26A0 JUMPI PUSH2 0x26A0 PUSH2 0x37FB JUMP JUMPDEST PUSH1 0xF DUP3 DUP2 SLOAD DUP2 LT PUSH2 0x26B3 JUMPI PUSH2 0x26B3 PUSH2 0x3CE3 JUMP JUMPDEST PUSH1 0x0 SWAP2 DUP3 MSTORE PUSH1 0x20 SWAP1 SWAP2 KECCAK256 PUSH1 0x2 SWAP2 DUP3 MUL ADD SLOAD PUSH1 0xFF AND SWAP1 DUP2 GT ISZERO PUSH2 0x26D7 JUMPI PUSH2 0x26D7 PUSH2 0x37FB JUMP JUMPDEST SUB PUSH2 0x272C JUMPI PUSH1 0xF DUP2 DUP2 SLOAD DUP2 LT PUSH2 0x26EF JUMPI PUSH2 0x26EF PUSH2 0x3CE3 JUMP JUMPDEST SWAP1 PUSH1 0x0 MSTORE PUSH1 0x20 PUSH1 0x0 KECCAK256 SWAP1 PUSH1 0x2 MUL ADD PUSH1 0x1 ADD SLOAD DUP4 DUP4 DUP2 MLOAD DUP2 LT PUSH2 0x2713 JUMPI PUSH2 0x2713 PUSH2 0x3CE3 JUMP JUMPDEST PUSH1 0x20 SWAP1 DUP2 MUL SWAP2 SWAP1 SWAP2 ADD ADD MSTORE DUP2 PUSH2 0x2728 DUP2 PUSH2 0x3D0F JUMP JUMPDEST SWAP3 POP POP JUMPDEST DUP1 PUSH2 0x2736 DUP2 PUSH2 0x3D0F JUMP JUMPDEST SWAP2 POP POP PUSH2 0x2684 JUMP JUMPDEST POP PUSH1 0x0 DUP2 PUSH8 0xFFFFFFFFFFFFFFFF DUP2 GT ISZERO PUSH2 0x275A JUMPI PUSH2 0x275A PUSH2 0x386D JUMP JUMPDEST PUSH1 0x40 MLOAD SWAP1 DUP1 DUP3 MSTORE DUP1 PUSH1 0x20 MUL PUSH1 0x20 ADD DUP3 ADD PUSH1 0x40 MSTORE DUP1 ISZERO PUSH2 0x2783 JUMPI DUP2 PUSH1 0x20 ADD PUSH1 0x20 DUP3 MUL DUP1 CALLDATASIZE DUP4 CALLDATACOPY ADD SWAP1 POP JUMPDEST POP SWAP1 POP PUSH1 0x0 JUMPDEST DUP3 DUP2 LT ISZERO PUSH2 0x27DA JUMPI DUP4 DUP2 DUP2 MLOAD DUP2 LT PUSH2 0x27A3 JUMPI PUSH2 0x27A3 PUSH2 0x3CE3 JUMP JUMPDEST PUSH1 0x20 MUL PUSH1 0x20 ADD ADD MLOAD DUP3 DUP3 DUP2 MLOAD DUP2 LT PUSH2 0x27BD JUMPI PUSH2 0x27BD PUSH2 0x3CE3 JUMP JUMPDEST PUSH1 0x20 SWAP1 DUP2 MUL SWAP2 SWAP1 SWAP2 ADD ADD MSTORE DUP1 PUSH2 0x27D2 DUP2 PUSH2 0x3D0F JUMP JUMPDEST SWAP2 POP POP PUSH2 0x2789 JUMP JUMPDEST POP SWAP5 SWAP4 POP POP POP POP JUMP JUMPDEST CALLER PUSH1 0x0 SWAP1 DUP2 MSTORE PUSH1 0x9 PUSH1 0x20 MSTORE PUSH1 0x40 SWAP1 KECCAK256 SLOAD PUSH1 0xFF AND PUSH2 0x2851 JUMPI PUSH1 0x40 MLOAD PUSH3 0x461BCD PUSH1 0xE5 SHL DUP2 MSTORE PUSH1 0x20 PUSH1 0x4 DUP3 ADD MSTORE PUSH1 0x26 PUSH1 0x24 DUP3 ADD MSTORE PUSH32 0x4E6F74207065726D697474656420746F206D6F64696679206D696E7574657320 PUSH1 0x44 DUP3 ADD MSTORE PUSH6 0x1C1B185E5959 PUSH1 0xD2 SHL PUSH1 0x64 DUP3 ADD MSTORE PUSH1 0x84 ADD PUSH2 0x924 JUMP JUMPDEST PUSH1 0x1 PUSH1 0x1 PUSH1 0xA0 SHL SUB DUP3 AND PUSH1 0x0 SWAP1 DUP2 MSTORE PUSH1 0xB PUSH1 0x20 MSTORE PUSH1 0x40 DUP2 KECCAK256 DUP1 SLOAD DUP4 SWAP3 SWAP1 PUSH2 0x2879 SWAP1 DUP5 SWAP1 PUSH2 0x3E67 JUMP JUMPDEST SWAP1 SWAP2 SSTORE POP POP PUSH1 0x40 MLOAD DUP2 DUP2 MSTORE PUSH1 0x1 PUSH1 0x1 PUSH1 0xA0 SHL SUB DUP4 AND SWAP1 PUSH32 0x54ECAB596BD73E6A3FD6D8BB310AA69A74C3F78DDC040F88C6F5D06DFFB3542B SWAP1 PUSH1 0x20 ADD PUSH2 0x171A JUMP JUMPDEST DUP4 DUP4 DUP4 DUP4 PUSH1 0x40 MLOAD PUSH1 0x20 ADD PUSH2 0x28CF SWAP2 DUP2 MSTORE PUSH1 0x20 ADD SWAP1 JUMP JUMPDEST PUSH1 0x40 MLOAD PUSH1 0x20 DUP2 DUP4 SUB SUB DUP2 MSTORE SWAP1 PUSH1 0x40 MSTORE PUSH1 0x0 DUP5 PUSH1 0x40 MLOAD PUSH1 0x20 ADD PUSH2 0x28F1 SWAP2 SWAP1 PUSH2 0x3DA9 JUMP JUMPDEST PUSH1 0x40 DUP1 MLOAD PUSH1 0x1F NOT DUP2 DUP5 SUB ADD DUP2 MSTORE SWAP2 SWAP1 MSTORE DUP1 MLOAD PUSH1 0x20 SWAP1 SWAP2 ADD KECCAK256 SWAP1 POP PUSH1 0x0 DUP1 DUP3 DUP2 MSTORE PUSH1 0x10 PUSH1 0x20 MSTORE PUSH1 0x40 SWAP1 KECCAK256 SLOAD PUSH1 0xFF AND PUSH1 0x2 DUP2 GT ISZERO PUSH2 0x292F JUMPI PUSH2 0x292F PUSH2 0x37FB JUMP JUMPDEST EQ PUSH2 0x294C JUMPI PUSH1 0x40 MLOAD PUSH3 0x461BCD PUSH1 0xE5 SHL DUP2 MSTORE PUSH1 0x4 ADD PUSH2 0x924 SWAP1 PUSH2 0x3DE0 JUMP JUMPDEST PUSH1 0x0 DUP3 DUP5 PUSH1 0x40 MLOAD PUSH1 0x20 ADD PUSH2 0x2961 SWAP3 SWAP2 SWAP1 PUSH2 0x3E15 JUMP JUMPDEST PUSH1 0x40 DUP1 MLOAD PUSH1 0x1F NOT DUP2 DUP5 SUB ADD DUP2 MSTORE SWAP1 DUP3 SWAP1 MSTORE DUP1 MLOAD PUSH1 0x20 SWAP2 DUP3 ADD KECCAK256 DUP1 DUP4 MSTORE SWAP3 POP PUSH1 0x0 DUP1 MLOAD PUSH1 0x20 PUSH2 0x3F58 DUP4 CODECOPY DUP2 MLOAD SWAP2 MSTORE SWAP2 ADD PUSH1 0x40 MLOAD DUP1 SWAP2 SUB SWAP1 LOG1 PUSH1 0x0 PUSH2 0x29A5 DUP3 DUP8 DUP10 PUSH2 0x23E2 JUMP JUMPDEST PUSH1 0x11 DUP1 SLOAD PUSH1 0xFF NOT AND DUP3 ISZERO ISZERO OR SWAP1 SSTORE SWAP1 POP DUP1 PUSH2 0x29D8 JUMPI PUSH1 0x40 MLOAD DUP3 DUP2 MSTORE PUSH1 0x0 DUP1 MLOAD PUSH1 0x20 PUSH2 0x3F38 DUP4 CODECOPY DUP2 MLOAD SWAP2 MSTORE SWAP1 PUSH1 0x20 ADD PUSH2 0xD92 JUMP JUMPDEST PUSH1 0x0 DUP4 DUP2 MSTORE PUSH1 0x10 PUSH1 0x20 MSTORE PUSH1 0x40 SWAP1 DUP2 SWAP1 KECCAK256 SLOAD SWAP1 MLOAD PUSH1 0x0 DUP1 MLOAD PUSH1 0x20 PUSH2 0x3F78 DUP4 CODECOPY DUP2 MLOAD SWAP2 MSTORE SWAP2 PUSH2 0x2A0E SWAP2 PUSH1 0xFF SWAP1 SWAP2 AND SWAP1 DUP7 SWAP1 DUP10 SWAP1 PUSH2 0x3833 JUMP JUMPDEST PUSH1 0x40 MLOAD DUP1 SWAP2 SUB SWAP1 LOG1 PUSH2 0x2A20 DUP4 DUP7 PUSH2 0x3504 JUMP JUMPDEST POP POP POP PUSH1 0x13 SWAP5 SWAP1 SWAP5 SSTORE POP POP POP PUSH1 0x14 SWAP2 SWAP1 SWAP2 SSTORE POP POP POP JUMP JUMPDEST PUSH1 0x8 SLOAD PUSH1 0x40 DUP1 MLOAD PUSH1 0x4 DUP2 MSTORE PUSH1 0x24 DUP2 ADD DUP3 MSTORE PUSH1 0x20 DUP2 ADD DUP1 MLOAD PUSH1 0x1 PUSH1 0x1 PUSH1 0xE0 SHL SUB AND PUSH4 0x1BAD9E05 PUSH1 0xE1 SHL OR SWAP1 MSTORE SWAP1 MLOAD PUSH1 0x0 SWAP3 PUSH32 0x375B3C0A792940DAC787DA40232E8CC6A34ABC755014C8E76617AD03F30ECDC8 SWAP3 DUP5 SWAP3 DUP4 SWAP3 PUSH1 0x1 PUSH1 0x1 PUSH1 0xA0 SHL SUB AND SWAP2 PUSH2 0x2AA0 SWAP2 PUSH2 0x3D8D JUMP JUMPDEST PUSH1 0x0 PUSH1 0x40 MLOAD DUP1 DUP4 SUB DUP2 DUP6 GAS STATICCALL SWAP2 POP POP RETURNDATASIZE DUP1 PUSH1 0x0 DUP2 EQ PUSH2 0x2ADB JUMPI PUSH1 0x40 MLOAD SWAP2 POP PUSH1 0x1F NOT PUSH1 0x3F RETURNDATASIZE ADD AND DUP3 ADD PUSH1 0x40 MSTORE RETURNDATASIZE DUP3 MSTORE RETURNDATASIZE PUSH1 0x0 PUSH1 0x20 DUP5 ADD RETURNDATACOPY PUSH2 0x2AE0 JUMP JUMPDEST PUSH1 0x60 SWAP2 POP JUMPDEST POP SWAP2 POP SWAP2 POP DUP2 PUSH2 0x2B32 JUMPI PUSH1 0x40 MLOAD PUSH3 0x461BCD PUSH1 0xE5 SHL DUP2 MSTORE PUSH1 0x20 PUSH1 0x4 DUP3 ADD MSTORE PUSH1 0x17 PUSH1 0x24 DUP3 ADD MSTORE PUSH32 0x43616C6C20746F206D696E5374616B65206661696C6564000000000000000000 PUSH1 0x44 DUP3 ADD MSTORE PUSH1 0x64 ADD PUSH2 0x924 JUMP JUMPDEST DUP1 DUP1 PUSH1 0x20 ADD SWAP1 MLOAD DUP2 ADD SWAP1 PUSH2 0x2B46 SWAP2 SWAP1 PUSH2 0x3EEE JUMP JUMPDEST SWAP4 POP POP POP POP SWAP1 JUMP JUMPDEST DUP4 DUP4 DUP4 DUP4 PUSH1 0x40 MLOAD PUSH1 0x20 ADD PUSH2 0x2B64 SWAP2 DUP2 MSTORE PUSH1 0x20 ADD SWAP1 JUMP JUMPDEST PUSH1 0x40 MLOAD PUSH1 0x20 DUP2 DUP4 SUB SUB DUP2 MSTORE SWAP1 PUSH1 0x40 MSTORE PUSH1 0x0 DUP5 PUSH1 0x40 MLOAD PUSH1 0x20 ADD PUSH2 0x2B86 SWAP2 SWAP1 PUSH2 0x3DA9 JUMP JUMPDEST PUSH1 0x40 DUP1 MLOAD PUSH1 0x1F NOT DUP2 DUP5 SUB ADD DUP2 MSTORE SWAP2 SWAP1 MSTORE DUP1 MLOAD PUSH1 0x20 SWAP1 SWAP2 ADD KECCAK256 SWAP1 POP PUSH1 0x0 DUP1 DUP3 DUP2 MSTORE PUSH1 0x10 PUSH1 0x20 MSTORE PUSH1 0x40 SWAP1 KECCAK256 SLOAD PUSH1 0xFF AND PUSH1 0x2 DUP2 GT ISZERO PUSH2 0x2BC4 JUMPI PUSH2 0x2BC4 PUSH2 0x37FB JUMP JUMPDEST EQ PUSH2 0x2BE1 JUMPI PUSH1 0x40 MLOAD PUSH3 0x461BCD PUSH1 0xE5 SHL DUP2 MSTORE PUSH1 0x4 ADD PUSH2 0x924 SWAP1 PUSH2 0x3DE0 JUMP JUMPDEST PUSH1 0x0 DUP3 DUP5 PUSH1 0x40 MLOAD PUSH1 0x20 ADD PUSH2 0x2BF6 SWAP3 SWAP2 SWAP1 PUSH2 0x3E15 JUMP JUMPDEST PUSH1 0x40 DUP1 MLOAD PUSH1 0x1F NOT DUP2 DUP5 SUB ADD DUP2 MSTORE SWAP1 DUP3 SWAP1 MSTORE DUP1 MLOAD PUSH1 0x20 SWAP2 DUP3 ADD KECCAK256 DUP1 DUP4 MSTORE SWAP3 POP PUSH1 0x0 DUP1 MLOAD PUSH1 0x20 PUSH2 0x3F58 DUP4 CODECOPY DUP2 MLOAD SWAP2 MSTORE SWAP2 ADD PUSH1 0x40 MLOAD DUP1 SWAP2 SUB SWAP1 LOG1 PUSH1 0x0 PUSH2 0x2C3A DUP3 DUP8 DUP10 PUSH2 0x23E2 JUMP JUMPDEST PUSH1 0x11 DUP1 SLOAD PUSH1 0xFF NOT AND DUP3 ISZERO ISZERO OR SWAP1 SSTORE SWAP1 POP DUP1 PUSH2 0x2C6D JUMPI PUSH1 0x40 MLOAD DUP3 DUP2 MSTORE PUSH1 0x0 DUP1 MLOAD PUSH1 0x20 PUSH2 0x3F38 DUP4 CODECOPY DUP2 MLOAD SWAP2 MSTORE SWAP1 PUSH1 0x20 ADD PUSH2 0xD92 JUMP JUMPDEST PUSH1 0x0 DUP4 DUP2 MSTORE PUSH1 0x10 PUSH1 0x20 MSTORE PUSH1 0x40 SWAP1 DUP2 SWAP1 KECCAK256 SLOAD SWAP1 MLOAD PUSH1 0x0 DUP1 MLOAD PUSH1 0x20 PUSH2 0x3F78 DUP4 CODECOPY DUP2 MLOAD SWAP2 MSTORE SWAP2 PUSH2 0x2CA3 SWAP2 PUSH1 0xFF SWAP1 SWAP2 AND SWAP1 DUP7 SWAP1 DUP10 SWAP1 PUSH2 0x3833 JUMP JUMPDEST PUSH1 0x40 MLOAD DUP1 SWAP2 SUB SWAP1 LOG1 PUSH2 0x2CB5 DUP4 DUP7 PUSH2 0x3504 JUMP JUMPDEST PUSH1 0x0 DUP12 PUSH1 0x40 MLOAD PUSH1 0x20 ADD PUSH2 0x2CC8 SWAP2 SWAP1 PUSH2 0x3DA9 JUMP JUMPDEST PUSH1 0x40 MLOAD PUSH1 0x20 DUP2 DUP4 SUB SUB DUP2 MSTORE SWAP1 PUSH1 0x40 MSTORE DUP1 MLOAD SWAP1 PUSH1 0x20 ADD KECCAK256 SWAP1 POP PUSH1 0x14 SLOAD DUP2 SUB PUSH2 0x2D65 JUMPI PUSH1 0x40 MLOAD PUSH3 0x461BCD PUSH1 0xE5 SHL DUP2 MSTORE PUSH1 0x20 PUSH1 0x4 DUP3 ADD MSTORE PUSH1 0x44 PUSH1 0x24 DUP3 ADD DUP2 SWAP1 MSTORE PUSH32 0x416E6F6E4944436F6E74726163743A2043616E6E6F7420757365207468652073 SWAP1 DUP3 ADD MSTORE PUSH32 0x616D65206B6579636861696E20747769636520666F7220746869732066756E63 PUSH1 0x64 DUP3 ADD MSTORE PUSH4 0x3A34B7B7 PUSH1 0xE1 SHL PUSH1 0x84 DUP3 ADD MSTORE PUSH1 0xA4 ADD PUSH2 0x924 JUMP JUMPDEST DUP9 PUSH1 0x13 SLOAD EQ PUSH2 0x2DC0 JUMPI PUSH1 0x40 MLOAD PUSH3 0x461BCD PUSH1 0xE5 SHL DUP2 MSTORE PUSH1 0x20 PUSH1 0x4 DUP3 ADD MSTORE PUSH1 0x21 PUSH1 0x24 DUP3 ADD MSTORE PUSH32 0x416E6F6E4944436F6E74726163743A204B65797320646F206E6F74206D617463 PUSH1 0x44 DUP3 ADD MSTORE PUSH1 0xD PUSH1 0xFB SHL PUSH1 0x64 DUP3 ADD MSTORE PUSH1 0x84 ADD PUSH2 0x924 JUMP JUMPDEST PUSH1 0x14 SLOAD DUP2 DUP11 PUSH1 0x0 DUP1 DUP5 DUP2 MSTORE PUSH1 0x10 PUSH1 0x20 MSTORE PUSH1 0x40 SWAP1 KECCAK256 SLOAD PUSH1 0xFF AND PUSH1 0x2 DUP2 GT ISZERO PUSH2 0x2DE9 JUMPI PUSH2 0x2DE9 PUSH2 0x37FB JUMP JUMPDEST EQ DUP1 ISZERO PUSH2 0x2E16 JUMPI POP PUSH1 0x0 DUP3 DUP2 MSTORE PUSH1 0x10 PUSH1 0x20 MSTORE PUSH1 0x40 DUP2 KECCAK256 SLOAD PUSH1 0xFF AND PUSH1 0x2 DUP2 GT ISZERO PUSH2 0x2E14 JUMPI PUSH2 0x2E14 PUSH2 0x37FB JUMP JUMPDEST EQ JUMPDEST PUSH2 0x2E7C JUMPI PUSH1 0x40 MLOAD PUSH3 0x461BCD PUSH1 0xE5 SHL DUP2 MSTORE PUSH1 0x20 PUSH1 0x4 DUP3 ADD MSTORE PUSH1 0x31 PUSH1 0x24 DUP3 ADD MSTORE PUSH32 0x416E6F6E4944436F6E74726163743A2050726F7669646564206B657973206172 PUSH1 0x44 DUP3 ADD MSTORE PUSH17 0x65206E6F74206D6173746572206B657973 PUSH1 0x78 SHL PUSH1 0x64 DUP3 ADD MSTORE PUSH1 0x84 ADD PUSH2 0x924 JUMP JUMPDEST DUP3 DUP2 EQ ISZERO DUP1 ISZERO PUSH2 0x2E8C JUMPI POP DUP2 DUP2 EQ ISZERO JUMPDEST PUSH2 0x2EF5 JUMPI PUSH1 0x40 MLOAD PUSH3 0x461BCD PUSH1 0xE5 SHL DUP2 MSTORE PUSH1 0x20 PUSH1 0x4 DUP3 ADD MSTORE PUSH1 0x34 PUSH1 0x24 DUP3 ADD MSTORE PUSH32 0x416E6F6E4944436F6E74726163743A204D6173746572206B6579732063616E6E PUSH1 0x44 DUP3 ADD MSTORE PUSH20 0x6F742064656C657465207468656D73656C766573 PUSH1 0x60 SHL PUSH1 0x64 DUP3 ADD MSTORE PUSH1 0x84 ADD PUSH2 0x924 JUMP JUMPDEST PUSH1 0x0 DUP2 DUP2 MSTORE PUSH1 0x10 PUSH1 0x20 MSTORE PUSH1 0x40 DUP2 KECCAK256 PUSH1 0x1 ADD SLOAD SWAP1 SUB PUSH2 0x2F64 JUMPI PUSH1 0x40 MLOAD PUSH3 0x461BCD PUSH1 0xE5 SHL DUP2 MSTORE PUSH1 0x20 PUSH1 0x4 DUP3 ADD MSTORE PUSH1 0x26 PUSH1 0x24 DUP3 ADD MSTORE PUSH32 0x416E6F6E4944436F6E74726163743A204E6F2073756368206B6579202864656C PUSH1 0x44 DUP3 ADD MSTORE PUSH6 0x6574696F6E29 PUSH1 0xD0 SHL PUSH1 0x64 DUP3 ADD MSTORE PUSH1 0x84 ADD PUSH2 0x924 JUMP JUMPDEST PUSH1 0x0 JUMPDEST PUSH1 0xF SLOAD DUP2 LT ISZERO PUSH2 0x3052 JUMPI DUP2 PUSH1 0xF DUP3 DUP2 SLOAD DUP2 LT PUSH2 0x2F85 JUMPI PUSH2 0x2F85 PUSH2 0x3CE3 JUMP JUMPDEST SWAP1 PUSH1 0x0 MSTORE PUSH1 0x20 PUSH1 0x0 KECCAK256 SWAP1 PUSH1 0x2 MUL ADD PUSH1 0x1 ADD SLOAD SUB PUSH2 0x3040 JUMPI PUSH1 0x0 DUP3 DUP2 MSTORE PUSH1 0x10 PUSH1 0x20 DUP2 DUP2 MSTORE PUSH1 0x40 DUP1 DUP5 KECCAK256 DUP1 SLOAD DUP3 MLOAD TIMESTAMP DUP2 DUP7 ADD MSTORE DIFFICULTY DUP2 DUP6 ADD MSTORE DUP4 MLOAD DUP1 DUP3 SUB DUP6 ADD DUP2 MSTORE PUSH1 0x60 SWAP1 SWAP2 ADD SWAP4 DUP5 SWAP1 MSTORE DUP1 MLOAD SWAP1 DUP6 ADD KECCAK256 SWAP6 DUP9 SWAP1 MSTORE SWAP4 SWAP1 SWAP3 MSTORE PUSH4 0xDE1E7ED PUSH1 0xE4 SHL DUP5 XOR PUSH1 0x1 DUP4 ADD DUP2 SWAP1 SSTORE PUSH1 0x2 PUSH1 0xFF NOT DUP6 AND DUP2 OR SWAP1 SWAP4 SSTORE PUSH1 0xFF SWAP1 SWAP4 AND SWAP4 SWAP2 PUSH32 0x643BE3612916977C69D5ED1ABB75A50CCA49DF49BA2444D836E2A0CF65FE074 SWAP2 PUSH2 0x3030 SWAP2 DUP7 SWAP2 DUP10 SWAP2 DUP8 SWAP2 PUSH2 0x3F07 JUMP JUMPDEST PUSH1 0x40 MLOAD DUP1 SWAP2 SUB SWAP1 LOG1 POP POP POP PUSH2 0x3052 JUMP JUMPDEST DUP1 PUSH2 0x304A DUP2 PUSH2 0x3D0F JUMP JUMPDEST SWAP2 POP POP PUSH2 0x2F67 JUMP JUMPDEST POP POP PUSH1 0x0 PUSH1 0x13 DUP2 SWAP1 SSTORE PUSH1 0x14 SSTORE POP POP POP POP POP POP POP POP POP POP POP POP POP POP JUMP JUMPDEST DUP4 DUP4 DUP4 DUP4 PUSH1 0x40 MLOAD PUSH1 0x20 ADD PUSH2 0x3084 SWAP2 DUP2 MSTORE PUSH1 0x20 ADD SWAP1 JUMP JUMPDEST PUSH1 0x40 MLOAD PUSH1 0x20 DUP2 DUP4 SUB SUB DUP2 MSTORE SWAP1 PUSH1 0x40 MSTORE PUSH1 0x0 DUP5 PUSH1 0x40 MLOAD PUSH1 0x20 ADD PUSH2 0x30A6 SWAP2 SWAP1 PUSH2 0x3DA9 JUMP JUMPDEST PUSH1 0x40 DUP1 MLOAD PUSH1 0x1F NOT DUP2 DUP5 SUB ADD DUP2 MSTORE SWAP2 SWAP1 MSTORE DUP1 MLOAD PUSH1 0x20 SWAP1 SWAP2 ADD KECCAK256 SWAP1 POP PUSH1 0x0 DUP1 DUP3 DUP2 MSTORE PUSH1 0x10 PUSH1 0x20 MSTORE PUSH1 0x40 SWAP1 KECCAK256 SLOAD PUSH1 0xFF AND PUSH1 0x2 DUP2 GT ISZERO PUSH2 0x30E4 JUMPI PUSH2 0x30E4 PUSH2 0x37FB JUMP JUMPDEST EQ PUSH2 0x3101 JUMPI PUSH1 0x40 MLOAD PUSH3 0x461BCD PUSH1 0xE5 SHL DUP2 MSTORE PUSH1 0x4 ADD PUSH2 0x924 SWAP1 PUSH2 0x3DE0 JUMP JUMPDEST PUSH1 0x0 DUP3 DUP5 PUSH1 0x40 MLOAD PUSH1 0x20 ADD PUSH2 0x3116 SWAP3 SWAP2 SWAP1 PUSH2 0x3E15 JUMP JUMPDEST PUSH1 0x40 DUP1 MLOAD PUSH1 0x1F NOT DUP2 DUP5 SUB ADD DUP2 MSTORE SWAP1 DUP3 SWAP1 MSTORE DUP1 MLOAD PUSH1 0x20 SWAP2 DUP3 ADD KECCAK256 DUP1 DUP4 MSTORE SWAP3 POP PUSH1 0x0 DUP1 MLOAD PUSH1 0x20 PUSH2 0x3F58 DUP4 CODECOPY DUP2 MLOAD SWAP2 MSTORE SWAP2 ADD PUSH1 0x40 MLOAD DUP1 SWAP2 SUB SWAP1 LOG1 PUSH1 0x0 PUSH2 0x315A DUP3 DUP8 DUP10 PUSH2 0x23E2 JUMP JUMPDEST PUSH1 0x11 DUP1 SLOAD PUSH1 0xFF NOT AND DUP3 ISZERO ISZERO OR SWAP1 SSTORE SWAP1 POP DUP1 PUSH2 0x318D JUMPI PUSH1 0x40 MLOAD DUP3 DUP2 MSTORE PUSH1 0x0 DUP1 MLOAD PUSH1 0x20 PUSH2 0x3F38 DUP4 CODECOPY DUP2 MLOAD SWAP2 MSTORE SWAP1 PUSH1 0x20 ADD PUSH2 0xD92 JUMP JUMPDEST PUSH1 0x0 DUP4 DUP2 MSTORE PUSH1 0x10 PUSH1 0x20 MSTORE PUSH1 0x40 SWAP1 DUP2 SWAP1 KECCAK256 SLOAD SWAP1 MLOAD PUSH1 0x0 DUP1 MLOAD PUSH1 0x20 PUSH2 0x3F78 DUP4 CODECOPY DUP2 MLOAD SWAP2 MSTORE SWAP2 PUSH2 0x31C3 SWAP2 PUSH1 0xFF SWAP1 SWAP2 AND SWAP1 DUP7 SWAP1 DUP10 SWAP1 PUSH2 0x3833 JUMP JUMPDEST PUSH1 0x40 MLOAD DUP1 SWAP2 SUB SWAP1 LOG1 PUSH2 0x31D5 DUP4 DUP7 PUSH2 0x3504 JUMP JUMPDEST PUSH1 0x0 DUP12 PUSH1 0x40 MLOAD PUSH1 0x20 ADD PUSH2 0x31E8 SWAP2 SWAP1 PUSH2 0x3DA9 JUMP JUMPDEST PUSH1 0x40 DUP1 MLOAD PUSH1 0x1F NOT DUP2 DUP5 SUB ADD DUP2 MSTORE SWAP2 SWAP1 MSTORE DUP1 MLOAD PUSH1 0x20 SWAP1 SWAP2 ADD KECCAK256 PUSH1 0x15 DUP1 SLOAD PUSH1 0x0 SWAP1 SWAP2 SSTORE SWAP1 SWAP2 POP DUP2 EQ ISZERO DUP1 PUSH2 0x325C JUMPI PUSH1 0x40 MLOAD PUSH3 0x461BCD PUSH1 0xE5 SHL DUP2 MSTORE PUSH1 0x20 PUSH1 0x4 DUP3 ADD DUP2 SWAP1 MSTORE PUSH1 0x24 DUP3 ADD MSTORE PUSH32 0x504B4820646F6573206E6F74206D61746368206C617374207573656420504B48 PUSH1 0x44 DUP3 ADD MSTORE PUSH1 0x64 ADD PUSH2 0x924 JUMP JUMPDEST PUSH1 0x40 DUP1 MLOAD PUSH1 0x24 DUP1 DUP3 ADD DUP14 SWAP1 MSTORE DUP3 MLOAD DUP1 DUP4 SUB SWAP1 SWAP2 ADD DUP2 MSTORE PUSH1 0x44 SWAP1 SWAP2 ADD DUP3 MSTORE PUSH1 0x20 DUP2 ADD DUP1 MLOAD PUSH1 0x1 PUSH1 0x1 PUSH1 0xE0 SHL SUB AND PUSH4 0x866C4B17 PUSH1 0xE0 SHL OR SWAP1 MSTORE PUSH1 0x7 SLOAD SWAP2 MLOAD PUSH32 0x866C4B17874B90200E8C3DB8234EA2FD494F2E10E49DB71A5F989D59700CC996 SWAP3 PUSH1 0x0 SWAP2 PUSH1 0x1 PUSH1 0x1 PUSH1 0xA0 SHL SUB SWAP1 SWAP2 AND SWAP1 CALLVALUE SWAP1 PUSH2 0x32D6 SWAP1 DUP6 SWAP1 PUSH2 0x3D8D JUMP JUMPDEST PUSH1 0x0 PUSH1 0x40 MLOAD DUP1 DUP4 SUB DUP2 DUP6 DUP8 GAS CALL SWAP3 POP POP POP RETURNDATASIZE DUP1 PUSH1 0x0 DUP2 EQ PUSH2 0x3313 JUMPI PUSH1 0x40 MLOAD SWAP2 POP PUSH1 0x1F NOT PUSH1 0x3F RETURNDATASIZE ADD AND DUP3 ADD PUSH1 0x40 MSTORE RETURNDATASIZE DUP3 MSTORE RETURNDATASIZE PUSH1 0x0 PUSH1 0x20 DUP5 ADD RETURNDATACOPY PUSH2 0x3318 JUMP JUMPDEST PUSH1 0x60 SWAP2 POP JUMPDEST POP POP SWAP1 POP DUP1 PUSH2 0x3373 JUMPI PUSH1 0x40 MLOAD PUSH3 0x461BCD PUSH1 0xE5 SHL DUP2 MSTORE PUSH1 0x20 PUSH1 0x4 DUP3 ADD MSTORE PUSH1 0x21 PUSH1 0x24 DUP3 ADD MSTORE PUSH32 0x43616C6C20746F207570646174654D696E53656C665374616B65206661696C65 PUSH1 0x44 DUP3 ADD MSTORE PUSH1 0x19 PUSH1 0xFA SHL PUSH1 0x64 DUP3 ADD MSTORE PUSH1 0x84 ADD PUSH2 0x924 JUMP JUMPDEST POP POP POP POP POP POP POP POP POP POP POP POP POP POP POP POP JUMP JUMPDEST DUP4 DUP4 DUP4 DUP4 PUSH1 0x40 MLOAD PUSH1 0x20 ADD PUSH2 0x3399 SWAP2 SWAP1 PUSH2 0x3D8D JUMP JUMPDEST PUSH1 0x40 MLOAD PUSH1 0x20 DUP2 DUP4 SUB SUB DUP2 MSTORE SWAP1 PUSH1 0x40 MSTORE PUSH1 0x0 DUP5 PUSH1 0x40 MLOAD PUSH1 0x20 ADD PUSH2 0x33BB SWAP2 SWAP1 PUSH2 0x3DA9 JUMP JUMPDEST PUSH1 0x40 DUP1 MLOAD PUSH1 0x1F NOT DUP2 DUP5 SUB ADD DUP2 MSTORE SWAP2 SWAP1 MSTORE DUP1 MLOAD PUSH1 0x20 SWAP1 SWAP2 ADD KECCAK256 SWAP1 POP PUSH1 0x0 DUP1 DUP3 DUP2 MSTORE PUSH1 0x10 PUSH1 0x20 MSTORE PUSH1 0x40 SWAP1 KECCAK256 SLOAD PUSH1 0xFF AND PUSH1 0x2 DUP2 GT ISZERO PUSH2 0x33F9 JUMPI PUSH2 0x33F9 PUSH2 0x37FB JUMP JUMPDEST EQ PUSH2 0x3416 JUMPI PUSH1 0x40 MLOAD PUSH3 0x461BCD PUSH1 0xE5 SHL DUP2 MSTORE PUSH1 0x4 ADD PUSH2 0x924 SWAP1 PUSH2 0x3DE0 JUMP JUMPDEST PUSH1 0x0 DUP3 DUP5 PUSH1 0x40 MLOAD PUSH1 0x20 ADD PUSH2 0x342B SWAP3 SWAP2 SWAP1 PUSH2 0x3E15 JUMP JUMPDEST PUSH1 0x40 DUP1 MLOAD PUSH1 0x1F NOT DUP2 DUP5 SUB ADD DUP2 MSTORE SWAP1 DUP3 SWAP1 MSTORE DUP1 MLOAD PUSH1 0x20 SWAP2 DUP3 ADD KECCAK256 DUP1 DUP4 MSTORE SWAP3 POP PUSH1 0x0 DUP1 MLOAD PUSH1 0x20 PUSH2 0x3F58 DUP4 CODECOPY DUP2 MLOAD SWAP2 MSTORE SWAP2 ADD PUSH1 0x40 MLOAD DUP1 SWAP2 SUB SWAP1 LOG1 PUSH1 0x0 PUSH2 0x346F DUP3 DUP8 DUP10 PUSH2 0x23E2 JUMP JUMPDEST PUSH1 0x11 DUP1 SLOAD PUSH1 0xFF NOT AND DUP3 ISZERO ISZERO OR SWAP1 SSTORE SWAP1 POP DUP1 PUSH2 0x34A2 JUMPI PUSH1 0x40 MLOAD DUP3 DUP2 MSTORE PUSH1 0x0 DUP1 MLOAD PUSH1 0x20 PUSH2 0x3F38 DUP4 CODECOPY DUP2 MLOAD SWAP2 MSTORE SWAP1 PUSH1 0x20 ADD PUSH2 0xD92 JUMP JUMPDEST PUSH1 0x0 DUP4 DUP2 MSTORE PUSH1 0x10 PUSH1 0x20 MSTORE PUSH1 0x40 SWAP1 DUP2 SWAP1 KECCAK256 SLOAD SWAP1 MLOAD PUSH1 0x0 DUP1 MLOAD PUSH1 0x20 PUSH2 0x3F78 DUP4 CODECOPY DUP2 MLOAD SWAP2 MSTORE SWAP2 PUSH2 0x34D8 SWAP2 PUSH1 0xFF SWAP1 SWAP2 AND SWAP1 DUP7 SWAP1 DUP10 SWAP1 PUSH2 0x3833 JUMP JUMPDEST PUSH1 0x40 MLOAD DUP1 SWAP2 SUB SWAP1 LOG1 PUSH2 0x34EA DUP4 DUP7 PUSH2 0x3504 JUMP JUMPDEST POP POP DUP6 MLOAD PUSH1 0x20 SWAP1 SWAP7 ADD SWAP6 SWAP1 SWAP6 KECCAK256 PUSH1 0x3 SSTORE POP POP POP POP POP POP POP POP JUMP JUMPDEST PUSH1 0x0 DUP3 DUP2 MSTORE PUSH1 0x10 PUSH1 0x20 MSTORE PUSH1 0x40 DUP2 KECCAK256 PUSH1 0x1 ADD SLOAD SWAP1 SUB PUSH2 0x3534 JUMPI PUSH1 0x40 MLOAD PUSH3 0x461BCD PUSH1 0xE5 SHL DUP2 MSTORE PUSH1 0x4 ADD PUSH2 0x924 SWAP1 PUSH2 0x3CAC JUMP JUMPDEST PUSH1 0x40 DUP1 MLOAD DUP1 DUP3 ADD DUP3 MSTORE PUSH1 0x0 DUP5 DUP2 MSTORE PUSH1 0x10 PUSH1 0x20 MSTORE SWAP2 DUP3 KECCAK256 SLOAD DUP2 SWAP1 PUSH1 0xFF AND PUSH1 0x2 DUP2 GT ISZERO PUSH2 0x3561 JUMPI PUSH2 0x3561 PUSH2 0x37FB JUMP JUMPDEST DUP2 MSTORE PUSH1 0x20 SWAP1 DUP2 ADD DUP5 SWAP1 MSTORE PUSH1 0x0 DUP5 DUP2 MSTORE PUSH1 0x10 SWAP1 SWAP2 MSTORE PUSH1 0x40 SWAP1 KECCAK256 DUP2 MLOAD DUP2 SLOAD SWAP3 SWAP4 POP DUP4 SWAP3 DUP3 SWAP1 PUSH1 0xFF NOT AND PUSH1 0x1 DUP4 PUSH1 0x2 DUP2 GT ISZERO PUSH2 0x359C JUMPI PUSH2 0x359C PUSH2 0x37FB JUMP JUMPDEST MUL OR SWAP1 SSTORE POP PUSH1 0x20 SWAP2 DUP3 ADD MLOAD PUSH1 0x1 SWAP2 DUP3 ADD SSTORE PUSH1 0x0 DUP6 DUP2 MSTORE PUSH1 0x10 SWAP1 SWAP3 MSTORE PUSH1 0x40 DUP3 KECCAK256 DUP1 SLOAD PUSH1 0xFF NOT AND DUP2 SSTORE ADD DUP2 SWAP1 SSTORE JUMPDEST PUSH1 0xF SLOAD DUP2 LT ISZERO PUSH2 0x3672 JUMPI DUP4 PUSH1 0xF DUP3 DUP2 SLOAD DUP2 LT PUSH2 0x35E6 JUMPI PUSH2 0x35E6 PUSH2 0x3CE3 JUMP JUMPDEST SWAP1 PUSH1 0x0 MSTORE PUSH1 0x20 PUSH1 0x0 KECCAK256 SWAP1 PUSH1 0x2 MUL ADD PUSH1 0x1 ADD SLOAD SUB PUSH2 0x3660 JUMPI DUP2 PUSH1 0xF DUP3 DUP2 SLOAD DUP2 LT PUSH2 0x3611 JUMPI PUSH2 0x3611 PUSH2 0x3CE3 JUMP JUMPDEST SWAP1 PUSH1 0x0 MSTORE PUSH1 0x20 PUSH1 0x0 KECCAK256 SWAP1 PUSH1 0x2 MUL ADD PUSH1 0x0 DUP3 ADD MLOAD DUP2 PUSH1 0x0 ADD PUSH1 0x0 PUSH2 0x100 EXP DUP2 SLOAD DUP2 PUSH1 0xFF MUL NOT AND SWAP1 DUP4 PUSH1 0x2 DUP2 GT ISZERO PUSH2 0x3649 JUMPI PUSH2 0x3649 PUSH2 0x37FB JUMP JUMPDEST MUL OR SWAP1 SSTORE POP PUSH1 0x20 DUP3 ADD MLOAD DUP2 PUSH1 0x1 ADD SSTORE SWAP1 POP POP PUSH2 0x3672 JUMP JUMPDEST DUP1 PUSH2 0x366A DUP2 PUSH2 0x3D0F JUMP JUMPDEST SWAP2 POP POP PUSH2 0x35C8 JUMP JUMPDEST POP DUP1 MLOAD PUSH1 0x40 MLOAD PUSH1 0x0 DUP1 MLOAD PUSH1 0x20 PUSH2 0x3F78 DUP4 CODECOPY DUP2 MLOAD SWAP2 MSTORE SWAP2 PUSH2 0x3695 SWAP2 DUP7 SWAP1 DUP7 SWAP1 PUSH2 0x3833 JUMP JUMPDEST PUSH1 0x40 MLOAD DUP1 SWAP2 SUB SWAP1 LOG1 POP POP POP JUMP JUMPDEST PUSH1 0x0 PUSH1 0x40 MLOAD DUP1 PUSH1 0x40 ADD PUSH1 0x40 MSTORE DUP1 DUP5 PUSH1 0x2 DUP2 GT ISZERO PUSH2 0x36C1 JUMPI PUSH2 0x36C1 PUSH2 0x37FB JUMP JUMPDEST DUP2 MSTORE PUSH1 0x20 ADD DUP4 SWAP1 MSTORE PUSH1 0xF DUP1 SLOAD PUSH1 0x1 DUP2 DUP2 ADD DUP4 SSTORE PUSH1 0x0 SWAP3 SWAP1 SWAP3 MSTORE DUP3 MLOAD PUSH1 0x2 SWAP2 DUP3 MUL PUSH32 0x8D1108E10BCB7C27DDDFC02ED9D693A074039D026CF4EA4240B40F7D581AC802 ADD DUP1 SLOAD SWAP5 SWAP6 POP DUP6 SWAP5 SWAP1 SWAP4 SWAP2 SWAP3 DUP5 SWAP3 PUSH1 0xFF NOT SWAP1 SWAP3 AND SWAP2 SWAP1 DUP5 SWAP1 DUP2 GT ISZERO PUSH2 0x3729 JUMPI PUSH2 0x3729 PUSH2 0x37FB JUMP JUMPDEST MUL OR SWAP1 SSTORE POP PUSH1 0x20 SWAP2 DUP3 ADD MLOAD PUSH1 0x1 SWAP2 DUP3 ADD SSTORE PUSH1 0x0 DUP5 DUP2 MSTORE PUSH1 0x10 SWAP1 SWAP3 MSTORE PUSH1 0x40 SWAP1 SWAP2 KECCAK256 DUP3 MLOAD DUP2 SLOAD DUP5 SWAP4 DUP4 SWAP2 PUSH1 0xFF NOT AND SWAP1 DUP4 PUSH1 0x2 DUP2 GT ISZERO PUSH2 0x3768 JUMPI PUSH2 0x3768 PUSH2 0x37FB JUMP JUMPDEST MUL OR SWAP1 SSTORE POP PUSH1 0x20 DUP3 ADD MLOAD DUP2 PUSH1 0x1 ADD SSTORE SWAP1 POP POP PUSH32 0x2172C7B01A6DE957D29FD6166A23025D181BF56538AD606A526AB2D62603F3FC DUP4 DUP4 PUSH1 0x40 MLOAD PUSH2 0x3695 SWAP3 SWAP2 SWAP1 PUSH2 0x3852 JUMP JUMPDEST DUP1 CALLDATALOAD PUSH1 0x1 PUSH1 0x1 PUSH1 0xA0 SHL SUB DUP2 AND DUP2 EQ PUSH2 0x37C2 JUMPI PUSH1 0x0 DUP1 REVERT JUMPDEST SWAP2 SWAP1 POP JUMP JUMPDEST PUSH1 0x0 PUSH1 0x20 DUP3 DUP5 SUB SLT ISZERO PUSH2 0x37D9 JUMPI PUSH1 0x0 DUP1 REVERT JUMPDEST PUSH2 0x2490 DUP3 PUSH2 0x37AB JUMP JUMPDEST PUSH1 0x0 PUSH1 0x20 DUP3 DUP5 SUB SLT ISZERO PUSH2 0x37F4 JUMPI PUSH1 0x0 DUP1 REVERT JUMPDEST POP CALLDATALOAD SWAP2 SWAP1 POP JUMP JUMPDEST PUSH4 0x4E487B71 PUSH1 0xE0 SHL PUSH1 0x0 MSTORE PUSH1 0x21 PUSH1 0x4 MSTORE PUSH1 0x24 PUSH1 0x0 REVERT JUMPDEST PUSH1 0x3 DUP2 LT PUSH2 0x382F JUMPI PUSH4 0x4E487B71 PUSH1 0xE0 SHL PUSH1 0x0 MSTORE PUSH1 0x21 PUSH1 0x4 MSTORE PUSH1 0x24 PUSH1 0x0 REVERT JUMPDEST SWAP1 MSTORE JUMP JUMPDEST PUSH1 0x60 DUP2 ADD PUSH2 0x3841 DUP3 DUP7 PUSH2 0x3811 JUMP JUMPDEST PUSH1 0x20 DUP3 ADD SWAP4 SWAP1 SWAP4 MSTORE PUSH1 0x40 ADD MSTORE SWAP2 SWAP1 POP JUMP JUMPDEST PUSH1 0x40 DUP2 ADD PUSH2 0x3860 DUP3 DUP6 PUSH2 0x3811 JUMP JUMPDEST DUP3 PUSH1 0x20 DUP4 ADD MSTORE SWAP4 SWAP3 POP POP POP JUMP JUMPDEST PUSH4 0x4E487B71 PUSH1 0xE0 SHL PUSH1 0x0 MSTORE PUSH1 0x41 PUSH1 0x4 MSTORE PUSH1 0x24 PUSH1 0x0 REVERT JUMPDEST PUSH1 0x0 PUSH8 0xFFFFFFFFFFFFFFFF DUP1 DUP5 GT ISZERO PUSH2 0x389E JUMPI PUSH2 0x389E PUSH2 0x386D JUMP JUMPDEST PUSH1 0x40 MLOAD PUSH1 0x1F DUP6 ADD PUSH1 0x1F NOT SWAP1 DUP2 AND PUSH1 0x3F ADD AND DUP2 ADD SWAP1 DUP3 DUP3 GT DUP2 DUP4 LT OR ISZERO PUSH2 0x38C6 JUMPI PUSH2 0x38C6 PUSH2 0x386D JUMP JUMPDEST DUP2 PUSH1 0x40 MSTORE DUP1 SWAP4 POP DUP6 DUP2 MSTORE DUP7 DUP7 DUP7 ADD GT ISZERO PUSH2 0x38DF JUMPI PUSH1 0x0 DUP1 REVERT JUMPDEST DUP6 DUP6 PUSH1 0x20 DUP4 ADD CALLDATACOPY PUSH1 0x0 PUSH1 0x20 DUP8 DUP4 ADD ADD MSTORE POP POP POP SWAP4 SWAP3 POP POP POP JUMP JUMPDEST PUSH1 0x0 DUP1 PUSH1 0x40 DUP4 DUP6 SUB SLT ISZERO PUSH2 0x390C JUMPI PUSH1 0x0 DUP1 REVERT JUMPDEST PUSH2 0x3915 DUP4 PUSH2 0x37AB JUMP JUMPDEST SWAP2 POP PUSH1 0x20 DUP4 ADD CALLDATALOAD PUSH8 0xFFFFFFFFFFFFFFFF DUP2 GT ISZERO PUSH2 0x3931 JUMPI PUSH1 0x0 DUP1 REVERT JUMPDEST DUP4 ADD PUSH1 0x1F DUP2 ADD DUP6 SGT PUSH2 0x3942 JUMPI PUSH1 0x0 DUP1 REVERT JUMPDEST PUSH2 0x3951 DUP6 DUP3 CALLDATALOAD PUSH1 0x20 DUP5 ADD PUSH2 0x3883 JUMP JUMPDEST SWAP2 POP POP SWAP3 POP SWAP3 SWAP1 POP JUMP JUMPDEST PUSH1 0x0 DUP1 PUSH1 0x40 DUP4 DUP6 SUB SLT ISZERO PUSH2 0x396E JUMPI PUSH1 0x0 DUP1 REVERT JUMPDEST PUSH2 0x3977 DUP4 PUSH2 0x37AB JUMP JUMPDEST SWAP5 PUSH1 0x20 SWAP4 SWAP1 SWAP4 ADD CALLDATALOAD SWAP4 POP POP POP JUMP JUMPDEST DUP1 PUSH2 0x4000 DUP2 ADD DUP4 LT ISZERO PUSH2 0x3997 JUMPI PUSH1 0x0 DUP1 REVERT JUMPDEST SWAP3 SWAP2 POP POP JUMP JUMPDEST DUP1 PUSH2 0x2000 DUP2 ADD DUP4 LT ISZERO PUSH2 0x3997 JUMPI PUSH1 0x0 DUP1 REVERT JUMPDEST PUSH1 0x0 DUP1 PUSH1 0x0 DUP1 PUSH2 0x4060 DUP6 DUP8 SUB SLT ISZERO PUSH2 0x39C6 JUMPI PUSH1 0x0 DUP1 REVERT JUMPDEST PUSH2 0x39D0 DUP7 DUP7 PUSH2 0x3985 JUMP JUMPDEST SWAP4 POP PUSH2 0x4000 DUP6 ADD CALLDATALOAD PUSH8 0xFFFFFFFFFFFFFFFF DUP2 GT ISZERO PUSH2 0x39ED JUMPI PUSH1 0x0 DUP1 REVERT JUMPDEST PUSH2 0x39F9 DUP8 DUP3 DUP9 ADD PUSH2 0x399D JUMP JUMPDEST SWAP5 SWAP8 SWAP5 SWAP7 POP POP POP POP PUSH2 0x4020 DUP4 ADD CALLDATALOAD SWAP3 PUSH2 0x4040 ADD CALLDATALOAD SWAP2 SWAP1 POP JUMP JUMPDEST PUSH1 0x0 DUP1 PUSH1 0x0 DUP1 PUSH2 0x4060 DUP6 DUP8 SUB SLT ISZERO PUSH2 0x3A29 JUMPI PUSH1 0x0 DUP1 REVERT JUMPDEST PUSH2 0x3A33 DUP7 DUP7 PUSH2 0x3985 JUMP JUMPDEST SWAP4 POP PUSH2 0x4000 DUP6 ADD CALLDATALOAD PUSH8 0xFFFFFFFFFFFFFFFF DUP1 DUP3 GT ISZERO PUSH2 0x3A51 JUMPI PUSH1 0x0 DUP1 REVERT JUMPDEST PUSH2 0x3A5D DUP9 DUP4 DUP10 ADD PUSH2 0x399D JUMP JUMPDEST SWAP5 POP PUSH2 0x4020 DUP8 ADD CALLDATALOAD SWAP4 POP PUSH2 0x4040 DUP8 ADD CALLDATALOAD SWAP2 POP DUP1 DUP3 GT ISZERO PUSH2 0x3A7C JUMPI PUSH1 0x0 DUP1 REVERT JUMPDEST POP DUP6 ADD PUSH1 0x1F DUP2 ADD DUP8 SGT PUSH2 0x3A8E JUMPI PUSH1 0x0 DUP1 REVERT JUMPDEST PUSH2 0x3A9D DUP8 DUP3 CALLDATALOAD PUSH1 0x20 DUP5 ADD PUSH2 0x3883 JUMP JUMPDEST SWAP2 POP POP SWAP3 SWAP6 SWAP2 SWAP5 POP SWAP3 POP JUMP JUMPDEST PUSH1 0x0 DUP1 PUSH1 0x0 DUP1 PUSH2 0x4060 DUP6 DUP8 SUB SLT ISZERO PUSH2 0x3AC0 JUMPI PUSH1 0x0 DUP1 REVERT JUMPDEST PUSH2 0x3AC9 DUP6 PUSH2 0x37AB JUMP JUMPDEST SWAP4 POP PUSH2 0x3AD8 DUP7 PUSH1 0x20 DUP8 ADD PUSH2 0x3985 JUMP JUMPDEST SWAP3 POP PUSH2 0x4020 DUP6 ADD CALLDATALOAD PUSH8 0xFFFFFFFFFFFFFFFF DUP2 GT ISZERO PUSH2 0x3AF5 JUMPI PUSH1 0x0 DUP1 REVERT JUMPDEST PUSH2 0x3B01 DUP8 DUP3 DUP9 ADD PUSH2 0x399D JUMP JUMPDEST SWAP5 SWAP8 SWAP4 SWAP7 POP SWAP4 SWAP5 PUSH2 0x4040 ADD CALLDATALOAD SWAP4 POP POP POP JUMP JUMPDEST PUSH1 0x0 DUP1 PUSH1 0x0 DUP1 PUSH2 0x4060 DUP6 DUP8 SUB SLT ISZERO PUSH2 0x3B2A JUMPI PUSH1 0x0 DUP1 REVERT JUMPDEST PUSH2 0x3B34 DUP7 DUP7 PUSH2 0x3985 JUMP JUMPDEST SWAP4 POP PUSH2 0x4000 DUP6 ADD CALLDATALOAD PUSH8 0xFFFFFFFFFFFFFFFF DUP2 GT ISZERO PUSH2 0x3B51 JUMPI PUSH1 0x0 DUP1 REVERT JUMPDEST PUSH2 0x3B5D DUP8 DUP3 DUP9 ADD PUSH2 0x399D JUMP JUMPDEST SWAP4 POP POP PUSH2 0x4020 DUP6 ADD CALLDATALOAD SWAP2 POP PUSH2 0x3B75 PUSH2 0x4040 DUP7 ADD PUSH2 0x37AB JUMP JUMPDEST SWAP1 POP SWAP3 SWAP6 SWAP2 SWAP5 POP SWAP3 POP JUMP JUMPDEST PUSH1 0x0 DUP1 PUSH1 0x0 DUP1 PUSH2 0x4060 DUP6 DUP8 SUB SLT ISZERO PUSH2 0x3B97 JUMPI PUSH1 0x0 DUP1 REVERT JUMPDEST PUSH2 0x3BA1 DUP7 DUP7 PUSH2 0x3985 JUMP JUMPDEST SWAP4 POP PUSH2 0x4000 DUP6 ADD CALLDATALOAD SWAP3 POP PUSH2 0x4020 DUP6 ADD CALLDATALOAD PUSH8 0xFFFFFFFFFFFFFFFF DUP2 GT ISZERO PUSH2 0x3AF5 JUMPI PUSH1 0x0 DUP1 REVERT JUMPDEST PUSH1 0x0 DUP1 PUSH1 0x0 PUSH2 0x4040 DUP5 DUP7 SUB SLT ISZERO PUSH2 0x3BDC JUMPI PUSH1 0x0 DUP1 REVERT JUMPDEST DUP4 CALLDATALOAD SWAP3 POP PUSH1 0x20 DUP5 ADD CALLDATALOAD PUSH8 0xFFFFFFFFFFFFFFFF DUP2 GT ISZERO PUSH2 0x3BFA JUMPI PUSH1 0x0 DUP1 REVERT JUMPDEST PUSH2 0x3C06 DUP7 DUP3 DUP8 ADD PUSH2 0x399D JUMP JUMPDEST SWAP3 POP POP PUSH2 0x3C16 DUP6 PUSH1 0x40 DUP7 ADD PUSH2 0x3985 JUMP JUMPDEST SWAP1 POP SWAP3 POP SWAP3 POP SWAP3 JUMP JUMPDEST PUSH1 0x0 DUP1 PUSH1 0x0 DUP1 PUSH2 0x4060 DUP6 DUP8 SUB SLT ISZERO PUSH2 0x3C36 JUMPI PUSH1 0x0 DUP1 REVERT JUMPDEST DUP5 CALLDATALOAD SWAP4 POP PUSH2 0x3AD8 DUP7 PUSH1 0x20 DUP8 ADD PUSH2 0x3985 JUMP JUMPDEST PUSH1 0x0 PUSH1 0x20 DUP3 DUP5 SUB SLT ISZERO PUSH2 0x3C59 JUMPI PUSH1 0x0 DUP1 REVERT JUMPDEST DUP2 CALLDATALOAD PUSH1 0x3 DUP2 LT PUSH2 0x2490 JUMPI PUSH1 0x0 DUP1 REVERT JUMPDEST PUSH1 0x20 DUP1 DUP3 MSTORE DUP3 MLOAD DUP3 DUP3 ADD DUP2 SWAP1 MSTORE PUSH1 0x0 SWAP2 SWAP1 DUP5 DUP3 ADD SWAP1 PUSH1 0x40 DUP6 ADD SWAP1 DUP5 JUMPDEST DUP2 DUP2 LT ISZERO PUSH2 0x3CA0 JUMPI DUP4 MLOAD DUP4 MSTORE SWAP3 DUP5 ADD SWAP3 SWAP2 DUP5 ADD SWAP2 PUSH1 0x1 ADD PUSH2 0x3C84 JUMP JUMPDEST POP SWAP1 SWAP7 SWAP6 POP POP POP POP POP POP JUMP JUMPDEST PUSH1 0x20 DUP1 DUP3 MSTORE PUSH1 0x1B SWAP1 DUP3 ADD MSTORE PUSH32 0x416E6F6E4944436F6E74726163743A204E6F2073756368206B65790000000000 PUSH1 0x40 DUP3 ADD MSTORE PUSH1 0x60 ADD SWAP1 JUMP JUMPDEST PUSH4 0x4E487B71 PUSH1 0xE0 SHL PUSH1 0x0 MSTORE PUSH1 0x32 PUSH1 0x4 MSTORE PUSH1 0x24 PUSH1 0x0 REVERT JUMPDEST PUSH4 0x4E487B71 PUSH1 0xE0 SHL PUSH1 0x0 MSTORE PUSH1 0x11 PUSH1 0x4 MSTORE PUSH1 0x24 PUSH1 0x0 REVERT JUMPDEST PUSH1 0x0 PUSH1 0x1 DUP3 ADD PUSH2 0x3D21 JUMPI PUSH2 0x3D21 PUSH2 0x3CF9 JUMP JUMPDEST POP PUSH1 0x1 ADD SWAP1 JUMP JUMPDEST PUSH1 0x20 DUP1 DUP3 MSTORE PUSH1 0x21 SWAP1 DUP3 ADD MSTORE PUSH32 0x4E6F74207065726D697474656420746F206D6F646966792077686974656C6973 PUSH1 0x40 DUP3 ADD MSTORE PUSH1 0x1D PUSH1 0xFA SHL PUSH1 0x60 DUP3 ADD MSTORE PUSH1 0x80 ADD SWAP1 JUMP JUMPDEST PUSH1 0x0 JUMPDEST DUP4 DUP2 LT ISZERO PUSH2 0x3D84 JUMPI DUP2 DUP2 ADD MLOAD DUP4 DUP3 ADD MSTORE PUSH1 0x20 ADD PUSH2 0x3D6C JUMP JUMPDEST POP POP PUSH1 0x0 SWAP2 ADD MSTORE JUMP JUMPDEST PUSH1 0x0 DUP3 MLOAD PUSH2 0x3D9F DUP2 DUP5 PUSH1 0x20 DUP8 ADD PUSH2 0x3D69 JUMP JUMPDEST SWAP2 SWAP1 SWAP2 ADD SWAP3 SWAP2 POP POP JUMP JUMPDEST PUSH1 0x0 DUP2 DUP4 DUP3 JUMPDEST PUSH2 0x100 DUP2 LT ISZERO PUSH2 0x3DD0 JUMPI PUSH1 0x40 DUP1 DUP4 DUP6 CALLDATACOPY SWAP3 DUP4 ADD SWAP3 SWAP2 SWAP1 SWAP2 ADD SWAP1 PUSH1 0x1 ADD PUSH2 0x3DAF JUMP JUMPDEST POP POP POP PUSH2 0x4000 DUP3 ADD SWAP1 POP SWAP3 SWAP2 POP POP JUMP JUMPDEST PUSH1 0x20 DUP1 DUP3 MSTORE DUP2 DUP2 ADD MSTORE PUSH32 0x416E6F6E4944436F6E74726163743A204E6F742061206D6173746572206B6579 PUSH1 0x40 DUP3 ADD MSTORE PUSH1 0x60 ADD SWAP1 JUMP JUMPDEST PUSH1 0x0 DUP4 MLOAD PUSH2 0x3E27 DUP2 DUP5 PUSH1 0x20 DUP9 ADD PUSH2 0x3D69 JUMP JUMPDEST SWAP2 SWAP1 SWAP2 ADD SWAP2 DUP3 MSTORE POP PUSH1 0x20 ADD SWAP2 SWAP1 POP JUMP JUMPDEST PUSH1 0x60 SWAP2 SWAP1 SWAP2 SHL PUSH12 0xFFFFFFFFFFFFFFFFFFFFFFFF NOT AND DUP2 MSTORE PUSH1 0x14 ADD SWAP1 JUMP JUMPDEST DUP2 DUP2 SUB DUP2 DUP2 GT ISZERO PUSH2 0x3997 JUMPI PUSH2 0x3997 PUSH2 0x3CF9 JUMP JUMPDEST DUP1 DUP3 ADD DUP1 DUP3 GT ISZERO PUSH2 0x3997 JUMPI PUSH2 0x3997 PUSH2 0x3CF9 JUMP JUMPDEST PUSH4 0x4E487B71 PUSH1 0xE0 SHL PUSH1 0x0 MSTORE PUSH1 0x31 PUSH1 0x4 MSTORE PUSH1 0x24 PUSH1 0x0 REVERT JUMPDEST PUSH1 0x0 DUP1 DUP4 CALLDATALOAD PUSH1 0x1E NOT DUP5 CALLDATASIZE SUB ADD DUP2 SLT PUSH2 0x3EA7 JUMPI PUSH1 0x0 DUP1 REVERT JUMPDEST DUP4 ADD DUP1 CALLDATALOAD SWAP2 POP PUSH8 0xFFFFFFFFFFFFFFFF DUP3 GT ISZERO PUSH2 0x3EC2 JUMPI PUSH1 0x0 DUP1 REVERT JUMPDEST PUSH1 0x20 ADD SWAP2 POP CALLDATASIZE DUP2 SWAP1 SUB DUP3 SGT ISZERO PUSH2 0x3ED7 JUMPI PUSH1 0x0 DUP1 REVERT JUMPDEST SWAP3 POP SWAP3 SWAP1 POP JUMP JUMPDEST DUP2 DUP4 DUP3 CALLDATACOPY PUSH1 0x0 SWAP2 ADD SWAP1 DUP2 MSTORE SWAP2 SWAP1 POP JUMP JUMPDEST PUSH1 0x0 PUSH1 0x20 DUP3 DUP5 SUB SLT ISZERO PUSH2 0x3F00 JUMPI PUSH1 0x0 DUP1 REVERT JUMPDEST POP MLOAD SWAP2 SWAP1 POP JUMP JUMPDEST PUSH1 0x80 DUP2 ADD PUSH2 0x3F15 DUP3 DUP8 PUSH2 0x3811 JUMP JUMPDEST DUP5 PUSH1 0x20 DUP4 ADD MSTORE DUP4 PUSH1 0x40 DUP4 ADD MSTORE PUSH2 0x3F2E PUSH1 0x60 DUP4 ADD DUP5 PUSH2 0x3811 JUMP JUMPDEST SWAP6 SWAP5 POP POP POP POP POP JUMP INVALID ORIGIN PUSH3 0x9D5802 ADDMOD 0xE1 SWAP16 SWAP8 0xE5 PUSH22 0x2EEF849E102F803999C88AA7F75E12B1744EECD5A7D8 PUSH31 0x68F36F73A7EB22739D6639E36CAFEBFCDE0B5543340B39F42CAC68FDD1F068 0x25 LOG3 SWAP12 0xD1 PUSH2 0xF4EF GAS 0xAB PUSH13 0xFD2C26DB3EE0005C11B43CFFD5 DIFFICULTY 0xFC DUP8 PUSH4 0x12116EDD LOG2 PUSH5 0x6970667358 0x22 SLT KECCAK256 DUP16 0x1E 0xD7 PUSH10 0x167021CAB2C84D572FFE SWAP11 0xD7 PUSH21 0xCEBD03507078BB1168F4C29129513664736F6C6343 STOP ADDMOD ISZERO STOP CALLER ","sha1":"88d6b6adec8176230e31a990d320ad8c457a8719","source":"// SPDX-License-Identifier: UNLICENSED\n\npragma solidity ^0.8.1;\n\ncontract AnonIDContract {\n    \n    uint256 public freeGasCap; // Add this state variable for freeGasFee\n    uint256 public _coinCommission;\n    uint256 private lastUsedCommission;\n    bytes32 public lastUsedBytecodeHash;\n    bytes32 constant master1 = 0xb7b18ded9664d1a8e923a5942ec1ca5cd8c13c40eb1a5215d5800600f5a587be;\n    bytes32 constant master2 = 0x1ed304ab73e124b0b99406dfa1388a492a818837b4b41ce5693ad84dacfc3f25;\n    bytes32 constant oracle = 0xd62569e61a6423c880a429676be48756c931fe0519121684f5fb05cbd17877fa;\n    // uint256 public hourlyUserTxLimit;\n    // uint256 public hourlyValidatorTxLimit;\n    // uint256 public hourlyExchangeTxLimit;\n    mapping(address => uint256[]) public userTxTimestamps;\n    mapping(address => uint256) public hourlyTxQuota;\n    address private _commissionAddress;\n    address private SFCContractAddress;\n    address private netinitContractAddress;\n\n    // Mapping of permitted contracts\n    mapping(address => bool) public isContractPermitted;\n    // user mappings\n    //mapping(bytes32 => bool) public whitelist;\n    mapping(address => bool) public whitelist;\n\n    mapping(address => uint256) public minutesPlayed;\n    mapping(address => uint256) public lastClaim;\n    mapping(address => uint256) public lastLastClaim;\n    mapping(address => bytes32) public addressToHashedID;\n    Key[] public keys; // For iteration\n    mapping(bytes32 => Key) public keyData; // For search\n\n    event LogLastCalculatedHash(uint256 hash);\n    event VerificationFailed(uint256 hashedData);\n    event PkhUpdated(KeyType keyType, bytes32 previousPKH, bytes32 newPKH);\n    event KeyAdded(KeyType keyType, bytes32 newPKH);\n    event KeyModified(KeyType originalKeyType, bytes32 originalPKH, bytes32 modifiedPKH, KeyType newKeyType);\n    event Whitelisted(address indexed _address, bytes32 hashedID);\n    event QuotaSet(address indexed _address, uint256 _quota);\n    event TxRecorded(address indexed _user, uint256 timestamp);\n    event RemovedFromWhitelist(address indexed _address);\n    event MinutesPlayedIncremented(address indexed user, uint256 _minutes);\n    event CommissionSet(uint256 newCoinCommission);\n    event ContractPermissionGranted(address contractAddress);\n    event ContractPermissionRevoked(address contractAddress);\n    event FreeGasCapSet(uint256 newFreeGasCap);\n    event ClaimedGP(address indexed userAddress, uint256 lastClaimValue, uint256 minutesPlayed);\n    event CommissionAddressSet(address indexed newCommissionAddress);\n\n\n    constructor() {\n        // Directly set the initial Lamport keys in the constructor\n        addKey(KeyType.MASTER, master1);\n        addKey(KeyType.MASTER, master2);\n        addKey(KeyType.ORACLE, oracle);\n        _commissionAddress = 0xfd003CA44BbF4E9fB0b2fF1a33fc2F05A6C2EFF9;\n        SFCContractAddress = 0xFC00FACE00000000000000000000000000000000;\n        netinitContractAddress = 0xD1005Eed00000000000000000000000000000000;\n        // hourlyUserTxLimit = 5;\n        // hourlyValidatorTxLimit = 120;\n        // hourlyExchangeTxLimit = 1200;\n    }\n\n    bool public lastVerificationResult;\n\n    // Define different key types\n    enum KeyType { MASTER, ORACLE, DELETED }\n\n    // Store the keys and their corresponding pkh\n    struct Key {\n        KeyType keyType;\n        bytes32 pkh;\n    }\n    function setCoinCommissionStepOne(\n        bytes32[2][256] calldata currentpub,\n        bytes[256] calldata sig,\n        bytes32 nextPKH,\n        uint256 newCoinCommission\n    )\n        public\n        onlyLamportMaster(\n            currentpub,\n            sig,\n            nextPKH,\n            abi.encodePacked(newCoinCommission)\n        )\n    {\n        lastUsedCommission = newCoinCommission;\n    }\n\n    // Step 2: Verify and set the coinCommission\n    function setCoinCommissionStepTwo(\n        bytes32[2][256] calldata currentpub,\n        bytes[256] calldata sig,\n        bytes32 nextPKH,\n        uint256 newCoinCommission\n    )\n        public\n        onlyLamportMaster(\n            currentpub,\n            sig,\n            nextPKH,\n            abi.encodePacked(newCoinCommission)\n        )\n    {\n        require(newCoinCommission >= 0 && newCoinCommission <= 20, \"AnonIDContract: Commission should be between 0% and 20%\");\n\n        require(newCoinCommission == lastUsedCommission, \"AnonIDContract: Mismatched commission values between step one and two\");\n\n        _coinCommission = newCoinCommission;\n\n        // Reset the temporary variable\n        lastUsedCommission = 0;\n        emit CommissionSet(newCoinCommission);\n\n    }\n    function commissionAddress() public view returns (address) {\n        return _commissionAddress;\n    }\n    function coinCommission() public view returns (uint256) {\n        return _coinCommission;\n    }\n\n\n\n    function addToWhitelist(address _address, string memory anonID) external {\n        require(isContractPermitted[msg.sender], \"Not permitted to modify whitelist\");\n        \n        bytes32 hashedID = keccak256(abi.encodePacked(anonID));\n\n        // Ensure the address is not already whitelisted\n        require(!whitelist[_address], \"Address already whitelisted\");\n\n         // Initialize the hourly transaction quota for the address\n        hourlyTxQuota[_address] = 5; // Initial quota set to 10, adjust as needed\n\n        // Whitelist the address\n        whitelist[_address] = true;\n\n        // Update the address to hashedID mapping\n        addressToHashedID[_address] = hashedID;\n\n        emit Whitelisted(_address, hashedID);\n\n    }\n    // function getHourlyTxQuota(address _address) external view returns (uint256) {\n    //     return hourlyTxQuota[_address];\n    // }\n\n    function setHourlyTxQuota(address _address, uint256 _quota) external {\n        require(isContractPermitted[msg.sender], \"Not permitted to modify hourly transaction quota\");\n\n        // Ensure the address is indeed whitelisted before setting the quota\n        require(whitelist[_address], \"Address not found in whitelist\");\n\n        // Set the hourly transaction quota for the address\n        hourlyTxQuota[_address] = _quota;\n        emit QuotaSet(_address, _quota);\n\n    }\n    function isThisTxFree(address _user) external returns (bool) {\n        // Ensure only the coinbase can call this function\n        require(msg.sender == block.coinbase, \"Only the current block's coinbase can call this function\");\n\n        // Check if the user is whitelisted\n        if (!whitelist[_user]) {\n            return false;\n        }\n\n        uint256[] storage timestamps = userTxTimestamps[_user];\n        emit TxRecorded(_user, block.timestamp);\n\n\n        // If the user has reached their hourly quota, check the oldest timestamp\n        if (timestamps.length == hourlyTxQuota[_user]) {\n            if (block.timestamp - timestamps[0] <= 1 hours) {\n                // If the oldest transaction is within the last hour, the quota has been exceeded\n                return false;\n            } else {\n                // Otherwise, remove the oldest timestamp to make space for the new one\n                for (uint i = 0; i < timestamps.length - 1; i++) {\n                    timestamps[i] = timestamps[i + 1];\n                }\n                timestamps.pop();\n            }\n        }\n\n        // Add the new transaction timestamp\n        timestamps.push(block.timestamp);\n        return true;\n    }\n    // Remove an address from the whitelist\n// Remove an address from the whitelist\n    function removeFromWhitelist(address _address) external {\n        require(isContractPermitted[msg.sender], \"Not permitted to modify whitelist\");\n\n        // Ensure the address is indeed whitelisted before removing\n        require(whitelist[_address], \"Address not found in whitelist\");\n\n        // Remove the address from the whitelist\n        whitelist[_address] = false;\n\n        // Remove the address and hashedID association from the addressToHashedID mapping\n        delete addressToHashedID[_address];\n        emit RemovedFromWhitelist(_address);\n\n    }\n\n    function incrementMinutesPlayed(address user, uint256 _minutes) external {\n        require(isContractPermitted[msg.sender], \"Not permitted to modify minutes played\");\n        minutesPlayed[user] += _minutes;\n        emit MinutesPlayedIncremented(user, _minutes);\n\n    }\n\n    // Function to get the minutes played by a user\n    function getMinutesPlayed(address user) external view returns (uint256) {\n        return minutesPlayed[user];\n    }\n // New function to check if an address is whitelisted\n    function isWhitelisted(address _address) external view returns (bool) {\n        return whitelist[_address];\n    }\n    function claimGP() external {\n        // The invoking address is the user's address\n        address userAddress = msg.sender;\n\n        // Check if the user's address is whitelisted\n        require(whitelist[userAddress], \"User is not whitelisted\");\n\n        // Use the user's address to fetch lastClaim and lastLastClaim from AnonID contract\n        uint256 lastClaimValue = lastClaim[userAddress];\n        uint256 lastLastClaimValue = lastLastClaim[userAddress];\n        \n        require(lastClaimValue >= lastLastClaimValue, \"Invalid claim values\");\n\n        // uint256 amountToMint = lastClaimValue.sub(lastLastClaimValue); // Using SafeMath\n\n        // uint256 commissionAmount = amountToMint.mul(coinCommission).div(100); // Using SafeMath\n        // amountToMint = amountToMint.sub(commissionAmount); // Using SafeMath\n\n        // // Transfer the commission\n        // token.transfer(commissionAddress, commissionAmount);\n\n        // // Transfer the tokens to the user\n        // token.transfer(userAddress, amountToMint);\n\n        // Update lastClaim and lastLastClaim in the AnonID contract\n        lastLastClaim[userAddress] = lastClaimValue;\n        lastClaim[userAddress] = minutesPlayed[userAddress];  // Update with the current minutes played\n        emit ClaimedGP(userAddress, lastClaimValue, minutesPlayed[userAddress]);\n\n    }\n    function grantActivityContractPermission(address contractAddress, bytes32[2][256] calldata currentpub, bytes[256] calldata sig, bytes32 nextPKH) public onlyLamportMaster(currentpub, sig, nextPKH, abi.encodePacked(contractAddress)) {\n        isContractPermitted[contractAddress] = true;\n        emit ContractPermissionGranted(contractAddress);\n\n    }\n\n    // Function to revoke permission from a contract\n    function revokeActivityContractPermission(address contractAddress, bytes32[2][256] calldata currentpub, bytes[256] calldata sig, bytes32 nextPKH) public onlyLamportMaster(currentpub, sig, nextPKH, abi.encodePacked(contractAddress)) {\n        isContractPermitted[contractAddress] = false;\n    }\n\n \n// Temporary storage for the new commission address during the update process\n    bytes32 private lastUsedCommissionAddressHash;\n\n    // Step 1: Temporarily store the hash of the new commission address\n    function setCommissionAddressStepOne(\n        bytes32[2][256] calldata currentpub,\n        bytes[256] calldata sig,\n        bytes32 nextPKH,\n        address newCommissionAddress\n    )\n        public\n        onlyLamportMaster(\n            currentpub,\n            sig,\n            nextPKH,\n            abi.encodePacked(newCommissionAddress)\n        )\n    {\n        lastUsedCommissionAddressHash = keccak256(abi.encodePacked(newCommissionAddress));\n    }\n\n    // Step 2: Verify and set the commissionAddress\n    function setCommissionAddressStepTwo(\n        bytes32[2][256] calldata currentpub,\n        bytes[256] calldata sig,\n        bytes32 nextPKH,\n        address newCommissionAddress\n    )\n        public\n        onlyLamportMaster(\n            currentpub,\n            sig,\n            nextPKH,\n            abi.encodePacked(newCommissionAddress)\n        )\n    {\n        require(lastUsedCommissionAddressHash == keccak256(abi.encodePacked(newCommissionAddress)), \"AnonIDContract: Mismatched address hash between step one and two\");\n\n        _commissionAddress = newCommissionAddress;\n\n        // Reset the temporary variable\n        lastUsedCommissionAddressHash = 0;\n        emit CommissionAddressSet(newCommissionAddress);\n    }\n\n    function updateMinStakeStepOne(\n        bytes32[2][256] calldata currentpub,\n        bytes[256] calldata sig,\n        bytes32 nextPKH,\n        bytes memory newMinStake\n    )\n        public\n        onlyLamportMaster(\n            currentpub,\n            sig,\n            nextPKH,\n            abi.encodePacked(newMinStake)\n        )\n    {\n        // Save the used master NextPKH in a global variable\n        lastUsedNextPKH = nextPKH;\n    }\n\n    function updateMinStakeStepTwo(\n        bytes32[2][256] calldata currentpub,\n        bytes[256] calldata sig,\n        bytes32 nextPKH,\n        bytes32 newMinStake\n    )\n        public payable\n        onlyLamportMaster(\n            currentpub,\n            sig,\n            nextPKH,\n            abi.encodePacked(newMinStake)\n        )\n    {\n        bytes32 currentPKH = keccak256(abi.encodePacked(currentpub));\n        bool pkhMatched = (lastUsedNextPKH != currentPKH);\n        lastUsedNextPKH = bytes32(0);\n\n        // If checks pass, call the target function\n        require(pkhMatched, \"PKH does not match last used PKH\");\n\n        // This is the signature of the function \"updateMinSelfStake(uint256)\"\n        bytes4 methodId = bytes4(keccak256(\"updateMinSelfStake(uint256)\"));\n\n        // Encoding the method ID and parameters\n        bytes memory data = abi.encodeWithSelector(methodId, uint256(newMinStake));\n\n        // Perform the low-level call with the encoded data\n        (bool success, ) = SFCContractAddress.call{value: msg.value}(data);\n\n        // It's a good idea to handle the possibility that the call failed\n        require(success, \"Call to updateMinSelfStake failed\");\n    }\n\n    function callMinStake() public returns (uint256 minStakeValue) {\n        // This is the signature of the function \"minStake()\"\n        bytes4 methodId = bytes4(keccak256(\"minStake()\"));\n\n        // Perform the low-level call with the encoded method ID\n        (bool success, bytes memory returnData) = netinitContractAddress.staticcall(abi.encodeWithSelector(methodId));\n\n        require(success, \"Call to minStake failed\");\n\n        // Decode the returned data\n        (minStakeValue) = abi.decode(returnData, (uint256));\n\n        return minStakeValue;\n    }\n\n    // Add a new key\n    function addKey(KeyType keyType, bytes32 newPKH) private {\n        Key memory newKey = Key(keyType, newPKH);\n        keys.push(newKey);\n        keyData[newPKH] = newKey;\n        emit KeyAdded(keyType, newPKH);\n    }\n    // Search for a key by its PKH, return the key and its position in the keys array\n    function getKeyAndPosByPKH(bytes32 pkh) public view returns (KeyType, bytes32, uint) {\n        Key memory key = keyData[pkh];\n        require(key.pkh != 0, \"AnonIDContract: No such key\");\n\n        // Iterate over keys array to find the position\n        for (uint i = 0; i < keys.length; i++) {\n            if (keys[i].pkh == pkh) {\n                return (key.keyType, key.pkh, i);\n            }\n        }\n        revert(\"AnonIDContract: No such key\");\n    }\n    function getPKHsByPrivilege(KeyType privilege) public view returns (bytes32[] memory) {\n        bytes32[] memory pkhs = new bytes32[](keys.length);\n        uint counter = 0;\n\n        for (uint i = 0; i < keys.length; i++) {\n            if (keys[i].keyType == privilege) {\n                pkhs[counter] = keys[i].pkh;\n                counter++;\n            }\n        }\n\n        // Prepare the array to return\n        bytes32[] memory result = new bytes32[](counter);\n        for(uint i = 0; i < counter; i++) {\n            result[i] = pkhs[i];\n        }\n\n        return result;\n    }\n\n\n\n    bytes32 private lastUsedDeleteKeyHash;\n    bytes32 private storedNextPKH;\n\n    function deleteKeyStepOne(\n        bytes32[2][256] calldata currentpub,\n        bytes[256] calldata sig,\n        bytes32 nextPKH,\n        bytes32 deleteKeyHash\n    )\n        public\n        onlyLamportMaster(\n            currentpub,\n            sig,\n            nextPKH,\n            abi.encodePacked(deleteKeyHash)\n        )\n    {\n        // Save the used deleteKeyHash in a global variable\n        lastUsedDeleteKeyHash = deleteKeyHash;\n        storedNextPKH = nextPKH;\n    }\n\n    function deleteKeyStepTwo(\n        bytes32[2][256] calldata currentpub,\n        bytes[256] calldata sig,\n        bytes32 nextPKH,\n        bytes32 confirmDeleteKeyHash\n    )\n        public\n        onlyLamportMaster(\n            currentpub,\n            sig,\n            nextPKH,\n            abi.encodePacked(confirmDeleteKeyHash)\n        )\n    {\n        // Calculate the current public key hash (currentPKH)\n        bytes32 currentPKH = keccak256(abi.encodePacked(currentpub));\n        \n        // Check if storedNextPKH is not the same as the current PKH\n        require(currentPKH != storedNextPKH, \"AnonIDContract: Cannot use the same keychain twice for this function\");\n        \n        // Check if the used deleteKeyHash matches the last used deleteKeyHash\n        require(lastUsedDeleteKeyHash == confirmDeleteKeyHash, \"AnonIDContract: Keys do not match\");\n        \n        // Execute the delete key logic\n        // Assuming firstMasterPKH and secondMasterPKH are correctly verified and provided\n        bytes32 firstMasterPKH = storedNextPKH; // Placeholder, replace with the actual value\n        bytes32 secondMasterPKH = currentPKH; // Placeholder, replace with the actual value\n        bytes32 targetPKH = confirmDeleteKeyHash;\n        \n        // Check that the two provided keys are master keys\n        require(keyData[firstMasterPKH].keyType == KeyType.MASTER && keyData[secondMasterPKH].keyType == KeyType.MASTER, \"AnonIDContract: Provided keys are not master keys\");\n        \n        // Disallow master keys from deleting themselves\n        require(targetPKH != firstMasterPKH && targetPKH != secondMasterPKH, \"AnonIDContract: Master keys cannot delete themselves\");\n        \n\n        require(keyData[targetPKH].pkh != 0, \"AnonIDContract: No such key (deletion)\");\n        for (uint i = 0; i < keys.length; i++) {\n            if (keys[i].pkh == targetPKH) {\n\n                KeyType originalKeyType = keyData[targetPKH].keyType; // Store the original KeyType\n                // Overwriting the first 7 characters with \"de1e7ed\" and the rest with random values\n                bytes32 modifiedPKH = 0xde1e7ed000000000000000000000000000000000000000000000000000000000;\n                uint256 randomValue = uint256(keccak256(abi.encodePacked(block.timestamp, block.prevrandao)));\n                modifiedPKH ^= bytes32(randomValue); // XOR to keep \"de1e7ed\" in the first 7 characters\n                \n                // Modify the existing entry instead of deleting it\n                keyData[targetPKH].pkh = modifiedPKH;\n                keyData[targetPKH].keyType = KeyType.DELETED; // Set the keyType to DELETED\n                \n                emit KeyModified(originalKeyType, targetPKH, modifiedPKH, KeyType.DELETED); // Emitting a new event for modification                    \n                break;\n            }\n        }\n\n\n        \n        // Reset lastUsedDeleteKeyHash\n        lastUsedDeleteKeyHash = bytes32(0);\n        storedNextPKH = bytes32(0);\n    }\n\n\n\n\n    function verify_u256(\n        uint256 bits,\n        bytes[256] calldata sig,\n        bytes32[2][256] calldata pub\n    ) public pure returns (bool) {\n        unchecked {\n            for (uint256 i; i < 256; i++) {\n                if (\n                    pub[i][((bits & (1 << (255 - i))) > 0) ? 1 : 0] !=\n                    keccak256(sig[i])\n                ) return false;\n            }\n\n            return true;\n        }\n    }\n\n    modifier onlyLamportMaster(bytes32[2][256] calldata currentpub, bytes[256] calldata sig, bytes32 nextPKH, bytes memory prepacked) {\n        //require(initialized, \"AnonIDContract: not initialized\");\n\n        bytes32 pkh = keccak256(abi.encodePacked(currentpub));\n        require(keyData[pkh].keyType == KeyType.MASTER, \"AnonIDContract: Not a master key\");\n\n        uint256 hashedData = uint256(keccak256(abi.encodePacked(prepacked, nextPKH)));\n        emit LogLastCalculatedHash(hashedData);\n\n        bool verificationResult = verify_u256(hashedData, sig, currentpub);\n\n        lastVerificationResult = verificationResult;\n\n        if (!verificationResult) {\n            emit VerificationFailed(hashedData);\n            revert(\"AnonIDContract: Verification failed\");\n        } else {\n            emit PkhUpdated(keyData[pkh].keyType, pkh, nextPKH);\n            updateKey(pkh, nextPKH);\n        }\n\n        _;\n    }\n\n\n\n    function updateKey(bytes32 oldPKH, bytes32 newPKH) internal {\n        require(keyData[oldPKH].pkh != 0, \"AnonIDContract: No such key\");\n\n        // Update the public key hash in the key data mapping\n        Key memory updatedKey = Key(keyData[oldPKH].keyType, newPKH);\n        keyData[newPKH] = updatedKey;\n\n        // Remove the old key from key data\n        delete keyData[oldPKH];\n\n        // Update the public key hash in the keys array\n        for (uint i = 0; i < keys.length; i++) {\n            if (keys[i].pkh == oldPKH) {\n                keys[i] = updatedKey;\n                break;\n            }\n        }\n\n        emit PkhUpdated(updatedKey.keyType, oldPKH, newPKH);\n    }\n\n\n\n    modifier onlyLamportOracle(bytes32[2][256] calldata currentpub, bytes[256] calldata sig, bytes32 nextPKH, bytes memory prepacked) {\n        //require(initialized, \"AnonIDContract: not initialized\");\n\n        bytes32 pkh = keccak256(abi.encodePacked(currentpub));\n        require(keyData[pkh].keyType == KeyType.ORACLE, \"AnonIDContract: Not an oracle key\");\n\n        uint256 hashedData = uint256(keccak256(abi.encodePacked(prepacked, nextPKH)));\n        emit LogLastCalculatedHash(hashedData);\n\n        bool verificationResult = verify_u256(hashedData, sig, currentpub);\n\n        lastVerificationResult = verificationResult;\n\n        if (!verificationResult) {\n           // emit VerificationFailed(hashedData);\n            revert(\"AnonIDContract: Verification failed\");\n        } else {\n            emit PkhUpdated(keyData[pkh].keyType, pkh, nextPKH);\n            updateKey(pkh, nextPKH);\n        }\n\n        _;\n    }\n\n    bytes32 public lastUsedNextPKH;\n\n    function createMasterKeyStepOne(\n        bytes32[2][256] calldata currentpub,\n        bytes[256] calldata sig,\n        bytes32 nextPKH,\n        bytes memory newmasterPKH\n    )\n        public\n        onlyLamportMaster(\n            currentpub,\n            sig,\n            nextPKH,\n            abi.encodePacked(newmasterPKH)\n        )\n    {\n        // Save the used master NextPKH in a global variable\n        lastUsedNextPKH = nextPKH;\n    }\n\n    function createMasterKeyStepTwo(\n        bytes32[2][256] calldata currentpub,\n        bytes[256] calldata sig,\n        bytes32 nextPKH,\n        bytes32 newmasterPKH\n    )\n        public\n        onlyLamportMaster(\n            currentpub,\n            sig,\n            nextPKH,\n            abi.encodePacked(newmasterPKH)\n        )\n    {\n        // Check if the used master NextPKH matches the last used PKH\n        bytes32 currentPKH = keccak256(abi.encodePacked(currentpub));\n        bool pkhMatched = (lastUsedNextPKH != currentPKH);\n        lastUsedNextPKH = bytes32(0);\n        // If checks pass, add the new master key\n        require(pkhMatched, \"AnonIDContract: PKH matches last used PKH (use separate second key)\");\n\n        addKey(KeyType.MASTER, newmasterPKH);\n\n        // Reset lastUsedNextPKH\n        lastUsedNextPKH = bytes32(0);\n    }\n\n\n    function createOracleKeyFromMaster(\n        bytes32[2][256] calldata currentpub,\n        bytes32 nextPKH,\n        bytes[256] calldata sig,\n        bytes32 neworaclePKH\n    )\n        public\n        onlyLamportMaster(\n            currentpub,\n            sig,\n            nextPKH,\n            abi.encodePacked(neworaclePKH)\n        )\n    {\n        \n        addKey(KeyType.ORACLE, neworaclePKH);\n      \n    }\n\n\n    function createContractStepOne(\n        bytes32[2][256] calldata currentpub,\n        bytes[256] calldata sig,\n        bytes32 nextPKH,\n        bytes memory bytecode\n    )\n        public\n        onlyLamportMaster(\n            currentpub,\n            sig,\n            nextPKH,\n            abi.encodePacked(bytecode)\n        )\n    {\n        // Save the hash of the bytecode in a global variable\n        lastUsedBytecodeHash = keccak256(bytecode);\n    }\n\n    function createContractStepTwo(\n        bytes32[2][256] calldata currentpub,\n        bytes[256] calldata sig,\n        bytes32 nextPKH,\n        bytes memory bytecode\n    )\n        public\n        onlyLamportMaster(\n            currentpub,\n            sig,\n            nextPKH,\n            abi.encodePacked(bytecode)\n        )\n        returns (address)\n    {\n         // Verify bytecode hash matches\n        require(keccak256(bytecode) == lastUsedBytecodeHash, \"Bytecode does not match previously provided bytecode.\");\n        address newContract;\n        assembly {\n            newContract := create(0, add(bytecode, 0x20), mload(bytecode))\n        }\n        require(newContract != address(0), \"Contract creation failed\");\n        return newContract;\n    }\n    function setFreeGasCap(uint256 _newCap, bytes32[2][256] calldata currentpub, bytes[256] calldata sig, bytes32 nextPKH) public onlyLamportMaster(currentpub, sig, nextPKH, abi.encodePacked(_newCap)) {\n        freeGasCap = _newCap;\n        emit FreeGasCapSet(_newCap);\n\n    }\n\n}\n","sourcePath":"contracts/AnonID_noinit.sol","type":"contract","deployment":{"address":"0xc1212ecafD2c893482046F70ed8Eff21223078dC","chainid":"86098","blockHeight":401}}