{"bytecode":"60806040523480156200001157600080fd5b506200003f60007fb7b18ded9664d1a8e923a5942ec1ca5cd8c13c40eb1a5215d5800600f5a587be62000105565b6200006c60007f1ed304ab73e124b0b99406dfa1388a492a818837b4b41ce5693ad84dacfc3f2562000105565b6200009960017fd62569e61a6423c880a429676be48756c931fe0519121684f5fb05cbd17877fa62000105565b600580546001600160a01b031990811673fd003ca44bbf4e9fb0b2ff1a33fc2f05a6c2eff91790915560068054821673fc00face000000000000000000000000000000001790556007805490911673d1005eed0000000000000000000000000000000017905562000269565b6000604051806040016040528084600281111562000127576200012762000226565b8152602001839052600e805460018181018355600092909252825160029182027fbb7b4a454dc3493923482f07822329ed19e8244eff582cc204f8554c3620c3fd018054949550859490939192849260ff199092169190849081111562000192576200019262000226565b02179055506020918201516001918201556000848152600f9092526040909120825181548493839160ff191690836002811115620001d457620001d462000226565b0217905550602082015181600101559050507f2172c7b01a6de957d29fd6166a23025d181bf56538ad606a526ab2d62603f3fc8383604051620002199291906200023c565b60405180910390a1505050565b634e487b7160e01b600052602160045260246000fd5b60408101600384106200025f57634e487b7160e01b600052602160045260246000fd5b9281526020015290565b61421280620002796000396000f3fe6080604052600436106102675760003560e01c80638705d94511610144578063b3910c9f116100b6578063d83c413c1161007a578063d83c413c146107ca578063e256d9a6146107ea578063e673d71f146107ff578063e8f3c92b1461081f578063f82e84fd14610832578063fb632d891461085257600080fd5b8063b3910c9f1461071a578063b889b2b71461073a578063b97b4f7714610750578063ba6906771461077d578063d47b2e99146107aa57600080fd5b8063931742d311610108578063931742d3146106325780639b19251a14610650578063a9711ee314610680578063ae61d2c2146106ba578063aec43f5a146106da578063af82f3e7146106fa57600080fd5b80638705d945146105bd5780638775b01f146105d2578063894a1e8e146104085780638ab1d681146105f25780638eb8f1a61461061257600080fd5b80634e657d2a116101dd5780635c16e15e116101a15780635c16e15e146104b55780636118b1c3146104e25780636c8dd0bd14610502578063753ac6dc1461052f578063787325ca146105675780637e08deae1461059d57600080fd5b80634e657d2a146104085780634fbbc63f146104285780635325758e146104555780635796841a146104755780635961f5001461049557600080fd5b80632fd5c2471161022f5780632fd5c247146103455780633337db521461035f5780633af32abf146103835780633e13566b146103bc5780634a672870146103d25780634bdd4499146103f257600080fd5b806303545eac1461026c57806305aacc7d146102b15780630cb6aaf1146102e0578063142eb8c81461030e5780631a533daa14610325575b600080fd5b34801561027857600080fd5b5061029c61028736600461395b565b60086020526000908152604090205460ff1681565b60405190151581526020015b60405180910390f35b3480156102bd57600080fd5b506102d16102cc366004613976565b61087f565b6040516102a8939291906139c7565b3480156102ec57600080fd5b506103006102fb366004613976565b610981565b6040516102a89291906139e6565b34801561031a57600080fd5b506103236109b3565b005b34801561033157600080fd5b50610323610340366004613a8d565b610aef565b34801561035157600080fd5b5060125461029c9060ff1681565b34801561036b57600080fd5b5061037560015481565b6040519081526020016102a8565b34801561038f57600080fd5b5061029c61039e36600461395b565b6001600160a01b031660009081526009602052604090205460ff1690565b3480156103c857600080fd5b5061037560035481565b3480156103de57600080fd5b506103236103ed366004613b19565b610c1c565b3480156103fe57600080fd5b5061037560165481565b34801561041457600080fd5b50610323610423366004613b7c565b610ded565b34801561043457600080fd5b5061037561044336600461395b565b600c6020526000908152604090205481565b34801561046157600080fd5b50610323610470366004613c13565b610f64565b34801561048157600080fd5b50610323610490366004613b19565b6110f6565b3480156104a157600080fd5b506103236104b0366004613c7d565b611335565b3480156104c157600080fd5b506103756104d036600461395b565b600b6020526000908152604090205481565b3480156104ee57600080fd5b506103236104fd366004613cea565b611592565b34801561050e57600080fd5b5061037561051d36600461395b565b600a6020526000908152604090205481565b34801561053b57600080fd5b5061054f61054a366004613b7c565b6116cb565b6040516001600160a01b0390911681526020016102a8565b34801561057357600080fd5b5061037561058236600461395b565b6001600160a01b03166000908152600a602052604090205490565b3480156105a957600080fd5b506103236105b8366004613b19565b61191a565b3480156105c957600080fd5b50600154610375565b3480156105de57600080fd5b5061029c6105ed36600461395b565b611bc8565b3480156105fe57600080fd5b5061032361060d36600461395b565b611dd1565b34801561061e57600080fd5b5061032361062d366004613d14565b611ebe565b34801561063e57600080fd5b506005546001600160a01b031661054f565b34801561065c57600080fd5b5061029c61066b36600461395b565b60096020526000908152604090205460ff1681565b34801561068c57600080fd5b5061030061069b366004613976565b600f602052600090815260409020805460019091015460ff9091169082565b3480156106c657600080fd5b506103236106d5366004613c7d565b61203d565b3480156106e657600080fd5b506103236106f5366004613c13565b6121db565b34801561070657600080fd5b5061029c610715366004613d5a565b612394565b34801561072657600080fd5b50610323610735366004613db3565b612449565b34801561074657600080fd5b5061037560005481565b34801561075c57600080fd5b5061077061076b366004613ddb565b6125e5565b6040516102a89190613dfc565b34801561078957600080fd5b5061037561079836600461395b565b600d6020526000908152604090205481565b3480156107b657600080fd5b506103236107c5366004613cea565b612795565b3480156107d657600080fd5b506103236107e5366004613b19565b61286b565b3480156107f657600080fd5b506103756129e9565b34801561080b57600080fd5b5061032361081a366004613b19565b612b00565b61032361082d366004613b19565b613020565b34801561083e57600080fd5b5061032361084d366004613b7c565b613337565b34801561085e57600080fd5b5061037561086d36600461395b565b60046020526000908152604090205481565b6000818152600f602052604080822081518083019092528054839283928392829060ff1660028111156108b4576108b461398f565b60028111156108c5576108c561398f565b8152600191909101546020918201528101519091506000036109025760405162461bcd60e51b81526004016108f990613e40565b60405180910390fd5b60005b600e548110156109615785600e828154811061092357610923613e77565b9060005260206000209060020201600101540361094f578151602090920151919450909250905061097a565b8061095981613ea3565b915050610905565b5060405162461bcd60e51b81526004016108f990613e40565b9193909250565b600e818154811061099157600080fd5b60009182526020909120600290910201805460019091015460ff909116915082565b3360008181526009602052604090205460ff16610a125760405162461bcd60e51b815260206004820152601760248201527f55736572206973206e6f742077686974656c697374656400000000000000000060448201526064016108f9565b6001600160a01b0381166000908152600b6020908152604080832054600c9092529091205480821015610a7e5760405162461bcd60e51b8152602060048201526014602482015273496e76616c696420636c61696d2076616c75657360601b60448201526064016108f9565b6001600160a01b0383166000818152600c60209081526040808320869055600a80835281842054600b84529382902084905582528051868152918201929092527fdc5ec23a202853e756bbb0c4f4cb94deea4936fcc71756da3ddebf99aabf6c9e91015b60405180910390a2505050565b3360009081526008602052604090205460ff16610b1e5760405162461bcd60e51b81526004016108f990613ebc565b600081604051602001610b319190613f21565b60408051601f1981840301815291815281516020928301206001600160a01b0386166000908152600990935291205490915060ff1615610bb35760405162461bcd60e51b815260206004820152601b60248201527f4164647265737320616c72656164792077686974656c6973746564000000000060448201526064016108f9565b6001600160a01b03831660008181526004602090815260408083206005905560098252808320805460ff19166001179055600d82529182902084905590518381527fc27d38ad1bdb4164d72e05492b5ce6099b4169e9f20b41d3c7cf35c114a64d5b9101610ae2565b83838383604051602001610c3291815260200190565b604051602081830303815290604052600084604051602001610c549190613f3d565b60408051601f1981840301815291905280516020909101209050600080828152600f602052604090205460ff166002811115610c9257610c9261398f565b14610caf5760405162461bcd60e51b81526004016108f990613f74565b60008284604051602001610cc4929190613fa9565b60408051601f19818403018152908290528051602091820120808352925060008051602061419d833981519152910160405180910390a16000610d08828789612394565b6012805460ff1916821515179055905080610d935760405182815260008051602061417d833981519152906020015b60405180910390a160405162461bcd60e51b815260206004820152602360248201527f416e6f6e4944436f6e74726163743a20566572696669636174696f6e206661696044820152621b195960ea1b60648201526084016108f9565b6000838152600f6020526040908190205490516000805160206141bd83398151915291610dc99160ff90911690869089906139c7565b60405180910390a1610ddb83866134b6565b50505060029490945550505050505050565b83838383604051602001610e019190613f21565b604051602081830303815290604052600084604051602001610e239190613f3d565b60408051601f1981840301815291905280516020909101209050600080828152600f602052604090205460ff166002811115610e6157610e6161398f565b14610e7e5760405162461bcd60e51b81526004016108f990613f74565b60008284604051602001610e93929190613fa9565b60408051601f19818403018152908290528051602091820120808352925060008051602061419d833981519152910160405180910390a16000610ed7828789612394565b6012805460ff1916821515179055905080610f0a5760405182815260008051602061417d83398151915290602001610d37565b6000838152600f6020526040908190205490516000805160206141bd83398151915291610f409160ff90911690869089906139c7565b60405180910390a1610f5283866134b6565b50505060169590955550505050505050565b82828286604051602001610f789190613fcb565b604051602081830303815290604052600084604051602001610f9a9190613f3d565b60408051601f1981840301815291905280516020909101209050600080828152600f602052604090205460ff166002811115610fd857610fd861398f565b14610ff55760405162461bcd60e51b81526004016108f990613f74565b6000828460405160200161100a929190613fa9565b60408051601f19818403018152908290528051602091820120808352925060008051602061419d833981519152910160405180910390a1600061104e828789612394565b6012805460ff19168215151790559050806110815760405182815260008051602061417d83398151915290602001610d37565b6000838152600f6020526040908190205490516000805160206141bd833981519152916110b79160ff90911690869089906139c7565b60405180910390a16110c983866134b6565b5050506001600160a01b039097166000908152600860205260409020805460ff1916905550505050505050565b8383838360405160200161110c91815260200190565b60405160208183030381529060405260008460405160200161112e9190613f3d565b60408051601f1981840301815291905280516020909101209050600080828152600f602052604090205460ff16600281111561116c5761116c61398f565b146111895760405162461bcd60e51b81526004016108f990613f74565b6000828460405160200161119e929190613fa9565b60408051601f19818403018152908290528051602091820120808352925060008051602061419d833981519152910160405180910390a160006111e2828789612394565b6012805460ff19168215151790559050806112155760405182815260008051602061417d83398151915290602001610d37565b6000838152600f6020526040908190205490516000805160206141bd8339815191529161124b9160ff90911690869089906139c7565b60405180910390a161125d83866134b6565b60008b6040516020016112709190613f3d565b60408051601f198184030181529190528051602090910120601680546000909155909150811415806113165760405162461bcd60e51b815260206004820152604360248201527f416e6f6e4944436f6e74726163743a20504b48206d617463686573206c61737460448201527f207573656420504b482028757365207365706172617465207365636f6e64206b60648201526265792960e81b608482015260a4016108f9565b61132160008b613654565b505060006016555050505050505050505050565b838383836040516020016113499190613fcb565b60405160208183030381529060405260008460405160200161136b9190613f3d565b60408051601f1981840301815291905280516020909101209050600080828152600f602052604090205460ff1660028111156113a9576113a961398f565b146113c65760405162461bcd60e51b81526004016108f990613f74565b600082846040516020016113db929190613fa9565b60408051601f19818403018152908290528051602091820120808352925060008051602061419d833981519152910160405180910390a1600061141f828789612394565b6012805460ff19168215151790559050806114525760405182815260008051602061417d83398151915290602001610d37565b6000838152600f6020526040908190205490516000805160206141bd833981519152916114889160ff90911690869089906139c7565b60405180910390a161149a83866134b6565b876040516020016114ab9190613fcb565b6040516020818303038152906040528051906020012060135414611539576040805162461bcd60e51b81526020600482015260248101919091527f416e6f6e4944436f6e74726163743a204d69736d61746368656420616464726560448201527f73732068617368206265747765656e2073746570206f6e6520616e642074776f60648201526084016108f9565b600580546001600160a01b0319166001600160a01b038a16908117909155600060138190556040517f78cb7d38f54b570d3aa94edfe9942ff10d8b002a73299229ea4ece39479eb1169190a25050505050505050505050565b3360009081526008602052604090205460ff1661160a5760405162461bcd60e51b815260206004820152603060248201527f4e6f74207065726d697474656420746f206d6f6469667920686f75726c79207460448201526f72616e73616374696f6e2071756f746160801b60648201526084016108f9565b6001600160a01b03821660009081526009602052604090205460ff166116725760405162461bcd60e51b815260206004820152601e60248201527f41646472657373206e6f7420666f756e6420696e2077686974656c697374000060448201526064016108f9565b6001600160a01b03821660008181526004602052604090819020839055517f49e4e7ca63dcc35a72589f844cb844ce25176e8e1aff16f1ad1fb46624c65372906116bf9084815260200190565b60405180910390a25050565b6000848484846040516020016116e19190613f21565b6040516020818303038152906040526000846040516020016117039190613f3d565b60408051601f1981840301815291905280516020909101209050600080828152600f602052604090205460ff1660028111156117415761174161398f565b1461175e5760405162461bcd60e51b81526004016108f990613f74565b60008284604051602001611773929190613fa9565b60408051601f19818403018152908290528051602091820120808352925060008051602061419d833981519152910160405180910390a160006117b7828789612394565b6012805460ff19168215151790559050806117ea5760405182815260008051602061417d83398151915290602001610d37565b6000838152600f6020526040908190205490516000805160206141bd833981519152916118209160ff90911690869089906139c7565b60405180910390a161183283866134b6565b600354895160208b0120146118a75760405162461bcd60e51b815260206004820152603560248201527f42797465636f646520646f6573206e6f74206d617463682070726576696f7573604482015274363c90383937bb34b232b210313cba32b1b7b2329760591b60648201526084016108f9565b6000895160208b016000f090506001600160a01b03811661190a5760405162461bcd60e51b815260206004820152601860248201527f436f6e7472616374206372656174696f6e206661696c6564000000000000000060448201526064016108f9565b9c9b505050505050505050505050565b8383838360405160200161193091815260200190565b6040516020818303038152906040526000846040516020016119529190613f3d565b60408051601f1981840301815291905280516020909101209050600080828152600f602052604090205460ff1660028111156119905761199061398f565b146119ad5760405162461bcd60e51b81526004016108f990613f74565b600082846040516020016119c2929190613fa9565b60408051601f19818403018152908290528051602091820120808352925060008051602061419d833981519152910160405180910390a16000611a06828789612394565b6012805460ff1916821515179055905080611a395760405182815260008051602061417d83398151915290602001610d37565b6000838152600f6020526040908190205490516000805160206141bd83398151915291611a6f9160ff90911690869089906139c7565b60405180910390a1611a8183866134b6565b6014881115611af85760405162461bcd60e51b815260206004820152603760248201527f416e6f6e4944436f6e74726163743a20436f6d6d697373696f6e2073686f756c60448201527f64206265206265747765656e20302520616e642032302500000000000000000060648201526084016108f9565b6002548814611b7d5760405162461bcd60e51b815260206004820152604560248201527f416e6f6e4944436f6e74726163743a204d69736d61746368656420636f6d6d6960448201527f7373696f6e2076616c756573206265747765656e2073746570206f6e6520616e606482015264642074776f60d81b608482015260a4016108f9565b600188905560006002556040518881527f11bf320227562bd5f6c9b575913cf92b3b996b47873159df227324ae1bb4d0ea906020015b60405180910390a15050505050505050505050565b600033732685751d3c7a49ebf485e823079ac65e2a35a3dd811490611bec9061375d565b604051602001611bfc9190613fe8565b60405160208183030381529060405290611c295760405162461bcd60e51b81526004016108f99190614043565b506001600160a01b03821660009081526009602052604090205460ff16611c5257506000919050565b6001600160a01b0382166000908152600460205260408120549003611c7957506000919050565b6001600160a01b0382166000908152601060209081526040808320601183528184206004909352922054600183015410611d19578154610e1082826101f48110611cc557611cc5613e77565b0154611cd19042614076565b11611ce157506000949350505050565b6001600160a01b0385166000908152600460205260409020548354611d07906001614089565b611d11919061409c565b835550611d31565b600182018054906000611d2b83613ea3565b91905055505b6001600160a01b0384166000908152600460205260408120546001848101548554611d5c9190614089565b611d669190614076565b611d70919061409c565b90504282826101f48110611d8657611d86613e77565b01556040514281526001600160a01b038616907f9ed0861f8fc182c8888f48e900842f475ccd2a3c93c6f966168eaa67d52d2ee19060200160405180910390a2506001949350505050565b3360009081526008602052604090205460ff16611e005760405162461bcd60e51b81526004016108f990613ebc565b6001600160a01b03811660009081526009602052604090205460ff16611e685760405162461bcd60e51b815260206004820152601e60248201527f41646472657373206e6f7420666f756e6420696e2077686974656c697374000060448201526064016108f9565b6001600160a01b0381166000818152600960209081526040808320805460ff19169055600d909152808220829055517fcdd2e9b91a56913d370075169cefa1602ba36be5301664f752192bb1709df7579190a250565b83828483604051602001611ed491815260200190565b604051602081830303815290604052600084604051602001611ef69190613f3d565b60408051601f1981840301815291905280516020909101209050600080828152600f602052604090205460ff166002811115611f3457611f3461398f565b14611f515760405162461bcd60e51b81526004016108f990613f74565b60008284604051602001611f66929190613fa9565b60408051601f19818403018152908290528051602091820120808352925060008051602061419d833981519152910160405180910390a16000611faa828789612394565b6012805460ff1916821515179055905080611fdd5760405182815260008051602061417d83398151915290602001610d37565b6000838152600f6020526040908190205490516000805160206141bd833981519152916120139160ff90911690869089906139c7565b60405180910390a161202583866134b6565b612030600189613654565b5050505050505050505050565b838383836040516020016120519190613fcb565b6040516020818303038152906040526000846040516020016120739190613f3d565b60408051601f1981840301815291905280516020909101209050600080828152600f602052604090205460ff1660028111156120b1576120b161398f565b146120ce5760405162461bcd60e51b81526004016108f990613f74565b600082846040516020016120e3929190613fa9565b60408051601f19818403018152908290528051602091820120808352925060008051602061419d833981519152910160405180910390a16000612127828789612394565b6012805460ff191682151517905590508061215a5760405182815260008051602061417d83398151915290602001610d37565b6000838152600f6020526040908190205490516000805160206141bd833981519152916121909160ff90911690869089906139c7565b60405180910390a16121a283866134b6565b876040516020016121b39190613fcb565b60408051601f1981840301815291905280516020909101206013555050505050505050505050565b828282866040516020016121ef9190613fcb565b6040516020818303038152906040526000846040516020016122119190613f3d565b60408051601f1981840301815291905280516020909101209050600080828152600f602052604090205460ff16600281111561224f5761224f61398f565b1461226c5760405162461bcd60e51b81526004016108f990613f74565b60008284604051602001612281929190613fa9565b60408051601f19818403018152908290528051602091820120808352925060008051602061419d833981519152910160405180910390a160006122c5828789612394565b6012805460ff19168215151790559050806122f85760405182815260008051602061417d83398151915290602001610d37565b6000838152600f6020526040908190205490516000805160206141bd8339815191529161232e9160ff90911690869089906139c7565b60405180910390a161234083866134b6565b6001600160a01b038b16600081815260086020908152604091829020805460ff1916600117905590519182527f9c2d3039f3d15023b5382d61054aae8f70288e4bffb8676398baca3c389e8f189101611bb3565b6000805b61010081101561243c57838161010081106123b5576123b5613e77565b6020028101906123c591906140be565b6040516123d392919061410c565b6040518091039020838261010081106123ee576123ee613e77565b6040020160008360ff036001901b88161161240a57600061240d565b60015b60ff166002811061242057612420613e77565b602002013514612434576000915050612442565b600101612398565b50600190505b9392505050565b8282828660405160200161245f91815260200190565b6040516020818303038152906040526000846040516020016124819190613f3d565b60408051601f1981840301815291905280516020909101209050600080828152600f602052604090205460ff1660028111156124bf576124bf61398f565b146124dc5760405162461bcd60e51b81526004016108f990613f74565b600082846040516020016124f1929190613fa9565b60408051601f19818403018152908290528051602091820120808352925060008051602061419d833981519152910160405180910390a16000612535828789612394565b6012805460ff19168215151790559050806125685760405182815260008051602061417d83398151915290602001610d37565b6000838152600f6020526040908190205490516000805160206141bd8339815191529161259e9160ff90911690869089906139c7565b60405180910390a16125b083866134b6565b60008b90556040518b81527f58098eeec115cba633a1b8765151f8a2e4efbdcb42846e0968e430d56e21d37090602001611bb3565b600e5460609060009067ffffffffffffffff81111561260657612606613a01565b60405190808252806020026020018201604052801561262f578160200160208202803683370190505b5090506000805b600e548110156126f0578460028111156126525761265261398f565b600e828154811061266557612665613e77565b600091825260209091206002918202015460ff16908111156126895761268961398f565b036126de57600e81815481106126a1576126a1613e77565b9060005260206000209060020201600101548383815181106126c5576126c5613e77565b6020908102919091010152816126da81613ea3565b9250505b806126e881613ea3565b915050612636565b5060008167ffffffffffffffff81111561270c5761270c613a01565b604051908082528060200260200182016040528015612735578160200160208202803683370190505b50905060005b8281101561278c5783818151811061275557612755613e77565b602002602001015182828151811061276f5761276f613e77565b60209081029190910101528061278481613ea3565b91505061273b565b50949350505050565b3360009081526008602052604090205460ff166128035760405162461bcd60e51b815260206004820152602660248201527f4e6f74207065726d697474656420746f206d6f64696679206d696e75746573206044820152651c1b185e595960d21b60648201526084016108f9565b6001600160a01b0382166000908152600a60205260408120805483929061282b908490614089565b90915550506040518181526001600160a01b038316907f54ecab596bd73e6a3fd6d8bb310aa69a74c3f78ddc040f88c6f5d06dffb3542b906020016116bf565b8383838360405160200161288191815260200190565b6040516020818303038152906040526000846040516020016128a39190613f3d565b60408051601f1981840301815291905280516020909101209050600080828152600f602052604090205460ff1660028111156128e1576128e161398f565b146128fe5760405162461bcd60e51b81526004016108f990613f74565b60008284604051602001612913929190613fa9565b60408051601f19818403018152908290528051602091820120808352925060008051602061419d833981519152910160405180910390a16000612957828789612394565b6012805460ff191682151517905590508061298a5760405182815260008051602061417d83398151915290602001610d37565b6000838152600f6020526040908190205490516000805160206141bd833981519152916129c09160ff90911690869089906139c7565b60405180910390a16129d283866134b6565b505050601494909455505050601591909155505050565b60075460408051600481526024810182526020810180516001600160e01b0316631bad9e0560e11b17905290516000927f375b3c0a792940dac787da40232e8cc6a34abc755014c8e76617ad03f30ecdc892849283926001600160a01b031691612a5291613f21565b600060405180830381855afa9150503d8060008114612a8d576040519150601f19603f3d011682016040523d82523d6000602084013e612a92565b606091505b509150915081612ae45760405162461bcd60e51b815260206004820152601760248201527f43616c6c20746f206d696e5374616b65206661696c656400000000000000000060448201526064016108f9565b80806020019051810190612af8919061411c565b935050505090565b83838383604051602001612b1691815260200190565b604051602081830303815290604052600084604051602001612b389190613f3d565b60408051601f1981840301815291905280516020909101209050600080828152600f602052604090205460ff166002811115612b7657612b7661398f565b14612b935760405162461bcd60e51b81526004016108f990613f74565b60008284604051602001612ba8929190613fa9565b60408051601f19818403018152908290528051602091820120808352925060008051602061419d833981519152910160405180910390a16000612bec828789612394565b6012805460ff1916821515179055905080612c1f5760405182815260008051602061417d83398151915290602001610d37565b6000838152600f6020526040908190205490516000805160206141bd83398151915291612c559160ff90911690869089906139c7565b60405180910390a1612c6783866134b6565b60008b604051602001612c7a9190613f3d565b6040516020818303038152906040528051906020012090506015548103612d175760405162461bcd60e51b8152602060048201526044602482018190527f416e6f6e4944436f6e74726163743a2043616e6e6f7420757365207468652073908201527f616d65206b6579636861696e20747769636520666f7220746869732066756e636064820152633a34b7b760e11b608482015260a4016108f9565b8860145414612d725760405162461bcd60e51b815260206004820152602160248201527f416e6f6e4944436f6e74726163743a204b65797320646f206e6f74206d6174636044820152600d60fb1b60648201526084016108f9565b601554818a600080848152600f602052604090205460ff166002811115612d9b57612d9b61398f565b148015612dc857506000828152600f602052604081205460ff166002811115612dc657612dc661398f565b145b612e2e5760405162461bcd60e51b815260206004820152603160248201527f416e6f6e4944436f6e74726163743a2050726f7669646564206b65797320617260448201527065206e6f74206d6173746572206b65797360781b60648201526084016108f9565b828114158015612e3e5750818114155b612ea75760405162461bcd60e51b815260206004820152603460248201527f416e6f6e4944436f6e74726163743a204d6173746572206b6579732063616e6e6044820152736f742064656c657465207468656d73656c76657360601b60648201526084016108f9565b6000818152600f60205260408120600101549003612f165760405162461bcd60e51b815260206004820152602660248201527f416e6f6e4944436f6e74726163743a204e6f2073756368206b6579202864656c6044820152656574696f6e2960d01b60648201526084016108f9565b60005b600e548110156130045781600e8281548110612f3757612f37613e77565b90600052602060002090600202016001015403612ff2576000828152600f6020818152604080842080548251428186015244818501528351808203850181526060909101938490528051908501209588905293909252630de1e7ed60e41b841860018301819055600260ff198516811790935560ff90931693917f0643be3612916977c69d5ed1abb75a50cca49df49ba2444d836e2a0cf65fe07491612fe291869189918791614135565b60405180910390a1505050613004565b80612ffc81613ea3565b915050612f19565b5050600060148190556015555050505050505050505050505050565b8383838360405160200161303691815260200190565b6040516020818303038152906040526000846040516020016130589190613f3d565b60408051601f1981840301815291905280516020909101209050600080828152600f602052604090205460ff1660028111156130965761309661398f565b146130b35760405162461bcd60e51b81526004016108f990613f74565b600082846040516020016130c8929190613fa9565b60408051601f19818403018152908290528051602091820120808352925060008051602061419d833981519152910160405180910390a1600061310c828789612394565b6012805460ff191682151517905590508061313f5760405182815260008051602061417d83398151915290602001610d37565b6000838152600f6020526040908190205490516000805160206141bd833981519152916131759160ff90911690869089906139c7565b60405180910390a161318783866134b6565b60008b60405160200161319a9190613f3d565b60408051601f1981840301815291905280516020909101206016805460009091559091508114158061320e5760405162461bcd60e51b815260206004820181905260248201527f504b4820646f6573206e6f74206d61746368206c617374207573656420504b4860448201526064016108f9565b6040805160248082018d905282518083039091018152604490910182526020810180516001600160e01b031663866c4b1760e01b17905260065491517f866c4b17874b90200e8c3db8234ea2fd494f2e10e49db71a5f989d59700cc996926000916001600160a01b03909116903490613288908590613f21565b60006040518083038185875af1925050503d80600081146132c5576040519150601f19603f3d011682016040523d82523d6000602084013e6132ca565b606091505b50509050806133255760405162461bcd60e51b815260206004820152602160248201527f43616c6c20746f207570646174654d696e53656c665374616b65206661696c656044820152601960fa1b60648201526084016108f9565b50505050505050505050505050505050565b8383838360405160200161334b9190613f21565b60405160208183030381529060405260008460405160200161336d9190613f3d565b60408051601f1981840301815291905280516020909101209050600080828152600f602052604090205460ff1660028111156133ab576133ab61398f565b146133c85760405162461bcd60e51b81526004016108f990613f74565b600082846040516020016133dd929190613fa9565b60408051601f19818403018152908290528051602091820120808352925060008051602061419d833981519152910160405180910390a16000613421828789612394565b6012805460ff19168215151790559050806134545760405182815260008051602061417d83398151915290602001610d37565b6000838152600f6020526040908190205490516000805160206141bd8339815191529161348a9160ff90911690869089906139c7565b60405180910390a161349c83866134b6565b505085516020909601959095206003555050505050505050565b6000828152600f602052604081206001015490036134e65760405162461bcd60e51b81526004016108f990613e40565b6040805180820182526000848152600f60205291822054819060ff1660028111156135135761351361398f565b815260209081018490526000848152600f90915260409020815181549293508392829060ff1916600183600281111561354e5761354e61398f565b02179055506020918201516001918201556000858152600f90925260408220805460ff19168155018190555b600e548110156136245783600e828154811061359857613598613e77565b906000526020600020906002020160010154036136125781600e82815481106135c3576135c3613e77565b906000526020600020906002020160008201518160000160006101000a81548160ff021916908360028111156135fb576135fb61398f565b021790555060208201518160010155905050613624565b8061361c81613ea3565b91505061357a565b5080516040516000805160206141bd8339815191529161364791869086906139c7565b60405180910390a1505050565b600060405180604001604052808460028111156136735761367361398f565b8152602001839052600e805460018181018355600092909252825160029182027fbb7b4a454dc3493923482f07822329ed19e8244eff582cc204f8554c3620c3fd018054949550859490939192849260ff19909216919084908111156136db576136db61398f565b02179055506020918201516001918201556000848152600f9092526040909120825181548493839160ff19169083600281111561371a5761371a61398f565b0217905550602082015181600101559050507f2172c7b01a6de957d29fd6166a23025d181bf56538ad606a526ab2d62603f3fc83836040516136479291906139e6565b604080518082018252601081526f181899199a1a9b1b9c1cb0b131b232b360811b60208201528151602a80825260608281019094526001600160a01b0385169291600091602082018180368337019050509050600360fc1b816000815181106137c8576137c8613e77565b60200101906001600160f81b031916908160001a905350600f60fb1b816001815181106137f7576137f7613e77565b60200101906001600160f81b031916908160001a90535060005b601481101561278c578260048561382984600c614089565b6020811061383957613839613e77565b1a60f81b6001600160f81b031916901c60f81c60ff168151811061385f5761385f613e77565b01602001516001600160f81b0319168261387a836002614165565b613885906002614089565b8151811061389557613895613e77565b60200101906001600160f81b031916908160001a90535082846138b983600c614089565b602081106138c9576138c9613e77565b825191901a600f169081106138e0576138e0613e77565b01602001516001600160f81b031916826138fb836002614165565b613906906003614089565b8151811061391657613916613e77565b60200101906001600160f81b031916908160001a9053508061393781613ea3565b915050613811565b80356001600160a01b038116811461395657600080fd5b919050565b60006020828403121561396d57600080fd5b6124428261393f565b60006020828403121561398857600080fd5b5035919050565b634e487b7160e01b600052602160045260246000fd5b600381106139c357634e487b7160e01b600052602160045260246000fd5b9052565b606081016139d582866139a5565b602082019390935260400152919050565b604081016139f482856139a5565b8260208301529392505050565b634e487b7160e01b600052604160045260246000fd5b600067ffffffffffffffff80841115613a3257613a32613a01565b604051601f8501601f19908116603f01168101908282118183101715613a5a57613a5a613a01565b81604052809350858152868686011115613a7357600080fd5b858560208301376000602087830101525050509392505050565b60008060408385031215613aa057600080fd5b613aa98361393f565b9150602083013567ffffffffffffffff811115613ac557600080fd5b8301601f81018513613ad657600080fd5b613ae585823560208401613a17565b9150509250929050565b806140008101831015613b0157600080fd5b92915050565b806120008101831015613b0157600080fd5b6000806000806140608587031215613b3057600080fd5b613b3a8686613aef565b935061400085013567ffffffffffffffff811115613b5757600080fd5b613b6387828801613b07565b9497949650505050614020830135926140400135919050565b6000806000806140608587031215613b9357600080fd5b613b9d8686613aef565b935061400085013567ffffffffffffffff80821115613bbb57600080fd5b613bc788838901613b07565b94506140208701359350614040870135915080821115613be657600080fd5b508501601f81018713613bf857600080fd5b613c0787823560208401613a17565b91505092959194509250565b6000806000806140608587031215613c2a57600080fd5b613c338561393f565b9350613c428660208701613aef565b925061402085013567ffffffffffffffff811115613c5f57600080fd5b613c6b87828801613b07565b94979396509394614040013593505050565b6000806000806140608587031215613c9457600080fd5b613c9e8686613aef565b935061400085013567ffffffffffffffff811115613cbb57600080fd5b613cc787828801613b07565b9350506140208501359150613cdf614040860161393f565b905092959194509250565b60008060408385031215613cfd57600080fd5b613d068361393f565b946020939093013593505050565b6000806000806140608587031215613d2b57600080fd5b613d358686613aef565b9350614000850135925061402085013567ffffffffffffffff811115613c5f57600080fd5b60008060006140408486031215613d7057600080fd5b83359250602084013567ffffffffffffffff811115613d8e57600080fd5b613d9a86828701613b07565b925050613daa8560408601613aef565b90509250925092565b6000806000806140608587031215613dca57600080fd5b84359350613c428660208701613aef565b600060208284031215613ded57600080fd5b81356003811061244257600080fd5b6020808252825182820181905260009190848201906040850190845b81811015613e3457835183529284019291840191600101613e18565b50909695505050505050565b6020808252601b908201527f416e6f6e4944436f6e74726163743a204e6f2073756368206b65790000000000604082015260600190565b634e487b7160e01b600052603260045260246000fd5b634e487b7160e01b600052601160045260246000fd5b600060018201613eb557613eb5613e8d565b5060010190565b60208082526021908201527f4e6f74207065726d697474656420746f206d6f646966792077686974656c69736040820152601d60fa1b606082015260800190565b60005b83811015613f18578181015183820152602001613f00565b50506000910152565b60008251613f33818460208701613efd565b9190910192915050565b60008183825b610100811015613f6457604080838537928301929190910190600101613f43565b5050506140008201905092915050565b6020808252818101527f416e6f6e4944436f6e74726163743a204e6f742061206d6173746572206b6579604082015260600190565b60008351613fbb818460208801613efd565b9190910191825250602001919050565b60609190911b6bffffffffffffffffffffffff1916815260140190565b7f4f6e6c7920546865526f636b2063616e2063616c6c20746869732066756e637481526c034b7b7171021b0b63632b91d1609d1b60208201526000825161403681602d850160208701613efd565b91909101602d0192915050565b6020815260008251806020840152614062816040850160208701613efd565b601f01601f19169190910160400192915050565b81810381811115613b0157613b01613e8d565b80820180821115613b0157613b01613e8d565b6000826140b957634e487b7160e01b600052601260045260246000fd5b500690565b6000808335601e198436030181126140d557600080fd5b83018035915067ffffffffffffffff8211156140f057600080fd5b60200191503681900382131561410557600080fd5b9250929050565b8183823760009101908152919050565b60006020828403121561412e57600080fd5b5051919050565b6080810161414382876139a5565b84602083015283604083015261415c60608301846139a5565b95945050505050565b8082028115828204841417613b0157613b01613e8d56fe32629d580208e19f97e5752eef849e102f803999c88aa7f75e12b1744eecd5a7d87e68f36f73a7eb22739d6639e36cafebfcde0b5543340b39f42cac68fdd1f06825a39bd161f4ef5aab6cfd2c26db3ee0005c11b43cffd544fc876312116edda2646970667358221220217f503eb8c80df352daaeb3735f046df1b6be4695436bfe3f1adf35da696cc364736f6c63430008150033","bytecodeSha1":"5ce9ee8f8b89ef82ef772130f39c15dfc42ee9df","type":"contract","abi":[{"inputs":[],"stateMutability":"nonpayable","type":"constructor","name":"constructor"},{"anonymous":false,"inputs":[{"indexed":true,"internalType":"address","name":"userAddress","type":"address"},{"indexed":false,"internalType":"uint256","name":"lastClaimValue","type":"uint256"},{"indexed":false,"internalType":"uint256","name":"minutesPlayed","type":"uint256"}],"name":"ClaimedGP","type":"event"},{"anonymous":false,"inputs":[{"indexed":true,"internalType":"address","name":"newCommissionAddress","type":"address"}],"name":"CommissionAddressSet","type":"event"},{"anonymous":false,"inputs":[{"indexed":false,"internalType":"uint256","name":"newCoinCommission","type":"uint256"}],"name":"CommissionSet","type":"event"},{"anonymous":false,"inputs":[{"indexed":false,"internalType":"address","name":"contractAddress","type":"address"}],"name":"ContractPermissionGranted","type":"event"},{"anonymous":false,"inputs":[{"indexed":false,"internalType":"address","name":"contractAddress","type":"address"}],"name":"ContractPermissionRevoked","type":"event"},{"anonymous":false,"inputs":[{"indexed":false,"internalType":"uint256","name":"newFreeGasCap","type":"uint256"}],"name":"FreeGasCapSet","type":"event"},{"anonymous":false,"inputs":[{"indexed":false,"internalType":"enum AnonIDContract.KeyType","name":"keyType","type":"uint8"},{"indexed":false,"internalType":"bytes32","name":"newPKH","type":"bytes32"}],"name":"KeyAdded","type":"event"},{"anonymous":false,"inputs":[{"indexed":false,"internalType":"enum AnonIDContract.KeyType","name":"originalKeyType","type":"uint8"},{"indexed":false,"internalType":"bytes32","name":"originalPKH","type":"bytes32"},{"indexed":false,"internalType":"bytes32","name":"modifiedPKH","type":"bytes32"},{"indexed":false,"internalType":"enum AnonIDContract.KeyType","name":"newKeyType","type":"uint8"}],"name":"KeyModified","type":"event"},{"anonymous":false,"inputs":[{"indexed":false,"internalType":"uint256","name":"hash","type":"uint256"}],"name":"LogLastCalculatedHash","type":"event"},{"anonymous":false,"inputs":[{"indexed":true,"internalType":"address","name":"user","type":"address"},{"indexed":false,"internalType":"uint256","name":"_minutes","type":"uint256"}],"name":"MinutesPlayedIncremented","type":"event"},{"anonymous":false,"inputs":[{"indexed":false,"internalType":"enum AnonIDContract.KeyType","name":"keyType","type":"uint8"},{"indexed":false,"internalType":"bytes32","name":"previousPKH","type":"bytes32"},{"indexed":false,"internalType":"bytes32","name":"newPKH","type":"bytes32"}],"name":"PkhUpdated","type":"event"},{"anonymous":false,"inputs":[{"indexed":true,"internalType":"address","name":"_address","type":"address"},{"indexed":false,"internalType":"uint256","name":"_quota","type":"uint256"}],"name":"QuotaSet","type":"event"},{"anonymous":false,"inputs":[{"indexed":true,"internalType":"address","name":"_address","type":"address"}],"name":"RemovedFromWhitelist","type":"event"},{"anonymous":false,"inputs":[{"indexed":true,"internalType":"address","name":"_user","type":"address"},{"indexed":false,"internalType":"uint256","name":"timestamp","type":"uint256"}],"name":"TxRecorded","type":"event"},{"anonymous":false,"inputs":[{"indexed":false,"internalType":"uint256","name":"hashedData","type":"uint256"}],"name":"VerificationFailed","type":"event"},{"anonymous":false,"inputs":[{"indexed":true,"internalType":"address","name":"_address","type":"address"},{"indexed":false,"internalType":"bytes32","name":"hashedID","type":"bytes32"}],"name":"Whitelisted","type":"event"},{"inputs":[],"name":"_coinCommission","outputs":[{"internalType":"uint256","name":"","type":"uint256"}],"stateMutability":"view","type":"function"},{"inputs":[{"internalType":"address","name":"_address","type":"address"},{"internalType":"string","name":"anonID","type":"string"}],"name":"addToWhitelist","outputs":[],"stateMutability":"nonpayable","type":"function"},{"inputs":[{"internalType":"address","name":"","type":"address"}],"name":"addressToHashedID","outputs":[{"internalType":"bytes32","name":"","type":"bytes32"}],"stateMutability":"view","type":"function"},{"inputs":[],"name":"callMinStake","outputs":[{"internalType":"uint256","name":"minStakeValue","type":"uint256"}],"stateMutability":"nonpayable","type":"function"},{"inputs":[],"name":"claimGP","outputs":[],"stateMutability":"nonpayable","type":"function"},{"inputs":[],"name":"coinCommission","outputs":[{"internalType":"uint256","name":"","type":"uint256"}],"stateMutability":"view","type":"function"},{"inputs":[],"name":"commissionAddress","outputs":[{"internalType":"address","name":"","type":"address"}],"stateMutability":"view","type":"function"},{"inputs":[{"internalType":"bytes32[2][256]","name":"currentpub","type":"bytes32[2][256]"},{"internalType":"bytes[256]","name":"sig","type":"bytes[256]"},{"internalType":"bytes32","name":"nextPKH","type":"bytes32"},{"internalType":"bytes","name":"bytecode","type":"bytes"}],"name":"createContractStepOne","outputs":[],"stateMutability":"nonpayable","type":"function"},{"inputs":[{"internalType":"bytes32[2][256]","name":"currentpub","type":"bytes32[2][256]"},{"internalType":"bytes[256]","name":"sig","type":"bytes[256]"},{"internalType":"bytes32","name":"nextPKH","type":"bytes32"},{"internalType":"bytes","name":"bytecode","type":"bytes"}],"name":"createContractStepTwo","outputs":[{"internalType":"address","name":"","type":"address"}],"stateMutability":"nonpayable","type":"function"},{"inputs":[{"internalType":"bytes32[2][256]","name":"currentpub","type":"bytes32[2][256]"},{"internalType":"bytes[256]","name":"sig","type":"bytes[256]"},{"internalType":"bytes32","name":"nextPKH","type":"bytes32"},{"internalType":"bytes","name":"newmasterPKH","type":"bytes"}],"name":"createMasterKeyStepOne","outputs":[],"stateMutability":"nonpayable","type":"function"},{"inputs":[{"internalType":"bytes32[2][256]","name":"currentpub","type":"bytes32[2][256]"},{"internalType":"bytes[256]","name":"sig","type":"bytes[256]"},{"internalType":"bytes32","name":"nextPKH","type":"bytes32"},{"internalType":"bytes32","name":"newmasterPKH","type":"bytes32"}],"name":"createMasterKeyStepTwo","outputs":[],"stateMutability":"nonpayable","type":"function"},{"inputs":[{"internalType":"bytes32[2][256]","name":"currentpub","type":"bytes32[2][256]"},{"internalType":"bytes32","name":"nextPKH","type":"bytes32"},{"internalType":"bytes[256]","name":"sig","type":"bytes[256]"},{"internalType":"bytes32","name":"neworaclePKH","type":"bytes32"}],"name":"createOracleKeyFromMaster","outputs":[],"stateMutability":"nonpayable","type":"function"},{"inputs":[{"internalType":"bytes32[2][256]","name":"currentpub","type":"bytes32[2][256]"},{"internalType":"bytes[256]","name":"sig","type":"bytes[256]"},{"internalType":"bytes32","name":"nextPKH","type":"bytes32"},{"internalType":"bytes32","name":"deleteKeyHash","type":"bytes32"}],"name":"deleteKeyStepOne","outputs":[],"stateMutability":"nonpayable","type":"function"},{"inputs":[{"internalType":"bytes32[2][256]","name":"currentpub","type":"bytes32[2][256]"},{"internalType":"bytes[256]","name":"sig","type":"bytes[256]"},{"internalType":"bytes32","name":"nextPKH","type":"bytes32"},{"internalType":"bytes32","name":"confirmDeleteKeyHash","type":"bytes32"}],"name":"deleteKeyStepTwo","outputs":[],"stateMutability":"nonpayable","type":"function"},{"inputs":[],"name":"freeGasCap","outputs":[{"internalType":"uint256","name":"","type":"uint256"}],"stateMutability":"view","type":"function"},{"inputs":[{"internalType":"bytes32","name":"pkh","type":"bytes32"}],"name":"getKeyAndPosByPKH","outputs":[{"internalType":"enum AnonIDContract.KeyType","name":"","type":"uint8"},{"internalType":"bytes32","name":"","type":"bytes32"},{"internalType":"uint256","name":"","type":"uint256"}],"stateMutability":"view","type":"function"},{"inputs":[{"internalType":"address","name":"user","type":"address"}],"name":"getMinutesPlayed","outputs":[{"internalType":"uint256","name":"","type":"uint256"}],"stateMutability":"view","type":"function"},{"inputs":[{"internalType":"enum AnonIDContract.KeyType","name":"privilege","type":"uint8"}],"name":"getPKHsByPrivilege","outputs":[{"internalType":"bytes32[]","name":"","type":"bytes32[]"}],"stateMutability":"view","type":"function"},{"inputs":[{"internalType":"address","name":"contractAddress","type":"address"},{"internalType":"bytes32[2][256]","name":"currentpub","type":"bytes32[2][256]"},{"internalType":"bytes[256]","name":"sig","type":"bytes[256]"},{"internalType":"bytes32","name":"nextPKH","type":"bytes32"}],"name":"grantActivityContractPermission","outputs":[],"stateMutability":"nonpayable","type":"function"},{"inputs":[{"internalType":"address","name":"","type":"address"}],"name":"hourlyTxQuota","outputs":[{"internalType":"uint256","name":"","type":"uint256"}],"stateMutability":"view","type":"function"},{"inputs":[{"internalType":"address","name":"user","type":"address"},{"internalType":"uint256","name":"_minutes","type":"uint256"}],"name":"incrementMinutesPlayed","outputs":[],"stateMutability":"nonpayable","type":"function"},{"inputs":[{"internalType":"address","name":"","type":"address"}],"name":"isContractPermitted","outputs":[{"internalType":"bool","name":"","type":"bool"}],"stateMutability":"view","type":"function"},{"inputs":[{"internalType":"address","name":"_user","type":"address"}],"name":"isThisTxFree","outputs":[{"internalType":"bool","name":"","type":"bool"}],"stateMutability":"nonpayable","type":"function"},{"inputs":[{"internalType":"address","name":"_address","type":"address"}],"name":"isWhitelisted","outputs":[{"internalType":"bool","name":"","type":"bool"}],"stateMutability":"view","type":"function"},{"inputs":[{"internalType":"bytes32","name":"","type":"bytes32"}],"name":"keyData","outputs":[{"internalType":"enum AnonIDContract.KeyType","name":"keyType","type":"uint8"},{"internalType":"bytes32","name":"pkh","type":"bytes32"}],"stateMutability":"view","type":"function"},{"inputs":[{"internalType":"uint256","name":"","type":"uint256"}],"name":"keys","outputs":[{"internalType":"enum AnonIDContract.KeyType","name":"keyType","type":"uint8"},{"internalType":"bytes32","name":"pkh","type":"bytes32"}],"stateMutability":"view","type":"function"},{"inputs":[{"internalType":"address","name":"","type":"address"}],"name":"lastClaim","outputs":[{"internalType":"uint256","name":"","type":"uint256"}],"stateMutability":"view","type":"function"},{"inputs":[{"internalType":"address","name":"","type":"address"}],"name":"lastLastClaim","outputs":[{"internalType":"uint256","name":"","type":"uint256"}],"stateMutability":"view","type":"function"},{"inputs":[],"name":"lastUsedBytecodeHash","outputs":[{"internalType":"bytes32","name":"","type":"bytes32"}],"stateMutability":"view","type":"function"},{"inputs":[],"name":"lastUsedNextPKH","outputs":[{"internalType":"bytes32","name":"","type":"bytes32"}],"stateMutability":"view","type":"function"},{"inputs":[],"name":"lastVerificationResult","outputs":[{"internalType":"bool","name":"","type":"bool"}],"stateMutability":"view","type":"function"},{"inputs":[{"internalType":"address","name":"","type":"address"}],"name":"minutesPlayed","outputs":[{"internalType":"uint256","name":"","type":"uint256"}],"stateMutability":"view","type":"function"},{"inputs":[{"internalType":"address","name":"_address","type":"address"}],"name":"removeFromWhitelist","outputs":[],"stateMutability":"nonpayable","type":"function"},{"inputs":[{"internalType":"address","name":"contractAddress","type":"address"},{"internalType":"bytes32[2][256]","name":"currentpub","type":"bytes32[2][256]"},{"internalType":"bytes[256]","name":"sig","type":"bytes[256]"},{"internalType":"bytes32","name":"nextPKH","type":"bytes32"}],"name":"revokeActivityContractPermission","outputs":[],"stateMutability":"nonpayable","type":"function"},{"inputs":[{"internalType":"bytes32[2][256]","name":"currentpub","type":"bytes32[2][256]"},{"internalType":"bytes[256]","name":"sig","type":"bytes[256]"},{"internalType":"bytes32","name":"nextPKH","type":"bytes32"},{"internalType":"uint256","name":"newCoinCommission","type":"uint256"}],"name":"setCoinCommissionStepOne","outputs":[],"stateMutability":"nonpayable","type":"function"},{"inputs":[{"internalType":"bytes32[2][256]","name":"currentpub","type":"bytes32[2][256]"},{"internalType":"bytes[256]","name":"sig","type":"bytes[256]"},{"internalType":"bytes32","name":"nextPKH","type":"bytes32"},{"internalType":"uint256","name":"newCoinCommission","type":"uint256"}],"name":"setCoinCommissionStepTwo","outputs":[],"stateMutability":"nonpayable","type":"function"},{"inputs":[{"internalType":"bytes32[2][256]","name":"currentpub","type":"bytes32[2][256]"},{"internalType":"bytes[256]","name":"sig","type":"bytes[256]"},{"internalType":"bytes32","name":"nextPKH","type":"bytes32"},{"internalType":"address","name":"newCommissionAddress","type":"address"}],"name":"setCommissionAddressStepOne","outputs":[],"stateMutability":"nonpayable","type":"function"},{"inputs":[{"internalType":"bytes32[2][256]","name":"currentpub","type":"bytes32[2][256]"},{"internalType":"bytes[256]","name":"sig","type":"bytes[256]"},{"internalType":"bytes32","name":"nextPKH","type":"bytes32"},{"internalType":"address","name":"newCommissionAddress","type":"address"}],"name":"setCommissionAddressStepTwo","outputs":[],"stateMutability":"nonpayable","type":"function"},{"inputs":[{"internalType":"uint256","name":"_newCap","type":"uint256"},{"internalType":"bytes32[2][256]","name":"currentpub","type":"bytes32[2][256]"},{"internalType":"bytes[256]","name":"sig","type":"bytes[256]"},{"internalType":"bytes32","name":"nextPKH","type":"bytes32"}],"name":"setFreeGasCap","outputs":[],"stateMutability":"nonpayable","type":"function"},{"inputs":[{"internalType":"address","name":"_address","type":"address"},{"internalType":"uint256","name":"_quota","type":"uint256"}],"name":"setHourlyTxQuota","outputs":[],"stateMutability":"nonpayable","type":"function"},{"inputs":[{"internalType":"bytes32[2][256]","name":"currentpub","type":"bytes32[2][256]"},{"internalType":"bytes[256]","name":"sig","type":"bytes[256]"},{"internalType":"bytes32","name":"nextPKH","type":"bytes32"},{"internalType":"bytes","name":"newMinStake","type":"bytes"}],"name":"updateMinStakeStepOne","outputs":[],"stateMutability":"nonpayable","type":"function"},{"inputs":[{"internalType":"bytes32[2][256]","name":"currentpub","type":"bytes32[2][256]"},{"internalType":"bytes[256]","name":"sig","type":"bytes[256]"},{"internalType":"bytes32","name":"nextPKH","type":"bytes32"},{"internalType":"bytes32","name":"newMinStake","type":"bytes32"}],"name":"updateMinStakeStepTwo","outputs":[],"stateMutability":"payable","type":"function"},{"inputs":[{"internalType":"uint256","name":"bits","type":"uint256"},{"internalType":"bytes[256]","name":"sig","type":"bytes[256]"},{"internalType":"bytes32[2][256]","name":"pub","type":"bytes32[2][256]"}],"name":"verify_u256","outputs":[{"internalType":"bool","name":"","type":"bool"}],"stateMutability":"pure","type":"function"},{"inputs":[{"internalType":"address","name":"","type":"address"}],"name":"whitelist","outputs":[{"internalType":"bool","name":"","type":"bool"}],"stateMutability":"view","type":"function"}],"compiler":{"version":"0.8.21+commit.d9974bed","evm_version":"istanbul","optimizer":{"enabled":true,"runs":200}},"contractName":"AnonIDContract","language":"Solidity","natspec":{"methods":{},"kind":"dev","version":1},"opcodes":"PUSH1 0x80 PUSH1 0x40 MSTORE PUSH1 0x4 CALLDATASIZE LT PUSH2 0x267 JUMPI PUSH1 0x0 CALLDATALOAD PUSH1 0xE0 SHR DUP1 PUSH4 0x8705D945 GT PUSH2 0x144 JUMPI DUP1 PUSH4 0xB3910C9F GT PUSH2 0xB6 JUMPI DUP1 PUSH4 0xD83C413C GT PUSH2 0x7A JUMPI DUP1 PUSH4 0xD83C413C EQ PUSH2 0x7CA JUMPI DUP1 PUSH4 0xE256D9A6 EQ PUSH2 0x7EA JUMPI DUP1 PUSH4 0xE673D71F EQ PUSH2 0x7FF JUMPI DUP1 PUSH4 0xE8F3C92B EQ PUSH2 0x81F JUMPI DUP1 PUSH4 0xF82E84FD EQ PUSH2 0x832 JUMPI DUP1 PUSH4 0xFB632D89 EQ PUSH2 0x852 JUMPI PUSH1 0x0 DUP1 REVERT JUMPDEST DUP1 PUSH4 0xB3910C9F EQ PUSH2 0x71A JUMPI DUP1 PUSH4 0xB889B2B7 EQ PUSH2 0x73A JUMPI DUP1 PUSH4 0xB97B4F77 EQ PUSH2 0x750 JUMPI DUP1 PUSH4 0xBA690677 EQ PUSH2 0x77D JUMPI DUP1 PUSH4 0xD47B2E99 EQ PUSH2 0x7AA JUMPI PUSH1 0x0 DUP1 REVERT JUMPDEST DUP1 PUSH4 0x931742D3 GT PUSH2 0x108 JUMPI DUP1 PUSH4 0x931742D3 EQ PUSH2 0x632 JUMPI DUP1 PUSH4 0x9B19251A EQ PUSH2 0x650 JUMPI DUP1 PUSH4 0xA9711EE3 EQ PUSH2 0x680 JUMPI DUP1 PUSH4 0xAE61D2C2 EQ PUSH2 0x6BA JUMPI DUP1 PUSH4 0xAEC43F5A EQ PUSH2 0x6DA JUMPI DUP1 PUSH4 0xAF82F3E7 EQ PUSH2 0x6FA JUMPI PUSH1 0x0 DUP1 REVERT JUMPDEST DUP1 PUSH4 0x8705D945 EQ PUSH2 0x5BD JUMPI DUP1 PUSH4 0x8775B01F EQ PUSH2 0x5D2 JUMPI DUP1 PUSH4 0x894A1E8E EQ PUSH2 0x408 JUMPI DUP1 PUSH4 0x8AB1D681 EQ PUSH2 0x5F2 JUMPI DUP1 PUSH4 0x8EB8F1A6 EQ PUSH2 0x612 JUMPI PUSH1 0x0 DUP1 REVERT JUMPDEST DUP1 PUSH4 0x4E657D2A GT PUSH2 0x1DD JUMPI DUP1 PUSH4 0x5C16E15E GT PUSH2 0x1A1 JUMPI DUP1 PUSH4 0x5C16E15E EQ PUSH2 0x4B5 JUMPI DUP1 PUSH4 0x6118B1C3 EQ PUSH2 0x4E2 JUMPI DUP1 PUSH4 0x6C8DD0BD EQ PUSH2 0x502 JUMPI DUP1 PUSH4 0x753AC6DC EQ PUSH2 0x52F JUMPI DUP1 PUSH4 0x787325CA EQ PUSH2 0x567 JUMPI DUP1 PUSH4 0x7E08DEAE EQ PUSH2 0x59D JUMPI PUSH1 0x0 DUP1 REVERT JUMPDEST DUP1 PUSH4 0x4E657D2A EQ PUSH2 0x408 JUMPI DUP1 PUSH4 0x4FBBC63F EQ PUSH2 0x428 JUMPI DUP1 PUSH4 0x5325758E EQ PUSH2 0x455 JUMPI DUP1 PUSH4 0x5796841A EQ PUSH2 0x475 JUMPI DUP1 PUSH4 0x5961F500 EQ PUSH2 0x495 JUMPI PUSH1 0x0 DUP1 REVERT JUMPDEST DUP1 PUSH4 0x2FD5C247 GT PUSH2 0x22F JUMPI DUP1 PUSH4 0x2FD5C247 EQ PUSH2 0x345 JUMPI DUP1 PUSH4 0x3337DB52 EQ PUSH2 0x35F JUMPI DUP1 PUSH4 0x3AF32ABF EQ PUSH2 0x383 JUMPI DUP1 PUSH4 0x3E13566B EQ PUSH2 0x3BC JUMPI DUP1 PUSH4 0x4A672870 EQ PUSH2 0x3D2 JUMPI DUP1 PUSH4 0x4BDD4499 EQ PUSH2 0x3F2 JUMPI PUSH1 0x0 DUP1 REVERT JUMPDEST DUP1 PUSH4 0x3545EAC EQ PUSH2 0x26C JUMPI DUP1 PUSH4 0x5AACC7D EQ PUSH2 0x2B1 JUMPI DUP1 PUSH4 0xCB6AAF1 EQ PUSH2 0x2E0 JUMPI DUP1 PUSH4 0x142EB8C8 EQ PUSH2 0x30E JUMPI DUP1 PUSH4 0x1A533DAA EQ PUSH2 0x325 JUMPI JUMPDEST PUSH1 0x0 DUP1 REVERT JUMPDEST CALLVALUE DUP1 ISZERO PUSH2 0x278 JUMPI PUSH1 0x0 DUP1 REVERT JUMPDEST POP PUSH2 0x29C PUSH2 0x287 CALLDATASIZE PUSH1 0x4 PUSH2 0x395B JUMP JUMPDEST PUSH1 0x8 PUSH1 0x20 MSTORE PUSH1 0x0 SWAP1 DUP2 MSTORE PUSH1 0x40 SWAP1 KECCAK256 SLOAD PUSH1 0xFF AND DUP2 JUMP JUMPDEST PUSH1 0x40 MLOAD SWAP1 ISZERO ISZERO DUP2 MSTORE PUSH1 0x20 ADD JUMPDEST PUSH1 0x40 MLOAD DUP1 SWAP2 SUB SWAP1 RETURN JUMPDEST CALLVALUE DUP1 ISZERO PUSH2 0x2BD JUMPI PUSH1 0x0 DUP1 REVERT JUMPDEST POP PUSH2 0x2D1 PUSH2 0x2CC CALLDATASIZE PUSH1 0x4 PUSH2 0x3976 JUMP JUMPDEST PUSH2 0x87F JUMP JUMPDEST PUSH1 0x40 MLOAD PUSH2 0x2A8 SWAP4 SWAP3 SWAP2 SWAP1 PUSH2 0x39C7 JUMP JUMPDEST CALLVALUE DUP1 ISZERO PUSH2 0x2EC JUMPI PUSH1 0x0 DUP1 REVERT JUMPDEST POP PUSH2 0x300 PUSH2 0x2FB CALLDATASIZE PUSH1 0x4 PUSH2 0x3976 JUMP JUMPDEST PUSH2 0x981 JUMP JUMPDEST PUSH1 0x40 MLOAD PUSH2 0x2A8 SWAP3 SWAP2 SWAP1 PUSH2 0x39E6 JUMP JUMPDEST CALLVALUE DUP1 ISZERO PUSH2 0x31A JUMPI PUSH1 0x0 DUP1 REVERT JUMPDEST POP PUSH2 0x323 PUSH2 0x9B3 JUMP JUMPDEST STOP JUMPDEST CALLVALUE DUP1 ISZERO PUSH2 0x331 JUMPI PUSH1 0x0 DUP1 REVERT JUMPDEST POP PUSH2 0x323 PUSH2 0x340 CALLDATASIZE PUSH1 0x4 PUSH2 0x3A8D JUMP JUMPDEST PUSH2 0xAEF JUMP JUMPDEST CALLVALUE DUP1 ISZERO PUSH2 0x351 JUMPI PUSH1 0x0 DUP1 REVERT JUMPDEST POP PUSH1 0x12 SLOAD PUSH2 0x29C SWAP1 PUSH1 0xFF AND DUP2 JUMP JUMPDEST CALLVALUE DUP1 ISZERO PUSH2 0x36B JUMPI PUSH1 0x0 DUP1 REVERT JUMPDEST POP PUSH2 0x375 PUSH1 0x1 SLOAD DUP2 JUMP JUMPDEST PUSH1 0x40 MLOAD SWAP1 DUP2 MSTORE PUSH1 0x20 ADD PUSH2 0x2A8 JUMP JUMPDEST CALLVALUE DUP1 ISZERO PUSH2 0x38F JUMPI PUSH1 0x0 DUP1 REVERT JUMPDEST POP PUSH2 0x29C PUSH2 0x39E CALLDATASIZE PUSH1 0x4 PUSH2 0x395B JUMP JUMPDEST PUSH1 0x1 PUSH1 0x1 PUSH1 0xA0 SHL SUB AND PUSH1 0x0 SWAP1 DUP2 MSTORE PUSH1 0x9 PUSH1 0x20 MSTORE PUSH1 0x40 SWAP1 KECCAK256 SLOAD PUSH1 0xFF AND SWAP1 JUMP JUMPDEST CALLVALUE DUP1 ISZERO PUSH2 0x3C8 JUMPI PUSH1 0x0 DUP1 REVERT JUMPDEST POP PUSH2 0x375 PUSH1 0x3 SLOAD DUP2 JUMP JUMPDEST CALLVALUE DUP1 ISZERO PUSH2 0x3DE JUMPI PUSH1 0x0 DUP1 REVERT JUMPDEST POP PUSH2 0x323 PUSH2 0x3ED CALLDATASIZE PUSH1 0x4 PUSH2 0x3B19 JUMP JUMPDEST PUSH2 0xC1C JUMP JUMPDEST CALLVALUE DUP1 ISZERO PUSH2 0x3FE JUMPI PUSH1 0x0 DUP1 REVERT JUMPDEST POP PUSH2 0x375 PUSH1 0x16 SLOAD DUP2 JUMP JUMPDEST CALLVALUE DUP1 ISZERO PUSH2 0x414 JUMPI PUSH1 0x0 DUP1 REVERT JUMPDEST POP PUSH2 0x323 PUSH2 0x423 CALLDATASIZE PUSH1 0x4 PUSH2 0x3B7C JUMP JUMPDEST PUSH2 0xDED JUMP JUMPDEST CALLVALUE DUP1 ISZERO PUSH2 0x434 JUMPI PUSH1 0x0 DUP1 REVERT JUMPDEST POP PUSH2 0x375 PUSH2 0x443 CALLDATASIZE PUSH1 0x4 PUSH2 0x395B JUMP JUMPDEST PUSH1 0xC PUSH1 0x20 MSTORE PUSH1 0x0 SWAP1 DUP2 MSTORE PUSH1 0x40 SWAP1 KECCAK256 SLOAD DUP2 JUMP JUMPDEST CALLVALUE DUP1 ISZERO PUSH2 0x461 JUMPI PUSH1 0x0 DUP1 REVERT JUMPDEST POP PUSH2 0x323 PUSH2 0x470 CALLDATASIZE PUSH1 0x4 PUSH2 0x3C13 JUMP JUMPDEST PUSH2 0xF64 JUMP JUMPDEST CALLVALUE DUP1 ISZERO PUSH2 0x481 JUMPI PUSH1 0x0 DUP1 REVERT JUMPDEST POP PUSH2 0x323 PUSH2 0x490 CALLDATASIZE PUSH1 0x4 PUSH2 0x3B19 JUMP JUMPDEST PUSH2 0x10F6 JUMP JUMPDEST CALLVALUE DUP1 ISZERO PUSH2 0x4A1 JUMPI PUSH1 0x0 DUP1 REVERT JUMPDEST POP PUSH2 0x323 PUSH2 0x4B0 CALLDATASIZE PUSH1 0x4 PUSH2 0x3C7D JUMP JUMPDEST PUSH2 0x1335 JUMP JUMPDEST CALLVALUE DUP1 ISZERO PUSH2 0x4C1 JUMPI PUSH1 0x0 DUP1 REVERT JUMPDEST POP PUSH2 0x375 PUSH2 0x4D0 CALLDATASIZE PUSH1 0x4 PUSH2 0x395B JUMP JUMPDEST PUSH1 0xB PUSH1 0x20 MSTORE PUSH1 0x0 SWAP1 DUP2 MSTORE PUSH1 0x40 SWAP1 KECCAK256 SLOAD DUP2 JUMP JUMPDEST CALLVALUE DUP1 ISZERO PUSH2 0x4EE JUMPI PUSH1 0x0 DUP1 REVERT JUMPDEST POP PUSH2 0x323 PUSH2 0x4FD CALLDATASIZE PUSH1 0x4 PUSH2 0x3CEA JUMP JUMPDEST PUSH2 0x1592 JUMP JUMPDEST CALLVALUE DUP1 ISZERO PUSH2 0x50E JUMPI PUSH1 0x0 DUP1 REVERT JUMPDEST POP PUSH2 0x375 PUSH2 0x51D CALLDATASIZE PUSH1 0x4 PUSH2 0x395B JUMP JUMPDEST PUSH1 0xA PUSH1 0x20 MSTORE PUSH1 0x0 SWAP1 DUP2 MSTORE PUSH1 0x40 SWAP1 KECCAK256 SLOAD DUP2 JUMP JUMPDEST CALLVALUE DUP1 ISZERO PUSH2 0x53B JUMPI PUSH1 0x0 DUP1 REVERT JUMPDEST POP PUSH2 0x54F PUSH2 0x54A CALLDATASIZE PUSH1 0x4 PUSH2 0x3B7C JUMP JUMPDEST PUSH2 0x16CB JUMP JUMPDEST PUSH1 0x40 MLOAD PUSH1 0x1 PUSH1 0x1 PUSH1 0xA0 SHL SUB SWAP1 SWAP2 AND DUP2 MSTORE PUSH1 0x20 ADD PUSH2 0x2A8 JUMP JUMPDEST CALLVALUE DUP1 ISZERO PUSH2 0x573 JUMPI PUSH1 0x0 DUP1 REVERT JUMPDEST POP PUSH2 0x375 PUSH2 0x582 CALLDATASIZE PUSH1 0x4 PUSH2 0x395B JUMP JUMPDEST PUSH1 0x1 PUSH1 0x1 PUSH1 0xA0 SHL SUB AND PUSH1 0x0 SWAP1 DUP2 MSTORE PUSH1 0xA PUSH1 0x20 MSTORE PUSH1 0x40 SWAP1 KECCAK256 SLOAD SWAP1 JUMP JUMPDEST CALLVALUE DUP1 ISZERO PUSH2 0x5A9 JUMPI PUSH1 0x0 DUP1 REVERT JUMPDEST POP PUSH2 0x323 PUSH2 0x5B8 CALLDATASIZE PUSH1 0x4 PUSH2 0x3B19 JUMP JUMPDEST PUSH2 0x191A JUMP JUMPDEST CALLVALUE DUP1 ISZERO PUSH2 0x5C9 JUMPI PUSH1 0x0 DUP1 REVERT JUMPDEST POP PUSH1 0x1 SLOAD PUSH2 0x375 JUMP JUMPDEST CALLVALUE DUP1 ISZERO PUSH2 0x5DE JUMPI PUSH1 0x0 DUP1 REVERT JUMPDEST POP PUSH2 0x29C PUSH2 0x5ED CALLDATASIZE PUSH1 0x4 PUSH2 0x395B JUMP JUMPDEST PUSH2 0x1BC8 JUMP JUMPDEST CALLVALUE DUP1 ISZERO PUSH2 0x5FE JUMPI PUSH1 0x0 DUP1 REVERT JUMPDEST POP PUSH2 0x323 PUSH2 0x60D CALLDATASIZE PUSH1 0x4 PUSH2 0x395B JUMP JUMPDEST PUSH2 0x1DD1 JUMP JUMPDEST CALLVALUE DUP1 ISZERO PUSH2 0x61E JUMPI PUSH1 0x0 DUP1 REVERT JUMPDEST POP PUSH2 0x323 PUSH2 0x62D CALLDATASIZE PUSH1 0x4 PUSH2 0x3D14 JUMP JUMPDEST PUSH2 0x1EBE JUMP JUMPDEST CALLVALUE DUP1 ISZERO PUSH2 0x63E JUMPI PUSH1 0x0 DUP1 REVERT JUMPDEST POP PUSH1 0x5 SLOAD PUSH1 0x1 PUSH1 0x1 PUSH1 0xA0 SHL SUB AND PUSH2 0x54F JUMP JUMPDEST CALLVALUE DUP1 ISZERO PUSH2 0x65C JUMPI PUSH1 0x0 DUP1 REVERT JUMPDEST POP PUSH2 0x29C PUSH2 0x66B CALLDATASIZE PUSH1 0x4 PUSH2 0x395B JUMP JUMPDEST PUSH1 0x9 PUSH1 0x20 MSTORE PUSH1 0x0 SWAP1 DUP2 MSTORE PUSH1 0x40 SWAP1 KECCAK256 SLOAD PUSH1 0xFF AND DUP2 JUMP JUMPDEST CALLVALUE DUP1 ISZERO PUSH2 0x68C JUMPI PUSH1 0x0 DUP1 REVERT JUMPDEST POP PUSH2 0x300 PUSH2 0x69B CALLDATASIZE PUSH1 0x4 PUSH2 0x3976 JUMP JUMPDEST PUSH1 0xF PUSH1 0x20 MSTORE PUSH1 0x0 SWAP1 DUP2 MSTORE PUSH1 0x40 SWAP1 KECCAK256 DUP1 SLOAD PUSH1 0x1 SWAP1 SWAP2 ADD SLOAD PUSH1 0xFF SWAP1 SWAP2 AND SWAP1 DUP3 JUMP JUMPDEST CALLVALUE DUP1 ISZERO PUSH2 0x6C6 JUMPI PUSH1 0x0 DUP1 REVERT JUMPDEST POP PUSH2 0x323 PUSH2 0x6D5 CALLDATASIZE PUSH1 0x4 PUSH2 0x3C7D JUMP JUMPDEST PUSH2 0x203D JUMP JUMPDEST CALLVALUE DUP1 ISZERO PUSH2 0x6E6 JUMPI PUSH1 0x0 DUP1 REVERT JUMPDEST POP PUSH2 0x323 PUSH2 0x6F5 CALLDATASIZE PUSH1 0x4 PUSH2 0x3C13 JUMP JUMPDEST PUSH2 0x21DB JUMP JUMPDEST CALLVALUE DUP1 ISZERO PUSH2 0x706 JUMPI PUSH1 0x0 DUP1 REVERT JUMPDEST POP PUSH2 0x29C PUSH2 0x715 CALLDATASIZE PUSH1 0x4 PUSH2 0x3D5A JUMP JUMPDEST PUSH2 0x2394 JUMP JUMPDEST CALLVALUE DUP1 ISZERO PUSH2 0x726 JUMPI PUSH1 0x0 DUP1 REVERT JUMPDEST POP PUSH2 0x323 PUSH2 0x735 CALLDATASIZE PUSH1 0x4 PUSH2 0x3DB3 JUMP JUMPDEST PUSH2 0x2449 JUMP JUMPDEST CALLVALUE DUP1 ISZERO PUSH2 0x746 JUMPI PUSH1 0x0 DUP1 REVERT JUMPDEST POP PUSH2 0x375 PUSH1 0x0 SLOAD DUP2 JUMP JUMPDEST CALLVALUE DUP1 ISZERO PUSH2 0x75C JUMPI PUSH1 0x0 DUP1 REVERT JUMPDEST POP PUSH2 0x770 PUSH2 0x76B CALLDATASIZE PUSH1 0x4 PUSH2 0x3DDB JUMP JUMPDEST PUSH2 0x25E5 JUMP JUMPDEST PUSH1 0x40 MLOAD PUSH2 0x2A8 SWAP2 SWAP1 PUSH2 0x3DFC JUMP JUMPDEST CALLVALUE DUP1 ISZERO PUSH2 0x789 JUMPI PUSH1 0x0 DUP1 REVERT JUMPDEST POP PUSH2 0x375 PUSH2 0x798 CALLDATASIZE PUSH1 0x4 PUSH2 0x395B JUMP JUMPDEST PUSH1 0xD PUSH1 0x20 MSTORE PUSH1 0x0 SWAP1 DUP2 MSTORE PUSH1 0x40 SWAP1 KECCAK256 SLOAD DUP2 JUMP JUMPDEST CALLVALUE DUP1 ISZERO PUSH2 0x7B6 JUMPI PUSH1 0x0 DUP1 REVERT JUMPDEST POP PUSH2 0x323 PUSH2 0x7C5 CALLDATASIZE PUSH1 0x4 PUSH2 0x3CEA JUMP JUMPDEST PUSH2 0x2795 JUMP JUMPDEST CALLVALUE DUP1 ISZERO PUSH2 0x7D6 JUMPI PUSH1 0x0 DUP1 REVERT JUMPDEST POP PUSH2 0x323 PUSH2 0x7E5 CALLDATASIZE PUSH1 0x4 PUSH2 0x3B19 JUMP JUMPDEST PUSH2 0x286B JUMP JUMPDEST CALLVALUE DUP1 ISZERO PUSH2 0x7F6 JUMPI PUSH1 0x0 DUP1 REVERT JUMPDEST POP PUSH2 0x375 PUSH2 0x29E9 JUMP JUMPDEST CALLVALUE DUP1 ISZERO PUSH2 0x80B JUMPI PUSH1 0x0 DUP1 REVERT JUMPDEST POP PUSH2 0x323 PUSH2 0x81A CALLDATASIZE PUSH1 0x4 PUSH2 0x3B19 JUMP JUMPDEST PUSH2 0x2B00 JUMP JUMPDEST PUSH2 0x323 PUSH2 0x82D CALLDATASIZE PUSH1 0x4 PUSH2 0x3B19 JUMP JUMPDEST PUSH2 0x3020 JUMP JUMPDEST CALLVALUE DUP1 ISZERO PUSH2 0x83E JUMPI PUSH1 0x0 DUP1 REVERT JUMPDEST POP PUSH2 0x323 PUSH2 0x84D CALLDATASIZE PUSH1 0x4 PUSH2 0x3B7C JUMP JUMPDEST PUSH2 0x3337 JUMP JUMPDEST CALLVALUE DUP1 ISZERO PUSH2 0x85E JUMPI PUSH1 0x0 DUP1 REVERT JUMPDEST POP PUSH2 0x375 PUSH2 0x86D CALLDATASIZE PUSH1 0x4 PUSH2 0x395B JUMP JUMPDEST PUSH1 0x4 PUSH1 0x20 MSTORE PUSH1 0x0 SWAP1 DUP2 MSTORE PUSH1 0x40 SWAP1 KECCAK256 SLOAD DUP2 JUMP JUMPDEST PUSH1 0x0 DUP2 DUP2 MSTORE PUSH1 0xF PUSH1 0x20 MSTORE PUSH1 0x40 DUP1 DUP3 KECCAK256 DUP2 MLOAD DUP1 DUP4 ADD SWAP1 SWAP3 MSTORE DUP1 SLOAD DUP4 SWAP3 DUP4 SWAP3 DUP4 SWAP3 DUP3 SWAP1 PUSH1 0xFF AND PUSH1 0x2 DUP2 GT ISZERO PUSH2 0x8B4 JUMPI PUSH2 0x8B4 PUSH2 0x398F JUMP JUMPDEST PUSH1 0x2 DUP2 GT ISZERO PUSH2 0x8C5 JUMPI PUSH2 0x8C5 PUSH2 0x398F JUMP JUMPDEST DUP2 MSTORE PUSH1 0x1 SWAP2 SWAP1 SWAP2 ADD SLOAD PUSH1 0x20 SWAP2 DUP3 ADD MSTORE DUP2 ADD MLOAD SWAP1 SWAP2 POP PUSH1 0x0 SUB PUSH2 0x902 JUMPI PUSH1 0x40 MLOAD PUSH3 0x461BCD PUSH1 0xE5 SHL DUP2 MSTORE PUSH1 0x4 ADD PUSH2 0x8F9 SWAP1 PUSH2 0x3E40 JUMP JUMPDEST PUSH1 0x40 MLOAD DUP1 SWAP2 SUB SWAP1 REVERT JUMPDEST PUSH1 0x0 JUMPDEST PUSH1 0xE SLOAD DUP2 LT ISZERO PUSH2 0x961 JUMPI DUP6 PUSH1 0xE DUP3 DUP2 SLOAD DUP2 LT PUSH2 0x923 JUMPI PUSH2 0x923 PUSH2 0x3E77 JUMP JUMPDEST SWAP1 PUSH1 0x0 MSTORE PUSH1 0x20 PUSH1 0x0 KECCAK256 SWAP1 PUSH1 0x2 MUL ADD PUSH1 0x1 ADD SLOAD SUB PUSH2 0x94F JUMPI DUP2 MLOAD PUSH1 0x20 SWAP1 SWAP3 ADD MLOAD SWAP2 SWAP5 POP SWAP1 SWAP3 POP SWAP1 POP PUSH2 0x97A JUMP JUMPDEST DUP1 PUSH2 0x959 DUP2 PUSH2 0x3EA3 JUMP JUMPDEST SWAP2 POP POP PUSH2 0x905 JUMP JUMPDEST POP PUSH1 0x40 MLOAD PUSH3 0x461BCD PUSH1 0xE5 SHL DUP2 MSTORE PUSH1 0x4 ADD PUSH2 0x8F9 SWAP1 PUSH2 0x3E40 JUMP JUMPDEST SWAP2 SWAP4 SWAP1 SWAP3 POP JUMP JUMPDEST PUSH1 0xE DUP2 DUP2 SLOAD DUP2 LT PUSH2 0x991 JUMPI PUSH1 0x0 DUP1 REVERT JUMPDEST PUSH1 0x0 SWAP2 DUP3 MSTORE PUSH1 0x20 SWAP1 SWAP2 KECCAK256 PUSH1 0x2 SWAP1 SWAP2 MUL ADD DUP1 SLOAD PUSH1 0x1 SWAP1 SWAP2 ADD SLOAD PUSH1 0xFF SWAP1 SWAP2 AND SWAP2 POP DUP3 JUMP JUMPDEST CALLER PUSH1 0x0 DUP2 DUP2 MSTORE PUSH1 0x9 PUSH1 0x20 MSTORE PUSH1 0x40 SWAP1 KECCAK256 SLOAD PUSH1 0xFF AND PUSH2 0xA12 JUMPI PUSH1 0x40 MLOAD PUSH3 0x461BCD PUSH1 0xE5 SHL DUP2 MSTORE PUSH1 0x20 PUSH1 0x4 DUP3 ADD MSTORE PUSH1 0x17 PUSH1 0x24 DUP3 ADD MSTORE PUSH32 0x55736572206973206E6F742077686974656C6973746564000000000000000000 PUSH1 0x44 DUP3 ADD MSTORE PUSH1 0x64 ADD PUSH2 0x8F9 JUMP JUMPDEST PUSH1 0x1 PUSH1 0x1 PUSH1 0xA0 SHL SUB DUP2 AND PUSH1 0x0 SWAP1 DUP2 MSTORE PUSH1 0xB PUSH1 0x20 SWAP1 DUP2 MSTORE PUSH1 0x40 DUP1 DUP4 KECCAK256 SLOAD PUSH1 0xC SWAP1 SWAP3 MSTORE SWAP1 SWAP2 KECCAK256 SLOAD DUP1 DUP3 LT ISZERO PUSH2 0xA7E JUMPI PUSH1 0x40 MLOAD PUSH3 0x461BCD PUSH1 0xE5 SHL DUP2 MSTORE PUSH1 0x20 PUSH1 0x4 DUP3 ADD MSTORE PUSH1 0x14 PUSH1 0x24 DUP3 ADD MSTORE PUSH20 0x496E76616C696420636C61696D2076616C756573 PUSH1 0x60 SHL PUSH1 0x44 DUP3 ADD MSTORE PUSH1 0x64 ADD PUSH2 0x8F9 JUMP JUMPDEST PUSH1 0x1 PUSH1 0x1 PUSH1 0xA0 SHL SUB DUP4 AND PUSH1 0x0 DUP2 DUP2 MSTORE PUSH1 0xC PUSH1 0x20 SWAP1 DUP2 MSTORE PUSH1 0x40 DUP1 DUP4 KECCAK256 DUP7 SWAP1 SSTORE PUSH1 0xA DUP1 DUP4 MSTORE DUP2 DUP5 KECCAK256 SLOAD PUSH1 0xB DUP5 MSTORE SWAP4 DUP3 SWAP1 KECCAK256 DUP5 SWAP1 SSTORE DUP3 MSTORE DUP1 MLOAD DUP7 DUP2 MSTORE SWAP2 DUP3 ADD SWAP3 SWAP1 SWAP3 MSTORE PUSH32 0xDC5EC23A202853E756BBB0C4F4CB94DEEA4936FCC71756DA3DDEBF99AABF6C9E SWAP2 ADD JUMPDEST PUSH1 0x40 MLOAD DUP1 SWAP2 SUB SWAP1 LOG2 POP POP POP JUMP JUMPDEST CALLER PUSH1 0x0 SWAP1 DUP2 MSTORE PUSH1 0x8 PUSH1 0x20 MSTORE PUSH1 0x40 SWAP1 KECCAK256 SLOAD PUSH1 0xFF AND PUSH2 0xB1E JUMPI PUSH1 0x40 MLOAD PUSH3 0x461BCD PUSH1 0xE5 SHL DUP2 MSTORE PUSH1 0x4 ADD PUSH2 0x8F9 SWAP1 PUSH2 0x3EBC JUMP JUMPDEST PUSH1 0x0 DUP2 PUSH1 0x40 MLOAD PUSH1 0x20 ADD PUSH2 0xB31 SWAP2 SWAP1 PUSH2 0x3F21 JUMP JUMPDEST PUSH1 0x40 DUP1 MLOAD PUSH1 0x1F NOT DUP2 DUP5 SUB ADD DUP2 MSTORE SWAP2 DUP2 MSTORE DUP2 MLOAD PUSH1 0x20 SWAP3 DUP4 ADD KECCAK256 PUSH1 0x1 PUSH1 0x1 PUSH1 0xA0 SHL SUB DUP7 AND PUSH1 0x0 SWAP1 DUP2 MSTORE PUSH1 0x9 SWAP1 SWAP4 MSTORE SWAP2 KECCAK256 SLOAD SWAP1 SWAP2 POP PUSH1 0xFF AND ISZERO PUSH2 0xBB3 JUMPI PUSH1 0x40 MLOAD PUSH3 0x461BCD PUSH1 0xE5 SHL DUP2 MSTORE PUSH1 0x20 PUSH1 0x4 DUP3 ADD MSTORE PUSH1 0x1B PUSH1 0x24 DUP3 ADD MSTORE PUSH32 0x4164647265737320616C72656164792077686974656C69737465640000000000 PUSH1 0x44 DUP3 ADD MSTORE PUSH1 0x64 ADD PUSH2 0x8F9 JUMP JUMPDEST PUSH1 0x1 PUSH1 0x1 PUSH1 0xA0 SHL SUB DUP4 AND PUSH1 0x0 DUP2 DUP2 MSTORE PUSH1 0x4 PUSH1 0x20 SWAP1 DUP2 MSTORE PUSH1 0x40 DUP1 DUP4 KECCAK256 PUSH1 0x5 SWAP1 SSTORE PUSH1 0x9 DUP3 MSTORE DUP1 DUP4 KECCAK256 DUP1 SLOAD PUSH1 0xFF NOT AND PUSH1 0x1 OR SWAP1 SSTORE PUSH1 0xD DUP3 MSTORE SWAP2 DUP3 SWAP1 KECCAK256 DUP5 SWAP1 SSTORE SWAP1 MLOAD DUP4 DUP2 MSTORE PUSH32 0xC27D38AD1BDB4164D72E05492B5CE6099B4169E9F20B41D3C7CF35C114A64D5B SWAP2 ADD PUSH2 0xAE2 JUMP JUMPDEST DUP4 DUP4 DUP4 DUP4 PUSH1 0x40 MLOAD PUSH1 0x20 ADD PUSH2 0xC32 SWAP2 DUP2 MSTORE PUSH1 0x20 ADD SWAP1 JUMP JUMPDEST PUSH1 0x40 MLOAD PUSH1 0x20 DUP2 DUP4 SUB SUB DUP2 MSTORE SWAP1 PUSH1 0x40 MSTORE PUSH1 0x0 DUP5 PUSH1 0x40 MLOAD PUSH1 0x20 ADD PUSH2 0xC54 SWAP2 SWAP1 PUSH2 0x3F3D JUMP JUMPDEST PUSH1 0x40 DUP1 MLOAD PUSH1 0x1F NOT DUP2 DUP5 SUB ADD DUP2 MSTORE SWAP2 SWAP1 MSTORE DUP1 MLOAD PUSH1 0x20 SWAP1 SWAP2 ADD KECCAK256 SWAP1 POP PUSH1 0x0 DUP1 DUP3 DUP2 MSTORE PUSH1 0xF PUSH1 0x20 MSTORE PUSH1 0x40 SWAP1 KECCAK256 SLOAD PUSH1 0xFF AND PUSH1 0x2 DUP2 GT ISZERO PUSH2 0xC92 JUMPI PUSH2 0xC92 PUSH2 0x398F JUMP JUMPDEST EQ PUSH2 0xCAF JUMPI PUSH1 0x40 MLOAD PUSH3 0x461BCD PUSH1 0xE5 SHL DUP2 MSTORE PUSH1 0x4 ADD PUSH2 0x8F9 SWAP1 PUSH2 0x3F74 JUMP JUMPDEST PUSH1 0x0 DUP3 DUP5 PUSH1 0x40 MLOAD PUSH1 0x20 ADD PUSH2 0xCC4 SWAP3 SWAP2 SWAP1 PUSH2 0x3FA9 JUMP JUMPDEST PUSH1 0x40 DUP1 MLOAD PUSH1 0x1F NOT DUP2 DUP5 SUB ADD DUP2 MSTORE SWAP1 DUP3 SWAP1 MSTORE DUP1 MLOAD PUSH1 0x20 SWAP2 DUP3 ADD KECCAK256 DUP1 DUP4 MSTORE SWAP3 POP PUSH1 0x0 DUP1 MLOAD PUSH1 0x20 PUSH2 0x419D DUP4 CODECOPY DUP2 MLOAD SWAP2 MSTORE SWAP2 ADD PUSH1 0x40 MLOAD DUP1 SWAP2 SUB SWAP1 LOG1 PUSH1 0x0 PUSH2 0xD08 DUP3 DUP8 DUP10 PUSH2 0x2394 JUMP JUMPDEST PUSH1 0x12 DUP1 SLOAD PUSH1 0xFF NOT AND DUP3 ISZERO ISZERO OR SWAP1 SSTORE SWAP1 POP DUP1 PUSH2 0xD93 JUMPI PUSH1 0x40 MLOAD DUP3 DUP2 MSTORE PUSH1 0x0 DUP1 MLOAD PUSH1 0x20 PUSH2 0x417D DUP4 CODECOPY DUP2 MLOAD SWAP2 MSTORE SWAP1 PUSH1 0x20 ADD JUMPDEST PUSH1 0x40 MLOAD DUP1 SWAP2 SUB SWAP1 LOG1 PUSH1 0x40 MLOAD PUSH3 0x461BCD PUSH1 0xE5 SHL DUP2 MSTORE PUSH1 0x20 PUSH1 0x4 DUP3 ADD MSTORE PUSH1 0x23 PUSH1 0x24 DUP3 ADD MSTORE PUSH32 0x416E6F6E4944436F6E74726163743A20566572696669636174696F6E20666169 PUSH1 0x44 DUP3 ADD MSTORE PUSH3 0x1B1959 PUSH1 0xEA SHL PUSH1 0x64 DUP3 ADD MSTORE PUSH1 0x84 ADD PUSH2 0x8F9 JUMP JUMPDEST PUSH1 0x0 DUP4 DUP2 MSTORE PUSH1 0xF PUSH1 0x20 MSTORE PUSH1 0x40 SWAP1 DUP2 SWAP1 KECCAK256 SLOAD SWAP1 MLOAD PUSH1 0x0 DUP1 MLOAD PUSH1 0x20 PUSH2 0x41BD DUP4 CODECOPY DUP2 MLOAD SWAP2 MSTORE SWAP2 PUSH2 0xDC9 SWAP2 PUSH1 0xFF SWAP1 SWAP2 AND SWAP1 DUP7 SWAP1 DUP10 SWAP1 PUSH2 0x39C7 JUMP JUMPDEST PUSH1 0x40 MLOAD DUP1 SWAP2 SUB SWAP1 LOG1 PUSH2 0xDDB DUP4 DUP7 PUSH2 0x34B6 JUMP JUMPDEST POP POP POP PUSH1 0x2 SWAP5 SWAP1 SWAP5 SSTORE POP POP POP POP POP POP POP JUMP JUMPDEST DUP4 DUP4 DUP4 DUP4 PUSH1 0x40 MLOAD PUSH1 0x20 ADD PUSH2 0xE01 SWAP2 SWAP1 PUSH2 0x3F21 JUMP JUMPDEST PUSH1 0x40 MLOAD PUSH1 0x20 DUP2 DUP4 SUB SUB DUP2 MSTORE SWAP1 PUSH1 0x40 MSTORE PUSH1 0x0 DUP5 PUSH1 0x40 MLOAD PUSH1 0x20 ADD PUSH2 0xE23 SWAP2 SWAP1 PUSH2 0x3F3D JUMP JUMPDEST PUSH1 0x40 DUP1 MLOAD PUSH1 0x1F NOT DUP2 DUP5 SUB ADD DUP2 MSTORE SWAP2 SWAP1 MSTORE DUP1 MLOAD PUSH1 0x20 SWAP1 SWAP2 ADD KECCAK256 SWAP1 POP PUSH1 0x0 DUP1 DUP3 DUP2 MSTORE PUSH1 0xF PUSH1 0x20 MSTORE PUSH1 0x40 SWAP1 KECCAK256 SLOAD PUSH1 0xFF AND PUSH1 0x2 DUP2 GT ISZERO PUSH2 0xE61 JUMPI PUSH2 0xE61 PUSH2 0x398F JUMP JUMPDEST EQ PUSH2 0xE7E JUMPI PUSH1 0x40 MLOAD PUSH3 0x461BCD PUSH1 0xE5 SHL DUP2 MSTORE PUSH1 0x4 ADD PUSH2 0x8F9 SWAP1 PUSH2 0x3F74 JUMP JUMPDEST PUSH1 0x0 DUP3 DUP5 PUSH1 0x40 MLOAD PUSH1 0x20 ADD PUSH2 0xE93 SWAP3 SWAP2 SWAP1 PUSH2 0x3FA9 JUMP JUMPDEST PUSH1 0x40 DUP1 MLOAD PUSH1 0x1F NOT DUP2 DUP5 SUB ADD DUP2 MSTORE SWAP1 DUP3 SWAP1 MSTORE DUP1 MLOAD PUSH1 0x20 SWAP2 DUP3 ADD KECCAK256 DUP1 DUP4 MSTORE SWAP3 POP PUSH1 0x0 DUP1 MLOAD PUSH1 0x20 PUSH2 0x419D DUP4 CODECOPY DUP2 MLOAD SWAP2 MSTORE SWAP2 ADD PUSH1 0x40 MLOAD DUP1 SWAP2 SUB SWAP1 LOG1 PUSH1 0x0 PUSH2 0xED7 DUP3 DUP8 DUP10 PUSH2 0x2394 JUMP JUMPDEST PUSH1 0x12 DUP1 SLOAD PUSH1 0xFF NOT AND DUP3 ISZERO ISZERO OR SWAP1 SSTORE SWAP1 POP DUP1 PUSH2 0xF0A JUMPI PUSH1 0x40 MLOAD DUP3 DUP2 MSTORE PUSH1 0x0 DUP1 MLOAD PUSH1 0x20 PUSH2 0x417D DUP4 CODECOPY DUP2 MLOAD SWAP2 MSTORE SWAP1 PUSH1 0x20 ADD PUSH2 0xD37 JUMP JUMPDEST PUSH1 0x0 DUP4 DUP2 MSTORE PUSH1 0xF PUSH1 0x20 MSTORE PUSH1 0x40 SWAP1 DUP2 SWAP1 KECCAK256 SLOAD SWAP1 MLOAD PUSH1 0x0 DUP1 MLOAD PUSH1 0x20 PUSH2 0x41BD DUP4 CODECOPY DUP2 MLOAD SWAP2 MSTORE SWAP2 PUSH2 0xF40 SWAP2 PUSH1 0xFF SWAP1 SWAP2 AND SWAP1 DUP7 SWAP1 DUP10 SWAP1 PUSH2 0x39C7 JUMP JUMPDEST PUSH1 0x40 MLOAD DUP1 SWAP2 SUB SWAP1 LOG1 PUSH2 0xF52 DUP4 DUP7 PUSH2 0x34B6 JUMP JUMPDEST POP POP POP PUSH1 0x16 SWAP6 SWAP1 SWAP6 SSTORE POP POP POP POP POP POP POP JUMP JUMPDEST DUP3 DUP3 DUP3 DUP7 PUSH1 0x40 MLOAD PUSH1 0x20 ADD PUSH2 0xF78 SWAP2 SWAP1 PUSH2 0x3FCB JUMP JUMPDEST PUSH1 0x40 MLOAD PUSH1 0x20 DUP2 DUP4 SUB SUB DUP2 MSTORE SWAP1 PUSH1 0x40 MSTORE PUSH1 0x0 DUP5 PUSH1 0x40 MLOAD PUSH1 0x20 ADD PUSH2 0xF9A SWAP2 SWAP1 PUSH2 0x3F3D JUMP JUMPDEST PUSH1 0x40 DUP1 MLOAD PUSH1 0x1F NOT DUP2 DUP5 SUB ADD DUP2 MSTORE SWAP2 SWAP1 MSTORE DUP1 MLOAD PUSH1 0x20 SWAP1 SWAP2 ADD KECCAK256 SWAP1 POP PUSH1 0x0 DUP1 DUP3 DUP2 MSTORE PUSH1 0xF PUSH1 0x20 MSTORE PUSH1 0x40 SWAP1 KECCAK256 SLOAD PUSH1 0xFF AND PUSH1 0x2 DUP2 GT ISZERO PUSH2 0xFD8 JUMPI PUSH2 0xFD8 PUSH2 0x398F JUMP JUMPDEST EQ PUSH2 0xFF5 JUMPI PUSH1 0x40 MLOAD PUSH3 0x461BCD PUSH1 0xE5 SHL DUP2 MSTORE PUSH1 0x4 ADD PUSH2 0x8F9 SWAP1 PUSH2 0x3F74 JUMP JUMPDEST PUSH1 0x0 DUP3 DUP5 PUSH1 0x40 MLOAD PUSH1 0x20 ADD PUSH2 0x100A SWAP3 SWAP2 SWAP1 PUSH2 0x3FA9 JUMP JUMPDEST PUSH1 0x40 DUP1 MLOAD PUSH1 0x1F NOT DUP2 DUP5 SUB ADD DUP2 MSTORE SWAP1 DUP3 SWAP1 MSTORE DUP1 MLOAD PUSH1 0x20 SWAP2 DUP3 ADD KECCAK256 DUP1 DUP4 MSTORE SWAP3 POP PUSH1 0x0 DUP1 MLOAD PUSH1 0x20 PUSH2 0x419D DUP4 CODECOPY DUP2 MLOAD SWAP2 MSTORE SWAP2 ADD PUSH1 0x40 MLOAD DUP1 SWAP2 SUB SWAP1 LOG1 PUSH1 0x0 PUSH2 0x104E DUP3 DUP8 DUP10 PUSH2 0x2394 JUMP JUMPDEST PUSH1 0x12 DUP1 SLOAD PUSH1 0xFF NOT AND DUP3 ISZERO ISZERO OR SWAP1 SSTORE SWAP1 POP DUP1 PUSH2 0x1081 JUMPI PUSH1 0x40 MLOAD DUP3 DUP2 MSTORE PUSH1 0x0 DUP1 MLOAD PUSH1 0x20 PUSH2 0x417D DUP4 CODECOPY DUP2 MLOAD SWAP2 MSTORE SWAP1 PUSH1 0x20 ADD PUSH2 0xD37 JUMP JUMPDEST PUSH1 0x0 DUP4 DUP2 MSTORE PUSH1 0xF PUSH1 0x20 MSTORE PUSH1 0x40 SWAP1 DUP2 SWAP1 KECCAK256 SLOAD SWAP1 MLOAD PUSH1 0x0 DUP1 MLOAD PUSH1 0x20 PUSH2 0x41BD DUP4 CODECOPY DUP2 MLOAD SWAP2 MSTORE SWAP2 PUSH2 0x10B7 SWAP2 PUSH1 0xFF SWAP1 SWAP2 AND SWAP1 DUP7 SWAP1 DUP10 SWAP1 PUSH2 0x39C7 JUMP JUMPDEST PUSH1 0x40 MLOAD DUP1 SWAP2 SUB SWAP1 LOG1 PUSH2 0x10C9 DUP4 DUP7 PUSH2 0x34B6 JUMP JUMPDEST POP POP POP PUSH1 0x1 PUSH1 0x1 PUSH1 0xA0 SHL SUB SWAP1 SWAP8 AND PUSH1 0x0 SWAP1 DUP2 MSTORE PUSH1 0x8 PUSH1 0x20 MSTORE PUSH1 0x40 SWAP1 KECCAK256 DUP1 SLOAD PUSH1 0xFF NOT AND SWAP1 SSTORE POP POP POP POP POP POP POP JUMP JUMPDEST DUP4 DUP4 DUP4 DUP4 PUSH1 0x40 MLOAD PUSH1 0x20 ADD PUSH2 0x110C SWAP2 DUP2 MSTORE PUSH1 0x20 ADD SWAP1 JUMP JUMPDEST PUSH1 0x40 MLOAD PUSH1 0x20 DUP2 DUP4 SUB SUB DUP2 MSTORE SWAP1 PUSH1 0x40 MSTORE PUSH1 0x0 DUP5 PUSH1 0x40 MLOAD PUSH1 0x20 ADD PUSH2 0x112E SWAP2 SWAP1 PUSH2 0x3F3D JUMP JUMPDEST PUSH1 0x40 DUP1 MLOAD PUSH1 0x1F NOT DUP2 DUP5 SUB ADD DUP2 MSTORE SWAP2 SWAP1 MSTORE DUP1 MLOAD PUSH1 0x20 SWAP1 SWAP2 ADD KECCAK256 SWAP1 POP PUSH1 0x0 DUP1 DUP3 DUP2 MSTORE PUSH1 0xF PUSH1 0x20 MSTORE PUSH1 0x40 SWAP1 KECCAK256 SLOAD PUSH1 0xFF AND PUSH1 0x2 DUP2 GT ISZERO PUSH2 0x116C JUMPI PUSH2 0x116C PUSH2 0x398F JUMP JUMPDEST EQ PUSH2 0x1189 JUMPI PUSH1 0x40 MLOAD PUSH3 0x461BCD PUSH1 0xE5 SHL DUP2 MSTORE PUSH1 0x4 ADD PUSH2 0x8F9 SWAP1 PUSH2 0x3F74 JUMP JUMPDEST PUSH1 0x0 DUP3 DUP5 PUSH1 0x40 MLOAD PUSH1 0x20 ADD PUSH2 0x119E SWAP3 SWAP2 SWAP1 PUSH2 0x3FA9 JUMP JUMPDEST PUSH1 0x40 DUP1 MLOAD PUSH1 0x1F NOT DUP2 DUP5 SUB ADD DUP2 MSTORE SWAP1 DUP3 SWAP1 MSTORE DUP1 MLOAD PUSH1 0x20 SWAP2 DUP3 ADD KECCAK256 DUP1 DUP4 MSTORE SWAP3 POP PUSH1 0x0 DUP1 MLOAD PUSH1 0x20 PUSH2 0x419D DUP4 CODECOPY DUP2 MLOAD SWAP2 MSTORE SWAP2 ADD PUSH1 0x40 MLOAD DUP1 SWAP2 SUB SWAP1 LOG1 PUSH1 0x0 PUSH2 0x11E2 DUP3 DUP8 DUP10 PUSH2 0x2394 JUMP JUMPDEST PUSH1 0x12 DUP1 SLOAD PUSH1 0xFF NOT AND DUP3 ISZERO ISZERO OR SWAP1 SSTORE SWAP1 POP DUP1 PUSH2 0x1215 JUMPI PUSH1 0x40 MLOAD DUP3 DUP2 MSTORE PUSH1 0x0 DUP1 MLOAD PUSH1 0x20 PUSH2 0x417D DUP4 CODECOPY DUP2 MLOAD SWAP2 MSTORE SWAP1 PUSH1 0x20 ADD PUSH2 0xD37 JUMP JUMPDEST PUSH1 0x0 DUP4 DUP2 MSTORE PUSH1 0xF PUSH1 0x20 MSTORE PUSH1 0x40 SWAP1 DUP2 SWAP1 KECCAK256 SLOAD SWAP1 MLOAD PUSH1 0x0 DUP1 MLOAD PUSH1 0x20 PUSH2 0x41BD DUP4 CODECOPY DUP2 MLOAD SWAP2 MSTORE SWAP2 PUSH2 0x124B SWAP2 PUSH1 0xFF SWAP1 SWAP2 AND SWAP1 DUP7 SWAP1 DUP10 SWAP1 PUSH2 0x39C7 JUMP JUMPDEST PUSH1 0x40 MLOAD DUP1 SWAP2 SUB SWAP1 LOG1 PUSH2 0x125D DUP4 DUP7 PUSH2 0x34B6 JUMP JUMPDEST PUSH1 0x0 DUP12 PUSH1 0x40 MLOAD PUSH1 0x20 ADD PUSH2 0x1270 SWAP2 SWAP1 PUSH2 0x3F3D JUMP JUMPDEST PUSH1 0x40 DUP1 MLOAD PUSH1 0x1F NOT DUP2 DUP5 SUB ADD DUP2 MSTORE SWAP2 SWAP1 MSTORE DUP1 MLOAD PUSH1 0x20 SWAP1 SWAP2 ADD KECCAK256 PUSH1 0x16 DUP1 SLOAD PUSH1 0x0 SWAP1 SWAP2 SSTORE SWAP1 SWAP2 POP DUP2 EQ ISZERO DUP1 PUSH2 0x1316 JUMPI PUSH1 0x40 MLOAD PUSH3 0x461BCD PUSH1 0xE5 SHL DUP2 MSTORE PUSH1 0x20 PUSH1 0x4 DUP3 ADD MSTORE PUSH1 0x43 PUSH1 0x24 DUP3 ADD MSTORE PUSH32 0x416E6F6E4944436F6E74726163743A20504B48206D617463686573206C617374 PUSH1 0x44 DUP3 ADD MSTORE PUSH32 0x207573656420504B482028757365207365706172617465207365636F6E64206B PUSH1 0x64 DUP3 ADD MSTORE PUSH3 0x657929 PUSH1 0xE8 SHL PUSH1 0x84 DUP3 ADD MSTORE PUSH1 0xA4 ADD PUSH2 0x8F9 JUMP JUMPDEST PUSH2 0x1321 PUSH1 0x0 DUP12 PUSH2 0x3654 JUMP JUMPDEST POP POP PUSH1 0x0 PUSH1 0x16 SSTORE POP POP POP POP POP POP POP POP POP POP POP JUMP JUMPDEST DUP4 DUP4 DUP4 DUP4 PUSH1 0x40 MLOAD PUSH1 0x20 ADD PUSH2 0x1349 SWAP2 SWAP1 PUSH2 0x3FCB JUMP JUMPDEST PUSH1 0x40 MLOAD PUSH1 0x20 DUP2 DUP4 SUB SUB DUP2 MSTORE SWAP1 PUSH1 0x40 MSTORE PUSH1 0x0 DUP5 PUSH1 0x40 MLOAD PUSH1 0x20 ADD PUSH2 0x136B SWAP2 SWAP1 PUSH2 0x3F3D JUMP JUMPDEST PUSH1 0x40 DUP1 MLOAD PUSH1 0x1F NOT DUP2 DUP5 SUB ADD DUP2 MSTORE SWAP2 SWAP1 MSTORE DUP1 MLOAD PUSH1 0x20 SWAP1 SWAP2 ADD KECCAK256 SWAP1 POP PUSH1 0x0 DUP1 DUP3 DUP2 MSTORE PUSH1 0xF PUSH1 0x20 MSTORE PUSH1 0x40 SWAP1 KECCAK256 SLOAD PUSH1 0xFF AND PUSH1 0x2 DUP2 GT ISZERO PUSH2 0x13A9 JUMPI PUSH2 0x13A9 PUSH2 0x398F JUMP JUMPDEST EQ PUSH2 0x13C6 JUMPI PUSH1 0x40 MLOAD PUSH3 0x461BCD PUSH1 0xE5 SHL DUP2 MSTORE PUSH1 0x4 ADD PUSH2 0x8F9 SWAP1 PUSH2 0x3F74 JUMP JUMPDEST PUSH1 0x0 DUP3 DUP5 PUSH1 0x40 MLOAD PUSH1 0x20 ADD PUSH2 0x13DB SWAP3 SWAP2 SWAP1 PUSH2 0x3FA9 JUMP JUMPDEST PUSH1 0x40 DUP1 MLOAD PUSH1 0x1F NOT DUP2 DUP5 SUB ADD DUP2 MSTORE SWAP1 DUP3 SWAP1 MSTORE DUP1 MLOAD PUSH1 0x20 SWAP2 DUP3 ADD KECCAK256 DUP1 DUP4 MSTORE SWAP3 POP PUSH1 0x0 DUP1 MLOAD PUSH1 0x20 PUSH2 0x419D DUP4 CODECOPY DUP2 MLOAD SWAP2 MSTORE SWAP2 ADD PUSH1 0x40 MLOAD DUP1 SWAP2 SUB SWAP1 LOG1 PUSH1 0x0 PUSH2 0x141F DUP3 DUP8 DUP10 PUSH2 0x2394 JUMP JUMPDEST PUSH1 0x12 DUP1 SLOAD PUSH1 0xFF NOT AND DUP3 ISZERO ISZERO OR SWAP1 SSTORE SWAP1 POP DUP1 PUSH2 0x1452 JUMPI PUSH1 0x40 MLOAD DUP3 DUP2 MSTORE PUSH1 0x0 DUP1 MLOAD PUSH1 0x20 PUSH2 0x417D DUP4 CODECOPY DUP2 MLOAD SWAP2 MSTORE SWAP1 PUSH1 0x20 ADD PUSH2 0xD37 JUMP JUMPDEST PUSH1 0x0 DUP4 DUP2 MSTORE PUSH1 0xF PUSH1 0x20 MSTORE PUSH1 0x40 SWAP1 DUP2 SWAP1 KECCAK256 SLOAD SWAP1 MLOAD PUSH1 0x0 DUP1 MLOAD PUSH1 0x20 PUSH2 0x41BD DUP4 CODECOPY DUP2 MLOAD SWAP2 MSTORE SWAP2 PUSH2 0x1488 SWAP2 PUSH1 0xFF SWAP1 SWAP2 AND SWAP1 DUP7 SWAP1 DUP10 SWAP1 PUSH2 0x39C7 JUMP JUMPDEST PUSH1 0x40 MLOAD DUP1 SWAP2 SUB SWAP1 LOG1 PUSH2 0x149A DUP4 DUP7 PUSH2 0x34B6 JUMP JUMPDEST DUP8 PUSH1 0x40 MLOAD PUSH1 0x20 ADD PUSH2 0x14AB SWAP2 SWAP1 PUSH2 0x3FCB JUMP JUMPDEST PUSH1 0x40 MLOAD PUSH1 0x20 DUP2 DUP4 SUB SUB DUP2 MSTORE SWAP1 PUSH1 0x40 MSTORE DUP1 MLOAD SWAP1 PUSH1 0x20 ADD KECCAK256 PUSH1 0x13 SLOAD EQ PUSH2 0x1539 JUMPI PUSH1 0x40 DUP1 MLOAD PUSH3 0x461BCD PUSH1 0xE5 SHL DUP2 MSTORE PUSH1 0x20 PUSH1 0x4 DUP3 ADD MSTORE PUSH1 0x24 DUP2 ADD SWAP2 SWAP1 SWAP2 MSTORE PUSH32 0x416E6F6E4944436F6E74726163743A204D69736D617463686564206164647265 PUSH1 0x44 DUP3 ADD MSTORE PUSH32 0x73732068617368206265747765656E2073746570206F6E6520616E642074776F PUSH1 0x64 DUP3 ADD MSTORE PUSH1 0x84 ADD PUSH2 0x8F9 JUMP JUMPDEST PUSH1 0x5 DUP1 SLOAD PUSH1 0x1 PUSH1 0x1 PUSH1 0xA0 SHL SUB NOT AND PUSH1 0x1 PUSH1 0x1 PUSH1 0xA0 SHL SUB DUP11 AND SWAP1 DUP2 OR SWAP1 SWAP2 SSTORE PUSH1 0x0 PUSH1 0x13 DUP2 SWAP1 SSTORE PUSH1 0x40 MLOAD PUSH32 0x78CB7D38F54B570D3AA94EDFE9942FF10D8B002A73299229EA4ECE39479EB116 SWAP2 SWAP1 LOG2 POP POP POP POP POP POP POP POP POP POP POP JUMP JUMPDEST CALLER PUSH1 0x0 SWAP1 DUP2 MSTORE PUSH1 0x8 PUSH1 0x20 MSTORE PUSH1 0x40 SWAP1 KECCAK256 SLOAD PUSH1 0xFF AND PUSH2 0x160A JUMPI PUSH1 0x40 MLOAD PUSH3 0x461BCD PUSH1 0xE5 SHL DUP2 MSTORE PUSH1 0x20 PUSH1 0x4 DUP3 ADD MSTORE PUSH1 0x30 PUSH1 0x24 DUP3 ADD MSTORE PUSH32 0x4E6F74207065726D697474656420746F206D6F6469667920686F75726C792074 PUSH1 0x44 DUP3 ADD MSTORE PUSH16 0x72616E73616374696F6E2071756F7461 PUSH1 0x80 SHL PUSH1 0x64 DUP3 ADD MSTORE PUSH1 0x84 ADD PUSH2 0x8F9 JUMP JUMPDEST PUSH1 0x1 PUSH1 0x1 PUSH1 0xA0 SHL SUB DUP3 AND PUSH1 0x0 SWAP1 DUP2 MSTORE PUSH1 0x9 PUSH1 0x20 MSTORE PUSH1 0x40 SWAP1 KECCAK256 SLOAD PUSH1 0xFF AND PUSH2 0x1672 JUMPI PUSH1 0x40 MLOAD PUSH3 0x461BCD PUSH1 0xE5 SHL DUP2 MSTORE PUSH1 0x20 PUSH1 0x4 DUP3 ADD MSTORE PUSH1 0x1E PUSH1 0x24 DUP3 ADD MSTORE PUSH32 0x41646472657373206E6F7420666F756E6420696E2077686974656C6973740000 PUSH1 0x44 DUP3 ADD MSTORE PUSH1 0x64 ADD PUSH2 0x8F9 JUMP JUMPDEST PUSH1 0x1 PUSH1 0x1 PUSH1 0xA0 SHL SUB DUP3 AND PUSH1 0x0 DUP2 DUP2 MSTORE PUSH1 0x4 PUSH1 0x20 MSTORE PUSH1 0x40 SWAP1 DUP2 SWAP1 KECCAK256 DUP4 SWAP1 SSTORE MLOAD PUSH32 0x49E4E7CA63DCC35A72589F844CB844CE25176E8E1AFF16F1AD1FB46624C65372 SWAP1 PUSH2 0x16BF SWAP1 DUP5 DUP2 MSTORE PUSH1 0x20 ADD SWAP1 JUMP JUMPDEST PUSH1 0x40 MLOAD DUP1 SWAP2 SUB SWAP1 LOG2 POP POP JUMP JUMPDEST PUSH1 0x0 DUP5 DUP5 DUP5 DUP5 PUSH1 0x40 MLOAD PUSH1 0x20 ADD PUSH2 0x16E1 SWAP2 SWAP1 PUSH2 0x3F21 JUMP JUMPDEST PUSH1 0x40 MLOAD PUSH1 0x20 DUP2 DUP4 SUB SUB DUP2 MSTORE SWAP1 PUSH1 0x40 MSTORE PUSH1 0x0 DUP5 PUSH1 0x40 MLOAD PUSH1 0x20 ADD PUSH2 0x1703 SWAP2 SWAP1 PUSH2 0x3F3D JUMP JUMPDEST PUSH1 0x40 DUP1 MLOAD PUSH1 0x1F NOT DUP2 DUP5 SUB ADD DUP2 MSTORE SWAP2 SWAP1 MSTORE DUP1 MLOAD PUSH1 0x20 SWAP1 SWAP2 ADD KECCAK256 SWAP1 POP PUSH1 0x0 DUP1 DUP3 DUP2 MSTORE PUSH1 0xF PUSH1 0x20 MSTORE PUSH1 0x40 SWAP1 KECCAK256 SLOAD PUSH1 0xFF AND PUSH1 0x2 DUP2 GT ISZERO PUSH2 0x1741 JUMPI PUSH2 0x1741 PUSH2 0x398F JUMP JUMPDEST EQ PUSH2 0x175E JUMPI PUSH1 0x40 MLOAD PUSH3 0x461BCD PUSH1 0xE5 SHL DUP2 MSTORE PUSH1 0x4 ADD PUSH2 0x8F9 SWAP1 PUSH2 0x3F74 JUMP JUMPDEST PUSH1 0x0 DUP3 DUP5 PUSH1 0x40 MLOAD PUSH1 0x20 ADD PUSH2 0x1773 SWAP3 SWAP2 SWAP1 PUSH2 0x3FA9 JUMP JUMPDEST PUSH1 0x40 DUP1 MLOAD PUSH1 0x1F NOT DUP2 DUP5 SUB ADD DUP2 MSTORE SWAP1 DUP3 SWAP1 MSTORE DUP1 MLOAD PUSH1 0x20 SWAP2 DUP3 ADD KECCAK256 DUP1 DUP4 MSTORE SWAP3 POP PUSH1 0x0 DUP1 MLOAD PUSH1 0x20 PUSH2 0x419D DUP4 CODECOPY DUP2 MLOAD SWAP2 MSTORE SWAP2 ADD PUSH1 0x40 MLOAD DUP1 SWAP2 SUB SWAP1 LOG1 PUSH1 0x0 PUSH2 0x17B7 DUP3 DUP8 DUP10 PUSH2 0x2394 JUMP JUMPDEST PUSH1 0x12 DUP1 SLOAD PUSH1 0xFF NOT AND DUP3 ISZERO ISZERO OR SWAP1 SSTORE SWAP1 POP DUP1 PUSH2 0x17EA JUMPI PUSH1 0x40 MLOAD DUP3 DUP2 MSTORE PUSH1 0x0 DUP1 MLOAD PUSH1 0x20 PUSH2 0x417D DUP4 CODECOPY DUP2 MLOAD SWAP2 MSTORE SWAP1 PUSH1 0x20 ADD PUSH2 0xD37 JUMP JUMPDEST PUSH1 0x0 DUP4 DUP2 MSTORE PUSH1 0xF PUSH1 0x20 MSTORE PUSH1 0x40 SWAP1 DUP2 SWAP1 KECCAK256 SLOAD SWAP1 MLOAD PUSH1 0x0 DUP1 MLOAD PUSH1 0x20 PUSH2 0x41BD DUP4 CODECOPY DUP2 MLOAD SWAP2 MSTORE SWAP2 PUSH2 0x1820 SWAP2 PUSH1 0xFF SWAP1 SWAP2 AND SWAP1 DUP7 SWAP1 DUP10 SWAP1 PUSH2 0x39C7 JUMP JUMPDEST PUSH1 0x40 MLOAD DUP1 SWAP2 SUB SWAP1 LOG1 PUSH2 0x1832 DUP4 DUP7 PUSH2 0x34B6 JUMP JUMPDEST PUSH1 0x3 SLOAD DUP10 MLOAD PUSH1 0x20 DUP12 ADD KECCAK256 EQ PUSH2 0x18A7 JUMPI PUSH1 0x40 MLOAD PUSH3 0x461BCD PUSH1 0xE5 SHL DUP2 MSTORE PUSH1 0x20 PUSH1 0x4 DUP3 ADD MSTORE PUSH1 0x35 PUSH1 0x24 DUP3 ADD MSTORE PUSH32 0x42797465636F646520646F6573206E6F74206D617463682070726576696F7573 PUSH1 0x44 DUP3 ADD MSTORE PUSH21 0x363C90383937BB34B232B210313CBA32B1B7B23297 PUSH1 0x59 SHL PUSH1 0x64 DUP3 ADD MSTORE PUSH1 0x84 ADD PUSH2 0x8F9 JUMP JUMPDEST PUSH1 0x0 DUP10 MLOAD PUSH1 0x20 DUP12 ADD PUSH1 0x0 CREATE SWAP1 POP PUSH1 0x1 PUSH1 0x1 PUSH1 0xA0 SHL SUB DUP2 AND PUSH2 0x190A JUMPI PUSH1 0x40 MLOAD PUSH3 0x461BCD PUSH1 0xE5 SHL DUP2 MSTORE PUSH1 0x20 PUSH1 0x4 DUP3 ADD MSTORE PUSH1 0x18 PUSH1 0x24 DUP3 ADD MSTORE PUSH32 0x436F6E7472616374206372656174696F6E206661696C65640000000000000000 PUSH1 0x44 DUP3 ADD MSTORE PUSH1 0x64 ADD PUSH2 0x8F9 JUMP JUMPDEST SWAP13 SWAP12 POP POP POP POP POP POP POP POP POP POP POP POP JUMP JUMPDEST DUP4 DUP4 DUP4 DUP4 PUSH1 0x40 MLOAD PUSH1 0x20 ADD PUSH2 0x1930 SWAP2 DUP2 MSTORE PUSH1 0x20 ADD SWAP1 JUMP JUMPDEST PUSH1 0x40 MLOAD PUSH1 0x20 DUP2 DUP4 SUB SUB DUP2 MSTORE SWAP1 PUSH1 0x40 MSTORE PUSH1 0x0 DUP5 PUSH1 0x40 MLOAD PUSH1 0x20 ADD PUSH2 0x1952 SWAP2 SWAP1 PUSH2 0x3F3D JUMP JUMPDEST PUSH1 0x40 DUP1 MLOAD PUSH1 0x1F NOT DUP2 DUP5 SUB ADD DUP2 MSTORE SWAP2 SWAP1 MSTORE DUP1 MLOAD PUSH1 0x20 SWAP1 SWAP2 ADD KECCAK256 SWAP1 POP PUSH1 0x0 DUP1 DUP3 DUP2 MSTORE PUSH1 0xF PUSH1 0x20 MSTORE PUSH1 0x40 SWAP1 KECCAK256 SLOAD PUSH1 0xFF AND PUSH1 0x2 DUP2 GT ISZERO PUSH2 0x1990 JUMPI PUSH2 0x1990 PUSH2 0x398F JUMP JUMPDEST EQ PUSH2 0x19AD JUMPI PUSH1 0x40 MLOAD PUSH3 0x461BCD PUSH1 0xE5 SHL DUP2 MSTORE PUSH1 0x4 ADD PUSH2 0x8F9 SWAP1 PUSH2 0x3F74 JUMP JUMPDEST PUSH1 0x0 DUP3 DUP5 PUSH1 0x40 MLOAD PUSH1 0x20 ADD PUSH2 0x19C2 SWAP3 SWAP2 SWAP1 PUSH2 0x3FA9 JUMP JUMPDEST PUSH1 0x40 DUP1 MLOAD PUSH1 0x1F NOT DUP2 DUP5 SUB ADD DUP2 MSTORE SWAP1 DUP3 SWAP1 MSTORE DUP1 MLOAD PUSH1 0x20 SWAP2 DUP3 ADD KECCAK256 DUP1 DUP4 MSTORE SWAP3 POP PUSH1 0x0 DUP1 MLOAD PUSH1 0x20 PUSH2 0x419D DUP4 CODECOPY DUP2 MLOAD SWAP2 MSTORE SWAP2 ADD PUSH1 0x40 MLOAD DUP1 SWAP2 SUB SWAP1 LOG1 PUSH1 0x0 PUSH2 0x1A06 DUP3 DUP8 DUP10 PUSH2 0x2394 JUMP JUMPDEST PUSH1 0x12 DUP1 SLOAD PUSH1 0xFF NOT AND DUP3 ISZERO ISZERO OR SWAP1 SSTORE SWAP1 POP DUP1 PUSH2 0x1A39 JUMPI PUSH1 0x40 MLOAD DUP3 DUP2 MSTORE PUSH1 0x0 DUP1 MLOAD PUSH1 0x20 PUSH2 0x417D DUP4 CODECOPY DUP2 MLOAD SWAP2 MSTORE SWAP1 PUSH1 0x20 ADD PUSH2 0xD37 JUMP JUMPDEST PUSH1 0x0 DUP4 DUP2 MSTORE PUSH1 0xF PUSH1 0x20 MSTORE PUSH1 0x40 SWAP1 DUP2 SWAP1 KECCAK256 SLOAD SWAP1 MLOAD PUSH1 0x0 DUP1 MLOAD PUSH1 0x20 PUSH2 0x41BD DUP4 CODECOPY DUP2 MLOAD SWAP2 MSTORE SWAP2 PUSH2 0x1A6F SWAP2 PUSH1 0xFF SWAP1 SWAP2 AND SWAP1 DUP7 SWAP1 DUP10 SWAP1 PUSH2 0x39C7 JUMP JUMPDEST PUSH1 0x40 MLOAD DUP1 SWAP2 SUB SWAP1 LOG1 PUSH2 0x1A81 DUP4 DUP7 PUSH2 0x34B6 JUMP JUMPDEST PUSH1 0x14 DUP9 GT ISZERO PUSH2 0x1AF8 JUMPI PUSH1 0x40 MLOAD PUSH3 0x461BCD PUSH1 0xE5 SHL DUP2 MSTORE PUSH1 0x20 PUSH1 0x4 DUP3 ADD MSTORE PUSH1 0x37 PUSH1 0x24 DUP3 ADD MSTORE PUSH32 0x416E6F6E4944436F6E74726163743A20436F6D6D697373696F6E2073686F756C PUSH1 0x44 DUP3 ADD MSTORE PUSH32 0x64206265206265747765656E20302520616E6420323025000000000000000000 PUSH1 0x64 DUP3 ADD MSTORE PUSH1 0x84 ADD PUSH2 0x8F9 JUMP JUMPDEST PUSH1 0x2 SLOAD DUP9 EQ PUSH2 0x1B7D JUMPI PUSH1 0x40 MLOAD PUSH3 0x461BCD PUSH1 0xE5 SHL DUP2 MSTORE PUSH1 0x20 PUSH1 0x4 DUP3 ADD MSTORE PUSH1 0x45 PUSH1 0x24 DUP3 ADD MSTORE PUSH32 0x416E6F6E4944436F6E74726163743A204D69736D61746368656420636F6D6D69 PUSH1 0x44 DUP3 ADD MSTORE PUSH32 0x7373696F6E2076616C756573206265747765656E2073746570206F6E6520616E PUSH1 0x64 DUP3 ADD MSTORE PUSH5 0x642074776F PUSH1 0xD8 SHL PUSH1 0x84 DUP3 ADD MSTORE PUSH1 0xA4 ADD PUSH2 0x8F9 JUMP JUMPDEST PUSH1 0x1 DUP9 SWAP1 SSTORE PUSH1 0x0 PUSH1 0x2 SSTORE PUSH1 0x40 MLOAD DUP9 DUP2 MSTORE PUSH32 0x11BF320227562BD5F6C9B575913CF92B3B996B47873159DF227324AE1BB4D0EA SWAP1 PUSH1 0x20 ADD JUMPDEST PUSH1 0x40 MLOAD DUP1 SWAP2 SUB SWAP1 LOG1 POP POP POP POP POP POP POP POP POP POP POP JUMP JUMPDEST PUSH1 0x0 CALLER PUSH20 0x2685751D3C7A49EBF485E823079AC65E2A35A3DD DUP2 EQ SWAP1 PUSH2 0x1BEC SWAP1 PUSH2 0x375D JUMP JUMPDEST PUSH1 0x40 MLOAD PUSH1 0x20 ADD PUSH2 0x1BFC SWAP2 SWAP1 PUSH2 0x3FE8 JUMP JUMPDEST PUSH1 0x40 MLOAD PUSH1 0x20 DUP2 DUP4 SUB SUB DUP2 MSTORE SWAP1 PUSH1 0x40 MSTORE SWAP1 PUSH2 0x1C29 JUMPI PUSH1 0x40 MLOAD PUSH3 0x461BCD PUSH1 0xE5 SHL DUP2 MSTORE PUSH1 0x4 ADD PUSH2 0x8F9 SWAP2 SWAP1 PUSH2 0x4043 JUMP JUMPDEST POP PUSH1 0x1 PUSH1 0x1 PUSH1 0xA0 SHL SUB DUP3 AND PUSH1 0x0 SWAP1 DUP2 MSTORE PUSH1 0x9 PUSH1 0x20 MSTORE PUSH1 0x40 SWAP1 KECCAK256 SLOAD PUSH1 0xFF AND PUSH2 0x1C52 JUMPI POP PUSH1 0x0 SWAP2 SWAP1 POP JUMP JUMPDEST PUSH1 0x1 PUSH1 0x1 PUSH1 0xA0 SHL SUB DUP3 AND PUSH1 0x0 SWAP1 DUP2 MSTORE PUSH1 0x4 PUSH1 0x20 MSTORE PUSH1 0x40 DUP2 KECCAK256 SLOAD SWAP1 SUB PUSH2 0x1C79 JUMPI POP PUSH1 0x0 SWAP2 SWAP1 POP JUMP JUMPDEST PUSH1 0x1 PUSH1 0x1 PUSH1 0xA0 SHL SUB DUP3 AND PUSH1 0x0 SWAP1 DUP2 MSTORE PUSH1 0x10 PUSH1 0x20 SWAP1 DUP2 MSTORE PUSH1 0x40 DUP1 DUP4 KECCAK256 PUSH1 0x11 DUP4 MSTORE DUP2 DUP5 KECCAK256 PUSH1 0x4 SWAP1 SWAP4 MSTORE SWAP3 KECCAK256 SLOAD PUSH1 0x1 DUP4 ADD SLOAD LT PUSH2 0x1D19 JUMPI DUP2 SLOAD PUSH2 0xE10 DUP3 DUP3 PUSH2 0x1F4 DUP2 LT PUSH2 0x1CC5 JUMPI PUSH2 0x1CC5 PUSH2 0x3E77 JUMP JUMPDEST ADD SLOAD PUSH2 0x1CD1 SWAP1 TIMESTAMP PUSH2 0x4076 JUMP JUMPDEST GT PUSH2 0x1CE1 JUMPI POP PUSH1 0x0 SWAP5 SWAP4 POP POP POP POP JUMP JUMPDEST PUSH1 0x1 PUSH1 0x1 PUSH1 0xA0 SHL SUB DUP6 AND PUSH1 0x0 SWAP1 DUP2 MSTORE PUSH1 0x4 PUSH1 0x20 MSTORE PUSH1 0x40 SWAP1 KECCAK256 SLOAD DUP4 SLOAD PUSH2 0x1D07 SWAP1 PUSH1 0x1 PUSH2 0x4089 JUMP JUMPDEST PUSH2 0x1D11 SWAP2 SWAP1 PUSH2 0x409C JUMP JUMPDEST DUP4 SSTORE POP PUSH2 0x1D31 JUMP JUMPDEST PUSH1 0x1 DUP3 ADD DUP1 SLOAD SWAP1 PUSH1 0x0 PUSH2 0x1D2B DUP4 PUSH2 0x3EA3 JUMP JUMPDEST SWAP2 SWAP1 POP SSTORE POP JUMPDEST PUSH1 0x1 PUSH1 0x1 PUSH1 0xA0 SHL SUB DUP5 AND PUSH1 0x0 SWAP1 DUP2 MSTORE PUSH1 0x4 PUSH1 0x20 MSTORE PUSH1 0x40 DUP2 KECCAK256 SLOAD PUSH1 0x1 DUP5 DUP2 ADD SLOAD DUP6 SLOAD PUSH2 0x1D5C SWAP2 SWAP1 PUSH2 0x4089 JUMP JUMPDEST PUSH2 0x1D66 SWAP2 SWAP1 PUSH2 0x4076 JUMP JUMPDEST PUSH2 0x1D70 SWAP2 SWAP1 PUSH2 0x409C JUMP JUMPDEST SWAP1 POP TIMESTAMP DUP3 DUP3 PUSH2 0x1F4 DUP2 LT PUSH2 0x1D86 JUMPI PUSH2 0x1D86 PUSH2 0x3E77 JUMP JUMPDEST ADD SSTORE PUSH1 0x40 MLOAD TIMESTAMP DUP2 MSTORE PUSH1 0x1 PUSH1 0x1 PUSH1 0xA0 SHL SUB DUP7 AND SWAP1 PUSH32 0x9ED0861F8FC182C8888F48E900842F475CCD2A3C93C6F966168EAA67D52D2EE1 SWAP1 PUSH1 0x20 ADD PUSH1 0x40 MLOAD DUP1 SWAP2 SUB SWAP1 LOG2 POP PUSH1 0x1 SWAP5 SWAP4 POP POP POP POP JUMP JUMPDEST CALLER PUSH1 0x0 SWAP1 DUP2 MSTORE PUSH1 0x8 PUSH1 0x20 MSTORE PUSH1 0x40 SWAP1 KECCAK256 SLOAD PUSH1 0xFF AND PUSH2 0x1E00 JUMPI PUSH1 0x40 MLOAD PUSH3 0x461BCD PUSH1 0xE5 SHL DUP2 MSTORE PUSH1 0x4 ADD PUSH2 0x8F9 SWAP1 PUSH2 0x3EBC JUMP JUMPDEST PUSH1 0x1 PUSH1 0x1 PUSH1 0xA0 SHL SUB DUP2 AND PUSH1 0x0 SWAP1 DUP2 MSTORE PUSH1 0x9 PUSH1 0x20 MSTORE PUSH1 0x40 SWAP1 KECCAK256 SLOAD PUSH1 0xFF AND PUSH2 0x1E68 JUMPI PUSH1 0x40 MLOAD PUSH3 0x461BCD PUSH1 0xE5 SHL DUP2 MSTORE PUSH1 0x20 PUSH1 0x4 DUP3 ADD MSTORE PUSH1 0x1E PUSH1 0x24 DUP3 ADD MSTORE PUSH32 0x41646472657373206E6F7420666F756E6420696E2077686974656C6973740000 PUSH1 0x44 DUP3 ADD MSTORE PUSH1 0x64 ADD PUSH2 0x8F9 JUMP JUMPDEST PUSH1 0x1 PUSH1 0x1 PUSH1 0xA0 SHL SUB DUP2 AND PUSH1 0x0 DUP2 DUP2 MSTORE PUSH1 0x9 PUSH1 0x20 SWAP1 DUP2 MSTORE PUSH1 0x40 DUP1 DUP4 KECCAK256 DUP1 SLOAD PUSH1 0xFF NOT AND SWAP1 SSTORE PUSH1 0xD SWAP1 SWAP2 MSTORE DUP1 DUP3 KECCAK256 DUP3 SWAP1 SSTORE MLOAD PUSH32 0xCDD2E9B91A56913D370075169CEFA1602BA36BE5301664F752192BB1709DF757 SWAP2 SWAP1 LOG2 POP JUMP JUMPDEST DUP4 DUP3 DUP5 DUP4 PUSH1 0x40 MLOAD PUSH1 0x20 ADD PUSH2 0x1ED4 SWAP2 DUP2 MSTORE PUSH1 0x20 ADD SWAP1 JUMP JUMPDEST PUSH1 0x40 MLOAD PUSH1 0x20 DUP2 DUP4 SUB SUB DUP2 MSTORE SWAP1 PUSH1 0x40 MSTORE PUSH1 0x0 DUP5 PUSH1 0x40 MLOAD PUSH1 0x20 ADD PUSH2 0x1EF6 SWAP2 SWAP1 PUSH2 0x3F3D JUMP JUMPDEST PUSH1 0x40 DUP1 MLOAD PUSH1 0x1F NOT DUP2 DUP5 SUB ADD DUP2 MSTORE SWAP2 SWAP1 MSTORE DUP1 MLOAD PUSH1 0x20 SWAP1 SWAP2 ADD KECCAK256 SWAP1 POP PUSH1 0x0 DUP1 DUP3 DUP2 MSTORE PUSH1 0xF PUSH1 0x20 MSTORE PUSH1 0x40 SWAP1 KECCAK256 SLOAD PUSH1 0xFF AND PUSH1 0x2 DUP2 GT ISZERO PUSH2 0x1F34 JUMPI PUSH2 0x1F34 PUSH2 0x398F JUMP JUMPDEST EQ PUSH2 0x1F51 JUMPI PUSH1 0x40 MLOAD PUSH3 0x461BCD PUSH1 0xE5 SHL DUP2 MSTORE PUSH1 0x4 ADD PUSH2 0x8F9 SWAP1 PUSH2 0x3F74 JUMP JUMPDEST PUSH1 0x0 DUP3 DUP5 PUSH1 0x40 MLOAD PUSH1 0x20 ADD PUSH2 0x1F66 SWAP3 SWAP2 SWAP1 PUSH2 0x3FA9 JUMP JUMPDEST PUSH1 0x40 DUP1 MLOAD PUSH1 0x1F NOT DUP2 DUP5 SUB ADD DUP2 MSTORE SWAP1 DUP3 SWAP1 MSTORE DUP1 MLOAD PUSH1 0x20 SWAP2 DUP3 ADD KECCAK256 DUP1 DUP4 MSTORE SWAP3 POP PUSH1 0x0 DUP1 MLOAD PUSH1 0x20 PUSH2 0x419D DUP4 CODECOPY DUP2 MLOAD SWAP2 MSTORE SWAP2 ADD PUSH1 0x40 MLOAD DUP1 SWAP2 SUB SWAP1 LOG1 PUSH1 0x0 PUSH2 0x1FAA DUP3 DUP8 DUP10 PUSH2 0x2394 JUMP JUMPDEST PUSH1 0x12 DUP1 SLOAD PUSH1 0xFF NOT AND DUP3 ISZERO ISZERO OR SWAP1 SSTORE SWAP1 POP DUP1 PUSH2 0x1FDD JUMPI PUSH1 0x40 MLOAD DUP3 DUP2 MSTORE PUSH1 0x0 DUP1 MLOAD PUSH1 0x20 PUSH2 0x417D DUP4 CODECOPY DUP2 MLOAD SWAP2 MSTORE SWAP1 PUSH1 0x20 ADD PUSH2 0xD37 JUMP JUMPDEST PUSH1 0x0 DUP4 DUP2 MSTORE PUSH1 0xF PUSH1 0x20 MSTORE PUSH1 0x40 SWAP1 DUP2 SWAP1 KECCAK256 SLOAD SWAP1 MLOAD PUSH1 0x0 DUP1 MLOAD PUSH1 0x20 PUSH2 0x41BD DUP4 CODECOPY DUP2 MLOAD SWAP2 MSTORE SWAP2 PUSH2 0x2013 SWAP2 PUSH1 0xFF SWAP1 SWAP2 AND SWAP1 DUP7 SWAP1 DUP10 SWAP1 PUSH2 0x39C7 JUMP JUMPDEST PUSH1 0x40 MLOAD DUP1 SWAP2 SUB SWAP1 LOG1 PUSH2 0x2025 DUP4 DUP7 PUSH2 0x34B6 JUMP JUMPDEST PUSH2 0x2030 PUSH1 0x1 DUP10 PUSH2 0x3654 JUMP JUMPDEST POP POP POP POP POP POP POP POP POP POP POP JUMP JUMPDEST DUP4 DUP4 DUP4 DUP4 PUSH1 0x40 MLOAD PUSH1 0x20 ADD PUSH2 0x2051 SWAP2 SWAP1 PUSH2 0x3FCB JUMP JUMPDEST PUSH1 0x40 MLOAD PUSH1 0x20 DUP2 DUP4 SUB SUB DUP2 MSTORE SWAP1 PUSH1 0x40 MSTORE PUSH1 0x0 DUP5 PUSH1 0x40 MLOAD PUSH1 0x20 ADD PUSH2 0x2073 SWAP2 SWAP1 PUSH2 0x3F3D JUMP JUMPDEST PUSH1 0x40 DUP1 MLOAD PUSH1 0x1F NOT DUP2 DUP5 SUB ADD DUP2 MSTORE SWAP2 SWAP1 MSTORE DUP1 MLOAD PUSH1 0x20 SWAP1 SWAP2 ADD KECCAK256 SWAP1 POP PUSH1 0x0 DUP1 DUP3 DUP2 MSTORE PUSH1 0xF PUSH1 0x20 MSTORE PUSH1 0x40 SWAP1 KECCAK256 SLOAD PUSH1 0xFF AND PUSH1 0x2 DUP2 GT ISZERO PUSH2 0x20B1 JUMPI PUSH2 0x20B1 PUSH2 0x398F JUMP JUMPDEST EQ PUSH2 0x20CE JUMPI PUSH1 0x40 MLOAD PUSH3 0x461BCD PUSH1 0xE5 SHL DUP2 MSTORE PUSH1 0x4 ADD PUSH2 0x8F9 SWAP1 PUSH2 0x3F74 JUMP JUMPDEST PUSH1 0x0 DUP3 DUP5 PUSH1 0x40 MLOAD PUSH1 0x20 ADD PUSH2 0x20E3 SWAP3 SWAP2 SWAP1 PUSH2 0x3FA9 JUMP JUMPDEST PUSH1 0x40 DUP1 MLOAD PUSH1 0x1F NOT DUP2 DUP5 SUB ADD DUP2 MSTORE SWAP1 DUP3 SWAP1 MSTORE DUP1 MLOAD PUSH1 0x20 SWAP2 DUP3 ADD KECCAK256 DUP1 DUP4 MSTORE SWAP3 POP PUSH1 0x0 DUP1 MLOAD PUSH1 0x20 PUSH2 0x419D DUP4 CODECOPY DUP2 MLOAD SWAP2 MSTORE SWAP2 ADD PUSH1 0x40 MLOAD DUP1 SWAP2 SUB SWAP1 LOG1 PUSH1 0x0 PUSH2 0x2127 DUP3 DUP8 DUP10 PUSH2 0x2394 JUMP JUMPDEST PUSH1 0x12 DUP1 SLOAD PUSH1 0xFF NOT AND DUP3 ISZERO ISZERO OR SWAP1 SSTORE SWAP1 POP DUP1 PUSH2 0x215A JUMPI PUSH1 0x40 MLOAD DUP3 DUP2 MSTORE PUSH1 0x0 DUP1 MLOAD PUSH1 0x20 PUSH2 0x417D DUP4 CODECOPY DUP2 MLOAD SWAP2 MSTORE SWAP1 PUSH1 0x20 ADD PUSH2 0xD37 JUMP JUMPDEST PUSH1 0x0 DUP4 DUP2 MSTORE PUSH1 0xF PUSH1 0x20 MSTORE PUSH1 0x40 SWAP1 DUP2 SWAP1 KECCAK256 SLOAD SWAP1 MLOAD PUSH1 0x0 DUP1 MLOAD PUSH1 0x20 PUSH2 0x41BD DUP4 CODECOPY DUP2 MLOAD SWAP2 MSTORE SWAP2 PUSH2 0x2190 SWAP2 PUSH1 0xFF SWAP1 SWAP2 AND SWAP1 DUP7 SWAP1 DUP10 SWAP1 PUSH2 0x39C7 JUMP JUMPDEST PUSH1 0x40 MLOAD DUP1 SWAP2 SUB SWAP1 LOG1 PUSH2 0x21A2 DUP4 DUP7 PUSH2 0x34B6 JUMP JUMPDEST DUP8 PUSH1 0x40 MLOAD PUSH1 0x20 ADD PUSH2 0x21B3 SWAP2 SWAP1 PUSH2 0x3FCB JUMP JUMPDEST PUSH1 0x40 DUP1 MLOAD PUSH1 0x1F NOT DUP2 DUP5 SUB ADD DUP2 MSTORE SWAP2 SWAP1 MSTORE DUP1 MLOAD PUSH1 0x20 SWAP1 SWAP2 ADD KECCAK256 PUSH1 0x13 SSTORE POP POP POP POP POP POP POP POP POP POP POP JUMP JUMPDEST DUP3 DUP3 DUP3 DUP7 PUSH1 0x40 MLOAD PUSH1 0x20 ADD PUSH2 0x21EF SWAP2 SWAP1 PUSH2 0x3FCB JUMP JUMPDEST PUSH1 0x40 MLOAD PUSH1 0x20 DUP2 DUP4 SUB SUB DUP2 MSTORE SWAP1 PUSH1 0x40 MSTORE PUSH1 0x0 DUP5 PUSH1 0x40 MLOAD PUSH1 0x20 ADD PUSH2 0x2211 SWAP2 SWAP1 PUSH2 0x3F3D JUMP JUMPDEST PUSH1 0x40 DUP1 MLOAD PUSH1 0x1F NOT DUP2 DUP5 SUB ADD DUP2 MSTORE SWAP2 SWAP1 MSTORE DUP1 MLOAD PUSH1 0x20 SWAP1 SWAP2 ADD KECCAK256 SWAP1 POP PUSH1 0x0 DUP1 DUP3 DUP2 MSTORE PUSH1 0xF PUSH1 0x20 MSTORE PUSH1 0x40 SWAP1 KECCAK256 SLOAD PUSH1 0xFF AND PUSH1 0x2 DUP2 GT ISZERO PUSH2 0x224F JUMPI PUSH2 0x224F PUSH2 0x398F JUMP JUMPDEST EQ PUSH2 0x226C JUMPI PUSH1 0x40 MLOAD PUSH3 0x461BCD PUSH1 0xE5 SHL DUP2 MSTORE PUSH1 0x4 ADD PUSH2 0x8F9 SWAP1 PUSH2 0x3F74 JUMP JUMPDEST PUSH1 0x0 DUP3 DUP5 PUSH1 0x40 MLOAD PUSH1 0x20 ADD PUSH2 0x2281 SWAP3 SWAP2 SWAP1 PUSH2 0x3FA9 JUMP JUMPDEST PUSH1 0x40 DUP1 MLOAD PUSH1 0x1F NOT DUP2 DUP5 SUB ADD DUP2 MSTORE SWAP1 DUP3 SWAP1 MSTORE DUP1 MLOAD PUSH1 0x20 SWAP2 DUP3 ADD KECCAK256 DUP1 DUP4 MSTORE SWAP3 POP PUSH1 0x0 DUP1 MLOAD PUSH1 0x20 PUSH2 0x419D DUP4 CODECOPY DUP2 MLOAD SWAP2 MSTORE SWAP2 ADD PUSH1 0x40 MLOAD DUP1 SWAP2 SUB SWAP1 LOG1 PUSH1 0x0 PUSH2 0x22C5 DUP3 DUP8 DUP10 PUSH2 0x2394 JUMP JUMPDEST PUSH1 0x12 DUP1 SLOAD PUSH1 0xFF NOT AND DUP3 ISZERO ISZERO OR SWAP1 SSTORE SWAP1 POP DUP1 PUSH2 0x22F8 JUMPI PUSH1 0x40 MLOAD DUP3 DUP2 MSTORE PUSH1 0x0 DUP1 MLOAD PUSH1 0x20 PUSH2 0x417D DUP4 CODECOPY DUP2 MLOAD SWAP2 MSTORE SWAP1 PUSH1 0x20 ADD PUSH2 0xD37 JUMP JUMPDEST PUSH1 0x0 DUP4 DUP2 MSTORE PUSH1 0xF PUSH1 0x20 MSTORE PUSH1 0x40 SWAP1 DUP2 SWAP1 KECCAK256 SLOAD SWAP1 MLOAD PUSH1 0x0 DUP1 MLOAD PUSH1 0x20 PUSH2 0x41BD DUP4 CODECOPY DUP2 MLOAD SWAP2 MSTORE SWAP2 PUSH2 0x232E SWAP2 PUSH1 0xFF SWAP1 SWAP2 AND SWAP1 DUP7 SWAP1 DUP10 SWAP1 PUSH2 0x39C7 JUMP JUMPDEST PUSH1 0x40 MLOAD DUP1 SWAP2 SUB SWAP1 LOG1 PUSH2 0x2340 DUP4 DUP7 PUSH2 0x34B6 JUMP JUMPDEST PUSH1 0x1 PUSH1 0x1 PUSH1 0xA0 SHL SUB DUP12 AND PUSH1 0x0 DUP2 DUP2 MSTORE PUSH1 0x8 PUSH1 0x20 SWAP1 DUP2 MSTORE PUSH1 0x40 SWAP2 DUP3 SWAP1 KECCAK256 DUP1 SLOAD PUSH1 0xFF NOT AND PUSH1 0x1 OR SWAP1 SSTORE SWAP1 MLOAD SWAP2 DUP3 MSTORE PUSH32 0x9C2D3039F3D15023B5382D61054AAE8F70288E4BFFB8676398BACA3C389E8F18 SWAP2 ADD PUSH2 0x1BB3 JUMP JUMPDEST PUSH1 0x0 DUP1 JUMPDEST PUSH2 0x100 DUP2 LT ISZERO PUSH2 0x243C JUMPI DUP4 DUP2 PUSH2 0x100 DUP2 LT PUSH2 0x23B5 JUMPI PUSH2 0x23B5 PUSH2 0x3E77 JUMP JUMPDEST PUSH1 0x20 MUL DUP2 ADD SWAP1 PUSH2 0x23C5 SWAP2 SWAP1 PUSH2 0x40BE JUMP JUMPDEST PUSH1 0x40 MLOAD PUSH2 0x23D3 SWAP3 SWAP2 SWAP1 PUSH2 0x410C JUMP JUMPDEST PUSH1 0x40 MLOAD DUP1 SWAP2 SUB SWAP1 KECCAK256 DUP4 DUP3 PUSH2 0x100 DUP2 LT PUSH2 0x23EE JUMPI PUSH2 0x23EE PUSH2 0x3E77 JUMP JUMPDEST PUSH1 0x40 MUL ADD PUSH1 0x0 DUP4 PUSH1 0xFF SUB PUSH1 0x1 SWAP1 SHL DUP9 AND GT PUSH2 0x240A JUMPI PUSH1 0x0 PUSH2 0x240D JUMP JUMPDEST PUSH1 0x1 JUMPDEST PUSH1 0xFF AND PUSH1 0x2 DUP2 LT PUSH2 0x2420 JUMPI PUSH2 0x2420 PUSH2 0x3E77 JUMP JUMPDEST PUSH1 0x20 MUL ADD CALLDATALOAD EQ PUSH2 0x2434 JUMPI PUSH1 0x0 SWAP2 POP POP PUSH2 0x2442 JUMP JUMPDEST PUSH1 0x1 ADD PUSH2 0x2398 JUMP JUMPDEST POP PUSH1 0x1 SWAP1 POP JUMPDEST SWAP4 SWAP3 POP POP POP JUMP JUMPDEST DUP3 DUP3 DUP3 DUP7 PUSH1 0x40 MLOAD PUSH1 0x20 ADD PUSH2 0x245F SWAP2 DUP2 MSTORE PUSH1 0x20 ADD SWAP1 JUMP JUMPDEST PUSH1 0x40 MLOAD PUSH1 0x20 DUP2 DUP4 SUB SUB DUP2 MSTORE SWAP1 PUSH1 0x40 MSTORE PUSH1 0x0 DUP5 PUSH1 0x40 MLOAD PUSH1 0x20 ADD PUSH2 0x2481 SWAP2 SWAP1 PUSH2 0x3F3D JUMP JUMPDEST PUSH1 0x40 DUP1 MLOAD PUSH1 0x1F NOT DUP2 DUP5 SUB ADD DUP2 MSTORE SWAP2 SWAP1 MSTORE DUP1 MLOAD PUSH1 0x20 SWAP1 SWAP2 ADD KECCAK256 SWAP1 POP PUSH1 0x0 DUP1 DUP3 DUP2 MSTORE PUSH1 0xF PUSH1 0x20 MSTORE PUSH1 0x40 SWAP1 KECCAK256 SLOAD PUSH1 0xFF AND PUSH1 0x2 DUP2 GT ISZERO PUSH2 0x24BF JUMPI PUSH2 0x24BF PUSH2 0x398F JUMP JUMPDEST EQ PUSH2 0x24DC JUMPI PUSH1 0x40 MLOAD PUSH3 0x461BCD PUSH1 0xE5 SHL DUP2 MSTORE PUSH1 0x4 ADD PUSH2 0x8F9 SWAP1 PUSH2 0x3F74 JUMP JUMPDEST PUSH1 0x0 DUP3 DUP5 PUSH1 0x40 MLOAD PUSH1 0x20 ADD PUSH2 0x24F1 SWAP3 SWAP2 SWAP1 PUSH2 0x3FA9 JUMP JUMPDEST PUSH1 0x40 DUP1 MLOAD PUSH1 0x1F NOT DUP2 DUP5 SUB ADD DUP2 MSTORE SWAP1 DUP3 SWAP1 MSTORE DUP1 MLOAD PUSH1 0x20 SWAP2 DUP3 ADD KECCAK256 DUP1 DUP4 MSTORE SWAP3 POP PUSH1 0x0 DUP1 MLOAD PUSH1 0x20 PUSH2 0x419D DUP4 CODECOPY DUP2 MLOAD SWAP2 MSTORE SWAP2 ADD PUSH1 0x40 MLOAD DUP1 SWAP2 SUB SWAP1 LOG1 PUSH1 0x0 PUSH2 0x2535 DUP3 DUP8 DUP10 PUSH2 0x2394 JUMP JUMPDEST PUSH1 0x12 DUP1 SLOAD PUSH1 0xFF NOT AND DUP3 ISZERO ISZERO OR SWAP1 SSTORE SWAP1 POP DUP1 PUSH2 0x2568 JUMPI PUSH1 0x40 MLOAD DUP3 DUP2 MSTORE PUSH1 0x0 DUP1 MLOAD PUSH1 0x20 PUSH2 0x417D DUP4 CODECOPY DUP2 MLOAD SWAP2 MSTORE SWAP1 PUSH1 0x20 ADD PUSH2 0xD37 JUMP JUMPDEST PUSH1 0x0 DUP4 DUP2 MSTORE PUSH1 0xF PUSH1 0x20 MSTORE PUSH1 0x40 SWAP1 DUP2 SWAP1 KECCAK256 SLOAD SWAP1 MLOAD PUSH1 0x0 DUP1 MLOAD PUSH1 0x20 PUSH2 0x41BD DUP4 CODECOPY DUP2 MLOAD SWAP2 MSTORE SWAP2 PUSH2 0x259E SWAP2 PUSH1 0xFF SWAP1 SWAP2 AND SWAP1 DUP7 SWAP1 DUP10 SWAP1 PUSH2 0x39C7 JUMP JUMPDEST PUSH1 0x40 MLOAD DUP1 SWAP2 SUB SWAP1 LOG1 PUSH2 0x25B0 DUP4 DUP7 PUSH2 0x34B6 JUMP JUMPDEST PUSH1 0x0 DUP12 SWAP1 SSTORE PUSH1 0x40 MLOAD DUP12 DUP2 MSTORE PUSH32 0x58098EEEC115CBA633A1B8765151F8A2E4EFBDCB42846E0968E430D56E21D370 SWAP1 PUSH1 0x20 ADD PUSH2 0x1BB3 JUMP JUMPDEST PUSH1 0xE SLOAD PUSH1 0x60 SWAP1 PUSH1 0x0 SWAP1 PUSH8 0xFFFFFFFFFFFFFFFF DUP2 GT ISZERO PUSH2 0x2606 JUMPI PUSH2 0x2606 PUSH2 0x3A01 JUMP JUMPDEST PUSH1 0x40 MLOAD SWAP1 DUP1 DUP3 MSTORE DUP1 PUSH1 0x20 MUL PUSH1 0x20 ADD DUP3 ADD PUSH1 0x40 MSTORE DUP1 ISZERO PUSH2 0x262F JUMPI DUP2 PUSH1 0x20 ADD PUSH1 0x20 DUP3 MUL DUP1 CALLDATASIZE DUP4 CALLDATACOPY ADD SWAP1 POP JUMPDEST POP SWAP1 POP PUSH1 0x0 DUP1 JUMPDEST PUSH1 0xE SLOAD DUP2 LT ISZERO PUSH2 0x26F0 JUMPI DUP5 PUSH1 0x2 DUP2 GT ISZERO PUSH2 0x2652 JUMPI PUSH2 0x2652 PUSH2 0x398F JUMP JUMPDEST PUSH1 0xE DUP3 DUP2 SLOAD DUP2 LT PUSH2 0x2665 JUMPI PUSH2 0x2665 PUSH2 0x3E77 JUMP JUMPDEST PUSH1 0x0 SWAP2 DUP3 MSTORE PUSH1 0x20 SWAP1 SWAP2 KECCAK256 PUSH1 0x2 SWAP2 DUP3 MUL ADD SLOAD PUSH1 0xFF AND SWAP1 DUP2 GT ISZERO PUSH2 0x2689 JUMPI PUSH2 0x2689 PUSH2 0x398F JUMP JUMPDEST SUB PUSH2 0x26DE JUMPI PUSH1 0xE DUP2 DUP2 SLOAD DUP2 LT PUSH2 0x26A1 JUMPI PUSH2 0x26A1 PUSH2 0x3E77 JUMP JUMPDEST SWAP1 PUSH1 0x0 MSTORE PUSH1 0x20 PUSH1 0x0 KECCAK256 SWAP1 PUSH1 0x2 MUL ADD PUSH1 0x1 ADD SLOAD DUP4 DUP4 DUP2 MLOAD DUP2 LT PUSH2 0x26C5 JUMPI PUSH2 0x26C5 PUSH2 0x3E77 JUMP JUMPDEST PUSH1 0x20 SWAP1 DUP2 MUL SWAP2 SWAP1 SWAP2 ADD ADD MSTORE DUP2 PUSH2 0x26DA DUP2 PUSH2 0x3EA3 JUMP JUMPDEST SWAP3 POP POP JUMPDEST DUP1 PUSH2 0x26E8 DUP2 PUSH2 0x3EA3 JUMP JUMPDEST SWAP2 POP POP PUSH2 0x2636 JUMP JUMPDEST POP PUSH1 0x0 DUP2 PUSH8 0xFFFFFFFFFFFFFFFF DUP2 GT ISZERO PUSH2 0x270C JUMPI PUSH2 0x270C PUSH2 0x3A01 JUMP JUMPDEST PUSH1 0x40 MLOAD SWAP1 DUP1 DUP3 MSTORE DUP1 PUSH1 0x20 MUL PUSH1 0x20 ADD DUP3 ADD PUSH1 0x40 MSTORE DUP1 ISZERO PUSH2 0x2735 JUMPI DUP2 PUSH1 0x20 ADD PUSH1 0x20 DUP3 MUL DUP1 CALLDATASIZE DUP4 CALLDATACOPY ADD SWAP1 POP JUMPDEST POP SWAP1 POP PUSH1 0x0 JUMPDEST DUP3 DUP2 LT ISZERO PUSH2 0x278C JUMPI DUP4 DUP2 DUP2 MLOAD DUP2 LT PUSH2 0x2755 JUMPI PUSH2 0x2755 PUSH2 0x3E77 JUMP JUMPDEST PUSH1 0x20 MUL PUSH1 0x20 ADD ADD MLOAD DUP3 DUP3 DUP2 MLOAD DUP2 LT PUSH2 0x276F JUMPI PUSH2 0x276F PUSH2 0x3E77 JUMP JUMPDEST PUSH1 0x20 SWAP1 DUP2 MUL SWAP2 SWAP1 SWAP2 ADD ADD MSTORE DUP1 PUSH2 0x2784 DUP2 PUSH2 0x3EA3 JUMP JUMPDEST SWAP2 POP POP PUSH2 0x273B JUMP JUMPDEST POP SWAP5 SWAP4 POP POP POP POP JUMP JUMPDEST CALLER PUSH1 0x0 SWAP1 DUP2 MSTORE PUSH1 0x8 PUSH1 0x20 MSTORE PUSH1 0x40 SWAP1 KECCAK256 SLOAD PUSH1 0xFF AND PUSH2 0x2803 JUMPI PUSH1 0x40 MLOAD PUSH3 0x461BCD PUSH1 0xE5 SHL DUP2 MSTORE PUSH1 0x20 PUSH1 0x4 DUP3 ADD MSTORE PUSH1 0x26 PUSH1 0x24 DUP3 ADD MSTORE PUSH32 0x4E6F74207065726D697474656420746F206D6F64696679206D696E7574657320 PUSH1 0x44 DUP3 ADD MSTORE PUSH6 0x1C1B185E5959 PUSH1 0xD2 SHL PUSH1 0x64 DUP3 ADD MSTORE PUSH1 0x84 ADD PUSH2 0x8F9 JUMP JUMPDEST PUSH1 0x1 PUSH1 0x1 PUSH1 0xA0 SHL SUB DUP3 AND PUSH1 0x0 SWAP1 DUP2 MSTORE PUSH1 0xA PUSH1 0x20 MSTORE PUSH1 0x40 DUP2 KECCAK256 DUP1 SLOAD DUP4 SWAP3 SWAP1 PUSH2 0x282B SWAP1 DUP5 SWAP1 PUSH2 0x4089 JUMP JUMPDEST SWAP1 SWAP2 SSTORE POP POP PUSH1 0x40 MLOAD DUP2 DUP2 MSTORE PUSH1 0x1 PUSH1 0x1 PUSH1 0xA0 SHL SUB DUP4 AND SWAP1 PUSH32 0x54ECAB596BD73E6A3FD6D8BB310AA69A74C3F78DDC040F88C6F5D06DFFB3542B SWAP1 PUSH1 0x20 ADD PUSH2 0x16BF JUMP JUMPDEST DUP4 DUP4 DUP4 DUP4 PUSH1 0x40 MLOAD PUSH1 0x20 ADD PUSH2 0x2881 SWAP2 DUP2 MSTORE PUSH1 0x20 ADD SWAP1 JUMP JUMPDEST PUSH1 0x40 MLOAD PUSH1 0x20 DUP2 DUP4 SUB SUB DUP2 MSTORE SWAP1 PUSH1 0x40 MSTORE PUSH1 0x0 DUP5 PUSH1 0x40 MLOAD PUSH1 0x20 ADD PUSH2 0x28A3 SWAP2 SWAP1 PUSH2 0x3F3D JUMP JUMPDEST PUSH1 0x40 DUP1 MLOAD PUSH1 0x1F NOT DUP2 DUP5 SUB ADD DUP2 MSTORE SWAP2 SWAP1 MSTORE DUP1 MLOAD PUSH1 0x20 SWAP1 SWAP2 ADD KECCAK256 SWAP1 POP PUSH1 0x0 DUP1 DUP3 DUP2 MSTORE PUSH1 0xF PUSH1 0x20 MSTORE PUSH1 0x40 SWAP1 KECCAK256 SLOAD PUSH1 0xFF AND PUSH1 0x2 DUP2 GT ISZERO PUSH2 0x28E1 JUMPI PUSH2 0x28E1 PUSH2 0x398F JUMP JUMPDEST EQ PUSH2 0x28FE JUMPI PUSH1 0x40 MLOAD PUSH3 0x461BCD PUSH1 0xE5 SHL DUP2 MSTORE PUSH1 0x4 ADD PUSH2 0x8F9 SWAP1 PUSH2 0x3F74 JUMP JUMPDEST PUSH1 0x0 DUP3 DUP5 PUSH1 0x40 MLOAD PUSH1 0x20 ADD PUSH2 0x2913 SWAP3 SWAP2 SWAP1 PUSH2 0x3FA9 JUMP JUMPDEST PUSH1 0x40 DUP1 MLOAD PUSH1 0x1F NOT DUP2 DUP5 SUB ADD DUP2 MSTORE SWAP1 DUP3 SWAP1 MSTORE DUP1 MLOAD PUSH1 0x20 SWAP2 DUP3 ADD KECCAK256 DUP1 DUP4 MSTORE SWAP3 POP PUSH1 0x0 DUP1 MLOAD PUSH1 0x20 PUSH2 0x419D DUP4 CODECOPY DUP2 MLOAD SWAP2 MSTORE SWAP2 ADD PUSH1 0x40 MLOAD DUP1 SWAP2 SUB SWAP1 LOG1 PUSH1 0x0 PUSH2 0x2957 DUP3 DUP8 DUP10 PUSH2 0x2394 JUMP JUMPDEST PUSH1 0x12 DUP1 SLOAD PUSH1 0xFF NOT AND DUP3 ISZERO ISZERO OR SWAP1 SSTORE SWAP1 POP DUP1 PUSH2 0x298A JUMPI PUSH1 0x40 MLOAD DUP3 DUP2 MSTORE PUSH1 0x0 DUP1 MLOAD PUSH1 0x20 PUSH2 0x417D DUP4 CODECOPY DUP2 MLOAD SWAP2 MSTORE SWAP1 PUSH1 0x20 ADD PUSH2 0xD37 JUMP JUMPDEST PUSH1 0x0 DUP4 DUP2 MSTORE PUSH1 0xF PUSH1 0x20 MSTORE PUSH1 0x40 SWAP1 DUP2 SWAP1 KECCAK256 SLOAD SWAP1 MLOAD PUSH1 0x0 DUP1 MLOAD PUSH1 0x20 PUSH2 0x41BD DUP4 CODECOPY DUP2 MLOAD SWAP2 MSTORE SWAP2 PUSH2 0x29C0 SWAP2 PUSH1 0xFF SWAP1 SWAP2 AND SWAP1 DUP7 SWAP1 DUP10 SWAP1 PUSH2 0x39C7 JUMP JUMPDEST PUSH1 0x40 MLOAD DUP1 SWAP2 SUB SWAP1 LOG1 PUSH2 0x29D2 DUP4 DUP7 PUSH2 0x34B6 JUMP JUMPDEST POP POP POP PUSH1 0x14 SWAP5 SWAP1 SWAP5 SSTORE POP POP POP PUSH1 0x15 SWAP2 SWAP1 SWAP2 SSTORE POP POP POP JUMP JUMPDEST PUSH1 0x7 SLOAD PUSH1 0x40 DUP1 MLOAD PUSH1 0x4 DUP2 MSTORE PUSH1 0x24 DUP2 ADD DUP3 MSTORE PUSH1 0x20 DUP2 ADD DUP1 MLOAD PUSH1 0x1 PUSH1 0x1 PUSH1 0xE0 SHL SUB AND PUSH4 0x1BAD9E05 PUSH1 0xE1 SHL OR SWAP1 MSTORE SWAP1 MLOAD PUSH1 0x0 SWAP3 PUSH32 0x375B3C0A792940DAC787DA40232E8CC6A34ABC755014C8E76617AD03F30ECDC8 SWAP3 DUP5 SWAP3 DUP4 SWAP3 PUSH1 0x1 PUSH1 0x1 PUSH1 0xA0 SHL SUB AND SWAP2 PUSH2 0x2A52 SWAP2 PUSH2 0x3F21 JUMP JUMPDEST PUSH1 0x0 PUSH1 0x40 MLOAD DUP1 DUP4 SUB DUP2 DUP6 GAS STATICCALL SWAP2 POP POP RETURNDATASIZE DUP1 PUSH1 0x0 DUP2 EQ PUSH2 0x2A8D JUMPI PUSH1 0x40 MLOAD SWAP2 POP PUSH1 0x1F NOT PUSH1 0x3F RETURNDATASIZE ADD AND DUP3 ADD PUSH1 0x40 MSTORE RETURNDATASIZE DUP3 MSTORE RETURNDATASIZE PUSH1 0x0 PUSH1 0x20 DUP5 ADD RETURNDATACOPY PUSH2 0x2A92 JUMP JUMPDEST PUSH1 0x60 SWAP2 POP JUMPDEST POP SWAP2 POP SWAP2 POP DUP2 PUSH2 0x2AE4 JUMPI PUSH1 0x40 MLOAD PUSH3 0x461BCD PUSH1 0xE5 SHL DUP2 MSTORE PUSH1 0x20 PUSH1 0x4 DUP3 ADD MSTORE PUSH1 0x17 PUSH1 0x24 DUP3 ADD MSTORE PUSH32 0x43616C6C20746F206D696E5374616B65206661696C6564000000000000000000 PUSH1 0x44 DUP3 ADD MSTORE PUSH1 0x64 ADD PUSH2 0x8F9 JUMP JUMPDEST DUP1 DUP1 PUSH1 0x20 ADD SWAP1 MLOAD DUP2 ADD SWAP1 PUSH2 0x2AF8 SWAP2 SWAP1 PUSH2 0x411C JUMP JUMPDEST SWAP4 POP POP POP POP SWAP1 JUMP JUMPDEST DUP4 DUP4 DUP4 DUP4 PUSH1 0x40 MLOAD PUSH1 0x20 ADD PUSH2 0x2B16 SWAP2 DUP2 MSTORE PUSH1 0x20 ADD SWAP1 JUMP JUMPDEST PUSH1 0x40 MLOAD PUSH1 0x20 DUP2 DUP4 SUB SUB DUP2 MSTORE SWAP1 PUSH1 0x40 MSTORE PUSH1 0x0 DUP5 PUSH1 0x40 MLOAD PUSH1 0x20 ADD PUSH2 0x2B38 SWAP2 SWAP1 PUSH2 0x3F3D JUMP JUMPDEST PUSH1 0x40 DUP1 MLOAD PUSH1 0x1F NOT DUP2 DUP5 SUB ADD DUP2 MSTORE SWAP2 SWAP1 MSTORE DUP1 MLOAD PUSH1 0x20 SWAP1 SWAP2 ADD KECCAK256 SWAP1 POP PUSH1 0x0 DUP1 DUP3 DUP2 MSTORE PUSH1 0xF PUSH1 0x20 MSTORE PUSH1 0x40 SWAP1 KECCAK256 SLOAD PUSH1 0xFF AND PUSH1 0x2 DUP2 GT ISZERO PUSH2 0x2B76 JUMPI PUSH2 0x2B76 PUSH2 0x398F JUMP JUMPDEST EQ PUSH2 0x2B93 JUMPI PUSH1 0x40 MLOAD PUSH3 0x461BCD PUSH1 0xE5 SHL DUP2 MSTORE PUSH1 0x4 ADD PUSH2 0x8F9 SWAP1 PUSH2 0x3F74 JUMP JUMPDEST PUSH1 0x0 DUP3 DUP5 PUSH1 0x40 MLOAD PUSH1 0x20 ADD PUSH2 0x2BA8 SWAP3 SWAP2 SWAP1 PUSH2 0x3FA9 JUMP JUMPDEST PUSH1 0x40 DUP1 MLOAD PUSH1 0x1F NOT DUP2 DUP5 SUB ADD DUP2 MSTORE SWAP1 DUP3 SWAP1 MSTORE DUP1 MLOAD PUSH1 0x20 SWAP2 DUP3 ADD KECCAK256 DUP1 DUP4 MSTORE SWAP3 POP PUSH1 0x0 DUP1 MLOAD PUSH1 0x20 PUSH2 0x419D DUP4 CODECOPY DUP2 MLOAD SWAP2 MSTORE SWAP2 ADD PUSH1 0x40 MLOAD DUP1 SWAP2 SUB SWAP1 LOG1 PUSH1 0x0 PUSH2 0x2BEC DUP3 DUP8 DUP10 PUSH2 0x2394 JUMP JUMPDEST PUSH1 0x12 DUP1 SLOAD PUSH1 0xFF NOT AND DUP3 ISZERO ISZERO OR SWAP1 SSTORE SWAP1 POP DUP1 PUSH2 0x2C1F JUMPI PUSH1 0x40 MLOAD DUP3 DUP2 MSTORE PUSH1 0x0 DUP1 MLOAD PUSH1 0x20 PUSH2 0x417D DUP4 CODECOPY DUP2 MLOAD SWAP2 MSTORE SWAP1 PUSH1 0x20 ADD PUSH2 0xD37 JUMP JUMPDEST PUSH1 0x0 DUP4 DUP2 MSTORE PUSH1 0xF PUSH1 0x20 MSTORE PUSH1 0x40 SWAP1 DUP2 SWAP1 KECCAK256 SLOAD SWAP1 MLOAD PUSH1 0x0 DUP1 MLOAD PUSH1 0x20 PUSH2 0x41BD DUP4 CODECOPY DUP2 MLOAD SWAP2 MSTORE SWAP2 PUSH2 0x2C55 SWAP2 PUSH1 0xFF SWAP1 SWAP2 AND SWAP1 DUP7 SWAP1 DUP10 SWAP1 PUSH2 0x39C7 JUMP JUMPDEST PUSH1 0x40 MLOAD DUP1 SWAP2 SUB SWAP1 LOG1 PUSH2 0x2C67 DUP4 DUP7 PUSH2 0x34B6 JUMP JUMPDEST PUSH1 0x0 DUP12 PUSH1 0x40 MLOAD PUSH1 0x20 ADD PUSH2 0x2C7A SWAP2 SWAP1 PUSH2 0x3F3D JUMP JUMPDEST PUSH1 0x40 MLOAD PUSH1 0x20 DUP2 DUP4 SUB SUB DUP2 MSTORE SWAP1 PUSH1 0x40 MSTORE DUP1 MLOAD SWAP1 PUSH1 0x20 ADD KECCAK256 SWAP1 POP PUSH1 0x15 SLOAD DUP2 SUB PUSH2 0x2D17 JUMPI PUSH1 0x40 MLOAD PUSH3 0x461BCD PUSH1 0xE5 SHL DUP2 MSTORE PUSH1 0x20 PUSH1 0x4 DUP3 ADD MSTORE PUSH1 0x44 PUSH1 0x24 DUP3 ADD DUP2 SWAP1 MSTORE PUSH32 0x416E6F6E4944436F6E74726163743A2043616E6E6F7420757365207468652073 SWAP1 DUP3 ADD MSTORE PUSH32 0x616D65206B6579636861696E20747769636520666F7220746869732066756E63 PUSH1 0x64 DUP3 ADD MSTORE PUSH4 0x3A34B7B7 PUSH1 0xE1 SHL PUSH1 0x84 DUP3 ADD MSTORE PUSH1 0xA4 ADD PUSH2 0x8F9 JUMP JUMPDEST DUP9 PUSH1 0x14 SLOAD EQ PUSH2 0x2D72 JUMPI PUSH1 0x40 MLOAD PUSH3 0x461BCD PUSH1 0xE5 SHL DUP2 MSTORE PUSH1 0x20 PUSH1 0x4 DUP3 ADD MSTORE PUSH1 0x21 PUSH1 0x24 DUP3 ADD MSTORE PUSH32 0x416E6F6E4944436F6E74726163743A204B65797320646F206E6F74206D617463 PUSH1 0x44 DUP3 ADD MSTORE PUSH1 0xD PUSH1 0xFB SHL PUSH1 0x64 DUP3 ADD MSTORE PUSH1 0x84 ADD PUSH2 0x8F9 JUMP JUMPDEST PUSH1 0x15 SLOAD DUP2 DUP11 PUSH1 0x0 DUP1 DUP5 DUP2 MSTORE PUSH1 0xF PUSH1 0x20 MSTORE PUSH1 0x40 SWAP1 KECCAK256 SLOAD PUSH1 0xFF AND PUSH1 0x2 DUP2 GT ISZERO PUSH2 0x2D9B JUMPI PUSH2 0x2D9B PUSH2 0x398F JUMP JUMPDEST EQ DUP1 ISZERO PUSH2 0x2DC8 JUMPI POP PUSH1 0x0 DUP3 DUP2 MSTORE PUSH1 0xF PUSH1 0x20 MSTORE PUSH1 0x40 DUP2 KECCAK256 SLOAD PUSH1 0xFF AND PUSH1 0x2 DUP2 GT ISZERO PUSH2 0x2DC6 JUMPI PUSH2 0x2DC6 PUSH2 0x398F JUMP JUMPDEST EQ JUMPDEST PUSH2 0x2E2E JUMPI PUSH1 0x40 MLOAD PUSH3 0x461BCD PUSH1 0xE5 SHL DUP2 MSTORE PUSH1 0x20 PUSH1 0x4 DUP3 ADD MSTORE PUSH1 0x31 PUSH1 0x24 DUP3 ADD MSTORE PUSH32 0x416E6F6E4944436F6E74726163743A2050726F7669646564206B657973206172 PUSH1 0x44 DUP3 ADD MSTORE PUSH17 0x65206E6F74206D6173746572206B657973 PUSH1 0x78 SHL PUSH1 0x64 DUP3 ADD MSTORE PUSH1 0x84 ADD PUSH2 0x8F9 JUMP JUMPDEST DUP3 DUP2 EQ ISZERO DUP1 ISZERO PUSH2 0x2E3E JUMPI POP DUP2 DUP2 EQ ISZERO JUMPDEST PUSH2 0x2EA7 JUMPI PUSH1 0x40 MLOAD PUSH3 0x461BCD PUSH1 0xE5 SHL DUP2 MSTORE PUSH1 0x20 PUSH1 0x4 DUP3 ADD MSTORE PUSH1 0x34 PUSH1 0x24 DUP3 ADD MSTORE PUSH32 0x416E6F6E4944436F6E74726163743A204D6173746572206B6579732063616E6E PUSH1 0x44 DUP3 ADD MSTORE PUSH20 0x6F742064656C657465207468656D73656C766573 PUSH1 0x60 SHL PUSH1 0x64 DUP3 ADD MSTORE PUSH1 0x84 ADD PUSH2 0x8F9 JUMP JUMPDEST PUSH1 0x0 DUP2 DUP2 MSTORE PUSH1 0xF PUSH1 0x20 MSTORE PUSH1 0x40 DUP2 KECCAK256 PUSH1 0x1 ADD SLOAD SWAP1 SUB PUSH2 0x2F16 JUMPI PUSH1 0x40 MLOAD PUSH3 0x461BCD PUSH1 0xE5 SHL DUP2 MSTORE PUSH1 0x20 PUSH1 0x4 DUP3 ADD MSTORE PUSH1 0x26 PUSH1 0x24 DUP3 ADD MSTORE PUSH32 0x416E6F6E4944436F6E74726163743A204E6F2073756368206B6579202864656C PUSH1 0x44 DUP3 ADD MSTORE PUSH6 0x6574696F6E29 PUSH1 0xD0 SHL PUSH1 0x64 DUP3 ADD MSTORE PUSH1 0x84 ADD PUSH2 0x8F9 JUMP JUMPDEST PUSH1 0x0 JUMPDEST PUSH1 0xE SLOAD DUP2 LT ISZERO PUSH2 0x3004 JUMPI DUP2 PUSH1 0xE DUP3 DUP2 SLOAD DUP2 LT PUSH2 0x2F37 JUMPI PUSH2 0x2F37 PUSH2 0x3E77 JUMP JUMPDEST SWAP1 PUSH1 0x0 MSTORE PUSH1 0x20 PUSH1 0x0 KECCAK256 SWAP1 PUSH1 0x2 MUL ADD PUSH1 0x1 ADD SLOAD SUB PUSH2 0x2FF2 JUMPI PUSH1 0x0 DUP3 DUP2 MSTORE PUSH1 0xF PUSH1 0x20 DUP2 DUP2 MSTORE PUSH1 0x40 DUP1 DUP5 KECCAK256 DUP1 SLOAD DUP3 MLOAD TIMESTAMP DUP2 DUP7 ADD MSTORE DIFFICULTY DUP2 DUP6 ADD MSTORE DUP4 MLOAD DUP1 DUP3 SUB DUP6 ADD DUP2 MSTORE PUSH1 0x60 SWAP1 SWAP2 ADD SWAP4 DUP5 SWAP1 MSTORE DUP1 MLOAD SWAP1 DUP6 ADD KECCAK256 SWAP6 DUP9 SWAP1 MSTORE SWAP4 SWAP1 SWAP3 MSTORE PUSH4 0xDE1E7ED PUSH1 0xE4 SHL DUP5 XOR PUSH1 0x1 DUP4 ADD DUP2 SWAP1 SSTORE PUSH1 0x2 PUSH1 0xFF NOT DUP6 AND DUP2 OR SWAP1 SWAP4 SSTORE PUSH1 0xFF SWAP1 SWAP4 AND SWAP4 SWAP2 PUSH32 0x643BE3612916977C69D5ED1ABB75A50CCA49DF49BA2444D836E2A0CF65FE074 SWAP2 PUSH2 0x2FE2 SWAP2 DUP7 SWAP2 DUP10 SWAP2 DUP8 SWAP2 PUSH2 0x4135 JUMP JUMPDEST PUSH1 0x40 MLOAD DUP1 SWAP2 SUB SWAP1 LOG1 POP POP POP PUSH2 0x3004 JUMP JUMPDEST DUP1 PUSH2 0x2FFC DUP2 PUSH2 0x3EA3 JUMP JUMPDEST SWAP2 POP POP PUSH2 0x2F19 JUMP JUMPDEST POP POP PUSH1 0x0 PUSH1 0x14 DUP2 SWAP1 SSTORE PUSH1 0x15 SSTORE POP POP POP POP POP POP POP POP POP POP POP POP POP POP JUMP JUMPDEST DUP4 DUP4 DUP4 DUP4 PUSH1 0x40 MLOAD PUSH1 0x20 ADD PUSH2 0x3036 SWAP2 DUP2 MSTORE PUSH1 0x20 ADD SWAP1 JUMP JUMPDEST PUSH1 0x40 MLOAD PUSH1 0x20 DUP2 DUP4 SUB SUB DUP2 MSTORE SWAP1 PUSH1 0x40 MSTORE PUSH1 0x0 DUP5 PUSH1 0x40 MLOAD PUSH1 0x20 ADD PUSH2 0x3058 SWAP2 SWAP1 PUSH2 0x3F3D JUMP JUMPDEST PUSH1 0x40 DUP1 MLOAD PUSH1 0x1F NOT DUP2 DUP5 SUB ADD DUP2 MSTORE SWAP2 SWAP1 MSTORE DUP1 MLOAD PUSH1 0x20 SWAP1 SWAP2 ADD KECCAK256 SWAP1 POP PUSH1 0x0 DUP1 DUP3 DUP2 MSTORE PUSH1 0xF PUSH1 0x20 MSTORE PUSH1 0x40 SWAP1 KECCAK256 SLOAD PUSH1 0xFF AND PUSH1 0x2 DUP2 GT ISZERO PUSH2 0x3096 JUMPI PUSH2 0x3096 PUSH2 0x398F JUMP JUMPDEST EQ PUSH2 0x30B3 JUMPI PUSH1 0x40 MLOAD PUSH3 0x461BCD PUSH1 0xE5 SHL DUP2 MSTORE PUSH1 0x4 ADD PUSH2 0x8F9 SWAP1 PUSH2 0x3F74 JUMP JUMPDEST PUSH1 0x0 DUP3 DUP5 PUSH1 0x40 MLOAD PUSH1 0x20 ADD PUSH2 0x30C8 SWAP3 SWAP2 SWAP1 PUSH2 0x3FA9 JUMP JUMPDEST PUSH1 0x40 DUP1 MLOAD PUSH1 0x1F NOT DUP2 DUP5 SUB ADD DUP2 MSTORE SWAP1 DUP3 SWAP1 MSTORE DUP1 MLOAD PUSH1 0x20 SWAP2 DUP3 ADD KECCAK256 DUP1 DUP4 MSTORE SWAP3 POP PUSH1 0x0 DUP1 MLOAD PUSH1 0x20 PUSH2 0x419D DUP4 CODECOPY DUP2 MLOAD SWAP2 MSTORE SWAP2 ADD PUSH1 0x40 MLOAD DUP1 SWAP2 SUB SWAP1 LOG1 PUSH1 0x0 PUSH2 0x310C DUP3 DUP8 DUP10 PUSH2 0x2394 JUMP JUMPDEST PUSH1 0x12 DUP1 SLOAD PUSH1 0xFF NOT AND DUP3 ISZERO ISZERO OR SWAP1 SSTORE SWAP1 POP DUP1 PUSH2 0x313F JUMPI PUSH1 0x40 MLOAD DUP3 DUP2 MSTORE PUSH1 0x0 DUP1 MLOAD PUSH1 0x20 PUSH2 0x417D DUP4 CODECOPY DUP2 MLOAD SWAP2 MSTORE SWAP1 PUSH1 0x20 ADD PUSH2 0xD37 JUMP JUMPDEST PUSH1 0x0 DUP4 DUP2 MSTORE PUSH1 0xF PUSH1 0x20 MSTORE PUSH1 0x40 SWAP1 DUP2 SWAP1 KECCAK256 SLOAD SWAP1 MLOAD PUSH1 0x0 DUP1 MLOAD PUSH1 0x20 PUSH2 0x41BD DUP4 CODECOPY DUP2 MLOAD SWAP2 MSTORE SWAP2 PUSH2 0x3175 SWAP2 PUSH1 0xFF SWAP1 SWAP2 AND SWAP1 DUP7 SWAP1 DUP10 SWAP1 PUSH2 0x39C7 JUMP JUMPDEST PUSH1 0x40 MLOAD DUP1 SWAP2 SUB SWAP1 LOG1 PUSH2 0x3187 DUP4 DUP7 PUSH2 0x34B6 JUMP JUMPDEST PUSH1 0x0 DUP12 PUSH1 0x40 MLOAD PUSH1 0x20 ADD PUSH2 0x319A SWAP2 SWAP1 PUSH2 0x3F3D JUMP JUMPDEST PUSH1 0x40 DUP1 MLOAD PUSH1 0x1F NOT DUP2 DUP5 SUB ADD DUP2 MSTORE SWAP2 SWAP1 MSTORE DUP1 MLOAD PUSH1 0x20 SWAP1 SWAP2 ADD KECCAK256 PUSH1 0x16 DUP1 SLOAD PUSH1 0x0 SWAP1 SWAP2 SSTORE SWAP1 SWAP2 POP DUP2 EQ ISZERO DUP1 PUSH2 0x320E JUMPI PUSH1 0x40 MLOAD PUSH3 0x461BCD PUSH1 0xE5 SHL DUP2 MSTORE PUSH1 0x20 PUSH1 0x4 DUP3 ADD DUP2 SWAP1 MSTORE PUSH1 0x24 DUP3 ADD MSTORE PUSH32 0x504B4820646F6573206E6F74206D61746368206C617374207573656420504B48 PUSH1 0x44 DUP3 ADD MSTORE PUSH1 0x64 ADD PUSH2 0x8F9 JUMP JUMPDEST PUSH1 0x40 DUP1 MLOAD PUSH1 0x24 DUP1 DUP3 ADD DUP14 SWAP1 MSTORE DUP3 MLOAD DUP1 DUP4 SUB SWAP1 SWAP2 ADD DUP2 MSTORE PUSH1 0x44 SWAP1 SWAP2 ADD DUP3 MSTORE PUSH1 0x20 DUP2 ADD DUP1 MLOAD PUSH1 0x1 PUSH1 0x1 PUSH1 0xE0 SHL SUB AND PUSH4 0x866C4B17 PUSH1 0xE0 SHL OR SWAP1 MSTORE PUSH1 0x6 SLOAD SWAP2 MLOAD PUSH32 0x866C4B17874B90200E8C3DB8234EA2FD494F2E10E49DB71A5F989D59700CC996 SWAP3 PUSH1 0x0 SWAP2 PUSH1 0x1 PUSH1 0x1 PUSH1 0xA0 SHL SUB SWAP1 SWAP2 AND SWAP1 CALLVALUE SWAP1 PUSH2 0x3288 SWAP1 DUP6 SWAP1 PUSH2 0x3F21 JUMP JUMPDEST PUSH1 0x0 PUSH1 0x40 MLOAD DUP1 DUP4 SUB DUP2 DUP6 DUP8 GAS CALL SWAP3 POP POP POP RETURNDATASIZE DUP1 PUSH1 0x0 DUP2 EQ PUSH2 0x32C5 JUMPI PUSH1 0x40 MLOAD SWAP2 POP PUSH1 0x1F NOT PUSH1 0x3F RETURNDATASIZE ADD AND DUP3 ADD PUSH1 0x40 MSTORE RETURNDATASIZE DUP3 MSTORE RETURNDATASIZE PUSH1 0x0 PUSH1 0x20 DUP5 ADD RETURNDATACOPY PUSH2 0x32CA JUMP JUMPDEST PUSH1 0x60 SWAP2 POP JUMPDEST POP POP SWAP1 POP DUP1 PUSH2 0x3325 JUMPI PUSH1 0x40 MLOAD PUSH3 0x461BCD PUSH1 0xE5 SHL DUP2 MSTORE PUSH1 0x20 PUSH1 0x4 DUP3 ADD MSTORE PUSH1 0x21 PUSH1 0x24 DUP3 ADD MSTORE PUSH32 0x43616C6C20746F207570646174654D696E53656C665374616B65206661696C65 PUSH1 0x44 DUP3 ADD MSTORE PUSH1 0x19 PUSH1 0xFA SHL PUSH1 0x64 DUP3 ADD MSTORE PUSH1 0x84 ADD PUSH2 0x8F9 JUMP JUMPDEST POP POP POP POP POP POP POP POP POP POP POP POP POP POP POP POP JUMP JUMPDEST DUP4 DUP4 DUP4 DUP4 PUSH1 0x40 MLOAD PUSH1 0x20 ADD PUSH2 0x334B SWAP2 SWAP1 PUSH2 0x3F21 JUMP JUMPDEST PUSH1 0x40 MLOAD PUSH1 0x20 DUP2 DUP4 SUB SUB DUP2 MSTORE SWAP1 PUSH1 0x40 MSTORE PUSH1 0x0 DUP5 PUSH1 0x40 MLOAD PUSH1 0x20 ADD PUSH2 0x336D SWAP2 SWAP1 PUSH2 0x3F3D JUMP JUMPDEST PUSH1 0x40 DUP1 MLOAD PUSH1 0x1F NOT DUP2 DUP5 SUB ADD DUP2 MSTORE SWAP2 SWAP1 MSTORE DUP1 MLOAD PUSH1 0x20 SWAP1 SWAP2 ADD KECCAK256 SWAP1 POP PUSH1 0x0 DUP1 DUP3 DUP2 MSTORE PUSH1 0xF PUSH1 0x20 MSTORE PUSH1 0x40 SWAP1 KECCAK256 SLOAD PUSH1 0xFF AND PUSH1 0x2 DUP2 GT ISZERO PUSH2 0x33AB JUMPI PUSH2 0x33AB PUSH2 0x398F JUMP JUMPDEST EQ PUSH2 0x33C8 JUMPI PUSH1 0x40 MLOAD PUSH3 0x461BCD PUSH1 0xE5 SHL DUP2 MSTORE PUSH1 0x4 ADD PUSH2 0x8F9 SWAP1 PUSH2 0x3F74 JUMP JUMPDEST PUSH1 0x0 DUP3 DUP5 PUSH1 0x40 MLOAD PUSH1 0x20 ADD PUSH2 0x33DD SWAP3 SWAP2 SWAP1 PUSH2 0x3FA9 JUMP JUMPDEST PUSH1 0x40 DUP1 MLOAD PUSH1 0x1F NOT DUP2 DUP5 SUB ADD DUP2 MSTORE SWAP1 DUP3 SWAP1 MSTORE DUP1 MLOAD PUSH1 0x20 SWAP2 DUP3 ADD KECCAK256 DUP1 DUP4 MSTORE SWAP3 POP PUSH1 0x0 DUP1 MLOAD PUSH1 0x20 PUSH2 0x419D DUP4 CODECOPY DUP2 MLOAD SWAP2 MSTORE SWAP2 ADD PUSH1 0x40 MLOAD DUP1 SWAP2 SUB SWAP1 LOG1 PUSH1 0x0 PUSH2 0x3421 DUP3 DUP8 DUP10 PUSH2 0x2394 JUMP JUMPDEST PUSH1 0x12 DUP1 SLOAD PUSH1 0xFF NOT AND DUP3 ISZERO ISZERO OR SWAP1 SSTORE SWAP1 POP DUP1 PUSH2 0x3454 JUMPI PUSH1 0x40 MLOAD DUP3 DUP2 MSTORE PUSH1 0x0 DUP1 MLOAD PUSH1 0x20 PUSH2 0x417D DUP4 CODECOPY DUP2 MLOAD SWAP2 MSTORE SWAP1 PUSH1 0x20 ADD PUSH2 0xD37 JUMP JUMPDEST PUSH1 0x0 DUP4 DUP2 MSTORE PUSH1 0xF PUSH1 0x20 MSTORE PUSH1 0x40 SWAP1 DUP2 SWAP1 KECCAK256 SLOAD SWAP1 MLOAD PUSH1 0x0 DUP1 MLOAD PUSH1 0x20 PUSH2 0x41BD DUP4 CODECOPY DUP2 MLOAD SWAP2 MSTORE SWAP2 PUSH2 0x348A SWAP2 PUSH1 0xFF SWAP1 SWAP2 AND SWAP1 DUP7 SWAP1 DUP10 SWAP1 PUSH2 0x39C7 JUMP JUMPDEST PUSH1 0x40 MLOAD DUP1 SWAP2 SUB SWAP1 LOG1 PUSH2 0x349C DUP4 DUP7 PUSH2 0x34B6 JUMP JUMPDEST POP POP DUP6 MLOAD PUSH1 0x20 SWAP1 SWAP7 ADD SWAP6 SWAP1 SWAP6 KECCAK256 PUSH1 0x3 SSTORE POP POP POP POP POP POP POP POP JUMP JUMPDEST PUSH1 0x0 DUP3 DUP2 MSTORE PUSH1 0xF PUSH1 0x20 MSTORE PUSH1 0x40 DUP2 KECCAK256 PUSH1 0x1 ADD SLOAD SWAP1 SUB PUSH2 0x34E6 JUMPI PUSH1 0x40 MLOAD PUSH3 0x461BCD PUSH1 0xE5 SHL DUP2 MSTORE PUSH1 0x4 ADD PUSH2 0x8F9 SWAP1 PUSH2 0x3E40 JUMP JUMPDEST PUSH1 0x40 DUP1 MLOAD DUP1 DUP3 ADD DUP3 MSTORE PUSH1 0x0 DUP5 DUP2 MSTORE PUSH1 0xF PUSH1 0x20 MSTORE SWAP2 DUP3 KECCAK256 SLOAD DUP2 SWAP1 PUSH1 0xFF AND PUSH1 0x2 DUP2 GT ISZERO PUSH2 0x3513 JUMPI PUSH2 0x3513 PUSH2 0x398F JUMP JUMPDEST DUP2 MSTORE PUSH1 0x20 SWAP1 DUP2 ADD DUP5 SWAP1 MSTORE PUSH1 0x0 DUP5 DUP2 MSTORE PUSH1 0xF SWAP1 SWAP2 MSTORE PUSH1 0x40 SWAP1 KECCAK256 DUP2 MLOAD DUP2 SLOAD SWAP3 SWAP4 POP DUP4 SWAP3 DUP3 SWAP1 PUSH1 0xFF NOT AND PUSH1 0x1 DUP4 PUSH1 0x2 DUP2 GT ISZERO PUSH2 0x354E JUMPI PUSH2 0x354E PUSH2 0x398F JUMP JUMPDEST MUL OR SWAP1 SSTORE POP PUSH1 0x20 SWAP2 DUP3 ADD MLOAD PUSH1 0x1 SWAP2 DUP3 ADD SSTORE PUSH1 0x0 DUP6 DUP2 MSTORE PUSH1 0xF SWAP1 SWAP3 MSTORE PUSH1 0x40 DUP3 KECCAK256 DUP1 SLOAD PUSH1 0xFF NOT AND DUP2 SSTORE ADD DUP2 SWAP1 SSTORE JUMPDEST PUSH1 0xE SLOAD DUP2 LT ISZERO PUSH2 0x3624 JUMPI DUP4 PUSH1 0xE DUP3 DUP2 SLOAD DUP2 LT PUSH2 0x3598 JUMPI PUSH2 0x3598 PUSH2 0x3E77 JUMP JUMPDEST SWAP1 PUSH1 0x0 MSTORE PUSH1 0x20 PUSH1 0x0 KECCAK256 SWAP1 PUSH1 0x2 MUL ADD PUSH1 0x1 ADD SLOAD SUB PUSH2 0x3612 JUMPI DUP2 PUSH1 0xE DUP3 DUP2 SLOAD DUP2 LT PUSH2 0x35C3 JUMPI PUSH2 0x35C3 PUSH2 0x3E77 JUMP JUMPDEST SWAP1 PUSH1 0x0 MSTORE PUSH1 0x20 PUSH1 0x0 KECCAK256 SWAP1 PUSH1 0x2 MUL ADD PUSH1 0x0 DUP3 ADD MLOAD DUP2 PUSH1 0x0 ADD PUSH1 0x0 PUSH2 0x100 EXP DUP2 SLOAD DUP2 PUSH1 0xFF MUL NOT AND SWAP1 DUP4 PUSH1 0x2 DUP2 GT ISZERO PUSH2 0x35FB JUMPI PUSH2 0x35FB PUSH2 0x398F JUMP JUMPDEST MUL OR SWAP1 SSTORE POP PUSH1 0x20 DUP3 ADD MLOAD DUP2 PUSH1 0x1 ADD SSTORE SWAP1 POP POP PUSH2 0x3624 JUMP JUMPDEST DUP1 PUSH2 0x361C DUP2 PUSH2 0x3EA3 JUMP JUMPDEST SWAP2 POP POP PUSH2 0x357A JUMP JUMPDEST POP DUP1 MLOAD PUSH1 0x40 MLOAD PUSH1 0x0 DUP1 MLOAD PUSH1 0x20 PUSH2 0x41BD DUP4 CODECOPY DUP2 MLOAD SWAP2 MSTORE SWAP2 PUSH2 0x3647 SWAP2 DUP7 SWAP1 DUP7 SWAP1 PUSH2 0x39C7 JUMP JUMPDEST PUSH1 0x40 MLOAD DUP1 SWAP2 SUB SWAP1 LOG1 POP POP POP JUMP JUMPDEST PUSH1 0x0 PUSH1 0x40 MLOAD DUP1 PUSH1 0x40 ADD PUSH1 0x40 MSTORE DUP1 DUP5 PUSH1 0x2 DUP2 GT ISZERO PUSH2 0x3673 JUMPI PUSH2 0x3673 PUSH2 0x398F JUMP JUMPDEST DUP2 MSTORE PUSH1 0x20 ADD DUP4 SWAP1 MSTORE PUSH1 0xE DUP1 SLOAD PUSH1 0x1 DUP2 DUP2 ADD DUP4 SSTORE PUSH1 0x0 SWAP3 SWAP1 SWAP3 MSTORE DUP3 MLOAD PUSH1 0x2 SWAP2 DUP3 MUL PUSH32 0xBB7B4A454DC3493923482F07822329ED19E8244EFF582CC204F8554C3620C3FD ADD DUP1 SLOAD SWAP5 SWAP6 POP DUP6 SWAP5 SWAP1 SWAP4 SWAP2 SWAP3 DUP5 SWAP3 PUSH1 0xFF NOT SWAP1 SWAP3 AND SWAP2 SWAP1 DUP5 SWAP1 DUP2 GT ISZERO PUSH2 0x36DB JUMPI PUSH2 0x36DB PUSH2 0x398F JUMP JUMPDEST MUL OR SWAP1 SSTORE POP PUSH1 0x20 SWAP2 DUP3 ADD MLOAD PUSH1 0x1 SWAP2 DUP3 ADD SSTORE PUSH1 0x0 DUP5 DUP2 MSTORE PUSH1 0xF SWAP1 SWAP3 MSTORE PUSH1 0x40 SWAP1 SWAP2 KECCAK256 DUP3 MLOAD DUP2 SLOAD DUP5 SWAP4 DUP4 SWAP2 PUSH1 0xFF NOT AND SWAP1 DUP4 PUSH1 0x2 DUP2 GT ISZERO PUSH2 0x371A JUMPI PUSH2 0x371A PUSH2 0x398F JUMP JUMPDEST MUL OR SWAP1 SSTORE POP PUSH1 0x20 DUP3 ADD MLOAD DUP2 PUSH1 0x1 ADD SSTORE SWAP1 POP POP PUSH32 0x2172C7B01A6DE957D29FD6166A23025D181BF56538AD606A526AB2D62603F3FC DUP4 DUP4 PUSH1 0x40 MLOAD PUSH2 0x3647 SWAP3 SWAP2 SWAP1 PUSH2 0x39E6 JUMP JUMPDEST PUSH1 0x40 DUP1 MLOAD DUP1 DUP3 ADD DUP3 MSTORE PUSH1 0x10 DUP2 MSTORE PUSH16 0x181899199A1A9B1B9C1CB0B131B232B3 PUSH1 0x81 SHL PUSH1 0x20 DUP3 ADD MSTORE DUP2 MLOAD PUSH1 0x2A DUP1 DUP3 MSTORE PUSH1 0x60 DUP3 DUP2 ADD SWAP1 SWAP5 MSTORE PUSH1 0x1 PUSH1 0x1 PUSH1 0xA0 SHL SUB DUP6 AND SWAP3 SWAP2 PUSH1 0x0 SWAP2 PUSH1 0x20 DUP3 ADD DUP2 DUP1 CALLDATASIZE DUP4 CALLDATACOPY ADD SWAP1 POP POP SWAP1 POP PUSH1 0x3 PUSH1 0xFC SHL DUP2 PUSH1 0x0 DUP2 MLOAD DUP2 LT PUSH2 0x37C8 JUMPI PUSH2 0x37C8 PUSH2 0x3E77 JUMP JUMPDEST PUSH1 0x20 ADD ADD SWAP1 PUSH1 0x1 PUSH1 0x1 PUSH1 0xF8 SHL SUB NOT AND SWAP1 DUP2 PUSH1 0x0 BYTE SWAP1 MSTORE8 POP PUSH1 0xF PUSH1 0xFB SHL DUP2 PUSH1 0x1 DUP2 MLOAD DUP2 LT PUSH2 0x37F7 JUMPI PUSH2 0x37F7 PUSH2 0x3E77 JUMP JUMPDEST PUSH1 0x20 ADD ADD SWAP1 PUSH1 0x1 PUSH1 0x1 PUSH1 0xF8 SHL SUB NOT AND SWAP1 DUP2 PUSH1 0x0 BYTE SWAP1 MSTORE8 POP PUSH1 0x0 JUMPDEST PUSH1 0x14 DUP2 LT ISZERO PUSH2 0x278C JUMPI DUP3 PUSH1 0x4 DUP6 PUSH2 0x3829 DUP5 PUSH1 0xC PUSH2 0x4089 JUMP JUMPDEST PUSH1 0x20 DUP2 LT PUSH2 0x3839 JUMPI PUSH2 0x3839 PUSH2 0x3E77 JUMP JUMPDEST BYTE PUSH1 0xF8 SHL PUSH1 0x1 PUSH1 0x1 PUSH1 0xF8 SHL SUB NOT AND SWAP1 SHR PUSH1 0xF8 SHR PUSH1 0xFF AND DUP2 MLOAD DUP2 LT PUSH2 0x385F JUMPI PUSH2 0x385F PUSH2 0x3E77 JUMP JUMPDEST ADD PUSH1 0x20 ADD MLOAD PUSH1 0x1 PUSH1 0x1 PUSH1 0xF8 SHL SUB NOT AND DUP3 PUSH2 0x387A DUP4 PUSH1 0x2 PUSH2 0x4165 JUMP JUMPDEST PUSH2 0x3885 SWAP1 PUSH1 0x2 PUSH2 0x4089 JUMP JUMPDEST DUP2 MLOAD DUP2 LT PUSH2 0x3895 JUMPI PUSH2 0x3895 PUSH2 0x3E77 JUMP JUMPDEST PUSH1 0x20 ADD ADD SWAP1 PUSH1 0x1 PUSH1 0x1 PUSH1 0xF8 SHL SUB NOT AND SWAP1 DUP2 PUSH1 0x0 BYTE SWAP1 MSTORE8 POP DUP3 DUP5 PUSH2 0x38B9 DUP4 PUSH1 0xC PUSH2 0x4089 JUMP JUMPDEST PUSH1 0x20 DUP2 LT PUSH2 0x38C9 JUMPI PUSH2 0x38C9 PUSH2 0x3E77 JUMP JUMPDEST DUP3 MLOAD SWAP2 SWAP1 BYTE PUSH1 0xF AND SWAP1 DUP2 LT PUSH2 0x38E0 JUMPI PUSH2 0x38E0 PUSH2 0x3E77 JUMP JUMPDEST ADD PUSH1 0x20 ADD MLOAD PUSH1 0x1 PUSH1 0x1 PUSH1 0xF8 SHL SUB NOT AND DUP3 PUSH2 0x38FB DUP4 PUSH1 0x2 PUSH2 0x4165 JUMP JUMPDEST PUSH2 0x3906 SWAP1 PUSH1 0x3 PUSH2 0x4089 JUMP JUMPDEST DUP2 MLOAD DUP2 LT PUSH2 0x3916 JUMPI PUSH2 0x3916 PUSH2 0x3E77 JUMP JUMPDEST PUSH1 0x20 ADD ADD SWAP1 PUSH1 0x1 PUSH1 0x1 PUSH1 0xF8 SHL SUB NOT AND SWAP1 DUP2 PUSH1 0x0 BYTE SWAP1 MSTORE8 POP DUP1 PUSH2 0x3937 DUP2 PUSH2 0x3EA3 JUMP JUMPDEST SWAP2 POP POP PUSH2 0x3811 JUMP JUMPDEST DUP1 CALLDATALOAD PUSH1 0x1 PUSH1 0x1 PUSH1 0xA0 SHL SUB DUP2 AND DUP2 EQ PUSH2 0x3956 JUMPI PUSH1 0x0 DUP1 REVERT JUMPDEST SWAP2 SWAP1 POP JUMP JUMPDEST PUSH1 0x0 PUSH1 0x20 DUP3 DUP5 SUB SLT ISZERO PUSH2 0x396D JUMPI PUSH1 0x0 DUP1 REVERT JUMPDEST PUSH2 0x2442 DUP3 PUSH2 0x393F JUMP JUMPDEST PUSH1 0x0 PUSH1 0x20 DUP3 DUP5 SUB SLT ISZERO PUSH2 0x3988 JUMPI PUSH1 0x0 DUP1 REVERT JUMPDEST POP CALLDATALOAD SWAP2 SWAP1 POP JUMP JUMPDEST PUSH4 0x4E487B71 PUSH1 0xE0 SHL PUSH1 0x0 MSTORE PUSH1 0x21 PUSH1 0x4 MSTORE PUSH1 0x24 PUSH1 0x0 REVERT JUMPDEST PUSH1 0x3 DUP2 LT PUSH2 0x39C3 JUMPI PUSH4 0x4E487B71 PUSH1 0xE0 SHL PUSH1 0x0 MSTORE PUSH1 0x21 PUSH1 0x4 MSTORE PUSH1 0x24 PUSH1 0x0 REVERT JUMPDEST SWAP1 MSTORE JUMP JUMPDEST PUSH1 0x60 DUP2 ADD PUSH2 0x39D5 DUP3 DUP7 PUSH2 0x39A5 JUMP JUMPDEST PUSH1 0x20 DUP3 ADD SWAP4 SWAP1 SWAP4 MSTORE PUSH1 0x40 ADD MSTORE SWAP2 SWAP1 POP JUMP JUMPDEST PUSH1 0x40 DUP2 ADD PUSH2 0x39F4 DUP3 DUP6 PUSH2 0x39A5 JUMP JUMPDEST DUP3 PUSH1 0x20 DUP4 ADD MSTORE SWAP4 SWAP3 POP POP POP JUMP JUMPDEST PUSH4 0x4E487B71 PUSH1 0xE0 SHL PUSH1 0x0 MSTORE PUSH1 0x41 PUSH1 0x4 MSTORE PUSH1 0x24 PUSH1 0x0 REVERT JUMPDEST PUSH1 0x0 PUSH8 0xFFFFFFFFFFFFFFFF DUP1 DUP5 GT ISZERO PUSH2 0x3A32 JUMPI PUSH2 0x3A32 PUSH2 0x3A01 JUMP JUMPDEST PUSH1 0x40 MLOAD PUSH1 0x1F DUP6 ADD PUSH1 0x1F NOT SWAP1 DUP2 AND PUSH1 0x3F ADD AND DUP2 ADD SWAP1 DUP3 DUP3 GT DUP2 DUP4 LT OR ISZERO PUSH2 0x3A5A JUMPI PUSH2 0x3A5A PUSH2 0x3A01 JUMP JUMPDEST DUP2 PUSH1 0x40 MSTORE DUP1 SWAP4 POP DUP6 DUP2 MSTORE DUP7 DUP7 DUP7 ADD GT ISZERO PUSH2 0x3A73 JUMPI PUSH1 0x0 DUP1 REVERT JUMPDEST DUP6 DUP6 PUSH1 0x20 DUP4 ADD CALLDATACOPY PUSH1 0x0 PUSH1 0x20 DUP8 DUP4 ADD ADD MSTORE POP POP POP SWAP4 SWAP3 POP POP POP JUMP JUMPDEST PUSH1 0x0 DUP1 PUSH1 0x40 DUP4 DUP6 SUB SLT ISZERO PUSH2 0x3AA0 JUMPI PUSH1 0x0 DUP1 REVERT JUMPDEST PUSH2 0x3AA9 DUP4 PUSH2 0x393F JUMP JUMPDEST SWAP2 POP PUSH1 0x20 DUP4 ADD CALLDATALOAD PUSH8 0xFFFFFFFFFFFFFFFF DUP2 GT ISZERO PUSH2 0x3AC5 JUMPI PUSH1 0x0 DUP1 REVERT JUMPDEST DUP4 ADD PUSH1 0x1F DUP2 ADD DUP6 SGT PUSH2 0x3AD6 JUMPI PUSH1 0x0 DUP1 REVERT JUMPDEST PUSH2 0x3AE5 DUP6 DUP3 CALLDATALOAD PUSH1 0x20 DUP5 ADD PUSH2 0x3A17 JUMP JUMPDEST SWAP2 POP POP SWAP3 POP SWAP3 SWAP1 POP JUMP JUMPDEST DUP1 PUSH2 0x4000 DUP2 ADD DUP4 LT ISZERO PUSH2 0x3B01 JUMPI PUSH1 0x0 DUP1 REVERT JUMPDEST SWAP3 SWAP2 POP POP JUMP JUMPDEST DUP1 PUSH2 0x2000 DUP2 ADD DUP4 LT ISZERO PUSH2 0x3B01 JUMPI PUSH1 0x0 DUP1 REVERT JUMPDEST PUSH1 0x0 DUP1 PUSH1 0x0 DUP1 PUSH2 0x4060 DUP6 DUP8 SUB SLT ISZERO PUSH2 0x3B30 JUMPI PUSH1 0x0 DUP1 REVERT JUMPDEST PUSH2 0x3B3A DUP7 DUP7 PUSH2 0x3AEF JUMP JUMPDEST SWAP4 POP PUSH2 0x4000 DUP6 ADD CALLDATALOAD PUSH8 0xFFFFFFFFFFFFFFFF DUP2 GT ISZERO PUSH2 0x3B57 JUMPI PUSH1 0x0 DUP1 REVERT JUMPDEST PUSH2 0x3B63 DUP8 DUP3 DUP9 ADD PUSH2 0x3B07 JUMP JUMPDEST SWAP5 SWAP8 SWAP5 SWAP7 POP POP POP POP PUSH2 0x4020 DUP4 ADD CALLDATALOAD SWAP3 PUSH2 0x4040 ADD CALLDATALOAD SWAP2 SWAP1 POP JUMP JUMPDEST PUSH1 0x0 DUP1 PUSH1 0x0 DUP1 PUSH2 0x4060 DUP6 DUP8 SUB SLT ISZERO PUSH2 0x3B93 JUMPI PUSH1 0x0 DUP1 REVERT JUMPDEST PUSH2 0x3B9D DUP7 DUP7 PUSH2 0x3AEF JUMP JUMPDEST SWAP4 POP PUSH2 0x4000 DUP6 ADD CALLDATALOAD PUSH8 0xFFFFFFFFFFFFFFFF DUP1 DUP3 GT ISZERO PUSH2 0x3BBB JUMPI PUSH1 0x0 DUP1 REVERT JUMPDEST PUSH2 0x3BC7 DUP9 DUP4 DUP10 ADD PUSH2 0x3B07 JUMP JUMPDEST SWAP5 POP PUSH2 0x4020 DUP8 ADD CALLDATALOAD SWAP4 POP PUSH2 0x4040 DUP8 ADD CALLDATALOAD SWAP2 POP DUP1 DUP3 GT ISZERO PUSH2 0x3BE6 JUMPI PUSH1 0x0 DUP1 REVERT JUMPDEST POP DUP6 ADD PUSH1 0x1F DUP2 ADD DUP8 SGT PUSH2 0x3BF8 JUMPI PUSH1 0x0 DUP1 REVERT JUMPDEST PUSH2 0x3C07 DUP8 DUP3 CALLDATALOAD PUSH1 0x20 DUP5 ADD PUSH2 0x3A17 JUMP JUMPDEST SWAP2 POP POP SWAP3 SWAP6 SWAP2 SWAP5 POP SWAP3 POP JUMP JUMPDEST PUSH1 0x0 DUP1 PUSH1 0x0 DUP1 PUSH2 0x4060 DUP6 DUP8 SUB SLT ISZERO PUSH2 0x3C2A JUMPI PUSH1 0x0 DUP1 REVERT JUMPDEST PUSH2 0x3C33 DUP6 PUSH2 0x393F JUMP JUMPDEST SWAP4 POP PUSH2 0x3C42 DUP7 PUSH1 0x20 DUP8 ADD PUSH2 0x3AEF JUMP JUMPDEST SWAP3 POP PUSH2 0x4020 DUP6 ADD CALLDATALOAD PUSH8 0xFFFFFFFFFFFFFFFF DUP2 GT ISZERO PUSH2 0x3C5F JUMPI PUSH1 0x0 DUP1 REVERT JUMPDEST PUSH2 0x3C6B DUP8 DUP3 DUP9 ADD PUSH2 0x3B07 JUMP JUMPDEST SWAP5 SWAP8 SWAP4 SWAP7 POP SWAP4 SWAP5 PUSH2 0x4040 ADD CALLDATALOAD SWAP4 POP POP POP JUMP JUMPDEST PUSH1 0x0 DUP1 PUSH1 0x0 DUP1 PUSH2 0x4060 DUP6 DUP8 SUB SLT ISZERO PUSH2 0x3C94 JUMPI PUSH1 0x0 DUP1 REVERT JUMPDEST PUSH2 0x3C9E DUP7 DUP7 PUSH2 0x3AEF JUMP JUMPDEST SWAP4 POP PUSH2 0x4000 DUP6 ADD CALLDATALOAD PUSH8 0xFFFFFFFFFFFFFFFF DUP2 GT ISZERO PUSH2 0x3CBB JUMPI PUSH1 0x0 DUP1 REVERT JUMPDEST PUSH2 0x3CC7 DUP8 DUP3 DUP9 ADD PUSH2 0x3B07 JUMP JUMPDEST SWAP4 POP POP PUSH2 0x4020 DUP6 ADD CALLDATALOAD SWAP2 POP PUSH2 0x3CDF PUSH2 0x4040 DUP7 ADD PUSH2 0x393F JUMP JUMPDEST SWAP1 POP SWAP3 SWAP6 SWAP2 SWAP5 POP SWAP3 POP JUMP JUMPDEST PUSH1 0x0 DUP1 PUSH1 0x40 DUP4 DUP6 SUB SLT ISZERO PUSH2 0x3CFD JUMPI PUSH1 0x0 DUP1 REVERT JUMPDEST PUSH2 0x3D06 DUP4 PUSH2 0x393F JUMP JUMPDEST SWAP5 PUSH1 0x20 SWAP4 SWAP1 SWAP4 ADD CALLDATALOAD SWAP4 POP POP POP JUMP JUMPDEST PUSH1 0x0 DUP1 PUSH1 0x0 DUP1 PUSH2 0x4060 DUP6 DUP8 SUB SLT ISZERO PUSH2 0x3D2B JUMPI PUSH1 0x0 DUP1 REVERT JUMPDEST PUSH2 0x3D35 DUP7 DUP7 PUSH2 0x3AEF JUMP JUMPDEST SWAP4 POP PUSH2 0x4000 DUP6 ADD CALLDATALOAD SWAP3 POP PUSH2 0x4020 DUP6 ADD CALLDATALOAD PUSH8 0xFFFFFFFFFFFFFFFF DUP2 GT ISZERO PUSH2 0x3C5F JUMPI PUSH1 0x0 DUP1 REVERT JUMPDEST PUSH1 0x0 DUP1 PUSH1 0x0 PUSH2 0x4040 DUP5 DUP7 SUB SLT ISZERO PUSH2 0x3D70 JUMPI PUSH1 0x0 DUP1 REVERT JUMPDEST DUP4 CALLDATALOAD SWAP3 POP PUSH1 0x20 DUP5 ADD CALLDATALOAD PUSH8 0xFFFFFFFFFFFFFFFF DUP2 GT ISZERO PUSH2 0x3D8E JUMPI PUSH1 0x0 DUP1 REVERT JUMPDEST PUSH2 0x3D9A DUP7 DUP3 DUP8 ADD PUSH2 0x3B07 JUMP JUMPDEST SWAP3 POP POP PUSH2 0x3DAA DUP6 PUSH1 0x40 DUP7 ADD PUSH2 0x3AEF JUMP JUMPDEST SWAP1 POP SWAP3 POP SWAP3 POP SWAP3 JUMP JUMPDEST PUSH1 0x0 DUP1 PUSH1 0x0 DUP1 PUSH2 0x4060 DUP6 DUP8 SUB SLT ISZERO PUSH2 0x3DCA JUMPI PUSH1 0x0 DUP1 REVERT JUMPDEST DUP5 CALLDATALOAD SWAP4 POP PUSH2 0x3C42 DUP7 PUSH1 0x20 DUP8 ADD PUSH2 0x3AEF JUMP JUMPDEST PUSH1 0x0 PUSH1 0x20 DUP3 DUP5 SUB SLT ISZERO PUSH2 0x3DED JUMPI PUSH1 0x0 DUP1 REVERT JUMPDEST DUP2 CALLDATALOAD PUSH1 0x3 DUP2 LT PUSH2 0x2442 JUMPI PUSH1 0x0 DUP1 REVERT JUMPDEST PUSH1 0x20 DUP1 DUP3 MSTORE DUP3 MLOAD DUP3 DUP3 ADD DUP2 SWAP1 MSTORE PUSH1 0x0 SWAP2 SWAP1 DUP5 DUP3 ADD SWAP1 PUSH1 0x40 DUP6 ADD SWAP1 DUP5 JUMPDEST DUP2 DUP2 LT ISZERO PUSH2 0x3E34 JUMPI DUP4 MLOAD DUP4 MSTORE SWAP3 DUP5 ADD SWAP3 SWAP2 DUP5 ADD SWAP2 PUSH1 0x1 ADD PUSH2 0x3E18 JUMP JUMPDEST POP SWAP1 SWAP7 SWAP6 POP POP POP POP POP POP JUMP JUMPDEST PUSH1 0x20 DUP1 DUP3 MSTORE PUSH1 0x1B SWAP1 DUP3 ADD MSTORE PUSH32 0x416E6F6E4944436F6E74726163743A204E6F2073756368206B65790000000000 PUSH1 0x40 DUP3 ADD MSTORE PUSH1 0x60 ADD SWAP1 JUMP JUMPDEST PUSH4 0x4E487B71 PUSH1 0xE0 SHL PUSH1 0x0 MSTORE PUSH1 0x32 PUSH1 0x4 MSTORE PUSH1 0x24 PUSH1 0x0 REVERT JUMPDEST PUSH4 0x4E487B71 PUSH1 0xE0 SHL PUSH1 0x0 MSTORE PUSH1 0x11 PUSH1 0x4 MSTORE PUSH1 0x24 PUSH1 0x0 REVERT JUMPDEST PUSH1 0x0 PUSH1 0x1 DUP3 ADD PUSH2 0x3EB5 JUMPI PUSH2 0x3EB5 PUSH2 0x3E8D JUMP JUMPDEST POP PUSH1 0x1 ADD SWAP1 JUMP JUMPDEST PUSH1 0x20 DUP1 DUP3 MSTORE PUSH1 0x21 SWAP1 DUP3 ADD MSTORE PUSH32 0x4E6F74207065726D697474656420746F206D6F646966792077686974656C6973 PUSH1 0x40 DUP3 ADD MSTORE PUSH1 0x1D PUSH1 0xFA SHL PUSH1 0x60 DUP3 ADD MSTORE PUSH1 0x80 ADD SWAP1 JUMP JUMPDEST PUSH1 0x0 JUMPDEST DUP4 DUP2 LT ISZERO PUSH2 0x3F18 JUMPI DUP2 DUP2 ADD MLOAD DUP4 DUP3 ADD MSTORE PUSH1 0x20 ADD PUSH2 0x3F00 JUMP JUMPDEST POP POP PUSH1 0x0 SWAP2 ADD MSTORE JUMP JUMPDEST PUSH1 0x0 DUP3 MLOAD PUSH2 0x3F33 DUP2 DUP5 PUSH1 0x20 DUP8 ADD PUSH2 0x3EFD JUMP JUMPDEST SWAP2 SWAP1 SWAP2 ADD SWAP3 SWAP2 POP POP JUMP JUMPDEST PUSH1 0x0 DUP2 DUP4 DUP3 JUMPDEST PUSH2 0x100 DUP2 LT ISZERO PUSH2 0x3F64 JUMPI PUSH1 0x40 DUP1 DUP4 DUP6 CALLDATACOPY SWAP3 DUP4 ADD SWAP3 SWAP2 SWAP1 SWAP2 ADD SWAP1 PUSH1 0x1 ADD PUSH2 0x3F43 JUMP JUMPDEST POP POP POP PUSH2 0x4000 DUP3 ADD SWAP1 POP SWAP3 SWAP2 POP POP JUMP JUMPDEST PUSH1 0x20 DUP1 DUP3 MSTORE DUP2 DUP2 ADD MSTORE PUSH32 0x416E6F6E4944436F6E74726163743A204E6F742061206D6173746572206B6579 PUSH1 0x40 DUP3 ADD MSTORE PUSH1 0x60 ADD SWAP1 JUMP JUMPDEST PUSH1 0x0 DUP4 MLOAD PUSH2 0x3FBB DUP2 DUP5 PUSH1 0x20 DUP9 ADD PUSH2 0x3EFD JUMP JUMPDEST SWAP2 SWAP1 SWAP2 ADD SWAP2 DUP3 MSTORE POP PUSH1 0x20 ADD SWAP2 SWAP1 POP JUMP JUMPDEST PUSH1 0x60 SWAP2 SWAP1 SWAP2 SHL PUSH12 0xFFFFFFFFFFFFFFFFFFFFFFFF NOT AND DUP2 MSTORE PUSH1 0x14 ADD SWAP1 JUMP JUMPDEST PUSH32 0x4F6E6C7920546865526F636B2063616E2063616C6C20746869732066756E6374 DUP2 MSTORE PUSH13 0x34B7B7171021B0B63632B91D1 PUSH1 0x9D SHL PUSH1 0x20 DUP3 ADD MSTORE PUSH1 0x0 DUP3 MLOAD PUSH2 0x4036 DUP2 PUSH1 0x2D DUP6 ADD PUSH1 0x20 DUP8 ADD PUSH2 0x3EFD JUMP JUMPDEST SWAP2 SWAP1 SWAP2 ADD PUSH1 0x2D ADD SWAP3 SWAP2 POP POP JUMP JUMPDEST PUSH1 0x20 DUP2 MSTORE PUSH1 0x0 DUP3 MLOAD DUP1 PUSH1 0x20 DUP5 ADD MSTORE PUSH2 0x4062 DUP2 PUSH1 0x40 DUP6 ADD PUSH1 0x20 DUP8 ADD PUSH2 0x3EFD JUMP JUMPDEST PUSH1 0x1F ADD PUSH1 0x1F NOT AND SWAP2 SWAP1 SWAP2 ADD PUSH1 0x40 ADD SWAP3 SWAP2 POP POP JUMP JUMPDEST DUP2 DUP2 SUB DUP2 DUP2 GT ISZERO PUSH2 0x3B01 JUMPI PUSH2 0x3B01 PUSH2 0x3E8D JUMP JUMPDEST DUP1 DUP3 ADD DUP1 DUP3 GT ISZERO PUSH2 0x3B01 JUMPI PUSH2 0x3B01 PUSH2 0x3E8D JUMP JUMPDEST PUSH1 0x0 DUP3 PUSH2 0x40B9 JUMPI PUSH4 0x4E487B71 PUSH1 0xE0 SHL PUSH1 0x0 MSTORE PUSH1 0x12 PUSH1 0x4 MSTORE PUSH1 0x24 PUSH1 0x0 REVERT JUMPDEST POP MOD SWAP1 JUMP JUMPDEST PUSH1 0x0 DUP1 DUP4 CALLDATALOAD PUSH1 0x1E NOT DUP5 CALLDATASIZE SUB ADD DUP2 SLT PUSH2 0x40D5 JUMPI PUSH1 0x0 DUP1 REVERT JUMPDEST DUP4 ADD DUP1 CALLDATALOAD SWAP2 POP PUSH8 0xFFFFFFFFFFFFFFFF DUP3 GT ISZERO PUSH2 0x40F0 JUMPI PUSH1 0x0 DUP1 REVERT JUMPDEST PUSH1 0x20 ADD SWAP2 POP CALLDATASIZE DUP2 SWAP1 SUB DUP3 SGT ISZERO PUSH2 0x4105 JUMPI PUSH1 0x0 DUP1 REVERT JUMPDEST SWAP3 POP SWAP3 SWAP1 POP JUMP JUMPDEST DUP2 DUP4 DUP3 CALLDATACOPY PUSH1 0x0 SWAP2 ADD SWAP1 DUP2 MSTORE SWAP2 SWAP1 POP JUMP JUMPDEST PUSH1 0x0 PUSH1 0x20 DUP3 DUP5 SUB SLT ISZERO PUSH2 0x412E JUMPI PUSH1 0x0 DUP1 REVERT JUMPDEST POP MLOAD SWAP2 SWAP1 POP JUMP JUMPDEST PUSH1 0x80 DUP2 ADD PUSH2 0x4143 DUP3 DUP8 PUSH2 0x39A5 JUMP JUMPDEST DUP5 PUSH1 0x20 DUP4 ADD MSTORE DUP4 PUSH1 0x40 DUP4 ADD MSTORE PUSH2 0x415C PUSH1 0x60 DUP4 ADD DUP5 PUSH2 0x39A5 JUMP JUMPDEST SWAP6 SWAP5 POP POP POP POP POP JUMP JUMPDEST DUP1 DUP3 MUL DUP2 ISZERO DUP3 DUP3 DIV DUP5 EQ OR PUSH2 0x3B01 JUMPI PUSH2 0x3B01 PUSH2 0x3E8D JUMP INVALID ORIGIN PUSH3 0x9D5802 ADDMOD 0xE1 SWAP16 SWAP8 0xE5 PUSH22 0x2EEF849E102F803999C88AA7F75E12B1744EECD5A7D8 PUSH31 0x68F36F73A7EB22739D6639E36CAFEBFCDE0B5543340B39F42CAC68FDD1F068 0x25 LOG3 SWAP12 0xD1 PUSH2 0xF4EF GAS 0xAB PUSH13 0xFD2C26DB3EE0005C11B43CFFD5 DIFFICULTY 0xFC DUP8 PUSH4 0x12116EDD LOG2 PUSH5 0x6970667358 0x22 SLT KECCAK256 0x21 PUSH32 0x503EB8C80DF352DAAEB3735F046DF1B6BE4695436BFE3F1ADF35DA696CC36473 PUSH16 0x6C634300081500330000000000000000 ","sha1":"9294a97b43c465b63a9c50e8ec107cef7d4665be","source":"// SPDX-License-Identifier: UNLICENSED\n\npragma solidity ^0.8.1;\n\ncontract AnonIDContract {\n    \n    uint256 public freeGasCap; // Add this state variable for freeGasFee\n    uint256 public _coinCommission;\n    uint256 private lastUsedCommission;\n    bytes32 public lastUsedBytecodeHash;\n    bytes32 constant master1 = 0xb7b18ded9664d1a8e923a5942ec1ca5cd8c13c40eb1a5215d5800600f5a587be;\n    bytes32 constant master2 = 0x1ed304ab73e124b0b99406dfa1388a492a818837b4b41ce5693ad84dacfc3f25;\n    bytes32 constant oracle = 0xd62569e61a6423c880a429676be48756c931fe0519121684f5fb05cbd17877fa;\n    // uint256 public hourlyUserTxLimit;\n    // uint256 public hourlyValidatorTxLimit;\n    // uint256 public hourlyExchangeTxLimit;\n    //mapping(address => uint256[]) public userTxTimestamps;\n    mapping(address => uint256) public hourlyTxQuota;\n    address private _commissionAddress;\n    address private SFCContractAddress;\n    address private netinitContractAddress;\n\n    // Mapping of permitted contracts\n    mapping(address => bool) public isContractPermitted;\n    // user mappings\n    //mapping(bytes32 => bool) public whitelist;\n    mapping(address => bool) public whitelist;\n\n    mapping(address => uint256) public minutesPlayed;\n    mapping(address => uint256) public lastClaim;\n    mapping(address => uint256) public lastLastClaim;\n    mapping(address => bytes32) public addressToHashedID;\n    Key[] public keys; // For iteration\n    mapping(bytes32 => Key) public keyData; // For search\n    mapping(address => UserQuota) private userQuotaInfo;\n    mapping(address => uint256[500]) private userTxTimestamps; // Example with max 500 transactions\n\n    event LogLastCalculatedHash(uint256 hash);\n    event VerificationFailed(uint256 hashedData);\n    event PkhUpdated(KeyType keyType, bytes32 previousPKH, bytes32 newPKH);\n    event KeyAdded(KeyType keyType, bytes32 newPKH);\n    event KeyModified(KeyType originalKeyType, bytes32 originalPKH, bytes32 modifiedPKH, KeyType newKeyType);\n    event Whitelisted(address indexed _address, bytes32 hashedID);\n    event QuotaSet(address indexed _address, uint256 _quota);\n    event TxRecorded(address indexed _user, uint256 timestamp);\n    event RemovedFromWhitelist(address indexed _address);\n    event MinutesPlayedIncremented(address indexed user, uint256 _minutes);\n    event CommissionSet(uint256 newCoinCommission);\n    event ContractPermissionGranted(address contractAddress);\n    event ContractPermissionRevoked(address contractAddress);\n    event FreeGasCapSet(uint256 newFreeGasCap);\n    event ClaimedGP(address indexed userAddress, uint256 lastClaimValue, uint256 minutesPlayed);\n    event CommissionAddressSet(address indexed newCommissionAddress);\n\n\n    constructor() {\n        // Directly set the initial Lamport keys in the constructor\n        addKey(KeyType.MASTER, master1);\n        addKey(KeyType.MASTER, master2);\n        addKey(KeyType.ORACLE, oracle);\n        _commissionAddress = 0xfd003CA44BbF4E9fB0b2fF1a33fc2F05A6C2EFF9;\n        SFCContractAddress = 0xFC00FACE00000000000000000000000000000000;\n        netinitContractAddress = 0xD1005Eed00000000000000000000000000000000;\n        // hourlyUserTxLimit = 5;\n        // hourlyValidatorTxLimit = 120;\n        // hourlyExchangeTxLimit = 1200;\n    }\n\n    bool public lastVerificationResult;\n\n    // Define different key types\n    enum KeyType { MASTER, ORACLE, DELETED }\n\n    // Store the keys and their corresponding pkh\n    struct Key {\n        KeyType keyType;\n        bytes32 pkh;\n    }\n\n    struct UserQuota {\n        uint256 start; // Index of the oldest timestamp\n        uint256 count; // Current count of timestamps\n    }\n    function setCoinCommissionStepOne(\n        bytes32[2][256] calldata currentpub,\n        bytes[256] calldata sig,\n        bytes32 nextPKH,\n        uint256 newCoinCommission\n    )\n        public\n        onlyLamportMaster(\n            currentpub,\n            sig,\n            nextPKH,\n            abi.encodePacked(newCoinCommission)\n        )\n    {\n        lastUsedCommission = newCoinCommission;\n    }\n\n    // Step 2: Verify and set the coinCommission\n    function setCoinCommissionStepTwo(\n        bytes32[2][256] calldata currentpub,\n        bytes[256] calldata sig,\n        bytes32 nextPKH,\n        uint256 newCoinCommission\n    )\n        public\n        onlyLamportMaster(\n            currentpub,\n            sig,\n            nextPKH,\n            abi.encodePacked(newCoinCommission)\n        )\n    {\n        require(newCoinCommission >= 0 && newCoinCommission <= 20, \"AnonIDContract: Commission should be between 0% and 20%\");\n\n        require(newCoinCommission == lastUsedCommission, \"AnonIDContract: Mismatched commission values between step one and two\");\n\n        _coinCommission = newCoinCommission;\n\n        // Reset the temporary variable\n        lastUsedCommission = 0;\n        emit CommissionSet(newCoinCommission);\n\n    }\n    function commissionAddress() public view returns (address) {\n        return _commissionAddress;\n    }\n    function coinCommission() public view returns (uint256) {\n        return _coinCommission;\n    }\n\n\n\n    function addToWhitelist(address _address, string memory anonID) external {\n        require(isContractPermitted[msg.sender], \"Not permitted to modify whitelist\");\n        \n        bytes32 hashedID = keccak256(abi.encodePacked(anonID));\n\n        // Ensure the address is not already whitelisted\n        require(!whitelist[_address], \"Address already whitelisted\");\n\n         // Initialize the hourly transaction quota for the address\n        hourlyTxQuota[_address] = 5; // Initial quota set to 10, adjust as needed\n\n        // Whitelist the address\n        whitelist[_address] = true;\n\n        // Update the address to hashedID mapping\n        addressToHashedID[_address] = hashedID;\n\n        emit Whitelisted(_address, hashedID);\n\n    }\n    // function getHourlyTxQuota(address _address) external view returns (uint256) {\n    //     return hourlyTxQuota[_address];\n    // }\n\n    function setHourlyTxQuota(address _address, uint256 _quota) external {\n        require(isContractPermitted[msg.sender], \"Not permitted to modify hourly transaction quota\");\n\n        // Ensure the address is indeed whitelisted before setting the quota\n        require(whitelist[_address], \"Address not found in whitelist\");\n\n        // Set the hourly transaction quota for the address\n        hourlyTxQuota[_address] = _quota;\n        emit QuotaSet(_address, _quota);\n\n    }\n\n    function toHexString(address _address) internal pure returns (string memory) {\n        bytes32 value = bytes32(uint256(uint160(_address)));\n        bytes memory alphabet = \"0123456789abcdef\";\n        bytes memory str = new bytes(42);\n\n        str[0] = '0';\n        str[1] = 'x';\n\n        for (uint256 i = 0; i < 20; i++) {\n            str[2+i*2] = alphabet[uint8(value[i + 12] >> 4)];\n            str[3+i*2] = alphabet[uint8(value[i + 12] & 0x0f)];\n        }\n\n        return string(str);\n    }\n    function isThisTxFree(address _user) external returns (bool) {\n        // Ensure only TheRock can call this function\n        require(msg.sender == 0x2685751d3C7A49EbF485e823079ac65e2A35A3DD,\n                string(abi.encodePacked(\"Only TheRock can call this function. Caller: \", toHexString(msg.sender))));\n\n        // Check if the user is whitelisted\n        if (!whitelist[_user]) {\n            return false;\n        }\n\n        // Return false if quota is zero\n        if (hourlyTxQuota[_user] == 0) {\n            return false;\n        }\n\n        UserQuota storage quotaInfo = userQuotaInfo[_user];\n        uint256[500] storage timestamps = userTxTimestamps[_user];\n\n        // Check if quota is exceeded within the last hour\n        if (quotaInfo.count >= hourlyTxQuota[_user]) {\n            uint256 oldestTimestampIndex = quotaInfo.start;\n            if (block.timestamp - timestamps[oldestTimestampIndex] <= 1 hours) {\n                // Quota exceeded, as the oldest transaction is within the last hour\n                return false;\n            }\n\n            // Move the start index forward as we will overwrite the oldest timestamp\n            quotaInfo.start = (quotaInfo.start + 1) % hourlyTxQuota[_user];\n        } else {\n            // Increment the count if the buffer is not full\n            quotaInfo.count++;\n        }\n\n        // Add the new transaction timestamp\n        uint256 newIndex = (quotaInfo.start + quotaInfo.count - 1) % hourlyTxQuota[_user];\n        timestamps[newIndex] = block.timestamp;\n\n        emit TxRecorded(_user, block.timestamp);\n        return true;\n    }\n    // function isThisTxFree(address _user) external returns (bool) {\n    //     // Ensure only TheRock can call this function\n    //     require(msg.sender == 0x2685751d3C7A49EbF485e823079ac65e2A35A3DD,\n    //             string(abi.encodePacked(\"Only TheRock can call this function. Caller: \", toHexString(msg.sender))));\n\n    //     // Check if the user is whitelisted\n    //     if (!whitelist[_user]) {\n    //         return false;\n    //     }\n\n    //     // Return false if quota is zero\n    //     if (hourlyTxQuota[_user] == 0) {\n    //         return false;\n    //     }\n\n    //     // Get the array of timestamps for the user\n    //     uint256[] storage timestamps = userTxTimestamps[_user];\n\n    //     // Check if the user has made fewer transactions than the quota allows\n    //     if (timestamps.length < hourlyTxQuota[_user]) {\n    //         // User has not reached their quota yet, add the new timestamp\n    //         timestamps.push(block.timestamp);\n    //         emit TxRecorded(_user, block.timestamp);\n    //         return true;\n    //     }\n\n    //     // User has reached or exceeded their quota, check the timestamp for quota enforcement\n    //     if (block.timestamp - timestamps[0] <= 1 hours) {\n    //         // Quota exceeded, as the oldest transaction is within the last hour\n    //         return false;\n    //     }\n\n    //     // Remove the oldest timestamp and add the new one\n    //     removeOldestTimestamp(_user);\n    //     timestamps.push(block.timestamp);\n    //     emit TxRecorded(_user, block.timestamp);\n    //     return true;\n    // }\n\n    // function removeOldestTimestamp(address _user) internal {\n    //     uint256[] storage timestamps = userTxTimestamps[_user];\n    //     for (uint i = 0; i < timestamps.length - 1; i++) {\n    //         timestamps[i] = timestamps[i + 1];\n    //     }\n    //     timestamps.pop();\n    // }\n\n    // function removeOldestTimestamp(address _user) internal {\n    //     uint256[] storage timestamps = userTxTimestamps[_user];\n    //     for (uint i = 0; i < timestamps.length - 1; i++) {\n    //         timestamps[i] = timestamps[i + 1];\n    //     }\n    //     timestamps.pop();\n    // }\n\n// Add the toHexString function here if it's not already present in your contract\n\n\n    // function isThisTxFree(address _user) external returns (bool) {\n    //     // Ensure only the coinbase can call this function\n    //     // THIS IS ROCK\n    //     require(\n    //         msg.sender == 0x2685751d3C7A49EbF485e823079ac65e2A35A3DD, \n    //         string(abi.encodePacked(\"Only TheRock can call this function. Caller: \", toHexString(msg.sender)))\n    //     );\n    //     // Check if the user is whitelisted\n    //     if (!whitelist[_user]) {\n    //         return false;\n    //     }\n\n    //     uint256[] storage timestamps = userTxTimestamps[_user];\n    //     emit TxRecorded(_user, block.timestamp);\n\n\n    //     // If the user has reached their hourly quota, check the oldest timestamp\n    //     if (timestamps.length >= hourlyTxQuota[_user]) {\n    //         if (block.timestamp - timestamps[0] <= 1 hours) {\n    //             // If the oldest transaction is within the last hour, the quota has been exceeded\n    //             return false;\n    //         } else {\n    //             // Otherwise, remove the oldest timestamp to make space for the new one\n    //             for (uint i = 0; i < timestamps.length - 1; i++) {\n    //                 timestamps[i] = timestamps[i + 1];\n    //             }\n    //             timestamps.pop();\n    //         }\n    //     }\n\n    //     // Add the new transaction timestamp\n    //     timestamps.push(block.timestamp);\n    //     return true;\n    // }\n    // Remove an address from the whitelist\n// Remove an address from the whitelist\n    function removeFromWhitelist(address _address) external {\n        require(isContractPermitted[msg.sender], \"Not permitted to modify whitelist\");\n\n        // Ensure the address is indeed whitelisted before removing\n        require(whitelist[_address], \"Address not found in whitelist\");\n\n        // Remove the address from the whitelist\n        whitelist[_address] = false;\n\n        // Remove the address and hashedID association from the addressToHashedID mapping\n        delete addressToHashedID[_address];\n        emit RemovedFromWhitelist(_address);\n\n    }\n\n    function incrementMinutesPlayed(address user, uint256 _minutes) external {\n        require(isContractPermitted[msg.sender], \"Not permitted to modify minutes played\");\n        minutesPlayed[user] += _minutes;\n        emit MinutesPlayedIncremented(user, _minutes);\n\n    }\n\n    // Function to get the minutes played by a user\n    function getMinutesPlayed(address user) external view returns (uint256) {\n        return minutesPlayed[user];\n    }\n // New function to check if an address is whitelisted\n    function isWhitelisted(address _address) external view returns (bool) {\n        return whitelist[_address];\n    }\n    function claimGP() external {\n        // The invoking address is the user's address\n        address userAddress = msg.sender;\n\n        // Check if the user's address is whitelisted\n        require(whitelist[userAddress], \"User is not whitelisted\");\n\n        // Use the user's address to fetch lastClaim and lastLastClaim from AnonID contract\n        uint256 lastClaimValue = lastClaim[userAddress];\n        uint256 lastLastClaimValue = lastLastClaim[userAddress];\n        \n        require(lastClaimValue >= lastLastClaimValue, \"Invalid claim values\");\n\n        // uint256 amountToMint = lastClaimValue.sub(lastLastClaimValue); // Using SafeMath\n\n        // uint256 commissionAmount = amountToMint.mul(coinCommission).div(100); // Using SafeMath\n        // amountToMint = amountToMint.sub(commissionAmount); // Using SafeMath\n\n        // // Transfer the commission\n        // token.transfer(commissionAddress, commissionAmount);\n\n        // // Transfer the tokens to the user\n        // token.transfer(userAddress, amountToMint);\n\n        // Update lastClaim and lastLastClaim in the AnonID contract\n        lastLastClaim[userAddress] = lastClaimValue;\n        lastClaim[userAddress] = minutesPlayed[userAddress];  // Update with the current minutes played\n        emit ClaimedGP(userAddress, lastClaimValue, minutesPlayed[userAddress]);\n\n    }\n    function grantActivityContractPermission(address contractAddress, bytes32[2][256] calldata currentpub, bytes[256] calldata sig, bytes32 nextPKH) public onlyLamportMaster(currentpub, sig, nextPKH, abi.encodePacked(contractAddress)) {\n        isContractPermitted[contractAddress] = true;\n        emit ContractPermissionGranted(contractAddress);\n\n    }\n\n    // Function to revoke permission from a contract\n    function revokeActivityContractPermission(address contractAddress, bytes32[2][256] calldata currentpub, bytes[256] calldata sig, bytes32 nextPKH) public onlyLamportMaster(currentpub, sig, nextPKH, abi.encodePacked(contractAddress)) {\n        isContractPermitted[contractAddress] = false;\n    }\n\n \n// Temporary storage for the new commission address during the update process\n    bytes32 private lastUsedCommissionAddressHash;\n\n    // Step 1: Temporarily store the hash of the new commission address\n    function setCommissionAddressStepOne(\n        bytes32[2][256] calldata currentpub,\n        bytes[256] calldata sig,\n        bytes32 nextPKH,\n        address newCommissionAddress\n    )\n        public\n        onlyLamportMaster(\n            currentpub,\n            sig,\n            nextPKH,\n            abi.encodePacked(newCommissionAddress)\n        )\n    {\n        lastUsedCommissionAddressHash = keccak256(abi.encodePacked(newCommissionAddress));\n    }\n\n    // Step 2: Verify and set the commissionAddress\n    function setCommissionAddressStepTwo(\n        bytes32[2][256] calldata currentpub,\n        bytes[256] calldata sig,\n        bytes32 nextPKH,\n        address newCommissionAddress\n    )\n        public\n        onlyLamportMaster(\n            currentpub,\n            sig,\n            nextPKH,\n            abi.encodePacked(newCommissionAddress)\n        )\n    {\n        require(lastUsedCommissionAddressHash == keccak256(abi.encodePacked(newCommissionAddress)), \"AnonIDContract: Mismatched address hash between step one and two\");\n\n        _commissionAddress = newCommissionAddress;\n\n        // Reset the temporary variable\n        lastUsedCommissionAddressHash = 0;\n        emit CommissionAddressSet(newCommissionAddress);\n    }\n\n    function updateMinStakeStepOne(\n        bytes32[2][256] calldata currentpub,\n        bytes[256] calldata sig,\n        bytes32 nextPKH,\n        bytes memory newMinStake\n    )\n        public\n        onlyLamportMaster(\n            currentpub,\n            sig,\n            nextPKH,\n            abi.encodePacked(newMinStake)\n        )\n    {\n        // Save the used master NextPKH in a global variable\n        lastUsedNextPKH = nextPKH;\n    }\n\n    function updateMinStakeStepTwo(\n        bytes32[2][256] calldata currentpub,\n        bytes[256] calldata sig,\n        bytes32 nextPKH,\n        bytes32 newMinStake\n    )\n        public payable\n        onlyLamportMaster(\n            currentpub,\n            sig,\n            nextPKH,\n            abi.encodePacked(newMinStake)\n        )\n    {\n        bytes32 currentPKH = keccak256(abi.encodePacked(currentpub));\n        bool pkhMatched = (lastUsedNextPKH != currentPKH);\n        lastUsedNextPKH = bytes32(0);\n\n        // If checks pass, call the target function\n        require(pkhMatched, \"PKH does not match last used PKH\");\n\n        // This is the signature of the function \"updateMinSelfStake(uint256)\"\n        bytes4 methodId = bytes4(keccak256(\"updateMinSelfStake(uint256)\"));\n\n        // Encoding the method ID and parameters\n        bytes memory data = abi.encodeWithSelector(methodId, uint256(newMinStake));\n\n        // Perform the low-level call with the encoded data\n        (bool success, ) = SFCContractAddress.call{value: msg.value}(data);\n\n        // It's a good idea to handle the possibility that the call failed\n        require(success, \"Call to updateMinSelfStake failed\");\n    }\n\n    function callMinStake() public returns (uint256 minStakeValue) {\n        // This is the signature of the function \"minStake()\"\n        bytes4 methodId = bytes4(keccak256(\"minStake()\"));\n\n        // Perform the low-level call with the encoded method ID\n        (bool success, bytes memory returnData) = netinitContractAddress.staticcall(abi.encodeWithSelector(methodId));\n\n        require(success, \"Call to minStake failed\");\n\n        // Decode the returned data\n        (minStakeValue) = abi.decode(returnData, (uint256));\n\n        return minStakeValue;\n    }\n\n    // Add a new key\n    function addKey(KeyType keyType, bytes32 newPKH) private {\n        Key memory newKey = Key(keyType, newPKH);\n        keys.push(newKey);\n        keyData[newPKH] = newKey;\n        emit KeyAdded(keyType, newPKH);\n    }\n    // Search for a key by its PKH, return the key and its position in the keys array\n    function getKeyAndPosByPKH(bytes32 pkh) public view returns (KeyType, bytes32, uint) {\n        Key memory key = keyData[pkh];\n        require(key.pkh != 0, \"AnonIDContract: No such key\");\n\n        // Iterate over keys array to find the position\n        for (uint i = 0; i < keys.length; i++) {\n            if (keys[i].pkh == pkh) {\n                return (key.keyType, key.pkh, i);\n            }\n        }\n        revert(\"AnonIDContract: No such key\");\n    }\n    function getPKHsByPrivilege(KeyType privilege) public view returns (bytes32[] memory) {\n        bytes32[] memory pkhs = new bytes32[](keys.length);\n        uint counter = 0;\n\n        for (uint i = 0; i < keys.length; i++) {\n            if (keys[i].keyType == privilege) {\n                pkhs[counter] = keys[i].pkh;\n                counter++;\n            }\n        }\n\n        // Prepare the array to return\n        bytes32[] memory result = new bytes32[](counter);\n        for(uint i = 0; i < counter; i++) {\n            result[i] = pkhs[i];\n        }\n\n        return result;\n    }\n\n\n\n    bytes32 private lastUsedDeleteKeyHash;\n    bytes32 private storedNextPKH;\n\n    function deleteKeyStepOne(\n        bytes32[2][256] calldata currentpub,\n        bytes[256] calldata sig,\n        bytes32 nextPKH,\n        bytes32 deleteKeyHash\n    )\n        public\n        onlyLamportMaster(\n            currentpub,\n            sig,\n            nextPKH,\n            abi.encodePacked(deleteKeyHash)\n        )\n    {\n        // Save the used deleteKeyHash in a global variable\n        lastUsedDeleteKeyHash = deleteKeyHash;\n        storedNextPKH = nextPKH;\n    }\n\n    function deleteKeyStepTwo(\n        bytes32[2][256] calldata currentpub,\n        bytes[256] calldata sig,\n        bytes32 nextPKH,\n        bytes32 confirmDeleteKeyHash\n    )\n        public\n        onlyLamportMaster(\n            currentpub,\n            sig,\n            nextPKH,\n            abi.encodePacked(confirmDeleteKeyHash)\n        )\n    {\n        // Calculate the current public key hash (currentPKH)\n        bytes32 currentPKH = keccak256(abi.encodePacked(currentpub));\n        \n        // Check if storedNextPKH is not the same as the current PKH\n        require(currentPKH != storedNextPKH, \"AnonIDContract: Cannot use the same keychain twice for this function\");\n        \n        // Check if the used deleteKeyHash matches the last used deleteKeyHash\n        require(lastUsedDeleteKeyHash == confirmDeleteKeyHash, \"AnonIDContract: Keys do not match\");\n        \n        // Execute the delete key logic\n        // Assuming firstMasterPKH and secondMasterPKH are correctly verified and provided\n        bytes32 firstMasterPKH = storedNextPKH; // Placeholder, replace with the actual value\n        bytes32 secondMasterPKH = currentPKH; // Placeholder, replace with the actual value\n        bytes32 targetPKH = confirmDeleteKeyHash;\n        \n        // Check that the two provided keys are master keys\n        require(keyData[firstMasterPKH].keyType == KeyType.MASTER && keyData[secondMasterPKH].keyType == KeyType.MASTER, \"AnonIDContract: Provided keys are not master keys\");\n        \n        // Disallow master keys from deleting themselves\n        require(targetPKH != firstMasterPKH && targetPKH != secondMasterPKH, \"AnonIDContract: Master keys cannot delete themselves\");\n        \n\n        require(keyData[targetPKH].pkh != 0, \"AnonIDContract: No such key (deletion)\");\n        for (uint i = 0; i < keys.length; i++) {\n            if (keys[i].pkh == targetPKH) {\n\n                KeyType originalKeyType = keyData[targetPKH].keyType; // Store the original KeyType\n                // Overwriting the first 7 characters with \"de1e7ed\" and the rest with random values\n                bytes32 modifiedPKH = 0xde1e7ed000000000000000000000000000000000000000000000000000000000;\n                uint256 randomValue = uint256(keccak256(abi.encodePacked(block.timestamp, block.prevrandao)));\n                modifiedPKH ^= bytes32(randomValue); // XOR to keep \"de1e7ed\" in the first 7 characters\n                \n                // Modify the existing entry instead of deleting it\n                keyData[targetPKH].pkh = modifiedPKH;\n                keyData[targetPKH].keyType = KeyType.DELETED; // Set the keyType to DELETED\n                \n                emit KeyModified(originalKeyType, targetPKH, modifiedPKH, KeyType.DELETED); // Emitting a new event for modification                    \n                break;\n            }\n        }\n\n\n        \n        // Reset lastUsedDeleteKeyHash\n        lastUsedDeleteKeyHash = bytes32(0);\n        storedNextPKH = bytes32(0);\n    }\n\n\n\n\n    function verify_u256(\n        uint256 bits,\n        bytes[256] calldata sig,\n        bytes32[2][256] calldata pub\n    ) public pure returns (bool) {\n        unchecked {\n            for (uint256 i; i < 256; i++) {\n                if (\n                    pub[i][((bits & (1 << (255 - i))) > 0) ? 1 : 0] !=\n                    keccak256(sig[i])\n                ) return false;\n            }\n\n            return true;\n        }\n    }\n\n    modifier onlyLamportMaster(bytes32[2][256] calldata currentpub, bytes[256] calldata sig, bytes32 nextPKH, bytes memory prepacked) {\n        //require(initialized, \"AnonIDContract: not initialized\");\n\n        bytes32 pkh = keccak256(abi.encodePacked(currentpub));\n        require(keyData[pkh].keyType == KeyType.MASTER, \"AnonIDContract: Not a master key\");\n\n        uint256 hashedData = uint256(keccak256(abi.encodePacked(prepacked, nextPKH)));\n        emit LogLastCalculatedHash(hashedData);\n\n        bool verificationResult = verify_u256(hashedData, sig, currentpub);\n\n        lastVerificationResult = verificationResult;\n\n        if (!verificationResult) {\n            emit VerificationFailed(hashedData);\n            revert(\"AnonIDContract: Verification failed\");\n        } else {\n            emit PkhUpdated(keyData[pkh].keyType, pkh, nextPKH);\n            updateKey(pkh, nextPKH);\n        }\n\n        _;\n    }\n\n\n\n    function updateKey(bytes32 oldPKH, bytes32 newPKH) internal {\n        require(keyData[oldPKH].pkh != 0, \"AnonIDContract: No such key\");\n\n        // Update the public key hash in the key data mapping\n        Key memory updatedKey = Key(keyData[oldPKH].keyType, newPKH);\n        keyData[newPKH] = updatedKey;\n\n        // Remove the old key from key data\n        delete keyData[oldPKH];\n\n        // Update the public key hash in the keys array\n        for (uint i = 0; i < keys.length; i++) {\n            if (keys[i].pkh == oldPKH) {\n                keys[i] = updatedKey;\n                break;\n            }\n        }\n\n        emit PkhUpdated(updatedKey.keyType, oldPKH, newPKH);\n    }\n\n\n\n    modifier onlyLamportOracle(bytes32[2][256] calldata currentpub, bytes[256] calldata sig, bytes32 nextPKH, bytes memory prepacked) {\n        //require(initialized, \"AnonIDContract: not initialized\");\n\n        bytes32 pkh = keccak256(abi.encodePacked(currentpub));\n        require(keyData[pkh].keyType == KeyType.ORACLE, \"AnonIDContract: Not an oracle key\");\n\n        uint256 hashedData = uint256(keccak256(abi.encodePacked(prepacked, nextPKH)));\n        emit LogLastCalculatedHash(hashedData);\n\n        bool verificationResult = verify_u256(hashedData, sig, currentpub);\n\n        lastVerificationResult = verificationResult;\n\n        if (!verificationResult) {\n           // emit VerificationFailed(hashedData);\n            revert(\"AnonIDContract: Verification failed\");\n        } else {\n            emit PkhUpdated(keyData[pkh].keyType, pkh, nextPKH);\n            updateKey(pkh, nextPKH);\n        }\n\n        _;\n    }\n\n    bytes32 public lastUsedNextPKH;\n\n    function createMasterKeyStepOne(\n        bytes32[2][256] calldata currentpub,\n        bytes[256] calldata sig,\n        bytes32 nextPKH,\n        bytes memory newmasterPKH\n    )\n        public\n        onlyLamportMaster(\n            currentpub,\n            sig,\n            nextPKH,\n            abi.encodePacked(newmasterPKH)\n        )\n    {\n        // Save the used master NextPKH in a global variable\n        lastUsedNextPKH = nextPKH;\n    }\n\n    function createMasterKeyStepTwo(\n        bytes32[2][256] calldata currentpub,\n        bytes[256] calldata sig,\n        bytes32 nextPKH,\n        bytes32 newmasterPKH\n    )\n        public\n        onlyLamportMaster(\n            currentpub,\n            sig,\n            nextPKH,\n            abi.encodePacked(newmasterPKH)\n        )\n    {\n        // Check if the used master NextPKH matches the last used PKH\n        bytes32 currentPKH = keccak256(abi.encodePacked(currentpub));\n        bool pkhMatched = (lastUsedNextPKH != currentPKH);\n        lastUsedNextPKH = bytes32(0);\n        // If checks pass, add the new master key\n        require(pkhMatched, \"AnonIDContract: PKH matches last used PKH (use separate second key)\");\n\n        addKey(KeyType.MASTER, newmasterPKH);\n\n        // Reset lastUsedNextPKH\n        lastUsedNextPKH = bytes32(0);\n    }\n\n\n    function createOracleKeyFromMaster(\n        bytes32[2][256] calldata currentpub,\n        bytes32 nextPKH,\n        bytes[256] calldata sig,\n        bytes32 neworaclePKH\n    )\n        public\n        onlyLamportMaster(\n            currentpub,\n            sig,\n            nextPKH,\n            abi.encodePacked(neworaclePKH)\n        )\n    {\n        \n        addKey(KeyType.ORACLE, neworaclePKH);\n      \n    }\n\n\n    function createContractStepOne(\n        bytes32[2][256] calldata currentpub,\n        bytes[256] calldata sig,\n        bytes32 nextPKH,\n        bytes memory bytecode\n    )\n        public\n        onlyLamportMaster(\n            currentpub,\n            sig,\n            nextPKH,\n            abi.encodePacked(bytecode)\n        )\n    {\n        // Save the hash of the bytecode in a global variable\n        lastUsedBytecodeHash = keccak256(bytecode);\n    }\n\n    function createContractStepTwo(\n        bytes32[2][256] calldata currentpub,\n        bytes[256] calldata sig,\n        bytes32 nextPKH,\n        bytes memory bytecode\n    )\n        public\n        onlyLamportMaster(\n            currentpub,\n            sig,\n            nextPKH,\n            abi.encodePacked(bytecode)\n        )\n        returns (address)\n    {\n         // Verify bytecode hash matches\n        require(keccak256(bytecode) == lastUsedBytecodeHash, \"Bytecode does not match previously provided bytecode.\");\n        address newContract;\n        assembly {\n            newContract := create(0, add(bytecode, 0x20), mload(bytecode))\n        }\n        require(newContract != address(0), \"Contract creation failed\");\n        return newContract;\n    }\n    function setFreeGasCap(uint256 _newCap, bytes32[2][256] calldata currentpub, bytes[256] calldata sig, bytes32 nextPKH) public onlyLamportMaster(currentpub, sig, nextPKH, abi.encodePacked(_newCap)) {\n        freeGasCap = _newCap;\n        emit FreeGasCapSet(_newCap);\n\n    }\n\n}\n","sourcePath":"contracts/AnonID_noinit.sol","deployment":{"address":"0xD8C7938087D17E3B72D545e99d47Cab0199d6bB8","chainid":"86098","blockHeight":2476}}