{"bytecode":"6080604052600180546001600160a01b03191673b03a6afd440a2a9db8834f1a6093680f02f1114c17905534801561003657600080fd5b50600154600080546001600160a01b0319166001600160a01b03909216919091179055610734806100686000396000f3fe608060405234801561001057600080fd5b50600436106100885760003560e01c806340a141ff1161005b57806340a141ff146100f85780639fca51691461010b578063c38c58131461011e578063cb7449931461013157600080fd5b806312243b671461008d578063143acc71146100a257806315fca479146100d25780631785f53c146100e5575b600080fd5b6100a061009b366004610459565b610160565b005b6100a06100b0366004610459565b600080546001600160a01b0319166001600160a01b0392909216919091179055565b6100a06100e036600461051e565b6101f6565b6100a06100f3366004610459565b610326565b6100a0610106366004610459565b610391565b6100a0610119366004610459565b6103cb565b6100a061012c366004610459565b610404565b600054610144906001600160a01b031681565b6040516001600160a01b03909116815260200160405180910390f35b6000546040516312243b6760e01b81526001600160a01b038381166004830152909116906312243b6790602401600060405180830381600087803b1580156101a757600080fd5b505af11580156101bb573d6000803e3d6000fd5b50506040516001600160a01b03841692507f9ac3117b086b001d2bcd36ff49e64f86a26f25d7c9ff453e9dbd9d496b8bf0849150600090a250565b826000036102645760405162461bcd60e51b815260206004820152603160248201527f4f7261636c65206b657920696e64657820312063616e6e6f74206265207a65726044820152706f20666f72206e657720706c617965727360781b606482015260840160405180910390fd5b600054604051631851edbf60e11b81526001600160a01b03909116906330a3db7e906102a0908a908a908a908a908a908a908a90600401610659565b600060405180830381600087803b1580156102ba57600080fd5b505af11580156102ce573d6000803e3d6000fd5b50505050866001600160a01b03167f8b06958157a003611013dd834a3bdfb55eeb806af66ebdb86b4952ede3191d5f878787878787604051610315969594939291906106b0565b60405180910390a250505050505050565b600080546040516316227ecd60e21b81526001600160a01b0384811660048301526024820193909352911690635889fb34906044015b600060405180830381600087803b15801561037657600080fd5b505af115801561038a573d6000803e3d6000fd5b5050505050565b6000805460405163aca2490b60e01b81526001600160a01b038481166004830152602482019390935291169063aca2490b9060440161035c565b60005460405163aca2490b60e01b81526001600160a01b038381166004830152600160248301529091169063aca2490b9060440161035c565b6000546040516316227ecd60e21b81526001600160a01b0383811660048301526001602483015290911690635889fb349060440161035c565b80356001600160a01b038116811461045457600080fd5b919050565b60006020828403121561046b57600080fd5b6104748261043d565b9392505050565b634e487b7160e01b600052604160045260246000fd5b600082601f8301126104a257600080fd5b813567ffffffffffffffff808211156104bd576104bd61047b565b604051601f8301601f19908116603f011681019082821181831017156104e5576104e561047b565b816040528381528660208588010111156104fe57600080fd5b836020870160208301376000602085830101528094505050505092915050565b600080600080600080600060c0888a03121561053957600080fd5b6105428861043d565b9650602088013567ffffffffffffffff8082111561055f57600080fd5b818a0191508a601f83011261057357600080fd5b81358181111561058257600080fd5b8b602082850101111561059457600080fd5b6020830198508097505060408a01359150808211156105b257600080fd5b506105bf8a828b01610491565b94505060608801359250608088013591506105dc60a0890161043d565b905092959891949750929550565b81835281816020850137506000828201602090810191909152601f909101601f19169091010190565b6000815180845260005b818110156106395760208185018101518683018201520161061d565b506000602082860101526020601f19601f83011685010191505092915050565b600060018060a01b03808a16835260c0602084015261067c60c08401898b6105ea565b838103604085015261068e8189610613565b606085019790975250608083019490945250911660a090910152949350505050565b60a0815260006106c460a08301888a6105ea565b82810360208401526106d68188610613565b6040840196909652505060608101929092526001600160a01b0316608090910152939250505056fea26469706673582212206cd275aa18b2375163660c4d0746913b2b4d30919e7f30560c6951e9f1f3118164736f6c63430008180033","bytecodeSha1":"89f8018aa5bde96739f98954e565f4f215ec27d7","type":"contract","abi":[{"inputs":[],"stateMutability":"nonpayable","type":"constructor","name":"constructor"},{"anonymous":false,"inputs":[{"indexed":true,"internalType":"address","name":"_address","type":"address"},{"indexed":false,"internalType":"string","name":"_steamID","type":"string"},{"indexed":false,"internalType":"string","name":"_playerName","type":"string"},{"indexed":false,"internalType":"uint256","name":"_oracleKeyIndex1","type":"uint256"},{"indexed":false,"internalType":"uint256","name":"_oracleKeyIndex2","type":"uint256"},{"indexed":false,"internalType":"address","name":"_rewardAddress","type":"address"}],"name":"PlayerOnboarded","type":"event"},{"anonymous":false,"inputs":[{"indexed":true,"internalType":"address","name":"deletedPlayerAddress","type":"address"}],"name":"PlayerRemoved","type":"event"},{"inputs":[{"internalType":"address","name":"_address","type":"address"}],"name":"deletePlayer","outputs":[],"stateMutability":"nonpayable","type":"function"},{"inputs":[{"internalType":"address","name":"_address","type":"address"},{"internalType":"string","name":"_steamID","type":"string"},{"internalType":"string","name":"_playerName","type":"string"},{"internalType":"uint256","name":"_oracleKeyIndex1","type":"uint256"},{"internalType":"uint256","name":"_oracleKeyIndex2","type":"uint256"},{"internalType":"address","name":"_rewardAddress","type":"address"}],"name":"onboardPlayer","outputs":[],"stateMutability":"nonpayable","type":"function"},{"inputs":[],"name":"playerDatabase","outputs":[{"internalType":"contract IPlayerDatabase","name":"","type":"address"}],"stateMutability":"view","type":"function"},{"inputs":[{"internalType":"address","name":"admin","type":"address"}],"name":"registerAdmin","outputs":[],"stateMutability":"nonpayable","type":"function"},{"inputs":[{"internalType":"address","name":"validator","type":"address"}],"name":"registerValidator","outputs":[],"stateMutability":"nonpayable","type":"function"},{"inputs":[{"internalType":"address","name":"admin","type":"address"}],"name":"removeAdmin","outputs":[],"stateMutability":"nonpayable","type":"function"},{"inputs":[{"internalType":"address","name":"validator","type":"address"}],"name":"removeValidator","outputs":[],"stateMutability":"nonpayable","type":"function"},{"inputs":[{"internalType":"address","name":"__playerDatabaseAddress","type":"address"}],"name":"setPlayerDatabaseAddress","outputs":[],"stateMutability":"nonpayable","type":"function"}],"compiler":{"version":"0.8.24+commit.e11b9ed9","evm_version":"istanbul","optimizer":{"enabled":true,"runs":200}},"contractName":"PlayerOnboardContract","language":"Solidity","natspec":{"methods":{},"kind":"dev","version":1},"opcodes":"PUSH1 0x80 PUSH1 0x40 MSTORE CALLVALUE DUP1 ISZERO PUSH2 0x10 JUMPI PUSH1 0x0 DUP1 REVERT JUMPDEST POP PUSH1 0x4 CALLDATASIZE LT PUSH2 0x88 JUMPI PUSH1 0x0 CALLDATALOAD PUSH1 0xE0 SHR DUP1 PUSH4 0x40A141FF GT PUSH2 0x5B JUMPI DUP1 PUSH4 0x40A141FF EQ PUSH2 0xF8 JUMPI DUP1 PUSH4 0x9FCA5169 EQ PUSH2 0x10B JUMPI DUP1 PUSH4 0xC38C5813 EQ PUSH2 0x11E JUMPI DUP1 PUSH4 0xCB744993 EQ PUSH2 0x131 JUMPI PUSH1 0x0 DUP1 REVERT JUMPDEST DUP1 PUSH4 0x12243B67 EQ PUSH2 0x8D JUMPI DUP1 PUSH4 0x143ACC71 EQ PUSH2 0xA2 JUMPI DUP1 PUSH4 0x15FCA479 EQ PUSH2 0xD2 JUMPI DUP1 PUSH4 0x1785F53C EQ PUSH2 0xE5 JUMPI JUMPDEST PUSH1 0x0 DUP1 REVERT JUMPDEST PUSH2 0xA0 PUSH2 0x9B CALLDATASIZE PUSH1 0x4 PUSH2 0x459 JUMP JUMPDEST PUSH2 0x160 JUMP JUMPDEST STOP JUMPDEST PUSH2 0xA0 PUSH2 0xB0 CALLDATASIZE PUSH1 0x4 PUSH2 0x459 JUMP JUMPDEST PUSH1 0x0 DUP1 SLOAD PUSH1 0x1 PUSH1 0x1 PUSH1 0xA0 SHL SUB NOT AND PUSH1 0x1 PUSH1 0x1 PUSH1 0xA0 SHL SUB SWAP3 SWAP1 SWAP3 AND SWAP2 SWAP1 SWAP2 OR SWAP1 SSTORE JUMP JUMPDEST PUSH2 0xA0 PUSH2 0xE0 CALLDATASIZE PUSH1 0x4 PUSH2 0x51E JUMP JUMPDEST PUSH2 0x1F6 JUMP JUMPDEST PUSH2 0xA0 PUSH2 0xF3 CALLDATASIZE PUSH1 0x4 PUSH2 0x459 JUMP JUMPDEST PUSH2 0x326 JUMP JUMPDEST PUSH2 0xA0 PUSH2 0x106 CALLDATASIZE PUSH1 0x4 PUSH2 0x459 JUMP JUMPDEST PUSH2 0x391 JUMP JUMPDEST PUSH2 0xA0 PUSH2 0x119 CALLDATASIZE PUSH1 0x4 PUSH2 0x459 JUMP JUMPDEST PUSH2 0x3CB JUMP JUMPDEST PUSH2 0xA0 PUSH2 0x12C CALLDATASIZE PUSH1 0x4 PUSH2 0x459 JUMP JUMPDEST PUSH2 0x404 JUMP JUMPDEST PUSH1 0x0 SLOAD PUSH2 0x144 SWAP1 PUSH1 0x1 PUSH1 0x1 PUSH1 0xA0 SHL SUB AND DUP2 JUMP JUMPDEST PUSH1 0x40 MLOAD PUSH1 0x1 PUSH1 0x1 PUSH1 0xA0 SHL SUB SWAP1 SWAP2 AND DUP2 MSTORE PUSH1 0x20 ADD PUSH1 0x40 MLOAD DUP1 SWAP2 SUB SWAP1 RETURN JUMPDEST PUSH1 0x0 SLOAD PUSH1 0x40 MLOAD PUSH4 0x12243B67 PUSH1 0xE0 SHL DUP2 MSTORE PUSH1 0x1 PUSH1 0x1 PUSH1 0xA0 SHL SUB DUP4 DUP2 AND PUSH1 0x4 DUP4 ADD MSTORE SWAP1 SWAP2 AND SWAP1 PUSH4 0x12243B67 SWAP1 PUSH1 0x24 ADD PUSH1 0x0 PUSH1 0x40 MLOAD DUP1 DUP4 SUB DUP2 PUSH1 0x0 DUP8 DUP1 EXTCODESIZE ISZERO DUP1 ISZERO PUSH2 0x1A7 JUMPI PUSH1 0x0 DUP1 REVERT JUMPDEST POP GAS CALL ISZERO DUP1 ISZERO PUSH2 0x1BB JUMPI RETURNDATASIZE PUSH1 0x0 DUP1 RETURNDATACOPY RETURNDATASIZE PUSH1 0x0 REVERT JUMPDEST POP POP PUSH1 0x40 MLOAD PUSH1 0x1 PUSH1 0x1 PUSH1 0xA0 SHL SUB DUP5 AND SWAP3 POP PUSH32 0x9AC3117B086B001D2BCD36FF49E64F86A26F25D7C9FF453E9DBD9D496B8BF084 SWAP2 POP PUSH1 0x0 SWAP1 LOG2 POP JUMP JUMPDEST DUP3 PUSH1 0x0 SUB PUSH2 0x264 JUMPI PUSH1 0x40 MLOAD PUSH3 0x461BCD PUSH1 0xE5 SHL DUP2 MSTORE PUSH1 0x20 PUSH1 0x4 DUP3 ADD MSTORE PUSH1 0x31 PUSH1 0x24 DUP3 ADD MSTORE PUSH32 0x4F7261636C65206B657920696E64657820312063616E6E6F74206265207A6572 PUSH1 0x44 DUP3 ADD MSTORE PUSH17 0x6F20666F72206E657720706C6179657273 PUSH1 0x78 SHL PUSH1 0x64 DUP3 ADD MSTORE PUSH1 0x84 ADD PUSH1 0x40 MLOAD DUP1 SWAP2 SUB SWAP1 REVERT JUMPDEST PUSH1 0x0 SLOAD PUSH1 0x40 MLOAD PUSH4 0x1851EDBF PUSH1 0xE1 SHL DUP2 MSTORE PUSH1 0x1 PUSH1 0x1 PUSH1 0xA0 SHL SUB SWAP1 SWAP2 AND SWAP1 PUSH4 0x30A3DB7E SWAP1 PUSH2 0x2A0 SWAP1 DUP11 SWAP1 DUP11 SWAP1 DUP11 SWAP1 DUP11 SWAP1 DUP11 SWAP1 DUP11 SWAP1 DUP11 SWAP1 PUSH1 0x4 ADD PUSH2 0x659 JUMP JUMPDEST PUSH1 0x0 PUSH1 0x40 MLOAD DUP1 DUP4 SUB DUP2 PUSH1 0x0 DUP8 DUP1 EXTCODESIZE ISZERO DUP1 ISZERO PUSH2 0x2BA JUMPI PUSH1 0x0 DUP1 REVERT JUMPDEST POP GAS CALL ISZERO DUP1 ISZERO PUSH2 0x2CE JUMPI RETURNDATASIZE PUSH1 0x0 DUP1 RETURNDATACOPY RETURNDATASIZE PUSH1 0x0 REVERT JUMPDEST POP POP POP POP DUP7 PUSH1 0x1 PUSH1 0x1 PUSH1 0xA0 SHL SUB AND PUSH32 0x8B06958157A003611013DD834A3BDFB55EEB806AF66EBDB86B4952EDE3191D5F DUP8 DUP8 DUP8 DUP8 DUP8 DUP8 PUSH1 0x40 MLOAD PUSH2 0x315 SWAP7 SWAP6 SWAP5 SWAP4 SWAP3 SWAP2 SWAP1 PUSH2 0x6B0 JUMP JUMPDEST PUSH1 0x40 MLOAD DUP1 SWAP2 SUB SWAP1 LOG2 POP POP POP POP POP POP POP JUMP JUMPDEST PUSH1 0x0 DUP1 SLOAD PUSH1 0x40 MLOAD PUSH4 0x16227ECD PUSH1 0xE2 SHL DUP2 MSTORE PUSH1 0x1 PUSH1 0x1 PUSH1 0xA0 SHL SUB DUP5 DUP2 AND PUSH1 0x4 DUP4 ADD MSTORE PUSH1 0x24 DUP3 ADD SWAP4 SWAP1 SWAP4 MSTORE SWAP2 AND SWAP1 PUSH4 0x5889FB34 SWAP1 PUSH1 0x44 ADD JUMPDEST PUSH1 0x0 PUSH1 0x40 MLOAD DUP1 DUP4 SUB DUP2 PUSH1 0x0 DUP8 DUP1 EXTCODESIZE ISZERO DUP1 ISZERO PUSH2 0x376 JUMPI PUSH1 0x0 DUP1 REVERT JUMPDEST POP GAS CALL ISZERO DUP1 ISZERO PUSH2 0x38A JUMPI RETURNDATASIZE PUSH1 0x0 DUP1 RETURNDATACOPY RETURNDATASIZE PUSH1 0x0 REVERT JUMPDEST POP POP POP POP POP JUMP JUMPDEST PUSH1 0x0 DUP1 SLOAD PUSH1 0x40 MLOAD PUSH4 0xACA2490B PUSH1 0xE0 SHL DUP2 MSTORE PUSH1 0x1 PUSH1 0x1 PUSH1 0xA0 SHL SUB DUP5 DUP2 AND PUSH1 0x4 DUP4 ADD MSTORE PUSH1 0x24 DUP3 ADD SWAP4 SWAP1 SWAP4 MSTORE SWAP2 AND SWAP1 PUSH4 0xACA2490B SWAP1 PUSH1 0x44 ADD PUSH2 0x35C JUMP JUMPDEST PUSH1 0x0 SLOAD PUSH1 0x40 MLOAD PUSH4 0xACA2490B PUSH1 0xE0 SHL DUP2 MSTORE PUSH1 0x1 PUSH1 0x1 PUSH1 0xA0 SHL SUB DUP4 DUP2 AND PUSH1 0x4 DUP4 ADD MSTORE PUSH1 0x1 PUSH1 0x24 DUP4 ADD MSTORE SWAP1 SWAP2 AND SWAP1 PUSH4 0xACA2490B SWAP1 PUSH1 0x44 ADD PUSH2 0x35C JUMP JUMPDEST PUSH1 0x0 SLOAD PUSH1 0x40 MLOAD PUSH4 0x16227ECD PUSH1 0xE2 SHL DUP2 MSTORE PUSH1 0x1 PUSH1 0x1 PUSH1 0xA0 SHL SUB DUP4 DUP2 AND PUSH1 0x4 DUP4 ADD MSTORE PUSH1 0x1 PUSH1 0x24 DUP4 ADD MSTORE SWAP1 SWAP2 AND SWAP1 PUSH4 0x5889FB34 SWAP1 PUSH1 0x44 ADD PUSH2 0x35C JUMP JUMPDEST DUP1 CALLDATALOAD PUSH1 0x1 PUSH1 0x1 PUSH1 0xA0 SHL SUB DUP2 AND DUP2 EQ PUSH2 0x454 JUMPI PUSH1 0x0 DUP1 REVERT JUMPDEST SWAP2 SWAP1 POP JUMP JUMPDEST PUSH1 0x0 PUSH1 0x20 DUP3 DUP5 SUB SLT ISZERO PUSH2 0x46B JUMPI PUSH1 0x0 DUP1 REVERT JUMPDEST PUSH2 0x474 DUP3 PUSH2 0x43D JUMP JUMPDEST SWAP4 SWAP3 POP POP POP JUMP JUMPDEST PUSH4 0x4E487B71 PUSH1 0xE0 SHL PUSH1 0x0 MSTORE PUSH1 0x41 PUSH1 0x4 MSTORE PUSH1 0x24 PUSH1 0x0 REVERT JUMPDEST PUSH1 0x0 DUP3 PUSH1 0x1F DUP4 ADD SLT PUSH2 0x4A2 JUMPI PUSH1 0x0 DUP1 REVERT JUMPDEST DUP2 CALLDATALOAD PUSH8 0xFFFFFFFFFFFFFFFF DUP1 DUP3 GT ISZERO PUSH2 0x4BD JUMPI PUSH2 0x4BD PUSH2 0x47B JUMP JUMPDEST PUSH1 0x40 MLOAD PUSH1 0x1F DUP4 ADD PUSH1 0x1F NOT SWAP1 DUP2 AND PUSH1 0x3F ADD AND DUP2 ADD SWAP1 DUP3 DUP3 GT DUP2 DUP4 LT OR ISZERO PUSH2 0x4E5 JUMPI PUSH2 0x4E5 PUSH2 0x47B JUMP JUMPDEST DUP2 PUSH1 0x40 MSTORE DUP4 DUP2 MSTORE DUP7 PUSH1 0x20 DUP6 DUP9 ADD ADD GT ISZERO PUSH2 0x4FE JUMPI PUSH1 0x0 DUP1 REVERT JUMPDEST DUP4 PUSH1 0x20 DUP8 ADD PUSH1 0x20 DUP4 ADD CALLDATACOPY PUSH1 0x0 PUSH1 0x20 DUP6 DUP4 ADD ADD MSTORE DUP1 SWAP5 POP POP POP POP POP SWAP3 SWAP2 POP POP JUMP JUMPDEST PUSH1 0x0 DUP1 PUSH1 0x0 DUP1 PUSH1 0x0 DUP1 PUSH1 0x0 PUSH1 0xC0 DUP9 DUP11 SUB SLT ISZERO PUSH2 0x539 JUMPI PUSH1 0x0 DUP1 REVERT JUMPDEST PUSH2 0x542 DUP9 PUSH2 0x43D JUMP JUMPDEST SWAP7 POP PUSH1 0x20 DUP9 ADD CALLDATALOAD PUSH8 0xFFFFFFFFFFFFFFFF DUP1 DUP3 GT ISZERO PUSH2 0x55F JUMPI PUSH1 0x0 DUP1 REVERT JUMPDEST DUP2 DUP11 ADD SWAP2 POP DUP11 PUSH1 0x1F DUP4 ADD SLT PUSH2 0x573 JUMPI PUSH1 0x0 DUP1 REVERT JUMPDEST DUP2 CALLDATALOAD DUP2 DUP2 GT ISZERO PUSH2 0x582 JUMPI PUSH1 0x0 DUP1 REVERT JUMPDEST DUP12 PUSH1 0x20 DUP3 DUP6 ADD ADD GT ISZERO PUSH2 0x594 JUMPI PUSH1 0x0 DUP1 REVERT JUMPDEST PUSH1 0x20 DUP4 ADD SWAP9 POP DUP1 SWAP8 POP POP PUSH1 0x40 DUP11 ADD CALLDATALOAD SWAP2 POP DUP1 DUP3 GT ISZERO PUSH2 0x5B2 JUMPI PUSH1 0x0 DUP1 REVERT JUMPDEST POP PUSH2 0x5BF DUP11 DUP3 DUP12 ADD PUSH2 0x491 JUMP JUMPDEST SWAP5 POP POP PUSH1 0x60 DUP9 ADD CALLDATALOAD SWAP3 POP PUSH1 0x80 DUP9 ADD CALLDATALOAD SWAP2 POP PUSH2 0x5DC PUSH1 0xA0 DUP10 ADD PUSH2 0x43D JUMP JUMPDEST SWAP1 POP SWAP3 SWAP6 SWAP9 SWAP2 SWAP5 SWAP8 POP SWAP3 SWAP6 POP JUMP JUMPDEST DUP2 DUP4 MSTORE DUP2 DUP2 PUSH1 0x20 DUP6 ADD CALLDATACOPY POP PUSH1 0x0 DUP3 DUP3 ADD PUSH1 0x20 SWAP1 DUP2 ADD SWAP2 SWAP1 SWAP2 MSTORE PUSH1 0x1F SWAP1 SWAP2 ADD PUSH1 0x1F NOT AND SWAP1 SWAP2 ADD ADD SWAP1 JUMP JUMPDEST PUSH1 0x0 DUP2 MLOAD DUP1 DUP5 MSTORE PUSH1 0x0 JUMPDEST DUP2 DUP2 LT ISZERO PUSH2 0x639 JUMPI PUSH1 0x20 DUP2 DUP6 ADD DUP2 ADD MLOAD DUP7 DUP4 ADD DUP3 ADD MSTORE ADD PUSH2 0x61D JUMP JUMPDEST POP PUSH1 0x0 PUSH1 0x20 DUP3 DUP7 ADD ADD MSTORE PUSH1 0x20 PUSH1 0x1F NOT PUSH1 0x1F DUP4 ADD AND DUP6 ADD ADD SWAP2 POP POP SWAP3 SWAP2 POP POP JUMP JUMPDEST PUSH1 0x0 PUSH1 0x1 DUP1 PUSH1 0xA0 SHL SUB DUP1 DUP11 AND DUP4 MSTORE PUSH1 0xC0 PUSH1 0x20 DUP5 ADD MSTORE PUSH2 0x67C PUSH1 0xC0 DUP5 ADD DUP10 DUP12 PUSH2 0x5EA JUMP JUMPDEST DUP4 DUP2 SUB PUSH1 0x40 DUP6 ADD MSTORE PUSH2 0x68E DUP2 DUP10 PUSH2 0x613 JUMP JUMPDEST PUSH1 0x60 DUP6 ADD SWAP8 SWAP1 SWAP8 MSTORE POP PUSH1 0x80 DUP4 ADD SWAP5 SWAP1 SWAP5 MSTORE POP SWAP2 AND PUSH1 0xA0 SWAP1 SWAP2 ADD MSTORE SWAP5 SWAP4 POP POP POP POP JUMP JUMPDEST PUSH1 0xA0 DUP2 MSTORE PUSH1 0x0 PUSH2 0x6C4 PUSH1 0xA0 DUP4 ADD DUP9 DUP11 PUSH2 0x5EA JUMP JUMPDEST DUP3 DUP2 SUB PUSH1 0x20 DUP5 ADD MSTORE PUSH2 0x6D6 DUP2 DUP9 PUSH2 0x613 JUMP JUMPDEST PUSH1 0x40 DUP5 ADD SWAP7 SWAP1 SWAP7 MSTORE POP POP PUSH1 0x60 DUP2 ADD SWAP3 SWAP1 SWAP3 MSTORE PUSH1 0x1 PUSH1 0x1 PUSH1 0xA0 SHL SUB AND PUSH1 0x80 SWAP1 SWAP2 ADD MSTORE SWAP4 SWAP3 POP POP POP JUMP INVALID LOG2 PUSH5 0x6970667358 0x22 SLT KECCAK256 PUSH13 0xD275AA18B2375163660C4D0746 SWAP2 EXTCODESIZE 0x2B 0x4D ADDRESS SWAP2 SWAP15 PUSH32 0x30560C6951E9F1F3118164736F6C634300081800330000000000000000000000 ","sha1":"0ae95f336e78290a7bc11e84420887e431fb202d","source":"// SPDX-License-Identifier: MIT\n\npragma solidity ^0.8.0;\n\n// interface IPlayerDatabaseSubcontract {\n//     function addOrUpdatePlayer(address _address, string calldata _steamID, bool _isValidator, bool _isRegistered) external;\n// }\n\ninterface IPlayerDatabase {\n    function addOrUpdatePlayer(\n        address _address,\n        string calldata _steamID,\n        string calldata _playerName,\n        uint256 _oracleKeyIndex1,\n        uint256 _oracleKeyIndex2,\n        address _rewardAddress\n    ) external;    \n    function deletePlayer(address _address) external;\n    // Include other functions from PlayerDatabase that PlayerOnrampContract needs to call\n\n    function setGameAdminStatus(address admin, bool status) external;\n    function setValidatorStatus(address validator, bool status) external;\n\n}\n\ncontract PlayerOnboardContract {\n    IPlayerDatabase public playerDatabase;\n\n    event PlayerOnboarded(address indexed _address, string _steamID, string _playerName, uint256 _oracleKeyIndex1, uint256 _oracleKeyIndex2, address _rewardAddress);\n    event PlayerRemoved(address indexed deletedPlayerAddress);\n    address _playerDatabaseAddress = 0xB03A6aFd440a2a9db8834F1A6093680f02f1114C;\n\n    constructor() {\n        playerDatabase = IPlayerDatabase(_playerDatabaseAddress);\n    }\n\n    // function onboardPlayer(address _address, string calldata _steamID, bool _isValidator, string memory _playerName) public {\n    //     // Additional logic and security checks as needed\n    //     playerDatabase.addOrUpdatePlayer(_address, _steamID, _isValidator, _playerName);\n    //     emit PlayerOnboarded(_address, _steamID, _isValidator, _playerName);\n    // }\n    function onboardPlayer(\n        address _address,\n        string calldata _steamID,\n        string memory _playerName,\n        uint256 _oracleKeyIndex1, // Expect this to be provided; revert if 0 for new players\n        uint256 _oracleKeyIndex2, // Expect this to be provided; could be 0 if only one key is used\n        address _rewardAddress // Reward address for the player\n    ) public {\n        // Here you might want to include checks for the caller's permissions to onboard a player\n        // and other business logic validations.\n\n        // Revert if oracleKeyIndex1 is 0 for new players\n        require(_oracleKeyIndex1 != 0, \"Oracle key index 1 cannot be zero for new players\");\n\n        // Call the PlayerDatabase to add or update the player with new parameters\n        playerDatabase.addOrUpdatePlayer(_address, _steamID, _playerName, _oracleKeyIndex1, _oracleKeyIndex2, _rewardAddress);\n\n        // Emit an event with all the provided information\n        emit PlayerOnboarded(_address, _steamID, _playerName, _oracleKeyIndex1, _oracleKeyIndex2, _rewardAddress);\n    }\n\n\n    function deletePlayer(address _address) public {\n        playerDatabase.deletePlayer(_address);\n        emit PlayerRemoved(_address);\n    }\n\n    function setPlayerDatabaseAddress(address __playerDatabaseAddress) public {\n        playerDatabase = IPlayerDatabase(__playerDatabaseAddress);\n    }\n    // Additional functions and logic as required for onramping...\n\n\n    function registerValidator(address validator) public {\n        // Add appropriate checks here\n        playerDatabase.setValidatorStatus(validator, true);\n    }\n\n    function removeValidator(address validator) public {\n        // Add appropriate checks here\n        playerDatabase.setValidatorStatus(validator, false);\n    }\n\n    function registerAdmin(address admin) public {\n        // Add appropriate checks here\n        playerDatabase.setGameAdminStatus(admin, true);\n    }\n\n    function removeAdmin(address admin) public {\n        // Add appropriate checks here\n        playerDatabase.setGameAdminStatus(admin, false);\n    }\n}\n// contract PlayerOnrampContract {\n//     IMintyDatabaseSubcontract public mintyDatabase;\n\n//     event PlayerOnboarded(address indexed playerAddress, string steamID, bool isValidator, bool isRegistered);\n\n//     constructor(address _mintyDatabaseAddress) {\n//         mintyDatabase = IMintyDatabaseSubcontract(_mintyDatabaseAddress);\n//     }\n\n//     function onboardPlayer(address _address, string calldata _steamID, bool _isValidator, bool _isRegistered) public {\n//         // Additional logic and security checks as needed\n//         mintyDatabase.addOrUpdatePlayer(_address, _steamID, _isValidator, _isRegistered);\n//         emit PlayerOnboarded(_address, _steamID, _isValidator, _isRegistered);\n//     }\n\n//     // Additional functions and logic as required for onramping...\n// }\n","sourcePath":"contracts/5_GP_Onboard.sol","deployment":{"address":"0xE26328dBACF2D3Ac603bc834396413D658f299CC","chainid":"86098","blockHeight":169430}}