{"bytecode":"608060405234801561001057600080fd5b50601680546001600160a01b031990811673fd003ca44bbf4e9fb0b2ff1a33fc2f05a6c2eff91790915560008054909116730759a02f763375305aef8b3afb0051ede0c0577f17905561320a806100686000396000f3fe608060405234801561001057600080fd5b50600436106102535760003560e01c80636118b1c311610146578063931742d3116100c3578063ba69067711610087578063ba6906771461057a578063c506f2331461059a578063c8dab0dd146105bb578063c9906d09146105ce578063d47b2e99146105f7578063fb632d891461060a57600080fd5b8063931742d31461051757806397688a0d146105285780639b19251a1461053b578063ae61d2c21461055e578063b889b2b71461057157600080fd5b80638597946b1161010a5780638597946b146104c35780638705d945146104d65780638775b01f146104de5780638ab1d681146104f15780638fd5e0cc1461050457600080fd5b80636118b1c3146104415780636ab987c5146104545780636c8dd0bd14610467578063787325ca146104875780637e08deae146104b057600080fd5b80633e13566b116101d457806356bf7b571161019857806356bf7b57146103c35780635961f500146103d65780635a725b07146103e95780635c16e15e1461040e5780635e9508581461042e57600080fd5b80633e13566b1461036157806340f1df151461036a5780634a6728701461037d5780634fbbc63f146103905780635360aa97146103b057600080fd5b80632fd5c2471161021b5780632fd5c247146102d357806330b70507146102e05780633337db52146102f357806333b8a8131461030a5780633af32abf1461033557600080fd5b806303545eac146102585780630542322414610290578063142eb8c8146102a55780631a533daa146102ad5780632eb4b54f146102c0575b600080fd5b61027b610266366004612923565b60056020526000908152604090205460ff1681565b60405190151581526020015b60405180910390f35b6102a361029e366004612969565b61062a565b005b6102a361071a565b6102a36102bb366004612a82565b610856565b6102a36102ce366004612a82565b610a26565b60075461027b9060ff1681565b6102a36102ee366004612ad0565b610adf565b6102fc60155481565b604051908152602001610287565b61031d610318366004612b1e565b610e78565b6040516001600160a01b039091168152602001610287565b61027b610343366004612923565b6001600160a01b031660009081526006602052604090205460ff1690565b6102fc60145481565b6102fc610378366004612923565b610f89565b6102a361038b366004612b6f565b61109e565b6102fc61039e366004612923565b600a6020526000908152604090205481565b6102a36103be366004612b6f565b61116a565b60005461031d906001600160a01b031681565b6102a36103e4366004612969565b611228565b6103fc6103f7366004612ad0565b6113b7565b60405160ff9091168152602001610287565b6102fc61041c366004612923565b60096020526000908152604090205481565b6102a361043c366004612b6f565b61156f565b6102a361044f366004612bd2565b61162d565b6102a3610462366004612bfc565b611766565b6102fc610475366004612923565b60086020526000908152604090205481565b6102fc610495366004612923565b6001600160a01b031660009081526008602052604090205490565b6102a36104be366004612b6f565b6118b0565b6102a36104d1366004612b6f565b611acc565b6015546102fc565b61027b6104ec366004612923565b611bda565b6102a36104ff366004612923565b611de4565b6102a3610512366004612bfc565b611ed1565b6016546001600160a01b031661031d565b6102a3610536366004612969565b612053565b61027b610549366004612923565b60066020526000908152604090205460ff1681565b6102a361056c366004612969565b612138565b6102fc60135481565b6102fc610588366004612923565b600b6020526000908152604090205481565b6105ad6105a8366004612923565b61222a565b604051610287929190612ca7565b6102a36105c9366004612bfc565b6122ce565b61031d6105dc366004612cc9565b600c602052600090815260409020546001600160a01b031681565b6102a3610605366004612bd2565b612442565b6102fc610618366004612923565b60036020526000908152604090205481565b60008160405160200161063d9190612ce2565b60408051601f19818403018152908290526000805463333f611160e01b8452919350916001600160a01b039091169063333f611190610686908990899089908890600401612d28565b6020604051808303816000875af11580156106a5573d6000803e3d6000fd5b505050506040513d601f19601f820116820180604052508101906106c99190612e09565b9050806106f15760405162461bcd60e51b81526004016106e890612e2b565b60405180910390fd5b5050601080546001600160a01b0319166001600160a01b03929092169190911790556012555050565b3360008181526006602052604090205460ff166107795760405162461bcd60e51b815260206004820152601760248201527f55736572206973206e6f742077686974656c697374656400000000000000000060448201526064016106e8565b6001600160a01b038116600090815260096020908152604080832054600a90925290912054808210156107e55760405162461bcd60e51b8152602060048201526014602482015273496e76616c696420636c61696d2076616c75657360601b60448201526064016106e8565b6001600160a01b0383166000818152600a60209081526040808320869055600880835281842054600984529382902084905582528051868152918201929092527fdc5ec23a202853e756bbb0c4f4cb94deea4936fcc71756da3ddebf99aabf6c9e91015b60405180910390a2505050565b3360009081526005602052604090205460ff166108855760405162461bcd60e51b81526004016106e890612e60565b6000816040516020016108989190612ea1565b60408051601f1981840301815291815281516020928301206001600160a01b0386166000908152600690935291205490915060ff161561091a5760405162461bcd60e51b815260206004820152601b60248201527f4164647265737320616c72656164792077686974656c6973746564000000000060448201526064016106e8565b6000818152600c60205260409020546001600160a01b0316158061095757506000818152600c60205260409020546001600160a01b038481169116145b6109a35760405162461bcd60e51b815260206004820152601760248201527f686173686564494420616c726561647920696e2075736500000000000000000060448201526064016106e8565b6001600160a01b03831660008181526003602090815260408083206005905560068252808320805460ff19166001179055600b8252808320859055848352600c82529182902080546001600160a01b0319168417905590518381527fc27d38ad1bdb4164d72e05492b5ce6099b4169e9f20b41d3c7cf35c114a64d5b9101610849565b3360009081526005602052604090205460ff16610a915760405162461bcd60e51b815260206004820152602360248201527f4e6f74207065726d697474656420746f20757064617465206c61737420706c616044820152621e595960ea1b60648201526084016106e8565b604080518082018252828152426020808301919091526001600160a01b038516600090815260049091529190912081518190610acd9082612f48565b50602082015181600101559050505050565b3360009081526005602052604090205460ff16610b0e5760405162461bcd60e51b81526004016106e890612e60565b6001600160a01b038116610b6f5760405162461bcd60e51b815260206004820152602260248201527f4e657720616464726573732063616e6e6f74206265207a65726f206164647265604482015261737360f01b60648201526084016106e8565b600082604051602001610b829190612ea1565b60408051601f1981840301815291815281516020928301206000818152600c9093529120549091506001600160a01b0316610bff5760405162461bcd60e51b815260206004820152601760248201527f6861736865644944206e6f74207265676973746572656400000000000000000060448201526064016106e8565b6000818152600c60205260409020546001600160a01b03163314610c655760405162461bcd60e51b815260206004820152601f60248201527f4f6e6c792063757272656e7420616464726573732063616e207570646174650060448201526064016106e8565b6000818152600d6020526040902054801580610c8d575062015180610c8a824261301e565b10155b610cd95760405162461bcd60e51b815260206004820152601d60248201527f5570646174652074696d656f7574206e6f74207965742070617373656400000060448201526064016106e8565b6001600160a01b0383166000908152600b60205260409020541580610d1557506001600160a01b0383166000908152600b602052604090205482145b610d875760405162461bcd60e51b815260206004820152603860248201527f4e6577206164647265737320616c7265616479206173736f636961746564207760448201527f697468206120646966666572656e74206861736865644944000000000000000060648201526084016106e8565b6000828152600c6020908152604080832080546001600160a01b039081168086526006808652848720805460ff19908116909155600b808852868920899055938b168089529187528588208054909116600117905591855283862088905587865282546001600160a01b031916909117909155600d90925280832042905551909182917fcdd2e9b91a56913d370075169cefa1602ba36be5301664f752192bb1709df7579190a2836001600160a01b03167fc27d38ad1bdb4164d72e05492b5ce6099b4169e9f20b41d3c7cf35c114a64d5b84604051610e6991815260200190565b60405180910390a25050505050565b6000601454828051906020012014610eec5760405162461bcd60e51b815260206004820152603160248201527f42797465636f646520646f6573206e6f74206d617463682070726576696f7573604482015270363c90383937bb34b232b2103430b9b41760791b60648201526084016106e8565b60008251602084016000f090506001600160a01b038116610f4f5760405162461bcd60e51b815260206004820152601860248201527f436f6e7472616374206372656174696f6e206661696c6564000000000000000060448201526064016106e8565b6040516001600160a01b038216907fcf78cf0d6f3d8371e1075c69c492ab4ec5d8cf23a1a239b6a51a1d00be7ca31290600090a292915050565b6001600160a01b03811660009081526006602052604081205460ff16610fb157506000919050565b6001600160a01b038216600090815260036020908152604080832054600180845282852060029094529190932090820154831115611001576001820154610ff8908461301e565b95945050505050565b8154610e1082826101f4811061101957611019613031565b0154611025904261301e565b1115611035575091949350505050565b82546000908590611047906001613047565b6110519190613070565b9050610e1083826101f4811061106957611069613031565b0154611075904261301e565b11156110915761108660018661301e565b979650505050505050565b5060009695505050505050565b6000816040516020016110b391815260200190565b60408051601f19818403018152908290526000805463333f611160e01b8452919350916001600160a01b039091169063333f6111906110fc908990899089908890600401612d28565b6020604051808303816000875af115801561111b573d6000803e3d6000fd5b505050506040513d601f19601f8201168201806040525081019061113f9190612e09565b90508061115e5760405162461bcd60e51b81526004016106e890612e2b565b50506017556012555050565b60008054604080516020808201869052825180830390910181528183019283905263333f611160e01b9092526001600160a01b039092169163333f6111916111bb9189918991899190604401612d28565b6020604051808303816000875af11580156111da573d6000803e3d6000fd5b505050506040513d601f19601f820116820180604052508101906111fe9190612e09565b90508061121d5760405162461bcd60e51b81526004016106e890612e2b565b50600f556012555050565b60008460405160200161123b9190613084565b60405160208183030381529060405280519060200120905060125481036112745760405162461bcd60e51b81526004016106e8906130bb565b6000826040516020016112879190612ce2565b60408051601f19818403018152908290526000805463333f611160e01b8452919350916001600160a01b039091169063333f6111906112d0908a908a908a908890600401612d28565b6020604051808303816000875af11580156112ef573d6000803e3d6000fd5b505050506040513d601f19601f820116820180604052508101906113139190612e09565b9050806113325760405162461bcd60e51b81526004016106e890612e2b565b60185482516020840120146113895760405162461bcd60e51b815260206004820152601d60248201527f4d69736d61746368656420636f6d6d697373696f6e206164647265737300000060448201526064016106e8565b5050601680546001600160a01b0319166001600160a01b039390931692909217909155505060006012555050565b6001600160a01b0381166000908152600460205260408082208151808301909252805483929190829082906113eb90612ebd565b80601f016020809104026020016040519081016040528092919081815260200182805461141790612ebd565b80156114645780601f1061143957610100808354040283529160200191611464565b820191906000526020600020905b81548152906001019060200180831161144757829003601f168201915b50505050508152602001600182015481525050905060006101e082602001514261148e919061301e565b1090508080156114e95750846040516020016114aa9190612ea1565b60408051601f19818403018152908290528051602091820120845190926114d19201612ea1565b60405160208183030381529060405280519060200120145b156114f957600292505050611569565b8080156115525750846040516020016115129190612ea1565b60408051601f19818403018152908290528051602091820120845190926115399201612ea1565b6040516020818303038152906040528051906020012014155b1561156257600192505050611569565b6000925050505b92915050565b60008054604080516020808201869052825180830390910181528183019283905263333f611160e01b9092526001600160a01b039092169163333f6111916115c09189918991899190604401612d28565b6020604051808303816000875af11580156115df573d6000803e3d6000fd5b505050506040513d601f19601f820116820180604052508101906116039190612e09565b9050806116225760405162461bcd60e51b81526004016106e890612e2b565b506014556012555050565b3360009081526005602052604090205460ff166116a55760405162461bcd60e51b815260206004820152603060248201527f4e6f74207065726d697474656420746f206d6f6469667920686f75726c79207460448201526f72616e73616374696f6e2071756f746160801b60648201526084016106e8565b6001600160a01b03821660009081526006602052604090205460ff1661170d5760405162461bcd60e51b815260206004820152601e60248201527f41646472657373206e6f7420666f756e6420696e2077686974656c697374000060448201526064016106e8565b6001600160a01b03821660008181526003602052604090819020839055517f49e4e7ca63dcc35a72589f844cb844ce25176e8e1aff16f1ad1fb46624c653729061175a9084815260200190565b60405180910390a25050565b60008054600f5460408051602080820193909352815180820390930183528082019182905263333f611160e01b9091526001600160a01b039092169163333f6111916117bb9188918891889190604401612d28565b6020604051808303816000875af11580156117da573d6000803e3d6000fd5b505050506040513d601f19601f820116820180604052508101906117fe9190612e09565b90506000846040516020016118139190613084565b604051602081830303815290604052805190602001209050601254810361184c5760405162461bcd60e51b81526004016106e8906130bb565b816118695760405162461bcd60e51b81526004016106e890612e2b565b600f5460138190556040519081527f58098eeec115cba633a1b8765151f8a2e4efbdcb42846e0968e430d56e21d3709060200160405180910390a150506000601255505050565b6000846040516020016118c39190613084565b60405160208183030381529060405280519060200120905060125481036118fc5760405162461bcd60e51b81526004016106e8906130bb565b60008260405160200161191191815260200190565b60408051601f19818403018152908290526000805463333f611160e01b8452919350916001600160a01b039091169063333f61119061195a908a908a908a908890600401612d28565b6020604051808303816000875af1158015611979573d6000803e3d6000fd5b505050506040513d601f19601f8201168201806040525081019061199d9190612e09565b9050806119bc5760405162461bcd60e51b81526004016106e890612e2b565b6014841115611a1d5760405162461bcd60e51b815260206004820152602760248201527f436f6d6d697373696f6e2073686f756c64206265206265747765656e20302520604482015266616e642032302560c81b60648201526084016106e8565b6017548414611a815760405162461bcd60e51b815260206004820152602a60248201527f4d69736d61746368656420636f6d6d697373696f6e2076616c756573206265746044820152697765656e20737465707360b01b60648201526084016106e8565b6015849055600060178190556012556040518481527f11bf320227562bd5f6c9b575913cf92b3b996b47873159df227324ae1bb4d0ea9060200160405180910390a150505050505050565b60008054604080516020808201869052825180830390910181528183019283905263333f611160e01b9092526001600160a01b039092169163333f611191611b1d9189918991899190604401612d28565b6020604051808303816000875af1158015611b3c573d6000803e3d6000fd5b505050506040513d601f19601f82011682018060405250810190611b609190612e09565b9050600085604051602001611b759190613084565b6040516020818303038152906040528051906020012090506012548103611bae5760405162461bcd60e51b81526004016106e8906130bb565b81611bcb5760405162461bcd60e51b81526004016106e890612e2b565b50506014555050600060125550565b600033732685751d3c7a49ebf485e823079ac65e2a35a3dd811490611bfe90612726565b604051602001611c0e9190613122565b60405160208183030381529060405290611c3b5760405162461bcd60e51b81526004016106e8919061317d565b506001600160a01b03821660009081526006602052604090205460ff16611c6457506000919050565b6001600160a01b0382166000908152600360205260408120549003611c8b57506000919050565b6001600160a01b038216600090815260016020818152604080842060028352818520600390935293205491830154909111611d2c578154610e1082826101f48110611cd857611cd8613031565b0154611ce4904261301e565b11611cf457506000949350505050565b6001600160a01b0385166000908152600360205260409020548354611d1a906001613047565b611d249190613070565b835550611d44565b600182018054906000611d3e83613190565b91905055505b6001600160a01b0384166000908152600360205260408120546001848101548554611d6f9190613047565b611d79919061301e565b611d839190613070565b90504282826101f48110611d9957611d99613031565b01556040514281526001600160a01b038616907f9ed0861f8fc182c8888f48e900842f475ccd2a3c93c6f966168eaa67d52d2ee19060200160405180910390a2506001949350505050565b3360009081526005602052604090205460ff16611e135760405162461bcd60e51b81526004016106e890612e60565b6001600160a01b03811660009081526006602052604090205460ff16611e7b5760405162461bcd60e51b815260206004820152601e60248201527f41646472657373206e6f7420666f756e6420696e2077686974656c697374000060448201526064016106e8565b6001600160a01b0381166000818152600660209081526040808320805460ff19169055600b909152808220829055517fcdd2e9b91a56913d370075169cefa1602ba36be5301664f752192bb1709df7579190a250565b600083604051602001611ee49190613084565b6040516020818303038152906040528051906020012090506012548103611f1d5760405162461bcd60e51b81526004016106e8906130bb565b601154604051600091611f3e916001600160a01b0390911690602001612ce2565b60408051601f19818403018152908290526000805463333f611160e01b8452919350916001600160a01b039091169063333f611190611f87908990899089908890600401612d28565b6020604051808303816000875af1158015611fa6573d6000803e3d6000fd5b505050506040513d601f19601f82011682018060405250810190611fca9190612e09565b905080611fe95760405162461bcd60e51b81526004016106e890612e2b565b601180546001600160a01b039081166000908152600560209081526040808320805460ff1916905560129290925592549051911681527f6c643a308c2943f8cabf6ea94d2fc3741e4995caa21bd8e305b91f06abf14b5891015b60405180910390a1505050505050565b600080546040516001600160a01b039091169063333f611190879087908790612080908890602001612ce2565b6040516020818303038152906040526040518563ffffffff1660e01b81526004016120ae9493929190612d28565b6020604051808303816000875af11580156120cd573d6000803e3d6000fd5b505050506040513d601f19601f820116820180604052508101906120f19190612e09565b9050806121105760405162461bcd60e51b81526004016106e890612e2b565b50601180546001600160a01b0319166001600160a01b03929092169190911790556012555050565b600080546040516001600160a01b039091169063333f611190879087908790612165908890602001612ce2565b6040516020818303038152906040526040518563ffffffff1660e01b81526004016121939493929190612d28565b6020604051808303816000875af11580156121b2573d6000803e3d6000fd5b505050506040513d601f19601f820116820180604052508101906121d69190612e09565b9050806121f55760405162461bcd60e51b81526004016106e890612e2b565b816040516020016122069190612ce2565b60408051601f19818403018152919052805160209091012060185550506012555050565b60046020526000908152604090208054819061224590612ebd565b80601f016020809104026020016040519081016040528092919081815260200182805461227190612ebd565b80156122be5780601f10612293576101008083540402835291602001916122be565b820191906000526020600020905b8154815290600101906020018083116122a157829003601f168201915b5050505050908060010154905082565b6000836040516020016122e19190613084565b604051602081830303815290604052805190602001209050601254810361231a5760405162461bcd60e51b81526004016106e8906130bb565b60105460405160009161233b916001600160a01b0390911690602001612ce2565b60408051601f19818403018152908290526000805463333f611160e01b8452919350916001600160a01b039091169063333f611190612384908990899089908890600401612d28565b6020604051808303816000875af11580156123a3573d6000803e3d6000fd5b505050506040513d601f19601f820116820180604052508101906123c79190612e09565b9050806123e65760405162461bcd60e51b81526004016106e890612e2b565b601080546001600160a01b03908116600090815260056020908152604091829020805460ff1916600117905592549051911681527f9c2d3039f3d15023b5382d61054aae8f70288e4bffb8676398baca3c389e8f189101612043565b3360009081526005602052604090205460ff166124b05760405162461bcd60e51b815260206004820152602660248201527f4e6f74207065726d697474656420746f206d6f64696679206d696e75746573206044820152651c1b185e595960d21b60648201526084016106e8565b60c88111156125145760405162461bcd60e51b815260206004820152602a60248201527f43616e6e6f7420616464206d6f7265207468616e20323030206d696e7574657360448201526920617420612074696d6560b01b60648201526084016106e8565b6001600160a01b0382166000908152600e60205260408120544291603c61253b838561301e565b61254591906131a9565b90508360c8036125ba5760c68110156125b55760405162461bcd60e51b815260206004820152602c60248201527f496e73756666696369656e742074696d652070617373656420666f72206c617260448201526b19d9481a5b98dc995b595b9d60a21b60648201526084016106e8565b6126ac565b6005841180156125ca575060c884105b1561263d576125da60028561301e565b8110156125b55760405162461bcd60e51b815260206004820152602b60248201527f496e73756666696369656e742074696d652070617373656420666f722074686960448201526a1cc81a5b98dc995b595b9d60aa1b60648201526084016106e8565b600584116126ac5760038110156126ac5760405162461bcd60e51b815260206004820152602d60248201527f557064617465206672657175656e637920746f6f206869676820666f7220736d60448201526c185b1b081a5b98dc995b595b9d609a1b60648201526084016106e8565b6001600160a01b038516600090815260086020526040812080548692906126d4908490613047565b90915550506001600160a01b0385166000818152600e602052604090819020859055517f54ecab596bd73e6a3fd6d8bb310aa69a74c3f78ddc040f88c6f5d06dffb3542b90610e699087815260200190565b604080518082018252601081526f181899199a1a9b1b9c1cb0b131b232b360811b60208201528151602a80825260608281019094526001600160a01b0385169291600091602082018180368337019050509050600360fc1b8160008151811061279157612791613031565b60200101906001600160f81b031916908160001a905350600f60fb1b816001815181106127c0576127c0613031565b60200101906001600160f81b031916908160001a90535060005b60148110156128fe57826004856127f284600c613047565b6020811061280257612802613031565b1a60f81b6001600160f81b031916901c60f81c60ff168151811061282857612828613031565b01602001516001600160f81b031916826128438360026131bd565b61284e906002613047565b8151811061285e5761285e613031565b60200101906001600160f81b031916908160001a905350828461288283600c613047565b6020811061289257612892613031565b825191901a600f169081106128a9576128a9613031565b01602001516001600160f81b031916826128c48360026131bd565b6128cf906003613047565b815181106128df576128df613031565b60200101906001600160f81b031916908160001a9053506001016127da565b50949350505050565b80356001600160a01b038116811461291e57600080fd5b919050565b60006020828403121561293557600080fd5b61293e82612907565b9392505050565b80614000810183101561156957600080fd5b80612000810183101561156957600080fd5b600080600080614060858703121561298057600080fd5b61298a8686612945565b935061400085013567ffffffffffffffff8111156129a757600080fd5b6129b387828801612957565b93505061402085013591506129cb6140408601612907565b905092959194509250565b634e487b7160e01b600052604160045260246000fd5b600067ffffffffffffffff80841115612a0757612a076129d6565b604051601f8501601f19908116603f01168101908282118183101715612a2f57612a2f6129d6565b81604052809350858152868686011115612a4857600080fd5b858560208301376000602087830101525050509392505050565b600082601f830112612a7357600080fd5b61293e838335602085016129ec565b60008060408385031215612a9557600080fd5b612a9e83612907565b9150602083013567ffffffffffffffff811115612aba57600080fd5b612ac685828601612a62565b9150509250929050565b60008060408385031215612ae357600080fd5b823567ffffffffffffffff811115612afa57600080fd5b612b0685828601612a62565b925050612b1560208401612907565b90509250929050565b600060208284031215612b3057600080fd5b813567ffffffffffffffff811115612b4757600080fd5b8201601f81018413612b5857600080fd5b612b67848235602084016129ec565b949350505050565b6000806000806140608587031215612b8657600080fd5b612b908686612945565b935061400085013567ffffffffffffffff811115612bad57600080fd5b612bb987828801612957565b9497949650505050614020830135926140400135919050565b60008060408385031215612be557600080fd5b612bee83612907565b946020939093013593505050565b60008060006140408486031215612c1257600080fd5b612c1c8585612945565b925061400084013567ffffffffffffffff811115612c3957600080fd5b612c4586828701612957565b92505061402084013590509250925092565b60005b83811015612c72578181015183820152602001612c5a565b50506000910152565b60008151808452612c93816020860160208601612c57565b601f01601f19169290920160200192915050565b604081526000612cba6040830185612c7b565b90508260208301529392505050565b600060208284031215612cdb57600080fd5b5035919050565b60609190911b6bffffffffffffffffffffffff1916815260140190565b81835281816020850137506000828201602090810191909152601f909101601f19169091010190565b60006140608281018388845b610100811015612d5557604080838537928301929190910190600101612d34565b50505061400084019190915261606083018660005b610100811015612de15785830361405f190184528135368a9003601e19018112612d9357600080fd5b8901602081810191359067ffffffffffffffff821115612db257600080fd5b813603831315612dc157600080fd5b612dcc868385612cff565b96810196955093909301925050600101612d6a565b505085614020850152838103614040850152612dfd8186612c7b565b98975050505050505050565b600060208284031215612e1b57600080fd5b8151801515811461293e57600080fd5b6020808252818101527f4c616d706f7274204d61737465722076616c69646174696f6e206661696c6564604082015260600190565b60208082526021908201527f4e6f74207065726d697474656420746f206d6f646966792077686974656c69736040820152601d60fa1b606082015260800190565b60008251612eb3818460208701612c57565b9190910192915050565b600181811c90821680612ed157607f821691505b602082108103612ef157634e487b7160e01b600052602260045260246000fd5b50919050565b601f821115612f43576000816000526020600020601f850160051c81016020861015612f205750805b601f850160051c820191505b81811015612f3f57828155600101612f2c565b5050505b505050565b815167ffffffffffffffff811115612f6257612f626129d6565b612f7681612f708454612ebd565b84612ef7565b602080601f831160018114612fab5760008415612f935750858301515b600019600386901b1c1916600185901b178555612f3f565b600085815260208120601f198616915b82811015612fda57888601518255948401946001909101908401612fbb565b5085821015612ff85787850151600019600388901b60f8161c191681555b5050505050600190811b01905550565b634e487b7160e01b600052601160045260246000fd5b8181038181111561156957611569613008565b634e487b7160e01b600052603260045260246000fd5b8082018082111561156957611569613008565b634e487b7160e01b600052601260045260246000fd5b60008261307f5761307f61305a565b500690565b60008183825b6101008110156130ab5760408083853792830192919091019060010161308a565b5050506140008201905092915050565b60208082526041908201527f4c616d706f7274426173653a2043616e6e6f7420757365207468652073616d6560408201527f206b6579636861696e20747769636520666f7220746869732066756e6374696f6060820152603760f91b608082015260a00190565b7f4f6e6c7920546865526f636b2063616e2063616c6c20746869732066756e637481526c034b7b7171021b0b63632b91d1609d1b60208201526000825161317081602d850160208701612c57565b91909101602d0192915050565b60208152600061293e6020830184612c7b565b6000600182016131a2576131a2613008565b5060010190565b6000826131b8576131b861305a565b500490565b80820281158282048414176115695761156961300856fea2646970667358221220696f5e50f36bfed4f3a40e1579251033997ced1f15b31d02254fe40bafa548a264736f6c63430008180033","bytecodeSha1":"b4354f7c251b623f1b160e086ba82be5f8468c61","type":"contract","abi":[{"inputs":[],"stateMutability":"nonpayable","type":"constructor","name":"constructor"},{"anonymous":false,"inputs":[{"indexed":true,"internalType":"address","name":"userAddress","type":"address"},{"indexed":false,"internalType":"uint256","name":"lastClaimValue","type":"uint256"},{"indexed":false,"internalType":"uint256","name":"minutesPlayed","type":"uint256"}],"name":"ClaimedGP","type":"event"},{"anonymous":false,"inputs":[{"indexed":true,"internalType":"address","name":"newCommissionAddress","type":"address"}],"name":"CommissionAddressSet","type":"event"},{"anonymous":false,"inputs":[{"indexed":false,"internalType":"uint256","name":"newCoinCommission","type":"uint256"}],"name":"CommissionSet","type":"event"},{"anonymous":false,"inputs":[{"indexed":true,"internalType":"address","name":"contractAddress","type":"address"}],"name":"ContractCreated","type":"event"},{"anonymous":false,"inputs":[{"indexed":false,"internalType":"address","name":"contractAddress","type":"address"}],"name":"ContractPermissionGranted","type":"event"},{"anonymous":false,"inputs":[{"indexed":false,"internalType":"address","name":"contractAddress","type":"address"}],"name":"ContractPermissionRevoked","type":"event"},{"anonymous":false,"inputs":[{"indexed":false,"internalType":"uint256","name":"newFreeGasCap","type":"uint256"}],"name":"FreeGasCapSet","type":"event"},{"anonymous":false,"inputs":[{"indexed":false,"internalType":"uint256","name":"hash","type":"uint256"}],"name":"LogLastCalculatedHash","type":"event"},{"anonymous":false,"inputs":[{"indexed":true,"internalType":"address","name":"user","type":"address"},{"indexed":false,"internalType":"uint256","name":"_minutes","type":"uint256"}],"name":"MinutesPlayedIncremented","type":"event"},{"anonymous":false,"inputs":[{"indexed":true,"internalType":"address","name":"_address","type":"address"},{"indexed":false,"internalType":"uint256","name":"_quota","type":"uint256"}],"name":"QuotaSet","type":"event"},{"anonymous":false,"inputs":[{"indexed":true,"internalType":"address","name":"_address","type":"address"}],"name":"RemovedFromWhitelist","type":"event"},{"anonymous":false,"inputs":[{"indexed":true,"internalType":"address","name":"_user","type":"address"},{"indexed":false,"internalType":"uint256","name":"timestamp","type":"uint256"}],"name":"TxRecorded","type":"event"},{"anonymous":false,"inputs":[{"indexed":false,"internalType":"uint256","name":"hashedData","type":"uint256"}],"name":"VerificationFailed","type":"event"},{"anonymous":false,"inputs":[{"indexed":true,"internalType":"address","name":"_address","type":"address"},{"indexed":false,"internalType":"bytes32","name":"hashedID","type":"bytes32"}],"name":"Whitelisted","type":"event"},{"inputs":[],"name":"_coinCommission","outputs":[{"internalType":"uint256","name":"","type":"uint256"}],"stateMutability":"view","type":"function"},{"inputs":[{"internalType":"address","name":"_address","type":"address"},{"internalType":"string","name":"anonID","type":"string"}],"name":"addToWhitelist","outputs":[],"stateMutability":"nonpayable","type":"function"},{"inputs":[{"internalType":"address","name":"","type":"address"}],"name":"addressToHashedID","outputs":[{"internalType":"bytes32","name":"","type":"bytes32"}],"stateMutability":"view","type":"function"},{"inputs":[],"name":"claimGP","outputs":[],"stateMutability":"nonpayable","type":"function"},{"inputs":[],"name":"coinCommission","outputs":[{"internalType":"uint256","name":"","type":"uint256"}],"stateMutability":"view","type":"function"},{"inputs":[],"name":"commissionAddress","outputs":[{"internalType":"address","name":"","type":"address"}],"stateMutability":"view","type":"function"},{"inputs":[{"internalType":"bytes32[2][256]","name":"currentpub","type":"bytes32[2][256]"},{"internalType":"bytes[256]","name":"sig","type":"bytes[256]"},{"internalType":"bytes32","name":"nextPKH","type":"bytes32"},{"internalType":"bytes32","name":"bytecodeKeccak","type":"bytes32"}],"name":"createContractStepOne","outputs":[],"stateMutability":"nonpayable","type":"function"},{"inputs":[{"internalType":"bytes","name":"bytecode","type":"bytes"}],"name":"createContractStepThree","outputs":[{"internalType":"address","name":"","type":"address"}],"stateMutability":"nonpayable","type":"function"},{"inputs":[{"internalType":"bytes32[2][256]","name":"currentpub","type":"bytes32[2][256]"},{"internalType":"bytes[256]","name":"sig","type":"bytes[256]"},{"internalType":"bytes32","name":"nextPKH","type":"bytes32"},{"internalType":"bytes32","name":"bytecodeKeccak","type":"bytes32"}],"name":"createContractStepTwo","outputs":[],"stateMutability":"nonpayable","type":"function"},{"inputs":[],"name":"freeGasCap","outputs":[{"internalType":"uint256","name":"","type":"uint256"}],"stateMutability":"view","type":"function"},{"inputs":[{"internalType":"address","name":"user","type":"address"}],"name":"getMinutesPlayed","outputs":[{"internalType":"uint256","name":"","type":"uint256"}],"stateMutability":"view","type":"function"},{"inputs":[{"internalType":"address","name":"_user","type":"address"}],"name":"getRemainingTxQuota","outputs":[{"internalType":"uint256","name":"","type":"uint256"}],"stateMutability":"view","type":"function"},{"inputs":[{"internalType":"bytes32[2][256]","name":"currentpub","type":"bytes32[2][256]"},{"internalType":"bytes[256]","name":"sig","type":"bytes[256]"},{"internalType":"bytes32","name":"nextPKH","type":"bytes32"},{"internalType":"address","name":"contractAddress","type":"address"}],"name":"grantActivityContractPermissionStepOne","outputs":[],"stateMutability":"nonpayable","type":"function"},{"inputs":[{"internalType":"bytes32[2][256]","name":"currentpub","type":"bytes32[2][256]"},{"internalType":"bytes[256]","name":"sig","type":"bytes[256]"},{"internalType":"bytes32","name":"nextPKH","type":"bytes32"}],"name":"grantActivityContractPermissionStepTwo","outputs":[],"stateMutability":"nonpayable","type":"function"},{"inputs":[{"internalType":"bytes32","name":"","type":"bytes32"}],"name":"hashedIDToAddress","outputs":[{"internalType":"address","name":"","type":"address"}],"stateMutability":"view","type":"function"},{"inputs":[{"internalType":"address","name":"","type":"address"}],"name":"hourlyTxQuota","outputs":[{"internalType":"uint256","name":"","type":"uint256"}],"stateMutability":"view","type":"function"},{"inputs":[{"internalType":"address","name":"user","type":"address"},{"internalType":"uint256","name":"__minutes","type":"uint256"}],"name":"incrementMinutesPlayed","outputs":[],"stateMutability":"nonpayable","type":"function"},{"inputs":[{"internalType":"address","name":"","type":"address"}],"name":"isContractPermitted","outputs":[{"internalType":"bool","name":"","type":"bool"}],"stateMutability":"view","type":"function"},{"inputs":[{"internalType":"string","name":"gameID","type":"string"},{"internalType":"address","name":"player","type":"address"}],"name":"isPlayerActiveInGame","outputs":[{"internalType":"uint8","name":"","type":"uint8"}],"stateMutability":"view","type":"function"},{"inputs":[{"internalType":"address","name":"_user","type":"address"}],"name":"isThisTxFree","outputs":[{"internalType":"bool","name":"","type":"bool"}],"stateMutability":"nonpayable","type":"function"},{"inputs":[{"internalType":"address","name":"_address","type":"address"}],"name":"isWhitelisted","outputs":[{"internalType":"bool","name":"","type":"bool"}],"stateMutability":"view","type":"function"},{"inputs":[],"name":"lamportBase","outputs":[{"internalType":"contract ILamportBase","name":"","type":"address"}],"stateMutability":"view","type":"function"},{"inputs":[{"internalType":"address","name":"","type":"address"}],"name":"lastClaim","outputs":[{"internalType":"uint256","name":"","type":"uint256"}],"stateMutability":"view","type":"function"},{"inputs":[{"internalType":"address","name":"","type":"address"}],"name":"lastLastClaim","outputs":[{"internalType":"uint256","name":"","type":"uint256"}],"stateMutability":"view","type":"function"},{"inputs":[{"internalType":"address","name":"","type":"address"}],"name":"lastPlayed","outputs":[{"internalType":"string","name":"gameId","type":"string"},{"internalType":"uint256","name":"timestamp","type":"uint256"}],"stateMutability":"view","type":"function"},{"inputs":[],"name":"lastUsedBytecodeHash","outputs":[{"internalType":"bytes32","name":"","type":"bytes32"}],"stateMutability":"view","type":"function"},{"inputs":[],"name":"lastVerificationResult","outputs":[{"internalType":"bool","name":"","type":"bool"}],"stateMutability":"view","type":"function"},{"inputs":[{"internalType":"address","name":"","type":"address"}],"name":"minutesPlayed","outputs":[{"internalType":"uint256","name":"","type":"uint256"}],"stateMutability":"view","type":"function"},{"inputs":[{"internalType":"address","name":"_address","type":"address"}],"name":"removeFromWhitelist","outputs":[],"stateMutability":"nonpayable","type":"function"},{"inputs":[{"internalType":"bytes32[2][256]","name":"currentpub","type":"bytes32[2][256]"},{"internalType":"bytes[256]","name":"sig","type":"bytes[256]"},{"internalType":"bytes32","name":"nextPKH","type":"bytes32"},{"internalType":"address","name":"contractAddress","type":"address"}],"name":"revokeActivityContractPermissionStepOne","outputs":[],"stateMutability":"nonpayable","type":"function"},{"inputs":[{"internalType":"bytes32[2][256]","name":"currentpub","type":"bytes32[2][256]"},{"internalType":"bytes[256]","name":"sig","type":"bytes[256]"},{"internalType":"bytes32","name":"nextPKH","type":"bytes32"}],"name":"revokeActivityContractPermissionStepTwo","outputs":[],"stateMutability":"nonpayable","type":"function"},{"inputs":[{"internalType":"bytes32[2][256]","name":"currentpub","type":"bytes32[2][256]"},{"internalType":"bytes[256]","name":"sig","type":"bytes[256]"},{"internalType":"bytes32","name":"nextPKH","type":"bytes32"},{"internalType":"uint256","name":"newCoinCommission","type":"uint256"}],"name":"setCoinCommissionStepOne","outputs":[],"stateMutability":"nonpayable","type":"function"},{"inputs":[{"internalType":"bytes32[2][256]","name":"currentpub","type":"bytes32[2][256]"},{"internalType":"bytes[256]","name":"sig","type":"bytes[256]"},{"internalType":"bytes32","name":"nextPKH","type":"bytes32"},{"internalType":"uint256","name":"newCoinCommission","type":"uint256"}],"name":"setCoinCommissionStepTwo","outputs":[],"stateMutability":"nonpayable","type":"function"},{"inputs":[{"internalType":"bytes32[2][256]","name":"currentpub","type":"bytes32[2][256]"},{"internalType":"bytes[256]","name":"sig","type":"bytes[256]"},{"internalType":"bytes32","name":"nextPKH","type":"bytes32"},{"internalType":"address","name":"newCommissionAddress","type":"address"}],"name":"setCommissionAddressStepOne","outputs":[],"stateMutability":"nonpayable","type":"function"},{"inputs":[{"internalType":"bytes32[2][256]","name":"currentpub","type":"bytes32[2][256]"},{"internalType":"bytes[256]","name":"sig","type":"bytes[256]"},{"internalType":"bytes32","name":"nextPKH","type":"bytes32"},{"internalType":"address","name":"newCommissionAddress","type":"address"}],"name":"setCommissionAddressStepTwo","outputs":[],"stateMutability":"nonpayable","type":"function"},{"inputs":[{"internalType":"bytes32[2][256]","name":"currentpub","type":"bytes32[2][256]"},{"internalType":"bytes[256]","name":"sig","type":"bytes[256]"},{"internalType":"bytes32","name":"nextPKH","type":"bytes32"},{"internalType":"uint256","name":"_newCap","type":"uint256"}],"name":"setFreeGasCapStepOne","outputs":[],"stateMutability":"nonpayable","type":"function"},{"inputs":[{"internalType":"bytes32[2][256]","name":"currentpub","type":"bytes32[2][256]"},{"internalType":"bytes[256]","name":"sig","type":"bytes[256]"},{"internalType":"bytes32","name":"nextPKH","type":"bytes32"}],"name":"setFreeGasCapStepTwo","outputs":[],"stateMutability":"nonpayable","type":"function"},{"inputs":[{"internalType":"address","name":"_address","type":"address"},{"internalType":"uint256","name":"_quota","type":"uint256"}],"name":"setHourlyTxQuota","outputs":[],"stateMutability":"nonpayable","type":"function"},{"inputs":[{"internalType":"string","name":"anonID","type":"string"},{"internalType":"address","name":"newAddress","type":"address"}],"name":"updateAnonID","outputs":[],"stateMutability":"nonpayable","type":"function"},{"inputs":[{"internalType":"address","name":"_address","type":"address"},{"internalType":"string","name":"_gameId","type":"string"}],"name":"updateLastPlayed","outputs":[],"stateMutability":"nonpayable","type":"function"},{"inputs":[{"internalType":"address","name":"","type":"address"}],"name":"whitelist","outputs":[{"internalType":"bool","name":"","type":"bool"}],"stateMutability":"view","type":"function"}],"compiler":{"version":"0.8.24+commit.e11b9ed9","evm_version":"istanbul","optimizer":{"enabled":true,"runs":200}},"contractName":"AnonIDContract","language":"Solidity","natspec":{"methods":{},"kind":"dev","version":1},"opcodes":"PUSH1 0x80 PUSH1 0x40 MSTORE CALLVALUE DUP1 ISZERO PUSH2 0x10 JUMPI PUSH1 0x0 DUP1 REVERT JUMPDEST POP PUSH1 0x4 CALLDATASIZE LT PUSH2 0x253 JUMPI PUSH1 0x0 CALLDATALOAD PUSH1 0xE0 SHR DUP1 PUSH4 0x6118B1C3 GT PUSH2 0x146 JUMPI DUP1 PUSH4 0x931742D3 GT PUSH2 0xC3 JUMPI DUP1 PUSH4 0xBA690677 GT PUSH2 0x87 JUMPI DUP1 PUSH4 0xBA690677 EQ PUSH2 0x57A JUMPI DUP1 PUSH4 0xC506F233 EQ PUSH2 0x59A JUMPI DUP1 PUSH4 0xC8DAB0DD EQ PUSH2 0x5BB JUMPI DUP1 PUSH4 0xC9906D09 EQ PUSH2 0x5CE JUMPI DUP1 PUSH4 0xD47B2E99 EQ PUSH2 0x5F7 JUMPI DUP1 PUSH4 0xFB632D89 EQ PUSH2 0x60A JUMPI PUSH1 0x0 DUP1 REVERT JUMPDEST DUP1 PUSH4 0x931742D3 EQ PUSH2 0x517 JUMPI DUP1 PUSH4 0x97688A0D EQ PUSH2 0x528 JUMPI DUP1 PUSH4 0x9B19251A EQ PUSH2 0x53B JUMPI DUP1 PUSH4 0xAE61D2C2 EQ PUSH2 0x55E JUMPI DUP1 PUSH4 0xB889B2B7 EQ PUSH2 0x571 JUMPI PUSH1 0x0 DUP1 REVERT JUMPDEST DUP1 PUSH4 0x8597946B GT PUSH2 0x10A JUMPI DUP1 PUSH4 0x8597946B EQ PUSH2 0x4C3 JUMPI DUP1 PUSH4 0x8705D945 EQ PUSH2 0x4D6 JUMPI DUP1 PUSH4 0x8775B01F EQ PUSH2 0x4DE JUMPI DUP1 PUSH4 0x8AB1D681 EQ PUSH2 0x4F1 JUMPI DUP1 PUSH4 0x8FD5E0CC EQ PUSH2 0x504 JUMPI PUSH1 0x0 DUP1 REVERT JUMPDEST DUP1 PUSH4 0x6118B1C3 EQ PUSH2 0x441 JUMPI DUP1 PUSH4 0x6AB987C5 EQ PUSH2 0x454 JUMPI DUP1 PUSH4 0x6C8DD0BD EQ PUSH2 0x467 JUMPI DUP1 PUSH4 0x787325CA EQ PUSH2 0x487 JUMPI DUP1 PUSH4 0x7E08DEAE EQ PUSH2 0x4B0 JUMPI PUSH1 0x0 DUP1 REVERT JUMPDEST DUP1 PUSH4 0x3E13566B GT PUSH2 0x1D4 JUMPI DUP1 PUSH4 0x56BF7B57 GT PUSH2 0x198 JUMPI DUP1 PUSH4 0x56BF7B57 EQ PUSH2 0x3C3 JUMPI DUP1 PUSH4 0x5961F500 EQ PUSH2 0x3D6 JUMPI DUP1 PUSH4 0x5A725B07 EQ PUSH2 0x3E9 JUMPI DUP1 PUSH4 0x5C16E15E EQ PUSH2 0x40E JUMPI DUP1 PUSH4 0x5E950858 EQ PUSH2 0x42E JUMPI PUSH1 0x0 DUP1 REVERT JUMPDEST DUP1 PUSH4 0x3E13566B EQ PUSH2 0x361 JUMPI DUP1 PUSH4 0x40F1DF15 EQ PUSH2 0x36A JUMPI DUP1 PUSH4 0x4A672870 EQ PUSH2 0x37D JUMPI DUP1 PUSH4 0x4FBBC63F EQ PUSH2 0x390 JUMPI DUP1 PUSH4 0x5360AA97 EQ PUSH2 0x3B0 JUMPI PUSH1 0x0 DUP1 REVERT JUMPDEST DUP1 PUSH4 0x2FD5C247 GT PUSH2 0x21B JUMPI DUP1 PUSH4 0x2FD5C247 EQ PUSH2 0x2D3 JUMPI DUP1 PUSH4 0x30B70507 EQ PUSH2 0x2E0 JUMPI DUP1 PUSH4 0x3337DB52 EQ PUSH2 0x2F3 JUMPI DUP1 PUSH4 0x33B8A813 EQ PUSH2 0x30A JUMPI DUP1 PUSH4 0x3AF32ABF EQ PUSH2 0x335 JUMPI PUSH1 0x0 DUP1 REVERT JUMPDEST DUP1 PUSH4 0x3545EAC EQ PUSH2 0x258 JUMPI DUP1 PUSH4 0x5423224 EQ PUSH2 0x290 JUMPI DUP1 PUSH4 0x142EB8C8 EQ PUSH2 0x2A5 JUMPI DUP1 PUSH4 0x1A533DAA EQ PUSH2 0x2AD JUMPI DUP1 PUSH4 0x2EB4B54F EQ PUSH2 0x2C0 JUMPI JUMPDEST PUSH1 0x0 DUP1 REVERT JUMPDEST PUSH2 0x27B PUSH2 0x266 CALLDATASIZE PUSH1 0x4 PUSH2 0x2923 JUMP JUMPDEST PUSH1 0x5 PUSH1 0x20 MSTORE PUSH1 0x0 SWAP1 DUP2 MSTORE PUSH1 0x40 SWAP1 KECCAK256 SLOAD PUSH1 0xFF AND DUP2 JUMP JUMPDEST PUSH1 0x40 MLOAD SWAP1 ISZERO ISZERO DUP2 MSTORE PUSH1 0x20 ADD JUMPDEST PUSH1 0x40 MLOAD DUP1 SWAP2 SUB SWAP1 RETURN JUMPDEST PUSH2 0x2A3 PUSH2 0x29E CALLDATASIZE PUSH1 0x4 PUSH2 0x2969 JUMP JUMPDEST PUSH2 0x62A JUMP JUMPDEST STOP JUMPDEST PUSH2 0x2A3 PUSH2 0x71A JUMP JUMPDEST PUSH2 0x2A3 PUSH2 0x2BB CALLDATASIZE PUSH1 0x4 PUSH2 0x2A82 JUMP JUMPDEST PUSH2 0x856 JUMP JUMPDEST PUSH2 0x2A3 PUSH2 0x2CE CALLDATASIZE PUSH1 0x4 PUSH2 0x2A82 JUMP JUMPDEST PUSH2 0xA26 JUMP JUMPDEST PUSH1 0x7 SLOAD PUSH2 0x27B SWAP1 PUSH1 0xFF AND DUP2 JUMP JUMPDEST PUSH2 0x2A3 PUSH2 0x2EE CALLDATASIZE PUSH1 0x4 PUSH2 0x2AD0 JUMP JUMPDEST PUSH2 0xADF JUMP JUMPDEST PUSH2 0x2FC PUSH1 0x15 SLOAD DUP2 JUMP JUMPDEST PUSH1 0x40 MLOAD SWAP1 DUP2 MSTORE PUSH1 0x20 ADD PUSH2 0x287 JUMP JUMPDEST PUSH2 0x31D PUSH2 0x318 CALLDATASIZE PUSH1 0x4 PUSH2 0x2B1E JUMP JUMPDEST PUSH2 0xE78 JUMP JUMPDEST PUSH1 0x40 MLOAD PUSH1 0x1 PUSH1 0x1 PUSH1 0xA0 SHL SUB SWAP1 SWAP2 AND DUP2 MSTORE PUSH1 0x20 ADD PUSH2 0x287 JUMP JUMPDEST PUSH2 0x27B PUSH2 0x343 CALLDATASIZE PUSH1 0x4 PUSH2 0x2923 JUMP JUMPDEST PUSH1 0x1 PUSH1 0x1 PUSH1 0xA0 SHL SUB AND PUSH1 0x0 SWAP1 DUP2 MSTORE PUSH1 0x6 PUSH1 0x20 MSTORE PUSH1 0x40 SWAP1 KECCAK256 SLOAD PUSH1 0xFF AND SWAP1 JUMP JUMPDEST PUSH2 0x2FC PUSH1 0x14 SLOAD DUP2 JUMP JUMPDEST PUSH2 0x2FC PUSH2 0x378 CALLDATASIZE PUSH1 0x4 PUSH2 0x2923 JUMP JUMPDEST PUSH2 0xF89 JUMP JUMPDEST PUSH2 0x2A3 PUSH2 0x38B CALLDATASIZE PUSH1 0x4 PUSH2 0x2B6F JUMP JUMPDEST PUSH2 0x109E JUMP JUMPDEST PUSH2 0x2FC PUSH2 0x39E CALLDATASIZE PUSH1 0x4 PUSH2 0x2923 JUMP JUMPDEST PUSH1 0xA PUSH1 0x20 MSTORE PUSH1 0x0 SWAP1 DUP2 MSTORE PUSH1 0x40 SWAP1 KECCAK256 SLOAD DUP2 JUMP JUMPDEST PUSH2 0x2A3 PUSH2 0x3BE CALLDATASIZE PUSH1 0x4 PUSH2 0x2B6F JUMP JUMPDEST PUSH2 0x116A JUMP JUMPDEST PUSH1 0x0 SLOAD PUSH2 0x31D SWAP1 PUSH1 0x1 PUSH1 0x1 PUSH1 0xA0 SHL SUB AND DUP2 JUMP JUMPDEST PUSH2 0x2A3 PUSH2 0x3E4 CALLDATASIZE PUSH1 0x4 PUSH2 0x2969 JUMP JUMPDEST PUSH2 0x1228 JUMP JUMPDEST PUSH2 0x3FC PUSH2 0x3F7 CALLDATASIZE PUSH1 0x4 PUSH2 0x2AD0 JUMP JUMPDEST PUSH2 0x13B7 JUMP JUMPDEST PUSH1 0x40 MLOAD PUSH1 0xFF SWAP1 SWAP2 AND DUP2 MSTORE PUSH1 0x20 ADD PUSH2 0x287 JUMP JUMPDEST PUSH2 0x2FC PUSH2 0x41C CALLDATASIZE PUSH1 0x4 PUSH2 0x2923 JUMP JUMPDEST PUSH1 0x9 PUSH1 0x20 MSTORE PUSH1 0x0 SWAP1 DUP2 MSTORE PUSH1 0x40 SWAP1 KECCAK256 SLOAD DUP2 JUMP JUMPDEST PUSH2 0x2A3 PUSH2 0x43C CALLDATASIZE PUSH1 0x4 PUSH2 0x2B6F JUMP JUMPDEST PUSH2 0x156F JUMP JUMPDEST PUSH2 0x2A3 PUSH2 0x44F CALLDATASIZE PUSH1 0x4 PUSH2 0x2BD2 JUMP JUMPDEST PUSH2 0x162D JUMP JUMPDEST PUSH2 0x2A3 PUSH2 0x462 CALLDATASIZE PUSH1 0x4 PUSH2 0x2BFC JUMP JUMPDEST PUSH2 0x1766 JUMP JUMPDEST PUSH2 0x2FC PUSH2 0x475 CALLDATASIZE PUSH1 0x4 PUSH2 0x2923 JUMP JUMPDEST PUSH1 0x8 PUSH1 0x20 MSTORE PUSH1 0x0 SWAP1 DUP2 MSTORE PUSH1 0x40 SWAP1 KECCAK256 SLOAD DUP2 JUMP JUMPDEST PUSH2 0x2FC PUSH2 0x495 CALLDATASIZE PUSH1 0x4 PUSH2 0x2923 JUMP JUMPDEST PUSH1 0x1 PUSH1 0x1 PUSH1 0xA0 SHL SUB AND PUSH1 0x0 SWAP1 DUP2 MSTORE PUSH1 0x8 PUSH1 0x20 MSTORE PUSH1 0x40 SWAP1 KECCAK256 SLOAD SWAP1 JUMP JUMPDEST PUSH2 0x2A3 PUSH2 0x4BE CALLDATASIZE PUSH1 0x4 PUSH2 0x2B6F JUMP JUMPDEST PUSH2 0x18B0 JUMP JUMPDEST PUSH2 0x2A3 PUSH2 0x4D1 CALLDATASIZE PUSH1 0x4 PUSH2 0x2B6F JUMP JUMPDEST PUSH2 0x1ACC JUMP JUMPDEST PUSH1 0x15 SLOAD PUSH2 0x2FC JUMP JUMPDEST PUSH2 0x27B PUSH2 0x4EC CALLDATASIZE PUSH1 0x4 PUSH2 0x2923 JUMP JUMPDEST PUSH2 0x1BDA JUMP JUMPDEST PUSH2 0x2A3 PUSH2 0x4FF CALLDATASIZE PUSH1 0x4 PUSH2 0x2923 JUMP JUMPDEST PUSH2 0x1DE4 JUMP JUMPDEST PUSH2 0x2A3 PUSH2 0x512 CALLDATASIZE PUSH1 0x4 PUSH2 0x2BFC JUMP JUMPDEST PUSH2 0x1ED1 JUMP JUMPDEST PUSH1 0x16 SLOAD PUSH1 0x1 PUSH1 0x1 PUSH1 0xA0 SHL SUB AND PUSH2 0x31D JUMP JUMPDEST PUSH2 0x2A3 PUSH2 0x536 CALLDATASIZE PUSH1 0x4 PUSH2 0x2969 JUMP JUMPDEST PUSH2 0x2053 JUMP JUMPDEST PUSH2 0x27B PUSH2 0x549 CALLDATASIZE PUSH1 0x4 PUSH2 0x2923 JUMP JUMPDEST PUSH1 0x6 PUSH1 0x20 MSTORE PUSH1 0x0 SWAP1 DUP2 MSTORE PUSH1 0x40 SWAP1 KECCAK256 SLOAD PUSH1 0xFF AND DUP2 JUMP JUMPDEST PUSH2 0x2A3 PUSH2 0x56C CALLDATASIZE PUSH1 0x4 PUSH2 0x2969 JUMP JUMPDEST PUSH2 0x2138 JUMP JUMPDEST PUSH2 0x2FC PUSH1 0x13 SLOAD DUP2 JUMP JUMPDEST PUSH2 0x2FC PUSH2 0x588 CALLDATASIZE PUSH1 0x4 PUSH2 0x2923 JUMP JUMPDEST PUSH1 0xB PUSH1 0x20 MSTORE PUSH1 0x0 SWAP1 DUP2 MSTORE PUSH1 0x40 SWAP1 KECCAK256 SLOAD DUP2 JUMP JUMPDEST PUSH2 0x5AD PUSH2 0x5A8 CALLDATASIZE PUSH1 0x4 PUSH2 0x2923 JUMP JUMPDEST PUSH2 0x222A JUMP JUMPDEST PUSH1 0x40 MLOAD PUSH2 0x287 SWAP3 SWAP2 SWAP1 PUSH2 0x2CA7 JUMP JUMPDEST PUSH2 0x2A3 PUSH2 0x5C9 CALLDATASIZE PUSH1 0x4 PUSH2 0x2BFC JUMP JUMPDEST PUSH2 0x22CE JUMP JUMPDEST PUSH2 0x31D PUSH2 0x5DC CALLDATASIZE PUSH1 0x4 PUSH2 0x2CC9 JUMP JUMPDEST PUSH1 0xC PUSH1 0x20 MSTORE PUSH1 0x0 SWAP1 DUP2 MSTORE PUSH1 0x40 SWAP1 KECCAK256 SLOAD PUSH1 0x1 PUSH1 0x1 PUSH1 0xA0 SHL SUB AND DUP2 JUMP JUMPDEST PUSH2 0x2A3 PUSH2 0x605 CALLDATASIZE PUSH1 0x4 PUSH2 0x2BD2 JUMP JUMPDEST PUSH2 0x2442 JUMP JUMPDEST PUSH2 0x2FC PUSH2 0x618 CALLDATASIZE PUSH1 0x4 PUSH2 0x2923 JUMP JUMPDEST PUSH1 0x3 PUSH1 0x20 MSTORE PUSH1 0x0 SWAP1 DUP2 MSTORE PUSH1 0x40 SWAP1 KECCAK256 SLOAD DUP2 JUMP JUMPDEST PUSH1 0x0 DUP2 PUSH1 0x40 MLOAD PUSH1 0x20 ADD PUSH2 0x63D SWAP2 SWAP1 PUSH2 0x2CE2 JUMP JUMPDEST PUSH1 0x40 DUP1 MLOAD PUSH1 0x1F NOT DUP2 DUP5 SUB ADD DUP2 MSTORE SWAP1 DUP3 SWAP1 MSTORE PUSH1 0x0 DUP1 SLOAD PUSH4 0x333F6111 PUSH1 0xE0 SHL DUP5 MSTORE SWAP2 SWAP4 POP SWAP2 PUSH1 0x1 PUSH1 0x1 PUSH1 0xA0 SHL SUB SWAP1 SWAP2 AND SWAP1 PUSH4 0x333F6111 SWAP1 PUSH2 0x686 SWAP1 DUP10 SWAP1 DUP10 SWAP1 DUP10 SWAP1 DUP9 SWAP1 PUSH1 0x4 ADD PUSH2 0x2D28 JUMP JUMPDEST PUSH1 0x20 PUSH1 0x40 MLOAD DUP1 DUP4 SUB DUP2 PUSH1 0x0 DUP8 GAS CALL ISZERO DUP1 ISZERO PUSH2 0x6A5 JUMPI RETURNDATASIZE PUSH1 0x0 DUP1 RETURNDATACOPY RETURNDATASIZE PUSH1 0x0 REVERT JUMPDEST POP POP POP POP PUSH1 0x40 MLOAD RETURNDATASIZE PUSH1 0x1F NOT PUSH1 0x1F DUP3 ADD AND DUP3 ADD DUP1 PUSH1 0x40 MSTORE POP DUP2 ADD SWAP1 PUSH2 0x6C9 SWAP2 SWAP1 PUSH2 0x2E09 JUMP JUMPDEST SWAP1 POP DUP1 PUSH2 0x6F1 JUMPI PUSH1 0x40 MLOAD PUSH3 0x461BCD PUSH1 0xE5 SHL DUP2 MSTORE PUSH1 0x4 ADD PUSH2 0x6E8 SWAP1 PUSH2 0x2E2B JUMP JUMPDEST PUSH1 0x40 MLOAD DUP1 SWAP2 SUB SWAP1 REVERT JUMPDEST POP POP PUSH1 0x10 DUP1 SLOAD PUSH1 0x1 PUSH1 0x1 PUSH1 0xA0 SHL SUB NOT AND PUSH1 0x1 PUSH1 0x1 PUSH1 0xA0 SHL SUB SWAP3 SWAP1 SWAP3 AND SWAP2 SWAP1 SWAP2 OR SWAP1 SSTORE PUSH1 0x12 SSTORE POP POP JUMP JUMPDEST CALLER PUSH1 0x0 DUP2 DUP2 MSTORE PUSH1 0x6 PUSH1 0x20 MSTORE PUSH1 0x40 SWAP1 KECCAK256 SLOAD PUSH1 0xFF AND PUSH2 0x779 JUMPI PUSH1 0x40 MLOAD PUSH3 0x461BCD PUSH1 0xE5 SHL DUP2 MSTORE PUSH1 0x20 PUSH1 0x4 DUP3 ADD MSTORE PUSH1 0x17 PUSH1 0x24 DUP3 ADD MSTORE PUSH32 0x55736572206973206E6F742077686974656C6973746564000000000000000000 PUSH1 0x44 DUP3 ADD MSTORE PUSH1 0x64 ADD PUSH2 0x6E8 JUMP JUMPDEST PUSH1 0x1 PUSH1 0x1 PUSH1 0xA0 SHL SUB DUP2 AND PUSH1 0x0 SWAP1 DUP2 MSTORE PUSH1 0x9 PUSH1 0x20 SWAP1 DUP2 MSTORE PUSH1 0x40 DUP1 DUP4 KECCAK256 SLOAD PUSH1 0xA SWAP1 SWAP3 MSTORE SWAP1 SWAP2 KECCAK256 SLOAD DUP1 DUP3 LT ISZERO PUSH2 0x7E5 JUMPI PUSH1 0x40 MLOAD PUSH3 0x461BCD PUSH1 0xE5 SHL DUP2 MSTORE PUSH1 0x20 PUSH1 0x4 DUP3 ADD MSTORE PUSH1 0x14 PUSH1 0x24 DUP3 ADD MSTORE PUSH20 0x496E76616C696420636C61696D2076616C756573 PUSH1 0x60 SHL PUSH1 0x44 DUP3 ADD MSTORE PUSH1 0x64 ADD PUSH2 0x6E8 JUMP JUMPDEST PUSH1 0x1 PUSH1 0x1 PUSH1 0xA0 SHL SUB DUP4 AND PUSH1 0x0 DUP2 DUP2 MSTORE PUSH1 0xA PUSH1 0x20 SWAP1 DUP2 MSTORE PUSH1 0x40 DUP1 DUP4 KECCAK256 DUP7 SWAP1 SSTORE PUSH1 0x8 DUP1 DUP4 MSTORE DUP2 DUP5 KECCAK256 SLOAD PUSH1 0x9 DUP5 MSTORE SWAP4 DUP3 SWAP1 KECCAK256 DUP5 SWAP1 SSTORE DUP3 MSTORE DUP1 MLOAD DUP7 DUP2 MSTORE SWAP2 DUP3 ADD SWAP3 SWAP1 SWAP3 MSTORE PUSH32 0xDC5EC23A202853E756BBB0C4F4CB94DEEA4936FCC71756DA3DDEBF99AABF6C9E SWAP2 ADD JUMPDEST PUSH1 0x40 MLOAD DUP1 SWAP2 SUB SWAP1 LOG2 POP POP POP JUMP JUMPDEST CALLER PUSH1 0x0 SWAP1 DUP2 MSTORE PUSH1 0x5 PUSH1 0x20 MSTORE PUSH1 0x40 SWAP1 KECCAK256 SLOAD PUSH1 0xFF AND PUSH2 0x885 JUMPI PUSH1 0x40 MLOAD PUSH3 0x461BCD PUSH1 0xE5 SHL DUP2 MSTORE PUSH1 0x4 ADD PUSH2 0x6E8 SWAP1 PUSH2 0x2E60 JUMP JUMPDEST PUSH1 0x0 DUP2 PUSH1 0x40 MLOAD PUSH1 0x20 ADD PUSH2 0x898 SWAP2 SWAP1 PUSH2 0x2EA1 JUMP JUMPDEST PUSH1 0x40 DUP1 MLOAD PUSH1 0x1F NOT DUP2 DUP5 SUB ADD DUP2 MSTORE SWAP2 DUP2 MSTORE DUP2 MLOAD PUSH1 0x20 SWAP3 DUP4 ADD KECCAK256 PUSH1 0x1 PUSH1 0x1 PUSH1 0xA0 SHL SUB DUP7 AND PUSH1 0x0 SWAP1 DUP2 MSTORE PUSH1 0x6 SWAP1 SWAP4 MSTORE SWAP2 KECCAK256 SLOAD SWAP1 SWAP2 POP PUSH1 0xFF AND ISZERO PUSH2 0x91A JUMPI PUSH1 0x40 MLOAD PUSH3 0x461BCD PUSH1 0xE5 SHL DUP2 MSTORE PUSH1 0x20 PUSH1 0x4 DUP3 ADD MSTORE PUSH1 0x1B PUSH1 0x24 DUP3 ADD MSTORE PUSH32 0x4164647265737320616C72656164792077686974656C69737465640000000000 PUSH1 0x44 DUP3 ADD MSTORE PUSH1 0x64 ADD PUSH2 0x6E8 JUMP JUMPDEST PUSH1 0x0 DUP2 DUP2 MSTORE PUSH1 0xC PUSH1 0x20 MSTORE PUSH1 0x40 SWAP1 KECCAK256 SLOAD PUSH1 0x1 PUSH1 0x1 PUSH1 0xA0 SHL SUB AND ISZERO DUP1 PUSH2 0x957 JUMPI POP PUSH1 0x0 DUP2 DUP2 MSTORE PUSH1 0xC PUSH1 0x20 MSTORE PUSH1 0x40 SWAP1 KECCAK256 SLOAD PUSH1 0x1 PUSH1 0x1 PUSH1 0xA0 SHL SUB DUP5 DUP2 AND SWAP2 AND EQ JUMPDEST PUSH2 0x9A3 JUMPI PUSH1 0x40 MLOAD PUSH3 0x461BCD PUSH1 0xE5 SHL DUP2 MSTORE PUSH1 0x20 PUSH1 0x4 DUP3 ADD MSTORE PUSH1 0x17 PUSH1 0x24 DUP3 ADD MSTORE PUSH32 0x686173686564494420616C726561647920696E20757365000000000000000000 PUSH1 0x44 DUP3 ADD MSTORE PUSH1 0x64 ADD PUSH2 0x6E8 JUMP JUMPDEST PUSH1 0x1 PUSH1 0x1 PUSH1 0xA0 SHL SUB DUP4 AND PUSH1 0x0 DUP2 DUP2 MSTORE PUSH1 0x3 PUSH1 0x20 SWAP1 DUP2 MSTORE PUSH1 0x40 DUP1 DUP4 KECCAK256 PUSH1 0x5 SWAP1 SSTORE PUSH1 0x6 DUP3 MSTORE DUP1 DUP4 KECCAK256 DUP1 SLOAD PUSH1 0xFF NOT AND PUSH1 0x1 OR SWAP1 SSTORE PUSH1 0xB DUP3 MSTORE DUP1 DUP4 KECCAK256 DUP6 SWAP1 SSTORE DUP5 DUP4 MSTORE PUSH1 0xC DUP3 MSTORE SWAP2 DUP3 SWAP1 KECCAK256 DUP1 SLOAD PUSH1 0x1 PUSH1 0x1 PUSH1 0xA0 SHL SUB NOT AND DUP5 OR SWAP1 SSTORE SWAP1 MLOAD DUP4 DUP2 MSTORE PUSH32 0xC27D38AD1BDB4164D72E05492B5CE6099B4169E9F20B41D3C7CF35C114A64D5B SWAP2 ADD PUSH2 0x849 JUMP JUMPDEST CALLER PUSH1 0x0 SWAP1 DUP2 MSTORE PUSH1 0x5 PUSH1 0x20 MSTORE PUSH1 0x40 SWAP1 KECCAK256 SLOAD PUSH1 0xFF AND PUSH2 0xA91 JUMPI PUSH1 0x40 MLOAD PUSH3 0x461BCD PUSH1 0xE5 SHL DUP2 MSTORE PUSH1 0x20 PUSH1 0x4 DUP3 ADD MSTORE PUSH1 0x23 PUSH1 0x24 DUP3 ADD MSTORE PUSH32 0x4E6F74207065726D697474656420746F20757064617465206C61737420706C61 PUSH1 0x44 DUP3 ADD MSTORE PUSH3 0x1E5959 PUSH1 0xEA SHL PUSH1 0x64 DUP3 ADD MSTORE PUSH1 0x84 ADD PUSH2 0x6E8 JUMP JUMPDEST PUSH1 0x40 DUP1 MLOAD DUP1 DUP3 ADD DUP3 MSTORE DUP3 DUP2 MSTORE TIMESTAMP PUSH1 0x20 DUP1 DUP4 ADD SWAP2 SWAP1 SWAP2 MSTORE PUSH1 0x1 PUSH1 0x1 PUSH1 0xA0 SHL SUB DUP6 AND PUSH1 0x0 SWAP1 DUP2 MSTORE PUSH1 0x4 SWAP1 SWAP2 MSTORE SWAP2 SWAP1 SWAP2 KECCAK256 DUP2 MLOAD DUP2 SWAP1 PUSH2 0xACD SWAP1 DUP3 PUSH2 0x2F48 JUMP JUMPDEST POP PUSH1 0x20 DUP3 ADD MLOAD DUP2 PUSH1 0x1 ADD SSTORE SWAP1 POP POP POP POP JUMP JUMPDEST CALLER PUSH1 0x0 SWAP1 DUP2 MSTORE PUSH1 0x5 PUSH1 0x20 MSTORE PUSH1 0x40 SWAP1 KECCAK256 SLOAD PUSH1 0xFF AND PUSH2 0xB0E JUMPI PUSH1 0x40 MLOAD PUSH3 0x461BCD PUSH1 0xE5 SHL DUP2 MSTORE PUSH1 0x4 ADD PUSH2 0x6E8 SWAP1 PUSH2 0x2E60 JUMP JUMPDEST PUSH1 0x1 PUSH1 0x1 PUSH1 0xA0 SHL SUB DUP2 AND PUSH2 0xB6F JUMPI PUSH1 0x40 MLOAD PUSH3 0x461BCD PUSH1 0xE5 SHL DUP2 MSTORE PUSH1 0x20 PUSH1 0x4 DUP3 ADD MSTORE PUSH1 0x22 PUSH1 0x24 DUP3 ADD MSTORE PUSH32 0x4E657720616464726573732063616E6E6F74206265207A65726F206164647265 PUSH1 0x44 DUP3 ADD MSTORE PUSH2 0x7373 PUSH1 0xF0 SHL PUSH1 0x64 DUP3 ADD MSTORE PUSH1 0x84 ADD PUSH2 0x6E8 JUMP JUMPDEST PUSH1 0x0 DUP3 PUSH1 0x40 MLOAD PUSH1 0x20 ADD PUSH2 0xB82 SWAP2 SWAP1 PUSH2 0x2EA1 JUMP JUMPDEST PUSH1 0x40 DUP1 MLOAD PUSH1 0x1F NOT DUP2 DUP5 SUB ADD DUP2 MSTORE SWAP2 DUP2 MSTORE DUP2 MLOAD PUSH1 0x20 SWAP3 DUP4 ADD KECCAK256 PUSH1 0x0 DUP2 DUP2 MSTORE PUSH1 0xC SWAP1 SWAP4 MSTORE SWAP2 KECCAK256 SLOAD SWAP1 SWAP2 POP PUSH1 0x1 PUSH1 0x1 PUSH1 0xA0 SHL SUB AND PUSH2 0xBFF JUMPI PUSH1 0x40 MLOAD PUSH3 0x461BCD PUSH1 0xE5 SHL DUP2 MSTORE PUSH1 0x20 PUSH1 0x4 DUP3 ADD MSTORE PUSH1 0x17 PUSH1 0x24 DUP3 ADD MSTORE PUSH32 0x6861736865644944206E6F742072656769737465726564000000000000000000 PUSH1 0x44 DUP3 ADD MSTORE PUSH1 0x64 ADD PUSH2 0x6E8 JUMP JUMPDEST PUSH1 0x0 DUP2 DUP2 MSTORE PUSH1 0xC PUSH1 0x20 MSTORE PUSH1 0x40 SWAP1 KECCAK256 SLOAD PUSH1 0x1 PUSH1 0x1 PUSH1 0xA0 SHL SUB AND CALLER EQ PUSH2 0xC65 JUMPI PUSH1 0x40 MLOAD PUSH3 0x461BCD PUSH1 0xE5 SHL DUP2 MSTORE PUSH1 0x20 PUSH1 0x4 DUP3 ADD MSTORE PUSH1 0x1F PUSH1 0x24 DUP3 ADD MSTORE PUSH32 0x4F6E6C792063757272656E7420616464726573732063616E2075706461746500 PUSH1 0x44 DUP3 ADD MSTORE PUSH1 0x64 ADD PUSH2 0x6E8 JUMP JUMPDEST PUSH1 0x0 DUP2 DUP2 MSTORE PUSH1 0xD PUSH1 0x20 MSTORE PUSH1 0x40 SWAP1 KECCAK256 SLOAD DUP1 ISZERO DUP1 PUSH2 0xC8D JUMPI POP PUSH3 0x15180 PUSH2 0xC8A DUP3 TIMESTAMP PUSH2 0x301E JUMP JUMPDEST LT ISZERO JUMPDEST PUSH2 0xCD9 JUMPI PUSH1 0x40 MLOAD PUSH3 0x461BCD PUSH1 0xE5 SHL DUP2 MSTORE PUSH1 0x20 PUSH1 0x4 DUP3 ADD MSTORE PUSH1 0x1D PUSH1 0x24 DUP3 ADD MSTORE PUSH32 0x5570646174652074696D656F7574206E6F742079657420706173736564000000 PUSH1 0x44 DUP3 ADD MSTORE PUSH1 0x64 ADD PUSH2 0x6E8 JUMP JUMPDEST PUSH1 0x1 PUSH1 0x1 PUSH1 0xA0 SHL SUB DUP4 AND PUSH1 0x0 SWAP1 DUP2 MSTORE PUSH1 0xB PUSH1 0x20 MSTORE PUSH1 0x40 SWAP1 KECCAK256 SLOAD ISZERO DUP1 PUSH2 0xD15 JUMPI POP PUSH1 0x1 PUSH1 0x1 PUSH1 0xA0 SHL SUB DUP4 AND PUSH1 0x0 SWAP1 DUP2 MSTORE PUSH1 0xB PUSH1 0x20 MSTORE PUSH1 0x40 SWAP1 KECCAK256 SLOAD DUP3 EQ JUMPDEST PUSH2 0xD87 JUMPI PUSH1 0x40 MLOAD PUSH3 0x461BCD PUSH1 0xE5 SHL DUP2 MSTORE PUSH1 0x20 PUSH1 0x4 DUP3 ADD MSTORE PUSH1 0x38 PUSH1 0x24 DUP3 ADD MSTORE PUSH32 0x4E6577206164647265737320616C7265616479206173736F6369617465642077 PUSH1 0x44 DUP3 ADD MSTORE PUSH32 0x697468206120646966666572656E742068617368656449440000000000000000 PUSH1 0x64 DUP3 ADD MSTORE PUSH1 0x84 ADD PUSH2 0x6E8 JUMP JUMPDEST PUSH1 0x0 DUP3 DUP2 MSTORE PUSH1 0xC PUSH1 0x20 SWAP1 DUP2 MSTORE PUSH1 0x40 DUP1 DUP4 KECCAK256 DUP1 SLOAD PUSH1 0x1 PUSH1 0x1 PUSH1 0xA0 SHL SUB SWAP1 DUP2 AND DUP1 DUP7 MSTORE PUSH1 0x6 DUP1 DUP7 MSTORE DUP5 DUP8 KECCAK256 DUP1 SLOAD PUSH1 0xFF NOT SWAP1 DUP2 AND SWAP1 SWAP2 SSTORE PUSH1 0xB DUP1 DUP9 MSTORE DUP7 DUP10 KECCAK256 DUP10 SWAP1 SSTORE SWAP4 DUP12 AND DUP1 DUP10 MSTORE SWAP2 DUP8 MSTORE DUP6 DUP9 KECCAK256 DUP1 SLOAD SWAP1 SWAP2 AND PUSH1 0x1 OR SWAP1 SSTORE SWAP2 DUP6 MSTORE DUP4 DUP7 KECCAK256 DUP9 SWAP1 SSTORE DUP8 DUP7 MSTORE DUP3 SLOAD PUSH1 0x1 PUSH1 0x1 PUSH1 0xA0 SHL SUB NOT AND SWAP1 SWAP2 OR SWAP1 SWAP2 SSTORE PUSH1 0xD SWAP1 SWAP3 MSTORE DUP1 DUP4 KECCAK256 TIMESTAMP SWAP1 SSTORE MLOAD SWAP1 SWAP2 DUP3 SWAP2 PUSH32 0xCDD2E9B91A56913D370075169CEFA1602BA36BE5301664F752192BB1709DF757 SWAP2 SWAP1 LOG2 DUP4 PUSH1 0x1 PUSH1 0x1 PUSH1 0xA0 SHL SUB AND PUSH32 0xC27D38AD1BDB4164D72E05492B5CE6099B4169E9F20B41D3C7CF35C114A64D5B DUP5 PUSH1 0x40 MLOAD PUSH2 0xE69 SWAP2 DUP2 MSTORE PUSH1 0x20 ADD SWAP1 JUMP JUMPDEST PUSH1 0x40 MLOAD DUP1 SWAP2 SUB SWAP1 LOG2 POP POP POP POP POP JUMP JUMPDEST PUSH1 0x0 PUSH1 0x14 SLOAD DUP3 DUP1 MLOAD SWAP1 PUSH1 0x20 ADD KECCAK256 EQ PUSH2 0xEEC JUMPI PUSH1 0x40 MLOAD PUSH3 0x461BCD PUSH1 0xE5 SHL DUP2 MSTORE PUSH1 0x20 PUSH1 0x4 DUP3 ADD MSTORE PUSH1 0x31 PUSH1 0x24 DUP3 ADD MSTORE PUSH32 0x42797465636F646520646F6573206E6F74206D617463682070726576696F7573 PUSH1 0x44 DUP3 ADD MSTORE PUSH17 0x363C90383937BB34B232B2103430B9B417 PUSH1 0x79 SHL PUSH1 0x64 DUP3 ADD MSTORE PUSH1 0x84 ADD PUSH2 0x6E8 JUMP JUMPDEST PUSH1 0x0 DUP3 MLOAD PUSH1 0x20 DUP5 ADD PUSH1 0x0 CREATE SWAP1 POP PUSH1 0x1 PUSH1 0x1 PUSH1 0xA0 SHL SUB DUP2 AND PUSH2 0xF4F JUMPI PUSH1 0x40 MLOAD PUSH3 0x461BCD PUSH1 0xE5 SHL DUP2 MSTORE PUSH1 0x20 PUSH1 0x4 DUP3 ADD MSTORE PUSH1 0x18 PUSH1 0x24 DUP3 ADD MSTORE PUSH32 0x436F6E7472616374206372656174696F6E206661696C65640000000000000000 PUSH1 0x44 DUP3 ADD MSTORE PUSH1 0x64 ADD PUSH2 0x6E8 JUMP JUMPDEST PUSH1 0x40 MLOAD PUSH1 0x1 PUSH1 0x1 PUSH1 0xA0 SHL SUB DUP3 AND SWAP1 PUSH32 0xCF78CF0D6F3D8371E1075C69C492AB4EC5D8CF23A1A239B6A51A1D00BE7CA312 SWAP1 PUSH1 0x0 SWAP1 LOG2 SWAP3 SWAP2 POP POP JUMP JUMPDEST PUSH1 0x1 PUSH1 0x1 PUSH1 0xA0 SHL SUB DUP2 AND PUSH1 0x0 SWAP1 DUP2 MSTORE PUSH1 0x6 PUSH1 0x20 MSTORE PUSH1 0x40 DUP2 KECCAK256 SLOAD PUSH1 0xFF AND PUSH2 0xFB1 JUMPI POP PUSH1 0x0 SWAP2 SWAP1 POP JUMP JUMPDEST PUSH1 0x1 PUSH1 0x1 PUSH1 0xA0 SHL SUB DUP3 AND PUSH1 0x0 SWAP1 DUP2 MSTORE PUSH1 0x3 PUSH1 0x20 SWAP1 DUP2 MSTORE PUSH1 0x40 DUP1 DUP4 KECCAK256 SLOAD PUSH1 0x1 DUP1 DUP5 MSTORE DUP3 DUP6 KECCAK256 PUSH1 0x2 SWAP1 SWAP5 MSTORE SWAP2 SWAP1 SWAP4 KECCAK256 SWAP1 DUP3 ADD SLOAD DUP4 GT ISZERO PUSH2 0x1001 JUMPI PUSH1 0x1 DUP3 ADD SLOAD PUSH2 0xFF8 SWAP1 DUP5 PUSH2 0x301E JUMP JUMPDEST SWAP6 SWAP5 POP POP POP POP POP JUMP JUMPDEST DUP2 SLOAD PUSH2 0xE10 DUP3 DUP3 PUSH2 0x1F4 DUP2 LT PUSH2 0x1019 JUMPI PUSH2 0x1019 PUSH2 0x3031 JUMP JUMPDEST ADD SLOAD PUSH2 0x1025 SWAP1 TIMESTAMP PUSH2 0x301E JUMP JUMPDEST GT ISZERO PUSH2 0x1035 JUMPI POP SWAP2 SWAP5 SWAP4 POP POP POP POP JUMP JUMPDEST DUP3 SLOAD PUSH1 0x0 SWAP1 DUP6 SWAP1 PUSH2 0x1047 SWAP1 PUSH1 0x1 PUSH2 0x3047 JUMP JUMPDEST PUSH2 0x1051 SWAP2 SWAP1 PUSH2 0x3070 JUMP JUMPDEST SWAP1 POP PUSH2 0xE10 DUP4 DUP3 PUSH2 0x1F4 DUP2 LT PUSH2 0x1069 JUMPI PUSH2 0x1069 PUSH2 0x3031 JUMP JUMPDEST ADD SLOAD PUSH2 0x1075 SWAP1 TIMESTAMP PUSH2 0x301E JUMP JUMPDEST GT ISZERO PUSH2 0x1091 JUMPI PUSH2 0x1086 PUSH1 0x1 DUP7 PUSH2 0x301E JUMP JUMPDEST SWAP8 SWAP7 POP POP POP POP POP POP POP JUMP JUMPDEST POP PUSH1 0x0 SWAP7 SWAP6 POP POP POP POP POP POP JUMP JUMPDEST PUSH1 0x0 DUP2 PUSH1 0x40 MLOAD PUSH1 0x20 ADD PUSH2 0x10B3 SWAP2 DUP2 MSTORE PUSH1 0x20 ADD SWAP1 JUMP JUMPDEST PUSH1 0x40 DUP1 MLOAD PUSH1 0x1F NOT DUP2 DUP5 SUB ADD DUP2 MSTORE SWAP1 DUP3 SWAP1 MSTORE PUSH1 0x0 DUP1 SLOAD PUSH4 0x333F6111 PUSH1 0xE0 SHL DUP5 MSTORE SWAP2 SWAP4 POP SWAP2 PUSH1 0x1 PUSH1 0x1 PUSH1 0xA0 SHL SUB SWAP1 SWAP2 AND SWAP1 PUSH4 0x333F6111 SWAP1 PUSH2 0x10FC SWAP1 DUP10 SWAP1 DUP10 SWAP1 DUP10 SWAP1 DUP9 SWAP1 PUSH1 0x4 ADD PUSH2 0x2D28 JUMP JUMPDEST PUSH1 0x20 PUSH1 0x40 MLOAD DUP1 DUP4 SUB DUP2 PUSH1 0x0 DUP8 GAS CALL ISZERO DUP1 ISZERO PUSH2 0x111B JUMPI RETURNDATASIZE PUSH1 0x0 DUP1 RETURNDATACOPY RETURNDATASIZE PUSH1 0x0 REVERT JUMPDEST POP POP POP POP PUSH1 0x40 MLOAD RETURNDATASIZE PUSH1 0x1F NOT PUSH1 0x1F DUP3 ADD AND DUP3 ADD DUP1 PUSH1 0x40 MSTORE POP DUP2 ADD SWAP1 PUSH2 0x113F SWAP2 SWAP1 PUSH2 0x2E09 JUMP JUMPDEST SWAP1 POP DUP1 PUSH2 0x115E JUMPI PUSH1 0x40 MLOAD PUSH3 0x461BCD PUSH1 0xE5 SHL DUP2 MSTORE PUSH1 0x4 ADD PUSH2 0x6E8 SWAP1 PUSH2 0x2E2B JUMP JUMPDEST POP POP PUSH1 0x17 SSTORE PUSH1 0x12 SSTORE POP POP JUMP JUMPDEST PUSH1 0x0 DUP1 SLOAD PUSH1 0x40 DUP1 MLOAD PUSH1 0x20 DUP1 DUP3 ADD DUP7 SWAP1 MSTORE DUP3 MLOAD DUP1 DUP4 SUB SWAP1 SWAP2 ADD DUP2 MSTORE DUP2 DUP4 ADD SWAP3 DUP4 SWAP1 MSTORE PUSH4 0x333F6111 PUSH1 0xE0 SHL SWAP1 SWAP3 MSTORE PUSH1 0x1 PUSH1 0x1 PUSH1 0xA0 SHL SUB SWAP1 SWAP3 AND SWAP2 PUSH4 0x333F6111 SWAP2 PUSH2 0x11BB SWAP2 DUP10 SWAP2 DUP10 SWAP2 DUP10 SWAP2 SWAP1 PUSH1 0x44 ADD PUSH2 0x2D28 JUMP JUMPDEST PUSH1 0x20 PUSH1 0x40 MLOAD DUP1 DUP4 SUB DUP2 PUSH1 0x0 DUP8 GAS CALL ISZERO DUP1 ISZERO PUSH2 0x11DA JUMPI RETURNDATASIZE PUSH1 0x0 DUP1 RETURNDATACOPY RETURNDATASIZE PUSH1 0x0 REVERT JUMPDEST POP POP POP POP PUSH1 0x40 MLOAD RETURNDATASIZE PUSH1 0x1F NOT PUSH1 0x1F DUP3 ADD AND DUP3 ADD DUP1 PUSH1 0x40 MSTORE POP DUP2 ADD SWAP1 PUSH2 0x11FE SWAP2 SWAP1 PUSH2 0x2E09 JUMP JUMPDEST SWAP1 POP DUP1 PUSH2 0x121D JUMPI PUSH1 0x40 MLOAD PUSH3 0x461BCD PUSH1 0xE5 SHL DUP2 MSTORE PUSH1 0x4 ADD PUSH2 0x6E8 SWAP1 PUSH2 0x2E2B JUMP JUMPDEST POP PUSH1 0xF SSTORE PUSH1 0x12 SSTORE POP POP JUMP JUMPDEST PUSH1 0x0 DUP5 PUSH1 0x40 MLOAD PUSH1 0x20 ADD PUSH2 0x123B SWAP2 SWAP1 PUSH2 0x3084 JUMP JUMPDEST PUSH1 0x40 MLOAD PUSH1 0x20 DUP2 DUP4 SUB SUB DUP2 MSTORE SWAP1 PUSH1 0x40 MSTORE DUP1 MLOAD SWAP1 PUSH1 0x20 ADD KECCAK256 SWAP1 POP PUSH1 0x12 SLOAD DUP2 SUB PUSH2 0x1274 JUMPI PUSH1 0x40 MLOAD PUSH3 0x461BCD PUSH1 0xE5 SHL DUP2 MSTORE PUSH1 0x4 ADD PUSH2 0x6E8 SWAP1 PUSH2 0x30BB JUMP JUMPDEST PUSH1 0x0 DUP3 PUSH1 0x40 MLOAD PUSH1 0x20 ADD PUSH2 0x1287 SWAP2 SWAP1 PUSH2 0x2CE2 JUMP JUMPDEST PUSH1 0x40 DUP1 MLOAD PUSH1 0x1F NOT DUP2 DUP5 SUB ADD DUP2 MSTORE SWAP1 DUP3 SWAP1 MSTORE PUSH1 0x0 DUP1 SLOAD PUSH4 0x333F6111 PUSH1 0xE0 SHL DUP5 MSTORE SWAP2 SWAP4 POP SWAP2 PUSH1 0x1 PUSH1 0x1 PUSH1 0xA0 SHL SUB SWAP1 SWAP2 AND SWAP1 PUSH4 0x333F6111 SWAP1 PUSH2 0x12D0 SWAP1 DUP11 SWAP1 DUP11 SWAP1 DUP11 SWAP1 DUP9 SWAP1 PUSH1 0x4 ADD PUSH2 0x2D28 JUMP JUMPDEST PUSH1 0x20 PUSH1 0x40 MLOAD DUP1 DUP4 SUB DUP2 PUSH1 0x0 DUP8 GAS CALL ISZERO DUP1 ISZERO PUSH2 0x12EF JUMPI RETURNDATASIZE PUSH1 0x0 DUP1 RETURNDATACOPY RETURNDATASIZE PUSH1 0x0 REVERT JUMPDEST POP POP POP POP PUSH1 0x40 MLOAD RETURNDATASIZE PUSH1 0x1F NOT PUSH1 0x1F DUP3 ADD AND DUP3 ADD DUP1 PUSH1 0x40 MSTORE POP DUP2 ADD SWAP1 PUSH2 0x1313 SWAP2 SWAP1 PUSH2 0x2E09 JUMP JUMPDEST SWAP1 POP DUP1 PUSH2 0x1332 JUMPI PUSH1 0x40 MLOAD PUSH3 0x461BCD PUSH1 0xE5 SHL DUP2 MSTORE PUSH1 0x4 ADD PUSH2 0x6E8 SWAP1 PUSH2 0x2E2B JUMP JUMPDEST PUSH1 0x18 SLOAD DUP3 MLOAD PUSH1 0x20 DUP5 ADD KECCAK256 EQ PUSH2 0x1389 JUMPI PUSH1 0x40 MLOAD PUSH3 0x461BCD PUSH1 0xE5 SHL DUP2 MSTORE PUSH1 0x20 PUSH1 0x4 DUP3 ADD MSTORE PUSH1 0x1D PUSH1 0x24 DUP3 ADD MSTORE PUSH32 0x4D69736D61746368656420636F6D6D697373696F6E2061646472657373000000 PUSH1 0x44 DUP3 ADD MSTORE PUSH1 0x64 ADD PUSH2 0x6E8 JUMP JUMPDEST POP POP PUSH1 0x16 DUP1 SLOAD PUSH1 0x1 PUSH1 0x1 PUSH1 0xA0 SHL SUB NOT AND PUSH1 0x1 PUSH1 0x1 PUSH1 0xA0 SHL SUB SWAP4 SWAP1 SWAP4 AND SWAP3 SWAP1 SWAP3 OR SWAP1 SWAP2 SSTORE POP POP PUSH1 0x0 PUSH1 0x12 SSTORE POP POP JUMP JUMPDEST PUSH1 0x1 PUSH1 0x1 PUSH1 0xA0 SHL SUB DUP2 AND PUSH1 0x0 SWAP1 DUP2 MSTORE PUSH1 0x4 PUSH1 0x20 MSTORE PUSH1 0x40 DUP1 DUP3 KECCAK256 DUP2 MLOAD DUP1 DUP4 ADD SWAP1 SWAP3 MSTORE DUP1 SLOAD DUP4 SWAP3 SWAP2 SWAP1 DUP3 SWAP1 DUP3 SWAP1 PUSH2 0x13EB SWAP1 PUSH2 0x2EBD JUMP JUMPDEST DUP1 PUSH1 0x1F ADD PUSH1 0x20 DUP1 SWAP2 DIV MUL PUSH1 0x20 ADD PUSH1 0x40 MLOAD SWAP1 DUP2 ADD PUSH1 0x40 MSTORE DUP1 SWAP3 SWAP2 SWAP1 DUP2 DUP2 MSTORE PUSH1 0x20 ADD DUP3 DUP1 SLOAD PUSH2 0x1417 SWAP1 PUSH2 0x2EBD JUMP JUMPDEST DUP1 ISZERO PUSH2 0x1464 JUMPI DUP1 PUSH1 0x1F LT PUSH2 0x1439 JUMPI PUSH2 0x100 DUP1 DUP4 SLOAD DIV MUL DUP4 MSTORE SWAP2 PUSH1 0x20 ADD SWAP2 PUSH2 0x1464 JUMP JUMPDEST DUP3 ADD SWAP2 SWAP1 PUSH1 0x0 MSTORE PUSH1 0x20 PUSH1 0x0 KECCAK256 SWAP1 JUMPDEST DUP2 SLOAD DUP2 MSTORE SWAP1 PUSH1 0x1 ADD SWAP1 PUSH1 0x20 ADD DUP1 DUP4 GT PUSH2 0x1447 JUMPI DUP3 SWAP1 SUB PUSH1 0x1F AND DUP3 ADD SWAP2 JUMPDEST POP POP POP POP POP DUP2 MSTORE PUSH1 0x20 ADD PUSH1 0x1 DUP3 ADD SLOAD DUP2 MSTORE POP POP SWAP1 POP PUSH1 0x0 PUSH2 0x1E0 DUP3 PUSH1 0x20 ADD MLOAD TIMESTAMP PUSH2 0x148E SWAP2 SWAP1 PUSH2 0x301E JUMP JUMPDEST LT SWAP1 POP DUP1 DUP1 ISZERO PUSH2 0x14E9 JUMPI POP DUP5 PUSH1 0x40 MLOAD PUSH1 0x20 ADD PUSH2 0x14AA SWAP2 SWAP1 PUSH2 0x2EA1 JUMP JUMPDEST PUSH1 0x40 DUP1 MLOAD PUSH1 0x1F NOT DUP2 DUP5 SUB ADD DUP2 MSTORE SWAP1 DUP3 SWAP1 MSTORE DUP1 MLOAD PUSH1 0x20 SWAP2 DUP3 ADD KECCAK256 DUP5 MLOAD SWAP1 SWAP3 PUSH2 0x14D1 SWAP3 ADD PUSH2 0x2EA1 JUMP JUMPDEST PUSH1 0x40 MLOAD PUSH1 0x20 DUP2 DUP4 SUB SUB DUP2 MSTORE SWAP1 PUSH1 0x40 MSTORE DUP1 MLOAD SWAP1 PUSH1 0x20 ADD KECCAK256 EQ JUMPDEST ISZERO PUSH2 0x14F9 JUMPI PUSH1 0x2 SWAP3 POP POP POP PUSH2 0x1569 JUMP JUMPDEST DUP1 DUP1 ISZERO PUSH2 0x1552 JUMPI POP DUP5 PUSH1 0x40 MLOAD PUSH1 0x20 ADD PUSH2 0x1512 SWAP2 SWAP1 PUSH2 0x2EA1 JUMP JUMPDEST PUSH1 0x40 DUP1 MLOAD PUSH1 0x1F NOT DUP2 DUP5 SUB ADD DUP2 MSTORE SWAP1 DUP3 SWAP1 MSTORE DUP1 MLOAD PUSH1 0x20 SWAP2 DUP3 ADD KECCAK256 DUP5 MLOAD SWAP1 SWAP3 PUSH2 0x1539 SWAP3 ADD PUSH2 0x2EA1 JUMP JUMPDEST PUSH1 0x40 MLOAD PUSH1 0x20 DUP2 DUP4 SUB SUB DUP2 MSTORE SWAP1 PUSH1 0x40 MSTORE DUP1 MLOAD SWAP1 PUSH1 0x20 ADD KECCAK256 EQ ISZERO JUMPDEST ISZERO PUSH2 0x1562 JUMPI PUSH1 0x1 SWAP3 POP POP POP PUSH2 0x1569 JUMP JUMPDEST PUSH1 0x0 SWAP3 POP POP POP JUMPDEST SWAP3 SWAP2 POP POP JUMP JUMPDEST PUSH1 0x0 DUP1 SLOAD PUSH1 0x40 DUP1 MLOAD PUSH1 0x20 DUP1 DUP3 ADD DUP7 SWAP1 MSTORE DUP3 MLOAD DUP1 DUP4 SUB SWAP1 SWAP2 ADD DUP2 MSTORE DUP2 DUP4 ADD SWAP3 DUP4 SWAP1 MSTORE PUSH4 0x333F6111 PUSH1 0xE0 SHL SWAP1 SWAP3 MSTORE PUSH1 0x1 PUSH1 0x1 PUSH1 0xA0 SHL SUB SWAP1 SWAP3 AND SWAP2 PUSH4 0x333F6111 SWAP2 PUSH2 0x15C0 SWAP2 DUP10 SWAP2 DUP10 SWAP2 DUP10 SWAP2 SWAP1 PUSH1 0x44 ADD PUSH2 0x2D28 JUMP JUMPDEST PUSH1 0x20 PUSH1 0x40 MLOAD DUP1 DUP4 SUB DUP2 PUSH1 0x0 DUP8 GAS CALL ISZERO DUP1 ISZERO PUSH2 0x15DF JUMPI RETURNDATASIZE PUSH1 0x0 DUP1 RETURNDATACOPY RETURNDATASIZE PUSH1 0x0 REVERT JUMPDEST POP POP POP POP PUSH1 0x40 MLOAD RETURNDATASIZE PUSH1 0x1F NOT PUSH1 0x1F DUP3 ADD AND DUP3 ADD DUP1 PUSH1 0x40 MSTORE POP DUP2 ADD SWAP1 PUSH2 0x1603 SWAP2 SWAP1 PUSH2 0x2E09 JUMP JUMPDEST SWAP1 POP DUP1 PUSH2 0x1622 JUMPI PUSH1 0x40 MLOAD PUSH3 0x461BCD PUSH1 0xE5 SHL DUP2 MSTORE PUSH1 0x4 ADD PUSH2 0x6E8 SWAP1 PUSH2 0x2E2B JUMP JUMPDEST POP PUSH1 0x14 SSTORE PUSH1 0x12 SSTORE POP POP JUMP JUMPDEST CALLER PUSH1 0x0 SWAP1 DUP2 MSTORE PUSH1 0x5 PUSH1 0x20 MSTORE PUSH1 0x40 SWAP1 KECCAK256 SLOAD PUSH1 0xFF AND PUSH2 0x16A5 JUMPI PUSH1 0x40 MLOAD PUSH3 0x461BCD PUSH1 0xE5 SHL DUP2 MSTORE PUSH1 0x20 PUSH1 0x4 DUP3 ADD MSTORE PUSH1 0x30 PUSH1 0x24 DUP3 ADD MSTORE PUSH32 0x4E6F74207065726D697474656420746F206D6F6469667920686F75726C792074 PUSH1 0x44 DUP3 ADD MSTORE PUSH16 0x72616E73616374696F6E2071756F7461 PUSH1 0x80 SHL PUSH1 0x64 DUP3 ADD MSTORE PUSH1 0x84 ADD PUSH2 0x6E8 JUMP JUMPDEST PUSH1 0x1 PUSH1 0x1 PUSH1 0xA0 SHL SUB DUP3 AND PUSH1 0x0 SWAP1 DUP2 MSTORE PUSH1 0x6 PUSH1 0x20 MSTORE PUSH1 0x40 SWAP1 KECCAK256 SLOAD PUSH1 0xFF AND PUSH2 0x170D JUMPI PUSH1 0x40 MLOAD PUSH3 0x461BCD PUSH1 0xE5 SHL DUP2 MSTORE PUSH1 0x20 PUSH1 0x4 DUP3 ADD MSTORE PUSH1 0x1E PUSH1 0x24 DUP3 ADD MSTORE PUSH32 0x41646472657373206E6F7420666F756E6420696E2077686974656C6973740000 PUSH1 0x44 DUP3 ADD MSTORE PUSH1 0x64 ADD PUSH2 0x6E8 JUMP JUMPDEST PUSH1 0x1 PUSH1 0x1 PUSH1 0xA0 SHL SUB DUP3 AND PUSH1 0x0 DUP2 DUP2 MSTORE PUSH1 0x3 PUSH1 0x20 MSTORE PUSH1 0x40 SWAP1 DUP2 SWAP1 KECCAK256 DUP4 SWAP1 SSTORE MLOAD PUSH32 0x49E4E7CA63DCC35A72589F844CB844CE25176E8E1AFF16F1AD1FB46624C65372 SWAP1 PUSH2 0x175A SWAP1 DUP5 DUP2 MSTORE PUSH1 0x20 ADD SWAP1 JUMP JUMPDEST PUSH1 0x40 MLOAD DUP1 SWAP2 SUB SWAP1 LOG2 POP POP JUMP JUMPDEST PUSH1 0x0 DUP1 SLOAD PUSH1 0xF SLOAD PUSH1 0x40 DUP1 MLOAD PUSH1 0x20 DUP1 DUP3 ADD SWAP4 SWAP1 SWAP4 MSTORE DUP2 MLOAD DUP1 DUP3 SUB SWAP1 SWAP4 ADD DUP4 MSTORE DUP1 DUP3 ADD SWAP2 DUP3 SWAP1 MSTORE PUSH4 0x333F6111 PUSH1 0xE0 SHL SWAP1 SWAP2 MSTORE PUSH1 0x1 PUSH1 0x1 PUSH1 0xA0 SHL SUB SWAP1 SWAP3 AND SWAP2 PUSH4 0x333F6111 SWAP2 PUSH2 0x17BB SWAP2 DUP9 SWAP2 DUP9 SWAP2 DUP9 SWAP2 SWAP1 PUSH1 0x44 ADD PUSH2 0x2D28 JUMP JUMPDEST PUSH1 0x20 PUSH1 0x40 MLOAD DUP1 DUP4 SUB DUP2 PUSH1 0x0 DUP8 GAS CALL ISZERO DUP1 ISZERO PUSH2 0x17DA JUMPI RETURNDATASIZE PUSH1 0x0 DUP1 RETURNDATACOPY RETURNDATASIZE PUSH1 0x0 REVERT JUMPDEST POP POP POP POP PUSH1 0x40 MLOAD RETURNDATASIZE PUSH1 0x1F NOT PUSH1 0x1F DUP3 ADD AND DUP3 ADD DUP1 PUSH1 0x40 MSTORE POP DUP2 ADD SWAP1 PUSH2 0x17FE SWAP2 SWAP1 PUSH2 0x2E09 JUMP JUMPDEST SWAP1 POP PUSH1 0x0 DUP5 PUSH1 0x40 MLOAD PUSH1 0x20 ADD PUSH2 0x1813 SWAP2 SWAP1 PUSH2 0x3084 JUMP JUMPDEST PUSH1 0x40 MLOAD PUSH1 0x20 DUP2 DUP4 SUB SUB DUP2 MSTORE SWAP1 PUSH1 0x40 MSTORE DUP1 MLOAD SWAP1 PUSH1 0x20 ADD KECCAK256 SWAP1 POP PUSH1 0x12 SLOAD DUP2 SUB PUSH2 0x184C JUMPI PUSH1 0x40 MLOAD PUSH3 0x461BCD PUSH1 0xE5 SHL DUP2 MSTORE PUSH1 0x4 ADD PUSH2 0x6E8 SWAP1 PUSH2 0x30BB JUMP JUMPDEST DUP2 PUSH2 0x1869 JUMPI PUSH1 0x40 MLOAD PUSH3 0x461BCD PUSH1 0xE5 SHL DUP2 MSTORE PUSH1 0x4 ADD PUSH2 0x6E8 SWAP1 PUSH2 0x2E2B JUMP JUMPDEST PUSH1 0xF SLOAD PUSH1 0x13 DUP2 SWAP1 SSTORE PUSH1 0x40 MLOAD SWAP1 DUP2 MSTORE PUSH32 0x58098EEEC115CBA633A1B8765151F8A2E4EFBDCB42846E0968E430D56E21D370 SWAP1 PUSH1 0x20 ADD PUSH1 0x40 MLOAD DUP1 SWAP2 SUB SWAP1 LOG1 POP POP PUSH1 0x0 PUSH1 0x12 SSTORE POP POP POP JUMP JUMPDEST PUSH1 0x0 DUP5 PUSH1 0x40 MLOAD PUSH1 0x20 ADD PUSH2 0x18C3 SWAP2 SWAP1 PUSH2 0x3084 JUMP JUMPDEST PUSH1 0x40 MLOAD PUSH1 0x20 DUP2 DUP4 SUB SUB DUP2 MSTORE SWAP1 PUSH1 0x40 MSTORE DUP1 MLOAD SWAP1 PUSH1 0x20 ADD KECCAK256 SWAP1 POP PUSH1 0x12 SLOAD DUP2 SUB PUSH2 0x18FC JUMPI PUSH1 0x40 MLOAD PUSH3 0x461BCD PUSH1 0xE5 SHL DUP2 MSTORE PUSH1 0x4 ADD PUSH2 0x6E8 SWAP1 PUSH2 0x30BB JUMP JUMPDEST PUSH1 0x0 DUP3 PUSH1 0x40 MLOAD PUSH1 0x20 ADD PUSH2 0x1911 SWAP2 DUP2 MSTORE PUSH1 0x20 ADD SWAP1 JUMP JUMPDEST PUSH1 0x40 DUP1 MLOAD PUSH1 0x1F NOT DUP2 DUP5 SUB ADD DUP2 MSTORE SWAP1 DUP3 SWAP1 MSTORE PUSH1 0x0 DUP1 SLOAD PUSH4 0x333F6111 PUSH1 0xE0 SHL DUP5 MSTORE SWAP2 SWAP4 POP SWAP2 PUSH1 0x1 PUSH1 0x1 PUSH1 0xA0 SHL SUB SWAP1 SWAP2 AND SWAP1 PUSH4 0x333F6111 SWAP1 PUSH2 0x195A SWAP1 DUP11 SWAP1 DUP11 SWAP1 DUP11 SWAP1 DUP9 SWAP1 PUSH1 0x4 ADD PUSH2 0x2D28 JUMP JUMPDEST PUSH1 0x20 PUSH1 0x40 MLOAD DUP1 DUP4 SUB DUP2 PUSH1 0x0 DUP8 GAS CALL ISZERO DUP1 ISZERO PUSH2 0x1979 JUMPI RETURNDATASIZE PUSH1 0x0 DUP1 RETURNDATACOPY RETURNDATASIZE PUSH1 0x0 REVERT JUMPDEST POP POP POP POP PUSH1 0x40 MLOAD RETURNDATASIZE PUSH1 0x1F NOT PUSH1 0x1F DUP3 ADD AND DUP3 ADD DUP1 PUSH1 0x40 MSTORE POP DUP2 ADD SWAP1 PUSH2 0x199D SWAP2 SWAP1 PUSH2 0x2E09 JUMP JUMPDEST SWAP1 POP DUP1 PUSH2 0x19BC JUMPI PUSH1 0x40 MLOAD PUSH3 0x461BCD PUSH1 0xE5 SHL DUP2 MSTORE PUSH1 0x4 ADD PUSH2 0x6E8 SWAP1 PUSH2 0x2E2B JUMP JUMPDEST PUSH1 0x14 DUP5 GT ISZERO PUSH2 0x1A1D JUMPI PUSH1 0x40 MLOAD PUSH3 0x461BCD PUSH1 0xE5 SHL DUP2 MSTORE PUSH1 0x20 PUSH1 0x4 DUP3 ADD MSTORE PUSH1 0x27 PUSH1 0x24 DUP3 ADD MSTORE PUSH32 0x436F6D6D697373696F6E2073686F756C64206265206265747765656E20302520 PUSH1 0x44 DUP3 ADD MSTORE PUSH7 0x616E6420323025 PUSH1 0xC8 SHL PUSH1 0x64 DUP3 ADD MSTORE PUSH1 0x84 ADD PUSH2 0x6E8 JUMP JUMPDEST PUSH1 0x17 SLOAD DUP5 EQ PUSH2 0x1A81 JUMPI PUSH1 0x40 MLOAD PUSH3 0x461BCD PUSH1 0xE5 SHL DUP2 MSTORE PUSH1 0x20 PUSH1 0x4 DUP3 ADD MSTORE PUSH1 0x2A PUSH1 0x24 DUP3 ADD MSTORE PUSH32 0x4D69736D61746368656420636F6D6D697373696F6E2076616C75657320626574 PUSH1 0x44 DUP3 ADD MSTORE PUSH10 0x7765656E207374657073 PUSH1 0xB0 SHL PUSH1 0x64 DUP3 ADD MSTORE PUSH1 0x84 ADD PUSH2 0x6E8 JUMP JUMPDEST PUSH1 0x15 DUP5 SWAP1 SSTORE PUSH1 0x0 PUSH1 0x17 DUP2 SWAP1 SSTORE PUSH1 0x12 SSTORE PUSH1 0x40 MLOAD DUP5 DUP2 MSTORE PUSH32 0x11BF320227562BD5F6C9B575913CF92B3B996B47873159DF227324AE1BB4D0EA SWAP1 PUSH1 0x20 ADD PUSH1 0x40 MLOAD DUP1 SWAP2 SUB SWAP1 LOG1 POP POP POP POP POP POP POP JUMP JUMPDEST PUSH1 0x0 DUP1 SLOAD PUSH1 0x40 DUP1 MLOAD PUSH1 0x20 DUP1 DUP3 ADD DUP7 SWAP1 MSTORE DUP3 MLOAD DUP1 DUP4 SUB SWAP1 SWAP2 ADD DUP2 MSTORE DUP2 DUP4 ADD SWAP3 DUP4 SWAP1 MSTORE PUSH4 0x333F6111 PUSH1 0xE0 SHL SWAP1 SWAP3 MSTORE PUSH1 0x1 PUSH1 0x1 PUSH1 0xA0 SHL SUB SWAP1 SWAP3 AND SWAP2 PUSH4 0x333F6111 SWAP2 PUSH2 0x1B1D SWAP2 DUP10 SWAP2 DUP10 SWAP2 DUP10 SWAP2 SWAP1 PUSH1 0x44 ADD PUSH2 0x2D28 JUMP JUMPDEST PUSH1 0x20 PUSH1 0x40 MLOAD DUP1 DUP4 SUB DUP2 PUSH1 0x0 DUP8 GAS CALL ISZERO DUP1 ISZERO PUSH2 0x1B3C JUMPI RETURNDATASIZE PUSH1 0x0 DUP1 RETURNDATACOPY RETURNDATASIZE PUSH1 0x0 REVERT JUMPDEST POP POP POP POP PUSH1 0x40 MLOAD RETURNDATASIZE PUSH1 0x1F NOT PUSH1 0x1F DUP3 ADD AND DUP3 ADD DUP1 PUSH1 0x40 MSTORE POP DUP2 ADD SWAP1 PUSH2 0x1B60 SWAP2 SWAP1 PUSH2 0x2E09 JUMP JUMPDEST SWAP1 POP PUSH1 0x0 DUP6 PUSH1 0x40 MLOAD PUSH1 0x20 ADD PUSH2 0x1B75 SWAP2 SWAP1 PUSH2 0x3084 JUMP JUMPDEST PUSH1 0x40 MLOAD PUSH1 0x20 DUP2 DUP4 SUB SUB DUP2 MSTORE SWAP1 PUSH1 0x40 MSTORE DUP1 MLOAD SWAP1 PUSH1 0x20 ADD KECCAK256 SWAP1 POP PUSH1 0x12 SLOAD DUP2 SUB PUSH2 0x1BAE JUMPI PUSH1 0x40 MLOAD PUSH3 0x461BCD PUSH1 0xE5 SHL DUP2 MSTORE PUSH1 0x4 ADD PUSH2 0x6E8 SWAP1 PUSH2 0x30BB JUMP JUMPDEST DUP2 PUSH2 0x1BCB JUMPI PUSH1 0x40 MLOAD PUSH3 0x461BCD PUSH1 0xE5 SHL DUP2 MSTORE PUSH1 0x4 ADD PUSH2 0x6E8 SWAP1 PUSH2 0x2E2B JUMP JUMPDEST POP POP PUSH1 0x14 SSTORE POP POP PUSH1 0x0 PUSH1 0x12 SSTORE POP JUMP JUMPDEST PUSH1 0x0 CALLER PUSH20 0x2685751D3C7A49EBF485E823079AC65E2A35A3DD DUP2 EQ SWAP1 PUSH2 0x1BFE SWAP1 PUSH2 0x2726 JUMP JUMPDEST PUSH1 0x40 MLOAD PUSH1 0x20 ADD PUSH2 0x1C0E SWAP2 SWAP1 PUSH2 0x3122 JUMP JUMPDEST PUSH1 0x40 MLOAD PUSH1 0x20 DUP2 DUP4 SUB SUB DUP2 MSTORE SWAP1 PUSH1 0x40 MSTORE SWAP1 PUSH2 0x1C3B JUMPI PUSH1 0x40 MLOAD PUSH3 0x461BCD PUSH1 0xE5 SHL DUP2 MSTORE PUSH1 0x4 ADD PUSH2 0x6E8 SWAP2 SWAP1 PUSH2 0x317D JUMP JUMPDEST POP PUSH1 0x1 PUSH1 0x1 PUSH1 0xA0 SHL SUB DUP3 AND PUSH1 0x0 SWAP1 DUP2 MSTORE PUSH1 0x6 PUSH1 0x20 MSTORE PUSH1 0x40 SWAP1 KECCAK256 SLOAD PUSH1 0xFF AND PUSH2 0x1C64 JUMPI POP PUSH1 0x0 SWAP2 SWAP1 POP JUMP JUMPDEST PUSH1 0x1 PUSH1 0x1 PUSH1 0xA0 SHL SUB DUP3 AND PUSH1 0x0 SWAP1 DUP2 MSTORE PUSH1 0x3 PUSH1 0x20 MSTORE PUSH1 0x40 DUP2 KECCAK256 SLOAD SWAP1 SUB PUSH2 0x1C8B JUMPI POP PUSH1 0x0 SWAP2 SWAP1 POP JUMP JUMPDEST PUSH1 0x1 PUSH1 0x1 PUSH1 0xA0 SHL SUB DUP3 AND PUSH1 0x0 SWAP1 DUP2 MSTORE PUSH1 0x1 PUSH1 0x20 DUP2 DUP2 MSTORE PUSH1 0x40 DUP1 DUP5 KECCAK256 PUSH1 0x2 DUP4 MSTORE DUP2 DUP6 KECCAK256 PUSH1 0x3 SWAP1 SWAP4 MSTORE SWAP4 KECCAK256 SLOAD SWAP2 DUP4 ADD SLOAD SWAP1 SWAP2 GT PUSH2 0x1D2C JUMPI DUP2 SLOAD PUSH2 0xE10 DUP3 DUP3 PUSH2 0x1F4 DUP2 LT PUSH2 0x1CD8 JUMPI PUSH2 0x1CD8 PUSH2 0x3031 JUMP JUMPDEST ADD SLOAD PUSH2 0x1CE4 SWAP1 TIMESTAMP PUSH2 0x301E JUMP JUMPDEST GT PUSH2 0x1CF4 JUMPI POP PUSH1 0x0 SWAP5 SWAP4 POP POP POP POP JUMP JUMPDEST PUSH1 0x1 PUSH1 0x1 PUSH1 0xA0 SHL SUB DUP6 AND PUSH1 0x0 SWAP1 DUP2 MSTORE PUSH1 0x3 PUSH1 0x20 MSTORE PUSH1 0x40 SWAP1 KECCAK256 SLOAD DUP4 SLOAD PUSH2 0x1D1A SWAP1 PUSH1 0x1 PUSH2 0x3047 JUMP JUMPDEST PUSH2 0x1D24 SWAP2 SWAP1 PUSH2 0x3070 JUMP JUMPDEST DUP4 SSTORE POP PUSH2 0x1D44 JUMP JUMPDEST PUSH1 0x1 DUP3 ADD DUP1 SLOAD SWAP1 PUSH1 0x0 PUSH2 0x1D3E DUP4 PUSH2 0x3190 JUMP JUMPDEST SWAP2 SWAP1 POP SSTORE POP JUMPDEST PUSH1 0x1 PUSH1 0x1 PUSH1 0xA0 SHL SUB DUP5 AND PUSH1 0x0 SWAP1 DUP2 MSTORE PUSH1 0x3 PUSH1 0x20 MSTORE PUSH1 0x40 DUP2 KECCAK256 SLOAD PUSH1 0x1 DUP5 DUP2 ADD SLOAD DUP6 SLOAD PUSH2 0x1D6F SWAP2 SWAP1 PUSH2 0x3047 JUMP JUMPDEST PUSH2 0x1D79 SWAP2 SWAP1 PUSH2 0x301E JUMP JUMPDEST PUSH2 0x1D83 SWAP2 SWAP1 PUSH2 0x3070 JUMP JUMPDEST SWAP1 POP TIMESTAMP DUP3 DUP3 PUSH2 0x1F4 DUP2 LT PUSH2 0x1D99 JUMPI PUSH2 0x1D99 PUSH2 0x3031 JUMP JUMPDEST ADD SSTORE PUSH1 0x40 MLOAD TIMESTAMP DUP2 MSTORE PUSH1 0x1 PUSH1 0x1 PUSH1 0xA0 SHL SUB DUP7 AND SWAP1 PUSH32 0x9ED0861F8FC182C8888F48E900842F475CCD2A3C93C6F966168EAA67D52D2EE1 SWAP1 PUSH1 0x20 ADD PUSH1 0x40 MLOAD DUP1 SWAP2 SUB SWAP1 LOG2 POP PUSH1 0x1 SWAP5 SWAP4 POP POP POP POP JUMP JUMPDEST CALLER PUSH1 0x0 SWAP1 DUP2 MSTORE PUSH1 0x5 PUSH1 0x20 MSTORE PUSH1 0x40 SWAP1 KECCAK256 SLOAD PUSH1 0xFF AND PUSH2 0x1E13 JUMPI PUSH1 0x40 MLOAD PUSH3 0x461BCD PUSH1 0xE5 SHL DUP2 MSTORE PUSH1 0x4 ADD PUSH2 0x6E8 SWAP1 PUSH2 0x2E60 JUMP JUMPDEST PUSH1 0x1 PUSH1 0x1 PUSH1 0xA0 SHL SUB DUP2 AND PUSH1 0x0 SWAP1 DUP2 MSTORE PUSH1 0x6 PUSH1 0x20 MSTORE PUSH1 0x40 SWAP1 KECCAK256 SLOAD PUSH1 0xFF AND PUSH2 0x1E7B JUMPI PUSH1 0x40 MLOAD PUSH3 0x461BCD PUSH1 0xE5 SHL DUP2 MSTORE PUSH1 0x20 PUSH1 0x4 DUP3 ADD MSTORE PUSH1 0x1E PUSH1 0x24 DUP3 ADD MSTORE PUSH32 0x41646472657373206E6F7420666F756E6420696E2077686974656C6973740000 PUSH1 0x44 DUP3 ADD MSTORE PUSH1 0x64 ADD PUSH2 0x6E8 JUMP JUMPDEST PUSH1 0x1 PUSH1 0x1 PUSH1 0xA0 SHL SUB DUP2 AND PUSH1 0x0 DUP2 DUP2 MSTORE PUSH1 0x6 PUSH1 0x20 SWAP1 DUP2 MSTORE PUSH1 0x40 DUP1 DUP4 KECCAK256 DUP1 SLOAD PUSH1 0xFF NOT AND SWAP1 SSTORE PUSH1 0xB SWAP1 SWAP2 MSTORE DUP1 DUP3 KECCAK256 DUP3 SWAP1 SSTORE MLOAD PUSH32 0xCDD2E9B91A56913D370075169CEFA1602BA36BE5301664F752192BB1709DF757 SWAP2 SWAP1 LOG2 POP JUMP JUMPDEST PUSH1 0x0 DUP4 PUSH1 0x40 MLOAD PUSH1 0x20 ADD PUSH2 0x1EE4 SWAP2 SWAP1 PUSH2 0x3084 JUMP JUMPDEST PUSH1 0x40 MLOAD PUSH1 0x20 DUP2 DUP4 SUB SUB DUP2 MSTORE SWAP1 PUSH1 0x40 MSTORE DUP1 MLOAD SWAP1 PUSH1 0x20 ADD KECCAK256 SWAP1 POP PUSH1 0x12 SLOAD DUP2 SUB PUSH2 0x1F1D JUMPI PUSH1 0x40 MLOAD PUSH3 0x461BCD PUSH1 0xE5 SHL DUP2 MSTORE PUSH1 0x4 ADD PUSH2 0x6E8 SWAP1 PUSH2 0x30BB JUMP JUMPDEST PUSH1 0x11 SLOAD PUSH1 0x40 MLOAD PUSH1 0x0 SWAP2 PUSH2 0x1F3E SWAP2 PUSH1 0x1 PUSH1 0x1 PUSH1 0xA0 SHL SUB SWAP1 SWAP2 AND SWAP1 PUSH1 0x20 ADD PUSH2 0x2CE2 JUMP JUMPDEST PUSH1 0x40 DUP1 MLOAD PUSH1 0x1F NOT DUP2 DUP5 SUB ADD DUP2 MSTORE SWAP1 DUP3 SWAP1 MSTORE PUSH1 0x0 DUP1 SLOAD PUSH4 0x333F6111 PUSH1 0xE0 SHL DUP5 MSTORE SWAP2 SWAP4 POP SWAP2 PUSH1 0x1 PUSH1 0x1 PUSH1 0xA0 SHL SUB SWAP1 SWAP2 AND SWAP1 PUSH4 0x333F6111 SWAP1 PUSH2 0x1F87 SWAP1 DUP10 SWAP1 DUP10 SWAP1 DUP10 SWAP1 DUP9 SWAP1 PUSH1 0x4 ADD PUSH2 0x2D28 JUMP JUMPDEST PUSH1 0x20 PUSH1 0x40 MLOAD DUP1 DUP4 SUB DUP2 PUSH1 0x0 DUP8 GAS CALL ISZERO DUP1 ISZERO PUSH2 0x1FA6 JUMPI RETURNDATASIZE PUSH1 0x0 DUP1 RETURNDATACOPY RETURNDATASIZE PUSH1 0x0 REVERT JUMPDEST POP POP POP POP PUSH1 0x40 MLOAD RETURNDATASIZE PUSH1 0x1F NOT PUSH1 0x1F DUP3 ADD AND DUP3 ADD DUP1 PUSH1 0x40 MSTORE POP DUP2 ADD SWAP1 PUSH2 0x1FCA SWAP2 SWAP1 PUSH2 0x2E09 JUMP JUMPDEST SWAP1 POP DUP1 PUSH2 0x1FE9 JUMPI PUSH1 0x40 MLOAD PUSH3 0x461BCD PUSH1 0xE5 SHL DUP2 MSTORE PUSH1 0x4 ADD PUSH2 0x6E8 SWAP1 PUSH2 0x2E2B JUMP JUMPDEST PUSH1 0x11 DUP1 SLOAD PUSH1 0x1 PUSH1 0x1 PUSH1 0xA0 SHL SUB SWAP1 DUP2 AND PUSH1 0x0 SWAP1 DUP2 MSTORE PUSH1 0x5 PUSH1 0x20 SWAP1 DUP2 MSTORE PUSH1 0x40 DUP1 DUP4 KECCAK256 DUP1 SLOAD PUSH1 0xFF NOT AND SWAP1 SSTORE PUSH1 0x12 SWAP3 SWAP1 SWAP3 SSTORE SWAP3 SLOAD SWAP1 MLOAD SWAP2 AND DUP2 MSTORE PUSH32 0x6C643A308C2943F8CABF6EA94D2FC3741E4995CAA21BD8E305B91F06ABF14B58 SWAP2 ADD JUMPDEST PUSH1 0x40 MLOAD DUP1 SWAP2 SUB SWAP1 LOG1 POP POP POP POP POP POP JUMP JUMPDEST PUSH1 0x0 DUP1 SLOAD PUSH1 0x40 MLOAD PUSH1 0x1 PUSH1 0x1 PUSH1 0xA0 SHL SUB SWAP1 SWAP2 AND SWAP1 PUSH4 0x333F6111 SWAP1 DUP8 SWAP1 DUP8 SWAP1 DUP8 SWAP1 PUSH2 0x2080 SWAP1 DUP9 SWAP1 PUSH1 0x20 ADD PUSH2 0x2CE2 JUMP JUMPDEST PUSH1 0x40 MLOAD PUSH1 0x20 DUP2 DUP4 SUB SUB DUP2 MSTORE SWAP1 PUSH1 0x40 MSTORE PUSH1 0x40 MLOAD DUP6 PUSH4 0xFFFFFFFF AND PUSH1 0xE0 SHL DUP2 MSTORE PUSH1 0x4 ADD PUSH2 0x20AE SWAP5 SWAP4 SWAP3 SWAP2 SWAP1 PUSH2 0x2D28 JUMP JUMPDEST PUSH1 0x20 PUSH1 0x40 MLOAD DUP1 DUP4 SUB DUP2 PUSH1 0x0 DUP8 GAS CALL ISZERO DUP1 ISZERO PUSH2 0x20CD JUMPI RETURNDATASIZE PUSH1 0x0 DUP1 RETURNDATACOPY RETURNDATASIZE PUSH1 0x0 REVERT JUMPDEST POP POP POP POP PUSH1 0x40 MLOAD RETURNDATASIZE PUSH1 0x1F NOT PUSH1 0x1F DUP3 ADD AND DUP3 ADD DUP1 PUSH1 0x40 MSTORE POP DUP2 ADD SWAP1 PUSH2 0x20F1 SWAP2 SWAP1 PUSH2 0x2E09 JUMP JUMPDEST SWAP1 POP DUP1 PUSH2 0x2110 JUMPI PUSH1 0x40 MLOAD PUSH3 0x461BCD PUSH1 0xE5 SHL DUP2 MSTORE PUSH1 0x4 ADD PUSH2 0x6E8 SWAP1 PUSH2 0x2E2B JUMP JUMPDEST POP PUSH1 0x11 DUP1 SLOAD PUSH1 0x1 PUSH1 0x1 PUSH1 0xA0 SHL SUB NOT AND PUSH1 0x1 PUSH1 0x1 PUSH1 0xA0 SHL SUB SWAP3 SWAP1 SWAP3 AND SWAP2 SWAP1 SWAP2 OR SWAP1 SSTORE PUSH1 0x12 SSTORE POP POP JUMP JUMPDEST PUSH1 0x0 DUP1 SLOAD PUSH1 0x40 MLOAD PUSH1 0x1 PUSH1 0x1 PUSH1 0xA0 SHL SUB SWAP1 SWAP2 AND SWAP1 PUSH4 0x333F6111 SWAP1 DUP8 SWAP1 DUP8 SWAP1 DUP8 SWAP1 PUSH2 0x2165 SWAP1 DUP9 SWAP1 PUSH1 0x20 ADD PUSH2 0x2CE2 JUMP JUMPDEST PUSH1 0x40 MLOAD PUSH1 0x20 DUP2 DUP4 SUB SUB DUP2 MSTORE SWAP1 PUSH1 0x40 MSTORE PUSH1 0x40 MLOAD DUP6 PUSH4 0xFFFFFFFF AND PUSH1 0xE0 SHL DUP2 MSTORE PUSH1 0x4 ADD PUSH2 0x2193 SWAP5 SWAP4 SWAP3 SWAP2 SWAP1 PUSH2 0x2D28 JUMP JUMPDEST PUSH1 0x20 PUSH1 0x40 MLOAD DUP1 DUP4 SUB DUP2 PUSH1 0x0 DUP8 GAS CALL ISZERO DUP1 ISZERO PUSH2 0x21B2 JUMPI RETURNDATASIZE PUSH1 0x0 DUP1 RETURNDATACOPY RETURNDATASIZE PUSH1 0x0 REVERT JUMPDEST POP POP POP POP PUSH1 0x40 MLOAD RETURNDATASIZE PUSH1 0x1F NOT PUSH1 0x1F DUP3 ADD AND DUP3 ADD DUP1 PUSH1 0x40 MSTORE POP DUP2 ADD SWAP1 PUSH2 0x21D6 SWAP2 SWAP1 PUSH2 0x2E09 JUMP JUMPDEST SWAP1 POP DUP1 PUSH2 0x21F5 JUMPI PUSH1 0x40 MLOAD PUSH3 0x461BCD PUSH1 0xE5 SHL DUP2 MSTORE PUSH1 0x4 ADD PUSH2 0x6E8 SWAP1 PUSH2 0x2E2B JUMP JUMPDEST DUP2 PUSH1 0x40 MLOAD PUSH1 0x20 ADD PUSH2 0x2206 SWAP2 SWAP1 PUSH2 0x2CE2 JUMP JUMPDEST PUSH1 0x40 DUP1 MLOAD PUSH1 0x1F NOT DUP2 DUP5 SUB ADD DUP2 MSTORE SWAP2 SWAP1 MSTORE DUP1 MLOAD PUSH1 0x20 SWAP1 SWAP2 ADD KECCAK256 PUSH1 0x18 SSTORE POP POP PUSH1 0x12 SSTORE POP POP JUMP JUMPDEST PUSH1 0x4 PUSH1 0x20 MSTORE PUSH1 0x0 SWAP1 DUP2 MSTORE PUSH1 0x40 SWAP1 KECCAK256 DUP1 SLOAD DUP2 SWAP1 PUSH2 0x2245 SWAP1 PUSH2 0x2EBD JUMP JUMPDEST DUP1 PUSH1 0x1F ADD PUSH1 0x20 DUP1 SWAP2 DIV MUL PUSH1 0x20 ADD PUSH1 0x40 MLOAD SWAP1 DUP2 ADD PUSH1 0x40 MSTORE DUP1 SWAP3 SWAP2 SWAP1 DUP2 DUP2 MSTORE PUSH1 0x20 ADD DUP3 DUP1 SLOAD PUSH2 0x2271 SWAP1 PUSH2 0x2EBD JUMP JUMPDEST DUP1 ISZERO PUSH2 0x22BE JUMPI DUP1 PUSH1 0x1F LT PUSH2 0x2293 JUMPI PUSH2 0x100 DUP1 DUP4 SLOAD DIV MUL DUP4 MSTORE SWAP2 PUSH1 0x20 ADD SWAP2 PUSH2 0x22BE JUMP JUMPDEST DUP3 ADD SWAP2 SWAP1 PUSH1 0x0 MSTORE PUSH1 0x20 PUSH1 0x0 KECCAK256 SWAP1 JUMPDEST DUP2 SLOAD DUP2 MSTORE SWAP1 PUSH1 0x1 ADD SWAP1 PUSH1 0x20 ADD DUP1 DUP4 GT PUSH2 0x22A1 JUMPI DUP3 SWAP1 SUB PUSH1 0x1F AND DUP3 ADD SWAP2 JUMPDEST POP POP POP POP POP SWAP1 DUP1 PUSH1 0x1 ADD SLOAD SWAP1 POP DUP3 JUMP JUMPDEST PUSH1 0x0 DUP4 PUSH1 0x40 MLOAD PUSH1 0x20 ADD PUSH2 0x22E1 SWAP2 SWAP1 PUSH2 0x3084 JUMP JUMPDEST PUSH1 0x40 MLOAD PUSH1 0x20 DUP2 DUP4 SUB SUB DUP2 MSTORE SWAP1 PUSH1 0x40 MSTORE DUP1 MLOAD SWAP1 PUSH1 0x20 ADD KECCAK256 SWAP1 POP PUSH1 0x12 SLOAD DUP2 SUB PUSH2 0x231A JUMPI PUSH1 0x40 MLOAD PUSH3 0x461BCD PUSH1 0xE5 SHL DUP2 MSTORE PUSH1 0x4 ADD PUSH2 0x6E8 SWAP1 PUSH2 0x30BB JUMP JUMPDEST PUSH1 0x10 SLOAD PUSH1 0x40 MLOAD PUSH1 0x0 SWAP2 PUSH2 0x233B SWAP2 PUSH1 0x1 PUSH1 0x1 PUSH1 0xA0 SHL SUB SWAP1 SWAP2 AND SWAP1 PUSH1 0x20 ADD PUSH2 0x2CE2 JUMP JUMPDEST PUSH1 0x40 DUP1 MLOAD PUSH1 0x1F NOT DUP2 DUP5 SUB ADD DUP2 MSTORE SWAP1 DUP3 SWAP1 MSTORE PUSH1 0x0 DUP1 SLOAD PUSH4 0x333F6111 PUSH1 0xE0 SHL DUP5 MSTORE SWAP2 SWAP4 POP SWAP2 PUSH1 0x1 PUSH1 0x1 PUSH1 0xA0 SHL SUB SWAP1 SWAP2 AND SWAP1 PUSH4 0x333F6111 SWAP1 PUSH2 0x2384 SWAP1 DUP10 SWAP1 DUP10 SWAP1 DUP10 SWAP1 DUP9 SWAP1 PUSH1 0x4 ADD PUSH2 0x2D28 JUMP JUMPDEST PUSH1 0x20 PUSH1 0x40 MLOAD DUP1 DUP4 SUB DUP2 PUSH1 0x0 DUP8 GAS CALL ISZERO DUP1 ISZERO PUSH2 0x23A3 JUMPI RETURNDATASIZE PUSH1 0x0 DUP1 RETURNDATACOPY RETURNDATASIZE PUSH1 0x0 REVERT JUMPDEST POP POP POP POP PUSH1 0x40 MLOAD RETURNDATASIZE PUSH1 0x1F NOT PUSH1 0x1F DUP3 ADD AND DUP3 ADD DUP1 PUSH1 0x40 MSTORE POP DUP2 ADD SWAP1 PUSH2 0x23C7 SWAP2 SWAP1 PUSH2 0x2E09 JUMP JUMPDEST SWAP1 POP DUP1 PUSH2 0x23E6 JUMPI PUSH1 0x40 MLOAD PUSH3 0x461BCD PUSH1 0xE5 SHL DUP2 MSTORE PUSH1 0x4 ADD PUSH2 0x6E8 SWAP1 PUSH2 0x2E2B JUMP JUMPDEST PUSH1 0x10 DUP1 SLOAD PUSH1 0x1 PUSH1 0x1 PUSH1 0xA0 SHL SUB SWAP1 DUP2 AND PUSH1 0x0 SWAP1 DUP2 MSTORE PUSH1 0x5 PUSH1 0x20 SWAP1 DUP2 MSTORE PUSH1 0x40 SWAP2 DUP3 SWAP1 KECCAK256 DUP1 SLOAD PUSH1 0xFF NOT AND PUSH1 0x1 OR SWAP1 SSTORE SWAP3 SLOAD SWAP1 MLOAD SWAP2 AND DUP2 MSTORE PUSH32 0x9C2D3039F3D15023B5382D61054AAE8F70288E4BFFB8676398BACA3C389E8F18 SWAP2 ADD PUSH2 0x2043 JUMP JUMPDEST CALLER PUSH1 0x0 SWAP1 DUP2 MSTORE PUSH1 0x5 PUSH1 0x20 MSTORE PUSH1 0x40 SWAP1 KECCAK256 SLOAD PUSH1 0xFF AND PUSH2 0x24B0 JUMPI PUSH1 0x40 MLOAD PUSH3 0x461BCD PUSH1 0xE5 SHL DUP2 MSTORE PUSH1 0x20 PUSH1 0x4 DUP3 ADD MSTORE PUSH1 0x26 PUSH1 0x24 DUP3 ADD MSTORE PUSH32 0x4E6F74207065726D697474656420746F206D6F64696679206D696E7574657320 PUSH1 0x44 DUP3 ADD MSTORE PUSH6 0x1C1B185E5959 PUSH1 0xD2 SHL PUSH1 0x64 DUP3 ADD MSTORE PUSH1 0x84 ADD PUSH2 0x6E8 JUMP JUMPDEST PUSH1 0xC8 DUP2 GT ISZERO PUSH2 0x2514 JUMPI PUSH1 0x40 MLOAD PUSH3 0x461BCD PUSH1 0xE5 SHL DUP2 MSTORE PUSH1 0x20 PUSH1 0x4 DUP3 ADD MSTORE PUSH1 0x2A PUSH1 0x24 DUP3 ADD MSTORE PUSH32 0x43616E6E6F7420616464206D6F7265207468616E20323030206D696E75746573 PUSH1 0x44 DUP3 ADD MSTORE PUSH10 0x20617420612074696D65 PUSH1 0xB0 SHL PUSH1 0x64 DUP3 ADD MSTORE PUSH1 0x84 ADD PUSH2 0x6E8 JUMP JUMPDEST PUSH1 0x1 PUSH1 0x1 PUSH1 0xA0 SHL SUB DUP3 AND PUSH1 0x0 SWAP1 DUP2 MSTORE PUSH1 0xE PUSH1 0x20 MSTORE PUSH1 0x40 DUP2 KECCAK256 SLOAD TIMESTAMP SWAP2 PUSH1 0x3C PUSH2 0x253B DUP4 DUP6 PUSH2 0x301E JUMP JUMPDEST PUSH2 0x2545 SWAP2 SWAP1 PUSH2 0x31A9 JUMP JUMPDEST SWAP1 POP DUP4 PUSH1 0xC8 SUB PUSH2 0x25BA JUMPI PUSH1 0xC6 DUP2 LT ISZERO PUSH2 0x25B5 JUMPI PUSH1 0x40 MLOAD PUSH3 0x461BCD PUSH1 0xE5 SHL DUP2 MSTORE PUSH1 0x20 PUSH1 0x4 DUP3 ADD MSTORE PUSH1 0x2C PUSH1 0x24 DUP3 ADD MSTORE PUSH32 0x496E73756666696369656E742074696D652070617373656420666F72206C6172 PUSH1 0x44 DUP3 ADD MSTORE PUSH12 0x19D9481A5B98DC995B595B9D PUSH1 0xA2 SHL PUSH1 0x64 DUP3 ADD MSTORE PUSH1 0x84 ADD PUSH2 0x6E8 JUMP JUMPDEST PUSH2 0x26AC JUMP JUMPDEST PUSH1 0x5 DUP5 GT DUP1 ISZERO PUSH2 0x25CA JUMPI POP PUSH1 0xC8 DUP5 LT JUMPDEST ISZERO PUSH2 0x263D JUMPI PUSH2 0x25DA PUSH1 0x2 DUP6 PUSH2 0x301E JUMP JUMPDEST DUP2 LT ISZERO PUSH2 0x25B5 JUMPI PUSH1 0x40 MLOAD PUSH3 0x461BCD PUSH1 0xE5 SHL DUP2 MSTORE PUSH1 0x20 PUSH1 0x4 DUP3 ADD MSTORE PUSH1 0x2B PUSH1 0x24 DUP3 ADD MSTORE PUSH32 0x496E73756666696369656E742074696D652070617373656420666F7220746869 PUSH1 0x44 DUP3 ADD MSTORE PUSH11 0x1CC81A5B98DC995B595B9D PUSH1 0xAA SHL PUSH1 0x64 DUP3 ADD MSTORE PUSH1 0x84 ADD PUSH2 0x6E8 JUMP JUMPDEST PUSH1 0x5 DUP5 GT PUSH2 0x26AC JUMPI PUSH1 0x3 DUP2 LT ISZERO PUSH2 0x26AC JUMPI PUSH1 0x40 MLOAD PUSH3 0x461BCD PUSH1 0xE5 SHL DUP2 MSTORE PUSH1 0x20 PUSH1 0x4 DUP3 ADD MSTORE PUSH1 0x2D PUSH1 0x24 DUP3 ADD MSTORE PUSH32 0x557064617465206672657175656E637920746F6F206869676820666F7220736D PUSH1 0x44 DUP3 ADD MSTORE PUSH13 0x185B1B081A5B98DC995B595B9D PUSH1 0x9A SHL PUSH1 0x64 DUP3 ADD MSTORE PUSH1 0x84 ADD PUSH2 0x6E8 JUMP JUMPDEST PUSH1 0x1 PUSH1 0x1 PUSH1 0xA0 SHL SUB DUP6 AND PUSH1 0x0 SWAP1 DUP2 MSTORE PUSH1 0x8 PUSH1 0x20 MSTORE PUSH1 0x40 DUP2 KECCAK256 DUP1 SLOAD DUP7 SWAP3 SWAP1 PUSH2 0x26D4 SWAP1 DUP5 SWAP1 PUSH2 0x3047 JUMP JUMPDEST SWAP1 SWAP2 SSTORE POP POP PUSH1 0x1 PUSH1 0x1 PUSH1 0xA0 SHL SUB DUP6 AND PUSH1 0x0 DUP2 DUP2 MSTORE PUSH1 0xE PUSH1 0x20 MSTORE PUSH1 0x40 SWAP1 DUP2 SWAP1 KECCAK256 DUP6 SWAP1 SSTORE MLOAD PUSH32 0x54ECAB596BD73E6A3FD6D8BB310AA69A74C3F78DDC040F88C6F5D06DFFB3542B SWAP1 PUSH2 0xE69 SWAP1 DUP8 DUP2 MSTORE PUSH1 0x20 ADD SWAP1 JUMP JUMPDEST PUSH1 0x40 DUP1 MLOAD DUP1 DUP3 ADD DUP3 MSTORE PUSH1 0x10 DUP2 MSTORE PUSH16 0x181899199A1A9B1B9C1CB0B131B232B3 PUSH1 0x81 SHL PUSH1 0x20 DUP3 ADD MSTORE DUP2 MLOAD PUSH1 0x2A DUP1 DUP3 MSTORE PUSH1 0x60 DUP3 DUP2 ADD SWAP1 SWAP5 MSTORE PUSH1 0x1 PUSH1 0x1 PUSH1 0xA0 SHL SUB DUP6 AND SWAP3 SWAP2 PUSH1 0x0 SWAP2 PUSH1 0x20 DUP3 ADD DUP2 DUP1 CALLDATASIZE DUP4 CALLDATACOPY ADD SWAP1 POP POP SWAP1 POP PUSH1 0x3 PUSH1 0xFC SHL DUP2 PUSH1 0x0 DUP2 MLOAD DUP2 LT PUSH2 0x2791 JUMPI PUSH2 0x2791 PUSH2 0x3031 JUMP JUMPDEST PUSH1 0x20 ADD ADD SWAP1 PUSH1 0x1 PUSH1 0x1 PUSH1 0xF8 SHL SUB NOT AND SWAP1 DUP2 PUSH1 0x0 BYTE SWAP1 MSTORE8 POP PUSH1 0xF PUSH1 0xFB SHL DUP2 PUSH1 0x1 DUP2 MLOAD DUP2 LT PUSH2 0x27C0 JUMPI PUSH2 0x27C0 PUSH2 0x3031 JUMP JUMPDEST PUSH1 0x20 ADD ADD SWAP1 PUSH1 0x1 PUSH1 0x1 PUSH1 0xF8 SHL SUB NOT AND SWAP1 DUP2 PUSH1 0x0 BYTE SWAP1 MSTORE8 POP PUSH1 0x0 JUMPDEST PUSH1 0x14 DUP2 LT ISZERO PUSH2 0x28FE JUMPI DUP3 PUSH1 0x4 DUP6 PUSH2 0x27F2 DUP5 PUSH1 0xC PUSH2 0x3047 JUMP JUMPDEST PUSH1 0x20 DUP2 LT PUSH2 0x2802 JUMPI PUSH2 0x2802 PUSH2 0x3031 JUMP JUMPDEST BYTE PUSH1 0xF8 SHL PUSH1 0x1 PUSH1 0x1 PUSH1 0xF8 SHL SUB NOT AND SWAP1 SHR PUSH1 0xF8 SHR PUSH1 0xFF AND DUP2 MLOAD DUP2 LT PUSH2 0x2828 JUMPI PUSH2 0x2828 PUSH2 0x3031 JUMP JUMPDEST ADD PUSH1 0x20 ADD MLOAD PUSH1 0x1 PUSH1 0x1 PUSH1 0xF8 SHL SUB NOT AND DUP3 PUSH2 0x2843 DUP4 PUSH1 0x2 PUSH2 0x31BD JUMP JUMPDEST PUSH2 0x284E SWAP1 PUSH1 0x2 PUSH2 0x3047 JUMP JUMPDEST DUP2 MLOAD DUP2 LT PUSH2 0x285E JUMPI PUSH2 0x285E PUSH2 0x3031 JUMP JUMPDEST PUSH1 0x20 ADD ADD SWAP1 PUSH1 0x1 PUSH1 0x1 PUSH1 0xF8 SHL SUB NOT AND SWAP1 DUP2 PUSH1 0x0 BYTE SWAP1 MSTORE8 POP DUP3 DUP5 PUSH2 0x2882 DUP4 PUSH1 0xC PUSH2 0x3047 JUMP JUMPDEST PUSH1 0x20 DUP2 LT PUSH2 0x2892 JUMPI PUSH2 0x2892 PUSH2 0x3031 JUMP JUMPDEST DUP3 MLOAD SWAP2 SWAP1 BYTE PUSH1 0xF AND SWAP1 DUP2 LT PUSH2 0x28A9 JUMPI PUSH2 0x28A9 PUSH2 0x3031 JUMP JUMPDEST ADD PUSH1 0x20 ADD MLOAD PUSH1 0x1 PUSH1 0x1 PUSH1 0xF8 SHL SUB NOT AND DUP3 PUSH2 0x28C4 DUP4 PUSH1 0x2 PUSH2 0x31BD JUMP JUMPDEST PUSH2 0x28CF SWAP1 PUSH1 0x3 PUSH2 0x3047 JUMP JUMPDEST DUP2 MLOAD DUP2 LT PUSH2 0x28DF JUMPI PUSH2 0x28DF PUSH2 0x3031 JUMP JUMPDEST PUSH1 0x20 ADD ADD SWAP1 PUSH1 0x1 PUSH1 0x1 PUSH1 0xF8 SHL SUB NOT AND SWAP1 DUP2 PUSH1 0x0 BYTE SWAP1 MSTORE8 POP PUSH1 0x1 ADD PUSH2 0x27DA JUMP JUMPDEST POP SWAP5 SWAP4 POP POP POP POP JUMP JUMPDEST DUP1 CALLDATALOAD PUSH1 0x1 PUSH1 0x1 PUSH1 0xA0 SHL SUB DUP2 AND DUP2 EQ PUSH2 0x291E JUMPI PUSH1 0x0 DUP1 REVERT JUMPDEST SWAP2 SWAP1 POP JUMP JUMPDEST PUSH1 0x0 PUSH1 0x20 DUP3 DUP5 SUB SLT ISZERO PUSH2 0x2935 JUMPI PUSH1 0x0 DUP1 REVERT JUMPDEST PUSH2 0x293E DUP3 PUSH2 0x2907 JUMP JUMPDEST SWAP4 SWAP3 POP POP POP JUMP JUMPDEST DUP1 PUSH2 0x4000 DUP2 ADD DUP4 LT ISZERO PUSH2 0x1569 JUMPI PUSH1 0x0 DUP1 REVERT JUMPDEST DUP1 PUSH2 0x2000 DUP2 ADD DUP4 LT ISZERO PUSH2 0x1569 JUMPI PUSH1 0x0 DUP1 REVERT JUMPDEST PUSH1 0x0 DUP1 PUSH1 0x0 DUP1 PUSH2 0x4060 DUP6 DUP8 SUB SLT ISZERO PUSH2 0x2980 JUMPI PUSH1 0x0 DUP1 REVERT JUMPDEST PUSH2 0x298A DUP7 DUP7 PUSH2 0x2945 JUMP JUMPDEST SWAP4 POP PUSH2 0x4000 DUP6 ADD CALLDATALOAD PUSH8 0xFFFFFFFFFFFFFFFF DUP2 GT ISZERO PUSH2 0x29A7 JUMPI PUSH1 0x0 DUP1 REVERT JUMPDEST PUSH2 0x29B3 DUP8 DUP3 DUP9 ADD PUSH2 0x2957 JUMP JUMPDEST SWAP4 POP POP PUSH2 0x4020 DUP6 ADD CALLDATALOAD SWAP2 POP PUSH2 0x29CB PUSH2 0x4040 DUP7 ADD PUSH2 0x2907 JUMP JUMPDEST SWAP1 POP SWAP3 SWAP6 SWAP2 SWAP5 POP SWAP3 POP JUMP JUMPDEST PUSH4 0x4E487B71 PUSH1 0xE0 SHL PUSH1 0x0 MSTORE PUSH1 0x41 PUSH1 0x4 MSTORE PUSH1 0x24 PUSH1 0x0 REVERT JUMPDEST PUSH1 0x0 PUSH8 0xFFFFFFFFFFFFFFFF DUP1 DUP5 GT ISZERO PUSH2 0x2A07 JUMPI PUSH2 0x2A07 PUSH2 0x29D6 JUMP JUMPDEST PUSH1 0x40 MLOAD PUSH1 0x1F DUP6 ADD PUSH1 0x1F NOT SWAP1 DUP2 AND PUSH1 0x3F ADD AND DUP2 ADD SWAP1 DUP3 DUP3 GT DUP2 DUP4 LT OR ISZERO PUSH2 0x2A2F JUMPI PUSH2 0x2A2F PUSH2 0x29D6 JUMP JUMPDEST DUP2 PUSH1 0x40 MSTORE DUP1 SWAP4 POP DUP6 DUP2 MSTORE DUP7 DUP7 DUP7 ADD GT ISZERO PUSH2 0x2A48 JUMPI PUSH1 0x0 DUP1 REVERT JUMPDEST DUP6 DUP6 PUSH1 0x20 DUP4 ADD CALLDATACOPY PUSH1 0x0 PUSH1 0x20 DUP8 DUP4 ADD ADD MSTORE POP POP POP SWAP4 SWAP3 POP POP POP JUMP JUMPDEST PUSH1 0x0 DUP3 PUSH1 0x1F DUP4 ADD SLT PUSH2 0x2A73 JUMPI PUSH1 0x0 DUP1 REVERT JUMPDEST PUSH2 0x293E DUP4 DUP4 CALLDATALOAD PUSH1 0x20 DUP6 ADD PUSH2 0x29EC JUMP JUMPDEST PUSH1 0x0 DUP1 PUSH1 0x40 DUP4 DUP6 SUB SLT ISZERO PUSH2 0x2A95 JUMPI PUSH1 0x0 DUP1 REVERT JUMPDEST PUSH2 0x2A9E DUP4 PUSH2 0x2907 JUMP JUMPDEST SWAP2 POP PUSH1 0x20 DUP4 ADD CALLDATALOAD PUSH8 0xFFFFFFFFFFFFFFFF DUP2 GT ISZERO PUSH2 0x2ABA JUMPI PUSH1 0x0 DUP1 REVERT JUMPDEST PUSH2 0x2AC6 DUP6 DUP3 DUP7 ADD PUSH2 0x2A62 JUMP JUMPDEST SWAP2 POP POP SWAP3 POP SWAP3 SWAP1 POP JUMP JUMPDEST PUSH1 0x0 DUP1 PUSH1 0x40 DUP4 DUP6 SUB SLT ISZERO PUSH2 0x2AE3 JUMPI PUSH1 0x0 DUP1 REVERT JUMPDEST DUP3 CALLDATALOAD PUSH8 0xFFFFFFFFFFFFFFFF DUP2 GT ISZERO PUSH2 0x2AFA JUMPI PUSH1 0x0 DUP1 REVERT JUMPDEST PUSH2 0x2B06 DUP6 DUP3 DUP7 ADD PUSH2 0x2A62 JUMP JUMPDEST SWAP3 POP POP PUSH2 0x2B15 PUSH1 0x20 DUP5 ADD PUSH2 0x2907 JUMP JUMPDEST SWAP1 POP SWAP3 POP SWAP3 SWAP1 POP JUMP JUMPDEST PUSH1 0x0 PUSH1 0x20 DUP3 DUP5 SUB SLT ISZERO PUSH2 0x2B30 JUMPI PUSH1 0x0 DUP1 REVERT JUMPDEST DUP2 CALLDATALOAD PUSH8 0xFFFFFFFFFFFFFFFF DUP2 GT ISZERO PUSH2 0x2B47 JUMPI PUSH1 0x0 DUP1 REVERT JUMPDEST DUP3 ADD PUSH1 0x1F DUP2 ADD DUP5 SGT PUSH2 0x2B58 JUMPI PUSH1 0x0 DUP1 REVERT JUMPDEST PUSH2 0x2B67 DUP5 DUP3 CALLDATALOAD PUSH1 0x20 DUP5 ADD PUSH2 0x29EC JUMP JUMPDEST SWAP5 SWAP4 POP POP POP POP JUMP JUMPDEST PUSH1 0x0 DUP1 PUSH1 0x0 DUP1 PUSH2 0x4060 DUP6 DUP8 SUB SLT ISZERO PUSH2 0x2B86 JUMPI PUSH1 0x0 DUP1 REVERT JUMPDEST PUSH2 0x2B90 DUP7 DUP7 PUSH2 0x2945 JUMP JUMPDEST SWAP4 POP PUSH2 0x4000 DUP6 ADD CALLDATALOAD PUSH8 0xFFFFFFFFFFFFFFFF DUP2 GT ISZERO PUSH2 0x2BAD JUMPI PUSH1 0x0 DUP1 REVERT JUMPDEST PUSH2 0x2BB9 DUP8 DUP3 DUP9 ADD PUSH2 0x2957 JUMP JUMPDEST SWAP5 SWAP8 SWAP5 SWAP7 POP POP POP POP PUSH2 0x4020 DUP4 ADD CALLDATALOAD SWAP3 PUSH2 0x4040 ADD CALLDATALOAD SWAP2 SWAP1 POP JUMP JUMPDEST PUSH1 0x0 DUP1 PUSH1 0x40 DUP4 DUP6 SUB SLT ISZERO PUSH2 0x2BE5 JUMPI PUSH1 0x0 DUP1 REVERT JUMPDEST PUSH2 0x2BEE DUP4 PUSH2 0x2907 JUMP JUMPDEST SWAP5 PUSH1 0x20 SWAP4 SWAP1 SWAP4 ADD CALLDATALOAD SWAP4 POP POP POP JUMP JUMPDEST PUSH1 0x0 DUP1 PUSH1 0x0 PUSH2 0x4040 DUP5 DUP7 SUB SLT ISZERO PUSH2 0x2C12 JUMPI PUSH1 0x0 DUP1 REVERT JUMPDEST PUSH2 0x2C1C DUP6 DUP6 PUSH2 0x2945 JUMP JUMPDEST SWAP3 POP PUSH2 0x4000 DUP5 ADD CALLDATALOAD PUSH8 0xFFFFFFFFFFFFFFFF DUP2 GT ISZERO PUSH2 0x2C39 JUMPI PUSH1 0x0 DUP1 REVERT JUMPDEST PUSH2 0x2C45 DUP7 DUP3 DUP8 ADD PUSH2 0x2957 JUMP JUMPDEST SWAP3 POP POP PUSH2 0x4020 DUP5 ADD CALLDATALOAD SWAP1 POP SWAP3 POP SWAP3 POP SWAP3 JUMP JUMPDEST PUSH1 0x0 JUMPDEST DUP4 DUP2 LT ISZERO PUSH2 0x2C72 JUMPI DUP2 DUP2 ADD MLOAD DUP4 DUP3 ADD MSTORE PUSH1 0x20 ADD PUSH2 0x2C5A JUMP JUMPDEST POP POP PUSH1 0x0 SWAP2 ADD MSTORE JUMP JUMPDEST PUSH1 0x0 DUP2 MLOAD DUP1 DUP5 MSTORE PUSH2 0x2C93 DUP2 PUSH1 0x20 DUP7 ADD PUSH1 0x20 DUP7 ADD PUSH2 0x2C57 JUMP JUMPDEST PUSH1 0x1F ADD PUSH1 0x1F NOT AND SWAP3 SWAP1 SWAP3 ADD PUSH1 0x20 ADD SWAP3 SWAP2 POP POP JUMP JUMPDEST PUSH1 0x40 DUP2 MSTORE PUSH1 0x0 PUSH2 0x2CBA PUSH1 0x40 DUP4 ADD DUP6 PUSH2 0x2C7B JUMP JUMPDEST SWAP1 POP DUP3 PUSH1 0x20 DUP4 ADD MSTORE SWAP4 SWAP3 POP POP POP JUMP JUMPDEST PUSH1 0x0 PUSH1 0x20 DUP3 DUP5 SUB SLT ISZERO PUSH2 0x2CDB JUMPI PUSH1 0x0 DUP1 REVERT JUMPDEST POP CALLDATALOAD SWAP2 SWAP1 POP JUMP JUMPDEST PUSH1 0x60 SWAP2 SWAP1 SWAP2 SHL PUSH12 0xFFFFFFFFFFFFFFFFFFFFFFFF NOT AND DUP2 MSTORE PUSH1 0x14 ADD SWAP1 JUMP JUMPDEST DUP2 DUP4 MSTORE DUP2 DUP2 PUSH1 0x20 DUP6 ADD CALLDATACOPY POP PUSH1 0x0 DUP3 DUP3 ADD PUSH1 0x20 SWAP1 DUP2 ADD SWAP2 SWAP1 SWAP2 MSTORE PUSH1 0x1F SWAP1 SWAP2 ADD PUSH1 0x1F NOT AND SWAP1 SWAP2 ADD ADD SWAP1 JUMP JUMPDEST PUSH1 0x0 PUSH2 0x4060 DUP3 DUP2 ADD DUP4 DUP9 DUP5 JUMPDEST PUSH2 0x100 DUP2 LT ISZERO PUSH2 0x2D55 JUMPI PUSH1 0x40 DUP1 DUP4 DUP6 CALLDATACOPY SWAP3 DUP4 ADD SWAP3 SWAP2 SWAP1 SWAP2 ADD SWAP1 PUSH1 0x1 ADD PUSH2 0x2D34 JUMP JUMPDEST POP POP POP PUSH2 0x4000 DUP5 ADD SWAP2 SWAP1 SWAP2 MSTORE PUSH2 0x6060 DUP4 ADD DUP7 PUSH1 0x0 JUMPDEST PUSH2 0x100 DUP2 LT ISZERO PUSH2 0x2DE1 JUMPI DUP6 DUP4 SUB PUSH2 0x405F NOT ADD DUP5 MSTORE DUP2 CALLDATALOAD CALLDATASIZE DUP11 SWAP1 SUB PUSH1 0x1E NOT ADD DUP2 SLT PUSH2 0x2D93 JUMPI PUSH1 0x0 DUP1 REVERT JUMPDEST DUP10 ADD PUSH1 0x20 DUP2 DUP2 ADD SWAP2 CALLDATALOAD SWAP1 PUSH8 0xFFFFFFFFFFFFFFFF DUP3 GT ISZERO PUSH2 0x2DB2 JUMPI PUSH1 0x0 DUP1 REVERT JUMPDEST DUP2 CALLDATASIZE SUB DUP4 SGT ISZERO PUSH2 0x2DC1 JUMPI PUSH1 0x0 DUP1 REVERT JUMPDEST PUSH2 0x2DCC DUP7 DUP4 DUP6 PUSH2 0x2CFF JUMP JUMPDEST SWAP7 DUP2 ADD SWAP7 SWAP6 POP SWAP4 SWAP1 SWAP4 ADD SWAP3 POP POP PUSH1 0x1 ADD PUSH2 0x2D6A JUMP JUMPDEST POP POP DUP6 PUSH2 0x4020 DUP6 ADD MSTORE DUP4 DUP2 SUB PUSH2 0x4040 DUP6 ADD MSTORE PUSH2 0x2DFD DUP2 DUP7 PUSH2 0x2C7B JUMP JUMPDEST SWAP9 SWAP8 POP POP POP POP POP POP POP POP JUMP JUMPDEST PUSH1 0x0 PUSH1 0x20 DUP3 DUP5 SUB SLT ISZERO PUSH2 0x2E1B JUMPI PUSH1 0x0 DUP1 REVERT JUMPDEST DUP2 MLOAD DUP1 ISZERO ISZERO DUP2 EQ PUSH2 0x293E JUMPI PUSH1 0x0 DUP1 REVERT JUMPDEST PUSH1 0x20 DUP1 DUP3 MSTORE DUP2 DUP2 ADD MSTORE PUSH32 0x4C616D706F7274204D61737465722076616C69646174696F6E206661696C6564 PUSH1 0x40 DUP3 ADD MSTORE PUSH1 0x60 ADD SWAP1 JUMP JUMPDEST PUSH1 0x20 DUP1 DUP3 MSTORE PUSH1 0x21 SWAP1 DUP3 ADD MSTORE PUSH32 0x4E6F74207065726D697474656420746F206D6F646966792077686974656C6973 PUSH1 0x40 DUP3 ADD MSTORE PUSH1 0x1D PUSH1 0xFA SHL PUSH1 0x60 DUP3 ADD MSTORE PUSH1 0x80 ADD SWAP1 JUMP JUMPDEST PUSH1 0x0 DUP3 MLOAD PUSH2 0x2EB3 DUP2 DUP5 PUSH1 0x20 DUP8 ADD PUSH2 0x2C57 JUMP JUMPDEST SWAP2 SWAP1 SWAP2 ADD SWAP3 SWAP2 POP POP JUMP JUMPDEST PUSH1 0x1 DUP2 DUP2 SHR SWAP1 DUP3 AND DUP1 PUSH2 0x2ED1 JUMPI PUSH1 0x7F DUP3 AND SWAP2 POP JUMPDEST PUSH1 0x20 DUP3 LT DUP2 SUB PUSH2 0x2EF1 JUMPI PUSH4 0x4E487B71 PUSH1 0xE0 SHL PUSH1 0x0 MSTORE PUSH1 0x22 PUSH1 0x4 MSTORE PUSH1 0x24 PUSH1 0x0 REVERT JUMPDEST POP SWAP2 SWAP1 POP JUMP JUMPDEST PUSH1 0x1F DUP3 GT ISZERO PUSH2 0x2F43 JUMPI PUSH1 0x0 DUP2 PUSH1 0x0 MSTORE PUSH1 0x20 PUSH1 0x0 KECCAK256 PUSH1 0x1F DUP6 ADD PUSH1 0x5 SHR DUP2 ADD PUSH1 0x20 DUP7 LT ISZERO PUSH2 0x2F20 JUMPI POP DUP1 JUMPDEST PUSH1 0x1F DUP6 ADD PUSH1 0x5 SHR DUP3 ADD SWAP2 POP JUMPDEST DUP2 DUP2 LT ISZERO PUSH2 0x2F3F JUMPI DUP3 DUP2 SSTORE PUSH1 0x1 ADD PUSH2 0x2F2C JUMP JUMPDEST POP POP POP JUMPDEST POP POP POP JUMP JUMPDEST DUP2 MLOAD PUSH8 0xFFFFFFFFFFFFFFFF DUP2 GT ISZERO PUSH2 0x2F62 JUMPI PUSH2 0x2F62 PUSH2 0x29D6 JUMP JUMPDEST PUSH2 0x2F76 DUP2 PUSH2 0x2F70 DUP5 SLOAD PUSH2 0x2EBD JUMP JUMPDEST DUP5 PUSH2 0x2EF7 JUMP JUMPDEST PUSH1 0x20 DUP1 PUSH1 0x1F DUP4 GT PUSH1 0x1 DUP2 EQ PUSH2 0x2FAB JUMPI PUSH1 0x0 DUP5 ISZERO PUSH2 0x2F93 JUMPI POP DUP6 DUP4 ADD MLOAD JUMPDEST PUSH1 0x0 NOT PUSH1 0x3 DUP7 SWAP1 SHL SHR NOT AND PUSH1 0x1 DUP6 SWAP1 SHL OR DUP6 SSTORE PUSH2 0x2F3F JUMP JUMPDEST PUSH1 0x0 DUP6 DUP2 MSTORE PUSH1 0x20 DUP2 KECCAK256 PUSH1 0x1F NOT DUP7 AND SWAP2 JUMPDEST DUP3 DUP2 LT ISZERO PUSH2 0x2FDA JUMPI DUP9 DUP7 ADD MLOAD DUP3 SSTORE SWAP5 DUP5 ADD SWAP5 PUSH1 0x1 SWAP1 SWAP2 ADD SWAP1 DUP5 ADD PUSH2 0x2FBB JUMP JUMPDEST POP DUP6 DUP3 LT ISZERO PUSH2 0x2FF8 JUMPI DUP8 DUP6 ADD MLOAD PUSH1 0x0 NOT PUSH1 0x3 DUP9 SWAP1 SHL PUSH1 0xF8 AND SHR NOT AND DUP2 SSTORE JUMPDEST POP POP POP POP POP PUSH1 0x1 SWAP1 DUP2 SHL ADD SWAP1 SSTORE POP JUMP JUMPDEST PUSH4 0x4E487B71 PUSH1 0xE0 SHL PUSH1 0x0 MSTORE PUSH1 0x11 PUSH1 0x4 MSTORE PUSH1 0x24 PUSH1 0x0 REVERT JUMPDEST DUP2 DUP2 SUB DUP2 DUP2 GT ISZERO PUSH2 0x1569 JUMPI PUSH2 0x1569 PUSH2 0x3008 JUMP JUMPDEST PUSH4 0x4E487B71 PUSH1 0xE0 SHL PUSH1 0x0 MSTORE PUSH1 0x32 PUSH1 0x4 MSTORE PUSH1 0x24 PUSH1 0x0 REVERT JUMPDEST DUP1 DUP3 ADD DUP1 DUP3 GT ISZERO PUSH2 0x1569 JUMPI PUSH2 0x1569 PUSH2 0x3008 JUMP JUMPDEST PUSH4 0x4E487B71 PUSH1 0xE0 SHL PUSH1 0x0 MSTORE PUSH1 0x12 PUSH1 0x4 MSTORE PUSH1 0x24 PUSH1 0x0 REVERT JUMPDEST PUSH1 0x0 DUP3 PUSH2 0x307F JUMPI PUSH2 0x307F PUSH2 0x305A JUMP JUMPDEST POP MOD SWAP1 JUMP JUMPDEST PUSH1 0x0 DUP2 DUP4 DUP3 JUMPDEST PUSH2 0x100 DUP2 LT ISZERO PUSH2 0x30AB JUMPI PUSH1 0x40 DUP1 DUP4 DUP6 CALLDATACOPY SWAP3 DUP4 ADD SWAP3 SWAP2 SWAP1 SWAP2 ADD SWAP1 PUSH1 0x1 ADD PUSH2 0x308A JUMP JUMPDEST POP POP POP PUSH2 0x4000 DUP3 ADD SWAP1 POP SWAP3 SWAP2 POP POP JUMP JUMPDEST PUSH1 0x20 DUP1 DUP3 MSTORE PUSH1 0x41 SWAP1 DUP3 ADD MSTORE PUSH32 0x4C616D706F7274426173653A2043616E6E6F7420757365207468652073616D65 PUSH1 0x40 DUP3 ADD MSTORE PUSH32 0x206B6579636861696E20747769636520666F7220746869732066756E6374696F PUSH1 0x60 DUP3 ADD MSTORE PUSH1 0x37 PUSH1 0xF9 SHL PUSH1 0x80 DUP3 ADD MSTORE PUSH1 0xA0 ADD SWAP1 JUMP JUMPDEST PUSH32 0x4F6E6C7920546865526F636B2063616E2063616C6C20746869732066756E6374 DUP2 MSTORE PUSH13 0x34B7B7171021B0B63632B91D1 PUSH1 0x9D SHL PUSH1 0x20 DUP3 ADD MSTORE PUSH1 0x0 DUP3 MLOAD PUSH2 0x3170 DUP2 PUSH1 0x2D DUP6 ADD PUSH1 0x20 DUP8 ADD PUSH2 0x2C57 JUMP JUMPDEST SWAP2 SWAP1 SWAP2 ADD PUSH1 0x2D ADD SWAP3 SWAP2 POP POP JUMP JUMPDEST PUSH1 0x20 DUP2 MSTORE PUSH1 0x0 PUSH2 0x293E PUSH1 0x20 DUP4 ADD DUP5 PUSH2 0x2C7B JUMP JUMPDEST PUSH1 0x0 PUSH1 0x1 DUP3 ADD PUSH2 0x31A2 JUMPI PUSH2 0x31A2 PUSH2 0x3008 JUMP JUMPDEST POP PUSH1 0x1 ADD SWAP1 JUMP JUMPDEST PUSH1 0x0 DUP3 PUSH2 0x31B8 JUMPI PUSH2 0x31B8 PUSH2 0x305A JUMP JUMPDEST POP DIV SWAP1 JUMP JUMPDEST DUP1 DUP3 MUL DUP2 ISZERO DUP3 DUP3 DIV DUP5 EQ OR PUSH2 0x1569 JUMPI PUSH2 0x1569 PUSH2 0x3008 JUMP INVALID LOG2 PUSH5 0x6970667358 0x22 SLT KECCAK256 PUSH10 0x6F5E50F36BFED4F3A40E ISZERO PUSH26 0x251033997CED1F15B31D02254FE40BAFA548A264736F6C634300 ADDMOD XOR STOP CALLER ","sha1":"d218a9120726a38b10896058837e3883ea1d88f4","source":"// SPDX-License-Identifier: MIT\npragma solidity ^0.8.1;\n\ninterface ILamportBase {\n    function performLamportMasterCheck(\n        bytes32[2][256] calldata currentpub,\n        bytes[256] calldata sig,\n        bytes32 nextPKH,\n        bytes memory prepacked\n    ) external returns (bool);\n\n    function performLamportOracleCheck(\n        bytes32[2][256] calldata currentpub,\n        bytes[256] calldata sig,\n        bytes32 nextPKH,\n        bytes memory prepacked\n    ) external returns (bool);\n\n    function getPKHsByPrivilege(uint8 privilege) external view returns (bytes32[] memory);\n}\ncontract AnonIDContract {\n\n    ILamportBase public lamportBase;\n\n    event LogLastCalculatedHash(uint256 hash);\n\n    // free transactional quota section\n\n    struct UserQuota {\n        uint256 start; // Index of the oldest timestamp\n        uint256 count; // Current count of timestamps\n    }\n\n    mapping(address => UserQuota) private userQuotaInfo;\n    mapping(address => uint256[500]) private userTxTimestamps; // Example with max 500 transactions\n    mapping(address => uint256) public hourlyTxQuota;\n    mapping(address => LastPlayedInfo) public lastPlayed;\n\n    event TxRecorded(address indexed _user, uint256 timestamp);\n    event QuotaSet(address indexed _address, uint256 _quota);\n\n    // permissions\n\n    mapping(address => bool) public isContractPermitted;\n    mapping(address => bool) public whitelist;\n\n    event VerificationFailed(uint256 hashedData);\n    event Whitelisted(address indexed _address, bytes32 hashedID);\n    event RemovedFromWhitelist(address indexed _address);\n    event ContractCreated(address indexed contractAddress);\n\n    bool public lastVerificationResult;\n\n    // profile things\n\n    mapping(address => uint256) public minutesPlayed;\n    mapping(address => uint256) public lastClaim;\n    mapping(address => uint256) public lastLastClaim;\n    mapping(address => bytes32) public addressToHashedID;\n    mapping(bytes32 => address) public hashedIDToAddress;\n    mapping(bytes32 => uint256) private lastUpdateByHashedID;\n    mapping(address => uint256) private lastMinutesUpdateTimestamp;\n\n\n\n    event MinutesPlayedIncremented(address indexed user, uint256 _minutes);\n    event ClaimedGP(address indexed userAddress, uint256 lastClaimValue, uint256 minutesPlayed);\n\n    struct LastPlayedInfo {\n        string gameId;\n        uint256 timestamp;\n    }\n\n\n    // globals\n\n    uint256 private lastUsedFreeGasCap;\n    address private lastUsedContractAddress;\n    address private lastUsedContractAddressForRevoke;\n    bytes32 private storedNextPKH;\n\n\n    uint256 public freeGasCap; // Add this state variable for freeGasFee\n    bytes32 public lastUsedBytecodeHash;\n\n    event ContractPermissionGranted(address contractAddress);\n    event ContractPermissionRevoked(address contractAddress);\n    event FreeGasCapSet(uint256 newFreeGasCap);\n \n    // commission section\n\n    event CommissionSet(uint256 newCoinCommission);\n    event CommissionAddressSet(address indexed newCommissionAddress);\n\n    uint256 public _coinCommission;\n    \n    address private _commissionAddress; // ideally make this a quantum-hard contract, commissions go here\n    uint256 private lastUsedCommission;\n    bytes32 private lastUsedCommissionAddressHash;\n\n    constructor() {\n\n        _commissionAddress = 0xfd003CA44BbF4E9fB0b2fF1a33fc2F05A6C2EFF9;\n        lamportBase = ILamportBase(0x0759a02f763375305aef8b3afb0051eDe0c0577f);\n    }\n\n\n\n\n    //AnonID functions\n    function setCoinCommissionStepOne(\n        bytes32[2][256] calldata currentpub,\n        bytes[256] calldata sig,\n        bytes32 nextPKH,\n        uint256 newCoinCommission\n    )\n        public\n    {\n        // Convert the new commission to bytes and pass it to performLamportMasterCheck\n        bytes memory prepacked = abi.encodePacked(newCoinCommission);\n        \n        // Perform the Lamport Master check\n        bool lamportCheckPassed = lamportBase.performLamportMasterCheck(\n            currentpub, \n            sig, \n            nextPKH, \n            prepacked\n        );\n        \n        // Require that the Lamport Master check passes\n        require(lamportCheckPassed, \"Lamport Master validation failed\");\n        \n        // Proceed with updating the commission\n        lastUsedCommission = newCoinCommission;\n        storedNextPKH = nextPKH;\n\n    }\n\n    function setCoinCommissionStepTwo(\n        bytes32[2][256] calldata currentpub,\n        bytes[256] calldata sig,\n        bytes32 nextPKH,\n        uint256 newCoinCommission\n    )\n        public\n    {\n        bytes32 currentPKH = keccak256(abi.encodePacked(currentpub));\n        \n        require(currentPKH != storedNextPKH, \"LamportBase: Cannot use the same keychain twice for this function\");\n\n        // Convert the new commission to bytes and pass it to performLamportMasterCheck\n        bytes memory prepacked = abi.encodePacked(newCoinCommission);\n        \n        // Perform the Lamport Master check\n        bool lamportCheckPassed = lamportBase.performLamportMasterCheck(\n            currentpub, \n            sig, \n            nextPKH, \n            prepacked\n        );\n\n        // Require that the Lamport Master check passes\n        require(lamportCheckPassed, \"Lamport Master validation failed\");\n\n        // Check the commission range and match with last used commission\n        require(newCoinCommission >= 0 && newCoinCommission <= 20, \"Commission should be between 0% and 20%\");\n        require(newCoinCommission == lastUsedCommission, \"Mismatched commission values between steps\");\n\n        // Update the coin commission\n        _coinCommission = newCoinCommission;\n\n        // Reset the temporary variable\n        lastUsedCommission = 0;\n        storedNextPKH = bytes32(0);\n\n        emit CommissionSet(newCoinCommission);\n    }\n    function commissionAddress() public view returns (address) {\n        return _commissionAddress;\n    }\n    function coinCommission() public view returns (uint256) {\n        return _coinCommission;\n    }\n\n    // Assuming there's a mapping to track the last mint time for each player in each game\n    // Mapping for each player's last played information\n\n    function isPlayerActiveInGame(string memory gameID, address player) public view returns (uint8) {\n        LastPlayedInfo memory lastPlayedInfo = lastPlayed[player];\n        bool isWithinTimeLimit = block.timestamp - lastPlayedInfo.timestamp < 8 minutes;\n\n        // Compare keccak256 hash of strings\n        if (isWithinTimeLimit && keccak256(abi.encodePacked(lastPlayedInfo.gameId)) == keccak256(abi.encodePacked(gameID))) {\n            return 2; // Player is active in this game and recently minted\n        } else if (isWithinTimeLimit && keccak256(abi.encodePacked(lastPlayedInfo.gameId)) != keccak256(abi.encodePacked(gameID))) {\n            return 1; // Player is active but in a different game\n        }\n        return 0; // Player is not currently active\n    }\n\n    function addToWhitelist(address _address, string memory anonID) external {\n        require(isContractPermitted[msg.sender], \"Not permitted to modify whitelist\");\n        \n        bytes32 hashedID = keccak256(abi.encodePacked(anonID));\n\n        // Ensure the address is not already whitelisted\n        require(!whitelist[_address], \"Address already whitelisted\");\n\n        // Ensure the hashedID is not already associated with another address\n        require(hashedIDToAddress[hashedID] == address(0) || hashedIDToAddress[hashedID] == _address, \"hashedID already in use\");\n\n        // Initialize the hourly transaction quota for the address\n        hourlyTxQuota[_address] = 5; // Adjust as needed\n\n        // Whitelist the address\n        whitelist[_address] = true;\n\n        // Update the address to hashedID mapping and the reverse mapping\n        addressToHashedID[_address] = hashedID;\n        hashedIDToAddress[hashedID] = _address;\n\n        emit Whitelisted(_address, hashedID);\n    }\n\n\n    function updateAnonID(string memory anonID, address newAddress) external {\n\n        require(isContractPermitted[msg.sender], \"Not permitted to modify whitelist\");\n        require(newAddress != address(0), \"New address cannot be zero address\");\n        bytes32 hashedID = keccak256(abi.encodePacked(anonID));\n        \n        // Ensure that the hashedID is already registered\n        require(hashedIDToAddress[hashedID] != address(0), \"hashedID not registered\");\n        \n        // Ensure that only the current address associated with the hashedID can update it\n        require(msg.sender == hashedIDToAddress[hashedID], \"Only current address can update\");\n        \n        // Check for the day-long timeout\n        uint256 lastUpdate = lastUpdateByHashedID[hashedID];\n        require(lastUpdate == 0 || block.timestamp - lastUpdate >= 1 days, \"Update timeout not yet passed\");\n        \n        // Make sure the new address is not already associated with a different hashedID\n        require(addressToHashedID[newAddress] == 0 || addressToHashedID[newAddress] == hashedID, \"New address already associated with a different hashedID\");\n\n        // Remove the old address from the whitelist\n        address oldAddress = hashedIDToAddress[hashedID];\n        whitelist[oldAddress] = false;\n        delete addressToHashedID[oldAddress];\n        \n        // Update the whitelist and mappings with the new address\n        whitelist[newAddress] = true;\n        addressToHashedID[newAddress] = hashedID;\n        hashedIDToAddress[hashedID] = newAddress;\n        \n        // Update the last update time\n        lastUpdateByHashedID[hashedID] = block.timestamp;\n        \n        // Emit events as necessary\n        emit RemovedFromWhitelist(oldAddress);\n        emit Whitelisted(newAddress, hashedID);\n    }\n\n    function setHourlyTxQuota(address _address, uint256 _quota) external {\n        require(isContractPermitted[msg.sender], \"Not permitted to modify hourly transaction quota\");\n\n        // Ensure the address is indeed whitelisted before setting the quota\n        require(whitelist[_address], \"Address not found in whitelist\");\n\n        // Set the hourly transaction quota for the address\n        hourlyTxQuota[_address] = _quota;\n        emit QuotaSet(_address, _quota);\n\n    }\n\n    function toHexString(address _address) internal pure returns (string memory) {\n        bytes32 value = bytes32(uint256(uint160(_address)));\n        bytes memory alphabet = \"0123456789abcdef\";\n        bytes memory str = new bytes(42);\n\n        str[0] = '0';\n        str[1] = 'x';\n\n        for (uint256 i = 0; i < 20; i++) {\n            str[2+i*2] = alphabet[uint8(value[i + 12] >> 4)];\n            str[3+i*2] = alphabet[uint8(value[i + 12] & 0x0f)];\n        }\n\n        return string(str);\n    }\n    function isThisTxFree(address _user) external returns (bool) {\n        // Ensure only TheRock can call this function\n        require(msg.sender == 0x2685751d3C7A49EbF485e823079ac65e2A35A3DD,\n                string(abi.encodePacked(\"Only TheRock can call this function. Caller: \", toHexString(msg.sender))));\n\n        // Check if the user is whitelisted\n        if (!whitelist[_user]) {\n            return false;\n        }\n\n        // Return false if quota is zero\n        if (hourlyTxQuota[_user] == 0) {\n            return false;\n        }\n\n        UserQuota storage quotaInfo = userQuotaInfo[_user];\n        uint256[500] storage timestamps = userTxTimestamps[_user];\n\n        // Check if quota is exceeded within the last hour\n        if (quotaInfo.count >= hourlyTxQuota[_user]) {\n            uint256 oldestTimestampIndex = quotaInfo.start;\n            if (block.timestamp - timestamps[oldestTimestampIndex] <= 1 hours) {\n                // Quota exceeded, as the oldest transaction is within the last hour\n                return false;\n            }\n\n            // Move the start index forward as we will overwrite the oldest timestamp\n            quotaInfo.start = (quotaInfo.start + 1) % hourlyTxQuota[_user];\n        } else {\n            // Increment the count if the buffer is not full\n            quotaInfo.count++;\n        }\n\n        // Add the new transaction timestamp\n        uint256 newIndex = (quotaInfo.start + quotaInfo.count - 1) % hourlyTxQuota[_user];\n        timestamps[newIndex] = block.timestamp;\n\n        emit TxRecorded(_user, block.timestamp);\n        return true;\n    }\n\n    function getRemainingTxQuota(address _user) public view returns (uint256) {\n        // Check if the user is whitelisted\n        if (!whitelist[_user]) {\n            return 0;  // Not whitelisted, so no quota\n        }\n\n        // Get user's quota and transaction timestamps\n        uint256 quota = hourlyTxQuota[_user];\n        UserQuota storage quotaInfo = userQuotaInfo[_user];\n        uint256[500] storage timestamps = userTxTimestamps[_user];\n\n        // If quota buffer is not full, return the remaining quota\n        if (quotaInfo.count < quota) {\n            return quota - quotaInfo.count;\n        }\n\n        // If buffer is full, check the timestamp of the oldest transaction\n        uint256 oldestTimestampIndex = quotaInfo.start;\n        if (block.timestamp - timestamps[oldestTimestampIndex] > 1 hours) {\n            // The oldest transaction is older than an hour, so full quota is available\n            return quota;\n        }\n\n        // Calculate remaining quota based on the timestamp of the next oldest transaction\n        uint256 nextOldestIndex = (quotaInfo.start + 1) % quota;\n        if (block.timestamp - timestamps[nextOldestIndex] > 1 hours) {\n            return quota - 1; // One transaction will be available when the oldest timestamp expires\n        }\n\n        // If none of the above conditions are met, no transactions are available this hour\n        return 0;\n    }\n\n// Remove an address from the whitelist\n    function removeFromWhitelist(address _address) external {\n        require(isContractPermitted[msg.sender], \"Not permitted to modify whitelist\");\n\n        // Ensure the address is indeed whitelisted before removing\n        require(whitelist[_address], \"Address not found in whitelist\");\n\n        // Remove the address from the whitelist\n        whitelist[_address] = false;\n\n        // Remove the address and hashedID association from the addressToHashedID mapping\n        delete addressToHashedID[_address];\n        emit RemovedFromWhitelist(_address);\n\n    }\n\n    function incrementMinutesPlayed(address user, uint256 __minutes) external {\n        require(isContractPermitted[msg.sender], \"Not permitted to modify minutes played\");\n        require(__minutes <= 200, \"Cannot add more than 200 minutes at a time\");\n\n        uint256 currentTime = block.timestamp;\n        uint256 lastUpdate = lastMinutesUpdateTimestamp[user];\n        // Calculate the time difference in minutes since the last update.\n        uint256 timeDifference = (currentTime - lastUpdate) / 60;\n\n        if (__minutes == 200) {\n            // For the maximum allowed increment, ensure at least 198 minutes have passed.\n            require(timeDifference >= 198, \"Insufficient time passed for large increment\");\n        } else if (__minutes > 5 && __minutes < 200) {\n            // For intermediate increments, allow 2 minutes less than the increment itself.\n            require(timeDifference >= __minutes - 2, \"Insufficient time passed for this increment\");\n        } else if (__minutes <= 5) {\n            // For small increments up to 5 minutes, allow updates every 3 minutes to provide wiggle room.\n            require(timeDifference >= 3, \"Update frequency too high for small increment\");\n        }\n\n        // Update the minutes played.\n        minutesPlayed[user] += __minutes;\n        // Update the last update timestamp to the current time.\n        lastMinutesUpdateTimestamp[user] = currentTime;\n\n        emit MinutesPlayedIncremented(user, __minutes);\n    }\n\n\n    function updateLastPlayed(address _address, string memory _gameId) external {\n        require(isContractPermitted[msg.sender], \"Not permitted to update last played\");\n\n        lastPlayed[_address] = LastPlayedInfo({\n            gameId: _gameId,\n            timestamp: block.timestamp\n        });\n\n    }\n    // Function to get the minutes played by a user\n    function getMinutesPlayed(address user) external view returns (uint256) {\n        return minutesPlayed[user];\n    }\n // New function to check if an address is whitelisted\n    function isWhitelisted(address _address) external view returns (bool) {\n        return whitelist[_address];\n    }\n    function claimGP() external {\n        // The invoking address is the user's address\n        address userAddress = msg.sender;\n\n        // Check if the user's address is whitelisted\n        require(whitelist[userAddress], \"User is not whitelisted\");\n\n        // Use the user's address to fetch lastClaim and lastLastClaim from AnonID contract\n        uint256 lastClaimValue = lastClaim[userAddress];\n        uint256 lastLastClaimValue = lastLastClaim[userAddress];\n        \n        require(lastClaimValue >= lastLastClaimValue, \"Invalid claim values\");\n\n        lastLastClaim[userAddress] = lastClaimValue;\n        lastClaim[userAddress] = minutesPlayed[userAddress];  // Update with the current minutes played\n        emit ClaimedGP(userAddress, lastClaimValue, minutesPlayed[userAddress]);\n\n    }\n    // Step One: Store the contract address temporarily\n    function grantActivityContractPermissionStepOne(\n        bytes32[2][256] calldata currentpub,\n        bytes[256] calldata sig,\n        bytes32 nextPKH,\n        address contractAddress\n    )\n        public\n    {\n        // Convert the contract address to bytes and pass it to performLamportMasterCheck\n        bytes memory prepacked = abi.encodePacked(contractAddress);\n\n        // Perform the Lamport Master check\n        bool lamportCheckPassed = lamportBase.performLamportMasterCheck(\n            currentpub, \n            sig, \n            nextPKH, \n            prepacked\n        );\n\n        // Require that the Lamport Master check passes\n        require(lamportCheckPassed, \"Lamport Master validation failed\");\n\n        // Save the contract address for the next step\n        lastUsedContractAddress = contractAddress;\n        storedNextPKH = nextPKH;\n    }\n    // Step Two: Apply the permission to the stored contract address\n    function grantActivityContractPermissionStepTwo(\n        bytes32[2][256] calldata currentpub,\n        bytes[256] calldata sig,\n        bytes32 nextPKH\n    )\n        public\n    {\n        bytes32 currentPKH = keccak256(abi.encodePacked(currentpub));\n        \n        require(currentPKH != storedNextPKH, \"LamportBase: Cannot use the same keychain twice for this function\");\n\n        // Convert the last used contract address to bytes and pass it to performLamportMasterCheck\n        bytes memory prepacked = abi.encodePacked(lastUsedContractAddress);\n\n        // Perform the Lamport Master check\n        bool lamportCheckPassed = lamportBase.performLamportMasterCheck(\n            currentpub, \n            sig, \n            nextPKH, \n            prepacked\n        );\n\n        // Require that the Lamport Master check passes\n        require(lamportCheckPassed, \"Lamport Master validation failed\");\n\n        // Grant permission to the contract address\n        isContractPermitted[lastUsedContractAddress] = true;\n        emit ContractPermissionGranted(lastUsedContractAddress);\n    }\n    // Step One: Store the contract address temporarily\n    function revokeActivityContractPermissionStepOne(\n        bytes32[2][256] calldata currentpub,\n        bytes[256] calldata sig,\n        bytes32 nextPKH,\n        address contractAddress\n    )\n        public\n    {\n        // Perform the Lamport Master check\n        bool lamportCheckPassed = lamportBase.performLamportMasterCheck(\n            currentpub, \n            sig, \n            nextPKH, \n            abi.encodePacked(contractAddress)\n        );\n\n        require(lamportCheckPassed, \"Lamport Master validation failed\");\n\n        lastUsedContractAddressForRevoke = contractAddress;\n        storedNextPKH = nextPKH;\n    }\n\n    // Step Two: Revoke the permission for the stored contract address\n    function revokeActivityContractPermissionStepTwo(\n        bytes32[2][256] calldata currentpub,\n        bytes[256] calldata sig,\n        bytes32 nextPKH\n    )\n        public\n    {\n        bytes32 currentPKH = keccak256(abi.encodePacked(currentpub));\n        \n        require(currentPKH != storedNextPKH, \"LamportBase: Cannot use the same keychain twice for this function\");\n\n        \n        // Convert the last used contract address for revoking to bytes and pass it to performLamportMasterCheck\n        bytes memory prepacked = abi.encodePacked(lastUsedContractAddressForRevoke);\n\n        // Perform the Lamport Master check\n        bool lamportCheckPassed = lamportBase.performLamportMasterCheck(\n            currentpub, \n            sig, \n            nextPKH, \n            prepacked\n        );\n\n        require(lamportCheckPassed, \"Lamport Master validation failed\");\n\n        isContractPermitted[lastUsedContractAddressForRevoke] = false;\n        storedNextPKH = bytes32(0);\n\n\n        emit ContractPermissionRevoked(lastUsedContractAddressForRevoke);\n    }\n    \n\n    // Step 1: Temporarily store the hash of the new commission address\n    function setCommissionAddressStepOne(\n        bytes32[2][256] calldata currentpub,\n        bytes[256] calldata sig,\n        bytes32 nextPKH,\n        address newCommissionAddress\n    ) public {\n        // Perform the Lamport Master check\n        bool lamportCheckPassed = lamportBase.performLamportMasterCheck(\n            currentpub, \n            sig, \n            nextPKH, \n            abi.encodePacked(newCommissionAddress)\n        );\n\n        require(lamportCheckPassed, \"Lamport Master validation failed\");\n\n        // Save the hash of the new commission address\n        lastUsedCommissionAddressHash = keccak256(abi.encodePacked(newCommissionAddress));\n        storedNextPKH = nextPKH;\n\n    }\n\n    // Step 2: Verify and set the commissionAddress\n    function setCommissionAddressStepTwo(\n        bytes32[2][256] calldata currentpub,\n        bytes[256] calldata sig,\n        bytes32 nextPKH,\n        address newCommissionAddress\n    ) public {\n\n        bytes32 currentPKH = keccak256(abi.encodePacked(currentpub));\n        \n        require(currentPKH != storedNextPKH, \"LamportBase: Cannot use the same keychain twice for this function\");\n\n        // Convert the new commission address to bytes and pass it to performLamportMasterCheck\n        bytes memory prepacked = abi.encodePacked(newCommissionAddress);\n\n        // Perform the Lamport Master check\n        bool lamportCheckPassed = lamportBase.performLamportMasterCheck(\n            currentpub, \n            sig, \n            nextPKH, \n            prepacked\n        );\n\n        require(lamportCheckPassed, \"Lamport Master validation failed\");\n\n        // Verify the hash of the new commission address matches the saved hash\n        require(\n            keccak256(prepacked) == lastUsedCommissionAddressHash,\n            \"Mismatched commission address\"\n        );\n\n        // Update the commission address\n        _commissionAddress = newCommissionAddress;\n        storedNextPKH = bytes32(0);\n\n        // Emit an event if needed\n        // emit CommissionAddressSet(newCommissionAddress);\n    }\n\n    function createContractStepOne(\n        bytes32[2][256] calldata currentpub,\n        bytes[256] calldata sig,\n        bytes32 nextPKH,\n        bytes32 bytecodeKeccak\n    ) public {\n        // Perform the Lamport Master check\n        bool lamportCheckPassed = lamportBase.performLamportMasterCheck(\n            currentpub, \n            sig, \n            nextPKH, \n            abi.encodePacked(bytecodeKeccak)\n        );\n\n        require(lamportCheckPassed, \"Lamport Master validation failed\");\n\n        // Save the hash of the bytecode in a global variable\n        lastUsedBytecodeHash = bytecodeKeccak;\n        storedNextPKH = nextPKH;\n\n    }\n    function createContractStepTwo(\n        bytes32[2][256] calldata currentpub,\n        bytes[256] calldata sig,\n        bytes32 nextPKH,\n        bytes32 bytecodeKeccak\n    ) public {\n        // Perform the Lamport Master check\n        bool lamportCheckPassed = lamportBase.performLamportMasterCheck(\n            currentpub, \n            sig, \n            nextPKH, \n            abi.encodePacked(bytecodeKeccak)\n        );\n\n        bytes32 currentPKH = keccak256(abi.encodePacked(currentpub));\n        \n        require(currentPKH != storedNextPKH, \"LamportBase: Cannot use the same keychain twice for this function\");\n\n        require(lamportCheckPassed, \"Lamport Master validation failed\");\n\n        // Save the hash of the bytecode in a global variable\n        lastUsedBytecodeHash = bytecodeKeccak;\n        storedNextPKH = bytes32(0);\n\n    }\n\n    function createContractStepThree(\n        bytes memory bytecode\n    ) public returns (address) {\n        // Verify bytecode hash matches\n        require(keccak256(bytecode) == lastUsedBytecodeHash, \"Bytecode does not match previously provided hash.\");\n        \n        address newContract;\n        assembly {\n            newContract := create(0, add(bytecode, 0x20), mload(bytecode))\n        }\n        require(newContract != address(0), \"Contract creation failed\");\n\n        // Emitting the ContractCreated event\n        emit ContractCreated(newContract);\n\n        return newContract;\n    }\n    function setFreeGasCapStepOne(\n        bytes32[2][256] calldata currentpub,\n        bytes[256] calldata sig,\n        bytes32 nextPKH,\n        uint256 _newCap\n    ) public {\n        // Perform the Lamport Master check\n        bool lamportCheckPassed = lamportBase.performLamportMasterCheck(\n            currentpub, \n            sig, \n            nextPKH, \n            abi.encodePacked(_newCap)\n        );\n\n        require(lamportCheckPassed, \"Lamport Master validation failed\");\n\n        // Save the new free gas cap in a global variable\n        lastUsedFreeGasCap = _newCap;\n        storedNextPKH = nextPKH;\n\n    }\n\n\n    // Step Two: Apply the new value\n    function setFreeGasCapStepTwo(\n        bytes32[2][256] calldata currentpub,\n        bytes[256] calldata sig,\n        bytes32 nextPKH\n    ) public {\n        // Perform the Lamport Master check again\n        bool lamportCheckPassed = lamportBase.performLamportMasterCheck(\n            currentpub, \n            sig, \n            nextPKH, \n            abi.encodePacked(lastUsedFreeGasCap)\n        );\n        bytes32 currentPKH = keccak256(abi.encodePacked(currentpub));\n        \n        require(currentPKH != storedNextPKH, \"LamportBase: Cannot use the same keychain twice for this function\");\n\n        require(lamportCheckPassed, \"Lamport Master validation failed\");\n\n        // Apply the new free gas cap\n        freeGasCap = lastUsedFreeGasCap;\n        emit FreeGasCapSet(lastUsedFreeGasCap);\n        storedNextPKH = bytes32(0);\n\n    }\n\n}\n","sourcePath":"contracts/AnonID_noinit_1_10_noLamport.sol","deployment":{"address":"0xF3A99A9a2836a6fcFcEB846161B900B3d1447236","chainid":"86098","blockHeight":153670}}