{
  "abi": [
    {
      "inputs": [],
      "stateMutability": "nonpayable",
      "type": "constructor"
    },
    {
      "anonymous": false,
      "inputs": [
        {
          "indexed": true,
          "internalType": "address",
          "name": "userAddress",
          "type": "address"
        },
        {
          "indexed": false,
          "internalType": "uint256",
          "name": "lastClaimValue",
          "type": "uint256"
        },
        {
          "indexed": false,
          "internalType": "uint256",
          "name": "minutesPlayed",
          "type": "uint256"
        }
      ],
      "name": "ClaimedGP",
      "type": "event"
    },
    {
      "anonymous": false,
      "inputs": [
        {
          "indexed": true,
          "internalType": "address",
          "name": "newCommissionAddress",
          "type": "address"
        }
      ],
      "name": "CommissionAddressSet",
      "type": "event"
    },
    {
      "anonymous": false,
      "inputs": [
        {
          "indexed": false,
          "internalType": "uint256",
          "name": "newCoinCommission",
          "type": "uint256"
        }
      ],
      "name": "CommissionSet",
      "type": "event"
    },
    {
      "anonymous": false,
      "inputs": [
        {
          "indexed": true,
          "internalType": "address",
          "name": "contractAddress",
          "type": "address"
        }
      ],
      "name": "ContractCreated",
      "type": "event"
    },
    {
      "anonymous": false,
      "inputs": [
        {
          "indexed": false,
          "internalType": "address",
          "name": "contractAddress",
          "type": "address"
        }
      ],
      "name": "ContractPermissionGranted",
      "type": "event"
    },
    {
      "anonymous": false,
      "inputs": [
        {
          "indexed": false,
          "internalType": "address",
          "name": "contractAddress",
          "type": "address"
        }
      ],
      "name": "ContractPermissionRevoked",
      "type": "event"
    },
    {
      "anonymous": false,
      "inputs": [
        {
          "indexed": false,
          "internalType": "uint256",
          "name": "newFreeGasCap",
          "type": "uint256"
        }
      ],
      "name": "FreeGasCapSet",
      "type": "event"
    },
    {
      "anonymous": false,
      "inputs": [
        {
          "indexed": false,
          "internalType": "uint256",
          "name": "hash",
          "type": "uint256"
        }
      ],
      "name": "LogLastCalculatedHash",
      "type": "event"
    },
    {
      "anonymous": false,
      "inputs": [
        {
          "indexed": true,
          "internalType": "address",
          "name": "user",
          "type": "address"
        },
        {
          "indexed": false,
          "internalType": "uint256",
          "name": "_minutes",
          "type": "uint256"
        }
      ],
      "name": "MinutesPlayedIncremented",
      "type": "event"
    },
    {
      "anonymous": false,
      "inputs": [
        {
          "indexed": true,
          "internalType": "address",
          "name": "_address",
          "type": "address"
        },
        {
          "indexed": false,
          "internalType": "uint256",
          "name": "_quota",
          "type": "uint256"
        }
      ],
      "name": "QuotaSet",
      "type": "event"
    },
    {
      "anonymous": false,
      "inputs": [
        {
          "indexed": true,
          "internalType": "address",
          "name": "_address",
          "type": "address"
        }
      ],
      "name": "RemovedFromWhitelist",
      "type": "event"
    },
    {
      "anonymous": false,
      "inputs": [
        {
          "indexed": true,
          "internalType": "address",
          "name": "_user",
          "type": "address"
        },
        {
          "indexed": false,
          "internalType": "uint256",
          "name": "timestamp",
          "type": "uint256"
        }
      ],
      "name": "TxRecorded",
      "type": "event"
    },
    {
      "anonymous": false,
      "inputs": [
        {
          "indexed": false,
          "internalType": "uint256",
          "name": "hashedData",
          "type": "uint256"
        }
      ],
      "name": "VerificationFailed",
      "type": "event"
    },
    {
      "anonymous": false,
      "inputs": [
        {
          "indexed": true,
          "internalType": "address",
          "name": "_address",
          "type": "address"
        },
        {
          "indexed": false,
          "internalType": "bytes32",
          "name": "hashedID",
          "type": "bytes32"
        }
      ],
      "name": "Whitelisted",
      "type": "event"
    },
    {
      "inputs": [],
      "name": "_coinCommission",
      "outputs": [
        {
          "internalType": "uint256",
          "name": "",
          "type": "uint256"
        }
      ],
      "stateMutability": "view",
      "type": "function"
    },
    {
      "inputs": [
        {
          "internalType": "address",
          "name": "_address",
          "type": "address"
        },
        {
          "internalType": "string",
          "name": "anonID",
          "type": "string"
        }
      ],
      "name": "addToWhitelist",
      "outputs": [],
      "stateMutability": "nonpayable",
      "type": "function"
    },
    {
      "inputs": [
        {
          "internalType": "address",
          "name": "",
          "type": "address"
        }
      ],
      "name": "addressToHashedID",
      "outputs": [
        {
          "internalType": "bytes32",
          "name": "",
          "type": "bytes32"
        }
      ],
      "stateMutability": "view",
      "type": "function"
    },
    {
      "inputs": [],
      "name": "claimGP",
      "outputs": [],
      "stateMutability": "nonpayable",
      "type": "function"
    },
    {
      "inputs": [],
      "name": "coinCommission",
      "outputs": [
        {
          "internalType": "uint256",
          "name": "",
          "type": "uint256"
        }
      ],
      "stateMutability": "view",
      "type": "function"
    },
    {
      "inputs": [],
      "name": "commissionAddress",
      "outputs": [
        {
          "internalType": "address",
          "name": "",
          "type": "address"
        }
      ],
      "stateMutability": "view",
      "type": "function"
    },
    {
      "inputs": [
        {
          "internalType": "bytes32[2][256]",
          "name": "currentpub",
          "type": "bytes32[2][256]"
        },
        {
          "internalType": "bytes[256]",
          "name": "sig",
          "type": "bytes[256]"
        },
        {
          "internalType": "bytes32",
          "name": "nextPKH",
          "type": "bytes32"
        },
        {
          "internalType": "bytes32",
          "name": "bytecodeKeccak",
          "type": "bytes32"
        }
      ],
      "name": "createContractStepOne",
      "outputs": [],
      "stateMutability": "nonpayable",
      "type": "function"
    },
    {
      "inputs": [
        {
          "internalType": "bytes",
          "name": "bytecode",
          "type": "bytes"
        }
      ],
      "name": "createContractStepThree",
      "outputs": [
        {
          "internalType": "address",
          "name": "",
          "type": "address"
        }
      ],
      "stateMutability": "nonpayable",
      "type": "function"
    },
    {
      "inputs": [
        {
          "internalType": "bytes32[2][256]",
          "name": "currentpub",
          "type": "bytes32[2][256]"
        },
        {
          "internalType": "bytes[256]",
          "name": "sig",
          "type": "bytes[256]"
        },
        {
          "internalType": "bytes32",
          "name": "nextPKH",
          "type": "bytes32"
        },
        {
          "internalType": "bytes32",
          "name": "bytecodeKeccak",
          "type": "bytes32"
        }
      ],
      "name": "createContractStepTwo",
      "outputs": [],
      "stateMutability": "nonpayable",
      "type": "function"
    },
    {
      "inputs": [],
      "name": "freeGasCap",
      "outputs": [
        {
          "internalType": "uint256",
          "name": "",
          "type": "uint256"
        }
      ],
      "stateMutability": "view",
      "type": "function"
    },
    {
      "inputs": [
        {
          "internalType": "address",
          "name": "user",
          "type": "address"
        }
      ],
      "name": "getMinutesPlayed",
      "outputs": [
        {
          "internalType": "uint256",
          "name": "",
          "type": "uint256"
        }
      ],
      "stateMutability": "view",
      "type": "function"
    },
    {
      "inputs": [
        {
          "internalType": "address",
          "name": "_user",
          "type": "address"
        }
      ],
      "name": "getRemainingTxQuota",
      "outputs": [
        {
          "internalType": "uint256",
          "name": "",
          "type": "uint256"
        }
      ],
      "stateMutability": "view",
      "type": "function"
    },
    {
      "inputs": [
        {
          "internalType": "bytes32[2][256]",
          "name": "currentpub",
          "type": "bytes32[2][256]"
        },
        {
          "internalType": "bytes[256]",
          "name": "sig",
          "type": "bytes[256]"
        },
        {
          "internalType": "bytes32",
          "name": "nextPKH",
          "type": "bytes32"
        },
        {
          "internalType": "address",
          "name": "contractAddress",
          "type": "address"
        }
      ],
      "name": "grantActivityContractPermissionStepOne",
      "outputs": [],
      "stateMutability": "nonpayable",
      "type": "function"
    },
    {
      "inputs": [
        {
          "internalType": "bytes32[2][256]",
          "name": "currentpub",
          "type": "bytes32[2][256]"
        },
        {
          "internalType": "bytes[256]",
          "name": "sig",
          "type": "bytes[256]"
        },
        {
          "internalType": "bytes32",
          "name": "nextPKH",
          "type": "bytes32"
        }
      ],
      "name": "grantActivityContractPermissionStepTwo",
      "outputs": [],
      "stateMutability": "nonpayable",
      "type": "function"
    },
    {
      "inputs": [
        {
          "internalType": "address",
          "name": "",
          "type": "address"
        }
      ],
      "name": "hourlyTxQuota",
      "outputs": [
        {
          "internalType": "uint256",
          "name": "",
          "type": "uint256"
        }
      ],
      "stateMutability": "view",
      "type": "function"
    },
    {
      "inputs": [
        {
          "internalType": "address",
          "name": "user",
          "type": "address"
        },
        {
          "internalType": "uint256",
          "name": "_minutes",
          "type": "uint256"
        }
      ],
      "name": "incrementMinutesPlayed",
      "outputs": [],
      "stateMutability": "nonpayable",
      "type": "function"
    },
    {
      "inputs": [
        {
          "internalType": "address",
          "name": "",
          "type": "address"
        }
      ],
      "name": "isContractPermitted",
      "outputs": [
        {
          "internalType": "bool",
          "name": "",
          "type": "bool"
        }
      ],
      "stateMutability": "view",
      "type": "function"
    },
    {
      "inputs": [
        {
          "internalType": "string",
          "name": "gameID",
          "type": "string"
        },
        {
          "internalType": "address",
          "name": "player",
          "type": "address"
        }
      ],
      "name": "isPlayerActiveInGame",
      "outputs": [
        {
          "internalType": "uint8",
          "name": "",
          "type": "uint8"
        }
      ],
      "stateMutability": "view",
      "type": "function"
    },
    {
      "inputs": [
        {
          "internalType": "address",
          "name": "_user",
          "type": "address"
        }
      ],
      "name": "isThisTxFree",
      "outputs": [
        {
          "internalType": "bool",
          "name": "",
          "type": "bool"
        }
      ],
      "stateMutability": "nonpayable",
      "type": "function"
    },
    {
      "inputs": [
        {
          "internalType": "address",
          "name": "_address",
          "type": "address"
        }
      ],
      "name": "isWhitelisted",
      "outputs": [
        {
          "internalType": "bool",
          "name": "",
          "type": "bool"
        }
      ],
      "stateMutability": "view",
      "type": "function"
    },
    {
      "inputs": [],
      "name": "lamportBase",
      "outputs": [
        {
          "internalType": "contract ILamportBase",
          "name": "",
          "type": "address"
        }
      ],
      "stateMutability": "view",
      "type": "function"
    },
    {
      "inputs": [
        {
          "internalType": "address",
          "name": "",
          "type": "address"
        }
      ],
      "name": "lastClaim",
      "outputs": [
        {
          "internalType": "uint256",
          "name": "",
          "type": "uint256"
        }
      ],
      "stateMutability": "view",
      "type": "function"
    },
    {
      "inputs": [
        {
          "internalType": "address",
          "name": "",
          "type": "address"
        }
      ],
      "name": "lastLastClaim",
      "outputs": [
        {
          "internalType": "uint256",
          "name": "",
          "type": "uint256"
        }
      ],
      "stateMutability": "view",
      "type": "function"
    },
    {
      "inputs": [
        {
          "internalType": "address",
          "name": "",
          "type": "address"
        }
      ],
      "name": "lastPlayed",
      "outputs": [
        {
          "internalType": "string",
          "name": "gameId",
          "type": "string"
        },
        {
          "internalType": "uint256",
          "name": "timestamp",
          "type": "uint256"
        }
      ],
      "stateMutability": "view",
      "type": "function"
    },
    {
      "inputs": [],
      "name": "lastUsedBytecodeHash",
      "outputs": [
        {
          "internalType": "bytes32",
          "name": "",
          "type": "bytes32"
        }
      ],
      "stateMutability": "view",
      "type": "function"
    },
    {
      "inputs": [],
      "name": "lastVerificationResult",
      "outputs": [
        {
          "internalType": "bool",
          "name": "",
          "type": "bool"
        }
      ],
      "stateMutability": "view",
      "type": "function"
    },
    {
      "inputs": [
        {
          "internalType": "address",
          "name": "",
          "type": "address"
        }
      ],
      "name": "minutesPlayed",
      "outputs": [
        {
          "internalType": "uint256",
          "name": "",
          "type": "uint256"
        }
      ],
      "stateMutability": "view",
      "type": "function"
    },
    {
      "inputs": [
        {
          "internalType": "address",
          "name": "_address",
          "type": "address"
        }
      ],
      "name": "removeFromWhitelist",
      "outputs": [],
      "stateMutability": "nonpayable",
      "type": "function"
    },
    {
      "inputs": [
        {
          "internalType": "bytes32[2][256]",
          "name": "currentpub",
          "type": "bytes32[2][256]"
        },
        {
          "internalType": "bytes[256]",
          "name": "sig",
          "type": "bytes[256]"
        },
        {
          "internalType": "bytes32",
          "name": "nextPKH",
          "type": "bytes32"
        },
        {
          "internalType": "address",
          "name": "contractAddress",
          "type": "address"
        }
      ],
      "name": "revokeActivityContractPermissionStepOne",
      "outputs": [],
      "stateMutability": "nonpayable",
      "type": "function"
    },
    {
      "inputs": [
        {
          "internalType": "bytes32[2][256]",
          "name": "currentpub",
          "type": "bytes32[2][256]"
        },
        {
          "internalType": "bytes[256]",
          "name": "sig",
          "type": "bytes[256]"
        },
        {
          "internalType": "bytes32",
          "name": "nextPKH",
          "type": "bytes32"
        }
      ],
      "name": "revokeActivityContractPermissionStepTwo",
      "outputs": [],
      "stateMutability": "nonpayable",
      "type": "function"
    },
    {
      "inputs": [
        {
          "internalType": "bytes32[2][256]",
          "name": "currentpub",
          "type": "bytes32[2][256]"
        },
        {
          "internalType": "bytes[256]",
          "name": "sig",
          "type": "bytes[256]"
        },
        {
          "internalType": "bytes32",
          "name": "nextPKH",
          "type": "bytes32"
        },
        {
          "internalType": "uint256",
          "name": "newCoinCommission",
          "type": "uint256"
        }
      ],
      "name": "setCoinCommissionStepOne",
      "outputs": [],
      "stateMutability": "nonpayable",
      "type": "function"
    },
    {
      "inputs": [
        {
          "internalType": "bytes32[2][256]",
          "name": "currentpub",
          "type": "bytes32[2][256]"
        },
        {
          "internalType": "bytes[256]",
          "name": "sig",
          "type": "bytes[256]"
        },
        {
          "internalType": "bytes32",
          "name": "nextPKH",
          "type": "bytes32"
        },
        {
          "internalType": "uint256",
          "name": "newCoinCommission",
          "type": "uint256"
        }
      ],
      "name": "setCoinCommissionStepTwo",
      "outputs": [],
      "stateMutability": "nonpayable",
      "type": "function"
    },
    {
      "inputs": [
        {
          "internalType": "bytes32[2][256]",
          "name": "currentpub",
          "type": "bytes32[2][256]"
        },
        {
          "internalType": "bytes[256]",
          "name": "sig",
          "type": "bytes[256]"
        },
        {
          "internalType": "bytes32",
          "name": "nextPKH",
          "type": "bytes32"
        },
        {
          "internalType": "address",
          "name": "newCommissionAddress",
          "type": "address"
        }
      ],
      "name": "setCommissionAddressStepOne",
      "outputs": [],
      "stateMutability": "nonpayable",
      "type": "function"
    },
    {
      "inputs": [
        {
          "internalType": "bytes32[2][256]",
          "name": "currentpub",
          "type": "bytes32[2][256]"
        },
        {
          "internalType": "bytes[256]",
          "name": "sig",
          "type": "bytes[256]"
        },
        {
          "internalType": "bytes32",
          "name": "nextPKH",
          "type": "bytes32"
        },
        {
          "internalType": "address",
          "name": "newCommissionAddress",
          "type": "address"
        }
      ],
      "name": "setCommissionAddressStepTwo",
      "outputs": [],
      "stateMutability": "nonpayable",
      "type": "function"
    },
    {
      "inputs": [
        {
          "internalType": "bytes32[2][256]",
          "name": "currentpub",
          "type": "bytes32[2][256]"
        },
        {
          "internalType": "bytes[256]",
          "name": "sig",
          "type": "bytes[256]"
        },
        {
          "internalType": "bytes32",
          "name": "nextPKH",
          "type": "bytes32"
        },
        {
          "internalType": "uint256",
          "name": "_newCap",
          "type": "uint256"
        }
      ],
      "name": "setFreeGasCapStepOne",
      "outputs": [],
      "stateMutability": "nonpayable",
      "type": "function"
    },
    {
      "inputs": [
        {
          "internalType": "bytes32[2][256]",
          "name": "currentpub",
          "type": "bytes32[2][256]"
        },
        {
          "internalType": "bytes[256]",
          "name": "sig",
          "type": "bytes[256]"
        },
        {
          "internalType": "bytes32",
          "name": "nextPKH",
          "type": "bytes32"
        }
      ],
      "name": "setFreeGasCapStepTwo",
      "outputs": [],
      "stateMutability": "nonpayable",
      "type": "function"
    },
    {
      "inputs": [
        {
          "internalType": "address",
          "name": "_address",
          "type": "address"
        },
        {
          "internalType": "uint256",
          "name": "_quota",
          "type": "uint256"
        }
      ],
      "name": "setHourlyTxQuota",
      "outputs": [],
      "stateMutability": "nonpayable",
      "type": "function"
    },
    {
      "inputs": [
        {
          "internalType": "address",
          "name": "_address",
          "type": "address"
        },
        {
          "internalType": "string",
          "name": "_gameId",
          "type": "string"
        }
      ],
      "name": "updateLastPlayed",
      "outputs": [],
      "stateMutability": "nonpayable",
      "type": "function"
    },
    {
      "inputs": [
        {
          "internalType": "address",
          "name": "",
          "type": "address"
        }
      ],
      "name": "whitelist",
      "outputs": [
        {
          "internalType": "bool",
          "name": "",
          "type": "bool"
        }
      ],
      "stateMutability": "view",
      "type": "function"
    }
  ],
  "bytecode": "608060405234801561001057600080fd5b50601380546001600160a01b031990811673fd003ca44bbf4e9fb0b2ff1a33fc2f05a6c2eff91790915560008054909116730759a02f763375305aef8b3afb0051ede0c0577f179055612b41806100686000396000f3fe608060405234801561001057600080fd5b506004361061023d5760003560e01c80636118b1c31161013b578063931742d3116100b8578063ba6906771161007c578063ba69067714610551578063c506f23314610571578063c8dab0dd14610592578063d47b2e99146105a5578063fb632d89146105b857600080fd5b8063931742d3146104ee57806397688a0d146104ff5780639b19251a14610512578063ae61d2c214610535578063b889b2b71461054857600080fd5b80638597946b116100ff5780638597946b1461049a5780638705d945146104ad5780638775b01f146104b55780638ab1d681146104c85780638fd5e0cc146104db57600080fd5b80636118b1c3146104185780636ab987c51461042b5780636c8dd0bd1461043e578063787325ca1461045e5780637e08deae1461048757600080fd5b80633e13566b116101c957806356bf7b571161018d57806356bf7b571461039a5780635961f500146103ad5780635a725b07146103c05780635c16e15e146103e55780635e9508581461040557600080fd5b80633e13566b1461033857806340f1df15146103415780634a672870146103545780634fbbc63f146103675780635360aa971461038757600080fd5b80632eb4b54f116102105780632eb4b54f146102aa5780632fd5c247146102bd5780633337db52146102ca57806333b8a813146102e15780633af32abf1461030c57600080fd5b806303545eac14610242578063054232241461027a578063142eb8c81461028f5780631a533daa14610297575b600080fd5b610265610250366004612291565b60056020526000908152604090205460ff1681565b60405190151581526020015b60405180910390f35b61028d6102883660046122d7565b6105d8565b005b61028d6106c8565b61028d6102a53660046123f0565b610804565b61028d6102b83660046123f0565b610931565b6007546102659060ff1681565b6102d360125481565b604051908152602001610271565b6102f46102ef36600461243e565b6109ea565b6040516001600160a01b039091168152602001610271565b61026561031a366004612291565b6001600160a01b031660009081526006602052604090205460ff1690565b6102d360115481565b6102d361034f366004612291565b610afb565b61028d61036236600461248f565b610c10565b6102d3610375366004612291565b600a6020526000908152604090205481565b61028d61039536600461248f565b610cdc565b6000546102f4906001600160a01b031681565b61028d6103bb3660046122d7565b610d9a565b6103d36103ce3660046124f2565b610f29565b60405160ff9091168152602001610271565b6102d36103f3366004612291565b60096020526000908152604090205481565b61028d61041336600461248f565b6110e1565b61028d610426366004612540565b61119f565b61028d61043936600461256a565b6112d8565b6102d361044c366004612291565b60086020526000908152604090205481565b6102d361046c366004612291565b6001600160a01b031660009081526008602052604090205490565b61028d61049536600461248f565b611422565b61028d6104a836600461248f565b61163e565b6012546102d3565b6102656104c3366004612291565b61174c565b61028d6104d6366004612291565b611956565b61028d6104e936600461256a565b611a43565b6013546001600160a01b03166102f4565b61028d61050d3660046122d7565b611bc5565b610265610520366004612291565b60066020526000908152604090205460ff1681565b61028d6105433660046122d7565b611caa565b6102d360105481565b6102d361055f366004612291565b600b6020526000908152604090205481565b61058461057f366004612291565b611d9c565b604051610271929190612615565b61028d6105a036600461256a565b611e40565b61028d6105b3366004612540565b611fb4565b6102d36105c6366004612291565b60036020526000908152604090205481565b6000816040516020016105eb9190612637565b60408051601f19818403018152908290526000805463333f611160e01b8452919350916001600160a01b039091169063333f61119061063490899089908990889060040161267d565b6020604051808303816000875af1158015610653573d6000803e3d6000fd5b505050506040513d601f19601f82011682018060405250810190610677919061275e565b90508061069f5760405162461bcd60e51b815260040161069690612780565b60405180910390fd5b5050600d80546001600160a01b0319166001600160a01b0392909216919091179055600f555050565b3360008181526006602052604090205460ff166107275760405162461bcd60e51b815260206004820152601760248201527f55736572206973206e6f742077686974656c69737465640000000000000000006044820152606401610696565b6001600160a01b038116600090815260096020908152604080832054600a90925290912054808210156107935760405162461bcd60e51b8152602060048201526014602482015273496e76616c696420636c61696d2076616c75657360601b6044820152606401610696565b6001600160a01b0383166000818152600a60209081526040808320869055600880835281842054600984529382902084905582528051868152918201929092527fdc5ec23a202853e756bbb0c4f4cb94deea4936fcc71756da3ddebf99aabf6c9e91015b60405180910390a2505050565b3360009081526005602052604090205460ff166108335760405162461bcd60e51b8152600401610696906127b5565b60008160405160200161084691906127f6565b60408051601f1981840301815291815281516020928301206001600160a01b0386166000908152600690935291205490915060ff16156108c85760405162461bcd60e51b815260206004820152601b60248201527f4164647265737320616c72656164792077686974656c697374656400000000006044820152606401610696565b6001600160a01b03831660008181526003602090815260408083206005905560068252808320805460ff19166001179055600b82529182902084905590518381527fc27d38ad1bdb4164d72e05492b5ce6099b4169e9f20b41d3c7cf35c114a64d5b91016107f7565b3360009081526005602052604090205460ff1661099c5760405162461bcd60e51b815260206004820152602360248201527f4e6f74207065726d697474656420746f20757064617465206c61737420706c616044820152621e595960ea1b6064820152608401610696565b604080518082018252828152426020808301919091526001600160a01b0385166000908152600490915291909120815181906109d8908261289b565b50602082015181600101559050505050565b6000601154828051906020012014610a5e5760405162461bcd60e51b815260206004820152603160248201527f42797465636f646520646f6573206e6f74206d617463682070726576696f7573604482015270363c90383937bb34b232b2103430b9b41760791b6064820152608401610696565b60008251602084016000f090506001600160a01b038116610ac15760405162461bcd60e51b815260206004820152601860248201527f436f6e7472616374206372656174696f6e206661696c656400000000000000006044820152606401610696565b6040516001600160a01b038216907fcf78cf0d6f3d8371e1075c69c492ab4ec5d8cf23a1a239b6a51a1d00be7ca31290600090a292915050565b6001600160a01b03811660009081526006602052604081205460ff16610b2357506000919050565b6001600160a01b038216600090815260036020908152604080832054600180845282852060029094529190932090820154831115610b73576001820154610b6a9084612971565b95945050505050565b8154610e1082826101f48110610b8b57610b8b612984565b0154610b979042612971565b1115610ba7575091949350505050565b82546000908590610bb990600161299a565b610bc391906129ad565b9050610e1083826101f48110610bdb57610bdb612984565b0154610be79042612971565b1115610c0357610bf8600186612971565b979650505050505050565b5060009695505050505050565b600081604051602001610c2591815260200190565b60408051601f19818403018152908290526000805463333f611160e01b8452919350916001600160a01b039091169063333f611190610c6e90899089908990889060040161267d565b6020604051808303816000875af1158015610c8d573d6000803e3d6000fd5b505050506040513d601f19601f82011682018060405250810190610cb1919061275e565b905080610cd05760405162461bcd60e51b815260040161069690612780565b5050601455600f555050565b60008054604080516020808201869052825180830390910181528183019283905263333f611160e01b9092526001600160a01b039092169163333f611191610d2d918991899189919060440161267d565b6020604051808303816000875af1158015610d4c573d6000803e3d6000fd5b505050506040513d601f19601f82011682018060405250810190610d70919061275e565b905080610d8f5760405162461bcd60e51b815260040161069690612780565b50600c55600f555050565b600084604051602001610dad91906129cf565b604051602081830303815290604052805190602001209050600f548103610de65760405162461bcd60e51b815260040161069690612a06565b600082604051602001610df99190612637565b60408051601f19818403018152908290526000805463333f611160e01b8452919350916001600160a01b039091169063333f611190610e42908a908a908a90889060040161267d565b6020604051808303816000875af1158015610e61573d6000803e3d6000fd5b505050506040513d601f19601f82011682018060405250810190610e85919061275e565b905080610ea45760405162461bcd60e51b815260040161069690612780565b6015548251602084012014610efb5760405162461bcd60e51b815260206004820152601d60248201527f4d69736d61746368656420636f6d6d697373696f6e20616464726573730000006044820152606401610696565b5050601380546001600160a01b0319166001600160a01b03939093169290921790915550506000600f555050565b6001600160a01b038116600090815260046020526040808220815180830190925280548392919082908290610f5d90612812565b80601f0160208091040260200160405190810160405280929190818152602001828054610f8990612812565b8015610fd65780601f10610fab57610100808354040283529160200191610fd6565b820191906000526020600020905b815481529060010190602001808311610fb957829003601f168201915b50505050508152602001600182015481525050905060006101e08260200151426110009190612971565b10905080801561105b57508460405160200161101c91906127f6565b60408051601f198184030181529082905280516020918201208451909261104392016127f6565b60405160208183030381529060405280519060200120145b1561106b576002925050506110db565b8080156110c457508460405160200161108491906127f6565b60408051601f19818403018152908290528051602091820120845190926110ab92016127f6565b6040516020818303038152906040528051906020012014155b156110d4576001925050506110db565b6000925050505b92915050565b60008054604080516020808201869052825180830390910181528183019283905263333f611160e01b9092526001600160a01b039092169163333f611191611132918991899189919060440161267d565b6020604051808303816000875af1158015611151573d6000803e3d6000fd5b505050506040513d601f19601f82011682018060405250810190611175919061275e565b9050806111945760405162461bcd60e51b815260040161069690612780565b50601155600f555050565b3360009081526005602052604090205460ff166112175760405162461bcd60e51b815260206004820152603060248201527f4e6f74207065726d697474656420746f206d6f6469667920686f75726c79207460448201526f72616e73616374696f6e2071756f746160801b6064820152608401610696565b6001600160a01b03821660009081526006602052604090205460ff1661127f5760405162461bcd60e51b815260206004820152601e60248201527f41646472657373206e6f7420666f756e6420696e2077686974656c69737400006044820152606401610696565b6001600160a01b03821660008181526003602052604090819020839055517f49e4e7ca63dcc35a72589f844cb844ce25176e8e1aff16f1ad1fb46624c65372906112cc9084815260200190565b60405180910390a25050565b60008054600c5460408051602080820193909352815180820390930183528082019182905263333f611160e01b9091526001600160a01b039092169163333f61119161132d918891889188919060440161267d565b6020604051808303816000875af115801561134c573d6000803e3d6000fd5b505050506040513d601f19601f82011682018060405250810190611370919061275e565b905060008460405160200161138591906129cf565b604051602081830303815290604052805190602001209050600f5481036113be5760405162461bcd60e51b815260040161069690612a06565b816113db5760405162461bcd60e51b815260040161069690612780565b600c5460108190556040519081527f58098eeec115cba633a1b8765151f8a2e4efbdcb42846e0968e430d56e21d3709060200160405180910390a150506000600f55505050565b60008460405160200161143591906129cf565b604051602081830303815290604052805190602001209050600f54810361146e5760405162461bcd60e51b815260040161069690612a06565b60008260405160200161148391815260200190565b60408051601f19818403018152908290526000805463333f611160e01b8452919350916001600160a01b039091169063333f6111906114cc908a908a908a90889060040161267d565b6020604051808303816000875af11580156114eb573d6000803e3d6000fd5b505050506040513d601f19601f8201168201806040525081019061150f919061275e565b90508061152e5760405162461bcd60e51b815260040161069690612780565b601484111561158f5760405162461bcd60e51b815260206004820152602760248201527f436f6d6d697373696f6e2073686f756c64206265206265747765656e20302520604482015266616e642032302560c81b6064820152608401610696565b60145484146115f35760405162461bcd60e51b815260206004820152602a60248201527f4d69736d61746368656420636f6d6d697373696f6e2076616c756573206265746044820152697765656e20737465707360b01b6064820152608401610696565b601284905560006014819055600f556040518481527f11bf320227562bd5f6c9b575913cf92b3b996b47873159df227324ae1bb4d0ea9060200160405180910390a150505050505050565b60008054604080516020808201869052825180830390910181528183019283905263333f611160e01b9092526001600160a01b039092169163333f61119161168f918991899189919060440161267d565b6020604051808303816000875af11580156116ae573d6000803e3d6000fd5b505050506040513d601f19601f820116820180604052508101906116d2919061275e565b90506000856040516020016116e791906129cf565b604051602081830303815290604052805190602001209050600f5481036117205760405162461bcd60e51b815260040161069690612a06565b8161173d5760405162461bcd60e51b815260040161069690612780565b505060115550506000600f5550565b600033732685751d3c7a49ebf485e823079ac65e2a35a3dd8114906117709061208a565b6040516020016117809190612a6d565b604051602081830303815290604052906117ad5760405162461bcd60e51b81526004016106969190612ac8565b506001600160a01b03821660009081526006602052604090205460ff166117d657506000919050565b6001600160a01b03821660009081526003602052604081205490036117fd57506000919050565b6001600160a01b03821660009081526001602081815260408084206002835281852060039093529320549183015490911161189e578154610e1082826101f4811061184a5761184a612984565b01546118569042612971565b1161186657506000949350505050565b6001600160a01b038516600090815260036020526040902054835461188c90600161299a565b61189691906129ad565b8355506118b6565b6001820180549060006118b083612adb565b91905055505b6001600160a01b03841660009081526003602052604081205460018481015485546118e1919061299a565b6118eb9190612971565b6118f591906129ad565b90504282826101f4811061190b5761190b612984565b01556040514281526001600160a01b038616907f9ed0861f8fc182c8888f48e900842f475ccd2a3c93c6f966168eaa67d52d2ee19060200160405180910390a2506001949350505050565b3360009081526005602052604090205460ff166119855760405162461bcd60e51b8152600401610696906127b5565b6001600160a01b03811660009081526006602052604090205460ff166119ed5760405162461bcd60e51b815260206004820152601e60248201527f41646472657373206e6f7420666f756e6420696e2077686974656c69737400006044820152606401610696565b6001600160a01b0381166000818152600660209081526040808320805460ff19169055600b909152808220829055517fcdd2e9b91a56913d370075169cefa1602ba36be5301664f752192bb1709df7579190a250565b600083604051602001611a5691906129cf565b604051602081830303815290604052805190602001209050600f548103611a8f5760405162461bcd60e51b815260040161069690612a06565b600e54604051600091611ab0916001600160a01b0390911690602001612637565b60408051601f19818403018152908290526000805463333f611160e01b8452919350916001600160a01b039091169063333f611190611af990899089908990889060040161267d565b6020604051808303816000875af1158015611b18573d6000803e3d6000fd5b505050506040513d601f19601f82011682018060405250810190611b3c919061275e565b905080611b5b5760405162461bcd60e51b815260040161069690612780565b600e80546001600160a01b039081166000908152600560209081526040808320805460ff19169055600f9290925592549051911681527f6c643a308c2943f8cabf6ea94d2fc3741e4995caa21bd8e305b91f06abf14b5891015b60405180910390a1505050505050565b600080546040516001600160a01b039091169063333f611190879087908790611bf2908890602001612637565b6040516020818303038152906040526040518563ffffffff1660e01b8152600401611c20949392919061267d565b6020604051808303816000875af1158015611c3f573d6000803e3d6000fd5b505050506040513d601f19601f82011682018060405250810190611c63919061275e565b905080611c825760405162461bcd60e51b815260040161069690612780565b50600e80546001600160a01b0319166001600160a01b0392909216919091179055600f555050565b600080546040516001600160a01b039091169063333f611190879087908790611cd7908890602001612637565b6040516020818303038152906040526040518563ffffffff1660e01b8152600401611d05949392919061267d565b6020604051808303816000875af1158015611d24573d6000803e3d6000fd5b505050506040513d601f19601f82011682018060405250810190611d48919061275e565b905080611d675760405162461bcd60e51b815260040161069690612780565b81604051602001611d789190612637565b60408051601f1981840301815291905280516020909101206015555050600f555050565b600460205260009081526040902080548190611db790612812565b80601f0160208091040260200160405190810160405280929190818152602001828054611de390612812565b8015611e305780601f10611e0557610100808354040283529160200191611e30565b820191906000526020600020905b815481529060010190602001808311611e1357829003601f168201915b5050505050908060010154905082565b600083604051602001611e5391906129cf565b604051602081830303815290604052805190602001209050600f548103611e8c5760405162461bcd60e51b815260040161069690612a06565b600d54604051600091611ead916001600160a01b0390911690602001612637565b60408051601f19818403018152908290526000805463333f611160e01b8452919350916001600160a01b039091169063333f611190611ef690899089908990889060040161267d565b6020604051808303816000875af1158015611f15573d6000803e3d6000fd5b505050506040513d601f19601f82011682018060405250810190611f39919061275e565b905080611f585760405162461bcd60e51b815260040161069690612780565b600d80546001600160a01b03908116600090815260056020908152604091829020805460ff1916600117905592549051911681527f9c2d3039f3d15023b5382d61054aae8f70288e4bffb8676398baca3c389e8f189101611bb5565b3360009081526005602052604090205460ff166120225760405162461bcd60e51b815260206004820152602660248201527f4e6f74207065726d697474656420746f206d6f64696679206d696e75746573206044820152651c1b185e595960d21b6064820152608401610696565b6001600160a01b0382166000908152600860205260408120805483929061204a90849061299a565b90915550506040518181526001600160a01b038316907f54ecab596bd73e6a3fd6d8bb310aa69a74c3f78ddc040f88c6f5d06dffb3542b906020016112cc565b604080518082018252601081526f181899199a1a9b1b9c1cb0b131b232b360811b60208201528151602a80825260608281019094526001600160a01b0385169291600091602082018180368337019050509050600360fc1b816000815181106120f5576120f5612984565b60200101906001600160f81b031916908160001a905350600f60fb1b8160018151811061212457612124612984565b60200101906001600160f81b031916908160001a90535060005b601481101561226c578260048561215684600c61299a565b6020811061216657612166612984565b1a60f81b6001600160f81b031916901c60f81c60ff168151811061218c5761218c612984565b01602001516001600160f81b031916826121a7836002612af4565b6121b290600261299a565b815181106121c2576121c2612984565b60200101906001600160f81b031916908160001a90535082846121e683600c61299a565b602081106121f6576121f6612984565b825191901a600f1690811061220d5761220d612984565b01602001516001600160f81b03191682612228836002612af4565b61223390600361299a565b8151811061224357612243612984565b60200101906001600160f81b031916908160001a9053508061226481612adb565b91505061213e565b50949350505050565b80356001600160a01b038116811461228c57600080fd5b919050565b6000602082840312156122a357600080fd5b6122ac82612275565b9392505050565b8061400081018310156110db57600080fd5b8061200081018310156110db57600080fd5b60008060008061406085870312156122ee57600080fd5b6122f886866122b3565b935061400085013567ffffffffffffffff81111561231557600080fd5b612321878288016122c5565b93505061402085013591506123396140408601612275565b905092959194509250565b634e487b7160e01b600052604160045260246000fd5b600067ffffffffffffffff8084111561237557612375612344565b604051601f8501601f19908116603f0116810190828211818310171561239d5761239d612344565b816040528093508581528686860111156123b657600080fd5b858560208301376000602087830101525050509392505050565b600082601f8301126123e157600080fd5b6122ac8383356020850161235a565b6000806040838503121561240357600080fd5b61240c83612275565b9150602083013567ffffffffffffffff81111561242857600080fd5b612434858286016123d0565b9150509250929050565b60006020828403121561245057600080fd5b813567ffffffffffffffff81111561246757600080fd5b8201601f8101841361247857600080fd5b6124878482356020840161235a565b949350505050565b60008060008061406085870312156124a657600080fd5b6124b086866122b3565b935061400085013567ffffffffffffffff8111156124cd57600080fd5b6124d9878288016122c5565b9497949650505050614020830135926140400135919050565b6000806040838503121561250557600080fd5b823567ffffffffffffffff81111561251c57600080fd5b612528858286016123d0565b92505061253760208401612275565b90509250929050565b6000806040838503121561255357600080fd5b61255c83612275565b946020939093013593505050565b6000806000614040848603121561258057600080fd5b61258a85856122b3565b925061400084013567ffffffffffffffff8111156125a757600080fd5b6125b3868287016122c5565b92505061402084013590509250925092565b60005b838110156125e05781810151838201526020016125c8565b50506000910152565b600081518084526126018160208601602086016125c5565b601f01601f19169290920160200192915050565b60408152600061262860408301856125e9565b90508260208301529392505050565b60609190911b6bffffffffffffffffffffffff1916815260140190565b81835281816020850137506000828201602090810191909152601f909101601f19169091010190565b60006140608281018388845b6101008110156126aa57604080838537928301929190910190600101612689565b50505061400084019190915261606083018660005b6101008110156127365785830361405f190184528135368a9003601e190181126126e857600080fd5b8901602081810191359067ffffffffffffffff82111561270757600080fd5b81360383131561271657600080fd5b612721868385612654565b968101969550939093019250506001016126bf565b50508561402085015283810361404085015261275281866125e9565b98975050505050505050565b60006020828403121561277057600080fd5b815180151581146122ac57600080fd5b6020808252818101527f4c616d706f7274204d61737465722076616c69646174696f6e206661696c6564604082015260600190565b60208082526021908201527f4e6f74207065726d697474656420746f206d6f646966792077686974656c69736040820152601d60fa1b606082015260800190565b600082516128088184602087016125c5565b9190910192915050565b600181811c9082168061282657607f821691505b60208210810361284657634e487b7160e01b600052602260045260246000fd5b50919050565b601f82111561289657600081815260208120601f850160051c810160208610156128735750805b601f850160051c820191505b818110156128925782815560010161287f565b5050505b505050565b815167ffffffffffffffff8111156128b5576128b5612344565b6128c9816128c38454612812565b8461284c565b602080601f8311600181146128fe57600084156128e65750858301515b600019600386901b1c1916600185901b178555612892565b600085815260208120601f198616915b8281101561292d5788860151825594840194600190910190840161290e565b508582101561294b5787850151600019600388901b60f8161c191681555b5050505050600190811b01905550565b634e487b7160e01b600052601160045260246000fd5b818103818111156110db576110db61295b565b634e487b7160e01b600052603260045260246000fd5b808201808211156110db576110db61295b565b6000826129ca57634e487b7160e01b600052601260045260246000fd5b500690565b60008183825b6101008110156129f6576040808385379283019291909101906001016129d5565b5050506140008201905092915050565b60208082526041908201527f4c616d706f7274426173653a2043616e6e6f7420757365207468652073616d6560408201527f206b6579636861696e20747769636520666f7220746869732066756e6374696f6060820152603760f91b608082015260a00190565b7f4f6e6c7920546865526f636b2063616e2063616c6c20746869732066756e637481526c034b7b7171021b0b63632b91d1609d1b602082015260008251612abb81602d8501602087016125c5565b91909101602d0192915050565b6020815260006122ac60208301846125e9565b600060018201612aed57612aed61295b565b5060010190565b80820281158282048414176110db576110db61295b56fea2646970667358221220c68e20bf534fea25c2f11810da220ad15d9663db84a5e5731da40d02d52407c764736f6c63430008150033",
  "bytecodeSha1": "7e88063cdeaa06bcf301f7a5de7f0854446234d5",
  "compiler": {
    "evm_version": "istanbul",
    "optimizer": {
      "enabled": true,
      "runs": 200
    },
    "version": "0.8.21+commit.d9974bed"
  },
  "contractName": "AnonIDContract",
  "language": "Solidity",
  "natspec": {
    "kind": "dev",
    "methods": {},
    "version": 1
  },
  "opcodes": "PUSH1 0x80 PUSH1 0x40 MSTORE CALLVALUE DUP1 ISZERO PUSH2 0x10 JUMPI PUSH1 0x0 DUP1 REVERT JUMPDEST POP PUSH1 0x4 CALLDATASIZE LT PUSH2 0x23D JUMPI PUSH1 0x0 CALLDATALOAD PUSH1 0xE0 SHR DUP1 PUSH4 0x6118B1C3 GT PUSH2 0x13B JUMPI DUP1 PUSH4 0x931742D3 GT PUSH2 0xB8 JUMPI DUP1 PUSH4 0xBA690677 GT PUSH2 0x7C JUMPI DUP1 PUSH4 0xBA690677 EQ PUSH2 0x551 JUMPI DUP1 PUSH4 0xC506F233 EQ PUSH2 0x571 JUMPI DUP1 PUSH4 0xC8DAB0DD EQ PUSH2 0x592 JUMPI DUP1 PUSH4 0xD47B2E99 EQ PUSH2 0x5A5 JUMPI DUP1 PUSH4 0xFB632D89 EQ PUSH2 0x5B8 JUMPI PUSH1 0x0 DUP1 REVERT JUMPDEST DUP1 PUSH4 0x931742D3 EQ PUSH2 0x4EE JUMPI DUP1 PUSH4 0x97688A0D EQ PUSH2 0x4FF JUMPI DUP1 PUSH4 0x9B19251A EQ PUSH2 0x512 JUMPI DUP1 PUSH4 0xAE61D2C2 EQ PUSH2 0x535 JUMPI DUP1 PUSH4 0xB889B2B7 EQ PUSH2 0x548 JUMPI PUSH1 0x0 DUP1 REVERT JUMPDEST DUP1 PUSH4 0x8597946B GT PUSH2 0xFF JUMPI DUP1 PUSH4 0x8597946B EQ PUSH2 0x49A JUMPI DUP1 PUSH4 0x8705D945 EQ PUSH2 0x4AD JUMPI DUP1 PUSH4 0x8775B01F EQ PUSH2 0x4B5 JUMPI DUP1 PUSH4 0x8AB1D681 EQ PUSH2 0x4C8 JUMPI DUP1 PUSH4 0x8FD5E0CC EQ PUSH2 0x4DB JUMPI PUSH1 0x0 DUP1 REVERT JUMPDEST DUP1 PUSH4 0x6118B1C3 EQ PUSH2 0x418 JUMPI DUP1 PUSH4 0x6AB987C5 EQ PUSH2 0x42B JUMPI DUP1 PUSH4 0x6C8DD0BD EQ PUSH2 0x43E JUMPI DUP1 PUSH4 0x787325CA EQ PUSH2 0x45E JUMPI DUP1 PUSH4 0x7E08DEAE EQ PUSH2 0x487 JUMPI PUSH1 0x0 DUP1 REVERT JUMPDEST DUP1 PUSH4 0x3E13566B GT PUSH2 0x1C9 JUMPI DUP1 PUSH4 0x56BF7B57 GT PUSH2 0x18D JUMPI DUP1 PUSH4 0x56BF7B57 EQ PUSH2 0x39A JUMPI DUP1 PUSH4 0x5961F500 EQ PUSH2 0x3AD JUMPI DUP1 PUSH4 0x5A725B07 EQ PUSH2 0x3C0 JUMPI DUP1 PUSH4 0x5C16E15E EQ PUSH2 0x3E5 JUMPI DUP1 PUSH4 0x5E950858 EQ PUSH2 0x405 JUMPI PUSH1 0x0 DUP1 REVERT JUMPDEST DUP1 PUSH4 0x3E13566B EQ PUSH2 0x338 JUMPI DUP1 PUSH4 0x40F1DF15 EQ PUSH2 0x341 JUMPI DUP1 PUSH4 0x4A672870 EQ PUSH2 0x354 JUMPI DUP1 PUSH4 0x4FBBC63F EQ PUSH2 0x367 JUMPI DUP1 PUSH4 0x5360AA97 EQ PUSH2 0x387 JUMPI PUSH1 0x0 DUP1 REVERT JUMPDEST DUP1 PUSH4 0x2EB4B54F GT PUSH2 0x210 JUMPI DUP1 PUSH4 0x2EB4B54F EQ PUSH2 0x2AA JUMPI DUP1 PUSH4 0x2FD5C247 EQ PUSH2 0x2BD JUMPI DUP1 PUSH4 0x3337DB52 EQ PUSH2 0x2CA JUMPI DUP1 PUSH4 0x33B8A813 EQ PUSH2 0x2E1 JUMPI DUP1 PUSH4 0x3AF32ABF EQ PUSH2 0x30C JUMPI PUSH1 0x0 DUP1 REVERT JUMPDEST DUP1 PUSH4 0x3545EAC EQ PUSH2 0x242 JUMPI DUP1 PUSH4 0x5423224 EQ PUSH2 0x27A JUMPI DUP1 PUSH4 0x142EB8C8 EQ PUSH2 0x28F JUMPI DUP1 PUSH4 0x1A533DAA EQ PUSH2 0x297 JUMPI JUMPDEST PUSH1 0x0 DUP1 REVERT JUMPDEST PUSH2 0x265 PUSH2 0x250 CALLDATASIZE PUSH1 0x4 PUSH2 0x2291 JUMP JUMPDEST PUSH1 0x5 PUSH1 0x20 MSTORE PUSH1 0x0 SWAP1 DUP2 MSTORE PUSH1 0x40 SWAP1 KECCAK256 SLOAD PUSH1 0xFF AND DUP2 JUMP JUMPDEST PUSH1 0x40 MLOAD SWAP1 ISZERO ISZERO DUP2 MSTORE PUSH1 0x20 ADD JUMPDEST PUSH1 0x40 MLOAD DUP1 SWAP2 SUB SWAP1 RETURN JUMPDEST PUSH2 0x28D PUSH2 0x288 CALLDATASIZE PUSH1 0x4 PUSH2 0x22D7 JUMP JUMPDEST PUSH2 0x5D8 JUMP JUMPDEST STOP JUMPDEST PUSH2 0x28D PUSH2 0x6C8 JUMP JUMPDEST PUSH2 0x28D PUSH2 0x2A5 CALLDATASIZE PUSH1 0x4 PUSH2 0x23F0 JUMP JUMPDEST PUSH2 0x804 JUMP JUMPDEST PUSH2 0x28D PUSH2 0x2B8 CALLDATASIZE PUSH1 0x4 PUSH2 0x23F0 JUMP JUMPDEST PUSH2 0x931 JUMP JUMPDEST PUSH1 0x7 SLOAD PUSH2 0x265 SWAP1 PUSH1 0xFF AND DUP2 JUMP JUMPDEST PUSH2 0x2D3 PUSH1 0x12 SLOAD DUP2 JUMP JUMPDEST PUSH1 0x40 MLOAD SWAP1 DUP2 MSTORE PUSH1 0x20 ADD PUSH2 0x271 JUMP JUMPDEST PUSH2 0x2F4 PUSH2 0x2EF CALLDATASIZE PUSH1 0x4 PUSH2 0x243E JUMP JUMPDEST PUSH2 0x9EA JUMP JUMPDEST PUSH1 0x40 MLOAD PUSH1 0x1 PUSH1 0x1 PUSH1 0xA0 SHL SUB SWAP1 SWAP2 AND DUP2 MSTORE PUSH1 0x20 ADD PUSH2 0x271 JUMP JUMPDEST PUSH2 0x265 PUSH2 0x31A CALLDATASIZE PUSH1 0x4 PUSH2 0x2291 JUMP JUMPDEST PUSH1 0x1 PUSH1 0x1 PUSH1 0xA0 SHL SUB AND PUSH1 0x0 SWAP1 DUP2 MSTORE PUSH1 0x6 PUSH1 0x20 MSTORE PUSH1 0x40 SWAP1 KECCAK256 SLOAD PUSH1 0xFF AND SWAP1 JUMP JUMPDEST PUSH2 0x2D3 PUSH1 0x11 SLOAD DUP2 JUMP JUMPDEST PUSH2 0x2D3 PUSH2 0x34F CALLDATASIZE PUSH1 0x4 PUSH2 0x2291 JUMP JUMPDEST PUSH2 0xAFB JUMP JUMPDEST PUSH2 0x28D PUSH2 0x362 CALLDATASIZE PUSH1 0x4 PUSH2 0x248F JUMP JUMPDEST PUSH2 0xC10 JUMP JUMPDEST PUSH2 0x2D3 PUSH2 0x375 CALLDATASIZE PUSH1 0x4 PUSH2 0x2291 JUMP JUMPDEST PUSH1 0xA PUSH1 0x20 MSTORE PUSH1 0x0 SWAP1 DUP2 MSTORE PUSH1 0x40 SWAP1 KECCAK256 SLOAD DUP2 JUMP JUMPDEST PUSH2 0x28D PUSH2 0x395 CALLDATASIZE PUSH1 0x4 PUSH2 0x248F JUMP JUMPDEST PUSH2 0xCDC JUMP JUMPDEST PUSH1 0x0 SLOAD PUSH2 0x2F4 SWAP1 PUSH1 0x1 PUSH1 0x1 PUSH1 0xA0 SHL SUB AND DUP2 JUMP JUMPDEST PUSH2 0x28D PUSH2 0x3BB CALLDATASIZE PUSH1 0x4 PUSH2 0x22D7 JUMP JUMPDEST PUSH2 0xD9A JUMP JUMPDEST PUSH2 0x3D3 PUSH2 0x3CE CALLDATASIZE PUSH1 0x4 PUSH2 0x24F2 JUMP JUMPDEST PUSH2 0xF29 JUMP JUMPDEST PUSH1 0x40 MLOAD PUSH1 0xFF SWAP1 SWAP2 AND DUP2 MSTORE PUSH1 0x20 ADD PUSH2 0x271 JUMP JUMPDEST PUSH2 0x2D3 PUSH2 0x3F3 CALLDATASIZE PUSH1 0x4 PUSH2 0x2291 JUMP JUMPDEST PUSH1 0x9 PUSH1 0x20 MSTORE PUSH1 0x0 SWAP1 DUP2 MSTORE PUSH1 0x40 SWAP1 KECCAK256 SLOAD DUP2 JUMP JUMPDEST PUSH2 0x28D PUSH2 0x413 CALLDATASIZE PUSH1 0x4 PUSH2 0x248F JUMP JUMPDEST PUSH2 0x10E1 JUMP JUMPDEST PUSH2 0x28D PUSH2 0x426 CALLDATASIZE PUSH1 0x4 PUSH2 0x2540 JUMP JUMPDEST PUSH2 0x119F JUMP JUMPDEST PUSH2 0x28D PUSH2 0x439 CALLDATASIZE PUSH1 0x4 PUSH2 0x256A JUMP JUMPDEST PUSH2 0x12D8 JUMP JUMPDEST PUSH2 0x2D3 PUSH2 0x44C CALLDATASIZE PUSH1 0x4 PUSH2 0x2291 JUMP JUMPDEST PUSH1 0x8 PUSH1 0x20 MSTORE PUSH1 0x0 SWAP1 DUP2 MSTORE PUSH1 0x40 SWAP1 KECCAK256 SLOAD DUP2 JUMP JUMPDEST PUSH2 0x2D3 PUSH2 0x46C CALLDATASIZE PUSH1 0x4 PUSH2 0x2291 JUMP JUMPDEST PUSH1 0x1 PUSH1 0x1 PUSH1 0xA0 SHL SUB AND PUSH1 0x0 SWAP1 DUP2 MSTORE PUSH1 0x8 PUSH1 0x20 MSTORE PUSH1 0x40 SWAP1 KECCAK256 SLOAD SWAP1 JUMP JUMPDEST PUSH2 0x28D PUSH2 0x495 CALLDATASIZE PUSH1 0x4 PUSH2 0x248F JUMP JUMPDEST PUSH2 0x1422 JUMP JUMPDEST PUSH2 0x28D PUSH2 0x4A8 CALLDATASIZE PUSH1 0x4 PUSH2 0x248F JUMP JUMPDEST PUSH2 0x163E JUMP JUMPDEST PUSH1 0x12 SLOAD PUSH2 0x2D3 JUMP JUMPDEST PUSH2 0x265 PUSH2 0x4C3 CALLDATASIZE PUSH1 0x4 PUSH2 0x2291 JUMP JUMPDEST PUSH2 0x174C JUMP JUMPDEST PUSH2 0x28D PUSH2 0x4D6 CALLDATASIZE PUSH1 0x4 PUSH2 0x2291 JUMP JUMPDEST PUSH2 0x1956 JUMP JUMPDEST PUSH2 0x28D PUSH2 0x4E9 CALLDATASIZE PUSH1 0x4 PUSH2 0x256A JUMP JUMPDEST PUSH2 0x1A43 JUMP JUMPDEST PUSH1 0x13 SLOAD PUSH1 0x1 PUSH1 0x1 PUSH1 0xA0 SHL SUB AND PUSH2 0x2F4 JUMP JUMPDEST PUSH2 0x28D PUSH2 0x50D CALLDATASIZE PUSH1 0x4 PUSH2 0x22D7 JUMP JUMPDEST PUSH2 0x1BC5 JUMP JUMPDEST PUSH2 0x265 PUSH2 0x520 CALLDATASIZE PUSH1 0x4 PUSH2 0x2291 JUMP JUMPDEST PUSH1 0x6 PUSH1 0x20 MSTORE PUSH1 0x0 SWAP1 DUP2 MSTORE PUSH1 0x40 SWAP1 KECCAK256 SLOAD PUSH1 0xFF AND DUP2 JUMP JUMPDEST PUSH2 0x28D PUSH2 0x543 CALLDATASIZE PUSH1 0x4 PUSH2 0x22D7 JUMP JUMPDEST PUSH2 0x1CAA JUMP JUMPDEST PUSH2 0x2D3 PUSH1 0x10 SLOAD DUP2 JUMP JUMPDEST PUSH2 0x2D3 PUSH2 0x55F CALLDATASIZE PUSH1 0x4 PUSH2 0x2291 JUMP JUMPDEST PUSH1 0xB PUSH1 0x20 MSTORE PUSH1 0x0 SWAP1 DUP2 MSTORE PUSH1 0x40 SWAP1 KECCAK256 SLOAD DUP2 JUMP JUMPDEST PUSH2 0x584 PUSH2 0x57F CALLDATASIZE PUSH1 0x4 PUSH2 0x2291 JUMP JUMPDEST PUSH2 0x1D9C JUMP JUMPDEST PUSH1 0x40 MLOAD PUSH2 0x271 SWAP3 SWAP2 SWAP1 PUSH2 0x2615 JUMP JUMPDEST PUSH2 0x28D PUSH2 0x5A0 CALLDATASIZE PUSH1 0x4 PUSH2 0x256A JUMP JUMPDEST PUSH2 0x1E40 JUMP JUMPDEST PUSH2 0x28D PUSH2 0x5B3 CALLDATASIZE PUSH1 0x4 PUSH2 0x2540 JUMP JUMPDEST PUSH2 0x1FB4 JUMP JUMPDEST PUSH2 0x2D3 PUSH2 0x5C6 CALLDATASIZE PUSH1 0x4 PUSH2 0x2291 JUMP JUMPDEST PUSH1 0x3 PUSH1 0x20 MSTORE PUSH1 0x0 SWAP1 DUP2 MSTORE PUSH1 0x40 SWAP1 KECCAK256 SLOAD DUP2 JUMP JUMPDEST PUSH1 0x0 DUP2 PUSH1 0x40 MLOAD PUSH1 0x20 ADD PUSH2 0x5EB SWAP2 SWAP1 PUSH2 0x2637 JUMP JUMPDEST PUSH1 0x40 DUP1 MLOAD PUSH1 0x1F NOT DUP2 DUP5 SUB ADD DUP2 MSTORE SWAP1 DUP3 SWAP1 MSTORE PUSH1 0x0 DUP1 SLOAD PUSH4 0x333F6111 PUSH1 0xE0 SHL DUP5 MSTORE SWAP2 SWAP4 POP SWAP2 PUSH1 0x1 PUSH1 0x1 PUSH1 0xA0 SHL SUB SWAP1 SWAP2 AND SWAP1 PUSH4 0x333F6111 SWAP1 PUSH2 0x634 SWAP1 DUP10 SWAP1 DUP10 SWAP1 DUP10 SWAP1 DUP9 SWAP1 PUSH1 0x4 ADD PUSH2 0x267D JUMP JUMPDEST PUSH1 0x20 PUSH1 0x40 MLOAD DUP1 DUP4 SUB DUP2 PUSH1 0x0 DUP8 GAS CALL ISZERO DUP1 ISZERO PUSH2 0x653 JUMPI RETURNDATASIZE PUSH1 0x0 DUP1 RETURNDATACOPY RETURNDATASIZE PUSH1 0x0 REVERT JUMPDEST POP POP POP POP PUSH1 0x40 MLOAD RETURNDATASIZE PUSH1 0x1F NOT PUSH1 0x1F DUP3 ADD AND DUP3 ADD DUP1 PUSH1 0x40 MSTORE POP DUP2 ADD SWAP1 PUSH2 0x677 SWAP2 SWAP1 PUSH2 0x275E JUMP JUMPDEST SWAP1 POP DUP1 PUSH2 0x69F JUMPI PUSH1 0x40 MLOAD PUSH3 0x461BCD PUSH1 0xE5 SHL DUP2 MSTORE PUSH1 0x4 ADD PUSH2 0x696 SWAP1 PUSH2 0x2780 JUMP JUMPDEST PUSH1 0x40 MLOAD DUP1 SWAP2 SUB SWAP1 REVERT JUMPDEST POP POP PUSH1 0xD DUP1 SLOAD PUSH1 0x1 PUSH1 0x1 PUSH1 0xA0 SHL SUB NOT AND PUSH1 0x1 PUSH1 0x1 PUSH1 0xA0 SHL SUB SWAP3 SWAP1 SWAP3 AND SWAP2 SWAP1 SWAP2 OR SWAP1 SSTORE PUSH1 0xF SSTORE POP POP JUMP JUMPDEST CALLER PUSH1 0x0 DUP2 DUP2 MSTORE PUSH1 0x6 PUSH1 0x20 MSTORE PUSH1 0x40 SWAP1 KECCAK256 SLOAD PUSH1 0xFF AND PUSH2 0x727 JUMPI PUSH1 0x40 MLOAD PUSH3 0x461BCD PUSH1 0xE5 SHL DUP2 MSTORE PUSH1 0x20 PUSH1 0x4 DUP3 ADD MSTORE PUSH1 0x17 PUSH1 0x24 DUP3 ADD MSTORE PUSH32 0x55736572206973206E6F742077686974656C6973746564000000000000000000 PUSH1 0x44 DUP3 ADD MSTORE PUSH1 0x64 ADD PUSH2 0x696 JUMP JUMPDEST PUSH1 0x1 PUSH1 0x1 PUSH1 0xA0 SHL SUB DUP2 AND PUSH1 0x0 SWAP1 DUP2 MSTORE PUSH1 0x9 PUSH1 0x20 SWAP1 DUP2 MSTORE PUSH1 0x40 DUP1 DUP4 KECCAK256 SLOAD PUSH1 0xA SWAP1 SWAP3 MSTORE SWAP1 SWAP2 KECCAK256 SLOAD DUP1 DUP3 LT ISZERO PUSH2 0x793 JUMPI PUSH1 0x40 MLOAD PUSH3 0x461BCD PUSH1 0xE5 SHL DUP2 MSTORE PUSH1 0x20 PUSH1 0x4 DUP3 ADD MSTORE PUSH1 0x14 PUSH1 0x24 DUP3 ADD MSTORE PUSH20 0x496E76616C696420636C61696D2076616C756573 PUSH1 0x60 SHL PUSH1 0x44 DUP3 ADD MSTORE PUSH1 0x64 ADD PUSH2 0x696 JUMP JUMPDEST PUSH1 0x1 PUSH1 0x1 PUSH1 0xA0 SHL SUB DUP4 AND PUSH1 0x0 DUP2 DUP2 MSTORE PUSH1 0xA PUSH1 0x20 SWAP1 DUP2 MSTORE PUSH1 0x40 DUP1 DUP4 KECCAK256 DUP7 SWAP1 SSTORE PUSH1 0x8 DUP1 DUP4 MSTORE DUP2 DUP5 KECCAK256 SLOAD PUSH1 0x9 DUP5 MSTORE SWAP4 DUP3 SWAP1 KECCAK256 DUP5 SWAP1 SSTORE DUP3 MSTORE DUP1 MLOAD DUP7 DUP2 MSTORE SWAP2 DUP3 ADD SWAP3 SWAP1 SWAP3 MSTORE PUSH32 0xDC5EC23A202853E756BBB0C4F4CB94DEEA4936FCC71756DA3DDEBF99AABF6C9E SWAP2 ADD JUMPDEST PUSH1 0x40 MLOAD DUP1 SWAP2 SUB SWAP1 LOG2 POP POP POP JUMP JUMPDEST CALLER PUSH1 0x0 SWAP1 DUP2 MSTORE PUSH1 0x5 PUSH1 0x20 MSTORE PUSH1 0x40 SWAP1 KECCAK256 SLOAD PUSH1 0xFF AND PUSH2 0x833 JUMPI PUSH1 0x40 MLOAD PUSH3 0x461BCD PUSH1 0xE5 SHL DUP2 MSTORE PUSH1 0x4 ADD PUSH2 0x696 SWAP1 PUSH2 0x27B5 JUMP JUMPDEST PUSH1 0x0 DUP2 PUSH1 0x40 MLOAD PUSH1 0x20 ADD PUSH2 0x846 SWAP2 SWAP1 PUSH2 0x27F6 JUMP JUMPDEST PUSH1 0x40 DUP1 MLOAD PUSH1 0x1F NOT DUP2 DUP5 SUB ADD DUP2 MSTORE SWAP2 DUP2 MSTORE DUP2 MLOAD PUSH1 0x20 SWAP3 DUP4 ADD KECCAK256 PUSH1 0x1 PUSH1 0x1 PUSH1 0xA0 SHL SUB DUP7 AND PUSH1 0x0 SWAP1 DUP2 MSTORE PUSH1 0x6 SWAP1 SWAP4 MSTORE SWAP2 KECCAK256 SLOAD SWAP1 SWAP2 POP PUSH1 0xFF AND ISZERO PUSH2 0x8C8 JUMPI PUSH1 0x40 MLOAD PUSH3 0x461BCD PUSH1 0xE5 SHL DUP2 MSTORE PUSH1 0x20 PUSH1 0x4 DUP3 ADD MSTORE PUSH1 0x1B PUSH1 0x24 DUP3 ADD MSTORE PUSH32 0x4164647265737320616C72656164792077686974656C69737465640000000000 PUSH1 0x44 DUP3 ADD MSTORE PUSH1 0x64 ADD PUSH2 0x696 JUMP JUMPDEST PUSH1 0x1 PUSH1 0x1 PUSH1 0xA0 SHL SUB DUP4 AND PUSH1 0x0 DUP2 DUP2 MSTORE PUSH1 0x3 PUSH1 0x20 SWAP1 DUP2 MSTORE PUSH1 0x40 DUP1 DUP4 KECCAK256 PUSH1 0x5 SWAP1 SSTORE PUSH1 0x6 DUP3 MSTORE DUP1 DUP4 KECCAK256 DUP1 SLOAD PUSH1 0xFF NOT AND PUSH1 0x1 OR SWAP1 SSTORE PUSH1 0xB DUP3 MSTORE SWAP2 DUP3 SWAP1 KECCAK256 DUP5 SWAP1 SSTORE SWAP1 MLOAD DUP4 DUP2 MSTORE PUSH32 0xC27D38AD1BDB4164D72E05492B5CE6099B4169E9F20B41D3C7CF35C114A64D5B SWAP2 ADD PUSH2 0x7F7 JUMP JUMPDEST CALLER PUSH1 0x0 SWAP1 DUP2 MSTORE PUSH1 0x5 PUSH1 0x20 MSTORE PUSH1 0x40 SWAP1 KECCAK256 SLOAD PUSH1 0xFF AND PUSH2 0x99C JUMPI PUSH1 0x40 MLOAD PUSH3 0x461BCD PUSH1 0xE5 SHL DUP2 MSTORE PUSH1 0x20 PUSH1 0x4 DUP3 ADD MSTORE PUSH1 0x23 PUSH1 0x24 DUP3 ADD MSTORE PUSH32 0x4E6F74207065726D697474656420746F20757064617465206C61737420706C61 PUSH1 0x44 DUP3 ADD MSTORE PUSH3 0x1E5959 PUSH1 0xEA SHL PUSH1 0x64 DUP3 ADD MSTORE PUSH1 0x84 ADD PUSH2 0x696 JUMP JUMPDEST PUSH1 0x40 DUP1 MLOAD DUP1 DUP3 ADD DUP3 MSTORE DUP3 DUP2 MSTORE TIMESTAMP PUSH1 0x20 DUP1 DUP4 ADD SWAP2 SWAP1 SWAP2 MSTORE PUSH1 0x1 PUSH1 0x1 PUSH1 0xA0 SHL SUB DUP6 AND PUSH1 0x0 SWAP1 DUP2 MSTORE PUSH1 0x4 SWAP1 SWAP2 MSTORE SWAP2 SWAP1 SWAP2 KECCAK256 DUP2 MLOAD DUP2 SWAP1 PUSH2 0x9D8 SWAP1 DUP3 PUSH2 0x289B JUMP JUMPDEST POP PUSH1 0x20 DUP3 ADD MLOAD DUP2 PUSH1 0x1 ADD SSTORE SWAP1 POP POP POP POP JUMP JUMPDEST PUSH1 0x0 PUSH1 0x11 SLOAD DUP3 DUP1 MLOAD SWAP1 PUSH1 0x20 ADD KECCAK256 EQ PUSH2 0xA5E JUMPI PUSH1 0x40 MLOAD PUSH3 0x461BCD PUSH1 0xE5 SHL DUP2 MSTORE PUSH1 0x20 PUSH1 0x4 DUP3 ADD MSTORE PUSH1 0x31 PUSH1 0x24 DUP3 ADD MSTORE PUSH32 0x42797465636F646520646F6573206E6F74206D617463682070726576696F7573 PUSH1 0x44 DUP3 ADD MSTORE PUSH17 0x363C90383937BB34B232B2103430B9B417 PUSH1 0x79 SHL PUSH1 0x64 DUP3 ADD MSTORE PUSH1 0x84 ADD PUSH2 0x696 JUMP JUMPDEST PUSH1 0x0 DUP3 MLOAD PUSH1 0x20 DUP5 ADD PUSH1 0x0 CREATE SWAP1 POP PUSH1 0x1 PUSH1 0x1 PUSH1 0xA0 SHL SUB DUP2 AND PUSH2 0xAC1 JUMPI PUSH1 0x40 MLOAD PUSH3 0x461BCD PUSH1 0xE5 SHL DUP2 MSTORE PUSH1 0x20 PUSH1 0x4 DUP3 ADD MSTORE PUSH1 0x18 PUSH1 0x24 DUP3 ADD MSTORE PUSH32 0x436F6E7472616374206372656174696F6E206661696C65640000000000000000 PUSH1 0x44 DUP3 ADD MSTORE PUSH1 0x64 ADD PUSH2 0x696 JUMP JUMPDEST PUSH1 0x40 MLOAD PUSH1 0x1 PUSH1 0x1 PUSH1 0xA0 SHL SUB DUP3 AND SWAP1 PUSH32 0xCF78CF0D6F3D8371E1075C69C492AB4EC5D8CF23A1A239B6A51A1D00BE7CA312 SWAP1 PUSH1 0x0 SWAP1 LOG2 SWAP3 SWAP2 POP POP JUMP JUMPDEST PUSH1 0x1 PUSH1 0x1 PUSH1 0xA0 SHL SUB DUP2 AND PUSH1 0x0 SWAP1 DUP2 MSTORE PUSH1 0x6 PUSH1 0x20 MSTORE PUSH1 0x40 DUP2 KECCAK256 SLOAD PUSH1 0xFF AND PUSH2 0xB23 JUMPI POP PUSH1 0x0 SWAP2 SWAP1 POP JUMP JUMPDEST PUSH1 0x1 PUSH1 0x1 PUSH1 0xA0 SHL SUB DUP3 AND PUSH1 0x0 SWAP1 DUP2 MSTORE PUSH1 0x3 PUSH1 0x20 SWAP1 DUP2 MSTORE PUSH1 0x40 DUP1 DUP4 KECCAK256 SLOAD PUSH1 0x1 DUP1 DUP5 MSTORE DUP3 DUP6 KECCAK256 PUSH1 0x2 SWAP1 SWAP5 MSTORE SWAP2 SWAP1 SWAP4 KECCAK256 SWAP1 DUP3 ADD SLOAD DUP4 GT ISZERO PUSH2 0xB73 JUMPI PUSH1 0x1 DUP3 ADD SLOAD PUSH2 0xB6A SWAP1 DUP5 PUSH2 0x2971 JUMP JUMPDEST SWAP6 SWAP5 POP POP POP POP POP JUMP JUMPDEST DUP2 SLOAD PUSH2 0xE10 DUP3 DUP3 PUSH2 0x1F4 DUP2 LT PUSH2 0xB8B JUMPI PUSH2 0xB8B PUSH2 0x2984 JUMP JUMPDEST ADD SLOAD PUSH2 0xB97 SWAP1 TIMESTAMP PUSH2 0x2971 JUMP JUMPDEST GT ISZERO PUSH2 0xBA7 JUMPI POP SWAP2 SWAP5 SWAP4 POP POP POP POP JUMP JUMPDEST DUP3 SLOAD PUSH1 0x0 SWAP1 DUP6 SWAP1 PUSH2 0xBB9 SWAP1 PUSH1 0x1 PUSH2 0x299A JUMP JUMPDEST PUSH2 0xBC3 SWAP2 SWAP1 PUSH2 0x29AD JUMP JUMPDEST SWAP1 POP PUSH2 0xE10 DUP4 DUP3 PUSH2 0x1F4 DUP2 LT PUSH2 0xBDB JUMPI PUSH2 0xBDB PUSH2 0x2984 JUMP JUMPDEST ADD SLOAD PUSH2 0xBE7 SWAP1 TIMESTAMP PUSH2 0x2971 JUMP JUMPDEST GT ISZERO PUSH2 0xC03 JUMPI PUSH2 0xBF8 PUSH1 0x1 DUP7 PUSH2 0x2971 JUMP JUMPDEST SWAP8 SWAP7 POP POP POP POP POP POP POP JUMP JUMPDEST POP PUSH1 0x0 SWAP7 SWAP6 POP POP POP POP POP POP JUMP JUMPDEST PUSH1 0x0 DUP2 PUSH1 0x40 MLOAD PUSH1 0x20 ADD PUSH2 0xC25 SWAP2 DUP2 MSTORE PUSH1 0x20 ADD SWAP1 JUMP JUMPDEST PUSH1 0x40 DUP1 MLOAD PUSH1 0x1F NOT DUP2 DUP5 SUB ADD DUP2 MSTORE SWAP1 DUP3 SWAP1 MSTORE PUSH1 0x0 DUP1 SLOAD PUSH4 0x333F6111 PUSH1 0xE0 SHL DUP5 MSTORE SWAP2 SWAP4 POP SWAP2 PUSH1 0x1 PUSH1 0x1 PUSH1 0xA0 SHL SUB SWAP1 SWAP2 AND SWAP1 PUSH4 0x333F6111 SWAP1 PUSH2 0xC6E SWAP1 DUP10 SWAP1 DUP10 SWAP1 DUP10 SWAP1 DUP9 SWAP1 PUSH1 0x4 ADD PUSH2 0x267D JUMP JUMPDEST PUSH1 0x20 PUSH1 0x40 MLOAD DUP1 DUP4 SUB DUP2 PUSH1 0x0 DUP8 GAS CALL ISZERO DUP1 ISZERO PUSH2 0xC8D JUMPI RETURNDATASIZE PUSH1 0x0 DUP1 RETURNDATACOPY RETURNDATASIZE PUSH1 0x0 REVERT JUMPDEST POP POP POP POP PUSH1 0x40 MLOAD RETURNDATASIZE PUSH1 0x1F NOT PUSH1 0x1F DUP3 ADD AND DUP3 ADD DUP1 PUSH1 0x40 MSTORE POP DUP2 ADD SWAP1 PUSH2 0xCB1 SWAP2 SWAP1 PUSH2 0x275E JUMP JUMPDEST SWAP1 POP DUP1 PUSH2 0xCD0 JUMPI PUSH1 0x40 MLOAD PUSH3 0x461BCD PUSH1 0xE5 SHL DUP2 MSTORE PUSH1 0x4 ADD PUSH2 0x696 SWAP1 PUSH2 0x2780 JUMP JUMPDEST POP POP PUSH1 0x14 SSTORE PUSH1 0xF SSTORE POP POP JUMP JUMPDEST PUSH1 0x0 DUP1 SLOAD PUSH1 0x40 DUP1 MLOAD PUSH1 0x20 DUP1 DUP3 ADD DUP7 SWAP1 MSTORE DUP3 MLOAD DUP1 DUP4 SUB SWAP1 SWAP2 ADD DUP2 MSTORE DUP2 DUP4 ADD SWAP3 DUP4 SWAP1 MSTORE PUSH4 0x333F6111 PUSH1 0xE0 SHL SWAP1 SWAP3 MSTORE PUSH1 0x1 PUSH1 0x1 PUSH1 0xA0 SHL SUB SWAP1 SWAP3 AND SWAP2 PUSH4 0x333F6111 SWAP2 PUSH2 0xD2D SWAP2 DUP10 SWAP2 DUP10 SWAP2 DUP10 SWAP2 SWAP1 PUSH1 0x44 ADD PUSH2 0x267D JUMP JUMPDEST PUSH1 0x20 PUSH1 0x40 MLOAD DUP1 DUP4 SUB DUP2 PUSH1 0x0 DUP8 GAS CALL ISZERO DUP1 ISZERO PUSH2 0xD4C JUMPI RETURNDATASIZE PUSH1 0x0 DUP1 RETURNDATACOPY RETURNDATASIZE PUSH1 0x0 REVERT JUMPDEST POP POP POP POP PUSH1 0x40 MLOAD RETURNDATASIZE PUSH1 0x1F NOT PUSH1 0x1F DUP3 ADD AND DUP3 ADD DUP1 PUSH1 0x40 MSTORE POP DUP2 ADD SWAP1 PUSH2 0xD70 SWAP2 SWAP1 PUSH2 0x275E JUMP JUMPDEST SWAP1 POP DUP1 PUSH2 0xD8F JUMPI PUSH1 0x40 MLOAD PUSH3 0x461BCD PUSH1 0xE5 SHL DUP2 MSTORE PUSH1 0x4 ADD PUSH2 0x696 SWAP1 PUSH2 0x2780 JUMP JUMPDEST POP PUSH1 0xC SSTORE PUSH1 0xF SSTORE POP POP JUMP JUMPDEST PUSH1 0x0 DUP5 PUSH1 0x40 MLOAD PUSH1 0x20 ADD PUSH2 0xDAD SWAP2 SWAP1 PUSH2 0x29CF JUMP JUMPDEST PUSH1 0x40 MLOAD PUSH1 0x20 DUP2 DUP4 SUB SUB DUP2 MSTORE SWAP1 PUSH1 0x40 MSTORE DUP1 MLOAD SWAP1 PUSH1 0x20 ADD KECCAK256 SWAP1 POP PUSH1 0xF SLOAD DUP2 SUB PUSH2 0xDE6 JUMPI PUSH1 0x40 MLOAD PUSH3 0x461BCD PUSH1 0xE5 SHL DUP2 MSTORE PUSH1 0x4 ADD PUSH2 0x696 SWAP1 PUSH2 0x2A06 JUMP JUMPDEST PUSH1 0x0 DUP3 PUSH1 0x40 MLOAD PUSH1 0x20 ADD PUSH2 0xDF9 SWAP2 SWAP1 PUSH2 0x2637 JUMP JUMPDEST PUSH1 0x40 DUP1 MLOAD PUSH1 0x1F NOT DUP2 DUP5 SUB ADD DUP2 MSTORE SWAP1 DUP3 SWAP1 MSTORE PUSH1 0x0 DUP1 SLOAD PUSH4 0x333F6111 PUSH1 0xE0 SHL DUP5 MSTORE SWAP2 SWAP4 POP SWAP2 PUSH1 0x1 PUSH1 0x1 PUSH1 0xA0 SHL SUB SWAP1 SWAP2 AND SWAP1 PUSH4 0x333F6111 SWAP1 PUSH2 0xE42 SWAP1 DUP11 SWAP1 DUP11 SWAP1 DUP11 SWAP1 DUP9 SWAP1 PUSH1 0x4 ADD PUSH2 0x267D JUMP JUMPDEST PUSH1 0x20 PUSH1 0x40 MLOAD DUP1 DUP4 SUB DUP2 PUSH1 0x0 DUP8 GAS CALL ISZERO DUP1 ISZERO PUSH2 0xE61 JUMPI RETURNDATASIZE PUSH1 0x0 DUP1 RETURNDATACOPY RETURNDATASIZE PUSH1 0x0 REVERT JUMPDEST POP POP POP POP PUSH1 0x40 MLOAD RETURNDATASIZE PUSH1 0x1F NOT PUSH1 0x1F DUP3 ADD AND DUP3 ADD DUP1 PUSH1 0x40 MSTORE POP DUP2 ADD SWAP1 PUSH2 0xE85 SWAP2 SWAP1 PUSH2 0x275E JUMP JUMPDEST SWAP1 POP DUP1 PUSH2 0xEA4 JUMPI PUSH1 0x40 MLOAD PUSH3 0x461BCD PUSH1 0xE5 SHL DUP2 MSTORE PUSH1 0x4 ADD PUSH2 0x696 SWAP1 PUSH2 0x2780 JUMP JUMPDEST PUSH1 0x15 SLOAD DUP3 MLOAD PUSH1 0x20 DUP5 ADD KECCAK256 EQ PUSH2 0xEFB JUMPI PUSH1 0x40 MLOAD PUSH3 0x461BCD PUSH1 0xE5 SHL DUP2 MSTORE PUSH1 0x20 PUSH1 0x4 DUP3 ADD MSTORE PUSH1 0x1D PUSH1 0x24 DUP3 ADD MSTORE PUSH32 0x4D69736D61746368656420636F6D6D697373696F6E2061646472657373000000 PUSH1 0x44 DUP3 ADD MSTORE PUSH1 0x64 ADD PUSH2 0x696 JUMP JUMPDEST POP POP PUSH1 0x13 DUP1 SLOAD PUSH1 0x1 PUSH1 0x1 PUSH1 0xA0 SHL SUB NOT AND PUSH1 0x1 PUSH1 0x1 PUSH1 0xA0 SHL SUB SWAP4 SWAP1 SWAP4 AND SWAP3 SWAP1 SWAP3 OR SWAP1 SWAP2 SSTORE POP POP PUSH1 0x0 PUSH1 0xF SSTORE POP POP JUMP JUMPDEST PUSH1 0x1 PUSH1 0x1 PUSH1 0xA0 SHL SUB DUP2 AND PUSH1 0x0 SWAP1 DUP2 MSTORE PUSH1 0x4 PUSH1 0x20 MSTORE PUSH1 0x40 DUP1 DUP3 KECCAK256 DUP2 MLOAD DUP1 DUP4 ADD SWAP1 SWAP3 MSTORE DUP1 SLOAD DUP4 SWAP3 SWAP2 SWAP1 DUP3 SWAP1 DUP3 SWAP1 PUSH2 0xF5D SWAP1 PUSH2 0x2812 JUMP JUMPDEST DUP1 PUSH1 0x1F ADD PUSH1 0x20 DUP1 SWAP2 DIV MUL PUSH1 0x20 ADD PUSH1 0x40 MLOAD SWAP1 DUP2 ADD PUSH1 0x40 MSTORE DUP1 SWAP3 SWAP2 SWAP1 DUP2 DUP2 MSTORE PUSH1 0x20 ADD DUP3 DUP1 SLOAD PUSH2 0xF89 SWAP1 PUSH2 0x2812 JUMP JUMPDEST DUP1 ISZERO PUSH2 0xFD6 JUMPI DUP1 PUSH1 0x1F LT PUSH2 0xFAB JUMPI PUSH2 0x100 DUP1 DUP4 SLOAD DIV MUL DUP4 MSTORE SWAP2 PUSH1 0x20 ADD SWAP2 PUSH2 0xFD6 JUMP JUMPDEST DUP3 ADD SWAP2 SWAP1 PUSH1 0x0 MSTORE PUSH1 0x20 PUSH1 0x0 KECCAK256 SWAP1 JUMPDEST DUP2 SLOAD DUP2 MSTORE SWAP1 PUSH1 0x1 ADD SWAP1 PUSH1 0x20 ADD DUP1 DUP4 GT PUSH2 0xFB9 JUMPI DUP3 SWAP1 SUB PUSH1 0x1F AND DUP3 ADD SWAP2 JUMPDEST POP POP POP POP POP DUP2 MSTORE PUSH1 0x20 ADD PUSH1 0x1 DUP3 ADD SLOAD DUP2 MSTORE POP POP SWAP1 POP PUSH1 0x0 PUSH2 0x1E0 DUP3 PUSH1 0x20 ADD MLOAD TIMESTAMP PUSH2 0x1000 SWAP2 SWAP1 PUSH2 0x2971 JUMP JUMPDEST LT SWAP1 POP DUP1 DUP1 ISZERO PUSH2 0x105B JUMPI POP DUP5 PUSH1 0x40 MLOAD PUSH1 0x20 ADD PUSH2 0x101C SWAP2 SWAP1 PUSH2 0x27F6 JUMP JUMPDEST PUSH1 0x40 DUP1 MLOAD PUSH1 0x1F NOT DUP2 DUP5 SUB ADD DUP2 MSTORE SWAP1 DUP3 SWAP1 MSTORE DUP1 MLOAD PUSH1 0x20 SWAP2 DUP3 ADD KECCAK256 DUP5 MLOAD SWAP1 SWAP3 PUSH2 0x1043 SWAP3 ADD PUSH2 0x27F6 JUMP JUMPDEST PUSH1 0x40 MLOAD PUSH1 0x20 DUP2 DUP4 SUB SUB DUP2 MSTORE SWAP1 PUSH1 0x40 MSTORE DUP1 MLOAD SWAP1 PUSH1 0x20 ADD KECCAK256 EQ JUMPDEST ISZERO PUSH2 0x106B JUMPI PUSH1 0x2 SWAP3 POP POP POP PUSH2 0x10DB JUMP JUMPDEST DUP1 DUP1 ISZERO PUSH2 0x10C4 JUMPI POP DUP5 PUSH1 0x40 MLOAD PUSH1 0x20 ADD PUSH2 0x1084 SWAP2 SWAP1 PUSH2 0x27F6 JUMP JUMPDEST PUSH1 0x40 DUP1 MLOAD PUSH1 0x1F NOT DUP2 DUP5 SUB ADD DUP2 MSTORE SWAP1 DUP3 SWAP1 MSTORE DUP1 MLOAD PUSH1 0x20 SWAP2 DUP3 ADD KECCAK256 DUP5 MLOAD SWAP1 SWAP3 PUSH2 0x10AB SWAP3 ADD PUSH2 0x27F6 JUMP JUMPDEST PUSH1 0x40 MLOAD PUSH1 0x20 DUP2 DUP4 SUB SUB DUP2 MSTORE SWAP1 PUSH1 0x40 MSTORE DUP1 MLOAD SWAP1 PUSH1 0x20 ADD KECCAK256 EQ ISZERO JUMPDEST ISZERO PUSH2 0x10D4 JUMPI PUSH1 0x1 SWAP3 POP POP POP PUSH2 0x10DB JUMP JUMPDEST PUSH1 0x0 SWAP3 POP POP POP JUMPDEST SWAP3 SWAP2 POP POP JUMP JUMPDEST PUSH1 0x0 DUP1 SLOAD PUSH1 0x40 DUP1 MLOAD PUSH1 0x20 DUP1 DUP3 ADD DUP7 SWAP1 MSTORE DUP3 MLOAD DUP1 DUP4 SUB SWAP1 SWAP2 ADD DUP2 MSTORE DUP2 DUP4 ADD SWAP3 DUP4 SWAP1 MSTORE PUSH4 0x333F6111 PUSH1 0xE0 SHL SWAP1 SWAP3 MSTORE PUSH1 0x1 PUSH1 0x1 PUSH1 0xA0 SHL SUB SWAP1 SWAP3 AND SWAP2 PUSH4 0x333F6111 SWAP2 PUSH2 0x1132 SWAP2 DUP10 SWAP2 DUP10 SWAP2 DUP10 SWAP2 SWAP1 PUSH1 0x44 ADD PUSH2 0x267D JUMP JUMPDEST PUSH1 0x20 PUSH1 0x40 MLOAD DUP1 DUP4 SUB DUP2 PUSH1 0x0 DUP8 GAS CALL ISZERO DUP1 ISZERO PUSH2 0x1151 JUMPI RETURNDATASIZE PUSH1 0x0 DUP1 RETURNDATACOPY RETURNDATASIZE PUSH1 0x0 REVERT JUMPDEST POP POP POP POP PUSH1 0x40 MLOAD RETURNDATASIZE PUSH1 0x1F NOT PUSH1 0x1F DUP3 ADD AND DUP3 ADD DUP1 PUSH1 0x40 MSTORE POP DUP2 ADD SWAP1 PUSH2 0x1175 SWAP2 SWAP1 PUSH2 0x275E JUMP JUMPDEST SWAP1 POP DUP1 PUSH2 0x1194 JUMPI PUSH1 0x40 MLOAD PUSH3 0x461BCD PUSH1 0xE5 SHL DUP2 MSTORE PUSH1 0x4 ADD PUSH2 0x696 SWAP1 PUSH2 0x2780 JUMP JUMPDEST POP PUSH1 0x11 SSTORE PUSH1 0xF SSTORE POP POP JUMP JUMPDEST CALLER PUSH1 0x0 SWAP1 DUP2 MSTORE PUSH1 0x5 PUSH1 0x20 MSTORE PUSH1 0x40 SWAP1 KECCAK256 SLOAD PUSH1 0xFF AND PUSH2 0x1217 JUMPI PUSH1 0x40 MLOAD PUSH3 0x461BCD PUSH1 0xE5 SHL DUP2 MSTORE PUSH1 0x20 PUSH1 0x4 DUP3 ADD MSTORE PUSH1 0x30 PUSH1 0x24 DUP3 ADD MSTORE PUSH32 0x4E6F74207065726D697474656420746F206D6F6469667920686F75726C792074 PUSH1 0x44 DUP3 ADD MSTORE PUSH16 0x72616E73616374696F6E2071756F7461 PUSH1 0x80 SHL PUSH1 0x64 DUP3 ADD MSTORE PUSH1 0x84 ADD PUSH2 0x696 JUMP JUMPDEST PUSH1 0x1 PUSH1 0x1 PUSH1 0xA0 SHL SUB DUP3 AND PUSH1 0x0 SWAP1 DUP2 MSTORE PUSH1 0x6 PUSH1 0x20 MSTORE PUSH1 0x40 SWAP1 KECCAK256 SLOAD PUSH1 0xFF AND PUSH2 0x127F JUMPI PUSH1 0x40 MLOAD PUSH3 0x461BCD PUSH1 0xE5 SHL DUP2 MSTORE PUSH1 0x20 PUSH1 0x4 DUP3 ADD MSTORE PUSH1 0x1E PUSH1 0x24 DUP3 ADD MSTORE PUSH32 0x41646472657373206E6F7420666F756E6420696E2077686974656C6973740000 PUSH1 0x44 DUP3 ADD MSTORE PUSH1 0x64 ADD PUSH2 0x696 JUMP JUMPDEST PUSH1 0x1 PUSH1 0x1 PUSH1 0xA0 SHL SUB DUP3 AND PUSH1 0x0 DUP2 DUP2 MSTORE PUSH1 0x3 PUSH1 0x20 MSTORE PUSH1 0x40 SWAP1 DUP2 SWAP1 KECCAK256 DUP4 SWAP1 SSTORE MLOAD PUSH32 0x49E4E7CA63DCC35A72589F844CB844CE25176E8E1AFF16F1AD1FB46624C65372 SWAP1 PUSH2 0x12CC SWAP1 DUP5 DUP2 MSTORE PUSH1 0x20 ADD SWAP1 JUMP JUMPDEST PUSH1 0x40 MLOAD DUP1 SWAP2 SUB SWAP1 LOG2 POP POP JUMP JUMPDEST PUSH1 0x0 DUP1 SLOAD PUSH1 0xC SLOAD PUSH1 0x40 DUP1 MLOAD PUSH1 0x20 DUP1 DUP3 ADD SWAP4 SWAP1 SWAP4 MSTORE DUP2 MLOAD DUP1 DUP3 SUB SWAP1 SWAP4 ADD DUP4 MSTORE DUP1 DUP3 ADD SWAP2 DUP3 SWAP1 MSTORE PUSH4 0x333F6111 PUSH1 0xE0 SHL SWAP1 SWAP2 MSTORE PUSH1 0x1 PUSH1 0x1 PUSH1 0xA0 SHL SUB SWAP1 SWAP3 AND SWAP2 PUSH4 0x333F6111 SWAP2 PUSH2 0x132D SWAP2 DUP9 SWAP2 DUP9 SWAP2 DUP9 SWAP2 SWAP1 PUSH1 0x44 ADD PUSH2 0x267D JUMP JUMPDEST PUSH1 0x20 PUSH1 0x40 MLOAD DUP1 DUP4 SUB DUP2 PUSH1 0x0 DUP8 GAS CALL ISZERO DUP1 ISZERO PUSH2 0x134C JUMPI RETURNDATASIZE PUSH1 0x0 DUP1 RETURNDATACOPY RETURNDATASIZE PUSH1 0x0 REVERT JUMPDEST POP POP POP POP PUSH1 0x40 MLOAD RETURNDATASIZE PUSH1 0x1F NOT PUSH1 0x1F DUP3 ADD AND DUP3 ADD DUP1 PUSH1 0x40 MSTORE POP DUP2 ADD SWAP1 PUSH2 0x1370 SWAP2 SWAP1 PUSH2 0x275E JUMP JUMPDEST SWAP1 POP PUSH1 0x0 DUP5 PUSH1 0x40 MLOAD PUSH1 0x20 ADD PUSH2 0x1385 SWAP2 SWAP1 PUSH2 0x29CF JUMP JUMPDEST PUSH1 0x40 MLOAD PUSH1 0x20 DUP2 DUP4 SUB SUB DUP2 MSTORE SWAP1 PUSH1 0x40 MSTORE DUP1 MLOAD SWAP1 PUSH1 0x20 ADD KECCAK256 SWAP1 POP PUSH1 0xF SLOAD DUP2 SUB PUSH2 0x13BE JUMPI PUSH1 0x40 MLOAD PUSH3 0x461BCD PUSH1 0xE5 SHL DUP2 MSTORE PUSH1 0x4 ADD PUSH2 0x696 SWAP1 PUSH2 0x2A06 JUMP JUMPDEST DUP2 PUSH2 0x13DB JUMPI PUSH1 0x40 MLOAD PUSH3 0x461BCD PUSH1 0xE5 SHL DUP2 MSTORE PUSH1 0x4 ADD PUSH2 0x696 SWAP1 PUSH2 0x2780 JUMP JUMPDEST PUSH1 0xC SLOAD PUSH1 0x10 DUP2 SWAP1 SSTORE PUSH1 0x40 MLOAD SWAP1 DUP2 MSTORE PUSH32 0x58098EEEC115CBA633A1B8765151F8A2E4EFBDCB42846E0968E430D56E21D370 SWAP1 PUSH1 0x20 ADD PUSH1 0x40 MLOAD DUP1 SWAP2 SUB SWAP1 LOG1 POP POP PUSH1 0x0 PUSH1 0xF SSTORE POP POP POP JUMP JUMPDEST PUSH1 0x0 DUP5 PUSH1 0x40 MLOAD PUSH1 0x20 ADD PUSH2 0x1435 SWAP2 SWAP1 PUSH2 0x29CF JUMP JUMPDEST PUSH1 0x40 MLOAD PUSH1 0x20 DUP2 DUP4 SUB SUB DUP2 MSTORE SWAP1 PUSH1 0x40 MSTORE DUP1 MLOAD SWAP1 PUSH1 0x20 ADD KECCAK256 SWAP1 POP PUSH1 0xF SLOAD DUP2 SUB PUSH2 0x146E JUMPI PUSH1 0x40 MLOAD PUSH3 0x461BCD PUSH1 0xE5 SHL DUP2 MSTORE PUSH1 0x4 ADD PUSH2 0x696 SWAP1 PUSH2 0x2A06 JUMP JUMPDEST PUSH1 0x0 DUP3 PUSH1 0x40 MLOAD PUSH1 0x20 ADD PUSH2 0x1483 SWAP2 DUP2 MSTORE PUSH1 0x20 ADD SWAP1 JUMP JUMPDEST PUSH1 0x40 DUP1 MLOAD PUSH1 0x1F NOT DUP2 DUP5 SUB ADD DUP2 MSTORE SWAP1 DUP3 SWAP1 MSTORE PUSH1 0x0 DUP1 SLOAD PUSH4 0x333F6111 PUSH1 0xE0 SHL DUP5 MSTORE SWAP2 SWAP4 POP SWAP2 PUSH1 0x1 PUSH1 0x1 PUSH1 0xA0 SHL SUB SWAP1 SWAP2 AND SWAP1 PUSH4 0x333F6111 SWAP1 PUSH2 0x14CC SWAP1 DUP11 SWAP1 DUP11 SWAP1 DUP11 SWAP1 DUP9 SWAP1 PUSH1 0x4 ADD PUSH2 0x267D JUMP JUMPDEST PUSH1 0x20 PUSH1 0x40 MLOAD DUP1 DUP4 SUB DUP2 PUSH1 0x0 DUP8 GAS CALL ISZERO DUP1 ISZERO PUSH2 0x14EB JUMPI RETURNDATASIZE PUSH1 0x0 DUP1 RETURNDATACOPY RETURNDATASIZE PUSH1 0x0 REVERT JUMPDEST POP POP POP POP PUSH1 0x40 MLOAD RETURNDATASIZE PUSH1 0x1F NOT PUSH1 0x1F DUP3 ADD AND DUP3 ADD DUP1 PUSH1 0x40 MSTORE POP DUP2 ADD SWAP1 PUSH2 0x150F SWAP2 SWAP1 PUSH2 0x275E JUMP JUMPDEST SWAP1 POP DUP1 PUSH2 0x152E JUMPI PUSH1 0x40 MLOAD PUSH3 0x461BCD PUSH1 0xE5 SHL DUP2 MSTORE PUSH1 0x4 ADD PUSH2 0x696 SWAP1 PUSH2 0x2780 JUMP JUMPDEST PUSH1 0x14 DUP5 GT ISZERO PUSH2 0x158F JUMPI PUSH1 0x40 MLOAD PUSH3 0x461BCD PUSH1 0xE5 SHL DUP2 MSTORE PUSH1 0x20 PUSH1 0x4 DUP3 ADD MSTORE PUSH1 0x27 PUSH1 0x24 DUP3 ADD MSTORE PUSH32 0x436F6D6D697373696F6E2073686F756C64206265206265747765656E20302520 PUSH1 0x44 DUP3 ADD MSTORE PUSH7 0x616E6420323025 PUSH1 0xC8 SHL PUSH1 0x64 DUP3 ADD MSTORE PUSH1 0x84 ADD PUSH2 0x696 JUMP JUMPDEST PUSH1 0x14 SLOAD DUP5 EQ PUSH2 0x15F3 JUMPI PUSH1 0x40 MLOAD PUSH3 0x461BCD PUSH1 0xE5 SHL DUP2 MSTORE PUSH1 0x20 PUSH1 0x4 DUP3 ADD MSTORE PUSH1 0x2A PUSH1 0x24 DUP3 ADD MSTORE PUSH32 0x4D69736D61746368656420636F6D6D697373696F6E2076616C75657320626574 PUSH1 0x44 DUP3 ADD MSTORE PUSH10 0x7765656E207374657073 PUSH1 0xB0 SHL PUSH1 0x64 DUP3 ADD MSTORE PUSH1 0x84 ADD PUSH2 0x696 JUMP JUMPDEST PUSH1 0x12 DUP5 SWAP1 SSTORE PUSH1 0x0 PUSH1 0x14 DUP2 SWAP1 SSTORE PUSH1 0xF SSTORE PUSH1 0x40 MLOAD DUP5 DUP2 MSTORE PUSH32 0x11BF320227562BD5F6C9B575913CF92B3B996B47873159DF227324AE1BB4D0EA SWAP1 PUSH1 0x20 ADD PUSH1 0x40 MLOAD DUP1 SWAP2 SUB SWAP1 LOG1 POP POP POP POP POP POP POP JUMP JUMPDEST PUSH1 0x0 DUP1 SLOAD PUSH1 0x40 DUP1 MLOAD PUSH1 0x20 DUP1 DUP3 ADD DUP7 SWAP1 MSTORE DUP3 MLOAD DUP1 DUP4 SUB SWAP1 SWAP2 ADD DUP2 MSTORE DUP2 DUP4 ADD SWAP3 DUP4 SWAP1 MSTORE PUSH4 0x333F6111 PUSH1 0xE0 SHL SWAP1 SWAP3 MSTORE PUSH1 0x1 PUSH1 0x1 PUSH1 0xA0 SHL SUB SWAP1 SWAP3 AND SWAP2 PUSH4 0x333F6111 SWAP2 PUSH2 0x168F SWAP2 DUP10 SWAP2 DUP10 SWAP2 DUP10 SWAP2 SWAP1 PUSH1 0x44 ADD PUSH2 0x267D JUMP JUMPDEST PUSH1 0x20 PUSH1 0x40 MLOAD DUP1 DUP4 SUB DUP2 PUSH1 0x0 DUP8 GAS CALL ISZERO DUP1 ISZERO PUSH2 0x16AE JUMPI RETURNDATASIZE PUSH1 0x0 DUP1 RETURNDATACOPY RETURNDATASIZE PUSH1 0x0 REVERT JUMPDEST POP POP POP POP PUSH1 0x40 MLOAD RETURNDATASIZE PUSH1 0x1F NOT PUSH1 0x1F DUP3 ADD AND DUP3 ADD DUP1 PUSH1 0x40 MSTORE POP DUP2 ADD SWAP1 PUSH2 0x16D2 SWAP2 SWAP1 PUSH2 0x275E JUMP JUMPDEST SWAP1 POP PUSH1 0x0 DUP6 PUSH1 0x40 MLOAD PUSH1 0x20 ADD PUSH2 0x16E7 SWAP2 SWAP1 PUSH2 0x29CF JUMP JUMPDEST PUSH1 0x40 MLOAD PUSH1 0x20 DUP2 DUP4 SUB SUB DUP2 MSTORE SWAP1 PUSH1 0x40 MSTORE DUP1 MLOAD SWAP1 PUSH1 0x20 ADD KECCAK256 SWAP1 POP PUSH1 0xF SLOAD DUP2 SUB PUSH2 0x1720 JUMPI PUSH1 0x40 MLOAD PUSH3 0x461BCD PUSH1 0xE5 SHL DUP2 MSTORE PUSH1 0x4 ADD PUSH2 0x696 SWAP1 PUSH2 0x2A06 JUMP JUMPDEST DUP2 PUSH2 0x173D JUMPI PUSH1 0x40 MLOAD PUSH3 0x461BCD PUSH1 0xE5 SHL DUP2 MSTORE PUSH1 0x4 ADD PUSH2 0x696 SWAP1 PUSH2 0x2780 JUMP JUMPDEST POP POP PUSH1 0x11 SSTORE POP POP PUSH1 0x0 PUSH1 0xF SSTORE POP JUMP JUMPDEST PUSH1 0x0 CALLER PUSH20 0x2685751D3C7A49EBF485E823079AC65E2A35A3DD DUP2 EQ SWAP1 PUSH2 0x1770 SWAP1 PUSH2 0x208A JUMP JUMPDEST PUSH1 0x40 MLOAD PUSH1 0x20 ADD PUSH2 0x1780 SWAP2 SWAP1 PUSH2 0x2A6D JUMP JUMPDEST PUSH1 0x40 MLOAD PUSH1 0x20 DUP2 DUP4 SUB SUB DUP2 MSTORE SWAP1 PUSH1 0x40 MSTORE SWAP1 PUSH2 0x17AD JUMPI PUSH1 0x40 MLOAD PUSH3 0x461BCD PUSH1 0xE5 SHL DUP2 MSTORE PUSH1 0x4 ADD PUSH2 0x696 SWAP2 SWAP1 PUSH2 0x2AC8 JUMP JUMPDEST POP PUSH1 0x1 PUSH1 0x1 PUSH1 0xA0 SHL SUB DUP3 AND PUSH1 0x0 SWAP1 DUP2 MSTORE PUSH1 0x6 PUSH1 0x20 MSTORE PUSH1 0x40 SWAP1 KECCAK256 SLOAD PUSH1 0xFF AND PUSH2 0x17D6 JUMPI POP PUSH1 0x0 SWAP2 SWAP1 POP JUMP JUMPDEST PUSH1 0x1 PUSH1 0x1 PUSH1 0xA0 SHL SUB DUP3 AND PUSH1 0x0 SWAP1 DUP2 MSTORE PUSH1 0x3 PUSH1 0x20 MSTORE PUSH1 0x40 DUP2 KECCAK256 SLOAD SWAP1 SUB PUSH2 0x17FD JUMPI POP PUSH1 0x0 SWAP2 SWAP1 POP JUMP JUMPDEST PUSH1 0x1 PUSH1 0x1 PUSH1 0xA0 SHL SUB DUP3 AND PUSH1 0x0 SWAP1 DUP2 MSTORE PUSH1 0x1 PUSH1 0x20 DUP2 DUP2 MSTORE PUSH1 0x40 DUP1 DUP5 KECCAK256 PUSH1 0x2 DUP4 MSTORE DUP2 DUP6 KECCAK256 PUSH1 0x3 SWAP1 SWAP4 MSTORE SWAP4 KECCAK256 SLOAD SWAP2 DUP4 ADD SLOAD SWAP1 SWAP2 GT PUSH2 0x189E JUMPI DUP2 SLOAD PUSH2 0xE10 DUP3 DUP3 PUSH2 0x1F4 DUP2 LT PUSH2 0x184A JUMPI PUSH2 0x184A PUSH2 0x2984 JUMP JUMPDEST ADD SLOAD PUSH2 0x1856 SWAP1 TIMESTAMP PUSH2 0x2971 JUMP JUMPDEST GT PUSH2 0x1866 JUMPI POP PUSH1 0x0 SWAP5 SWAP4 POP POP POP POP JUMP JUMPDEST PUSH1 0x1 PUSH1 0x1 PUSH1 0xA0 SHL SUB DUP6 AND PUSH1 0x0 SWAP1 DUP2 MSTORE PUSH1 0x3 PUSH1 0x20 MSTORE PUSH1 0x40 SWAP1 KECCAK256 SLOAD DUP4 SLOAD PUSH2 0x188C SWAP1 PUSH1 0x1 PUSH2 0x299A JUMP JUMPDEST PUSH2 0x1896 SWAP2 SWAP1 PUSH2 0x29AD JUMP JUMPDEST DUP4 SSTORE POP PUSH2 0x18B6 JUMP JUMPDEST PUSH1 0x1 DUP3 ADD DUP1 SLOAD SWAP1 PUSH1 0x0 PUSH2 0x18B0 DUP4 PUSH2 0x2ADB JUMP JUMPDEST SWAP2 SWAP1 POP SSTORE POP JUMPDEST PUSH1 0x1 PUSH1 0x1 PUSH1 0xA0 SHL SUB DUP5 AND PUSH1 0x0 SWAP1 DUP2 MSTORE PUSH1 0x3 PUSH1 0x20 MSTORE PUSH1 0x40 DUP2 KECCAK256 SLOAD PUSH1 0x1 DUP5 DUP2 ADD SLOAD DUP6 SLOAD PUSH2 0x18E1 SWAP2 SWAP1 PUSH2 0x299A JUMP JUMPDEST PUSH2 0x18EB SWAP2 SWAP1 PUSH2 0x2971 JUMP JUMPDEST PUSH2 0x18F5 SWAP2 SWAP1 PUSH2 0x29AD JUMP JUMPDEST SWAP1 POP TIMESTAMP DUP3 DUP3 PUSH2 0x1F4 DUP2 LT PUSH2 0x190B JUMPI PUSH2 0x190B PUSH2 0x2984 JUMP JUMPDEST ADD SSTORE PUSH1 0x40 MLOAD TIMESTAMP DUP2 MSTORE PUSH1 0x1 PUSH1 0x1 PUSH1 0xA0 SHL SUB DUP7 AND SWAP1 PUSH32 0x9ED0861F8FC182C8888F48E900842F475CCD2A3C93C6F966168EAA67D52D2EE1 SWAP1 PUSH1 0x20 ADD PUSH1 0x40 MLOAD DUP1 SWAP2 SUB SWAP1 LOG2 POP PUSH1 0x1 SWAP5 SWAP4 POP POP POP POP JUMP JUMPDEST CALLER PUSH1 0x0 SWAP1 DUP2 MSTORE PUSH1 0x5 PUSH1 0x20 MSTORE PUSH1 0x40 SWAP1 KECCAK256 SLOAD PUSH1 0xFF AND PUSH2 0x1985 JUMPI PUSH1 0x40 MLOAD PUSH3 0x461BCD PUSH1 0xE5 SHL DUP2 MSTORE PUSH1 0x4 ADD PUSH2 0x696 SWAP1 PUSH2 0x27B5 JUMP JUMPDEST PUSH1 0x1 PUSH1 0x1 PUSH1 0xA0 SHL SUB DUP2 AND PUSH1 0x0 SWAP1 DUP2 MSTORE PUSH1 0x6 PUSH1 0x20 MSTORE PUSH1 0x40 SWAP1 KECCAK256 SLOAD PUSH1 0xFF AND PUSH2 0x19ED JUMPI PUSH1 0x40 MLOAD PUSH3 0x461BCD PUSH1 0xE5 SHL DUP2 MSTORE PUSH1 0x20 PUSH1 0x4 DUP3 ADD MSTORE PUSH1 0x1E PUSH1 0x24 DUP3 ADD MSTORE PUSH32 0x41646472657373206E6F7420666F756E6420696E2077686974656C6973740000 PUSH1 0x44 DUP3 ADD MSTORE PUSH1 0x64 ADD PUSH2 0x696 JUMP JUMPDEST PUSH1 0x1 PUSH1 0x1 PUSH1 0xA0 SHL SUB DUP2 AND PUSH1 0x0 DUP2 DUP2 MSTORE PUSH1 0x6 PUSH1 0x20 SWAP1 DUP2 MSTORE PUSH1 0x40 DUP1 DUP4 KECCAK256 DUP1 SLOAD PUSH1 0xFF NOT AND SWAP1 SSTORE PUSH1 0xB SWAP1 SWAP2 MSTORE DUP1 DUP3 KECCAK256 DUP3 SWAP1 SSTORE MLOAD PUSH32 0xCDD2E9B91A56913D370075169CEFA1602BA36BE5301664F752192BB1709DF757 SWAP2 SWAP1 LOG2 POP JUMP JUMPDEST PUSH1 0x0 DUP4 PUSH1 0x40 MLOAD PUSH1 0x20 ADD PUSH2 0x1A56 SWAP2 SWAP1 PUSH2 0x29CF JUMP JUMPDEST PUSH1 0x40 MLOAD PUSH1 0x20 DUP2 DUP4 SUB SUB DUP2 MSTORE SWAP1 PUSH1 0x40 MSTORE DUP1 MLOAD SWAP1 PUSH1 0x20 ADD KECCAK256 SWAP1 POP PUSH1 0xF SLOAD DUP2 SUB PUSH2 0x1A8F JUMPI PUSH1 0x40 MLOAD PUSH3 0x461BCD PUSH1 0xE5 SHL DUP2 MSTORE PUSH1 0x4 ADD PUSH2 0x696 SWAP1 PUSH2 0x2A06 JUMP JUMPDEST PUSH1 0xE SLOAD PUSH1 0x40 MLOAD PUSH1 0x0 SWAP2 PUSH2 0x1AB0 SWAP2 PUSH1 0x1 PUSH1 0x1 PUSH1 0xA0 SHL SUB SWAP1 SWAP2 AND SWAP1 PUSH1 0x20 ADD PUSH2 0x2637 JUMP JUMPDEST PUSH1 0x40 DUP1 MLOAD PUSH1 0x1F NOT DUP2 DUP5 SUB ADD DUP2 MSTORE SWAP1 DUP3 SWAP1 MSTORE PUSH1 0x0 DUP1 SLOAD PUSH4 0x333F6111 PUSH1 0xE0 SHL DUP5 MSTORE SWAP2 SWAP4 POP SWAP2 PUSH1 0x1 PUSH1 0x1 PUSH1 0xA0 SHL SUB SWAP1 SWAP2 AND SWAP1 PUSH4 0x333F6111 SWAP1 PUSH2 0x1AF9 SWAP1 DUP10 SWAP1 DUP10 SWAP1 DUP10 SWAP1 DUP9 SWAP1 PUSH1 0x4 ADD PUSH2 0x267D JUMP JUMPDEST PUSH1 0x20 PUSH1 0x40 MLOAD DUP1 DUP4 SUB DUP2 PUSH1 0x0 DUP8 GAS CALL ISZERO DUP1 ISZERO PUSH2 0x1B18 JUMPI RETURNDATASIZE PUSH1 0x0 DUP1 RETURNDATACOPY RETURNDATASIZE PUSH1 0x0 REVERT JUMPDEST POP POP POP POP PUSH1 0x40 MLOAD RETURNDATASIZE PUSH1 0x1F NOT PUSH1 0x1F DUP3 ADD AND DUP3 ADD DUP1 PUSH1 0x40 MSTORE POP DUP2 ADD SWAP1 PUSH2 0x1B3C SWAP2 SWAP1 PUSH2 0x275E JUMP JUMPDEST SWAP1 POP DUP1 PUSH2 0x1B5B JUMPI PUSH1 0x40 MLOAD PUSH3 0x461BCD PUSH1 0xE5 SHL DUP2 MSTORE PUSH1 0x4 ADD PUSH2 0x696 SWAP1 PUSH2 0x2780 JUMP JUMPDEST PUSH1 0xE DUP1 SLOAD PUSH1 0x1 PUSH1 0x1 PUSH1 0xA0 SHL SUB SWAP1 DUP2 AND PUSH1 0x0 SWAP1 DUP2 MSTORE PUSH1 0x5 PUSH1 0x20 SWAP1 DUP2 MSTORE PUSH1 0x40 DUP1 DUP4 KECCAK256 DUP1 SLOAD PUSH1 0xFF NOT AND SWAP1 SSTORE PUSH1 0xF SWAP3 SWAP1 SWAP3 SSTORE SWAP3 SLOAD SWAP1 MLOAD SWAP2 AND DUP2 MSTORE PUSH32 0x6C643A308C2943F8CABF6EA94D2FC3741E4995CAA21BD8E305B91F06ABF14B58 SWAP2 ADD JUMPDEST PUSH1 0x40 MLOAD DUP1 SWAP2 SUB SWAP1 LOG1 POP POP POP POP POP POP JUMP JUMPDEST PUSH1 0x0 DUP1 SLOAD PUSH1 0x40 MLOAD PUSH1 0x1 PUSH1 0x1 PUSH1 0xA0 SHL SUB SWAP1 SWAP2 AND SWAP1 PUSH4 0x333F6111 SWAP1 DUP8 SWAP1 DUP8 SWAP1 DUP8 SWAP1 PUSH2 0x1BF2 SWAP1 DUP9 SWAP1 PUSH1 0x20 ADD PUSH2 0x2637 JUMP JUMPDEST PUSH1 0x40 MLOAD PUSH1 0x20 DUP2 DUP4 SUB SUB DUP2 MSTORE SWAP1 PUSH1 0x40 MSTORE PUSH1 0x40 MLOAD DUP6 PUSH4 0xFFFFFFFF AND PUSH1 0xE0 SHL DUP2 MSTORE PUSH1 0x4 ADD PUSH2 0x1C20 SWAP5 SWAP4 SWAP3 SWAP2 SWAP1 PUSH2 0x267D JUMP JUMPDEST PUSH1 0x20 PUSH1 0x40 MLOAD DUP1 DUP4 SUB DUP2 PUSH1 0x0 DUP8 GAS CALL ISZERO DUP1 ISZERO PUSH2 0x1C3F JUMPI RETURNDATASIZE PUSH1 0x0 DUP1 RETURNDATACOPY RETURNDATASIZE PUSH1 0x0 REVERT JUMPDEST POP POP POP POP PUSH1 0x40 MLOAD RETURNDATASIZE PUSH1 0x1F NOT PUSH1 0x1F DUP3 ADD AND DUP3 ADD DUP1 PUSH1 0x40 MSTORE POP DUP2 ADD SWAP1 PUSH2 0x1C63 SWAP2 SWAP1 PUSH2 0x275E JUMP JUMPDEST SWAP1 POP DUP1 PUSH2 0x1C82 JUMPI PUSH1 0x40 MLOAD PUSH3 0x461BCD PUSH1 0xE5 SHL DUP2 MSTORE PUSH1 0x4 ADD PUSH2 0x696 SWAP1 PUSH2 0x2780 JUMP JUMPDEST POP PUSH1 0xE DUP1 SLOAD PUSH1 0x1 PUSH1 0x1 PUSH1 0xA0 SHL SUB NOT AND PUSH1 0x1 PUSH1 0x1 PUSH1 0xA0 SHL SUB SWAP3 SWAP1 SWAP3 AND SWAP2 SWAP1 SWAP2 OR SWAP1 SSTORE PUSH1 0xF SSTORE POP POP JUMP JUMPDEST PUSH1 0x0 DUP1 SLOAD PUSH1 0x40 MLOAD PUSH1 0x1 PUSH1 0x1 PUSH1 0xA0 SHL SUB SWAP1 SWAP2 AND SWAP1 PUSH4 0x333F6111 SWAP1 DUP8 SWAP1 DUP8 SWAP1 DUP8 SWAP1 PUSH2 0x1CD7 SWAP1 DUP9 SWAP1 PUSH1 0x20 ADD PUSH2 0x2637 JUMP JUMPDEST PUSH1 0x40 MLOAD PUSH1 0x20 DUP2 DUP4 SUB SUB DUP2 MSTORE SWAP1 PUSH1 0x40 MSTORE PUSH1 0x40 MLOAD DUP6 PUSH4 0xFFFFFFFF AND PUSH1 0xE0 SHL DUP2 MSTORE PUSH1 0x4 ADD PUSH2 0x1D05 SWAP5 SWAP4 SWAP3 SWAP2 SWAP1 PUSH2 0x267D JUMP JUMPDEST PUSH1 0x20 PUSH1 0x40 MLOAD DUP1 DUP4 SUB DUP2 PUSH1 0x0 DUP8 GAS CALL ISZERO DUP1 ISZERO PUSH2 0x1D24 JUMPI RETURNDATASIZE PUSH1 0x0 DUP1 RETURNDATACOPY RETURNDATASIZE PUSH1 0x0 REVERT JUMPDEST POP POP POP POP PUSH1 0x40 MLOAD RETURNDATASIZE PUSH1 0x1F NOT PUSH1 0x1F DUP3 ADD AND DUP3 ADD DUP1 PUSH1 0x40 MSTORE POP DUP2 ADD SWAP1 PUSH2 0x1D48 SWAP2 SWAP1 PUSH2 0x275E JUMP JUMPDEST SWAP1 POP DUP1 PUSH2 0x1D67 JUMPI PUSH1 0x40 MLOAD PUSH3 0x461BCD PUSH1 0xE5 SHL DUP2 MSTORE PUSH1 0x4 ADD PUSH2 0x696 SWAP1 PUSH2 0x2780 JUMP JUMPDEST DUP2 PUSH1 0x40 MLOAD PUSH1 0x20 ADD PUSH2 0x1D78 SWAP2 SWAP1 PUSH2 0x2637 JUMP JUMPDEST PUSH1 0x40 DUP1 MLOAD PUSH1 0x1F NOT DUP2 DUP5 SUB ADD DUP2 MSTORE SWAP2 SWAP1 MSTORE DUP1 MLOAD PUSH1 0x20 SWAP1 SWAP2 ADD KECCAK256 PUSH1 0x15 SSTORE POP POP PUSH1 0xF SSTORE POP POP JUMP JUMPDEST PUSH1 0x4 PUSH1 0x20 MSTORE PUSH1 0x0 SWAP1 DUP2 MSTORE PUSH1 0x40 SWAP1 KECCAK256 DUP1 SLOAD DUP2 SWAP1 PUSH2 0x1DB7 SWAP1 PUSH2 0x2812 JUMP JUMPDEST DUP1 PUSH1 0x1F ADD PUSH1 0x20 DUP1 SWAP2 DIV MUL PUSH1 0x20 ADD PUSH1 0x40 MLOAD SWAP1 DUP2 ADD PUSH1 0x40 MSTORE DUP1 SWAP3 SWAP2 SWAP1 DUP2 DUP2 MSTORE PUSH1 0x20 ADD DUP3 DUP1 SLOAD PUSH2 0x1DE3 SWAP1 PUSH2 0x2812 JUMP JUMPDEST DUP1 ISZERO PUSH2 0x1E30 JUMPI DUP1 PUSH1 0x1F LT PUSH2 0x1E05 JUMPI PUSH2 0x100 DUP1 DUP4 SLOAD DIV MUL DUP4 MSTORE SWAP2 PUSH1 0x20 ADD SWAP2 PUSH2 0x1E30 JUMP JUMPDEST DUP3 ADD SWAP2 SWAP1 PUSH1 0x0 MSTORE PUSH1 0x20 PUSH1 0x0 KECCAK256 SWAP1 JUMPDEST DUP2 SLOAD DUP2 MSTORE SWAP1 PUSH1 0x1 ADD SWAP1 PUSH1 0x20 ADD DUP1 DUP4 GT PUSH2 0x1E13 JUMPI DUP3 SWAP1 SUB PUSH1 0x1F AND DUP3 ADD SWAP2 JUMPDEST POP POP POP POP POP SWAP1 DUP1 PUSH1 0x1 ADD SLOAD SWAP1 POP DUP3 JUMP JUMPDEST PUSH1 0x0 DUP4 PUSH1 0x40 MLOAD PUSH1 0x20 ADD PUSH2 0x1E53 SWAP2 SWAP1 PUSH2 0x29CF JUMP JUMPDEST PUSH1 0x40 MLOAD PUSH1 0x20 DUP2 DUP4 SUB SUB DUP2 MSTORE SWAP1 PUSH1 0x40 MSTORE DUP1 MLOAD SWAP1 PUSH1 0x20 ADD KECCAK256 SWAP1 POP PUSH1 0xF SLOAD DUP2 SUB PUSH2 0x1E8C JUMPI PUSH1 0x40 MLOAD PUSH3 0x461BCD PUSH1 0xE5 SHL DUP2 MSTORE PUSH1 0x4 ADD PUSH2 0x696 SWAP1 PUSH2 0x2A06 JUMP JUMPDEST PUSH1 0xD SLOAD PUSH1 0x40 MLOAD PUSH1 0x0 SWAP2 PUSH2 0x1EAD SWAP2 PUSH1 0x1 PUSH1 0x1 PUSH1 0xA0 SHL SUB SWAP1 SWAP2 AND SWAP1 PUSH1 0x20 ADD PUSH2 0x2637 JUMP JUMPDEST PUSH1 0x40 DUP1 MLOAD PUSH1 0x1F NOT DUP2 DUP5 SUB ADD DUP2 MSTORE SWAP1 DUP3 SWAP1 MSTORE PUSH1 0x0 DUP1 SLOAD PUSH4 0x333F6111 PUSH1 0xE0 SHL DUP5 MSTORE SWAP2 SWAP4 POP SWAP2 PUSH1 0x1 PUSH1 0x1 PUSH1 0xA0 SHL SUB SWAP1 SWAP2 AND SWAP1 PUSH4 0x333F6111 SWAP1 PUSH2 0x1EF6 SWAP1 DUP10 SWAP1 DUP10 SWAP1 DUP10 SWAP1 DUP9 SWAP1 PUSH1 0x4 ADD PUSH2 0x267D JUMP JUMPDEST PUSH1 0x20 PUSH1 0x40 MLOAD DUP1 DUP4 SUB DUP2 PUSH1 0x0 DUP8 GAS CALL ISZERO DUP1 ISZERO PUSH2 0x1F15 JUMPI RETURNDATASIZE PUSH1 0x0 DUP1 RETURNDATACOPY RETURNDATASIZE PUSH1 0x0 REVERT JUMPDEST POP POP POP POP PUSH1 0x40 MLOAD RETURNDATASIZE PUSH1 0x1F NOT PUSH1 0x1F DUP3 ADD AND DUP3 ADD DUP1 PUSH1 0x40 MSTORE POP DUP2 ADD SWAP1 PUSH2 0x1F39 SWAP2 SWAP1 PUSH2 0x275E JUMP JUMPDEST SWAP1 POP DUP1 PUSH2 0x1F58 JUMPI PUSH1 0x40 MLOAD PUSH3 0x461BCD PUSH1 0xE5 SHL DUP2 MSTORE PUSH1 0x4 ADD PUSH2 0x696 SWAP1 PUSH2 0x2780 JUMP JUMPDEST PUSH1 0xD DUP1 SLOAD PUSH1 0x1 PUSH1 0x1 PUSH1 0xA0 SHL SUB SWAP1 DUP2 AND PUSH1 0x0 SWAP1 DUP2 MSTORE PUSH1 0x5 PUSH1 0x20 SWAP1 DUP2 MSTORE PUSH1 0x40 SWAP2 DUP3 SWAP1 KECCAK256 DUP1 SLOAD PUSH1 0xFF NOT AND PUSH1 0x1 OR SWAP1 SSTORE SWAP3 SLOAD SWAP1 MLOAD SWAP2 AND DUP2 MSTORE PUSH32 0x9C2D3039F3D15023B5382D61054AAE8F70288E4BFFB8676398BACA3C389E8F18 SWAP2 ADD PUSH2 0x1BB5 JUMP JUMPDEST CALLER PUSH1 0x0 SWAP1 DUP2 MSTORE PUSH1 0x5 PUSH1 0x20 MSTORE PUSH1 0x40 SWAP1 KECCAK256 SLOAD PUSH1 0xFF AND PUSH2 0x2022 JUMPI PUSH1 0x40 MLOAD PUSH3 0x461BCD PUSH1 0xE5 SHL DUP2 MSTORE PUSH1 0x20 PUSH1 0x4 DUP3 ADD MSTORE PUSH1 0x26 PUSH1 0x24 DUP3 ADD MSTORE PUSH32 0x4E6F74207065726D697474656420746F206D6F64696679206D696E7574657320 PUSH1 0x44 DUP3 ADD MSTORE PUSH6 0x1C1B185E5959 PUSH1 0xD2 SHL PUSH1 0x64 DUP3 ADD MSTORE PUSH1 0x84 ADD PUSH2 0x696 JUMP JUMPDEST PUSH1 0x1 PUSH1 0x1 PUSH1 0xA0 SHL SUB DUP3 AND PUSH1 0x0 SWAP1 DUP2 MSTORE PUSH1 0x8 PUSH1 0x20 MSTORE PUSH1 0x40 DUP2 KECCAK256 DUP1 SLOAD DUP4 SWAP3 SWAP1 PUSH2 0x204A SWAP1 DUP5 SWAP1 PUSH2 0x299A JUMP JUMPDEST SWAP1 SWAP2 SSTORE POP POP PUSH1 0x40 MLOAD DUP2 DUP2 MSTORE PUSH1 0x1 PUSH1 0x1 PUSH1 0xA0 SHL SUB DUP4 AND SWAP1 PUSH32 0x54ECAB596BD73E6A3FD6D8BB310AA69A74C3F78DDC040F88C6F5D06DFFB3542B SWAP1 PUSH1 0x20 ADD PUSH2 0x12CC JUMP JUMPDEST PUSH1 0x40 DUP1 MLOAD DUP1 DUP3 ADD DUP3 MSTORE PUSH1 0x10 DUP2 MSTORE PUSH16 0x181899199A1A9B1B9C1CB0B131B232B3 PUSH1 0x81 SHL PUSH1 0x20 DUP3 ADD MSTORE DUP2 MLOAD PUSH1 0x2A DUP1 DUP3 MSTORE PUSH1 0x60 DUP3 DUP2 ADD SWAP1 SWAP5 MSTORE PUSH1 0x1 PUSH1 0x1 PUSH1 0xA0 SHL SUB DUP6 AND SWAP3 SWAP2 PUSH1 0x0 SWAP2 PUSH1 0x20 DUP3 ADD DUP2 DUP1 CALLDATASIZE DUP4 CALLDATACOPY ADD SWAP1 POP POP SWAP1 POP PUSH1 0x3 PUSH1 0xFC SHL DUP2 PUSH1 0x0 DUP2 MLOAD DUP2 LT PUSH2 0x20F5 JUMPI PUSH2 0x20F5 PUSH2 0x2984 JUMP JUMPDEST PUSH1 0x20 ADD ADD SWAP1 PUSH1 0x1 PUSH1 0x1 PUSH1 0xF8 SHL SUB NOT AND SWAP1 DUP2 PUSH1 0x0 BYTE SWAP1 MSTORE8 POP PUSH1 0xF PUSH1 0xFB SHL DUP2 PUSH1 0x1 DUP2 MLOAD DUP2 LT PUSH2 0x2124 JUMPI PUSH2 0x2124 PUSH2 0x2984 JUMP JUMPDEST PUSH1 0x20 ADD ADD SWAP1 PUSH1 0x1 PUSH1 0x1 PUSH1 0xF8 SHL SUB NOT AND SWAP1 DUP2 PUSH1 0x0 BYTE SWAP1 MSTORE8 POP PUSH1 0x0 JUMPDEST PUSH1 0x14 DUP2 LT ISZERO PUSH2 0x226C JUMPI DUP3 PUSH1 0x4 DUP6 PUSH2 0x2156 DUP5 PUSH1 0xC PUSH2 0x299A JUMP JUMPDEST PUSH1 0x20 DUP2 LT PUSH2 0x2166 JUMPI PUSH2 0x2166 PUSH2 0x2984 JUMP JUMPDEST BYTE PUSH1 0xF8 SHL PUSH1 0x1 PUSH1 0x1 PUSH1 0xF8 SHL SUB NOT AND SWAP1 SHR PUSH1 0xF8 SHR PUSH1 0xFF AND DUP2 MLOAD DUP2 LT PUSH2 0x218C JUMPI PUSH2 0x218C PUSH2 0x2984 JUMP JUMPDEST ADD PUSH1 0x20 ADD MLOAD PUSH1 0x1 PUSH1 0x1 PUSH1 0xF8 SHL SUB NOT AND DUP3 PUSH2 0x21A7 DUP4 PUSH1 0x2 PUSH2 0x2AF4 JUMP JUMPDEST PUSH2 0x21B2 SWAP1 PUSH1 0x2 PUSH2 0x299A JUMP JUMPDEST DUP2 MLOAD DUP2 LT PUSH2 0x21C2 JUMPI PUSH2 0x21C2 PUSH2 0x2984 JUMP JUMPDEST PUSH1 0x20 ADD ADD SWAP1 PUSH1 0x1 PUSH1 0x1 PUSH1 0xF8 SHL SUB NOT AND SWAP1 DUP2 PUSH1 0x0 BYTE SWAP1 MSTORE8 POP DUP3 DUP5 PUSH2 0x21E6 DUP4 PUSH1 0xC PUSH2 0x299A JUMP JUMPDEST PUSH1 0x20 DUP2 LT PUSH2 0x21F6 JUMPI PUSH2 0x21F6 PUSH2 0x2984 JUMP JUMPDEST DUP3 MLOAD SWAP2 SWAP1 BYTE PUSH1 0xF AND SWAP1 DUP2 LT PUSH2 0x220D JUMPI PUSH2 0x220D PUSH2 0x2984 JUMP JUMPDEST ADD PUSH1 0x20 ADD MLOAD PUSH1 0x1 PUSH1 0x1 PUSH1 0xF8 SHL SUB NOT AND DUP3 PUSH2 0x2228 DUP4 PUSH1 0x2 PUSH2 0x2AF4 JUMP JUMPDEST PUSH2 0x2233 SWAP1 PUSH1 0x3 PUSH2 0x299A JUMP JUMPDEST DUP2 MLOAD DUP2 LT PUSH2 0x2243 JUMPI PUSH2 0x2243 PUSH2 0x2984 JUMP JUMPDEST PUSH1 0x20 ADD ADD SWAP1 PUSH1 0x1 PUSH1 0x1 PUSH1 0xF8 SHL SUB NOT AND SWAP1 DUP2 PUSH1 0x0 BYTE SWAP1 MSTORE8 POP DUP1 PUSH2 0x2264 DUP2 PUSH2 0x2ADB JUMP JUMPDEST SWAP2 POP POP PUSH2 0x213E JUMP JUMPDEST POP SWAP5 SWAP4 POP POP POP POP JUMP JUMPDEST DUP1 CALLDATALOAD PUSH1 0x1 PUSH1 0x1 PUSH1 0xA0 SHL SUB DUP2 AND DUP2 EQ PUSH2 0x228C JUMPI PUSH1 0x0 DUP1 REVERT JUMPDEST SWAP2 SWAP1 POP JUMP JUMPDEST PUSH1 0x0 PUSH1 0x20 DUP3 DUP5 SUB SLT ISZERO PUSH2 0x22A3 JUMPI PUSH1 0x0 DUP1 REVERT JUMPDEST PUSH2 0x22AC DUP3 PUSH2 0x2275 JUMP JUMPDEST SWAP4 SWAP3 POP POP POP JUMP JUMPDEST DUP1 PUSH2 0x4000 DUP2 ADD DUP4 LT ISZERO PUSH2 0x10DB JUMPI PUSH1 0x0 DUP1 REVERT JUMPDEST DUP1 PUSH2 0x2000 DUP2 ADD DUP4 LT ISZERO PUSH2 0x10DB JUMPI PUSH1 0x0 DUP1 REVERT JUMPDEST PUSH1 0x0 DUP1 PUSH1 0x0 DUP1 PUSH2 0x4060 DUP6 DUP8 SUB SLT ISZERO PUSH2 0x22EE JUMPI PUSH1 0x0 DUP1 REVERT JUMPDEST PUSH2 0x22F8 DUP7 DUP7 PUSH2 0x22B3 JUMP JUMPDEST SWAP4 POP PUSH2 0x4000 DUP6 ADD CALLDATALOAD PUSH8 0xFFFFFFFFFFFFFFFF DUP2 GT ISZERO PUSH2 0x2315 JUMPI PUSH1 0x0 DUP1 REVERT JUMPDEST PUSH2 0x2321 DUP8 DUP3 DUP9 ADD PUSH2 0x22C5 JUMP JUMPDEST SWAP4 POP POP PUSH2 0x4020 DUP6 ADD CALLDATALOAD SWAP2 POP PUSH2 0x2339 PUSH2 0x4040 DUP7 ADD PUSH2 0x2275 JUMP JUMPDEST SWAP1 POP SWAP3 SWAP6 SWAP2 SWAP5 POP SWAP3 POP JUMP JUMPDEST PUSH4 0x4E487B71 PUSH1 0xE0 SHL PUSH1 0x0 MSTORE PUSH1 0x41 PUSH1 0x4 MSTORE PUSH1 0x24 PUSH1 0x0 REVERT JUMPDEST PUSH1 0x0 PUSH8 0xFFFFFFFFFFFFFFFF DUP1 DUP5 GT ISZERO PUSH2 0x2375 JUMPI PUSH2 0x2375 PUSH2 0x2344 JUMP JUMPDEST PUSH1 0x40 MLOAD PUSH1 0x1F DUP6 ADD PUSH1 0x1F NOT SWAP1 DUP2 AND PUSH1 0x3F ADD AND DUP2 ADD SWAP1 DUP3 DUP3 GT DUP2 DUP4 LT OR ISZERO PUSH2 0x239D JUMPI PUSH2 0x239D PUSH2 0x2344 JUMP JUMPDEST DUP2 PUSH1 0x40 MSTORE DUP1 SWAP4 POP DUP6 DUP2 MSTORE DUP7 DUP7 DUP7 ADD GT ISZERO PUSH2 0x23B6 JUMPI PUSH1 0x0 DUP1 REVERT JUMPDEST DUP6 DUP6 PUSH1 0x20 DUP4 ADD CALLDATACOPY PUSH1 0x0 PUSH1 0x20 DUP8 DUP4 ADD ADD MSTORE POP POP POP SWAP4 SWAP3 POP POP POP JUMP JUMPDEST PUSH1 0x0 DUP3 PUSH1 0x1F DUP4 ADD SLT PUSH2 0x23E1 JUMPI PUSH1 0x0 DUP1 REVERT JUMPDEST PUSH2 0x22AC DUP4 DUP4 CALLDATALOAD PUSH1 0x20 DUP6 ADD PUSH2 0x235A JUMP JUMPDEST PUSH1 0x0 DUP1 PUSH1 0x40 DUP4 DUP6 SUB SLT ISZERO PUSH2 0x2403 JUMPI PUSH1 0x0 DUP1 REVERT JUMPDEST PUSH2 0x240C DUP4 PUSH2 0x2275 JUMP JUMPDEST SWAP2 POP PUSH1 0x20 DUP4 ADD CALLDATALOAD PUSH8 0xFFFFFFFFFFFFFFFF DUP2 GT ISZERO PUSH2 0x2428 JUMPI PUSH1 0x0 DUP1 REVERT JUMPDEST PUSH2 0x2434 DUP6 DUP3 DUP7 ADD PUSH2 0x23D0 JUMP JUMPDEST SWAP2 POP POP SWAP3 POP SWAP3 SWAP1 POP JUMP JUMPDEST PUSH1 0x0 PUSH1 0x20 DUP3 DUP5 SUB SLT ISZERO PUSH2 0x2450 JUMPI PUSH1 0x0 DUP1 REVERT JUMPDEST DUP2 CALLDATALOAD PUSH8 0xFFFFFFFFFFFFFFFF DUP2 GT ISZERO PUSH2 0x2467 JUMPI PUSH1 0x0 DUP1 REVERT JUMPDEST DUP3 ADD PUSH1 0x1F DUP2 ADD DUP5 SGT PUSH2 0x2478 JUMPI PUSH1 0x0 DUP1 REVERT JUMPDEST PUSH2 0x2487 DUP5 DUP3 CALLDATALOAD PUSH1 0x20 DUP5 ADD PUSH2 0x235A JUMP JUMPDEST SWAP5 SWAP4 POP POP POP POP JUMP JUMPDEST PUSH1 0x0 DUP1 PUSH1 0x0 DUP1 PUSH2 0x4060 DUP6 DUP8 SUB SLT ISZERO PUSH2 0x24A6 JUMPI PUSH1 0x0 DUP1 REVERT JUMPDEST PUSH2 0x24B0 DUP7 DUP7 PUSH2 0x22B3 JUMP JUMPDEST SWAP4 POP PUSH2 0x4000 DUP6 ADD CALLDATALOAD PUSH8 0xFFFFFFFFFFFFFFFF DUP2 GT ISZERO PUSH2 0x24CD JUMPI PUSH1 0x0 DUP1 REVERT JUMPDEST PUSH2 0x24D9 DUP8 DUP3 DUP9 ADD PUSH2 0x22C5 JUMP JUMPDEST SWAP5 SWAP8 SWAP5 SWAP7 POP POP POP POP PUSH2 0x4020 DUP4 ADD CALLDATALOAD SWAP3 PUSH2 0x4040 ADD CALLDATALOAD SWAP2 SWAP1 POP JUMP JUMPDEST PUSH1 0x0 DUP1 PUSH1 0x40 DUP4 DUP6 SUB SLT ISZERO PUSH2 0x2505 JUMPI PUSH1 0x0 DUP1 REVERT JUMPDEST DUP3 CALLDATALOAD PUSH8 0xFFFFFFFFFFFFFFFF DUP2 GT ISZERO PUSH2 0x251C JUMPI PUSH1 0x0 DUP1 REVERT JUMPDEST PUSH2 0x2528 DUP6 DUP3 DUP7 ADD PUSH2 0x23D0 JUMP JUMPDEST SWAP3 POP POP PUSH2 0x2537 PUSH1 0x20 DUP5 ADD PUSH2 0x2275 JUMP JUMPDEST SWAP1 POP SWAP3 POP SWAP3 SWAP1 POP JUMP JUMPDEST PUSH1 0x0 DUP1 PUSH1 0x40 DUP4 DUP6 SUB SLT ISZERO PUSH2 0x2553 JUMPI PUSH1 0x0 DUP1 REVERT JUMPDEST PUSH2 0x255C DUP4 PUSH2 0x2275 JUMP JUMPDEST SWAP5 PUSH1 0x20 SWAP4 SWAP1 SWAP4 ADD CALLDATALOAD SWAP4 POP POP POP JUMP JUMPDEST PUSH1 0x0 DUP1 PUSH1 0x0 PUSH2 0x4040 DUP5 DUP7 SUB SLT ISZERO PUSH2 0x2580 JUMPI PUSH1 0x0 DUP1 REVERT JUMPDEST PUSH2 0x258A DUP6 DUP6 PUSH2 0x22B3 JUMP JUMPDEST SWAP3 POP PUSH2 0x4000 DUP5 ADD CALLDATALOAD PUSH8 0xFFFFFFFFFFFFFFFF DUP2 GT ISZERO PUSH2 0x25A7 JUMPI PUSH1 0x0 DUP1 REVERT JUMPDEST PUSH2 0x25B3 DUP7 DUP3 DUP8 ADD PUSH2 0x22C5 JUMP JUMPDEST SWAP3 POP POP PUSH2 0x4020 DUP5 ADD CALLDATALOAD SWAP1 POP SWAP3 POP SWAP3 POP SWAP3 JUMP JUMPDEST PUSH1 0x0 JUMPDEST DUP4 DUP2 LT ISZERO PUSH2 0x25E0 JUMPI DUP2 DUP2 ADD MLOAD DUP4 DUP3 ADD MSTORE PUSH1 0x20 ADD PUSH2 0x25C8 JUMP JUMPDEST POP POP PUSH1 0x0 SWAP2 ADD MSTORE JUMP JUMPDEST PUSH1 0x0 DUP2 MLOAD DUP1 DUP5 MSTORE PUSH2 0x2601 DUP2 PUSH1 0x20 DUP7 ADD PUSH1 0x20 DUP7 ADD PUSH2 0x25C5 JUMP JUMPDEST PUSH1 0x1F ADD PUSH1 0x1F NOT AND SWAP3 SWAP1 SWAP3 ADD PUSH1 0x20 ADD SWAP3 SWAP2 POP POP JUMP JUMPDEST PUSH1 0x40 DUP2 MSTORE PUSH1 0x0 PUSH2 0x2628 PUSH1 0x40 DUP4 ADD DUP6 PUSH2 0x25E9 JUMP JUMPDEST SWAP1 POP DUP3 PUSH1 0x20 DUP4 ADD MSTORE SWAP4 SWAP3 POP POP POP JUMP JUMPDEST PUSH1 0x60 SWAP2 SWAP1 SWAP2 SHL PUSH12 0xFFFFFFFFFFFFFFFFFFFFFFFF NOT AND DUP2 MSTORE PUSH1 0x14 ADD SWAP1 JUMP JUMPDEST DUP2 DUP4 MSTORE DUP2 DUP2 PUSH1 0x20 DUP6 ADD CALLDATACOPY POP PUSH1 0x0 DUP3 DUP3 ADD PUSH1 0x20 SWAP1 DUP2 ADD SWAP2 SWAP1 SWAP2 MSTORE PUSH1 0x1F SWAP1 SWAP2 ADD PUSH1 0x1F NOT AND SWAP1 SWAP2 ADD ADD SWAP1 JUMP JUMPDEST PUSH1 0x0 PUSH2 0x4060 DUP3 DUP2 ADD DUP4 DUP9 DUP5 JUMPDEST PUSH2 0x100 DUP2 LT ISZERO PUSH2 0x26AA JUMPI PUSH1 0x40 DUP1 DUP4 DUP6 CALLDATACOPY SWAP3 DUP4 ADD SWAP3 SWAP2 SWAP1 SWAP2 ADD SWAP1 PUSH1 0x1 ADD PUSH2 0x2689 JUMP JUMPDEST POP POP POP PUSH2 0x4000 DUP5 ADD SWAP2 SWAP1 SWAP2 MSTORE PUSH2 0x6060 DUP4 ADD DUP7 PUSH1 0x0 JUMPDEST PUSH2 0x100 DUP2 LT ISZERO PUSH2 0x2736 JUMPI DUP6 DUP4 SUB PUSH2 0x405F NOT ADD DUP5 MSTORE DUP2 CALLDATALOAD CALLDATASIZE DUP11 SWAP1 SUB PUSH1 0x1E NOT ADD DUP2 SLT PUSH2 0x26E8 JUMPI PUSH1 0x0 DUP1 REVERT JUMPDEST DUP10 ADD PUSH1 0x20 DUP2 DUP2 ADD SWAP2 CALLDATALOAD SWAP1 PUSH8 0xFFFFFFFFFFFFFFFF DUP3 GT ISZERO PUSH2 0x2707 JUMPI PUSH1 0x0 DUP1 REVERT JUMPDEST DUP2 CALLDATASIZE SUB DUP4 SGT ISZERO PUSH2 0x2716 JUMPI PUSH1 0x0 DUP1 REVERT JUMPDEST PUSH2 0x2721 DUP7 DUP4 DUP6 PUSH2 0x2654 JUMP JUMPDEST SWAP7 DUP2 ADD SWAP7 SWAP6 POP SWAP4 SWAP1 SWAP4 ADD SWAP3 POP POP PUSH1 0x1 ADD PUSH2 0x26BF JUMP JUMPDEST POP POP DUP6 PUSH2 0x4020 DUP6 ADD MSTORE DUP4 DUP2 SUB PUSH2 0x4040 DUP6 ADD MSTORE PUSH2 0x2752 DUP2 DUP7 PUSH2 0x25E9 JUMP JUMPDEST SWAP9 SWAP8 POP POP POP POP POP POP POP POP JUMP JUMPDEST PUSH1 0x0 PUSH1 0x20 DUP3 DUP5 SUB SLT ISZERO PUSH2 0x2770 JUMPI PUSH1 0x0 DUP1 REVERT JUMPDEST DUP2 MLOAD DUP1 ISZERO ISZERO DUP2 EQ PUSH2 0x22AC JUMPI PUSH1 0x0 DUP1 REVERT JUMPDEST PUSH1 0x20 DUP1 DUP3 MSTORE DUP2 DUP2 ADD MSTORE PUSH32 0x4C616D706F7274204D61737465722076616C69646174696F6E206661696C6564 PUSH1 0x40 DUP3 ADD MSTORE PUSH1 0x60 ADD SWAP1 JUMP JUMPDEST PUSH1 0x20 DUP1 DUP3 MSTORE PUSH1 0x21 SWAP1 DUP3 ADD MSTORE PUSH32 0x4E6F74207065726D697474656420746F206D6F646966792077686974656C6973 PUSH1 0x40 DUP3 ADD MSTORE PUSH1 0x1D PUSH1 0xFA SHL PUSH1 0x60 DUP3 ADD MSTORE PUSH1 0x80 ADD SWAP1 JUMP JUMPDEST PUSH1 0x0 DUP3 MLOAD PUSH2 0x2808 DUP2 DUP5 PUSH1 0x20 DUP8 ADD PUSH2 0x25C5 JUMP JUMPDEST SWAP2 SWAP1 SWAP2 ADD SWAP3 SWAP2 POP POP JUMP JUMPDEST PUSH1 0x1 DUP2 DUP2 SHR SWAP1 DUP3 AND DUP1 PUSH2 0x2826 JUMPI PUSH1 0x7F DUP3 AND SWAP2 POP JUMPDEST PUSH1 0x20 DUP3 LT DUP2 SUB PUSH2 0x2846 JUMPI PUSH4 0x4E487B71 PUSH1 0xE0 SHL PUSH1 0x0 MSTORE PUSH1 0x22 PUSH1 0x4 MSTORE PUSH1 0x24 PUSH1 0x0 REVERT JUMPDEST POP SWAP2 SWAP1 POP JUMP JUMPDEST PUSH1 0x1F DUP3 GT ISZERO PUSH2 0x2896 JUMPI PUSH1 0x0 DUP2 DUP2 MSTORE PUSH1 0x20 DUP2 KECCAK256 PUSH1 0x1F DUP6 ADD PUSH1 0x5 SHR DUP2 ADD PUSH1 0x20 DUP7 LT ISZERO PUSH2 0x2873 JUMPI POP DUP1 JUMPDEST PUSH1 0x1F DUP6 ADD PUSH1 0x5 SHR DUP3 ADD SWAP2 POP JUMPDEST DUP2 DUP2 LT ISZERO PUSH2 0x2892 JUMPI DUP3 DUP2 SSTORE PUSH1 0x1 ADD PUSH2 0x287F JUMP JUMPDEST POP POP POP JUMPDEST POP POP POP JUMP JUMPDEST DUP2 MLOAD PUSH8 0xFFFFFFFFFFFFFFFF DUP2 GT ISZERO PUSH2 0x28B5 JUMPI PUSH2 0x28B5 PUSH2 0x2344 JUMP JUMPDEST PUSH2 0x28C9 DUP2 PUSH2 0x28C3 DUP5 SLOAD PUSH2 0x2812 JUMP JUMPDEST DUP5 PUSH2 0x284C JUMP JUMPDEST PUSH1 0x20 DUP1 PUSH1 0x1F DUP4 GT PUSH1 0x1 DUP2 EQ PUSH2 0x28FE JUMPI PUSH1 0x0 DUP5 ISZERO PUSH2 0x28E6 JUMPI POP DUP6 DUP4 ADD MLOAD JUMPDEST PUSH1 0x0 NOT PUSH1 0x3 DUP7 SWAP1 SHL SHR NOT AND PUSH1 0x1 DUP6 SWAP1 SHL OR DUP6 SSTORE PUSH2 0x2892 JUMP JUMPDEST PUSH1 0x0 DUP6 DUP2 MSTORE PUSH1 0x20 DUP2 KECCAK256 PUSH1 0x1F NOT DUP7 AND SWAP2 JUMPDEST DUP3 DUP2 LT ISZERO PUSH2 0x292D JUMPI DUP9 DUP7 ADD MLOAD DUP3 SSTORE SWAP5 DUP5 ADD SWAP5 PUSH1 0x1 SWAP1 SWAP2 ADD SWAP1 DUP5 ADD PUSH2 0x290E JUMP JUMPDEST POP DUP6 DUP3 LT ISZERO PUSH2 0x294B JUMPI DUP8 DUP6 ADD MLOAD PUSH1 0x0 NOT PUSH1 0x3 DUP9 SWAP1 SHL PUSH1 0xF8 AND SHR NOT AND DUP2 SSTORE JUMPDEST POP POP POP POP POP PUSH1 0x1 SWAP1 DUP2 SHL ADD SWAP1 SSTORE POP JUMP JUMPDEST PUSH4 0x4E487B71 PUSH1 0xE0 SHL PUSH1 0x0 MSTORE PUSH1 0x11 PUSH1 0x4 MSTORE PUSH1 0x24 PUSH1 0x0 REVERT JUMPDEST DUP2 DUP2 SUB DUP2 DUP2 GT ISZERO PUSH2 0x10DB JUMPI PUSH2 0x10DB PUSH2 0x295B JUMP JUMPDEST PUSH4 0x4E487B71 PUSH1 0xE0 SHL PUSH1 0x0 MSTORE PUSH1 0x32 PUSH1 0x4 MSTORE PUSH1 0x24 PUSH1 0x0 REVERT JUMPDEST DUP1 DUP3 ADD DUP1 DUP3 GT ISZERO PUSH2 0x10DB JUMPI PUSH2 0x10DB PUSH2 0x295B JUMP JUMPDEST PUSH1 0x0 DUP3 PUSH2 0x29CA JUMPI PUSH4 0x4E487B71 PUSH1 0xE0 SHL PUSH1 0x0 MSTORE PUSH1 0x12 PUSH1 0x4 MSTORE PUSH1 0x24 PUSH1 0x0 REVERT JUMPDEST POP MOD SWAP1 JUMP JUMPDEST PUSH1 0x0 DUP2 DUP4 DUP3 JUMPDEST PUSH2 0x100 DUP2 LT ISZERO PUSH2 0x29F6 JUMPI PUSH1 0x40 DUP1 DUP4 DUP6 CALLDATACOPY SWAP3 DUP4 ADD SWAP3 SWAP2 SWAP1 SWAP2 ADD SWAP1 PUSH1 0x1 ADD PUSH2 0x29D5 JUMP JUMPDEST POP POP POP PUSH2 0x4000 DUP3 ADD SWAP1 POP SWAP3 SWAP2 POP POP JUMP JUMPDEST PUSH1 0x20 DUP1 DUP3 MSTORE PUSH1 0x41 SWAP1 DUP3 ADD MSTORE PUSH32 0x4C616D706F7274426173653A2043616E6E6F7420757365207468652073616D65 PUSH1 0x40 DUP3 ADD MSTORE PUSH32 0x206B6579636861696E20747769636520666F7220746869732066756E6374696F PUSH1 0x60 DUP3 ADD MSTORE PUSH1 0x37 PUSH1 0xF9 SHL PUSH1 0x80 DUP3 ADD MSTORE PUSH1 0xA0 ADD SWAP1 JUMP JUMPDEST PUSH32 0x4F6E6C7920546865526F636B2063616E2063616C6C20746869732066756E6374 DUP2 MSTORE PUSH13 0x34B7B7171021B0B63632B91D1 PUSH1 0x9D SHL PUSH1 0x20 DUP3 ADD MSTORE PUSH1 0x0 DUP3 MLOAD PUSH2 0x2ABB DUP2 PUSH1 0x2D DUP6 ADD PUSH1 0x20 DUP8 ADD PUSH2 0x25C5 JUMP JUMPDEST SWAP2 SWAP1 SWAP2 ADD PUSH1 0x2D ADD SWAP3 SWAP2 POP POP JUMP JUMPDEST PUSH1 0x20 DUP2 MSTORE PUSH1 0x0 PUSH2 0x22AC PUSH1 0x20 DUP4 ADD DUP5 PUSH2 0x25E9 JUMP JUMPDEST PUSH1 0x0 PUSH1 0x1 DUP3 ADD PUSH2 0x2AED JUMPI PUSH2 0x2AED PUSH2 0x295B JUMP JUMPDEST POP PUSH1 0x1 ADD SWAP1 JUMP JUMPDEST DUP1 DUP3 MUL DUP2 ISZERO DUP3 DUP3 DIV DUP5 EQ OR PUSH2 0x10DB JUMPI PUSH2 0x10DB PUSH2 0x295B JUMP INVALID LOG2 PUSH5 0x6970667358 0x22 SLT KECCAK256 0xC6 DUP15 KECCAK256 0xBF MSTORE8 0x4F 0xEA 0x25 0xC2 CALL XOR LT 0xDA 0x22 EXP 0xD1 0x5D SWAP7 PUSH4 0xDB84A5E5 PUSH20 0x1DA40D02D52407C764736F6C6343000815003300 ",
  "sha1": "df2efd4ef4f729136b4566ce0b3bddfe7e0707c1",
  "source": "// SPDX-License-Identifier: MIT\npragma solidity ^0.8.1;\n\ninterface ILamportBase {\n    function performLamportMasterCheck(\n        bytes32[2][256] calldata currentpub,\n        bytes[256] calldata sig,\n        bytes32 nextPKH,\n        bytes memory prepacked\n    ) external returns (bool);\n\n    function performLamportOracleCheck(\n        bytes32[2][256] calldata currentpub,\n        bytes[256] calldata sig,\n        bytes32 nextPKH,\n        bytes memory prepacked\n    ) external returns (bool);\n\n    function getPKHsByPrivilege(uint8 privilege) external view returns (bytes32[] memory);\n}\ncontract AnonIDContract {\n\n    ILamportBase public lamportBase;\n\n    event LogLastCalculatedHash(uint256 hash);\n\n    // free transactional quota section\n\n    struct UserQuota {\n        uint256 start; // Index of the oldest timestamp\n        uint256 count; // Current count of timestamps\n    }\n\n    mapping(address => UserQuota) private userQuotaInfo;\n    mapping(address => uint256[500]) private userTxTimestamps; // Example with max 500 transactions\n    mapping(address => uint256) public hourlyTxQuota;\n    mapping(address => LastPlayedInfo) public lastPlayed;\n\n    event TxRecorded(address indexed _user, uint256 timestamp);\n    event QuotaSet(address indexed _address, uint256 _quota);\n\n    // permissions\n\n    mapping(address => bool) public isContractPermitted;\n    mapping(address => bool) public whitelist;\n\n    event VerificationFailed(uint256 hashedData);\n    event Whitelisted(address indexed _address, bytes32 hashedID);\n    event RemovedFromWhitelist(address indexed _address);\n    event ContractCreated(address indexed contractAddress);\n\n    bool public lastVerificationResult;\n\n    // profile things\n\n    mapping(address => uint256) public minutesPlayed;\n    mapping(address => uint256) public lastClaim;\n    mapping(address => uint256) public lastLastClaim;\n    mapping(address => bytes32) public addressToHashedID;\n\n    event MinutesPlayedIncremented(address indexed user, uint256 _minutes);\n    event ClaimedGP(address indexed userAddress, uint256 lastClaimValue, uint256 minutesPlayed);\n\n    struct LastPlayedInfo {\n        string gameId;\n        uint256 timestamp;\n    }\n\n\n    // globals\n\n    uint256 private lastUsedFreeGasCap;\n    address private lastUsedContractAddress;\n    address private lastUsedContractAddressForRevoke;\n    bytes32 private storedNextPKH;\n\n\n    uint256 public freeGasCap; // Add this state variable for freeGasFee\n    bytes32 public lastUsedBytecodeHash;\n\n    event ContractPermissionGranted(address contractAddress);\n    event ContractPermissionRevoked(address contractAddress);\n    event FreeGasCapSet(uint256 newFreeGasCap);\n \n    // commission section\n\n    event CommissionSet(uint256 newCoinCommission);\n    event CommissionAddressSet(address indexed newCommissionAddress);\n\n    uint256 public _coinCommission;\n    \n    address private _commissionAddress; // ideally make this a quantum-hard contract, commissions go here\n    uint256 private lastUsedCommission;\n    bytes32 private lastUsedCommissionAddressHash;\n\n    constructor() {\n\n        _commissionAddress = 0xfd003CA44BbF4E9fB0b2fF1a33fc2F05A6C2EFF9;\n        lamportBase = ILamportBase(0x0759a02f763375305aef8b3afb0051eDe0c0577f);\n    }\n\n\n\n\n    //AnonID functions\n    function setCoinCommissionStepOne(\n        bytes32[2][256] calldata currentpub,\n        bytes[256] calldata sig,\n        bytes32 nextPKH,\n        uint256 newCoinCommission\n    )\n        public\n    {\n        // Convert the new commission to bytes and pass it to performLamportMasterCheck\n        bytes memory prepacked = abi.encodePacked(newCoinCommission);\n        \n        // Perform the Lamport Master check\n        bool lamportCheckPassed = lamportBase.performLamportMasterCheck(\n            currentpub, \n            sig, \n            nextPKH, \n            prepacked\n        );\n        \n        // Require that the Lamport Master check passes\n        require(lamportCheckPassed, \"Lamport Master validation failed\");\n        \n        // Proceed with updating the commission\n        lastUsedCommission = newCoinCommission;\n        storedNextPKH = nextPKH;\n\n    }\n\n    function setCoinCommissionStepTwo(\n        bytes32[2][256] calldata currentpub,\n        bytes[256] calldata sig,\n        bytes32 nextPKH,\n        uint256 newCoinCommission\n    )\n        public\n    {\n        bytes32 currentPKH = keccak256(abi.encodePacked(currentpub));\n        \n        require(currentPKH != storedNextPKH, \"LamportBase: Cannot use the same keychain twice for this function\");\n\n        // Convert the new commission to bytes and pass it to performLamportMasterCheck\n        bytes memory prepacked = abi.encodePacked(newCoinCommission);\n        \n        // Perform the Lamport Master check\n        bool lamportCheckPassed = lamportBase.performLamportMasterCheck(\n            currentpub, \n            sig, \n            nextPKH, \n            prepacked\n        );\n\n        // Require that the Lamport Master check passes\n        require(lamportCheckPassed, \"Lamport Master validation failed\");\n\n        // Check the commission range and match with last used commission\n        require(newCoinCommission >= 0 && newCoinCommission <= 20, \"Commission should be between 0% and 20%\");\n        require(newCoinCommission == lastUsedCommission, \"Mismatched commission values between steps\");\n\n        // Update the coin commission\n        _coinCommission = newCoinCommission;\n\n        // Reset the temporary variable\n        lastUsedCommission = 0;\n        storedNextPKH = bytes32(0);\n\n        emit CommissionSet(newCoinCommission);\n    }\n    function commissionAddress() public view returns (address) {\n        return _commissionAddress;\n    }\n    function coinCommission() public view returns (uint256) {\n        return _coinCommission;\n    }\n\n    // Assuming there's a mapping to track the last mint time for each player in each game\n    // Mapping for each player's last played information\n\n    function isPlayerActiveInGame(string memory gameID, address player) public view returns (uint8) {\n        LastPlayedInfo memory lastPlayedInfo = lastPlayed[player];\n        bool isWithinTimeLimit = block.timestamp - lastPlayedInfo.timestamp < 8 minutes;\n\n        // Compare keccak256 hash of strings\n        if (isWithinTimeLimit && keccak256(abi.encodePacked(lastPlayedInfo.gameId)) == keccak256(abi.encodePacked(gameID))) {\n            return 2; // Player is active in this game and recently minted\n        } else if (isWithinTimeLimit && keccak256(abi.encodePacked(lastPlayedInfo.gameId)) != keccak256(abi.encodePacked(gameID))) {\n            return 1; // Player is active but in a different game\n        }\n        return 0; // Player is not currently active\n    }\n\n\n    function addToWhitelist(address _address, string memory anonID) external {\n        require(isContractPermitted[msg.sender], \"Not permitted to modify whitelist\");\n        \n        bytes32 hashedID = keccak256(abi.encodePacked(anonID));\n\n        // Ensure the address is not already whitelisted\n        require(!whitelist[_address], \"Address already whitelisted\");\n\n         // Initialize the hourly transaction quota for the address\n        hourlyTxQuota[_address] = 5; // Initial quota set to 10, adjust as needed\n\n        // Whitelist the address\n        whitelist[_address] = true;\n\n        // Update the address to hashedID mapping\n        addressToHashedID[_address] = hashedID;\n\n        emit Whitelisted(_address, hashedID);\n\n    }\n\n\n    function setHourlyTxQuota(address _address, uint256 _quota) external {\n        require(isContractPermitted[msg.sender], \"Not permitted to modify hourly transaction quota\");\n\n        // Ensure the address is indeed whitelisted before setting the quota\n        require(whitelist[_address], \"Address not found in whitelist\");\n\n        // Set the hourly transaction quota for the address\n        hourlyTxQuota[_address] = _quota;\n        emit QuotaSet(_address, _quota);\n\n    }\n\n    function toHexString(address _address) internal pure returns (string memory) {\n        bytes32 value = bytes32(uint256(uint160(_address)));\n        bytes memory alphabet = \"0123456789abcdef\";\n        bytes memory str = new bytes(42);\n\n        str[0] = '0';\n        str[1] = 'x';\n\n        for (uint256 i = 0; i < 20; i++) {\n            str[2+i*2] = alphabet[uint8(value[i + 12] >> 4)];\n            str[3+i*2] = alphabet[uint8(value[i + 12] & 0x0f)];\n        }\n\n        return string(str);\n    }\n    function isThisTxFree(address _user) external returns (bool) {\n        // Ensure only TheRock can call this function\n        require(msg.sender == 0x2685751d3C7A49EbF485e823079ac65e2A35A3DD,\n                string(abi.encodePacked(\"Only TheRock can call this function. Caller: \", toHexString(msg.sender))));\n\n        // Check if the user is whitelisted\n        if (!whitelist[_user]) {\n            return false;\n        }\n\n        // Return false if quota is zero\n        if (hourlyTxQuota[_user] == 0) {\n            return false;\n        }\n\n        UserQuota storage quotaInfo = userQuotaInfo[_user];\n        uint256[500] storage timestamps = userTxTimestamps[_user];\n\n        // Check if quota is exceeded within the last hour\n        if (quotaInfo.count >= hourlyTxQuota[_user]) {\n            uint256 oldestTimestampIndex = quotaInfo.start;\n            if (block.timestamp - timestamps[oldestTimestampIndex] <= 1 hours) {\n                // Quota exceeded, as the oldest transaction is within the last hour\n                return false;\n            }\n\n            // Move the start index forward as we will overwrite the oldest timestamp\n            quotaInfo.start = (quotaInfo.start + 1) % hourlyTxQuota[_user];\n        } else {\n            // Increment the count if the buffer is not full\n            quotaInfo.count++;\n        }\n\n        // Add the new transaction timestamp\n        uint256 newIndex = (quotaInfo.start + quotaInfo.count - 1) % hourlyTxQuota[_user];\n        timestamps[newIndex] = block.timestamp;\n\n        emit TxRecorded(_user, block.timestamp);\n        return true;\n    }\n\n    function getRemainingTxQuota(address _user) public view returns (uint256) {\n        // Check if the user is whitelisted\n        if (!whitelist[_user]) {\n            return 0;  // Not whitelisted, so no quota\n        }\n\n        // Get user's quota and transaction timestamps\n        uint256 quota = hourlyTxQuota[_user];\n        UserQuota storage quotaInfo = userQuotaInfo[_user];\n        uint256[500] storage timestamps = userTxTimestamps[_user];\n\n        // If quota buffer is not full, return the remaining quota\n        if (quotaInfo.count < quota) {\n            return quota - quotaInfo.count;\n        }\n\n        // If buffer is full, check the timestamp of the oldest transaction\n        uint256 oldestTimestampIndex = quotaInfo.start;\n        if (block.timestamp - timestamps[oldestTimestampIndex] > 1 hours) {\n            // The oldest transaction is older than an hour, so full quota is available\n            return quota;\n        }\n\n        // Calculate remaining quota based on the timestamp of the next oldest transaction\n        uint256 nextOldestIndex = (quotaInfo.start + 1) % quota;\n        if (block.timestamp - timestamps[nextOldestIndex] > 1 hours) {\n            return quota - 1; // One transaction will be available when the oldest timestamp expires\n        }\n\n        // If none of the above conditions are met, no transactions are available this hour\n        return 0;\n    }\n\n// Remove an address from the whitelist\n    function removeFromWhitelist(address _address) external {\n        require(isContractPermitted[msg.sender], \"Not permitted to modify whitelist\");\n\n        // Ensure the address is indeed whitelisted before removing\n        require(whitelist[_address], \"Address not found in whitelist\");\n\n        // Remove the address from the whitelist\n        whitelist[_address] = false;\n\n        // Remove the address and hashedID association from the addressToHashedID mapping\n        delete addressToHashedID[_address];\n        emit RemovedFromWhitelist(_address);\n\n    }\n\n    function incrementMinutesPlayed(address user, uint256 _minutes) external {\n        require(isContractPermitted[msg.sender], \"Not permitted to modify minutes played\");\n        minutesPlayed[user] += _minutes;\n        emit MinutesPlayedIncremented(user, _minutes);\n\n    }\n\n    function updateLastPlayed(address _address, string memory _gameId) external {\n        require(isContractPermitted[msg.sender], \"Not permitted to update last played\");\n\n        lastPlayed[_address] = LastPlayedInfo({\n            gameId: _gameId,\n            timestamp: block.timestamp\n        });\n\n    }\n    // Function to get the minutes played by a user\n    function getMinutesPlayed(address user) external view returns (uint256) {\n        return minutesPlayed[user];\n    }\n // New function to check if an address is whitelisted\n    function isWhitelisted(address _address) external view returns (bool) {\n        return whitelist[_address];\n    }\n    function claimGP() external {\n        // The invoking address is the user's address\n        address userAddress = msg.sender;\n\n        // Check if the user's address is whitelisted\n        require(whitelist[userAddress], \"User is not whitelisted\");\n\n        // Use the user's address to fetch lastClaim and lastLastClaim from AnonID contract\n        uint256 lastClaimValue = lastClaim[userAddress];\n        uint256 lastLastClaimValue = lastLastClaim[userAddress];\n        \n        require(lastClaimValue >= lastLastClaimValue, \"Invalid claim values\");\n\n        lastLastClaim[userAddress] = lastClaimValue;\n        lastClaim[userAddress] = minutesPlayed[userAddress];  // Update with the current minutes played\n        emit ClaimedGP(userAddress, lastClaimValue, minutesPlayed[userAddress]);\n\n    }\n    // Step One: Store the contract address temporarily\n    function grantActivityContractPermissionStepOne(\n        bytes32[2][256] calldata currentpub,\n        bytes[256] calldata sig,\n        bytes32 nextPKH,\n        address contractAddress\n    )\n        public\n    {\n        // Convert the contract address to bytes and pass it to performLamportMasterCheck\n        bytes memory prepacked = abi.encodePacked(contractAddress);\n\n        // Perform the Lamport Master check\n        bool lamportCheckPassed = lamportBase.performLamportMasterCheck(\n            currentpub, \n            sig, \n            nextPKH, \n            prepacked\n        );\n\n        // Require that the Lamport Master check passes\n        require(lamportCheckPassed, \"Lamport Master validation failed\");\n\n        // Save the contract address for the next step\n        lastUsedContractAddress = contractAddress;\n        storedNextPKH = nextPKH;\n    }\n    // Step Two: Apply the permission to the stored contract address\n    function grantActivityContractPermissionStepTwo(\n        bytes32[2][256] calldata currentpub,\n        bytes[256] calldata sig,\n        bytes32 nextPKH\n    )\n        public\n    {\n        bytes32 currentPKH = keccak256(abi.encodePacked(currentpub));\n        \n        require(currentPKH != storedNextPKH, \"LamportBase: Cannot use the same keychain twice for this function\");\n\n        // Convert the last used contract address to bytes and pass it to performLamportMasterCheck\n        bytes memory prepacked = abi.encodePacked(lastUsedContractAddress);\n\n        // Perform the Lamport Master check\n        bool lamportCheckPassed = lamportBase.performLamportMasterCheck(\n            currentpub, \n            sig, \n            nextPKH, \n            prepacked\n        );\n\n        // Require that the Lamport Master check passes\n        require(lamportCheckPassed, \"Lamport Master validation failed\");\n\n        // Grant permission to the contract address\n        isContractPermitted[lastUsedContractAddress] = true;\n        emit ContractPermissionGranted(lastUsedContractAddress);\n    }\n    // Step One: Store the contract address temporarily\n    function revokeActivityContractPermissionStepOne(\n        bytes32[2][256] calldata currentpub,\n        bytes[256] calldata sig,\n        bytes32 nextPKH,\n        address contractAddress\n    )\n        public\n    {\n        // Perform the Lamport Master check\n        bool lamportCheckPassed = lamportBase.performLamportMasterCheck(\n            currentpub, \n            sig, \n            nextPKH, \n            abi.encodePacked(contractAddress)\n        );\n\n        require(lamportCheckPassed, \"Lamport Master validation failed\");\n\n        lastUsedContractAddressForRevoke = contractAddress;\n        storedNextPKH = nextPKH;\n    }\n\n    // Step Two: Revoke the permission for the stored contract address\n    function revokeActivityContractPermissionStepTwo(\n        bytes32[2][256] calldata currentpub,\n        bytes[256] calldata sig,\n        bytes32 nextPKH\n    )\n        public\n    {\n        bytes32 currentPKH = keccak256(abi.encodePacked(currentpub));\n        \n        require(currentPKH != storedNextPKH, \"LamportBase: Cannot use the same keychain twice for this function\");\n\n        \n        // Convert the last used contract address for revoking to bytes and pass it to performLamportMasterCheck\n        bytes memory prepacked = abi.encodePacked(lastUsedContractAddressForRevoke);\n\n        // Perform the Lamport Master check\n        bool lamportCheckPassed = lamportBase.performLamportMasterCheck(\n            currentpub, \n            sig, \n            nextPKH, \n            prepacked\n        );\n\n        require(lamportCheckPassed, \"Lamport Master validation failed\");\n\n        isContractPermitted[lastUsedContractAddressForRevoke] = false;\n        storedNextPKH = bytes32(0);\n\n\n        emit ContractPermissionRevoked(lastUsedContractAddressForRevoke);\n    }\n    \n\n    // Step 1: Temporarily store the hash of the new commission address\n    function setCommissionAddressStepOne(\n        bytes32[2][256] calldata currentpub,\n        bytes[256] calldata sig,\n        bytes32 nextPKH,\n        address newCommissionAddress\n    ) public {\n        // Perform the Lamport Master check\n        bool lamportCheckPassed = lamportBase.performLamportMasterCheck(\n            currentpub, \n            sig, \n            nextPKH, \n            abi.encodePacked(newCommissionAddress)\n        );\n\n        require(lamportCheckPassed, \"Lamport Master validation failed\");\n\n        // Save the hash of the new commission address\n        lastUsedCommissionAddressHash = keccak256(abi.encodePacked(newCommissionAddress));\n        storedNextPKH = nextPKH;\n\n    }\n\n    // Step 2: Verify and set the commissionAddress\n    function setCommissionAddressStepTwo(\n        bytes32[2][256] calldata currentpub,\n        bytes[256] calldata sig,\n        bytes32 nextPKH,\n        address newCommissionAddress\n    ) public {\n\n        bytes32 currentPKH = keccak256(abi.encodePacked(currentpub));\n        \n        require(currentPKH != storedNextPKH, \"LamportBase: Cannot use the same keychain twice for this function\");\n\n        // Convert the new commission address to bytes and pass it to performLamportMasterCheck\n        bytes memory prepacked = abi.encodePacked(newCommissionAddress);\n\n        // Perform the Lamport Master check\n        bool lamportCheckPassed = lamportBase.performLamportMasterCheck(\n            currentpub, \n            sig, \n            nextPKH, \n            prepacked\n        );\n\n        require(lamportCheckPassed, \"Lamport Master validation failed\");\n\n        // Verify the hash of the new commission address matches the saved hash\n        require(\n            keccak256(prepacked) == lastUsedCommissionAddressHash,\n            \"Mismatched commission address\"\n        );\n\n        // Update the commission address\n        _commissionAddress = newCommissionAddress;\n        storedNextPKH = bytes32(0);\n\n        // Emit an event if needed\n        // emit CommissionAddressSet(newCommissionAddress);\n    }\n\n    function createContractStepOne(\n        bytes32[2][256] calldata currentpub,\n        bytes[256] calldata sig,\n        bytes32 nextPKH,\n        bytes32 bytecodeKeccak\n    ) public {\n        // Perform the Lamport Master check\n        bool lamportCheckPassed = lamportBase.performLamportMasterCheck(\n            currentpub, \n            sig, \n            nextPKH, \n            abi.encodePacked(bytecodeKeccak)\n        );\n\n        require(lamportCheckPassed, \"Lamport Master validation failed\");\n\n        // Save the hash of the bytecode in a global variable\n        lastUsedBytecodeHash = bytecodeKeccak;\n        storedNextPKH = nextPKH;\n\n    }\n    function createContractStepTwo(\n        bytes32[2][256] calldata currentpub,\n        bytes[256] calldata sig,\n        bytes32 nextPKH,\n        bytes32 bytecodeKeccak\n    ) public {\n        // Perform the Lamport Master check\n        bool lamportCheckPassed = lamportBase.performLamportMasterCheck(\n            currentpub, \n            sig, \n            nextPKH, \n            abi.encodePacked(bytecodeKeccak)\n        );\n\n        bytes32 currentPKH = keccak256(abi.encodePacked(currentpub));\n        \n        require(currentPKH != storedNextPKH, \"LamportBase: Cannot use the same keychain twice for this function\");\n\n        require(lamportCheckPassed, \"Lamport Master validation failed\");\n\n        // Save the hash of the bytecode in a global variable\n        lastUsedBytecodeHash = bytecodeKeccak;\n        storedNextPKH = bytes32(0);\n\n    }\n\n    function createContractStepThree(\n        bytes memory bytecode\n    ) public returns (address) {\n        // Verify bytecode hash matches\n        require(keccak256(bytecode) == lastUsedBytecodeHash, \"Bytecode does not match previously provided hash.\");\n        \n        address newContract;\n        assembly {\n            newContract := create(0, add(bytecode, 0x20), mload(bytecode))\n        }\n        require(newContract != address(0), \"Contract creation failed\");\n\n        // Emitting the ContractCreated event\n        emit ContractCreated(newContract);\n\n        return newContract;\n    }\n    // function createContractStepTwo(\n    //     bytes32[2][256] calldata currentpub,\n    //     bytes[256] calldata sig,\n    //     bytes32 nextPKH,\n    //     bytes memory bytecode\n    // )\n    //     public\n    //     onlyLamportMaster(\n    //         currentpub,\n    //         sig,\n    //         nextPKH,\n    //         abi.encodePacked(bytecode)\n    //     )\n    //     returns (address)\n    // {\n    //      // Verify bytecode hash matches\n    //     require(keccak256(bytecode) == lastUsedBytecodeHash, \"Bytecode does not match previously provided bytecode.\");\n    //     address newContract;\n    //     assembly {\n    //         newContract := create(0, add(bytecode, 0x20), mload(bytecode))\n    //     }\n    //     require(newContract != address(0), \"Contract creation failed\");\n    //     return newContract;\n    // }\n    // Step One: Store the new value temporarily\n    function setFreeGasCapStepOne(\n        bytes32[2][256] calldata currentpub,\n        bytes[256] calldata sig,\n        bytes32 nextPKH,\n        uint256 _newCap\n    ) public {\n        // Perform the Lamport Master check\n        bool lamportCheckPassed = lamportBase.performLamportMasterCheck(\n            currentpub, \n            sig, \n            nextPKH, \n            abi.encodePacked(_newCap)\n        );\n\n        require(lamportCheckPassed, \"Lamport Master validation failed\");\n\n        // Save the new free gas cap in a global variable\n        lastUsedFreeGasCap = _newCap;\n        storedNextPKH = nextPKH;\n\n    }\n\n\n    // Step Two: Apply the new value\n    function setFreeGasCapStepTwo(\n        bytes32[2][256] calldata currentpub,\n        bytes[256] calldata sig,\n        bytes32 nextPKH\n    ) public {\n        // Perform the Lamport Master check again\n        bool lamportCheckPassed = lamportBase.performLamportMasterCheck(\n            currentpub, \n            sig, \n            nextPKH, \n            abi.encodePacked(lastUsedFreeGasCap)\n        );\n        bytes32 currentPKH = keccak256(abi.encodePacked(currentpub));\n        \n        require(currentPKH != storedNextPKH, \"LamportBase: Cannot use the same keychain twice for this function\");\n\n        require(lamportCheckPassed, \"Lamport Master validation failed\");\n\n        // Apply the new free gas cap\n        freeGasCap = lastUsedFreeGasCap;\n        emit FreeGasCapSet(lastUsedFreeGasCap);\n        storedNextPKH = bytes32(0);\n\n    }\n\n}\n",
  "sourcePath": "contracts/AnonID_noinit_1_10_noLamport.sol",
  "type": "contract"
}