{
  "abi": [
    {
      "inputs": [],
      "stateMutability": "nonpayable",
      "type": "constructor"
    },
    {
      "anonymous": false,
      "inputs": [
        {
          "indexed": true,
          "internalType": "address",
          "name": "userAddress",
          "type": "address"
        },
        {
          "indexed": false,
          "internalType": "uint256",
          "name": "lastClaimValue",
          "type": "uint256"
        },
        {
          "indexed": false,
          "internalType": "uint256",
          "name": "minutesPlayed",
          "type": "uint256"
        }
      ],
      "name": "ClaimedGP",
      "type": "event"
    },
    {
      "anonymous": false,
      "inputs": [
        {
          "indexed": true,
          "internalType": "address",
          "name": "newCommissionAddress",
          "type": "address"
        }
      ],
      "name": "CommissionAddressSet",
      "type": "event"
    },
    {
      "anonymous": false,
      "inputs": [
        {
          "indexed": false,
          "internalType": "uint256",
          "name": "newCoinCommission",
          "type": "uint256"
        }
      ],
      "name": "CommissionSet",
      "type": "event"
    },
    {
      "anonymous": false,
      "inputs": [
        {
          "indexed": true,
          "internalType": "address",
          "name": "contractAddress",
          "type": "address"
        }
      ],
      "name": "ContractCreated",
      "type": "event"
    },
    {
      "anonymous": false,
      "inputs": [
        {
          "indexed": false,
          "internalType": "address",
          "name": "contractAddress",
          "type": "address"
        }
      ],
      "name": "ContractPermissionGranted",
      "type": "event"
    },
    {
      "anonymous": false,
      "inputs": [
        {
          "indexed": false,
          "internalType": "address",
          "name": "contractAddress",
          "type": "address"
        }
      ],
      "name": "ContractPermissionRevoked",
      "type": "event"
    },
    {
      "anonymous": false,
      "inputs": [
        {
          "indexed": false,
          "internalType": "uint256",
          "name": "newFreeGasCap",
          "type": "uint256"
        }
      ],
      "name": "FreeGasCapSet",
      "type": "event"
    },
    {
      "anonymous": false,
      "inputs": [
        {
          "indexed": false,
          "internalType": "uint256",
          "name": "hash",
          "type": "uint256"
        }
      ],
      "name": "LogLastCalculatedHash",
      "type": "event"
    },
    {
      "anonymous": false,
      "inputs": [
        {
          "indexed": true,
          "internalType": "address",
          "name": "user",
          "type": "address"
        },
        {
          "indexed": false,
          "internalType": "uint256",
          "name": "_minutes",
          "type": "uint256"
        }
      ],
      "name": "MinutesPlayedIncremented",
      "type": "event"
    },
    {
      "anonymous": false,
      "inputs": [
        {
          "indexed": true,
          "internalType": "address",
          "name": "_address",
          "type": "address"
        },
        {
          "indexed": false,
          "internalType": "uint256",
          "name": "_quota",
          "type": "uint256"
        }
      ],
      "name": "QuotaSet",
      "type": "event"
    },
    {
      "anonymous": false,
      "inputs": [
        {
          "indexed": true,
          "internalType": "address",
          "name": "_address",
          "type": "address"
        }
      ],
      "name": "RemovedFromWhitelist",
      "type": "event"
    },
    {
      "anonymous": false,
      "inputs": [
        {
          "indexed": true,
          "internalType": "address",
          "name": "_user",
          "type": "address"
        },
        {
          "indexed": false,
          "internalType": "uint256",
          "name": "timestamp",
          "type": "uint256"
        }
      ],
      "name": "TxRecorded",
      "type": "event"
    },
    {
      "anonymous": false,
      "inputs": [
        {
          "indexed": false,
          "internalType": "uint256",
          "name": "hashedData",
          "type": "uint256"
        }
      ],
      "name": "VerificationFailed",
      "type": "event"
    },
    {
      "anonymous": false,
      "inputs": [
        {
          "indexed": true,
          "internalType": "address",
          "name": "_address",
          "type": "address"
        },
        {
          "indexed": false,
          "internalType": "bytes32",
          "name": "hashedID",
          "type": "bytes32"
        }
      ],
      "name": "Whitelisted",
      "type": "event"
    },
    {
      "inputs": [],
      "name": "_coinCommission",
      "outputs": [
        {
          "internalType": "uint256",
          "name": "",
          "type": "uint256"
        }
      ],
      "stateMutability": "view",
      "type": "function"
    },
    {
      "inputs": [
        {
          "internalType": "address",
          "name": "_address",
          "type": "address"
        },
        {
          "internalType": "string",
          "name": "anonID",
          "type": "string"
        }
      ],
      "name": "addToWhitelist",
      "outputs": [],
      "stateMutability": "nonpayable",
      "type": "function"
    },
    {
      "inputs": [
        {
          "internalType": "address",
          "name": "",
          "type": "address"
        }
      ],
      "name": "addressToHashedID",
      "outputs": [
        {
          "internalType": "bytes32",
          "name": "",
          "type": "bytes32"
        }
      ],
      "stateMutability": "view",
      "type": "function"
    },
    {
      "inputs": [],
      "name": "claimGP",
      "outputs": [],
      "stateMutability": "nonpayable",
      "type": "function"
    },
    {
      "inputs": [],
      "name": "coinCommission",
      "outputs": [
        {
          "internalType": "uint256",
          "name": "",
          "type": "uint256"
        }
      ],
      "stateMutability": "view",
      "type": "function"
    },
    {
      "inputs": [],
      "name": "commissionAddress",
      "outputs": [
        {
          "internalType": "address",
          "name": "",
          "type": "address"
        }
      ],
      "stateMutability": "view",
      "type": "function"
    },
    {
      "inputs": [
        {
          "internalType": "bytes32[2][256]",
          "name": "currentpub",
          "type": "bytes32[2][256]"
        },
        {
          "internalType": "bytes[256]",
          "name": "sig",
          "type": "bytes[256]"
        },
        {
          "internalType": "bytes32",
          "name": "nextPKH",
          "type": "bytes32"
        },
        {
          "internalType": "bytes32",
          "name": "bytecodeKeccak",
          "type": "bytes32"
        }
      ],
      "name": "createContractStepOne",
      "outputs": [],
      "stateMutability": "nonpayable",
      "type": "function"
    },
    {
      "inputs": [
        {
          "internalType": "bytes",
          "name": "bytecode",
          "type": "bytes"
        }
      ],
      "name": "createContractStepTwo",
      "outputs": [
        {
          "internalType": "address",
          "name": "",
          "type": "address"
        }
      ],
      "stateMutability": "nonpayable",
      "type": "function"
    },
    {
      "inputs": [],
      "name": "freeGasCap",
      "outputs": [
        {
          "internalType": "uint256",
          "name": "",
          "type": "uint256"
        }
      ],
      "stateMutability": "view",
      "type": "function"
    },
    {
      "inputs": [
        {
          "internalType": "address",
          "name": "user",
          "type": "address"
        }
      ],
      "name": "getMinutesPlayed",
      "outputs": [
        {
          "internalType": "uint256",
          "name": "",
          "type": "uint256"
        }
      ],
      "stateMutability": "view",
      "type": "function"
    },
    {
      "inputs": [
        {
          "internalType": "address",
          "name": "_user",
          "type": "address"
        }
      ],
      "name": "getRemainingTxQuota",
      "outputs": [
        {
          "internalType": "uint256",
          "name": "",
          "type": "uint256"
        }
      ],
      "stateMutability": "view",
      "type": "function"
    },
    {
      "inputs": [
        {
          "internalType": "bytes32[2][256]",
          "name": "currentpub",
          "type": "bytes32[2][256]"
        },
        {
          "internalType": "bytes[256]",
          "name": "sig",
          "type": "bytes[256]"
        },
        {
          "internalType": "bytes32",
          "name": "nextPKH",
          "type": "bytes32"
        },
        {
          "internalType": "address",
          "name": "contractAddress",
          "type": "address"
        }
      ],
      "name": "grantActivityContractPermissionStepOne",
      "outputs": [],
      "stateMutability": "nonpayable",
      "type": "function"
    },
    {
      "inputs": [
        {
          "internalType": "bytes32[2][256]",
          "name": "currentpub",
          "type": "bytes32[2][256]"
        },
        {
          "internalType": "bytes[256]",
          "name": "sig",
          "type": "bytes[256]"
        },
        {
          "internalType": "bytes32",
          "name": "nextPKH",
          "type": "bytes32"
        }
      ],
      "name": "grantActivityContractPermissionStepTwo",
      "outputs": [],
      "stateMutability": "nonpayable",
      "type": "function"
    },
    {
      "inputs": [
        {
          "internalType": "address",
          "name": "",
          "type": "address"
        }
      ],
      "name": "hourlyTxQuota",
      "outputs": [
        {
          "internalType": "uint256",
          "name": "",
          "type": "uint256"
        }
      ],
      "stateMutability": "view",
      "type": "function"
    },
    {
      "inputs": [
        {
          "internalType": "address",
          "name": "user",
          "type": "address"
        },
        {
          "internalType": "uint256",
          "name": "_minutes",
          "type": "uint256"
        }
      ],
      "name": "incrementMinutesPlayed",
      "outputs": [],
      "stateMutability": "nonpayable",
      "type": "function"
    },
    {
      "inputs": [
        {
          "internalType": "address",
          "name": "",
          "type": "address"
        }
      ],
      "name": "isContractPermitted",
      "outputs": [
        {
          "internalType": "bool",
          "name": "",
          "type": "bool"
        }
      ],
      "stateMutability": "view",
      "type": "function"
    },
    {
      "inputs": [
        {
          "internalType": "string",
          "name": "gameID",
          "type": "string"
        },
        {
          "internalType": "address",
          "name": "player",
          "type": "address"
        }
      ],
      "name": "isPlayerActiveInGame",
      "outputs": [
        {
          "internalType": "uint8",
          "name": "",
          "type": "uint8"
        }
      ],
      "stateMutability": "view",
      "type": "function"
    },
    {
      "inputs": [
        {
          "internalType": "address",
          "name": "_user",
          "type": "address"
        }
      ],
      "name": "isThisTxFree",
      "outputs": [
        {
          "internalType": "bool",
          "name": "",
          "type": "bool"
        }
      ],
      "stateMutability": "nonpayable",
      "type": "function"
    },
    {
      "inputs": [
        {
          "internalType": "address",
          "name": "_address",
          "type": "address"
        }
      ],
      "name": "isWhitelisted",
      "outputs": [
        {
          "internalType": "bool",
          "name": "",
          "type": "bool"
        }
      ],
      "stateMutability": "view",
      "type": "function"
    },
    {
      "inputs": [],
      "name": "lamportBase",
      "outputs": [
        {
          "internalType": "contract ILamportBase",
          "name": "",
          "type": "address"
        }
      ],
      "stateMutability": "view",
      "type": "function"
    },
    {
      "inputs": [
        {
          "internalType": "address",
          "name": "",
          "type": "address"
        }
      ],
      "name": "lastClaim",
      "outputs": [
        {
          "internalType": "uint256",
          "name": "",
          "type": "uint256"
        }
      ],
      "stateMutability": "view",
      "type": "function"
    },
    {
      "inputs": [
        {
          "internalType": "address",
          "name": "",
          "type": "address"
        }
      ],
      "name": "lastLastClaim",
      "outputs": [
        {
          "internalType": "uint256",
          "name": "",
          "type": "uint256"
        }
      ],
      "stateMutability": "view",
      "type": "function"
    },
    {
      "inputs": [
        {
          "internalType": "address",
          "name": "",
          "type": "address"
        }
      ],
      "name": "lastPlayed",
      "outputs": [
        {
          "internalType": "string",
          "name": "gameId",
          "type": "string"
        },
        {
          "internalType": "uint256",
          "name": "timestamp",
          "type": "uint256"
        }
      ],
      "stateMutability": "view",
      "type": "function"
    },
    {
      "inputs": [],
      "name": "lastUsedBytecodeHash",
      "outputs": [
        {
          "internalType": "bytes32",
          "name": "",
          "type": "bytes32"
        }
      ],
      "stateMutability": "view",
      "type": "function"
    },
    {
      "inputs": [],
      "name": "lastVerificationResult",
      "outputs": [
        {
          "internalType": "bool",
          "name": "",
          "type": "bool"
        }
      ],
      "stateMutability": "view",
      "type": "function"
    },
    {
      "inputs": [
        {
          "internalType": "address",
          "name": "",
          "type": "address"
        }
      ],
      "name": "minutesPlayed",
      "outputs": [
        {
          "internalType": "uint256",
          "name": "",
          "type": "uint256"
        }
      ],
      "stateMutability": "view",
      "type": "function"
    },
    {
      "inputs": [
        {
          "internalType": "address",
          "name": "_address",
          "type": "address"
        }
      ],
      "name": "removeFromWhitelist",
      "outputs": [],
      "stateMutability": "nonpayable",
      "type": "function"
    },
    {
      "inputs": [
        {
          "internalType": "bytes32[2][256]",
          "name": "currentpub",
          "type": "bytes32[2][256]"
        },
        {
          "internalType": "bytes[256]",
          "name": "sig",
          "type": "bytes[256]"
        },
        {
          "internalType": "bytes32",
          "name": "nextPKH",
          "type": "bytes32"
        },
        {
          "internalType": "address",
          "name": "contractAddress",
          "type": "address"
        }
      ],
      "name": "revokeActivityContractPermissionStepOne",
      "outputs": [],
      "stateMutability": "nonpayable",
      "type": "function"
    },
    {
      "inputs": [
        {
          "internalType": "bytes32[2][256]",
          "name": "currentpub",
          "type": "bytes32[2][256]"
        },
        {
          "internalType": "bytes[256]",
          "name": "sig",
          "type": "bytes[256]"
        },
        {
          "internalType": "bytes32",
          "name": "nextPKH",
          "type": "bytes32"
        }
      ],
      "name": "revokeActivityContractPermissionStepTwo",
      "outputs": [],
      "stateMutability": "nonpayable",
      "type": "function"
    },
    {
      "inputs": [
        {
          "internalType": "bytes32[2][256]",
          "name": "currentpub",
          "type": "bytes32[2][256]"
        },
        {
          "internalType": "bytes[256]",
          "name": "sig",
          "type": "bytes[256]"
        },
        {
          "internalType": "bytes32",
          "name": "nextPKH",
          "type": "bytes32"
        },
        {
          "internalType": "uint256",
          "name": "newCoinCommission",
          "type": "uint256"
        }
      ],
      "name": "setCoinCommissionStepOne",
      "outputs": [],
      "stateMutability": "nonpayable",
      "type": "function"
    },
    {
      "inputs": [
        {
          "internalType": "bytes32[2][256]",
          "name": "currentpub",
          "type": "bytes32[2][256]"
        },
        {
          "internalType": "bytes[256]",
          "name": "sig",
          "type": "bytes[256]"
        },
        {
          "internalType": "bytes32",
          "name": "nextPKH",
          "type": "bytes32"
        },
        {
          "internalType": "uint256",
          "name": "newCoinCommission",
          "type": "uint256"
        }
      ],
      "name": "setCoinCommissionStepTwo",
      "outputs": [],
      "stateMutability": "nonpayable",
      "type": "function"
    },
    {
      "inputs": [
        {
          "internalType": "bytes32[2][256]",
          "name": "currentpub",
          "type": "bytes32[2][256]"
        },
        {
          "internalType": "bytes[256]",
          "name": "sig",
          "type": "bytes[256]"
        },
        {
          "internalType": "bytes32",
          "name": "nextPKH",
          "type": "bytes32"
        },
        {
          "internalType": "address",
          "name": "newCommissionAddress",
          "type": "address"
        }
      ],
      "name": "setCommissionAddressStepOne",
      "outputs": [],
      "stateMutability": "nonpayable",
      "type": "function"
    },
    {
      "inputs": [
        {
          "internalType": "bytes32[2][256]",
          "name": "currentpub",
          "type": "bytes32[2][256]"
        },
        {
          "internalType": "bytes[256]",
          "name": "sig",
          "type": "bytes[256]"
        },
        {
          "internalType": "bytes32",
          "name": "nextPKH",
          "type": "bytes32"
        },
        {
          "internalType": "address",
          "name": "newCommissionAddress",
          "type": "address"
        }
      ],
      "name": "setCommissionAddressStepTwo",
      "outputs": [],
      "stateMutability": "nonpayable",
      "type": "function"
    },
    {
      "inputs": [
        {
          "internalType": "bytes32[2][256]",
          "name": "currentpub",
          "type": "bytes32[2][256]"
        },
        {
          "internalType": "bytes[256]",
          "name": "sig",
          "type": "bytes[256]"
        },
        {
          "internalType": "bytes32",
          "name": "nextPKH",
          "type": "bytes32"
        },
        {
          "internalType": "uint256",
          "name": "_newCap",
          "type": "uint256"
        }
      ],
      "name": "setFreeGasCapStepOne",
      "outputs": [],
      "stateMutability": "nonpayable",
      "type": "function"
    },
    {
      "inputs": [
        {
          "internalType": "bytes32[2][256]",
          "name": "currentpub",
          "type": "bytes32[2][256]"
        },
        {
          "internalType": "bytes[256]",
          "name": "sig",
          "type": "bytes[256]"
        },
        {
          "internalType": "bytes32",
          "name": "nextPKH",
          "type": "bytes32"
        }
      ],
      "name": "setFreeGasCapStepTwo",
      "outputs": [],
      "stateMutability": "nonpayable",
      "type": "function"
    },
    {
      "inputs": [
        {
          "internalType": "address",
          "name": "_address",
          "type": "address"
        },
        {
          "internalType": "uint256",
          "name": "_quota",
          "type": "uint256"
        }
      ],
      "name": "setHourlyTxQuota",
      "outputs": [],
      "stateMutability": "nonpayable",
      "type": "function"
    },
    {
      "inputs": [
        {
          "internalType": "address",
          "name": "_address",
          "type": "address"
        },
        {
          "internalType": "string",
          "name": "_gameId",
          "type": "string"
        }
      ],
      "name": "updateLastPlayed",
      "outputs": [],
      "stateMutability": "nonpayable",
      "type": "function"
    },
    {
      "inputs": [
        {
          "internalType": "address",
          "name": "",
          "type": "address"
        }
      ],
      "name": "whitelist",
      "outputs": [
        {
          "internalType": "bool",
          "name": "",
          "type": "bool"
        }
      ],
      "stateMutability": "view",
      "type": "function"
    }
  ],
  "bytecode": "608060405234801561001057600080fd5b50601280546001600160a01b031990811673fd003ca44bbf4e9fb0b2ff1a33fc2f05a6c2eff91790915560008054909116730759a02f763375305aef8b3afb0051ede0c0577f1790556127d6806100686000396000f3fe608060405234801561001057600080fd5b50600436106102325760003560e01c80636ab987c511610130578063931742d3116100b8578063ba6906771161007c578063ba69067714610533578063c506f23314610553578063c8dab0dd14610574578063d47b2e9914610587578063fb632d891461059a57600080fd5b8063931742d3146104d057806397688a0d146104e15780639b19251a146104f4578063ae61d2c214610517578063b889b2b71461052a57600080fd5b80638705d945116100ff5780638705d9451461047c5780638775b01f146104845780638ab1d681146104975780638fd5e0cc146104aa578063904401a6146104bd57600080fd5b80636ab987c51461040d5780636c8dd0bd14610420578063787325ca146104405780637e08deae1461046957600080fd5b806340f1df15116101be5780635961f500116101825780635961f5001461038f5780635a725b07146103a25780635c16e15e146103c75780635e950858146103e75780636118b1c3146103fa57600080fd5b806340f1df151461030b5780634a6728701461031e5780634fbbc63f146103315780635360aa971461035157806356bf7b571461036457600080fd5b80632eb4b54f116102055780632eb4b54f1461029f5780632fd5c247146102b25780633337db52146102bf5780633af32abf146102d65780633e13566b1461030257600080fd5b806303545eac14610237578063054232241461026f578063142eb8c8146102845780631a533daa1461028c575b600080fd5b61025a610245366004611fc4565b60056020526000908152604090205460ff1681565b60405190151581526020015b60405180910390f35b61028261027d36600461200a565b6105ba565b005b6102826106a8565b61028261029a366004612123565b6107e4565b6102826102ad366004612123565b610911565b60075461025a9060ff1681565b6102c860115481565b604051908152602001610266565b61025a6102e4366004611fc4565b6001600160a01b031660009081526006602052604090205460ff1690565b6102c860105481565b6102c8610319366004611fc4565b6109ca565b61028261032c366004612171565b610adf565b6102c861033f366004611fc4565b600a6020526000908152604090205481565b61028261035f366004612171565b610ba9565b600054610377906001600160a01b031681565b6040516001600160a01b039091168152602001610266565b61028261039d36600461200a565b610c65565b6103b56103b03660046121d4565b610da1565b60405160ff9091168152602001610266565b6102c86103d5366004611fc4565b60096020526000908152604090205481565b6102826103f5366004612171565b610f59565b610282610408366004612222565b611015565b61028261041b36600461224c565b61114e565b6102c861042e366004611fc4565b60086020526000908152604090205481565b6102c861044e366004611fc4565b6001600160a01b031660009081526008602052604090205490565b610282610477366004612171565b611246565b6011546102c8565b61025a610492366004611fc4565b611410565b6102826104a5366004611fc4565b61161a565b6102826104b836600461224c565b611707565b6103776104cb3660046122a7565b611837565b6012546001600160a01b0316610377565b6102826104ef36600461200a565b611948565b61025a610502366004611fc4565b60066020526000908152604090205460ff1681565b61028261052536600461200a565b611a2b565b6102c8600f5481565b6102c8610541366004611fc4565b600b6020526000908152604090205481565b610566610561366004611fc4565b611b1b565b604051610266929190612348565b61028261058236600461224c565b611bbf565b610282610595366004612222565b611ce7565b6102c86105a8366004611fc4565b60036020526000908152604090205481565b6000816040516020016105cd919061236a565b60408051601f19818403018152908290526000805463333f611160e01b8452919350916001600160a01b039091169063333f6111906106169089908990899088906004016123b0565b6020604051808303816000875af1158015610635573d6000803e3d6000fd5b505050506040513d601f19601f820116820180604052508101906106599190612491565b9050806106815760405162461bcd60e51b8152600401610678906124b3565b60405180910390fd5b5050600d80546001600160a01b0319166001600160a01b0392909216919091179055505050565b3360008181526006602052604090205460ff166107075760405162461bcd60e51b815260206004820152601760248201527f55736572206973206e6f742077686974656c69737465640000000000000000006044820152606401610678565b6001600160a01b038116600090815260096020908152604080832054600a90925290912054808210156107735760405162461bcd60e51b8152602060048201526014602482015273496e76616c696420636c61696d2076616c75657360601b6044820152606401610678565b6001600160a01b0383166000818152600a60209081526040808320869055600880835281842054600984529382902084905582528051868152918201929092527fdc5ec23a202853e756bbb0c4f4cb94deea4936fcc71756da3ddebf99aabf6c9e91015b60405180910390a2505050565b3360009081526005602052604090205460ff166108135760405162461bcd60e51b8152600401610678906124e8565b6000816040516020016108269190612529565b60408051601f1981840301815291815281516020928301206001600160a01b0386166000908152600690935291205490915060ff16156108a85760405162461bcd60e51b815260206004820152601b60248201527f4164647265737320616c72656164792077686974656c697374656400000000006044820152606401610678565b6001600160a01b03831660008181526003602090815260408083206005905560068252808320805460ff19166001179055600b82529182902084905590518381527fc27d38ad1bdb4164d72e05492b5ce6099b4169e9f20b41d3c7cf35c114a64d5b91016107d7565b3360009081526005602052604090205460ff1661097c5760405162461bcd60e51b815260206004820152602360248201527f4e6f74207065726d697474656420746f20757064617465206c61737420706c616044820152621e595960ea1b6064820152608401610678565b604080518082018252828152426020808301919091526001600160a01b0385166000908152600490915291909120815181906109b890826125ce565b50602082015181600101559050505050565b6001600160a01b03811660009081526006602052604081205460ff166109f257506000919050565b6001600160a01b038216600090815260036020908152604080832054600180845282852060029094529190932090820154831115610a42576001820154610a3990846126a4565b95945050505050565b8154610e1082826101f48110610a5a57610a5a6126b7565b0154610a6690426126a4565b1115610a76575091949350505050565b82546000908590610a889060016126cd565b610a9291906126e0565b9050610e1083826101f48110610aaa57610aaa6126b7565b0154610ab690426126a4565b1115610ad257610ac76001866126a4565b979650505050505050565b5060009695505050505050565b600081604051602001610af491815260200190565b60408051601f19818403018152908290526000805463333f611160e01b8452919350916001600160a01b039091169063333f611190610b3d9089908990899088906004016123b0565b6020604051808303816000875af1158015610b5c573d6000803e3d6000fd5b505050506040513d601f19601f82011682018060405250810190610b809190612491565b905080610b9f5760405162461bcd60e51b8152600401610678906124b3565b5050601355505050565b60008054604080516020808201869052825180830390910181528183019283905263333f611160e01b9092526001600160a01b039092169163333f611191610bfa91899189918991906044016123b0565b6020604051808303816000875af1158015610c19573d6000803e3d6000fd5b505050506040513d601f19601f82011682018060405250810190610c3d9190612491565b905080610c5c5760405162461bcd60e51b8152600401610678906124b3565b50600c55505050565b600081604051602001610c78919061236a565b60408051601f19818403018152908290526000805463333f611160e01b8452919350916001600160a01b039091169063333f611190610cc19089908990899088906004016123b0565b6020604051808303816000875af1158015610ce0573d6000803e3d6000fd5b505050506040513d601f19601f82011682018060405250810190610d049190612491565b905080610d235760405162461bcd60e51b8152600401610678906124b3565b6014548251602084012014610d7a5760405162461bcd60e51b815260206004820152601d60248201527f4d69736d61746368656420636f6d6d697373696f6e20616464726573730000006044820152606401610678565b5050601280546001600160a01b0319166001600160a01b0392909216919091179055505050565b6001600160a01b038116600090815260046020526040808220815180830190925280548392919082908290610dd590612545565b80601f0160208091040260200160405190810160405280929190818152602001828054610e0190612545565b8015610e4e5780601f10610e2357610100808354040283529160200191610e4e565b820191906000526020600020905b815481529060010190602001808311610e3157829003601f168201915b50505050508152602001600182015481525050905060006101e0826020015142610e7891906126a4565b109050808015610ed3575084604051602001610e949190612529565b60408051601f1981840301815290829052805160209182012084519092610ebb9201612529565b60405160208183030381529060405280519060200120145b15610ee357600292505050610f53565b808015610f3c575084604051602001610efc9190612529565b60408051601f1981840301815290829052805160209182012084519092610f239201612529565b6040516020818303038152906040528051906020012014155b15610f4c57600192505050610f53565b6000925050505b92915050565b60008054604080516020808201869052825180830390910181528183019283905263333f611160e01b9092526001600160a01b039092169163333f611191610faa91899189918991906044016123b0565b6020604051808303816000875af1158015610fc9573d6000803e3d6000fd5b505050506040513d601f19601f82011682018060405250810190610fed9190612491565b90508061100c5760405162461bcd60e51b8152600401610678906124b3565b50601055505050565b3360009081526005602052604090205460ff1661108d5760405162461bcd60e51b815260206004820152603060248201527f4e6f74207065726d697474656420746f206d6f6469667920686f75726c79207460448201526f72616e73616374696f6e2071756f746160801b6064820152608401610678565b6001600160a01b03821660009081526006602052604090205460ff166110f55760405162461bcd60e51b815260206004820152601e60248201527f41646472657373206e6f7420666f756e6420696e2077686974656c69737400006044820152606401610678565b6001600160a01b03821660008181526003602052604090819020839055517f49e4e7ca63dcc35a72589f844cb844ce25176e8e1aff16f1ad1fb46624c65372906111429084815260200190565b60405180910390a25050565b60008054600c5460408051602080820193909352815180820390930183528082019182905263333f611160e01b9091526001600160a01b039092169163333f6111916111a391889188918891906044016123b0565b6020604051808303816000875af11580156111c2573d6000803e3d6000fd5b505050506040513d601f19601f820116820180604052508101906111e69190612491565b9050806112055760405162461bcd60e51b8152600401610678906124b3565b600c54600f8190556040519081527f58098eeec115cba633a1b8765151f8a2e4efbdcb42846e0968e430d56e21d3709060200160405180910390a150505050565b60008160405160200161125b91815260200190565b60408051601f19818403018152908290526000805463333f611160e01b8452919350916001600160a01b039091169063333f6111906112a49089908990899088906004016123b0565b6020604051808303816000875af11580156112c3573d6000803e3d6000fd5b505050506040513d601f19601f820116820180604052508101906112e79190612491565b9050806113065760405162461bcd60e51b8152600401610678906124b3565b60148311156113675760405162461bcd60e51b815260206004820152602760248201527f436f6d6d697373696f6e2073686f756c64206265206265747765656e20302520604482015266616e642032302560c81b6064820152608401610678565b60135483146113cb5760405162461bcd60e51b815260206004820152602a60248201527f4d69736d61746368656420636f6d6d697373696f6e2076616c756573206265746044820152697765656e20737465707360b01b6064820152608401610678565b601183905560006013556040518381527f11bf320227562bd5f6c9b575913cf92b3b996b47873159df227324ae1bb4d0ea9060200160405180910390a1505050505050565b600033732685751d3c7a49ebf485e823079ac65e2a35a3dd81149061143490611dbd565b6040516020016114449190612702565b604051602081830303815290604052906114715760405162461bcd60e51b8152600401610678919061275d565b506001600160a01b03821660009081526006602052604090205460ff1661149a57506000919050565b6001600160a01b03821660009081526003602052604081205490036114c157506000919050565b6001600160a01b038216600090815260016020818152604080842060028352818520600390935293205491830154909111611562578154610e1082826101f4811061150e5761150e6126b7565b015461151a90426126a4565b1161152a57506000949350505050565b6001600160a01b03851660009081526003602052604090205483546115509060016126cd565b61155a91906126e0565b83555061157a565b60018201805490600061157483612770565b91905055505b6001600160a01b03841660009081526003602052604081205460018481015485546115a591906126cd565b6115af91906126a4565b6115b991906126e0565b90504282826101f481106115cf576115cf6126b7565b01556040514281526001600160a01b038616907f9ed0861f8fc182c8888f48e900842f475ccd2a3c93c6f966168eaa67d52d2ee19060200160405180910390a2506001949350505050565b3360009081526005602052604090205460ff166116495760405162461bcd60e51b8152600401610678906124e8565b6001600160a01b03811660009081526006602052604090205460ff166116b15760405162461bcd60e51b815260206004820152601e60248201527f41646472657373206e6f7420666f756e6420696e2077686974656c69737400006044820152606401610678565b6001600160a01b0381166000818152600660209081526040808320805460ff19169055600b909152808220829055517fcdd2e9b91a56913d370075169cefa1602ba36be5301664f752192bb1709df7579190a250565b600e54604051600091611728916001600160a01b039091169060200161236a565b60408051601f19818403018152908290526000805463333f611160e01b8452919350916001600160a01b039091169063333f6111906117719088908890889088906004016123b0565b6020604051808303816000875af1158015611790573d6000803e3d6000fd5b505050506040513d601f19601f820116820180604052508101906117b49190612491565b9050806117d35760405162461bcd60e51b8152600401610678906124b3565b600e80546001600160a01b03908116600090815260056020908152604091829020805460ff1916905592549051911681527f6c643a308c2943f8cabf6ea94d2fc3741e4995caa21bd8e305b91f06abf14b5891015b60405180910390a15050505050565b60006010548280519060200120146118ab5760405162461bcd60e51b815260206004820152603160248201527f42797465636f646520646f6573206e6f74206d617463682070726576696f7573604482015270363c90383937bb34b232b2103430b9b41760791b6064820152608401610678565b60008251602084016000f090506001600160a01b03811661190e5760405162461bcd60e51b815260206004820152601860248201527f436f6e7472616374206372656174696f6e206661696c656400000000000000006044820152606401610678565b6040516001600160a01b038216907fcf78cf0d6f3d8371e1075c69c492ab4ec5d8cf23a1a239b6a51a1d00be7ca31290600090a292915050565b600080546040516001600160a01b039091169063333f61119087908790879061197590889060200161236a565b6040516020818303038152906040526040518563ffffffff1660e01b81526004016119a394939291906123b0565b6020604051808303816000875af11580156119c2573d6000803e3d6000fd5b505050506040513d601f19601f820116820180604052508101906119e69190612491565b905080611a055760405162461bcd60e51b8152600401610678906124b3565b50600e80546001600160a01b0319166001600160a01b0392909216919091179055505050565b600080546040516001600160a01b039091169063333f611190879087908790611a5890889060200161236a565b6040516020818303038152906040526040518563ffffffff1660e01b8152600401611a8694939291906123b0565b6020604051808303816000875af1158015611aa5573d6000803e3d6000fd5b505050506040513d601f19601f82011682018060405250810190611ac99190612491565b905080611ae85760405162461bcd60e51b8152600401610678906124b3565b81604051602001611af9919061236a565b60408051601f1981840301815291905280516020909101206014555050505050565b600460205260009081526040902080548190611b3690612545565b80601f0160208091040260200160405190810160405280929190818152602001828054611b6290612545565b8015611baf5780601f10611b8457610100808354040283529160200191611baf565b820191906000526020600020905b815481529060010190602001808311611b9257829003601f168201915b5050505050908060010154905082565b600d54604051600091611be0916001600160a01b039091169060200161236a565b60408051601f19818403018152908290526000805463333f611160e01b8452919350916001600160a01b039091169063333f611190611c299088908890889088906004016123b0565b6020604051808303816000875af1158015611c48573d6000803e3d6000fd5b505050506040513d601f19601f82011682018060405250810190611c6c9190612491565b905080611c8b5760405162461bcd60e51b8152600401610678906124b3565b600d80546001600160a01b03908116600090815260056020908152604091829020805460ff1916600117905592549051911681527f9c2d3039f3d15023b5382d61054aae8f70288e4bffb8676398baca3c389e8f189101611828565b3360009081526005602052604090205460ff16611d555760405162461bcd60e51b815260206004820152602660248201527f4e6f74207065726d697474656420746f206d6f64696679206d696e75746573206044820152651c1b185e595960d21b6064820152608401610678565b6001600160a01b03821660009081526008602052604081208054839290611d7d9084906126cd565b90915550506040518181526001600160a01b038316907f54ecab596bd73e6a3fd6d8bb310aa69a74c3f78ddc040f88c6f5d06dffb3542b90602001611142565b604080518082018252601081526f181899199a1a9b1b9c1cb0b131b232b360811b60208201528151602a80825260608281019094526001600160a01b0385169291600091602082018180368337019050509050600360fc1b81600081518110611e2857611e286126b7565b60200101906001600160f81b031916908160001a905350600f60fb1b81600181518110611e5757611e576126b7565b60200101906001600160f81b031916908160001a90535060005b6014811015611f9f5782600485611e8984600c6126cd565b60208110611e9957611e996126b7565b1a60f81b6001600160f81b031916901c60f81c60ff1681518110611ebf57611ebf6126b7565b01602001516001600160f81b03191682611eda836002612789565b611ee59060026126cd565b81518110611ef557611ef56126b7565b60200101906001600160f81b031916908160001a9053508284611f1983600c6126cd565b60208110611f2957611f296126b7565b825191901a600f16908110611f4057611f406126b7565b01602001516001600160f81b03191682611f5b836002612789565b611f669060036126cd565b81518110611f7657611f766126b7565b60200101906001600160f81b031916908160001a90535080611f9781612770565b915050611e71565b50949350505050565b80356001600160a01b0381168114611fbf57600080fd5b919050565b600060208284031215611fd657600080fd5b611fdf82611fa8565b9392505050565b806140008101831015610f5357600080fd5b806120008101831015610f5357600080fd5b600080600080614060858703121561202157600080fd5b61202b8686611fe6565b935061400085013567ffffffffffffffff81111561204857600080fd5b61205487828801611ff8565b935050614020850135915061206c6140408601611fa8565b905092959194509250565b634e487b7160e01b600052604160045260246000fd5b600067ffffffffffffffff808411156120a8576120a8612077565b604051601f8501601f19908116603f011681019082821181831017156120d0576120d0612077565b816040528093508581528686860111156120e957600080fd5b858560208301376000602087830101525050509392505050565b600082601f83011261211457600080fd5b611fdf8383356020850161208d565b6000806040838503121561213657600080fd5b61213f83611fa8565b9150602083013567ffffffffffffffff81111561215b57600080fd5b61216785828601612103565b9150509250929050565b600080600080614060858703121561218857600080fd5b6121928686611fe6565b935061400085013567ffffffffffffffff8111156121af57600080fd5b6121bb87828801611ff8565b9497949650505050614020830135926140400135919050565b600080604083850312156121e757600080fd5b823567ffffffffffffffff8111156121fe57600080fd5b61220a85828601612103565b92505061221960208401611fa8565b90509250929050565b6000806040838503121561223557600080fd5b61223e83611fa8565b946020939093013593505050565b6000806000614040848603121561226257600080fd5b61226c8585611fe6565b925061400084013567ffffffffffffffff81111561228957600080fd5b61229586828701611ff8565b92505061402084013590509250925092565b6000602082840312156122b957600080fd5b813567ffffffffffffffff8111156122d057600080fd5b8201601f810184136122e157600080fd5b6122f08482356020840161208d565b949350505050565b60005b838110156123135781810151838201526020016122fb565b50506000910152565b600081518084526123348160208601602086016122f8565b601f01601f19169290920160200192915050565b60408152600061235b604083018561231c565b90508260208301529392505050565b60609190911b6bffffffffffffffffffffffff1916815260140190565b81835281816020850137506000828201602090810191909152601f909101601f19169091010190565b60006140608281018388845b6101008110156123dd576040808385379283019291909101906001016123bc565b50505061400084019190915261606083018660005b6101008110156124695785830361405f190184528135368a9003601e1901811261241b57600080fd5b8901602081810191359067ffffffffffffffff82111561243a57600080fd5b81360383131561244957600080fd5b612454868385612387565b968101969550939093019250506001016123f2565b505085614020850152838103614040850152612485818661231c565b98975050505050505050565b6000602082840312156124a357600080fd5b81518015158114611fdf57600080fd5b6020808252818101527f4c616d706f7274204d61737465722076616c69646174696f6e206661696c6564604082015260600190565b60208082526021908201527f4e6f74207065726d697474656420746f206d6f646966792077686974656c69736040820152601d60fa1b606082015260800190565b6000825161253b8184602087016122f8565b9190910192915050565b600181811c9082168061255957607f821691505b60208210810361257957634e487b7160e01b600052602260045260246000fd5b50919050565b601f8211156125c957600081815260208120601f850160051c810160208610156125a65750805b601f850160051c820191505b818110156125c5578281556001016125b2565b5050505b505050565b815167ffffffffffffffff8111156125e8576125e8612077565b6125fc816125f68454612545565b8461257f565b602080601f83116001811461263157600084156126195750858301515b600019600386901b1c1916600185901b1785556125c5565b600085815260208120601f198616915b8281101561266057888601518255948401946001909101908401612641565b508582101561267e5787850151600019600388901b60f8161c191681555b5050505050600190811b01905550565b634e487b7160e01b600052601160045260246000fd5b81810381811115610f5357610f5361268e565b634e487b7160e01b600052603260045260246000fd5b80820180821115610f5357610f5361268e565b6000826126fd57634e487b7160e01b600052601260045260246000fd5b500690565b7f4f6e6c7920546865526f636b2063616e2063616c6c20746869732066756e637481526c034b7b7171021b0b63632b91d1609d1b60208201526000825161275081602d8501602087016122f8565b91909101602d0192915050565b602081526000611fdf602083018461231c565b6000600182016127825761278261268e565b5060010190565b8082028115828204841417610f5357610f5361268e56fea2646970667358221220ce5af167f7339c96760b9af443c66f71683b8485e5aa7070725fe409de88621664736f6c63430008150033",
  "bytecodeSha1": "0db0e512774414c69d41f4c725095013732ff09a",
  "compiler": {
    "evm_version": "istanbul",
    "optimizer": {
      "enabled": true,
      "runs": 200
    },
    "version": "0.8.21+commit.d9974bed"
  },
  "contractName": "AnonIDContract",
  "language": "Solidity",
  "natspec": {
    "kind": "dev",
    "methods": {},
    "version": 1
  },
  "opcodes": "PUSH1 0x80 PUSH1 0x40 MSTORE CALLVALUE DUP1 ISZERO PUSH2 0x10 JUMPI PUSH1 0x0 DUP1 REVERT JUMPDEST POP PUSH1 0x4 CALLDATASIZE LT PUSH2 0x232 JUMPI PUSH1 0x0 CALLDATALOAD PUSH1 0xE0 SHR DUP1 PUSH4 0x6AB987C5 GT PUSH2 0x130 JUMPI DUP1 PUSH4 0x931742D3 GT PUSH2 0xB8 JUMPI DUP1 PUSH4 0xBA690677 GT PUSH2 0x7C JUMPI DUP1 PUSH4 0xBA690677 EQ PUSH2 0x533 JUMPI DUP1 PUSH4 0xC506F233 EQ PUSH2 0x553 JUMPI DUP1 PUSH4 0xC8DAB0DD EQ PUSH2 0x574 JUMPI DUP1 PUSH4 0xD47B2E99 EQ PUSH2 0x587 JUMPI DUP1 PUSH4 0xFB632D89 EQ PUSH2 0x59A JUMPI PUSH1 0x0 DUP1 REVERT JUMPDEST DUP1 PUSH4 0x931742D3 EQ PUSH2 0x4D0 JUMPI DUP1 PUSH4 0x97688A0D EQ PUSH2 0x4E1 JUMPI DUP1 PUSH4 0x9B19251A EQ PUSH2 0x4F4 JUMPI DUP1 PUSH4 0xAE61D2C2 EQ PUSH2 0x517 JUMPI DUP1 PUSH4 0xB889B2B7 EQ PUSH2 0x52A JUMPI PUSH1 0x0 DUP1 REVERT JUMPDEST DUP1 PUSH4 0x8705D945 GT PUSH2 0xFF JUMPI DUP1 PUSH4 0x8705D945 EQ PUSH2 0x47C JUMPI DUP1 PUSH4 0x8775B01F EQ PUSH2 0x484 JUMPI DUP1 PUSH4 0x8AB1D681 EQ PUSH2 0x497 JUMPI DUP1 PUSH4 0x8FD5E0CC EQ PUSH2 0x4AA JUMPI DUP1 PUSH4 0x904401A6 EQ PUSH2 0x4BD JUMPI PUSH1 0x0 DUP1 REVERT JUMPDEST DUP1 PUSH4 0x6AB987C5 EQ PUSH2 0x40D JUMPI DUP1 PUSH4 0x6C8DD0BD EQ PUSH2 0x420 JUMPI DUP1 PUSH4 0x787325CA EQ PUSH2 0x440 JUMPI DUP1 PUSH4 0x7E08DEAE EQ PUSH2 0x469 JUMPI PUSH1 0x0 DUP1 REVERT JUMPDEST DUP1 PUSH4 0x40F1DF15 GT PUSH2 0x1BE JUMPI DUP1 PUSH4 0x5961F500 GT PUSH2 0x182 JUMPI DUP1 PUSH4 0x5961F500 EQ PUSH2 0x38F JUMPI DUP1 PUSH4 0x5A725B07 EQ PUSH2 0x3A2 JUMPI DUP1 PUSH4 0x5C16E15E EQ PUSH2 0x3C7 JUMPI DUP1 PUSH4 0x5E950858 EQ PUSH2 0x3E7 JUMPI DUP1 PUSH4 0x6118B1C3 EQ PUSH2 0x3FA JUMPI PUSH1 0x0 DUP1 REVERT JUMPDEST DUP1 PUSH4 0x40F1DF15 EQ PUSH2 0x30B JUMPI DUP1 PUSH4 0x4A672870 EQ PUSH2 0x31E JUMPI DUP1 PUSH4 0x4FBBC63F EQ PUSH2 0x331 JUMPI DUP1 PUSH4 0x5360AA97 EQ PUSH2 0x351 JUMPI DUP1 PUSH4 0x56BF7B57 EQ PUSH2 0x364 JUMPI PUSH1 0x0 DUP1 REVERT JUMPDEST DUP1 PUSH4 0x2EB4B54F GT PUSH2 0x205 JUMPI DUP1 PUSH4 0x2EB4B54F EQ PUSH2 0x29F JUMPI DUP1 PUSH4 0x2FD5C247 EQ PUSH2 0x2B2 JUMPI DUP1 PUSH4 0x3337DB52 EQ PUSH2 0x2BF JUMPI DUP1 PUSH4 0x3AF32ABF EQ PUSH2 0x2D6 JUMPI DUP1 PUSH4 0x3E13566B EQ PUSH2 0x302 JUMPI PUSH1 0x0 DUP1 REVERT JUMPDEST DUP1 PUSH4 0x3545EAC EQ PUSH2 0x237 JUMPI DUP1 PUSH4 0x5423224 EQ PUSH2 0x26F JUMPI DUP1 PUSH4 0x142EB8C8 EQ PUSH2 0x284 JUMPI DUP1 PUSH4 0x1A533DAA EQ PUSH2 0x28C JUMPI JUMPDEST PUSH1 0x0 DUP1 REVERT JUMPDEST PUSH2 0x25A PUSH2 0x245 CALLDATASIZE PUSH1 0x4 PUSH2 0x1FC4 JUMP JUMPDEST PUSH1 0x5 PUSH1 0x20 MSTORE PUSH1 0x0 SWAP1 DUP2 MSTORE PUSH1 0x40 SWAP1 KECCAK256 SLOAD PUSH1 0xFF AND DUP2 JUMP JUMPDEST PUSH1 0x40 MLOAD SWAP1 ISZERO ISZERO DUP2 MSTORE PUSH1 0x20 ADD JUMPDEST PUSH1 0x40 MLOAD DUP1 SWAP2 SUB SWAP1 RETURN JUMPDEST PUSH2 0x282 PUSH2 0x27D CALLDATASIZE PUSH1 0x4 PUSH2 0x200A JUMP JUMPDEST PUSH2 0x5BA JUMP JUMPDEST STOP JUMPDEST PUSH2 0x282 PUSH2 0x6A8 JUMP JUMPDEST PUSH2 0x282 PUSH2 0x29A CALLDATASIZE PUSH1 0x4 PUSH2 0x2123 JUMP JUMPDEST PUSH2 0x7E4 JUMP JUMPDEST PUSH2 0x282 PUSH2 0x2AD CALLDATASIZE PUSH1 0x4 PUSH2 0x2123 JUMP JUMPDEST PUSH2 0x911 JUMP JUMPDEST PUSH1 0x7 SLOAD PUSH2 0x25A SWAP1 PUSH1 0xFF AND DUP2 JUMP JUMPDEST PUSH2 0x2C8 PUSH1 0x11 SLOAD DUP2 JUMP JUMPDEST PUSH1 0x40 MLOAD SWAP1 DUP2 MSTORE PUSH1 0x20 ADD PUSH2 0x266 JUMP JUMPDEST PUSH2 0x25A PUSH2 0x2E4 CALLDATASIZE PUSH1 0x4 PUSH2 0x1FC4 JUMP JUMPDEST PUSH1 0x1 PUSH1 0x1 PUSH1 0xA0 SHL SUB AND PUSH1 0x0 SWAP1 DUP2 MSTORE PUSH1 0x6 PUSH1 0x20 MSTORE PUSH1 0x40 SWAP1 KECCAK256 SLOAD PUSH1 0xFF AND SWAP1 JUMP JUMPDEST PUSH2 0x2C8 PUSH1 0x10 SLOAD DUP2 JUMP JUMPDEST PUSH2 0x2C8 PUSH2 0x319 CALLDATASIZE PUSH1 0x4 PUSH2 0x1FC4 JUMP JUMPDEST PUSH2 0x9CA JUMP JUMPDEST PUSH2 0x282 PUSH2 0x32C CALLDATASIZE PUSH1 0x4 PUSH2 0x2171 JUMP JUMPDEST PUSH2 0xADF JUMP JUMPDEST PUSH2 0x2C8 PUSH2 0x33F CALLDATASIZE PUSH1 0x4 PUSH2 0x1FC4 JUMP JUMPDEST PUSH1 0xA PUSH1 0x20 MSTORE PUSH1 0x0 SWAP1 DUP2 MSTORE PUSH1 0x40 SWAP1 KECCAK256 SLOAD DUP2 JUMP JUMPDEST PUSH2 0x282 PUSH2 0x35F CALLDATASIZE PUSH1 0x4 PUSH2 0x2171 JUMP JUMPDEST PUSH2 0xBA9 JUMP JUMPDEST PUSH1 0x0 SLOAD PUSH2 0x377 SWAP1 PUSH1 0x1 PUSH1 0x1 PUSH1 0xA0 SHL SUB AND DUP2 JUMP JUMPDEST PUSH1 0x40 MLOAD PUSH1 0x1 PUSH1 0x1 PUSH1 0xA0 SHL SUB SWAP1 SWAP2 AND DUP2 MSTORE PUSH1 0x20 ADD PUSH2 0x266 JUMP JUMPDEST PUSH2 0x282 PUSH2 0x39D CALLDATASIZE PUSH1 0x4 PUSH2 0x200A JUMP JUMPDEST PUSH2 0xC65 JUMP JUMPDEST PUSH2 0x3B5 PUSH2 0x3B0 CALLDATASIZE PUSH1 0x4 PUSH2 0x21D4 JUMP JUMPDEST PUSH2 0xDA1 JUMP JUMPDEST PUSH1 0x40 MLOAD PUSH1 0xFF SWAP1 SWAP2 AND DUP2 MSTORE PUSH1 0x20 ADD PUSH2 0x266 JUMP JUMPDEST PUSH2 0x2C8 PUSH2 0x3D5 CALLDATASIZE PUSH1 0x4 PUSH2 0x1FC4 JUMP JUMPDEST PUSH1 0x9 PUSH1 0x20 MSTORE PUSH1 0x0 SWAP1 DUP2 MSTORE PUSH1 0x40 SWAP1 KECCAK256 SLOAD DUP2 JUMP JUMPDEST PUSH2 0x282 PUSH2 0x3F5 CALLDATASIZE PUSH1 0x4 PUSH2 0x2171 JUMP JUMPDEST PUSH2 0xF59 JUMP JUMPDEST PUSH2 0x282 PUSH2 0x408 CALLDATASIZE PUSH1 0x4 PUSH2 0x2222 JUMP JUMPDEST PUSH2 0x1015 JUMP JUMPDEST PUSH2 0x282 PUSH2 0x41B CALLDATASIZE PUSH1 0x4 PUSH2 0x224C JUMP JUMPDEST PUSH2 0x114E JUMP JUMPDEST PUSH2 0x2C8 PUSH2 0x42E CALLDATASIZE PUSH1 0x4 PUSH2 0x1FC4 JUMP JUMPDEST PUSH1 0x8 PUSH1 0x20 MSTORE PUSH1 0x0 SWAP1 DUP2 MSTORE PUSH1 0x40 SWAP1 KECCAK256 SLOAD DUP2 JUMP JUMPDEST PUSH2 0x2C8 PUSH2 0x44E CALLDATASIZE PUSH1 0x4 PUSH2 0x1FC4 JUMP JUMPDEST PUSH1 0x1 PUSH1 0x1 PUSH1 0xA0 SHL SUB AND PUSH1 0x0 SWAP1 DUP2 MSTORE PUSH1 0x8 PUSH1 0x20 MSTORE PUSH1 0x40 SWAP1 KECCAK256 SLOAD SWAP1 JUMP JUMPDEST PUSH2 0x282 PUSH2 0x477 CALLDATASIZE PUSH1 0x4 PUSH2 0x2171 JUMP JUMPDEST PUSH2 0x1246 JUMP JUMPDEST PUSH1 0x11 SLOAD PUSH2 0x2C8 JUMP JUMPDEST PUSH2 0x25A PUSH2 0x492 CALLDATASIZE PUSH1 0x4 PUSH2 0x1FC4 JUMP JUMPDEST PUSH2 0x1410 JUMP JUMPDEST PUSH2 0x282 PUSH2 0x4A5 CALLDATASIZE PUSH1 0x4 PUSH2 0x1FC4 JUMP JUMPDEST PUSH2 0x161A JUMP JUMPDEST PUSH2 0x282 PUSH2 0x4B8 CALLDATASIZE PUSH1 0x4 PUSH2 0x224C JUMP JUMPDEST PUSH2 0x1707 JUMP JUMPDEST PUSH2 0x377 PUSH2 0x4CB CALLDATASIZE PUSH1 0x4 PUSH2 0x22A7 JUMP JUMPDEST PUSH2 0x1837 JUMP JUMPDEST PUSH1 0x12 SLOAD PUSH1 0x1 PUSH1 0x1 PUSH1 0xA0 SHL SUB AND PUSH2 0x377 JUMP JUMPDEST PUSH2 0x282 PUSH2 0x4EF CALLDATASIZE PUSH1 0x4 PUSH2 0x200A JUMP JUMPDEST PUSH2 0x1948 JUMP JUMPDEST PUSH2 0x25A PUSH2 0x502 CALLDATASIZE PUSH1 0x4 PUSH2 0x1FC4 JUMP JUMPDEST PUSH1 0x6 PUSH1 0x20 MSTORE PUSH1 0x0 SWAP1 DUP2 MSTORE PUSH1 0x40 SWAP1 KECCAK256 SLOAD PUSH1 0xFF AND DUP2 JUMP JUMPDEST PUSH2 0x282 PUSH2 0x525 CALLDATASIZE PUSH1 0x4 PUSH2 0x200A JUMP JUMPDEST PUSH2 0x1A2B JUMP JUMPDEST PUSH2 0x2C8 PUSH1 0xF SLOAD DUP2 JUMP JUMPDEST PUSH2 0x2C8 PUSH2 0x541 CALLDATASIZE PUSH1 0x4 PUSH2 0x1FC4 JUMP JUMPDEST PUSH1 0xB PUSH1 0x20 MSTORE PUSH1 0x0 SWAP1 DUP2 MSTORE PUSH1 0x40 SWAP1 KECCAK256 SLOAD DUP2 JUMP JUMPDEST PUSH2 0x566 PUSH2 0x561 CALLDATASIZE PUSH1 0x4 PUSH2 0x1FC4 JUMP JUMPDEST PUSH2 0x1B1B JUMP JUMPDEST PUSH1 0x40 MLOAD PUSH2 0x266 SWAP3 SWAP2 SWAP1 PUSH2 0x2348 JUMP JUMPDEST PUSH2 0x282 PUSH2 0x582 CALLDATASIZE PUSH1 0x4 PUSH2 0x224C JUMP JUMPDEST PUSH2 0x1BBF JUMP JUMPDEST PUSH2 0x282 PUSH2 0x595 CALLDATASIZE PUSH1 0x4 PUSH2 0x2222 JUMP JUMPDEST PUSH2 0x1CE7 JUMP JUMPDEST PUSH2 0x2C8 PUSH2 0x5A8 CALLDATASIZE PUSH1 0x4 PUSH2 0x1FC4 JUMP JUMPDEST PUSH1 0x3 PUSH1 0x20 MSTORE PUSH1 0x0 SWAP1 DUP2 MSTORE PUSH1 0x40 SWAP1 KECCAK256 SLOAD DUP2 JUMP JUMPDEST PUSH1 0x0 DUP2 PUSH1 0x40 MLOAD PUSH1 0x20 ADD PUSH2 0x5CD SWAP2 SWAP1 PUSH2 0x236A JUMP JUMPDEST PUSH1 0x40 DUP1 MLOAD PUSH1 0x1F NOT DUP2 DUP5 SUB ADD DUP2 MSTORE SWAP1 DUP3 SWAP1 MSTORE PUSH1 0x0 DUP1 SLOAD PUSH4 0x333F6111 PUSH1 0xE0 SHL DUP5 MSTORE SWAP2 SWAP4 POP SWAP2 PUSH1 0x1 PUSH1 0x1 PUSH1 0xA0 SHL SUB SWAP1 SWAP2 AND SWAP1 PUSH4 0x333F6111 SWAP1 PUSH2 0x616 SWAP1 DUP10 SWAP1 DUP10 SWAP1 DUP10 SWAP1 DUP9 SWAP1 PUSH1 0x4 ADD PUSH2 0x23B0 JUMP JUMPDEST PUSH1 0x20 PUSH1 0x40 MLOAD DUP1 DUP4 SUB DUP2 PUSH1 0x0 DUP8 GAS CALL ISZERO DUP1 ISZERO PUSH2 0x635 JUMPI RETURNDATASIZE PUSH1 0x0 DUP1 RETURNDATACOPY RETURNDATASIZE PUSH1 0x0 REVERT JUMPDEST POP POP POP POP PUSH1 0x40 MLOAD RETURNDATASIZE PUSH1 0x1F NOT PUSH1 0x1F DUP3 ADD AND DUP3 ADD DUP1 PUSH1 0x40 MSTORE POP DUP2 ADD SWAP1 PUSH2 0x659 SWAP2 SWAP1 PUSH2 0x2491 JUMP JUMPDEST SWAP1 POP DUP1 PUSH2 0x681 JUMPI PUSH1 0x40 MLOAD PUSH3 0x461BCD PUSH1 0xE5 SHL DUP2 MSTORE PUSH1 0x4 ADD PUSH2 0x678 SWAP1 PUSH2 0x24B3 JUMP JUMPDEST PUSH1 0x40 MLOAD DUP1 SWAP2 SUB SWAP1 REVERT JUMPDEST POP POP PUSH1 0xD DUP1 SLOAD PUSH1 0x1 PUSH1 0x1 PUSH1 0xA0 SHL SUB NOT AND PUSH1 0x1 PUSH1 0x1 PUSH1 0xA0 SHL SUB SWAP3 SWAP1 SWAP3 AND SWAP2 SWAP1 SWAP2 OR SWAP1 SSTORE POP POP POP JUMP JUMPDEST CALLER PUSH1 0x0 DUP2 DUP2 MSTORE PUSH1 0x6 PUSH1 0x20 MSTORE PUSH1 0x40 SWAP1 KECCAK256 SLOAD PUSH1 0xFF AND PUSH2 0x707 JUMPI PUSH1 0x40 MLOAD PUSH3 0x461BCD PUSH1 0xE5 SHL DUP2 MSTORE PUSH1 0x20 PUSH1 0x4 DUP3 ADD MSTORE PUSH1 0x17 PUSH1 0x24 DUP3 ADD MSTORE PUSH32 0x55736572206973206E6F742077686974656C6973746564000000000000000000 PUSH1 0x44 DUP3 ADD MSTORE PUSH1 0x64 ADD PUSH2 0x678 JUMP JUMPDEST PUSH1 0x1 PUSH1 0x1 PUSH1 0xA0 SHL SUB DUP2 AND PUSH1 0x0 SWAP1 DUP2 MSTORE PUSH1 0x9 PUSH1 0x20 SWAP1 DUP2 MSTORE PUSH1 0x40 DUP1 DUP4 KECCAK256 SLOAD PUSH1 0xA SWAP1 SWAP3 MSTORE SWAP1 SWAP2 KECCAK256 SLOAD DUP1 DUP3 LT ISZERO PUSH2 0x773 JUMPI PUSH1 0x40 MLOAD PUSH3 0x461BCD PUSH1 0xE5 SHL DUP2 MSTORE PUSH1 0x20 PUSH1 0x4 DUP3 ADD MSTORE PUSH1 0x14 PUSH1 0x24 DUP3 ADD MSTORE PUSH20 0x496E76616C696420636C61696D2076616C756573 PUSH1 0x60 SHL PUSH1 0x44 DUP3 ADD MSTORE PUSH1 0x64 ADD PUSH2 0x678 JUMP JUMPDEST PUSH1 0x1 PUSH1 0x1 PUSH1 0xA0 SHL SUB DUP4 AND PUSH1 0x0 DUP2 DUP2 MSTORE PUSH1 0xA PUSH1 0x20 SWAP1 DUP2 MSTORE PUSH1 0x40 DUP1 DUP4 KECCAK256 DUP7 SWAP1 SSTORE PUSH1 0x8 DUP1 DUP4 MSTORE DUP2 DUP5 KECCAK256 SLOAD PUSH1 0x9 DUP5 MSTORE SWAP4 DUP3 SWAP1 KECCAK256 DUP5 SWAP1 SSTORE DUP3 MSTORE DUP1 MLOAD DUP7 DUP2 MSTORE SWAP2 DUP3 ADD SWAP3 SWAP1 SWAP3 MSTORE PUSH32 0xDC5EC23A202853E756BBB0C4F4CB94DEEA4936FCC71756DA3DDEBF99AABF6C9E SWAP2 ADD JUMPDEST PUSH1 0x40 MLOAD DUP1 SWAP2 SUB SWAP1 LOG2 POP POP POP JUMP JUMPDEST CALLER PUSH1 0x0 SWAP1 DUP2 MSTORE PUSH1 0x5 PUSH1 0x20 MSTORE PUSH1 0x40 SWAP1 KECCAK256 SLOAD PUSH1 0xFF AND PUSH2 0x813 JUMPI PUSH1 0x40 MLOAD PUSH3 0x461BCD PUSH1 0xE5 SHL DUP2 MSTORE PUSH1 0x4 ADD PUSH2 0x678 SWAP1 PUSH2 0x24E8 JUMP JUMPDEST PUSH1 0x0 DUP2 PUSH1 0x40 MLOAD PUSH1 0x20 ADD PUSH2 0x826 SWAP2 SWAP1 PUSH2 0x2529 JUMP JUMPDEST PUSH1 0x40 DUP1 MLOAD PUSH1 0x1F NOT DUP2 DUP5 SUB ADD DUP2 MSTORE SWAP2 DUP2 MSTORE DUP2 MLOAD PUSH1 0x20 SWAP3 DUP4 ADD KECCAK256 PUSH1 0x1 PUSH1 0x1 PUSH1 0xA0 SHL SUB DUP7 AND PUSH1 0x0 SWAP1 DUP2 MSTORE PUSH1 0x6 SWAP1 SWAP4 MSTORE SWAP2 KECCAK256 SLOAD SWAP1 SWAP2 POP PUSH1 0xFF AND ISZERO PUSH2 0x8A8 JUMPI PUSH1 0x40 MLOAD PUSH3 0x461BCD PUSH1 0xE5 SHL DUP2 MSTORE PUSH1 0x20 PUSH1 0x4 DUP3 ADD MSTORE PUSH1 0x1B PUSH1 0x24 DUP3 ADD MSTORE PUSH32 0x4164647265737320616C72656164792077686974656C69737465640000000000 PUSH1 0x44 DUP3 ADD MSTORE PUSH1 0x64 ADD PUSH2 0x678 JUMP JUMPDEST PUSH1 0x1 PUSH1 0x1 PUSH1 0xA0 SHL SUB DUP4 AND PUSH1 0x0 DUP2 DUP2 MSTORE PUSH1 0x3 PUSH1 0x20 SWAP1 DUP2 MSTORE PUSH1 0x40 DUP1 DUP4 KECCAK256 PUSH1 0x5 SWAP1 SSTORE PUSH1 0x6 DUP3 MSTORE DUP1 DUP4 KECCAK256 DUP1 SLOAD PUSH1 0xFF NOT AND PUSH1 0x1 OR SWAP1 SSTORE PUSH1 0xB DUP3 MSTORE SWAP2 DUP3 SWAP1 KECCAK256 DUP5 SWAP1 SSTORE SWAP1 MLOAD DUP4 DUP2 MSTORE PUSH32 0xC27D38AD1BDB4164D72E05492B5CE6099B4169E9F20B41D3C7CF35C114A64D5B SWAP2 ADD PUSH2 0x7D7 JUMP JUMPDEST CALLER PUSH1 0x0 SWAP1 DUP2 MSTORE PUSH1 0x5 PUSH1 0x20 MSTORE PUSH1 0x40 SWAP1 KECCAK256 SLOAD PUSH1 0xFF AND PUSH2 0x97C JUMPI PUSH1 0x40 MLOAD PUSH3 0x461BCD PUSH1 0xE5 SHL DUP2 MSTORE PUSH1 0x20 PUSH1 0x4 DUP3 ADD MSTORE PUSH1 0x23 PUSH1 0x24 DUP3 ADD MSTORE PUSH32 0x4E6F74207065726D697474656420746F20757064617465206C61737420706C61 PUSH1 0x44 DUP3 ADD MSTORE PUSH3 0x1E5959 PUSH1 0xEA SHL PUSH1 0x64 DUP3 ADD MSTORE PUSH1 0x84 ADD PUSH2 0x678 JUMP JUMPDEST PUSH1 0x40 DUP1 MLOAD DUP1 DUP3 ADD DUP3 MSTORE DUP3 DUP2 MSTORE TIMESTAMP PUSH1 0x20 DUP1 DUP4 ADD SWAP2 SWAP1 SWAP2 MSTORE PUSH1 0x1 PUSH1 0x1 PUSH1 0xA0 SHL SUB DUP6 AND PUSH1 0x0 SWAP1 DUP2 MSTORE PUSH1 0x4 SWAP1 SWAP2 MSTORE SWAP2 SWAP1 SWAP2 KECCAK256 DUP2 MLOAD DUP2 SWAP1 PUSH2 0x9B8 SWAP1 DUP3 PUSH2 0x25CE JUMP JUMPDEST POP PUSH1 0x20 DUP3 ADD MLOAD DUP2 PUSH1 0x1 ADD SSTORE SWAP1 POP POP POP POP JUMP JUMPDEST PUSH1 0x1 PUSH1 0x1 PUSH1 0xA0 SHL SUB DUP2 AND PUSH1 0x0 SWAP1 DUP2 MSTORE PUSH1 0x6 PUSH1 0x20 MSTORE PUSH1 0x40 DUP2 KECCAK256 SLOAD PUSH1 0xFF AND PUSH2 0x9F2 JUMPI POP PUSH1 0x0 SWAP2 SWAP1 POP JUMP JUMPDEST PUSH1 0x1 PUSH1 0x1 PUSH1 0xA0 SHL SUB DUP3 AND PUSH1 0x0 SWAP1 DUP2 MSTORE PUSH1 0x3 PUSH1 0x20 SWAP1 DUP2 MSTORE PUSH1 0x40 DUP1 DUP4 KECCAK256 SLOAD PUSH1 0x1 DUP1 DUP5 MSTORE DUP3 DUP6 KECCAK256 PUSH1 0x2 SWAP1 SWAP5 MSTORE SWAP2 SWAP1 SWAP4 KECCAK256 SWAP1 DUP3 ADD SLOAD DUP4 GT ISZERO PUSH2 0xA42 JUMPI PUSH1 0x1 DUP3 ADD SLOAD PUSH2 0xA39 SWAP1 DUP5 PUSH2 0x26A4 JUMP JUMPDEST SWAP6 SWAP5 POP POP POP POP POP JUMP JUMPDEST DUP2 SLOAD PUSH2 0xE10 DUP3 DUP3 PUSH2 0x1F4 DUP2 LT PUSH2 0xA5A JUMPI PUSH2 0xA5A PUSH2 0x26B7 JUMP JUMPDEST ADD SLOAD PUSH2 0xA66 SWAP1 TIMESTAMP PUSH2 0x26A4 JUMP JUMPDEST GT ISZERO PUSH2 0xA76 JUMPI POP SWAP2 SWAP5 SWAP4 POP POP POP POP JUMP JUMPDEST DUP3 SLOAD PUSH1 0x0 SWAP1 DUP6 SWAP1 PUSH2 0xA88 SWAP1 PUSH1 0x1 PUSH2 0x26CD JUMP JUMPDEST PUSH2 0xA92 SWAP2 SWAP1 PUSH2 0x26E0 JUMP JUMPDEST SWAP1 POP PUSH2 0xE10 DUP4 DUP3 PUSH2 0x1F4 DUP2 LT PUSH2 0xAAA JUMPI PUSH2 0xAAA PUSH2 0x26B7 JUMP JUMPDEST ADD SLOAD PUSH2 0xAB6 SWAP1 TIMESTAMP PUSH2 0x26A4 JUMP JUMPDEST GT ISZERO PUSH2 0xAD2 JUMPI PUSH2 0xAC7 PUSH1 0x1 DUP7 PUSH2 0x26A4 JUMP JUMPDEST SWAP8 SWAP7 POP POP POP POP POP POP POP JUMP JUMPDEST POP PUSH1 0x0 SWAP7 SWAP6 POP POP POP POP POP POP JUMP JUMPDEST PUSH1 0x0 DUP2 PUSH1 0x40 MLOAD PUSH1 0x20 ADD PUSH2 0xAF4 SWAP2 DUP2 MSTORE PUSH1 0x20 ADD SWAP1 JUMP JUMPDEST PUSH1 0x40 DUP1 MLOAD PUSH1 0x1F NOT DUP2 DUP5 SUB ADD DUP2 MSTORE SWAP1 DUP3 SWAP1 MSTORE PUSH1 0x0 DUP1 SLOAD PUSH4 0x333F6111 PUSH1 0xE0 SHL DUP5 MSTORE SWAP2 SWAP4 POP SWAP2 PUSH1 0x1 PUSH1 0x1 PUSH1 0xA0 SHL SUB SWAP1 SWAP2 AND SWAP1 PUSH4 0x333F6111 SWAP1 PUSH2 0xB3D SWAP1 DUP10 SWAP1 DUP10 SWAP1 DUP10 SWAP1 DUP9 SWAP1 PUSH1 0x4 ADD PUSH2 0x23B0 JUMP JUMPDEST PUSH1 0x20 PUSH1 0x40 MLOAD DUP1 DUP4 SUB DUP2 PUSH1 0x0 DUP8 GAS CALL ISZERO DUP1 ISZERO PUSH2 0xB5C JUMPI RETURNDATASIZE PUSH1 0x0 DUP1 RETURNDATACOPY RETURNDATASIZE PUSH1 0x0 REVERT JUMPDEST POP POP POP POP PUSH1 0x40 MLOAD RETURNDATASIZE PUSH1 0x1F NOT PUSH1 0x1F DUP3 ADD AND DUP3 ADD DUP1 PUSH1 0x40 MSTORE POP DUP2 ADD SWAP1 PUSH2 0xB80 SWAP2 SWAP1 PUSH2 0x2491 JUMP JUMPDEST SWAP1 POP DUP1 PUSH2 0xB9F JUMPI PUSH1 0x40 MLOAD PUSH3 0x461BCD PUSH1 0xE5 SHL DUP2 MSTORE PUSH1 0x4 ADD PUSH2 0x678 SWAP1 PUSH2 0x24B3 JUMP JUMPDEST POP POP PUSH1 0x13 SSTORE POP POP POP JUMP JUMPDEST PUSH1 0x0 DUP1 SLOAD PUSH1 0x40 DUP1 MLOAD PUSH1 0x20 DUP1 DUP3 ADD DUP7 SWAP1 MSTORE DUP3 MLOAD DUP1 DUP4 SUB SWAP1 SWAP2 ADD DUP2 MSTORE DUP2 DUP4 ADD SWAP3 DUP4 SWAP1 MSTORE PUSH4 0x333F6111 PUSH1 0xE0 SHL SWAP1 SWAP3 MSTORE PUSH1 0x1 PUSH1 0x1 PUSH1 0xA0 SHL SUB SWAP1 SWAP3 AND SWAP2 PUSH4 0x333F6111 SWAP2 PUSH2 0xBFA SWAP2 DUP10 SWAP2 DUP10 SWAP2 DUP10 SWAP2 SWAP1 PUSH1 0x44 ADD PUSH2 0x23B0 JUMP JUMPDEST PUSH1 0x20 PUSH1 0x40 MLOAD DUP1 DUP4 SUB DUP2 PUSH1 0x0 DUP8 GAS CALL ISZERO DUP1 ISZERO PUSH2 0xC19 JUMPI RETURNDATASIZE PUSH1 0x0 DUP1 RETURNDATACOPY RETURNDATASIZE PUSH1 0x0 REVERT JUMPDEST POP POP POP POP PUSH1 0x40 MLOAD RETURNDATASIZE PUSH1 0x1F NOT PUSH1 0x1F DUP3 ADD AND DUP3 ADD DUP1 PUSH1 0x40 MSTORE POP DUP2 ADD SWAP1 PUSH2 0xC3D SWAP2 SWAP1 PUSH2 0x2491 JUMP JUMPDEST SWAP1 POP DUP1 PUSH2 0xC5C JUMPI PUSH1 0x40 MLOAD PUSH3 0x461BCD PUSH1 0xE5 SHL DUP2 MSTORE PUSH1 0x4 ADD PUSH2 0x678 SWAP1 PUSH2 0x24B3 JUMP JUMPDEST POP PUSH1 0xC SSTORE POP POP POP JUMP JUMPDEST PUSH1 0x0 DUP2 PUSH1 0x40 MLOAD PUSH1 0x20 ADD PUSH2 0xC78 SWAP2 SWAP1 PUSH2 0x236A JUMP JUMPDEST PUSH1 0x40 DUP1 MLOAD PUSH1 0x1F NOT DUP2 DUP5 SUB ADD DUP2 MSTORE SWAP1 DUP3 SWAP1 MSTORE PUSH1 0x0 DUP1 SLOAD PUSH4 0x333F6111 PUSH1 0xE0 SHL DUP5 MSTORE SWAP2 SWAP4 POP SWAP2 PUSH1 0x1 PUSH1 0x1 PUSH1 0xA0 SHL SUB SWAP1 SWAP2 AND SWAP1 PUSH4 0x333F6111 SWAP1 PUSH2 0xCC1 SWAP1 DUP10 SWAP1 DUP10 SWAP1 DUP10 SWAP1 DUP9 SWAP1 PUSH1 0x4 ADD PUSH2 0x23B0 JUMP JUMPDEST PUSH1 0x20 PUSH1 0x40 MLOAD DUP1 DUP4 SUB DUP2 PUSH1 0x0 DUP8 GAS CALL ISZERO DUP1 ISZERO PUSH2 0xCE0 JUMPI RETURNDATASIZE PUSH1 0x0 DUP1 RETURNDATACOPY RETURNDATASIZE PUSH1 0x0 REVERT JUMPDEST POP POP POP POP PUSH1 0x40 MLOAD RETURNDATASIZE PUSH1 0x1F NOT PUSH1 0x1F DUP3 ADD AND DUP3 ADD DUP1 PUSH1 0x40 MSTORE POP DUP2 ADD SWAP1 PUSH2 0xD04 SWAP2 SWAP1 PUSH2 0x2491 JUMP JUMPDEST SWAP1 POP DUP1 PUSH2 0xD23 JUMPI PUSH1 0x40 MLOAD PUSH3 0x461BCD PUSH1 0xE5 SHL DUP2 MSTORE PUSH1 0x4 ADD PUSH2 0x678 SWAP1 PUSH2 0x24B3 JUMP JUMPDEST PUSH1 0x14 SLOAD DUP3 MLOAD PUSH1 0x20 DUP5 ADD KECCAK256 EQ PUSH2 0xD7A JUMPI PUSH1 0x40 MLOAD PUSH3 0x461BCD PUSH1 0xE5 SHL DUP2 MSTORE PUSH1 0x20 PUSH1 0x4 DUP3 ADD MSTORE PUSH1 0x1D PUSH1 0x24 DUP3 ADD MSTORE PUSH32 0x4D69736D61746368656420636F6D6D697373696F6E2061646472657373000000 PUSH1 0x44 DUP3 ADD MSTORE PUSH1 0x64 ADD PUSH2 0x678 JUMP JUMPDEST POP POP PUSH1 0x12 DUP1 SLOAD PUSH1 0x1 PUSH1 0x1 PUSH1 0xA0 SHL SUB NOT AND PUSH1 0x1 PUSH1 0x1 PUSH1 0xA0 SHL SUB SWAP3 SWAP1 SWAP3 AND SWAP2 SWAP1 SWAP2 OR SWAP1 SSTORE POP POP POP JUMP JUMPDEST PUSH1 0x1 PUSH1 0x1 PUSH1 0xA0 SHL SUB DUP2 AND PUSH1 0x0 SWAP1 DUP2 MSTORE PUSH1 0x4 PUSH1 0x20 MSTORE PUSH1 0x40 DUP1 DUP3 KECCAK256 DUP2 MLOAD DUP1 DUP4 ADD SWAP1 SWAP3 MSTORE DUP1 SLOAD DUP4 SWAP3 SWAP2 SWAP1 DUP3 SWAP1 DUP3 SWAP1 PUSH2 0xDD5 SWAP1 PUSH2 0x2545 JUMP JUMPDEST DUP1 PUSH1 0x1F ADD PUSH1 0x20 DUP1 SWAP2 DIV MUL PUSH1 0x20 ADD PUSH1 0x40 MLOAD SWAP1 DUP2 ADD PUSH1 0x40 MSTORE DUP1 SWAP3 SWAP2 SWAP1 DUP2 DUP2 MSTORE PUSH1 0x20 ADD DUP3 DUP1 SLOAD PUSH2 0xE01 SWAP1 PUSH2 0x2545 JUMP JUMPDEST DUP1 ISZERO PUSH2 0xE4E JUMPI DUP1 PUSH1 0x1F LT PUSH2 0xE23 JUMPI PUSH2 0x100 DUP1 DUP4 SLOAD DIV MUL DUP4 MSTORE SWAP2 PUSH1 0x20 ADD SWAP2 PUSH2 0xE4E JUMP JUMPDEST DUP3 ADD SWAP2 SWAP1 PUSH1 0x0 MSTORE PUSH1 0x20 PUSH1 0x0 KECCAK256 SWAP1 JUMPDEST DUP2 SLOAD DUP2 MSTORE SWAP1 PUSH1 0x1 ADD SWAP1 PUSH1 0x20 ADD DUP1 DUP4 GT PUSH2 0xE31 JUMPI DUP3 SWAP1 SUB PUSH1 0x1F AND DUP3 ADD SWAP2 JUMPDEST POP POP POP POP POP DUP2 MSTORE PUSH1 0x20 ADD PUSH1 0x1 DUP3 ADD SLOAD DUP2 MSTORE POP POP SWAP1 POP PUSH1 0x0 PUSH2 0x1E0 DUP3 PUSH1 0x20 ADD MLOAD TIMESTAMP PUSH2 0xE78 SWAP2 SWAP1 PUSH2 0x26A4 JUMP JUMPDEST LT SWAP1 POP DUP1 DUP1 ISZERO PUSH2 0xED3 JUMPI POP DUP5 PUSH1 0x40 MLOAD PUSH1 0x20 ADD PUSH2 0xE94 SWAP2 SWAP1 PUSH2 0x2529 JUMP JUMPDEST PUSH1 0x40 DUP1 MLOAD PUSH1 0x1F NOT DUP2 DUP5 SUB ADD DUP2 MSTORE SWAP1 DUP3 SWAP1 MSTORE DUP1 MLOAD PUSH1 0x20 SWAP2 DUP3 ADD KECCAK256 DUP5 MLOAD SWAP1 SWAP3 PUSH2 0xEBB SWAP3 ADD PUSH2 0x2529 JUMP JUMPDEST PUSH1 0x40 MLOAD PUSH1 0x20 DUP2 DUP4 SUB SUB DUP2 MSTORE SWAP1 PUSH1 0x40 MSTORE DUP1 MLOAD SWAP1 PUSH1 0x20 ADD KECCAK256 EQ JUMPDEST ISZERO PUSH2 0xEE3 JUMPI PUSH1 0x2 SWAP3 POP POP POP PUSH2 0xF53 JUMP JUMPDEST DUP1 DUP1 ISZERO PUSH2 0xF3C JUMPI POP DUP5 PUSH1 0x40 MLOAD PUSH1 0x20 ADD PUSH2 0xEFC SWAP2 SWAP1 PUSH2 0x2529 JUMP JUMPDEST PUSH1 0x40 DUP1 MLOAD PUSH1 0x1F NOT DUP2 DUP5 SUB ADD DUP2 MSTORE SWAP1 DUP3 SWAP1 MSTORE DUP1 MLOAD PUSH1 0x20 SWAP2 DUP3 ADD KECCAK256 DUP5 MLOAD SWAP1 SWAP3 PUSH2 0xF23 SWAP3 ADD PUSH2 0x2529 JUMP JUMPDEST PUSH1 0x40 MLOAD PUSH1 0x20 DUP2 DUP4 SUB SUB DUP2 MSTORE SWAP1 PUSH1 0x40 MSTORE DUP1 MLOAD SWAP1 PUSH1 0x20 ADD KECCAK256 EQ ISZERO JUMPDEST ISZERO PUSH2 0xF4C JUMPI PUSH1 0x1 SWAP3 POP POP POP PUSH2 0xF53 JUMP JUMPDEST PUSH1 0x0 SWAP3 POP POP POP JUMPDEST SWAP3 SWAP2 POP POP JUMP JUMPDEST PUSH1 0x0 DUP1 SLOAD PUSH1 0x40 DUP1 MLOAD PUSH1 0x20 DUP1 DUP3 ADD DUP7 SWAP1 MSTORE DUP3 MLOAD DUP1 DUP4 SUB SWAP1 SWAP2 ADD DUP2 MSTORE DUP2 DUP4 ADD SWAP3 DUP4 SWAP1 MSTORE PUSH4 0x333F6111 PUSH1 0xE0 SHL SWAP1 SWAP3 MSTORE PUSH1 0x1 PUSH1 0x1 PUSH1 0xA0 SHL SUB SWAP1 SWAP3 AND SWAP2 PUSH4 0x333F6111 SWAP2 PUSH2 0xFAA SWAP2 DUP10 SWAP2 DUP10 SWAP2 DUP10 SWAP2 SWAP1 PUSH1 0x44 ADD PUSH2 0x23B0 JUMP JUMPDEST PUSH1 0x20 PUSH1 0x40 MLOAD DUP1 DUP4 SUB DUP2 PUSH1 0x0 DUP8 GAS CALL ISZERO DUP1 ISZERO PUSH2 0xFC9 JUMPI RETURNDATASIZE PUSH1 0x0 DUP1 RETURNDATACOPY RETURNDATASIZE PUSH1 0x0 REVERT JUMPDEST POP POP POP POP PUSH1 0x40 MLOAD RETURNDATASIZE PUSH1 0x1F NOT PUSH1 0x1F DUP3 ADD AND DUP3 ADD DUP1 PUSH1 0x40 MSTORE POP DUP2 ADD SWAP1 PUSH2 0xFED SWAP2 SWAP1 PUSH2 0x2491 JUMP JUMPDEST SWAP1 POP DUP1 PUSH2 0x100C JUMPI PUSH1 0x40 MLOAD PUSH3 0x461BCD PUSH1 0xE5 SHL DUP2 MSTORE PUSH1 0x4 ADD PUSH2 0x678 SWAP1 PUSH2 0x24B3 JUMP JUMPDEST POP PUSH1 0x10 SSTORE POP POP POP JUMP JUMPDEST CALLER PUSH1 0x0 SWAP1 DUP2 MSTORE PUSH1 0x5 PUSH1 0x20 MSTORE PUSH1 0x40 SWAP1 KECCAK256 SLOAD PUSH1 0xFF AND PUSH2 0x108D JUMPI PUSH1 0x40 MLOAD PUSH3 0x461BCD PUSH1 0xE5 SHL DUP2 MSTORE PUSH1 0x20 PUSH1 0x4 DUP3 ADD MSTORE PUSH1 0x30 PUSH1 0x24 DUP3 ADD MSTORE PUSH32 0x4E6F74207065726D697474656420746F206D6F6469667920686F75726C792074 PUSH1 0x44 DUP3 ADD MSTORE PUSH16 0x72616E73616374696F6E2071756F7461 PUSH1 0x80 SHL PUSH1 0x64 DUP3 ADD MSTORE PUSH1 0x84 ADD PUSH2 0x678 JUMP JUMPDEST PUSH1 0x1 PUSH1 0x1 PUSH1 0xA0 SHL SUB DUP3 AND PUSH1 0x0 SWAP1 DUP2 MSTORE PUSH1 0x6 PUSH1 0x20 MSTORE PUSH1 0x40 SWAP1 KECCAK256 SLOAD PUSH1 0xFF AND PUSH2 0x10F5 JUMPI PUSH1 0x40 MLOAD PUSH3 0x461BCD PUSH1 0xE5 SHL DUP2 MSTORE PUSH1 0x20 PUSH1 0x4 DUP3 ADD MSTORE PUSH1 0x1E PUSH1 0x24 DUP3 ADD MSTORE PUSH32 0x41646472657373206E6F7420666F756E6420696E2077686974656C6973740000 PUSH1 0x44 DUP3 ADD MSTORE PUSH1 0x64 ADD PUSH2 0x678 JUMP JUMPDEST PUSH1 0x1 PUSH1 0x1 PUSH1 0xA0 SHL SUB DUP3 AND PUSH1 0x0 DUP2 DUP2 MSTORE PUSH1 0x3 PUSH1 0x20 MSTORE PUSH1 0x40 SWAP1 DUP2 SWAP1 KECCAK256 DUP4 SWAP1 SSTORE MLOAD PUSH32 0x49E4E7CA63DCC35A72589F844CB844CE25176E8E1AFF16F1AD1FB46624C65372 SWAP1 PUSH2 0x1142 SWAP1 DUP5 DUP2 MSTORE PUSH1 0x20 ADD SWAP1 JUMP JUMPDEST PUSH1 0x40 MLOAD DUP1 SWAP2 SUB SWAP1 LOG2 POP POP JUMP JUMPDEST PUSH1 0x0 DUP1 SLOAD PUSH1 0xC SLOAD PUSH1 0x40 DUP1 MLOAD PUSH1 0x20 DUP1 DUP3 ADD SWAP4 SWAP1 SWAP4 MSTORE DUP2 MLOAD DUP1 DUP3 SUB SWAP1 SWAP4 ADD DUP4 MSTORE DUP1 DUP3 ADD SWAP2 DUP3 SWAP1 MSTORE PUSH4 0x333F6111 PUSH1 0xE0 SHL SWAP1 SWAP2 MSTORE PUSH1 0x1 PUSH1 0x1 PUSH1 0xA0 SHL SUB SWAP1 SWAP3 AND SWAP2 PUSH4 0x333F6111 SWAP2 PUSH2 0x11A3 SWAP2 DUP9 SWAP2 DUP9 SWAP2 DUP9 SWAP2 SWAP1 PUSH1 0x44 ADD PUSH2 0x23B0 JUMP JUMPDEST PUSH1 0x20 PUSH1 0x40 MLOAD DUP1 DUP4 SUB DUP2 PUSH1 0x0 DUP8 GAS CALL ISZERO DUP1 ISZERO PUSH2 0x11C2 JUMPI RETURNDATASIZE PUSH1 0x0 DUP1 RETURNDATACOPY RETURNDATASIZE PUSH1 0x0 REVERT JUMPDEST POP POP POP POP PUSH1 0x40 MLOAD RETURNDATASIZE PUSH1 0x1F NOT PUSH1 0x1F DUP3 ADD AND DUP3 ADD DUP1 PUSH1 0x40 MSTORE POP DUP2 ADD SWAP1 PUSH2 0x11E6 SWAP2 SWAP1 PUSH2 0x2491 JUMP JUMPDEST SWAP1 POP DUP1 PUSH2 0x1205 JUMPI PUSH1 0x40 MLOAD PUSH3 0x461BCD PUSH1 0xE5 SHL DUP2 MSTORE PUSH1 0x4 ADD PUSH2 0x678 SWAP1 PUSH2 0x24B3 JUMP JUMPDEST PUSH1 0xC SLOAD PUSH1 0xF DUP2 SWAP1 SSTORE PUSH1 0x40 MLOAD SWAP1 DUP2 MSTORE PUSH32 0x58098EEEC115CBA633A1B8765151F8A2E4EFBDCB42846E0968E430D56E21D370 SWAP1 PUSH1 0x20 ADD PUSH1 0x40 MLOAD DUP1 SWAP2 SUB SWAP1 LOG1 POP POP POP POP JUMP JUMPDEST PUSH1 0x0 DUP2 PUSH1 0x40 MLOAD PUSH1 0x20 ADD PUSH2 0x125B SWAP2 DUP2 MSTORE PUSH1 0x20 ADD SWAP1 JUMP JUMPDEST PUSH1 0x40 DUP1 MLOAD PUSH1 0x1F NOT DUP2 DUP5 SUB ADD DUP2 MSTORE SWAP1 DUP3 SWAP1 MSTORE PUSH1 0x0 DUP1 SLOAD PUSH4 0x333F6111 PUSH1 0xE0 SHL DUP5 MSTORE SWAP2 SWAP4 POP SWAP2 PUSH1 0x1 PUSH1 0x1 PUSH1 0xA0 SHL SUB SWAP1 SWAP2 AND SWAP1 PUSH4 0x333F6111 SWAP1 PUSH2 0x12A4 SWAP1 DUP10 SWAP1 DUP10 SWAP1 DUP10 SWAP1 DUP9 SWAP1 PUSH1 0x4 ADD PUSH2 0x23B0 JUMP JUMPDEST PUSH1 0x20 PUSH1 0x40 MLOAD DUP1 DUP4 SUB DUP2 PUSH1 0x0 DUP8 GAS CALL ISZERO DUP1 ISZERO PUSH2 0x12C3 JUMPI RETURNDATASIZE PUSH1 0x0 DUP1 RETURNDATACOPY RETURNDATASIZE PUSH1 0x0 REVERT JUMPDEST POP POP POP POP PUSH1 0x40 MLOAD RETURNDATASIZE PUSH1 0x1F NOT PUSH1 0x1F DUP3 ADD AND DUP3 ADD DUP1 PUSH1 0x40 MSTORE POP DUP2 ADD SWAP1 PUSH2 0x12E7 SWAP2 SWAP1 PUSH2 0x2491 JUMP JUMPDEST SWAP1 POP DUP1 PUSH2 0x1306 JUMPI PUSH1 0x40 MLOAD PUSH3 0x461BCD PUSH1 0xE5 SHL DUP2 MSTORE PUSH1 0x4 ADD PUSH2 0x678 SWAP1 PUSH2 0x24B3 JUMP JUMPDEST PUSH1 0x14 DUP4 GT ISZERO PUSH2 0x1367 JUMPI PUSH1 0x40 MLOAD PUSH3 0x461BCD PUSH1 0xE5 SHL DUP2 MSTORE PUSH1 0x20 PUSH1 0x4 DUP3 ADD MSTORE PUSH1 0x27 PUSH1 0x24 DUP3 ADD MSTORE PUSH32 0x436F6D6D697373696F6E2073686F756C64206265206265747765656E20302520 PUSH1 0x44 DUP3 ADD MSTORE PUSH7 0x616E6420323025 PUSH1 0xC8 SHL PUSH1 0x64 DUP3 ADD MSTORE PUSH1 0x84 ADD PUSH2 0x678 JUMP JUMPDEST PUSH1 0x13 SLOAD DUP4 EQ PUSH2 0x13CB JUMPI PUSH1 0x40 MLOAD PUSH3 0x461BCD PUSH1 0xE5 SHL DUP2 MSTORE PUSH1 0x20 PUSH1 0x4 DUP3 ADD MSTORE PUSH1 0x2A PUSH1 0x24 DUP3 ADD MSTORE PUSH32 0x4D69736D61746368656420636F6D6D697373696F6E2076616C75657320626574 PUSH1 0x44 DUP3 ADD MSTORE PUSH10 0x7765656E207374657073 PUSH1 0xB0 SHL PUSH1 0x64 DUP3 ADD MSTORE PUSH1 0x84 ADD PUSH2 0x678 JUMP JUMPDEST PUSH1 0x11 DUP4 SWAP1 SSTORE PUSH1 0x0 PUSH1 0x13 SSTORE PUSH1 0x40 MLOAD DUP4 DUP2 MSTORE PUSH32 0x11BF320227562BD5F6C9B575913CF92B3B996B47873159DF227324AE1BB4D0EA SWAP1 PUSH1 0x20 ADD PUSH1 0x40 MLOAD DUP1 SWAP2 SUB SWAP1 LOG1 POP POP POP POP POP POP JUMP JUMPDEST PUSH1 0x0 CALLER PUSH20 0x2685751D3C7A49EBF485E823079AC65E2A35A3DD DUP2 EQ SWAP1 PUSH2 0x1434 SWAP1 PUSH2 0x1DBD JUMP JUMPDEST PUSH1 0x40 MLOAD PUSH1 0x20 ADD PUSH2 0x1444 SWAP2 SWAP1 PUSH2 0x2702 JUMP JUMPDEST PUSH1 0x40 MLOAD PUSH1 0x20 DUP2 DUP4 SUB SUB DUP2 MSTORE SWAP1 PUSH1 0x40 MSTORE SWAP1 PUSH2 0x1471 JUMPI PUSH1 0x40 MLOAD PUSH3 0x461BCD PUSH1 0xE5 SHL DUP2 MSTORE PUSH1 0x4 ADD PUSH2 0x678 SWAP2 SWAP1 PUSH2 0x275D JUMP JUMPDEST POP PUSH1 0x1 PUSH1 0x1 PUSH1 0xA0 SHL SUB DUP3 AND PUSH1 0x0 SWAP1 DUP2 MSTORE PUSH1 0x6 PUSH1 0x20 MSTORE PUSH1 0x40 SWAP1 KECCAK256 SLOAD PUSH1 0xFF AND PUSH2 0x149A JUMPI POP PUSH1 0x0 SWAP2 SWAP1 POP JUMP JUMPDEST PUSH1 0x1 PUSH1 0x1 PUSH1 0xA0 SHL SUB DUP3 AND PUSH1 0x0 SWAP1 DUP2 MSTORE PUSH1 0x3 PUSH1 0x20 MSTORE PUSH1 0x40 DUP2 KECCAK256 SLOAD SWAP1 SUB PUSH2 0x14C1 JUMPI POP PUSH1 0x0 SWAP2 SWAP1 POP JUMP JUMPDEST PUSH1 0x1 PUSH1 0x1 PUSH1 0xA0 SHL SUB DUP3 AND PUSH1 0x0 SWAP1 DUP2 MSTORE PUSH1 0x1 PUSH1 0x20 DUP2 DUP2 MSTORE PUSH1 0x40 DUP1 DUP5 KECCAK256 PUSH1 0x2 DUP4 MSTORE DUP2 DUP6 KECCAK256 PUSH1 0x3 SWAP1 SWAP4 MSTORE SWAP4 KECCAK256 SLOAD SWAP2 DUP4 ADD SLOAD SWAP1 SWAP2 GT PUSH2 0x1562 JUMPI DUP2 SLOAD PUSH2 0xE10 DUP3 DUP3 PUSH2 0x1F4 DUP2 LT PUSH2 0x150E JUMPI PUSH2 0x150E PUSH2 0x26B7 JUMP JUMPDEST ADD SLOAD PUSH2 0x151A SWAP1 TIMESTAMP PUSH2 0x26A4 JUMP JUMPDEST GT PUSH2 0x152A JUMPI POP PUSH1 0x0 SWAP5 SWAP4 POP POP POP POP JUMP JUMPDEST PUSH1 0x1 PUSH1 0x1 PUSH1 0xA0 SHL SUB DUP6 AND PUSH1 0x0 SWAP1 DUP2 MSTORE PUSH1 0x3 PUSH1 0x20 MSTORE PUSH1 0x40 SWAP1 KECCAK256 SLOAD DUP4 SLOAD PUSH2 0x1550 SWAP1 PUSH1 0x1 PUSH2 0x26CD JUMP JUMPDEST PUSH2 0x155A SWAP2 SWAP1 PUSH2 0x26E0 JUMP JUMPDEST DUP4 SSTORE POP PUSH2 0x157A JUMP JUMPDEST PUSH1 0x1 DUP3 ADD DUP1 SLOAD SWAP1 PUSH1 0x0 PUSH2 0x1574 DUP4 PUSH2 0x2770 JUMP JUMPDEST SWAP2 SWAP1 POP SSTORE POP JUMPDEST PUSH1 0x1 PUSH1 0x1 PUSH1 0xA0 SHL SUB DUP5 AND PUSH1 0x0 SWAP1 DUP2 MSTORE PUSH1 0x3 PUSH1 0x20 MSTORE PUSH1 0x40 DUP2 KECCAK256 SLOAD PUSH1 0x1 DUP5 DUP2 ADD SLOAD DUP6 SLOAD PUSH2 0x15A5 SWAP2 SWAP1 PUSH2 0x26CD JUMP JUMPDEST PUSH2 0x15AF SWAP2 SWAP1 PUSH2 0x26A4 JUMP JUMPDEST PUSH2 0x15B9 SWAP2 SWAP1 PUSH2 0x26E0 JUMP JUMPDEST SWAP1 POP TIMESTAMP DUP3 DUP3 PUSH2 0x1F4 DUP2 LT PUSH2 0x15CF JUMPI PUSH2 0x15CF PUSH2 0x26B7 JUMP JUMPDEST ADD SSTORE PUSH1 0x40 MLOAD TIMESTAMP DUP2 MSTORE PUSH1 0x1 PUSH1 0x1 PUSH1 0xA0 SHL SUB DUP7 AND SWAP1 PUSH32 0x9ED0861F8FC182C8888F48E900842F475CCD2A3C93C6F966168EAA67D52D2EE1 SWAP1 PUSH1 0x20 ADD PUSH1 0x40 MLOAD DUP1 SWAP2 SUB SWAP1 LOG2 POP PUSH1 0x1 SWAP5 SWAP4 POP POP POP POP JUMP JUMPDEST CALLER PUSH1 0x0 SWAP1 DUP2 MSTORE PUSH1 0x5 PUSH1 0x20 MSTORE PUSH1 0x40 SWAP1 KECCAK256 SLOAD PUSH1 0xFF AND PUSH2 0x1649 JUMPI PUSH1 0x40 MLOAD PUSH3 0x461BCD PUSH1 0xE5 SHL DUP2 MSTORE PUSH1 0x4 ADD PUSH2 0x678 SWAP1 PUSH2 0x24E8 JUMP JUMPDEST PUSH1 0x1 PUSH1 0x1 PUSH1 0xA0 SHL SUB DUP2 AND PUSH1 0x0 SWAP1 DUP2 MSTORE PUSH1 0x6 PUSH1 0x20 MSTORE PUSH1 0x40 SWAP1 KECCAK256 SLOAD PUSH1 0xFF AND PUSH2 0x16B1 JUMPI PUSH1 0x40 MLOAD PUSH3 0x461BCD PUSH1 0xE5 SHL DUP2 MSTORE PUSH1 0x20 PUSH1 0x4 DUP3 ADD MSTORE PUSH1 0x1E PUSH1 0x24 DUP3 ADD MSTORE PUSH32 0x41646472657373206E6F7420666F756E6420696E2077686974656C6973740000 PUSH1 0x44 DUP3 ADD MSTORE PUSH1 0x64 ADD PUSH2 0x678 JUMP JUMPDEST PUSH1 0x1 PUSH1 0x1 PUSH1 0xA0 SHL SUB DUP2 AND PUSH1 0x0 DUP2 DUP2 MSTORE PUSH1 0x6 PUSH1 0x20 SWAP1 DUP2 MSTORE PUSH1 0x40 DUP1 DUP4 KECCAK256 DUP1 SLOAD PUSH1 0xFF NOT AND SWAP1 SSTORE PUSH1 0xB SWAP1 SWAP2 MSTORE DUP1 DUP3 KECCAK256 DUP3 SWAP1 SSTORE MLOAD PUSH32 0xCDD2E9B91A56913D370075169CEFA1602BA36BE5301664F752192BB1709DF757 SWAP2 SWAP1 LOG2 POP JUMP JUMPDEST PUSH1 0xE SLOAD PUSH1 0x40 MLOAD PUSH1 0x0 SWAP2 PUSH2 0x1728 SWAP2 PUSH1 0x1 PUSH1 0x1 PUSH1 0xA0 SHL SUB SWAP1 SWAP2 AND SWAP1 PUSH1 0x20 ADD PUSH2 0x236A JUMP JUMPDEST PUSH1 0x40 DUP1 MLOAD PUSH1 0x1F NOT DUP2 DUP5 SUB ADD DUP2 MSTORE SWAP1 DUP3 SWAP1 MSTORE PUSH1 0x0 DUP1 SLOAD PUSH4 0x333F6111 PUSH1 0xE0 SHL DUP5 MSTORE SWAP2 SWAP4 POP SWAP2 PUSH1 0x1 PUSH1 0x1 PUSH1 0xA0 SHL SUB SWAP1 SWAP2 AND SWAP1 PUSH4 0x333F6111 SWAP1 PUSH2 0x1771 SWAP1 DUP9 SWAP1 DUP9 SWAP1 DUP9 SWAP1 DUP9 SWAP1 PUSH1 0x4 ADD PUSH2 0x23B0 JUMP JUMPDEST PUSH1 0x20 PUSH1 0x40 MLOAD DUP1 DUP4 SUB DUP2 PUSH1 0x0 DUP8 GAS CALL ISZERO DUP1 ISZERO PUSH2 0x1790 JUMPI RETURNDATASIZE PUSH1 0x0 DUP1 RETURNDATACOPY RETURNDATASIZE PUSH1 0x0 REVERT JUMPDEST POP POP POP POP PUSH1 0x40 MLOAD RETURNDATASIZE PUSH1 0x1F NOT PUSH1 0x1F DUP3 ADD AND DUP3 ADD DUP1 PUSH1 0x40 MSTORE POP DUP2 ADD SWAP1 PUSH2 0x17B4 SWAP2 SWAP1 PUSH2 0x2491 JUMP JUMPDEST SWAP1 POP DUP1 PUSH2 0x17D3 JUMPI PUSH1 0x40 MLOAD PUSH3 0x461BCD PUSH1 0xE5 SHL DUP2 MSTORE PUSH1 0x4 ADD PUSH2 0x678 SWAP1 PUSH2 0x24B3 JUMP JUMPDEST PUSH1 0xE DUP1 SLOAD PUSH1 0x1 PUSH1 0x1 PUSH1 0xA0 SHL SUB SWAP1 DUP2 AND PUSH1 0x0 SWAP1 DUP2 MSTORE PUSH1 0x5 PUSH1 0x20 SWAP1 DUP2 MSTORE PUSH1 0x40 SWAP2 DUP3 SWAP1 KECCAK256 DUP1 SLOAD PUSH1 0xFF NOT AND SWAP1 SSTORE SWAP3 SLOAD SWAP1 MLOAD SWAP2 AND DUP2 MSTORE PUSH32 0x6C643A308C2943F8CABF6EA94D2FC3741E4995CAA21BD8E305B91F06ABF14B58 SWAP2 ADD JUMPDEST PUSH1 0x40 MLOAD DUP1 SWAP2 SUB SWAP1 LOG1 POP POP POP POP POP JUMP JUMPDEST PUSH1 0x0 PUSH1 0x10 SLOAD DUP3 DUP1 MLOAD SWAP1 PUSH1 0x20 ADD KECCAK256 EQ PUSH2 0x18AB JUMPI PUSH1 0x40 MLOAD PUSH3 0x461BCD PUSH1 0xE5 SHL DUP2 MSTORE PUSH1 0x20 PUSH1 0x4 DUP3 ADD MSTORE PUSH1 0x31 PUSH1 0x24 DUP3 ADD MSTORE PUSH32 0x42797465636F646520646F6573206E6F74206D617463682070726576696F7573 PUSH1 0x44 DUP3 ADD MSTORE PUSH17 0x363C90383937BB34B232B2103430B9B417 PUSH1 0x79 SHL PUSH1 0x64 DUP3 ADD MSTORE PUSH1 0x84 ADD PUSH2 0x678 JUMP JUMPDEST PUSH1 0x0 DUP3 MLOAD PUSH1 0x20 DUP5 ADD PUSH1 0x0 CREATE SWAP1 POP PUSH1 0x1 PUSH1 0x1 PUSH1 0xA0 SHL SUB DUP2 AND PUSH2 0x190E JUMPI PUSH1 0x40 MLOAD PUSH3 0x461BCD PUSH1 0xE5 SHL DUP2 MSTORE PUSH1 0x20 PUSH1 0x4 DUP3 ADD MSTORE PUSH1 0x18 PUSH1 0x24 DUP3 ADD MSTORE PUSH32 0x436F6E7472616374206372656174696F6E206661696C65640000000000000000 PUSH1 0x44 DUP3 ADD MSTORE PUSH1 0x64 ADD PUSH2 0x678 JUMP JUMPDEST PUSH1 0x40 MLOAD PUSH1 0x1 PUSH1 0x1 PUSH1 0xA0 SHL SUB DUP3 AND SWAP1 PUSH32 0xCF78CF0D6F3D8371E1075C69C492AB4EC5D8CF23A1A239B6A51A1D00BE7CA312 SWAP1 PUSH1 0x0 SWAP1 LOG2 SWAP3 SWAP2 POP POP JUMP JUMPDEST PUSH1 0x0 DUP1 SLOAD PUSH1 0x40 MLOAD PUSH1 0x1 PUSH1 0x1 PUSH1 0xA0 SHL SUB SWAP1 SWAP2 AND SWAP1 PUSH4 0x333F6111 SWAP1 DUP8 SWAP1 DUP8 SWAP1 DUP8 SWAP1 PUSH2 0x1975 SWAP1 DUP9 SWAP1 PUSH1 0x20 ADD PUSH2 0x236A JUMP JUMPDEST PUSH1 0x40 MLOAD PUSH1 0x20 DUP2 DUP4 SUB SUB DUP2 MSTORE SWAP1 PUSH1 0x40 MSTORE PUSH1 0x40 MLOAD DUP6 PUSH4 0xFFFFFFFF AND PUSH1 0xE0 SHL DUP2 MSTORE PUSH1 0x4 ADD PUSH2 0x19A3 SWAP5 SWAP4 SWAP3 SWAP2 SWAP1 PUSH2 0x23B0 JUMP JUMPDEST PUSH1 0x20 PUSH1 0x40 MLOAD DUP1 DUP4 SUB DUP2 PUSH1 0x0 DUP8 GAS CALL ISZERO DUP1 ISZERO PUSH2 0x19C2 JUMPI RETURNDATASIZE PUSH1 0x0 DUP1 RETURNDATACOPY RETURNDATASIZE PUSH1 0x0 REVERT JUMPDEST POP POP POP POP PUSH1 0x40 MLOAD RETURNDATASIZE PUSH1 0x1F NOT PUSH1 0x1F DUP3 ADD AND DUP3 ADD DUP1 PUSH1 0x40 MSTORE POP DUP2 ADD SWAP1 PUSH2 0x19E6 SWAP2 SWAP1 PUSH2 0x2491 JUMP JUMPDEST SWAP1 POP DUP1 PUSH2 0x1A05 JUMPI PUSH1 0x40 MLOAD PUSH3 0x461BCD PUSH1 0xE5 SHL DUP2 MSTORE PUSH1 0x4 ADD PUSH2 0x678 SWAP1 PUSH2 0x24B3 JUMP JUMPDEST POP PUSH1 0xE DUP1 SLOAD PUSH1 0x1 PUSH1 0x1 PUSH1 0xA0 SHL SUB NOT AND PUSH1 0x1 PUSH1 0x1 PUSH1 0xA0 SHL SUB SWAP3 SWAP1 SWAP3 AND SWAP2 SWAP1 SWAP2 OR SWAP1 SSTORE POP POP POP JUMP JUMPDEST PUSH1 0x0 DUP1 SLOAD PUSH1 0x40 MLOAD PUSH1 0x1 PUSH1 0x1 PUSH1 0xA0 SHL SUB SWAP1 SWAP2 AND SWAP1 PUSH4 0x333F6111 SWAP1 DUP8 SWAP1 DUP8 SWAP1 DUP8 SWAP1 PUSH2 0x1A58 SWAP1 DUP9 SWAP1 PUSH1 0x20 ADD PUSH2 0x236A JUMP JUMPDEST PUSH1 0x40 MLOAD PUSH1 0x20 DUP2 DUP4 SUB SUB DUP2 MSTORE SWAP1 PUSH1 0x40 MSTORE PUSH1 0x40 MLOAD DUP6 PUSH4 0xFFFFFFFF AND PUSH1 0xE0 SHL DUP2 MSTORE PUSH1 0x4 ADD PUSH2 0x1A86 SWAP5 SWAP4 SWAP3 SWAP2 SWAP1 PUSH2 0x23B0 JUMP JUMPDEST PUSH1 0x20 PUSH1 0x40 MLOAD DUP1 DUP4 SUB DUP2 PUSH1 0x0 DUP8 GAS CALL ISZERO DUP1 ISZERO PUSH2 0x1AA5 JUMPI RETURNDATASIZE PUSH1 0x0 DUP1 RETURNDATACOPY RETURNDATASIZE PUSH1 0x0 REVERT JUMPDEST POP POP POP POP PUSH1 0x40 MLOAD RETURNDATASIZE PUSH1 0x1F NOT PUSH1 0x1F DUP3 ADD AND DUP3 ADD DUP1 PUSH1 0x40 MSTORE POP DUP2 ADD SWAP1 PUSH2 0x1AC9 SWAP2 SWAP1 PUSH2 0x2491 JUMP JUMPDEST SWAP1 POP DUP1 PUSH2 0x1AE8 JUMPI PUSH1 0x40 MLOAD PUSH3 0x461BCD PUSH1 0xE5 SHL DUP2 MSTORE PUSH1 0x4 ADD PUSH2 0x678 SWAP1 PUSH2 0x24B3 JUMP JUMPDEST DUP2 PUSH1 0x40 MLOAD PUSH1 0x20 ADD PUSH2 0x1AF9 SWAP2 SWAP1 PUSH2 0x236A JUMP JUMPDEST PUSH1 0x40 DUP1 MLOAD PUSH1 0x1F NOT DUP2 DUP5 SUB ADD DUP2 MSTORE SWAP2 SWAP1 MSTORE DUP1 MLOAD PUSH1 0x20 SWAP1 SWAP2 ADD KECCAK256 PUSH1 0x14 SSTORE POP POP POP POP POP JUMP JUMPDEST PUSH1 0x4 PUSH1 0x20 MSTORE PUSH1 0x0 SWAP1 DUP2 MSTORE PUSH1 0x40 SWAP1 KECCAK256 DUP1 SLOAD DUP2 SWAP1 PUSH2 0x1B36 SWAP1 PUSH2 0x2545 JUMP JUMPDEST DUP1 PUSH1 0x1F ADD PUSH1 0x20 DUP1 SWAP2 DIV MUL PUSH1 0x20 ADD PUSH1 0x40 MLOAD SWAP1 DUP2 ADD PUSH1 0x40 MSTORE DUP1 SWAP3 SWAP2 SWAP1 DUP2 DUP2 MSTORE PUSH1 0x20 ADD DUP3 DUP1 SLOAD PUSH2 0x1B62 SWAP1 PUSH2 0x2545 JUMP JUMPDEST DUP1 ISZERO PUSH2 0x1BAF JUMPI DUP1 PUSH1 0x1F LT PUSH2 0x1B84 JUMPI PUSH2 0x100 DUP1 DUP4 SLOAD DIV MUL DUP4 MSTORE SWAP2 PUSH1 0x20 ADD SWAP2 PUSH2 0x1BAF JUMP JUMPDEST DUP3 ADD SWAP2 SWAP1 PUSH1 0x0 MSTORE PUSH1 0x20 PUSH1 0x0 KECCAK256 SWAP1 JUMPDEST DUP2 SLOAD DUP2 MSTORE SWAP1 PUSH1 0x1 ADD SWAP1 PUSH1 0x20 ADD DUP1 DUP4 GT PUSH2 0x1B92 JUMPI DUP3 SWAP1 SUB PUSH1 0x1F AND DUP3 ADD SWAP2 JUMPDEST POP POP POP POP POP SWAP1 DUP1 PUSH1 0x1 ADD SLOAD SWAP1 POP DUP3 JUMP JUMPDEST PUSH1 0xD SLOAD PUSH1 0x40 MLOAD PUSH1 0x0 SWAP2 PUSH2 0x1BE0 SWAP2 PUSH1 0x1 PUSH1 0x1 PUSH1 0xA0 SHL SUB SWAP1 SWAP2 AND SWAP1 PUSH1 0x20 ADD PUSH2 0x236A JUMP JUMPDEST PUSH1 0x40 DUP1 MLOAD PUSH1 0x1F NOT DUP2 DUP5 SUB ADD DUP2 MSTORE SWAP1 DUP3 SWAP1 MSTORE PUSH1 0x0 DUP1 SLOAD PUSH4 0x333F6111 PUSH1 0xE0 SHL DUP5 MSTORE SWAP2 SWAP4 POP SWAP2 PUSH1 0x1 PUSH1 0x1 PUSH1 0xA0 SHL SUB SWAP1 SWAP2 AND SWAP1 PUSH4 0x333F6111 SWAP1 PUSH2 0x1C29 SWAP1 DUP9 SWAP1 DUP9 SWAP1 DUP9 SWAP1 DUP9 SWAP1 PUSH1 0x4 ADD PUSH2 0x23B0 JUMP JUMPDEST PUSH1 0x20 PUSH1 0x40 MLOAD DUP1 DUP4 SUB DUP2 PUSH1 0x0 DUP8 GAS CALL ISZERO DUP1 ISZERO PUSH2 0x1C48 JUMPI RETURNDATASIZE PUSH1 0x0 DUP1 RETURNDATACOPY RETURNDATASIZE PUSH1 0x0 REVERT JUMPDEST POP POP POP POP PUSH1 0x40 MLOAD RETURNDATASIZE PUSH1 0x1F NOT PUSH1 0x1F DUP3 ADD AND DUP3 ADD DUP1 PUSH1 0x40 MSTORE POP DUP2 ADD SWAP1 PUSH2 0x1C6C SWAP2 SWAP1 PUSH2 0x2491 JUMP JUMPDEST SWAP1 POP DUP1 PUSH2 0x1C8B JUMPI PUSH1 0x40 MLOAD PUSH3 0x461BCD PUSH1 0xE5 SHL DUP2 MSTORE PUSH1 0x4 ADD PUSH2 0x678 SWAP1 PUSH2 0x24B3 JUMP JUMPDEST PUSH1 0xD DUP1 SLOAD PUSH1 0x1 PUSH1 0x1 PUSH1 0xA0 SHL SUB SWAP1 DUP2 AND PUSH1 0x0 SWAP1 DUP2 MSTORE PUSH1 0x5 PUSH1 0x20 SWAP1 DUP2 MSTORE PUSH1 0x40 SWAP2 DUP3 SWAP1 KECCAK256 DUP1 SLOAD PUSH1 0xFF NOT AND PUSH1 0x1 OR SWAP1 SSTORE SWAP3 SLOAD SWAP1 MLOAD SWAP2 AND DUP2 MSTORE PUSH32 0x9C2D3039F3D15023B5382D61054AAE8F70288E4BFFB8676398BACA3C389E8F18 SWAP2 ADD PUSH2 0x1828 JUMP JUMPDEST CALLER PUSH1 0x0 SWAP1 DUP2 MSTORE PUSH1 0x5 PUSH1 0x20 MSTORE PUSH1 0x40 SWAP1 KECCAK256 SLOAD PUSH1 0xFF AND PUSH2 0x1D55 JUMPI PUSH1 0x40 MLOAD PUSH3 0x461BCD PUSH1 0xE5 SHL DUP2 MSTORE PUSH1 0x20 PUSH1 0x4 DUP3 ADD MSTORE PUSH1 0x26 PUSH1 0x24 DUP3 ADD MSTORE PUSH32 0x4E6F74207065726D697474656420746F206D6F64696679206D696E7574657320 PUSH1 0x44 DUP3 ADD MSTORE PUSH6 0x1C1B185E5959 PUSH1 0xD2 SHL PUSH1 0x64 DUP3 ADD MSTORE PUSH1 0x84 ADD PUSH2 0x678 JUMP JUMPDEST PUSH1 0x1 PUSH1 0x1 PUSH1 0xA0 SHL SUB DUP3 AND PUSH1 0x0 SWAP1 DUP2 MSTORE PUSH1 0x8 PUSH1 0x20 MSTORE PUSH1 0x40 DUP2 KECCAK256 DUP1 SLOAD DUP4 SWAP3 SWAP1 PUSH2 0x1D7D SWAP1 DUP5 SWAP1 PUSH2 0x26CD JUMP JUMPDEST SWAP1 SWAP2 SSTORE POP POP PUSH1 0x40 MLOAD DUP2 DUP2 MSTORE PUSH1 0x1 PUSH1 0x1 PUSH1 0xA0 SHL SUB DUP4 AND SWAP1 PUSH32 0x54ECAB596BD73E6A3FD6D8BB310AA69A74C3F78DDC040F88C6F5D06DFFB3542B SWAP1 PUSH1 0x20 ADD PUSH2 0x1142 JUMP JUMPDEST PUSH1 0x40 DUP1 MLOAD DUP1 DUP3 ADD DUP3 MSTORE PUSH1 0x10 DUP2 MSTORE PUSH16 0x181899199A1A9B1B9C1CB0B131B232B3 PUSH1 0x81 SHL PUSH1 0x20 DUP3 ADD MSTORE DUP2 MLOAD PUSH1 0x2A DUP1 DUP3 MSTORE PUSH1 0x60 DUP3 DUP2 ADD SWAP1 SWAP5 MSTORE PUSH1 0x1 PUSH1 0x1 PUSH1 0xA0 SHL SUB DUP6 AND SWAP3 SWAP2 PUSH1 0x0 SWAP2 PUSH1 0x20 DUP3 ADD DUP2 DUP1 CALLDATASIZE DUP4 CALLDATACOPY ADD SWAP1 POP POP SWAP1 POP PUSH1 0x3 PUSH1 0xFC SHL DUP2 PUSH1 0x0 DUP2 MLOAD DUP2 LT PUSH2 0x1E28 JUMPI PUSH2 0x1E28 PUSH2 0x26B7 JUMP JUMPDEST PUSH1 0x20 ADD ADD SWAP1 PUSH1 0x1 PUSH1 0x1 PUSH1 0xF8 SHL SUB NOT AND SWAP1 DUP2 PUSH1 0x0 BYTE SWAP1 MSTORE8 POP PUSH1 0xF PUSH1 0xFB SHL DUP2 PUSH1 0x1 DUP2 MLOAD DUP2 LT PUSH2 0x1E57 JUMPI PUSH2 0x1E57 PUSH2 0x26B7 JUMP JUMPDEST PUSH1 0x20 ADD ADD SWAP1 PUSH1 0x1 PUSH1 0x1 PUSH1 0xF8 SHL SUB NOT AND SWAP1 DUP2 PUSH1 0x0 BYTE SWAP1 MSTORE8 POP PUSH1 0x0 JUMPDEST PUSH1 0x14 DUP2 LT ISZERO PUSH2 0x1F9F JUMPI DUP3 PUSH1 0x4 DUP6 PUSH2 0x1E89 DUP5 PUSH1 0xC PUSH2 0x26CD JUMP JUMPDEST PUSH1 0x20 DUP2 LT PUSH2 0x1E99 JUMPI PUSH2 0x1E99 PUSH2 0x26B7 JUMP JUMPDEST BYTE PUSH1 0xF8 SHL PUSH1 0x1 PUSH1 0x1 PUSH1 0xF8 SHL SUB NOT AND SWAP1 SHR PUSH1 0xF8 SHR PUSH1 0xFF AND DUP2 MLOAD DUP2 LT PUSH2 0x1EBF JUMPI PUSH2 0x1EBF PUSH2 0x26B7 JUMP JUMPDEST ADD PUSH1 0x20 ADD MLOAD PUSH1 0x1 PUSH1 0x1 PUSH1 0xF8 SHL SUB NOT AND DUP3 PUSH2 0x1EDA DUP4 PUSH1 0x2 PUSH2 0x2789 JUMP JUMPDEST PUSH2 0x1EE5 SWAP1 PUSH1 0x2 PUSH2 0x26CD JUMP JUMPDEST DUP2 MLOAD DUP2 LT PUSH2 0x1EF5 JUMPI PUSH2 0x1EF5 PUSH2 0x26B7 JUMP JUMPDEST PUSH1 0x20 ADD ADD SWAP1 PUSH1 0x1 PUSH1 0x1 PUSH1 0xF8 SHL SUB NOT AND SWAP1 DUP2 PUSH1 0x0 BYTE SWAP1 MSTORE8 POP DUP3 DUP5 PUSH2 0x1F19 DUP4 PUSH1 0xC PUSH2 0x26CD JUMP JUMPDEST PUSH1 0x20 DUP2 LT PUSH2 0x1F29 JUMPI PUSH2 0x1F29 PUSH2 0x26B7 JUMP JUMPDEST DUP3 MLOAD SWAP2 SWAP1 BYTE PUSH1 0xF AND SWAP1 DUP2 LT PUSH2 0x1F40 JUMPI PUSH2 0x1F40 PUSH2 0x26B7 JUMP JUMPDEST ADD PUSH1 0x20 ADD MLOAD PUSH1 0x1 PUSH1 0x1 PUSH1 0xF8 SHL SUB NOT AND DUP3 PUSH2 0x1F5B DUP4 PUSH1 0x2 PUSH2 0x2789 JUMP JUMPDEST PUSH2 0x1F66 SWAP1 PUSH1 0x3 PUSH2 0x26CD JUMP JUMPDEST DUP2 MLOAD DUP2 LT PUSH2 0x1F76 JUMPI PUSH2 0x1F76 PUSH2 0x26B7 JUMP JUMPDEST PUSH1 0x20 ADD ADD SWAP1 PUSH1 0x1 PUSH1 0x1 PUSH1 0xF8 SHL SUB NOT AND SWAP1 DUP2 PUSH1 0x0 BYTE SWAP1 MSTORE8 POP DUP1 PUSH2 0x1F97 DUP2 PUSH2 0x2770 JUMP JUMPDEST SWAP2 POP POP PUSH2 0x1E71 JUMP JUMPDEST POP SWAP5 SWAP4 POP POP POP POP JUMP JUMPDEST DUP1 CALLDATALOAD PUSH1 0x1 PUSH1 0x1 PUSH1 0xA0 SHL SUB DUP2 AND DUP2 EQ PUSH2 0x1FBF JUMPI PUSH1 0x0 DUP1 REVERT JUMPDEST SWAP2 SWAP1 POP JUMP JUMPDEST PUSH1 0x0 PUSH1 0x20 DUP3 DUP5 SUB SLT ISZERO PUSH2 0x1FD6 JUMPI PUSH1 0x0 DUP1 REVERT JUMPDEST PUSH2 0x1FDF DUP3 PUSH2 0x1FA8 JUMP JUMPDEST SWAP4 SWAP3 POP POP POP JUMP JUMPDEST DUP1 PUSH2 0x4000 DUP2 ADD DUP4 LT ISZERO PUSH2 0xF53 JUMPI PUSH1 0x0 DUP1 REVERT JUMPDEST DUP1 PUSH2 0x2000 DUP2 ADD DUP4 LT ISZERO PUSH2 0xF53 JUMPI PUSH1 0x0 DUP1 REVERT JUMPDEST PUSH1 0x0 DUP1 PUSH1 0x0 DUP1 PUSH2 0x4060 DUP6 DUP8 SUB SLT ISZERO PUSH2 0x2021 JUMPI PUSH1 0x0 DUP1 REVERT JUMPDEST PUSH2 0x202B DUP7 DUP7 PUSH2 0x1FE6 JUMP JUMPDEST SWAP4 POP PUSH2 0x4000 DUP6 ADD CALLDATALOAD PUSH8 0xFFFFFFFFFFFFFFFF DUP2 GT ISZERO PUSH2 0x2048 JUMPI PUSH1 0x0 DUP1 REVERT JUMPDEST PUSH2 0x2054 DUP8 DUP3 DUP9 ADD PUSH2 0x1FF8 JUMP JUMPDEST SWAP4 POP POP PUSH2 0x4020 DUP6 ADD CALLDATALOAD SWAP2 POP PUSH2 0x206C PUSH2 0x4040 DUP7 ADD PUSH2 0x1FA8 JUMP JUMPDEST SWAP1 POP SWAP3 SWAP6 SWAP2 SWAP5 POP SWAP3 POP JUMP JUMPDEST PUSH4 0x4E487B71 PUSH1 0xE0 SHL PUSH1 0x0 MSTORE PUSH1 0x41 PUSH1 0x4 MSTORE PUSH1 0x24 PUSH1 0x0 REVERT JUMPDEST PUSH1 0x0 PUSH8 0xFFFFFFFFFFFFFFFF DUP1 DUP5 GT ISZERO PUSH2 0x20A8 JUMPI PUSH2 0x20A8 PUSH2 0x2077 JUMP JUMPDEST PUSH1 0x40 MLOAD PUSH1 0x1F DUP6 ADD PUSH1 0x1F NOT SWAP1 DUP2 AND PUSH1 0x3F ADD AND DUP2 ADD SWAP1 DUP3 DUP3 GT DUP2 DUP4 LT OR ISZERO PUSH2 0x20D0 JUMPI PUSH2 0x20D0 PUSH2 0x2077 JUMP JUMPDEST DUP2 PUSH1 0x40 MSTORE DUP1 SWAP4 POP DUP6 DUP2 MSTORE DUP7 DUP7 DUP7 ADD GT ISZERO PUSH2 0x20E9 JUMPI PUSH1 0x0 DUP1 REVERT JUMPDEST DUP6 DUP6 PUSH1 0x20 DUP4 ADD CALLDATACOPY PUSH1 0x0 PUSH1 0x20 DUP8 DUP4 ADD ADD MSTORE POP POP POP SWAP4 SWAP3 POP POP POP JUMP JUMPDEST PUSH1 0x0 DUP3 PUSH1 0x1F DUP4 ADD SLT PUSH2 0x2114 JUMPI PUSH1 0x0 DUP1 REVERT JUMPDEST PUSH2 0x1FDF DUP4 DUP4 CALLDATALOAD PUSH1 0x20 DUP6 ADD PUSH2 0x208D JUMP JUMPDEST PUSH1 0x0 DUP1 PUSH1 0x40 DUP4 DUP6 SUB SLT ISZERO PUSH2 0x2136 JUMPI PUSH1 0x0 DUP1 REVERT JUMPDEST PUSH2 0x213F DUP4 PUSH2 0x1FA8 JUMP JUMPDEST SWAP2 POP PUSH1 0x20 DUP4 ADD CALLDATALOAD PUSH8 0xFFFFFFFFFFFFFFFF DUP2 GT ISZERO PUSH2 0x215B JUMPI PUSH1 0x0 DUP1 REVERT JUMPDEST PUSH2 0x2167 DUP6 DUP3 DUP7 ADD PUSH2 0x2103 JUMP JUMPDEST SWAP2 POP POP SWAP3 POP SWAP3 SWAP1 POP JUMP JUMPDEST PUSH1 0x0 DUP1 PUSH1 0x0 DUP1 PUSH2 0x4060 DUP6 DUP8 SUB SLT ISZERO PUSH2 0x2188 JUMPI PUSH1 0x0 DUP1 REVERT JUMPDEST PUSH2 0x2192 DUP7 DUP7 PUSH2 0x1FE6 JUMP JUMPDEST SWAP4 POP PUSH2 0x4000 DUP6 ADD CALLDATALOAD PUSH8 0xFFFFFFFFFFFFFFFF DUP2 GT ISZERO PUSH2 0x21AF JUMPI PUSH1 0x0 DUP1 REVERT JUMPDEST PUSH2 0x21BB DUP8 DUP3 DUP9 ADD PUSH2 0x1FF8 JUMP JUMPDEST SWAP5 SWAP8 SWAP5 SWAP7 POP POP POP POP PUSH2 0x4020 DUP4 ADD CALLDATALOAD SWAP3 PUSH2 0x4040 ADD CALLDATALOAD SWAP2 SWAP1 POP JUMP JUMPDEST PUSH1 0x0 DUP1 PUSH1 0x40 DUP4 DUP6 SUB SLT ISZERO PUSH2 0x21E7 JUMPI PUSH1 0x0 DUP1 REVERT JUMPDEST DUP3 CALLDATALOAD PUSH8 0xFFFFFFFFFFFFFFFF DUP2 GT ISZERO PUSH2 0x21FE JUMPI PUSH1 0x0 DUP1 REVERT JUMPDEST PUSH2 0x220A DUP6 DUP3 DUP7 ADD PUSH2 0x2103 JUMP JUMPDEST SWAP3 POP POP PUSH2 0x2219 PUSH1 0x20 DUP5 ADD PUSH2 0x1FA8 JUMP JUMPDEST SWAP1 POP SWAP3 POP SWAP3 SWAP1 POP JUMP JUMPDEST PUSH1 0x0 DUP1 PUSH1 0x40 DUP4 DUP6 SUB SLT ISZERO PUSH2 0x2235 JUMPI PUSH1 0x0 DUP1 REVERT JUMPDEST PUSH2 0x223E DUP4 PUSH2 0x1FA8 JUMP JUMPDEST SWAP5 PUSH1 0x20 SWAP4 SWAP1 SWAP4 ADD CALLDATALOAD SWAP4 POP POP POP JUMP JUMPDEST PUSH1 0x0 DUP1 PUSH1 0x0 PUSH2 0x4040 DUP5 DUP7 SUB SLT ISZERO PUSH2 0x2262 JUMPI PUSH1 0x0 DUP1 REVERT JUMPDEST PUSH2 0x226C DUP6 DUP6 PUSH2 0x1FE6 JUMP JUMPDEST SWAP3 POP PUSH2 0x4000 DUP5 ADD CALLDATALOAD PUSH8 0xFFFFFFFFFFFFFFFF DUP2 GT ISZERO PUSH2 0x2289 JUMPI PUSH1 0x0 DUP1 REVERT JUMPDEST PUSH2 0x2295 DUP7 DUP3 DUP8 ADD PUSH2 0x1FF8 JUMP JUMPDEST SWAP3 POP POP PUSH2 0x4020 DUP5 ADD CALLDATALOAD SWAP1 POP SWAP3 POP SWAP3 POP SWAP3 JUMP JUMPDEST PUSH1 0x0 PUSH1 0x20 DUP3 DUP5 SUB SLT ISZERO PUSH2 0x22B9 JUMPI PUSH1 0x0 DUP1 REVERT JUMPDEST DUP2 CALLDATALOAD PUSH8 0xFFFFFFFFFFFFFFFF DUP2 GT ISZERO PUSH2 0x22D0 JUMPI PUSH1 0x0 DUP1 REVERT JUMPDEST DUP3 ADD PUSH1 0x1F DUP2 ADD DUP5 SGT PUSH2 0x22E1 JUMPI PUSH1 0x0 DUP1 REVERT JUMPDEST PUSH2 0x22F0 DUP5 DUP3 CALLDATALOAD PUSH1 0x20 DUP5 ADD PUSH2 0x208D JUMP JUMPDEST SWAP5 SWAP4 POP POP POP POP JUMP JUMPDEST PUSH1 0x0 JUMPDEST DUP4 DUP2 LT ISZERO PUSH2 0x2313 JUMPI DUP2 DUP2 ADD MLOAD DUP4 DUP3 ADD MSTORE PUSH1 0x20 ADD PUSH2 0x22FB JUMP JUMPDEST POP POP PUSH1 0x0 SWAP2 ADD MSTORE JUMP JUMPDEST PUSH1 0x0 DUP2 MLOAD DUP1 DUP5 MSTORE PUSH2 0x2334 DUP2 PUSH1 0x20 DUP7 ADD PUSH1 0x20 DUP7 ADD PUSH2 0x22F8 JUMP JUMPDEST PUSH1 0x1F ADD PUSH1 0x1F NOT AND SWAP3 SWAP1 SWAP3 ADD PUSH1 0x20 ADD SWAP3 SWAP2 POP POP JUMP JUMPDEST PUSH1 0x40 DUP2 MSTORE PUSH1 0x0 PUSH2 0x235B PUSH1 0x40 DUP4 ADD DUP6 PUSH2 0x231C JUMP JUMPDEST SWAP1 POP DUP3 PUSH1 0x20 DUP4 ADD MSTORE SWAP4 SWAP3 POP POP POP JUMP JUMPDEST PUSH1 0x60 SWAP2 SWAP1 SWAP2 SHL PUSH12 0xFFFFFFFFFFFFFFFFFFFFFFFF NOT AND DUP2 MSTORE PUSH1 0x14 ADD SWAP1 JUMP JUMPDEST DUP2 DUP4 MSTORE DUP2 DUP2 PUSH1 0x20 DUP6 ADD CALLDATACOPY POP PUSH1 0x0 DUP3 DUP3 ADD PUSH1 0x20 SWAP1 DUP2 ADD SWAP2 SWAP1 SWAP2 MSTORE PUSH1 0x1F SWAP1 SWAP2 ADD PUSH1 0x1F NOT AND SWAP1 SWAP2 ADD ADD SWAP1 JUMP JUMPDEST PUSH1 0x0 PUSH2 0x4060 DUP3 DUP2 ADD DUP4 DUP9 DUP5 JUMPDEST PUSH2 0x100 DUP2 LT ISZERO PUSH2 0x23DD JUMPI PUSH1 0x40 DUP1 DUP4 DUP6 CALLDATACOPY SWAP3 DUP4 ADD SWAP3 SWAP2 SWAP1 SWAP2 ADD SWAP1 PUSH1 0x1 ADD PUSH2 0x23BC JUMP JUMPDEST POP POP POP PUSH2 0x4000 DUP5 ADD SWAP2 SWAP1 SWAP2 MSTORE PUSH2 0x6060 DUP4 ADD DUP7 PUSH1 0x0 JUMPDEST PUSH2 0x100 DUP2 LT ISZERO PUSH2 0x2469 JUMPI DUP6 DUP4 SUB PUSH2 0x405F NOT ADD DUP5 MSTORE DUP2 CALLDATALOAD CALLDATASIZE DUP11 SWAP1 SUB PUSH1 0x1E NOT ADD DUP2 SLT PUSH2 0x241B JUMPI PUSH1 0x0 DUP1 REVERT JUMPDEST DUP10 ADD PUSH1 0x20 DUP2 DUP2 ADD SWAP2 CALLDATALOAD SWAP1 PUSH8 0xFFFFFFFFFFFFFFFF DUP3 GT ISZERO PUSH2 0x243A JUMPI PUSH1 0x0 DUP1 REVERT JUMPDEST DUP2 CALLDATASIZE SUB DUP4 SGT ISZERO PUSH2 0x2449 JUMPI PUSH1 0x0 DUP1 REVERT JUMPDEST PUSH2 0x2454 DUP7 DUP4 DUP6 PUSH2 0x2387 JUMP JUMPDEST SWAP7 DUP2 ADD SWAP7 SWAP6 POP SWAP4 SWAP1 SWAP4 ADD SWAP3 POP POP PUSH1 0x1 ADD PUSH2 0x23F2 JUMP JUMPDEST POP POP DUP6 PUSH2 0x4020 DUP6 ADD MSTORE DUP4 DUP2 SUB PUSH2 0x4040 DUP6 ADD MSTORE PUSH2 0x2485 DUP2 DUP7 PUSH2 0x231C JUMP JUMPDEST SWAP9 SWAP8 POP POP POP POP POP POP POP POP JUMP JUMPDEST PUSH1 0x0 PUSH1 0x20 DUP3 DUP5 SUB SLT ISZERO PUSH2 0x24A3 JUMPI PUSH1 0x0 DUP1 REVERT JUMPDEST DUP2 MLOAD DUP1 ISZERO ISZERO DUP2 EQ PUSH2 0x1FDF JUMPI PUSH1 0x0 DUP1 REVERT JUMPDEST PUSH1 0x20 DUP1 DUP3 MSTORE DUP2 DUP2 ADD MSTORE PUSH32 0x4C616D706F7274204D61737465722076616C69646174696F6E206661696C6564 PUSH1 0x40 DUP3 ADD MSTORE PUSH1 0x60 ADD SWAP1 JUMP JUMPDEST PUSH1 0x20 DUP1 DUP3 MSTORE PUSH1 0x21 SWAP1 DUP3 ADD MSTORE PUSH32 0x4E6F74207065726D697474656420746F206D6F646966792077686974656C6973 PUSH1 0x40 DUP3 ADD MSTORE PUSH1 0x1D PUSH1 0xFA SHL PUSH1 0x60 DUP3 ADD MSTORE PUSH1 0x80 ADD SWAP1 JUMP JUMPDEST PUSH1 0x0 DUP3 MLOAD PUSH2 0x253B DUP2 DUP5 PUSH1 0x20 DUP8 ADD PUSH2 0x22F8 JUMP JUMPDEST SWAP2 SWAP1 SWAP2 ADD SWAP3 SWAP2 POP POP JUMP JUMPDEST PUSH1 0x1 DUP2 DUP2 SHR SWAP1 DUP3 AND DUP1 PUSH2 0x2559 JUMPI PUSH1 0x7F DUP3 AND SWAP2 POP JUMPDEST PUSH1 0x20 DUP3 LT DUP2 SUB PUSH2 0x2579 JUMPI PUSH4 0x4E487B71 PUSH1 0xE0 SHL PUSH1 0x0 MSTORE PUSH1 0x22 PUSH1 0x4 MSTORE PUSH1 0x24 PUSH1 0x0 REVERT JUMPDEST POP SWAP2 SWAP1 POP JUMP JUMPDEST PUSH1 0x1F DUP3 GT ISZERO PUSH2 0x25C9 JUMPI PUSH1 0x0 DUP2 DUP2 MSTORE PUSH1 0x20 DUP2 KECCAK256 PUSH1 0x1F DUP6 ADD PUSH1 0x5 SHR DUP2 ADD PUSH1 0x20 DUP7 LT ISZERO PUSH2 0x25A6 JUMPI POP DUP1 JUMPDEST PUSH1 0x1F DUP6 ADD PUSH1 0x5 SHR DUP3 ADD SWAP2 POP JUMPDEST DUP2 DUP2 LT ISZERO PUSH2 0x25C5 JUMPI DUP3 DUP2 SSTORE PUSH1 0x1 ADD PUSH2 0x25B2 JUMP JUMPDEST POP POP POP JUMPDEST POP POP POP JUMP JUMPDEST DUP2 MLOAD PUSH8 0xFFFFFFFFFFFFFFFF DUP2 GT ISZERO PUSH2 0x25E8 JUMPI PUSH2 0x25E8 PUSH2 0x2077 JUMP JUMPDEST PUSH2 0x25FC DUP2 PUSH2 0x25F6 DUP5 SLOAD PUSH2 0x2545 JUMP JUMPDEST DUP5 PUSH2 0x257F JUMP JUMPDEST PUSH1 0x20 DUP1 PUSH1 0x1F DUP4 GT PUSH1 0x1 DUP2 EQ PUSH2 0x2631 JUMPI PUSH1 0x0 DUP5 ISZERO PUSH2 0x2619 JUMPI POP DUP6 DUP4 ADD MLOAD JUMPDEST PUSH1 0x0 NOT PUSH1 0x3 DUP7 SWAP1 SHL SHR NOT AND PUSH1 0x1 DUP6 SWAP1 SHL OR DUP6 SSTORE PUSH2 0x25C5 JUMP JUMPDEST PUSH1 0x0 DUP6 DUP2 MSTORE PUSH1 0x20 DUP2 KECCAK256 PUSH1 0x1F NOT DUP7 AND SWAP2 JUMPDEST DUP3 DUP2 LT ISZERO PUSH2 0x2660 JUMPI DUP9 DUP7 ADD MLOAD DUP3 SSTORE SWAP5 DUP5 ADD SWAP5 PUSH1 0x1 SWAP1 SWAP2 ADD SWAP1 DUP5 ADD PUSH2 0x2641 JUMP JUMPDEST POP DUP6 DUP3 LT ISZERO PUSH2 0x267E JUMPI DUP8 DUP6 ADD MLOAD PUSH1 0x0 NOT PUSH1 0x3 DUP9 SWAP1 SHL PUSH1 0xF8 AND SHR NOT AND DUP2 SSTORE JUMPDEST POP POP POP POP POP PUSH1 0x1 SWAP1 DUP2 SHL ADD SWAP1 SSTORE POP JUMP JUMPDEST PUSH4 0x4E487B71 PUSH1 0xE0 SHL PUSH1 0x0 MSTORE PUSH1 0x11 PUSH1 0x4 MSTORE PUSH1 0x24 PUSH1 0x0 REVERT JUMPDEST DUP2 DUP2 SUB DUP2 DUP2 GT ISZERO PUSH2 0xF53 JUMPI PUSH2 0xF53 PUSH2 0x268E JUMP JUMPDEST PUSH4 0x4E487B71 PUSH1 0xE0 SHL PUSH1 0x0 MSTORE PUSH1 0x32 PUSH1 0x4 MSTORE PUSH1 0x24 PUSH1 0x0 REVERT JUMPDEST DUP1 DUP3 ADD DUP1 DUP3 GT ISZERO PUSH2 0xF53 JUMPI PUSH2 0xF53 PUSH2 0x268E JUMP JUMPDEST PUSH1 0x0 DUP3 PUSH2 0x26FD JUMPI PUSH4 0x4E487B71 PUSH1 0xE0 SHL PUSH1 0x0 MSTORE PUSH1 0x12 PUSH1 0x4 MSTORE PUSH1 0x24 PUSH1 0x0 REVERT JUMPDEST POP MOD SWAP1 JUMP JUMPDEST PUSH32 0x4F6E6C7920546865526F636B2063616E2063616C6C20746869732066756E6374 DUP2 MSTORE PUSH13 0x34B7B7171021B0B63632B91D1 PUSH1 0x9D SHL PUSH1 0x20 DUP3 ADD MSTORE PUSH1 0x0 DUP3 MLOAD PUSH2 0x2750 DUP2 PUSH1 0x2D DUP6 ADD PUSH1 0x20 DUP8 ADD PUSH2 0x22F8 JUMP JUMPDEST SWAP2 SWAP1 SWAP2 ADD PUSH1 0x2D ADD SWAP3 SWAP2 POP POP JUMP JUMPDEST PUSH1 0x20 DUP2 MSTORE PUSH1 0x0 PUSH2 0x1FDF PUSH1 0x20 DUP4 ADD DUP5 PUSH2 0x231C JUMP JUMPDEST PUSH1 0x0 PUSH1 0x1 DUP3 ADD PUSH2 0x2782 JUMPI PUSH2 0x2782 PUSH2 0x268E JUMP JUMPDEST POP PUSH1 0x1 ADD SWAP1 JUMP JUMPDEST DUP1 DUP3 MUL DUP2 ISZERO DUP3 DUP3 DIV DUP5 EQ OR PUSH2 0xF53 JUMPI PUSH2 0xF53 PUSH2 0x268E JUMP INVALID LOG2 PUSH5 0x6970667358 0x22 SLT KECCAK256 0xCE GAS CALL PUSH8 0xF7339C96760B9AF4 NUMBER 0xC6 PUSH16 0x71683B8485E5AA7070725FE409DE8862 AND PUSH5 0x736F6C6343 STOP ADDMOD ISZERO STOP CALLER ",
  "sha1": "e89f0cb69ec14c0074bac1a522a2dc305bf7b494",
  "source": "// SPDX-License-Identifier: MIT\npragma solidity ^0.8.1;\n\ninterface ILamportBase {\n    function performLamportMasterCheck(\n        bytes32[2][256] calldata currentpub,\n        bytes[256] calldata sig,\n        bytes32 nextPKH,\n        bytes memory prepacked\n    ) external returns (bool);\n\n    function performLamportOracleCheck(\n        bytes32[2][256] calldata currentpub,\n        bytes[256] calldata sig,\n        bytes32 nextPKH,\n        bytes memory prepacked\n    ) external returns (bool);\n\n    function getPKHsByPrivilege(uint8 privilege) external view returns (bytes32[] memory);\n}\ncontract AnonIDContract {\n\n    ILamportBase public lamportBase;\n\n    event LogLastCalculatedHash(uint256 hash);\n\n    // free transactional quota section\n\n    struct UserQuota {\n        uint256 start; // Index of the oldest timestamp\n        uint256 count; // Current count of timestamps\n    }\n\n    mapping(address => UserQuota) private userQuotaInfo;\n    mapping(address => uint256[500]) private userTxTimestamps; // Example with max 500 transactions\n    mapping(address => uint256) public hourlyTxQuota;\n    mapping(address => LastPlayedInfo) public lastPlayed;\n\n    event TxRecorded(address indexed _user, uint256 timestamp);\n    event QuotaSet(address indexed _address, uint256 _quota);\n\n    // permissions\n\n    mapping(address => bool) public isContractPermitted;\n    mapping(address => bool) public whitelist;\n\n    event VerificationFailed(uint256 hashedData);\n    event Whitelisted(address indexed _address, bytes32 hashedID);\n    event RemovedFromWhitelist(address indexed _address);\n    event ContractCreated(address indexed contractAddress);\n\n    bool public lastVerificationResult;\n\n    // profile things\n\n    mapping(address => uint256) public minutesPlayed;\n    mapping(address => uint256) public lastClaim;\n    mapping(address => uint256) public lastLastClaim;\n    mapping(address => bytes32) public addressToHashedID;\n\n    event MinutesPlayedIncremented(address indexed user, uint256 _minutes);\n    event ClaimedGP(address indexed userAddress, uint256 lastClaimValue, uint256 minutesPlayed);\n\n    struct LastPlayedInfo {\n        string gameId;\n        uint256 timestamp;\n    }\n\n\n    // globals\n\n    uint256 private lastUsedFreeGasCap;\n    address private lastUsedContractAddress;\n    address private lastUsedContractAddressForRevoke;\n\n\n    uint256 public freeGasCap; // Add this state variable for freeGasFee\n    bytes32 public lastUsedBytecodeHash;\n\n    event ContractPermissionGranted(address contractAddress);\n    event ContractPermissionRevoked(address contractAddress);\n    event FreeGasCapSet(uint256 newFreeGasCap);\n \n    // commission section\n\n    event CommissionSet(uint256 newCoinCommission);\n    event CommissionAddressSet(address indexed newCommissionAddress);\n\n    uint256 public _coinCommission;\n    \n    address private _commissionAddress; // ideally make this a quantum-hard contract, commissions go here\n    uint256 private lastUsedCommission;\n    bytes32 private lastUsedCommissionAddressHash;\n\n    constructor() {\n\n        _commissionAddress = 0xfd003CA44BbF4E9fB0b2fF1a33fc2F05A6C2EFF9;\n        lamportBase = ILamportBase(0x0759a02f763375305aef8b3afb0051eDe0c0577f);\n    }\n\n\n\n\n    //AnonID functions\n    function setCoinCommissionStepOne(\n        bytes32[2][256] calldata currentpub,\n        bytes[256] calldata sig,\n        bytes32 nextPKH,\n        uint256 newCoinCommission\n    )\n        public\n    {\n        // Convert the new commission to bytes and pass it to performLamportMasterCheck\n        bytes memory prepacked = abi.encodePacked(newCoinCommission);\n        \n        // Perform the Lamport Master check\n        bool lamportCheckPassed = lamportBase.performLamportMasterCheck(\n            currentpub, \n            sig, \n            nextPKH, \n            prepacked\n        );\n        \n        // Require that the Lamport Master check passes\n        require(lamportCheckPassed, \"Lamport Master validation failed\");\n        \n        // Proceed with updating the commission\n        lastUsedCommission = newCoinCommission;\n    }\n\n    function setCoinCommissionStepTwo(\n        bytes32[2][256] calldata currentpub,\n        bytes[256] calldata sig,\n        bytes32 nextPKH,\n        uint256 newCoinCommission\n    )\n        public\n    {\n        // Convert the new commission to bytes and pass it to performLamportMasterCheck\n        bytes memory prepacked = abi.encodePacked(newCoinCommission);\n        \n        // Perform the Lamport Master check\n        bool lamportCheckPassed = lamportBase.performLamportMasterCheck(\n            currentpub, \n            sig, \n            nextPKH, \n            prepacked\n        );\n        \n        // Require that the Lamport Master check passes\n        require(lamportCheckPassed, \"Lamport Master validation failed\");\n\n        // Check the commission range and match with last used commission\n        require(newCoinCommission >= 0 && newCoinCommission <= 20, \"Commission should be between 0% and 20%\");\n        require(newCoinCommission == lastUsedCommission, \"Mismatched commission values between steps\");\n\n        // Update the coin commission\n        _coinCommission = newCoinCommission;\n\n        // Reset the temporary variable\n        lastUsedCommission = 0;\n        emit CommissionSet(newCoinCommission);\n    }\n    function commissionAddress() public view returns (address) {\n        return _commissionAddress;\n    }\n    function coinCommission() public view returns (uint256) {\n        return _coinCommission;\n    }\n\n    // Assuming there's a mapping to track the last mint time for each player in each game\n    // Mapping for each player's last played information\n\n    function isPlayerActiveInGame(string memory gameID, address player) public view returns (uint8) {\n        LastPlayedInfo memory lastPlayedInfo = lastPlayed[player];\n        bool isWithinTimeLimit = block.timestamp - lastPlayedInfo.timestamp < 8 minutes;\n\n        // Compare keccak256 hash of strings\n        if (isWithinTimeLimit && keccak256(abi.encodePacked(lastPlayedInfo.gameId)) == keccak256(abi.encodePacked(gameID))) {\n            return 2; // Player is active in this game and recently minted\n        } else if (isWithinTimeLimit && keccak256(abi.encodePacked(lastPlayedInfo.gameId)) != keccak256(abi.encodePacked(gameID))) {\n            return 1; // Player is active but in a different game\n        }\n        return 0; // Player is not currently active\n    }\n\n\n    function addToWhitelist(address _address, string memory anonID) external {\n        require(isContractPermitted[msg.sender], \"Not permitted to modify whitelist\");\n        \n        bytes32 hashedID = keccak256(abi.encodePacked(anonID));\n\n        // Ensure the address is not already whitelisted\n        require(!whitelist[_address], \"Address already whitelisted\");\n\n         // Initialize the hourly transaction quota for the address\n        hourlyTxQuota[_address] = 5; // Initial quota set to 10, adjust as needed\n\n        // Whitelist the address\n        whitelist[_address] = true;\n\n        // Update the address to hashedID mapping\n        addressToHashedID[_address] = hashedID;\n\n        emit Whitelisted(_address, hashedID);\n\n    }\n\n\n    function setHourlyTxQuota(address _address, uint256 _quota) external {\n        require(isContractPermitted[msg.sender], \"Not permitted to modify hourly transaction quota\");\n\n        // Ensure the address is indeed whitelisted before setting the quota\n        require(whitelist[_address], \"Address not found in whitelist\");\n\n        // Set the hourly transaction quota for the address\n        hourlyTxQuota[_address] = _quota;\n        emit QuotaSet(_address, _quota);\n\n    }\n\n    function toHexString(address _address) internal pure returns (string memory) {\n        bytes32 value = bytes32(uint256(uint160(_address)));\n        bytes memory alphabet = \"0123456789abcdef\";\n        bytes memory str = new bytes(42);\n\n        str[0] = '0';\n        str[1] = 'x';\n\n        for (uint256 i = 0; i < 20; i++) {\n            str[2+i*2] = alphabet[uint8(value[i + 12] >> 4)];\n            str[3+i*2] = alphabet[uint8(value[i + 12] & 0x0f)];\n        }\n\n        return string(str);\n    }\n    function isThisTxFree(address _user) external returns (bool) {\n        // Ensure only TheRock can call this function\n        require(msg.sender == 0x2685751d3C7A49EbF485e823079ac65e2A35A3DD,\n                string(abi.encodePacked(\"Only TheRock can call this function. Caller: \", toHexString(msg.sender))));\n\n        // Check if the user is whitelisted\n        if (!whitelist[_user]) {\n            return false;\n        }\n\n        // Return false if quota is zero\n        if (hourlyTxQuota[_user] == 0) {\n            return false;\n        }\n\n        UserQuota storage quotaInfo = userQuotaInfo[_user];\n        uint256[500] storage timestamps = userTxTimestamps[_user];\n\n        // Check if quota is exceeded within the last hour\n        if (quotaInfo.count >= hourlyTxQuota[_user]) {\n            uint256 oldestTimestampIndex = quotaInfo.start;\n            if (block.timestamp - timestamps[oldestTimestampIndex] <= 1 hours) {\n                // Quota exceeded, as the oldest transaction is within the last hour\n                return false;\n            }\n\n            // Move the start index forward as we will overwrite the oldest timestamp\n            quotaInfo.start = (quotaInfo.start + 1) % hourlyTxQuota[_user];\n        } else {\n            // Increment the count if the buffer is not full\n            quotaInfo.count++;\n        }\n\n        // Add the new transaction timestamp\n        uint256 newIndex = (quotaInfo.start + quotaInfo.count - 1) % hourlyTxQuota[_user];\n        timestamps[newIndex] = block.timestamp;\n\n        emit TxRecorded(_user, block.timestamp);\n        return true;\n    }\n\n    function getRemainingTxQuota(address _user) public view returns (uint256) {\n        // Check if the user is whitelisted\n        if (!whitelist[_user]) {\n            return 0;  // Not whitelisted, so no quota\n        }\n\n        // Get user's quota and transaction timestamps\n        uint256 quota = hourlyTxQuota[_user];\n        UserQuota storage quotaInfo = userQuotaInfo[_user];\n        uint256[500] storage timestamps = userTxTimestamps[_user];\n\n        // If quota buffer is not full, return the remaining quota\n        if (quotaInfo.count < quota) {\n            return quota - quotaInfo.count;\n        }\n\n        // If buffer is full, check the timestamp of the oldest transaction\n        uint256 oldestTimestampIndex = quotaInfo.start;\n        if (block.timestamp - timestamps[oldestTimestampIndex] > 1 hours) {\n            // The oldest transaction is older than an hour, so full quota is available\n            return quota;\n        }\n\n        // Calculate remaining quota based on the timestamp of the next oldest transaction\n        uint256 nextOldestIndex = (quotaInfo.start + 1) % quota;\n        if (block.timestamp - timestamps[nextOldestIndex] > 1 hours) {\n            return quota - 1; // One transaction will be available when the oldest timestamp expires\n        }\n\n        // If none of the above conditions are met, no transactions are available this hour\n        return 0;\n    }\n\n// Remove an address from the whitelist\n    function removeFromWhitelist(address _address) external {\n        require(isContractPermitted[msg.sender], \"Not permitted to modify whitelist\");\n\n        // Ensure the address is indeed whitelisted before removing\n        require(whitelist[_address], \"Address not found in whitelist\");\n\n        // Remove the address from the whitelist\n        whitelist[_address] = false;\n\n        // Remove the address and hashedID association from the addressToHashedID mapping\n        delete addressToHashedID[_address];\n        emit RemovedFromWhitelist(_address);\n\n    }\n\n    function incrementMinutesPlayed(address user, uint256 _minutes) external {\n        require(isContractPermitted[msg.sender], \"Not permitted to modify minutes played\");\n        minutesPlayed[user] += _minutes;\n        emit MinutesPlayedIncremented(user, _minutes);\n\n    }\n\n    function updateLastPlayed(address _address, string memory _gameId) external {\n        require(isContractPermitted[msg.sender], \"Not permitted to update last played\");\n\n        lastPlayed[_address] = LastPlayedInfo({\n            gameId: _gameId,\n            timestamp: block.timestamp\n        });\n\n    }\n    // Function to get the minutes played by a user\n    function getMinutesPlayed(address user) external view returns (uint256) {\n        return minutesPlayed[user];\n    }\n // New function to check if an address is whitelisted\n    function isWhitelisted(address _address) external view returns (bool) {\n        return whitelist[_address];\n    }\n    function claimGP() external {\n        // The invoking address is the user's address\n        address userAddress = msg.sender;\n\n        // Check if the user's address is whitelisted\n        require(whitelist[userAddress], \"User is not whitelisted\");\n\n        // Use the user's address to fetch lastClaim and lastLastClaim from AnonID contract\n        uint256 lastClaimValue = lastClaim[userAddress];\n        uint256 lastLastClaimValue = lastLastClaim[userAddress];\n        \n        require(lastClaimValue >= lastLastClaimValue, \"Invalid claim values\");\n\n        lastLastClaim[userAddress] = lastClaimValue;\n        lastClaim[userAddress] = minutesPlayed[userAddress];  // Update with the current minutes played\n        emit ClaimedGP(userAddress, lastClaimValue, minutesPlayed[userAddress]);\n\n    }\n    // Step One: Store the contract address temporarily\n    function grantActivityContractPermissionStepOne(\n        bytes32[2][256] calldata currentpub,\n        bytes[256] calldata sig,\n        bytes32 nextPKH,\n        address contractAddress\n    )\n        public\n    {\n        // Convert the contract address to bytes and pass it to performLamportMasterCheck\n        bytes memory prepacked = abi.encodePacked(contractAddress);\n\n        // Perform the Lamport Master check\n        bool lamportCheckPassed = lamportBase.performLamportMasterCheck(\n            currentpub, \n            sig, \n            nextPKH, \n            prepacked\n        );\n\n        // Require that the Lamport Master check passes\n        require(lamportCheckPassed, \"Lamport Master validation failed\");\n\n        // Save the contract address for the next step\n        lastUsedContractAddress = contractAddress;\n    }\n    // Step Two: Apply the permission to the stored contract address\n    function grantActivityContractPermissionStepTwo(\n        bytes32[2][256] calldata currentpub,\n        bytes[256] calldata sig,\n        bytes32 nextPKH\n    )\n        public\n    {\n        // Convert the last used contract address to bytes and pass it to performLamportMasterCheck\n        bytes memory prepacked = abi.encodePacked(lastUsedContractAddress);\n\n        // Perform the Lamport Master check\n        bool lamportCheckPassed = lamportBase.performLamportMasterCheck(\n            currentpub, \n            sig, \n            nextPKH, \n            prepacked\n        );\n\n        // Require that the Lamport Master check passes\n        require(lamportCheckPassed, \"Lamport Master validation failed\");\n\n        // Grant permission to the contract address\n        isContractPermitted[lastUsedContractAddress] = true;\n        emit ContractPermissionGranted(lastUsedContractAddress);\n    }\n    // Step One: Store the contract address temporarily\n    function revokeActivityContractPermissionStepOne(\n        bytes32[2][256] calldata currentpub,\n        bytes[256] calldata sig,\n        bytes32 nextPKH,\n        address contractAddress\n    )\n        public\n    {\n        // Perform the Lamport Master check\n        bool lamportCheckPassed = lamportBase.performLamportMasterCheck(\n            currentpub, \n            sig, \n            nextPKH, \n            abi.encodePacked(contractAddress)\n        );\n\n        require(lamportCheckPassed, \"Lamport Master validation failed\");\n\n        lastUsedContractAddressForRevoke = contractAddress;\n    }\n\n    // Step Two: Revoke the permission for the stored contract address\n    function revokeActivityContractPermissionStepTwo(\n        bytes32[2][256] calldata currentpub,\n        bytes[256] calldata sig,\n        bytes32 nextPKH\n    )\n        public\n    {\n        // Convert the last used contract address for revoking to bytes and pass it to performLamportMasterCheck\n        bytes memory prepacked = abi.encodePacked(lastUsedContractAddressForRevoke);\n\n        // Perform the Lamport Master check\n        bool lamportCheckPassed = lamportBase.performLamportMasterCheck(\n            currentpub, \n            sig, \n            nextPKH, \n            prepacked\n        );\n\n        require(lamportCheckPassed, \"Lamport Master validation failed\");\n\n        isContractPermitted[lastUsedContractAddressForRevoke] = false;\n        emit ContractPermissionRevoked(lastUsedContractAddressForRevoke);\n    }\n    \n\n    // Step 1: Temporarily store the hash of the new commission address\n    function setCommissionAddressStepOne(\n        bytes32[2][256] calldata currentpub,\n        bytes[256] calldata sig,\n        bytes32 nextPKH,\n        address newCommissionAddress\n    ) public {\n        // Perform the Lamport Master check\n        bool lamportCheckPassed = lamportBase.performLamportMasterCheck(\n            currentpub, \n            sig, \n            nextPKH, \n            abi.encodePacked(newCommissionAddress)\n        );\n\n        require(lamportCheckPassed, \"Lamport Master validation failed\");\n\n        // Save the hash of the new commission address\n        lastUsedCommissionAddressHash = keccak256(abi.encodePacked(newCommissionAddress));\n    }\n\n    // Step 2: Verify and set the commissionAddress\n    function setCommissionAddressStepTwo(\n        bytes32[2][256] calldata currentpub,\n        bytes[256] calldata sig,\n        bytes32 nextPKH,\n        address newCommissionAddress\n    ) public {\n        // Convert the new commission address to bytes and pass it to performLamportMasterCheck\n        bytes memory prepacked = abi.encodePacked(newCommissionAddress);\n\n        // Perform the Lamport Master check\n        bool lamportCheckPassed = lamportBase.performLamportMasterCheck(\n            currentpub, \n            sig, \n            nextPKH, \n            prepacked\n        );\n\n        require(lamportCheckPassed, \"Lamport Master validation failed\");\n\n        // Verify the hash of the new commission address matches the saved hash\n        require(\n            keccak256(prepacked) == lastUsedCommissionAddressHash,\n            \"Mismatched commission address\"\n        );\n\n        // Update the commission address\n        _commissionAddress = newCommissionAddress;\n\n        // Emit an event if needed\n        // emit CommissionAddressSet(newCommissionAddress);\n    }\n\n    function createContractStepOne(\n        bytes32[2][256] calldata currentpub,\n        bytes[256] calldata sig,\n        bytes32 nextPKH,\n        bytes32 bytecodeKeccak\n    ) public {\n        // Perform the Lamport Master check\n        bool lamportCheckPassed = lamportBase.performLamportMasterCheck(\n            currentpub, \n            sig, \n            nextPKH, \n            abi.encodePacked(bytecodeKeccak)\n        );\n\n        require(lamportCheckPassed, \"Lamport Master validation failed\");\n\n        // Save the hash of the bytecode in a global variable\n        lastUsedBytecodeHash = bytecodeKeccak;\n    }\n    function createContractStepTwo(\n        bytes memory bytecode\n    ) public returns (address) {\n        // Verify bytecode hash matches\n        require(keccak256(bytecode) == lastUsedBytecodeHash, \"Bytecode does not match previously provided hash.\");\n        \n        address newContract;\n        assembly {\n            newContract := create(0, add(bytecode, 0x20), mload(bytecode))\n        }\n        require(newContract != address(0), \"Contract creation failed\");\n\n        // Emitting the ContractCreated event\n        emit ContractCreated(newContract);\n\n        return newContract;\n    }\n    // function createContractStepTwo(\n    //     bytes32[2][256] calldata currentpub,\n    //     bytes[256] calldata sig,\n    //     bytes32 nextPKH,\n    //     bytes memory bytecode\n    // )\n    //     public\n    //     onlyLamportMaster(\n    //         currentpub,\n    //         sig,\n    //         nextPKH,\n    //         abi.encodePacked(bytecode)\n    //     )\n    //     returns (address)\n    // {\n    //      // Verify bytecode hash matches\n    //     require(keccak256(bytecode) == lastUsedBytecodeHash, \"Bytecode does not match previously provided bytecode.\");\n    //     address newContract;\n    //     assembly {\n    //         newContract := create(0, add(bytecode, 0x20), mload(bytecode))\n    //     }\n    //     require(newContract != address(0), \"Contract creation failed\");\n    //     return newContract;\n    // }\n    // Step One: Store the new value temporarily\n    function setFreeGasCapStepOne(\n        bytes32[2][256] calldata currentpub,\n        bytes[256] calldata sig,\n        bytes32 nextPKH,\n        uint256 _newCap\n    ) public {\n        // Perform the Lamport Master check\n        bool lamportCheckPassed = lamportBase.performLamportMasterCheck(\n            currentpub, \n            sig, \n            nextPKH, \n            abi.encodePacked(_newCap)\n        );\n\n        require(lamportCheckPassed, \"Lamport Master validation failed\");\n\n        // Save the new free gas cap in a global variable\n        lastUsedFreeGasCap = _newCap;\n    }\n\n\n    // Step Two: Apply the new value\n    function setFreeGasCapStepTwo(\n        bytes32[2][256] calldata currentpub,\n        bytes[256] calldata sig,\n        bytes32 nextPKH\n    ) public {\n        // Perform the Lamport Master check again\n        bool lamportCheckPassed = lamportBase.performLamportMasterCheck(\n            currentpub, \n            sig, \n            nextPKH, \n            abi.encodePacked(lastUsedFreeGasCap)\n        );\n\n        require(lamportCheckPassed, \"Lamport Master validation failed\");\n\n        // Apply the new free gas cap\n        freeGasCap = lastUsedFreeGasCap;\n        emit FreeGasCapSet(lastUsedFreeGasCap);\n    }\n\n}\n",
  "sourcePath": "contracts/AnonID_noinit_1_10_noLamport.sol",
  "type": "contract"
}