{
  "abi": [
    {
      "inputs": [],
      "stateMutability": "nonpayable",
      "type": "constructor"
    },
    {
      "inputs": [],
      "name": "minSelfStake",
      "outputs": [
        {
          "internalType": "uint256",
          "name": "",
          "type": "uint256"
        }
      ],
      "stateMutability": "view",
      "type": "function"
    },
    {
      "inputs": [
        {
          "internalType": "uint256",
          "name": "v",
          "type": "uint256"
        }
      ],
      "name": "updateMinSelfStake",
      "outputs": [],
      "stateMutability": "nonpayable",
      "type": "function"
    }
  ],
  "bytecode": "608060405234801561001057600080fd5b50600080546001600160a01b031916331790556101c5806100326000396000f3fe608060405234801561001057600080fd5b50600436106100365760003560e01c8063866c4b171461003b578063c5f530af14610050575b600080fd5b61004e610049366004610176565b61006b565b005b61005960015481565b60405190815260200160405180910390f35b6000546001600160a01b031633146100d85760405162461bcd60e51b815260206004820152602560248201527f4f6e6c7920746865206f776e65722063616e2063616c6c20746869732066756e60448201526431ba34b7b760d91b60648201526084015b60405180910390fd5b69152d02c7e14af68000008110156101245760405162461bcd60e51b815260206004820152600f60248201526e746f6f20736d616c6c2076616c756560881b60448201526064016100cf565b6a084595161401484a0000008111156101715760405162461bcd60e51b815260206004820152600f60248201526e746f6f206c617267652076616c756560881b60448201526064016100cf565b600155565b60006020828403121561018857600080fd5b503591905056fea26469706673582212204de5fe26e1cca711037d300d5582744fd6daf24c487fdde4a3fc4591de39c6c864736f6c63430008150033",
  "bytecodeSha1": "343f5fecbb6d951eba6a7d1cc6d6f31e28e9b57b",
  "compiler": {
    "evm_version": "istanbul",
    "optimizer": {
      "enabled": true,
      "runs": 200
    },
    "version": "0.8.21+commit.d9974bed"
  },
  "contractName": "DummyContract",
  "language": "Solidity",
  "natspec": {
    "kind": "dev",
    "methods": {},
    "version": 1
  },
  "opcodes": "PUSH1 0x80 PUSH1 0x40 MSTORE CALLVALUE DUP1 ISZERO PUSH2 0x10 JUMPI PUSH1 0x0 DUP1 REVERT JUMPDEST POP PUSH1 0x4 CALLDATASIZE LT PUSH2 0x36 JUMPI PUSH1 0x0 CALLDATALOAD PUSH1 0xE0 SHR DUP1 PUSH4 0x866C4B17 EQ PUSH2 0x3B JUMPI DUP1 PUSH4 0xC5F530AF EQ PUSH2 0x50 JUMPI JUMPDEST PUSH1 0x0 DUP1 REVERT JUMPDEST PUSH2 0x4E PUSH2 0x49 CALLDATASIZE PUSH1 0x4 PUSH2 0x176 JUMP JUMPDEST PUSH2 0x6B JUMP JUMPDEST STOP JUMPDEST PUSH2 0x59 PUSH1 0x1 SLOAD DUP2 JUMP JUMPDEST PUSH1 0x40 MLOAD SWAP1 DUP2 MSTORE PUSH1 0x20 ADD PUSH1 0x40 MLOAD DUP1 SWAP2 SUB SWAP1 RETURN JUMPDEST PUSH1 0x0 SLOAD PUSH1 0x1 PUSH1 0x1 PUSH1 0xA0 SHL SUB AND CALLER EQ PUSH2 0xD8 JUMPI PUSH1 0x40 MLOAD PUSH3 0x461BCD PUSH1 0xE5 SHL DUP2 MSTORE PUSH1 0x20 PUSH1 0x4 DUP3 ADD MSTORE PUSH1 0x25 PUSH1 0x24 DUP3 ADD MSTORE PUSH32 0x4F6E6C7920746865206F776E65722063616E2063616C6C20746869732066756E PUSH1 0x44 DUP3 ADD MSTORE PUSH5 0x31BA34B7B7 PUSH1 0xD9 SHL PUSH1 0x64 DUP3 ADD MSTORE PUSH1 0x84 ADD JUMPDEST PUSH1 0x40 MLOAD DUP1 SWAP2 SUB SWAP1 REVERT JUMPDEST PUSH10 0x152D02C7E14AF6800000 DUP2 LT ISZERO PUSH2 0x124 JUMPI PUSH1 0x40 MLOAD PUSH3 0x461BCD PUSH1 0xE5 SHL DUP2 MSTORE PUSH1 0x20 PUSH1 0x4 DUP3 ADD MSTORE PUSH1 0xF PUSH1 0x24 DUP3 ADD MSTORE PUSH15 0x746F6F20736D616C6C2076616C7565 PUSH1 0x88 SHL PUSH1 0x44 DUP3 ADD MSTORE PUSH1 0x64 ADD PUSH2 0xCF JUMP JUMPDEST PUSH11 0x84595161401484A000000 DUP2 GT ISZERO PUSH2 0x171 JUMPI PUSH1 0x40 MLOAD PUSH3 0x461BCD PUSH1 0xE5 SHL DUP2 MSTORE PUSH1 0x20 PUSH1 0x4 DUP3 ADD MSTORE PUSH1 0xF PUSH1 0x24 DUP3 ADD MSTORE PUSH15 0x746F6F206C617267652076616C7565 PUSH1 0x88 SHL PUSH1 0x44 DUP3 ADD MSTORE PUSH1 0x64 ADD PUSH2 0xCF JUMP JUMPDEST PUSH1 0x1 SSTORE JUMP JUMPDEST PUSH1 0x0 PUSH1 0x20 DUP3 DUP5 SUB SLT ISZERO PUSH2 0x188 JUMPI PUSH1 0x0 DUP1 REVERT JUMPDEST POP CALLDATALOAD SWAP2 SWAP1 POP JUMP INVALID LOG2 PUSH5 0x6970667358 0x22 SLT KECCAK256 0x4D 0xE5 INVALID 0x26 0xE1 0xCC 0xA7 GT SUB PUSH30 0x300D5582744FD6DAF24C487FDDE4A3FC4591DE39C6C864736F6C63430008 ISZERO STOP CALLER ",
  "sha1": "40fe32a800d1f7392036dabc440505c28abc2906",
  "source": "// SPDX-License-Identifier: MIT\npragma solidity ^0.8.0;\n\ncontract DummyContract {\n    address private _owner;\n    uint256 public minSelfStake;\n\n    constructor() {\n        _owner = msg.sender;\n    }\n\n    modifier onlyOwner() {\n        require(msg.sender == _owner, \"Only the owner can call this function\");\n        _;\n    }\n\n    function updateMinSelfStake(uint256 v) external onlyOwner {\n        require(v >= 100000 * 1e18, \"too small value\");\n        require(v <= 10000000 * 1e18, \"too large value\");\n        minSelfStake = v;\n    }\n}",
  "sourcePath": "contracts/DummyContract.sol",
  "type": "contract"
}