{
  "abi": [
    {
      "inputs": [],
      "stateMutability": "nonpayable",
      "type": "constructor"
    },
    {
      "anonymous": false,
      "inputs": [
        {
          "indexed": false,
          "internalType": "address",
          "name": "mintContractAddress",
          "type": "address"
        }
      ],
      "name": "MintContractUpdated",
      "type": "event"
    },
    {
      "anonymous": false,
      "inputs": [
        {
          "indexed": false,
          "internalType": "address",
          "name": "playerDatabaseAddress",
          "type": "address"
        }
      ],
      "name": "PlayerDatabaseAddressUpdated",
      "type": "event"
    },
    {
      "inputs": [],
      "name": "MAX_MINT_TIME",
      "outputs": [
        {
          "internalType": "uint256",
          "name": "",
          "type": "uint256"
        }
      ],
      "stateMutability": "view",
      "type": "function"
    },
    {
      "inputs": [],
      "name": "MAX_PLAYERS_PER_SUBMISSION",
      "outputs": [
        {
          "internalType": "uint256",
          "name": "",
          "type": "uint256"
        }
      ],
      "stateMutability": "view",
      "type": "function"
    },
    {
      "inputs": [],
      "name": "MINT_INTERVAL",
      "outputs": [
        {
          "internalType": "uint256",
          "name": "",
          "type": "uint256"
        }
      ],
      "stateMutability": "view",
      "type": "function"
    },
    {
      "inputs": [],
      "name": "TOKENS_PER_SECOND",
      "outputs": [
        {
          "internalType": "uint256",
          "name": "",
          "type": "uint256"
        }
      ],
      "stateMutability": "view",
      "type": "function"
    },
    {
      "inputs": [
        {
          "internalType": "bytes32",
          "name": "",
          "type": "bytes32"
        },
        {
          "internalType": "uint256",
          "name": "",
          "type": "uint256"
        }
      ],
      "name": "hashToPlayerList",
      "outputs": [
        {
          "internalType": "string",
          "name": "",
          "type": "string"
        }
      ],
      "stateMutability": "view",
      "type": "function"
    },
    {
      "inputs": [
        {
          "internalType": "address",
          "name": "_address",
          "type": "address"
        }
      ],
      "name": "isValidator",
      "outputs": [
        {
          "internalType": "bool",
          "name": "",
          "type": "bool"
        }
      ],
      "stateMutability": "view",
      "type": "function"
    },
    {
      "inputs": [],
      "name": "lamportBase",
      "outputs": [
        {
          "internalType": "contract ILamportBase",
          "name": "",
          "type": "address"
        }
      ],
      "stateMutability": "view",
      "type": "function"
    },
    {
      "inputs": [],
      "name": "lastMintTime",
      "outputs": [
        {
          "internalType": "uint256",
          "name": "",
          "type": "uint256"
        }
      ],
      "stateMutability": "view",
      "type": "function"
    },
    {
      "inputs": [],
      "name": "mintContract",
      "outputs": [
        {
          "internalType": "contract IGP_Mint",
          "name": "",
          "type": "address"
        }
      ],
      "stateMutability": "view",
      "type": "function"
    },
    {
      "inputs": [
        {
          "internalType": "string",
          "name": "",
          "type": "string"
        },
        {
          "internalType": "address",
          "name": "",
          "type": "address"
        }
      ],
      "name": "serverSubmissions",
      "outputs": [
        {
          "internalType": "bytes32",
          "name": "playerListHash",
          "type": "bytes32"
        },
        {
          "internalType": "bool",
          "name": "canMint",
          "type": "bool"
        }
      ],
      "stateMutability": "view",
      "type": "function"
    },
    {
      "inputs": [
        {
          "internalType": "bytes32",
          "name": "playerListHash",
          "type": "bytes32"
        },
        {
          "internalType": "bytes32[2][256]",
          "name": "currentpub",
          "type": "bytes32[2][256]"
        },
        {
          "internalType": "bytes[256]",
          "name": "sig",
          "type": "bytes[256]"
        },
        {
          "internalType": "bytes32",
          "name": "nextPKH",
          "type": "bytes32"
        }
      ],
      "name": "submitPlayerListStepOne",
      "outputs": [],
      "stateMutability": "nonpayable",
      "type": "function"
    },
    {
      "inputs": [
        {
          "components": [
            {
              "internalType": "string",
              "name": "serverIP",
              "type": "string"
            },
            {
              "internalType": "string[]",
              "name": "playerNames",
              "type": "string[]"
            }
          ],
          "internalType": "struct GameValidator.ServerPlayers[]",
          "name": "serverPlayerLists",
          "type": "tuple[]"
        },
        {
          "internalType": "address",
          "name": "validatorID",
          "type": "address"
        },
        {
          "internalType": "bool",
          "name": "canMintFlag",
          "type": "bool"
        }
      ],
      "name": "submitPlayerListStepTwo",
      "outputs": [],
      "stateMutability": "nonpayable",
      "type": "function"
    },
    {
      "inputs": [
        {
          "internalType": "bytes32[2][256]",
          "name": "currentpub",
          "type": "bytes32[2][256]"
        },
        {
          "internalType": "bytes[256]",
          "name": "sig",
          "type": "bytes[256]"
        },
        {
          "internalType": "bytes32",
          "name": "nextPKH",
          "type": "bytes32"
        },
        {
          "internalType": "address",
          "name": "mintContractAddress",
          "type": "address"
        }
      ],
      "name": "updateMintContractAddressStepOne",
      "outputs": [],
      "stateMutability": "nonpayable",
      "type": "function"
    },
    {
      "inputs": [
        {
          "internalType": "bytes32[2][256]",
          "name": "currentpub",
          "type": "bytes32[2][256]"
        },
        {
          "internalType": "bytes[256]",
          "name": "sig",
          "type": "bytes[256]"
        },
        {
          "internalType": "bytes32",
          "name": "nextPKH",
          "type": "bytes32"
        },
        {
          "internalType": "address",
          "name": "mintContractAddress",
          "type": "address"
        }
      ],
      "name": "updateMintContractAddressStepTwo",
      "outputs": [],
      "stateMutability": "nonpayable",
      "type": "function"
    },
    {
      "inputs": [
        {
          "internalType": "bytes32[2][256]",
          "name": "currentpub",
          "type": "bytes32[2][256]"
        },
        {
          "internalType": "bytes[256]",
          "name": "sig",
          "type": "bytes[256]"
        },
        {
          "internalType": "bytes32",
          "name": "nextPKH",
          "type": "bytes32"
        },
        {
          "internalType": "address",
          "name": "playerDatabaseAddress",
          "type": "address"
        }
      ],
      "name": "updatePlayerDatabaseAddressStepOne",
      "outputs": [],
      "stateMutability": "nonpayable",
      "type": "function"
    },
    {
      "inputs": [
        {
          "internalType": "bytes32[2][256]",
          "name": "currentpub",
          "type": "bytes32[2][256]"
        },
        {
          "internalType": "bytes[256]",
          "name": "sig",
          "type": "bytes[256]"
        },
        {
          "internalType": "bytes32",
          "name": "nextPKH",
          "type": "bytes32"
        },
        {
          "internalType": "address",
          "name": "playerDatabaseAddress",
          "type": "address"
        }
      ],
      "name": "updatePlayerDatabaseAddressStepTwo",
      "outputs": [],
      "stateMutability": "nonpayable",
      "type": "function"
    }
  ],
  "bytecode": "6080604052600b80546001600160a01b031990811673b03a6afd440a2a9db8834f1a6093680f02f1114c17909155600c805490911673dd17d01307f2ff3a18390f3cdc564cec0f4a0a1d17905534801561005857600080fd5b50600080546001600160a01b031990811673b3830ae69ee5962355e84f6bbac274ff337960e517909155600b546001805483166001600160a01b03928316179055600c546002805490931691161790556126e0806100b76000396000f3fe608060405234801561001057600080fd5b50600436106101005760003560e01c806384e7e3d311610097578063d0b6b6db11610066578063d0b6b6db1461023a578063f59cc9781461024d578063f785eb2a14610256578063facd743b1461027657600080fd5b806384e7e3d31461020257806395a743e01461020b5780639d4635201461021e578063bc0e4ade1461022757600080fd5b80635c9c3ed2116100d35780635c9c3ed21461017a57806361803e75146101d45780636b4674eb146101e75780636f1aab4a146101fa57600080fd5b80631e9ad44614610105578063420230601461012757806356bf7b571461013c5780635920b40714610167575b600080fd5b610114670de0b6b3a764000081565b6040519081526020015b60405180910390f35b61013a610135366004611b79565b610299565b005b60005461014f906001600160a01b031681565b6040516001600160a01b03909116815260200161011e565b61013a610175366004611be7565b6103f2565b6101bf610188366004611d34565b8151602081840181018051600482529282019482019490942091909352909152600090815260409020805460019091015460ff1682565b6040805192835290151560208301520161011e565b61013a6101e2366004611b79565b610669565b61013a6101f5366004611b79565b6108da565b610114604081565b61011461012c81565b61013a610219366004611dc1565b610a38565b610114600a5481565b61013a610235366004611b79565b610e61565b60025461014f906001600160a01b031681565b61011461025881565b610269610264366004611f7c565b6110bf565b60405161011e9190611fee565b610289610284366004612008565b611178565b604051901515815260200161011e565b6000816040516020016102ac9190612025565b60408051601f19818403018152908290526000805463333f611160e01b8452919350916001600160a01b039091169063333f6111906102f590899089908990889060040161206b565b6020604051808303816000875af1158015610314573d6000803e3d6000fd5b505050506040513d601f19601f82011682018060405250810190610338919061214b565b9050806103bc5760405162461bcd60e51b815260206004820152604160248201527f417574686f72697a6174696f6e206661696c656420666f722070726f706f736560448201527f6420757064617465206f66204d696e7420636f6e7472616374206164647265736064820152607360f81b608482015260a4015b60405180910390fd5b505033600090815260066020526040902080546001600160a01b0319166001600160a01b03929092169190911790556009555050565b6000836040516020016104059190612168565b60408051808303601f190181529082905280516020909101206000805463b9d57c5f60e01b845260048401839052919350916001600160a01b039091169063b9d57c5f90602401606060405180830381865afa158015610469573d6000803e3d6000fd5b505050506040513d601f19601f8201168201806040525081019061048d919061219f565b6001546040516334a88c5b60e01b8152336004820152919450600093508392506001600160a01b0316906334a88c5b906024016040805180830381865afa1580156104dc573d6000803e3d6000fd5b505050506040513d601f19601f8201168201806040525081019061050091906121da565b915091508183148061051157508083145b61056e5760405162461bcd60e51b815260206004820152602860248201527f43616c6c65722773206f7261636c65206b657920696e64657820646f6573206e6044820152670dee840dac2e8c6d60c31b60648201526084016103b3565b6000546040805160208082018c90528251808303909101815281830192839052634a89d52b60e01b9092526001600160a01b0390921691634a89d52b916105be918b918b918b919060440161206b565b6020604051808303816000875af11580156105dd573d6000803e3d6000fd5b505050506040513d601f19601f82011682018060405250810190610601919061214b565b61064d5760405162461bcd60e51b815260206004820152601b60248201527f4c616d706f7274206f7261636c6520636865636b206661696c6564000000000060448201526064016103b3565b5050336000908152600860205260409020959095555050505050565b60008160405160200161067c9190612025565b60408051808303601f19018152918152336000908152600760205220549091506001600160a01b0383811691161461070e5760405162461bcd60e51b815260206004820152602f60248201527f506c61796572446174616261736520636f6e747261637420616464726573732060448201526e0eae0c8c2e8ca40dad2e6dac2e8c6d608b1b60648201526084016103b3565b6000856040516020016107219190612168565b604051602081830303815290604052805190602001209050806009540361075a5760405162461bcd60e51b81526004016103b3906121fe565b6000805460405163333f611160e01b81526001600160a01b039091169063333f611190610791908a908a908a90899060040161206b565b6020604051808303816000875af11580156107b0573d6000803e3d6000fd5b505050506040513d601f19601f820116820180604052508101906107d4919061214b565b9050806108605760405162461bcd60e51b815260206004820152604e60248201527f417574686f72697a6174696f6e206661696c6564206f6e20636f6e6669726d6160448201527f74696f6e206f6620506c61796572446174616261736520636f6e74726163742060648201526d616464726573732075706461746560901b608482015260a4016103b3565b600180546001600160a01b0319166001600160a01b0386169081179091556040519081527f6c200b5398af2592ba382dbf2a45376bbb22a24cab265709486fa967a5b4203d9060200160405180910390a1505033600090815260076020526040812080546001600160a01b03191690556009555050505050565b6000816040516020016108ed9190612025565b60408051601f19818403018152908290526000805463333f611160e01b8452919350916001600160a01b039091169063333f61119061093690899089908990889060040161206b565b6020604051808303816000875af1158015610955573d6000803e3d6000fd5b505050506040513d601f19601f82011682018060405250810190610979919061214b565b905080610a025760405162461bcd60e51b815260206004820152604b60248201527f417574686f72697a6174696f6e206661696c656420666f722070726f706f736560448201527f6420757064617465206f6620506c61796572446174616261736520636f6e747260648201526a616374206164647265737360a81b608482015260a4016103b3565b505033600090815260076020526040902080546001600160a01b0319166001600160a01b03929092169190911790556009555050565b610a4182611178565b610a995760405162461bcd60e51b8152602060048201526024808201527f43616c6c6572206973206e6f74206120726567697374657265642076616c696460448201526330ba37b960e11b60648201526084016103b3565b606060005b8451811015610b7d5781858281518110610aba57610aba612265565b602002602001015160000151604051602001610ad792919061227b565b604051602081830303815290604052915060005b858281518110610afd57610afd612265565b60200260200101516020015151811015610b745782868381518110610b2457610b24612265565b6020026020010151602001518281518110610b4157610b41612265565b6020026020010151604051602001610b5a92919061227b565b60408051601f198184030181529190529250600101610aeb565b50600101610a9e565b5080516020808301919091206001600160a01b038516600090815260089092526040909120548114610c0c5760405162461bcd60e51b815260206004820152603260248201527f4c697374206861736820646f6573206e6f74206d617463682070726576696f7560448201527139b63c90383937bb34b232b2103430b9b41760711b60648201526084016103b3565b6000805b8651811015610df7576000878281518110610c2d57610c2d612265565b60200260200101516020015151905060408184610c4a91906122c0565b1115610c565750610df7565b610c6081846122c0565b9250606060005b898481518110610c7957610c79612265565b60200260200101516020015151811015610cf057818a8581518110610ca057610ca0612265565b6020026020010151602001518281518110610cbd57610cbd612265565b6020026020010151604051602001610cd692919061227b565b60408051601f198184030181529190529150600101610c67565b508051602082012089518a9085908110610d0c57610d0c612265565b602002602001015160200151600560008381526020019081526020016000209080519060200190610d3e929190611a73565b50610d668a8581518110610d5457610d54612265565b6020026020010151600001518a6111ed565b604051806040016040528082815260200189151581525060048b8681518110610d9157610d91612265565b602002602001015160000151604051610daa91906122d3565b90815260408051602092819003830190206001600160a01b038d16600090815290835220825181559101516001918201805460ff1916911515919091179055939093019250610c10915050565b50600a544290600090610e0a90836122ef565b90506000610e1a61012c84612318565b610e269061012c6122ef565b905061012c8210158015610e3b575061012c81105b15610e5657610e486112d2565b610e5281846122ef565b600a555b505050505050505050565b600081604051602001610e749190612025565b60408051808303601f19018152918152336000908152600660205220549091506001600160a01b03838116911614610efc5760405162461bcd60e51b815260206004820152602560248201527f4d696e7420636f6e7472616374206164647265737320757064617465206d69736044820152640dac2e8c6d60db1b60648201526084016103b3565b600085604051602001610f0f9190612168565b6040516020818303038152906040528051906020012090508060095403610f485760405162461bcd60e51b81526004016103b3906121fe565b6000805460405163333f611160e01b81526001600160a01b039091169063333f611190610f7f908a908a908a90899060040161206b565b6020604051808303816000875af1158015610f9e573d6000803e3d6000fd5b505050506040513d601f19601f82011682018060405250810190610fc2919061214b565b9050806110455760405162461bcd60e51b8152602060048201526044602482018190527f417574686f72697a6174696f6e206661696c6564206f6e20636f6e6669726d61908201527f74696f6e206f66204d696e7420636f6e747261637420616464726573732075706064820152636461746560e01b608482015260a4016103b3565b600280546001600160a01b0319166001600160a01b0386169081179091556040519081527f7814765089fa4d113b377eb0859fd345095a106617367857878087a128595ec49060200160405180910390a1505033600090815260066020526040812080546001600160a01b03191690556009555050505050565b600560205281600052604060002081815481106110db57600080fd5b906000526020600020016000915091505080546110f79061232c565b80601f01602080910402602001604051908101604052809291908181526020018280546111239061232c565b80156111705780601f1061114557610100808354040283529160200191611170565b820191906000526020600020905b81548152906001019060200180831161115357829003601f168201915b505050505081565b60015460405163facd743b60e01b81526001600160a01b038381166004830152600092169063facd743b90602401602060405180830381865afa1580156111c3573d6000803e3d6000fd5b505050506040513d601f19601f820116820180604052508101906111e7919061214b565b92915050565b6000805b60038460405161120191906122d3565b9081526040519081900360200190205481101561127c57826001600160a01b031660038560405161123291906122d3565b9081526020016040518091039020828154811061125157611251612265565b6000918252602090912001546001600160a01b031603611274576001915061127c565b6001016111f1565b50806112cd5760038360405161129291906122d3565b90815260405160209181900382019020805460018101825560009182529190200180546001600160a01b0319166001600160a01b0384161790555b505050565b60015460408051633dc0ff7d60e01b815290516000926001600160a01b031691633dc0ff7d91600480830192869291908290030181865afa15801561131b573d6000803e3d6000fd5b505050506040513d6000823e601f3d908101601f191682016040526113439190810190612366565b905060005b815181101561139557600082828151811061136557611365612265565b60200260200101519050600061137a826113a1565b9050801561138b5761138b81611646565b5050600101611348565b5061139e611821565b50565b6000806003836040516113b491906122d3565b908152604080519182900360209081018320805480830285018301909352828452919083018282801561141057602002820191906000526020600020905b81546001600160a01b031681526001909101906020018083116113f2575b50505050509050600060648251603c6114299190612452565b6114339190612469565b8251909150600090819081906001600160401b0381111561145657611456611c49565b60405190808252806020026020018201604052801561149b57816020015b60408051808201909152600080825260208201528152602001906001900390816114745790505b50905060005b85518110156116265760006004896040516114bc91906122d3565b908152602001604051809103902060008884815181106114de576114de612265565b60200260200101516001600160a01b03166001600160a01b031681526020019081526020016000206000015490506000805b845181101561157c578285828151811061152c5761152c612265565b602002602001015160000151036115745784818151811061154f5761154f612265565b602002602001015160200180518091906115689061247d565b9052506001915061157c565b600101611510565b50806115b657604051806040016040528083815260200160018152508484815181106115aa576115aa612265565b60200260200101819052505b848484815181106115c9576115c9612265565b602002602001015160200151111561161c578383815181106115ed576115ed612265565b602002602001015160200151945083838151811061160d5761160d612265565b60200260200101516000015195505b50506001016114a1565b5083821061163957509095945050505050565b5060009695505050505050565b600081815260056020908152604080832080548251818502810185019093528083529192909190849084015b8282101561171e5783829060005260206000200180546116919061232c565b80601f01602080910402602001604051908101604052809291908181526020018280546116bd9061232c565b801561170a5780601f106116df5761010080835404028352916020019161170a565b820191906000526020600020905b8154815290600101906020018083116116ed57829003601f168201915b505050505081526020019060010190611672565b505050509050600061172f826119c0565b9050600061173b611a39565b905060005b825181101561181a5760006001600160a01b031683828151811061176657611766612265565b60200260200101516001600160a01b0316146118125760025483516001600160a01b039091169063f0dda65c908590849081106117a5576117a5612265565b6020026020010151846040518363ffffffff1660e01b81526004016117df9291906001600160a01b03929092168252602082015260400190565b600060405180830381600087803b1580156117f957600080fd5b505af115801561180d573d6000803e3d6000fd5b505050505b600101611740565b5050505050565b60015460408051633dc0ff7d60e01b815290516000926001600160a01b031691633dc0ff7d91600480830192869291908290030181865afa15801561186a573d6000803e3d6000fd5b505050506040513d6000823e601f3d908101601f191682016040526118929190810190612366565b905060005b81518110156119bc5760008282815181106118b4576118b4612265565b6020026020010151905060006003826040516118d091906122d3565b908152604080519182900360209081018320805480830285018301909352828452919083018282801561192c57602002820191906000526020600020905b81546001600160a01b0316815260019091019060200180831161190e575b5050505050905060005b81518110156119b157600060048460405161195191906122d3565b9081526020016040518091039020600084848151811061197357611973612265565b6020908102919091018101516001600160a01b031682528101919091526040016000206001908101805460ff19169215159290921790915501611936565b505050600101611897565b5050565b600154600a546040516385d8f13d60e01b81526060926001600160a01b0316916385d8f13d916119f4918691600401612496565b600060405180830381865afa158015611a11573d6000803e3d6000fd5b505050506040513d6000823e601f3d908101601f191682016040526111e79190810190612502565b600080600a5442611a4a91906122ef565b9050610258811115611a5b57506102585b611a6d670de0b6b3a764000082612452565b91505090565b828054828255906000526020600020908101928215611ab9579160200282015b82811115611ab95782518290611aa990826125eb565b5091602001919060010190611a93565b50611ac5929150611ac9565b5090565b80821115611ac5576000611add8282611ae6565b50600101611ac9565b508054611af29061232c565b6000825580601f10611b02575050565b601f01602090049060005260206000209081019061139e91905b80821115611ac55760008155600101611b1c565b8061400081018310156111e757600080fd5b8061200081018310156111e757600080fd5b6001600160a01b038116811461139e57600080fd5b8035611b7481611b54565b919050565b6000806000806140608587031215611b9057600080fd5b611b9a8686611b30565b93506140008501356001600160401b03811115611bb657600080fd5b611bc287828801611b42565b9350506140208501359150614040850135611bdc81611b54565b939692955090935050565b6000806000806140608587031215611bfe57600080fd5b84359350611c0f8660208701611b30565b92506140208501356001600160401b03811115611c2b57600080fd5b611c3787828801611b42565b94979396509394614040013593505050565b634e487b7160e01b600052604160045260246000fd5b604080519081016001600160401b0381118282101715611c8157611c81611c49565b60405290565b604051601f8201601f191681016001600160401b0381118282101715611caf57611caf611c49565b604052919050565b60006001600160401b03821115611cd057611cd0611c49565b50601f01601f191660200190565b600082601f830112611cef57600080fd5b8135611d02611cfd82611cb7565b611c87565b818152846020838601011115611d1757600080fd5b816020850160208301376000918101602001919091529392505050565b60008060408385031215611d4757600080fd5b82356001600160401b03811115611d5d57600080fd5b611d6985828601611cde565b9250506020830135611d7a81611b54565b809150509250929050565b60006001600160401b03821115611d9e57611d9e611c49565b5060051b60200190565b801515811461139e57600080fd5b8035611b7481611da8565b600080600060608486031215611dd657600080fd5b6001600160401b038085351115611dec57600080fd5b8435850186601f820112611dff57600080fd5b611e0c611cfd8235611d85565b81358082526020808301929160051b840101891015611e2a57600080fd5b602083015b6020843560051b850101811015611f52578481351115611e4e57600080fd5b803584016040818c03601f19011215611e6657600080fd5b611e6e611c5f565b8660208301351115611e7f57600080fd5b611e918c602080850135850101611cde565b81528660408301351115611ea457600080fd5b6040820135820191508b603f830112611ebc57600080fd5b611ecc611cfd6020840135611d85565b602083810135808352908201919060051b84016040018e1015611eee57600080fd5b604084015b6040602086013560051b860101811015611f33578981351115611f1557600080fd5b611f258f60408335880101611cde565b835260209283019201611ef3565b5080602084015250508085525050602083019250602081019050611e2f565b509550611f659250505060208501611b69565b9150611f7360408501611db6565b90509250925092565b60008060408385031215611f8f57600080fd5b50508035926020909101359150565b60005b83811015611fb9578181015183820152602001611fa1565b50506000910152565b60008151808452611fda816020860160208601611f9e565b601f01601f19169290920160200192915050565b6020815260006120016020830184611fc2565b9392505050565b60006020828403121561201a57600080fd5b813561200181611b54565b60609190911b6bffffffffffffffffffffffff1916815260140190565b81835281816020850137506000828201602090810191909152601f909101601f19169091010190565b60006140608281018388845b61010081101561209857604080838537928301929190910190600101612077565b50505061400084019190915261606083018660005b6101008110156121235785830361405f190184528135368a9003601e190181126120d657600080fd5b890160208181019135906001600160401b038211156120f457600080fd5b81360383131561210357600080fd5b61210e868385612042565b968101969550939093019250506001016120ad565b50508561402085015283810361404085015261213f8186611fc2565b98975050505050505050565b60006020828403121561215d57600080fd5b815161200181611da8565b60008183825b61010081101561218f5760408083853792830192919091019060010161216e565b5050506140008201905092915050565b6000806000606084860312156121b457600080fd5b8351600381106121c357600080fd5b602085015160409095015190969495509392505050565b600080604083850312156121ed57600080fd5b505080516020909101519092909150565b60208082526041908201527f53616d6520504b48207573656420666f7220626f74682073746570733b20757360408201527f652061207365706172617465206b657920666f7220636f6e6669726d6174696f6060820152603760f91b608082015260a00190565b634e487b7160e01b600052603260045260246000fd5b6000835161228d818460208801611f9e565b8351908301906122a1818360208801611f9e565b01949350505050565b634e487b7160e01b600052601160045260246000fd5b808201808211156111e7576111e76122aa565b600082516122e5818460208701611f9e565b9190910192915050565b818103818111156111e7576111e76122aa565b634e487b7160e01b600052601260045260246000fd5b60008261232757612327612302565b500690565b600181811c9082168061234057607f821691505b60208210810361236057634e487b7160e01b600052602260045260246000fd5b50919050565b6000602080838503121561237957600080fd5b82516001600160401b038082111561239057600080fd5b818501915085601f8301126123a457600080fd5b81516123b2611cfd82611d85565b81815260059190911b830184019084810190888311156123d157600080fd5b8585015b83811015612445578051858111156123ed5760008081fd5b8601603f81018b136123ff5760008081fd5b878101516040612411611cfd83611cb7565b8281528d828486010111156124265760008081fd5b612435838c8301848701611f9e565b86525050509186019186016123d5565b5098975050505050505050565b80820281158282048414176111e7576111e76122aa565b60008261247857612478612302565b500490565b60006001820161248f5761248f6122aa565b5060010190565b6000604082016040835280855180835260608501915060608160051b8601019250602080880160005b838110156124ed57605f198887030185526124db868351611fc2565b955093820193908201906001016124bf565b50505050506020929092019290925292915050565b6000602080838503121561251557600080fd5b82516001600160401b0381111561252b57600080fd5b8301601f8101851361253c57600080fd5b805161254a611cfd82611d85565b81815260059190911b8201830190838101908783111561256957600080fd5b928401925b8284101561259057835161258181611b54565b8252928401929084019061256e565b979650505050505050565b601f8211156112cd576000816000526020600020601f850160051c810160208610156125c45750805b601f850160051c820191505b818110156125e3578281556001016125d0565b505050505050565b81516001600160401b0381111561260457612604611c49565b61261881612612845461232c565b8461259b565b602080601f83116001811461264d57600084156126355750858301515b600019600386901b1c1916600185901b1785556125e3565b600085815260208120601f198616915b8281101561267c5788860151825594840194600190910190840161265d565b508582101561269a5787850151600019600388901b60f8161c191681555b5050505050600190811b0190555056fea2646970667358221220e6baf1f3556c354a4b5b90bd3c3258c86830f770e3231f1dc324a523d040a2a264736f6c63430008180033",
  "bytecodeSha1": "8b31765f1f86c05906872eb1f72de01c52ecc8e8",
  "compiler": {
    "evm_version": "istanbul",
    "optimizer": {
      "enabled": true,
      "runs": 200
    },
    "version": "0.8.24+commit.e11b9ed9"
  },
  "contractName": "GameValidator",
  "language": "Solidity",
  "natspec": {
    "kind": "dev",
    "methods": {},
    "version": 1
  },
  "opcodes": "PUSH1 0x80 PUSH1 0x40 MSTORE CALLVALUE DUP1 ISZERO PUSH2 0x10 JUMPI PUSH1 0x0 DUP1 REVERT JUMPDEST POP PUSH1 0x4 CALLDATASIZE LT PUSH2 0x100 JUMPI PUSH1 0x0 CALLDATALOAD PUSH1 0xE0 SHR DUP1 PUSH4 0x84E7E3D3 GT PUSH2 0x97 JUMPI DUP1 PUSH4 0xD0B6B6DB GT PUSH2 0x66 JUMPI DUP1 PUSH4 0xD0B6B6DB EQ PUSH2 0x23A JUMPI DUP1 PUSH4 0xF59CC978 EQ PUSH2 0x24D JUMPI DUP1 PUSH4 0xF785EB2A EQ PUSH2 0x256 JUMPI DUP1 PUSH4 0xFACD743B EQ PUSH2 0x276 JUMPI PUSH1 0x0 DUP1 REVERT JUMPDEST DUP1 PUSH4 0x84E7E3D3 EQ PUSH2 0x202 JUMPI DUP1 PUSH4 0x95A743E0 EQ PUSH2 0x20B JUMPI DUP1 PUSH4 0x9D463520 EQ PUSH2 0x21E JUMPI DUP1 PUSH4 0xBC0E4ADE EQ PUSH2 0x227 JUMPI PUSH1 0x0 DUP1 REVERT JUMPDEST DUP1 PUSH4 0x5C9C3ED2 GT PUSH2 0xD3 JUMPI DUP1 PUSH4 0x5C9C3ED2 EQ PUSH2 0x17A JUMPI DUP1 PUSH4 0x61803E75 EQ PUSH2 0x1D4 JUMPI DUP1 PUSH4 0x6B4674EB EQ PUSH2 0x1E7 JUMPI DUP1 PUSH4 0x6F1AAB4A EQ PUSH2 0x1FA JUMPI PUSH1 0x0 DUP1 REVERT JUMPDEST DUP1 PUSH4 0x1E9AD446 EQ PUSH2 0x105 JUMPI DUP1 PUSH4 0x42023060 EQ PUSH2 0x127 JUMPI DUP1 PUSH4 0x56BF7B57 EQ PUSH2 0x13C JUMPI DUP1 PUSH4 0x5920B407 EQ PUSH2 0x167 JUMPI JUMPDEST PUSH1 0x0 DUP1 REVERT JUMPDEST PUSH2 0x114 PUSH8 0xDE0B6B3A7640000 DUP2 JUMP JUMPDEST PUSH1 0x40 MLOAD SWAP1 DUP2 MSTORE PUSH1 0x20 ADD JUMPDEST PUSH1 0x40 MLOAD DUP1 SWAP2 SUB SWAP1 RETURN JUMPDEST PUSH2 0x13A PUSH2 0x135 CALLDATASIZE PUSH1 0x4 PUSH2 0x1B79 JUMP JUMPDEST PUSH2 0x299 JUMP JUMPDEST STOP JUMPDEST PUSH1 0x0 SLOAD PUSH2 0x14F SWAP1 PUSH1 0x1 PUSH1 0x1 PUSH1 0xA0 SHL SUB AND DUP2 JUMP JUMPDEST PUSH1 0x40 MLOAD PUSH1 0x1 PUSH1 0x1 PUSH1 0xA0 SHL SUB SWAP1 SWAP2 AND DUP2 MSTORE PUSH1 0x20 ADD PUSH2 0x11E JUMP JUMPDEST PUSH2 0x13A PUSH2 0x175 CALLDATASIZE PUSH1 0x4 PUSH2 0x1BE7 JUMP JUMPDEST PUSH2 0x3F2 JUMP JUMPDEST PUSH2 0x1BF PUSH2 0x188 CALLDATASIZE PUSH1 0x4 PUSH2 0x1D34 JUMP JUMPDEST DUP2 MLOAD PUSH1 0x20 DUP2 DUP5 ADD DUP2 ADD DUP1 MLOAD PUSH1 0x4 DUP3 MSTORE SWAP3 DUP3 ADD SWAP5 DUP3 ADD SWAP5 SWAP1 SWAP5 KECCAK256 SWAP2 SWAP1 SWAP4 MSTORE SWAP1 SWAP2 MSTORE PUSH1 0x0 SWAP1 DUP2 MSTORE PUSH1 0x40 SWAP1 KECCAK256 DUP1 SLOAD PUSH1 0x1 SWAP1 SWAP2 ADD SLOAD PUSH1 0xFF AND DUP3 JUMP JUMPDEST PUSH1 0x40 DUP1 MLOAD SWAP3 DUP4 MSTORE SWAP1 ISZERO ISZERO PUSH1 0x20 DUP4 ADD MSTORE ADD PUSH2 0x11E JUMP JUMPDEST PUSH2 0x13A PUSH2 0x1E2 CALLDATASIZE PUSH1 0x4 PUSH2 0x1B79 JUMP JUMPDEST PUSH2 0x669 JUMP JUMPDEST PUSH2 0x13A PUSH2 0x1F5 CALLDATASIZE PUSH1 0x4 PUSH2 0x1B79 JUMP JUMPDEST PUSH2 0x8DA JUMP JUMPDEST PUSH2 0x114 PUSH1 0x40 DUP2 JUMP JUMPDEST PUSH2 0x114 PUSH2 0x12C DUP2 JUMP JUMPDEST PUSH2 0x13A PUSH2 0x219 CALLDATASIZE PUSH1 0x4 PUSH2 0x1DC1 JUMP JUMPDEST PUSH2 0xA38 JUMP JUMPDEST PUSH2 0x114 PUSH1 0xA SLOAD DUP2 JUMP JUMPDEST PUSH2 0x13A PUSH2 0x235 CALLDATASIZE PUSH1 0x4 PUSH2 0x1B79 JUMP JUMPDEST PUSH2 0xE61 JUMP JUMPDEST PUSH1 0x2 SLOAD PUSH2 0x14F SWAP1 PUSH1 0x1 PUSH1 0x1 PUSH1 0xA0 SHL SUB AND DUP2 JUMP JUMPDEST PUSH2 0x114 PUSH2 0x258 DUP2 JUMP JUMPDEST PUSH2 0x269 PUSH2 0x264 CALLDATASIZE PUSH1 0x4 PUSH2 0x1F7C JUMP JUMPDEST PUSH2 0x10BF JUMP JUMPDEST PUSH1 0x40 MLOAD PUSH2 0x11E SWAP2 SWAP1 PUSH2 0x1FEE JUMP JUMPDEST PUSH2 0x289 PUSH2 0x284 CALLDATASIZE PUSH1 0x4 PUSH2 0x2008 JUMP JUMPDEST PUSH2 0x1178 JUMP JUMPDEST PUSH1 0x40 MLOAD SWAP1 ISZERO ISZERO DUP2 MSTORE PUSH1 0x20 ADD PUSH2 0x11E JUMP JUMPDEST PUSH1 0x0 DUP2 PUSH1 0x40 MLOAD PUSH1 0x20 ADD PUSH2 0x2AC SWAP2 SWAP1 PUSH2 0x2025 JUMP JUMPDEST PUSH1 0x40 DUP1 MLOAD PUSH1 0x1F NOT DUP2 DUP5 SUB ADD DUP2 MSTORE SWAP1 DUP3 SWAP1 MSTORE PUSH1 0x0 DUP1 SLOAD PUSH4 0x333F6111 PUSH1 0xE0 SHL DUP5 MSTORE SWAP2 SWAP4 POP SWAP2 PUSH1 0x1 PUSH1 0x1 PUSH1 0xA0 SHL SUB SWAP1 SWAP2 AND SWAP1 PUSH4 0x333F6111 SWAP1 PUSH2 0x2F5 SWAP1 DUP10 SWAP1 DUP10 SWAP1 DUP10 SWAP1 DUP9 SWAP1 PUSH1 0x4 ADD PUSH2 0x206B JUMP JUMPDEST PUSH1 0x20 PUSH1 0x40 MLOAD DUP1 DUP4 SUB DUP2 PUSH1 0x0 DUP8 GAS CALL ISZERO DUP1 ISZERO PUSH2 0x314 JUMPI RETURNDATASIZE PUSH1 0x0 DUP1 RETURNDATACOPY RETURNDATASIZE PUSH1 0x0 REVERT JUMPDEST POP POP POP POP PUSH1 0x40 MLOAD RETURNDATASIZE PUSH1 0x1F NOT PUSH1 0x1F DUP3 ADD AND DUP3 ADD DUP1 PUSH1 0x40 MSTORE POP DUP2 ADD SWAP1 PUSH2 0x338 SWAP2 SWAP1 PUSH2 0x214B JUMP JUMPDEST SWAP1 POP DUP1 PUSH2 0x3BC JUMPI PUSH1 0x40 MLOAD PUSH3 0x461BCD PUSH1 0xE5 SHL DUP2 MSTORE PUSH1 0x20 PUSH1 0x4 DUP3 ADD MSTORE PUSH1 0x41 PUSH1 0x24 DUP3 ADD MSTORE PUSH32 0x417574686F72697A6174696F6E206661696C656420666F722070726F706F7365 PUSH1 0x44 DUP3 ADD MSTORE PUSH32 0x6420757064617465206F66204D696E7420636F6E747261637420616464726573 PUSH1 0x64 DUP3 ADD MSTORE PUSH1 0x73 PUSH1 0xF8 SHL PUSH1 0x84 DUP3 ADD MSTORE PUSH1 0xA4 ADD JUMPDEST PUSH1 0x40 MLOAD DUP1 SWAP2 SUB SWAP1 REVERT JUMPDEST POP POP CALLER PUSH1 0x0 SWAP1 DUP2 MSTORE PUSH1 0x6 PUSH1 0x20 MSTORE PUSH1 0x40 SWAP1 KECCAK256 DUP1 SLOAD PUSH1 0x1 PUSH1 0x1 PUSH1 0xA0 SHL SUB NOT AND PUSH1 0x1 PUSH1 0x1 PUSH1 0xA0 SHL SUB SWAP3 SWAP1 SWAP3 AND SWAP2 SWAP1 SWAP2 OR SWAP1 SSTORE PUSH1 0x9 SSTORE POP POP JUMP JUMPDEST PUSH1 0x0 DUP4 PUSH1 0x40 MLOAD PUSH1 0x20 ADD PUSH2 0x405 SWAP2 SWAP1 PUSH2 0x2168 JUMP JUMPDEST PUSH1 0x40 DUP1 MLOAD DUP1 DUP4 SUB PUSH1 0x1F NOT ADD DUP2 MSTORE SWAP1 DUP3 SWAP1 MSTORE DUP1 MLOAD PUSH1 0x20 SWAP1 SWAP2 ADD KECCAK256 PUSH1 0x0 DUP1 SLOAD PUSH4 0xB9D57C5F PUSH1 0xE0 SHL DUP5 MSTORE PUSH1 0x4 DUP5 ADD DUP4 SWAP1 MSTORE SWAP2 SWAP4 POP SWAP2 PUSH1 0x1 PUSH1 0x1 PUSH1 0xA0 SHL SUB SWAP1 SWAP2 AND SWAP1 PUSH4 0xB9D57C5F SWAP1 PUSH1 0x24 ADD PUSH1 0x60 PUSH1 0x40 MLOAD DUP1 DUP4 SUB DUP2 DUP7 GAS STATICCALL ISZERO DUP1 ISZERO PUSH2 0x469 JUMPI RETURNDATASIZE PUSH1 0x0 DUP1 RETURNDATACOPY RETURNDATASIZE PUSH1 0x0 REVERT JUMPDEST POP POP POP POP PUSH1 0x40 MLOAD RETURNDATASIZE PUSH1 0x1F NOT PUSH1 0x1F DUP3 ADD AND DUP3 ADD DUP1 PUSH1 0x40 MSTORE POP DUP2 ADD SWAP1 PUSH2 0x48D SWAP2 SWAP1 PUSH2 0x219F JUMP JUMPDEST PUSH1 0x1 SLOAD PUSH1 0x40 MLOAD PUSH4 0x34A88C5B PUSH1 0xE0 SHL DUP2 MSTORE CALLER PUSH1 0x4 DUP3 ADD MSTORE SWAP2 SWAP5 POP PUSH1 0x0 SWAP4 POP DUP4 SWAP3 POP PUSH1 0x1 PUSH1 0x1 PUSH1 0xA0 SHL SUB AND SWAP1 PUSH4 0x34A88C5B SWAP1 PUSH1 0x24 ADD PUSH1 0x40 DUP1 MLOAD DUP1 DUP4 SUB DUP2 DUP7 GAS STATICCALL ISZERO DUP1 ISZERO PUSH2 0x4DC JUMPI RETURNDATASIZE PUSH1 0x0 DUP1 RETURNDATACOPY RETURNDATASIZE PUSH1 0x0 REVERT JUMPDEST POP POP POP POP PUSH1 0x40 MLOAD RETURNDATASIZE PUSH1 0x1F NOT PUSH1 0x1F DUP3 ADD AND DUP3 ADD DUP1 PUSH1 0x40 MSTORE POP DUP2 ADD SWAP1 PUSH2 0x500 SWAP2 SWAP1 PUSH2 0x21DA JUMP JUMPDEST SWAP2 POP SWAP2 POP DUP2 DUP4 EQ DUP1 PUSH2 0x511 JUMPI POP DUP1 DUP4 EQ JUMPDEST PUSH2 0x56E JUMPI PUSH1 0x40 MLOAD PUSH3 0x461BCD PUSH1 0xE5 SHL DUP2 MSTORE PUSH1 0x20 PUSH1 0x4 DUP3 ADD MSTORE PUSH1 0x28 PUSH1 0x24 DUP3 ADD MSTORE PUSH32 0x43616C6C65722773206F7261636C65206B657920696E64657820646F6573206E PUSH1 0x44 DUP3 ADD MSTORE PUSH8 0xDEE840DAC2E8C6D PUSH1 0xC3 SHL PUSH1 0x64 DUP3 ADD MSTORE PUSH1 0x84 ADD PUSH2 0x3B3 JUMP JUMPDEST PUSH1 0x0 SLOAD PUSH1 0x40 DUP1 MLOAD PUSH1 0x20 DUP1 DUP3 ADD DUP13 SWAP1 MSTORE DUP3 MLOAD DUP1 DUP4 SUB SWAP1 SWAP2 ADD DUP2 MSTORE DUP2 DUP4 ADD SWAP3 DUP4 SWAP1 MSTORE PUSH4 0x4A89D52B PUSH1 0xE0 SHL SWAP1 SWAP3 MSTORE PUSH1 0x1 PUSH1 0x1 PUSH1 0xA0 SHL SUB SWAP1 SWAP3 AND SWAP2 PUSH4 0x4A89D52B SWAP2 PUSH2 0x5BE SWAP2 DUP12 SWAP2 DUP12 SWAP2 DUP12 SWAP2 SWAP1 PUSH1 0x44 ADD PUSH2 0x206B JUMP JUMPDEST PUSH1 0x20 PUSH1 0x40 MLOAD DUP1 DUP4 SUB DUP2 PUSH1 0x0 DUP8 GAS CALL ISZERO DUP1 ISZERO PUSH2 0x5DD JUMPI RETURNDATASIZE PUSH1 0x0 DUP1 RETURNDATACOPY RETURNDATASIZE PUSH1 0x0 REVERT JUMPDEST POP POP POP POP PUSH1 0x40 MLOAD RETURNDATASIZE PUSH1 0x1F NOT PUSH1 0x1F DUP3 ADD AND DUP3 ADD DUP1 PUSH1 0x40 MSTORE POP DUP2 ADD SWAP1 PUSH2 0x601 SWAP2 SWAP1 PUSH2 0x214B JUMP JUMPDEST PUSH2 0x64D JUMPI PUSH1 0x40 MLOAD PUSH3 0x461BCD PUSH1 0xE5 SHL DUP2 MSTORE PUSH1 0x20 PUSH1 0x4 DUP3 ADD MSTORE PUSH1 0x1B PUSH1 0x24 DUP3 ADD MSTORE PUSH32 0x4C616D706F7274206F7261636C6520636865636B206661696C65640000000000 PUSH1 0x44 DUP3 ADD MSTORE PUSH1 0x64 ADD PUSH2 0x3B3 JUMP JUMPDEST POP POP CALLER PUSH1 0x0 SWAP1 DUP2 MSTORE PUSH1 0x8 PUSH1 0x20 MSTORE PUSH1 0x40 SWAP1 KECCAK256 SWAP6 SWAP1 SWAP6 SSTORE POP POP POP POP POP JUMP JUMPDEST PUSH1 0x0 DUP2 PUSH1 0x40 MLOAD PUSH1 0x20 ADD PUSH2 0x67C SWAP2 SWAP1 PUSH2 0x2025 JUMP JUMPDEST PUSH1 0x40 DUP1 MLOAD DUP1 DUP4 SUB PUSH1 0x1F NOT ADD DUP2 MSTORE SWAP2 DUP2 MSTORE CALLER PUSH1 0x0 SWAP1 DUP2 MSTORE PUSH1 0x7 PUSH1 0x20 MSTORE KECCAK256 SLOAD SWAP1 SWAP2 POP PUSH1 0x1 PUSH1 0x1 PUSH1 0xA0 SHL SUB DUP4 DUP2 AND SWAP2 AND EQ PUSH2 0x70E JUMPI PUSH1 0x40 MLOAD PUSH3 0x461BCD PUSH1 0xE5 SHL DUP2 MSTORE PUSH1 0x20 PUSH1 0x4 DUP3 ADD MSTORE PUSH1 0x2F PUSH1 0x24 DUP3 ADD MSTORE PUSH32 0x506C61796572446174616261736520636F6E7472616374206164647265737320 PUSH1 0x44 DUP3 ADD MSTORE PUSH15 0xEAE0C8C2E8CA40DAD2E6DAC2E8C6D PUSH1 0x8B SHL PUSH1 0x64 DUP3 ADD MSTORE PUSH1 0x84 ADD PUSH2 0x3B3 JUMP JUMPDEST PUSH1 0x0 DUP6 PUSH1 0x40 MLOAD PUSH1 0x20 ADD PUSH2 0x721 SWAP2 SWAP1 PUSH2 0x2168 JUMP JUMPDEST PUSH1 0x40 MLOAD PUSH1 0x20 DUP2 DUP4 SUB SUB DUP2 MSTORE SWAP1 PUSH1 0x40 MSTORE DUP1 MLOAD SWAP1 PUSH1 0x20 ADD KECCAK256 SWAP1 POP DUP1 PUSH1 0x9 SLOAD SUB PUSH2 0x75A JUMPI PUSH1 0x40 MLOAD PUSH3 0x461BCD PUSH1 0xE5 SHL DUP2 MSTORE PUSH1 0x4 ADD PUSH2 0x3B3 SWAP1 PUSH2 0x21FE JUMP JUMPDEST PUSH1 0x0 DUP1 SLOAD PUSH1 0x40 MLOAD PUSH4 0x333F6111 PUSH1 0xE0 SHL DUP2 MSTORE PUSH1 0x1 PUSH1 0x1 PUSH1 0xA0 SHL SUB SWAP1 SWAP2 AND SWAP1 PUSH4 0x333F6111 SWAP1 PUSH2 0x791 SWAP1 DUP11 SWAP1 DUP11 SWAP1 DUP11 SWAP1 DUP10 SWAP1 PUSH1 0x4 ADD PUSH2 0x206B JUMP JUMPDEST PUSH1 0x20 PUSH1 0x40 MLOAD DUP1 DUP4 SUB DUP2 PUSH1 0x0 DUP8 GAS CALL ISZERO DUP1 ISZERO PUSH2 0x7B0 JUMPI RETURNDATASIZE PUSH1 0x0 DUP1 RETURNDATACOPY RETURNDATASIZE PUSH1 0x0 REVERT JUMPDEST POP POP POP POP PUSH1 0x40 MLOAD RETURNDATASIZE PUSH1 0x1F NOT PUSH1 0x1F DUP3 ADD AND DUP3 ADD DUP1 PUSH1 0x40 MSTORE POP DUP2 ADD SWAP1 PUSH2 0x7D4 SWAP2 SWAP1 PUSH2 0x214B JUMP JUMPDEST SWAP1 POP DUP1 PUSH2 0x860 JUMPI PUSH1 0x40 MLOAD PUSH3 0x461BCD PUSH1 0xE5 SHL DUP2 MSTORE PUSH1 0x20 PUSH1 0x4 DUP3 ADD MSTORE PUSH1 0x4E PUSH1 0x24 DUP3 ADD MSTORE PUSH32 0x417574686F72697A6174696F6E206661696C6564206F6E20636F6E6669726D61 PUSH1 0x44 DUP3 ADD MSTORE PUSH32 0x74696F6E206F6620506C61796572446174616261736520636F6E747261637420 PUSH1 0x64 DUP3 ADD MSTORE PUSH14 0x6164647265737320757064617465 PUSH1 0x90 SHL PUSH1 0x84 DUP3 ADD MSTORE PUSH1 0xA4 ADD PUSH2 0x3B3 JUMP JUMPDEST PUSH1 0x1 DUP1 SLOAD PUSH1 0x1 PUSH1 0x1 PUSH1 0xA0 SHL SUB NOT AND PUSH1 0x1 PUSH1 0x1 PUSH1 0xA0 SHL SUB DUP7 AND SWAP1 DUP2 OR SWAP1 SWAP2 SSTORE PUSH1 0x40 MLOAD SWAP1 DUP2 MSTORE PUSH32 0x6C200B5398AF2592BA382DBF2A45376BBB22A24CAB265709486FA967A5B4203D SWAP1 PUSH1 0x20 ADD PUSH1 0x40 MLOAD DUP1 SWAP2 SUB SWAP1 LOG1 POP POP CALLER PUSH1 0x0 SWAP1 DUP2 MSTORE PUSH1 0x7 PUSH1 0x20 MSTORE PUSH1 0x40 DUP2 KECCAK256 DUP1 SLOAD PUSH1 0x1 PUSH1 0x1 PUSH1 0xA0 SHL SUB NOT AND SWAP1 SSTORE PUSH1 0x9 SSTORE POP POP POP POP POP JUMP JUMPDEST PUSH1 0x0 DUP2 PUSH1 0x40 MLOAD PUSH1 0x20 ADD PUSH2 0x8ED SWAP2 SWAP1 PUSH2 0x2025 JUMP JUMPDEST PUSH1 0x40 DUP1 MLOAD PUSH1 0x1F NOT DUP2 DUP5 SUB ADD DUP2 MSTORE SWAP1 DUP3 SWAP1 MSTORE PUSH1 0x0 DUP1 SLOAD PUSH4 0x333F6111 PUSH1 0xE0 SHL DUP5 MSTORE SWAP2 SWAP4 POP SWAP2 PUSH1 0x1 PUSH1 0x1 PUSH1 0xA0 SHL SUB SWAP1 SWAP2 AND SWAP1 PUSH4 0x333F6111 SWAP1 PUSH2 0x936 SWAP1 DUP10 SWAP1 DUP10 SWAP1 DUP10 SWAP1 DUP9 SWAP1 PUSH1 0x4 ADD PUSH2 0x206B JUMP JUMPDEST PUSH1 0x20 PUSH1 0x40 MLOAD DUP1 DUP4 SUB DUP2 PUSH1 0x0 DUP8 GAS CALL ISZERO DUP1 ISZERO PUSH2 0x955 JUMPI RETURNDATASIZE PUSH1 0x0 DUP1 RETURNDATACOPY RETURNDATASIZE PUSH1 0x0 REVERT JUMPDEST POP POP POP POP PUSH1 0x40 MLOAD RETURNDATASIZE PUSH1 0x1F NOT PUSH1 0x1F DUP3 ADD AND DUP3 ADD DUP1 PUSH1 0x40 MSTORE POP DUP2 ADD SWAP1 PUSH2 0x979 SWAP2 SWAP1 PUSH2 0x214B JUMP JUMPDEST SWAP1 POP DUP1 PUSH2 0xA02 JUMPI PUSH1 0x40 MLOAD PUSH3 0x461BCD PUSH1 0xE5 SHL DUP2 MSTORE PUSH1 0x20 PUSH1 0x4 DUP3 ADD MSTORE PUSH1 0x4B PUSH1 0x24 DUP3 ADD MSTORE PUSH32 0x417574686F72697A6174696F6E206661696C656420666F722070726F706F7365 PUSH1 0x44 DUP3 ADD MSTORE PUSH32 0x6420757064617465206F6620506C61796572446174616261736520636F6E7472 PUSH1 0x64 DUP3 ADD MSTORE PUSH11 0x6163742061646472657373 PUSH1 0xA8 SHL PUSH1 0x84 DUP3 ADD MSTORE PUSH1 0xA4 ADD PUSH2 0x3B3 JUMP JUMPDEST POP POP CALLER PUSH1 0x0 SWAP1 DUP2 MSTORE PUSH1 0x7 PUSH1 0x20 MSTORE PUSH1 0x40 SWAP1 KECCAK256 DUP1 SLOAD PUSH1 0x1 PUSH1 0x1 PUSH1 0xA0 SHL SUB NOT AND PUSH1 0x1 PUSH1 0x1 PUSH1 0xA0 SHL SUB SWAP3 SWAP1 SWAP3 AND SWAP2 SWAP1 SWAP2 OR SWAP1 SSTORE PUSH1 0x9 SSTORE POP POP JUMP JUMPDEST PUSH2 0xA41 DUP3 PUSH2 0x1178 JUMP JUMPDEST PUSH2 0xA99 JUMPI PUSH1 0x40 MLOAD PUSH3 0x461BCD PUSH1 0xE5 SHL DUP2 MSTORE PUSH1 0x20 PUSH1 0x4 DUP3 ADD MSTORE PUSH1 0x24 DUP1 DUP3 ADD MSTORE PUSH32 0x43616C6C6572206973206E6F74206120726567697374657265642076616C6964 PUSH1 0x44 DUP3 ADD MSTORE PUSH4 0x30BA37B9 PUSH1 0xE1 SHL PUSH1 0x64 DUP3 ADD MSTORE PUSH1 0x84 ADD PUSH2 0x3B3 JUMP JUMPDEST PUSH1 0x60 PUSH1 0x0 JUMPDEST DUP5 MLOAD DUP2 LT ISZERO PUSH2 0xB7D JUMPI DUP2 DUP6 DUP3 DUP2 MLOAD DUP2 LT PUSH2 0xABA JUMPI PUSH2 0xABA PUSH2 0x2265 JUMP JUMPDEST PUSH1 0x20 MUL PUSH1 0x20 ADD ADD MLOAD PUSH1 0x0 ADD MLOAD PUSH1 0x40 MLOAD PUSH1 0x20 ADD PUSH2 0xAD7 SWAP3 SWAP2 SWAP1 PUSH2 0x227B JUMP JUMPDEST PUSH1 0x40 MLOAD PUSH1 0x20 DUP2 DUP4 SUB SUB DUP2 MSTORE SWAP1 PUSH1 0x40 MSTORE SWAP2 POP PUSH1 0x0 JUMPDEST DUP6 DUP3 DUP2 MLOAD DUP2 LT PUSH2 0xAFD JUMPI PUSH2 0xAFD PUSH2 0x2265 JUMP JUMPDEST PUSH1 0x20 MUL PUSH1 0x20 ADD ADD MLOAD PUSH1 0x20 ADD MLOAD MLOAD DUP2 LT ISZERO PUSH2 0xB74 JUMPI DUP3 DUP7 DUP4 DUP2 MLOAD DUP2 LT PUSH2 0xB24 JUMPI PUSH2 0xB24 PUSH2 0x2265 JUMP JUMPDEST PUSH1 0x20 MUL PUSH1 0x20 ADD ADD MLOAD PUSH1 0x20 ADD MLOAD DUP3 DUP2 MLOAD DUP2 LT PUSH2 0xB41 JUMPI PUSH2 0xB41 PUSH2 0x2265 JUMP JUMPDEST PUSH1 0x20 MUL PUSH1 0x20 ADD ADD MLOAD PUSH1 0x40 MLOAD PUSH1 0x20 ADD PUSH2 0xB5A SWAP3 SWAP2 SWAP1 PUSH2 0x227B JUMP JUMPDEST PUSH1 0x40 DUP1 MLOAD PUSH1 0x1F NOT DUP2 DUP5 SUB ADD DUP2 MSTORE SWAP2 SWAP1 MSTORE SWAP3 POP PUSH1 0x1 ADD PUSH2 0xAEB JUMP JUMPDEST POP PUSH1 0x1 ADD PUSH2 0xA9E JUMP JUMPDEST POP DUP1 MLOAD PUSH1 0x20 DUP1 DUP4 ADD SWAP2 SWAP1 SWAP2 KECCAK256 PUSH1 0x1 PUSH1 0x1 PUSH1 0xA0 SHL SUB DUP6 AND PUSH1 0x0 SWAP1 DUP2 MSTORE PUSH1 0x8 SWAP1 SWAP3 MSTORE PUSH1 0x40 SWAP1 SWAP2 KECCAK256 SLOAD DUP2 EQ PUSH2 0xC0C JUMPI PUSH1 0x40 MLOAD PUSH3 0x461BCD PUSH1 0xE5 SHL DUP2 MSTORE PUSH1 0x20 PUSH1 0x4 DUP3 ADD MSTORE PUSH1 0x32 PUSH1 0x24 DUP3 ADD MSTORE PUSH32 0x4C697374206861736820646F6573206E6F74206D617463682070726576696F75 PUSH1 0x44 DUP3 ADD MSTORE PUSH18 0x39B63C90383937BB34B232B2103430B9B417 PUSH1 0x71 SHL PUSH1 0x64 DUP3 ADD MSTORE PUSH1 0x84 ADD PUSH2 0x3B3 JUMP JUMPDEST PUSH1 0x0 DUP1 JUMPDEST DUP7 MLOAD DUP2 LT ISZERO PUSH2 0xDF7 JUMPI PUSH1 0x0 DUP8 DUP3 DUP2 MLOAD DUP2 LT PUSH2 0xC2D JUMPI PUSH2 0xC2D PUSH2 0x2265 JUMP JUMPDEST PUSH1 0x20 MUL PUSH1 0x20 ADD ADD MLOAD PUSH1 0x20 ADD MLOAD MLOAD SWAP1 POP PUSH1 0x40 DUP2 DUP5 PUSH2 0xC4A SWAP2 SWAP1 PUSH2 0x22C0 JUMP JUMPDEST GT ISZERO PUSH2 0xC56 JUMPI POP PUSH2 0xDF7 JUMP JUMPDEST PUSH2 0xC60 DUP2 DUP5 PUSH2 0x22C0 JUMP JUMPDEST SWAP3 POP PUSH1 0x60 PUSH1 0x0 JUMPDEST DUP10 DUP5 DUP2 MLOAD DUP2 LT PUSH2 0xC79 JUMPI PUSH2 0xC79 PUSH2 0x2265 JUMP JUMPDEST PUSH1 0x20 MUL PUSH1 0x20 ADD ADD MLOAD PUSH1 0x20 ADD MLOAD MLOAD DUP2 LT ISZERO PUSH2 0xCF0 JUMPI DUP2 DUP11 DUP6 DUP2 MLOAD DUP2 LT PUSH2 0xCA0 JUMPI PUSH2 0xCA0 PUSH2 0x2265 JUMP JUMPDEST PUSH1 0x20 MUL PUSH1 0x20 ADD ADD MLOAD PUSH1 0x20 ADD MLOAD DUP3 DUP2 MLOAD DUP2 LT PUSH2 0xCBD JUMPI PUSH2 0xCBD PUSH2 0x2265 JUMP JUMPDEST PUSH1 0x20 MUL PUSH1 0x20 ADD ADD MLOAD PUSH1 0x40 MLOAD PUSH1 0x20 ADD PUSH2 0xCD6 SWAP3 SWAP2 SWAP1 PUSH2 0x227B JUMP JUMPDEST PUSH1 0x40 DUP1 MLOAD PUSH1 0x1F NOT DUP2 DUP5 SUB ADD DUP2 MSTORE SWAP2 SWAP1 MSTORE SWAP2 POP PUSH1 0x1 ADD PUSH2 0xC67 JUMP JUMPDEST POP DUP1 MLOAD PUSH1 0x20 DUP3 ADD KECCAK256 DUP10 MLOAD DUP11 SWAP1 DUP6 SWAP1 DUP2 LT PUSH2 0xD0C JUMPI PUSH2 0xD0C PUSH2 0x2265 JUMP JUMPDEST PUSH1 0x20 MUL PUSH1 0x20 ADD ADD MLOAD PUSH1 0x20 ADD MLOAD PUSH1 0x5 PUSH1 0x0 DUP4 DUP2 MSTORE PUSH1 0x20 ADD SWAP1 DUP2 MSTORE PUSH1 0x20 ADD PUSH1 0x0 KECCAK256 SWAP1 DUP1 MLOAD SWAP1 PUSH1 0x20 ADD SWAP1 PUSH2 0xD3E SWAP3 SWAP2 SWAP1 PUSH2 0x1A73 JUMP JUMPDEST POP PUSH2 0xD66 DUP11 DUP6 DUP2 MLOAD DUP2 LT PUSH2 0xD54 JUMPI PUSH2 0xD54 PUSH2 0x2265 JUMP JUMPDEST PUSH1 0x20 MUL PUSH1 0x20 ADD ADD MLOAD PUSH1 0x0 ADD MLOAD DUP11 PUSH2 0x11ED JUMP JUMPDEST PUSH1 0x40 MLOAD DUP1 PUSH1 0x40 ADD PUSH1 0x40 MSTORE DUP1 DUP3 DUP2 MSTORE PUSH1 0x20 ADD DUP10 ISZERO ISZERO DUP2 MSTORE POP PUSH1 0x4 DUP12 DUP7 DUP2 MLOAD DUP2 LT PUSH2 0xD91 JUMPI PUSH2 0xD91 PUSH2 0x2265 JUMP JUMPDEST PUSH1 0x20 MUL PUSH1 0x20 ADD ADD MLOAD PUSH1 0x0 ADD MLOAD PUSH1 0x40 MLOAD PUSH2 0xDAA SWAP2 SWAP1 PUSH2 0x22D3 JUMP JUMPDEST SWAP1 DUP2 MSTORE PUSH1 0x40 DUP1 MLOAD PUSH1 0x20 SWAP3 DUP2 SWAP1 SUB DUP4 ADD SWAP1 KECCAK256 PUSH1 0x1 PUSH1 0x1 PUSH1 0xA0 SHL SUB DUP14 AND PUSH1 0x0 SWAP1 DUP2 MSTORE SWAP1 DUP4 MSTORE KECCAK256 DUP3 MLOAD DUP2 SSTORE SWAP2 ADD MLOAD PUSH1 0x1 SWAP2 DUP3 ADD DUP1 SLOAD PUSH1 0xFF NOT AND SWAP2 ISZERO ISZERO SWAP2 SWAP1 SWAP2 OR SWAP1 SSTORE SWAP4 SWAP1 SWAP4 ADD SWAP3 POP PUSH2 0xC10 SWAP2 POP POP JUMP JUMPDEST POP PUSH1 0xA SLOAD TIMESTAMP SWAP1 PUSH1 0x0 SWAP1 PUSH2 0xE0A SWAP1 DUP4 PUSH2 0x22EF JUMP JUMPDEST SWAP1 POP PUSH1 0x0 PUSH2 0xE1A PUSH2 0x12C DUP5 PUSH2 0x2318 JUMP JUMPDEST PUSH2 0xE26 SWAP1 PUSH2 0x12C PUSH2 0x22EF JUMP JUMPDEST SWAP1 POP PUSH2 0x12C DUP3 LT ISZERO DUP1 ISZERO PUSH2 0xE3B JUMPI POP PUSH2 0x12C DUP2 LT JUMPDEST ISZERO PUSH2 0xE56 JUMPI PUSH2 0xE48 PUSH2 0x12D2 JUMP JUMPDEST PUSH2 0xE52 DUP2 DUP5 PUSH2 0x22EF JUMP JUMPDEST PUSH1 0xA SSTORE JUMPDEST POP POP POP POP POP POP POP POP POP JUMP JUMPDEST PUSH1 0x0 DUP2 PUSH1 0x40 MLOAD PUSH1 0x20 ADD PUSH2 0xE74 SWAP2 SWAP1 PUSH2 0x2025 JUMP JUMPDEST PUSH1 0x40 DUP1 MLOAD DUP1 DUP4 SUB PUSH1 0x1F NOT ADD DUP2 MSTORE SWAP2 DUP2 MSTORE CALLER PUSH1 0x0 SWAP1 DUP2 MSTORE PUSH1 0x6 PUSH1 0x20 MSTORE KECCAK256 SLOAD SWAP1 SWAP2 POP PUSH1 0x1 PUSH1 0x1 PUSH1 0xA0 SHL SUB DUP4 DUP2 AND SWAP2 AND EQ PUSH2 0xEFC JUMPI PUSH1 0x40 MLOAD PUSH3 0x461BCD PUSH1 0xE5 SHL DUP2 MSTORE PUSH1 0x20 PUSH1 0x4 DUP3 ADD MSTORE PUSH1 0x25 PUSH1 0x24 DUP3 ADD MSTORE PUSH32 0x4D696E7420636F6E7472616374206164647265737320757064617465206D6973 PUSH1 0x44 DUP3 ADD MSTORE PUSH5 0xDAC2E8C6D PUSH1 0xDB SHL PUSH1 0x64 DUP3 ADD MSTORE PUSH1 0x84 ADD PUSH2 0x3B3 JUMP JUMPDEST PUSH1 0x0 DUP6 PUSH1 0x40 MLOAD PUSH1 0x20 ADD PUSH2 0xF0F SWAP2 SWAP1 PUSH2 0x2168 JUMP JUMPDEST PUSH1 0x40 MLOAD PUSH1 0x20 DUP2 DUP4 SUB SUB DUP2 MSTORE SWAP1 PUSH1 0x40 MSTORE DUP1 MLOAD SWAP1 PUSH1 0x20 ADD KECCAK256 SWAP1 POP DUP1 PUSH1 0x9 SLOAD SUB PUSH2 0xF48 JUMPI PUSH1 0x40 MLOAD PUSH3 0x461BCD PUSH1 0xE5 SHL DUP2 MSTORE PUSH1 0x4 ADD PUSH2 0x3B3 SWAP1 PUSH2 0x21FE JUMP JUMPDEST PUSH1 0x0 DUP1 SLOAD PUSH1 0x40 MLOAD PUSH4 0x333F6111 PUSH1 0xE0 SHL DUP2 MSTORE PUSH1 0x1 PUSH1 0x1 PUSH1 0xA0 SHL SUB SWAP1 SWAP2 AND SWAP1 PUSH4 0x333F6111 SWAP1 PUSH2 0xF7F SWAP1 DUP11 SWAP1 DUP11 SWAP1 DUP11 SWAP1 DUP10 SWAP1 PUSH1 0x4 ADD PUSH2 0x206B JUMP JUMPDEST PUSH1 0x20 PUSH1 0x40 MLOAD DUP1 DUP4 SUB DUP2 PUSH1 0x0 DUP8 GAS CALL ISZERO DUP1 ISZERO PUSH2 0xF9E JUMPI RETURNDATASIZE PUSH1 0x0 DUP1 RETURNDATACOPY RETURNDATASIZE PUSH1 0x0 REVERT JUMPDEST POP POP POP POP PUSH1 0x40 MLOAD RETURNDATASIZE PUSH1 0x1F NOT PUSH1 0x1F DUP3 ADD AND DUP3 ADD DUP1 PUSH1 0x40 MSTORE POP DUP2 ADD SWAP1 PUSH2 0xFC2 SWAP2 SWAP1 PUSH2 0x214B JUMP JUMPDEST SWAP1 POP DUP1 PUSH2 0x1045 JUMPI PUSH1 0x40 MLOAD PUSH3 0x461BCD PUSH1 0xE5 SHL DUP2 MSTORE PUSH1 0x20 PUSH1 0x4 DUP3 ADD MSTORE PUSH1 0x44 PUSH1 0x24 DUP3 ADD DUP2 SWAP1 MSTORE PUSH32 0x417574686F72697A6174696F6E206661696C6564206F6E20636F6E6669726D61 SWAP1 DUP3 ADD MSTORE PUSH32 0x74696F6E206F66204D696E7420636F6E74726163742061646472657373207570 PUSH1 0x64 DUP3 ADD MSTORE PUSH4 0x64617465 PUSH1 0xE0 SHL PUSH1 0x84 DUP3 ADD MSTORE PUSH1 0xA4 ADD PUSH2 0x3B3 JUMP JUMPDEST PUSH1 0x2 DUP1 SLOAD PUSH1 0x1 PUSH1 0x1 PUSH1 0xA0 SHL SUB NOT AND PUSH1 0x1 PUSH1 0x1 PUSH1 0xA0 SHL SUB DUP7 AND SWAP1 DUP2 OR SWAP1 SWAP2 SSTORE PUSH1 0x40 MLOAD SWAP1 DUP2 MSTORE PUSH32 0x7814765089FA4D113B377EB0859FD345095A106617367857878087A128595EC4 SWAP1 PUSH1 0x20 ADD PUSH1 0x40 MLOAD DUP1 SWAP2 SUB SWAP1 LOG1 POP POP CALLER PUSH1 0x0 SWAP1 DUP2 MSTORE PUSH1 0x6 PUSH1 0x20 MSTORE PUSH1 0x40 DUP2 KECCAK256 DUP1 SLOAD PUSH1 0x1 PUSH1 0x1 PUSH1 0xA0 SHL SUB NOT AND SWAP1 SSTORE PUSH1 0x9 SSTORE POP POP POP POP POP JUMP JUMPDEST PUSH1 0x5 PUSH1 0x20 MSTORE DUP2 PUSH1 0x0 MSTORE PUSH1 0x40 PUSH1 0x0 KECCAK256 DUP2 DUP2 SLOAD DUP2 LT PUSH2 0x10DB JUMPI PUSH1 0x0 DUP1 REVERT JUMPDEST SWAP1 PUSH1 0x0 MSTORE PUSH1 0x20 PUSH1 0x0 KECCAK256 ADD PUSH1 0x0 SWAP2 POP SWAP2 POP POP DUP1 SLOAD PUSH2 0x10F7 SWAP1 PUSH2 0x232C JUMP JUMPDEST DUP1 PUSH1 0x1F ADD PUSH1 0x20 DUP1 SWAP2 DIV MUL PUSH1 0x20 ADD PUSH1 0x40 MLOAD SWAP1 DUP2 ADD PUSH1 0x40 MSTORE DUP1 SWAP3 SWAP2 SWAP1 DUP2 DUP2 MSTORE PUSH1 0x20 ADD DUP3 DUP1 SLOAD PUSH2 0x1123 SWAP1 PUSH2 0x232C JUMP JUMPDEST DUP1 ISZERO PUSH2 0x1170 JUMPI DUP1 PUSH1 0x1F LT PUSH2 0x1145 JUMPI PUSH2 0x100 DUP1 DUP4 SLOAD DIV MUL DUP4 MSTORE SWAP2 PUSH1 0x20 ADD SWAP2 PUSH2 0x1170 JUMP JUMPDEST DUP3 ADD SWAP2 SWAP1 PUSH1 0x0 MSTORE PUSH1 0x20 PUSH1 0x0 KECCAK256 SWAP1 JUMPDEST DUP2 SLOAD DUP2 MSTORE SWAP1 PUSH1 0x1 ADD SWAP1 PUSH1 0x20 ADD DUP1 DUP4 GT PUSH2 0x1153 JUMPI DUP3 SWAP1 SUB PUSH1 0x1F AND DUP3 ADD SWAP2 JUMPDEST POP POP POP POP POP DUP2 JUMP JUMPDEST PUSH1 0x1 SLOAD PUSH1 0x40 MLOAD PUSH4 0xFACD743B PUSH1 0xE0 SHL DUP2 MSTORE PUSH1 0x1 PUSH1 0x1 PUSH1 0xA0 SHL SUB DUP4 DUP2 AND PUSH1 0x4 DUP4 ADD MSTORE PUSH1 0x0 SWAP3 AND SWAP1 PUSH4 0xFACD743B SWAP1 PUSH1 0x24 ADD PUSH1 0x20 PUSH1 0x40 MLOAD DUP1 DUP4 SUB DUP2 DUP7 GAS STATICCALL ISZERO DUP1 ISZERO PUSH2 0x11C3 JUMPI RETURNDATASIZE PUSH1 0x0 DUP1 RETURNDATACOPY RETURNDATASIZE PUSH1 0x0 REVERT JUMPDEST POP POP POP POP PUSH1 0x40 MLOAD RETURNDATASIZE PUSH1 0x1F NOT PUSH1 0x1F DUP3 ADD AND DUP3 ADD DUP1 PUSH1 0x40 MSTORE POP DUP2 ADD SWAP1 PUSH2 0x11E7 SWAP2 SWAP1 PUSH2 0x214B JUMP JUMPDEST SWAP3 SWAP2 POP POP JUMP JUMPDEST PUSH1 0x0 DUP1 JUMPDEST PUSH1 0x3 DUP5 PUSH1 0x40 MLOAD PUSH2 0x1201 SWAP2 SWAP1 PUSH2 0x22D3 JUMP JUMPDEST SWAP1 DUP2 MSTORE PUSH1 0x40 MLOAD SWAP1 DUP2 SWAP1 SUB PUSH1 0x20 ADD SWAP1 KECCAK256 SLOAD DUP2 LT ISZERO PUSH2 0x127C JUMPI DUP3 PUSH1 0x1 PUSH1 0x1 PUSH1 0xA0 SHL SUB AND PUSH1 0x3 DUP6 PUSH1 0x40 MLOAD PUSH2 0x1232 SWAP2 SWAP1 PUSH2 0x22D3 JUMP JUMPDEST SWAP1 DUP2 MSTORE PUSH1 0x20 ADD PUSH1 0x40 MLOAD DUP1 SWAP2 SUB SWAP1 KECCAK256 DUP3 DUP2 SLOAD DUP2 LT PUSH2 0x1251 JUMPI PUSH2 0x1251 PUSH2 0x2265 JUMP JUMPDEST PUSH1 0x0 SWAP2 DUP3 MSTORE PUSH1 0x20 SWAP1 SWAP2 KECCAK256 ADD SLOAD PUSH1 0x1 PUSH1 0x1 PUSH1 0xA0 SHL SUB AND SUB PUSH2 0x1274 JUMPI PUSH1 0x1 SWAP2 POP PUSH2 0x127C JUMP JUMPDEST PUSH1 0x1 ADD PUSH2 0x11F1 JUMP JUMPDEST POP DUP1 PUSH2 0x12CD JUMPI PUSH1 0x3 DUP4 PUSH1 0x40 MLOAD PUSH2 0x1292 SWAP2 SWAP1 PUSH2 0x22D3 JUMP JUMPDEST SWAP1 DUP2 MSTORE PUSH1 0x40 MLOAD PUSH1 0x20 SWAP2 DUP2 SWAP1 SUB DUP3 ADD SWAP1 KECCAK256 DUP1 SLOAD PUSH1 0x1 DUP2 ADD DUP3 SSTORE PUSH1 0x0 SWAP2 DUP3 MSTORE SWAP2 SWAP1 KECCAK256 ADD DUP1 SLOAD PUSH1 0x1 PUSH1 0x1 PUSH1 0xA0 SHL SUB NOT AND PUSH1 0x1 PUSH1 0x1 PUSH1 0xA0 SHL SUB DUP5 AND OR SWAP1 SSTORE JUMPDEST POP POP POP JUMP JUMPDEST PUSH1 0x1 SLOAD PUSH1 0x40 DUP1 MLOAD PUSH4 0x3DC0FF7D PUSH1 0xE0 SHL DUP2 MSTORE SWAP1 MLOAD PUSH1 0x0 SWAP3 PUSH1 0x1 PUSH1 0x1 PUSH1 0xA0 SHL SUB AND SWAP2 PUSH4 0x3DC0FF7D SWAP2 PUSH1 0x4 DUP1 DUP4 ADD SWAP3 DUP7 SWAP3 SWAP2 SWAP1 DUP3 SWAP1 SUB ADD DUP2 DUP7 GAS STATICCALL ISZERO DUP1 ISZERO PUSH2 0x131B JUMPI RETURNDATASIZE PUSH1 0x0 DUP1 RETURNDATACOPY RETURNDATASIZE PUSH1 0x0 REVERT JUMPDEST POP POP POP POP PUSH1 0x40 MLOAD RETURNDATASIZE PUSH1 0x0 DUP3 RETURNDATACOPY PUSH1 0x1F RETURNDATASIZE SWAP1 DUP2 ADD PUSH1 0x1F NOT AND DUP3 ADD PUSH1 0x40 MSTORE PUSH2 0x1343 SWAP2 SWAP1 DUP2 ADD SWAP1 PUSH2 0x2366 JUMP JUMPDEST SWAP1 POP PUSH1 0x0 JUMPDEST DUP2 MLOAD DUP2 LT ISZERO PUSH2 0x1395 JUMPI PUSH1 0x0 DUP3 DUP3 DUP2 MLOAD DUP2 LT PUSH2 0x1365 JUMPI PUSH2 0x1365 PUSH2 0x2265 JUMP JUMPDEST PUSH1 0x20 MUL PUSH1 0x20 ADD ADD MLOAD SWAP1 POP PUSH1 0x0 PUSH2 0x137A DUP3 PUSH2 0x13A1 JUMP JUMPDEST SWAP1 POP DUP1 ISZERO PUSH2 0x138B JUMPI PUSH2 0x138B DUP2 PUSH2 0x1646 JUMP JUMPDEST POP POP PUSH1 0x1 ADD PUSH2 0x1348 JUMP JUMPDEST POP PUSH2 0x139E PUSH2 0x1821 JUMP JUMPDEST POP JUMP JUMPDEST PUSH1 0x0 DUP1 PUSH1 0x3 DUP4 PUSH1 0x40 MLOAD PUSH2 0x13B4 SWAP2 SWAP1 PUSH2 0x22D3 JUMP JUMPDEST SWAP1 DUP2 MSTORE PUSH1 0x40 DUP1 MLOAD SWAP2 DUP3 SWAP1 SUB PUSH1 0x20 SWAP1 DUP2 ADD DUP4 KECCAK256 DUP1 SLOAD DUP1 DUP4 MUL DUP6 ADD DUP4 ADD SWAP1 SWAP4 MSTORE DUP3 DUP5 MSTORE SWAP2 SWAP1 DUP4 ADD DUP3 DUP3 DUP1 ISZERO PUSH2 0x1410 JUMPI PUSH1 0x20 MUL DUP3 ADD SWAP2 SWAP1 PUSH1 0x0 MSTORE PUSH1 0x20 PUSH1 0x0 KECCAK256 SWAP1 JUMPDEST DUP2 SLOAD PUSH1 0x1 PUSH1 0x1 PUSH1 0xA0 SHL SUB AND DUP2 MSTORE PUSH1 0x1 SWAP1 SWAP2 ADD SWAP1 PUSH1 0x20 ADD DUP1 DUP4 GT PUSH2 0x13F2 JUMPI JUMPDEST POP POP POP POP POP SWAP1 POP PUSH1 0x0 PUSH1 0x64 DUP3 MLOAD PUSH1 0x3C PUSH2 0x1429 SWAP2 SWAP1 PUSH2 0x2452 JUMP JUMPDEST PUSH2 0x1433 SWAP2 SWAP1 PUSH2 0x2469 JUMP JUMPDEST DUP3 MLOAD SWAP1 SWAP2 POP PUSH1 0x0 SWAP1 DUP2 SWAP1 DUP2 SWAP1 PUSH1 0x1 PUSH1 0x1 PUSH1 0x40 SHL SUB DUP2 GT ISZERO PUSH2 0x1456 JUMPI PUSH2 0x1456 PUSH2 0x1C49 JUMP JUMPDEST PUSH1 0x40 MLOAD SWAP1 DUP1 DUP3 MSTORE DUP1 PUSH1 0x20 MUL PUSH1 0x20 ADD DUP3 ADD PUSH1 0x40 MSTORE DUP1 ISZERO PUSH2 0x149B JUMPI DUP2 PUSH1 0x20 ADD JUMPDEST PUSH1 0x40 DUP1 MLOAD DUP1 DUP3 ADD SWAP1 SWAP2 MSTORE PUSH1 0x0 DUP1 DUP3 MSTORE PUSH1 0x20 DUP3 ADD MSTORE DUP2 MSTORE PUSH1 0x20 ADD SWAP1 PUSH1 0x1 SWAP1 SUB SWAP1 DUP2 PUSH2 0x1474 JUMPI SWAP1 POP JUMPDEST POP SWAP1 POP PUSH1 0x0 JUMPDEST DUP6 MLOAD DUP2 LT ISZERO PUSH2 0x1626 JUMPI PUSH1 0x0 PUSH1 0x4 DUP10 PUSH1 0x40 MLOAD PUSH2 0x14BC SWAP2 SWAP1 PUSH2 0x22D3 JUMP JUMPDEST SWAP1 DUP2 MSTORE PUSH1 0x20 ADD PUSH1 0x40 MLOAD DUP1 SWAP2 SUB SWAP1 KECCAK256 PUSH1 0x0 DUP9 DUP5 DUP2 MLOAD DUP2 LT PUSH2 0x14DE JUMPI PUSH2 0x14DE PUSH2 0x2265 JUMP JUMPDEST PUSH1 0x20 MUL PUSH1 0x20 ADD ADD MLOAD PUSH1 0x1 PUSH1 0x1 PUSH1 0xA0 SHL SUB AND PUSH1 0x1 PUSH1 0x1 PUSH1 0xA0 SHL SUB AND DUP2 MSTORE PUSH1 0x20 ADD SWAP1 DUP2 MSTORE PUSH1 0x20 ADD PUSH1 0x0 KECCAK256 PUSH1 0x0 ADD SLOAD SWAP1 POP PUSH1 0x0 DUP1 JUMPDEST DUP5 MLOAD DUP2 LT ISZERO PUSH2 0x157C JUMPI DUP3 DUP6 DUP3 DUP2 MLOAD DUP2 LT PUSH2 0x152C JUMPI PUSH2 0x152C PUSH2 0x2265 JUMP JUMPDEST PUSH1 0x20 MUL PUSH1 0x20 ADD ADD MLOAD PUSH1 0x0 ADD MLOAD SUB PUSH2 0x1574 JUMPI DUP5 DUP2 DUP2 MLOAD DUP2 LT PUSH2 0x154F JUMPI PUSH2 0x154F PUSH2 0x2265 JUMP JUMPDEST PUSH1 0x20 MUL PUSH1 0x20 ADD ADD MLOAD PUSH1 0x20 ADD DUP1 MLOAD DUP1 SWAP2 SWAP1 PUSH2 0x1568 SWAP1 PUSH2 0x247D JUMP JUMPDEST SWAP1 MSTORE POP PUSH1 0x1 SWAP2 POP PUSH2 0x157C JUMP JUMPDEST PUSH1 0x1 ADD PUSH2 0x1510 JUMP JUMPDEST POP DUP1 PUSH2 0x15B6 JUMPI PUSH1 0x40 MLOAD DUP1 PUSH1 0x40 ADD PUSH1 0x40 MSTORE DUP1 DUP4 DUP2 MSTORE PUSH1 0x20 ADD PUSH1 0x1 DUP2 MSTORE POP DUP5 DUP5 DUP2 MLOAD DUP2 LT PUSH2 0x15AA JUMPI PUSH2 0x15AA PUSH2 0x2265 JUMP JUMPDEST PUSH1 0x20 MUL PUSH1 0x20 ADD ADD DUP2 SWAP1 MSTORE POP JUMPDEST DUP5 DUP5 DUP5 DUP2 MLOAD DUP2 LT PUSH2 0x15C9 JUMPI PUSH2 0x15C9 PUSH2 0x2265 JUMP JUMPDEST PUSH1 0x20 MUL PUSH1 0x20 ADD ADD MLOAD PUSH1 0x20 ADD MLOAD GT ISZERO PUSH2 0x161C JUMPI DUP4 DUP4 DUP2 MLOAD DUP2 LT PUSH2 0x15ED JUMPI PUSH2 0x15ED PUSH2 0x2265 JUMP JUMPDEST PUSH1 0x20 MUL PUSH1 0x20 ADD ADD MLOAD PUSH1 0x20 ADD MLOAD SWAP5 POP DUP4 DUP4 DUP2 MLOAD DUP2 LT PUSH2 0x160D JUMPI PUSH2 0x160D PUSH2 0x2265 JUMP JUMPDEST PUSH1 0x20 MUL PUSH1 0x20 ADD ADD MLOAD PUSH1 0x0 ADD MLOAD SWAP6 POP JUMPDEST POP POP PUSH1 0x1 ADD PUSH2 0x14A1 JUMP JUMPDEST POP DUP4 DUP3 LT PUSH2 0x1639 JUMPI POP SWAP1 SWAP6 SWAP5 POP POP POP POP POP JUMP JUMPDEST POP PUSH1 0x0 SWAP7 SWAP6 POP POP POP POP POP POP JUMP JUMPDEST PUSH1 0x0 DUP2 DUP2 MSTORE PUSH1 0x5 PUSH1 0x20 SWAP1 DUP2 MSTORE PUSH1 0x40 DUP1 DUP4 KECCAK256 DUP1 SLOAD DUP3 MLOAD DUP2 DUP6 MUL DUP2 ADD DUP6 ADD SWAP1 SWAP4 MSTORE DUP1 DUP4 MSTORE SWAP2 SWAP3 SWAP1 SWAP2 SWAP1 DUP5 SWAP1 DUP5 ADD JUMPDEST DUP3 DUP3 LT ISZERO PUSH2 0x171E JUMPI DUP4 DUP3 SWAP1 PUSH1 0x0 MSTORE PUSH1 0x20 PUSH1 0x0 KECCAK256 ADD DUP1 SLOAD PUSH2 0x1691 SWAP1 PUSH2 0x232C JUMP JUMPDEST DUP1 PUSH1 0x1F ADD PUSH1 0x20 DUP1 SWAP2 DIV MUL PUSH1 0x20 ADD PUSH1 0x40 MLOAD SWAP1 DUP2 ADD PUSH1 0x40 MSTORE DUP1 SWAP3 SWAP2 SWAP1 DUP2 DUP2 MSTORE PUSH1 0x20 ADD DUP3 DUP1 SLOAD PUSH2 0x16BD SWAP1 PUSH2 0x232C JUMP JUMPDEST DUP1 ISZERO PUSH2 0x170A JUMPI DUP1 PUSH1 0x1F LT PUSH2 0x16DF JUMPI PUSH2 0x100 DUP1 DUP4 SLOAD DIV MUL DUP4 MSTORE SWAP2 PUSH1 0x20 ADD SWAP2 PUSH2 0x170A JUMP JUMPDEST DUP3 ADD SWAP2 SWAP1 PUSH1 0x0 MSTORE PUSH1 0x20 PUSH1 0x0 KECCAK256 SWAP1 JUMPDEST DUP2 SLOAD DUP2 MSTORE SWAP1 PUSH1 0x1 ADD SWAP1 PUSH1 0x20 ADD DUP1 DUP4 GT PUSH2 0x16ED JUMPI DUP3 SWAP1 SUB PUSH1 0x1F AND DUP3 ADD SWAP2 JUMPDEST POP POP POP POP POP DUP2 MSTORE PUSH1 0x20 ADD SWAP1 PUSH1 0x1 ADD SWAP1 PUSH2 0x1672 JUMP JUMPDEST POP POP POP POP SWAP1 POP PUSH1 0x0 PUSH2 0x172F DUP3 PUSH2 0x19C0 JUMP JUMPDEST SWAP1 POP PUSH1 0x0 PUSH2 0x173B PUSH2 0x1A39 JUMP JUMPDEST SWAP1 POP PUSH1 0x0 JUMPDEST DUP3 MLOAD DUP2 LT ISZERO PUSH2 0x181A JUMPI PUSH1 0x0 PUSH1 0x1 PUSH1 0x1 PUSH1 0xA0 SHL SUB AND DUP4 DUP3 DUP2 MLOAD DUP2 LT PUSH2 0x1766 JUMPI PUSH2 0x1766 PUSH2 0x2265 JUMP JUMPDEST PUSH1 0x20 MUL PUSH1 0x20 ADD ADD MLOAD PUSH1 0x1 PUSH1 0x1 PUSH1 0xA0 SHL SUB AND EQ PUSH2 0x1812 JUMPI PUSH1 0x2 SLOAD DUP4 MLOAD PUSH1 0x1 PUSH1 0x1 PUSH1 0xA0 SHL SUB SWAP1 SWAP2 AND SWAP1 PUSH4 0xF0DDA65C SWAP1 DUP6 SWAP1 DUP5 SWAP1 DUP2 LT PUSH2 0x17A5 JUMPI PUSH2 0x17A5 PUSH2 0x2265 JUMP JUMPDEST PUSH1 0x20 MUL PUSH1 0x20 ADD ADD MLOAD DUP5 PUSH1 0x40 MLOAD DUP4 PUSH4 0xFFFFFFFF AND PUSH1 0xE0 SHL DUP2 MSTORE PUSH1 0x4 ADD PUSH2 0x17DF SWAP3 SWAP2 SWAP1 PUSH1 0x1 PUSH1 0x1 PUSH1 0xA0 SHL SUB SWAP3 SWAP1 SWAP3 AND DUP3 MSTORE PUSH1 0x20 DUP3 ADD MSTORE PUSH1 0x40 ADD SWAP1 JUMP JUMPDEST PUSH1 0x0 PUSH1 0x40 MLOAD DUP1 DUP4 SUB DUP2 PUSH1 0x0 DUP8 DUP1 EXTCODESIZE ISZERO DUP1 ISZERO PUSH2 0x17F9 JUMPI PUSH1 0x0 DUP1 REVERT JUMPDEST POP GAS CALL ISZERO DUP1 ISZERO PUSH2 0x180D JUMPI RETURNDATASIZE PUSH1 0x0 DUP1 RETURNDATACOPY RETURNDATASIZE PUSH1 0x0 REVERT JUMPDEST POP POP POP POP JUMPDEST PUSH1 0x1 ADD PUSH2 0x1740 JUMP JUMPDEST POP POP POP POP POP JUMP JUMPDEST PUSH1 0x1 SLOAD PUSH1 0x40 DUP1 MLOAD PUSH4 0x3DC0FF7D PUSH1 0xE0 SHL DUP2 MSTORE SWAP1 MLOAD PUSH1 0x0 SWAP3 PUSH1 0x1 PUSH1 0x1 PUSH1 0xA0 SHL SUB AND SWAP2 PUSH4 0x3DC0FF7D SWAP2 PUSH1 0x4 DUP1 DUP4 ADD SWAP3 DUP7 SWAP3 SWAP2 SWAP1 DUP3 SWAP1 SUB ADD DUP2 DUP7 GAS STATICCALL ISZERO DUP1 ISZERO PUSH2 0x186A JUMPI RETURNDATASIZE PUSH1 0x0 DUP1 RETURNDATACOPY RETURNDATASIZE PUSH1 0x0 REVERT JUMPDEST POP POP POP POP PUSH1 0x40 MLOAD RETURNDATASIZE PUSH1 0x0 DUP3 RETURNDATACOPY PUSH1 0x1F RETURNDATASIZE SWAP1 DUP2 ADD PUSH1 0x1F NOT AND DUP3 ADD PUSH1 0x40 MSTORE PUSH2 0x1892 SWAP2 SWAP1 DUP2 ADD SWAP1 PUSH2 0x2366 JUMP JUMPDEST SWAP1 POP PUSH1 0x0 JUMPDEST DUP2 MLOAD DUP2 LT ISZERO PUSH2 0x19BC JUMPI PUSH1 0x0 DUP3 DUP3 DUP2 MLOAD DUP2 LT PUSH2 0x18B4 JUMPI PUSH2 0x18B4 PUSH2 0x2265 JUMP JUMPDEST PUSH1 0x20 MUL PUSH1 0x20 ADD ADD MLOAD SWAP1 POP PUSH1 0x0 PUSH1 0x3 DUP3 PUSH1 0x40 MLOAD PUSH2 0x18D0 SWAP2 SWAP1 PUSH2 0x22D3 JUMP JUMPDEST SWAP1 DUP2 MSTORE PUSH1 0x40 DUP1 MLOAD SWAP2 DUP3 SWAP1 SUB PUSH1 0x20 SWAP1 DUP2 ADD DUP4 KECCAK256 DUP1 SLOAD DUP1 DUP4 MUL DUP6 ADD DUP4 ADD SWAP1 SWAP4 MSTORE DUP3 DUP5 MSTORE SWAP2 SWAP1 DUP4 ADD DUP3 DUP3 DUP1 ISZERO PUSH2 0x192C JUMPI PUSH1 0x20 MUL DUP3 ADD SWAP2 SWAP1 PUSH1 0x0 MSTORE PUSH1 0x20 PUSH1 0x0 KECCAK256 SWAP1 JUMPDEST DUP2 SLOAD PUSH1 0x1 PUSH1 0x1 PUSH1 0xA0 SHL SUB AND DUP2 MSTORE PUSH1 0x1 SWAP1 SWAP2 ADD SWAP1 PUSH1 0x20 ADD DUP1 DUP4 GT PUSH2 0x190E JUMPI JUMPDEST POP POP POP POP POP SWAP1 POP PUSH1 0x0 JUMPDEST DUP2 MLOAD DUP2 LT ISZERO PUSH2 0x19B1 JUMPI PUSH1 0x0 PUSH1 0x4 DUP5 PUSH1 0x40 MLOAD PUSH2 0x1951 SWAP2 SWAP1 PUSH2 0x22D3 JUMP JUMPDEST SWAP1 DUP2 MSTORE PUSH1 0x20 ADD PUSH1 0x40 MLOAD DUP1 SWAP2 SUB SWAP1 KECCAK256 PUSH1 0x0 DUP5 DUP5 DUP2 MLOAD DUP2 LT PUSH2 0x1973 JUMPI PUSH2 0x1973 PUSH2 0x2265 JUMP JUMPDEST PUSH1 0x20 SWAP1 DUP2 MUL SWAP2 SWAP1 SWAP2 ADD DUP2 ADD MLOAD PUSH1 0x1 PUSH1 0x1 PUSH1 0xA0 SHL SUB AND DUP3 MSTORE DUP2 ADD SWAP2 SWAP1 SWAP2 MSTORE PUSH1 0x40 ADD PUSH1 0x0 KECCAK256 PUSH1 0x1 SWAP1 DUP2 ADD DUP1 SLOAD PUSH1 0xFF NOT AND SWAP3 ISZERO ISZERO SWAP3 SWAP1 SWAP3 OR SWAP1 SWAP2 SSTORE ADD PUSH2 0x1936 JUMP JUMPDEST POP POP POP PUSH1 0x1 ADD PUSH2 0x1897 JUMP JUMPDEST POP POP JUMP JUMPDEST PUSH1 0x1 SLOAD PUSH1 0xA SLOAD PUSH1 0x40 MLOAD PUSH4 0x85D8F13D PUSH1 0xE0 SHL DUP2 MSTORE PUSH1 0x60 SWAP3 PUSH1 0x1 PUSH1 0x1 PUSH1 0xA0 SHL SUB AND SWAP2 PUSH4 0x85D8F13D SWAP2 PUSH2 0x19F4 SWAP2 DUP7 SWAP2 PUSH1 0x4 ADD PUSH2 0x2496 JUMP JUMPDEST PUSH1 0x0 PUSH1 0x40 MLOAD DUP1 DUP4 SUB DUP2 DUP7 GAS STATICCALL ISZERO DUP1 ISZERO PUSH2 0x1A11 JUMPI RETURNDATASIZE PUSH1 0x0 DUP1 RETURNDATACOPY RETURNDATASIZE PUSH1 0x0 REVERT JUMPDEST POP POP POP POP PUSH1 0x40 MLOAD RETURNDATASIZE PUSH1 0x0 DUP3 RETURNDATACOPY PUSH1 0x1F RETURNDATASIZE SWAP1 DUP2 ADD PUSH1 0x1F NOT AND DUP3 ADD PUSH1 0x40 MSTORE PUSH2 0x11E7 SWAP2 SWAP1 DUP2 ADD SWAP1 PUSH2 0x2502 JUMP JUMPDEST PUSH1 0x0 DUP1 PUSH1 0xA SLOAD TIMESTAMP PUSH2 0x1A4A SWAP2 SWAP1 PUSH2 0x22EF JUMP JUMPDEST SWAP1 POP PUSH2 0x258 DUP2 GT ISZERO PUSH2 0x1A5B JUMPI POP PUSH2 0x258 JUMPDEST PUSH2 0x1A6D PUSH8 0xDE0B6B3A7640000 DUP3 PUSH2 0x2452 JUMP JUMPDEST SWAP2 POP POP SWAP1 JUMP JUMPDEST DUP3 DUP1 SLOAD DUP3 DUP3 SSTORE SWAP1 PUSH1 0x0 MSTORE PUSH1 0x20 PUSH1 0x0 KECCAK256 SWAP1 DUP2 ADD SWAP3 DUP3 ISZERO PUSH2 0x1AB9 JUMPI SWAP2 PUSH1 0x20 MUL DUP3 ADD JUMPDEST DUP3 DUP2 GT ISZERO PUSH2 0x1AB9 JUMPI DUP3 MLOAD DUP3 SWAP1 PUSH2 0x1AA9 SWAP1 DUP3 PUSH2 0x25EB JUMP JUMPDEST POP SWAP2 PUSH1 0x20 ADD SWAP2 SWAP1 PUSH1 0x1 ADD SWAP1 PUSH2 0x1A93 JUMP JUMPDEST POP PUSH2 0x1AC5 SWAP3 SWAP2 POP PUSH2 0x1AC9 JUMP JUMPDEST POP SWAP1 JUMP JUMPDEST DUP1 DUP3 GT ISZERO PUSH2 0x1AC5 JUMPI PUSH1 0x0 PUSH2 0x1ADD DUP3 DUP3 PUSH2 0x1AE6 JUMP JUMPDEST POP PUSH1 0x1 ADD PUSH2 0x1AC9 JUMP JUMPDEST POP DUP1 SLOAD PUSH2 0x1AF2 SWAP1 PUSH2 0x232C JUMP JUMPDEST PUSH1 0x0 DUP3 SSTORE DUP1 PUSH1 0x1F LT PUSH2 0x1B02 JUMPI POP POP JUMP JUMPDEST PUSH1 0x1F ADD PUSH1 0x20 SWAP1 DIV SWAP1 PUSH1 0x0 MSTORE PUSH1 0x20 PUSH1 0x0 KECCAK256 SWAP1 DUP2 ADD SWAP1 PUSH2 0x139E SWAP2 SWAP1 JUMPDEST DUP1 DUP3 GT ISZERO PUSH2 0x1AC5 JUMPI PUSH1 0x0 DUP2 SSTORE PUSH1 0x1 ADD PUSH2 0x1B1C JUMP JUMPDEST DUP1 PUSH2 0x4000 DUP2 ADD DUP4 LT ISZERO PUSH2 0x11E7 JUMPI PUSH1 0x0 DUP1 REVERT JUMPDEST DUP1 PUSH2 0x2000 DUP2 ADD DUP4 LT ISZERO PUSH2 0x11E7 JUMPI PUSH1 0x0 DUP1 REVERT JUMPDEST PUSH1 0x1 PUSH1 0x1 PUSH1 0xA0 SHL SUB DUP2 AND DUP2 EQ PUSH2 0x139E JUMPI PUSH1 0x0 DUP1 REVERT JUMPDEST DUP1 CALLDATALOAD PUSH2 0x1B74 DUP2 PUSH2 0x1B54 JUMP JUMPDEST SWAP2 SWAP1 POP JUMP JUMPDEST PUSH1 0x0 DUP1 PUSH1 0x0 DUP1 PUSH2 0x4060 DUP6 DUP8 SUB SLT ISZERO PUSH2 0x1B90 JUMPI PUSH1 0x0 DUP1 REVERT JUMPDEST PUSH2 0x1B9A DUP7 DUP7 PUSH2 0x1B30 JUMP JUMPDEST SWAP4 POP PUSH2 0x4000 DUP6 ADD CALLDATALOAD PUSH1 0x1 PUSH1 0x1 PUSH1 0x40 SHL SUB DUP2 GT ISZERO PUSH2 0x1BB6 JUMPI PUSH1 0x0 DUP1 REVERT JUMPDEST PUSH2 0x1BC2 DUP8 DUP3 DUP9 ADD PUSH2 0x1B42 JUMP JUMPDEST SWAP4 POP POP PUSH2 0x4020 DUP6 ADD CALLDATALOAD SWAP2 POP PUSH2 0x4040 DUP6 ADD CALLDATALOAD PUSH2 0x1BDC DUP2 PUSH2 0x1B54 JUMP JUMPDEST SWAP4 SWAP7 SWAP3 SWAP6 POP SWAP1 SWAP4 POP POP JUMP JUMPDEST PUSH1 0x0 DUP1 PUSH1 0x0 DUP1 PUSH2 0x4060 DUP6 DUP8 SUB SLT ISZERO PUSH2 0x1BFE JUMPI PUSH1 0x0 DUP1 REVERT JUMPDEST DUP5 CALLDATALOAD SWAP4 POP PUSH2 0x1C0F DUP7 PUSH1 0x20 DUP8 ADD PUSH2 0x1B30 JUMP JUMPDEST SWAP3 POP PUSH2 0x4020 DUP6 ADD CALLDATALOAD PUSH1 0x1 PUSH1 0x1 PUSH1 0x40 SHL SUB DUP2 GT ISZERO PUSH2 0x1C2B JUMPI PUSH1 0x0 DUP1 REVERT JUMPDEST PUSH2 0x1C37 DUP8 DUP3 DUP9 ADD PUSH2 0x1B42 JUMP JUMPDEST SWAP5 SWAP8 SWAP4 SWAP7 POP SWAP4 SWAP5 PUSH2 0x4040 ADD CALLDATALOAD SWAP4 POP POP POP JUMP JUMPDEST PUSH4 0x4E487B71 PUSH1 0xE0 SHL PUSH1 0x0 MSTORE PUSH1 0x41 PUSH1 0x4 MSTORE PUSH1 0x24 PUSH1 0x0 REVERT JUMPDEST PUSH1 0x40 DUP1 MLOAD SWAP1 DUP2 ADD PUSH1 0x1 PUSH1 0x1 PUSH1 0x40 SHL SUB DUP2 GT DUP3 DUP3 LT OR ISZERO PUSH2 0x1C81 JUMPI PUSH2 0x1C81 PUSH2 0x1C49 JUMP JUMPDEST PUSH1 0x40 MSTORE SWAP1 JUMP JUMPDEST PUSH1 0x40 MLOAD PUSH1 0x1F DUP3 ADD PUSH1 0x1F NOT AND DUP2 ADD PUSH1 0x1 PUSH1 0x1 PUSH1 0x40 SHL SUB DUP2 GT DUP3 DUP3 LT OR ISZERO PUSH2 0x1CAF JUMPI PUSH2 0x1CAF PUSH2 0x1C49 JUMP JUMPDEST PUSH1 0x40 MSTORE SWAP2 SWAP1 POP JUMP JUMPDEST PUSH1 0x0 PUSH1 0x1 PUSH1 0x1 PUSH1 0x40 SHL SUB DUP3 GT ISZERO PUSH2 0x1CD0 JUMPI PUSH2 0x1CD0 PUSH2 0x1C49 JUMP JUMPDEST POP PUSH1 0x1F ADD PUSH1 0x1F NOT AND PUSH1 0x20 ADD SWAP1 JUMP JUMPDEST PUSH1 0x0 DUP3 PUSH1 0x1F DUP4 ADD SLT PUSH2 0x1CEF JUMPI PUSH1 0x0 DUP1 REVERT JUMPDEST DUP2 CALLDATALOAD PUSH2 0x1D02 PUSH2 0x1CFD DUP3 PUSH2 0x1CB7 JUMP JUMPDEST PUSH2 0x1C87 JUMP JUMPDEST DUP2 DUP2 MSTORE DUP5 PUSH1 0x20 DUP4 DUP7 ADD ADD GT ISZERO PUSH2 0x1D17 JUMPI PUSH1 0x0 DUP1 REVERT JUMPDEST DUP2 PUSH1 0x20 DUP6 ADD PUSH1 0x20 DUP4 ADD CALLDATACOPY PUSH1 0x0 SWAP2 DUP2 ADD PUSH1 0x20 ADD SWAP2 SWAP1 SWAP2 MSTORE SWAP4 SWAP3 POP POP POP JUMP JUMPDEST PUSH1 0x0 DUP1 PUSH1 0x40 DUP4 DUP6 SUB SLT ISZERO PUSH2 0x1D47 JUMPI PUSH1 0x0 DUP1 REVERT JUMPDEST DUP3 CALLDATALOAD PUSH1 0x1 PUSH1 0x1 PUSH1 0x40 SHL SUB DUP2 GT ISZERO PUSH2 0x1D5D JUMPI PUSH1 0x0 DUP1 REVERT JUMPDEST PUSH2 0x1D69 DUP6 DUP3 DUP7 ADD PUSH2 0x1CDE JUMP JUMPDEST SWAP3 POP POP PUSH1 0x20 DUP4 ADD CALLDATALOAD PUSH2 0x1D7A DUP2 PUSH2 0x1B54 JUMP JUMPDEST DUP1 SWAP2 POP POP SWAP3 POP SWAP3 SWAP1 POP JUMP JUMPDEST PUSH1 0x0 PUSH1 0x1 PUSH1 0x1 PUSH1 0x40 SHL SUB DUP3 GT ISZERO PUSH2 0x1D9E JUMPI PUSH2 0x1D9E PUSH2 0x1C49 JUMP JUMPDEST POP PUSH1 0x5 SHL PUSH1 0x20 ADD SWAP1 JUMP JUMPDEST DUP1 ISZERO ISZERO DUP2 EQ PUSH2 0x139E JUMPI PUSH1 0x0 DUP1 REVERT JUMPDEST DUP1 CALLDATALOAD PUSH2 0x1B74 DUP2 PUSH2 0x1DA8 JUMP JUMPDEST PUSH1 0x0 DUP1 PUSH1 0x0 PUSH1 0x60 DUP5 DUP7 SUB SLT ISZERO PUSH2 0x1DD6 JUMPI PUSH1 0x0 DUP1 REVERT JUMPDEST PUSH1 0x1 PUSH1 0x1 PUSH1 0x40 SHL SUB DUP1 DUP6 CALLDATALOAD GT ISZERO PUSH2 0x1DEC JUMPI PUSH1 0x0 DUP1 REVERT JUMPDEST DUP5 CALLDATALOAD DUP6 ADD DUP7 PUSH1 0x1F DUP3 ADD SLT PUSH2 0x1DFF JUMPI PUSH1 0x0 DUP1 REVERT JUMPDEST PUSH2 0x1E0C PUSH2 0x1CFD DUP3 CALLDATALOAD PUSH2 0x1D85 JUMP JUMPDEST DUP2 CALLDATALOAD DUP1 DUP3 MSTORE PUSH1 0x20 DUP1 DUP4 ADD SWAP3 SWAP2 PUSH1 0x5 SHL DUP5 ADD ADD DUP10 LT ISZERO PUSH2 0x1E2A JUMPI PUSH1 0x0 DUP1 REVERT JUMPDEST PUSH1 0x20 DUP4 ADD JUMPDEST PUSH1 0x20 DUP5 CALLDATALOAD PUSH1 0x5 SHL DUP6 ADD ADD DUP2 LT ISZERO PUSH2 0x1F52 JUMPI DUP5 DUP2 CALLDATALOAD GT ISZERO PUSH2 0x1E4E JUMPI PUSH1 0x0 DUP1 REVERT JUMPDEST DUP1 CALLDATALOAD DUP5 ADD PUSH1 0x40 DUP2 DUP13 SUB PUSH1 0x1F NOT ADD SLT ISZERO PUSH2 0x1E66 JUMPI PUSH1 0x0 DUP1 REVERT JUMPDEST PUSH2 0x1E6E PUSH2 0x1C5F JUMP JUMPDEST DUP7 PUSH1 0x20 DUP4 ADD CALLDATALOAD GT ISZERO PUSH2 0x1E7F JUMPI PUSH1 0x0 DUP1 REVERT JUMPDEST PUSH2 0x1E91 DUP13 PUSH1 0x20 DUP1 DUP6 ADD CALLDATALOAD DUP6 ADD ADD PUSH2 0x1CDE JUMP JUMPDEST DUP2 MSTORE DUP7 PUSH1 0x40 DUP4 ADD CALLDATALOAD GT ISZERO PUSH2 0x1EA4 JUMPI PUSH1 0x0 DUP1 REVERT JUMPDEST PUSH1 0x40 DUP3 ADD CALLDATALOAD DUP3 ADD SWAP2 POP DUP12 PUSH1 0x3F DUP4 ADD SLT PUSH2 0x1EBC JUMPI PUSH1 0x0 DUP1 REVERT JUMPDEST PUSH2 0x1ECC PUSH2 0x1CFD PUSH1 0x20 DUP5 ADD CALLDATALOAD PUSH2 0x1D85 JUMP JUMPDEST PUSH1 0x20 DUP4 DUP2 ADD CALLDATALOAD DUP1 DUP4 MSTORE SWAP1 DUP3 ADD SWAP2 SWAP1 PUSH1 0x5 SHL DUP5 ADD PUSH1 0x40 ADD DUP15 LT ISZERO PUSH2 0x1EEE JUMPI PUSH1 0x0 DUP1 REVERT JUMPDEST PUSH1 0x40 DUP5 ADD JUMPDEST PUSH1 0x40 PUSH1 0x20 DUP7 ADD CALLDATALOAD PUSH1 0x5 SHL DUP7 ADD ADD DUP2 LT ISZERO PUSH2 0x1F33 JUMPI DUP10 DUP2 CALLDATALOAD GT ISZERO PUSH2 0x1F15 JUMPI PUSH1 0x0 DUP1 REVERT JUMPDEST PUSH2 0x1F25 DUP16 PUSH1 0x40 DUP4 CALLDATALOAD DUP9 ADD ADD PUSH2 0x1CDE JUMP JUMPDEST DUP4 MSTORE PUSH1 0x20 SWAP3 DUP4 ADD SWAP3 ADD PUSH2 0x1EF3 JUMP JUMPDEST POP DUP1 PUSH1 0x20 DUP5 ADD MSTORE POP POP DUP1 DUP6 MSTORE POP POP PUSH1 0x20 DUP4 ADD SWAP3 POP PUSH1 0x20 DUP2 ADD SWAP1 POP PUSH2 0x1E2F JUMP JUMPDEST POP SWAP6 POP PUSH2 0x1F65 SWAP3 POP POP POP PUSH1 0x20 DUP6 ADD PUSH2 0x1B69 JUMP JUMPDEST SWAP2 POP PUSH2 0x1F73 PUSH1 0x40 DUP6 ADD PUSH2 0x1DB6 JUMP JUMPDEST SWAP1 POP SWAP3 POP SWAP3 POP SWAP3 JUMP JUMPDEST PUSH1 0x0 DUP1 PUSH1 0x40 DUP4 DUP6 SUB SLT ISZERO PUSH2 0x1F8F JUMPI PUSH1 0x0 DUP1 REVERT JUMPDEST POP POP DUP1 CALLDATALOAD SWAP3 PUSH1 0x20 SWAP1 SWAP2 ADD CALLDATALOAD SWAP2 POP JUMP JUMPDEST PUSH1 0x0 JUMPDEST DUP4 DUP2 LT ISZERO PUSH2 0x1FB9 JUMPI DUP2 DUP2 ADD MLOAD DUP4 DUP3 ADD MSTORE PUSH1 0x20 ADD PUSH2 0x1FA1 JUMP JUMPDEST POP POP PUSH1 0x0 SWAP2 ADD MSTORE JUMP JUMPDEST PUSH1 0x0 DUP2 MLOAD DUP1 DUP5 MSTORE PUSH2 0x1FDA DUP2 PUSH1 0x20 DUP7 ADD PUSH1 0x20 DUP7 ADD PUSH2 0x1F9E JUMP JUMPDEST PUSH1 0x1F ADD PUSH1 0x1F NOT AND SWAP3 SWAP1 SWAP3 ADD PUSH1 0x20 ADD SWAP3 SWAP2 POP POP JUMP JUMPDEST PUSH1 0x20 DUP2 MSTORE PUSH1 0x0 PUSH2 0x2001 PUSH1 0x20 DUP4 ADD DUP5 PUSH2 0x1FC2 JUMP JUMPDEST SWAP4 SWAP3 POP POP POP JUMP JUMPDEST PUSH1 0x0 PUSH1 0x20 DUP3 DUP5 SUB SLT ISZERO PUSH2 0x201A JUMPI PUSH1 0x0 DUP1 REVERT JUMPDEST DUP2 CALLDATALOAD PUSH2 0x2001 DUP2 PUSH2 0x1B54 JUMP JUMPDEST PUSH1 0x60 SWAP2 SWAP1 SWAP2 SHL PUSH12 0xFFFFFFFFFFFFFFFFFFFFFFFF NOT AND DUP2 MSTORE PUSH1 0x14 ADD SWAP1 JUMP JUMPDEST DUP2 DUP4 MSTORE DUP2 DUP2 PUSH1 0x20 DUP6 ADD CALLDATACOPY POP PUSH1 0x0 DUP3 DUP3 ADD PUSH1 0x20 SWAP1 DUP2 ADD SWAP2 SWAP1 SWAP2 MSTORE PUSH1 0x1F SWAP1 SWAP2 ADD PUSH1 0x1F NOT AND SWAP1 SWAP2 ADD ADD SWAP1 JUMP JUMPDEST PUSH1 0x0 PUSH2 0x4060 DUP3 DUP2 ADD DUP4 DUP9 DUP5 JUMPDEST PUSH2 0x100 DUP2 LT ISZERO PUSH2 0x2098 JUMPI PUSH1 0x40 DUP1 DUP4 DUP6 CALLDATACOPY SWAP3 DUP4 ADD SWAP3 SWAP2 SWAP1 SWAP2 ADD SWAP1 PUSH1 0x1 ADD PUSH2 0x2077 JUMP JUMPDEST POP POP POP PUSH2 0x4000 DUP5 ADD SWAP2 SWAP1 SWAP2 MSTORE PUSH2 0x6060 DUP4 ADD DUP7 PUSH1 0x0 JUMPDEST PUSH2 0x100 DUP2 LT ISZERO PUSH2 0x2123 JUMPI DUP6 DUP4 SUB PUSH2 0x405F NOT ADD DUP5 MSTORE DUP2 CALLDATALOAD CALLDATASIZE DUP11 SWAP1 SUB PUSH1 0x1E NOT ADD DUP2 SLT PUSH2 0x20D6 JUMPI PUSH1 0x0 DUP1 REVERT JUMPDEST DUP10 ADD PUSH1 0x20 DUP2 DUP2 ADD SWAP2 CALLDATALOAD SWAP1 PUSH1 0x1 PUSH1 0x1 PUSH1 0x40 SHL SUB DUP3 GT ISZERO PUSH2 0x20F4 JUMPI PUSH1 0x0 DUP1 REVERT JUMPDEST DUP2 CALLDATASIZE SUB DUP4 SGT ISZERO PUSH2 0x2103 JUMPI PUSH1 0x0 DUP1 REVERT JUMPDEST PUSH2 0x210E DUP7 DUP4 DUP6 PUSH2 0x2042 JUMP JUMPDEST SWAP7 DUP2 ADD SWAP7 SWAP6 POP SWAP4 SWAP1 SWAP4 ADD SWAP3 POP POP PUSH1 0x1 ADD PUSH2 0x20AD JUMP JUMPDEST POP POP DUP6 PUSH2 0x4020 DUP6 ADD MSTORE DUP4 DUP2 SUB PUSH2 0x4040 DUP6 ADD MSTORE PUSH2 0x213F DUP2 DUP7 PUSH2 0x1FC2 JUMP JUMPDEST SWAP9 SWAP8 POP POP POP POP POP POP POP POP JUMP JUMPDEST PUSH1 0x0 PUSH1 0x20 DUP3 DUP5 SUB SLT ISZERO PUSH2 0x215D JUMPI PUSH1 0x0 DUP1 REVERT JUMPDEST DUP2 MLOAD PUSH2 0x2001 DUP2 PUSH2 0x1DA8 JUMP JUMPDEST PUSH1 0x0 DUP2 DUP4 DUP3 JUMPDEST PUSH2 0x100 DUP2 LT ISZERO PUSH2 0x218F JUMPI PUSH1 0x40 DUP1 DUP4 DUP6 CALLDATACOPY SWAP3 DUP4 ADD SWAP3 SWAP2 SWAP1 SWAP2 ADD SWAP1 PUSH1 0x1 ADD PUSH2 0x216E JUMP JUMPDEST POP POP POP PUSH2 0x4000 DUP3 ADD SWAP1 POP SWAP3 SWAP2 POP POP JUMP JUMPDEST PUSH1 0x0 DUP1 PUSH1 0x0 PUSH1 0x60 DUP5 DUP7 SUB SLT ISZERO PUSH2 0x21B4 JUMPI PUSH1 0x0 DUP1 REVERT JUMPDEST DUP4 MLOAD PUSH1 0x3 DUP2 LT PUSH2 0x21C3 JUMPI PUSH1 0x0 DUP1 REVERT JUMPDEST PUSH1 0x20 DUP6 ADD MLOAD PUSH1 0x40 SWAP1 SWAP6 ADD MLOAD SWAP1 SWAP7 SWAP5 SWAP6 POP SWAP4 SWAP3 POP POP POP JUMP JUMPDEST PUSH1 0x0 DUP1 PUSH1 0x40 DUP4 DUP6 SUB SLT ISZERO PUSH2 0x21ED JUMPI PUSH1 0x0 DUP1 REVERT JUMPDEST POP POP DUP1 MLOAD PUSH1 0x20 SWAP1 SWAP2 ADD MLOAD SWAP1 SWAP3 SWAP1 SWAP2 POP JUMP JUMPDEST PUSH1 0x20 DUP1 DUP3 MSTORE PUSH1 0x41 SWAP1 DUP3 ADD MSTORE PUSH32 0x53616D6520504B48207573656420666F7220626F74682073746570733B207573 PUSH1 0x40 DUP3 ADD MSTORE PUSH32 0x652061207365706172617465206B657920666F7220636F6E6669726D6174696F PUSH1 0x60 DUP3 ADD MSTORE PUSH1 0x37 PUSH1 0xF9 SHL PUSH1 0x80 DUP3 ADD MSTORE PUSH1 0xA0 ADD SWAP1 JUMP JUMPDEST PUSH4 0x4E487B71 PUSH1 0xE0 SHL PUSH1 0x0 MSTORE PUSH1 0x32 PUSH1 0x4 MSTORE PUSH1 0x24 PUSH1 0x0 REVERT JUMPDEST PUSH1 0x0 DUP4 MLOAD PUSH2 0x228D DUP2 DUP5 PUSH1 0x20 DUP9 ADD PUSH2 0x1F9E JUMP JUMPDEST DUP4 MLOAD SWAP1 DUP4 ADD SWAP1 PUSH2 0x22A1 DUP2 DUP4 PUSH1 0x20 DUP9 ADD PUSH2 0x1F9E JUMP JUMPDEST ADD SWAP5 SWAP4 POP POP POP POP JUMP JUMPDEST PUSH4 0x4E487B71 PUSH1 0xE0 SHL PUSH1 0x0 MSTORE PUSH1 0x11 PUSH1 0x4 MSTORE PUSH1 0x24 PUSH1 0x0 REVERT JUMPDEST DUP1 DUP3 ADD DUP1 DUP3 GT ISZERO PUSH2 0x11E7 JUMPI PUSH2 0x11E7 PUSH2 0x22AA JUMP JUMPDEST PUSH1 0x0 DUP3 MLOAD PUSH2 0x22E5 DUP2 DUP5 PUSH1 0x20 DUP8 ADD PUSH2 0x1F9E JUMP JUMPDEST SWAP2 SWAP1 SWAP2 ADD SWAP3 SWAP2 POP POP JUMP JUMPDEST DUP2 DUP2 SUB DUP2 DUP2 GT ISZERO PUSH2 0x11E7 JUMPI PUSH2 0x11E7 PUSH2 0x22AA JUMP JUMPDEST PUSH4 0x4E487B71 PUSH1 0xE0 SHL PUSH1 0x0 MSTORE PUSH1 0x12 PUSH1 0x4 MSTORE PUSH1 0x24 PUSH1 0x0 REVERT JUMPDEST PUSH1 0x0 DUP3 PUSH2 0x2327 JUMPI PUSH2 0x2327 PUSH2 0x2302 JUMP JUMPDEST POP MOD SWAP1 JUMP JUMPDEST PUSH1 0x1 DUP2 DUP2 SHR SWAP1 DUP3 AND DUP1 PUSH2 0x2340 JUMPI PUSH1 0x7F DUP3 AND SWAP2 POP JUMPDEST PUSH1 0x20 DUP3 LT DUP2 SUB PUSH2 0x2360 JUMPI PUSH4 0x4E487B71 PUSH1 0xE0 SHL PUSH1 0x0 MSTORE PUSH1 0x22 PUSH1 0x4 MSTORE PUSH1 0x24 PUSH1 0x0 REVERT JUMPDEST POP SWAP2 SWAP1 POP JUMP JUMPDEST PUSH1 0x0 PUSH1 0x20 DUP1 DUP4 DUP6 SUB SLT ISZERO PUSH2 0x2379 JUMPI PUSH1 0x0 DUP1 REVERT JUMPDEST DUP3 MLOAD PUSH1 0x1 PUSH1 0x1 PUSH1 0x40 SHL SUB DUP1 DUP3 GT ISZERO PUSH2 0x2390 JUMPI PUSH1 0x0 DUP1 REVERT JUMPDEST DUP2 DUP6 ADD SWAP2 POP DUP6 PUSH1 0x1F DUP4 ADD SLT PUSH2 0x23A4 JUMPI PUSH1 0x0 DUP1 REVERT JUMPDEST DUP2 MLOAD PUSH2 0x23B2 PUSH2 0x1CFD DUP3 PUSH2 0x1D85 JUMP JUMPDEST DUP2 DUP2 MSTORE PUSH1 0x5 SWAP2 SWAP1 SWAP2 SHL DUP4 ADD DUP5 ADD SWAP1 DUP5 DUP2 ADD SWAP1 DUP9 DUP4 GT ISZERO PUSH2 0x23D1 JUMPI PUSH1 0x0 DUP1 REVERT JUMPDEST DUP6 DUP6 ADD JUMPDEST DUP4 DUP2 LT ISZERO PUSH2 0x2445 JUMPI DUP1 MLOAD DUP6 DUP2 GT ISZERO PUSH2 0x23ED JUMPI PUSH1 0x0 DUP1 DUP2 REVERT JUMPDEST DUP7 ADD PUSH1 0x3F DUP2 ADD DUP12 SGT PUSH2 0x23FF JUMPI PUSH1 0x0 DUP1 DUP2 REVERT JUMPDEST DUP8 DUP2 ADD MLOAD PUSH1 0x40 PUSH2 0x2411 PUSH2 0x1CFD DUP4 PUSH2 0x1CB7 JUMP JUMPDEST DUP3 DUP2 MSTORE DUP14 DUP3 DUP5 DUP7 ADD ADD GT ISZERO PUSH2 0x2426 JUMPI PUSH1 0x0 DUP1 DUP2 REVERT JUMPDEST PUSH2 0x2435 DUP4 DUP13 DUP4 ADD DUP5 DUP8 ADD PUSH2 0x1F9E JUMP JUMPDEST DUP7 MSTORE POP POP POP SWAP2 DUP7 ADD SWAP2 DUP7 ADD PUSH2 0x23D5 JUMP JUMPDEST POP SWAP9 SWAP8 POP POP POP POP POP POP POP POP JUMP JUMPDEST DUP1 DUP3 MUL DUP2 ISZERO DUP3 DUP3 DIV DUP5 EQ OR PUSH2 0x11E7 JUMPI PUSH2 0x11E7 PUSH2 0x22AA JUMP JUMPDEST PUSH1 0x0 DUP3 PUSH2 0x2478 JUMPI PUSH2 0x2478 PUSH2 0x2302 JUMP JUMPDEST POP DIV SWAP1 JUMP JUMPDEST PUSH1 0x0 PUSH1 0x1 DUP3 ADD PUSH2 0x248F JUMPI PUSH2 0x248F PUSH2 0x22AA JUMP JUMPDEST POP PUSH1 0x1 ADD SWAP1 JUMP JUMPDEST PUSH1 0x0 PUSH1 0x40 DUP3 ADD PUSH1 0x40 DUP4 MSTORE DUP1 DUP6 MLOAD DUP1 DUP4 MSTORE PUSH1 0x60 DUP6 ADD SWAP2 POP PUSH1 0x60 DUP2 PUSH1 0x5 SHL DUP7 ADD ADD SWAP3 POP PUSH1 0x20 DUP1 DUP9 ADD PUSH1 0x0 JUMPDEST DUP4 DUP2 LT ISZERO PUSH2 0x24ED JUMPI PUSH1 0x5F NOT DUP9 DUP8 SUB ADD DUP6 MSTORE PUSH2 0x24DB DUP7 DUP4 MLOAD PUSH2 0x1FC2 JUMP JUMPDEST SWAP6 POP SWAP4 DUP3 ADD SWAP4 SWAP1 DUP3 ADD SWAP1 PUSH1 0x1 ADD PUSH2 0x24BF JUMP JUMPDEST POP POP POP POP POP PUSH1 0x20 SWAP3 SWAP1 SWAP3 ADD SWAP3 SWAP1 SWAP3 MSTORE SWAP3 SWAP2 POP POP JUMP JUMPDEST PUSH1 0x0 PUSH1 0x20 DUP1 DUP4 DUP6 SUB SLT ISZERO PUSH2 0x2515 JUMPI PUSH1 0x0 DUP1 REVERT JUMPDEST DUP3 MLOAD PUSH1 0x1 PUSH1 0x1 PUSH1 0x40 SHL SUB DUP2 GT ISZERO PUSH2 0x252B JUMPI PUSH1 0x0 DUP1 REVERT JUMPDEST DUP4 ADD PUSH1 0x1F DUP2 ADD DUP6 SGT PUSH2 0x253C JUMPI PUSH1 0x0 DUP1 REVERT JUMPDEST DUP1 MLOAD PUSH2 0x254A PUSH2 0x1CFD DUP3 PUSH2 0x1D85 JUMP JUMPDEST DUP2 DUP2 MSTORE PUSH1 0x5 SWAP2 SWAP1 SWAP2 SHL DUP3 ADD DUP4 ADD SWAP1 DUP4 DUP2 ADD SWAP1 DUP8 DUP4 GT ISZERO PUSH2 0x2569 JUMPI PUSH1 0x0 DUP1 REVERT JUMPDEST SWAP3 DUP5 ADD SWAP3 JUMPDEST DUP3 DUP5 LT ISZERO PUSH2 0x2590 JUMPI DUP4 MLOAD PUSH2 0x2581 DUP2 PUSH2 0x1B54 JUMP JUMPDEST DUP3 MSTORE SWAP3 DUP5 ADD SWAP3 SWAP1 DUP5 ADD SWAP1 PUSH2 0x256E JUMP JUMPDEST SWAP8 SWAP7 POP POP POP POP POP POP POP JUMP JUMPDEST PUSH1 0x1F DUP3 GT ISZERO PUSH2 0x12CD JUMPI PUSH1 0x0 DUP2 PUSH1 0x0 MSTORE PUSH1 0x20 PUSH1 0x0 KECCAK256 PUSH1 0x1F DUP6 ADD PUSH1 0x5 SHR DUP2 ADD PUSH1 0x20 DUP7 LT ISZERO PUSH2 0x25C4 JUMPI POP DUP1 JUMPDEST PUSH1 0x1F DUP6 ADD PUSH1 0x5 SHR DUP3 ADD SWAP2 POP JUMPDEST DUP2 DUP2 LT ISZERO PUSH2 0x25E3 JUMPI DUP3 DUP2 SSTORE PUSH1 0x1 ADD PUSH2 0x25D0 JUMP JUMPDEST POP POP POP POP POP POP JUMP JUMPDEST DUP2 MLOAD PUSH1 0x1 PUSH1 0x1 PUSH1 0x40 SHL SUB DUP2 GT ISZERO PUSH2 0x2604 JUMPI PUSH2 0x2604 PUSH2 0x1C49 JUMP JUMPDEST PUSH2 0x2618 DUP2 PUSH2 0x2612 DUP5 SLOAD PUSH2 0x232C JUMP JUMPDEST DUP5 PUSH2 0x259B JUMP JUMPDEST PUSH1 0x20 DUP1 PUSH1 0x1F DUP4 GT PUSH1 0x1 DUP2 EQ PUSH2 0x264D JUMPI PUSH1 0x0 DUP5 ISZERO PUSH2 0x2635 JUMPI POP DUP6 DUP4 ADD MLOAD JUMPDEST PUSH1 0x0 NOT PUSH1 0x3 DUP7 SWAP1 SHL SHR NOT AND PUSH1 0x1 DUP6 SWAP1 SHL OR DUP6 SSTORE PUSH2 0x25E3 JUMP JUMPDEST PUSH1 0x0 DUP6 DUP2 MSTORE PUSH1 0x20 DUP2 KECCAK256 PUSH1 0x1F NOT DUP7 AND SWAP2 JUMPDEST DUP3 DUP2 LT ISZERO PUSH2 0x267C JUMPI DUP9 DUP7 ADD MLOAD DUP3 SSTORE SWAP5 DUP5 ADD SWAP5 PUSH1 0x1 SWAP1 SWAP2 ADD SWAP1 DUP5 ADD PUSH2 0x265D JUMP JUMPDEST POP DUP6 DUP3 LT ISZERO PUSH2 0x269A JUMPI DUP8 DUP6 ADD MLOAD PUSH1 0x0 NOT PUSH1 0x3 DUP9 SWAP1 SHL PUSH1 0xF8 AND SHR NOT AND DUP2 SSTORE JUMPDEST POP POP POP POP POP PUSH1 0x1 SWAP1 DUP2 SHL ADD SWAP1 SSTORE POP JUMP INVALID LOG2 PUSH5 0x6970667358 0x22 SLT KECCAK256 0xE6 0xBA CALL RETURN SSTORE PUSH13 0x354A4B5B90BD3C3258C86830F7 PUSH17 0xE3231F1DC324A523D040A2A264736F6C63 NUMBER STOP ADDMOD XOR STOP CALLER ",
  "sha1": "0995df456474d55fdddc40bfaaee52d713f31c65",
  "source": "// SPDX-License-Identifier: MIT\n\npragma solidity ^0.8.0;\ninterface ILamportBase {\n\n    enum KeyType { MASTER, ORACLE, DELETED }\n\n    function performLamportOracleCheck(\n        bytes32[2][256] calldata currentpub,\n        bytes[256] calldata sig,\n        bytes32 nextPKH,\n        bytes memory prepacked\n    ) external returns (bool);\n    function performLamportMasterCheck(\n        bytes32[2][256] calldata currentpub,\n        bytes[256] calldata sig,\n        bytes32 nextPKH,\n        bytes memory prepacked\n    ) external returns (bool);\n\n    function getKeyAndIndexByPKH(bytes32 pkh) external view returns (KeyType, bytes32, uint);\n\n}\n\ninterface IPlayerDatabase {\n\n    function getOracleKeyIndices(address _address) external view returns (uint256 oracleKeyIndex1, uint256 oracleKeyIndex2);\n    function getAllPlayerNames() external view returns (string[] memory);\n    function getServerIPList() external view returns (string[] memory);\n    function getValidRewardAddressesByNames(string[] memory playerNames, uint256 lastMintTime) external view returns (address[] memory);\n    function isValidator(address _address) external view returns (bool);\n\n}\ninterface IGP_Mint {\n    function mintTokens(address to, uint256 amount) external;\n    // Add other function signatures as needed\n}\ncontract GameValidator {\n\n    ILamportBase public lamportBase;\n\n    IPlayerDatabase playerDatabase;\n    IGP_Mint public mintContract;\n    event MintContractUpdated(address mintContractAddress);\n    event PlayerDatabaseAddressUpdated(address playerDatabaseAddress);\n\n    mapping(string => address[]) private validatorsPerServerIP;\n    mapping(string => mapping(address => ServerSubmission)) public serverSubmissions; \n    mapping(bytes32 => string[]) public hashToPlayerList; // playerListHash -> playerNames\n    mapping(address => address) private proposedMintContractAddresses;\n    mapping(address => address) private proposedPlayerDatabaseAddresses;\n    mapping(address => bytes32) private submittedPlayerListHashes;\n\n    bytes32 private lastUsedNextPKH;\n\n    uint256 public lastMintTime;\n    uint256 public constant MINT_INTERVAL = 5 minutes;\n    uint256 public constant MAX_PLAYERS_PER_SUBMISSION = 64;\n    uint256 public constant MAX_MINT_TIME = 10 minutes; // 10 minutes cap\n    uint256 public constant TOKENS_PER_SECOND = (1e18 * 60) / 60; // 1e18 represents 1 token, and we divide by 60 seconds\n    address _playerDatabaseAddress = 0xB03A6aFd440a2a9db8834F1A6093680f02f1114C;\n    address _mintContractAddress = 0xdd17d01307f2FF3a18390F3CDC564Cec0F4A0A1D;\n    constructor() {\n\n        lamportBase = ILamportBase(0xB3830AE69EE5962355e84f6bbAC274Ff337960E5);\n        playerDatabase = IPlayerDatabase(_playerDatabaseAddress);\n        mintContract = IGP_Mint(_mintContractAddress);\n    }\n\n    struct ServerSubmission {\n        //address validator;\n        bytes32 playerListHash; // Hash of the player list for gas efficiency\n        bool canMint;\n    }\n\n    struct ServerPlayers {\n        string serverIP;\n        string[] playerNames;\n    }\n    //mapping(string => ServerSubmission[]) public serverSubmissions; // serverIP -> submissions\n    struct HashCount {\n        bytes32 hash;\n        uint256 count;\n    }\n\n\n    function updateMintContractAddressStepOne(\n        bytes32[2][256] calldata currentpub,\n        bytes[256] calldata sig,\n        bytes32 nextPKH,\n        address mintContractAddress\n    ) public {\n        // Encode the new contract address to bytes for the Lamport check\n        bytes memory prepacked = abi.encodePacked(mintContractAddress);\n\n        // Perform the Lamport Master Check directly calling lamportBase\n        bool isAuthorized = lamportBase.performLamportMasterCheck(currentpub, sig, nextPKH, prepacked);\n        \n        // Ensure that the Lamport Master Check passed\n        require(isAuthorized, \"Authorization failed for proposed update of Mint contract address\");\n\n        // Temporarily store the proposed Mint contract address for the sender\n        proposedMintContractAddresses[msg.sender] = mintContractAddress;\n        lastUsedNextPKH = nextPKH;\n    }\n\n    function updateMintContractAddressStepTwo(\n        bytes32[2][256] calldata currentpub,\n        bytes[256] calldata sig,\n        bytes32 nextPKH,\n        address mintContractAddress\n    ) public {\n        // Encode the new contract address to bytes for the Lamport check\n        bytes memory prepacked = abi.encodePacked(mintContractAddress);\n\n        // Perform the Lamport Master Check again\n\n        // Verify that the proposed contract address matches the address being confirmed\n        require(proposedMintContractAddresses[msg.sender] == mintContractAddress, \"Mint contract address update mismatch\");\n\n        // Ensure a different key is used for the confirmation step\n        bytes32 currentPKH = keccak256(abi.encodePacked(currentpub));\n        require(lastUsedNextPKH != currentPKH, \"Same PKH used for both steps; use a separate key for confirmation\");\n        bool isAuthorized = lamportBase.performLamportMasterCheck(currentpub, sig, nextPKH, prepacked);\n\n        // Ensure that the Lamport Master Check passed\n        require(isAuthorized, \"Authorization failed on confirmation of Mint contract address update\");\n\n        // Officially update the Mint contract address\n        mintContract = IGP_Mint(mintContractAddress);\n        emit MintContractUpdated(mintContractAddress);\n\n        // Clear the temporary storage\n        delete proposedMintContractAddresses[msg.sender];\n        lastUsedNextPKH = bytes32(0);\n    }\n\n    // Function to set the PlayerDatabase contract address\n    function updatePlayerDatabaseAddressStepOne(\n        bytes32[2][256] calldata currentpub,\n        bytes[256] calldata sig,\n        bytes32 nextPKH,\n        address playerDatabaseAddress\n    ) public {\n        // Encode the new PlayerDatabase contract address to bytes for the Lamport check\n        bytes memory prepacked = abi.encodePacked(playerDatabaseAddress);\n\n        // Perform the Lamport Master Check directly calling lamportBase\n        bool isAuthorized = lamportBase.performLamportMasterCheck(currentpub, sig, nextPKH, prepacked);\n        \n        // Ensure that the Lamport Master Check passed\n        require(isAuthorized, \"Authorization failed for proposed update of PlayerDatabase contract address\");\n\n        // Temporarily store the proposed PlayerDatabase contract address for the sender\n        proposedPlayerDatabaseAddresses[msg.sender] = playerDatabaseAddress;\n        lastUsedNextPKH = nextPKH;\n    }\n\n    function updatePlayerDatabaseAddressStepTwo(\n        bytes32[2][256] calldata currentpub,\n        bytes[256] calldata sig,\n        bytes32 nextPKH,\n        address playerDatabaseAddress\n    ) public {\n        // Encode the new PlayerDatabase contract address to bytes for the Lamport check\n        bytes memory prepacked = abi.encodePacked(playerDatabaseAddress);\n\n        // Perform the Lamport Master Check again\n\n        // Verify that the proposed contract address matches the address being confirmed\n        require(proposedPlayerDatabaseAddresses[msg.sender] == playerDatabaseAddress, \"PlayerDatabase contract address update mismatch\");\n\n        // Ensure a different key is used for the confirmation step\n        bytes32 currentPKH = keccak256(abi.encodePacked(currentpub));\n        require(lastUsedNextPKH != currentPKH, \"Same PKH used for both steps; use a separate key for confirmation\");\n        bool isAuthorized = lamportBase.performLamportMasterCheck(currentpub, sig, nextPKH, prepacked);\n\n        // Ensure that the Lamport Master Check passed\n        require(isAuthorized, \"Authorization failed on confirmation of PlayerDatabase contract address update\");\n\n        // Officially update the PlayerDatabase contract address\n        playerDatabase = IPlayerDatabase(playerDatabaseAddress);\n        emit PlayerDatabaseAddressUpdated(playerDatabaseAddress); // Assuming the existence of this event for traceability\n\n        // Clear the temporary storage\n        delete proposedPlayerDatabaseAddresses[msg.sender];\n        lastUsedNextPKH = bytes32(0);\n    }\n    \n    function calculateMintAmount() private view returns (uint256) {\n        uint256 elapsedSeconds = block.timestamp - lastMintTime;\n\n        if (elapsedSeconds > MAX_MINT_TIME) {\n            elapsedSeconds = MAX_MINT_TIME; // Cap the elapsed time to MAX_MINT_TIME\n        }\n\n        return elapsedSeconds * TOKENS_PER_SECOND; // Calculate the mint amount based on elapsed time\n    }\n\n    function updateValidatorsList(string memory serverIP, address validator) private {\n        bool validatorExists = false;\n        for (uint i = 0; i < validatorsPerServerIP[serverIP].length; i++) {\n            if (validatorsPerServerIP[serverIP][i] == validator) {\n                validatorExists = true;\n                break;\n            }\n        }\n        if (!validatorExists) {\n            validatorsPerServerIP[serverIP].push(validator);\n        }\n    }\n\n    function submitPlayerListStepOne(\n        bytes32 playerListHash,\n        bytes32[2][256] calldata currentpub,\n        bytes[256] calldata sig,\n        bytes32 nextPKH\n    ) public {\n        // Perform Lamport Oracle check with \"1\" as the prepacked value\n\n\n        // Calculate pkh from currentpub to ensure the caller is authorized\n        bytes32 pkh = keccak256(abi.encodePacked(currentpub));\n        (, , uint index) = lamportBase.getKeyAndIndexByPKH(pkh);\n        (uint256 oracleKeyIndex1, uint256 oracleKeyIndex2) = playerDatabase.getOracleKeyIndices(msg.sender);\n        require(\n            index == oracleKeyIndex1 || index == oracleKeyIndex2,\n            \"Caller's oracle key index does not match\"\n        );\n        require(\n            lamportBase.performLamportOracleCheck(\n                currentpub,\n                sig,\n                nextPKH,\n                abi.encodePacked(playerListHash)\n            ),\n            \"Lamport oracle check failed\"\n        );\n        submittedPlayerListHashes[msg.sender] = playerListHash;\n    }\n\n\n    function submitPlayerListStepTwo(ServerPlayers[] memory serverPlayerLists, address validatorID, bool canMintFlag) public {\n        require(isValidator(validatorID), \"Caller is not a registered validator\");\n        bytes memory encodedData;\n        for (uint i = 0; i < serverPlayerLists.length; i++) {\n            encodedData = abi.encodePacked(encodedData, serverPlayerLists[i].serverIP); // Include server IP in the hash\n            for (uint j = 0; j < serverPlayerLists[i].playerNames.length; j++) {\n                encodedData = abi.encodePacked(encodedData, serverPlayerLists[i].playerNames[j]);\n            }\n        }\n        bytes32 computedHash = keccak256(encodedData);\n        require(computedHash == submittedPlayerListHashes[validatorID], \"List hash does not match previously provided hash.\");\n\n        uint256 totalPlayerCount = 0;\n\n\n        for (uint i = 0; i < serverPlayerLists.length; i++) {\n            uint256 serverPlayerCount = serverPlayerLists[i].playerNames.length;\n            if (totalPlayerCount + serverPlayerCount > MAX_PLAYERS_PER_SUBMISSION) {\n                break; // Stop if the max players per submission is exceeded\n            }\n            totalPlayerCount += serverPlayerCount;\n\n            // Encode each string in the playerNames array individually\n            bytes memory encodedPlayerNames;\n            for (uint j = 0; j < serverPlayerLists[i].playerNames.length; j++) {\n                encodedPlayerNames = abi.encodePacked(encodedPlayerNames, serverPlayerLists[i].playerNames[j]);\n            }\n\n            // Compute the hash of the concatenated byte array\n            bytes32 playerListHash = keccak256(encodedPlayerNames);\n            hashToPlayerList[playerListHash] = serverPlayerLists[i].playerNames;\n\n            // Update or add the validator to the list for this server IP\n            updateValidatorsList(serverPlayerLists[i].serverIP, validatorID);\n\n            // Overwrite the existing submission for this server IP and validator\n            serverSubmissions[serverPlayerLists[i].serverIP][validatorID] = ServerSubmission({\n                playerListHash: playerListHash,\n                canMint: canMintFlag\n            });\n        }\n        // Check if it's time to perform mass minting\n        uint256 currentTime = block.timestamp;\n        uint256 timeSinceLastMint = currentTime - lastMintTime;\n        uint256 timeToNextInterval = MINT_INTERVAL - (currentTime % MINT_INTERVAL);\n\n        if (timeSinceLastMint >= MINT_INTERVAL && timeToNextInterval < MINT_INTERVAL) {\n            performMassMinting();\n            lastMintTime = currentTime - timeToNextInterval; // Align with the 5-minute interval\n        }\n    }\n    // function submitPlayerList(ServerPlayers[] memory serverPlayerLists, address validatorID, bool canMintFlag) public {\n    //     require(isValidator(validatorID), \"Caller is not a registered validator\");\n\n    //     uint256 totalPlayerCount = 0;\n\n    //     for (uint i = 0; i < serverPlayerLists.length; i++) {\n    //         uint256 serverPlayerCount = serverPlayerLists[i].playerNames.length;\n    //         if (totalPlayerCount + serverPlayerCount > MAX_PLAYERS_PER_SUBMISSION) {\n    //             break; // Stop if the max players per submission is exceeded\n    //         }\n\n    //         totalPlayerCount += serverPlayerCount;\n\n    //         // Create a hash for the player list\n    //         bytes32 playerListHash = keccak256(abi.encodePacked(serverPlayerLists[i].playerNames));\n    //         hashToPlayerList[playerListHash] = serverPlayerLists[i].playerNames;\n\n    //         // Overwrite the existing submission for this server IP and validator\n    //         serverSubmissions[serverPlayerLists[i].serverIP][validatorID] = ServerSubmission({\n    //             playerListHash: playerListHash,\n    //             canMint: canMintFlag\n    //         });\n    //     }\n    // }\n\n    function isValidator(address _address) public view returns (bool) {\n        //PlayerDatabase playerDatabase = PlayerDatabase(playerDatabaseAddress);\n        return playerDatabase.isValidator(_address);\n    }\n\n    function resetSubmissions() private {\n        string[] memory serverIPs = playerDatabase.getServerIPList();\n        for (uint i = 0; i < serverIPs.length; i++) {\n            string memory serverIP = serverIPs[i];\n            address[] memory validators = validatorsPerServerIP[serverIP];\n            for (uint j = 0; j < validators.length; j++) {\n                serverSubmissions[serverIP][validators[j]].canMint = false;\n            }\n        }\n    }\n\n    // Function to perform mass minting\n    function performMassMinting() private {\n        string[] memory serverIPs = playerDatabase.getServerIPList();\n        for (uint i = 0; i < serverIPs.length; i++) {\n            string memory serverIP = serverIPs[i];\n            bytes32 commonHash = findMostCommonHash(serverIP);\n            if (commonHash != bytes32(0)) {\n                mintForServer(commonHash);\n            }\n        }\n        resetSubmissions();\n    }\n    function mintForServer(bytes32 playerListHash) private {\n        // Retrieve the player list for the given hash\n        string[] memory playerList = hashToPlayerList[playerListHash];\n        address[] memory rewardAddresses = getValidRewardAddressesByNames(playerList);\n\n        uint256 mintAmount = calculateMintAmount(); // Define logic for mint amount\n\n        // Mint tokens for each player\n        for (uint i = 0; i < rewardAddresses.length; i++) {\n            if (rewardAddresses[i] != address(0)) { // Check for valid address\n                mintContract.mintTokens(rewardAddresses[i], mintAmount);\n            }\n        }\n    }\n    function findMostCommonHash(string memory serverIP) private view returns (bytes32) {\n        // Assume validatorsPerServerIP is a mapping that tracks validators per server IP\n        address[] memory validators = validatorsPerServerIP[serverIP];\n        uint256 majorityThreshold = (validators.length * 60) / 100; // 60% of total validators\n\n        bytes32 majorityHash = bytes32(0);\n        uint256 highestCount = 0;\n\n        // Use a structure to keep track of each hash count\n\n\n        HashCount[] memory hashCounts = new HashCount[](validators.length);\n\n        // Count occurrences of each hash\n        for (uint i = 0; i < validators.length; i++) {\n            bytes32 currentHash = serverSubmissions[serverIP][validators[i]].playerListHash;\n            bool found = false;\n\n            for (uint j = 0; j < hashCounts.length; j++) {\n                if (hashCounts[j].hash == currentHash) {\n                    hashCounts[j].count++;\n                    found = true;\n                    break;\n                }\n            }\n\n            if (!found) {\n                hashCounts[i] = HashCount({hash: currentHash, count: 1});\n            }\n\n            // Update majority hash if necessary\n            if (hashCounts[i].count > highestCount) {\n                highestCount = hashCounts[i].count;\n                majorityHash = hashCounts[i].hash;\n            }\n        }\n\n        // Check if the highest count meets the majority threshold\n        if (highestCount >= majorityThreshold) {\n            return majorityHash;\n        }\n\n        return bytes32(0); // No majority found\n    }\n\n    // Helper function to check if a hash is present in the tempUniqueHashes array\n\n\n    function getValidRewardAddressesByNames(string[] memory playerNames) private view returns (address[] memory) {\n        return playerDatabase.getValidRewardAddressesByNames(playerNames, lastMintTime);\n    }\n\n\n\n    // Additional functions...\n}\n",
  "sourcePath": "contracts/4_GP_Validator_0-10.sol",
  "type": "contract"
}