{
  "abi": [
    {
      "inputs": [],
      "stateMutability": "nonpayable",
      "type": "constructor"
    },
    {
      "inputs": [],
      "name": "MAX_MINT_TIME",
      "outputs": [
        {
          "internalType": "uint256",
          "name": "",
          "type": "uint256"
        }
      ],
      "stateMutability": "view",
      "type": "function"
    },
    {
      "inputs": [],
      "name": "MAX_PLAYERS_PER_SUBMISSION",
      "outputs": [
        {
          "internalType": "uint256",
          "name": "",
          "type": "uint256"
        }
      ],
      "stateMutability": "view",
      "type": "function"
    },
    {
      "inputs": [],
      "name": "MINT_INTERVAL",
      "outputs": [
        {
          "internalType": "uint256",
          "name": "",
          "type": "uint256"
        }
      ],
      "stateMutability": "view",
      "type": "function"
    },
    {
      "inputs": [],
      "name": "TOKENS_PER_SECOND",
      "outputs": [
        {
          "internalType": "uint256",
          "name": "",
          "type": "uint256"
        }
      ],
      "stateMutability": "view",
      "type": "function"
    },
    {
      "inputs": [
        {
          "internalType": "string[]",
          "name": "playerNames",
          "type": "string[]"
        }
      ],
      "name": "getValidRewardAddressesByNames",
      "outputs": [
        {
          "internalType": "address[]",
          "name": "",
          "type": "address[]"
        }
      ],
      "stateMutability": "view",
      "type": "function"
    },
    {
      "inputs": [
        {
          "internalType": "bytes32",
          "name": "",
          "type": "bytes32"
        },
        {
          "internalType": "uint256",
          "name": "",
          "type": "uint256"
        }
      ],
      "name": "hashToPlayerList",
      "outputs": [
        {
          "internalType": "string",
          "name": "",
          "type": "string"
        }
      ],
      "stateMutability": "view",
      "type": "function"
    },
    {
      "inputs": [
        {
          "internalType": "address",
          "name": "_address",
          "type": "address"
        }
      ],
      "name": "isValidator",
      "outputs": [
        {
          "internalType": "bool",
          "name": "",
          "type": "bool"
        }
      ],
      "stateMutability": "view",
      "type": "function"
    },
    {
      "inputs": [],
      "name": "lastMintTime",
      "outputs": [
        {
          "internalType": "uint256",
          "name": "",
          "type": "uint256"
        }
      ],
      "stateMutability": "view",
      "type": "function"
    },
    {
      "inputs": [],
      "name": "mintContract",
      "outputs": [
        {
          "internalType": "contract IGP_Mint",
          "name": "",
          "type": "address"
        }
      ],
      "stateMutability": "view",
      "type": "function"
    },
    {
      "inputs": [],
      "name": "performMassMinting",
      "outputs": [],
      "stateMutability": "nonpayable",
      "type": "function"
    },
    {
      "inputs": [
        {
          "internalType": "string",
          "name": "",
          "type": "string"
        },
        {
          "internalType": "address",
          "name": "",
          "type": "address"
        }
      ],
      "name": "serverSubmissions",
      "outputs": [
        {
          "internalType": "bytes32",
          "name": "playerListHash",
          "type": "bytes32"
        },
        {
          "internalType": "bool",
          "name": "canMint",
          "type": "bool"
        }
      ],
      "stateMutability": "view",
      "type": "function"
    },
    {
      "inputs": [
        {
          "internalType": "address",
          "name": "mintContractAddress",
          "type": "address"
        }
      ],
      "name": "setMintContractAddress",
      "outputs": [],
      "stateMutability": "nonpayable",
      "type": "function"
    },
    {
      "inputs": [
        {
          "internalType": "address",
          "name": "playerDatabaseAddress",
          "type": "address"
        }
      ],
      "name": "setPlayerDatabaseAddress",
      "outputs": [],
      "stateMutability": "nonpayable",
      "type": "function"
    },
    {
      "inputs": [
        {
          "components": [
            {
              "internalType": "string",
              "name": "serverIP",
              "type": "string"
            },
            {
              "internalType": "string[]",
              "name": "playerNames",
              "type": "string[]"
            }
          ],
          "internalType": "struct GameValidator.ServerPlayers[]",
          "name": "serverPlayerLists",
          "type": "tuple[]"
        },
        {
          "internalType": "address",
          "name": "validatorID",
          "type": "address"
        },
        {
          "internalType": "bool",
          "name": "canMintFlag",
          "type": "bool"
        }
      ],
      "name": "submitPlayerList",
      "outputs": [],
      "stateMutability": "nonpayable",
      "type": "function"
    }
  ],
  "bytecode": "6080604052600680546001600160a01b031990811673b03a6afd440a2a9db8834f1a6093680f02f1114c179091556007805490911673a1d070f108cbef4a48ffc1a79258d5c24e05db6817905534801561005857600080fd5b50600654600080546001600160a01b03199081166001600160a01b03938416179091556007546001805490921692169190911790556119008061009c6000396000f3fe608060405234801561001057600080fd5b50600436106100ea5760003560e01c80639d4635201161008c578063e15336ef11610066578063e15336ef1461021d578063f59cc9781461024d578063f785eb2a14610256578063facd743b1461027657600080fd5b80639d463520146101d6578063b8f41a3c146101df578063d0b6b6db146101f257600080fd5b80635c9c3ed2116100c85780635c9c3ed21461016357806364c8c5a7146101bd5780636f1aab4a146101c557806384e7e3d3146101cd57600080fd5b8063143acc71146100ef5780631e9ad446146101215780633592696d14610143575b600080fd5b61011f6100fd366004610ffe565b600080546001600160a01b0319166001600160a01b0392909216919091179055565b005b610130670de0b6b3a764000081565b6040519081526020015b60405180910390f35b6101566101513660046111bf565b610299565b60405161013a91906111fc565b6101a8610171366004611249565b8151602081840181018051600382529282019482019490942091909352909152600090815260409020805460019091015460ff1682565b6040805192835290151560208301520161013a565b61011f610318565b610130604081565b61013061012c81565b61013060055481565b61011f6101ed3660046112b4565b6103f2565b600154610205906001600160a01b031681565b6040516001600160a01b03909116815260200161013a565b61011f61022b366004610ffe565b600180546001600160a01b0319166001600160a01b0392909216919091179055565b61013061025881565b6102696102643660046113e0565b6106aa565b60405161013a9190611452565b610289610284366004610ffe565b610763565b604051901515815260200161013a565b6000546005546040516385d8f13d60e01b81526060926001600160a01b0316916385d8f13d916102cd918691600401611465565b600060405180830381865afa1580156102ea573d6000803e3d6000fd5b505050506040513d6000823e601f3d908101601f1916820160405261031291908101906114d1565b92915050565b60008060009054906101000a90046001600160a01b03166001600160a01b0316633dc0ff7d6040518163ffffffff1660e01b8152600401600060405180830381865afa15801561036c573d6000803e3d6000fd5b505050506040513d6000823e601f3d908101601f19168201604052610394919081019061156b565b905060005b81518110156103e65760008282815181106103b6576103b6611658565b6020026020010151905060006103cb826107d2565b905080156103dc576103dc81610a78565b5050600101610399565b506103ef610c53565b50565b6103fb82610763565b6104575760405162461bcd60e51b8152602060048201526024808201527f43616c6c6572206973206e6f74206120726567697374657265642076616c696460448201526330ba37b960e11b606482015260840160405180910390fd5b6000805b845181101561064257600085828151811061047857610478611658565b602002602001015160200151519050604081846104959190611684565b11156104a15750610642565b6104ab8184611684565b9250606060005b8784815181106104c4576104c4611658565b6020026020010151602001515181101561053b57818885815181106104eb576104eb611658565b602002602001015160200151828151811061050857610508611658565b6020026020010151604051602001610521929190611697565b60408051601f1981840301815291905291506001016104b2565b5080516020820120875188908590811061055757610557611658565b602002602001015160200151600460008381526020019081526020016000209080519060200190610589929190610f1c565b506105b188858151811061059f5761059f611658565b60200260200101516000015188610dfd565b604051806040016040528082815260200187151581525060038986815181106105dc576105dc611658565b6020026020010151600001516040516105f591906116c6565b90815260408051602092819003830190206001600160a01b038b16600090815290835220825181559101516001918201805460ff191691151591909117905593909301925061045b915050565b50600554429060009061065590836116e2565b9050600061066561012c8461170b565b6106719061012c6116e2565b905061012c8210158015610686575061012c81105b156106a157610693610318565b61069d81846116e2565b6005555b50505050505050565b600460205281600052604060002081815481106106c657600080fd5b906000526020600020016000915091505080546106e29061171f565b80601f016020809104026020016040519081016040528092919081815260200182805461070e9061171f565b801561075b5780601f106107305761010080835404028352916020019161075b565b820191906000526020600020905b81548152906001019060200180831161073e57829003601f168201915b505050505081565b6000805460405163facd743b60e01b81526001600160a01b0384811660048301529091169063facd743b90602401602060405180830381865afa1580156107ae573d6000803e3d6000fd5b505050506040513d601f19601f820116820180604052508101906103129190611759565b6000806002836040516107e591906116c6565b908152604080519182900360209081018320805480830285018301909352828452919083018282801561084157602002820191906000526020600020905b81546001600160a01b03168152600190910190602001808311610823575b50505050509050600060648251603c61085a9190611776565b610864919061178d565b82519091506000908190819067ffffffffffffffff81111561088857610888611022565b6040519080825280602002602001820160405280156108cd57816020015b60408051808201909152600080825260208201528152602001906001900390816108a65790505b50905060005b8551811015610a585760006003896040516108ee91906116c6565b9081526020016040518091039020600088848151811061091057610910611658565b60200260200101516001600160a01b03166001600160a01b031681526020019081526020016000206000015490506000805b84518110156109ae578285828151811061095e5761095e611658565b602002602001015160000151036109a65784818151811061098157610981611658565b6020026020010151602001805180919061099a906117a1565b905250600191506109ae565b600101610942565b50806109e857604051806040016040528083815260200160018152508484815181106109dc576109dc611658565b60200260200101819052505b848484815181106109fb576109fb611658565b6020026020010151602001511115610a4e57838381518110610a1f57610a1f611658565b6020026020010151602001519450838381518110610a3f57610a3f611658565b60200260200101516000015195505b50506001016108d3565b50838210610a6b57509095945050505050565b5060009695505050505050565b600081815260046020908152604080832080548251818502810185019093528083529192909190849084015b82821015610b50578382906000526020600020018054610ac39061171f565b80601f0160208091040260200160405190810160405280929190818152602001828054610aef9061171f565b8015610b3c5780601f10610b1157610100808354040283529160200191610b3c565b820191906000526020600020905b815481529060010190602001808311610b1f57829003601f168201915b505050505081526020019060010190610aa4565b5050505090506000610b6182610299565b90506000610b6d610ee2565b905060005b8251811015610c4c5760006001600160a01b0316838281518110610b9857610b98611658565b60200260200101516001600160a01b031614610c445760015483516001600160a01b039091169063f0dda65c90859084908110610bd757610bd7611658565b6020026020010151846040518363ffffffff1660e01b8152600401610c119291906001600160a01b03929092168252602082015260400190565b600060405180830381600087803b158015610c2b57600080fd5b505af1158015610c3f573d6000803e3d6000fd5b505050505b600101610b72565b5050505050565b60008060009054906101000a90046001600160a01b03166001600160a01b0316633dc0ff7d6040518163ffffffff1660e01b8152600401600060405180830381865afa158015610ca7573d6000803e3d6000fd5b505050506040513d6000823e601f3d908101601f19168201604052610ccf919081019061156b565b905060005b8151811015610df9576000828281518110610cf157610cf1611658565b602002602001015190506000600282604051610d0d91906116c6565b9081526040805191829003602090810183208054808302850183019093528284529190830182828015610d6957602002820191906000526020600020905b81546001600160a01b03168152600190910190602001808311610d4b575b5050505050905060005b8151811015610dee576000600384604051610d8e91906116c6565b90815260200160405180910390206000848481518110610db057610db0611658565b6020908102919091018101516001600160a01b031682528101919091526040016000206001908101805460ff19169215159290921790915501610d73565b505050600101610cd4565b5050565b6000805b600284604051610e1191906116c6565b90815260405190819003602001902054811015610e8c57826001600160a01b0316600285604051610e4291906116c6565b90815260200160405180910390208281548110610e6157610e61611658565b6000918252602090912001546001600160a01b031603610e845760019150610e8c565b600101610e01565b5080610edd57600283604051610ea291906116c6565b90815260405160209181900382019020805460018101825560009182529190200180546001600160a01b0319166001600160a01b0384161790555b505050565b60008060055442610ef391906116e2565b9050610258811115610f0457506102585b610f16670de0b6b3a764000082611776565b91505090565b828054828255906000526020600020908101928215610f62579160200282015b82811115610f625782518290610f52908261180a565b5091602001919060010190610f3c565b50610f6e929150610f72565b5090565b80821115610f6e576000610f868282610f8f565b50600101610f72565b508054610f9b9061171f565b6000825580601f10610fab575050565b601f0160209004906000526020600020908101906103ef91905b80821115610f6e5760008155600101610fc5565b6001600160a01b03811681146103ef57600080fd5b8035610ff981610fd9565b919050565b60006020828403121561101057600080fd5b813561101b81610fd9565b9392505050565b634e487b7160e01b600052604160045260246000fd5b6040805190810167ffffffffffffffff8111828210171561105b5761105b611022565b60405290565b604051601f8201601f1916810167ffffffffffffffff8111828210171561108a5761108a611022565b604052919050565b600067ffffffffffffffff8211156110ac576110ac611022565b5060051b60200190565b600067ffffffffffffffff8211156110d0576110d0611022565b50601f01601f191660200190565b600082601f8301126110ef57600080fd5b81356111026110fd826110b6565b611061565b81815284602083860101111561111757600080fd5b816020850160208301376000918101602001919091529392505050565b600082601f83011261114557600080fd5b813560206111556110fd83611092565b82815260059290921b8401810191818101908684111561117457600080fd5b8286015b848110156111b457803567ffffffffffffffff8111156111985760008081fd5b6111a68986838b01016110de565b845250918301918301611178565b509695505050505050565b6000602082840312156111d157600080fd5b813567ffffffffffffffff8111156111e857600080fd5b6111f484828501611134565b949350505050565b6020808252825182820181905260009190848201906040850190845b8181101561123d5783516001600160a01b031683529284019291840191600101611218565b50909695505050505050565b6000806040838503121561125c57600080fd5b823567ffffffffffffffff81111561127357600080fd5b61127f858286016110de565b925050602083013561129081610fd9565b809150509250929050565b80151581146103ef57600080fd5b8035610ff98161129b565b6000806000606084860312156112c957600080fd5b833567ffffffffffffffff808211156112e157600080fd5b818601915086601f8301126112f557600080fd5b813560206113056110fd83611092565b82815260059290921b8401810191818101908a84111561132457600080fd5b8286015b848110156113b55780358681111561133f57600080fd5b87016040818e03601f190112156113565760008081fd5b61135e611038565b85820135888111156113705760008081fd5b61137e8f88838601016110de565b8252506040820135888111156113945760008081fd5b6113a28f8883860101611134565b8288015250845250918301918301611328565b5097506113c59050888201610fee565b9550505050506113d7604085016112a9565b90509250925092565b600080604083850312156113f357600080fd5b50508035926020909101359150565b60005b8381101561141d578181015183820152602001611405565b50506000910152565b6000815180845261143e816020860160208601611402565b601f01601f19169290920160200192915050565b60208152600061101b6020830184611426565b6000604082016040835280855180835260608501915060608160051b8601019250602080880160005b838110156114bc57605f198887030185526114aa868351611426565b9550938201939082019060010161148e565b50505050506020929092019290925292915050565b600060208083850312156114e457600080fd5b825167ffffffffffffffff8111156114fb57600080fd5b8301601f8101851361150c57600080fd5b805161151a6110fd82611092565b81815260059190911b8201830190838101908783111561153957600080fd5b928401925b8284101561156057835161155181610fd9565b8252928401929084019061153e565b979650505050505050565b6000602080838503121561157e57600080fd5b825167ffffffffffffffff8082111561159657600080fd5b818501915085601f8301126115aa57600080fd5b81516115b86110fd82611092565b81815260059190911b830184019084810190888311156115d757600080fd5b8585015b8381101561164b578051858111156115f35760008081fd5b8601603f81018b136116055760008081fd5b8781015160406116176110fd836110b6565b8281528d8284860101111561162c5760008081fd5b61163b838c8301848701611402565b86525050509186019186016115db565b5098975050505050505050565b634e487b7160e01b600052603260045260246000fd5b634e487b7160e01b600052601160045260246000fd5b808201808211156103125761031261166e565b600083516116a9818460208801611402565b8351908301906116bd818360208801611402565b01949350505050565b600082516116d8818460208701611402565b9190910192915050565b818103818111156103125761031261166e565b634e487b7160e01b600052601260045260246000fd5b60008261171a5761171a6116f5565b500690565b600181811c9082168061173357607f821691505b60208210810361175357634e487b7160e01b600052602260045260246000fd5b50919050565b60006020828403121561176b57600080fd5b815161101b8161129b565b80820281158282048414176103125761031261166e565b60008261179c5761179c6116f5565b500490565b6000600182016117b3576117b361166e565b5060010190565b601f821115610edd576000816000526020600020601f850160051c810160208610156117e35750805b601f850160051c820191505b81811015611802578281556001016117ef565b505050505050565b815167ffffffffffffffff81111561182457611824611022565b61183881611832845461171f565b846117ba565b602080601f83116001811461186d57600084156118555750858301515b600019600386901b1c1916600185901b178555611802565b600085815260208120601f198616915b8281101561189c5788860151825594840194600190910190840161187d565b50858210156118ba5787850151600019600388901b60f8161c191681555b5050505050600190811b0190555056fea2646970667358221220e1e7a3dacfaccfa738f529ac789622ec8e2439e31516cd69281528a8ce31201064736f6c63430008180033",
  "bytecodeSha1": "6f2e4b88a2e5546b85b935de920d088e2fdea9a6",
  "compiler": {
    "evm_version": "istanbul",
    "optimizer": {
      "enabled": true,
      "runs": 200
    },
    "version": "0.8.24+commit.e11b9ed9"
  },
  "contractName": "GameValidator",
  "language": "Solidity",
  "natspec": {
    "kind": "dev",
    "methods": {},
    "version": 1
  },
  "opcodes": "PUSH1 0x80 PUSH1 0x40 MSTORE CALLVALUE DUP1 ISZERO PUSH2 0x10 JUMPI PUSH1 0x0 DUP1 REVERT JUMPDEST POP PUSH1 0x4 CALLDATASIZE LT PUSH2 0xEA JUMPI PUSH1 0x0 CALLDATALOAD PUSH1 0xE0 SHR DUP1 PUSH4 0x9D463520 GT PUSH2 0x8C JUMPI DUP1 PUSH4 0xE15336EF GT PUSH2 0x66 JUMPI DUP1 PUSH4 0xE15336EF EQ PUSH2 0x21D JUMPI DUP1 PUSH4 0xF59CC978 EQ PUSH2 0x24D JUMPI DUP1 PUSH4 0xF785EB2A EQ PUSH2 0x256 JUMPI DUP1 PUSH4 0xFACD743B EQ PUSH2 0x276 JUMPI PUSH1 0x0 DUP1 REVERT JUMPDEST DUP1 PUSH4 0x9D463520 EQ PUSH2 0x1D6 JUMPI DUP1 PUSH4 0xB8F41A3C EQ PUSH2 0x1DF JUMPI DUP1 PUSH4 0xD0B6B6DB EQ PUSH2 0x1F2 JUMPI PUSH1 0x0 DUP1 REVERT JUMPDEST DUP1 PUSH4 0x5C9C3ED2 GT PUSH2 0xC8 JUMPI DUP1 PUSH4 0x5C9C3ED2 EQ PUSH2 0x163 JUMPI DUP1 PUSH4 0x64C8C5A7 EQ PUSH2 0x1BD JUMPI DUP1 PUSH4 0x6F1AAB4A EQ PUSH2 0x1C5 JUMPI DUP1 PUSH4 0x84E7E3D3 EQ PUSH2 0x1CD JUMPI PUSH1 0x0 DUP1 REVERT JUMPDEST DUP1 PUSH4 0x143ACC71 EQ PUSH2 0xEF JUMPI DUP1 PUSH4 0x1E9AD446 EQ PUSH2 0x121 JUMPI DUP1 PUSH4 0x3592696D EQ PUSH2 0x143 JUMPI JUMPDEST PUSH1 0x0 DUP1 REVERT JUMPDEST PUSH2 0x11F PUSH2 0xFD CALLDATASIZE PUSH1 0x4 PUSH2 0xFFE JUMP JUMPDEST PUSH1 0x0 DUP1 SLOAD PUSH1 0x1 PUSH1 0x1 PUSH1 0xA0 SHL SUB NOT AND PUSH1 0x1 PUSH1 0x1 PUSH1 0xA0 SHL SUB SWAP3 SWAP1 SWAP3 AND SWAP2 SWAP1 SWAP2 OR SWAP1 SSTORE JUMP JUMPDEST STOP JUMPDEST PUSH2 0x130 PUSH8 0xDE0B6B3A7640000 DUP2 JUMP JUMPDEST PUSH1 0x40 MLOAD SWAP1 DUP2 MSTORE PUSH1 0x20 ADD JUMPDEST PUSH1 0x40 MLOAD DUP1 SWAP2 SUB SWAP1 RETURN JUMPDEST PUSH2 0x156 PUSH2 0x151 CALLDATASIZE PUSH1 0x4 PUSH2 0x11BF JUMP JUMPDEST PUSH2 0x299 JUMP JUMPDEST PUSH1 0x40 MLOAD PUSH2 0x13A SWAP2 SWAP1 PUSH2 0x11FC JUMP JUMPDEST PUSH2 0x1A8 PUSH2 0x171 CALLDATASIZE PUSH1 0x4 PUSH2 0x1249 JUMP JUMPDEST DUP2 MLOAD PUSH1 0x20 DUP2 DUP5 ADD DUP2 ADD DUP1 MLOAD PUSH1 0x3 DUP3 MSTORE SWAP3 DUP3 ADD SWAP5 DUP3 ADD SWAP5 SWAP1 SWAP5 KECCAK256 SWAP2 SWAP1 SWAP4 MSTORE SWAP1 SWAP2 MSTORE PUSH1 0x0 SWAP1 DUP2 MSTORE PUSH1 0x40 SWAP1 KECCAK256 DUP1 SLOAD PUSH1 0x1 SWAP1 SWAP2 ADD SLOAD PUSH1 0xFF AND DUP3 JUMP JUMPDEST PUSH1 0x40 DUP1 MLOAD SWAP3 DUP4 MSTORE SWAP1 ISZERO ISZERO PUSH1 0x20 DUP4 ADD MSTORE ADD PUSH2 0x13A JUMP JUMPDEST PUSH2 0x11F PUSH2 0x318 JUMP JUMPDEST PUSH2 0x130 PUSH1 0x40 DUP2 JUMP JUMPDEST PUSH2 0x130 PUSH2 0x12C DUP2 JUMP JUMPDEST PUSH2 0x130 PUSH1 0x5 SLOAD DUP2 JUMP JUMPDEST PUSH2 0x11F PUSH2 0x1ED CALLDATASIZE PUSH1 0x4 PUSH2 0x12B4 JUMP JUMPDEST PUSH2 0x3F2 JUMP JUMPDEST PUSH1 0x1 SLOAD PUSH2 0x205 SWAP1 PUSH1 0x1 PUSH1 0x1 PUSH1 0xA0 SHL SUB AND DUP2 JUMP JUMPDEST PUSH1 0x40 MLOAD PUSH1 0x1 PUSH1 0x1 PUSH1 0xA0 SHL SUB SWAP1 SWAP2 AND DUP2 MSTORE PUSH1 0x20 ADD PUSH2 0x13A JUMP JUMPDEST PUSH2 0x11F PUSH2 0x22B CALLDATASIZE PUSH1 0x4 PUSH2 0xFFE JUMP JUMPDEST PUSH1 0x1 DUP1 SLOAD PUSH1 0x1 PUSH1 0x1 PUSH1 0xA0 SHL SUB NOT AND PUSH1 0x1 PUSH1 0x1 PUSH1 0xA0 SHL SUB SWAP3 SWAP1 SWAP3 AND SWAP2 SWAP1 SWAP2 OR SWAP1 SSTORE JUMP JUMPDEST PUSH2 0x130 PUSH2 0x258 DUP2 JUMP JUMPDEST PUSH2 0x269 PUSH2 0x264 CALLDATASIZE PUSH1 0x4 PUSH2 0x13E0 JUMP JUMPDEST PUSH2 0x6AA JUMP JUMPDEST PUSH1 0x40 MLOAD PUSH2 0x13A SWAP2 SWAP1 PUSH2 0x1452 JUMP JUMPDEST PUSH2 0x289 PUSH2 0x284 CALLDATASIZE PUSH1 0x4 PUSH2 0xFFE JUMP JUMPDEST PUSH2 0x763 JUMP JUMPDEST PUSH1 0x40 MLOAD SWAP1 ISZERO ISZERO DUP2 MSTORE PUSH1 0x20 ADD PUSH2 0x13A JUMP JUMPDEST PUSH1 0x0 SLOAD PUSH1 0x5 SLOAD PUSH1 0x40 MLOAD PUSH4 0x85D8F13D PUSH1 0xE0 SHL DUP2 MSTORE PUSH1 0x60 SWAP3 PUSH1 0x1 PUSH1 0x1 PUSH1 0xA0 SHL SUB AND SWAP2 PUSH4 0x85D8F13D SWAP2 PUSH2 0x2CD SWAP2 DUP7 SWAP2 PUSH1 0x4 ADD PUSH2 0x1465 JUMP JUMPDEST PUSH1 0x0 PUSH1 0x40 MLOAD DUP1 DUP4 SUB DUP2 DUP7 GAS STATICCALL ISZERO DUP1 ISZERO PUSH2 0x2EA JUMPI RETURNDATASIZE PUSH1 0x0 DUP1 RETURNDATACOPY RETURNDATASIZE PUSH1 0x0 REVERT JUMPDEST POP POP POP POP PUSH1 0x40 MLOAD RETURNDATASIZE PUSH1 0x0 DUP3 RETURNDATACOPY PUSH1 0x1F RETURNDATASIZE SWAP1 DUP2 ADD PUSH1 0x1F NOT AND DUP3 ADD PUSH1 0x40 MSTORE PUSH2 0x312 SWAP2 SWAP1 DUP2 ADD SWAP1 PUSH2 0x14D1 JUMP JUMPDEST SWAP3 SWAP2 POP POP JUMP JUMPDEST PUSH1 0x0 DUP1 PUSH1 0x0 SWAP1 SLOAD SWAP1 PUSH2 0x100 EXP SWAP1 DIV PUSH1 0x1 PUSH1 0x1 PUSH1 0xA0 SHL SUB AND PUSH1 0x1 PUSH1 0x1 PUSH1 0xA0 SHL SUB AND PUSH4 0x3DC0FF7D PUSH1 0x40 MLOAD DUP2 PUSH4 0xFFFFFFFF AND PUSH1 0xE0 SHL DUP2 MSTORE PUSH1 0x4 ADD PUSH1 0x0 PUSH1 0x40 MLOAD DUP1 DUP4 SUB DUP2 DUP7 GAS STATICCALL ISZERO DUP1 ISZERO PUSH2 0x36C JUMPI RETURNDATASIZE PUSH1 0x0 DUP1 RETURNDATACOPY RETURNDATASIZE PUSH1 0x0 REVERT JUMPDEST POP POP POP POP PUSH1 0x40 MLOAD RETURNDATASIZE PUSH1 0x0 DUP3 RETURNDATACOPY PUSH1 0x1F RETURNDATASIZE SWAP1 DUP2 ADD PUSH1 0x1F NOT AND DUP3 ADD PUSH1 0x40 MSTORE PUSH2 0x394 SWAP2 SWAP1 DUP2 ADD SWAP1 PUSH2 0x156B JUMP JUMPDEST SWAP1 POP PUSH1 0x0 JUMPDEST DUP2 MLOAD DUP2 LT ISZERO PUSH2 0x3E6 JUMPI PUSH1 0x0 DUP3 DUP3 DUP2 MLOAD DUP2 LT PUSH2 0x3B6 JUMPI PUSH2 0x3B6 PUSH2 0x1658 JUMP JUMPDEST PUSH1 0x20 MUL PUSH1 0x20 ADD ADD MLOAD SWAP1 POP PUSH1 0x0 PUSH2 0x3CB DUP3 PUSH2 0x7D2 JUMP JUMPDEST SWAP1 POP DUP1 ISZERO PUSH2 0x3DC JUMPI PUSH2 0x3DC DUP2 PUSH2 0xA78 JUMP JUMPDEST POP POP PUSH1 0x1 ADD PUSH2 0x399 JUMP JUMPDEST POP PUSH2 0x3EF PUSH2 0xC53 JUMP JUMPDEST POP JUMP JUMPDEST PUSH2 0x3FB DUP3 PUSH2 0x763 JUMP JUMPDEST PUSH2 0x457 JUMPI PUSH1 0x40 MLOAD PUSH3 0x461BCD PUSH1 0xE5 SHL DUP2 MSTORE PUSH1 0x20 PUSH1 0x4 DUP3 ADD MSTORE PUSH1 0x24 DUP1 DUP3 ADD MSTORE PUSH32 0x43616C6C6572206973206E6F74206120726567697374657265642076616C6964 PUSH1 0x44 DUP3 ADD MSTORE PUSH4 0x30BA37B9 PUSH1 0xE1 SHL PUSH1 0x64 DUP3 ADD MSTORE PUSH1 0x84 ADD PUSH1 0x40 MLOAD DUP1 SWAP2 SUB SWAP1 REVERT JUMPDEST PUSH1 0x0 DUP1 JUMPDEST DUP5 MLOAD DUP2 LT ISZERO PUSH2 0x642 JUMPI PUSH1 0x0 DUP6 DUP3 DUP2 MLOAD DUP2 LT PUSH2 0x478 JUMPI PUSH2 0x478 PUSH2 0x1658 JUMP JUMPDEST PUSH1 0x20 MUL PUSH1 0x20 ADD ADD MLOAD PUSH1 0x20 ADD MLOAD MLOAD SWAP1 POP PUSH1 0x40 DUP2 DUP5 PUSH2 0x495 SWAP2 SWAP1 PUSH2 0x1684 JUMP JUMPDEST GT ISZERO PUSH2 0x4A1 JUMPI POP PUSH2 0x642 JUMP JUMPDEST PUSH2 0x4AB DUP2 DUP5 PUSH2 0x1684 JUMP JUMPDEST SWAP3 POP PUSH1 0x60 PUSH1 0x0 JUMPDEST DUP8 DUP5 DUP2 MLOAD DUP2 LT PUSH2 0x4C4 JUMPI PUSH2 0x4C4 PUSH2 0x1658 JUMP JUMPDEST PUSH1 0x20 MUL PUSH1 0x20 ADD ADD MLOAD PUSH1 0x20 ADD MLOAD MLOAD DUP2 LT ISZERO PUSH2 0x53B JUMPI DUP2 DUP9 DUP6 DUP2 MLOAD DUP2 LT PUSH2 0x4EB JUMPI PUSH2 0x4EB PUSH2 0x1658 JUMP JUMPDEST PUSH1 0x20 MUL PUSH1 0x20 ADD ADD MLOAD PUSH1 0x20 ADD MLOAD DUP3 DUP2 MLOAD DUP2 LT PUSH2 0x508 JUMPI PUSH2 0x508 PUSH2 0x1658 JUMP JUMPDEST PUSH1 0x20 MUL PUSH1 0x20 ADD ADD MLOAD PUSH1 0x40 MLOAD PUSH1 0x20 ADD PUSH2 0x521 SWAP3 SWAP2 SWAP1 PUSH2 0x1697 JUMP JUMPDEST PUSH1 0x40 DUP1 MLOAD PUSH1 0x1F NOT DUP2 DUP5 SUB ADD DUP2 MSTORE SWAP2 SWAP1 MSTORE SWAP2 POP PUSH1 0x1 ADD PUSH2 0x4B2 JUMP JUMPDEST POP DUP1 MLOAD PUSH1 0x20 DUP3 ADD KECCAK256 DUP8 MLOAD DUP9 SWAP1 DUP6 SWAP1 DUP2 LT PUSH2 0x557 JUMPI PUSH2 0x557 PUSH2 0x1658 JUMP JUMPDEST PUSH1 0x20 MUL PUSH1 0x20 ADD ADD MLOAD PUSH1 0x20 ADD MLOAD PUSH1 0x4 PUSH1 0x0 DUP4 DUP2 MSTORE PUSH1 0x20 ADD SWAP1 DUP2 MSTORE PUSH1 0x20 ADD PUSH1 0x0 KECCAK256 SWAP1 DUP1 MLOAD SWAP1 PUSH1 0x20 ADD SWAP1 PUSH2 0x589 SWAP3 SWAP2 SWAP1 PUSH2 0xF1C JUMP JUMPDEST POP PUSH2 0x5B1 DUP9 DUP6 DUP2 MLOAD DUP2 LT PUSH2 0x59F JUMPI PUSH2 0x59F PUSH2 0x1658 JUMP JUMPDEST PUSH1 0x20 MUL PUSH1 0x20 ADD ADD MLOAD PUSH1 0x0 ADD MLOAD DUP9 PUSH2 0xDFD JUMP JUMPDEST PUSH1 0x40 MLOAD DUP1 PUSH1 0x40 ADD PUSH1 0x40 MSTORE DUP1 DUP3 DUP2 MSTORE PUSH1 0x20 ADD DUP8 ISZERO ISZERO DUP2 MSTORE POP PUSH1 0x3 DUP10 DUP7 DUP2 MLOAD DUP2 LT PUSH2 0x5DC JUMPI PUSH2 0x5DC PUSH2 0x1658 JUMP JUMPDEST PUSH1 0x20 MUL PUSH1 0x20 ADD ADD MLOAD PUSH1 0x0 ADD MLOAD PUSH1 0x40 MLOAD PUSH2 0x5F5 SWAP2 SWAP1 PUSH2 0x16C6 JUMP JUMPDEST SWAP1 DUP2 MSTORE PUSH1 0x40 DUP1 MLOAD PUSH1 0x20 SWAP3 DUP2 SWAP1 SUB DUP4 ADD SWAP1 KECCAK256 PUSH1 0x1 PUSH1 0x1 PUSH1 0xA0 SHL SUB DUP12 AND PUSH1 0x0 SWAP1 DUP2 MSTORE SWAP1 DUP4 MSTORE KECCAK256 DUP3 MLOAD DUP2 SSTORE SWAP2 ADD MLOAD PUSH1 0x1 SWAP2 DUP3 ADD DUP1 SLOAD PUSH1 0xFF NOT AND SWAP2 ISZERO ISZERO SWAP2 SWAP1 SWAP2 OR SWAP1 SSTORE SWAP4 SWAP1 SWAP4 ADD SWAP3 POP PUSH2 0x45B SWAP2 POP POP JUMP JUMPDEST POP PUSH1 0x5 SLOAD TIMESTAMP SWAP1 PUSH1 0x0 SWAP1 PUSH2 0x655 SWAP1 DUP4 PUSH2 0x16E2 JUMP JUMPDEST SWAP1 POP PUSH1 0x0 PUSH2 0x665 PUSH2 0x12C DUP5 PUSH2 0x170B JUMP JUMPDEST PUSH2 0x671 SWAP1 PUSH2 0x12C PUSH2 0x16E2 JUMP JUMPDEST SWAP1 POP PUSH2 0x12C DUP3 LT ISZERO DUP1 ISZERO PUSH2 0x686 JUMPI POP PUSH2 0x12C DUP2 LT JUMPDEST ISZERO PUSH2 0x6A1 JUMPI PUSH2 0x693 PUSH2 0x318 JUMP JUMPDEST PUSH2 0x69D DUP2 DUP5 PUSH2 0x16E2 JUMP JUMPDEST PUSH1 0x5 SSTORE JUMPDEST POP POP POP POP POP POP POP JUMP JUMPDEST PUSH1 0x4 PUSH1 0x20 MSTORE DUP2 PUSH1 0x0 MSTORE PUSH1 0x40 PUSH1 0x0 KECCAK256 DUP2 DUP2 SLOAD DUP2 LT PUSH2 0x6C6 JUMPI PUSH1 0x0 DUP1 REVERT JUMPDEST SWAP1 PUSH1 0x0 MSTORE PUSH1 0x20 PUSH1 0x0 KECCAK256 ADD PUSH1 0x0 SWAP2 POP SWAP2 POP POP DUP1 SLOAD PUSH2 0x6E2 SWAP1 PUSH2 0x171F JUMP JUMPDEST DUP1 PUSH1 0x1F ADD PUSH1 0x20 DUP1 SWAP2 DIV MUL PUSH1 0x20 ADD PUSH1 0x40 MLOAD SWAP1 DUP2 ADD PUSH1 0x40 MSTORE DUP1 SWAP3 SWAP2 SWAP1 DUP2 DUP2 MSTORE PUSH1 0x20 ADD DUP3 DUP1 SLOAD PUSH2 0x70E SWAP1 PUSH2 0x171F JUMP JUMPDEST DUP1 ISZERO PUSH2 0x75B JUMPI DUP1 PUSH1 0x1F LT PUSH2 0x730 JUMPI PUSH2 0x100 DUP1 DUP4 SLOAD DIV MUL DUP4 MSTORE SWAP2 PUSH1 0x20 ADD SWAP2 PUSH2 0x75B JUMP JUMPDEST DUP3 ADD SWAP2 SWAP1 PUSH1 0x0 MSTORE PUSH1 0x20 PUSH1 0x0 KECCAK256 SWAP1 JUMPDEST DUP2 SLOAD DUP2 MSTORE SWAP1 PUSH1 0x1 ADD SWAP1 PUSH1 0x20 ADD DUP1 DUP4 GT PUSH2 0x73E JUMPI DUP3 SWAP1 SUB PUSH1 0x1F AND DUP3 ADD SWAP2 JUMPDEST POP POP POP POP POP DUP2 JUMP JUMPDEST PUSH1 0x0 DUP1 SLOAD PUSH1 0x40 MLOAD PUSH4 0xFACD743B PUSH1 0xE0 SHL DUP2 MSTORE PUSH1 0x1 PUSH1 0x1 PUSH1 0xA0 SHL SUB DUP5 DUP2 AND PUSH1 0x4 DUP4 ADD MSTORE SWAP1 SWAP2 AND SWAP1 PUSH4 0xFACD743B SWAP1 PUSH1 0x24 ADD PUSH1 0x20 PUSH1 0x40 MLOAD DUP1 DUP4 SUB DUP2 DUP7 GAS STATICCALL ISZERO DUP1 ISZERO PUSH2 0x7AE JUMPI RETURNDATASIZE PUSH1 0x0 DUP1 RETURNDATACOPY RETURNDATASIZE PUSH1 0x0 REVERT JUMPDEST POP POP POP POP PUSH1 0x40 MLOAD RETURNDATASIZE PUSH1 0x1F NOT PUSH1 0x1F DUP3 ADD AND DUP3 ADD DUP1 PUSH1 0x40 MSTORE POP DUP2 ADD SWAP1 PUSH2 0x312 SWAP2 SWAP1 PUSH2 0x1759 JUMP JUMPDEST PUSH1 0x0 DUP1 PUSH1 0x2 DUP4 PUSH1 0x40 MLOAD PUSH2 0x7E5 SWAP2 SWAP1 PUSH2 0x16C6 JUMP JUMPDEST SWAP1 DUP2 MSTORE PUSH1 0x40 DUP1 MLOAD SWAP2 DUP3 SWAP1 SUB PUSH1 0x20 SWAP1 DUP2 ADD DUP4 KECCAK256 DUP1 SLOAD DUP1 DUP4 MUL DUP6 ADD DUP4 ADD SWAP1 SWAP4 MSTORE DUP3 DUP5 MSTORE SWAP2 SWAP1 DUP4 ADD DUP3 DUP3 DUP1 ISZERO PUSH2 0x841 JUMPI PUSH1 0x20 MUL DUP3 ADD SWAP2 SWAP1 PUSH1 0x0 MSTORE PUSH1 0x20 PUSH1 0x0 KECCAK256 SWAP1 JUMPDEST DUP2 SLOAD PUSH1 0x1 PUSH1 0x1 PUSH1 0xA0 SHL SUB AND DUP2 MSTORE PUSH1 0x1 SWAP1 SWAP2 ADD SWAP1 PUSH1 0x20 ADD DUP1 DUP4 GT PUSH2 0x823 JUMPI JUMPDEST POP POP POP POP POP SWAP1 POP PUSH1 0x0 PUSH1 0x64 DUP3 MLOAD PUSH1 0x3C PUSH2 0x85A SWAP2 SWAP1 PUSH2 0x1776 JUMP JUMPDEST PUSH2 0x864 SWAP2 SWAP1 PUSH2 0x178D JUMP JUMPDEST DUP3 MLOAD SWAP1 SWAP2 POP PUSH1 0x0 SWAP1 DUP2 SWAP1 DUP2 SWAP1 PUSH8 0xFFFFFFFFFFFFFFFF DUP2 GT ISZERO PUSH2 0x888 JUMPI PUSH2 0x888 PUSH2 0x1022 JUMP JUMPDEST PUSH1 0x40 MLOAD SWAP1 DUP1 DUP3 MSTORE DUP1 PUSH1 0x20 MUL PUSH1 0x20 ADD DUP3 ADD PUSH1 0x40 MSTORE DUP1 ISZERO PUSH2 0x8CD JUMPI DUP2 PUSH1 0x20 ADD JUMPDEST PUSH1 0x40 DUP1 MLOAD DUP1 DUP3 ADD SWAP1 SWAP2 MSTORE PUSH1 0x0 DUP1 DUP3 MSTORE PUSH1 0x20 DUP3 ADD MSTORE DUP2 MSTORE PUSH1 0x20 ADD SWAP1 PUSH1 0x1 SWAP1 SUB SWAP1 DUP2 PUSH2 0x8A6 JUMPI SWAP1 POP JUMPDEST POP SWAP1 POP PUSH1 0x0 JUMPDEST DUP6 MLOAD DUP2 LT ISZERO PUSH2 0xA58 JUMPI PUSH1 0x0 PUSH1 0x3 DUP10 PUSH1 0x40 MLOAD PUSH2 0x8EE SWAP2 SWAP1 PUSH2 0x16C6 JUMP JUMPDEST SWAP1 DUP2 MSTORE PUSH1 0x20 ADD PUSH1 0x40 MLOAD DUP1 SWAP2 SUB SWAP1 KECCAK256 PUSH1 0x0 DUP9 DUP5 DUP2 MLOAD DUP2 LT PUSH2 0x910 JUMPI PUSH2 0x910 PUSH2 0x1658 JUMP JUMPDEST PUSH1 0x20 MUL PUSH1 0x20 ADD ADD MLOAD PUSH1 0x1 PUSH1 0x1 PUSH1 0xA0 SHL SUB AND PUSH1 0x1 PUSH1 0x1 PUSH1 0xA0 SHL SUB AND DUP2 MSTORE PUSH1 0x20 ADD SWAP1 DUP2 MSTORE PUSH1 0x20 ADD PUSH1 0x0 KECCAK256 PUSH1 0x0 ADD SLOAD SWAP1 POP PUSH1 0x0 DUP1 JUMPDEST DUP5 MLOAD DUP2 LT ISZERO PUSH2 0x9AE JUMPI DUP3 DUP6 DUP3 DUP2 MLOAD DUP2 LT PUSH2 0x95E JUMPI PUSH2 0x95E PUSH2 0x1658 JUMP JUMPDEST PUSH1 0x20 MUL PUSH1 0x20 ADD ADD MLOAD PUSH1 0x0 ADD MLOAD SUB PUSH2 0x9A6 JUMPI DUP5 DUP2 DUP2 MLOAD DUP2 LT PUSH2 0x981 JUMPI PUSH2 0x981 PUSH2 0x1658 JUMP JUMPDEST PUSH1 0x20 MUL PUSH1 0x20 ADD ADD MLOAD PUSH1 0x20 ADD DUP1 MLOAD DUP1 SWAP2 SWAP1 PUSH2 0x99A SWAP1 PUSH2 0x17A1 JUMP JUMPDEST SWAP1 MSTORE POP PUSH1 0x1 SWAP2 POP PUSH2 0x9AE JUMP JUMPDEST PUSH1 0x1 ADD PUSH2 0x942 JUMP JUMPDEST POP DUP1 PUSH2 0x9E8 JUMPI PUSH1 0x40 MLOAD DUP1 PUSH1 0x40 ADD PUSH1 0x40 MSTORE DUP1 DUP4 DUP2 MSTORE PUSH1 0x20 ADD PUSH1 0x1 DUP2 MSTORE POP DUP5 DUP5 DUP2 MLOAD DUP2 LT PUSH2 0x9DC JUMPI PUSH2 0x9DC PUSH2 0x1658 JUMP JUMPDEST PUSH1 0x20 MUL PUSH1 0x20 ADD ADD DUP2 SWAP1 MSTORE POP JUMPDEST DUP5 DUP5 DUP5 DUP2 MLOAD DUP2 LT PUSH2 0x9FB JUMPI PUSH2 0x9FB PUSH2 0x1658 JUMP JUMPDEST PUSH1 0x20 MUL PUSH1 0x20 ADD ADD MLOAD PUSH1 0x20 ADD MLOAD GT ISZERO PUSH2 0xA4E JUMPI DUP4 DUP4 DUP2 MLOAD DUP2 LT PUSH2 0xA1F JUMPI PUSH2 0xA1F PUSH2 0x1658 JUMP JUMPDEST PUSH1 0x20 MUL PUSH1 0x20 ADD ADD MLOAD PUSH1 0x20 ADD MLOAD SWAP5 POP DUP4 DUP4 DUP2 MLOAD DUP2 LT PUSH2 0xA3F JUMPI PUSH2 0xA3F PUSH2 0x1658 JUMP JUMPDEST PUSH1 0x20 MUL PUSH1 0x20 ADD ADD MLOAD PUSH1 0x0 ADD MLOAD SWAP6 POP JUMPDEST POP POP PUSH1 0x1 ADD PUSH2 0x8D3 JUMP JUMPDEST POP DUP4 DUP3 LT PUSH2 0xA6B JUMPI POP SWAP1 SWAP6 SWAP5 POP POP POP POP POP JUMP JUMPDEST POP PUSH1 0x0 SWAP7 SWAP6 POP POP POP POP POP POP JUMP JUMPDEST PUSH1 0x0 DUP2 DUP2 MSTORE PUSH1 0x4 PUSH1 0x20 SWAP1 DUP2 MSTORE PUSH1 0x40 DUP1 DUP4 KECCAK256 DUP1 SLOAD DUP3 MLOAD DUP2 DUP6 MUL DUP2 ADD DUP6 ADD SWAP1 SWAP4 MSTORE DUP1 DUP4 MSTORE SWAP2 SWAP3 SWAP1 SWAP2 SWAP1 DUP5 SWAP1 DUP5 ADD JUMPDEST DUP3 DUP3 LT ISZERO PUSH2 0xB50 JUMPI DUP4 DUP3 SWAP1 PUSH1 0x0 MSTORE PUSH1 0x20 PUSH1 0x0 KECCAK256 ADD DUP1 SLOAD PUSH2 0xAC3 SWAP1 PUSH2 0x171F JUMP JUMPDEST DUP1 PUSH1 0x1F ADD PUSH1 0x20 DUP1 SWAP2 DIV MUL PUSH1 0x20 ADD PUSH1 0x40 MLOAD SWAP1 DUP2 ADD PUSH1 0x40 MSTORE DUP1 SWAP3 SWAP2 SWAP1 DUP2 DUP2 MSTORE PUSH1 0x20 ADD DUP3 DUP1 SLOAD PUSH2 0xAEF SWAP1 PUSH2 0x171F JUMP JUMPDEST DUP1 ISZERO PUSH2 0xB3C JUMPI DUP1 PUSH1 0x1F LT PUSH2 0xB11 JUMPI PUSH2 0x100 DUP1 DUP4 SLOAD DIV MUL DUP4 MSTORE SWAP2 PUSH1 0x20 ADD SWAP2 PUSH2 0xB3C JUMP JUMPDEST DUP3 ADD SWAP2 SWAP1 PUSH1 0x0 MSTORE PUSH1 0x20 PUSH1 0x0 KECCAK256 SWAP1 JUMPDEST DUP2 SLOAD DUP2 MSTORE SWAP1 PUSH1 0x1 ADD SWAP1 PUSH1 0x20 ADD DUP1 DUP4 GT PUSH2 0xB1F JUMPI DUP3 SWAP1 SUB PUSH1 0x1F AND DUP3 ADD SWAP2 JUMPDEST POP POP POP POP POP DUP2 MSTORE PUSH1 0x20 ADD SWAP1 PUSH1 0x1 ADD SWAP1 PUSH2 0xAA4 JUMP JUMPDEST POP POP POP POP SWAP1 POP PUSH1 0x0 PUSH2 0xB61 DUP3 PUSH2 0x299 JUMP JUMPDEST SWAP1 POP PUSH1 0x0 PUSH2 0xB6D PUSH2 0xEE2 JUMP JUMPDEST SWAP1 POP PUSH1 0x0 JUMPDEST DUP3 MLOAD DUP2 LT ISZERO PUSH2 0xC4C JUMPI PUSH1 0x0 PUSH1 0x1 PUSH1 0x1 PUSH1 0xA0 SHL SUB AND DUP4 DUP3 DUP2 MLOAD DUP2 LT PUSH2 0xB98 JUMPI PUSH2 0xB98 PUSH2 0x1658 JUMP JUMPDEST PUSH1 0x20 MUL PUSH1 0x20 ADD ADD MLOAD PUSH1 0x1 PUSH1 0x1 PUSH1 0xA0 SHL SUB AND EQ PUSH2 0xC44 JUMPI PUSH1 0x1 SLOAD DUP4 MLOAD PUSH1 0x1 PUSH1 0x1 PUSH1 0xA0 SHL SUB SWAP1 SWAP2 AND SWAP1 PUSH4 0xF0DDA65C SWAP1 DUP6 SWAP1 DUP5 SWAP1 DUP2 LT PUSH2 0xBD7 JUMPI PUSH2 0xBD7 PUSH2 0x1658 JUMP JUMPDEST PUSH1 0x20 MUL PUSH1 0x20 ADD ADD MLOAD DUP5 PUSH1 0x40 MLOAD DUP4 PUSH4 0xFFFFFFFF AND PUSH1 0xE0 SHL DUP2 MSTORE PUSH1 0x4 ADD PUSH2 0xC11 SWAP3 SWAP2 SWAP1 PUSH1 0x1 PUSH1 0x1 PUSH1 0xA0 SHL SUB SWAP3 SWAP1 SWAP3 AND DUP3 MSTORE PUSH1 0x20 DUP3 ADD MSTORE PUSH1 0x40 ADD SWAP1 JUMP JUMPDEST PUSH1 0x0 PUSH1 0x40 MLOAD DUP1 DUP4 SUB DUP2 PUSH1 0x0 DUP8 DUP1 EXTCODESIZE ISZERO DUP1 ISZERO PUSH2 0xC2B JUMPI PUSH1 0x0 DUP1 REVERT JUMPDEST POP GAS CALL ISZERO DUP1 ISZERO PUSH2 0xC3F JUMPI RETURNDATASIZE PUSH1 0x0 DUP1 RETURNDATACOPY RETURNDATASIZE PUSH1 0x0 REVERT JUMPDEST POP POP POP POP JUMPDEST PUSH1 0x1 ADD PUSH2 0xB72 JUMP JUMPDEST POP POP POP POP POP JUMP JUMPDEST PUSH1 0x0 DUP1 PUSH1 0x0 SWAP1 SLOAD SWAP1 PUSH2 0x100 EXP SWAP1 DIV PUSH1 0x1 PUSH1 0x1 PUSH1 0xA0 SHL SUB AND PUSH1 0x1 PUSH1 0x1 PUSH1 0xA0 SHL SUB AND PUSH4 0x3DC0FF7D PUSH1 0x40 MLOAD DUP2 PUSH4 0xFFFFFFFF AND PUSH1 0xE0 SHL DUP2 MSTORE PUSH1 0x4 ADD PUSH1 0x0 PUSH1 0x40 MLOAD DUP1 DUP4 SUB DUP2 DUP7 GAS STATICCALL ISZERO DUP1 ISZERO PUSH2 0xCA7 JUMPI RETURNDATASIZE PUSH1 0x0 DUP1 RETURNDATACOPY RETURNDATASIZE PUSH1 0x0 REVERT JUMPDEST POP POP POP POP PUSH1 0x40 MLOAD RETURNDATASIZE PUSH1 0x0 DUP3 RETURNDATACOPY PUSH1 0x1F RETURNDATASIZE SWAP1 DUP2 ADD PUSH1 0x1F NOT AND DUP3 ADD PUSH1 0x40 MSTORE PUSH2 0xCCF SWAP2 SWAP1 DUP2 ADD SWAP1 PUSH2 0x156B JUMP JUMPDEST SWAP1 POP PUSH1 0x0 JUMPDEST DUP2 MLOAD DUP2 LT ISZERO PUSH2 0xDF9 JUMPI PUSH1 0x0 DUP3 DUP3 DUP2 MLOAD DUP2 LT PUSH2 0xCF1 JUMPI PUSH2 0xCF1 PUSH2 0x1658 JUMP JUMPDEST PUSH1 0x20 MUL PUSH1 0x20 ADD ADD MLOAD SWAP1 POP PUSH1 0x0 PUSH1 0x2 DUP3 PUSH1 0x40 MLOAD PUSH2 0xD0D SWAP2 SWAP1 PUSH2 0x16C6 JUMP JUMPDEST SWAP1 DUP2 MSTORE PUSH1 0x40 DUP1 MLOAD SWAP2 DUP3 SWAP1 SUB PUSH1 0x20 SWAP1 DUP2 ADD DUP4 KECCAK256 DUP1 SLOAD DUP1 DUP4 MUL DUP6 ADD DUP4 ADD SWAP1 SWAP4 MSTORE DUP3 DUP5 MSTORE SWAP2 SWAP1 DUP4 ADD DUP3 DUP3 DUP1 ISZERO PUSH2 0xD69 JUMPI PUSH1 0x20 MUL DUP3 ADD SWAP2 SWAP1 PUSH1 0x0 MSTORE PUSH1 0x20 PUSH1 0x0 KECCAK256 SWAP1 JUMPDEST DUP2 SLOAD PUSH1 0x1 PUSH1 0x1 PUSH1 0xA0 SHL SUB AND DUP2 MSTORE PUSH1 0x1 SWAP1 SWAP2 ADD SWAP1 PUSH1 0x20 ADD DUP1 DUP4 GT PUSH2 0xD4B JUMPI JUMPDEST POP POP POP POP POP SWAP1 POP PUSH1 0x0 JUMPDEST DUP2 MLOAD DUP2 LT ISZERO PUSH2 0xDEE JUMPI PUSH1 0x0 PUSH1 0x3 DUP5 PUSH1 0x40 MLOAD PUSH2 0xD8E SWAP2 SWAP1 PUSH2 0x16C6 JUMP JUMPDEST SWAP1 DUP2 MSTORE PUSH1 0x20 ADD PUSH1 0x40 MLOAD DUP1 SWAP2 SUB SWAP1 KECCAK256 PUSH1 0x0 DUP5 DUP5 DUP2 MLOAD DUP2 LT PUSH2 0xDB0 JUMPI PUSH2 0xDB0 PUSH2 0x1658 JUMP JUMPDEST PUSH1 0x20 SWAP1 DUP2 MUL SWAP2 SWAP1 SWAP2 ADD DUP2 ADD MLOAD PUSH1 0x1 PUSH1 0x1 PUSH1 0xA0 SHL SUB AND DUP3 MSTORE DUP2 ADD SWAP2 SWAP1 SWAP2 MSTORE PUSH1 0x40 ADD PUSH1 0x0 KECCAK256 PUSH1 0x1 SWAP1 DUP2 ADD DUP1 SLOAD PUSH1 0xFF NOT AND SWAP3 ISZERO ISZERO SWAP3 SWAP1 SWAP3 OR SWAP1 SWAP2 SSTORE ADD PUSH2 0xD73 JUMP JUMPDEST POP POP POP PUSH1 0x1 ADD PUSH2 0xCD4 JUMP JUMPDEST POP POP JUMP JUMPDEST PUSH1 0x0 DUP1 JUMPDEST PUSH1 0x2 DUP5 PUSH1 0x40 MLOAD PUSH2 0xE11 SWAP2 SWAP1 PUSH2 0x16C6 JUMP JUMPDEST SWAP1 DUP2 MSTORE PUSH1 0x40 MLOAD SWAP1 DUP2 SWAP1 SUB PUSH1 0x20 ADD SWAP1 KECCAK256 SLOAD DUP2 LT ISZERO PUSH2 0xE8C JUMPI DUP3 PUSH1 0x1 PUSH1 0x1 PUSH1 0xA0 SHL SUB AND PUSH1 0x2 DUP6 PUSH1 0x40 MLOAD PUSH2 0xE42 SWAP2 SWAP1 PUSH2 0x16C6 JUMP JUMPDEST SWAP1 DUP2 MSTORE PUSH1 0x20 ADD PUSH1 0x40 MLOAD DUP1 SWAP2 SUB SWAP1 KECCAK256 DUP3 DUP2 SLOAD DUP2 LT PUSH2 0xE61 JUMPI PUSH2 0xE61 PUSH2 0x1658 JUMP JUMPDEST PUSH1 0x0 SWAP2 DUP3 MSTORE PUSH1 0x20 SWAP1 SWAP2 KECCAK256 ADD SLOAD PUSH1 0x1 PUSH1 0x1 PUSH1 0xA0 SHL SUB AND SUB PUSH2 0xE84 JUMPI PUSH1 0x1 SWAP2 POP PUSH2 0xE8C JUMP JUMPDEST PUSH1 0x1 ADD PUSH2 0xE01 JUMP JUMPDEST POP DUP1 PUSH2 0xEDD JUMPI PUSH1 0x2 DUP4 PUSH1 0x40 MLOAD PUSH2 0xEA2 SWAP2 SWAP1 PUSH2 0x16C6 JUMP JUMPDEST SWAP1 DUP2 MSTORE PUSH1 0x40 MLOAD PUSH1 0x20 SWAP2 DUP2 SWAP1 SUB DUP3 ADD SWAP1 KECCAK256 DUP1 SLOAD PUSH1 0x1 DUP2 ADD DUP3 SSTORE PUSH1 0x0 SWAP2 DUP3 MSTORE SWAP2 SWAP1 KECCAK256 ADD DUP1 SLOAD PUSH1 0x1 PUSH1 0x1 PUSH1 0xA0 SHL SUB NOT AND PUSH1 0x1 PUSH1 0x1 PUSH1 0xA0 SHL SUB DUP5 AND OR SWAP1 SSTORE JUMPDEST POP POP POP JUMP JUMPDEST PUSH1 0x0 DUP1 PUSH1 0x5 SLOAD TIMESTAMP PUSH2 0xEF3 SWAP2 SWAP1 PUSH2 0x16E2 JUMP JUMPDEST SWAP1 POP PUSH2 0x258 DUP2 GT ISZERO PUSH2 0xF04 JUMPI POP PUSH2 0x258 JUMPDEST PUSH2 0xF16 PUSH8 0xDE0B6B3A7640000 DUP3 PUSH2 0x1776 JUMP JUMPDEST SWAP2 POP POP SWAP1 JUMP JUMPDEST DUP3 DUP1 SLOAD DUP3 DUP3 SSTORE SWAP1 PUSH1 0x0 MSTORE PUSH1 0x20 PUSH1 0x0 KECCAK256 SWAP1 DUP2 ADD SWAP3 DUP3 ISZERO PUSH2 0xF62 JUMPI SWAP2 PUSH1 0x20 MUL DUP3 ADD JUMPDEST DUP3 DUP2 GT ISZERO PUSH2 0xF62 JUMPI DUP3 MLOAD DUP3 SWAP1 PUSH2 0xF52 SWAP1 DUP3 PUSH2 0x180A JUMP JUMPDEST POP SWAP2 PUSH1 0x20 ADD SWAP2 SWAP1 PUSH1 0x1 ADD SWAP1 PUSH2 0xF3C JUMP JUMPDEST POP PUSH2 0xF6E SWAP3 SWAP2 POP PUSH2 0xF72 JUMP JUMPDEST POP SWAP1 JUMP JUMPDEST DUP1 DUP3 GT ISZERO PUSH2 0xF6E JUMPI PUSH1 0x0 PUSH2 0xF86 DUP3 DUP3 PUSH2 0xF8F JUMP JUMPDEST POP PUSH1 0x1 ADD PUSH2 0xF72 JUMP JUMPDEST POP DUP1 SLOAD PUSH2 0xF9B SWAP1 PUSH2 0x171F JUMP JUMPDEST PUSH1 0x0 DUP3 SSTORE DUP1 PUSH1 0x1F LT PUSH2 0xFAB JUMPI POP POP JUMP JUMPDEST PUSH1 0x1F ADD PUSH1 0x20 SWAP1 DIV SWAP1 PUSH1 0x0 MSTORE PUSH1 0x20 PUSH1 0x0 KECCAK256 SWAP1 DUP2 ADD SWAP1 PUSH2 0x3EF SWAP2 SWAP1 JUMPDEST DUP1 DUP3 GT ISZERO PUSH2 0xF6E JUMPI PUSH1 0x0 DUP2 SSTORE PUSH1 0x1 ADD PUSH2 0xFC5 JUMP JUMPDEST PUSH1 0x1 PUSH1 0x1 PUSH1 0xA0 SHL SUB DUP2 AND DUP2 EQ PUSH2 0x3EF JUMPI PUSH1 0x0 DUP1 REVERT JUMPDEST DUP1 CALLDATALOAD PUSH2 0xFF9 DUP2 PUSH2 0xFD9 JUMP JUMPDEST SWAP2 SWAP1 POP JUMP JUMPDEST PUSH1 0x0 PUSH1 0x20 DUP3 DUP5 SUB SLT ISZERO PUSH2 0x1010 JUMPI PUSH1 0x0 DUP1 REVERT JUMPDEST DUP2 CALLDATALOAD PUSH2 0x101B DUP2 PUSH2 0xFD9 JUMP JUMPDEST SWAP4 SWAP3 POP POP POP JUMP JUMPDEST PUSH4 0x4E487B71 PUSH1 0xE0 SHL PUSH1 0x0 MSTORE PUSH1 0x41 PUSH1 0x4 MSTORE PUSH1 0x24 PUSH1 0x0 REVERT JUMPDEST PUSH1 0x40 DUP1 MLOAD SWAP1 DUP2 ADD PUSH8 0xFFFFFFFFFFFFFFFF DUP2 GT DUP3 DUP3 LT OR ISZERO PUSH2 0x105B JUMPI PUSH2 0x105B PUSH2 0x1022 JUMP JUMPDEST PUSH1 0x40 MSTORE SWAP1 JUMP JUMPDEST PUSH1 0x40 MLOAD PUSH1 0x1F DUP3 ADD PUSH1 0x1F NOT AND DUP2 ADD PUSH8 0xFFFFFFFFFFFFFFFF DUP2 GT DUP3 DUP3 LT OR ISZERO PUSH2 0x108A JUMPI PUSH2 0x108A PUSH2 0x1022 JUMP JUMPDEST PUSH1 0x40 MSTORE SWAP2 SWAP1 POP JUMP JUMPDEST PUSH1 0x0 PUSH8 0xFFFFFFFFFFFFFFFF DUP3 GT ISZERO PUSH2 0x10AC JUMPI PUSH2 0x10AC PUSH2 0x1022 JUMP JUMPDEST POP PUSH1 0x5 SHL PUSH1 0x20 ADD SWAP1 JUMP JUMPDEST PUSH1 0x0 PUSH8 0xFFFFFFFFFFFFFFFF DUP3 GT ISZERO PUSH2 0x10D0 JUMPI PUSH2 0x10D0 PUSH2 0x1022 JUMP JUMPDEST POP PUSH1 0x1F ADD PUSH1 0x1F NOT AND PUSH1 0x20 ADD SWAP1 JUMP JUMPDEST PUSH1 0x0 DUP3 PUSH1 0x1F DUP4 ADD SLT PUSH2 0x10EF JUMPI PUSH1 0x0 DUP1 REVERT JUMPDEST DUP2 CALLDATALOAD PUSH2 0x1102 PUSH2 0x10FD DUP3 PUSH2 0x10B6 JUMP JUMPDEST PUSH2 0x1061 JUMP JUMPDEST DUP2 DUP2 MSTORE DUP5 PUSH1 0x20 DUP4 DUP7 ADD ADD GT ISZERO PUSH2 0x1117 JUMPI PUSH1 0x0 DUP1 REVERT JUMPDEST DUP2 PUSH1 0x20 DUP6 ADD PUSH1 0x20 DUP4 ADD CALLDATACOPY PUSH1 0x0 SWAP2 DUP2 ADD PUSH1 0x20 ADD SWAP2 SWAP1 SWAP2 MSTORE SWAP4 SWAP3 POP POP POP JUMP JUMPDEST PUSH1 0x0 DUP3 PUSH1 0x1F DUP4 ADD SLT PUSH2 0x1145 JUMPI PUSH1 0x0 DUP1 REVERT JUMPDEST DUP2 CALLDATALOAD PUSH1 0x20 PUSH2 0x1155 PUSH2 0x10FD DUP4 PUSH2 0x1092 JUMP JUMPDEST DUP3 DUP2 MSTORE PUSH1 0x5 SWAP3 SWAP1 SWAP3 SHL DUP5 ADD DUP2 ADD SWAP2 DUP2 DUP2 ADD SWAP1 DUP7 DUP5 GT ISZERO PUSH2 0x1174 JUMPI PUSH1 0x0 DUP1 REVERT JUMPDEST DUP3 DUP7 ADD JUMPDEST DUP5 DUP2 LT ISZERO PUSH2 0x11B4 JUMPI DUP1 CALLDATALOAD PUSH8 0xFFFFFFFFFFFFFFFF DUP2 GT ISZERO PUSH2 0x1198 JUMPI PUSH1 0x0 DUP1 DUP2 REVERT JUMPDEST PUSH2 0x11A6 DUP10 DUP7 DUP4 DUP12 ADD ADD PUSH2 0x10DE JUMP JUMPDEST DUP5 MSTORE POP SWAP2 DUP4 ADD SWAP2 DUP4 ADD PUSH2 0x1178 JUMP JUMPDEST POP SWAP7 SWAP6 POP POP POP POP POP POP JUMP JUMPDEST PUSH1 0x0 PUSH1 0x20 DUP3 DUP5 SUB SLT ISZERO PUSH2 0x11D1 JUMPI PUSH1 0x0 DUP1 REVERT JUMPDEST DUP2 CALLDATALOAD PUSH8 0xFFFFFFFFFFFFFFFF DUP2 GT ISZERO PUSH2 0x11E8 JUMPI PUSH1 0x0 DUP1 REVERT JUMPDEST PUSH2 0x11F4 DUP5 DUP3 DUP6 ADD PUSH2 0x1134 JUMP JUMPDEST SWAP5 SWAP4 POP POP POP POP JUMP JUMPDEST PUSH1 0x20 DUP1 DUP3 MSTORE DUP3 MLOAD DUP3 DUP3 ADD DUP2 SWAP1 MSTORE PUSH1 0x0 SWAP2 SWAP1 DUP5 DUP3 ADD SWAP1 PUSH1 0x40 DUP6 ADD SWAP1 DUP5 JUMPDEST DUP2 DUP2 LT ISZERO PUSH2 0x123D JUMPI DUP4 MLOAD PUSH1 0x1 PUSH1 0x1 PUSH1 0xA0 SHL SUB AND DUP4 MSTORE SWAP3 DUP5 ADD SWAP3 SWAP2 DUP5 ADD SWAP2 PUSH1 0x1 ADD PUSH2 0x1218 JUMP JUMPDEST POP SWAP1 SWAP7 SWAP6 POP POP POP POP POP POP JUMP JUMPDEST PUSH1 0x0 DUP1 PUSH1 0x40 DUP4 DUP6 SUB SLT ISZERO PUSH2 0x125C JUMPI PUSH1 0x0 DUP1 REVERT JUMPDEST DUP3 CALLDATALOAD PUSH8 0xFFFFFFFFFFFFFFFF DUP2 GT ISZERO PUSH2 0x1273 JUMPI PUSH1 0x0 DUP1 REVERT JUMPDEST PUSH2 0x127F DUP6 DUP3 DUP7 ADD PUSH2 0x10DE JUMP JUMPDEST SWAP3 POP POP PUSH1 0x20 DUP4 ADD CALLDATALOAD PUSH2 0x1290 DUP2 PUSH2 0xFD9 JUMP JUMPDEST DUP1 SWAP2 POP POP SWAP3 POP SWAP3 SWAP1 POP JUMP JUMPDEST DUP1 ISZERO ISZERO DUP2 EQ PUSH2 0x3EF JUMPI PUSH1 0x0 DUP1 REVERT JUMPDEST DUP1 CALLDATALOAD PUSH2 0xFF9 DUP2 PUSH2 0x129B JUMP JUMPDEST PUSH1 0x0 DUP1 PUSH1 0x0 PUSH1 0x60 DUP5 DUP7 SUB SLT ISZERO PUSH2 0x12C9 JUMPI PUSH1 0x0 DUP1 REVERT JUMPDEST DUP4 CALLDATALOAD PUSH8 0xFFFFFFFFFFFFFFFF DUP1 DUP3 GT ISZERO PUSH2 0x12E1 JUMPI PUSH1 0x0 DUP1 REVERT JUMPDEST DUP2 DUP7 ADD SWAP2 POP DUP7 PUSH1 0x1F DUP4 ADD SLT PUSH2 0x12F5 JUMPI PUSH1 0x0 DUP1 REVERT JUMPDEST DUP2 CALLDATALOAD PUSH1 0x20 PUSH2 0x1305 PUSH2 0x10FD DUP4 PUSH2 0x1092 JUMP JUMPDEST DUP3 DUP2 MSTORE PUSH1 0x5 SWAP3 SWAP1 SWAP3 SHL DUP5 ADD DUP2 ADD SWAP2 DUP2 DUP2 ADD SWAP1 DUP11 DUP5 GT ISZERO PUSH2 0x1324 JUMPI PUSH1 0x0 DUP1 REVERT JUMPDEST DUP3 DUP7 ADD JUMPDEST DUP5 DUP2 LT ISZERO PUSH2 0x13B5 JUMPI DUP1 CALLDATALOAD DUP7 DUP2 GT ISZERO PUSH2 0x133F JUMPI PUSH1 0x0 DUP1 REVERT JUMPDEST DUP8 ADD PUSH1 0x40 DUP2 DUP15 SUB PUSH1 0x1F NOT ADD SLT ISZERO PUSH2 0x1356 JUMPI PUSH1 0x0 DUP1 DUP2 REVERT JUMPDEST PUSH2 0x135E PUSH2 0x1038 JUMP JUMPDEST DUP6 DUP3 ADD CALLDATALOAD DUP9 DUP2 GT ISZERO PUSH2 0x1370 JUMPI PUSH1 0x0 DUP1 DUP2 REVERT JUMPDEST PUSH2 0x137E DUP16 DUP9 DUP4 DUP7 ADD ADD PUSH2 0x10DE JUMP JUMPDEST DUP3 MSTORE POP PUSH1 0x40 DUP3 ADD CALLDATALOAD DUP9 DUP2 GT ISZERO PUSH2 0x1394 JUMPI PUSH1 0x0 DUP1 DUP2 REVERT JUMPDEST PUSH2 0x13A2 DUP16 DUP9 DUP4 DUP7 ADD ADD PUSH2 0x1134 JUMP JUMPDEST DUP3 DUP9 ADD MSTORE POP DUP5 MSTORE POP SWAP2 DUP4 ADD SWAP2 DUP4 ADD PUSH2 0x1328 JUMP JUMPDEST POP SWAP8 POP PUSH2 0x13C5 SWAP1 POP DUP9 DUP3 ADD PUSH2 0xFEE JUMP JUMPDEST SWAP6 POP POP POP POP POP PUSH2 0x13D7 PUSH1 0x40 DUP6 ADD PUSH2 0x12A9 JUMP JUMPDEST SWAP1 POP SWAP3 POP SWAP3 POP SWAP3 JUMP JUMPDEST PUSH1 0x0 DUP1 PUSH1 0x40 DUP4 DUP6 SUB SLT ISZERO PUSH2 0x13F3 JUMPI PUSH1 0x0 DUP1 REVERT JUMPDEST POP POP DUP1 CALLDATALOAD SWAP3 PUSH1 0x20 SWAP1 SWAP2 ADD CALLDATALOAD SWAP2 POP JUMP JUMPDEST PUSH1 0x0 JUMPDEST DUP4 DUP2 LT ISZERO PUSH2 0x141D JUMPI DUP2 DUP2 ADD MLOAD DUP4 DUP3 ADD MSTORE PUSH1 0x20 ADD PUSH2 0x1405 JUMP JUMPDEST POP POP PUSH1 0x0 SWAP2 ADD MSTORE JUMP JUMPDEST PUSH1 0x0 DUP2 MLOAD DUP1 DUP5 MSTORE PUSH2 0x143E DUP2 PUSH1 0x20 DUP7 ADD PUSH1 0x20 DUP7 ADD PUSH2 0x1402 JUMP JUMPDEST PUSH1 0x1F ADD PUSH1 0x1F NOT AND SWAP3 SWAP1 SWAP3 ADD PUSH1 0x20 ADD SWAP3 SWAP2 POP POP JUMP JUMPDEST PUSH1 0x20 DUP2 MSTORE PUSH1 0x0 PUSH2 0x101B PUSH1 0x20 DUP4 ADD DUP5 PUSH2 0x1426 JUMP JUMPDEST PUSH1 0x0 PUSH1 0x40 DUP3 ADD PUSH1 0x40 DUP4 MSTORE DUP1 DUP6 MLOAD DUP1 DUP4 MSTORE PUSH1 0x60 DUP6 ADD SWAP2 POP PUSH1 0x60 DUP2 PUSH1 0x5 SHL DUP7 ADD ADD SWAP3 POP PUSH1 0x20 DUP1 DUP9 ADD PUSH1 0x0 JUMPDEST DUP4 DUP2 LT ISZERO PUSH2 0x14BC JUMPI PUSH1 0x5F NOT DUP9 DUP8 SUB ADD DUP6 MSTORE PUSH2 0x14AA DUP7 DUP4 MLOAD PUSH2 0x1426 JUMP JUMPDEST SWAP6 POP SWAP4 DUP3 ADD SWAP4 SWAP1 DUP3 ADD SWAP1 PUSH1 0x1 ADD PUSH2 0x148E JUMP JUMPDEST POP POP POP POP POP PUSH1 0x20 SWAP3 SWAP1 SWAP3 ADD SWAP3 SWAP1 SWAP3 MSTORE SWAP3 SWAP2 POP POP JUMP JUMPDEST PUSH1 0x0 PUSH1 0x20 DUP1 DUP4 DUP6 SUB SLT ISZERO PUSH2 0x14E4 JUMPI PUSH1 0x0 DUP1 REVERT JUMPDEST DUP3 MLOAD PUSH8 0xFFFFFFFFFFFFFFFF DUP2 GT ISZERO PUSH2 0x14FB JUMPI PUSH1 0x0 DUP1 REVERT JUMPDEST DUP4 ADD PUSH1 0x1F DUP2 ADD DUP6 SGT PUSH2 0x150C JUMPI PUSH1 0x0 DUP1 REVERT JUMPDEST DUP1 MLOAD PUSH2 0x151A PUSH2 0x10FD DUP3 PUSH2 0x1092 JUMP JUMPDEST DUP2 DUP2 MSTORE PUSH1 0x5 SWAP2 SWAP1 SWAP2 SHL DUP3 ADD DUP4 ADD SWAP1 DUP4 DUP2 ADD SWAP1 DUP8 DUP4 GT ISZERO PUSH2 0x1539 JUMPI PUSH1 0x0 DUP1 REVERT JUMPDEST SWAP3 DUP5 ADD SWAP3 JUMPDEST DUP3 DUP5 LT ISZERO PUSH2 0x1560 JUMPI DUP4 MLOAD PUSH2 0x1551 DUP2 PUSH2 0xFD9 JUMP JUMPDEST DUP3 MSTORE SWAP3 DUP5 ADD SWAP3 SWAP1 DUP5 ADD SWAP1 PUSH2 0x153E JUMP JUMPDEST SWAP8 SWAP7 POP POP POP POP POP POP POP JUMP JUMPDEST PUSH1 0x0 PUSH1 0x20 DUP1 DUP4 DUP6 SUB SLT ISZERO PUSH2 0x157E JUMPI PUSH1 0x0 DUP1 REVERT JUMPDEST DUP3 MLOAD PUSH8 0xFFFFFFFFFFFFFFFF DUP1 DUP3 GT ISZERO PUSH2 0x1596 JUMPI PUSH1 0x0 DUP1 REVERT JUMPDEST DUP2 DUP6 ADD SWAP2 POP DUP6 PUSH1 0x1F DUP4 ADD SLT PUSH2 0x15AA JUMPI PUSH1 0x0 DUP1 REVERT JUMPDEST DUP2 MLOAD PUSH2 0x15B8 PUSH2 0x10FD DUP3 PUSH2 0x1092 JUMP JUMPDEST DUP2 DUP2 MSTORE PUSH1 0x5 SWAP2 SWAP1 SWAP2 SHL DUP4 ADD DUP5 ADD SWAP1 DUP5 DUP2 ADD SWAP1 DUP9 DUP4 GT ISZERO PUSH2 0x15D7 JUMPI PUSH1 0x0 DUP1 REVERT JUMPDEST DUP6 DUP6 ADD JUMPDEST DUP4 DUP2 LT ISZERO PUSH2 0x164B JUMPI DUP1 MLOAD DUP6 DUP2 GT ISZERO PUSH2 0x15F3 JUMPI PUSH1 0x0 DUP1 DUP2 REVERT JUMPDEST DUP7 ADD PUSH1 0x3F DUP2 ADD DUP12 SGT PUSH2 0x1605 JUMPI PUSH1 0x0 DUP1 DUP2 REVERT JUMPDEST DUP8 DUP2 ADD MLOAD PUSH1 0x40 PUSH2 0x1617 PUSH2 0x10FD DUP4 PUSH2 0x10B6 JUMP JUMPDEST DUP3 DUP2 MSTORE DUP14 DUP3 DUP5 DUP7 ADD ADD GT ISZERO PUSH2 0x162C JUMPI PUSH1 0x0 DUP1 DUP2 REVERT JUMPDEST PUSH2 0x163B DUP4 DUP13 DUP4 ADD DUP5 DUP8 ADD PUSH2 0x1402 JUMP JUMPDEST DUP7 MSTORE POP POP POP SWAP2 DUP7 ADD SWAP2 DUP7 ADD PUSH2 0x15DB JUMP JUMPDEST POP SWAP9 SWAP8 POP POP POP POP POP POP POP POP JUMP JUMPDEST PUSH4 0x4E487B71 PUSH1 0xE0 SHL PUSH1 0x0 MSTORE PUSH1 0x32 PUSH1 0x4 MSTORE PUSH1 0x24 PUSH1 0x0 REVERT JUMPDEST PUSH4 0x4E487B71 PUSH1 0xE0 SHL PUSH1 0x0 MSTORE PUSH1 0x11 PUSH1 0x4 MSTORE PUSH1 0x24 PUSH1 0x0 REVERT JUMPDEST DUP1 DUP3 ADD DUP1 DUP3 GT ISZERO PUSH2 0x312 JUMPI PUSH2 0x312 PUSH2 0x166E JUMP JUMPDEST PUSH1 0x0 DUP4 MLOAD PUSH2 0x16A9 DUP2 DUP5 PUSH1 0x20 DUP9 ADD PUSH2 0x1402 JUMP JUMPDEST DUP4 MLOAD SWAP1 DUP4 ADD SWAP1 PUSH2 0x16BD DUP2 DUP4 PUSH1 0x20 DUP9 ADD PUSH2 0x1402 JUMP JUMPDEST ADD SWAP5 SWAP4 POP POP POP POP JUMP JUMPDEST PUSH1 0x0 DUP3 MLOAD PUSH2 0x16D8 DUP2 DUP5 PUSH1 0x20 DUP8 ADD PUSH2 0x1402 JUMP JUMPDEST SWAP2 SWAP1 SWAP2 ADD SWAP3 SWAP2 POP POP JUMP JUMPDEST DUP2 DUP2 SUB DUP2 DUP2 GT ISZERO PUSH2 0x312 JUMPI PUSH2 0x312 PUSH2 0x166E JUMP JUMPDEST PUSH4 0x4E487B71 PUSH1 0xE0 SHL PUSH1 0x0 MSTORE PUSH1 0x12 PUSH1 0x4 MSTORE PUSH1 0x24 PUSH1 0x0 REVERT JUMPDEST PUSH1 0x0 DUP3 PUSH2 0x171A JUMPI PUSH2 0x171A PUSH2 0x16F5 JUMP JUMPDEST POP MOD SWAP1 JUMP JUMPDEST PUSH1 0x1 DUP2 DUP2 SHR SWAP1 DUP3 AND DUP1 PUSH2 0x1733 JUMPI PUSH1 0x7F DUP3 AND SWAP2 POP JUMPDEST PUSH1 0x20 DUP3 LT DUP2 SUB PUSH2 0x1753 JUMPI PUSH4 0x4E487B71 PUSH1 0xE0 SHL PUSH1 0x0 MSTORE PUSH1 0x22 PUSH1 0x4 MSTORE PUSH1 0x24 PUSH1 0x0 REVERT JUMPDEST POP SWAP2 SWAP1 POP JUMP JUMPDEST PUSH1 0x0 PUSH1 0x20 DUP3 DUP5 SUB SLT ISZERO PUSH2 0x176B JUMPI PUSH1 0x0 DUP1 REVERT JUMPDEST DUP2 MLOAD PUSH2 0x101B DUP2 PUSH2 0x129B JUMP JUMPDEST DUP1 DUP3 MUL DUP2 ISZERO DUP3 DUP3 DIV DUP5 EQ OR PUSH2 0x312 JUMPI PUSH2 0x312 PUSH2 0x166E JUMP JUMPDEST PUSH1 0x0 DUP3 PUSH2 0x179C JUMPI PUSH2 0x179C PUSH2 0x16F5 JUMP JUMPDEST POP DIV SWAP1 JUMP JUMPDEST PUSH1 0x0 PUSH1 0x1 DUP3 ADD PUSH2 0x17B3 JUMPI PUSH2 0x17B3 PUSH2 0x166E JUMP JUMPDEST POP PUSH1 0x1 ADD SWAP1 JUMP JUMPDEST PUSH1 0x1F DUP3 GT ISZERO PUSH2 0xEDD JUMPI PUSH1 0x0 DUP2 PUSH1 0x0 MSTORE PUSH1 0x20 PUSH1 0x0 KECCAK256 PUSH1 0x1F DUP6 ADD PUSH1 0x5 SHR DUP2 ADD PUSH1 0x20 DUP7 LT ISZERO PUSH2 0x17E3 JUMPI POP DUP1 JUMPDEST PUSH1 0x1F DUP6 ADD PUSH1 0x5 SHR DUP3 ADD SWAP2 POP JUMPDEST DUP2 DUP2 LT ISZERO PUSH2 0x1802 JUMPI DUP3 DUP2 SSTORE PUSH1 0x1 ADD PUSH2 0x17EF JUMP JUMPDEST POP POP POP POP POP POP JUMP JUMPDEST DUP2 MLOAD PUSH8 0xFFFFFFFFFFFFFFFF DUP2 GT ISZERO PUSH2 0x1824 JUMPI PUSH2 0x1824 PUSH2 0x1022 JUMP JUMPDEST PUSH2 0x1838 DUP2 PUSH2 0x1832 DUP5 SLOAD PUSH2 0x171F JUMP JUMPDEST DUP5 PUSH2 0x17BA JUMP JUMPDEST PUSH1 0x20 DUP1 PUSH1 0x1F DUP4 GT PUSH1 0x1 DUP2 EQ PUSH2 0x186D JUMPI PUSH1 0x0 DUP5 ISZERO PUSH2 0x1855 JUMPI POP DUP6 DUP4 ADD MLOAD JUMPDEST PUSH1 0x0 NOT PUSH1 0x3 DUP7 SWAP1 SHL SHR NOT AND PUSH1 0x1 DUP6 SWAP1 SHL OR DUP6 SSTORE PUSH2 0x1802 JUMP JUMPDEST PUSH1 0x0 DUP6 DUP2 MSTORE PUSH1 0x20 DUP2 KECCAK256 PUSH1 0x1F NOT DUP7 AND SWAP2 JUMPDEST DUP3 DUP2 LT ISZERO PUSH2 0x189C JUMPI DUP9 DUP7 ADD MLOAD DUP3 SSTORE SWAP5 DUP5 ADD SWAP5 PUSH1 0x1 SWAP1 SWAP2 ADD SWAP1 DUP5 ADD PUSH2 0x187D JUMP JUMPDEST POP DUP6 DUP3 LT ISZERO PUSH2 0x18BA JUMPI DUP8 DUP6 ADD MLOAD PUSH1 0x0 NOT PUSH1 0x3 DUP9 SWAP1 SHL PUSH1 0xF8 AND SHR NOT AND DUP2 SSTORE JUMPDEST POP POP POP POP POP PUSH1 0x1 SWAP1 DUP2 SHL ADD SWAP1 SSTORE POP JUMP INVALID LOG2 PUSH5 0x6970667358 0x22 SLT KECCAK256 0xE1 0xE7 LOG3 0xDA 0xCF 0xAC 0xCF 0xA7 CODESIZE CREATE2 0x29 0xAC PUSH25 0x9622EC8E2439E31516CD69281528A8CE31201064736F6C6343 STOP ADDMOD XOR STOP CALLER ",
  "sha1": "c29f3522f8df8e585440c6085ebc5c15e233be38",
  "source": "// SPDX-License-Identifier: MIT\n\npragma solidity ^0.8.0;\n\ninterface IPlayerDatabase {\n    function getAllPlayerNames() external view returns (string[] memory);\n    function getServerIPList() external view returns (string[] memory);\n    function getValidRewardAddressesByNames(string[] memory playerNames, uint256 lastMintTime) external view returns (address[] memory);\n    function isValidator(address _address) external view returns (bool);\n\n}\ninterface IGP_Mint {\n    function mintTokens(address to, uint256 amount) external;\n    // Add other function signatures as needed\n}\ncontract GameValidator {\n\n    IPlayerDatabase playerDatabase;\n    IGP_Mint public mintContract;\n\n    mapping(string => address[]) private validatorsPerServerIP;\n    mapping(string => mapping(address => ServerSubmission)) public serverSubmissions; \n    mapping(bytes32 => string[]) public hashToPlayerList; // playerListHash -> playerNames\n\n    uint256 public lastMintTime;\n    uint256 public constant MINT_INTERVAL = 5 minutes;\n    uint256 public constant MAX_PLAYERS_PER_SUBMISSION = 64;\n    uint256 public constant MAX_MINT_TIME = 10 minutes; // 10 minutes cap\n    uint256 public constant TOKENS_PER_SECOND = (1e18 * 60) / 60; // 1e18 represents 1 token, and we divide by 60 seconds\n    address _playerDatabaseAddress = 0xB03A6aFd440a2a9db8834F1A6093680f02f1114C;\n    address _mintContractAddress = 0xa1D070F108CBeF4A48FFC1A79258d5C24E05DB68;\n    constructor() {\n        playerDatabase = IPlayerDatabase(_playerDatabaseAddress);\n        mintContract = IGP_Mint(_mintContractAddress);\n    }\n\n    struct ServerSubmission {\n        //address validator;\n        bytes32 playerListHash; // Hash of the player list for gas efficiency\n        bool canMint;\n    }\n\n    struct ServerPlayers {\n        string serverIP;\n        string[] playerNames;\n    }\n    //mapping(string => ServerSubmission[]) public serverSubmissions; // serverIP -> submissions\n    struct HashCount {\n        bytes32 hash;\n        uint256 count;\n    }\n\n    function setMintContractAddress(address mintContractAddress) public {\n        // Implement access control checks (e.g., onlyOwner or a similar modifier)\n        mintContract = IGP_Mint(mintContractAddress);\n    }\n\n    // Function to set the PlayerDatabase contract address\n    function setPlayerDatabaseAddress(address playerDatabaseAddress) public {\n        // Implement access control checks (e.g., onlyOwner or a similar modifier)\n        playerDatabase = IPlayerDatabase(playerDatabaseAddress);\n    }\n    \n    function calculateMintAmount() private view returns (uint256) {\n        uint256 elapsedSeconds = block.timestamp - lastMintTime;\n\n        if (elapsedSeconds > MAX_MINT_TIME) {\n            elapsedSeconds = MAX_MINT_TIME; // Cap the elapsed time to MAX_MINT_TIME\n        }\n\n        return elapsedSeconds * TOKENS_PER_SECOND; // Calculate the mint amount based on elapsed time\n    }\n\n    function updateValidatorsList(string memory serverIP, address validator) private {\n        bool validatorExists = false;\n        for (uint i = 0; i < validatorsPerServerIP[serverIP].length; i++) {\n            if (validatorsPerServerIP[serverIP][i] == validator) {\n                validatorExists = true;\n                break;\n            }\n        }\n        if (!validatorExists) {\n            validatorsPerServerIP[serverIP].push(validator);\n        }\n    }\n\n    function submitPlayerList(ServerPlayers[] memory serverPlayerLists, address validatorID, bool canMintFlag) public {\n        require(isValidator(validatorID), \"Caller is not a registered validator\");\n\n        uint256 totalPlayerCount = 0;\n\n\n        for (uint i = 0; i < serverPlayerLists.length; i++) {\n            uint256 serverPlayerCount = serverPlayerLists[i].playerNames.length;\n            if (totalPlayerCount + serverPlayerCount > MAX_PLAYERS_PER_SUBMISSION) {\n                break; // Stop if the max players per submission is exceeded\n            }\n            totalPlayerCount += serverPlayerCount;\n\n            // Encode each string in the playerNames array individually\n            bytes memory encodedPlayerNames;\n            for (uint j = 0; j < serverPlayerLists[i].playerNames.length; j++) {\n                encodedPlayerNames = abi.encodePacked(encodedPlayerNames, serverPlayerLists[i].playerNames[j]);\n            }\n\n            // Compute the hash of the concatenated byte array\n            bytes32 playerListHash = keccak256(encodedPlayerNames);\n            hashToPlayerList[playerListHash] = serverPlayerLists[i].playerNames;\n\n            // Update or add the validator to the list for this server IP\n            updateValidatorsList(serverPlayerLists[i].serverIP, validatorID);\n\n            // Overwrite the existing submission for this server IP and validator\n            serverSubmissions[serverPlayerLists[i].serverIP][validatorID] = ServerSubmission({\n                playerListHash: playerListHash,\n                canMint: canMintFlag\n            });\n        }\n        // Check if it's time to perform mass minting\n        uint256 currentTime = block.timestamp;\n        uint256 timeSinceLastMint = currentTime - lastMintTime;\n        uint256 timeToNextInterval = MINT_INTERVAL - (currentTime % MINT_INTERVAL);\n\n        if (timeSinceLastMint >= MINT_INTERVAL && timeToNextInterval < MINT_INTERVAL) {\n            performMassMinting();\n            lastMintTime = currentTime - timeToNextInterval; // Align with the 5-minute interval\n        }\n    }\n    // function submitPlayerList(ServerPlayers[] memory serverPlayerLists, address validatorID, bool canMintFlag) public {\n    //     require(isValidator(validatorID), \"Caller is not a registered validator\");\n\n    //     uint256 totalPlayerCount = 0;\n\n    //     for (uint i = 0; i < serverPlayerLists.length; i++) {\n    //         uint256 serverPlayerCount = serverPlayerLists[i].playerNames.length;\n    //         if (totalPlayerCount + serverPlayerCount > MAX_PLAYERS_PER_SUBMISSION) {\n    //             break; // Stop if the max players per submission is exceeded\n    //         }\n\n    //         totalPlayerCount += serverPlayerCount;\n\n    //         // Create a hash for the player list\n    //         bytes32 playerListHash = keccak256(abi.encodePacked(serverPlayerLists[i].playerNames));\n    //         hashToPlayerList[playerListHash] = serverPlayerLists[i].playerNames;\n\n    //         // Overwrite the existing submission for this server IP and validator\n    //         serverSubmissions[serverPlayerLists[i].serverIP][validatorID] = ServerSubmission({\n    //             playerListHash: playerListHash,\n    //             canMint: canMintFlag\n    //         });\n    //     }\n    // }\n\n    function isValidator(address _address) public view returns (bool) {\n        //PlayerDatabase playerDatabase = PlayerDatabase(playerDatabaseAddress);\n        return playerDatabase.isValidator(_address);\n    }\n\n    function resetSubmissions() private {\n        string[] memory serverIPs = playerDatabase.getServerIPList();\n        for (uint i = 0; i < serverIPs.length; i++) {\n            string memory serverIP = serverIPs[i];\n            address[] memory validators = validatorsPerServerIP[serverIP];\n            for (uint j = 0; j < validators.length; j++) {\n                serverSubmissions[serverIP][validators[j]].canMint = false;\n            }\n        }\n    }\n\n    // Function to perform mass minting\n    function performMassMinting() public {\n        string[] memory serverIPs = playerDatabase.getServerIPList();\n        for (uint i = 0; i < serverIPs.length; i++) {\n            string memory serverIP = serverIPs[i];\n            bytes32 commonHash = findMostCommonHash(serverIP);\n            if (commonHash != bytes32(0)) {\n                mintForServer(commonHash);\n            }\n        }\n        resetSubmissions();\n    }\n    function mintForServer(bytes32 playerListHash) private {\n        // Retrieve the player list for the given hash\n        string[] memory playerList = hashToPlayerList[playerListHash];\n        address[] memory rewardAddresses = getValidRewardAddressesByNames(playerList);\n\n        uint256 mintAmount = calculateMintAmount(); // Define logic for mint amount\n\n        // Mint tokens for each player\n        for (uint i = 0; i < rewardAddresses.length; i++) {\n            if (rewardAddresses[i] != address(0)) { // Check for valid address\n                mintContract.mintTokens(rewardAddresses[i], mintAmount);\n            }\n        }\n    }\n    function findMostCommonHash(string memory serverIP) private view returns (bytes32) {\n        // Assume validatorsPerServerIP is a mapping that tracks validators per server IP\n        address[] memory validators = validatorsPerServerIP[serverIP];\n        uint256 majorityThreshold = (validators.length * 60) / 100; // 60% of total validators\n\n        bytes32 majorityHash = bytes32(0);\n        uint256 highestCount = 0;\n\n        // Use a structure to keep track of each hash count\n\n\n        HashCount[] memory hashCounts = new HashCount[](validators.length);\n\n        // Count occurrences of each hash\n        for (uint i = 0; i < validators.length; i++) {\n            bytes32 currentHash = serverSubmissions[serverIP][validators[i]].playerListHash;\n            bool found = false;\n\n            for (uint j = 0; j < hashCounts.length; j++) {\n                if (hashCounts[j].hash == currentHash) {\n                    hashCounts[j].count++;\n                    found = true;\n                    break;\n                }\n            }\n\n            if (!found) {\n                hashCounts[i] = HashCount({hash: currentHash, count: 1});\n            }\n\n            // Update majority hash if necessary\n            if (hashCounts[i].count > highestCount) {\n                highestCount = hashCounts[i].count;\n                majorityHash = hashCounts[i].hash;\n            }\n        }\n\n        // Check if the highest count meets the majority threshold\n        if (highestCount >= majorityThreshold) {\n            return majorityHash;\n        }\n\n        return bytes32(0); // No majority found\n    }\n\n    // Helper function to check if a hash is present in the tempUniqueHashes array\n\n\n    function getValidRewardAddressesByNames(string[] memory playerNames) public view returns (address[] memory) {\n        return playerDatabase.getValidRewardAddressesByNames(playerNames, lastMintTime);\n    }\n\n\n\n    // Additional functions...\n}\n",
  "sourcePath": "contracts/4_GP_Validator_0-10.sol",
  "type": "contract"
}