{
  "abi": [
    {
      "inputs": [
        {
          "internalType": "address",
          "name": "_playerDatabaseAddress",
          "type": "address"
        },
        {
          "internalType": "address",
          "name": "_mintContractAddress",
          "type": "address"
        }
      ],
      "stateMutability": "nonpayable",
      "type": "constructor"
    },
    {
      "inputs": [],
      "name": "MAX_MINT_TIME",
      "outputs": [
        {
          "internalType": "uint256",
          "name": "",
          "type": "uint256"
        }
      ],
      "stateMutability": "view",
      "type": "function"
    },
    {
      "inputs": [],
      "name": "MAX_PLAYERS_PER_SUBMISSION",
      "outputs": [
        {
          "internalType": "uint256",
          "name": "",
          "type": "uint256"
        }
      ],
      "stateMutability": "view",
      "type": "function"
    },
    {
      "inputs": [],
      "name": "MINT_INTERVAL",
      "outputs": [
        {
          "internalType": "uint256",
          "name": "",
          "type": "uint256"
        }
      ],
      "stateMutability": "view",
      "type": "function"
    },
    {
      "inputs": [],
      "name": "TOKENS_PER_SECOND",
      "outputs": [
        {
          "internalType": "uint256",
          "name": "",
          "type": "uint256"
        }
      ],
      "stateMutability": "view",
      "type": "function"
    },
    {
      "inputs": [
        {
          "internalType": "string[]",
          "name": "playerNames",
          "type": "string[]"
        }
      ],
      "name": "getValidRewardAddressesByNames",
      "outputs": [
        {
          "internalType": "address[]",
          "name": "",
          "type": "address[]"
        }
      ],
      "stateMutability": "view",
      "type": "function"
    },
    {
      "inputs": [
        {
          "internalType": "bytes32",
          "name": "",
          "type": "bytes32"
        },
        {
          "internalType": "uint256",
          "name": "",
          "type": "uint256"
        }
      ],
      "name": "hashToPlayerList",
      "outputs": [
        {
          "internalType": "string",
          "name": "",
          "type": "string"
        }
      ],
      "stateMutability": "view",
      "type": "function"
    },
    {
      "inputs": [
        {
          "internalType": "address",
          "name": "_address",
          "type": "address"
        }
      ],
      "name": "isValidator",
      "outputs": [
        {
          "internalType": "bool",
          "name": "",
          "type": "bool"
        }
      ],
      "stateMutability": "view",
      "type": "function"
    },
    {
      "inputs": [],
      "name": "lastMintTime",
      "outputs": [
        {
          "internalType": "uint256",
          "name": "",
          "type": "uint256"
        }
      ],
      "stateMutability": "view",
      "type": "function"
    },
    {
      "inputs": [],
      "name": "mintContract",
      "outputs": [
        {
          "internalType": "contract IGP_Mint",
          "name": "",
          "type": "address"
        }
      ],
      "stateMutability": "view",
      "type": "function"
    },
    {
      "inputs": [],
      "name": "performMassMinting",
      "outputs": [],
      "stateMutability": "nonpayable",
      "type": "function"
    },
    {
      "inputs": [
        {
          "internalType": "string",
          "name": "",
          "type": "string"
        },
        {
          "internalType": "address",
          "name": "",
          "type": "address"
        }
      ],
      "name": "serverSubmissions",
      "outputs": [
        {
          "internalType": "bytes32",
          "name": "playerListHash",
          "type": "bytes32"
        },
        {
          "internalType": "bool",
          "name": "canMint",
          "type": "bool"
        }
      ],
      "stateMutability": "view",
      "type": "function"
    },
    {
      "inputs": [
        {
          "internalType": "address",
          "name": "_mintContractAddress",
          "type": "address"
        }
      ],
      "name": "setMintContractAddress",
      "outputs": [],
      "stateMutability": "nonpayable",
      "type": "function"
    },
    {
      "inputs": [
        {
          "components": [
            {
              "internalType": "string",
              "name": "serverIP",
              "type": "string"
            },
            {
              "internalType": "string[]",
              "name": "playerNames",
              "type": "string[]"
            }
          ],
          "internalType": "struct GameValidator.ServerPlayers[]",
          "name": "serverPlayerLists",
          "type": "tuple[]"
        },
        {
          "internalType": "address",
          "name": "validatorID",
          "type": "address"
        },
        {
          "internalType": "bool",
          "name": "canMintFlag",
          "type": "bool"
        }
      ],
      "name": "submitPlayerList",
      "outputs": [],
      "stateMutability": "nonpayable",
      "type": "function"
    }
  ],
  "bytecode": "60806040523480156200001157600080fd5b50604051620019b4380380620019b4833981016040819052620000349162000083565b600080546001600160a01b039384166001600160a01b03199182161790915560018054929093169116179055620000bb565b80516001600160a01b03811681146200007e57600080fd5b919050565b600080604083850312156200009757600080fd5b620000a28362000066565b9150620000b26020840162000066565b90509250929050565b6118e980620000cb6000396000f3fe608060405234801561001057600080fd5b50600436106100cf5760003560e01c80639d4635201161008c578063e15336ef11610066578063e15336ef146101d2578063f59cc978146101e3578063f785eb2a146101ec578063facd743b1461020c57600080fd5b80639d4635201461018b578063b8f41a3c14610194578063d0b6b6db146101a757600080fd5b80631e9ad446146100d45780633592696d146100f65780635c9c3ed21461011657806364c8c5a7146101705780636f1aab4a1461017a57806384e7e3d314610182575b600080fd5b6100e3670de0b6b3a764000081565b6040519081526020015b60405180910390f35b610109610104366004611164565b61022f565b6040516100ed91906111a1565b61015b610124366004611213565b8151602081840181018051600382529282019482019490942091909352909152600090815260409020805460019091015460ff1682565b604080519283529015156020830152016100ed565b6101786102ae565b005b6100e3604081565b6100e361012c81565b6100e360055481565b6101786101a236600461127e565b610390565b6001546101ba906001600160a01b031681565b6040516001600160a01b0390911681526020016100ed565b6101786101e03660046113aa565b50565b6100e361025881565b6101ff6101fa3660046113ce565b61065b565b6040516100ed9190611440565b61021f61021a3660046113aa565b610714565b60405190151581526020016100ed565b6000546005546040516385d8f13d60e01b81526060926001600160a01b0316916385d8f13d91610263918691600401611453565b600060405180830381865afa158015610280573d6000803e3d6000fd5b505050506040513d6000823e601f3d908101601f191682016040526102a891908101906114bc565b92915050565b60008060009054906101000a90046001600160a01b03166001600160a01b0316633dc0ff7d6040518163ffffffff1660e01b8152600401600060405180830381865afa158015610302573d6000803e3d6000fd5b505050506040513d6000823e601f3d908101601f1916820160405261032a9190810190611556565b905060005b815181101561038757600082828151811061034c5761034c611643565b60200260200101519050600061036182610783565b905080156103725761037281610a3e565b5050808061037f9061166f565b91505061032f565b506101e0610c23565b61039982610714565b6103f55760405162461bcd60e51b8152602060048201526024808201527f43616c6c6572206973206e6f74206120726567697374657265642076616c696460448201526330ba37b960e11b606482015260840160405180910390fd5b6000805b84518110156105f357600085828151811061041657610416611643565b602002602001015160200151519050604081846104339190611688565b111561043f57506105f3565b6104498184611688565b9250606060005b87848151811061046257610462611643565b602002602001015160200151518110156104e3578188858151811061048957610489611643565b60200260200101516020015182815181106104a6576104a6611643565b60200260200101516040516020016104bf92919061169b565b604051602081830303815290604052915080806104db9061166f565b915050610450565b508051602082012087518890859081106104ff576104ff611643565b602002602001015160200151600460008381526020019081526020016000209080519060200190610531929190610f0a565b5061055988858151811061054757610547611643565b60200260200101516000015188610de1565b6040518060400160405280828152602001871515815250600389868151811061058457610584611643565b60200260200101516000015160405161059d91906116ca565b90815260408051602092819003830190206001600160a01b038b16600090815290835220825181559101516001909101805460ff1916911515919091179055508291506105eb90508161166f565b9150506103f9565b50600554429060009061060690836116e6565b9050600061061661012c8461170f565b6106229061012c6116e6565b905061012c8210158015610637575061012c81105b15610652576106446102ae565b61064e81846116e6565b6005555b50505050505050565b6004602052816000526040600020818154811061067757600080fd5b9060005260206000200160009150915050805461069390611723565b80601f01602080910402602001604051908101604052809291908181526020018280546106bf90611723565b801561070c5780601f106106e15761010080835404028352916020019161070c565b820191906000526020600020905b8154815290600101906020018083116106ef57829003601f168201915b505050505081565b6000805460405163facd743b60e01b81526001600160a01b0384811660048301529091169063facd743b90602401602060405180830381865afa15801561075f573d6000803e3d6000fd5b505050506040513d601f19601f820116820180604052508101906102a8919061175d565b60008060028360405161079691906116ca565b90815260408051918290036020908101832080548083028501830190935282845291908301828280156107f257602002820191906000526020600020905b81546001600160a01b031681526001909101906020018083116107d4575b50505050509050600060648251603c61080b919061177a565b6108159190611791565b82519091506000908190819067ffffffffffffffff81111561083957610839610fc7565b60405190808252806020026020018201604052801561087e57816020015b60408051808201909152600080825260208201528152602001906001900390816108575790505b50905060005b8551811015610a1e57600060038960405161089f91906116ca565b908152602001604051809103902060008884815181106108c1576108c1611643565b60200260200101516001600160a01b03166001600160a01b031681526020019081526020016000206000015490506000805b8451811015610969578285828151811061090f5761090f611643565b602002602001015160000151036109575784818151811061093257610932611643565b6020026020010151602001805180919061094b9061166f565b90525060019150610969565b806109618161166f565b9150506108f3565b50806109a3576040518060400160405280838152602001600181525084848151811061099757610997611643565b60200260200101819052505b848484815181106109b6576109b6611643565b6020026020010151602001511115610a09578383815181106109da576109da611643565b60200260200101516020015194508383815181106109fa576109fa611643565b60200260200101516000015195505b50508080610a169061166f565b915050610884565b50838210610a3157509095945050505050565b5060009695505050505050565b600081815260046020908152604080832080548251818502810185019093528083529192909190849084015b82821015610b16578382906000526020600020018054610a8990611723565b80601f0160208091040260200160405190810160405280929190818152602001828054610ab590611723565b8015610b025780601f10610ad757610100808354040283529160200191610b02565b820191906000526020600020905b815481529060010190602001808311610ae557829003601f168201915b505050505081526020019060010190610a6a565b5050505090506000610b278261022f565b90506000610b33610ed0565b905060005b8251811015610c1c5760006001600160a01b0316838281518110610b5e57610b5e611643565b60200260200101516001600160a01b031614610c0a5760015483516001600160a01b039091169063f0dda65c90859084908110610b9d57610b9d611643565b6020026020010151846040518363ffffffff1660e01b8152600401610bd79291906001600160a01b03929092168252602082015260400190565b600060405180830381600087803b158015610bf157600080fd5b505af1158015610c05573d6000803e3d6000fd5b505050505b80610c148161166f565b915050610b38565b5050505050565b60008060009054906101000a90046001600160a01b03166001600160a01b0316633dc0ff7d6040518163ffffffff1660e01b8152600401600060405180830381865afa158015610c77573d6000803e3d6000fd5b505050506040513d6000823e601f3d908101601f19168201604052610c9f9190810190611556565b905060005b8151811015610ddd576000828281518110610cc157610cc1611643565b602002602001015190506000600282604051610cdd91906116ca565b9081526040805191829003602090810183208054808302850183019093528284529190830182828015610d3957602002820191906000526020600020905b81546001600160a01b03168152600190910190602001808311610d1b575b5050505050905060005b8151811015610dc7576000600384604051610d5e91906116ca565b90815260200160405180910390206000848481518110610d8057610d80611643565b6020908102919091018101516001600160a01b03168252810191909152604001600020600101805460ff191691151591909117905580610dbf8161166f565b915050610d43565b5050508080610dd59061166f565b915050610ca4565b5050565b6000805b600284604051610df591906116ca565b90815260405190819003602001902054811015610e7a57826001600160a01b0316600285604051610e2691906116ca565b90815260200160405180910390208281548110610e4557610e45611643565b6000918252602090912001546001600160a01b031603610e685760019150610e7a565b80610e728161166f565b915050610de5565b5080610ecb57600283604051610e9091906116ca565b90815260405160209181900382019020805460018101825560009182529190200180546001600160a01b0319166001600160a01b0384161790555b505050565b60008060055442610ee191906116e6565b9050610258811115610ef257506102585b610f04670de0b6b3a76400008261177a565b91505090565b828054828255906000526020600020908101928215610f50579160200282015b82811115610f505782518290610f4090826117f3565b5091602001919060010190610f2a565b50610f5c929150610f60565b5090565b80821115610f5c576000610f748282610f7d565b50600101610f60565b508054610f8990611723565b6000825580601f10610f99575050565b601f0160209004906000526020600020908101906101e091905b80821115610f5c5760008155600101610fb3565b634e487b7160e01b600052604160045260246000fd5b6040805190810167ffffffffffffffff8111828210171561100057611000610fc7565b60405290565b604051601f8201601f1916810167ffffffffffffffff8111828210171561102f5761102f610fc7565b604052919050565b600067ffffffffffffffff82111561105157611051610fc7565b5060051b60200190565b600067ffffffffffffffff82111561107557611075610fc7565b50601f01601f191660200190565b600082601f83011261109457600080fd5b81356110a76110a28261105b565b611006565b8181528460208386010111156110bc57600080fd5b816020850160208301376000918101602001919091529392505050565b600082601f8301126110ea57600080fd5b813560206110fa6110a283611037565b82815260059290921b8401810191818101908684111561111957600080fd5b8286015b8481101561115957803567ffffffffffffffff81111561113d5760008081fd5b61114b8986838b0101611083565b84525091830191830161111d565b509695505050505050565b60006020828403121561117657600080fd5b813567ffffffffffffffff81111561118d57600080fd5b611199848285016110d9565b949350505050565b6020808252825182820181905260009190848201906040850190845b818110156111e25783516001600160a01b0316835292840192918401916001016111bd565b50909695505050505050565b6001600160a01b03811681146101e057600080fd5b803561120e816111ee565b919050565b6000806040838503121561122657600080fd5b823567ffffffffffffffff81111561123d57600080fd5b61124985828601611083565b925050602083013561125a816111ee565b809150509250929050565b80151581146101e057600080fd5b803561120e81611265565b60008060006060848603121561129357600080fd5b833567ffffffffffffffff808211156112ab57600080fd5b818601915086601f8301126112bf57600080fd5b813560206112cf6110a283611037565b82815260059290921b8401810191818101908a8411156112ee57600080fd5b8286015b8481101561137f5780358681111561130957600080fd5b87016040818e03601f190112156113205760008081fd5b611328610fdd565b858201358881111561133a5760008081fd5b6113488f8883860101611083565b82525060408201358881111561135e5760008081fd5b61136c8f88838601016110d9565b82880152508452509183019183016112f2565b50975061138f9050888201611203565b9550505050506113a160408501611273565b90509250925092565b6000602082840312156113bc57600080fd5b81356113c7816111ee565b9392505050565b600080604083850312156113e157600080fd5b50508035926020909101359150565b60005b8381101561140b5781810151838201526020016113f3565b50506000910152565b6000815180845261142c8160208601602086016113f0565b601f01601f19169290920160200192915050565b6020815260006113c76020830184611414565b6000604082016040835280855180835260608501915060608160051b8601019250602080880160005b838110156114aa57605f19888703018552611498868351611414565b9550938201939082019060010161147c565b50509490940194909452949350505050565b600060208083850312156114cf57600080fd5b825167ffffffffffffffff8111156114e657600080fd5b8301601f810185136114f757600080fd5b80516115056110a282611037565b81815260059190911b8201830190838101908783111561152457600080fd5b928401925b8284101561154b57835161153c816111ee565b82529284019290840190611529565b979650505050505050565b6000602080838503121561156957600080fd5b825167ffffffffffffffff8082111561158157600080fd5b818501915085601f83011261159557600080fd5b81516115a36110a282611037565b81815260059190911b830184019084810190888311156115c257600080fd5b8585015b83811015611636578051858111156115de5760008081fd5b8601603f81018b136115f05760008081fd5b8781015160406116026110a28361105b565b8281528d828486010111156116175760008081fd5b611626838c83018487016113f0565b86525050509186019186016115c6565b5098975050505050505050565b634e487b7160e01b600052603260045260246000fd5b634e487b7160e01b600052601160045260246000fd5b60006001820161168157611681611659565b5060010190565b808201808211156102a8576102a8611659565b600083516116ad8184602088016113f0565b8351908301906116c18183602088016113f0565b01949350505050565b600082516116dc8184602087016113f0565b9190910192915050565b818103818111156102a8576102a8611659565b634e487b7160e01b600052601260045260246000fd5b60008261171e5761171e6116f9565b500690565b600181811c9082168061173757607f821691505b60208210810361175757634e487b7160e01b600052602260045260246000fd5b50919050565b60006020828403121561176f57600080fd5b81516113c781611265565b80820281158282048414176102a8576102a8611659565b6000826117a0576117a06116f9565b500490565b601f821115610ecb57600081815260208120601f850160051c810160208610156117cc5750805b601f850160051c820191505b818110156117eb578281556001016117d8565b505050505050565b815167ffffffffffffffff81111561180d5761180d610fc7565b6118218161181b8454611723565b846117a5565b602080601f831160018114611856576000841561183e5750858301515b600019600386901b1c1916600185901b1785556117eb565b600085815260208120601f198616915b8281101561188557888601518255948401946001909101908401611866565b50858210156118a35787850151600019600388901b60f8161c191681555b5050505050600190811b0190555056fea2646970667358221220c29de15245d0ecaa97f290ae36fafcd6ceafc6ccb1911e1490fa81bdecc2904f64736f6c63430008150033",
  "bytecodeSha1": "eabcfc8d8439a15033e2490bbd1878c9ace8d329",
  "compiler": {
    "evm_version": "istanbul",
    "optimizer": {
      "enabled": true,
      "runs": 200
    },
    "version": "0.8.21+commit.d9974bed"
  },
  "contractName": "GameValidator",
  "language": "Solidity",
  "natspec": {
    "kind": "dev",
    "methods": {},
    "version": 1
  },
  "opcodes": "PUSH1 0x80 PUSH1 0x40 MSTORE CALLVALUE DUP1 ISZERO PUSH2 0x10 JUMPI PUSH1 0x0 DUP1 REVERT JUMPDEST POP PUSH1 0x4 CALLDATASIZE LT PUSH2 0xCF JUMPI PUSH1 0x0 CALLDATALOAD PUSH1 0xE0 SHR DUP1 PUSH4 0x9D463520 GT PUSH2 0x8C JUMPI DUP1 PUSH4 0xE15336EF GT PUSH2 0x66 JUMPI DUP1 PUSH4 0xE15336EF EQ PUSH2 0x1D2 JUMPI DUP1 PUSH4 0xF59CC978 EQ PUSH2 0x1E3 JUMPI DUP1 PUSH4 0xF785EB2A EQ PUSH2 0x1EC JUMPI DUP1 PUSH4 0xFACD743B EQ PUSH2 0x20C JUMPI PUSH1 0x0 DUP1 REVERT JUMPDEST DUP1 PUSH4 0x9D463520 EQ PUSH2 0x18B JUMPI DUP1 PUSH4 0xB8F41A3C EQ PUSH2 0x194 JUMPI DUP1 PUSH4 0xD0B6B6DB EQ PUSH2 0x1A7 JUMPI PUSH1 0x0 DUP1 REVERT JUMPDEST DUP1 PUSH4 0x1E9AD446 EQ PUSH2 0xD4 JUMPI DUP1 PUSH4 0x3592696D EQ PUSH2 0xF6 JUMPI DUP1 PUSH4 0x5C9C3ED2 EQ PUSH2 0x116 JUMPI DUP1 PUSH4 0x64C8C5A7 EQ PUSH2 0x170 JUMPI DUP1 PUSH4 0x6F1AAB4A EQ PUSH2 0x17A JUMPI DUP1 PUSH4 0x84E7E3D3 EQ PUSH2 0x182 JUMPI JUMPDEST PUSH1 0x0 DUP1 REVERT JUMPDEST PUSH2 0xE3 PUSH8 0xDE0B6B3A7640000 DUP2 JUMP JUMPDEST PUSH1 0x40 MLOAD SWAP1 DUP2 MSTORE PUSH1 0x20 ADD JUMPDEST PUSH1 0x40 MLOAD DUP1 SWAP2 SUB SWAP1 RETURN JUMPDEST PUSH2 0x109 PUSH2 0x104 CALLDATASIZE PUSH1 0x4 PUSH2 0x1164 JUMP JUMPDEST PUSH2 0x22F JUMP JUMPDEST PUSH1 0x40 MLOAD PUSH2 0xED SWAP2 SWAP1 PUSH2 0x11A1 JUMP JUMPDEST PUSH2 0x15B PUSH2 0x124 CALLDATASIZE PUSH1 0x4 PUSH2 0x1213 JUMP JUMPDEST DUP2 MLOAD PUSH1 0x20 DUP2 DUP5 ADD DUP2 ADD DUP1 MLOAD PUSH1 0x3 DUP3 MSTORE SWAP3 DUP3 ADD SWAP5 DUP3 ADD SWAP5 SWAP1 SWAP5 KECCAK256 SWAP2 SWAP1 SWAP4 MSTORE SWAP1 SWAP2 MSTORE PUSH1 0x0 SWAP1 DUP2 MSTORE PUSH1 0x40 SWAP1 KECCAK256 DUP1 SLOAD PUSH1 0x1 SWAP1 SWAP2 ADD SLOAD PUSH1 0xFF AND DUP3 JUMP JUMPDEST PUSH1 0x40 DUP1 MLOAD SWAP3 DUP4 MSTORE SWAP1 ISZERO ISZERO PUSH1 0x20 DUP4 ADD MSTORE ADD PUSH2 0xED JUMP JUMPDEST PUSH2 0x178 PUSH2 0x2AE JUMP JUMPDEST STOP JUMPDEST PUSH2 0xE3 PUSH1 0x40 DUP2 JUMP JUMPDEST PUSH2 0xE3 PUSH2 0x12C DUP2 JUMP JUMPDEST PUSH2 0xE3 PUSH1 0x5 SLOAD DUP2 JUMP JUMPDEST PUSH2 0x178 PUSH2 0x1A2 CALLDATASIZE PUSH1 0x4 PUSH2 0x127E JUMP JUMPDEST PUSH2 0x390 JUMP JUMPDEST PUSH1 0x1 SLOAD PUSH2 0x1BA SWAP1 PUSH1 0x1 PUSH1 0x1 PUSH1 0xA0 SHL SUB AND DUP2 JUMP JUMPDEST PUSH1 0x40 MLOAD PUSH1 0x1 PUSH1 0x1 PUSH1 0xA0 SHL SUB SWAP1 SWAP2 AND DUP2 MSTORE PUSH1 0x20 ADD PUSH2 0xED JUMP JUMPDEST PUSH2 0x178 PUSH2 0x1E0 CALLDATASIZE PUSH1 0x4 PUSH2 0x13AA JUMP JUMPDEST POP JUMP JUMPDEST PUSH2 0xE3 PUSH2 0x258 DUP2 JUMP JUMPDEST PUSH2 0x1FF PUSH2 0x1FA CALLDATASIZE PUSH1 0x4 PUSH2 0x13CE JUMP JUMPDEST PUSH2 0x65B JUMP JUMPDEST PUSH1 0x40 MLOAD PUSH2 0xED SWAP2 SWAP1 PUSH2 0x1440 JUMP JUMPDEST PUSH2 0x21F PUSH2 0x21A CALLDATASIZE PUSH1 0x4 PUSH2 0x13AA JUMP JUMPDEST PUSH2 0x714 JUMP JUMPDEST PUSH1 0x40 MLOAD SWAP1 ISZERO ISZERO DUP2 MSTORE PUSH1 0x20 ADD PUSH2 0xED JUMP JUMPDEST PUSH1 0x0 SLOAD PUSH1 0x5 SLOAD PUSH1 0x40 MLOAD PUSH4 0x85D8F13D PUSH1 0xE0 SHL DUP2 MSTORE PUSH1 0x60 SWAP3 PUSH1 0x1 PUSH1 0x1 PUSH1 0xA0 SHL SUB AND SWAP2 PUSH4 0x85D8F13D SWAP2 PUSH2 0x263 SWAP2 DUP7 SWAP2 PUSH1 0x4 ADD PUSH2 0x1453 JUMP JUMPDEST PUSH1 0x0 PUSH1 0x40 MLOAD DUP1 DUP4 SUB DUP2 DUP7 GAS STATICCALL ISZERO DUP1 ISZERO PUSH2 0x280 JUMPI RETURNDATASIZE PUSH1 0x0 DUP1 RETURNDATACOPY RETURNDATASIZE PUSH1 0x0 REVERT JUMPDEST POP POP POP POP PUSH1 0x40 MLOAD RETURNDATASIZE PUSH1 0x0 DUP3 RETURNDATACOPY PUSH1 0x1F RETURNDATASIZE SWAP1 DUP2 ADD PUSH1 0x1F NOT AND DUP3 ADD PUSH1 0x40 MSTORE PUSH2 0x2A8 SWAP2 SWAP1 DUP2 ADD SWAP1 PUSH2 0x14BC JUMP JUMPDEST SWAP3 SWAP2 POP POP JUMP JUMPDEST PUSH1 0x0 DUP1 PUSH1 0x0 SWAP1 SLOAD SWAP1 PUSH2 0x100 EXP SWAP1 DIV PUSH1 0x1 PUSH1 0x1 PUSH1 0xA0 SHL SUB AND PUSH1 0x1 PUSH1 0x1 PUSH1 0xA0 SHL SUB AND PUSH4 0x3DC0FF7D PUSH1 0x40 MLOAD DUP2 PUSH4 0xFFFFFFFF AND PUSH1 0xE0 SHL DUP2 MSTORE PUSH1 0x4 ADD PUSH1 0x0 PUSH1 0x40 MLOAD DUP1 DUP4 SUB DUP2 DUP7 GAS STATICCALL ISZERO DUP1 ISZERO PUSH2 0x302 JUMPI RETURNDATASIZE PUSH1 0x0 DUP1 RETURNDATACOPY RETURNDATASIZE PUSH1 0x0 REVERT JUMPDEST POP POP POP POP PUSH1 0x40 MLOAD RETURNDATASIZE PUSH1 0x0 DUP3 RETURNDATACOPY PUSH1 0x1F RETURNDATASIZE SWAP1 DUP2 ADD PUSH1 0x1F NOT AND DUP3 ADD PUSH1 0x40 MSTORE PUSH2 0x32A SWAP2 SWAP1 DUP2 ADD SWAP1 PUSH2 0x1556 JUMP JUMPDEST SWAP1 POP PUSH1 0x0 JUMPDEST DUP2 MLOAD DUP2 LT ISZERO PUSH2 0x387 JUMPI PUSH1 0x0 DUP3 DUP3 DUP2 MLOAD DUP2 LT PUSH2 0x34C JUMPI PUSH2 0x34C PUSH2 0x1643 JUMP JUMPDEST PUSH1 0x20 MUL PUSH1 0x20 ADD ADD MLOAD SWAP1 POP PUSH1 0x0 PUSH2 0x361 DUP3 PUSH2 0x783 JUMP JUMPDEST SWAP1 POP DUP1 ISZERO PUSH2 0x372 JUMPI PUSH2 0x372 DUP2 PUSH2 0xA3E JUMP JUMPDEST POP POP DUP1 DUP1 PUSH2 0x37F SWAP1 PUSH2 0x166F JUMP JUMPDEST SWAP2 POP POP PUSH2 0x32F JUMP JUMPDEST POP PUSH2 0x1E0 PUSH2 0xC23 JUMP JUMPDEST PUSH2 0x399 DUP3 PUSH2 0x714 JUMP JUMPDEST PUSH2 0x3F5 JUMPI PUSH1 0x40 MLOAD PUSH3 0x461BCD PUSH1 0xE5 SHL DUP2 MSTORE PUSH1 0x20 PUSH1 0x4 DUP3 ADD MSTORE PUSH1 0x24 DUP1 DUP3 ADD MSTORE PUSH32 0x43616C6C6572206973206E6F74206120726567697374657265642076616C6964 PUSH1 0x44 DUP3 ADD MSTORE PUSH4 0x30BA37B9 PUSH1 0xE1 SHL PUSH1 0x64 DUP3 ADD MSTORE PUSH1 0x84 ADD PUSH1 0x40 MLOAD DUP1 SWAP2 SUB SWAP1 REVERT JUMPDEST PUSH1 0x0 DUP1 JUMPDEST DUP5 MLOAD DUP2 LT ISZERO PUSH2 0x5F3 JUMPI PUSH1 0x0 DUP6 DUP3 DUP2 MLOAD DUP2 LT PUSH2 0x416 JUMPI PUSH2 0x416 PUSH2 0x1643 JUMP JUMPDEST PUSH1 0x20 MUL PUSH1 0x20 ADD ADD MLOAD PUSH1 0x20 ADD MLOAD MLOAD SWAP1 POP PUSH1 0x40 DUP2 DUP5 PUSH2 0x433 SWAP2 SWAP1 PUSH2 0x1688 JUMP JUMPDEST GT ISZERO PUSH2 0x43F JUMPI POP PUSH2 0x5F3 JUMP JUMPDEST PUSH2 0x449 DUP2 DUP5 PUSH2 0x1688 JUMP JUMPDEST SWAP3 POP PUSH1 0x60 PUSH1 0x0 JUMPDEST DUP8 DUP5 DUP2 MLOAD DUP2 LT PUSH2 0x462 JUMPI PUSH2 0x462 PUSH2 0x1643 JUMP JUMPDEST PUSH1 0x20 MUL PUSH1 0x20 ADD ADD MLOAD PUSH1 0x20 ADD MLOAD MLOAD DUP2 LT ISZERO PUSH2 0x4E3 JUMPI DUP2 DUP9 DUP6 DUP2 MLOAD DUP2 LT PUSH2 0x489 JUMPI PUSH2 0x489 PUSH2 0x1643 JUMP JUMPDEST PUSH1 0x20 MUL PUSH1 0x20 ADD ADD MLOAD PUSH1 0x20 ADD MLOAD DUP3 DUP2 MLOAD DUP2 LT PUSH2 0x4A6 JUMPI PUSH2 0x4A6 PUSH2 0x1643 JUMP JUMPDEST PUSH1 0x20 MUL PUSH1 0x20 ADD ADD MLOAD PUSH1 0x40 MLOAD PUSH1 0x20 ADD PUSH2 0x4BF SWAP3 SWAP2 SWAP1 PUSH2 0x169B JUMP JUMPDEST PUSH1 0x40 MLOAD PUSH1 0x20 DUP2 DUP4 SUB SUB DUP2 MSTORE SWAP1 PUSH1 0x40 MSTORE SWAP2 POP DUP1 DUP1 PUSH2 0x4DB SWAP1 PUSH2 0x166F JUMP JUMPDEST SWAP2 POP POP PUSH2 0x450 JUMP JUMPDEST POP DUP1 MLOAD PUSH1 0x20 DUP3 ADD KECCAK256 DUP8 MLOAD DUP9 SWAP1 DUP6 SWAP1 DUP2 LT PUSH2 0x4FF JUMPI PUSH2 0x4FF PUSH2 0x1643 JUMP JUMPDEST PUSH1 0x20 MUL PUSH1 0x20 ADD ADD MLOAD PUSH1 0x20 ADD MLOAD PUSH1 0x4 PUSH1 0x0 DUP4 DUP2 MSTORE PUSH1 0x20 ADD SWAP1 DUP2 MSTORE PUSH1 0x20 ADD PUSH1 0x0 KECCAK256 SWAP1 DUP1 MLOAD SWAP1 PUSH1 0x20 ADD SWAP1 PUSH2 0x531 SWAP3 SWAP2 SWAP1 PUSH2 0xF0A JUMP JUMPDEST POP PUSH2 0x559 DUP9 DUP6 DUP2 MLOAD DUP2 LT PUSH2 0x547 JUMPI PUSH2 0x547 PUSH2 0x1643 JUMP JUMPDEST PUSH1 0x20 MUL PUSH1 0x20 ADD ADD MLOAD PUSH1 0x0 ADD MLOAD DUP9 PUSH2 0xDE1 JUMP JUMPDEST PUSH1 0x40 MLOAD DUP1 PUSH1 0x40 ADD PUSH1 0x40 MSTORE DUP1 DUP3 DUP2 MSTORE PUSH1 0x20 ADD DUP8 ISZERO ISZERO DUP2 MSTORE POP PUSH1 0x3 DUP10 DUP7 DUP2 MLOAD DUP2 LT PUSH2 0x584 JUMPI PUSH2 0x584 PUSH2 0x1643 JUMP JUMPDEST PUSH1 0x20 MUL PUSH1 0x20 ADD ADD MLOAD PUSH1 0x0 ADD MLOAD PUSH1 0x40 MLOAD PUSH2 0x59D SWAP2 SWAP1 PUSH2 0x16CA JUMP JUMPDEST SWAP1 DUP2 MSTORE PUSH1 0x40 DUP1 MLOAD PUSH1 0x20 SWAP3 DUP2 SWAP1 SUB DUP4 ADD SWAP1 KECCAK256 PUSH1 0x1 PUSH1 0x1 PUSH1 0xA0 SHL SUB DUP12 AND PUSH1 0x0 SWAP1 DUP2 MSTORE SWAP1 DUP4 MSTORE KECCAK256 DUP3 MLOAD DUP2 SSTORE SWAP2 ADD MLOAD PUSH1 0x1 SWAP1 SWAP2 ADD DUP1 SLOAD PUSH1 0xFF NOT AND SWAP2 ISZERO ISZERO SWAP2 SWAP1 SWAP2 OR SWAP1 SSTORE POP DUP3 SWAP2 POP PUSH2 0x5EB SWAP1 POP DUP2 PUSH2 0x166F JUMP JUMPDEST SWAP2 POP POP PUSH2 0x3F9 JUMP JUMPDEST POP PUSH1 0x5 SLOAD TIMESTAMP SWAP1 PUSH1 0x0 SWAP1 PUSH2 0x606 SWAP1 DUP4 PUSH2 0x16E6 JUMP JUMPDEST SWAP1 POP PUSH1 0x0 PUSH2 0x616 PUSH2 0x12C DUP5 PUSH2 0x170F JUMP JUMPDEST PUSH2 0x622 SWAP1 PUSH2 0x12C PUSH2 0x16E6 JUMP JUMPDEST SWAP1 POP PUSH2 0x12C DUP3 LT ISZERO DUP1 ISZERO PUSH2 0x637 JUMPI POP PUSH2 0x12C DUP2 LT JUMPDEST ISZERO PUSH2 0x652 JUMPI PUSH2 0x644 PUSH2 0x2AE JUMP JUMPDEST PUSH2 0x64E DUP2 DUP5 PUSH2 0x16E6 JUMP JUMPDEST PUSH1 0x5 SSTORE JUMPDEST POP POP POP POP POP POP POP JUMP JUMPDEST PUSH1 0x4 PUSH1 0x20 MSTORE DUP2 PUSH1 0x0 MSTORE PUSH1 0x40 PUSH1 0x0 KECCAK256 DUP2 DUP2 SLOAD DUP2 LT PUSH2 0x677 JUMPI PUSH1 0x0 DUP1 REVERT JUMPDEST SWAP1 PUSH1 0x0 MSTORE PUSH1 0x20 PUSH1 0x0 KECCAK256 ADD PUSH1 0x0 SWAP2 POP SWAP2 POP POP DUP1 SLOAD PUSH2 0x693 SWAP1 PUSH2 0x1723 JUMP JUMPDEST DUP1 PUSH1 0x1F ADD PUSH1 0x20 DUP1 SWAP2 DIV MUL PUSH1 0x20 ADD PUSH1 0x40 MLOAD SWAP1 DUP2 ADD PUSH1 0x40 MSTORE DUP1 SWAP3 SWAP2 SWAP1 DUP2 DUP2 MSTORE PUSH1 0x20 ADD DUP3 DUP1 SLOAD PUSH2 0x6BF SWAP1 PUSH2 0x1723 JUMP JUMPDEST DUP1 ISZERO PUSH2 0x70C JUMPI DUP1 PUSH1 0x1F LT PUSH2 0x6E1 JUMPI PUSH2 0x100 DUP1 DUP4 SLOAD DIV MUL DUP4 MSTORE SWAP2 PUSH1 0x20 ADD SWAP2 PUSH2 0x70C JUMP JUMPDEST DUP3 ADD SWAP2 SWAP1 PUSH1 0x0 MSTORE PUSH1 0x20 PUSH1 0x0 KECCAK256 SWAP1 JUMPDEST DUP2 SLOAD DUP2 MSTORE SWAP1 PUSH1 0x1 ADD SWAP1 PUSH1 0x20 ADD DUP1 DUP4 GT PUSH2 0x6EF JUMPI DUP3 SWAP1 SUB PUSH1 0x1F AND DUP3 ADD SWAP2 JUMPDEST POP POP POP POP POP DUP2 JUMP JUMPDEST PUSH1 0x0 DUP1 SLOAD PUSH1 0x40 MLOAD PUSH4 0xFACD743B PUSH1 0xE0 SHL DUP2 MSTORE PUSH1 0x1 PUSH1 0x1 PUSH1 0xA0 SHL SUB DUP5 DUP2 AND PUSH1 0x4 DUP4 ADD MSTORE SWAP1 SWAP2 AND SWAP1 PUSH4 0xFACD743B SWAP1 PUSH1 0x24 ADD PUSH1 0x20 PUSH1 0x40 MLOAD DUP1 DUP4 SUB DUP2 DUP7 GAS STATICCALL ISZERO DUP1 ISZERO PUSH2 0x75F JUMPI RETURNDATASIZE PUSH1 0x0 DUP1 RETURNDATACOPY RETURNDATASIZE PUSH1 0x0 REVERT JUMPDEST POP POP POP POP PUSH1 0x40 MLOAD RETURNDATASIZE PUSH1 0x1F NOT PUSH1 0x1F DUP3 ADD AND DUP3 ADD DUP1 PUSH1 0x40 MSTORE POP DUP2 ADD SWAP1 PUSH2 0x2A8 SWAP2 SWAP1 PUSH2 0x175D JUMP JUMPDEST PUSH1 0x0 DUP1 PUSH1 0x2 DUP4 PUSH1 0x40 MLOAD PUSH2 0x796 SWAP2 SWAP1 PUSH2 0x16CA JUMP JUMPDEST SWAP1 DUP2 MSTORE PUSH1 0x40 DUP1 MLOAD SWAP2 DUP3 SWAP1 SUB PUSH1 0x20 SWAP1 DUP2 ADD DUP4 KECCAK256 DUP1 SLOAD DUP1 DUP4 MUL DUP6 ADD DUP4 ADD SWAP1 SWAP4 MSTORE DUP3 DUP5 MSTORE SWAP2 SWAP1 DUP4 ADD DUP3 DUP3 DUP1 ISZERO PUSH2 0x7F2 JUMPI PUSH1 0x20 MUL DUP3 ADD SWAP2 SWAP1 PUSH1 0x0 MSTORE PUSH1 0x20 PUSH1 0x0 KECCAK256 SWAP1 JUMPDEST DUP2 SLOAD PUSH1 0x1 PUSH1 0x1 PUSH1 0xA0 SHL SUB AND DUP2 MSTORE PUSH1 0x1 SWAP1 SWAP2 ADD SWAP1 PUSH1 0x20 ADD DUP1 DUP4 GT PUSH2 0x7D4 JUMPI JUMPDEST POP POP POP POP POP SWAP1 POP PUSH1 0x0 PUSH1 0x64 DUP3 MLOAD PUSH1 0x3C PUSH2 0x80B SWAP2 SWAP1 PUSH2 0x177A JUMP JUMPDEST PUSH2 0x815 SWAP2 SWAP1 PUSH2 0x1791 JUMP JUMPDEST DUP3 MLOAD SWAP1 SWAP2 POP PUSH1 0x0 SWAP1 DUP2 SWAP1 DUP2 SWAP1 PUSH8 0xFFFFFFFFFFFFFFFF DUP2 GT ISZERO PUSH2 0x839 JUMPI PUSH2 0x839 PUSH2 0xFC7 JUMP JUMPDEST PUSH1 0x40 MLOAD SWAP1 DUP1 DUP3 MSTORE DUP1 PUSH1 0x20 MUL PUSH1 0x20 ADD DUP3 ADD PUSH1 0x40 MSTORE DUP1 ISZERO PUSH2 0x87E JUMPI DUP2 PUSH1 0x20 ADD JUMPDEST PUSH1 0x40 DUP1 MLOAD DUP1 DUP3 ADD SWAP1 SWAP2 MSTORE PUSH1 0x0 DUP1 DUP3 MSTORE PUSH1 0x20 DUP3 ADD MSTORE DUP2 MSTORE PUSH1 0x20 ADD SWAP1 PUSH1 0x1 SWAP1 SUB SWAP1 DUP2 PUSH2 0x857 JUMPI SWAP1 POP JUMPDEST POP SWAP1 POP PUSH1 0x0 JUMPDEST DUP6 MLOAD DUP2 LT ISZERO PUSH2 0xA1E JUMPI PUSH1 0x0 PUSH1 0x3 DUP10 PUSH1 0x40 MLOAD PUSH2 0x89F SWAP2 SWAP1 PUSH2 0x16CA JUMP JUMPDEST SWAP1 DUP2 MSTORE PUSH1 0x20 ADD PUSH1 0x40 MLOAD DUP1 SWAP2 SUB SWAP1 KECCAK256 PUSH1 0x0 DUP9 DUP5 DUP2 MLOAD DUP2 LT PUSH2 0x8C1 JUMPI PUSH2 0x8C1 PUSH2 0x1643 JUMP JUMPDEST PUSH1 0x20 MUL PUSH1 0x20 ADD ADD MLOAD PUSH1 0x1 PUSH1 0x1 PUSH1 0xA0 SHL SUB AND PUSH1 0x1 PUSH1 0x1 PUSH1 0xA0 SHL SUB AND DUP2 MSTORE PUSH1 0x20 ADD SWAP1 DUP2 MSTORE PUSH1 0x20 ADD PUSH1 0x0 KECCAK256 PUSH1 0x0 ADD SLOAD SWAP1 POP PUSH1 0x0 DUP1 JUMPDEST DUP5 MLOAD DUP2 LT ISZERO PUSH2 0x969 JUMPI DUP3 DUP6 DUP3 DUP2 MLOAD DUP2 LT PUSH2 0x90F JUMPI PUSH2 0x90F PUSH2 0x1643 JUMP JUMPDEST PUSH1 0x20 MUL PUSH1 0x20 ADD ADD MLOAD PUSH1 0x0 ADD MLOAD SUB PUSH2 0x957 JUMPI DUP5 DUP2 DUP2 MLOAD DUP2 LT PUSH2 0x932 JUMPI PUSH2 0x932 PUSH2 0x1643 JUMP JUMPDEST PUSH1 0x20 MUL PUSH1 0x20 ADD ADD MLOAD PUSH1 0x20 ADD DUP1 MLOAD DUP1 SWAP2 SWAP1 PUSH2 0x94B SWAP1 PUSH2 0x166F JUMP JUMPDEST SWAP1 MSTORE POP PUSH1 0x1 SWAP2 POP PUSH2 0x969 JUMP JUMPDEST DUP1 PUSH2 0x961 DUP2 PUSH2 0x166F JUMP JUMPDEST SWAP2 POP POP PUSH2 0x8F3 JUMP JUMPDEST POP DUP1 PUSH2 0x9A3 JUMPI PUSH1 0x40 MLOAD DUP1 PUSH1 0x40 ADD PUSH1 0x40 MSTORE DUP1 DUP4 DUP2 MSTORE PUSH1 0x20 ADD PUSH1 0x1 DUP2 MSTORE POP DUP5 DUP5 DUP2 MLOAD DUP2 LT PUSH2 0x997 JUMPI PUSH2 0x997 PUSH2 0x1643 JUMP JUMPDEST PUSH1 0x20 MUL PUSH1 0x20 ADD ADD DUP2 SWAP1 MSTORE POP JUMPDEST DUP5 DUP5 DUP5 DUP2 MLOAD DUP2 LT PUSH2 0x9B6 JUMPI PUSH2 0x9B6 PUSH2 0x1643 JUMP JUMPDEST PUSH1 0x20 MUL PUSH1 0x20 ADD ADD MLOAD PUSH1 0x20 ADD MLOAD GT ISZERO PUSH2 0xA09 JUMPI DUP4 DUP4 DUP2 MLOAD DUP2 LT PUSH2 0x9DA JUMPI PUSH2 0x9DA PUSH2 0x1643 JUMP JUMPDEST PUSH1 0x20 MUL PUSH1 0x20 ADD ADD MLOAD PUSH1 0x20 ADD MLOAD SWAP5 POP DUP4 DUP4 DUP2 MLOAD DUP2 LT PUSH2 0x9FA JUMPI PUSH2 0x9FA PUSH2 0x1643 JUMP JUMPDEST PUSH1 0x20 MUL PUSH1 0x20 ADD ADD MLOAD PUSH1 0x0 ADD MLOAD SWAP6 POP JUMPDEST POP POP DUP1 DUP1 PUSH2 0xA16 SWAP1 PUSH2 0x166F JUMP JUMPDEST SWAP2 POP POP PUSH2 0x884 JUMP JUMPDEST POP DUP4 DUP3 LT PUSH2 0xA31 JUMPI POP SWAP1 SWAP6 SWAP5 POP POP POP POP POP JUMP JUMPDEST POP PUSH1 0x0 SWAP7 SWAP6 POP POP POP POP POP POP JUMP JUMPDEST PUSH1 0x0 DUP2 DUP2 MSTORE PUSH1 0x4 PUSH1 0x20 SWAP1 DUP2 MSTORE PUSH1 0x40 DUP1 DUP4 KECCAK256 DUP1 SLOAD DUP3 MLOAD DUP2 DUP6 MUL DUP2 ADD DUP6 ADD SWAP1 SWAP4 MSTORE DUP1 DUP4 MSTORE SWAP2 SWAP3 SWAP1 SWAP2 SWAP1 DUP5 SWAP1 DUP5 ADD JUMPDEST DUP3 DUP3 LT ISZERO PUSH2 0xB16 JUMPI DUP4 DUP3 SWAP1 PUSH1 0x0 MSTORE PUSH1 0x20 PUSH1 0x0 KECCAK256 ADD DUP1 SLOAD PUSH2 0xA89 SWAP1 PUSH2 0x1723 JUMP JUMPDEST DUP1 PUSH1 0x1F ADD PUSH1 0x20 DUP1 SWAP2 DIV MUL PUSH1 0x20 ADD PUSH1 0x40 MLOAD SWAP1 DUP2 ADD PUSH1 0x40 MSTORE DUP1 SWAP3 SWAP2 SWAP1 DUP2 DUP2 MSTORE PUSH1 0x20 ADD DUP3 DUP1 SLOAD PUSH2 0xAB5 SWAP1 PUSH2 0x1723 JUMP JUMPDEST DUP1 ISZERO PUSH2 0xB02 JUMPI DUP1 PUSH1 0x1F LT PUSH2 0xAD7 JUMPI PUSH2 0x100 DUP1 DUP4 SLOAD DIV MUL DUP4 MSTORE SWAP2 PUSH1 0x20 ADD SWAP2 PUSH2 0xB02 JUMP JUMPDEST DUP3 ADD SWAP2 SWAP1 PUSH1 0x0 MSTORE PUSH1 0x20 PUSH1 0x0 KECCAK256 SWAP1 JUMPDEST DUP2 SLOAD DUP2 MSTORE SWAP1 PUSH1 0x1 ADD SWAP1 PUSH1 0x20 ADD DUP1 DUP4 GT PUSH2 0xAE5 JUMPI DUP3 SWAP1 SUB PUSH1 0x1F AND DUP3 ADD SWAP2 JUMPDEST POP POP POP POP POP DUP2 MSTORE PUSH1 0x20 ADD SWAP1 PUSH1 0x1 ADD SWAP1 PUSH2 0xA6A JUMP JUMPDEST POP POP POP POP SWAP1 POP PUSH1 0x0 PUSH2 0xB27 DUP3 PUSH2 0x22F JUMP JUMPDEST SWAP1 POP PUSH1 0x0 PUSH2 0xB33 PUSH2 0xED0 JUMP JUMPDEST SWAP1 POP PUSH1 0x0 JUMPDEST DUP3 MLOAD DUP2 LT ISZERO PUSH2 0xC1C JUMPI PUSH1 0x0 PUSH1 0x1 PUSH1 0x1 PUSH1 0xA0 SHL SUB AND DUP4 DUP3 DUP2 MLOAD DUP2 LT PUSH2 0xB5E JUMPI PUSH2 0xB5E PUSH2 0x1643 JUMP JUMPDEST PUSH1 0x20 MUL PUSH1 0x20 ADD ADD MLOAD PUSH1 0x1 PUSH1 0x1 PUSH1 0xA0 SHL SUB AND EQ PUSH2 0xC0A JUMPI PUSH1 0x1 SLOAD DUP4 MLOAD PUSH1 0x1 PUSH1 0x1 PUSH1 0xA0 SHL SUB SWAP1 SWAP2 AND SWAP1 PUSH4 0xF0DDA65C SWAP1 DUP6 SWAP1 DUP5 SWAP1 DUP2 LT PUSH2 0xB9D JUMPI PUSH2 0xB9D PUSH2 0x1643 JUMP JUMPDEST PUSH1 0x20 MUL PUSH1 0x20 ADD ADD MLOAD DUP5 PUSH1 0x40 MLOAD DUP4 PUSH4 0xFFFFFFFF AND PUSH1 0xE0 SHL DUP2 MSTORE PUSH1 0x4 ADD PUSH2 0xBD7 SWAP3 SWAP2 SWAP1 PUSH1 0x1 PUSH1 0x1 PUSH1 0xA0 SHL SUB SWAP3 SWAP1 SWAP3 AND DUP3 MSTORE PUSH1 0x20 DUP3 ADD MSTORE PUSH1 0x40 ADD SWAP1 JUMP JUMPDEST PUSH1 0x0 PUSH1 0x40 MLOAD DUP1 DUP4 SUB DUP2 PUSH1 0x0 DUP8 DUP1 EXTCODESIZE ISZERO DUP1 ISZERO PUSH2 0xBF1 JUMPI PUSH1 0x0 DUP1 REVERT JUMPDEST POP GAS CALL ISZERO DUP1 ISZERO PUSH2 0xC05 JUMPI RETURNDATASIZE PUSH1 0x0 DUP1 RETURNDATACOPY RETURNDATASIZE PUSH1 0x0 REVERT JUMPDEST POP POP POP POP JUMPDEST DUP1 PUSH2 0xC14 DUP2 PUSH2 0x166F JUMP JUMPDEST SWAP2 POP POP PUSH2 0xB38 JUMP JUMPDEST POP POP POP POP POP JUMP JUMPDEST PUSH1 0x0 DUP1 PUSH1 0x0 SWAP1 SLOAD SWAP1 PUSH2 0x100 EXP SWAP1 DIV PUSH1 0x1 PUSH1 0x1 PUSH1 0xA0 SHL SUB AND PUSH1 0x1 PUSH1 0x1 PUSH1 0xA0 SHL SUB AND PUSH4 0x3DC0FF7D PUSH1 0x40 MLOAD DUP2 PUSH4 0xFFFFFFFF AND PUSH1 0xE0 SHL DUP2 MSTORE PUSH1 0x4 ADD PUSH1 0x0 PUSH1 0x40 MLOAD DUP1 DUP4 SUB DUP2 DUP7 GAS STATICCALL ISZERO DUP1 ISZERO PUSH2 0xC77 JUMPI RETURNDATASIZE PUSH1 0x0 DUP1 RETURNDATACOPY RETURNDATASIZE PUSH1 0x0 REVERT JUMPDEST POP POP POP POP PUSH1 0x40 MLOAD RETURNDATASIZE PUSH1 0x0 DUP3 RETURNDATACOPY PUSH1 0x1F RETURNDATASIZE SWAP1 DUP2 ADD PUSH1 0x1F NOT AND DUP3 ADD PUSH1 0x40 MSTORE PUSH2 0xC9F SWAP2 SWAP1 DUP2 ADD SWAP1 PUSH2 0x1556 JUMP JUMPDEST SWAP1 POP PUSH1 0x0 JUMPDEST DUP2 MLOAD DUP2 LT ISZERO PUSH2 0xDDD JUMPI PUSH1 0x0 DUP3 DUP3 DUP2 MLOAD DUP2 LT PUSH2 0xCC1 JUMPI PUSH2 0xCC1 PUSH2 0x1643 JUMP JUMPDEST PUSH1 0x20 MUL PUSH1 0x20 ADD ADD MLOAD SWAP1 POP PUSH1 0x0 PUSH1 0x2 DUP3 PUSH1 0x40 MLOAD PUSH2 0xCDD SWAP2 SWAP1 PUSH2 0x16CA JUMP JUMPDEST SWAP1 DUP2 MSTORE PUSH1 0x40 DUP1 MLOAD SWAP2 DUP3 SWAP1 SUB PUSH1 0x20 SWAP1 DUP2 ADD DUP4 KECCAK256 DUP1 SLOAD DUP1 DUP4 MUL DUP6 ADD DUP4 ADD SWAP1 SWAP4 MSTORE DUP3 DUP5 MSTORE SWAP2 SWAP1 DUP4 ADD DUP3 DUP3 DUP1 ISZERO PUSH2 0xD39 JUMPI PUSH1 0x20 MUL DUP3 ADD SWAP2 SWAP1 PUSH1 0x0 MSTORE PUSH1 0x20 PUSH1 0x0 KECCAK256 SWAP1 JUMPDEST DUP2 SLOAD PUSH1 0x1 PUSH1 0x1 PUSH1 0xA0 SHL SUB AND DUP2 MSTORE PUSH1 0x1 SWAP1 SWAP2 ADD SWAP1 PUSH1 0x20 ADD DUP1 DUP4 GT PUSH2 0xD1B JUMPI JUMPDEST POP POP POP POP POP SWAP1 POP PUSH1 0x0 JUMPDEST DUP2 MLOAD DUP2 LT ISZERO PUSH2 0xDC7 JUMPI PUSH1 0x0 PUSH1 0x3 DUP5 PUSH1 0x40 MLOAD PUSH2 0xD5E SWAP2 SWAP1 PUSH2 0x16CA JUMP JUMPDEST SWAP1 DUP2 MSTORE PUSH1 0x20 ADD PUSH1 0x40 MLOAD DUP1 SWAP2 SUB SWAP1 KECCAK256 PUSH1 0x0 DUP5 DUP5 DUP2 MLOAD DUP2 LT PUSH2 0xD80 JUMPI PUSH2 0xD80 PUSH2 0x1643 JUMP JUMPDEST PUSH1 0x20 SWAP1 DUP2 MUL SWAP2 SWAP1 SWAP2 ADD DUP2 ADD MLOAD PUSH1 0x1 PUSH1 0x1 PUSH1 0xA0 SHL SUB AND DUP3 MSTORE DUP2 ADD SWAP2 SWAP1 SWAP2 MSTORE PUSH1 0x40 ADD PUSH1 0x0 KECCAK256 PUSH1 0x1 ADD DUP1 SLOAD PUSH1 0xFF NOT AND SWAP2 ISZERO ISZERO SWAP2 SWAP1 SWAP2 OR SWAP1 SSTORE DUP1 PUSH2 0xDBF DUP2 PUSH2 0x166F JUMP JUMPDEST SWAP2 POP POP PUSH2 0xD43 JUMP JUMPDEST POP POP POP DUP1 DUP1 PUSH2 0xDD5 SWAP1 PUSH2 0x166F JUMP JUMPDEST SWAP2 POP POP PUSH2 0xCA4 JUMP JUMPDEST POP POP JUMP JUMPDEST PUSH1 0x0 DUP1 JUMPDEST PUSH1 0x2 DUP5 PUSH1 0x40 MLOAD PUSH2 0xDF5 SWAP2 SWAP1 PUSH2 0x16CA JUMP JUMPDEST SWAP1 DUP2 MSTORE PUSH1 0x40 MLOAD SWAP1 DUP2 SWAP1 SUB PUSH1 0x20 ADD SWAP1 KECCAK256 SLOAD DUP2 LT ISZERO PUSH2 0xE7A JUMPI DUP3 PUSH1 0x1 PUSH1 0x1 PUSH1 0xA0 SHL SUB AND PUSH1 0x2 DUP6 PUSH1 0x40 MLOAD PUSH2 0xE26 SWAP2 SWAP1 PUSH2 0x16CA JUMP JUMPDEST SWAP1 DUP2 MSTORE PUSH1 0x20 ADD PUSH1 0x40 MLOAD DUP1 SWAP2 SUB SWAP1 KECCAK256 DUP3 DUP2 SLOAD DUP2 LT PUSH2 0xE45 JUMPI PUSH2 0xE45 PUSH2 0x1643 JUMP JUMPDEST PUSH1 0x0 SWAP2 DUP3 MSTORE PUSH1 0x20 SWAP1 SWAP2 KECCAK256 ADD SLOAD PUSH1 0x1 PUSH1 0x1 PUSH1 0xA0 SHL SUB AND SUB PUSH2 0xE68 JUMPI PUSH1 0x1 SWAP2 POP PUSH2 0xE7A JUMP JUMPDEST DUP1 PUSH2 0xE72 DUP2 PUSH2 0x166F JUMP JUMPDEST SWAP2 POP POP PUSH2 0xDE5 JUMP JUMPDEST POP DUP1 PUSH2 0xECB JUMPI PUSH1 0x2 DUP4 PUSH1 0x40 MLOAD PUSH2 0xE90 SWAP2 SWAP1 PUSH2 0x16CA JUMP JUMPDEST SWAP1 DUP2 MSTORE PUSH1 0x40 MLOAD PUSH1 0x20 SWAP2 DUP2 SWAP1 SUB DUP3 ADD SWAP1 KECCAK256 DUP1 SLOAD PUSH1 0x1 DUP2 ADD DUP3 SSTORE PUSH1 0x0 SWAP2 DUP3 MSTORE SWAP2 SWAP1 KECCAK256 ADD DUP1 SLOAD PUSH1 0x1 PUSH1 0x1 PUSH1 0xA0 SHL SUB NOT AND PUSH1 0x1 PUSH1 0x1 PUSH1 0xA0 SHL SUB DUP5 AND OR SWAP1 SSTORE JUMPDEST POP POP POP JUMP JUMPDEST PUSH1 0x0 DUP1 PUSH1 0x5 SLOAD TIMESTAMP PUSH2 0xEE1 SWAP2 SWAP1 PUSH2 0x16E6 JUMP JUMPDEST SWAP1 POP PUSH2 0x258 DUP2 GT ISZERO PUSH2 0xEF2 JUMPI POP PUSH2 0x258 JUMPDEST PUSH2 0xF04 PUSH8 0xDE0B6B3A7640000 DUP3 PUSH2 0x177A JUMP JUMPDEST SWAP2 POP POP SWAP1 JUMP JUMPDEST DUP3 DUP1 SLOAD DUP3 DUP3 SSTORE SWAP1 PUSH1 0x0 MSTORE PUSH1 0x20 PUSH1 0x0 KECCAK256 SWAP1 DUP2 ADD SWAP3 DUP3 ISZERO PUSH2 0xF50 JUMPI SWAP2 PUSH1 0x20 MUL DUP3 ADD JUMPDEST DUP3 DUP2 GT ISZERO PUSH2 0xF50 JUMPI DUP3 MLOAD DUP3 SWAP1 PUSH2 0xF40 SWAP1 DUP3 PUSH2 0x17F3 JUMP JUMPDEST POP SWAP2 PUSH1 0x20 ADD SWAP2 SWAP1 PUSH1 0x1 ADD SWAP1 PUSH2 0xF2A JUMP JUMPDEST POP PUSH2 0xF5C SWAP3 SWAP2 POP PUSH2 0xF60 JUMP JUMPDEST POP SWAP1 JUMP JUMPDEST DUP1 DUP3 GT ISZERO PUSH2 0xF5C JUMPI PUSH1 0x0 PUSH2 0xF74 DUP3 DUP3 PUSH2 0xF7D JUMP JUMPDEST POP PUSH1 0x1 ADD PUSH2 0xF60 JUMP JUMPDEST POP DUP1 SLOAD PUSH2 0xF89 SWAP1 PUSH2 0x1723 JUMP JUMPDEST PUSH1 0x0 DUP3 SSTORE DUP1 PUSH1 0x1F LT PUSH2 0xF99 JUMPI POP POP JUMP JUMPDEST PUSH1 0x1F ADD PUSH1 0x20 SWAP1 DIV SWAP1 PUSH1 0x0 MSTORE PUSH1 0x20 PUSH1 0x0 KECCAK256 SWAP1 DUP2 ADD SWAP1 PUSH2 0x1E0 SWAP2 SWAP1 JUMPDEST DUP1 DUP3 GT ISZERO PUSH2 0xF5C JUMPI PUSH1 0x0 DUP2 SSTORE PUSH1 0x1 ADD PUSH2 0xFB3 JUMP JUMPDEST PUSH4 0x4E487B71 PUSH1 0xE0 SHL PUSH1 0x0 MSTORE PUSH1 0x41 PUSH1 0x4 MSTORE PUSH1 0x24 PUSH1 0x0 REVERT JUMPDEST PUSH1 0x40 DUP1 MLOAD SWAP1 DUP2 ADD PUSH8 0xFFFFFFFFFFFFFFFF DUP2 GT DUP3 DUP3 LT OR ISZERO PUSH2 0x1000 JUMPI PUSH2 0x1000 PUSH2 0xFC7 JUMP JUMPDEST PUSH1 0x40 MSTORE SWAP1 JUMP JUMPDEST PUSH1 0x40 MLOAD PUSH1 0x1F DUP3 ADD PUSH1 0x1F NOT AND DUP2 ADD PUSH8 0xFFFFFFFFFFFFFFFF DUP2 GT DUP3 DUP3 LT OR ISZERO PUSH2 0x102F JUMPI PUSH2 0x102F PUSH2 0xFC7 JUMP JUMPDEST PUSH1 0x40 MSTORE SWAP2 SWAP1 POP JUMP JUMPDEST PUSH1 0x0 PUSH8 0xFFFFFFFFFFFFFFFF DUP3 GT ISZERO PUSH2 0x1051 JUMPI PUSH2 0x1051 PUSH2 0xFC7 JUMP JUMPDEST POP PUSH1 0x5 SHL PUSH1 0x20 ADD SWAP1 JUMP JUMPDEST PUSH1 0x0 PUSH8 0xFFFFFFFFFFFFFFFF DUP3 GT ISZERO PUSH2 0x1075 JUMPI PUSH2 0x1075 PUSH2 0xFC7 JUMP JUMPDEST POP PUSH1 0x1F ADD PUSH1 0x1F NOT AND PUSH1 0x20 ADD SWAP1 JUMP JUMPDEST PUSH1 0x0 DUP3 PUSH1 0x1F DUP4 ADD SLT PUSH2 0x1094 JUMPI PUSH1 0x0 DUP1 REVERT JUMPDEST DUP2 CALLDATALOAD PUSH2 0x10A7 PUSH2 0x10A2 DUP3 PUSH2 0x105B JUMP JUMPDEST PUSH2 0x1006 JUMP JUMPDEST DUP2 DUP2 MSTORE DUP5 PUSH1 0x20 DUP4 DUP7 ADD ADD GT ISZERO PUSH2 0x10BC JUMPI PUSH1 0x0 DUP1 REVERT JUMPDEST DUP2 PUSH1 0x20 DUP6 ADD PUSH1 0x20 DUP4 ADD CALLDATACOPY PUSH1 0x0 SWAP2 DUP2 ADD PUSH1 0x20 ADD SWAP2 SWAP1 SWAP2 MSTORE SWAP4 SWAP3 POP POP POP JUMP JUMPDEST PUSH1 0x0 DUP3 PUSH1 0x1F DUP4 ADD SLT PUSH2 0x10EA JUMPI PUSH1 0x0 DUP1 REVERT JUMPDEST DUP2 CALLDATALOAD PUSH1 0x20 PUSH2 0x10FA PUSH2 0x10A2 DUP4 PUSH2 0x1037 JUMP JUMPDEST DUP3 DUP2 MSTORE PUSH1 0x5 SWAP3 SWAP1 SWAP3 SHL DUP5 ADD DUP2 ADD SWAP2 DUP2 DUP2 ADD SWAP1 DUP7 DUP5 GT ISZERO PUSH2 0x1119 JUMPI PUSH1 0x0 DUP1 REVERT JUMPDEST DUP3 DUP7 ADD JUMPDEST DUP5 DUP2 LT ISZERO PUSH2 0x1159 JUMPI DUP1 CALLDATALOAD PUSH8 0xFFFFFFFFFFFFFFFF DUP2 GT ISZERO PUSH2 0x113D JUMPI PUSH1 0x0 DUP1 DUP2 REVERT JUMPDEST PUSH2 0x114B DUP10 DUP7 DUP4 DUP12 ADD ADD PUSH2 0x1083 JUMP JUMPDEST DUP5 MSTORE POP SWAP2 DUP4 ADD SWAP2 DUP4 ADD PUSH2 0x111D JUMP JUMPDEST POP SWAP7 SWAP6 POP POP POP POP POP POP JUMP JUMPDEST PUSH1 0x0 PUSH1 0x20 DUP3 DUP5 SUB SLT ISZERO PUSH2 0x1176 JUMPI PUSH1 0x0 DUP1 REVERT JUMPDEST DUP2 CALLDATALOAD PUSH8 0xFFFFFFFFFFFFFFFF DUP2 GT ISZERO PUSH2 0x118D JUMPI PUSH1 0x0 DUP1 REVERT JUMPDEST PUSH2 0x1199 DUP5 DUP3 DUP6 ADD PUSH2 0x10D9 JUMP JUMPDEST SWAP5 SWAP4 POP POP POP POP JUMP JUMPDEST PUSH1 0x20 DUP1 DUP3 MSTORE DUP3 MLOAD DUP3 DUP3 ADD DUP2 SWAP1 MSTORE PUSH1 0x0 SWAP2 SWAP1 DUP5 DUP3 ADD SWAP1 PUSH1 0x40 DUP6 ADD SWAP1 DUP5 JUMPDEST DUP2 DUP2 LT ISZERO PUSH2 0x11E2 JUMPI DUP4 MLOAD PUSH1 0x1 PUSH1 0x1 PUSH1 0xA0 SHL SUB AND DUP4 MSTORE SWAP3 DUP5 ADD SWAP3 SWAP2 DUP5 ADD SWAP2 PUSH1 0x1 ADD PUSH2 0x11BD JUMP JUMPDEST POP SWAP1 SWAP7 SWAP6 POP POP POP POP POP POP JUMP JUMPDEST PUSH1 0x1 PUSH1 0x1 PUSH1 0xA0 SHL SUB DUP2 AND DUP2 EQ PUSH2 0x1E0 JUMPI PUSH1 0x0 DUP1 REVERT JUMPDEST DUP1 CALLDATALOAD PUSH2 0x120E DUP2 PUSH2 0x11EE JUMP JUMPDEST SWAP2 SWAP1 POP JUMP JUMPDEST PUSH1 0x0 DUP1 PUSH1 0x40 DUP4 DUP6 SUB SLT ISZERO PUSH2 0x1226 JUMPI PUSH1 0x0 DUP1 REVERT JUMPDEST DUP3 CALLDATALOAD PUSH8 0xFFFFFFFFFFFFFFFF DUP2 GT ISZERO PUSH2 0x123D JUMPI PUSH1 0x0 DUP1 REVERT JUMPDEST PUSH2 0x1249 DUP6 DUP3 DUP7 ADD PUSH2 0x1083 JUMP JUMPDEST SWAP3 POP POP PUSH1 0x20 DUP4 ADD CALLDATALOAD PUSH2 0x125A DUP2 PUSH2 0x11EE JUMP JUMPDEST DUP1 SWAP2 POP POP SWAP3 POP SWAP3 SWAP1 POP JUMP JUMPDEST DUP1 ISZERO ISZERO DUP2 EQ PUSH2 0x1E0 JUMPI PUSH1 0x0 DUP1 REVERT JUMPDEST DUP1 CALLDATALOAD PUSH2 0x120E DUP2 PUSH2 0x1265 JUMP JUMPDEST PUSH1 0x0 DUP1 PUSH1 0x0 PUSH1 0x60 DUP5 DUP7 SUB SLT ISZERO PUSH2 0x1293 JUMPI PUSH1 0x0 DUP1 REVERT JUMPDEST DUP4 CALLDATALOAD PUSH8 0xFFFFFFFFFFFFFFFF DUP1 DUP3 GT ISZERO PUSH2 0x12AB JUMPI PUSH1 0x0 DUP1 REVERT JUMPDEST DUP2 DUP7 ADD SWAP2 POP DUP7 PUSH1 0x1F DUP4 ADD SLT PUSH2 0x12BF JUMPI PUSH1 0x0 DUP1 REVERT JUMPDEST DUP2 CALLDATALOAD PUSH1 0x20 PUSH2 0x12CF PUSH2 0x10A2 DUP4 PUSH2 0x1037 JUMP JUMPDEST DUP3 DUP2 MSTORE PUSH1 0x5 SWAP3 SWAP1 SWAP3 SHL DUP5 ADD DUP2 ADD SWAP2 DUP2 DUP2 ADD SWAP1 DUP11 DUP5 GT ISZERO PUSH2 0x12EE JUMPI PUSH1 0x0 DUP1 REVERT JUMPDEST DUP3 DUP7 ADD JUMPDEST DUP5 DUP2 LT ISZERO PUSH2 0x137F JUMPI DUP1 CALLDATALOAD DUP7 DUP2 GT ISZERO PUSH2 0x1309 JUMPI PUSH1 0x0 DUP1 REVERT JUMPDEST DUP8 ADD PUSH1 0x40 DUP2 DUP15 SUB PUSH1 0x1F NOT ADD SLT ISZERO PUSH2 0x1320 JUMPI PUSH1 0x0 DUP1 DUP2 REVERT JUMPDEST PUSH2 0x1328 PUSH2 0xFDD JUMP JUMPDEST DUP6 DUP3 ADD CALLDATALOAD DUP9 DUP2 GT ISZERO PUSH2 0x133A JUMPI PUSH1 0x0 DUP1 DUP2 REVERT JUMPDEST PUSH2 0x1348 DUP16 DUP9 DUP4 DUP7 ADD ADD PUSH2 0x1083 JUMP JUMPDEST DUP3 MSTORE POP PUSH1 0x40 DUP3 ADD CALLDATALOAD DUP9 DUP2 GT ISZERO PUSH2 0x135E JUMPI PUSH1 0x0 DUP1 DUP2 REVERT JUMPDEST PUSH2 0x136C DUP16 DUP9 DUP4 DUP7 ADD ADD PUSH2 0x10D9 JUMP JUMPDEST DUP3 DUP9 ADD MSTORE POP DUP5 MSTORE POP SWAP2 DUP4 ADD SWAP2 DUP4 ADD PUSH2 0x12F2 JUMP JUMPDEST POP SWAP8 POP PUSH2 0x138F SWAP1 POP DUP9 DUP3 ADD PUSH2 0x1203 JUMP JUMPDEST SWAP6 POP POP POP POP POP PUSH2 0x13A1 PUSH1 0x40 DUP6 ADD PUSH2 0x1273 JUMP JUMPDEST SWAP1 POP SWAP3 POP SWAP3 POP SWAP3 JUMP JUMPDEST PUSH1 0x0 PUSH1 0x20 DUP3 DUP5 SUB SLT ISZERO PUSH2 0x13BC JUMPI PUSH1 0x0 DUP1 REVERT JUMPDEST DUP2 CALLDATALOAD PUSH2 0x13C7 DUP2 PUSH2 0x11EE JUMP JUMPDEST SWAP4 SWAP3 POP POP POP JUMP JUMPDEST PUSH1 0x0 DUP1 PUSH1 0x40 DUP4 DUP6 SUB SLT ISZERO PUSH2 0x13E1 JUMPI PUSH1 0x0 DUP1 REVERT JUMPDEST POP POP DUP1 CALLDATALOAD SWAP3 PUSH1 0x20 SWAP1 SWAP2 ADD CALLDATALOAD SWAP2 POP JUMP JUMPDEST PUSH1 0x0 JUMPDEST DUP4 DUP2 LT ISZERO PUSH2 0x140B JUMPI DUP2 DUP2 ADD MLOAD DUP4 DUP3 ADD MSTORE PUSH1 0x20 ADD PUSH2 0x13F3 JUMP JUMPDEST POP POP PUSH1 0x0 SWAP2 ADD MSTORE JUMP JUMPDEST PUSH1 0x0 DUP2 MLOAD DUP1 DUP5 MSTORE PUSH2 0x142C DUP2 PUSH1 0x20 DUP7 ADD PUSH1 0x20 DUP7 ADD PUSH2 0x13F0 JUMP JUMPDEST PUSH1 0x1F ADD PUSH1 0x1F NOT AND SWAP3 SWAP1 SWAP3 ADD PUSH1 0x20 ADD SWAP3 SWAP2 POP POP JUMP JUMPDEST PUSH1 0x20 DUP2 MSTORE PUSH1 0x0 PUSH2 0x13C7 PUSH1 0x20 DUP4 ADD DUP5 PUSH2 0x1414 JUMP JUMPDEST PUSH1 0x0 PUSH1 0x40 DUP3 ADD PUSH1 0x40 DUP4 MSTORE DUP1 DUP6 MLOAD DUP1 DUP4 MSTORE PUSH1 0x60 DUP6 ADD SWAP2 POP PUSH1 0x60 DUP2 PUSH1 0x5 SHL DUP7 ADD ADD SWAP3 POP PUSH1 0x20 DUP1 DUP9 ADD PUSH1 0x0 JUMPDEST DUP4 DUP2 LT ISZERO PUSH2 0x14AA JUMPI PUSH1 0x5F NOT DUP9 DUP8 SUB ADD DUP6 MSTORE PUSH2 0x1498 DUP7 DUP4 MLOAD PUSH2 0x1414 JUMP JUMPDEST SWAP6 POP SWAP4 DUP3 ADD SWAP4 SWAP1 DUP3 ADD SWAP1 PUSH1 0x1 ADD PUSH2 0x147C JUMP JUMPDEST POP POP SWAP5 SWAP1 SWAP5 ADD SWAP5 SWAP1 SWAP5 MSTORE SWAP5 SWAP4 POP POP POP POP JUMP JUMPDEST PUSH1 0x0 PUSH1 0x20 DUP1 DUP4 DUP6 SUB SLT ISZERO PUSH2 0x14CF JUMPI PUSH1 0x0 DUP1 REVERT JUMPDEST DUP3 MLOAD PUSH8 0xFFFFFFFFFFFFFFFF DUP2 GT ISZERO PUSH2 0x14E6 JUMPI PUSH1 0x0 DUP1 REVERT JUMPDEST DUP4 ADD PUSH1 0x1F DUP2 ADD DUP6 SGT PUSH2 0x14F7 JUMPI PUSH1 0x0 DUP1 REVERT JUMPDEST DUP1 MLOAD PUSH2 0x1505 PUSH2 0x10A2 DUP3 PUSH2 0x1037 JUMP JUMPDEST DUP2 DUP2 MSTORE PUSH1 0x5 SWAP2 SWAP1 SWAP2 SHL DUP3 ADD DUP4 ADD SWAP1 DUP4 DUP2 ADD SWAP1 DUP8 DUP4 GT ISZERO PUSH2 0x1524 JUMPI PUSH1 0x0 DUP1 REVERT JUMPDEST SWAP3 DUP5 ADD SWAP3 JUMPDEST DUP3 DUP5 LT ISZERO PUSH2 0x154B JUMPI DUP4 MLOAD PUSH2 0x153C DUP2 PUSH2 0x11EE JUMP JUMPDEST DUP3 MSTORE SWAP3 DUP5 ADD SWAP3 SWAP1 DUP5 ADD SWAP1 PUSH2 0x1529 JUMP JUMPDEST SWAP8 SWAP7 POP POP POP POP POP POP POP JUMP JUMPDEST PUSH1 0x0 PUSH1 0x20 DUP1 DUP4 DUP6 SUB SLT ISZERO PUSH2 0x1569 JUMPI PUSH1 0x0 DUP1 REVERT JUMPDEST DUP3 MLOAD PUSH8 0xFFFFFFFFFFFFFFFF DUP1 DUP3 GT ISZERO PUSH2 0x1581 JUMPI PUSH1 0x0 DUP1 REVERT JUMPDEST DUP2 DUP6 ADD SWAP2 POP DUP6 PUSH1 0x1F DUP4 ADD SLT PUSH2 0x1595 JUMPI PUSH1 0x0 DUP1 REVERT JUMPDEST DUP2 MLOAD PUSH2 0x15A3 PUSH2 0x10A2 DUP3 PUSH2 0x1037 JUMP JUMPDEST DUP2 DUP2 MSTORE PUSH1 0x5 SWAP2 SWAP1 SWAP2 SHL DUP4 ADD DUP5 ADD SWAP1 DUP5 DUP2 ADD SWAP1 DUP9 DUP4 GT ISZERO PUSH2 0x15C2 JUMPI PUSH1 0x0 DUP1 REVERT JUMPDEST DUP6 DUP6 ADD JUMPDEST DUP4 DUP2 LT ISZERO PUSH2 0x1636 JUMPI DUP1 MLOAD DUP6 DUP2 GT ISZERO PUSH2 0x15DE JUMPI PUSH1 0x0 DUP1 DUP2 REVERT JUMPDEST DUP7 ADD PUSH1 0x3F DUP2 ADD DUP12 SGT PUSH2 0x15F0 JUMPI PUSH1 0x0 DUP1 DUP2 REVERT JUMPDEST DUP8 DUP2 ADD MLOAD PUSH1 0x40 PUSH2 0x1602 PUSH2 0x10A2 DUP4 PUSH2 0x105B JUMP JUMPDEST DUP3 DUP2 MSTORE DUP14 DUP3 DUP5 DUP7 ADD ADD GT ISZERO PUSH2 0x1617 JUMPI PUSH1 0x0 DUP1 DUP2 REVERT JUMPDEST PUSH2 0x1626 DUP4 DUP13 DUP4 ADD DUP5 DUP8 ADD PUSH2 0x13F0 JUMP JUMPDEST DUP7 MSTORE POP POP POP SWAP2 DUP7 ADD SWAP2 DUP7 ADD PUSH2 0x15C6 JUMP JUMPDEST POP SWAP9 SWAP8 POP POP POP POP POP POP POP POP JUMP JUMPDEST PUSH4 0x4E487B71 PUSH1 0xE0 SHL PUSH1 0x0 MSTORE PUSH1 0x32 PUSH1 0x4 MSTORE PUSH1 0x24 PUSH1 0x0 REVERT JUMPDEST PUSH4 0x4E487B71 PUSH1 0xE0 SHL PUSH1 0x0 MSTORE PUSH1 0x11 PUSH1 0x4 MSTORE PUSH1 0x24 PUSH1 0x0 REVERT JUMPDEST PUSH1 0x0 PUSH1 0x1 DUP3 ADD PUSH2 0x1681 JUMPI PUSH2 0x1681 PUSH2 0x1659 JUMP JUMPDEST POP PUSH1 0x1 ADD SWAP1 JUMP JUMPDEST DUP1 DUP3 ADD DUP1 DUP3 GT ISZERO PUSH2 0x2A8 JUMPI PUSH2 0x2A8 PUSH2 0x1659 JUMP JUMPDEST PUSH1 0x0 DUP4 MLOAD PUSH2 0x16AD DUP2 DUP5 PUSH1 0x20 DUP9 ADD PUSH2 0x13F0 JUMP JUMPDEST DUP4 MLOAD SWAP1 DUP4 ADD SWAP1 PUSH2 0x16C1 DUP2 DUP4 PUSH1 0x20 DUP9 ADD PUSH2 0x13F0 JUMP JUMPDEST ADD SWAP5 SWAP4 POP POP POP POP JUMP JUMPDEST PUSH1 0x0 DUP3 MLOAD PUSH2 0x16DC DUP2 DUP5 PUSH1 0x20 DUP8 ADD PUSH2 0x13F0 JUMP JUMPDEST SWAP2 SWAP1 SWAP2 ADD SWAP3 SWAP2 POP POP JUMP JUMPDEST DUP2 DUP2 SUB DUP2 DUP2 GT ISZERO PUSH2 0x2A8 JUMPI PUSH2 0x2A8 PUSH2 0x1659 JUMP JUMPDEST PUSH4 0x4E487B71 PUSH1 0xE0 SHL PUSH1 0x0 MSTORE PUSH1 0x12 PUSH1 0x4 MSTORE PUSH1 0x24 PUSH1 0x0 REVERT JUMPDEST PUSH1 0x0 DUP3 PUSH2 0x171E JUMPI PUSH2 0x171E PUSH2 0x16F9 JUMP JUMPDEST POP MOD SWAP1 JUMP JUMPDEST PUSH1 0x1 DUP2 DUP2 SHR SWAP1 DUP3 AND DUP1 PUSH2 0x1737 JUMPI PUSH1 0x7F DUP3 AND SWAP2 POP JUMPDEST PUSH1 0x20 DUP3 LT DUP2 SUB PUSH2 0x1757 JUMPI PUSH4 0x4E487B71 PUSH1 0xE0 SHL PUSH1 0x0 MSTORE PUSH1 0x22 PUSH1 0x4 MSTORE PUSH1 0x24 PUSH1 0x0 REVERT JUMPDEST POP SWAP2 SWAP1 POP JUMP JUMPDEST PUSH1 0x0 PUSH1 0x20 DUP3 DUP5 SUB SLT ISZERO PUSH2 0x176F JUMPI PUSH1 0x0 DUP1 REVERT JUMPDEST DUP2 MLOAD PUSH2 0x13C7 DUP2 PUSH2 0x1265 JUMP JUMPDEST DUP1 DUP3 MUL DUP2 ISZERO DUP3 DUP3 DIV DUP5 EQ OR PUSH2 0x2A8 JUMPI PUSH2 0x2A8 PUSH2 0x1659 JUMP JUMPDEST PUSH1 0x0 DUP3 PUSH2 0x17A0 JUMPI PUSH2 0x17A0 PUSH2 0x16F9 JUMP JUMPDEST POP DIV SWAP1 JUMP JUMPDEST PUSH1 0x1F DUP3 GT ISZERO PUSH2 0xECB JUMPI PUSH1 0x0 DUP2 DUP2 MSTORE PUSH1 0x20 DUP2 KECCAK256 PUSH1 0x1F DUP6 ADD PUSH1 0x5 SHR DUP2 ADD PUSH1 0x20 DUP7 LT ISZERO PUSH2 0x17CC JUMPI POP DUP1 JUMPDEST PUSH1 0x1F DUP6 ADD PUSH1 0x5 SHR DUP3 ADD SWAP2 POP JUMPDEST DUP2 DUP2 LT ISZERO PUSH2 0x17EB JUMPI DUP3 DUP2 SSTORE PUSH1 0x1 ADD PUSH2 0x17D8 JUMP JUMPDEST POP POP POP POP POP POP JUMP JUMPDEST DUP2 MLOAD PUSH8 0xFFFFFFFFFFFFFFFF DUP2 GT ISZERO PUSH2 0x180D JUMPI PUSH2 0x180D PUSH2 0xFC7 JUMP JUMPDEST PUSH2 0x1821 DUP2 PUSH2 0x181B DUP5 SLOAD PUSH2 0x1723 JUMP JUMPDEST DUP5 PUSH2 0x17A5 JUMP JUMPDEST PUSH1 0x20 DUP1 PUSH1 0x1F DUP4 GT PUSH1 0x1 DUP2 EQ PUSH2 0x1856 JUMPI PUSH1 0x0 DUP5 ISZERO PUSH2 0x183E JUMPI POP DUP6 DUP4 ADD MLOAD JUMPDEST PUSH1 0x0 NOT PUSH1 0x3 DUP7 SWAP1 SHL SHR NOT AND PUSH1 0x1 DUP6 SWAP1 SHL OR DUP6 SSTORE PUSH2 0x17EB JUMP JUMPDEST PUSH1 0x0 DUP6 DUP2 MSTORE PUSH1 0x20 DUP2 KECCAK256 PUSH1 0x1F NOT DUP7 AND SWAP2 JUMPDEST DUP3 DUP2 LT ISZERO PUSH2 0x1885 JUMPI DUP9 DUP7 ADD MLOAD DUP3 SSTORE SWAP5 DUP5 ADD SWAP5 PUSH1 0x1 SWAP1 SWAP2 ADD SWAP1 DUP5 ADD PUSH2 0x1866 JUMP JUMPDEST POP DUP6 DUP3 LT ISZERO PUSH2 0x18A3 JUMPI DUP8 DUP6 ADD MLOAD PUSH1 0x0 NOT PUSH1 0x3 DUP9 SWAP1 SHL PUSH1 0xF8 AND SHR NOT AND DUP2 SSTORE JUMPDEST POP POP POP POP POP PUSH1 0x1 SWAP1 DUP2 SHL ADD SWAP1 SSTORE POP JUMP INVALID LOG2 PUSH5 0x6970667358 0x22 SLT KECCAK256 0xC2 SWAP14 0xE1 MSTORE GASLIMIT 0xD0 0xEC 0xAA SWAP8 CALLCODE SWAP1 0xAE CALLDATASIZE STATICCALL 0xFC 0xD6 0xCE 0xAF 0xC6 0xCC 0xB1 SWAP2 0x1E EQ SWAP1 STATICCALL DUP2 0xBD 0xEC 0xC2 SWAP1 0x4F PUSH5 0x736F6C6343 STOP ADDMOD ISZERO STOP CALLER ",
  "sha1": "86d480d451fead41dff73e2adeb910e82af78e87",
  "source": "// SPDX-License-Identifier: MIT\n\npragma solidity ^0.8.0;\n\ninterface IPlayerDatabase {\n    function getAllPlayerNames() external view returns (string[] memory);\n    function getServerIPList() external view returns (string[] memory);\n    function getValidRewardAddressesByNames(string[] memory playerNames, uint256 lastMintTime) external view returns (address[] memory);\n    function isValidator(address _address) external view returns (bool);\n\n}\ninterface IGP_Mint {\n    function mintTokens(address to, uint256 amount) external;\n    // Add other function signatures as needed\n}\ncontract GameValidator {\n\n    IPlayerDatabase playerDatabase;\n    IGP_Mint public mintContract;\n\n    mapping(string => address[]) private validatorsPerServerIP;\n    mapping(string => mapping(address => ServerSubmission)) public serverSubmissions; \n    mapping(bytes32 => string[]) public hashToPlayerList; // playerListHash -> playerNames\n\n    uint256 public lastMintTime;\n    uint256 public constant MINT_INTERVAL = 5 minutes;\n    uint256 public constant MAX_PLAYERS_PER_SUBMISSION = 64;\n    uint256 public constant MAX_MINT_TIME = 10 minutes; // 10 minutes cap\n    uint256 public constant TOKENS_PER_SECOND = (1e18 * 60) / 60; // 1e18 represents 1 token, and we divide by 60 seconds\n\n    constructor(address _playerDatabaseAddress, address _mintContractAddress) {\n        playerDatabase = IPlayerDatabase(_playerDatabaseAddress);\n        mintContract = IGP_Mint(_mintContractAddress);\n    }\n\n    struct ServerSubmission {\n        //address validator;\n        bytes32 playerListHash; // Hash of the player list for gas efficiency\n        bool canMint;\n    }\n\n    struct ServerPlayers {\n        string serverIP;\n        string[] playerNames;\n    }\n    //mapping(string => ServerSubmission[]) public serverSubmissions; // serverIP -> submissions\n    struct HashCount {\n        bytes32 hash;\n        uint256 count;\n    }\n\n\n    // Function to set the GP_Mint contract address\n    function setMintContractAddress(address _mintContractAddress) public {\n        // Additional checks for access control, like onlyOwner\n    }\n    function calculateMintAmount() private view returns (uint256) {\n        uint256 elapsedSeconds = block.timestamp - lastMintTime;\n\n        if (elapsedSeconds > MAX_MINT_TIME) {\n            elapsedSeconds = MAX_MINT_TIME; // Cap the elapsed time to MAX_MINT_TIME\n        }\n\n        return elapsedSeconds * TOKENS_PER_SECOND; // Calculate the mint amount based on elapsed time\n    }\n\n    function updateValidatorsList(string memory serverIP, address validator) private {\n        bool validatorExists = false;\n        for (uint i = 0; i < validatorsPerServerIP[serverIP].length; i++) {\n            if (validatorsPerServerIP[serverIP][i] == validator) {\n                validatorExists = true;\n                break;\n            }\n        }\n        if (!validatorExists) {\n            validatorsPerServerIP[serverIP].push(validator);\n        }\n    }\n\n    function submitPlayerList(ServerPlayers[] memory serverPlayerLists, address validatorID, bool canMintFlag) public {\n        require(isValidator(validatorID), \"Caller is not a registered validator\");\n\n        uint256 totalPlayerCount = 0;\n\n\n        for (uint i = 0; i < serverPlayerLists.length; i++) {\n            uint256 serverPlayerCount = serverPlayerLists[i].playerNames.length;\n            if (totalPlayerCount + serverPlayerCount > MAX_PLAYERS_PER_SUBMISSION) {\n                break; // Stop if the max players per submission is exceeded\n            }\n            totalPlayerCount += serverPlayerCount;\n\n            // Encode each string in the playerNames array individually\n            bytes memory encodedPlayerNames;\n            for (uint j = 0; j < serverPlayerLists[i].playerNames.length; j++) {\n                encodedPlayerNames = abi.encodePacked(encodedPlayerNames, serverPlayerLists[i].playerNames[j]);\n            }\n\n            // Compute the hash of the concatenated byte array\n            bytes32 playerListHash = keccak256(encodedPlayerNames);\n            hashToPlayerList[playerListHash] = serverPlayerLists[i].playerNames;\n\n            // Update or add the validator to the list for this server IP\n            updateValidatorsList(serverPlayerLists[i].serverIP, validatorID);\n\n            // Overwrite the existing submission for this server IP and validator\n            serverSubmissions[serverPlayerLists[i].serverIP][validatorID] = ServerSubmission({\n                playerListHash: playerListHash,\n                canMint: canMintFlag\n            });\n        }\n        // Check if it's time to perform mass minting\n        uint256 currentTime = block.timestamp;\n        uint256 timeSinceLastMint = currentTime - lastMintTime;\n        uint256 timeToNextInterval = MINT_INTERVAL - (currentTime % MINT_INTERVAL);\n\n        if (timeSinceLastMint >= MINT_INTERVAL && timeToNextInterval < MINT_INTERVAL) {\n            performMassMinting();\n            lastMintTime = currentTime - timeToNextInterval; // Align with the 5-minute interval\n        }\n    }\n    // function submitPlayerList(ServerPlayers[] memory serverPlayerLists, address validatorID, bool canMintFlag) public {\n    //     require(isValidator(validatorID), \"Caller is not a registered validator\");\n\n    //     uint256 totalPlayerCount = 0;\n\n    //     for (uint i = 0; i < serverPlayerLists.length; i++) {\n    //         uint256 serverPlayerCount = serverPlayerLists[i].playerNames.length;\n    //         if (totalPlayerCount + serverPlayerCount > MAX_PLAYERS_PER_SUBMISSION) {\n    //             break; // Stop if the max players per submission is exceeded\n    //         }\n\n    //         totalPlayerCount += serverPlayerCount;\n\n    //         // Create a hash for the player list\n    //         bytes32 playerListHash = keccak256(abi.encodePacked(serverPlayerLists[i].playerNames));\n    //         hashToPlayerList[playerListHash] = serverPlayerLists[i].playerNames;\n\n    //         // Overwrite the existing submission for this server IP and validator\n    //         serverSubmissions[serverPlayerLists[i].serverIP][validatorID] = ServerSubmission({\n    //             playerListHash: playerListHash,\n    //             canMint: canMintFlag\n    //         });\n    //     }\n    // }\n\n    function isValidator(address _address) public view returns (bool) {\n        //PlayerDatabase playerDatabase = PlayerDatabase(playerDatabaseAddress);\n        return playerDatabase.isValidator(_address);\n    }\n\n    function resetSubmissions() private {\n        string[] memory serverIPs = playerDatabase.getServerIPList();\n        for (uint i = 0; i < serverIPs.length; i++) {\n            string memory serverIP = serverIPs[i];\n            address[] memory validators = validatorsPerServerIP[serverIP];\n            for (uint j = 0; j < validators.length; j++) {\n                serverSubmissions[serverIP][validators[j]].canMint = false;\n            }\n        }\n    }\n\n    // Function to perform mass minting\n    function performMassMinting() public {\n        string[] memory serverIPs = playerDatabase.getServerIPList();\n        for (uint i = 0; i < serverIPs.length; i++) {\n            string memory serverIP = serverIPs[i];\n            bytes32 commonHash = findMostCommonHash(serverIP);\n            if (commonHash != bytes32(0)) {\n                mintForServer(commonHash);\n            }\n        }\n        resetSubmissions();\n    }\n    function mintForServer(bytes32 playerListHash) private {\n        // Retrieve the player list for the given hash\n        string[] memory playerList = hashToPlayerList[playerListHash];\n        address[] memory rewardAddresses = getValidRewardAddressesByNames(playerList);\n\n        uint256 mintAmount = calculateMintAmount(); // Define logic for mint amount\n\n        // Mint tokens for each player\n        for (uint i = 0; i < rewardAddresses.length; i++) {\n            if (rewardAddresses[i] != address(0)) { // Check for valid address\n                mintContract.mintTokens(rewardAddresses[i], mintAmount);\n            }\n        }\n    }\n    function findMostCommonHash(string memory serverIP) private view returns (bytes32) {\n        // Assume validatorsPerServerIP is a mapping that tracks validators per server IP\n        address[] memory validators = validatorsPerServerIP[serverIP];\n        uint256 majorityThreshold = (validators.length * 60) / 100; // 60% of total validators\n\n        bytes32 majorityHash = bytes32(0);\n        uint256 highestCount = 0;\n\n        // Use a structure to keep track of each hash count\n\n\n        HashCount[] memory hashCounts = new HashCount[](validators.length);\n\n        // Count occurrences of each hash\n        for (uint i = 0; i < validators.length; i++) {\n            bytes32 currentHash = serverSubmissions[serverIP][validators[i]].playerListHash;\n            bool found = false;\n\n            for (uint j = 0; j < hashCounts.length; j++) {\n                if (hashCounts[j].hash == currentHash) {\n                    hashCounts[j].count++;\n                    found = true;\n                    break;\n                }\n            }\n\n            if (!found) {\n                hashCounts[i] = HashCount({hash: currentHash, count: 1});\n            }\n\n            // Update majority hash if necessary\n            if (hashCounts[i].count > highestCount) {\n                highestCount = hashCounts[i].count;\n                majorityHash = hashCounts[i].hash;\n            }\n        }\n\n        // Check if the highest count meets the majority threshold\n        if (highestCount >= majorityThreshold) {\n            return majorityHash;\n        }\n\n        return bytes32(0); // No majority found\n    }\n\n    // Helper function to check if a hash is present in the tempUniqueHashes array\n\n\n    function getValidRewardAddressesByNames(string[] memory playerNames) public view returns (address[] memory) {\n        return playerDatabase.getValidRewardAddressesByNames(playerNames, lastMintTime);\n    }\n\n\n\n    // Additional functions...\n}\n",
  "sourcePath": "contracts/4_GP_Validator_0-10.sol",
  "type": "contract"
}