{
  "abi": [
    {
      "inputs": [],
      "stateMutability": "nonpayable",
      "type": "constructor"
    },
    {
      "inputs": [
        {
          "internalType": "uint256",
          "name": "data",
          "type": "uint256"
        }
      ],
      "name": "addData",
      "outputs": [],
      "stateMutability": "nonpayable",
      "type": "function"
    },
    {
      "inputs": [],
      "name": "clearData",
      "outputs": [],
      "stateMutability": "nonpayable",
      "type": "function"
    },
    {
      "inputs": [],
      "name": "computeExpensiveOperation",
      "outputs": [],
      "stateMutability": "nonpayable",
      "type": "function"
    }
  ],
  "bytecode": "608060405234801561001057600080fd5b5060005b61271081101561006257600080546001810182559080527f290decd9548b62a8d60345a988386fc84ba6bc95484008f6362f93160ef3e563018190558061005a81610068565b915050610014565b5061008f565b60006001820161008857634e487b7160e01b600052601160045260246000fd5b5060010190565b61022a8061009e6000396000f3fe608060405234801561001057600080fd5b50600436106100415760003560e01c80635015421e14610046578063b9e7a43914610050578063e5d824a714610058575b600080fd5b61004e610098565b005b61004e6100fd565b61004e610066366004610144565b600080546001810182559080527f290decd9548b62a8d60345a988386fc84ba6bc95484008f6362f93160ef3e5630155565b6000805b6000548110156100f957600281600083815481106100bc576100bc61015d565b90600052602060002001546100d19190610189565b6100db91906101a6565b6100e590836101c8565b9150806100f1816101db565b91505061009c565b5050565b61010860008061010a565b565b5080546000825590600052602060002090810190610128919061012b565b50565b5b80821115610140576000815560010161012c565b5090565b60006020828403121561015657600080fd5b5035919050565b634e487b7160e01b600052603260045260246000fd5b634e487b7160e01b600052601160045260246000fd5b80820281158282048414176101a0576101a0610173565b92915050565b6000826101c357634e487b7160e01b600052601260045260246000fd5b500490565b808201808211156101a0576101a0610173565b6000600182016101ed576101ed610173565b506001019056fea2646970667358221220783b9ec320ac1f42f84d75b0d95cb97337912a902fc9ad12f555bccd5538f71764736f6c63430008150033",
  "bytecodeSha1": "e23fc3ef453519854e28ece118b47f39c6a2e8fe",
  "compiler": {
    "evm_version": "istanbul",
    "optimizer": {
      "enabled": true,
      "runs": 200
    },
    "version": "0.8.21+commit.d9974bed"
  },
  "contractName": "GasHeavyContract",
  "language": "Solidity",
  "natspec": {
    "kind": "dev",
    "methods": {},
    "version": 1
  },
  "opcodes": "PUSH1 0x80 PUSH1 0x40 MSTORE CALLVALUE DUP1 ISZERO PUSH2 0x10 JUMPI PUSH1 0x0 DUP1 REVERT JUMPDEST POP PUSH1 0x4 CALLDATASIZE LT PUSH2 0x41 JUMPI PUSH1 0x0 CALLDATALOAD PUSH1 0xE0 SHR DUP1 PUSH4 0x5015421E EQ PUSH2 0x46 JUMPI DUP1 PUSH4 0xB9E7A439 EQ PUSH2 0x50 JUMPI DUP1 PUSH4 0xE5D824A7 EQ PUSH2 0x58 JUMPI JUMPDEST PUSH1 0x0 DUP1 REVERT JUMPDEST PUSH2 0x4E PUSH2 0x98 JUMP JUMPDEST STOP JUMPDEST PUSH2 0x4E PUSH2 0xFD JUMP JUMPDEST PUSH2 0x4E PUSH2 0x66 CALLDATASIZE PUSH1 0x4 PUSH2 0x144 JUMP JUMPDEST PUSH1 0x0 DUP1 SLOAD PUSH1 0x1 DUP2 ADD DUP3 SSTORE SWAP1 DUP1 MSTORE PUSH32 0x290DECD9548B62A8D60345A988386FC84BA6BC95484008F6362F93160EF3E563 ADD SSTORE JUMP JUMPDEST PUSH1 0x0 DUP1 JUMPDEST PUSH1 0x0 SLOAD DUP2 LT ISZERO PUSH2 0xF9 JUMPI PUSH1 0x2 DUP2 PUSH1 0x0 DUP4 DUP2 SLOAD DUP2 LT PUSH2 0xBC JUMPI PUSH2 0xBC PUSH2 0x15D JUMP JUMPDEST SWAP1 PUSH1 0x0 MSTORE PUSH1 0x20 PUSH1 0x0 KECCAK256 ADD SLOAD PUSH2 0xD1 SWAP2 SWAP1 PUSH2 0x189 JUMP JUMPDEST PUSH2 0xDB SWAP2 SWAP1 PUSH2 0x1A6 JUMP JUMPDEST PUSH2 0xE5 SWAP1 DUP4 PUSH2 0x1C8 JUMP JUMPDEST SWAP2 POP DUP1 PUSH2 0xF1 DUP2 PUSH2 0x1DB JUMP JUMPDEST SWAP2 POP POP PUSH2 0x9C JUMP JUMPDEST POP POP JUMP JUMPDEST PUSH2 0x108 PUSH1 0x0 DUP1 PUSH2 0x10A JUMP JUMPDEST JUMP JUMPDEST POP DUP1 SLOAD PUSH1 0x0 DUP3 SSTORE SWAP1 PUSH1 0x0 MSTORE PUSH1 0x20 PUSH1 0x0 KECCAK256 SWAP1 DUP2 ADD SWAP1 PUSH2 0x128 SWAP2 SWAP1 PUSH2 0x12B JUMP JUMPDEST POP JUMP JUMPDEST JUMPDEST DUP1 DUP3 GT ISZERO PUSH2 0x140 JUMPI PUSH1 0x0 DUP2 SSTORE PUSH1 0x1 ADD PUSH2 0x12C JUMP JUMPDEST POP SWAP1 JUMP JUMPDEST PUSH1 0x0 PUSH1 0x20 DUP3 DUP5 SUB SLT ISZERO PUSH2 0x156 JUMPI PUSH1 0x0 DUP1 REVERT JUMPDEST POP CALLDATALOAD SWAP2 SWAP1 POP JUMP JUMPDEST PUSH4 0x4E487B71 PUSH1 0xE0 SHL PUSH1 0x0 MSTORE PUSH1 0x32 PUSH1 0x4 MSTORE PUSH1 0x24 PUSH1 0x0 REVERT JUMPDEST PUSH4 0x4E487B71 PUSH1 0xE0 SHL PUSH1 0x0 MSTORE PUSH1 0x11 PUSH1 0x4 MSTORE PUSH1 0x24 PUSH1 0x0 REVERT JUMPDEST DUP1 DUP3 MUL DUP2 ISZERO DUP3 DUP3 DIV DUP5 EQ OR PUSH2 0x1A0 JUMPI PUSH2 0x1A0 PUSH2 0x173 JUMP JUMPDEST SWAP3 SWAP2 POP POP JUMP JUMPDEST PUSH1 0x0 DUP3 PUSH2 0x1C3 JUMPI PUSH4 0x4E487B71 PUSH1 0xE0 SHL PUSH1 0x0 MSTORE PUSH1 0x12 PUSH1 0x4 MSTORE PUSH1 0x24 PUSH1 0x0 REVERT JUMPDEST POP DIV SWAP1 JUMP JUMPDEST DUP1 DUP3 ADD DUP1 DUP3 GT ISZERO PUSH2 0x1A0 JUMPI PUSH2 0x1A0 PUSH2 0x173 JUMP JUMPDEST PUSH1 0x0 PUSH1 0x1 DUP3 ADD PUSH2 0x1ED JUMPI PUSH2 0x1ED PUSH2 0x173 JUMP JUMPDEST POP PUSH1 0x1 ADD SWAP1 JUMP INVALID LOG2 PUSH5 0x6970667358 0x22 SLT KECCAK256 PUSH25 0x3B9EC320AC1F42F84D75B0D95CB97337912A902FC9AD12F555 0xBC 0xCD SSTORE CODESIZE 0xF7 OR PUSH5 0x736F6C6343 STOP ADDMOD ISZERO STOP CALLER ",
  "sha1": "c09ff66aa37fb0aebfb6cb00406cf6e99ce770d9",
  "source": "// SPDX-License-Identifier: MIT\npragma solidity ^0.8.0;\n\ncontract GasHeavyContract {\n\n    uint256[] private largeArray;\n\n    constructor() {\n        // Populate the array with a large number of elements\n        for (uint i = 0; i < 10000; i++) {\n            largeArray.push(i);\n        }\n    }\n\n    function computeExpensiveOperation() public {\n        uint256 sum = 0;\n        for (uint i = 0; i < largeArray.length; i++) {\n            // Perform some arbitrary expensive computation\n            sum += (largeArray[i] * i) / 2;\n        }\n    }\n\n    function addData(uint256 data) public {\n        largeArray.push(data);\n    }\n\n    function clearData() public {\n        delete largeArray;\n    }\n}\n",
  "sourcePath": "contracts/Gas_Heavy_Contract.sol",
  "type": "contract"
}