{
  "abi": [
    {
      "inputs": [
        {
          "internalType": "string",
          "name": "name_",
          "type": "string"
        },
        {
          "internalType": "string",
          "name": "symbol_",
          "type": "string"
        }
      ],
      "stateMutability": "nonpayable",
      "type": "constructor"
    },
    {
      "anonymous": false,
      "inputs": [
        {
          "indexed": true,
          "internalType": "address",
          "name": "owner",
          "type": "address"
        },
        {
          "indexed": true,
          "internalType": "address",
          "name": "spender",
          "type": "address"
        },
        {
          "indexed": false,
          "internalType": "uint256",
          "name": "value",
          "type": "uint256"
        }
      ],
      "name": "Approval",
      "type": "event"
    },
    {
      "anonymous": false,
      "inputs": [
        {
          "indexed": true,
          "internalType": "address",
          "name": "minter",
          "type": "address"
        }
      ],
      "name": "AuthorizedMinterRemoved",
      "type": "event"
    },
    {
      "anonymous": false,
      "inputs": [
        {
          "indexed": true,
          "internalType": "address",
          "name": "minter",
          "type": "address"
        }
      ],
      "name": "AuthorizedMinterSet",
      "type": "event"
    },
    {
      "anonymous": false,
      "inputs": [
        {
          "indexed": false,
          "internalType": "enum LamportBase.KeyType",
          "name": "keyType",
          "type": "uint8"
        },
        {
          "indexed": false,
          "internalType": "bytes32",
          "name": "newPKH",
          "type": "bytes32"
        }
      ],
      "name": "KeyAdded",
      "type": "event"
    },
    {
      "anonymous": false,
      "inputs": [
        {
          "indexed": false,
          "internalType": "enum LamportBase.KeyType",
          "name": "originalKeyType",
          "type": "uint8"
        },
        {
          "indexed": false,
          "internalType": "bytes32",
          "name": "originalPKH",
          "type": "bytes32"
        },
        {
          "indexed": false,
          "internalType": "bytes32",
          "name": "modifiedPKH",
          "type": "bytes32"
        },
        {
          "indexed": false,
          "internalType": "enum LamportBase.KeyType",
          "name": "newKeyType",
          "type": "uint8"
        }
      ],
      "name": "KeyModified",
      "type": "event"
    },
    {
      "anonymous": false,
      "inputs": [
        {
          "indexed": false,
          "internalType": "uint256",
          "name": "hash",
          "type": "uint256"
        }
      ],
      "name": "LogLastCalculatedHash",
      "type": "event"
    },
    {
      "anonymous": false,
      "inputs": [
        {
          "indexed": true,
          "internalType": "address",
          "name": "minter",
          "type": "address"
        },
        {
          "indexed": true,
          "internalType": "address",
          "name": "account",
          "type": "address"
        },
        {
          "indexed": false,
          "internalType": "uint256",
          "name": "amount",
          "type": "uint256"
        }
      ],
      "name": "Minted",
      "type": "event"
    },
    {
      "anonymous": false,
      "inputs": [
        {
          "indexed": false,
          "internalType": "enum LamportBase.KeyType",
          "name": "keyType",
          "type": "uint8"
        },
        {
          "indexed": false,
          "internalType": "bytes32",
          "name": "previousPKH",
          "type": "bytes32"
        },
        {
          "indexed": false,
          "internalType": "bytes32",
          "name": "newPKH",
          "type": "bytes32"
        }
      ],
      "name": "PkhUpdated",
      "type": "event"
    },
    {
      "anonymous": false,
      "inputs": [
        {
          "indexed": true,
          "internalType": "address",
          "name": "from",
          "type": "address"
        },
        {
          "indexed": true,
          "internalType": "address",
          "name": "to",
          "type": "address"
        },
        {
          "indexed": false,
          "internalType": "uint256",
          "name": "value",
          "type": "uint256"
        }
      ],
      "name": "Transfer",
      "type": "event"
    },
    {
      "anonymous": false,
      "inputs": [
        {
          "indexed": false,
          "internalType": "uint256",
          "name": "hashedData",
          "type": "uint256"
        }
      ],
      "name": "VerificationFailed",
      "type": "event"
    },
    {
      "inputs": [
        {
          "internalType": "address",
          "name": "owner",
          "type": "address"
        },
        {
          "internalType": "address",
          "name": "spender",
          "type": "address"
        }
      ],
      "name": "allowance",
      "outputs": [
        {
          "internalType": "uint256",
          "name": "",
          "type": "uint256"
        }
      ],
      "stateMutability": "view",
      "type": "function"
    },
    {
      "inputs": [
        {
          "internalType": "address",
          "name": "spender",
          "type": "address"
        },
        {
          "internalType": "uint256",
          "name": "value",
          "type": "uint256"
        }
      ],
      "name": "approve",
      "outputs": [
        {
          "internalType": "bool",
          "name": "",
          "type": "bool"
        }
      ],
      "stateMutability": "nonpayable",
      "type": "function"
    },
    {
      "inputs": [
        {
          "internalType": "address",
          "name": "account",
          "type": "address"
        }
      ],
      "name": "balanceOf",
      "outputs": [
        {
          "internalType": "uint256",
          "name": "",
          "type": "uint256"
        }
      ],
      "stateMutability": "view",
      "type": "function"
    },
    {
      "inputs": [
        {
          "internalType": "bytes32[2][256]",
          "name": "currentpub",
          "type": "bytes32[2][256]"
        },
        {
          "internalType": "bytes[256]",
          "name": "sig",
          "type": "bytes[256]"
        },
        {
          "internalType": "bytes32",
          "name": "nextPKH",
          "type": "bytes32"
        },
        {
          "internalType": "bytes",
          "name": "newmasterPKH",
          "type": "bytes"
        }
      ],
      "name": "createMasterKeyStepOne",
      "outputs": [],
      "stateMutability": "nonpayable",
      "type": "function"
    },
    {
      "inputs": [
        {
          "internalType": "bytes32[2][256]",
          "name": "currentpub",
          "type": "bytes32[2][256]"
        },
        {
          "internalType": "bytes[256]",
          "name": "sig",
          "type": "bytes[256]"
        },
        {
          "internalType": "bytes32",
          "name": "nextPKH",
          "type": "bytes32"
        },
        {
          "internalType": "bytes32",
          "name": "newmasterPKH",
          "type": "bytes32"
        }
      ],
      "name": "createMasterKeyStepTwo",
      "outputs": [],
      "stateMutability": "nonpayable",
      "type": "function"
    },
    {
      "inputs": [
        {
          "internalType": "bytes32[2][256]",
          "name": "currentpub",
          "type": "bytes32[2][256]"
        },
        {
          "internalType": "bytes32",
          "name": "nextPKH",
          "type": "bytes32"
        },
        {
          "internalType": "bytes[256]",
          "name": "sig",
          "type": "bytes[256]"
        },
        {
          "internalType": "bytes32",
          "name": "neworaclePKH",
          "type": "bytes32"
        }
      ],
      "name": "createOracleKeyFromMaster",
      "outputs": [],
      "stateMutability": "nonpayable",
      "type": "function"
    },
    {
      "inputs": [],
      "name": "decimals",
      "outputs": [
        {
          "internalType": "uint8",
          "name": "",
          "type": "uint8"
        }
      ],
      "stateMutability": "pure",
      "type": "function"
    },
    {
      "inputs": [
        {
          "internalType": "bytes32[2][256]",
          "name": "currentpub",
          "type": "bytes32[2][256]"
        },
        {
          "internalType": "bytes[256]",
          "name": "sig",
          "type": "bytes[256]"
        },
        {
          "internalType": "bytes32",
          "name": "nextPKH",
          "type": "bytes32"
        },
        {
          "internalType": "bytes32",
          "name": "deleteKeyHash",
          "type": "bytes32"
        }
      ],
      "name": "deleteKeyStepOne",
      "outputs": [],
      "stateMutability": "nonpayable",
      "type": "function"
    },
    {
      "inputs": [
        {
          "internalType": "bytes32[2][256]",
          "name": "currentpub",
          "type": "bytes32[2][256]"
        },
        {
          "internalType": "bytes[256]",
          "name": "sig",
          "type": "bytes[256]"
        },
        {
          "internalType": "bytes32",
          "name": "nextPKH",
          "type": "bytes32"
        },
        {
          "internalType": "bytes32",
          "name": "confirmDeleteKeyHash",
          "type": "bytes32"
        }
      ],
      "name": "deleteKeyStepTwo",
      "outputs": [],
      "stateMutability": "nonpayable",
      "type": "function"
    },
    {
      "inputs": [
        {
          "internalType": "bytes32",
          "name": "pkh",
          "type": "bytes32"
        }
      ],
      "name": "getKeyAndPosByPKH",
      "outputs": [
        {
          "internalType": "enum LamportBase.KeyType",
          "name": "",
          "type": "uint8"
        },
        {
          "internalType": "bytes32",
          "name": "",
          "type": "bytes32"
        },
        {
          "internalType": "uint256",
          "name": "",
          "type": "uint256"
        }
      ],
      "stateMutability": "view",
      "type": "function"
    },
    {
      "inputs": [
        {
          "internalType": "enum LamportBase.KeyType",
          "name": "privilege",
          "type": "uint8"
        }
      ],
      "name": "getPKHsByPrivilege",
      "outputs": [
        {
          "internalType": "bytes32[]",
          "name": "",
          "type": "bytes32[]"
        }
      ],
      "stateMutability": "view",
      "type": "function"
    },
    {
      "inputs": [
        {
          "internalType": "bytes32",
          "name": "masterPKH1",
          "type": "bytes32"
        },
        {
          "internalType": "bytes32",
          "name": "masterPKH2",
          "type": "bytes32"
        },
        {
          "internalType": "bytes32",
          "name": "oraclePKH",
          "type": "bytes32"
        }
      ],
      "name": "init",
      "outputs": [],
      "stateMutability": "nonpayable",
      "type": "function"
    },
    {
      "inputs": [
        {
          "internalType": "bytes32",
          "name": "",
          "type": "bytes32"
        }
      ],
      "name": "keyData",
      "outputs": [
        {
          "internalType": "enum LamportBase.KeyType",
          "name": "keyType",
          "type": "uint8"
        },
        {
          "internalType": "bytes32",
          "name": "pkh",
          "type": "bytes32"
        }
      ],
      "stateMutability": "view",
      "type": "function"
    },
    {
      "inputs": [
        {
          "internalType": "uint256",
          "name": "",
          "type": "uint256"
        }
      ],
      "name": "keys",
      "outputs": [
        {
          "internalType": "enum LamportBase.KeyType",
          "name": "keyType",
          "type": "uint8"
        },
        {
          "internalType": "bytes32",
          "name": "pkh",
          "type": "bytes32"
        }
      ],
      "stateMutability": "view",
      "type": "function"
    },
    {
      "inputs": [],
      "name": "lastUsedNextPKH",
      "outputs": [
        {
          "internalType": "bytes32",
          "name": "",
          "type": "bytes32"
        }
      ],
      "stateMutability": "view",
      "type": "function"
    },
    {
      "inputs": [],
      "name": "lastVerificationResult",
      "outputs": [
        {
          "internalType": "bool",
          "name": "",
          "type": "bool"
        }
      ],
      "stateMutability": "view",
      "type": "function"
    },
    {
      "inputs": [
        {
          "internalType": "address",
          "name": "account",
          "type": "address"
        },
        {
          "internalType": "uint256",
          "name": "amount",
          "type": "uint256"
        }
      ],
      "name": "mintTokens",
      "outputs": [],
      "stateMutability": "nonpayable",
      "type": "function"
    },
    {
      "inputs": [],
      "name": "name",
      "outputs": [
        {
          "internalType": "string",
          "name": "",
          "type": "string"
        }
      ],
      "stateMutability": "view",
      "type": "function"
    },
    {
      "inputs": [
        {
          "internalType": "bytes32[2][256]",
          "name": "currentpub",
          "type": "bytes32[2][256]"
        },
        {
          "internalType": "bytes[256]",
          "name": "sig",
          "type": "bytes[256]"
        },
        {
          "internalType": "bytes32",
          "name": "nextPKH",
          "type": "bytes32"
        },
        {
          "internalType": "bytes",
          "name": "prepacked",
          "type": "bytes"
        }
      ],
      "name": "performLamportMasterCheck",
      "outputs": [
        {
          "internalType": "bool",
          "name": "",
          "type": "bool"
        }
      ],
      "stateMutability": "nonpayable",
      "type": "function"
    },
    {
      "inputs": [
        {
          "internalType": "bytes32[2][256]",
          "name": "currentpub",
          "type": "bytes32[2][256]"
        },
        {
          "internalType": "bytes[256]",
          "name": "sig",
          "type": "bytes[256]"
        },
        {
          "internalType": "bytes32",
          "name": "nextPKH",
          "type": "bytes32"
        },
        {
          "internalType": "bytes",
          "name": "prepacked",
          "type": "bytes"
        }
      ],
      "name": "performLamportOracleCheck",
      "outputs": [
        {
          "internalType": "bool",
          "name": "",
          "type": "bool"
        }
      ],
      "stateMutability": "nonpayable",
      "type": "function"
    },
    {
      "inputs": [
        {
          "internalType": "bytes32[2][256]",
          "name": "currentpub",
          "type": "bytes32[2][256]"
        },
        {
          "internalType": "bytes[256]",
          "name": "sig",
          "type": "bytes[256]"
        },
        {
          "internalType": "bytes32",
          "name": "nextPKH",
          "type": "bytes32"
        }
      ],
      "name": "removeAuthorizedMinterStepOne",
      "outputs": [],
      "stateMutability": "nonpayable",
      "type": "function"
    },
    {
      "inputs": [
        {
          "internalType": "bytes32[2][256]",
          "name": "currentpub",
          "type": "bytes32[2][256]"
        },
        {
          "internalType": "bytes[256]",
          "name": "sig",
          "type": "bytes[256]"
        },
        {
          "internalType": "bytes32",
          "name": "nextPKH",
          "type": "bytes32"
        }
      ],
      "name": "removeAuthorizedMinterStepTwo",
      "outputs": [],
      "stateMutability": "nonpayable",
      "type": "function"
    },
    {
      "inputs": [
        {
          "internalType": "bytes32[2][256]",
          "name": "currentpub",
          "type": "bytes32[2][256]"
        },
        {
          "internalType": "bytes[256]",
          "name": "sig",
          "type": "bytes[256]"
        },
        {
          "internalType": "bytes32",
          "name": "nextPKH",
          "type": "bytes32"
        },
        {
          "internalType": "address",
          "name": "minter",
          "type": "address"
        }
      ],
      "name": "setAuthorizedMinterStepOne",
      "outputs": [],
      "stateMutability": "nonpayable",
      "type": "function"
    },
    {
      "inputs": [
        {
          "internalType": "bytes32[2][256]",
          "name": "currentpub",
          "type": "bytes32[2][256]"
        },
        {
          "internalType": "bytes[256]",
          "name": "sig",
          "type": "bytes[256]"
        },
        {
          "internalType": "bytes32",
          "name": "nextPKH",
          "type": "bytes32"
        },
        {
          "internalType": "address",
          "name": "minter",
          "type": "address"
        }
      ],
      "name": "setAuthorizedMinterStepTwo",
      "outputs": [],
      "stateMutability": "nonpayable",
      "type": "function"
    },
    {
      "inputs": [],
      "name": "symbol",
      "outputs": [
        {
          "internalType": "string",
          "name": "",
          "type": "string"
        }
      ],
      "stateMutability": "view",
      "type": "function"
    },
    {
      "inputs": [],
      "name": "totalSupply",
      "outputs": [
        {
          "internalType": "uint256",
          "name": "",
          "type": "uint256"
        }
      ],
      "stateMutability": "view",
      "type": "function"
    },
    {
      "inputs": [
        {
          "internalType": "address",
          "name": "to",
          "type": "address"
        },
        {
          "internalType": "uint256",
          "name": "value",
          "type": "uint256"
        }
      ],
      "name": "transfer",
      "outputs": [
        {
          "internalType": "bool",
          "name": "",
          "type": "bool"
        }
      ],
      "stateMutability": "nonpayable",
      "type": "function"
    },
    {
      "inputs": [
        {
          "internalType": "address",
          "name": "from",
          "type": "address"
        },
        {
          "internalType": "address",
          "name": "to",
          "type": "address"
        },
        {
          "internalType": "uint256",
          "name": "value",
          "type": "uint256"
        }
      ],
      "name": "transferFrom",
      "outputs": [
        {
          "internalType": "bool",
          "name": "",
          "type": "bool"
        }
      ],
      "stateMutability": "nonpayable",
      "type": "function"
    },
    {
      "inputs": [
        {
          "internalType": "uint256",
          "name": "bits",
          "type": "uint256"
        },
        {
          "internalType": "bytes[256]",
          "name": "sig",
          "type": "bytes[256]"
        },
        {
          "internalType": "bytes32[2][256]",
          "name": "pub",
          "type": "bytes32[2][256]"
        }
      ],
      "name": "verify_u256",
      "outputs": [
        {
          "internalType": "bool",
          "name": "",
          "type": "bool"
        }
      ],
      "stateMutability": "pure",
      "type": "function"
    }
  ],
  "bytecode": "60806040526000805460ff191690553480156200001b57600080fd5b506040516200362b3803806200362b8339810160408190526200003e916200023c565b60096200004c838262000335565b50600a6200005b828262000335565b5062000084336200006f6012600a62000516565b6200007e90620138806200052b565b6200008c565b50506200055b565b600b546001600160a01b03163314620000eb5760405162461bcd60e51b815260206004820152601c60248201527f47505f4d696e743a20556e617574686f72697a6564206d696e74657200000000604482015260640160405180910390fd5b8060086000828254620000ff919062000545565b90915550506001600160a01b038216600090815260066020526040812080548392906200012e90849062000545565b90915550506040518181526001600160a01b0383169033907f9d228d69b5fdb8d273a2336f8fb8612d039631024ea9bf09c424a9503aa078f09060200160405180910390a35050565b634e487b7160e01b600052604160045260246000fd5b600082601f8301126200019f57600080fd5b81516001600160401b0380821115620001bc57620001bc62000177565b604051601f8301601f19908116603f01168101908282118183101715620001e757620001e762000177565b816040528381526020925086838588010111156200020457600080fd5b600091505b8382101562000228578582018301518183018401529082019062000209565b600093810190920192909252949350505050565b600080604083850312156200025057600080fd5b82516001600160401b03808211156200026857600080fd5b62000276868387016200018d565b935060208501519150808211156200028d57600080fd5b506200029c858286016200018d565b9150509250929050565b600181811c90821680620002bb57607f821691505b602082108103620002dc57634e487b7160e01b600052602260045260246000fd5b50919050565b601f8211156200033057600081815260208120601f850160051c810160208610156200030b5750805b601f850160051c820191505b818110156200032c5782815560010162000317565b5050505b505050565b81516001600160401b0381111562000351576200035162000177565b6200036981620003628454620002a6565b84620002e2565b602080601f831160018114620003a15760008415620003885750858301515b600019600386901b1c1916600185901b1785556200032c565b600085815260208120601f198616915b82811015620003d257888601518255948401946001909101908401620003b1565b5085821015620003f15787850151600019600388901b60f8161c191681555b5050505050600190811b01905550565b634e487b7160e01b600052601160045260246000fd5b600181815b80851115620004585781600019048211156200043c576200043c62000401565b808516156200044a57918102915b93841c93908002906200041c565b509250929050565b600082620004715750600162000510565b81620004805750600062000510565b8160018114620004995760028114620004a457620004c4565b600191505062000510565b60ff841115620004b857620004b862000401565b50506001821b62000510565b5060208310610133831016604e8410600b8410161715620004e9575081810a62000510565b620004f5838362000417565b80600019048211156200050c576200050c62000401565b0290505b92915050565b600062000524838362000460565b9392505050565b808202811582820484141762000510576200051062000401565b8082018082111562000510576200051062000401565b6130c0806200056b6000396000f3fe608060405234801561001057600080fd5b50600436106101cf5760003560e01c80635796841a11610104578063af82f3e7116100a2578063e5f855b711610071578063e5f855b714610431578063e673d71f14610444578063e951ae2314610457578063f0dda65c1461046a57600080fd5b8063af82f3e7146103b2578063b97b4f77146103c5578063d83c413c146103e5578063dd62ed3e146103f857600080fd5b80638eb8f1a6116100de5780638eb8f1a61461035757806395d89b411461036a578063a9059cbb14610372578063a9711ee31461038557600080fd5b80635796841a1461030857806370a082311461031b5780638486e2ff1461034457600080fd5b80632a66312011610171578063333f61111161014b578063333f6111146102c65780634a89d52b146102d95780634bdd4499146102ec5780634e657d2a146102f557600080fd5b80632a663120146102925780632fd5c247146102a5578063313ce567146102b757600080fd5b80630b0ad508116101ad5780630b0ad508146102375780630cb6aaf11461024c57806318160ddd1461026d57806323b872dd1461027f57600080fd5b806305aacc7d146101d457806306fdde03146101ff578063095ea7b314610214575b600080fd5b6101e76101e23660046127f9565b61047d565b6040516101f69392919061284a565b60405180910390f35b610207610584565b6040516101f6919061288d565b6102276102223660046128dc565b610616565b60405190151581526020016101f6565b61024a610245366004612906565b6106df565b005b61025f61025a3660046127f9565b610765565b6040516101f6929190612932565b6008545b6040519081526020016101f6565b61022761028d36600461294d565b610797565b61024a6102a03660046129ad565b610967565b60005461022790610100900460ff1681565b604051601281526020016101f6565b6102276102d4366004612a30565b610b7c565b6102276102e7366004612a30565b610c6d565b61027160055481565b61024a610303366004612a30565b610cc4565b61024a610316366004612b25565b610e49565b610271610329366004612b88565b6001600160a01b031660009081526006602052604090205490565b61024a610352366004612ba3565b6110a8565b61024a610365366004612bfe565b611368565b610207611511565b6102276103803660046128dc565b611520565b61025f6103933660046127f9565b6002602052600090815260409020805460019091015460ff9091169082565b6102276103c0366004612c62565b611605565b6103d86103d3366004612cbb565b6116b8565b6040516101f69190612cdc565b61024a6103f3366004612b25565b611868565b610271610406366004612d20565b6001600160a01b03918216600090815260076020908152604080832093909416825291909152205490565b61024a61043f366004612ba3565b611a10565b61024a610452366004612b25565b611bd8565b61024a6104653660046129ad565b61210d565b61024a6104783660046128dc565b6123f4565b60008181526002602081905260408083208151808301909252805484938493849390929091839160ff16908111156104b7576104b7612812565b60028111156104c8576104c8612812565b8152600191909101546020918201528101519091506000036105055760405162461bcd60e51b81526004016104fc90612d53565b60405180910390fd5b60005b60015481101561056457856001828154811061052657610526612d8a565b90600052602060002090600202016001015403610552578151602090920151919450909250905061057d565b8061055c81612db6565b915050610508565b5060405162461bcd60e51b81526004016104fc90612d53565b9193909250565b60606009805461059390612dcf565b80601f01602080910402602001604051908101604052809291908181526020018280546105bf90612dcf565b801561060c5780601f106105e15761010080835404028352916020019161060c565b820191906000526020600020905b8154815290600101906020018083116105ef57829003601f168201915b5050505050905090565b60006001600160a01b0383166106795760405162461bcd60e51b815260206004820152602260248201527f45524332303a20617070726f766520746f20746865207a65726f206164647265604482015261737360f01b60648201526084016104fc565b3360008181526007602090815260408083206001600160a01b03881680855290835292819020869055518581529192917f8c5be1e5ebec7d5bd14f71427d1e84f3dd0314c0f7b2291e5b200ac8c7c3b92591015b60405180910390a35060015b92915050565b60005460ff16156107325760405162461bcd60e51b815260206004820181905260248201527f4c616d706f7274426173653a20416c726561647920696e697469616c697a656460448201526064016104fc565b61073d60008461245c565b61074860008361245c565b61075360018261245c565b50506000805460ff1916600117905550565b6001818154811061077557600080fd5b60009182526020909120600290910201805460019091015460ff909116915082565b60006001600160a01b0383166107bf5760405162461bcd60e51b81526004016104fc90612e09565b6001600160a01b0384166000908152600660205260409020548211156107f75760405162461bcd60e51b81526004016104fc90612e4c565b6001600160a01b038416600090815260076020908152604080832033845290915290205482111561087b5760405162461bcd60e51b815260206004820152602860248201527f45524332303a207472616e7366657220616d6f756e74206578636565647320616044820152676c6c6f77616e636560c01b60648201526084016104fc565b6001600160a01b038416600090815260066020526040812080548492906108a3908490612e92565b90915550506001600160a01b038316600090815260066020526040812080548492906108d0908490612ea5565b90915550506001600160a01b038416600090815260076020908152604080832033845290915281208054849290610908908490612e92565b92505081905550826001600160a01b0316846001600160a01b03167fddf252ad1be2c89b69c2b068fc378daa952ba7f163c4a11628f55a4df523b3ef8460405161095491815260200190565b60405180910390a35060015b9392505050565b8383838360405160200161097b9190612eb8565b60408051601f1981840301815291905260005460ff166109ad5760405162461bcd60e51b81526004016104fc90612ed5565b6000846040516020016109c09190612f0c565b60408051601f19818403018152919052805160209091012090506000808281526002602081905260409091205460ff1690811115610a0057610a00612812565b14610a1d5760405162461bcd60e51b81526004016104fc90612f43565b60008284604051602001610a32929190612f7a565b60408051601f19818403018152908290528051602091820120808352925060008051602061304b833981519152910160405180910390a16000610a76828789611605565b6000805461ff00191661010083151502179055905080610afa5760405182815260008051602061302b833981519152906020015b60405180910390a160405162461bcd60e51b815260206004820181905260248201527f4c616d706f7274426173653a20566572696669636174696f6e206661696c656460448201526064016104fc565b6000838152600260205260409081902054905160008051602061306b83398151915291610b309160ff909116908690899061284a565b60405180910390a1610b428386612575565b5050336000908152600c6020526040902080546001600160a01b0319166001600160a01b0397909716969096179095555050505050505050565b6000805460ff16610b9f5760405162461bcd60e51b81526004016104fc90612ed5565b600085604051602001610bb29190612f0c565b60408051601f198184030181529190528051602090910120905060005b60008281526002602081905260409091205460ff1690811115610bf457610bf4612812565b14610c03576000915050610c65565b60008385604051602001610c18929190612f7a565b6040516020818303038152906040528051906020012060001c90506000610c4082888a611605565b905080610c535760009350505050610c65565b610c5d8387612575565b600193505050505b949350505050565b6000805460ff16610c905760405162461bcd60e51b81526004016104fc90612ed5565b600085604051602001610ca39190612f0c565b60408051601f19818403018152919052805160209091012090506001610bcf565b600054849084908490849060ff16610cee5760405162461bcd60e51b81526004016104fc90612ed5565b600084604051602001610d019190612f0c565b60408051601f19818403018152919052805160209091012090506000808281526002602081905260409091205460ff1690811115610d4157610d41612812565b14610d5e5760405162461bcd60e51b81526004016104fc90612f43565b60008284604051602001610d73929190612f7a565b60408051601f19818403018152908290528051602091820120808352925060008051602061304b833981519152910160405180910390a16000610db7828789611605565b6000805461ff00191661010083151502179055905080610def5760405182815260008051602061302b83398151915290602001610aaa565b6000838152600260205260409081902054905160008051602061306b83398151915291610e259160ff909116908690899061284a565b60405180910390a1610e378386612575565b50505060059590955550505050505050565b83838383604051602001610e5f91815260200190565b60408051601f1981840301815291905260005460ff16610e915760405162461bcd60e51b81526004016104fc90612ed5565b600084604051602001610ea49190612f0c565b60408051601f19818403018152919052805160209091012090506000808281526002602081905260409091205460ff1690811115610ee457610ee4612812565b14610f015760405162461bcd60e51b81526004016104fc90612f43565b60008284604051602001610f16929190612f7a565b60408051601f19818403018152908290528051602091820120808352925060008051602061304b833981519152910160405180910390a16000610f5a828789611605565b6000805461ff00191661010083151502179055905080610f925760405182815260008051602061302b83398151915290602001610aaa565b6000838152600260205260409081902054905160008051602061306b83398151915291610fc89160ff909116908690899061284a565b60405180910390a1610fda8386612575565b60008b604051602001610fed9190612f0c565b60408051601f19818403018152919052805160209091012060058054600090915590915081141580611089576040805162461bcd60e51b81526020600482015260248101919091527f4c616d706f7274426173653a20504b48206d617463686573206c61737420757360448201527f656420504b482028757365207365706172617465207365636f6e64206b65792960648201526084016104fc565b61109460008b61245c565b505060006005555050505050505050505050565b82828260006040516020016110bd9190612eb8565b60408051601f1981840301815291905260005460ff166110ef5760405162461bcd60e51b81526004016104fc90612ed5565b6000846040516020016111029190612f0c565b60408051601f19818403018152919052805160209091012090506000808281526002602081905260409091205460ff169081111561114257611142612812565b1461115f5760405162461bcd60e51b81526004016104fc90612f43565b60008284604051602001611174929190612f7a565b60408051601f19818403018152908290528051602091820120808352925060008051602061304b833981519152910160405180910390a160006111b8828789611605565b6000805461ff001916610100831515021790559050806111f05760405182815260008051602061302b83398151915290602001610aaa565b6000838152600260205260409081902054905160008051602061306b833981519152916112269160ff909116908690899061284a565b60405180910390a16112388386612575565b336000908152600c60205260409020546001600160a01b0316156112aa5760405162461bcd60e51b815260206004820152602360248201527f4d7945524332303a204e6f206d696e7465722072656d6f76616c2070726f706f6044820152621cd95960ea1b60648201526084016104fc565b600b546001600160a01b03166112fb5760405162461bcd60e51b8152602060048201526016602482015275135e515490cc8c0e88139bc81b5a5b9d195c881cd95d60521b60448201526064016104fc565b600b546040516001600160a01b03909116907fc6711413797b8a562634e98c95d50e7619d39702ed5b82ce335dc93546c3a88c90600090a25050600b80546001600160a01b0319908116909155336000908152600c60205260409020805490911690555050505050505050565b8382848360405160200161137e91815260200190565b60408051601f1981840301815291905260005460ff166113b05760405162461bcd60e51b81526004016104fc90612ed5565b6000846040516020016113c39190612f0c565b60408051601f19818403018152919052805160209091012090506000808281526002602081905260409091205460ff169081111561140357611403612812565b146114205760405162461bcd60e51b81526004016104fc90612f43565b60008284604051602001611435929190612f7a565b60408051601f19818403018152908290528051602091820120808352925060008051602061304b833981519152910160405180910390a16000611479828789611605565b6000805461ff001916610100831515021790559050806114b15760405182815260008051602061302b83398151915290602001610aaa565b6000838152600260205260409081902054905160008051602061306b833981519152916114e79160ff909116908690899061284a565b60405180910390a16114f98386612575565b61150460018961245c565b5050505050505050505050565b6060600a805461059390612dcf565b60006001600160a01b0383166115485760405162461bcd60e51b81526004016104fc90612e09565b336000908152600660205260409020548211156115775760405162461bcd60e51b81526004016104fc90612e4c565b3360009081526006602052604081208054849290611596908490612e92565b90915550506001600160a01b038316600090815260066020526040812080548492906115c3908490612ea5565b90915550506040518281526001600160a01b0384169033907fddf252ad1be2c89b69c2b068fc378daa952ba7f163c4a11628f55a4df523b3ef906020016106cd565b6000805b6101008110156116ad578381610100811061162657611626612d8a565b6020028101906116369190612f9c565b604051611644929190612fea565b60405180910390208382610100811061165f5761165f612d8a565b6040020160008360ff036001901b88161161167b57600061167e565b60015b60ff166002811061169157611691612d8a565b6020020135146116a5576000915050610960565b600101611609565b506001949350505050565b60015460609060009067ffffffffffffffff8111156116d9576116d9612a1a565b604051908082528060200260200182016040528015611702578160200160208202803683370190505b5090506000805b6001548110156117c35784600281111561172557611725612812565b6001828154811061173857611738612d8a565b600091825260209091206002918202015460ff169081111561175c5761175c612812565b036117b1576001818154811061177457611774612d8a565b90600052602060002090600202016001015483838151811061179857611798612d8a565b6020908102919091010152816117ad81612db6565b9250505b806117bb81612db6565b915050611709565b5060008167ffffffffffffffff8111156117df576117df612a1a565b604051908082528060200260200182016040528015611808578160200160208202803683370190505b50905060005b8281101561185f5783818151811061182857611828612d8a565b602002602001015182828151811061184257611842612d8a565b60209081029190910101528061185781612db6565b91505061180e565b50949350505050565b8383838360405160200161187e91815260200190565b60408051601f1981840301815291905260005460ff166118b05760405162461bcd60e51b81526004016104fc90612ed5565b6000846040516020016118c39190612f0c565b60408051601f19818403018152919052805160209091012090506000808281526002602081905260409091205460ff169081111561190357611903612812565b146119205760405162461bcd60e51b81526004016104fc90612f43565b60008284604051602001611935929190612f7a565b60408051601f19818403018152908290528051602091820120808352925060008051602061304b833981519152910160405180910390a16000611979828789611605565b6000805461ff001916610100831515021790559050806119b15760405182815260008051602061302b83398151915290602001610aaa565b6000838152600260205260409081902054905160008051602061306b833981519152916119e79160ff909116908690899061284a565b60405180910390a16119f98386612575565b505050600394909455505050600491909155505050565b600b54604051849184918491611a34916001600160a01b0390911690602001612eb8565b60408051601f1981840301815291905260005460ff16611a665760405162461bcd60e51b81526004016104fc90612ed5565b600084604051602001611a799190612f0c565b60408051601f19818403018152919052805160209091012090506000808281526002602081905260409091205460ff1690811115611ab957611ab9612812565b14611ad65760405162461bcd60e51b81526004016104fc90612f43565b60008284604051602001611aeb929190612f7a565b60408051601f19818403018152908290528051602091820120808352925060008051602061304b833981519152910160405180910390a16000611b2f828789611605565b6000805461ff00191661010083151502179055905080611b675760405182815260008051602061302b83398151915290602001610aaa565b6000838152600260205260409081902054905160008051602061306b83398151915291611b9d9160ff909116908690899061284a565b60405180910390a1611baf8386612575565b5050336000908152600c6020526040902080546001600160a01b03191690555050505050505050565b83838383604051602001611bee91815260200190565b60408051601f1981840301815291905260005460ff16611c205760405162461bcd60e51b81526004016104fc90612ed5565b600084604051602001611c339190612f0c565b60408051601f19818403018152919052805160209091012090506000808281526002602081905260409091205460ff1690811115611c7357611c73612812565b14611c905760405162461bcd60e51b81526004016104fc90612f43565b60008284604051602001611ca5929190612f7a565b60408051601f19818403018152908290528051602091820120808352925060008051602061304b833981519152910160405180910390a16000611ce9828789611605565b6000805461ff00191661010083151502179055905080611d215760405182815260008051602061302b83398151915290602001610aaa565b6000838152600260205260409081902054905160008051602061306b83398151915291611d579160ff909116908690899061284a565b60405180910390a1611d698386612575565b60008b604051602001611d7c9190612f0c565b6040516020818303038152906040528051906020012090506004548103611e155760405162461bcd60e51b815260206004820152604160248201527f4c616d706f7274426173653a2043616e6e6f7420757365207468652073616d6560448201527f206b6579636861696e20747769636520666f7220746869732066756e6374696f6064820152603760f91b608482015260a4016104fc565b8860035414611e665760405162461bcd60e51b815260206004820152601e60248201527f4c616d706f7274426173653a204b65797320646f206e6f74206d61746368000060448201526064016104fc565b600454818a6000808481526002602081905260409091205460ff1690811115611e9157611e91612812565b148015611ebf5750600082815260026020819052604082205460ff1690811115611ebd57611ebd612812565b145b611f225760405162461bcd60e51b815260206004820152602e60248201527f4c616d706f7274426173653a2050726f7669646564206b65797320617265206e60448201526d6f74206d6173746572206b65797360901b60648201526084016104fc565b828114158015611f325750818114155b611f985760405162461bcd60e51b815260206004820152603160248201527f4c616d706f7274426173653a204d6173746572206b6579732063616e6e6f742060448201527064656c657465207468656d73656c76657360781b60648201526084016104fc565b60008181526002602052604081206001015490036120045760405162461bcd60e51b815260206004820152602360248201527f4c616d706f7274426173653a204e6f2073756368206b6579202864656c6574696044820152626f6e2960e81b60648201526084016104fc565b60005b6001548110156120f157816001828154811061202557612025612d8a565b906000526020600020906002020160010154036120df57600082815260026020818152604080842080548251428186015244818501528351808203850181526060909101938490528051908501209588905292849052630de1e7ed60e41b85186001820181905560ff198416851790915560ff9092169391927f0643be3612916977c69d5ed1abb75a50cca49df49ba2444d836e2a0cf65fe074916120cf91869189918791612ffa565b60405180910390a15050506120f1565b806120e981612db6565b915050612007565b5050600060038190556004555050505050505050505050505050565b838383836040516020016121219190612eb8565b60408051601f1981840301815291905260005460ff166121535760405162461bcd60e51b81526004016104fc90612ed5565b6000846040516020016121669190612f0c565b60408051601f19818403018152919052805160209091012090506000808281526002602081905260409091205460ff16908111156121a6576121a6612812565b146121c35760405162461bcd60e51b81526004016104fc90612f43565b600082846040516020016121d8929190612f7a565b60408051601f19818403018152908290528051602091820120808352925060008051602061304b833981519152910160405180910390a1600061221c828789611605565b6000805461ff001916610100831515021790559050806122545760405182815260008051602061302b83398151915290602001610aaa565b6000838152600260205260409081902054905160008051602061306b8339815191529161228a9160ff909116908690899061284a565b60405180910390a161229c8386612575565b336000908152600c60205260409020546001600160a01b038981169116146123065760405162461bcd60e51b815260206004820181905260248201527f4d7945524332303a204d696e7465722061646472657373206d69736d6174636860448201526064016104fc565b600b546001600160a01b0316158061232b5750600b546001600160a01b038981169116145b6123835760405162461bcd60e51b815260206004820152602360248201527f4d7945524332303a20416e6f74686572206d696e74657220616c7265616479206044820152621cd95d60ea1b60648201526084016104fc565b600b80546001600160a01b0319166001600160a01b038a169081179091556040517ffe7c7fcb0ae0ce6bfd0a653fa3ab6c97a51a0819e6c27cdab8a08d456338c5fa90600090a25050336000908152600c6020526040902080546001600160a01b0319169055505050505050505050565b600b546001600160a01b0316331461244e5760405162461bcd60e51b815260206004820152601c60248201527f47505f4d696e743a20556e617574686f72697a6564206d696e7465720000000060448201526064016104fc565b6124588282612717565b5050565b6000604051806040016040528084600281111561247b5761247b612812565b81526020018390526001805480820182556000829052825160029182027fb10e2d527612073b26eecdfd717e6a320cf44b4afac2b0732d9fcbe2b7fa0cf6018054949550859490939192849260ff19909216919084908111156124e0576124e0612812565b021790555060209182015160019182015560008481526002928390526040902083518154859492939192849260ff199092169190849081111561252557612525612812565b0217905550602082015181600101559050507f2172c7b01a6de957d29fd6166a23025d181bf56538ad606a526ab2d62603f3fc8383604051612568929190612932565b60405180910390a1505050565b60008281526002602052604081206001015490036125a55760405162461bcd60e51b81526004016104fc90612d53565b604080518082018252600084815260026020819052928120549092829160ff16908111156125d5576125d5612812565b8152602001838152509050806002600084815260200190815260200160002060008201518160000160006101000a81548160ff0219169083600281111561261e5761261e612812565b02179055506020918201516001918201556000858152600290925260408220805460ff19168155018190555b6001548110156126f457836001828154811061266857612668612d8a565b906000526020600020906002020160010154036126e257816001828154811061269357612693612d8a565b906000526020600020906002020160008201518160000160006101000a81548160ff021916908360028111156126cb576126cb612812565b0217905550602082015181600101559050506126f4565b806126ec81612db6565b91505061264a565b50805160405160008051602061306b83398151915291612568918690869061284a565b600b546001600160a01b031633146127715760405162461bcd60e51b815260206004820152601c60248201527f47505f4d696e743a20556e617574686f72697a6564206d696e7465720000000060448201526064016104fc565b80600860008282546127839190612ea5565b90915550506001600160a01b038216600090815260066020526040812080548392906127b0908490612ea5565b90915550506040518181526001600160a01b0383169033907f9d228d69b5fdb8d273a2336f8fb8612d039631024ea9bf09c424a9503aa078f09060200160405180910390a35050565b60006020828403121561280b57600080fd5b5035919050565b634e487b7160e01b600052602160045260246000fd5b6003811061284657634e487b7160e01b600052602160045260246000fd5b9052565b606081016128588286612828565b602082019390935260400152919050565b60005b8381101561288457818101518382015260200161286c565b50506000910152565b60208152600082518060208401526128ac816040850160208701612869565b601f01601f19169190910160400192915050565b80356001600160a01b03811681146128d757600080fd5b919050565b600080604083850312156128ef57600080fd5b6128f8836128c0565b946020939093013593505050565b60008060006060848603121561291b57600080fd5b505081359360208301359350604090920135919050565b604081016129408285612828565b8260208301529392505050565b60008060006060848603121561296257600080fd5b61296b846128c0565b9250612979602085016128c0565b9150604084013590509250925092565b8061400081018310156106d957600080fd5b8061200081018310156106d957600080fd5b60008060008061406085870312156129c457600080fd5b6129ce8686612989565b935061400085013567ffffffffffffffff8111156129eb57600080fd5b6129f78782880161299b565b9350506140208501359150612a0f61404086016128c0565b905092959194509250565b634e487b7160e01b600052604160045260246000fd5b6000806000806140608587031215612a4757600080fd5b612a518686612989565b935061400085013567ffffffffffffffff80821115612a6f57600080fd5b612a7b8883890161299b565b94506140208701359350614040870135915080821115612a9a57600080fd5b818701915087601f830112612aae57600080fd5b813581811115612ac057612ac0612a1a565b604051601f8201601f19908116603f01168101908382118183101715612ae857612ae8612a1a565b816040528281528a6020848701011115612b0157600080fd5b82602086016020830137600060208483010152809550505050505092959194509250565b6000806000806140608587031215612b3c57600080fd5b612b468686612989565b935061400085013567ffffffffffffffff811115612b6357600080fd5b612b6f8782880161299b565b9497949650505050614020830135926140400135919050565b600060208284031215612b9a57600080fd5b610960826128c0565b60008060006140408486031215612bb957600080fd5b612bc38585612989565b925061400084013567ffffffffffffffff811115612be057600080fd5b612bec8682870161299b565b92505061402084013590509250925092565b6000806000806140608587031215612c1557600080fd5b612c1f8686612989565b9350614000850135925061402085013567ffffffffffffffff811115612c4457600080fd5b612c508782880161299b565b94979396509394614040013593505050565b60008060006140408486031215612c7857600080fd5b83359250602084013567ffffffffffffffff811115612c9657600080fd5b612ca28682870161299b565b925050612cb28560408601612989565b90509250925092565b600060208284031215612ccd57600080fd5b81356003811061096057600080fd5b6020808252825182820181905260009190848201906040850190845b81811015612d1457835183529284019291840191600101612cf8565b50909695505050505050565b60008060408385031215612d3357600080fd5b612d3c836128c0565b9150612d4a602084016128c0565b90509250929050565b60208082526018908201527f4c616d706f7274426173653a204e6f2073756368206b65790000000000000000604082015260600190565b634e487b7160e01b600052603260045260246000fd5b634e487b7160e01b600052601160045260246000fd5b600060018201612dc857612dc8612da0565b5060010190565b600181811c90821680612de357607f821691505b602082108103612e0357634e487b7160e01b600052602260045260246000fd5b50919050565b60208082526023908201527f45524332303a207472616e7366657220746f20746865207a65726f206164647260408201526265737360e81b606082015260800190565b60208082526026908201527f45524332303a207472616e7366657220616d6f756e7420657863656564732062604082015265616c616e636560d01b606082015260800190565b818103818111156106d9576106d9612da0565b808201808211156106d9576106d9612da0565b60609190911b6bffffffffffffffffffffffff1916815260140190565b6020808252601c908201527f4c616d706f7274426173653a206e6f7420696e697469616c697a656400000000604082015260600190565b60008183825b610100811015612f3357604080838537928301929190910190600101612f12565b5050506140008201905092915050565b6020808252601d908201527f4c616d706f7274426173653a204e6f742061206d6173746572206b6579000000604082015260600190565b60008351612f8c818460208801612869565b9190910191825250602001919050565b6000808335601e19843603018112612fb357600080fd5b83018035915067ffffffffffffffff821115612fce57600080fd5b602001915036819003821315612fe357600080fd5b9250929050565b8183823760009101908152919050565b608081016130088287612828565b8460208301528360408301526130216060830184612828565b9594505050505056fe32629d580208e19f97e5752eef849e102f803999c88aa7f75e12b1744eecd5a7d87e68f36f73a7eb22739d6639e36cafebfcde0b5543340b39f42cac68fdd1f06825a39bd161f4ef5aab6cfd2c26db3ee0005c11b43cffd544fc876312116edda2646970667358221220b58748da18806f65131245ce5c93ba130337e7eedf753630be13c7fa4f02a2ec64736f6c63430008150033",
  "bytecodeSha1": "3e3b4e6ee68a2df43e8c140c7058b5c76b2ce34e",
  "compiler": {
    "evm_version": "istanbul",
    "optimizer": {
      "enabled": true,
      "runs": 200
    },
    "version": "0.8.21+commit.d9974bed"
  },
  "contractName": "GP_Mint",
  "language": "Solidity",
  "natspec": {
    "kind": "dev",
    "methods": {},
    "version": 1
  },
  "opcodes": "PUSH1 0x80 PUSH1 0x40 MSTORE CALLVALUE DUP1 ISZERO PUSH2 0x10 JUMPI PUSH1 0x0 DUP1 REVERT JUMPDEST POP PUSH1 0x4 CALLDATASIZE LT PUSH2 0x1CF JUMPI PUSH1 0x0 CALLDATALOAD PUSH1 0xE0 SHR DUP1 PUSH4 0x5796841A GT PUSH2 0x104 JUMPI DUP1 PUSH4 0xAF82F3E7 GT PUSH2 0xA2 JUMPI DUP1 PUSH4 0xE5F855B7 GT PUSH2 0x71 JUMPI DUP1 PUSH4 0xE5F855B7 EQ PUSH2 0x431 JUMPI DUP1 PUSH4 0xE673D71F EQ PUSH2 0x444 JUMPI DUP1 PUSH4 0xE951AE23 EQ PUSH2 0x457 JUMPI DUP1 PUSH4 0xF0DDA65C EQ PUSH2 0x46A JUMPI PUSH1 0x0 DUP1 REVERT JUMPDEST DUP1 PUSH4 0xAF82F3E7 EQ PUSH2 0x3B2 JUMPI DUP1 PUSH4 0xB97B4F77 EQ PUSH2 0x3C5 JUMPI DUP1 PUSH4 0xD83C413C EQ PUSH2 0x3E5 JUMPI DUP1 PUSH4 0xDD62ED3E EQ PUSH2 0x3F8 JUMPI PUSH1 0x0 DUP1 REVERT JUMPDEST DUP1 PUSH4 0x8EB8F1A6 GT PUSH2 0xDE JUMPI DUP1 PUSH4 0x8EB8F1A6 EQ PUSH2 0x357 JUMPI DUP1 PUSH4 0x95D89B41 EQ PUSH2 0x36A JUMPI DUP1 PUSH4 0xA9059CBB EQ PUSH2 0x372 JUMPI DUP1 PUSH4 0xA9711EE3 EQ PUSH2 0x385 JUMPI PUSH1 0x0 DUP1 REVERT JUMPDEST DUP1 PUSH4 0x5796841A EQ PUSH2 0x308 JUMPI DUP1 PUSH4 0x70A08231 EQ PUSH2 0x31B JUMPI DUP1 PUSH4 0x8486E2FF EQ PUSH2 0x344 JUMPI PUSH1 0x0 DUP1 REVERT JUMPDEST DUP1 PUSH4 0x2A663120 GT PUSH2 0x171 JUMPI DUP1 PUSH4 0x333F6111 GT PUSH2 0x14B JUMPI DUP1 PUSH4 0x333F6111 EQ PUSH2 0x2C6 JUMPI DUP1 PUSH4 0x4A89D52B EQ PUSH2 0x2D9 JUMPI DUP1 PUSH4 0x4BDD4499 EQ PUSH2 0x2EC JUMPI DUP1 PUSH4 0x4E657D2A EQ PUSH2 0x2F5 JUMPI PUSH1 0x0 DUP1 REVERT JUMPDEST DUP1 PUSH4 0x2A663120 EQ PUSH2 0x292 JUMPI DUP1 PUSH4 0x2FD5C247 EQ PUSH2 0x2A5 JUMPI DUP1 PUSH4 0x313CE567 EQ PUSH2 0x2B7 JUMPI PUSH1 0x0 DUP1 REVERT JUMPDEST DUP1 PUSH4 0xB0AD508 GT PUSH2 0x1AD JUMPI DUP1 PUSH4 0xB0AD508 EQ PUSH2 0x237 JUMPI DUP1 PUSH4 0xCB6AAF1 EQ PUSH2 0x24C JUMPI DUP1 PUSH4 0x18160DDD EQ PUSH2 0x26D JUMPI DUP1 PUSH4 0x23B872DD EQ PUSH2 0x27F JUMPI PUSH1 0x0 DUP1 REVERT JUMPDEST DUP1 PUSH4 0x5AACC7D EQ PUSH2 0x1D4 JUMPI DUP1 PUSH4 0x6FDDE03 EQ PUSH2 0x1FF JUMPI DUP1 PUSH4 0x95EA7B3 EQ PUSH2 0x214 JUMPI JUMPDEST PUSH1 0x0 DUP1 REVERT JUMPDEST PUSH2 0x1E7 PUSH2 0x1E2 CALLDATASIZE PUSH1 0x4 PUSH2 0x27F9 JUMP JUMPDEST PUSH2 0x47D JUMP JUMPDEST PUSH1 0x40 MLOAD PUSH2 0x1F6 SWAP4 SWAP3 SWAP2 SWAP1 PUSH2 0x284A JUMP JUMPDEST PUSH1 0x40 MLOAD DUP1 SWAP2 SUB SWAP1 RETURN JUMPDEST PUSH2 0x207 PUSH2 0x584 JUMP JUMPDEST PUSH1 0x40 MLOAD PUSH2 0x1F6 SWAP2 SWAP1 PUSH2 0x288D JUMP JUMPDEST PUSH2 0x227 PUSH2 0x222 CALLDATASIZE PUSH1 0x4 PUSH2 0x28DC JUMP JUMPDEST PUSH2 0x616 JUMP JUMPDEST PUSH1 0x40 MLOAD SWAP1 ISZERO ISZERO DUP2 MSTORE PUSH1 0x20 ADD PUSH2 0x1F6 JUMP JUMPDEST PUSH2 0x24A PUSH2 0x245 CALLDATASIZE PUSH1 0x4 PUSH2 0x2906 JUMP JUMPDEST PUSH2 0x6DF JUMP JUMPDEST STOP JUMPDEST PUSH2 0x25F PUSH2 0x25A CALLDATASIZE PUSH1 0x4 PUSH2 0x27F9 JUMP JUMPDEST PUSH2 0x765 JUMP JUMPDEST PUSH1 0x40 MLOAD PUSH2 0x1F6 SWAP3 SWAP2 SWAP1 PUSH2 0x2932 JUMP JUMPDEST PUSH1 0x8 SLOAD JUMPDEST PUSH1 0x40 MLOAD SWAP1 DUP2 MSTORE PUSH1 0x20 ADD PUSH2 0x1F6 JUMP JUMPDEST PUSH2 0x227 PUSH2 0x28D CALLDATASIZE PUSH1 0x4 PUSH2 0x294D JUMP JUMPDEST PUSH2 0x797 JUMP JUMPDEST PUSH2 0x24A PUSH2 0x2A0 CALLDATASIZE PUSH1 0x4 PUSH2 0x29AD JUMP JUMPDEST PUSH2 0x967 JUMP JUMPDEST PUSH1 0x0 SLOAD PUSH2 0x227 SWAP1 PUSH2 0x100 SWAP1 DIV PUSH1 0xFF AND DUP2 JUMP JUMPDEST PUSH1 0x40 MLOAD PUSH1 0x12 DUP2 MSTORE PUSH1 0x20 ADD PUSH2 0x1F6 JUMP JUMPDEST PUSH2 0x227 PUSH2 0x2D4 CALLDATASIZE PUSH1 0x4 PUSH2 0x2A30 JUMP JUMPDEST PUSH2 0xB7C JUMP JUMPDEST PUSH2 0x227 PUSH2 0x2E7 CALLDATASIZE PUSH1 0x4 PUSH2 0x2A30 JUMP JUMPDEST PUSH2 0xC6D JUMP JUMPDEST PUSH2 0x271 PUSH1 0x5 SLOAD DUP2 JUMP JUMPDEST PUSH2 0x24A PUSH2 0x303 CALLDATASIZE PUSH1 0x4 PUSH2 0x2A30 JUMP JUMPDEST PUSH2 0xCC4 JUMP JUMPDEST PUSH2 0x24A PUSH2 0x316 CALLDATASIZE PUSH1 0x4 PUSH2 0x2B25 JUMP JUMPDEST PUSH2 0xE49 JUMP JUMPDEST PUSH2 0x271 PUSH2 0x329 CALLDATASIZE PUSH1 0x4 PUSH2 0x2B88 JUMP JUMPDEST PUSH1 0x1 PUSH1 0x1 PUSH1 0xA0 SHL SUB AND PUSH1 0x0 SWAP1 DUP2 MSTORE PUSH1 0x6 PUSH1 0x20 MSTORE PUSH1 0x40 SWAP1 KECCAK256 SLOAD SWAP1 JUMP JUMPDEST PUSH2 0x24A PUSH2 0x352 CALLDATASIZE PUSH1 0x4 PUSH2 0x2BA3 JUMP JUMPDEST PUSH2 0x10A8 JUMP JUMPDEST PUSH2 0x24A PUSH2 0x365 CALLDATASIZE PUSH1 0x4 PUSH2 0x2BFE JUMP JUMPDEST PUSH2 0x1368 JUMP JUMPDEST PUSH2 0x207 PUSH2 0x1511 JUMP JUMPDEST PUSH2 0x227 PUSH2 0x380 CALLDATASIZE PUSH1 0x4 PUSH2 0x28DC JUMP JUMPDEST PUSH2 0x1520 JUMP JUMPDEST PUSH2 0x25F PUSH2 0x393 CALLDATASIZE PUSH1 0x4 PUSH2 0x27F9 JUMP JUMPDEST PUSH1 0x2 PUSH1 0x20 MSTORE PUSH1 0x0 SWAP1 DUP2 MSTORE PUSH1 0x40 SWAP1 KECCAK256 DUP1 SLOAD PUSH1 0x1 SWAP1 SWAP2 ADD SLOAD PUSH1 0xFF SWAP1 SWAP2 AND SWAP1 DUP3 JUMP JUMPDEST PUSH2 0x227 PUSH2 0x3C0 CALLDATASIZE PUSH1 0x4 PUSH2 0x2C62 JUMP JUMPDEST PUSH2 0x1605 JUMP JUMPDEST PUSH2 0x3D8 PUSH2 0x3D3 CALLDATASIZE PUSH1 0x4 PUSH2 0x2CBB JUMP JUMPDEST PUSH2 0x16B8 JUMP JUMPDEST PUSH1 0x40 MLOAD PUSH2 0x1F6 SWAP2 SWAP1 PUSH2 0x2CDC JUMP JUMPDEST PUSH2 0x24A PUSH2 0x3F3 CALLDATASIZE PUSH1 0x4 PUSH2 0x2B25 JUMP JUMPDEST PUSH2 0x1868 JUMP JUMPDEST PUSH2 0x271 PUSH2 0x406 CALLDATASIZE PUSH1 0x4 PUSH2 0x2D20 JUMP JUMPDEST PUSH1 0x1 PUSH1 0x1 PUSH1 0xA0 SHL SUB SWAP2 DUP3 AND PUSH1 0x0 SWAP1 DUP2 MSTORE PUSH1 0x7 PUSH1 0x20 SWAP1 DUP2 MSTORE PUSH1 0x40 DUP1 DUP4 KECCAK256 SWAP4 SWAP1 SWAP5 AND DUP3 MSTORE SWAP2 SWAP1 SWAP2 MSTORE KECCAK256 SLOAD SWAP1 JUMP JUMPDEST PUSH2 0x24A PUSH2 0x43F CALLDATASIZE PUSH1 0x4 PUSH2 0x2BA3 JUMP JUMPDEST PUSH2 0x1A10 JUMP JUMPDEST PUSH2 0x24A PUSH2 0x452 CALLDATASIZE PUSH1 0x4 PUSH2 0x2B25 JUMP JUMPDEST PUSH2 0x1BD8 JUMP JUMPDEST PUSH2 0x24A PUSH2 0x465 CALLDATASIZE PUSH1 0x4 PUSH2 0x29AD JUMP JUMPDEST PUSH2 0x210D JUMP JUMPDEST PUSH2 0x24A PUSH2 0x478 CALLDATASIZE PUSH1 0x4 PUSH2 0x28DC JUMP JUMPDEST PUSH2 0x23F4 JUMP JUMPDEST PUSH1 0x0 DUP2 DUP2 MSTORE PUSH1 0x2 PUSH1 0x20 DUP2 SWAP1 MSTORE PUSH1 0x40 DUP1 DUP4 KECCAK256 DUP2 MLOAD DUP1 DUP4 ADD SWAP1 SWAP3 MSTORE DUP1 SLOAD DUP5 SWAP4 DUP5 SWAP4 DUP5 SWAP4 SWAP1 SWAP3 SWAP1 SWAP2 DUP4 SWAP2 PUSH1 0xFF AND SWAP1 DUP2 GT ISZERO PUSH2 0x4B7 JUMPI PUSH2 0x4B7 PUSH2 0x2812 JUMP JUMPDEST PUSH1 0x2 DUP2 GT ISZERO PUSH2 0x4C8 JUMPI PUSH2 0x4C8 PUSH2 0x2812 JUMP JUMPDEST DUP2 MSTORE PUSH1 0x1 SWAP2 SWAP1 SWAP2 ADD SLOAD PUSH1 0x20 SWAP2 DUP3 ADD MSTORE DUP2 ADD MLOAD SWAP1 SWAP2 POP PUSH1 0x0 SUB PUSH2 0x505 JUMPI PUSH1 0x40 MLOAD PUSH3 0x461BCD PUSH1 0xE5 SHL DUP2 MSTORE PUSH1 0x4 ADD PUSH2 0x4FC SWAP1 PUSH2 0x2D53 JUMP JUMPDEST PUSH1 0x40 MLOAD DUP1 SWAP2 SUB SWAP1 REVERT JUMPDEST PUSH1 0x0 JUMPDEST PUSH1 0x1 SLOAD DUP2 LT ISZERO PUSH2 0x564 JUMPI DUP6 PUSH1 0x1 DUP3 DUP2 SLOAD DUP2 LT PUSH2 0x526 JUMPI PUSH2 0x526 PUSH2 0x2D8A JUMP JUMPDEST SWAP1 PUSH1 0x0 MSTORE PUSH1 0x20 PUSH1 0x0 KECCAK256 SWAP1 PUSH1 0x2 MUL ADD PUSH1 0x1 ADD SLOAD SUB PUSH2 0x552 JUMPI DUP2 MLOAD PUSH1 0x20 SWAP1 SWAP3 ADD MLOAD SWAP2 SWAP5 POP SWAP1 SWAP3 POP SWAP1 POP PUSH2 0x57D JUMP JUMPDEST DUP1 PUSH2 0x55C DUP2 PUSH2 0x2DB6 JUMP JUMPDEST SWAP2 POP POP PUSH2 0x508 JUMP JUMPDEST POP PUSH1 0x40 MLOAD PUSH3 0x461BCD PUSH1 0xE5 SHL DUP2 MSTORE PUSH1 0x4 ADD PUSH2 0x4FC SWAP1 PUSH2 0x2D53 JUMP JUMPDEST SWAP2 SWAP4 SWAP1 SWAP3 POP JUMP JUMPDEST PUSH1 0x60 PUSH1 0x9 DUP1 SLOAD PUSH2 0x593 SWAP1 PUSH2 0x2DCF JUMP JUMPDEST DUP1 PUSH1 0x1F ADD PUSH1 0x20 DUP1 SWAP2 DIV MUL PUSH1 0x20 ADD PUSH1 0x40 MLOAD SWAP1 DUP2 ADD PUSH1 0x40 MSTORE DUP1 SWAP3 SWAP2 SWAP1 DUP2 DUP2 MSTORE PUSH1 0x20 ADD DUP3 DUP1 SLOAD PUSH2 0x5BF SWAP1 PUSH2 0x2DCF JUMP JUMPDEST DUP1 ISZERO PUSH2 0x60C JUMPI DUP1 PUSH1 0x1F LT PUSH2 0x5E1 JUMPI PUSH2 0x100 DUP1 DUP4 SLOAD DIV MUL DUP4 MSTORE SWAP2 PUSH1 0x20 ADD SWAP2 PUSH2 0x60C JUMP JUMPDEST DUP3 ADD SWAP2 SWAP1 PUSH1 0x0 MSTORE PUSH1 0x20 PUSH1 0x0 KECCAK256 SWAP1 JUMPDEST DUP2 SLOAD DUP2 MSTORE SWAP1 PUSH1 0x1 ADD SWAP1 PUSH1 0x20 ADD DUP1 DUP4 GT PUSH2 0x5EF JUMPI DUP3 SWAP1 SUB PUSH1 0x1F AND DUP3 ADD SWAP2 JUMPDEST POP POP POP POP POP SWAP1 POP SWAP1 JUMP JUMPDEST PUSH1 0x0 PUSH1 0x1 PUSH1 0x1 PUSH1 0xA0 SHL SUB DUP4 AND PUSH2 0x679 JUMPI PUSH1 0x40 MLOAD PUSH3 0x461BCD PUSH1 0xE5 SHL DUP2 MSTORE PUSH1 0x20 PUSH1 0x4 DUP3 ADD MSTORE PUSH1 0x22 PUSH1 0x24 DUP3 ADD MSTORE PUSH32 0x45524332303A20617070726F766520746F20746865207A65726F206164647265 PUSH1 0x44 DUP3 ADD MSTORE PUSH2 0x7373 PUSH1 0xF0 SHL PUSH1 0x64 DUP3 ADD MSTORE PUSH1 0x84 ADD PUSH2 0x4FC JUMP JUMPDEST CALLER PUSH1 0x0 DUP2 DUP2 MSTORE PUSH1 0x7 PUSH1 0x20 SWAP1 DUP2 MSTORE PUSH1 0x40 DUP1 DUP4 KECCAK256 PUSH1 0x1 PUSH1 0x1 PUSH1 0xA0 SHL SUB DUP9 AND DUP1 DUP6 MSTORE SWAP1 DUP4 MSTORE SWAP3 DUP2 SWAP1 KECCAK256 DUP7 SWAP1 SSTORE MLOAD DUP6 DUP2 MSTORE SWAP2 SWAP3 SWAP2 PUSH32 0x8C5BE1E5EBEC7D5BD14F71427D1E84F3DD0314C0F7B2291E5B200AC8C7C3B925 SWAP2 ADD JUMPDEST PUSH1 0x40 MLOAD DUP1 SWAP2 SUB SWAP1 LOG3 POP PUSH1 0x1 JUMPDEST SWAP3 SWAP2 POP POP JUMP JUMPDEST PUSH1 0x0 SLOAD PUSH1 0xFF AND ISZERO PUSH2 0x732 JUMPI PUSH1 0x40 MLOAD PUSH3 0x461BCD PUSH1 0xE5 SHL DUP2 MSTORE PUSH1 0x20 PUSH1 0x4 DUP3 ADD DUP2 SWAP1 MSTORE PUSH1 0x24 DUP3 ADD MSTORE PUSH32 0x4C616D706F7274426173653A20416C726561647920696E697469616C697A6564 PUSH1 0x44 DUP3 ADD MSTORE PUSH1 0x64 ADD PUSH2 0x4FC JUMP JUMPDEST PUSH2 0x73D PUSH1 0x0 DUP5 PUSH2 0x245C JUMP JUMPDEST PUSH2 0x748 PUSH1 0x0 DUP4 PUSH2 0x245C JUMP JUMPDEST PUSH2 0x753 PUSH1 0x1 DUP3 PUSH2 0x245C JUMP JUMPDEST POP POP PUSH1 0x0 DUP1 SLOAD PUSH1 0xFF NOT AND PUSH1 0x1 OR SWAP1 SSTORE POP JUMP JUMPDEST PUSH1 0x1 DUP2 DUP2 SLOAD DUP2 LT PUSH2 0x775 JUMPI PUSH1 0x0 DUP1 REVERT JUMPDEST PUSH1 0x0 SWAP2 DUP3 MSTORE PUSH1 0x20 SWAP1 SWAP2 KECCAK256 PUSH1 0x2 SWAP1 SWAP2 MUL ADD DUP1 SLOAD PUSH1 0x1 SWAP1 SWAP2 ADD SLOAD PUSH1 0xFF SWAP1 SWAP2 AND SWAP2 POP DUP3 JUMP JUMPDEST PUSH1 0x0 PUSH1 0x1 PUSH1 0x1 PUSH1 0xA0 SHL SUB DUP4 AND PUSH2 0x7BF JUMPI PUSH1 0x40 MLOAD PUSH3 0x461BCD PUSH1 0xE5 SHL DUP2 MSTORE PUSH1 0x4 ADD PUSH2 0x4FC SWAP1 PUSH2 0x2E09 JUMP JUMPDEST PUSH1 0x1 PUSH1 0x1 PUSH1 0xA0 SHL SUB DUP5 AND PUSH1 0x0 SWAP1 DUP2 MSTORE PUSH1 0x6 PUSH1 0x20 MSTORE PUSH1 0x40 SWAP1 KECCAK256 SLOAD DUP3 GT ISZERO PUSH2 0x7F7 JUMPI PUSH1 0x40 MLOAD PUSH3 0x461BCD PUSH1 0xE5 SHL DUP2 MSTORE PUSH1 0x4 ADD PUSH2 0x4FC SWAP1 PUSH2 0x2E4C JUMP JUMPDEST PUSH1 0x1 PUSH1 0x1 PUSH1 0xA0 SHL SUB DUP5 AND PUSH1 0x0 SWAP1 DUP2 MSTORE PUSH1 0x7 PUSH1 0x20 SWAP1 DUP2 MSTORE PUSH1 0x40 DUP1 DUP4 KECCAK256 CALLER DUP5 MSTORE SWAP1 SWAP2 MSTORE SWAP1 KECCAK256 SLOAD DUP3 GT ISZERO PUSH2 0x87B JUMPI PUSH1 0x40 MLOAD PUSH3 0x461BCD PUSH1 0xE5 SHL DUP2 MSTORE PUSH1 0x20 PUSH1 0x4 DUP3 ADD MSTORE PUSH1 0x28 PUSH1 0x24 DUP3 ADD MSTORE PUSH32 0x45524332303A207472616E7366657220616D6F756E7420657863656564732061 PUSH1 0x44 DUP3 ADD MSTORE PUSH8 0x6C6C6F77616E6365 PUSH1 0xC0 SHL PUSH1 0x64 DUP3 ADD MSTORE PUSH1 0x84 ADD PUSH2 0x4FC JUMP JUMPDEST PUSH1 0x1 PUSH1 0x1 PUSH1 0xA0 SHL SUB DUP5 AND PUSH1 0x0 SWAP1 DUP2 MSTORE PUSH1 0x6 PUSH1 0x20 MSTORE PUSH1 0x40 DUP2 KECCAK256 DUP1 SLOAD DUP5 SWAP3 SWAP1 PUSH2 0x8A3 SWAP1 DUP5 SWAP1 PUSH2 0x2E92 JUMP JUMPDEST SWAP1 SWAP2 SSTORE POP POP PUSH1 0x1 PUSH1 0x1 PUSH1 0xA0 SHL SUB DUP4 AND PUSH1 0x0 SWAP1 DUP2 MSTORE PUSH1 0x6 PUSH1 0x20 MSTORE PUSH1 0x40 DUP2 KECCAK256 DUP1 SLOAD DUP5 SWAP3 SWAP1 PUSH2 0x8D0 SWAP1 DUP5 SWAP1 PUSH2 0x2EA5 JUMP JUMPDEST SWAP1 SWAP2 SSTORE POP POP PUSH1 0x1 PUSH1 0x1 PUSH1 0xA0 SHL SUB DUP5 AND PUSH1 0x0 SWAP1 DUP2 MSTORE PUSH1 0x7 PUSH1 0x20 SWAP1 DUP2 MSTORE PUSH1 0x40 DUP1 DUP4 KECCAK256 CALLER DUP5 MSTORE SWAP1 SWAP2 MSTORE DUP2 KECCAK256 DUP1 SLOAD DUP5 SWAP3 SWAP1 PUSH2 0x908 SWAP1 DUP5 SWAP1 PUSH2 0x2E92 JUMP JUMPDEST SWAP3 POP POP DUP2 SWAP1 SSTORE POP DUP3 PUSH1 0x1 PUSH1 0x1 PUSH1 0xA0 SHL SUB AND DUP5 PUSH1 0x1 PUSH1 0x1 PUSH1 0xA0 SHL SUB AND PUSH32 0xDDF252AD1BE2C89B69C2B068FC378DAA952BA7F163C4A11628F55A4DF523B3EF DUP5 PUSH1 0x40 MLOAD PUSH2 0x954 SWAP2 DUP2 MSTORE PUSH1 0x20 ADD SWAP1 JUMP JUMPDEST PUSH1 0x40 MLOAD DUP1 SWAP2 SUB SWAP1 LOG3 POP PUSH1 0x1 JUMPDEST SWAP4 SWAP3 POP POP POP JUMP JUMPDEST DUP4 DUP4 DUP4 DUP4 PUSH1 0x40 MLOAD PUSH1 0x20 ADD PUSH2 0x97B SWAP2 SWAP1 PUSH2 0x2EB8 JUMP JUMPDEST PUSH1 0x40 DUP1 MLOAD PUSH1 0x1F NOT DUP2 DUP5 SUB ADD DUP2 MSTORE SWAP2 SWAP1 MSTORE PUSH1 0x0 SLOAD PUSH1 0xFF AND PUSH2 0x9AD JUMPI PUSH1 0x40 MLOAD PUSH3 0x461BCD PUSH1 0xE5 SHL DUP2 MSTORE PUSH1 0x4 ADD PUSH2 0x4FC SWAP1 PUSH2 0x2ED5 JUMP JUMPDEST PUSH1 0x0 DUP5 PUSH1 0x40 MLOAD PUSH1 0x20 ADD PUSH2 0x9C0 SWAP2 SWAP1 PUSH2 0x2F0C JUMP JUMPDEST PUSH1 0x40 DUP1 MLOAD PUSH1 0x1F NOT DUP2 DUP5 SUB ADD DUP2 MSTORE SWAP2 SWAP1 MSTORE DUP1 MLOAD PUSH1 0x20 SWAP1 SWAP2 ADD KECCAK256 SWAP1 POP PUSH1 0x0 DUP1 DUP3 DUP2 MSTORE PUSH1 0x2 PUSH1 0x20 DUP2 SWAP1 MSTORE PUSH1 0x40 SWAP1 SWAP2 KECCAK256 SLOAD PUSH1 0xFF AND SWAP1 DUP2 GT ISZERO PUSH2 0xA00 JUMPI PUSH2 0xA00 PUSH2 0x2812 JUMP JUMPDEST EQ PUSH2 0xA1D JUMPI PUSH1 0x40 MLOAD PUSH3 0x461BCD PUSH1 0xE5 SHL DUP2 MSTORE PUSH1 0x4 ADD PUSH2 0x4FC SWAP1 PUSH2 0x2F43 JUMP JUMPDEST PUSH1 0x0 DUP3 DUP5 PUSH1 0x40 MLOAD PUSH1 0x20 ADD PUSH2 0xA32 SWAP3 SWAP2 SWAP1 PUSH2 0x2F7A JUMP JUMPDEST PUSH1 0x40 DUP1 MLOAD PUSH1 0x1F NOT DUP2 DUP5 SUB ADD DUP2 MSTORE SWAP1 DUP3 SWAP1 MSTORE DUP1 MLOAD PUSH1 0x20 SWAP2 DUP3 ADD KECCAK256 DUP1 DUP4 MSTORE SWAP3 POP PUSH1 0x0 DUP1 MLOAD PUSH1 0x20 PUSH2 0x304B DUP4 CODECOPY DUP2 MLOAD SWAP2 MSTORE SWAP2 ADD PUSH1 0x40 MLOAD DUP1 SWAP2 SUB SWAP1 LOG1 PUSH1 0x0 PUSH2 0xA76 DUP3 DUP8 DUP10 PUSH2 0x1605 JUMP JUMPDEST PUSH1 0x0 DUP1 SLOAD PUSH2 0xFF00 NOT AND PUSH2 0x100 DUP4 ISZERO ISZERO MUL OR SWAP1 SSTORE SWAP1 POP DUP1 PUSH2 0xAFA JUMPI PUSH1 0x40 MLOAD DUP3 DUP2 MSTORE PUSH1 0x0 DUP1 MLOAD PUSH1 0x20 PUSH2 0x302B DUP4 CODECOPY DUP2 MLOAD SWAP2 MSTORE SWAP1 PUSH1 0x20 ADD JUMPDEST PUSH1 0x40 MLOAD DUP1 SWAP2 SUB SWAP1 LOG1 PUSH1 0x40 MLOAD PUSH3 0x461BCD PUSH1 0xE5 SHL DUP2 MSTORE PUSH1 0x20 PUSH1 0x4 DUP3 ADD DUP2 SWAP1 MSTORE PUSH1 0x24 DUP3 ADD MSTORE PUSH32 0x4C616D706F7274426173653A20566572696669636174696F6E206661696C6564 PUSH1 0x44 DUP3 ADD MSTORE PUSH1 0x64 ADD PUSH2 0x4FC JUMP JUMPDEST PUSH1 0x0 DUP4 DUP2 MSTORE PUSH1 0x2 PUSH1 0x20 MSTORE PUSH1 0x40 SWAP1 DUP2 SWAP1 KECCAK256 SLOAD SWAP1 MLOAD PUSH1 0x0 DUP1 MLOAD PUSH1 0x20 PUSH2 0x306B DUP4 CODECOPY DUP2 MLOAD SWAP2 MSTORE SWAP2 PUSH2 0xB30 SWAP2 PUSH1 0xFF SWAP1 SWAP2 AND SWAP1 DUP7 SWAP1 DUP10 SWAP1 PUSH2 0x284A JUMP JUMPDEST PUSH1 0x40 MLOAD DUP1 SWAP2 SUB SWAP1 LOG1 PUSH2 0xB42 DUP4 DUP7 PUSH2 0x2575 JUMP JUMPDEST POP POP CALLER PUSH1 0x0 SWAP1 DUP2 MSTORE PUSH1 0xC PUSH1 0x20 MSTORE PUSH1 0x40 SWAP1 KECCAK256 DUP1 SLOAD PUSH1 0x1 PUSH1 0x1 PUSH1 0xA0 SHL SUB NOT AND PUSH1 0x1 PUSH1 0x1 PUSH1 0xA0 SHL SUB SWAP8 SWAP1 SWAP8 AND SWAP7 SWAP1 SWAP7 OR SWAP1 SWAP6 SSTORE POP POP POP POP POP POP POP POP JUMP JUMPDEST PUSH1 0x0 DUP1 SLOAD PUSH1 0xFF AND PUSH2 0xB9F JUMPI PUSH1 0x40 MLOAD PUSH3 0x461BCD PUSH1 0xE5 SHL DUP2 MSTORE PUSH1 0x4 ADD PUSH2 0x4FC SWAP1 PUSH2 0x2ED5 JUMP JUMPDEST PUSH1 0x0 DUP6 PUSH1 0x40 MLOAD PUSH1 0x20 ADD PUSH2 0xBB2 SWAP2 SWAP1 PUSH2 0x2F0C JUMP JUMPDEST PUSH1 0x40 DUP1 MLOAD PUSH1 0x1F NOT DUP2 DUP5 SUB ADD DUP2 MSTORE SWAP2 SWAP1 MSTORE DUP1 MLOAD PUSH1 0x20 SWAP1 SWAP2 ADD KECCAK256 SWAP1 POP PUSH1 0x0 JUMPDEST PUSH1 0x0 DUP3 DUP2 MSTORE PUSH1 0x2 PUSH1 0x20 DUP2 SWAP1 MSTORE PUSH1 0x40 SWAP1 SWAP2 KECCAK256 SLOAD PUSH1 0xFF AND SWAP1 DUP2 GT ISZERO PUSH2 0xBF4 JUMPI PUSH2 0xBF4 PUSH2 0x2812 JUMP JUMPDEST EQ PUSH2 0xC03 JUMPI PUSH1 0x0 SWAP2 POP POP PUSH2 0xC65 JUMP JUMPDEST PUSH1 0x0 DUP4 DUP6 PUSH1 0x40 MLOAD PUSH1 0x20 ADD PUSH2 0xC18 SWAP3 SWAP2 SWAP1 PUSH2 0x2F7A JUMP JUMPDEST PUSH1 0x40 MLOAD PUSH1 0x20 DUP2 DUP4 SUB SUB DUP2 MSTORE SWAP1 PUSH1 0x40 MSTORE DUP1 MLOAD SWAP1 PUSH1 0x20 ADD KECCAK256 PUSH1 0x0 SHR SWAP1 POP PUSH1 0x0 PUSH2 0xC40 DUP3 DUP9 DUP11 PUSH2 0x1605 JUMP JUMPDEST SWAP1 POP DUP1 PUSH2 0xC53 JUMPI PUSH1 0x0 SWAP4 POP POP POP POP PUSH2 0xC65 JUMP JUMPDEST PUSH2 0xC5D DUP4 DUP8 PUSH2 0x2575 JUMP JUMPDEST PUSH1 0x1 SWAP4 POP POP POP POP JUMPDEST SWAP5 SWAP4 POP POP POP POP JUMP JUMPDEST PUSH1 0x0 DUP1 SLOAD PUSH1 0xFF AND PUSH2 0xC90 JUMPI PUSH1 0x40 MLOAD PUSH3 0x461BCD PUSH1 0xE5 SHL DUP2 MSTORE PUSH1 0x4 ADD PUSH2 0x4FC SWAP1 PUSH2 0x2ED5 JUMP JUMPDEST PUSH1 0x0 DUP6 PUSH1 0x40 MLOAD PUSH1 0x20 ADD PUSH2 0xCA3 SWAP2 SWAP1 PUSH2 0x2F0C JUMP JUMPDEST PUSH1 0x40 DUP1 MLOAD PUSH1 0x1F NOT DUP2 DUP5 SUB ADD DUP2 MSTORE SWAP2 SWAP1 MSTORE DUP1 MLOAD PUSH1 0x20 SWAP1 SWAP2 ADD KECCAK256 SWAP1 POP PUSH1 0x1 PUSH2 0xBCF JUMP JUMPDEST PUSH1 0x0 SLOAD DUP5 SWAP1 DUP5 SWAP1 DUP5 SWAP1 DUP5 SWAP1 PUSH1 0xFF AND PUSH2 0xCEE JUMPI PUSH1 0x40 MLOAD PUSH3 0x461BCD PUSH1 0xE5 SHL DUP2 MSTORE PUSH1 0x4 ADD PUSH2 0x4FC SWAP1 PUSH2 0x2ED5 JUMP JUMPDEST PUSH1 0x0 DUP5 PUSH1 0x40 MLOAD PUSH1 0x20 ADD PUSH2 0xD01 SWAP2 SWAP1 PUSH2 0x2F0C JUMP JUMPDEST PUSH1 0x40 DUP1 MLOAD PUSH1 0x1F NOT DUP2 DUP5 SUB ADD DUP2 MSTORE SWAP2 SWAP1 MSTORE DUP1 MLOAD PUSH1 0x20 SWAP1 SWAP2 ADD KECCAK256 SWAP1 POP PUSH1 0x0 DUP1 DUP3 DUP2 MSTORE PUSH1 0x2 PUSH1 0x20 DUP2 SWAP1 MSTORE PUSH1 0x40 SWAP1 SWAP2 KECCAK256 SLOAD PUSH1 0xFF AND SWAP1 DUP2 GT ISZERO PUSH2 0xD41 JUMPI PUSH2 0xD41 PUSH2 0x2812 JUMP JUMPDEST EQ PUSH2 0xD5E JUMPI PUSH1 0x40 MLOAD PUSH3 0x461BCD PUSH1 0xE5 SHL DUP2 MSTORE PUSH1 0x4 ADD PUSH2 0x4FC SWAP1 PUSH2 0x2F43 JUMP JUMPDEST PUSH1 0x0 DUP3 DUP5 PUSH1 0x40 MLOAD PUSH1 0x20 ADD PUSH2 0xD73 SWAP3 SWAP2 SWAP1 PUSH2 0x2F7A JUMP JUMPDEST PUSH1 0x40 DUP1 MLOAD PUSH1 0x1F NOT DUP2 DUP5 SUB ADD DUP2 MSTORE SWAP1 DUP3 SWAP1 MSTORE DUP1 MLOAD PUSH1 0x20 SWAP2 DUP3 ADD KECCAK256 DUP1 DUP4 MSTORE SWAP3 POP PUSH1 0x0 DUP1 MLOAD PUSH1 0x20 PUSH2 0x304B DUP4 CODECOPY DUP2 MLOAD SWAP2 MSTORE SWAP2 ADD PUSH1 0x40 MLOAD DUP1 SWAP2 SUB SWAP1 LOG1 PUSH1 0x0 PUSH2 0xDB7 DUP3 DUP8 DUP10 PUSH2 0x1605 JUMP JUMPDEST PUSH1 0x0 DUP1 SLOAD PUSH2 0xFF00 NOT AND PUSH2 0x100 DUP4 ISZERO ISZERO MUL OR SWAP1 SSTORE SWAP1 POP DUP1 PUSH2 0xDEF JUMPI PUSH1 0x40 MLOAD DUP3 DUP2 MSTORE PUSH1 0x0 DUP1 MLOAD PUSH1 0x20 PUSH2 0x302B DUP4 CODECOPY DUP2 MLOAD SWAP2 MSTORE SWAP1 PUSH1 0x20 ADD PUSH2 0xAAA JUMP JUMPDEST PUSH1 0x0 DUP4 DUP2 MSTORE PUSH1 0x2 PUSH1 0x20 MSTORE PUSH1 0x40 SWAP1 DUP2 SWAP1 KECCAK256 SLOAD SWAP1 MLOAD PUSH1 0x0 DUP1 MLOAD PUSH1 0x20 PUSH2 0x306B DUP4 CODECOPY DUP2 MLOAD SWAP2 MSTORE SWAP2 PUSH2 0xE25 SWAP2 PUSH1 0xFF SWAP1 SWAP2 AND SWAP1 DUP7 SWAP1 DUP10 SWAP1 PUSH2 0x284A JUMP JUMPDEST PUSH1 0x40 MLOAD DUP1 SWAP2 SUB SWAP1 LOG1 PUSH2 0xE37 DUP4 DUP7 PUSH2 0x2575 JUMP JUMPDEST POP POP POP PUSH1 0x5 SWAP6 SWAP1 SWAP6 SSTORE POP POP POP POP POP POP POP JUMP JUMPDEST DUP4 DUP4 DUP4 DUP4 PUSH1 0x40 MLOAD PUSH1 0x20 ADD PUSH2 0xE5F SWAP2 DUP2 MSTORE PUSH1 0x20 ADD SWAP1 JUMP JUMPDEST PUSH1 0x40 DUP1 MLOAD PUSH1 0x1F NOT DUP2 DUP5 SUB ADD DUP2 MSTORE SWAP2 SWAP1 MSTORE PUSH1 0x0 SLOAD PUSH1 0xFF AND PUSH2 0xE91 JUMPI PUSH1 0x40 MLOAD PUSH3 0x461BCD PUSH1 0xE5 SHL DUP2 MSTORE PUSH1 0x4 ADD PUSH2 0x4FC SWAP1 PUSH2 0x2ED5 JUMP JUMPDEST PUSH1 0x0 DUP5 PUSH1 0x40 MLOAD PUSH1 0x20 ADD PUSH2 0xEA4 SWAP2 SWAP1 PUSH2 0x2F0C JUMP JUMPDEST PUSH1 0x40 DUP1 MLOAD PUSH1 0x1F NOT DUP2 DUP5 SUB ADD DUP2 MSTORE SWAP2 SWAP1 MSTORE DUP1 MLOAD PUSH1 0x20 SWAP1 SWAP2 ADD KECCAK256 SWAP1 POP PUSH1 0x0 DUP1 DUP3 DUP2 MSTORE PUSH1 0x2 PUSH1 0x20 DUP2 SWAP1 MSTORE PUSH1 0x40 SWAP1 SWAP2 KECCAK256 SLOAD PUSH1 0xFF AND SWAP1 DUP2 GT ISZERO PUSH2 0xEE4 JUMPI PUSH2 0xEE4 PUSH2 0x2812 JUMP JUMPDEST EQ PUSH2 0xF01 JUMPI PUSH1 0x40 MLOAD PUSH3 0x461BCD PUSH1 0xE5 SHL DUP2 MSTORE PUSH1 0x4 ADD PUSH2 0x4FC SWAP1 PUSH2 0x2F43 JUMP JUMPDEST PUSH1 0x0 DUP3 DUP5 PUSH1 0x40 MLOAD PUSH1 0x20 ADD PUSH2 0xF16 SWAP3 SWAP2 SWAP1 PUSH2 0x2F7A JUMP JUMPDEST PUSH1 0x40 DUP1 MLOAD PUSH1 0x1F NOT DUP2 DUP5 SUB ADD DUP2 MSTORE SWAP1 DUP3 SWAP1 MSTORE DUP1 MLOAD PUSH1 0x20 SWAP2 DUP3 ADD KECCAK256 DUP1 DUP4 MSTORE SWAP3 POP PUSH1 0x0 DUP1 MLOAD PUSH1 0x20 PUSH2 0x304B DUP4 CODECOPY DUP2 MLOAD SWAP2 MSTORE SWAP2 ADD PUSH1 0x40 MLOAD DUP1 SWAP2 SUB SWAP1 LOG1 PUSH1 0x0 PUSH2 0xF5A DUP3 DUP8 DUP10 PUSH2 0x1605 JUMP JUMPDEST PUSH1 0x0 DUP1 SLOAD PUSH2 0xFF00 NOT AND PUSH2 0x100 DUP4 ISZERO ISZERO MUL OR SWAP1 SSTORE SWAP1 POP DUP1 PUSH2 0xF92 JUMPI PUSH1 0x40 MLOAD DUP3 DUP2 MSTORE PUSH1 0x0 DUP1 MLOAD PUSH1 0x20 PUSH2 0x302B DUP4 CODECOPY DUP2 MLOAD SWAP2 MSTORE SWAP1 PUSH1 0x20 ADD PUSH2 0xAAA JUMP JUMPDEST PUSH1 0x0 DUP4 DUP2 MSTORE PUSH1 0x2 PUSH1 0x20 MSTORE PUSH1 0x40 SWAP1 DUP2 SWAP1 KECCAK256 SLOAD SWAP1 MLOAD PUSH1 0x0 DUP1 MLOAD PUSH1 0x20 PUSH2 0x306B DUP4 CODECOPY DUP2 MLOAD SWAP2 MSTORE SWAP2 PUSH2 0xFC8 SWAP2 PUSH1 0xFF SWAP1 SWAP2 AND SWAP1 DUP7 SWAP1 DUP10 SWAP1 PUSH2 0x284A JUMP JUMPDEST PUSH1 0x40 MLOAD DUP1 SWAP2 SUB SWAP1 LOG1 PUSH2 0xFDA DUP4 DUP7 PUSH2 0x2575 JUMP JUMPDEST PUSH1 0x0 DUP12 PUSH1 0x40 MLOAD PUSH1 0x20 ADD PUSH2 0xFED SWAP2 SWAP1 PUSH2 0x2F0C JUMP JUMPDEST PUSH1 0x40 DUP1 MLOAD PUSH1 0x1F NOT DUP2 DUP5 SUB ADD DUP2 MSTORE SWAP2 SWAP1 MSTORE DUP1 MLOAD PUSH1 0x20 SWAP1 SWAP2 ADD KECCAK256 PUSH1 0x5 DUP1 SLOAD PUSH1 0x0 SWAP1 SWAP2 SSTORE SWAP1 SWAP2 POP DUP2 EQ ISZERO DUP1 PUSH2 0x1089 JUMPI PUSH1 0x40 DUP1 MLOAD PUSH3 0x461BCD PUSH1 0xE5 SHL DUP2 MSTORE PUSH1 0x20 PUSH1 0x4 DUP3 ADD MSTORE PUSH1 0x24 DUP2 ADD SWAP2 SWAP1 SWAP2 MSTORE PUSH32 0x4C616D706F7274426173653A20504B48206D617463686573206C617374207573 PUSH1 0x44 DUP3 ADD MSTORE PUSH32 0x656420504B482028757365207365706172617465207365636F6E64206B657929 PUSH1 0x64 DUP3 ADD MSTORE PUSH1 0x84 ADD PUSH2 0x4FC JUMP JUMPDEST PUSH2 0x1094 PUSH1 0x0 DUP12 PUSH2 0x245C JUMP JUMPDEST POP POP PUSH1 0x0 PUSH1 0x5 SSTORE POP POP POP POP POP POP POP POP POP POP POP JUMP JUMPDEST DUP3 DUP3 DUP3 PUSH1 0x0 PUSH1 0x40 MLOAD PUSH1 0x20 ADD PUSH2 0x10BD SWAP2 SWAP1 PUSH2 0x2EB8 JUMP JUMPDEST PUSH1 0x40 DUP1 MLOAD PUSH1 0x1F NOT DUP2 DUP5 SUB ADD DUP2 MSTORE SWAP2 SWAP1 MSTORE PUSH1 0x0 SLOAD PUSH1 0xFF AND PUSH2 0x10EF JUMPI PUSH1 0x40 MLOAD PUSH3 0x461BCD PUSH1 0xE5 SHL DUP2 MSTORE PUSH1 0x4 ADD PUSH2 0x4FC SWAP1 PUSH2 0x2ED5 JUMP JUMPDEST PUSH1 0x0 DUP5 PUSH1 0x40 MLOAD PUSH1 0x20 ADD PUSH2 0x1102 SWAP2 SWAP1 PUSH2 0x2F0C JUMP JUMPDEST PUSH1 0x40 DUP1 MLOAD PUSH1 0x1F NOT DUP2 DUP5 SUB ADD DUP2 MSTORE SWAP2 SWAP1 MSTORE DUP1 MLOAD PUSH1 0x20 SWAP1 SWAP2 ADD KECCAK256 SWAP1 POP PUSH1 0x0 DUP1 DUP3 DUP2 MSTORE PUSH1 0x2 PUSH1 0x20 DUP2 SWAP1 MSTORE PUSH1 0x40 SWAP1 SWAP2 KECCAK256 SLOAD PUSH1 0xFF AND SWAP1 DUP2 GT ISZERO PUSH2 0x1142 JUMPI PUSH2 0x1142 PUSH2 0x2812 JUMP JUMPDEST EQ PUSH2 0x115F JUMPI PUSH1 0x40 MLOAD PUSH3 0x461BCD PUSH1 0xE5 SHL DUP2 MSTORE PUSH1 0x4 ADD PUSH2 0x4FC SWAP1 PUSH2 0x2F43 JUMP JUMPDEST PUSH1 0x0 DUP3 DUP5 PUSH1 0x40 MLOAD PUSH1 0x20 ADD PUSH2 0x1174 SWAP3 SWAP2 SWAP1 PUSH2 0x2F7A JUMP JUMPDEST PUSH1 0x40 DUP1 MLOAD PUSH1 0x1F NOT DUP2 DUP5 SUB ADD DUP2 MSTORE SWAP1 DUP3 SWAP1 MSTORE DUP1 MLOAD PUSH1 0x20 SWAP2 DUP3 ADD KECCAK256 DUP1 DUP4 MSTORE SWAP3 POP PUSH1 0x0 DUP1 MLOAD PUSH1 0x20 PUSH2 0x304B DUP4 CODECOPY DUP2 MLOAD SWAP2 MSTORE SWAP2 ADD PUSH1 0x40 MLOAD DUP1 SWAP2 SUB SWAP1 LOG1 PUSH1 0x0 PUSH2 0x11B8 DUP3 DUP8 DUP10 PUSH2 0x1605 JUMP JUMPDEST PUSH1 0x0 DUP1 SLOAD PUSH2 0xFF00 NOT AND PUSH2 0x100 DUP4 ISZERO ISZERO MUL OR SWAP1 SSTORE SWAP1 POP DUP1 PUSH2 0x11F0 JUMPI PUSH1 0x40 MLOAD DUP3 DUP2 MSTORE PUSH1 0x0 DUP1 MLOAD PUSH1 0x20 PUSH2 0x302B DUP4 CODECOPY DUP2 MLOAD SWAP2 MSTORE SWAP1 PUSH1 0x20 ADD PUSH2 0xAAA JUMP JUMPDEST PUSH1 0x0 DUP4 DUP2 MSTORE PUSH1 0x2 PUSH1 0x20 MSTORE PUSH1 0x40 SWAP1 DUP2 SWAP1 KECCAK256 SLOAD SWAP1 MLOAD PUSH1 0x0 DUP1 MLOAD PUSH1 0x20 PUSH2 0x306B DUP4 CODECOPY DUP2 MLOAD SWAP2 MSTORE SWAP2 PUSH2 0x1226 SWAP2 PUSH1 0xFF SWAP1 SWAP2 AND SWAP1 DUP7 SWAP1 DUP10 SWAP1 PUSH2 0x284A JUMP JUMPDEST PUSH1 0x40 MLOAD DUP1 SWAP2 SUB SWAP1 LOG1 PUSH2 0x1238 DUP4 DUP7 PUSH2 0x2575 JUMP JUMPDEST CALLER PUSH1 0x0 SWAP1 DUP2 MSTORE PUSH1 0xC PUSH1 0x20 MSTORE PUSH1 0x40 SWAP1 KECCAK256 SLOAD PUSH1 0x1 PUSH1 0x1 PUSH1 0xA0 SHL SUB AND ISZERO PUSH2 0x12AA JUMPI PUSH1 0x40 MLOAD PUSH3 0x461BCD PUSH1 0xE5 SHL DUP2 MSTORE PUSH1 0x20 PUSH1 0x4 DUP3 ADD MSTORE PUSH1 0x23 PUSH1 0x24 DUP3 ADD MSTORE PUSH32 0x4D7945524332303A204E6F206D696E7465722072656D6F76616C2070726F706F PUSH1 0x44 DUP3 ADD MSTORE PUSH3 0x1CD959 PUSH1 0xEA SHL PUSH1 0x64 DUP3 ADD MSTORE PUSH1 0x84 ADD PUSH2 0x4FC JUMP JUMPDEST PUSH1 0xB SLOAD PUSH1 0x1 PUSH1 0x1 PUSH1 0xA0 SHL SUB AND PUSH2 0x12FB JUMPI PUSH1 0x40 MLOAD PUSH3 0x461BCD PUSH1 0xE5 SHL DUP2 MSTORE PUSH1 0x20 PUSH1 0x4 DUP3 ADD MSTORE PUSH1 0x16 PUSH1 0x24 DUP3 ADD MSTORE PUSH22 0x135E515490CC8C0E88139BC81B5A5B9D195C881CD95D PUSH1 0x52 SHL PUSH1 0x44 DUP3 ADD MSTORE PUSH1 0x64 ADD PUSH2 0x4FC JUMP JUMPDEST PUSH1 0xB SLOAD PUSH1 0x40 MLOAD PUSH1 0x1 PUSH1 0x1 PUSH1 0xA0 SHL SUB SWAP1 SWAP2 AND SWAP1 PUSH32 0xC6711413797B8A562634E98C95D50E7619D39702ED5B82CE335DC93546C3A88C SWAP1 PUSH1 0x0 SWAP1 LOG2 POP POP PUSH1 0xB DUP1 SLOAD PUSH1 0x1 PUSH1 0x1 PUSH1 0xA0 SHL SUB NOT SWAP1 DUP2 AND SWAP1 SWAP2 SSTORE CALLER PUSH1 0x0 SWAP1 DUP2 MSTORE PUSH1 0xC PUSH1 0x20 MSTORE PUSH1 0x40 SWAP1 KECCAK256 DUP1 SLOAD SWAP1 SWAP2 AND SWAP1 SSTORE POP POP POP POP POP POP POP POP JUMP JUMPDEST DUP4 DUP3 DUP5 DUP4 PUSH1 0x40 MLOAD PUSH1 0x20 ADD PUSH2 0x137E SWAP2 DUP2 MSTORE PUSH1 0x20 ADD SWAP1 JUMP JUMPDEST PUSH1 0x40 DUP1 MLOAD PUSH1 0x1F NOT DUP2 DUP5 SUB ADD DUP2 MSTORE SWAP2 SWAP1 MSTORE PUSH1 0x0 SLOAD PUSH1 0xFF AND PUSH2 0x13B0 JUMPI PUSH1 0x40 MLOAD PUSH3 0x461BCD PUSH1 0xE5 SHL DUP2 MSTORE PUSH1 0x4 ADD PUSH2 0x4FC SWAP1 PUSH2 0x2ED5 JUMP JUMPDEST PUSH1 0x0 DUP5 PUSH1 0x40 MLOAD PUSH1 0x20 ADD PUSH2 0x13C3 SWAP2 SWAP1 PUSH2 0x2F0C JUMP JUMPDEST PUSH1 0x40 DUP1 MLOAD PUSH1 0x1F NOT DUP2 DUP5 SUB ADD DUP2 MSTORE SWAP2 SWAP1 MSTORE DUP1 MLOAD PUSH1 0x20 SWAP1 SWAP2 ADD KECCAK256 SWAP1 POP PUSH1 0x0 DUP1 DUP3 DUP2 MSTORE PUSH1 0x2 PUSH1 0x20 DUP2 SWAP1 MSTORE PUSH1 0x40 SWAP1 SWAP2 KECCAK256 SLOAD PUSH1 0xFF AND SWAP1 DUP2 GT ISZERO PUSH2 0x1403 JUMPI PUSH2 0x1403 PUSH2 0x2812 JUMP JUMPDEST EQ PUSH2 0x1420 JUMPI PUSH1 0x40 MLOAD PUSH3 0x461BCD PUSH1 0xE5 SHL DUP2 MSTORE PUSH1 0x4 ADD PUSH2 0x4FC SWAP1 PUSH2 0x2F43 JUMP JUMPDEST PUSH1 0x0 DUP3 DUP5 PUSH1 0x40 MLOAD PUSH1 0x20 ADD PUSH2 0x1435 SWAP3 SWAP2 SWAP1 PUSH2 0x2F7A JUMP JUMPDEST PUSH1 0x40 DUP1 MLOAD PUSH1 0x1F NOT DUP2 DUP5 SUB ADD DUP2 MSTORE SWAP1 DUP3 SWAP1 MSTORE DUP1 MLOAD PUSH1 0x20 SWAP2 DUP3 ADD KECCAK256 DUP1 DUP4 MSTORE SWAP3 POP PUSH1 0x0 DUP1 MLOAD PUSH1 0x20 PUSH2 0x304B DUP4 CODECOPY DUP2 MLOAD SWAP2 MSTORE SWAP2 ADD PUSH1 0x40 MLOAD DUP1 SWAP2 SUB SWAP1 LOG1 PUSH1 0x0 PUSH2 0x1479 DUP3 DUP8 DUP10 PUSH2 0x1605 JUMP JUMPDEST PUSH1 0x0 DUP1 SLOAD PUSH2 0xFF00 NOT AND PUSH2 0x100 DUP4 ISZERO ISZERO MUL OR SWAP1 SSTORE SWAP1 POP DUP1 PUSH2 0x14B1 JUMPI PUSH1 0x40 MLOAD DUP3 DUP2 MSTORE PUSH1 0x0 DUP1 MLOAD PUSH1 0x20 PUSH2 0x302B DUP4 CODECOPY DUP2 MLOAD SWAP2 MSTORE SWAP1 PUSH1 0x20 ADD PUSH2 0xAAA JUMP JUMPDEST PUSH1 0x0 DUP4 DUP2 MSTORE PUSH1 0x2 PUSH1 0x20 MSTORE PUSH1 0x40 SWAP1 DUP2 SWAP1 KECCAK256 SLOAD SWAP1 MLOAD PUSH1 0x0 DUP1 MLOAD PUSH1 0x20 PUSH2 0x306B DUP4 CODECOPY DUP2 MLOAD SWAP2 MSTORE SWAP2 PUSH2 0x14E7 SWAP2 PUSH1 0xFF SWAP1 SWAP2 AND SWAP1 DUP7 SWAP1 DUP10 SWAP1 PUSH2 0x284A JUMP JUMPDEST PUSH1 0x40 MLOAD DUP1 SWAP2 SUB SWAP1 LOG1 PUSH2 0x14F9 DUP4 DUP7 PUSH2 0x2575 JUMP JUMPDEST PUSH2 0x1504 PUSH1 0x1 DUP10 PUSH2 0x245C JUMP JUMPDEST POP POP POP POP POP POP POP POP POP POP POP JUMP JUMPDEST PUSH1 0x60 PUSH1 0xA DUP1 SLOAD PUSH2 0x593 SWAP1 PUSH2 0x2DCF JUMP JUMPDEST PUSH1 0x0 PUSH1 0x1 PUSH1 0x1 PUSH1 0xA0 SHL SUB DUP4 AND PUSH2 0x1548 JUMPI PUSH1 0x40 MLOAD PUSH3 0x461BCD PUSH1 0xE5 SHL DUP2 MSTORE PUSH1 0x4 ADD PUSH2 0x4FC SWAP1 PUSH2 0x2E09 JUMP JUMPDEST CALLER PUSH1 0x0 SWAP1 DUP2 MSTORE PUSH1 0x6 PUSH1 0x20 MSTORE PUSH1 0x40 SWAP1 KECCAK256 SLOAD DUP3 GT ISZERO PUSH2 0x1577 JUMPI PUSH1 0x40 MLOAD PUSH3 0x461BCD PUSH1 0xE5 SHL DUP2 MSTORE PUSH1 0x4 ADD PUSH2 0x4FC SWAP1 PUSH2 0x2E4C JUMP JUMPDEST CALLER PUSH1 0x0 SWAP1 DUP2 MSTORE PUSH1 0x6 PUSH1 0x20 MSTORE PUSH1 0x40 DUP2 KECCAK256 DUP1 SLOAD DUP5 SWAP3 SWAP1 PUSH2 0x1596 SWAP1 DUP5 SWAP1 PUSH2 0x2E92 JUMP JUMPDEST SWAP1 SWAP2 SSTORE POP POP PUSH1 0x1 PUSH1 0x1 PUSH1 0xA0 SHL SUB DUP4 AND PUSH1 0x0 SWAP1 DUP2 MSTORE PUSH1 0x6 PUSH1 0x20 MSTORE PUSH1 0x40 DUP2 KECCAK256 DUP1 SLOAD DUP5 SWAP3 SWAP1 PUSH2 0x15C3 SWAP1 DUP5 SWAP1 PUSH2 0x2EA5 JUMP JUMPDEST SWAP1 SWAP2 SSTORE POP POP PUSH1 0x40 MLOAD DUP3 DUP2 MSTORE PUSH1 0x1 PUSH1 0x1 PUSH1 0xA0 SHL SUB DUP5 AND SWAP1 CALLER SWAP1 PUSH32 0xDDF252AD1BE2C89B69C2B068FC378DAA952BA7F163C4A11628F55A4DF523B3EF SWAP1 PUSH1 0x20 ADD PUSH2 0x6CD JUMP JUMPDEST PUSH1 0x0 DUP1 JUMPDEST PUSH2 0x100 DUP2 LT ISZERO PUSH2 0x16AD JUMPI DUP4 DUP2 PUSH2 0x100 DUP2 LT PUSH2 0x1626 JUMPI PUSH2 0x1626 PUSH2 0x2D8A JUMP JUMPDEST PUSH1 0x20 MUL DUP2 ADD SWAP1 PUSH2 0x1636 SWAP2 SWAP1 PUSH2 0x2F9C JUMP JUMPDEST PUSH1 0x40 MLOAD PUSH2 0x1644 SWAP3 SWAP2 SWAP1 PUSH2 0x2FEA JUMP JUMPDEST PUSH1 0x40 MLOAD DUP1 SWAP2 SUB SWAP1 KECCAK256 DUP4 DUP3 PUSH2 0x100 DUP2 LT PUSH2 0x165F JUMPI PUSH2 0x165F PUSH2 0x2D8A JUMP JUMPDEST PUSH1 0x40 MUL ADD PUSH1 0x0 DUP4 PUSH1 0xFF SUB PUSH1 0x1 SWAP1 SHL DUP9 AND GT PUSH2 0x167B JUMPI PUSH1 0x0 PUSH2 0x167E JUMP JUMPDEST PUSH1 0x1 JUMPDEST PUSH1 0xFF AND PUSH1 0x2 DUP2 LT PUSH2 0x1691 JUMPI PUSH2 0x1691 PUSH2 0x2D8A JUMP JUMPDEST PUSH1 0x20 MUL ADD CALLDATALOAD EQ PUSH2 0x16A5 JUMPI PUSH1 0x0 SWAP2 POP POP PUSH2 0x960 JUMP JUMPDEST PUSH1 0x1 ADD PUSH2 0x1609 JUMP JUMPDEST POP PUSH1 0x1 SWAP5 SWAP4 POP POP POP POP JUMP JUMPDEST PUSH1 0x1 SLOAD PUSH1 0x60 SWAP1 PUSH1 0x0 SWAP1 PUSH8 0xFFFFFFFFFFFFFFFF DUP2 GT ISZERO PUSH2 0x16D9 JUMPI PUSH2 0x16D9 PUSH2 0x2A1A JUMP JUMPDEST PUSH1 0x40 MLOAD SWAP1 DUP1 DUP3 MSTORE DUP1 PUSH1 0x20 MUL PUSH1 0x20 ADD DUP3 ADD PUSH1 0x40 MSTORE DUP1 ISZERO PUSH2 0x1702 JUMPI DUP2 PUSH1 0x20 ADD PUSH1 0x20 DUP3 MUL DUP1 CALLDATASIZE DUP4 CALLDATACOPY ADD SWAP1 POP JUMPDEST POP SWAP1 POP PUSH1 0x0 DUP1 JUMPDEST PUSH1 0x1 SLOAD DUP2 LT ISZERO PUSH2 0x17C3 JUMPI DUP5 PUSH1 0x2 DUP2 GT ISZERO PUSH2 0x1725 JUMPI PUSH2 0x1725 PUSH2 0x2812 JUMP JUMPDEST PUSH1 0x1 DUP3 DUP2 SLOAD DUP2 LT PUSH2 0x1738 JUMPI PUSH2 0x1738 PUSH2 0x2D8A JUMP JUMPDEST PUSH1 0x0 SWAP2 DUP3 MSTORE PUSH1 0x20 SWAP1 SWAP2 KECCAK256 PUSH1 0x2 SWAP2 DUP3 MUL ADD SLOAD PUSH1 0xFF AND SWAP1 DUP2 GT ISZERO PUSH2 0x175C JUMPI PUSH2 0x175C PUSH2 0x2812 JUMP JUMPDEST SUB PUSH2 0x17B1 JUMPI PUSH1 0x1 DUP2 DUP2 SLOAD DUP2 LT PUSH2 0x1774 JUMPI PUSH2 0x1774 PUSH2 0x2D8A JUMP JUMPDEST SWAP1 PUSH1 0x0 MSTORE PUSH1 0x20 PUSH1 0x0 KECCAK256 SWAP1 PUSH1 0x2 MUL ADD PUSH1 0x1 ADD SLOAD DUP4 DUP4 DUP2 MLOAD DUP2 LT PUSH2 0x1798 JUMPI PUSH2 0x1798 PUSH2 0x2D8A JUMP JUMPDEST PUSH1 0x20 SWAP1 DUP2 MUL SWAP2 SWAP1 SWAP2 ADD ADD MSTORE DUP2 PUSH2 0x17AD DUP2 PUSH2 0x2DB6 JUMP JUMPDEST SWAP3 POP POP JUMPDEST DUP1 PUSH2 0x17BB DUP2 PUSH2 0x2DB6 JUMP JUMPDEST SWAP2 POP POP PUSH2 0x1709 JUMP JUMPDEST POP PUSH1 0x0 DUP2 PUSH8 0xFFFFFFFFFFFFFFFF DUP2 GT ISZERO PUSH2 0x17DF JUMPI PUSH2 0x17DF PUSH2 0x2A1A JUMP JUMPDEST PUSH1 0x40 MLOAD SWAP1 DUP1 DUP3 MSTORE DUP1 PUSH1 0x20 MUL PUSH1 0x20 ADD DUP3 ADD PUSH1 0x40 MSTORE DUP1 ISZERO PUSH2 0x1808 JUMPI DUP2 PUSH1 0x20 ADD PUSH1 0x20 DUP3 MUL DUP1 CALLDATASIZE DUP4 CALLDATACOPY ADD SWAP1 POP JUMPDEST POP SWAP1 POP PUSH1 0x0 JUMPDEST DUP3 DUP2 LT ISZERO PUSH2 0x185F JUMPI DUP4 DUP2 DUP2 MLOAD DUP2 LT PUSH2 0x1828 JUMPI PUSH2 0x1828 PUSH2 0x2D8A JUMP JUMPDEST PUSH1 0x20 MUL PUSH1 0x20 ADD ADD MLOAD DUP3 DUP3 DUP2 MLOAD DUP2 LT PUSH2 0x1842 JUMPI PUSH2 0x1842 PUSH2 0x2D8A JUMP JUMPDEST PUSH1 0x20 SWAP1 DUP2 MUL SWAP2 SWAP1 SWAP2 ADD ADD MSTORE DUP1 PUSH2 0x1857 DUP2 PUSH2 0x2DB6 JUMP JUMPDEST SWAP2 POP POP PUSH2 0x180E JUMP JUMPDEST POP SWAP5 SWAP4 POP POP POP POP JUMP JUMPDEST DUP4 DUP4 DUP4 DUP4 PUSH1 0x40 MLOAD PUSH1 0x20 ADD PUSH2 0x187E SWAP2 DUP2 MSTORE PUSH1 0x20 ADD SWAP1 JUMP JUMPDEST PUSH1 0x40 DUP1 MLOAD PUSH1 0x1F NOT DUP2 DUP5 SUB ADD DUP2 MSTORE SWAP2 SWAP1 MSTORE PUSH1 0x0 SLOAD PUSH1 0xFF AND PUSH2 0x18B0 JUMPI PUSH1 0x40 MLOAD PUSH3 0x461BCD PUSH1 0xE5 SHL DUP2 MSTORE PUSH1 0x4 ADD PUSH2 0x4FC SWAP1 PUSH2 0x2ED5 JUMP JUMPDEST PUSH1 0x0 DUP5 PUSH1 0x40 MLOAD PUSH1 0x20 ADD PUSH2 0x18C3 SWAP2 SWAP1 PUSH2 0x2F0C JUMP JUMPDEST PUSH1 0x40 DUP1 MLOAD PUSH1 0x1F NOT DUP2 DUP5 SUB ADD DUP2 MSTORE SWAP2 SWAP1 MSTORE DUP1 MLOAD PUSH1 0x20 SWAP1 SWAP2 ADD KECCAK256 SWAP1 POP PUSH1 0x0 DUP1 DUP3 DUP2 MSTORE PUSH1 0x2 PUSH1 0x20 DUP2 SWAP1 MSTORE PUSH1 0x40 SWAP1 SWAP2 KECCAK256 SLOAD PUSH1 0xFF AND SWAP1 DUP2 GT ISZERO PUSH2 0x1903 JUMPI PUSH2 0x1903 PUSH2 0x2812 JUMP JUMPDEST EQ PUSH2 0x1920 JUMPI PUSH1 0x40 MLOAD PUSH3 0x461BCD PUSH1 0xE5 SHL DUP2 MSTORE PUSH1 0x4 ADD PUSH2 0x4FC SWAP1 PUSH2 0x2F43 JUMP JUMPDEST PUSH1 0x0 DUP3 DUP5 PUSH1 0x40 MLOAD PUSH1 0x20 ADD PUSH2 0x1935 SWAP3 SWAP2 SWAP1 PUSH2 0x2F7A JUMP JUMPDEST PUSH1 0x40 DUP1 MLOAD PUSH1 0x1F NOT DUP2 DUP5 SUB ADD DUP2 MSTORE SWAP1 DUP3 SWAP1 MSTORE DUP1 MLOAD PUSH1 0x20 SWAP2 DUP3 ADD KECCAK256 DUP1 DUP4 MSTORE SWAP3 POP PUSH1 0x0 DUP1 MLOAD PUSH1 0x20 PUSH2 0x304B DUP4 CODECOPY DUP2 MLOAD SWAP2 MSTORE SWAP2 ADD PUSH1 0x40 MLOAD DUP1 SWAP2 SUB SWAP1 LOG1 PUSH1 0x0 PUSH2 0x1979 DUP3 DUP8 DUP10 PUSH2 0x1605 JUMP JUMPDEST PUSH1 0x0 DUP1 SLOAD PUSH2 0xFF00 NOT AND PUSH2 0x100 DUP4 ISZERO ISZERO MUL OR SWAP1 SSTORE SWAP1 POP DUP1 PUSH2 0x19B1 JUMPI PUSH1 0x40 MLOAD DUP3 DUP2 MSTORE PUSH1 0x0 DUP1 MLOAD PUSH1 0x20 PUSH2 0x302B DUP4 CODECOPY DUP2 MLOAD SWAP2 MSTORE SWAP1 PUSH1 0x20 ADD PUSH2 0xAAA JUMP JUMPDEST PUSH1 0x0 DUP4 DUP2 MSTORE PUSH1 0x2 PUSH1 0x20 MSTORE PUSH1 0x40 SWAP1 DUP2 SWAP1 KECCAK256 SLOAD SWAP1 MLOAD PUSH1 0x0 DUP1 MLOAD PUSH1 0x20 PUSH2 0x306B DUP4 CODECOPY DUP2 MLOAD SWAP2 MSTORE SWAP2 PUSH2 0x19E7 SWAP2 PUSH1 0xFF SWAP1 SWAP2 AND SWAP1 DUP7 SWAP1 DUP10 SWAP1 PUSH2 0x284A JUMP JUMPDEST PUSH1 0x40 MLOAD DUP1 SWAP2 SUB SWAP1 LOG1 PUSH2 0x19F9 DUP4 DUP7 PUSH2 0x2575 JUMP JUMPDEST POP POP POP PUSH1 0x3 SWAP5 SWAP1 SWAP5 SSTORE POP POP POP PUSH1 0x4 SWAP2 SWAP1 SWAP2 SSTORE POP POP POP JUMP JUMPDEST PUSH1 0xB SLOAD PUSH1 0x40 MLOAD DUP5 SWAP2 DUP5 SWAP2 DUP5 SWAP2 PUSH2 0x1A34 SWAP2 PUSH1 0x1 PUSH1 0x1 PUSH1 0xA0 SHL SUB SWAP1 SWAP2 AND SWAP1 PUSH1 0x20 ADD PUSH2 0x2EB8 JUMP JUMPDEST PUSH1 0x40 DUP1 MLOAD PUSH1 0x1F NOT DUP2 DUP5 SUB ADD DUP2 MSTORE SWAP2 SWAP1 MSTORE PUSH1 0x0 SLOAD PUSH1 0xFF AND PUSH2 0x1A66 JUMPI PUSH1 0x40 MLOAD PUSH3 0x461BCD PUSH1 0xE5 SHL DUP2 MSTORE PUSH1 0x4 ADD PUSH2 0x4FC SWAP1 PUSH2 0x2ED5 JUMP JUMPDEST PUSH1 0x0 DUP5 PUSH1 0x40 MLOAD PUSH1 0x20 ADD PUSH2 0x1A79 SWAP2 SWAP1 PUSH2 0x2F0C JUMP JUMPDEST PUSH1 0x40 DUP1 MLOAD PUSH1 0x1F NOT DUP2 DUP5 SUB ADD DUP2 MSTORE SWAP2 SWAP1 MSTORE DUP1 MLOAD PUSH1 0x20 SWAP1 SWAP2 ADD KECCAK256 SWAP1 POP PUSH1 0x0 DUP1 DUP3 DUP2 MSTORE PUSH1 0x2 PUSH1 0x20 DUP2 SWAP1 MSTORE PUSH1 0x40 SWAP1 SWAP2 KECCAK256 SLOAD PUSH1 0xFF AND SWAP1 DUP2 GT ISZERO PUSH2 0x1AB9 JUMPI PUSH2 0x1AB9 PUSH2 0x2812 JUMP JUMPDEST EQ PUSH2 0x1AD6 JUMPI PUSH1 0x40 MLOAD PUSH3 0x461BCD PUSH1 0xE5 SHL DUP2 MSTORE PUSH1 0x4 ADD PUSH2 0x4FC SWAP1 PUSH2 0x2F43 JUMP JUMPDEST PUSH1 0x0 DUP3 DUP5 PUSH1 0x40 MLOAD PUSH1 0x20 ADD PUSH2 0x1AEB SWAP3 SWAP2 SWAP1 PUSH2 0x2F7A JUMP JUMPDEST PUSH1 0x40 DUP1 MLOAD PUSH1 0x1F NOT DUP2 DUP5 SUB ADD DUP2 MSTORE SWAP1 DUP3 SWAP1 MSTORE DUP1 MLOAD PUSH1 0x20 SWAP2 DUP3 ADD KECCAK256 DUP1 DUP4 MSTORE SWAP3 POP PUSH1 0x0 DUP1 MLOAD PUSH1 0x20 PUSH2 0x304B DUP4 CODECOPY DUP2 MLOAD SWAP2 MSTORE SWAP2 ADD PUSH1 0x40 MLOAD DUP1 SWAP2 SUB SWAP1 LOG1 PUSH1 0x0 PUSH2 0x1B2F DUP3 DUP8 DUP10 PUSH2 0x1605 JUMP JUMPDEST PUSH1 0x0 DUP1 SLOAD PUSH2 0xFF00 NOT AND PUSH2 0x100 DUP4 ISZERO ISZERO MUL OR SWAP1 SSTORE SWAP1 POP DUP1 PUSH2 0x1B67 JUMPI PUSH1 0x40 MLOAD DUP3 DUP2 MSTORE PUSH1 0x0 DUP1 MLOAD PUSH1 0x20 PUSH2 0x302B DUP4 CODECOPY DUP2 MLOAD SWAP2 MSTORE SWAP1 PUSH1 0x20 ADD PUSH2 0xAAA JUMP JUMPDEST PUSH1 0x0 DUP4 DUP2 MSTORE PUSH1 0x2 PUSH1 0x20 MSTORE PUSH1 0x40 SWAP1 DUP2 SWAP1 KECCAK256 SLOAD SWAP1 MLOAD PUSH1 0x0 DUP1 MLOAD PUSH1 0x20 PUSH2 0x306B DUP4 CODECOPY DUP2 MLOAD SWAP2 MSTORE SWAP2 PUSH2 0x1B9D SWAP2 PUSH1 0xFF SWAP1 SWAP2 AND SWAP1 DUP7 SWAP1 DUP10 SWAP1 PUSH2 0x284A JUMP JUMPDEST PUSH1 0x40 MLOAD DUP1 SWAP2 SUB SWAP1 LOG1 PUSH2 0x1BAF DUP4 DUP7 PUSH2 0x2575 JUMP JUMPDEST POP POP CALLER PUSH1 0x0 SWAP1 DUP2 MSTORE PUSH1 0xC PUSH1 0x20 MSTORE PUSH1 0x40 SWAP1 KECCAK256 DUP1 SLOAD PUSH1 0x1 PUSH1 0x1 PUSH1 0xA0 SHL SUB NOT AND SWAP1 SSTORE POP POP POP POP POP POP POP POP JUMP JUMPDEST DUP4 DUP4 DUP4 DUP4 PUSH1 0x40 MLOAD PUSH1 0x20 ADD PUSH2 0x1BEE SWAP2 DUP2 MSTORE PUSH1 0x20 ADD SWAP1 JUMP JUMPDEST PUSH1 0x40 DUP1 MLOAD PUSH1 0x1F NOT DUP2 DUP5 SUB ADD DUP2 MSTORE SWAP2 SWAP1 MSTORE PUSH1 0x0 SLOAD PUSH1 0xFF AND PUSH2 0x1C20 JUMPI PUSH1 0x40 MLOAD PUSH3 0x461BCD PUSH1 0xE5 SHL DUP2 MSTORE PUSH1 0x4 ADD PUSH2 0x4FC SWAP1 PUSH2 0x2ED5 JUMP JUMPDEST PUSH1 0x0 DUP5 PUSH1 0x40 MLOAD PUSH1 0x20 ADD PUSH2 0x1C33 SWAP2 SWAP1 PUSH2 0x2F0C JUMP JUMPDEST PUSH1 0x40 DUP1 MLOAD PUSH1 0x1F NOT DUP2 DUP5 SUB ADD DUP2 MSTORE SWAP2 SWAP1 MSTORE DUP1 MLOAD PUSH1 0x20 SWAP1 SWAP2 ADD KECCAK256 SWAP1 POP PUSH1 0x0 DUP1 DUP3 DUP2 MSTORE PUSH1 0x2 PUSH1 0x20 DUP2 SWAP1 MSTORE PUSH1 0x40 SWAP1 SWAP2 KECCAK256 SLOAD PUSH1 0xFF AND SWAP1 DUP2 GT ISZERO PUSH2 0x1C73 JUMPI PUSH2 0x1C73 PUSH2 0x2812 JUMP JUMPDEST EQ PUSH2 0x1C90 JUMPI PUSH1 0x40 MLOAD PUSH3 0x461BCD PUSH1 0xE5 SHL DUP2 MSTORE PUSH1 0x4 ADD PUSH2 0x4FC SWAP1 PUSH2 0x2F43 JUMP JUMPDEST PUSH1 0x0 DUP3 DUP5 PUSH1 0x40 MLOAD PUSH1 0x20 ADD PUSH2 0x1CA5 SWAP3 SWAP2 SWAP1 PUSH2 0x2F7A JUMP JUMPDEST PUSH1 0x40 DUP1 MLOAD PUSH1 0x1F NOT DUP2 DUP5 SUB ADD DUP2 MSTORE SWAP1 DUP3 SWAP1 MSTORE DUP1 MLOAD PUSH1 0x20 SWAP2 DUP3 ADD KECCAK256 DUP1 DUP4 MSTORE SWAP3 POP PUSH1 0x0 DUP1 MLOAD PUSH1 0x20 PUSH2 0x304B DUP4 CODECOPY DUP2 MLOAD SWAP2 MSTORE SWAP2 ADD PUSH1 0x40 MLOAD DUP1 SWAP2 SUB SWAP1 LOG1 PUSH1 0x0 PUSH2 0x1CE9 DUP3 DUP8 DUP10 PUSH2 0x1605 JUMP JUMPDEST PUSH1 0x0 DUP1 SLOAD PUSH2 0xFF00 NOT AND PUSH2 0x100 DUP4 ISZERO ISZERO MUL OR SWAP1 SSTORE SWAP1 POP DUP1 PUSH2 0x1D21 JUMPI PUSH1 0x40 MLOAD DUP3 DUP2 MSTORE PUSH1 0x0 DUP1 MLOAD PUSH1 0x20 PUSH2 0x302B DUP4 CODECOPY DUP2 MLOAD SWAP2 MSTORE SWAP1 PUSH1 0x20 ADD PUSH2 0xAAA JUMP JUMPDEST PUSH1 0x0 DUP4 DUP2 MSTORE PUSH1 0x2 PUSH1 0x20 MSTORE PUSH1 0x40 SWAP1 DUP2 SWAP1 KECCAK256 SLOAD SWAP1 MLOAD PUSH1 0x0 DUP1 MLOAD PUSH1 0x20 PUSH2 0x306B DUP4 CODECOPY DUP2 MLOAD SWAP2 MSTORE SWAP2 PUSH2 0x1D57 SWAP2 PUSH1 0xFF SWAP1 SWAP2 AND SWAP1 DUP7 SWAP1 DUP10 SWAP1 PUSH2 0x284A JUMP JUMPDEST PUSH1 0x40 MLOAD DUP1 SWAP2 SUB SWAP1 LOG1 PUSH2 0x1D69 DUP4 DUP7 PUSH2 0x2575 JUMP JUMPDEST PUSH1 0x0 DUP12 PUSH1 0x40 MLOAD PUSH1 0x20 ADD PUSH2 0x1D7C SWAP2 SWAP1 PUSH2 0x2F0C JUMP JUMPDEST PUSH1 0x40 MLOAD PUSH1 0x20 DUP2 DUP4 SUB SUB DUP2 MSTORE SWAP1 PUSH1 0x40 MSTORE DUP1 MLOAD SWAP1 PUSH1 0x20 ADD KECCAK256 SWAP1 POP PUSH1 0x4 SLOAD DUP2 SUB PUSH2 0x1E15 JUMPI PUSH1 0x40 MLOAD PUSH3 0x461BCD PUSH1 0xE5 SHL DUP2 MSTORE PUSH1 0x20 PUSH1 0x4 DUP3 ADD MSTORE PUSH1 0x41 PUSH1 0x24 DUP3 ADD MSTORE PUSH32 0x4C616D706F7274426173653A2043616E6E6F7420757365207468652073616D65 PUSH1 0x44 DUP3 ADD MSTORE PUSH32 0x206B6579636861696E20747769636520666F7220746869732066756E6374696F PUSH1 0x64 DUP3 ADD MSTORE PUSH1 0x37 PUSH1 0xF9 SHL PUSH1 0x84 DUP3 ADD MSTORE PUSH1 0xA4 ADD PUSH2 0x4FC JUMP JUMPDEST DUP9 PUSH1 0x3 SLOAD EQ PUSH2 0x1E66 JUMPI PUSH1 0x40 MLOAD PUSH3 0x461BCD PUSH1 0xE5 SHL DUP2 MSTORE PUSH1 0x20 PUSH1 0x4 DUP3 ADD MSTORE PUSH1 0x1E PUSH1 0x24 DUP3 ADD MSTORE PUSH32 0x4C616D706F7274426173653A204B65797320646F206E6F74206D617463680000 PUSH1 0x44 DUP3 ADD MSTORE PUSH1 0x64 ADD PUSH2 0x4FC JUMP JUMPDEST PUSH1 0x4 SLOAD DUP2 DUP11 PUSH1 0x0 DUP1 DUP5 DUP2 MSTORE PUSH1 0x2 PUSH1 0x20 DUP2 SWAP1 MSTORE PUSH1 0x40 SWAP1 SWAP2 KECCAK256 SLOAD PUSH1 0xFF AND SWAP1 DUP2 GT ISZERO PUSH2 0x1E91 JUMPI PUSH2 0x1E91 PUSH2 0x2812 JUMP JUMPDEST EQ DUP1 ISZERO PUSH2 0x1EBF JUMPI POP PUSH1 0x0 DUP3 DUP2 MSTORE PUSH1 0x2 PUSH1 0x20 DUP2 SWAP1 MSTORE PUSH1 0x40 DUP3 KECCAK256 SLOAD PUSH1 0xFF AND SWAP1 DUP2 GT ISZERO PUSH2 0x1EBD JUMPI PUSH2 0x1EBD PUSH2 0x2812 JUMP JUMPDEST EQ JUMPDEST PUSH2 0x1F22 JUMPI PUSH1 0x40 MLOAD PUSH3 0x461BCD PUSH1 0xE5 SHL DUP2 MSTORE PUSH1 0x20 PUSH1 0x4 DUP3 ADD MSTORE PUSH1 0x2E PUSH1 0x24 DUP3 ADD MSTORE PUSH32 0x4C616D706F7274426173653A2050726F7669646564206B65797320617265206E PUSH1 0x44 DUP3 ADD MSTORE PUSH14 0x6F74206D6173746572206B657973 PUSH1 0x90 SHL PUSH1 0x64 DUP3 ADD MSTORE PUSH1 0x84 ADD PUSH2 0x4FC JUMP JUMPDEST DUP3 DUP2 EQ ISZERO DUP1 ISZERO PUSH2 0x1F32 JUMPI POP DUP2 DUP2 EQ ISZERO JUMPDEST PUSH2 0x1F98 JUMPI PUSH1 0x40 MLOAD PUSH3 0x461BCD PUSH1 0xE5 SHL DUP2 MSTORE PUSH1 0x20 PUSH1 0x4 DUP3 ADD MSTORE PUSH1 0x31 PUSH1 0x24 DUP3 ADD MSTORE PUSH32 0x4C616D706F7274426173653A204D6173746572206B6579732063616E6E6F7420 PUSH1 0x44 DUP3 ADD MSTORE PUSH17 0x64656C657465207468656D73656C766573 PUSH1 0x78 SHL PUSH1 0x64 DUP3 ADD MSTORE PUSH1 0x84 ADD PUSH2 0x4FC JUMP JUMPDEST PUSH1 0x0 DUP2 DUP2 MSTORE PUSH1 0x2 PUSH1 0x20 MSTORE PUSH1 0x40 DUP2 KECCAK256 PUSH1 0x1 ADD SLOAD SWAP1 SUB PUSH2 0x2004 JUMPI PUSH1 0x40 MLOAD PUSH3 0x461BCD PUSH1 0xE5 SHL DUP2 MSTORE PUSH1 0x20 PUSH1 0x4 DUP3 ADD MSTORE PUSH1 0x23 PUSH1 0x24 DUP3 ADD MSTORE PUSH32 0x4C616D706F7274426173653A204E6F2073756368206B6579202864656C657469 PUSH1 0x44 DUP3 ADD MSTORE PUSH3 0x6F6E29 PUSH1 0xE8 SHL PUSH1 0x64 DUP3 ADD MSTORE PUSH1 0x84 ADD PUSH2 0x4FC JUMP JUMPDEST PUSH1 0x0 JUMPDEST PUSH1 0x1 SLOAD DUP2 LT ISZERO PUSH2 0x20F1 JUMPI DUP2 PUSH1 0x1 DUP3 DUP2 SLOAD DUP2 LT PUSH2 0x2025 JUMPI PUSH2 0x2025 PUSH2 0x2D8A JUMP JUMPDEST SWAP1 PUSH1 0x0 MSTORE PUSH1 0x20 PUSH1 0x0 KECCAK256 SWAP1 PUSH1 0x2 MUL ADD PUSH1 0x1 ADD SLOAD SUB PUSH2 0x20DF JUMPI PUSH1 0x0 DUP3 DUP2 MSTORE PUSH1 0x2 PUSH1 0x20 DUP2 DUP2 MSTORE PUSH1 0x40 DUP1 DUP5 KECCAK256 DUP1 SLOAD DUP3 MLOAD TIMESTAMP DUP2 DUP7 ADD MSTORE DIFFICULTY DUP2 DUP6 ADD MSTORE DUP4 MLOAD DUP1 DUP3 SUB DUP6 ADD DUP2 MSTORE PUSH1 0x60 SWAP1 SWAP2 ADD SWAP4 DUP5 SWAP1 MSTORE DUP1 MLOAD SWAP1 DUP6 ADD KECCAK256 SWAP6 DUP9 SWAP1 MSTORE SWAP3 DUP5 SWAP1 MSTORE PUSH4 0xDE1E7ED PUSH1 0xE4 SHL DUP6 XOR PUSH1 0x1 DUP3 ADD DUP2 SWAP1 SSTORE PUSH1 0xFF NOT DUP5 AND DUP6 OR SWAP1 SWAP2 SSTORE PUSH1 0xFF SWAP1 SWAP3 AND SWAP4 SWAP2 SWAP3 PUSH32 0x643BE3612916977C69D5ED1ABB75A50CCA49DF49BA2444D836E2A0CF65FE074 SWAP2 PUSH2 0x20CF SWAP2 DUP7 SWAP2 DUP10 SWAP2 DUP8 SWAP2 PUSH2 0x2FFA JUMP JUMPDEST PUSH1 0x40 MLOAD DUP1 SWAP2 SUB SWAP1 LOG1 POP POP POP PUSH2 0x20F1 JUMP JUMPDEST DUP1 PUSH2 0x20E9 DUP2 PUSH2 0x2DB6 JUMP JUMPDEST SWAP2 POP POP PUSH2 0x2007 JUMP JUMPDEST POP POP PUSH1 0x0 PUSH1 0x3 DUP2 SWAP1 SSTORE PUSH1 0x4 SSTORE POP POP POP POP POP POP POP POP POP POP POP POP POP POP JUMP JUMPDEST DUP4 DUP4 DUP4 DUP4 PUSH1 0x40 MLOAD PUSH1 0x20 ADD PUSH2 0x2121 SWAP2 SWAP1 PUSH2 0x2EB8 JUMP JUMPDEST PUSH1 0x40 DUP1 MLOAD PUSH1 0x1F NOT DUP2 DUP5 SUB ADD DUP2 MSTORE SWAP2 SWAP1 MSTORE PUSH1 0x0 SLOAD PUSH1 0xFF AND PUSH2 0x2153 JUMPI PUSH1 0x40 MLOAD PUSH3 0x461BCD PUSH1 0xE5 SHL DUP2 MSTORE PUSH1 0x4 ADD PUSH2 0x4FC SWAP1 PUSH2 0x2ED5 JUMP JUMPDEST PUSH1 0x0 DUP5 PUSH1 0x40 MLOAD PUSH1 0x20 ADD PUSH2 0x2166 SWAP2 SWAP1 PUSH2 0x2F0C JUMP JUMPDEST PUSH1 0x40 DUP1 MLOAD PUSH1 0x1F NOT DUP2 DUP5 SUB ADD DUP2 MSTORE SWAP2 SWAP1 MSTORE DUP1 MLOAD PUSH1 0x20 SWAP1 SWAP2 ADD KECCAK256 SWAP1 POP PUSH1 0x0 DUP1 DUP3 DUP2 MSTORE PUSH1 0x2 PUSH1 0x20 DUP2 SWAP1 MSTORE PUSH1 0x40 SWAP1 SWAP2 KECCAK256 SLOAD PUSH1 0xFF AND SWAP1 DUP2 GT ISZERO PUSH2 0x21A6 JUMPI PUSH2 0x21A6 PUSH2 0x2812 JUMP JUMPDEST EQ PUSH2 0x21C3 JUMPI PUSH1 0x40 MLOAD PUSH3 0x461BCD PUSH1 0xE5 SHL DUP2 MSTORE PUSH1 0x4 ADD PUSH2 0x4FC SWAP1 PUSH2 0x2F43 JUMP JUMPDEST PUSH1 0x0 DUP3 DUP5 PUSH1 0x40 MLOAD PUSH1 0x20 ADD PUSH2 0x21D8 SWAP3 SWAP2 SWAP1 PUSH2 0x2F7A JUMP JUMPDEST PUSH1 0x40 DUP1 MLOAD PUSH1 0x1F NOT DUP2 DUP5 SUB ADD DUP2 MSTORE SWAP1 DUP3 SWAP1 MSTORE DUP1 MLOAD PUSH1 0x20 SWAP2 DUP3 ADD KECCAK256 DUP1 DUP4 MSTORE SWAP3 POP PUSH1 0x0 DUP1 MLOAD PUSH1 0x20 PUSH2 0x304B DUP4 CODECOPY DUP2 MLOAD SWAP2 MSTORE SWAP2 ADD PUSH1 0x40 MLOAD DUP1 SWAP2 SUB SWAP1 LOG1 PUSH1 0x0 PUSH2 0x221C DUP3 DUP8 DUP10 PUSH2 0x1605 JUMP JUMPDEST PUSH1 0x0 DUP1 SLOAD PUSH2 0xFF00 NOT AND PUSH2 0x100 DUP4 ISZERO ISZERO MUL OR SWAP1 SSTORE SWAP1 POP DUP1 PUSH2 0x2254 JUMPI PUSH1 0x40 MLOAD DUP3 DUP2 MSTORE PUSH1 0x0 DUP1 MLOAD PUSH1 0x20 PUSH2 0x302B DUP4 CODECOPY DUP2 MLOAD SWAP2 MSTORE SWAP1 PUSH1 0x20 ADD PUSH2 0xAAA JUMP JUMPDEST PUSH1 0x0 DUP4 DUP2 MSTORE PUSH1 0x2 PUSH1 0x20 MSTORE PUSH1 0x40 SWAP1 DUP2 SWAP1 KECCAK256 SLOAD SWAP1 MLOAD PUSH1 0x0 DUP1 MLOAD PUSH1 0x20 PUSH2 0x306B DUP4 CODECOPY DUP2 MLOAD SWAP2 MSTORE SWAP2 PUSH2 0x228A SWAP2 PUSH1 0xFF SWAP1 SWAP2 AND SWAP1 DUP7 SWAP1 DUP10 SWAP1 PUSH2 0x284A JUMP JUMPDEST PUSH1 0x40 MLOAD DUP1 SWAP2 SUB SWAP1 LOG1 PUSH2 0x229C DUP4 DUP7 PUSH2 0x2575 JUMP JUMPDEST CALLER PUSH1 0x0 SWAP1 DUP2 MSTORE PUSH1 0xC PUSH1 0x20 MSTORE PUSH1 0x40 SWAP1 KECCAK256 SLOAD PUSH1 0x1 PUSH1 0x1 PUSH1 0xA0 SHL SUB DUP10 DUP2 AND SWAP2 AND EQ PUSH2 0x2306 JUMPI PUSH1 0x40 MLOAD PUSH3 0x461BCD PUSH1 0xE5 SHL DUP2 MSTORE PUSH1 0x20 PUSH1 0x4 DUP3 ADD DUP2 SWAP1 MSTORE PUSH1 0x24 DUP3 ADD MSTORE PUSH32 0x4D7945524332303A204D696E7465722061646472657373206D69736D61746368 PUSH1 0x44 DUP3 ADD MSTORE PUSH1 0x64 ADD PUSH2 0x4FC JUMP JUMPDEST PUSH1 0xB SLOAD PUSH1 0x1 PUSH1 0x1 PUSH1 0xA0 SHL SUB AND ISZERO DUP1 PUSH2 0x232B JUMPI POP PUSH1 0xB SLOAD PUSH1 0x1 PUSH1 0x1 PUSH1 0xA0 SHL SUB DUP10 DUP2 AND SWAP2 AND EQ JUMPDEST PUSH2 0x2383 JUMPI PUSH1 0x40 MLOAD PUSH3 0x461BCD PUSH1 0xE5 SHL DUP2 MSTORE PUSH1 0x20 PUSH1 0x4 DUP3 ADD MSTORE PUSH1 0x23 PUSH1 0x24 DUP3 ADD MSTORE PUSH32 0x4D7945524332303A20416E6F74686572206D696E74657220616C726561647920 PUSH1 0x44 DUP3 ADD MSTORE PUSH3 0x1CD95D PUSH1 0xEA SHL PUSH1 0x64 DUP3 ADD MSTORE PUSH1 0x84 ADD PUSH2 0x4FC JUMP JUMPDEST PUSH1 0xB DUP1 SLOAD PUSH1 0x1 PUSH1 0x1 PUSH1 0xA0 SHL SUB NOT AND PUSH1 0x1 PUSH1 0x1 PUSH1 0xA0 SHL SUB DUP11 AND SWAP1 DUP2 OR SWAP1 SWAP2 SSTORE PUSH1 0x40 MLOAD PUSH32 0xFE7C7FCB0AE0CE6BFD0A653FA3AB6C97A51A0819E6C27CDAB8A08D456338C5FA SWAP1 PUSH1 0x0 SWAP1 LOG2 POP POP CALLER PUSH1 0x0 SWAP1 DUP2 MSTORE PUSH1 0xC PUSH1 0x20 MSTORE PUSH1 0x40 SWAP1 KECCAK256 DUP1 SLOAD PUSH1 0x1 PUSH1 0x1 PUSH1 0xA0 SHL SUB NOT AND SWAP1 SSTORE POP POP POP POP POP POP POP POP POP JUMP JUMPDEST PUSH1 0xB SLOAD PUSH1 0x1 PUSH1 0x1 PUSH1 0xA0 SHL SUB AND CALLER EQ PUSH2 0x244E JUMPI PUSH1 0x40 MLOAD PUSH3 0x461BCD PUSH1 0xE5 SHL DUP2 MSTORE PUSH1 0x20 PUSH1 0x4 DUP3 ADD MSTORE PUSH1 0x1C PUSH1 0x24 DUP3 ADD MSTORE PUSH32 0x47505F4D696E743A20556E617574686F72697A6564206D696E74657200000000 PUSH1 0x44 DUP3 ADD MSTORE PUSH1 0x64 ADD PUSH2 0x4FC JUMP JUMPDEST PUSH2 0x2458 DUP3 DUP3 PUSH2 0x2717 JUMP JUMPDEST POP POP JUMP JUMPDEST PUSH1 0x0 PUSH1 0x40 MLOAD DUP1 PUSH1 0x40 ADD PUSH1 0x40 MSTORE DUP1 DUP5 PUSH1 0x2 DUP2 GT ISZERO PUSH2 0x247B JUMPI PUSH2 0x247B PUSH2 0x2812 JUMP JUMPDEST DUP2 MSTORE PUSH1 0x20 ADD DUP4 SWAP1 MSTORE PUSH1 0x1 DUP1 SLOAD DUP1 DUP3 ADD DUP3 SSTORE PUSH1 0x0 DUP3 SWAP1 MSTORE DUP3 MLOAD PUSH1 0x2 SWAP2 DUP3 MUL PUSH32 0xB10E2D527612073B26EECDFD717E6A320CF44B4AFAC2B0732D9FCBE2B7FA0CF6 ADD DUP1 SLOAD SWAP5 SWAP6 POP DUP6 SWAP5 SWAP1 SWAP4 SWAP2 SWAP3 DUP5 SWAP3 PUSH1 0xFF NOT SWAP1 SWAP3 AND SWAP2 SWAP1 DUP5 SWAP1 DUP2 GT ISZERO PUSH2 0x24E0 JUMPI PUSH2 0x24E0 PUSH2 0x2812 JUMP JUMPDEST MUL OR SWAP1 SSTORE POP PUSH1 0x20 SWAP2 DUP3 ADD MLOAD PUSH1 0x1 SWAP2 DUP3 ADD SSTORE PUSH1 0x0 DUP5 DUP2 MSTORE PUSH1 0x2 SWAP3 DUP4 SWAP1 MSTORE PUSH1 0x40 SWAP1 KECCAK256 DUP4 MLOAD DUP2 SLOAD DUP6 SWAP5 SWAP3 SWAP4 SWAP2 SWAP3 DUP5 SWAP3 PUSH1 0xFF NOT SWAP1 SWAP3 AND SWAP2 SWAP1 DUP5 SWAP1 DUP2 GT ISZERO PUSH2 0x2525 JUMPI PUSH2 0x2525 PUSH2 0x2812 JUMP JUMPDEST MUL OR SWAP1 SSTORE POP PUSH1 0x20 DUP3 ADD MLOAD DUP2 PUSH1 0x1 ADD SSTORE SWAP1 POP POP PUSH32 0x2172C7B01A6DE957D29FD6166A23025D181BF56538AD606A526AB2D62603F3FC DUP4 DUP4 PUSH1 0x40 MLOAD PUSH2 0x2568 SWAP3 SWAP2 SWAP1 PUSH2 0x2932 JUMP JUMPDEST PUSH1 0x40 MLOAD DUP1 SWAP2 SUB SWAP1 LOG1 POP POP POP JUMP JUMPDEST PUSH1 0x0 DUP3 DUP2 MSTORE PUSH1 0x2 PUSH1 0x20 MSTORE PUSH1 0x40 DUP2 KECCAK256 PUSH1 0x1 ADD SLOAD SWAP1 SUB PUSH2 0x25A5 JUMPI PUSH1 0x40 MLOAD PUSH3 0x461BCD PUSH1 0xE5 SHL DUP2 MSTORE PUSH1 0x4 ADD PUSH2 0x4FC SWAP1 PUSH2 0x2D53 JUMP JUMPDEST PUSH1 0x40 DUP1 MLOAD DUP1 DUP3 ADD DUP3 MSTORE PUSH1 0x0 DUP5 DUP2 MSTORE PUSH1 0x2 PUSH1 0x20 DUP2 SWAP1 MSTORE SWAP3 DUP2 KECCAK256 SLOAD SWAP1 SWAP3 DUP3 SWAP2 PUSH1 0xFF AND SWAP1 DUP2 GT ISZERO PUSH2 0x25D5 JUMPI PUSH2 0x25D5 PUSH2 0x2812 JUMP JUMPDEST DUP2 MSTORE PUSH1 0x20 ADD DUP4 DUP2 MSTORE POP SWAP1 POP DUP1 PUSH1 0x2 PUSH1 0x0 DUP5 DUP2 MSTORE PUSH1 0x20 ADD SWAP1 DUP2 MSTORE PUSH1 0x20 ADD PUSH1 0x0 KECCAK256 PUSH1 0x0 DUP3 ADD MLOAD DUP2 PUSH1 0x0 ADD PUSH1 0x0 PUSH2 0x100 EXP DUP2 SLOAD DUP2 PUSH1 0xFF MUL NOT AND SWAP1 DUP4 PUSH1 0x2 DUP2 GT ISZERO PUSH2 0x261E JUMPI PUSH2 0x261E PUSH2 0x2812 JUMP JUMPDEST MUL OR SWAP1 SSTORE POP PUSH1 0x20 SWAP2 DUP3 ADD MLOAD PUSH1 0x1 SWAP2 DUP3 ADD SSTORE PUSH1 0x0 DUP6 DUP2 MSTORE PUSH1 0x2 SWAP1 SWAP3 MSTORE PUSH1 0x40 DUP3 KECCAK256 DUP1 SLOAD PUSH1 0xFF NOT AND DUP2 SSTORE ADD DUP2 SWAP1 SSTORE JUMPDEST PUSH1 0x1 SLOAD DUP2 LT ISZERO PUSH2 0x26F4 JUMPI DUP4 PUSH1 0x1 DUP3 DUP2 SLOAD DUP2 LT PUSH2 0x2668 JUMPI PUSH2 0x2668 PUSH2 0x2D8A JUMP JUMPDEST SWAP1 PUSH1 0x0 MSTORE PUSH1 0x20 PUSH1 0x0 KECCAK256 SWAP1 PUSH1 0x2 MUL ADD PUSH1 0x1 ADD SLOAD SUB PUSH2 0x26E2 JUMPI DUP2 PUSH1 0x1 DUP3 DUP2 SLOAD DUP2 LT PUSH2 0x2693 JUMPI PUSH2 0x2693 PUSH2 0x2D8A JUMP JUMPDEST SWAP1 PUSH1 0x0 MSTORE PUSH1 0x20 PUSH1 0x0 KECCAK256 SWAP1 PUSH1 0x2 MUL ADD PUSH1 0x0 DUP3 ADD MLOAD DUP2 PUSH1 0x0 ADD PUSH1 0x0 PUSH2 0x100 EXP DUP2 SLOAD DUP2 PUSH1 0xFF MUL NOT AND SWAP1 DUP4 PUSH1 0x2 DUP2 GT ISZERO PUSH2 0x26CB JUMPI PUSH2 0x26CB PUSH2 0x2812 JUMP JUMPDEST MUL OR SWAP1 SSTORE POP PUSH1 0x20 DUP3 ADD MLOAD DUP2 PUSH1 0x1 ADD SSTORE SWAP1 POP POP PUSH2 0x26F4 JUMP JUMPDEST DUP1 PUSH2 0x26EC DUP2 PUSH2 0x2DB6 JUMP JUMPDEST SWAP2 POP POP PUSH2 0x264A JUMP JUMPDEST POP DUP1 MLOAD PUSH1 0x40 MLOAD PUSH1 0x0 DUP1 MLOAD PUSH1 0x20 PUSH2 0x306B DUP4 CODECOPY DUP2 MLOAD SWAP2 MSTORE SWAP2 PUSH2 0x2568 SWAP2 DUP7 SWAP1 DUP7 SWAP1 PUSH2 0x284A JUMP JUMPDEST PUSH1 0xB SLOAD PUSH1 0x1 PUSH1 0x1 PUSH1 0xA0 SHL SUB AND CALLER EQ PUSH2 0x2771 JUMPI PUSH1 0x40 MLOAD PUSH3 0x461BCD PUSH1 0xE5 SHL DUP2 MSTORE PUSH1 0x20 PUSH1 0x4 DUP3 ADD MSTORE PUSH1 0x1C PUSH1 0x24 DUP3 ADD MSTORE PUSH32 0x47505F4D696E743A20556E617574686F72697A6564206D696E74657200000000 PUSH1 0x44 DUP3 ADD MSTORE PUSH1 0x64 ADD PUSH2 0x4FC JUMP JUMPDEST DUP1 PUSH1 0x8 PUSH1 0x0 DUP3 DUP3 SLOAD PUSH2 0x2783 SWAP2 SWAP1 PUSH2 0x2EA5 JUMP JUMPDEST SWAP1 SWAP2 SSTORE POP POP PUSH1 0x1 PUSH1 0x1 PUSH1 0xA0 SHL SUB DUP3 AND PUSH1 0x0 SWAP1 DUP2 MSTORE PUSH1 0x6 PUSH1 0x20 MSTORE PUSH1 0x40 DUP2 KECCAK256 DUP1 SLOAD DUP4 SWAP3 SWAP1 PUSH2 0x27B0 SWAP1 DUP5 SWAP1 PUSH2 0x2EA5 JUMP JUMPDEST SWAP1 SWAP2 SSTORE POP POP PUSH1 0x40 MLOAD DUP2 DUP2 MSTORE PUSH1 0x1 PUSH1 0x1 PUSH1 0xA0 SHL SUB DUP4 AND SWAP1 CALLER SWAP1 PUSH32 0x9D228D69B5FDB8D273A2336F8FB8612D039631024EA9BF09C424A9503AA078F0 SWAP1 PUSH1 0x20 ADD PUSH1 0x40 MLOAD DUP1 SWAP2 SUB SWAP1 LOG3 POP POP JUMP JUMPDEST PUSH1 0x0 PUSH1 0x20 DUP3 DUP5 SUB SLT ISZERO PUSH2 0x280B JUMPI PUSH1 0x0 DUP1 REVERT JUMPDEST POP CALLDATALOAD SWAP2 SWAP1 POP JUMP JUMPDEST PUSH4 0x4E487B71 PUSH1 0xE0 SHL PUSH1 0x0 MSTORE PUSH1 0x21 PUSH1 0x4 MSTORE PUSH1 0x24 PUSH1 0x0 REVERT JUMPDEST PUSH1 0x3 DUP2 LT PUSH2 0x2846 JUMPI PUSH4 0x4E487B71 PUSH1 0xE0 SHL PUSH1 0x0 MSTORE PUSH1 0x21 PUSH1 0x4 MSTORE PUSH1 0x24 PUSH1 0x0 REVERT JUMPDEST SWAP1 MSTORE JUMP JUMPDEST PUSH1 0x60 DUP2 ADD PUSH2 0x2858 DUP3 DUP7 PUSH2 0x2828 JUMP JUMPDEST PUSH1 0x20 DUP3 ADD SWAP4 SWAP1 SWAP4 MSTORE PUSH1 0x40 ADD MSTORE SWAP2 SWAP1 POP JUMP JUMPDEST PUSH1 0x0 JUMPDEST DUP4 DUP2 LT ISZERO PUSH2 0x2884 JUMPI DUP2 DUP2 ADD MLOAD DUP4 DUP3 ADD MSTORE PUSH1 0x20 ADD PUSH2 0x286C JUMP JUMPDEST POP POP PUSH1 0x0 SWAP2 ADD MSTORE JUMP JUMPDEST PUSH1 0x20 DUP2 MSTORE PUSH1 0x0 DUP3 MLOAD DUP1 PUSH1 0x20 DUP5 ADD MSTORE PUSH2 0x28AC DUP2 PUSH1 0x40 DUP6 ADD PUSH1 0x20 DUP8 ADD PUSH2 0x2869 JUMP JUMPDEST PUSH1 0x1F ADD PUSH1 0x1F NOT AND SWAP2 SWAP1 SWAP2 ADD PUSH1 0x40 ADD SWAP3 SWAP2 POP POP JUMP JUMPDEST DUP1 CALLDATALOAD PUSH1 0x1 PUSH1 0x1 PUSH1 0xA0 SHL SUB DUP2 AND DUP2 EQ PUSH2 0x28D7 JUMPI PUSH1 0x0 DUP1 REVERT JUMPDEST SWAP2 SWAP1 POP JUMP JUMPDEST PUSH1 0x0 DUP1 PUSH1 0x40 DUP4 DUP6 SUB SLT ISZERO PUSH2 0x28EF JUMPI PUSH1 0x0 DUP1 REVERT JUMPDEST PUSH2 0x28F8 DUP4 PUSH2 0x28C0 JUMP JUMPDEST SWAP5 PUSH1 0x20 SWAP4 SWAP1 SWAP4 ADD CALLDATALOAD SWAP4 POP POP POP JUMP JUMPDEST PUSH1 0x0 DUP1 PUSH1 0x0 PUSH1 0x60 DUP5 DUP7 SUB SLT ISZERO PUSH2 0x291B JUMPI PUSH1 0x0 DUP1 REVERT JUMPDEST POP POP DUP2 CALLDATALOAD SWAP4 PUSH1 0x20 DUP4 ADD CALLDATALOAD SWAP4 POP PUSH1 0x40 SWAP1 SWAP3 ADD CALLDATALOAD SWAP2 SWAP1 POP JUMP JUMPDEST PUSH1 0x40 DUP2 ADD PUSH2 0x2940 DUP3 DUP6 PUSH2 0x2828 JUMP JUMPDEST DUP3 PUSH1 0x20 DUP4 ADD MSTORE SWAP4 SWAP3 POP POP POP JUMP JUMPDEST PUSH1 0x0 DUP1 PUSH1 0x0 PUSH1 0x60 DUP5 DUP7 SUB SLT ISZERO PUSH2 0x2962 JUMPI PUSH1 0x0 DUP1 REVERT JUMPDEST PUSH2 0x296B DUP5 PUSH2 0x28C0 JUMP JUMPDEST SWAP3 POP PUSH2 0x2979 PUSH1 0x20 DUP6 ADD PUSH2 0x28C0 JUMP JUMPDEST SWAP2 POP PUSH1 0x40 DUP5 ADD CALLDATALOAD SWAP1 POP SWAP3 POP SWAP3 POP SWAP3 JUMP JUMPDEST DUP1 PUSH2 0x4000 DUP2 ADD DUP4 LT ISZERO PUSH2 0x6D9 JUMPI PUSH1 0x0 DUP1 REVERT JUMPDEST DUP1 PUSH2 0x2000 DUP2 ADD DUP4 LT ISZERO PUSH2 0x6D9 JUMPI PUSH1 0x0 DUP1 REVERT JUMPDEST PUSH1 0x0 DUP1 PUSH1 0x0 DUP1 PUSH2 0x4060 DUP6 DUP8 SUB SLT ISZERO PUSH2 0x29C4 JUMPI PUSH1 0x0 DUP1 REVERT JUMPDEST PUSH2 0x29CE DUP7 DUP7 PUSH2 0x2989 JUMP JUMPDEST SWAP4 POP PUSH2 0x4000 DUP6 ADD CALLDATALOAD PUSH8 0xFFFFFFFFFFFFFFFF DUP2 GT ISZERO PUSH2 0x29EB JUMPI PUSH1 0x0 DUP1 REVERT JUMPDEST PUSH2 0x29F7 DUP8 DUP3 DUP9 ADD PUSH2 0x299B JUMP JUMPDEST SWAP4 POP POP PUSH2 0x4020 DUP6 ADD CALLDATALOAD SWAP2 POP PUSH2 0x2A0F PUSH2 0x4040 DUP7 ADD PUSH2 0x28C0 JUMP JUMPDEST SWAP1 POP SWAP3 SWAP6 SWAP2 SWAP5 POP SWAP3 POP JUMP JUMPDEST PUSH4 0x4E487B71 PUSH1 0xE0 SHL PUSH1 0x0 MSTORE PUSH1 0x41 PUSH1 0x4 MSTORE PUSH1 0x24 PUSH1 0x0 REVERT JUMPDEST PUSH1 0x0 DUP1 PUSH1 0x0 DUP1 PUSH2 0x4060 DUP6 DUP8 SUB SLT ISZERO PUSH2 0x2A47 JUMPI PUSH1 0x0 DUP1 REVERT JUMPDEST PUSH2 0x2A51 DUP7 DUP7 PUSH2 0x2989 JUMP JUMPDEST SWAP4 POP PUSH2 0x4000 DUP6 ADD CALLDATALOAD PUSH8 0xFFFFFFFFFFFFFFFF DUP1 DUP3 GT ISZERO PUSH2 0x2A6F JUMPI PUSH1 0x0 DUP1 REVERT JUMPDEST PUSH2 0x2A7B DUP9 DUP4 DUP10 ADD PUSH2 0x299B JUMP JUMPDEST SWAP5 POP PUSH2 0x4020 DUP8 ADD CALLDATALOAD SWAP4 POP PUSH2 0x4040 DUP8 ADD CALLDATALOAD SWAP2 POP DUP1 DUP3 GT ISZERO PUSH2 0x2A9A JUMPI PUSH1 0x0 DUP1 REVERT JUMPDEST DUP2 DUP8 ADD SWAP2 POP DUP8 PUSH1 0x1F DUP4 ADD SLT PUSH2 0x2AAE JUMPI PUSH1 0x0 DUP1 REVERT JUMPDEST DUP2 CALLDATALOAD DUP2 DUP2 GT ISZERO PUSH2 0x2AC0 JUMPI PUSH2 0x2AC0 PUSH2 0x2A1A JUMP JUMPDEST PUSH1 0x40 MLOAD PUSH1 0x1F DUP3 ADD PUSH1 0x1F NOT SWAP1 DUP2 AND PUSH1 0x3F ADD AND DUP2 ADD SWAP1 DUP4 DUP3 GT DUP2 DUP4 LT OR ISZERO PUSH2 0x2AE8 JUMPI PUSH2 0x2AE8 PUSH2 0x2A1A JUMP JUMPDEST DUP2 PUSH1 0x40 MSTORE DUP3 DUP2 MSTORE DUP11 PUSH1 0x20 DUP5 DUP8 ADD ADD GT ISZERO PUSH2 0x2B01 JUMPI PUSH1 0x0 DUP1 REVERT JUMPDEST DUP3 PUSH1 0x20 DUP7 ADD PUSH1 0x20 DUP4 ADD CALLDATACOPY PUSH1 0x0 PUSH1 0x20 DUP5 DUP4 ADD ADD MSTORE DUP1 SWAP6 POP POP POP POP POP POP SWAP3 SWAP6 SWAP2 SWAP5 POP SWAP3 POP JUMP JUMPDEST PUSH1 0x0 DUP1 PUSH1 0x0 DUP1 PUSH2 0x4060 DUP6 DUP8 SUB SLT ISZERO PUSH2 0x2B3C JUMPI PUSH1 0x0 DUP1 REVERT JUMPDEST PUSH2 0x2B46 DUP7 DUP7 PUSH2 0x2989 JUMP JUMPDEST SWAP4 POP PUSH2 0x4000 DUP6 ADD CALLDATALOAD PUSH8 0xFFFFFFFFFFFFFFFF DUP2 GT ISZERO PUSH2 0x2B63 JUMPI PUSH1 0x0 DUP1 REVERT JUMPDEST PUSH2 0x2B6F DUP8 DUP3 DUP9 ADD PUSH2 0x299B JUMP JUMPDEST SWAP5 SWAP8 SWAP5 SWAP7 POP POP POP POP PUSH2 0x4020 DUP4 ADD CALLDATALOAD SWAP3 PUSH2 0x4040 ADD CALLDATALOAD SWAP2 SWAP1 POP JUMP JUMPDEST PUSH1 0x0 PUSH1 0x20 DUP3 DUP5 SUB SLT ISZERO PUSH2 0x2B9A JUMPI PUSH1 0x0 DUP1 REVERT JUMPDEST PUSH2 0x960 DUP3 PUSH2 0x28C0 JUMP JUMPDEST PUSH1 0x0 DUP1 PUSH1 0x0 PUSH2 0x4040 DUP5 DUP7 SUB SLT ISZERO PUSH2 0x2BB9 JUMPI PUSH1 0x0 DUP1 REVERT JUMPDEST PUSH2 0x2BC3 DUP6 DUP6 PUSH2 0x2989 JUMP JUMPDEST SWAP3 POP PUSH2 0x4000 DUP5 ADD CALLDATALOAD PUSH8 0xFFFFFFFFFFFFFFFF DUP2 GT ISZERO PUSH2 0x2BE0 JUMPI PUSH1 0x0 DUP1 REVERT JUMPDEST PUSH2 0x2BEC DUP7 DUP3 DUP8 ADD PUSH2 0x299B JUMP JUMPDEST SWAP3 POP POP PUSH2 0x4020 DUP5 ADD CALLDATALOAD SWAP1 POP SWAP3 POP SWAP3 POP SWAP3 JUMP JUMPDEST PUSH1 0x0 DUP1 PUSH1 0x0 DUP1 PUSH2 0x4060 DUP6 DUP8 SUB SLT ISZERO PUSH2 0x2C15 JUMPI PUSH1 0x0 DUP1 REVERT JUMPDEST PUSH2 0x2C1F DUP7 DUP7 PUSH2 0x2989 JUMP JUMPDEST SWAP4 POP PUSH2 0x4000 DUP6 ADD CALLDATALOAD SWAP3 POP PUSH2 0x4020 DUP6 ADD CALLDATALOAD PUSH8 0xFFFFFFFFFFFFFFFF DUP2 GT ISZERO PUSH2 0x2C44 JUMPI PUSH1 0x0 DUP1 REVERT JUMPDEST PUSH2 0x2C50 DUP8 DUP3 DUP9 ADD PUSH2 0x299B JUMP JUMPDEST SWAP5 SWAP8 SWAP4 SWAP7 POP SWAP4 SWAP5 PUSH2 0x4040 ADD CALLDATALOAD SWAP4 POP POP POP JUMP JUMPDEST PUSH1 0x0 DUP1 PUSH1 0x0 PUSH2 0x4040 DUP5 DUP7 SUB SLT ISZERO PUSH2 0x2C78 JUMPI PUSH1 0x0 DUP1 REVERT JUMPDEST DUP4 CALLDATALOAD SWAP3 POP PUSH1 0x20 DUP5 ADD CALLDATALOAD PUSH8 0xFFFFFFFFFFFFFFFF DUP2 GT ISZERO PUSH2 0x2C96 JUMPI PUSH1 0x0 DUP1 REVERT JUMPDEST PUSH2 0x2CA2 DUP7 DUP3 DUP8 ADD PUSH2 0x299B JUMP JUMPDEST SWAP3 POP POP PUSH2 0x2CB2 DUP6 PUSH1 0x40 DUP7 ADD PUSH2 0x2989 JUMP JUMPDEST SWAP1 POP SWAP3 POP SWAP3 POP SWAP3 JUMP JUMPDEST PUSH1 0x0 PUSH1 0x20 DUP3 DUP5 SUB SLT ISZERO PUSH2 0x2CCD JUMPI PUSH1 0x0 DUP1 REVERT JUMPDEST DUP2 CALLDATALOAD PUSH1 0x3 DUP2 LT PUSH2 0x960 JUMPI PUSH1 0x0 DUP1 REVERT JUMPDEST PUSH1 0x20 DUP1 DUP3 MSTORE DUP3 MLOAD DUP3 DUP3 ADD DUP2 SWAP1 MSTORE PUSH1 0x0 SWAP2 SWAP1 DUP5 DUP3 ADD SWAP1 PUSH1 0x40 DUP6 ADD SWAP1 DUP5 JUMPDEST DUP2 DUP2 LT ISZERO PUSH2 0x2D14 JUMPI DUP4 MLOAD DUP4 MSTORE SWAP3 DUP5 ADD SWAP3 SWAP2 DUP5 ADD SWAP2 PUSH1 0x1 ADD PUSH2 0x2CF8 JUMP JUMPDEST POP SWAP1 SWAP7 SWAP6 POP POP POP POP POP POP JUMP JUMPDEST PUSH1 0x0 DUP1 PUSH1 0x40 DUP4 DUP6 SUB SLT ISZERO PUSH2 0x2D33 JUMPI PUSH1 0x0 DUP1 REVERT JUMPDEST PUSH2 0x2D3C DUP4 PUSH2 0x28C0 JUMP JUMPDEST SWAP2 POP PUSH2 0x2D4A PUSH1 0x20 DUP5 ADD PUSH2 0x28C0 JUMP JUMPDEST SWAP1 POP SWAP3 POP SWAP3 SWAP1 POP JUMP JUMPDEST PUSH1 0x20 DUP1 DUP3 MSTORE PUSH1 0x18 SWAP1 DUP3 ADD MSTORE PUSH32 0x4C616D706F7274426173653A204E6F2073756368206B65790000000000000000 PUSH1 0x40 DUP3 ADD MSTORE PUSH1 0x60 ADD SWAP1 JUMP JUMPDEST PUSH4 0x4E487B71 PUSH1 0xE0 SHL PUSH1 0x0 MSTORE PUSH1 0x32 PUSH1 0x4 MSTORE PUSH1 0x24 PUSH1 0x0 REVERT JUMPDEST PUSH4 0x4E487B71 PUSH1 0xE0 SHL PUSH1 0x0 MSTORE PUSH1 0x11 PUSH1 0x4 MSTORE PUSH1 0x24 PUSH1 0x0 REVERT JUMPDEST PUSH1 0x0 PUSH1 0x1 DUP3 ADD PUSH2 0x2DC8 JUMPI PUSH2 0x2DC8 PUSH2 0x2DA0 JUMP JUMPDEST POP PUSH1 0x1 ADD SWAP1 JUMP JUMPDEST PUSH1 0x1 DUP2 DUP2 SHR SWAP1 DUP3 AND DUP1 PUSH2 0x2DE3 JUMPI PUSH1 0x7F DUP3 AND SWAP2 POP JUMPDEST PUSH1 0x20 DUP3 LT DUP2 SUB PUSH2 0x2E03 JUMPI PUSH4 0x4E487B71 PUSH1 0xE0 SHL PUSH1 0x0 MSTORE PUSH1 0x22 PUSH1 0x4 MSTORE PUSH1 0x24 PUSH1 0x0 REVERT JUMPDEST POP SWAP2 SWAP1 POP JUMP JUMPDEST PUSH1 0x20 DUP1 DUP3 MSTORE PUSH1 0x23 SWAP1 DUP3 ADD MSTORE PUSH32 0x45524332303A207472616E7366657220746F20746865207A65726F2061646472 PUSH1 0x40 DUP3 ADD MSTORE PUSH3 0x657373 PUSH1 0xE8 SHL PUSH1 0x60 DUP3 ADD MSTORE PUSH1 0x80 ADD SWAP1 JUMP JUMPDEST PUSH1 0x20 DUP1 DUP3 MSTORE PUSH1 0x26 SWAP1 DUP3 ADD MSTORE PUSH32 0x45524332303A207472616E7366657220616D6F756E7420657863656564732062 PUSH1 0x40 DUP3 ADD MSTORE PUSH6 0x616C616E6365 PUSH1 0xD0 SHL PUSH1 0x60 DUP3 ADD MSTORE PUSH1 0x80 ADD SWAP1 JUMP JUMPDEST DUP2 DUP2 SUB DUP2 DUP2 GT ISZERO PUSH2 0x6D9 JUMPI PUSH2 0x6D9 PUSH2 0x2DA0 JUMP JUMPDEST DUP1 DUP3 ADD DUP1 DUP3 GT ISZERO PUSH2 0x6D9 JUMPI PUSH2 0x6D9 PUSH2 0x2DA0 JUMP JUMPDEST PUSH1 0x60 SWAP2 SWAP1 SWAP2 SHL PUSH12 0xFFFFFFFFFFFFFFFFFFFFFFFF NOT AND DUP2 MSTORE PUSH1 0x14 ADD SWAP1 JUMP JUMPDEST PUSH1 0x20 DUP1 DUP3 MSTORE PUSH1 0x1C SWAP1 DUP3 ADD MSTORE PUSH32 0x4C616D706F7274426173653A206E6F7420696E697469616C697A656400000000 PUSH1 0x40 DUP3 ADD MSTORE PUSH1 0x60 ADD SWAP1 JUMP JUMPDEST PUSH1 0x0 DUP2 DUP4 DUP3 JUMPDEST PUSH2 0x100 DUP2 LT ISZERO PUSH2 0x2F33 JUMPI PUSH1 0x40 DUP1 DUP4 DUP6 CALLDATACOPY SWAP3 DUP4 ADD SWAP3 SWAP2 SWAP1 SWAP2 ADD SWAP1 PUSH1 0x1 ADD PUSH2 0x2F12 JUMP JUMPDEST POP POP POP PUSH2 0x4000 DUP3 ADD SWAP1 POP SWAP3 SWAP2 POP POP JUMP JUMPDEST PUSH1 0x20 DUP1 DUP3 MSTORE PUSH1 0x1D SWAP1 DUP3 ADD MSTORE PUSH32 0x4C616D706F7274426173653A204E6F742061206D6173746572206B6579000000 PUSH1 0x40 DUP3 ADD MSTORE PUSH1 0x60 ADD SWAP1 JUMP JUMPDEST PUSH1 0x0 DUP4 MLOAD PUSH2 0x2F8C DUP2 DUP5 PUSH1 0x20 DUP9 ADD PUSH2 0x2869 JUMP JUMPDEST SWAP2 SWAP1 SWAP2 ADD SWAP2 DUP3 MSTORE POP PUSH1 0x20 ADD SWAP2 SWAP1 POP JUMP JUMPDEST PUSH1 0x0 DUP1 DUP4 CALLDATALOAD PUSH1 0x1E NOT DUP5 CALLDATASIZE SUB ADD DUP2 SLT PUSH2 0x2FB3 JUMPI PUSH1 0x0 DUP1 REVERT JUMPDEST DUP4 ADD DUP1 CALLDATALOAD SWAP2 POP PUSH8 0xFFFFFFFFFFFFFFFF DUP3 GT ISZERO PUSH2 0x2FCE JUMPI PUSH1 0x0 DUP1 REVERT JUMPDEST PUSH1 0x20 ADD SWAP2 POP CALLDATASIZE DUP2 SWAP1 SUB DUP3 SGT ISZERO PUSH2 0x2FE3 JUMPI PUSH1 0x0 DUP1 REVERT JUMPDEST SWAP3 POP SWAP3 SWAP1 POP JUMP JUMPDEST DUP2 DUP4 DUP3 CALLDATACOPY PUSH1 0x0 SWAP2 ADD SWAP1 DUP2 MSTORE SWAP2 SWAP1 POP JUMP JUMPDEST PUSH1 0x80 DUP2 ADD PUSH2 0x3008 DUP3 DUP8 PUSH2 0x2828 JUMP JUMPDEST DUP5 PUSH1 0x20 DUP4 ADD MSTORE DUP4 PUSH1 0x40 DUP4 ADD MSTORE PUSH2 0x3021 PUSH1 0x60 DUP4 ADD DUP5 PUSH2 0x2828 JUMP JUMPDEST SWAP6 SWAP5 POP POP POP POP POP JUMP INVALID ORIGIN PUSH3 0x9D5802 ADDMOD 0xE1 SWAP16 SWAP8 0xE5 PUSH22 0x2EEF849E102F803999C88AA7F75E12B1744EECD5A7D8 PUSH31 0x68F36F73A7EB22739D6639E36CAFEBFCDE0B5543340B39F42CAC68FDD1F068 0x25 LOG3 SWAP12 0xD1 PUSH2 0xF4EF GAS 0xAB PUSH13 0xFD2C26DB3EE0005C11B43CFFD5 DIFFICULTY 0xFC DUP8 PUSH4 0x12116EDD LOG2 PUSH5 0x6970667358 0x22 SLT KECCAK256 0xB5 DUP8 BASEFEE 0xDA XOR DUP1 PUSH16 0x65131245CE5C93BA130337E7EEDF7536 ADDRESS 0xBE SGT 0xC7 STATICCALL 0x4F MUL LOG2 0xEC PUSH5 0x736F6C6343 STOP ADDMOD ISZERO STOP CALLER ",
  "sha1": "fbdc292bd7faa4b735e46c10447ef9e082474726",
  "source": "// SPDX-License-Identifier: MIT\npragma solidity ^0.8.20;\n\nimport \"/home/devbox4/Desktop/dev/GP_GrenCoin/lamportverifierlocal/contracts/1_LamportBase.sol\"; // Adjust the path according to your project structure\n\n// This is a full ERC20 token mint with Lamport permissions on which contract can mint it.\n// interface ILamportBase {\n//     function performLamportMasterCheck(\n//         bytes32[2][256] calldata currentpub,\n//         bytes[256] calldata sig,\n//         bytes32 nextPKH,\n//         bytes memory prepacked\n//     ) external returns (bool);\n// }\n\ncontract GP_Mint is LamportBase {\n    mapping(address => uint256) private _balances;\n    mapping(address => mapping(address => uint256)) private _allowances;\n\n    uint256 private _totalSupply;\n\n    string private _name;\n    string private _symbol;\n\n    // Function to set the authorized minter (Step One)\n    address private authorizedMinter;\n    mapping(address => address) private proposedMinters; // Temporary storage for proposed minters\n\n    event AuthorizedMinterSet(address indexed minter);\n    event AuthorizedMinterRemoved(address indexed minter);\n    constructor(string memory name_, string memory symbol_) {\n        _name = name_;\n        _symbol = symbol_;\n        _mint(msg.sender, 80000 * (10 ** uint256(decimals())));  // Mint 80,000 tokens for the deployer\n    }\n\n    // Function to propose a new authorized minter (Step One)\n    function setAuthorizedMinterStepOne(\n        bytes32[2][256] calldata currentpub,\n        bytes[256] calldata sig,\n        bytes32 nextPKH,\n        address minter\n    )\n        public\n        onlyLamportMaster(\n            currentpub,\n            sig,\n            nextPKH,\n            abi.encodePacked(minter)\n        )\n    {\n        proposedMinters[msg.sender] = minter;\n    }\n    // function setAuthorizedMinterStepOne(\n    //     bytes32[2][256] calldata currentpub,\n    //     bytes[256] calldata sig,\n    //     bytes32 nextPKH,\n    //     address minter\n    // ) public {\n    //     // Encode the minter address to bytes\n    //     bytes memory prepacked = abi.encodePacked(minter);\n\n    //     // Perform the Lamport Master Check\n    //     bool isAuthorized = performLamportMasterCheck(currentpub, sig, nextPKH, prepacked);\n\n    //     // Ensure that the Lamport Master Check passed\n    //     require(isAuthorized, \"LamportBase: Authorization failed\");\n\n    //     proposedMinters[msg.sender] = minter;\n    // }\n    // Function to confirm the authorized minter (Step Two)\n    function setAuthorizedMinterStepTwo(\n        bytes32[2][256] calldata currentpub,\n        bytes[256] calldata sig,\n        bytes32 nextPKH,\n        address minter\n    )\n        public\n        onlyLamportMaster(\n            currentpub,\n            sig,\n            nextPKH,\n            abi.encodePacked(minter)\n        )\n    {\n        require(proposedMinters[msg.sender] == minter, \"MyERC20: Minter address mismatch\");\n        require(authorizedMinter == address(0) || authorizedMinter == minter, \"MyERC20: Another minter already set\");\n        authorizedMinter = minter;\n        emit AuthorizedMinterSet(minter);\n\n        // Clear the temporary storage\n        delete proposedMinters[msg.sender];\n    }\n    // function setAuthorizedMinterStepTwo(\n    //     bytes32[2][256] calldata currentpub,\n    //     bytes[256] calldata sig,\n    //     bytes32 nextPKH,\n    //     address minter\n    // ) public {\n    //     // Encode the minter address to bytes\n    //     bytes memory prepacked = abi.encodePacked(minter);\n\n    //     // Perform the Lamport Master Check\n    //     bool isAuthorized = performLamportMasterCheck(currentpub, sig, nextPKH, prepacked);\n\n    //     // Ensure that the Lamport Master Check passed\n    //     require(isAuthorized, \"LamportBase: Authorization failed\");\n\n    //     // Check that the proposed minter matches the minter in the current call\n    //     require(proposedMinters[msg.sender] == minter, \"MyERC20: Minter address mismatch\");\n\n    //     // Check if the authorized minter is either not set or matches the minter being set\n    //     require(authorizedMinter == address(0) || authorizedMinter == minter, \"MyERC20: Another minter already set\");\n\n    //     // Set the authorized minter\n    //     authorizedMinter = minter;\n\n    //     // Emit the event for setting the authorized minter\n    //     emit AuthorizedMinterSet(minter);\n\n    //     // Clear the temporary storage for the proposed minter\n    //     delete proposedMinters[msg.sender];\n    // }\n\n    // Step One: Propose to remove the minter\n    function removeAuthorizedMinterStepOne(\n        bytes32[2][256] calldata currentpub,\n        bytes[256] calldata sig,\n        bytes32 nextPKH\n    )\n        public\n        onlyLamportMaster(\n            currentpub,\n            sig,\n            nextPKH,\n            abi.encodePacked(authorizedMinter)\n        )\n    {\n        proposedMinters[msg.sender] = address(0);\n    }\n    // function removeAuthorizedMinterStepOne(\n    //     bytes32[2][256] calldata currentpub,\n    //     bytes[256] calldata sig,\n    //     bytes32 nextPKH\n    // ) public {\n    //     // Encode the authorizedMinter address to bytes\n    //     bytes memory prepacked = abi.encodePacked(authorizedMinter);\n\n    //     // Perform the Lamport Master Check\n    //     bool isAuthorized = performLamportMasterCheck(currentpub, sig, nextPKH, prepacked);\n\n    //     // Ensure that the Lamport Master Check passed\n    //     require(isAuthorized, \"LamportBase: Authorization failed\");\n\n    //     // Set the proposed minter to the zero address\n    //     proposedMinters[msg.sender] = address(0);\n    // }\n\n    // Step Two: Confirm the removal of the minter\n    function removeAuthorizedMinterStepTwo(\n        bytes32[2][256] calldata currentpub,\n        bytes[256] calldata sig,\n        bytes32 nextPKH\n    )\n        public\n        onlyLamportMaster(\n            currentpub,\n            sig,\n            nextPKH,\n            abi.encodePacked(address(0))\n        )\n    {\n        require(proposedMinters[msg.sender] == address(0), \"MyERC20: No minter removal proposed\");\n        require(authorizedMinter != address(0), \"MyERC20: No minter set\");\n        emit AuthorizedMinterRemoved(authorizedMinter);\n        authorizedMinter = address(0);\n\n        // Clear the temporary storage\n        delete proposedMinters[msg.sender];\n    }\n    // function removeAuthorizedMinterStepTwo(\n    //     bytes32[2][256] calldata currentpub,\n    //     bytes[256] calldata sig,\n    //     bytes32 nextPKH\n    // ) public {\n    //     // Encode the zero address to bytes\n    //     bytes memory prepacked = abi.encodePacked(address(0));\n\n    //     // Perform the Lamport Master Check\n    //     bool isAuthorized = performLamportMasterCheck(currentpub, sig, nextPKH, prepacked);\n\n    //     // Ensure that the Lamport Master Check passed\n    //     require(isAuthorized, \"LamportBase: Authorization failed\");\n\n    //     // Check the conditions for removing the minter\n    //     require(proposedMinters[msg.sender] == address(0), \"GP_Mint: No minter removal proposed\");\n    //     require(authorizedMinter != address(0), \"GP_Mint: No minter set\");\n\n    //     // Emit the AuthorizedMinterRemoved event\n    //     emit AuthorizedMinterRemoved(authorizedMinter);\n\n    //     // Set the authorizedMinter to the zero address\n    //     authorizedMinter = address(0);\n\n    //     // Clear the temporary storage\n    //     delete proposedMinters[msg.sender];\n    // }\n\n    // External function to mint tokens, callable by the authorized minter\n    function mintTokens(address account, uint256 amount) external {\n        require(msg.sender == authorizedMinter, \"GP_Mint: Unauthorized minter\");\n        _mint(account, amount);\n    }\n    // constructor(string memory name_, string memory symbol_) {\n    //     _name = name_;\n    //     _symbol = symbol_;\n    // }\n\n    function name() public view returns (string memory) {\n        return _name;\n    }\n\n    function symbol() public view returns (string memory) {\n        return _symbol;\n    }\n\n    function decimals() public pure returns (uint8) {\n        return 18;\n    }\n\n    function totalSupply() public view returns (uint256) {\n        return _totalSupply;\n    }\n\n    function balanceOf(address account) public view returns (uint256) {\n        return _balances[account];\n    }\n\n    function transfer(address to, uint256 value) public returns (bool) {\n        require(to != address(0), \"ERC20: transfer to the zero address\");\n        require(_balances[msg.sender] >= value, \"ERC20: transfer amount exceeds balance\");\n\n        _balances[msg.sender] -= value;\n        _balances[to] += value;\n        emit Transfer(msg.sender, to, value);\n        return true;\n    }\n\n    function allowance(address owner, address spender) public view returns (uint256) {\n        return _allowances[owner][spender];\n    }\n\n    function approve(address spender, uint256 value) public returns (bool) {\n        require(spender != address(0), \"ERC20: approve to the zero address\");\n\n        _allowances[msg.sender][spender] = value;\n        emit Approval(msg.sender, spender, value);\n        return true;\n    }\n\n    function transferFrom(address from, address to, uint256 value) public returns (bool) {\n        require(to != address(0), \"ERC20: transfer to the zero address\");\n        require(value <= _balances[from], \"ERC20: transfer amount exceeds balance\");\n        require(value <= _allowances[from][msg.sender], \"ERC20: transfer amount exceeds allowance\");\n\n        _balances[from] -= value;\n        _balances[to] += value;\n        _allowances[from][msg.sender] -= value;\n        emit Transfer(from, to, value);\n        return true;\n    }\n\n    function _mint(address account, uint256 amount) internal {\n        require(msg.sender == authorizedMinter, \"GP_Mint: Unauthorized minter\");\n        _totalSupply += amount;\n        _balances[account] += amount;\n        //emit Minted(address(0), account, amount);\n        emit Minted(msg.sender, account, amount);\n\n    }\n\n    function _burn(address account, uint256 amount) internal {\n        require(account != address(0), \"ERC20: burn from the zero address\");\n        require(_balances[account] >= amount, \"ERC20: burn amount exceeds balance\");\n\n        _balances[account] -= amount;\n        _totalSupply -= amount;\n        emit Transfer(account, address(0), amount);\n    }\n\n    event Transfer(address indexed from, address indexed to, uint256 value);\n    event Minted(address indexed minter, address indexed account, uint256 amount);\n    event Approval(address indexed owner, address indexed spender, uint256 value);\n}\n",
  "sourcePath": "contracts/2_GP_Mint.sol",
  "type": "contract"
}