{
  "abi": [
    {
      "inputs": [],
      "stateMutability": "nonpayable",
      "type": "constructor"
    },
    {
      "anonymous": false,
      "inputs": [
        {
          "indexed": false,
          "internalType": "enum LamportBase2.KeyType",
          "name": "keyType",
          "type": "uint8"
        },
        {
          "indexed": false,
          "internalType": "bytes32",
          "name": "newPKH",
          "type": "bytes32"
        }
      ],
      "name": "KeyAdded",
      "type": "event"
    },
    {
      "anonymous": false,
      "inputs": [
        {
          "indexed": false,
          "internalType": "enum LamportBase2.KeyType",
          "name": "originalKeyType",
          "type": "uint8"
        },
        {
          "indexed": false,
          "internalType": "bytes32",
          "name": "originalPKH",
          "type": "bytes32"
        },
        {
          "indexed": false,
          "internalType": "bytes32",
          "name": "modifiedPKH",
          "type": "bytes32"
        },
        {
          "indexed": false,
          "internalType": "enum LamportBase2.KeyType",
          "name": "newKeyType",
          "type": "uint8"
        }
      ],
      "name": "KeyModified",
      "type": "event"
    },
    {
      "anonymous": false,
      "inputs": [
        {
          "indexed": false,
          "internalType": "uint256",
          "name": "hash",
          "type": "uint256"
        }
      ],
      "name": "LogLastCalculatedHash",
      "type": "event"
    },
    {
      "anonymous": false,
      "inputs": [
        {
          "indexed": false,
          "internalType": "enum LamportBase2.KeyType",
          "name": "keyType",
          "type": "uint8"
        },
        {
          "indexed": false,
          "internalType": "bytes32",
          "name": "previousPKH",
          "type": "bytes32"
        },
        {
          "indexed": false,
          "internalType": "bytes32",
          "name": "newPKH",
          "type": "bytes32"
        }
      ],
      "name": "PkhUpdated",
      "type": "event"
    },
    {
      "anonymous": false,
      "inputs": [
        {
          "indexed": false,
          "internalType": "uint256",
          "name": "hashedData",
          "type": "uint256"
        }
      ],
      "name": "VerificationFailed",
      "type": "event"
    },
    {
      "inputs": [
        {
          "internalType": "bytes32[2][256]",
          "name": "currentpub",
          "type": "bytes32[2][256]"
        },
        {
          "internalType": "bytes[256]",
          "name": "sig",
          "type": "bytes[256]"
        },
        {
          "internalType": "bytes32",
          "name": "nextPKH",
          "type": "bytes32"
        },
        {
          "internalType": "bytes",
          "name": "newmasterPKH",
          "type": "bytes"
        }
      ],
      "name": "createMasterKeyStepOne",
      "outputs": [],
      "stateMutability": "nonpayable",
      "type": "function"
    },
    {
      "inputs": [
        {
          "internalType": "bytes32[2][256]",
          "name": "currentpub",
          "type": "bytes32[2][256]"
        },
        {
          "internalType": "bytes[256]",
          "name": "sig",
          "type": "bytes[256]"
        },
        {
          "internalType": "bytes32",
          "name": "nextPKH",
          "type": "bytes32"
        },
        {
          "internalType": "bytes32",
          "name": "newmasterPKH",
          "type": "bytes32"
        }
      ],
      "name": "createMasterKeyStepTwo",
      "outputs": [],
      "stateMutability": "nonpayable",
      "type": "function"
    },
    {
      "inputs": [
        {
          "internalType": "bytes32[2][256]",
          "name": "currentpub",
          "type": "bytes32[2][256]"
        },
        {
          "internalType": "bytes32",
          "name": "nextPKH",
          "type": "bytes32"
        },
        {
          "internalType": "bytes[256]",
          "name": "sig",
          "type": "bytes[256]"
        },
        {
          "internalType": "bytes32",
          "name": "neworaclePKH",
          "type": "bytes32"
        }
      ],
      "name": "createOracleKeyFromMaster",
      "outputs": [],
      "stateMutability": "nonpayable",
      "type": "function"
    },
    {
      "inputs": [
        {
          "internalType": "bytes32[2][256]",
          "name": "currentpub",
          "type": "bytes32[2][256]"
        },
        {
          "internalType": "bytes[256]",
          "name": "sig",
          "type": "bytes[256]"
        },
        {
          "internalType": "bytes32",
          "name": "nextPKH",
          "type": "bytes32"
        },
        {
          "internalType": "uint256",
          "name": "keyIndex",
          "type": "uint256"
        }
      ],
      "name": "deleteKeyByIndexStepOne",
      "outputs": [],
      "stateMutability": "nonpayable",
      "type": "function"
    },
    {
      "inputs": [
        {
          "internalType": "bytes32[2][256]",
          "name": "currentpub",
          "type": "bytes32[2][256]"
        },
        {
          "internalType": "bytes[256]",
          "name": "sig",
          "type": "bytes[256]"
        },
        {
          "internalType": "bytes32",
          "name": "nextPKH",
          "type": "bytes32"
        },
        {
          "internalType": "uint256",
          "name": "keyIndex",
          "type": "uint256"
        }
      ],
      "name": "deleteKeyByIndexStepTwo",
      "outputs": [],
      "stateMutability": "nonpayable",
      "type": "function"
    },
    {
      "inputs": [
        {
          "internalType": "bytes32[2][256]",
          "name": "currentpub",
          "type": "bytes32[2][256]"
        },
        {
          "internalType": "bytes[256]",
          "name": "sig",
          "type": "bytes[256]"
        },
        {
          "internalType": "bytes32",
          "name": "nextPKH",
          "type": "bytes32"
        },
        {
          "internalType": "bytes32",
          "name": "deleteKeyHash",
          "type": "bytes32"
        }
      ],
      "name": "deleteKeyByPKHStepOne",
      "outputs": [],
      "stateMutability": "nonpayable",
      "type": "function"
    },
    {
      "inputs": [
        {
          "internalType": "bytes32[2][256]",
          "name": "currentpub",
          "type": "bytes32[2][256]"
        },
        {
          "internalType": "bytes[256]",
          "name": "sig",
          "type": "bytes[256]"
        },
        {
          "internalType": "bytes32",
          "name": "nextPKH",
          "type": "bytes32"
        },
        {
          "internalType": "bytes32",
          "name": "confirmDeleteKeyHash",
          "type": "bytes32"
        }
      ],
      "name": "deleteKeyByPKHStepTwo",
      "outputs": [],
      "stateMutability": "nonpayable",
      "type": "function"
    },
    {
      "inputs": [
        {
          "internalType": "bytes32",
          "name": "pkh",
          "type": "bytes32"
        }
      ],
      "name": "getKeyAndIndexByPKH",
      "outputs": [
        {
          "internalType": "enum LamportBase2.KeyType",
          "name": "",
          "type": "uint8"
        },
        {
          "internalType": "bytes32",
          "name": "",
          "type": "bytes32"
        },
        {
          "internalType": "uint256",
          "name": "",
          "type": "uint256"
        }
      ],
      "stateMutability": "view",
      "type": "function"
    },
    {
      "inputs": [
        {
          "internalType": "enum LamportBase2.KeyType",
          "name": "privilege",
          "type": "uint8"
        }
      ],
      "name": "getPKHsByPrivilege",
      "outputs": [
        {
          "internalType": "bytes32[]",
          "name": "",
          "type": "bytes32[]"
        }
      ],
      "stateMutability": "view",
      "type": "function"
    },
    {
      "inputs": [
        {
          "internalType": "bytes32",
          "name": "",
          "type": "bytes32"
        }
      ],
      "name": "keyData",
      "outputs": [
        {
          "internalType": "enum LamportBase2.KeyType",
          "name": "keyType",
          "type": "uint8"
        },
        {
          "internalType": "bytes32",
          "name": "pkh",
          "type": "bytes32"
        }
      ],
      "stateMutability": "view",
      "type": "function"
    },
    {
      "inputs": [
        {
          "internalType": "uint256",
          "name": "",
          "type": "uint256"
        }
      ],
      "name": "keys",
      "outputs": [
        {
          "internalType": "enum LamportBase2.KeyType",
          "name": "keyType",
          "type": "uint8"
        },
        {
          "internalType": "bytes32",
          "name": "pkh",
          "type": "bytes32"
        }
      ],
      "stateMutability": "view",
      "type": "function"
    },
    {
      "inputs": [],
      "name": "lastUsedNextPKH",
      "outputs": [
        {
          "internalType": "bytes32",
          "name": "",
          "type": "bytes32"
        }
      ],
      "stateMutability": "view",
      "type": "function"
    },
    {
      "inputs": [],
      "name": "lastVerificationResult",
      "outputs": [
        {
          "internalType": "bool",
          "name": "",
          "type": "bool"
        }
      ],
      "stateMutability": "view",
      "type": "function"
    },
    {
      "inputs": [
        {
          "internalType": "bytes32[2][256]",
          "name": "currentpub",
          "type": "bytes32[2][256]"
        },
        {
          "internalType": "bytes[256]",
          "name": "sig",
          "type": "bytes[256]"
        },
        {
          "internalType": "bytes32",
          "name": "nextPKH",
          "type": "bytes32"
        },
        {
          "internalType": "bytes",
          "name": "prepacked",
          "type": "bytes"
        }
      ],
      "name": "performLamportMasterCheck",
      "outputs": [
        {
          "internalType": "bool",
          "name": "",
          "type": "bool"
        }
      ],
      "stateMutability": "nonpayable",
      "type": "function"
    },
    {
      "inputs": [
        {
          "internalType": "bytes32[2][256]",
          "name": "currentpub",
          "type": "bytes32[2][256]"
        },
        {
          "internalType": "bytes[256]",
          "name": "sig",
          "type": "bytes[256]"
        },
        {
          "internalType": "bytes32",
          "name": "nextPKH",
          "type": "bytes32"
        },
        {
          "internalType": "bytes",
          "name": "prepacked",
          "type": "bytes"
        }
      ],
      "name": "performLamportOracleCheck",
      "outputs": [
        {
          "internalType": "bool",
          "name": "",
          "type": "bool"
        }
      ],
      "stateMutability": "nonpayable",
      "type": "function"
    },
    {
      "inputs": [
        {
          "internalType": "uint256",
          "name": "bits",
          "type": "uint256"
        },
        {
          "internalType": "bytes[256]",
          "name": "sig",
          "type": "bytes[256]"
        },
        {
          "internalType": "bytes32[2][256]",
          "name": "pub",
          "type": "bytes32[2][256]"
        }
      ],
      "name": "verify_u256",
      "outputs": [
        {
          "internalType": "bool",
          "name": "",
          "type": "bool"
        }
      ],
      "stateMutability": "pure",
      "type": "function"
    }
  ],
  "bytecode": "60806040526000805460ff191690553480156200001b57600080fd5b506200004960007fb7b18ded9664d1a8e923a5942ec1ca5cd8c13c40eb1a5215d5800600f5a587be620000b6565b6200007660007f1ed304ab73e124b0b99406dfa1388a492a818837b4b41ce5693ad84dacfc3f25620000b6565b620000a360017fd62569e61a6423c880a429676be48756c931fe0519121684f5fb05cbd17877fa620000b6565b6000805460ff191660011790556200021d565b60006040518060400160405280846002811115620000d857620000d8620001da565b81526020018390526001805480820182556000829052825160029182027fb10e2d527612073b26eecdfd717e6a320cf44b4afac2b0732d9fcbe2b7fa0cf6018054949550859490939192849260ff1990921691908490811115620001405762000140620001da565b021790555060209182015160019182015560008481526002928390526040902083518154859492939192849260ff1990921691908490811115620001885762000188620001da565b0217905550602082015181600101559050507f2172c7b01a6de957d29fd6166a23025d181bf56538ad606a526ab2d62603f3fc8383604051620001cd929190620001f0565b60405180910390a1505050565b634e487b7160e01b600052602160045260246000fd5b60408101600384106200021357634e487b7160e01b600052602160045260246000fd5b9281526020015290565b612337806200022d6000396000f3fe608060405234801561001057600080fd5b50600436106101005760003560e01c80635796841a11610097578063b97b4f7711610066578063b97b4f771461022f578063b9d57c5f1461024f578063bc60fb4914610271578063bd5a6d071461028457600080fd5b80635796841a146101c95780638eb8f1a6146101dc578063a9711ee3146101ef578063af82f3e71461021c57600080fd5b80634a89d52b116100d35780634a89d52b146101795780634bdd44991461018c5780634e657d2a146101a357806354f9ee03146101b657600080fd5b80630cb6aaf114610105578063251de3901461012f5780632fd5c24714610144578063333f611114610166575b600080fd5b610118610113366004611d1c565b610297565b604051610126929190611d6d565b60405180910390f35b61014261013d366004611db2565b6102c9565b005b60005461015690610100900460ff1681565b6040519015158152602001610126565b610156610174366004611e2b565b6104c6565b610156610187366004611e2b565b6105b7565b61019560065481565b604051908152602001610126565b6101426101b1366004611e2b565b61060e565b6101426101c4366004611db2565b610793565b6101426101d7366004611db2565b61093b565b6101426101ea366004611f20565b610b9a565b6101186101fd366004611d1c565b6002602052600090815260409020805460019091015460ff9091169082565b61015661022a366004611f84565b610d43565b61024261023d366004611fdd565b610df8565b6040516101269190611ffe565b61026261025d366004611d1c565b610fa8565b60405161012693929190612042565b61014261027f366004611db2565b6110a6565b610142610292366004611db2565b61158c565b600181815481106102a757600080fd5b60009182526020909120600290910201805460019091015460ff909116915082565b838383836040516020016102df91815260200190565b60408051601f1981840301815291905260005460ff1661031a5760405162461bcd60e51b815260040161031190612061565b60405180910390fd5b60008460405160200161032d9190612098565b60408051601f19818403018152919052805160209091012090506000808281526002602081905260409091205460ff169081111561036d5761036d611d35565b1461038a5760405162461bcd60e51b8152600401610311906120cf565b6000828460405160200161039f929190612106565b60408051601f1981840301815290829052805160209182012080835292506000805160206122c2833981519152910160405180910390a160006103e3828789610d43565b6000805461ff00191661010083151502179055905080610467576040518281526000805160206122a2833981519152906020015b60405180910390a160405162461bcd60e51b815260206004820181905260248201527f4c616d706f7274426173653a20566572696669636174696f6e206661696c65646044820152606401610311565b600083815260026020526040908190205490516000805160206122e28339815191529161049d9160ff9091169086908990612042565b60405180910390a16104af8386611a61565b505050600394909455505050600591909155505050565b6000805460ff166104e95760405162461bcd60e51b815260040161031190612061565b6000856040516020016104fc9190612098565b60408051601f198184030181529190528051602090910120905060005b60008281526002602081905260409091205460ff169081111561053e5761053e611d35565b1461054d5760009150506105af565b60008385604051602001610562929190612106565b6040516020818303038152906040528051906020012060001c9050600061058a82888a610d43565b90508061059d57600093505050506105af565b6105a78387611a61565b600193505050505b949350505050565b6000805460ff166105da5760405162461bcd60e51b815260040161031190612061565b6000856040516020016105ed9190612098565b60408051601f19818403018152919052805160209091012090506001610519565b600054849084908490849060ff166106385760405162461bcd60e51b815260040161031190612061565b60008460405160200161064b9190612098565b60408051601f19818403018152919052805160209091012090506000808281526002602081905260409091205460ff169081111561068b5761068b611d35565b146106a85760405162461bcd60e51b8152600401610311906120cf565b600082846040516020016106bd929190612106565b60408051601f1981840301815290829052805160209182012080835292506000805160206122c2833981519152910160405180910390a16000610701828789610d43565b6000805461ff00191661010083151502179055905080610739576040518281526000805160206122a283398151915290602001610417565b600083815260026020526040908190205490516000805160206122e28339815191529161076f9160ff9091169086908990612042565b60405180910390a16107818386611a61565b50505060069590955550505050505050565b838383836040516020016107a991815260200190565b60408051601f1981840301815291905260005460ff166107db5760405162461bcd60e51b815260040161031190612061565b6000846040516020016107ee9190612098565b60408051601f19818403018152919052805160209091012090506000808281526002602081905260409091205460ff169081111561082e5761082e611d35565b1461084b5760405162461bcd60e51b8152600401610311906120cf565b60008284604051602001610860929190612106565b60408051601f1981840301815290829052805160209182012080835292506000805160206122c2833981519152910160405180910390a160006108a4828789610d43565b6000805461ff001916610100831515021790559050806108dc576040518281526000805160206122a283398151915290602001610417565b600083815260026020526040908190205490516000805160206122e2833981519152916109129160ff9091169086908990612042565b60405180910390a16109248386611a61565b505050600494909455505050600591909155505050565b8383838360405160200161095191815260200190565b60408051601f1981840301815291905260005460ff166109835760405162461bcd60e51b815260040161031190612061565b6000846040516020016109969190612098565b60408051601f19818403018152919052805160209091012090506000808281526002602081905260409091205460ff16908111156109d6576109d6611d35565b146109f35760405162461bcd60e51b8152600401610311906120cf565b60008284604051602001610a08929190612106565b60408051601f1981840301815290829052805160209182012080835292506000805160206122c2833981519152910160405180910390a16000610a4c828789610d43565b6000805461ff00191661010083151502179055905080610a84576040518281526000805160206122a283398151915290602001610417565b600083815260026020526040908190205490516000805160206122e283398151915291610aba9160ff9091169086908990612042565b60405180910390a1610acc8386611a61565b60008b604051602001610adf9190612098565b60408051601f19818403018152919052805160209091012060068054600090915590915081141580610b7b576040805162461bcd60e51b81526020600482015260248101919091527f4c616d706f7274426173653a20504b48206d617463686573206c61737420757360448201527f656420504b482028757365207365706172617465207365636f6e64206b6579296064820152608401610311565b610b8660008b611c10565b505060006006555050505050505050505050565b83828483604051602001610bb091815260200190565b60408051601f1981840301815291905260005460ff16610be25760405162461bcd60e51b815260040161031190612061565b600084604051602001610bf59190612098565b60408051601f19818403018152919052805160209091012090506000808281526002602081905260409091205460ff1690811115610c3557610c35611d35565b14610c525760405162461bcd60e51b8152600401610311906120cf565b60008284604051602001610c67929190612106565b60408051601f1981840301815290829052805160209182012080835292506000805160206122c2833981519152910160405180910390a16000610cab828789610d43565b6000805461ff00191661010083151502179055905080610ce3576040518281526000805160206122a283398151915290602001610417565b600083815260026020526040908190205490516000805160206122e283398151915291610d199160ff9091169086908990612042565b60405180910390a1610d2b8386611a61565b610d36600189611c10565b5050505050505050505050565b6000805b610100811015610deb5783816101008110610d6457610d64612138565b602002810190610d74919061214e565b604051610d8292919061219c565b604051809103902083826101008110610d9d57610d9d612138565b6040020160008360ff036001901b881611610db9576000610dbc565b60015b60ff1660028110610dcf57610dcf612138565b602002013514610de3576000915050610df1565b600101610d47565b50600190505b9392505050565b60015460609060009067ffffffffffffffff811115610e1957610e19611e15565b604051908082528060200260200182016040528015610e42578160200160208202803683370190505b5090506000805b600154811015610f0357846002811115610e6557610e65611d35565b60018281548110610e7857610e78612138565b600091825260209091206002918202015460ff1690811115610e9c57610e9c611d35565b03610ef15760018181548110610eb457610eb4612138565b906000526020600020906002020160010154838381518110610ed857610ed8612138565b602090810291909101015281610eed816121ac565b9250505b80610efb816121ac565b915050610e49565b5060008167ffffffffffffffff811115610f1f57610f1f611e15565b604051908082528060200260200182016040528015610f48578160200160208202803683370190505b50905060005b82811015610f9f57838181518110610f6857610f68612138565b6020026020010151828281518110610f8257610f82612138565b602090810291909101015280610f97816121ac565b915050610f4e565b50949350505050565b60008181526002602081905260408083208151808301909252805484938493849390929091839160ff1690811115610fe257610fe2611d35565b6002811115610ff357610ff3611d35565b8152600191909101546020918201528101519091506000036110275760405162461bcd60e51b8152600401610311906121d3565b60005b60015481101561108657856001828154811061104857611048612138565b90600052602060002090600202016001015403611074578151602090920151919450909250905061109f565b8061107e816121ac565b91505061102a565b5060405162461bcd60e51b8152600401610311906121d3565b9193909250565b838383836040516020016110bc91815260200190565b60408051601f1981840301815291905260005460ff166110ee5760405162461bcd60e51b815260040161031190612061565b6000846040516020016111019190612098565b60408051601f19818403018152919052805160209091012090506000808281526002602081905260409091205460ff169081111561114157611141611d35565b1461115e5760405162461bcd60e51b8152600401610311906120cf565b60008284604051602001611173929190612106565b60408051601f1981840301815290829052805160209182012080835292506000805160206122c2833981519152910160405180910390a160006111b7828789610d43565b6000805461ff001916610100831515021790559050806111ef576040518281526000805160206122a283398151915290602001610417565b600083815260026020526040908190205490516000805160206122e2833981519152916112259160ff9091169086908990612042565b60405180910390a16112378386611a61565b60008b60405160200161124a9190612098565b60405160208183030381529060405280519060200120905060055481036112835760405162461bcd60e51b81526004016103119061220a565b88600454146112d45760405162461bcd60e51b815260206004820152601e60248201527f4c616d706f7274426173653a204b65797320646f206e6f74206d6174636800006044820152606401610311565b60015489106113255760405162461bcd60e51b815260206004820152601e60248201527f4c616d706f7274426173653a20496e76616c6964206b657920696e64657800006044820152606401610311565b600060018a8154811061133a5761133a612138565b90600052602060002090600202016040518060400160405290816000820160009054906101000a900460ff16600281111561137757611377611d35565b600281111561138857611388611d35565b81526001919091015460209091015290506002815160028111156113ae576113ae611d35565b036113fb5760405162461bcd60e51b815260206004820181905260248201527f4c616d706f7274426173653a204b657920616c72656164792064656c657465646044820152606401610311565b8051604080514260208083019190915244828401528251808303840181526060909201909252805191012060018054630de1e7ed60e41b8318929183918f90811061144857611448612138565b906000526020600020906002020160010181905550600260018e8154811061147257611472612138565b906000526020600020906002020160000160006101000a81548160ff021916908360028111156114a4576114a4611d35565b021790555060018d815481106114bc576114bc612138565b60009182526020808320858452600291829052604090932091810290920180548254919360ff90911691839160ff1990911690600190849081111561150357611503611d35565b0217905550600191820154908201556020808601805160009081526002928390526040808220805460ff19168155909401555191517f0643be3612916977c69d5ed1abb75a50cca49df49ba2444d836e2a0cf65fe07492611568928792879190612271565b60405180910390a15050600060048190556005555050505050505050505050505050565b838383836040516020016115a291815260200190565b60408051601f1981840301815291905260005460ff166115d45760405162461bcd60e51b815260040161031190612061565b6000846040516020016115e79190612098565b60408051601f19818403018152919052805160209091012090506000808281526002602081905260409091205460ff169081111561162757611627611d35565b146116445760405162461bcd60e51b8152600401610311906120cf565b60008284604051602001611659929190612106565b60408051601f1981840301815290829052805160209182012080835292506000805160206122c2833981519152910160405180910390a1600061169d828789610d43565b6000805461ff001916610100831515021790559050806116d5576040518281526000805160206122a283398151915290602001610417565b600083815260026020526040908190205490516000805160206122e28339815191529161170b9160ff9091169086908990612042565b60405180910390a161171d8386611a61565b60008b6040516020016117309190612098565b60405160208183030381529060405280519060200120905060055481036117695760405162461bcd60e51b81526004016103119061220a565b88600354146117ba5760405162461bcd60e51b815260206004820152601e60248201527f4c616d706f7274426173653a204b65797320646f206e6f74206d6174636800006044820152606401610311565b600554818a6000808481526002602081905260409091205460ff16908111156117e5576117e5611d35565b1480156118135750600082815260026020819052604082205460ff169081111561181157611811611d35565b145b6118765760405162461bcd60e51b815260206004820152602e60248201527f4c616d706f7274426173653a2050726f7669646564206b65797320617265206e60448201526d6f74206d6173746572206b65797360901b6064820152608401610311565b8281141580156118865750818114155b6118ec5760405162461bcd60e51b815260206004820152603160248201527f4c616d706f7274426173653a204d6173746572206b6579732063616e6e6f742060448201527064656c657465207468656d73656c76657360781b6064820152608401610311565b60008181526002602052604081206001015490036119585760405162461bcd60e51b815260206004820152602360248201527f4c616d706f7274426173653a204e6f2073756368206b6579202864656c6574696044820152626f6e2960e81b6064820152608401610311565b60005b600154811015611a4557816001828154811061197957611979612138565b90600052602060002090600202016001015403611a3357600082815260026020818152604080842080548251428186015244818501528351808203850181526060909101938490528051908501209588905292849052630de1e7ed60e41b85186001820181905560ff198416851790915560ff9092169391927f0643be3612916977c69d5ed1abb75a50cca49df49ba2444d836e2a0cf65fe07491611a2391869189918791612271565b60405180910390a1505050611a45565b80611a3d816121ac565b91505061195b565b5050600060038190556005555050505050505050505050505050565b6000828152600260205260408120600101549003611a915760405162461bcd60e51b8152600401610311906121d3565b604080518082018252600084815260026020819052928120549092829160ff1690811115611ac157611ac1611d35565b8152602001838152509050806002600084815260200190815260200160002060008201518160000160006101000a81548160ff02191690836002811115611b0a57611b0a611d35565b02179055506020918201516001918201556000858152600290925260408220805460ff19168155018190555b600154811015611be0578360018281548110611b5457611b54612138565b90600052602060002090600202016001015403611bce578160018281548110611b7f57611b7f612138565b906000526020600020906002020160008201518160000160006101000a81548160ff02191690836002811115611bb757611bb7611d35565b021790555060208201518160010155905050611be0565b80611bd8816121ac565b915050611b36565b5080516040516000805160206122e283398151915291611c039186908690612042565b60405180910390a1505050565b60006040518060400160405280846002811115611c2f57611c2f611d35565b81526020018390526001805480820182556000829052825160029182027fb10e2d527612073b26eecdfd717e6a320cf44b4afac2b0732d9fcbe2b7fa0cf6018054949550859490939192849260ff1990921691908490811115611c9457611c94611d35565b021790555060209182015160019182015560008481526002928390526040902083518154859492939192849260ff1990921691908490811115611cd957611cd9611d35565b0217905550602082015181600101559050507f2172c7b01a6de957d29fd6166a23025d181bf56538ad606a526ab2d62603f3fc8383604051611c03929190611d6d565b600060208284031215611d2e57600080fd5b5035919050565b634e487b7160e01b600052602160045260246000fd5b60038110611d6957634e487b7160e01b600052602160045260246000fd5b9052565b60408101611d7b8285611d4b565b8260208301529392505050565b806140008101831015611d9a57600080fd5b92915050565b806120008101831015611d9a57600080fd5b6000806000806140608587031215611dc957600080fd5b611dd38686611d88565b935061400085013567ffffffffffffffff811115611df057600080fd5b611dfc87828801611da0565b9497949650505050614020830135926140400135919050565b634e487b7160e01b600052604160045260246000fd5b6000806000806140608587031215611e4257600080fd5b611e4c8686611d88565b935061400085013567ffffffffffffffff80821115611e6a57600080fd5b611e7688838901611da0565b94506140208701359350614040870135915080821115611e9557600080fd5b818701915087601f830112611ea957600080fd5b813581811115611ebb57611ebb611e15565b604051601f8201601f19908116603f01168101908382118183101715611ee357611ee3611e15565b816040528281528a6020848701011115611efc57600080fd5b82602086016020830137600060208483010152809550505050505092959194509250565b6000806000806140608587031215611f3757600080fd5b611f418686611d88565b9350614000850135925061402085013567ffffffffffffffff811115611f6657600080fd5b611f7287828801611da0565b94979396509394614040013593505050565b60008060006140408486031215611f9a57600080fd5b83359250602084013567ffffffffffffffff811115611fb857600080fd5b611fc486828701611da0565b925050611fd48560408601611d88565b90509250925092565b600060208284031215611fef57600080fd5b813560038110610df157600080fd5b6020808252825182820181905260009190848201906040850190845b818110156120365783518352928401929184019160010161201a565b50909695505050505050565b606081016120508286611d4b565b602082019390935260400152919050565b6020808252601c908201527f4c616d706f7274426173653a206e6f7420696e697469616c697a656400000000604082015260600190565b60008183825b6101008110156120bf5760408083853792830192919091019060010161209e565b5050506140008201905092915050565b6020808252601d908201527f4c616d706f7274426173653a204e6f742061206d6173746572206b6579000000604082015260600190565b6000835160005b81811015612127576020818701810151858301520161210d565b509190910191825250602001919050565b634e487b7160e01b600052603260045260246000fd5b6000808335601e1984360301811261216557600080fd5b83018035915067ffffffffffffffff82111561218057600080fd5b60200191503681900382131561219557600080fd5b9250929050565b8183823760009101908152919050565b6000600182016121cc57634e487b7160e01b600052601160045260246000fd5b5060010190565b60208082526018908201527f4c616d706f7274426173653a204e6f2073756368206b65790000000000000000604082015260600190565b60208082526041908201527f4c616d706f7274426173653a2043616e6e6f7420757365207468652073616d6560408201527f206b6579636861696e20747769636520666f7220746869732066756e6374696f6060820152603760f91b608082015260a00190565b6080810161227f8287611d4b565b8460208301528360408301526122986060830184611d4b565b9594505050505056fe32629d580208e19f97e5752eef849e102f803999c88aa7f75e12b1744eecd5a7d87e68f36f73a7eb22739d6639e36cafebfcde0b5543340b39f42cac68fdd1f06825a39bd161f4ef5aab6cfd2c26db3ee0005c11b43cffd544fc876312116edda26469706673582212207d02239ca2603d2e91d2fddf7b662e6436d5d7bc949d8666ea3354cad3ed5d8264736f6c63430008150033",
  "bytecodeSha1": "02019df0ecfb7bb4257ce27071cede4a2afd8f11",
  "compiler": {
    "evm_version": "istanbul",
    "optimizer": {
      "enabled": true,
      "runs": 200
    },
    "version": "0.8.21+commit.d9974bed"
  },
  "contractName": "LamportBase2",
  "language": "Solidity",
  "natspec": {
    "kind": "dev",
    "methods": {},
    "version": 1
  },
  "opcodes": "PUSH1 0x80 PUSH1 0x40 MSTORE CALLVALUE DUP1 ISZERO PUSH2 0x10 JUMPI PUSH1 0x0 DUP1 REVERT JUMPDEST POP PUSH1 0x4 CALLDATASIZE LT PUSH2 0x100 JUMPI PUSH1 0x0 CALLDATALOAD PUSH1 0xE0 SHR DUP1 PUSH4 0x5796841A GT PUSH2 0x97 JUMPI DUP1 PUSH4 0xB97B4F77 GT PUSH2 0x66 JUMPI DUP1 PUSH4 0xB97B4F77 EQ PUSH2 0x22F JUMPI DUP1 PUSH4 0xB9D57C5F EQ PUSH2 0x24F JUMPI DUP1 PUSH4 0xBC60FB49 EQ PUSH2 0x271 JUMPI DUP1 PUSH4 0xBD5A6D07 EQ PUSH2 0x284 JUMPI PUSH1 0x0 DUP1 REVERT JUMPDEST DUP1 PUSH4 0x5796841A EQ PUSH2 0x1C9 JUMPI DUP1 PUSH4 0x8EB8F1A6 EQ PUSH2 0x1DC JUMPI DUP1 PUSH4 0xA9711EE3 EQ PUSH2 0x1EF JUMPI DUP1 PUSH4 0xAF82F3E7 EQ PUSH2 0x21C JUMPI PUSH1 0x0 DUP1 REVERT JUMPDEST DUP1 PUSH4 0x4A89D52B GT PUSH2 0xD3 JUMPI DUP1 PUSH4 0x4A89D52B EQ PUSH2 0x179 JUMPI DUP1 PUSH4 0x4BDD4499 EQ PUSH2 0x18C JUMPI DUP1 PUSH4 0x4E657D2A EQ PUSH2 0x1A3 JUMPI DUP1 PUSH4 0x54F9EE03 EQ PUSH2 0x1B6 JUMPI PUSH1 0x0 DUP1 REVERT JUMPDEST DUP1 PUSH4 0xCB6AAF1 EQ PUSH2 0x105 JUMPI DUP1 PUSH4 0x251DE390 EQ PUSH2 0x12F JUMPI DUP1 PUSH4 0x2FD5C247 EQ PUSH2 0x144 JUMPI DUP1 PUSH4 0x333F6111 EQ PUSH2 0x166 JUMPI JUMPDEST PUSH1 0x0 DUP1 REVERT JUMPDEST PUSH2 0x118 PUSH2 0x113 CALLDATASIZE PUSH1 0x4 PUSH2 0x1D1C JUMP JUMPDEST PUSH2 0x297 JUMP JUMPDEST PUSH1 0x40 MLOAD PUSH2 0x126 SWAP3 SWAP2 SWAP1 PUSH2 0x1D6D JUMP JUMPDEST PUSH1 0x40 MLOAD DUP1 SWAP2 SUB SWAP1 RETURN JUMPDEST PUSH2 0x142 PUSH2 0x13D CALLDATASIZE PUSH1 0x4 PUSH2 0x1DB2 JUMP JUMPDEST PUSH2 0x2C9 JUMP JUMPDEST STOP JUMPDEST PUSH1 0x0 SLOAD PUSH2 0x156 SWAP1 PUSH2 0x100 SWAP1 DIV PUSH1 0xFF AND DUP2 JUMP JUMPDEST PUSH1 0x40 MLOAD SWAP1 ISZERO ISZERO DUP2 MSTORE PUSH1 0x20 ADD PUSH2 0x126 JUMP JUMPDEST PUSH2 0x156 PUSH2 0x174 CALLDATASIZE PUSH1 0x4 PUSH2 0x1E2B JUMP JUMPDEST PUSH2 0x4C6 JUMP JUMPDEST PUSH2 0x156 PUSH2 0x187 CALLDATASIZE PUSH1 0x4 PUSH2 0x1E2B JUMP JUMPDEST PUSH2 0x5B7 JUMP JUMPDEST PUSH2 0x195 PUSH1 0x6 SLOAD DUP2 JUMP JUMPDEST PUSH1 0x40 MLOAD SWAP1 DUP2 MSTORE PUSH1 0x20 ADD PUSH2 0x126 JUMP JUMPDEST PUSH2 0x142 PUSH2 0x1B1 CALLDATASIZE PUSH1 0x4 PUSH2 0x1E2B JUMP JUMPDEST PUSH2 0x60E JUMP JUMPDEST PUSH2 0x142 PUSH2 0x1C4 CALLDATASIZE PUSH1 0x4 PUSH2 0x1DB2 JUMP JUMPDEST PUSH2 0x793 JUMP JUMPDEST PUSH2 0x142 PUSH2 0x1D7 CALLDATASIZE PUSH1 0x4 PUSH2 0x1DB2 JUMP JUMPDEST PUSH2 0x93B JUMP JUMPDEST PUSH2 0x142 PUSH2 0x1EA CALLDATASIZE PUSH1 0x4 PUSH2 0x1F20 JUMP JUMPDEST PUSH2 0xB9A JUMP JUMPDEST PUSH2 0x118 PUSH2 0x1FD CALLDATASIZE PUSH1 0x4 PUSH2 0x1D1C JUMP JUMPDEST PUSH1 0x2 PUSH1 0x20 MSTORE PUSH1 0x0 SWAP1 DUP2 MSTORE PUSH1 0x40 SWAP1 KECCAK256 DUP1 SLOAD PUSH1 0x1 SWAP1 SWAP2 ADD SLOAD PUSH1 0xFF SWAP1 SWAP2 AND SWAP1 DUP3 JUMP JUMPDEST PUSH2 0x156 PUSH2 0x22A CALLDATASIZE PUSH1 0x4 PUSH2 0x1F84 JUMP JUMPDEST PUSH2 0xD43 JUMP JUMPDEST PUSH2 0x242 PUSH2 0x23D CALLDATASIZE PUSH1 0x4 PUSH2 0x1FDD JUMP JUMPDEST PUSH2 0xDF8 JUMP JUMPDEST PUSH1 0x40 MLOAD PUSH2 0x126 SWAP2 SWAP1 PUSH2 0x1FFE JUMP JUMPDEST PUSH2 0x262 PUSH2 0x25D CALLDATASIZE PUSH1 0x4 PUSH2 0x1D1C JUMP JUMPDEST PUSH2 0xFA8 JUMP JUMPDEST PUSH1 0x40 MLOAD PUSH2 0x126 SWAP4 SWAP3 SWAP2 SWAP1 PUSH2 0x2042 JUMP JUMPDEST PUSH2 0x142 PUSH2 0x27F CALLDATASIZE PUSH1 0x4 PUSH2 0x1DB2 JUMP JUMPDEST PUSH2 0x10A6 JUMP JUMPDEST PUSH2 0x142 PUSH2 0x292 CALLDATASIZE PUSH1 0x4 PUSH2 0x1DB2 JUMP JUMPDEST PUSH2 0x158C JUMP JUMPDEST PUSH1 0x1 DUP2 DUP2 SLOAD DUP2 LT PUSH2 0x2A7 JUMPI PUSH1 0x0 DUP1 REVERT JUMPDEST PUSH1 0x0 SWAP2 DUP3 MSTORE PUSH1 0x20 SWAP1 SWAP2 KECCAK256 PUSH1 0x2 SWAP1 SWAP2 MUL ADD DUP1 SLOAD PUSH1 0x1 SWAP1 SWAP2 ADD SLOAD PUSH1 0xFF SWAP1 SWAP2 AND SWAP2 POP DUP3 JUMP JUMPDEST DUP4 DUP4 DUP4 DUP4 PUSH1 0x40 MLOAD PUSH1 0x20 ADD PUSH2 0x2DF SWAP2 DUP2 MSTORE PUSH1 0x20 ADD SWAP1 JUMP JUMPDEST PUSH1 0x40 DUP1 MLOAD PUSH1 0x1F NOT DUP2 DUP5 SUB ADD DUP2 MSTORE SWAP2 SWAP1 MSTORE PUSH1 0x0 SLOAD PUSH1 0xFF AND PUSH2 0x31A JUMPI PUSH1 0x40 MLOAD PUSH3 0x461BCD PUSH1 0xE5 SHL DUP2 MSTORE PUSH1 0x4 ADD PUSH2 0x311 SWAP1 PUSH2 0x2061 JUMP JUMPDEST PUSH1 0x40 MLOAD DUP1 SWAP2 SUB SWAP1 REVERT JUMPDEST PUSH1 0x0 DUP5 PUSH1 0x40 MLOAD PUSH1 0x20 ADD PUSH2 0x32D SWAP2 SWAP1 PUSH2 0x2098 JUMP JUMPDEST PUSH1 0x40 DUP1 MLOAD PUSH1 0x1F NOT DUP2 DUP5 SUB ADD DUP2 MSTORE SWAP2 SWAP1 MSTORE DUP1 MLOAD PUSH1 0x20 SWAP1 SWAP2 ADD KECCAK256 SWAP1 POP PUSH1 0x0 DUP1 DUP3 DUP2 MSTORE PUSH1 0x2 PUSH1 0x20 DUP2 SWAP1 MSTORE PUSH1 0x40 SWAP1 SWAP2 KECCAK256 SLOAD PUSH1 0xFF AND SWAP1 DUP2 GT ISZERO PUSH2 0x36D JUMPI PUSH2 0x36D PUSH2 0x1D35 JUMP JUMPDEST EQ PUSH2 0x38A JUMPI PUSH1 0x40 MLOAD PUSH3 0x461BCD PUSH1 0xE5 SHL DUP2 MSTORE PUSH1 0x4 ADD PUSH2 0x311 SWAP1 PUSH2 0x20CF JUMP JUMPDEST PUSH1 0x0 DUP3 DUP5 PUSH1 0x40 MLOAD PUSH1 0x20 ADD PUSH2 0x39F SWAP3 SWAP2 SWAP1 PUSH2 0x2106 JUMP JUMPDEST PUSH1 0x40 DUP1 MLOAD PUSH1 0x1F NOT DUP2 DUP5 SUB ADD DUP2 MSTORE SWAP1 DUP3 SWAP1 MSTORE DUP1 MLOAD PUSH1 0x20 SWAP2 DUP3 ADD KECCAK256 DUP1 DUP4 MSTORE SWAP3 POP PUSH1 0x0 DUP1 MLOAD PUSH1 0x20 PUSH2 0x22C2 DUP4 CODECOPY DUP2 MLOAD SWAP2 MSTORE SWAP2 ADD PUSH1 0x40 MLOAD DUP1 SWAP2 SUB SWAP1 LOG1 PUSH1 0x0 PUSH2 0x3E3 DUP3 DUP8 DUP10 PUSH2 0xD43 JUMP JUMPDEST PUSH1 0x0 DUP1 SLOAD PUSH2 0xFF00 NOT AND PUSH2 0x100 DUP4 ISZERO ISZERO MUL OR SWAP1 SSTORE SWAP1 POP DUP1 PUSH2 0x467 JUMPI PUSH1 0x40 MLOAD DUP3 DUP2 MSTORE PUSH1 0x0 DUP1 MLOAD PUSH1 0x20 PUSH2 0x22A2 DUP4 CODECOPY DUP2 MLOAD SWAP2 MSTORE SWAP1 PUSH1 0x20 ADD JUMPDEST PUSH1 0x40 MLOAD DUP1 SWAP2 SUB SWAP1 LOG1 PUSH1 0x40 MLOAD PUSH3 0x461BCD PUSH1 0xE5 SHL DUP2 MSTORE PUSH1 0x20 PUSH1 0x4 DUP3 ADD DUP2 SWAP1 MSTORE PUSH1 0x24 DUP3 ADD MSTORE PUSH32 0x4C616D706F7274426173653A20566572696669636174696F6E206661696C6564 PUSH1 0x44 DUP3 ADD MSTORE PUSH1 0x64 ADD PUSH2 0x311 JUMP JUMPDEST PUSH1 0x0 DUP4 DUP2 MSTORE PUSH1 0x2 PUSH1 0x20 MSTORE PUSH1 0x40 SWAP1 DUP2 SWAP1 KECCAK256 SLOAD SWAP1 MLOAD PUSH1 0x0 DUP1 MLOAD PUSH1 0x20 PUSH2 0x22E2 DUP4 CODECOPY DUP2 MLOAD SWAP2 MSTORE SWAP2 PUSH2 0x49D SWAP2 PUSH1 0xFF SWAP1 SWAP2 AND SWAP1 DUP7 SWAP1 DUP10 SWAP1 PUSH2 0x2042 JUMP JUMPDEST PUSH1 0x40 MLOAD DUP1 SWAP2 SUB SWAP1 LOG1 PUSH2 0x4AF DUP4 DUP7 PUSH2 0x1A61 JUMP JUMPDEST POP POP POP PUSH1 0x3 SWAP5 SWAP1 SWAP5 SSTORE POP POP POP PUSH1 0x5 SWAP2 SWAP1 SWAP2 SSTORE POP POP POP JUMP JUMPDEST PUSH1 0x0 DUP1 SLOAD PUSH1 0xFF AND PUSH2 0x4E9 JUMPI PUSH1 0x40 MLOAD PUSH3 0x461BCD PUSH1 0xE5 SHL DUP2 MSTORE PUSH1 0x4 ADD PUSH2 0x311 SWAP1 PUSH2 0x2061 JUMP JUMPDEST PUSH1 0x0 DUP6 PUSH1 0x40 MLOAD PUSH1 0x20 ADD PUSH2 0x4FC SWAP2 SWAP1 PUSH2 0x2098 JUMP JUMPDEST PUSH1 0x40 DUP1 MLOAD PUSH1 0x1F NOT DUP2 DUP5 SUB ADD DUP2 MSTORE SWAP2 SWAP1 MSTORE DUP1 MLOAD PUSH1 0x20 SWAP1 SWAP2 ADD KECCAK256 SWAP1 POP PUSH1 0x0 JUMPDEST PUSH1 0x0 DUP3 DUP2 MSTORE PUSH1 0x2 PUSH1 0x20 DUP2 SWAP1 MSTORE PUSH1 0x40 SWAP1 SWAP2 KECCAK256 SLOAD PUSH1 0xFF AND SWAP1 DUP2 GT ISZERO PUSH2 0x53E JUMPI PUSH2 0x53E PUSH2 0x1D35 JUMP JUMPDEST EQ PUSH2 0x54D JUMPI PUSH1 0x0 SWAP2 POP POP PUSH2 0x5AF JUMP JUMPDEST PUSH1 0x0 DUP4 DUP6 PUSH1 0x40 MLOAD PUSH1 0x20 ADD PUSH2 0x562 SWAP3 SWAP2 SWAP1 PUSH2 0x2106 JUMP JUMPDEST PUSH1 0x40 MLOAD PUSH1 0x20 DUP2 DUP4 SUB SUB DUP2 MSTORE SWAP1 PUSH1 0x40 MSTORE DUP1 MLOAD SWAP1 PUSH1 0x20 ADD KECCAK256 PUSH1 0x0 SHR SWAP1 POP PUSH1 0x0 PUSH2 0x58A DUP3 DUP9 DUP11 PUSH2 0xD43 JUMP JUMPDEST SWAP1 POP DUP1 PUSH2 0x59D JUMPI PUSH1 0x0 SWAP4 POP POP POP POP PUSH2 0x5AF JUMP JUMPDEST PUSH2 0x5A7 DUP4 DUP8 PUSH2 0x1A61 JUMP JUMPDEST PUSH1 0x1 SWAP4 POP POP POP POP JUMPDEST SWAP5 SWAP4 POP POP POP POP JUMP JUMPDEST PUSH1 0x0 DUP1 SLOAD PUSH1 0xFF AND PUSH2 0x5DA JUMPI PUSH1 0x40 MLOAD PUSH3 0x461BCD PUSH1 0xE5 SHL DUP2 MSTORE PUSH1 0x4 ADD PUSH2 0x311 SWAP1 PUSH2 0x2061 JUMP JUMPDEST PUSH1 0x0 DUP6 PUSH1 0x40 MLOAD PUSH1 0x20 ADD PUSH2 0x5ED SWAP2 SWAP1 PUSH2 0x2098 JUMP JUMPDEST PUSH1 0x40 DUP1 MLOAD PUSH1 0x1F NOT DUP2 DUP5 SUB ADD DUP2 MSTORE SWAP2 SWAP1 MSTORE DUP1 MLOAD PUSH1 0x20 SWAP1 SWAP2 ADD KECCAK256 SWAP1 POP PUSH1 0x1 PUSH2 0x519 JUMP JUMPDEST PUSH1 0x0 SLOAD DUP5 SWAP1 DUP5 SWAP1 DUP5 SWAP1 DUP5 SWAP1 PUSH1 0xFF AND PUSH2 0x638 JUMPI PUSH1 0x40 MLOAD PUSH3 0x461BCD PUSH1 0xE5 SHL DUP2 MSTORE PUSH1 0x4 ADD PUSH2 0x311 SWAP1 PUSH2 0x2061 JUMP JUMPDEST PUSH1 0x0 DUP5 PUSH1 0x40 MLOAD PUSH1 0x20 ADD PUSH2 0x64B SWAP2 SWAP1 PUSH2 0x2098 JUMP JUMPDEST PUSH1 0x40 DUP1 MLOAD PUSH1 0x1F NOT DUP2 DUP5 SUB ADD DUP2 MSTORE SWAP2 SWAP1 MSTORE DUP1 MLOAD PUSH1 0x20 SWAP1 SWAP2 ADD KECCAK256 SWAP1 POP PUSH1 0x0 DUP1 DUP3 DUP2 MSTORE PUSH1 0x2 PUSH1 0x20 DUP2 SWAP1 MSTORE PUSH1 0x40 SWAP1 SWAP2 KECCAK256 SLOAD PUSH1 0xFF AND SWAP1 DUP2 GT ISZERO PUSH2 0x68B JUMPI PUSH2 0x68B PUSH2 0x1D35 JUMP JUMPDEST EQ PUSH2 0x6A8 JUMPI PUSH1 0x40 MLOAD PUSH3 0x461BCD PUSH1 0xE5 SHL DUP2 MSTORE PUSH1 0x4 ADD PUSH2 0x311 SWAP1 PUSH2 0x20CF JUMP JUMPDEST PUSH1 0x0 DUP3 DUP5 PUSH1 0x40 MLOAD PUSH1 0x20 ADD PUSH2 0x6BD SWAP3 SWAP2 SWAP1 PUSH2 0x2106 JUMP JUMPDEST PUSH1 0x40 DUP1 MLOAD PUSH1 0x1F NOT DUP2 DUP5 SUB ADD DUP2 MSTORE SWAP1 DUP3 SWAP1 MSTORE DUP1 MLOAD PUSH1 0x20 SWAP2 DUP3 ADD KECCAK256 DUP1 DUP4 MSTORE SWAP3 POP PUSH1 0x0 DUP1 MLOAD PUSH1 0x20 PUSH2 0x22C2 DUP4 CODECOPY DUP2 MLOAD SWAP2 MSTORE SWAP2 ADD PUSH1 0x40 MLOAD DUP1 SWAP2 SUB SWAP1 LOG1 PUSH1 0x0 PUSH2 0x701 DUP3 DUP8 DUP10 PUSH2 0xD43 JUMP JUMPDEST PUSH1 0x0 DUP1 SLOAD PUSH2 0xFF00 NOT AND PUSH2 0x100 DUP4 ISZERO ISZERO MUL OR SWAP1 SSTORE SWAP1 POP DUP1 PUSH2 0x739 JUMPI PUSH1 0x40 MLOAD DUP3 DUP2 MSTORE PUSH1 0x0 DUP1 MLOAD PUSH1 0x20 PUSH2 0x22A2 DUP4 CODECOPY DUP2 MLOAD SWAP2 MSTORE SWAP1 PUSH1 0x20 ADD PUSH2 0x417 JUMP JUMPDEST PUSH1 0x0 DUP4 DUP2 MSTORE PUSH1 0x2 PUSH1 0x20 MSTORE PUSH1 0x40 SWAP1 DUP2 SWAP1 KECCAK256 SLOAD SWAP1 MLOAD PUSH1 0x0 DUP1 MLOAD PUSH1 0x20 PUSH2 0x22E2 DUP4 CODECOPY DUP2 MLOAD SWAP2 MSTORE SWAP2 PUSH2 0x76F SWAP2 PUSH1 0xFF SWAP1 SWAP2 AND SWAP1 DUP7 SWAP1 DUP10 SWAP1 PUSH2 0x2042 JUMP JUMPDEST PUSH1 0x40 MLOAD DUP1 SWAP2 SUB SWAP1 LOG1 PUSH2 0x781 DUP4 DUP7 PUSH2 0x1A61 JUMP JUMPDEST POP POP POP PUSH1 0x6 SWAP6 SWAP1 SWAP6 SSTORE POP POP POP POP POP POP POP JUMP JUMPDEST DUP4 DUP4 DUP4 DUP4 PUSH1 0x40 MLOAD PUSH1 0x20 ADD PUSH2 0x7A9 SWAP2 DUP2 MSTORE PUSH1 0x20 ADD SWAP1 JUMP JUMPDEST PUSH1 0x40 DUP1 MLOAD PUSH1 0x1F NOT DUP2 DUP5 SUB ADD DUP2 MSTORE SWAP2 SWAP1 MSTORE PUSH1 0x0 SLOAD PUSH1 0xFF AND PUSH2 0x7DB JUMPI PUSH1 0x40 MLOAD PUSH3 0x461BCD PUSH1 0xE5 SHL DUP2 MSTORE PUSH1 0x4 ADD PUSH2 0x311 SWAP1 PUSH2 0x2061 JUMP JUMPDEST PUSH1 0x0 DUP5 PUSH1 0x40 MLOAD PUSH1 0x20 ADD PUSH2 0x7EE SWAP2 SWAP1 PUSH2 0x2098 JUMP JUMPDEST PUSH1 0x40 DUP1 MLOAD PUSH1 0x1F NOT DUP2 DUP5 SUB ADD DUP2 MSTORE SWAP2 SWAP1 MSTORE DUP1 MLOAD PUSH1 0x20 SWAP1 SWAP2 ADD KECCAK256 SWAP1 POP PUSH1 0x0 DUP1 DUP3 DUP2 MSTORE PUSH1 0x2 PUSH1 0x20 DUP2 SWAP1 MSTORE PUSH1 0x40 SWAP1 SWAP2 KECCAK256 SLOAD PUSH1 0xFF AND SWAP1 DUP2 GT ISZERO PUSH2 0x82E JUMPI PUSH2 0x82E PUSH2 0x1D35 JUMP JUMPDEST EQ PUSH2 0x84B JUMPI PUSH1 0x40 MLOAD PUSH3 0x461BCD PUSH1 0xE5 SHL DUP2 MSTORE PUSH1 0x4 ADD PUSH2 0x311 SWAP1 PUSH2 0x20CF JUMP JUMPDEST PUSH1 0x0 DUP3 DUP5 PUSH1 0x40 MLOAD PUSH1 0x20 ADD PUSH2 0x860 SWAP3 SWAP2 SWAP1 PUSH2 0x2106 JUMP JUMPDEST PUSH1 0x40 DUP1 MLOAD PUSH1 0x1F NOT DUP2 DUP5 SUB ADD DUP2 MSTORE SWAP1 DUP3 SWAP1 MSTORE DUP1 MLOAD PUSH1 0x20 SWAP2 DUP3 ADD KECCAK256 DUP1 DUP4 MSTORE SWAP3 POP PUSH1 0x0 DUP1 MLOAD PUSH1 0x20 PUSH2 0x22C2 DUP4 CODECOPY DUP2 MLOAD SWAP2 MSTORE SWAP2 ADD PUSH1 0x40 MLOAD DUP1 SWAP2 SUB SWAP1 LOG1 PUSH1 0x0 PUSH2 0x8A4 DUP3 DUP8 DUP10 PUSH2 0xD43 JUMP JUMPDEST PUSH1 0x0 DUP1 SLOAD PUSH2 0xFF00 NOT AND PUSH2 0x100 DUP4 ISZERO ISZERO MUL OR SWAP1 SSTORE SWAP1 POP DUP1 PUSH2 0x8DC JUMPI PUSH1 0x40 MLOAD DUP3 DUP2 MSTORE PUSH1 0x0 DUP1 MLOAD PUSH1 0x20 PUSH2 0x22A2 DUP4 CODECOPY DUP2 MLOAD SWAP2 MSTORE SWAP1 PUSH1 0x20 ADD PUSH2 0x417 JUMP JUMPDEST PUSH1 0x0 DUP4 DUP2 MSTORE PUSH1 0x2 PUSH1 0x20 MSTORE PUSH1 0x40 SWAP1 DUP2 SWAP1 KECCAK256 SLOAD SWAP1 MLOAD PUSH1 0x0 DUP1 MLOAD PUSH1 0x20 PUSH2 0x22E2 DUP4 CODECOPY DUP2 MLOAD SWAP2 MSTORE SWAP2 PUSH2 0x912 SWAP2 PUSH1 0xFF SWAP1 SWAP2 AND SWAP1 DUP7 SWAP1 DUP10 SWAP1 PUSH2 0x2042 JUMP JUMPDEST PUSH1 0x40 MLOAD DUP1 SWAP2 SUB SWAP1 LOG1 PUSH2 0x924 DUP4 DUP7 PUSH2 0x1A61 JUMP JUMPDEST POP POP POP PUSH1 0x4 SWAP5 SWAP1 SWAP5 SSTORE POP POP POP PUSH1 0x5 SWAP2 SWAP1 SWAP2 SSTORE POP POP POP JUMP JUMPDEST DUP4 DUP4 DUP4 DUP4 PUSH1 0x40 MLOAD PUSH1 0x20 ADD PUSH2 0x951 SWAP2 DUP2 MSTORE PUSH1 0x20 ADD SWAP1 JUMP JUMPDEST PUSH1 0x40 DUP1 MLOAD PUSH1 0x1F NOT DUP2 DUP5 SUB ADD DUP2 MSTORE SWAP2 SWAP1 MSTORE PUSH1 0x0 SLOAD PUSH1 0xFF AND PUSH2 0x983 JUMPI PUSH1 0x40 MLOAD PUSH3 0x461BCD PUSH1 0xE5 SHL DUP2 MSTORE PUSH1 0x4 ADD PUSH2 0x311 SWAP1 PUSH2 0x2061 JUMP JUMPDEST PUSH1 0x0 DUP5 PUSH1 0x40 MLOAD PUSH1 0x20 ADD PUSH2 0x996 SWAP2 SWAP1 PUSH2 0x2098 JUMP JUMPDEST PUSH1 0x40 DUP1 MLOAD PUSH1 0x1F NOT DUP2 DUP5 SUB ADD DUP2 MSTORE SWAP2 SWAP1 MSTORE DUP1 MLOAD PUSH1 0x20 SWAP1 SWAP2 ADD KECCAK256 SWAP1 POP PUSH1 0x0 DUP1 DUP3 DUP2 MSTORE PUSH1 0x2 PUSH1 0x20 DUP2 SWAP1 MSTORE PUSH1 0x40 SWAP1 SWAP2 KECCAK256 SLOAD PUSH1 0xFF AND SWAP1 DUP2 GT ISZERO PUSH2 0x9D6 JUMPI PUSH2 0x9D6 PUSH2 0x1D35 JUMP JUMPDEST EQ PUSH2 0x9F3 JUMPI PUSH1 0x40 MLOAD PUSH3 0x461BCD PUSH1 0xE5 SHL DUP2 MSTORE PUSH1 0x4 ADD PUSH2 0x311 SWAP1 PUSH2 0x20CF JUMP JUMPDEST PUSH1 0x0 DUP3 DUP5 PUSH1 0x40 MLOAD PUSH1 0x20 ADD PUSH2 0xA08 SWAP3 SWAP2 SWAP1 PUSH2 0x2106 JUMP JUMPDEST PUSH1 0x40 DUP1 MLOAD PUSH1 0x1F NOT DUP2 DUP5 SUB ADD DUP2 MSTORE SWAP1 DUP3 SWAP1 MSTORE DUP1 MLOAD PUSH1 0x20 SWAP2 DUP3 ADD KECCAK256 DUP1 DUP4 MSTORE SWAP3 POP PUSH1 0x0 DUP1 MLOAD PUSH1 0x20 PUSH2 0x22C2 DUP4 CODECOPY DUP2 MLOAD SWAP2 MSTORE SWAP2 ADD PUSH1 0x40 MLOAD DUP1 SWAP2 SUB SWAP1 LOG1 PUSH1 0x0 PUSH2 0xA4C DUP3 DUP8 DUP10 PUSH2 0xD43 JUMP JUMPDEST PUSH1 0x0 DUP1 SLOAD PUSH2 0xFF00 NOT AND PUSH2 0x100 DUP4 ISZERO ISZERO MUL OR SWAP1 SSTORE SWAP1 POP DUP1 PUSH2 0xA84 JUMPI PUSH1 0x40 MLOAD DUP3 DUP2 MSTORE PUSH1 0x0 DUP1 MLOAD PUSH1 0x20 PUSH2 0x22A2 DUP4 CODECOPY DUP2 MLOAD SWAP2 MSTORE SWAP1 PUSH1 0x20 ADD PUSH2 0x417 JUMP JUMPDEST PUSH1 0x0 DUP4 DUP2 MSTORE PUSH1 0x2 PUSH1 0x20 MSTORE PUSH1 0x40 SWAP1 DUP2 SWAP1 KECCAK256 SLOAD SWAP1 MLOAD PUSH1 0x0 DUP1 MLOAD PUSH1 0x20 PUSH2 0x22E2 DUP4 CODECOPY DUP2 MLOAD SWAP2 MSTORE SWAP2 PUSH2 0xABA SWAP2 PUSH1 0xFF SWAP1 SWAP2 AND SWAP1 DUP7 SWAP1 DUP10 SWAP1 PUSH2 0x2042 JUMP JUMPDEST PUSH1 0x40 MLOAD DUP1 SWAP2 SUB SWAP1 LOG1 PUSH2 0xACC DUP4 DUP7 PUSH2 0x1A61 JUMP JUMPDEST PUSH1 0x0 DUP12 PUSH1 0x40 MLOAD PUSH1 0x20 ADD PUSH2 0xADF SWAP2 SWAP1 PUSH2 0x2098 JUMP JUMPDEST PUSH1 0x40 DUP1 MLOAD PUSH1 0x1F NOT DUP2 DUP5 SUB ADD DUP2 MSTORE SWAP2 SWAP1 MSTORE DUP1 MLOAD PUSH1 0x20 SWAP1 SWAP2 ADD KECCAK256 PUSH1 0x6 DUP1 SLOAD PUSH1 0x0 SWAP1 SWAP2 SSTORE SWAP1 SWAP2 POP DUP2 EQ ISZERO DUP1 PUSH2 0xB7B JUMPI PUSH1 0x40 DUP1 MLOAD PUSH3 0x461BCD PUSH1 0xE5 SHL DUP2 MSTORE PUSH1 0x20 PUSH1 0x4 DUP3 ADD MSTORE PUSH1 0x24 DUP2 ADD SWAP2 SWAP1 SWAP2 MSTORE PUSH32 0x4C616D706F7274426173653A20504B48206D617463686573206C617374207573 PUSH1 0x44 DUP3 ADD MSTORE PUSH32 0x656420504B482028757365207365706172617465207365636F6E64206B657929 PUSH1 0x64 DUP3 ADD MSTORE PUSH1 0x84 ADD PUSH2 0x311 JUMP JUMPDEST PUSH2 0xB86 PUSH1 0x0 DUP12 PUSH2 0x1C10 JUMP JUMPDEST POP POP PUSH1 0x0 PUSH1 0x6 SSTORE POP POP POP POP POP POP POP POP POP POP POP JUMP JUMPDEST DUP4 DUP3 DUP5 DUP4 PUSH1 0x40 MLOAD PUSH1 0x20 ADD PUSH2 0xBB0 SWAP2 DUP2 MSTORE PUSH1 0x20 ADD SWAP1 JUMP JUMPDEST PUSH1 0x40 DUP1 MLOAD PUSH1 0x1F NOT DUP2 DUP5 SUB ADD DUP2 MSTORE SWAP2 SWAP1 MSTORE PUSH1 0x0 SLOAD PUSH1 0xFF AND PUSH2 0xBE2 JUMPI PUSH1 0x40 MLOAD PUSH3 0x461BCD PUSH1 0xE5 SHL DUP2 MSTORE PUSH1 0x4 ADD PUSH2 0x311 SWAP1 PUSH2 0x2061 JUMP JUMPDEST PUSH1 0x0 DUP5 PUSH1 0x40 MLOAD PUSH1 0x20 ADD PUSH2 0xBF5 SWAP2 SWAP1 PUSH2 0x2098 JUMP JUMPDEST PUSH1 0x40 DUP1 MLOAD PUSH1 0x1F NOT DUP2 DUP5 SUB ADD DUP2 MSTORE SWAP2 SWAP1 MSTORE DUP1 MLOAD PUSH1 0x20 SWAP1 SWAP2 ADD KECCAK256 SWAP1 POP PUSH1 0x0 DUP1 DUP3 DUP2 MSTORE PUSH1 0x2 PUSH1 0x20 DUP2 SWAP1 MSTORE PUSH1 0x40 SWAP1 SWAP2 KECCAK256 SLOAD PUSH1 0xFF AND SWAP1 DUP2 GT ISZERO PUSH2 0xC35 JUMPI PUSH2 0xC35 PUSH2 0x1D35 JUMP JUMPDEST EQ PUSH2 0xC52 JUMPI PUSH1 0x40 MLOAD PUSH3 0x461BCD PUSH1 0xE5 SHL DUP2 MSTORE PUSH1 0x4 ADD PUSH2 0x311 SWAP1 PUSH2 0x20CF JUMP JUMPDEST PUSH1 0x0 DUP3 DUP5 PUSH1 0x40 MLOAD PUSH1 0x20 ADD PUSH2 0xC67 SWAP3 SWAP2 SWAP1 PUSH2 0x2106 JUMP JUMPDEST PUSH1 0x40 DUP1 MLOAD PUSH1 0x1F NOT DUP2 DUP5 SUB ADD DUP2 MSTORE SWAP1 DUP3 SWAP1 MSTORE DUP1 MLOAD PUSH1 0x20 SWAP2 DUP3 ADD KECCAK256 DUP1 DUP4 MSTORE SWAP3 POP PUSH1 0x0 DUP1 MLOAD PUSH1 0x20 PUSH2 0x22C2 DUP4 CODECOPY DUP2 MLOAD SWAP2 MSTORE SWAP2 ADD PUSH1 0x40 MLOAD DUP1 SWAP2 SUB SWAP1 LOG1 PUSH1 0x0 PUSH2 0xCAB DUP3 DUP8 DUP10 PUSH2 0xD43 JUMP JUMPDEST PUSH1 0x0 DUP1 SLOAD PUSH2 0xFF00 NOT AND PUSH2 0x100 DUP4 ISZERO ISZERO MUL OR SWAP1 SSTORE SWAP1 POP DUP1 PUSH2 0xCE3 JUMPI PUSH1 0x40 MLOAD DUP3 DUP2 MSTORE PUSH1 0x0 DUP1 MLOAD PUSH1 0x20 PUSH2 0x22A2 DUP4 CODECOPY DUP2 MLOAD SWAP2 MSTORE SWAP1 PUSH1 0x20 ADD PUSH2 0x417 JUMP JUMPDEST PUSH1 0x0 DUP4 DUP2 MSTORE PUSH1 0x2 PUSH1 0x20 MSTORE PUSH1 0x40 SWAP1 DUP2 SWAP1 KECCAK256 SLOAD SWAP1 MLOAD PUSH1 0x0 DUP1 MLOAD PUSH1 0x20 PUSH2 0x22E2 DUP4 CODECOPY DUP2 MLOAD SWAP2 MSTORE SWAP2 PUSH2 0xD19 SWAP2 PUSH1 0xFF SWAP1 SWAP2 AND SWAP1 DUP7 SWAP1 DUP10 SWAP1 PUSH2 0x2042 JUMP JUMPDEST PUSH1 0x40 MLOAD DUP1 SWAP2 SUB SWAP1 LOG1 PUSH2 0xD2B DUP4 DUP7 PUSH2 0x1A61 JUMP JUMPDEST PUSH2 0xD36 PUSH1 0x1 DUP10 PUSH2 0x1C10 JUMP JUMPDEST POP POP POP POP POP POP POP POP POP POP POP JUMP JUMPDEST PUSH1 0x0 DUP1 JUMPDEST PUSH2 0x100 DUP2 LT ISZERO PUSH2 0xDEB JUMPI DUP4 DUP2 PUSH2 0x100 DUP2 LT PUSH2 0xD64 JUMPI PUSH2 0xD64 PUSH2 0x2138 JUMP JUMPDEST PUSH1 0x20 MUL DUP2 ADD SWAP1 PUSH2 0xD74 SWAP2 SWAP1 PUSH2 0x214E JUMP JUMPDEST PUSH1 0x40 MLOAD PUSH2 0xD82 SWAP3 SWAP2 SWAP1 PUSH2 0x219C JUMP JUMPDEST PUSH1 0x40 MLOAD DUP1 SWAP2 SUB SWAP1 KECCAK256 DUP4 DUP3 PUSH2 0x100 DUP2 LT PUSH2 0xD9D JUMPI PUSH2 0xD9D PUSH2 0x2138 JUMP JUMPDEST PUSH1 0x40 MUL ADD PUSH1 0x0 DUP4 PUSH1 0xFF SUB PUSH1 0x1 SWAP1 SHL DUP9 AND GT PUSH2 0xDB9 JUMPI PUSH1 0x0 PUSH2 0xDBC JUMP JUMPDEST PUSH1 0x1 JUMPDEST PUSH1 0xFF AND PUSH1 0x2 DUP2 LT PUSH2 0xDCF JUMPI PUSH2 0xDCF PUSH2 0x2138 JUMP JUMPDEST PUSH1 0x20 MUL ADD CALLDATALOAD EQ PUSH2 0xDE3 JUMPI PUSH1 0x0 SWAP2 POP POP PUSH2 0xDF1 JUMP JUMPDEST PUSH1 0x1 ADD PUSH2 0xD47 JUMP JUMPDEST POP PUSH1 0x1 SWAP1 POP JUMPDEST SWAP4 SWAP3 POP POP POP JUMP JUMPDEST PUSH1 0x1 SLOAD PUSH1 0x60 SWAP1 PUSH1 0x0 SWAP1 PUSH8 0xFFFFFFFFFFFFFFFF DUP2 GT ISZERO PUSH2 0xE19 JUMPI PUSH2 0xE19 PUSH2 0x1E15 JUMP JUMPDEST PUSH1 0x40 MLOAD SWAP1 DUP1 DUP3 MSTORE DUP1 PUSH1 0x20 MUL PUSH1 0x20 ADD DUP3 ADD PUSH1 0x40 MSTORE DUP1 ISZERO PUSH2 0xE42 JUMPI DUP2 PUSH1 0x20 ADD PUSH1 0x20 DUP3 MUL DUP1 CALLDATASIZE DUP4 CALLDATACOPY ADD SWAP1 POP JUMPDEST POP SWAP1 POP PUSH1 0x0 DUP1 JUMPDEST PUSH1 0x1 SLOAD DUP2 LT ISZERO PUSH2 0xF03 JUMPI DUP5 PUSH1 0x2 DUP2 GT ISZERO PUSH2 0xE65 JUMPI PUSH2 0xE65 PUSH2 0x1D35 JUMP JUMPDEST PUSH1 0x1 DUP3 DUP2 SLOAD DUP2 LT PUSH2 0xE78 JUMPI PUSH2 0xE78 PUSH2 0x2138 JUMP JUMPDEST PUSH1 0x0 SWAP2 DUP3 MSTORE PUSH1 0x20 SWAP1 SWAP2 KECCAK256 PUSH1 0x2 SWAP2 DUP3 MUL ADD SLOAD PUSH1 0xFF AND SWAP1 DUP2 GT ISZERO PUSH2 0xE9C JUMPI PUSH2 0xE9C PUSH2 0x1D35 JUMP JUMPDEST SUB PUSH2 0xEF1 JUMPI PUSH1 0x1 DUP2 DUP2 SLOAD DUP2 LT PUSH2 0xEB4 JUMPI PUSH2 0xEB4 PUSH2 0x2138 JUMP JUMPDEST SWAP1 PUSH1 0x0 MSTORE PUSH1 0x20 PUSH1 0x0 KECCAK256 SWAP1 PUSH1 0x2 MUL ADD PUSH1 0x1 ADD SLOAD DUP4 DUP4 DUP2 MLOAD DUP2 LT PUSH2 0xED8 JUMPI PUSH2 0xED8 PUSH2 0x2138 JUMP JUMPDEST PUSH1 0x20 SWAP1 DUP2 MUL SWAP2 SWAP1 SWAP2 ADD ADD MSTORE DUP2 PUSH2 0xEED DUP2 PUSH2 0x21AC JUMP JUMPDEST SWAP3 POP POP JUMPDEST DUP1 PUSH2 0xEFB DUP2 PUSH2 0x21AC JUMP JUMPDEST SWAP2 POP POP PUSH2 0xE49 JUMP JUMPDEST POP PUSH1 0x0 DUP2 PUSH8 0xFFFFFFFFFFFFFFFF DUP2 GT ISZERO PUSH2 0xF1F JUMPI PUSH2 0xF1F PUSH2 0x1E15 JUMP JUMPDEST PUSH1 0x40 MLOAD SWAP1 DUP1 DUP3 MSTORE DUP1 PUSH1 0x20 MUL PUSH1 0x20 ADD DUP3 ADD PUSH1 0x40 MSTORE DUP1 ISZERO PUSH2 0xF48 JUMPI DUP2 PUSH1 0x20 ADD PUSH1 0x20 DUP3 MUL DUP1 CALLDATASIZE DUP4 CALLDATACOPY ADD SWAP1 POP JUMPDEST POP SWAP1 POP PUSH1 0x0 JUMPDEST DUP3 DUP2 LT ISZERO PUSH2 0xF9F JUMPI DUP4 DUP2 DUP2 MLOAD DUP2 LT PUSH2 0xF68 JUMPI PUSH2 0xF68 PUSH2 0x2138 JUMP JUMPDEST PUSH1 0x20 MUL PUSH1 0x20 ADD ADD MLOAD DUP3 DUP3 DUP2 MLOAD DUP2 LT PUSH2 0xF82 JUMPI PUSH2 0xF82 PUSH2 0x2138 JUMP JUMPDEST PUSH1 0x20 SWAP1 DUP2 MUL SWAP2 SWAP1 SWAP2 ADD ADD MSTORE DUP1 PUSH2 0xF97 DUP2 PUSH2 0x21AC JUMP JUMPDEST SWAP2 POP POP PUSH2 0xF4E JUMP JUMPDEST POP SWAP5 SWAP4 POP POP POP POP JUMP JUMPDEST PUSH1 0x0 DUP2 DUP2 MSTORE PUSH1 0x2 PUSH1 0x20 DUP2 SWAP1 MSTORE PUSH1 0x40 DUP1 DUP4 KECCAK256 DUP2 MLOAD DUP1 DUP4 ADD SWAP1 SWAP3 MSTORE DUP1 SLOAD DUP5 SWAP4 DUP5 SWAP4 DUP5 SWAP4 SWAP1 SWAP3 SWAP1 SWAP2 DUP4 SWAP2 PUSH1 0xFF AND SWAP1 DUP2 GT ISZERO PUSH2 0xFE2 JUMPI PUSH2 0xFE2 PUSH2 0x1D35 JUMP JUMPDEST PUSH1 0x2 DUP2 GT ISZERO PUSH2 0xFF3 JUMPI PUSH2 0xFF3 PUSH2 0x1D35 JUMP JUMPDEST DUP2 MSTORE PUSH1 0x1 SWAP2 SWAP1 SWAP2 ADD SLOAD PUSH1 0x20 SWAP2 DUP3 ADD MSTORE DUP2 ADD MLOAD SWAP1 SWAP2 POP PUSH1 0x0 SUB PUSH2 0x1027 JUMPI PUSH1 0x40 MLOAD PUSH3 0x461BCD PUSH1 0xE5 SHL DUP2 MSTORE PUSH1 0x4 ADD PUSH2 0x311 SWAP1 PUSH2 0x21D3 JUMP JUMPDEST PUSH1 0x0 JUMPDEST PUSH1 0x1 SLOAD DUP2 LT ISZERO PUSH2 0x1086 JUMPI DUP6 PUSH1 0x1 DUP3 DUP2 SLOAD DUP2 LT PUSH2 0x1048 JUMPI PUSH2 0x1048 PUSH2 0x2138 JUMP JUMPDEST SWAP1 PUSH1 0x0 MSTORE PUSH1 0x20 PUSH1 0x0 KECCAK256 SWAP1 PUSH1 0x2 MUL ADD PUSH1 0x1 ADD SLOAD SUB PUSH2 0x1074 JUMPI DUP2 MLOAD PUSH1 0x20 SWAP1 SWAP3 ADD MLOAD SWAP2 SWAP5 POP SWAP1 SWAP3 POP SWAP1 POP PUSH2 0x109F JUMP JUMPDEST DUP1 PUSH2 0x107E DUP2 PUSH2 0x21AC JUMP JUMPDEST SWAP2 POP POP PUSH2 0x102A JUMP JUMPDEST POP PUSH1 0x40 MLOAD PUSH3 0x461BCD PUSH1 0xE5 SHL DUP2 MSTORE PUSH1 0x4 ADD PUSH2 0x311 SWAP1 PUSH2 0x21D3 JUMP JUMPDEST SWAP2 SWAP4 SWAP1 SWAP3 POP JUMP JUMPDEST DUP4 DUP4 DUP4 DUP4 PUSH1 0x40 MLOAD PUSH1 0x20 ADD PUSH2 0x10BC SWAP2 DUP2 MSTORE PUSH1 0x20 ADD SWAP1 JUMP JUMPDEST PUSH1 0x40 DUP1 MLOAD PUSH1 0x1F NOT DUP2 DUP5 SUB ADD DUP2 MSTORE SWAP2 SWAP1 MSTORE PUSH1 0x0 SLOAD PUSH1 0xFF AND PUSH2 0x10EE JUMPI PUSH1 0x40 MLOAD PUSH3 0x461BCD PUSH1 0xE5 SHL DUP2 MSTORE PUSH1 0x4 ADD PUSH2 0x311 SWAP1 PUSH2 0x2061 JUMP JUMPDEST PUSH1 0x0 DUP5 PUSH1 0x40 MLOAD PUSH1 0x20 ADD PUSH2 0x1101 SWAP2 SWAP1 PUSH2 0x2098 JUMP JUMPDEST PUSH1 0x40 DUP1 MLOAD PUSH1 0x1F NOT DUP2 DUP5 SUB ADD DUP2 MSTORE SWAP2 SWAP1 MSTORE DUP1 MLOAD PUSH1 0x20 SWAP1 SWAP2 ADD KECCAK256 SWAP1 POP PUSH1 0x0 DUP1 DUP3 DUP2 MSTORE PUSH1 0x2 PUSH1 0x20 DUP2 SWAP1 MSTORE PUSH1 0x40 SWAP1 SWAP2 KECCAK256 SLOAD PUSH1 0xFF AND SWAP1 DUP2 GT ISZERO PUSH2 0x1141 JUMPI PUSH2 0x1141 PUSH2 0x1D35 JUMP JUMPDEST EQ PUSH2 0x115E JUMPI PUSH1 0x40 MLOAD PUSH3 0x461BCD PUSH1 0xE5 SHL DUP2 MSTORE PUSH1 0x4 ADD PUSH2 0x311 SWAP1 PUSH2 0x20CF JUMP JUMPDEST PUSH1 0x0 DUP3 DUP5 PUSH1 0x40 MLOAD PUSH1 0x20 ADD PUSH2 0x1173 SWAP3 SWAP2 SWAP1 PUSH2 0x2106 JUMP JUMPDEST PUSH1 0x40 DUP1 MLOAD PUSH1 0x1F NOT DUP2 DUP5 SUB ADD DUP2 MSTORE SWAP1 DUP3 SWAP1 MSTORE DUP1 MLOAD PUSH1 0x20 SWAP2 DUP3 ADD KECCAK256 DUP1 DUP4 MSTORE SWAP3 POP PUSH1 0x0 DUP1 MLOAD PUSH1 0x20 PUSH2 0x22C2 DUP4 CODECOPY DUP2 MLOAD SWAP2 MSTORE SWAP2 ADD PUSH1 0x40 MLOAD DUP1 SWAP2 SUB SWAP1 LOG1 PUSH1 0x0 PUSH2 0x11B7 DUP3 DUP8 DUP10 PUSH2 0xD43 JUMP JUMPDEST PUSH1 0x0 DUP1 SLOAD PUSH2 0xFF00 NOT AND PUSH2 0x100 DUP4 ISZERO ISZERO MUL OR SWAP1 SSTORE SWAP1 POP DUP1 PUSH2 0x11EF JUMPI PUSH1 0x40 MLOAD DUP3 DUP2 MSTORE PUSH1 0x0 DUP1 MLOAD PUSH1 0x20 PUSH2 0x22A2 DUP4 CODECOPY DUP2 MLOAD SWAP2 MSTORE SWAP1 PUSH1 0x20 ADD PUSH2 0x417 JUMP JUMPDEST PUSH1 0x0 DUP4 DUP2 MSTORE PUSH1 0x2 PUSH1 0x20 MSTORE PUSH1 0x40 SWAP1 DUP2 SWAP1 KECCAK256 SLOAD SWAP1 MLOAD PUSH1 0x0 DUP1 MLOAD PUSH1 0x20 PUSH2 0x22E2 DUP4 CODECOPY DUP2 MLOAD SWAP2 MSTORE SWAP2 PUSH2 0x1225 SWAP2 PUSH1 0xFF SWAP1 SWAP2 AND SWAP1 DUP7 SWAP1 DUP10 SWAP1 PUSH2 0x2042 JUMP JUMPDEST PUSH1 0x40 MLOAD DUP1 SWAP2 SUB SWAP1 LOG1 PUSH2 0x1237 DUP4 DUP7 PUSH2 0x1A61 JUMP JUMPDEST PUSH1 0x0 DUP12 PUSH1 0x40 MLOAD PUSH1 0x20 ADD PUSH2 0x124A SWAP2 SWAP1 PUSH2 0x2098 JUMP JUMPDEST PUSH1 0x40 MLOAD PUSH1 0x20 DUP2 DUP4 SUB SUB DUP2 MSTORE SWAP1 PUSH1 0x40 MSTORE DUP1 MLOAD SWAP1 PUSH1 0x20 ADD KECCAK256 SWAP1 POP PUSH1 0x5 SLOAD DUP2 SUB PUSH2 0x1283 JUMPI PUSH1 0x40 MLOAD PUSH3 0x461BCD PUSH1 0xE5 SHL DUP2 MSTORE PUSH1 0x4 ADD PUSH2 0x311 SWAP1 PUSH2 0x220A JUMP JUMPDEST DUP9 PUSH1 0x4 SLOAD EQ PUSH2 0x12D4 JUMPI PUSH1 0x40 MLOAD PUSH3 0x461BCD PUSH1 0xE5 SHL DUP2 MSTORE PUSH1 0x20 PUSH1 0x4 DUP3 ADD MSTORE PUSH1 0x1E PUSH1 0x24 DUP3 ADD MSTORE PUSH32 0x4C616D706F7274426173653A204B65797320646F206E6F74206D617463680000 PUSH1 0x44 DUP3 ADD MSTORE PUSH1 0x64 ADD PUSH2 0x311 JUMP JUMPDEST PUSH1 0x1 SLOAD DUP10 LT PUSH2 0x1325 JUMPI PUSH1 0x40 MLOAD PUSH3 0x461BCD PUSH1 0xE5 SHL DUP2 MSTORE PUSH1 0x20 PUSH1 0x4 DUP3 ADD MSTORE PUSH1 0x1E PUSH1 0x24 DUP3 ADD MSTORE PUSH32 0x4C616D706F7274426173653A20496E76616C6964206B657920696E6465780000 PUSH1 0x44 DUP3 ADD MSTORE PUSH1 0x64 ADD PUSH2 0x311 JUMP JUMPDEST PUSH1 0x0 PUSH1 0x1 DUP11 DUP2 SLOAD DUP2 LT PUSH2 0x133A JUMPI PUSH2 0x133A PUSH2 0x2138 JUMP JUMPDEST SWAP1 PUSH1 0x0 MSTORE PUSH1 0x20 PUSH1 0x0 KECCAK256 SWAP1 PUSH1 0x2 MUL ADD PUSH1 0x40 MLOAD DUP1 PUSH1 0x40 ADD PUSH1 0x40 MSTORE SWAP1 DUP2 PUSH1 0x0 DUP3 ADD PUSH1 0x0 SWAP1 SLOAD SWAP1 PUSH2 0x100 EXP SWAP1 DIV PUSH1 0xFF AND PUSH1 0x2 DUP2 GT ISZERO PUSH2 0x1377 JUMPI PUSH2 0x1377 PUSH2 0x1D35 JUMP JUMPDEST PUSH1 0x2 DUP2 GT ISZERO PUSH2 0x1388 JUMPI PUSH2 0x1388 PUSH2 0x1D35 JUMP JUMPDEST DUP2 MSTORE PUSH1 0x1 SWAP2 SWAP1 SWAP2 ADD SLOAD PUSH1 0x20 SWAP1 SWAP2 ADD MSTORE SWAP1 POP PUSH1 0x2 DUP2 MLOAD PUSH1 0x2 DUP2 GT ISZERO PUSH2 0x13AE JUMPI PUSH2 0x13AE PUSH2 0x1D35 JUMP JUMPDEST SUB PUSH2 0x13FB JUMPI PUSH1 0x40 MLOAD PUSH3 0x461BCD PUSH1 0xE5 SHL DUP2 MSTORE PUSH1 0x20 PUSH1 0x4 DUP3 ADD DUP2 SWAP1 MSTORE PUSH1 0x24 DUP3 ADD MSTORE PUSH32 0x4C616D706F7274426173653A204B657920616C72656164792064656C65746564 PUSH1 0x44 DUP3 ADD MSTORE PUSH1 0x64 ADD PUSH2 0x311 JUMP JUMPDEST DUP1 MLOAD PUSH1 0x40 DUP1 MLOAD TIMESTAMP PUSH1 0x20 DUP1 DUP4 ADD SWAP2 SWAP1 SWAP2 MSTORE DIFFICULTY DUP3 DUP5 ADD MSTORE DUP3 MLOAD DUP1 DUP4 SUB DUP5 ADD DUP2 MSTORE PUSH1 0x60 SWAP1 SWAP3 ADD SWAP1 SWAP3 MSTORE DUP1 MLOAD SWAP2 ADD KECCAK256 PUSH1 0x1 DUP1 SLOAD PUSH4 0xDE1E7ED PUSH1 0xE4 SHL DUP4 XOR SWAP3 SWAP2 DUP4 SWAP2 DUP16 SWAP1 DUP2 LT PUSH2 0x1448 JUMPI PUSH2 0x1448 PUSH2 0x2138 JUMP JUMPDEST SWAP1 PUSH1 0x0 MSTORE PUSH1 0x20 PUSH1 0x0 KECCAK256 SWAP1 PUSH1 0x2 MUL ADD PUSH1 0x1 ADD DUP2 SWAP1 SSTORE POP PUSH1 0x2 PUSH1 0x1 DUP15 DUP2 SLOAD DUP2 LT PUSH2 0x1472 JUMPI PUSH2 0x1472 PUSH2 0x2138 JUMP JUMPDEST SWAP1 PUSH1 0x0 MSTORE PUSH1 0x20 PUSH1 0x0 KECCAK256 SWAP1 PUSH1 0x2 MUL ADD PUSH1 0x0 ADD PUSH1 0x0 PUSH2 0x100 EXP DUP2 SLOAD DUP2 PUSH1 0xFF MUL NOT AND SWAP1 DUP4 PUSH1 0x2 DUP2 GT ISZERO PUSH2 0x14A4 JUMPI PUSH2 0x14A4 PUSH2 0x1D35 JUMP JUMPDEST MUL OR SWAP1 SSTORE POP PUSH1 0x1 DUP14 DUP2 SLOAD DUP2 LT PUSH2 0x14BC JUMPI PUSH2 0x14BC PUSH2 0x2138 JUMP JUMPDEST PUSH1 0x0 SWAP2 DUP3 MSTORE PUSH1 0x20 DUP1 DUP4 KECCAK256 DUP6 DUP5 MSTORE PUSH1 0x2 SWAP2 DUP3 SWAP1 MSTORE PUSH1 0x40 SWAP1 SWAP4 KECCAK256 SWAP2 DUP2 MUL SWAP1 SWAP3 ADD DUP1 SLOAD DUP3 SLOAD SWAP2 SWAP4 PUSH1 0xFF SWAP1 SWAP2 AND SWAP2 DUP4 SWAP2 PUSH1 0xFF NOT SWAP1 SWAP2 AND SWAP1 PUSH1 0x1 SWAP1 DUP5 SWAP1 DUP2 GT ISZERO PUSH2 0x1503 JUMPI PUSH2 0x1503 PUSH2 0x1D35 JUMP JUMPDEST MUL OR SWAP1 SSTORE POP PUSH1 0x1 SWAP2 DUP3 ADD SLOAD SWAP1 DUP3 ADD SSTORE PUSH1 0x20 DUP1 DUP7 ADD DUP1 MLOAD PUSH1 0x0 SWAP1 DUP2 MSTORE PUSH1 0x2 SWAP3 DUP4 SWAP1 MSTORE PUSH1 0x40 DUP1 DUP3 KECCAK256 DUP1 SLOAD PUSH1 0xFF NOT AND DUP2 SSTORE SWAP1 SWAP5 ADD SSTORE MLOAD SWAP2 MLOAD PUSH32 0x643BE3612916977C69D5ED1ABB75A50CCA49DF49BA2444D836E2A0CF65FE074 SWAP3 PUSH2 0x1568 SWAP3 DUP8 SWAP3 DUP8 SWAP2 SWAP1 PUSH2 0x2271 JUMP JUMPDEST PUSH1 0x40 MLOAD DUP1 SWAP2 SUB SWAP1 LOG1 POP POP PUSH1 0x0 PUSH1 0x4 DUP2 SWAP1 SSTORE PUSH1 0x5 SSTORE POP POP POP POP POP POP POP POP POP POP POP POP POP POP JUMP JUMPDEST DUP4 DUP4 DUP4 DUP4 PUSH1 0x40 MLOAD PUSH1 0x20 ADD PUSH2 0x15A2 SWAP2 DUP2 MSTORE PUSH1 0x20 ADD SWAP1 JUMP JUMPDEST PUSH1 0x40 DUP1 MLOAD PUSH1 0x1F NOT DUP2 DUP5 SUB ADD DUP2 MSTORE SWAP2 SWAP1 MSTORE PUSH1 0x0 SLOAD PUSH1 0xFF AND PUSH2 0x15D4 JUMPI PUSH1 0x40 MLOAD PUSH3 0x461BCD PUSH1 0xE5 SHL DUP2 MSTORE PUSH1 0x4 ADD PUSH2 0x311 SWAP1 PUSH2 0x2061 JUMP JUMPDEST PUSH1 0x0 DUP5 PUSH1 0x40 MLOAD PUSH1 0x20 ADD PUSH2 0x15E7 SWAP2 SWAP1 PUSH2 0x2098 JUMP JUMPDEST PUSH1 0x40 DUP1 MLOAD PUSH1 0x1F NOT DUP2 DUP5 SUB ADD DUP2 MSTORE SWAP2 SWAP1 MSTORE DUP1 MLOAD PUSH1 0x20 SWAP1 SWAP2 ADD KECCAK256 SWAP1 POP PUSH1 0x0 DUP1 DUP3 DUP2 MSTORE PUSH1 0x2 PUSH1 0x20 DUP2 SWAP1 MSTORE PUSH1 0x40 SWAP1 SWAP2 KECCAK256 SLOAD PUSH1 0xFF AND SWAP1 DUP2 GT ISZERO PUSH2 0x1627 JUMPI PUSH2 0x1627 PUSH2 0x1D35 JUMP JUMPDEST EQ PUSH2 0x1644 JUMPI PUSH1 0x40 MLOAD PUSH3 0x461BCD PUSH1 0xE5 SHL DUP2 MSTORE PUSH1 0x4 ADD PUSH2 0x311 SWAP1 PUSH2 0x20CF JUMP JUMPDEST PUSH1 0x0 DUP3 DUP5 PUSH1 0x40 MLOAD PUSH1 0x20 ADD PUSH2 0x1659 SWAP3 SWAP2 SWAP1 PUSH2 0x2106 JUMP JUMPDEST PUSH1 0x40 DUP1 MLOAD PUSH1 0x1F NOT DUP2 DUP5 SUB ADD DUP2 MSTORE SWAP1 DUP3 SWAP1 MSTORE DUP1 MLOAD PUSH1 0x20 SWAP2 DUP3 ADD KECCAK256 DUP1 DUP4 MSTORE SWAP3 POP PUSH1 0x0 DUP1 MLOAD PUSH1 0x20 PUSH2 0x22C2 DUP4 CODECOPY DUP2 MLOAD SWAP2 MSTORE SWAP2 ADD PUSH1 0x40 MLOAD DUP1 SWAP2 SUB SWAP1 LOG1 PUSH1 0x0 PUSH2 0x169D DUP3 DUP8 DUP10 PUSH2 0xD43 JUMP JUMPDEST PUSH1 0x0 DUP1 SLOAD PUSH2 0xFF00 NOT AND PUSH2 0x100 DUP4 ISZERO ISZERO MUL OR SWAP1 SSTORE SWAP1 POP DUP1 PUSH2 0x16D5 JUMPI PUSH1 0x40 MLOAD DUP3 DUP2 MSTORE PUSH1 0x0 DUP1 MLOAD PUSH1 0x20 PUSH2 0x22A2 DUP4 CODECOPY DUP2 MLOAD SWAP2 MSTORE SWAP1 PUSH1 0x20 ADD PUSH2 0x417 JUMP JUMPDEST PUSH1 0x0 DUP4 DUP2 MSTORE PUSH1 0x2 PUSH1 0x20 MSTORE PUSH1 0x40 SWAP1 DUP2 SWAP1 KECCAK256 SLOAD SWAP1 MLOAD PUSH1 0x0 DUP1 MLOAD PUSH1 0x20 PUSH2 0x22E2 DUP4 CODECOPY DUP2 MLOAD SWAP2 MSTORE SWAP2 PUSH2 0x170B SWAP2 PUSH1 0xFF SWAP1 SWAP2 AND SWAP1 DUP7 SWAP1 DUP10 SWAP1 PUSH2 0x2042 JUMP JUMPDEST PUSH1 0x40 MLOAD DUP1 SWAP2 SUB SWAP1 LOG1 PUSH2 0x171D DUP4 DUP7 PUSH2 0x1A61 JUMP JUMPDEST PUSH1 0x0 DUP12 PUSH1 0x40 MLOAD PUSH1 0x20 ADD PUSH2 0x1730 SWAP2 SWAP1 PUSH2 0x2098 JUMP JUMPDEST PUSH1 0x40 MLOAD PUSH1 0x20 DUP2 DUP4 SUB SUB DUP2 MSTORE SWAP1 PUSH1 0x40 MSTORE DUP1 MLOAD SWAP1 PUSH1 0x20 ADD KECCAK256 SWAP1 POP PUSH1 0x5 SLOAD DUP2 SUB PUSH2 0x1769 JUMPI PUSH1 0x40 MLOAD PUSH3 0x461BCD PUSH1 0xE5 SHL DUP2 MSTORE PUSH1 0x4 ADD PUSH2 0x311 SWAP1 PUSH2 0x220A JUMP JUMPDEST DUP9 PUSH1 0x3 SLOAD EQ PUSH2 0x17BA JUMPI PUSH1 0x40 MLOAD PUSH3 0x461BCD PUSH1 0xE5 SHL DUP2 MSTORE PUSH1 0x20 PUSH1 0x4 DUP3 ADD MSTORE PUSH1 0x1E PUSH1 0x24 DUP3 ADD MSTORE PUSH32 0x4C616D706F7274426173653A204B65797320646F206E6F74206D617463680000 PUSH1 0x44 DUP3 ADD MSTORE PUSH1 0x64 ADD PUSH2 0x311 JUMP JUMPDEST PUSH1 0x5 SLOAD DUP2 DUP11 PUSH1 0x0 DUP1 DUP5 DUP2 MSTORE PUSH1 0x2 PUSH1 0x20 DUP2 SWAP1 MSTORE PUSH1 0x40 SWAP1 SWAP2 KECCAK256 SLOAD PUSH1 0xFF AND SWAP1 DUP2 GT ISZERO PUSH2 0x17E5 JUMPI PUSH2 0x17E5 PUSH2 0x1D35 JUMP JUMPDEST EQ DUP1 ISZERO PUSH2 0x1813 JUMPI POP PUSH1 0x0 DUP3 DUP2 MSTORE PUSH1 0x2 PUSH1 0x20 DUP2 SWAP1 MSTORE PUSH1 0x40 DUP3 KECCAK256 SLOAD PUSH1 0xFF AND SWAP1 DUP2 GT ISZERO PUSH2 0x1811 JUMPI PUSH2 0x1811 PUSH2 0x1D35 JUMP JUMPDEST EQ JUMPDEST PUSH2 0x1876 JUMPI PUSH1 0x40 MLOAD PUSH3 0x461BCD PUSH1 0xE5 SHL DUP2 MSTORE PUSH1 0x20 PUSH1 0x4 DUP3 ADD MSTORE PUSH1 0x2E PUSH1 0x24 DUP3 ADD MSTORE PUSH32 0x4C616D706F7274426173653A2050726F7669646564206B65797320617265206E PUSH1 0x44 DUP3 ADD MSTORE PUSH14 0x6F74206D6173746572206B657973 PUSH1 0x90 SHL PUSH1 0x64 DUP3 ADD MSTORE PUSH1 0x84 ADD PUSH2 0x311 JUMP JUMPDEST DUP3 DUP2 EQ ISZERO DUP1 ISZERO PUSH2 0x1886 JUMPI POP DUP2 DUP2 EQ ISZERO JUMPDEST PUSH2 0x18EC JUMPI PUSH1 0x40 MLOAD PUSH3 0x461BCD PUSH1 0xE5 SHL DUP2 MSTORE PUSH1 0x20 PUSH1 0x4 DUP3 ADD MSTORE PUSH1 0x31 PUSH1 0x24 DUP3 ADD MSTORE PUSH32 0x4C616D706F7274426173653A204D6173746572206B6579732063616E6E6F7420 PUSH1 0x44 DUP3 ADD MSTORE PUSH17 0x64656C657465207468656D73656C766573 PUSH1 0x78 SHL PUSH1 0x64 DUP3 ADD MSTORE PUSH1 0x84 ADD PUSH2 0x311 JUMP JUMPDEST PUSH1 0x0 DUP2 DUP2 MSTORE PUSH1 0x2 PUSH1 0x20 MSTORE PUSH1 0x40 DUP2 KECCAK256 PUSH1 0x1 ADD SLOAD SWAP1 SUB PUSH2 0x1958 JUMPI PUSH1 0x40 MLOAD PUSH3 0x461BCD PUSH1 0xE5 SHL DUP2 MSTORE PUSH1 0x20 PUSH1 0x4 DUP3 ADD MSTORE PUSH1 0x23 PUSH1 0x24 DUP3 ADD MSTORE PUSH32 0x4C616D706F7274426173653A204E6F2073756368206B6579202864656C657469 PUSH1 0x44 DUP3 ADD MSTORE PUSH3 0x6F6E29 PUSH1 0xE8 SHL PUSH1 0x64 DUP3 ADD MSTORE PUSH1 0x84 ADD PUSH2 0x311 JUMP JUMPDEST PUSH1 0x0 JUMPDEST PUSH1 0x1 SLOAD DUP2 LT ISZERO PUSH2 0x1A45 JUMPI DUP2 PUSH1 0x1 DUP3 DUP2 SLOAD DUP2 LT PUSH2 0x1979 JUMPI PUSH2 0x1979 PUSH2 0x2138 JUMP JUMPDEST SWAP1 PUSH1 0x0 MSTORE PUSH1 0x20 PUSH1 0x0 KECCAK256 SWAP1 PUSH1 0x2 MUL ADD PUSH1 0x1 ADD SLOAD SUB PUSH2 0x1A33 JUMPI PUSH1 0x0 DUP3 DUP2 MSTORE PUSH1 0x2 PUSH1 0x20 DUP2 DUP2 MSTORE PUSH1 0x40 DUP1 DUP5 KECCAK256 DUP1 SLOAD DUP3 MLOAD TIMESTAMP DUP2 DUP7 ADD MSTORE DIFFICULTY DUP2 DUP6 ADD MSTORE DUP4 MLOAD DUP1 DUP3 SUB DUP6 ADD DUP2 MSTORE PUSH1 0x60 SWAP1 SWAP2 ADD SWAP4 DUP5 SWAP1 MSTORE DUP1 MLOAD SWAP1 DUP6 ADD KECCAK256 SWAP6 DUP9 SWAP1 MSTORE SWAP3 DUP5 SWAP1 MSTORE PUSH4 0xDE1E7ED PUSH1 0xE4 SHL DUP6 XOR PUSH1 0x1 DUP3 ADD DUP2 SWAP1 SSTORE PUSH1 0xFF NOT DUP5 AND DUP6 OR SWAP1 SWAP2 SSTORE PUSH1 0xFF SWAP1 SWAP3 AND SWAP4 SWAP2 SWAP3 PUSH32 0x643BE3612916977C69D5ED1ABB75A50CCA49DF49BA2444D836E2A0CF65FE074 SWAP2 PUSH2 0x1A23 SWAP2 DUP7 SWAP2 DUP10 SWAP2 DUP8 SWAP2 PUSH2 0x2271 JUMP JUMPDEST PUSH1 0x40 MLOAD DUP1 SWAP2 SUB SWAP1 LOG1 POP POP POP PUSH2 0x1A45 JUMP JUMPDEST DUP1 PUSH2 0x1A3D DUP2 PUSH2 0x21AC JUMP JUMPDEST SWAP2 POP POP PUSH2 0x195B JUMP JUMPDEST POP POP PUSH1 0x0 PUSH1 0x3 DUP2 SWAP1 SSTORE PUSH1 0x5 SSTORE POP POP POP POP POP POP POP POP POP POP POP POP POP POP JUMP JUMPDEST PUSH1 0x0 DUP3 DUP2 MSTORE PUSH1 0x2 PUSH1 0x20 MSTORE PUSH1 0x40 DUP2 KECCAK256 PUSH1 0x1 ADD SLOAD SWAP1 SUB PUSH2 0x1A91 JUMPI PUSH1 0x40 MLOAD PUSH3 0x461BCD PUSH1 0xE5 SHL DUP2 MSTORE PUSH1 0x4 ADD PUSH2 0x311 SWAP1 PUSH2 0x21D3 JUMP JUMPDEST PUSH1 0x40 DUP1 MLOAD DUP1 DUP3 ADD DUP3 MSTORE PUSH1 0x0 DUP5 DUP2 MSTORE PUSH1 0x2 PUSH1 0x20 DUP2 SWAP1 MSTORE SWAP3 DUP2 KECCAK256 SLOAD SWAP1 SWAP3 DUP3 SWAP2 PUSH1 0xFF AND SWAP1 DUP2 GT ISZERO PUSH2 0x1AC1 JUMPI PUSH2 0x1AC1 PUSH2 0x1D35 JUMP JUMPDEST DUP2 MSTORE PUSH1 0x20 ADD DUP4 DUP2 MSTORE POP SWAP1 POP DUP1 PUSH1 0x2 PUSH1 0x0 DUP5 DUP2 MSTORE PUSH1 0x20 ADD SWAP1 DUP2 MSTORE PUSH1 0x20 ADD PUSH1 0x0 KECCAK256 PUSH1 0x0 DUP3 ADD MLOAD DUP2 PUSH1 0x0 ADD PUSH1 0x0 PUSH2 0x100 EXP DUP2 SLOAD DUP2 PUSH1 0xFF MUL NOT AND SWAP1 DUP4 PUSH1 0x2 DUP2 GT ISZERO PUSH2 0x1B0A JUMPI PUSH2 0x1B0A PUSH2 0x1D35 JUMP JUMPDEST MUL OR SWAP1 SSTORE POP PUSH1 0x20 SWAP2 DUP3 ADD MLOAD PUSH1 0x1 SWAP2 DUP3 ADD SSTORE PUSH1 0x0 DUP6 DUP2 MSTORE PUSH1 0x2 SWAP1 SWAP3 MSTORE PUSH1 0x40 DUP3 KECCAK256 DUP1 SLOAD PUSH1 0xFF NOT AND DUP2 SSTORE ADD DUP2 SWAP1 SSTORE JUMPDEST PUSH1 0x1 SLOAD DUP2 LT ISZERO PUSH2 0x1BE0 JUMPI DUP4 PUSH1 0x1 DUP3 DUP2 SLOAD DUP2 LT PUSH2 0x1B54 JUMPI PUSH2 0x1B54 PUSH2 0x2138 JUMP JUMPDEST SWAP1 PUSH1 0x0 MSTORE PUSH1 0x20 PUSH1 0x0 KECCAK256 SWAP1 PUSH1 0x2 MUL ADD PUSH1 0x1 ADD SLOAD SUB PUSH2 0x1BCE JUMPI DUP2 PUSH1 0x1 DUP3 DUP2 SLOAD DUP2 LT PUSH2 0x1B7F JUMPI PUSH2 0x1B7F PUSH2 0x2138 JUMP JUMPDEST SWAP1 PUSH1 0x0 MSTORE PUSH1 0x20 PUSH1 0x0 KECCAK256 SWAP1 PUSH1 0x2 MUL ADD PUSH1 0x0 DUP3 ADD MLOAD DUP2 PUSH1 0x0 ADD PUSH1 0x0 PUSH2 0x100 EXP DUP2 SLOAD DUP2 PUSH1 0xFF MUL NOT AND SWAP1 DUP4 PUSH1 0x2 DUP2 GT ISZERO PUSH2 0x1BB7 JUMPI PUSH2 0x1BB7 PUSH2 0x1D35 JUMP JUMPDEST MUL OR SWAP1 SSTORE POP PUSH1 0x20 DUP3 ADD MLOAD DUP2 PUSH1 0x1 ADD SSTORE SWAP1 POP POP PUSH2 0x1BE0 JUMP JUMPDEST DUP1 PUSH2 0x1BD8 DUP2 PUSH2 0x21AC JUMP JUMPDEST SWAP2 POP POP PUSH2 0x1B36 JUMP JUMPDEST POP DUP1 MLOAD PUSH1 0x40 MLOAD PUSH1 0x0 DUP1 MLOAD PUSH1 0x20 PUSH2 0x22E2 DUP4 CODECOPY DUP2 MLOAD SWAP2 MSTORE SWAP2 PUSH2 0x1C03 SWAP2 DUP7 SWAP1 DUP7 SWAP1 PUSH2 0x2042 JUMP JUMPDEST PUSH1 0x40 MLOAD DUP1 SWAP2 SUB SWAP1 LOG1 POP POP POP JUMP JUMPDEST PUSH1 0x0 PUSH1 0x40 MLOAD DUP1 PUSH1 0x40 ADD PUSH1 0x40 MSTORE DUP1 DUP5 PUSH1 0x2 DUP2 GT ISZERO PUSH2 0x1C2F JUMPI PUSH2 0x1C2F PUSH2 0x1D35 JUMP JUMPDEST DUP2 MSTORE PUSH1 0x20 ADD DUP4 SWAP1 MSTORE PUSH1 0x1 DUP1 SLOAD DUP1 DUP3 ADD DUP3 SSTORE PUSH1 0x0 DUP3 SWAP1 MSTORE DUP3 MLOAD PUSH1 0x2 SWAP2 DUP3 MUL PUSH32 0xB10E2D527612073B26EECDFD717E6A320CF44B4AFAC2B0732D9FCBE2B7FA0CF6 ADD DUP1 SLOAD SWAP5 SWAP6 POP DUP6 SWAP5 SWAP1 SWAP4 SWAP2 SWAP3 DUP5 SWAP3 PUSH1 0xFF NOT SWAP1 SWAP3 AND SWAP2 SWAP1 DUP5 SWAP1 DUP2 GT ISZERO PUSH2 0x1C94 JUMPI PUSH2 0x1C94 PUSH2 0x1D35 JUMP JUMPDEST MUL OR SWAP1 SSTORE POP PUSH1 0x20 SWAP2 DUP3 ADD MLOAD PUSH1 0x1 SWAP2 DUP3 ADD SSTORE PUSH1 0x0 DUP5 DUP2 MSTORE PUSH1 0x2 SWAP3 DUP4 SWAP1 MSTORE PUSH1 0x40 SWAP1 KECCAK256 DUP4 MLOAD DUP2 SLOAD DUP6 SWAP5 SWAP3 SWAP4 SWAP2 SWAP3 DUP5 SWAP3 PUSH1 0xFF NOT SWAP1 SWAP3 AND SWAP2 SWAP1 DUP5 SWAP1 DUP2 GT ISZERO PUSH2 0x1CD9 JUMPI PUSH2 0x1CD9 PUSH2 0x1D35 JUMP JUMPDEST MUL OR SWAP1 SSTORE POP PUSH1 0x20 DUP3 ADD MLOAD DUP2 PUSH1 0x1 ADD SSTORE SWAP1 POP POP PUSH32 0x2172C7B01A6DE957D29FD6166A23025D181BF56538AD606A526AB2D62603F3FC DUP4 DUP4 PUSH1 0x40 MLOAD PUSH2 0x1C03 SWAP3 SWAP2 SWAP1 PUSH2 0x1D6D JUMP JUMPDEST PUSH1 0x0 PUSH1 0x20 DUP3 DUP5 SUB SLT ISZERO PUSH2 0x1D2E JUMPI PUSH1 0x0 DUP1 REVERT JUMPDEST POP CALLDATALOAD SWAP2 SWAP1 POP JUMP JUMPDEST PUSH4 0x4E487B71 PUSH1 0xE0 SHL PUSH1 0x0 MSTORE PUSH1 0x21 PUSH1 0x4 MSTORE PUSH1 0x24 PUSH1 0x0 REVERT JUMPDEST PUSH1 0x3 DUP2 LT PUSH2 0x1D69 JUMPI PUSH4 0x4E487B71 PUSH1 0xE0 SHL PUSH1 0x0 MSTORE PUSH1 0x21 PUSH1 0x4 MSTORE PUSH1 0x24 PUSH1 0x0 REVERT JUMPDEST SWAP1 MSTORE JUMP JUMPDEST PUSH1 0x40 DUP2 ADD PUSH2 0x1D7B DUP3 DUP6 PUSH2 0x1D4B JUMP JUMPDEST DUP3 PUSH1 0x20 DUP4 ADD MSTORE SWAP4 SWAP3 POP POP POP JUMP JUMPDEST DUP1 PUSH2 0x4000 DUP2 ADD DUP4 LT ISZERO PUSH2 0x1D9A JUMPI PUSH1 0x0 DUP1 REVERT JUMPDEST SWAP3 SWAP2 POP POP JUMP JUMPDEST DUP1 PUSH2 0x2000 DUP2 ADD DUP4 LT ISZERO PUSH2 0x1D9A JUMPI PUSH1 0x0 DUP1 REVERT JUMPDEST PUSH1 0x0 DUP1 PUSH1 0x0 DUP1 PUSH2 0x4060 DUP6 DUP8 SUB SLT ISZERO PUSH2 0x1DC9 JUMPI PUSH1 0x0 DUP1 REVERT JUMPDEST PUSH2 0x1DD3 DUP7 DUP7 PUSH2 0x1D88 JUMP JUMPDEST SWAP4 POP PUSH2 0x4000 DUP6 ADD CALLDATALOAD PUSH8 0xFFFFFFFFFFFFFFFF DUP2 GT ISZERO PUSH2 0x1DF0 JUMPI PUSH1 0x0 DUP1 REVERT JUMPDEST PUSH2 0x1DFC DUP8 DUP3 DUP9 ADD PUSH2 0x1DA0 JUMP JUMPDEST SWAP5 SWAP8 SWAP5 SWAP7 POP POP POP POP PUSH2 0x4020 DUP4 ADD CALLDATALOAD SWAP3 PUSH2 0x4040 ADD CALLDATALOAD SWAP2 SWAP1 POP JUMP JUMPDEST PUSH4 0x4E487B71 PUSH1 0xE0 SHL PUSH1 0x0 MSTORE PUSH1 0x41 PUSH1 0x4 MSTORE PUSH1 0x24 PUSH1 0x0 REVERT JUMPDEST PUSH1 0x0 DUP1 PUSH1 0x0 DUP1 PUSH2 0x4060 DUP6 DUP8 SUB SLT ISZERO PUSH2 0x1E42 JUMPI PUSH1 0x0 DUP1 REVERT JUMPDEST PUSH2 0x1E4C DUP7 DUP7 PUSH2 0x1D88 JUMP JUMPDEST SWAP4 POP PUSH2 0x4000 DUP6 ADD CALLDATALOAD PUSH8 0xFFFFFFFFFFFFFFFF DUP1 DUP3 GT ISZERO PUSH2 0x1E6A JUMPI PUSH1 0x0 DUP1 REVERT JUMPDEST PUSH2 0x1E76 DUP9 DUP4 DUP10 ADD PUSH2 0x1DA0 JUMP JUMPDEST SWAP5 POP PUSH2 0x4020 DUP8 ADD CALLDATALOAD SWAP4 POP PUSH2 0x4040 DUP8 ADD CALLDATALOAD SWAP2 POP DUP1 DUP3 GT ISZERO PUSH2 0x1E95 JUMPI PUSH1 0x0 DUP1 REVERT JUMPDEST DUP2 DUP8 ADD SWAP2 POP DUP8 PUSH1 0x1F DUP4 ADD SLT PUSH2 0x1EA9 JUMPI PUSH1 0x0 DUP1 REVERT JUMPDEST DUP2 CALLDATALOAD DUP2 DUP2 GT ISZERO PUSH2 0x1EBB JUMPI PUSH2 0x1EBB PUSH2 0x1E15 JUMP JUMPDEST PUSH1 0x40 MLOAD PUSH1 0x1F DUP3 ADD PUSH1 0x1F NOT SWAP1 DUP2 AND PUSH1 0x3F ADD AND DUP2 ADD SWAP1 DUP4 DUP3 GT DUP2 DUP4 LT OR ISZERO PUSH2 0x1EE3 JUMPI PUSH2 0x1EE3 PUSH2 0x1E15 JUMP JUMPDEST DUP2 PUSH1 0x40 MSTORE DUP3 DUP2 MSTORE DUP11 PUSH1 0x20 DUP5 DUP8 ADD ADD GT ISZERO PUSH2 0x1EFC JUMPI PUSH1 0x0 DUP1 REVERT JUMPDEST DUP3 PUSH1 0x20 DUP7 ADD PUSH1 0x20 DUP4 ADD CALLDATACOPY PUSH1 0x0 PUSH1 0x20 DUP5 DUP4 ADD ADD MSTORE DUP1 SWAP6 POP POP POP POP POP POP SWAP3 SWAP6 SWAP2 SWAP5 POP SWAP3 POP JUMP JUMPDEST PUSH1 0x0 DUP1 PUSH1 0x0 DUP1 PUSH2 0x4060 DUP6 DUP8 SUB SLT ISZERO PUSH2 0x1F37 JUMPI PUSH1 0x0 DUP1 REVERT JUMPDEST PUSH2 0x1F41 DUP7 DUP7 PUSH2 0x1D88 JUMP JUMPDEST SWAP4 POP PUSH2 0x4000 DUP6 ADD CALLDATALOAD SWAP3 POP PUSH2 0x4020 DUP6 ADD CALLDATALOAD PUSH8 0xFFFFFFFFFFFFFFFF DUP2 GT ISZERO PUSH2 0x1F66 JUMPI PUSH1 0x0 DUP1 REVERT JUMPDEST PUSH2 0x1F72 DUP8 DUP3 DUP9 ADD PUSH2 0x1DA0 JUMP JUMPDEST SWAP5 SWAP8 SWAP4 SWAP7 POP SWAP4 SWAP5 PUSH2 0x4040 ADD CALLDATALOAD SWAP4 POP POP POP JUMP JUMPDEST PUSH1 0x0 DUP1 PUSH1 0x0 PUSH2 0x4040 DUP5 DUP7 SUB SLT ISZERO PUSH2 0x1F9A JUMPI PUSH1 0x0 DUP1 REVERT JUMPDEST DUP4 CALLDATALOAD SWAP3 POP PUSH1 0x20 DUP5 ADD CALLDATALOAD PUSH8 0xFFFFFFFFFFFFFFFF DUP2 GT ISZERO PUSH2 0x1FB8 JUMPI PUSH1 0x0 DUP1 REVERT JUMPDEST PUSH2 0x1FC4 DUP7 DUP3 DUP8 ADD PUSH2 0x1DA0 JUMP JUMPDEST SWAP3 POP POP PUSH2 0x1FD4 DUP6 PUSH1 0x40 DUP7 ADD PUSH2 0x1D88 JUMP JUMPDEST SWAP1 POP SWAP3 POP SWAP3 POP SWAP3 JUMP JUMPDEST PUSH1 0x0 PUSH1 0x20 DUP3 DUP5 SUB SLT ISZERO PUSH2 0x1FEF JUMPI PUSH1 0x0 DUP1 REVERT JUMPDEST DUP2 CALLDATALOAD PUSH1 0x3 DUP2 LT PUSH2 0xDF1 JUMPI PUSH1 0x0 DUP1 REVERT JUMPDEST PUSH1 0x20 DUP1 DUP3 MSTORE DUP3 MLOAD DUP3 DUP3 ADD DUP2 SWAP1 MSTORE PUSH1 0x0 SWAP2 SWAP1 DUP5 DUP3 ADD SWAP1 PUSH1 0x40 DUP6 ADD SWAP1 DUP5 JUMPDEST DUP2 DUP2 LT ISZERO PUSH2 0x2036 JUMPI DUP4 MLOAD DUP4 MSTORE SWAP3 DUP5 ADD SWAP3 SWAP2 DUP5 ADD SWAP2 PUSH1 0x1 ADD PUSH2 0x201A JUMP JUMPDEST POP SWAP1 SWAP7 SWAP6 POP POP POP POP POP POP JUMP JUMPDEST PUSH1 0x60 DUP2 ADD PUSH2 0x2050 DUP3 DUP7 PUSH2 0x1D4B JUMP JUMPDEST PUSH1 0x20 DUP3 ADD SWAP4 SWAP1 SWAP4 MSTORE PUSH1 0x40 ADD MSTORE SWAP2 SWAP1 POP JUMP JUMPDEST PUSH1 0x20 DUP1 DUP3 MSTORE PUSH1 0x1C SWAP1 DUP3 ADD MSTORE PUSH32 0x4C616D706F7274426173653A206E6F7420696E697469616C697A656400000000 PUSH1 0x40 DUP3 ADD MSTORE PUSH1 0x60 ADD SWAP1 JUMP JUMPDEST PUSH1 0x0 DUP2 DUP4 DUP3 JUMPDEST PUSH2 0x100 DUP2 LT ISZERO PUSH2 0x20BF JUMPI PUSH1 0x40 DUP1 DUP4 DUP6 CALLDATACOPY SWAP3 DUP4 ADD SWAP3 SWAP2 SWAP1 SWAP2 ADD SWAP1 PUSH1 0x1 ADD PUSH2 0x209E JUMP JUMPDEST POP POP POP PUSH2 0x4000 DUP3 ADD SWAP1 POP SWAP3 SWAP2 POP POP JUMP JUMPDEST PUSH1 0x20 DUP1 DUP3 MSTORE PUSH1 0x1D SWAP1 DUP3 ADD MSTORE PUSH32 0x4C616D706F7274426173653A204E6F742061206D6173746572206B6579000000 PUSH1 0x40 DUP3 ADD MSTORE PUSH1 0x60 ADD SWAP1 JUMP JUMPDEST PUSH1 0x0 DUP4 MLOAD PUSH1 0x0 JUMPDEST DUP2 DUP2 LT ISZERO PUSH2 0x2127 JUMPI PUSH1 0x20 DUP2 DUP8 ADD DUP2 ADD MLOAD DUP6 DUP4 ADD MSTORE ADD PUSH2 0x210D JUMP JUMPDEST POP SWAP2 SWAP1 SWAP2 ADD SWAP2 DUP3 MSTORE POP PUSH1 0x20 ADD SWAP2 SWAP1 POP JUMP JUMPDEST PUSH4 0x4E487B71 PUSH1 0xE0 SHL PUSH1 0x0 MSTORE PUSH1 0x32 PUSH1 0x4 MSTORE PUSH1 0x24 PUSH1 0x0 REVERT JUMPDEST PUSH1 0x0 DUP1 DUP4 CALLDATALOAD PUSH1 0x1E NOT DUP5 CALLDATASIZE SUB ADD DUP2 SLT PUSH2 0x2165 JUMPI PUSH1 0x0 DUP1 REVERT JUMPDEST DUP4 ADD DUP1 CALLDATALOAD SWAP2 POP PUSH8 0xFFFFFFFFFFFFFFFF DUP3 GT ISZERO PUSH2 0x2180 JUMPI PUSH1 0x0 DUP1 REVERT JUMPDEST PUSH1 0x20 ADD SWAP2 POP CALLDATASIZE DUP2 SWAP1 SUB DUP3 SGT ISZERO PUSH2 0x2195 JUMPI PUSH1 0x0 DUP1 REVERT JUMPDEST SWAP3 POP SWAP3 SWAP1 POP JUMP JUMPDEST DUP2 DUP4 DUP3 CALLDATACOPY PUSH1 0x0 SWAP2 ADD SWAP1 DUP2 MSTORE SWAP2 SWAP1 POP JUMP JUMPDEST PUSH1 0x0 PUSH1 0x1 DUP3 ADD PUSH2 0x21CC JUMPI PUSH4 0x4E487B71 PUSH1 0xE0 SHL PUSH1 0x0 MSTORE PUSH1 0x11 PUSH1 0x4 MSTORE PUSH1 0x24 PUSH1 0x0 REVERT JUMPDEST POP PUSH1 0x1 ADD SWAP1 JUMP JUMPDEST PUSH1 0x20 DUP1 DUP3 MSTORE PUSH1 0x18 SWAP1 DUP3 ADD MSTORE PUSH32 0x4C616D706F7274426173653A204E6F2073756368206B65790000000000000000 PUSH1 0x40 DUP3 ADD MSTORE PUSH1 0x60 ADD SWAP1 JUMP JUMPDEST PUSH1 0x20 DUP1 DUP3 MSTORE PUSH1 0x41 SWAP1 DUP3 ADD MSTORE PUSH32 0x4C616D706F7274426173653A2043616E6E6F7420757365207468652073616D65 PUSH1 0x40 DUP3 ADD MSTORE PUSH32 0x206B6579636861696E20747769636520666F7220746869732066756E6374696F PUSH1 0x60 DUP3 ADD MSTORE PUSH1 0x37 PUSH1 0xF9 SHL PUSH1 0x80 DUP3 ADD MSTORE PUSH1 0xA0 ADD SWAP1 JUMP JUMPDEST PUSH1 0x80 DUP2 ADD PUSH2 0x227F DUP3 DUP8 PUSH2 0x1D4B JUMP JUMPDEST DUP5 PUSH1 0x20 DUP4 ADD MSTORE DUP4 PUSH1 0x40 DUP4 ADD MSTORE PUSH2 0x2298 PUSH1 0x60 DUP4 ADD DUP5 PUSH2 0x1D4B JUMP JUMPDEST SWAP6 SWAP5 POP POP POP POP POP JUMP INVALID ORIGIN PUSH3 0x9D5802 ADDMOD 0xE1 SWAP16 SWAP8 0xE5 PUSH22 0x2EEF849E102F803999C88AA7F75E12B1744EECD5A7D8 PUSH31 0x68F36F73A7EB22739D6639E36CAFEBFCDE0B5543340B39F42CAC68FDD1F068 0x25 LOG3 SWAP12 0xD1 PUSH2 0xF4EF GAS 0xAB PUSH13 0xFD2C26DB3EE0005C11B43CFFD5 DIFFICULTY 0xFC DUP8 PUSH4 0x12116EDD LOG2 PUSH5 0x6970667358 0x22 SLT KECCAK256 PUSH30 0x2239CA2603D2E91D2FDDF7B662E6436D5D7BC949D8666EA3354CAD3ED5D DUP3 PUSH5 0x736F6C6343 STOP ADDMOD ISZERO STOP CALLER ",
  "sha1": "a9f54defa509f8e4403d2a36fa10fce2f93d3072",
  "source": "// SPDX-License-Identifier: UNLICENSED\n\npragma solidity ^0.8.1;\n\ncontract LamportBase2 {\n\n    bool initialized = false;\n    bool public lastVerificationResult;\n\n    // Define different key types\n    enum KeyType { MASTER, ORACLE, DELETED }\n\n    // Store the keys and their corresponding pkh\n    struct Key {\n        KeyType keyType;\n        bytes32 pkh;\n    }\n\n    Key[] public keys; // For iteration\n    mapping(bytes32 => Key) public keyData; // For search\n    bytes32 constant master1 = 0xb7b18ded9664d1a8e923a5942ec1ca5cd8c13c40eb1a5215d5800600f5a587be; // default keyfile has these\n    bytes32 constant master2 = 0x1ed304ab73e124b0b99406dfa1388a492a818837b4b41ce5693ad84dacfc3f25;\n    bytes32 constant oracle = 0xd62569e61a6423c880a429676be48756c931fe0519121684f5fb05cbd17877fa; \n  \n    event LogLastCalculatedHash(uint256 hash);\n    event VerificationFailed(uint256 hashedData);\n    event PkhUpdated(KeyType keyType, bytes32 previousPKH, bytes32 newPKH);\n    event KeyAdded(KeyType keyType, bytes32 newPKH);\n    event KeyModified(KeyType originalKeyType, bytes32 originalPKH, bytes32 modifiedPKH, KeyType newKeyType);\n\n    // Initial setup of the Lamport system, providing the first MASTER keys and an ORACLE key\n    // function init(bytes32 masterPKH1, bytes32 masterPKH2, bytes32 oraclePKH) public {\n    //     require(!initialized, \"LamportBase: Already initialized\");\n\n    //     ;\n    // }\n    constructor () {\n    \n        addKey(KeyType.MASTER, master1);\n        addKey(KeyType.MASTER, master2);\n        addKey(KeyType.ORACLE, oracle);\n        initialized = true;\n    }\n    // Function to perform onlyLamportMaster checks\n    function performLamportMasterCheck(\n        bytes32[2][256] calldata currentpub,\n        bytes[256] calldata sig,\n        bytes32 nextPKH,\n        bytes memory prepacked\n    ) public returns (bool) {\n        require(initialized, \"LamportBase: not initialized\");\n\n        bytes32 pkh = keccak256(abi.encodePacked(currentpub));\n        if (keyData[pkh].keyType != KeyType.MASTER) {\n            return false;\n        }\n\n        uint256 hashedData = uint256(keccak256(abi.encodePacked(prepacked, nextPKH)));\n        bool verificationResult = verify_u256(hashedData, sig, currentpub);\n\n        if (!verificationResult) {\n            return false;\n        } else {\n            updateKey(pkh, nextPKH);\n            return true;\n        }\n    }\n\n    // Function to perform onlyLamportOracle checks\n    function performLamportOracleCheck(\n        bytes32[2][256] calldata currentpub,\n        bytes[256] calldata sig,\n        bytes32 nextPKH,\n        bytes memory prepacked\n    ) public returns (bool) {\n        require(initialized, \"LamportBase: not initialized\");\n\n        bytes32 pkh = keccak256(abi.encodePacked(currentpub));\n        if (keyData[pkh].keyType != KeyType.ORACLE) {\n            return false;\n        }\n\n        uint256 hashedData = uint256(keccak256(abi.encodePacked(prepacked, nextPKH)));\n        bool verificationResult = verify_u256(hashedData, sig, currentpub);\n\n        if (!verificationResult) {\n            return false;\n        } else {\n            updateKey(pkh, nextPKH);\n            return true;\n        }\n    }\n\n    // Add a new key\n    function addKey(KeyType keyType, bytes32 newPKH) private {\n        Key memory newKey = Key(keyType, newPKH);\n        keys.push(newKey);\n        keyData[newPKH] = newKey;\n        emit KeyAdded(keyType, newPKH);\n    }\n\n    // Search for a key by its PKH, return the key and its position in the keys array\n    function getKeyAndIndexByPKH(bytes32 pkh) public view returns (KeyType, bytes32, uint) {\n        Key memory key = keyData[pkh];\n        require(key.pkh != 0, \"LamportBase: No such key\");\n\n        // Iterate over keys array to find the position\n        for (uint i = 0; i < keys.length; i++) {\n            if (keys[i].pkh == pkh) {\n                return (key.keyType, key.pkh, i);\n            }\n        }\n        revert(\"LamportBase: No such key\");\n    }\n    function getPKHsByPrivilege(KeyType privilege) public view returns (bytes32[] memory) {\n        bytes32[] memory pkhs = new bytes32[](keys.length);\n        uint counter = 0;\n\n        for (uint i = 0; i < keys.length; i++) {\n            if (keys[i].keyType == privilege) {\n                pkhs[counter] = keys[i].pkh;\n                counter++;\n            }\n        }\n\n        // Prepare the array to return\n        bytes32[] memory result = new bytes32[](counter);\n        for(uint i = 0; i < counter; i++) {\n            result[i] = pkhs[i];\n        }\n\n        return result;\n    }\n\n    // Delete a key\n    // function deleteKey(bytes32 firstMasterPKH, bytes32 secondMasterPKH, bytes32 targetPKH) private {\n    //     // Check that the two provided keys are master keys\n    //     require(keyData[firstMasterPKH].keyType == KeyType.MASTER && keyData[secondMasterPKH].keyType == KeyType.MASTER, \"LamportBase: Provided keys are not master keys\");\n\n    //     // Disallow master keys from deleting themselves\n    //     require(targetPKH != firstMasterPKH && targetPKH != secondMasterPKH, \"LamportBase: Master keys cannot delete themselves\");\n\n    //     require(keyData[targetPKH].pkh != 0, \"LamportBase: No such key\");\n    //     for (uint i = 0; i < keys.length; i++) {\n    //         if (keys[i].pkh == targetPKH) {\n    //             delete keyData[targetPKH];\n    //             keys[i] = keys[keys.length - 1];\n    //             keys.pop();\n    //             emit KeyDeleted(keys[i].keyType, targetPKH);\n    //             break;\n    //         }\n    //     }\n    // }\n\n    bytes32 private lastUsedDeleteKeyHash;\n    uint256 private lastUsedDeleteKeyIndex;\n    bytes32 private storedNextPKH;\n    function deleteKeyByIndexStepOne(\n        bytes32[2][256] calldata currentpub,\n        bytes[256] calldata sig,\n        bytes32 nextPKH,\n        uint256 keyIndex\n    )\n        public\n        onlyLamportMaster(\n            currentpub,\n            sig,\n            nextPKH,\n            abi.encodePacked(keyIndex)\n        )\n    {\n        // Save the used deleteKeyHash in a global variable\n        lastUsedDeleteKeyIndex = keyIndex;\n        storedNextPKH = nextPKH;\n    }\n\n    function deleteKeyByIndexStepTwo(\n        bytes32[2][256] calldata currentpub,\n        bytes[256] calldata sig,\n        bytes32 nextPKH,\n        uint256 keyIndex\n    )\n        public\n        onlyLamportMaster(\n            currentpub,\n            sig,\n            nextPKH,\n            abi.encodePacked(keyIndex)\n        )\n    {\n        // Calculate the current public key hash (currentPKH)\n        bytes32 currentPKH = keccak256(abi.encodePacked(currentpub));\n        \n        // Check if storedNextPKH is not the same as the current PKH\n        require(currentPKH != storedNextPKH, \"LamportBase: Cannot use the same keychain twice for this function\");\n        \n        // Check if the used keyIndex matches the last used keyIndex\n        require(lastUsedDeleteKeyIndex == keyIndex, \"LamportBase: Keys do not match\");\n        \n        // Check if the keyIndex is valid\n        require(keyIndex < keys.length, \"LamportBase: Invalid key index\");\n\n        // Proceed with key deletion logic\n        Key memory keyToDelete = keys[keyIndex];\n        require(keyToDelete.keyType != KeyType.DELETED, \"LamportBase: Key already deleted\");\n\n        // Store the original KeyType\n        KeyType originalKeyType = keyToDelete.keyType;\n\n        // Overwrite the first 7 characters with \"de1e7ed\" and the rest with random values\n        bytes32 modifiedPKH = 0xde1e7ed000000000000000000000000000000000000000000000000000000000;\n        uint256 randomValue = uint256(keccak256(abi.encodePacked(block.timestamp, block.difficulty)));\n        modifiedPKH ^= bytes32(randomValue); // XOR to keep \"de1e7ed\" in the first 7 characters\n\n        // Modify the existing entry instead of deleting it\n        keys[keyIndex].pkh = modifiedPKH;\n        keys[keyIndex].keyType = KeyType.DELETED;\n\n        // Update the keyData mapping\n        keyData[modifiedPKH] = keys[keyIndex];\n        delete keyData[keyToDelete.pkh];\n\n        emit KeyModified(originalKeyType, keyToDelete.pkh, modifiedPKH, KeyType.DELETED);\n\n        // Reset the tracking variables\n        lastUsedDeleteKeyIndex = 0;\n        storedNextPKH = bytes32(0);\n    }\n\n\n    function deleteKeyByPKHStepOne(\n        bytes32[2][256] calldata currentpub,\n        bytes[256] calldata sig,\n        bytes32 nextPKH,\n        bytes32 deleteKeyHash\n    )\n        public\n        onlyLamportMaster(\n            currentpub,\n            sig,\n            nextPKH,\n            abi.encodePacked(deleteKeyHash)\n        )\n    {\n        // Save the used deleteKeyHash in a global variable\n        lastUsedDeleteKeyHash = deleteKeyHash;\n        storedNextPKH = nextPKH;\n    }\n\n    function deleteKeyByPKHStepTwo(\n        bytes32[2][256] calldata currentpub,\n        bytes[256] calldata sig,\n        bytes32 nextPKH,\n        bytes32 confirmDeleteKeyHash\n    )\n        public\n        onlyLamportMaster(\n            currentpub,\n            sig,\n            nextPKH,\n            abi.encodePacked(confirmDeleteKeyHash)\n        )\n    {\n        // Calculate the current public key hash (currentPKH)\n        bytes32 currentPKH = keccak256(abi.encodePacked(currentpub));\n        \n        // Check if storedNextPKH is not the same as the current PKH\n        require(currentPKH != storedNextPKH, \"LamportBase: Cannot use the same keychain twice for this function\");\n        \n        // Check if the used deleteKeyHash matches the last used deleteKeyHash\n        require(lastUsedDeleteKeyHash == confirmDeleteKeyHash, \"LamportBase: Keys do not match\");\n        \n        // Execute the delete key logic\n        // Assuming firstMasterPKH and secondMasterPKH are correctly verified and provided\n        bytes32 firstMasterPKH = storedNextPKH; // Placeholder, replace with the actual value\n        bytes32 secondMasterPKH = currentPKH; // Placeholder, replace with the actual value\n        bytes32 targetPKH = confirmDeleteKeyHash;\n        \n        // Check that the two provided keys are master keys\n        require(keyData[firstMasterPKH].keyType == KeyType.MASTER && keyData[secondMasterPKH].keyType == KeyType.MASTER, \"LamportBase: Provided keys are not master keys\");\n        \n        // Disallow master keys from deleting themselves\n        require(targetPKH != firstMasterPKH && targetPKH != secondMasterPKH, \"LamportBase: Master keys cannot delete themselves\");\n        \n        // require(keyData[targetPKH].pkh != 0, \"LamportBase: No such key (deletion)\");\n        // for (uint i = 0; i < keys.length; i++) {\n        //     if (keys[i].pkh == targetPKH) {\n        //         delete keyData[targetPKH];\n        //         keys[i] = keys[keys.length - 1];\n        //         keys.pop();\n        //         emit KeyDeleted(keys[i].keyType, targetPKH);\n        //         break;\n        //     }\n        // }\n        require(keyData[targetPKH].pkh != 0, \"LamportBase: No such key (deletion)\");\n        for (uint i = 0; i < keys.length; i++) {\n            if (keys[i].pkh == targetPKH) {\n\n                KeyType originalKeyType = keyData[targetPKH].keyType; // Store the original KeyType\n                // Overwriting the first 7 characters with \"de1e7ed\" and the rest with random values\n                bytes32 modifiedPKH = 0xde1e7ed000000000000000000000000000000000000000000000000000000000;\n                uint256 randomValue = uint256(keccak256(abi.encodePacked(block.timestamp, block.difficulty)));\n                modifiedPKH ^= bytes32(randomValue); // XOR to keep \"de1e7ed\" in the first 7 characters\n                \n                // Modify the existing entry instead of deleting it\n                keyData[targetPKH].pkh = modifiedPKH;\n                keyData[targetPKH].keyType = KeyType.DELETED; // Set the keyType to DELETED\n                \n                emit KeyModified(originalKeyType, targetPKH, modifiedPKH, KeyType.DELETED); // Emitting a new event for modification                    \n                break;\n            }\n        }\n\n\n        \n        // Reset lastUsedDeleteKeyHash\n        lastUsedDeleteKeyHash = bytes32(0);\n        storedNextPKH = bytes32(0);\n    }\n\n\n\n    // // get the current public key hash\n    // function getPKH() public view returns (bytes32) {\n    //     return pkh;\n    // }\n\n    // lamport 'verify' logic\n    function verify_u256(\n        uint256 bits,\n        bytes[256] calldata sig,\n        bytes32[2][256] calldata pub\n    ) public pure returns (bool) {\n        unchecked {\n            for (uint256 i; i < 256; i++) {\n                if (\n                    pub[i][((bits & (1 << (255 - i))) > 0) ? 1 : 0] !=\n                    keccak256(sig[i])\n                ) return false;\n            }\n\n            return true;\n        }\n    }\n\n    modifier onlyLamportMaster(bytes32[2][256] calldata currentpub, bytes[256] calldata sig, bytes32 nextPKH, bytes memory prepacked) {\n        require(initialized, \"LamportBase: not initialized\");\n\n        bytes32 pkh = keccak256(abi.encodePacked(currentpub));\n        require(keyData[pkh].keyType == KeyType.MASTER, \"LamportBase: Not a master key\");\n\n        uint256 hashedData = uint256(keccak256(abi.encodePacked(prepacked, nextPKH)));\n        emit LogLastCalculatedHash(hashedData);\n\n        bool verificationResult = verify_u256(hashedData, sig, currentpub);\n\n        lastVerificationResult = verificationResult;\n\n        if (!verificationResult) {\n            emit VerificationFailed(hashedData);\n            revert(\"LamportBase: Verification failed\");\n        } else {\n            emit PkhUpdated(keyData[pkh].keyType, pkh, nextPKH);\n            updateKey(pkh, nextPKH);\n        }\n\n        _;\n    }\n\n    // function updateKey(bytes32 oldPKH, bytes32 newPKH) internal {\n    //     require(keyData[oldPKH].pkh != 0, \"LamportBase: No such key\");\n    //     keyData[oldPKH].pkh = newPKH; // Update the public key hash in the key data mapping\n    //     emit PkhUpdated(keyData[oldPKH].keyType, oldPKH, newPKH);\n    // }\n\n    function updateKey(bytes32 oldPKH, bytes32 newPKH) internal {\n        require(keyData[oldPKH].pkh != 0, \"LamportBase: No such key\");\n\n        // Update the public key hash in the key data mapping\n        Key memory updatedKey = Key(keyData[oldPKH].keyType, newPKH);\n        keyData[newPKH] = updatedKey;\n\n        // Remove the old key from key data\n        delete keyData[oldPKH];\n\n        // Update the public key hash in the keys array\n        for (uint i = 0; i < keys.length; i++) {\n            if (keys[i].pkh == oldPKH) {\n                keys[i] = updatedKey;\n                break;\n            }\n        }\n\n        emit PkhUpdated(updatedKey.keyType, oldPKH, newPKH);\n    }\n\n\n\n    modifier onlyLamportOracle(bytes32[2][256] calldata currentpub, bytes[256] calldata sig, bytes32 nextPKH, bytes memory prepacked) {\n        require(initialized, \"LamportBase: not initialized\");\n\n        bytes32 pkh = keccak256(abi.encodePacked(currentpub));\n        require(keyData[pkh].keyType == KeyType.ORACLE, \"LamportBase: Not an oracle key\");\n\n        uint256 hashedData = uint256(keccak256(abi.encodePacked(prepacked, nextPKH)));\n        emit LogLastCalculatedHash(hashedData);\n\n        bool verificationResult = verify_u256(hashedData, sig, currentpub);\n\n        lastVerificationResult = verificationResult;\n\n        if (!verificationResult) {\n           // emit VerificationFailed(hashedData);\n            revert(\"LamportBase: Verification failed\");\n        } else {\n            emit PkhUpdated(keyData[pkh].keyType, pkh, nextPKH);\n            updateKey(pkh, nextPKH);\n        }\n\n        _;\n    }\n\n    bytes32 public lastUsedNextPKH;\n\n    function createMasterKeyStepOne(\n        bytes32[2][256] calldata currentpub,\n        bytes[256] calldata sig,\n        bytes32 nextPKH,\n        bytes memory newmasterPKH\n    )\n        public\n        onlyLamportMaster(\n            currentpub,\n            sig,\n            nextPKH,\n            newmasterPKH\n        )\n    {\n        // Save the used master NextPKH in a global variable\n        lastUsedNextPKH = nextPKH;\n    }\n\n    function createMasterKeyStepTwo(\n        bytes32[2][256] calldata currentpub,\n        bytes[256] calldata sig,\n        bytes32 nextPKH,\n        bytes32 newmasterPKH\n    )\n        public\n        onlyLamportMaster(\n            currentpub,\n            sig,\n            nextPKH,\n            abi.encodePacked(newmasterPKH)\n        )\n    {\n        // Check if the used master NextPKH matches the last used PKH\n        bytes32 currentPKH = keccak256(abi.encodePacked(currentpub));\n        bool pkhMatched = (lastUsedNextPKH != currentPKH);\n        //require(lastUsedNextPKH != nextPKH, \"LamportBase: Same master key is being used again, need a separate one\");\n        lastUsedNextPKH = bytes32(0);\n        // If checks pass, add the new master key\n        require(pkhMatched, \"LamportBase: PKH matches last used PKH (use separate second key)\");\n\n        addKey(KeyType.MASTER, newmasterPKH);\n\n        // Reset lastUsedNextPKH\n        lastUsedNextPKH = bytes32(0);\n    }\n\n\n    function createOracleKeyFromMaster(\n        bytes32[2][256] calldata currentpub,\n        bytes32 nextPKH,\n        bytes[256] calldata sig,\n        bytes32 neworaclePKH\n    )\n        public\n        onlyLamportMaster(\n            currentpub,\n            sig,\n            nextPKH,\n            abi.encodePacked(neworaclePKH)\n        )\n    {\n        \n        addKey(KeyType.ORACLE, neworaclePKH);\n      \n    }\n}\n",
  "sourcePath": "contracts/1_GP_LamportBase2.sol",
  "type": "contract"
}