{
  "abi": [
    {
      "anonymous": false,
      "inputs": [
        {
          "indexed": false,
          "internalType": "uint256",
          "name": "num",
          "type": "uint256"
        }
      ],
      "name": "AdvanceEpochs",
      "type": "event"
    },
    {
      "anonymous": false,
      "inputs": [
        {
          "indexed": false,
          "internalType": "bytes",
          "name": "diff",
          "type": "bytes"
        }
      ],
      "name": "UpdateNetworkRules",
      "type": "event"
    },
    {
      "anonymous": false,
      "inputs": [
        {
          "indexed": false,
          "internalType": "uint256",
          "name": "version",
          "type": "uint256"
        }
      ],
      "name": "UpdateNetworkVersion",
      "type": "event"
    },
    {
      "anonymous": false,
      "inputs": [
        {
          "indexed": true,
          "internalType": "uint256",
          "name": "validatorID",
          "type": "uint256"
        },
        {
          "indexed": false,
          "internalType": "bytes",
          "name": "pubkey",
          "type": "bytes"
        }
      ],
      "name": "UpdateValidatorPubkey",
      "type": "event"
    },
    {
      "anonymous": false,
      "inputs": [
        {
          "indexed": true,
          "internalType": "uint256",
          "name": "validatorID",
          "type": "uint256"
        },
        {
          "indexed": false,
          "internalType": "uint256",
          "name": "weight",
          "type": "uint256"
        }
      ],
      "name": "UpdateValidatorWeight",
      "type": "event"
    },
    {
      "anonymous": false,
      "inputs": [
        {
          "indexed": true,
          "internalType": "address",
          "name": "backend",
          "type": "address"
        }
      ],
      "name": "UpdatedBackend",
      "type": "event"
    },
    {
      "constant": false,
      "inputs": [
        {
          "internalType": "uint256",
          "name": "num",
          "type": "uint256"
        }
      ],
      "name": "advanceEpochs",
      "outputs": [],
      "payable": false,
      "stateMutability": "nonpayable",
      "type": "function"
    },
    {
      "constant": false,
      "inputs": [
        {
          "internalType": "address",
          "name": "acc",
          "type": "address"
        },
        {
          "internalType": "address",
          "name": "from",
          "type": "address"
        }
      ],
      "name": "copyCode",
      "outputs": [],
      "payable": false,
      "stateMutability": "nonpayable",
      "type": "function"
    },
    {
      "constant": false,
      "inputs": [
        {
          "internalType": "uint256",
          "name": "validatorID",
          "type": "uint256"
        },
        {
          "internalType": "uint256",
          "name": "status",
          "type": "uint256"
        }
      ],
      "name": "deactivateValidator",
      "outputs": [],
      "payable": false,
      "stateMutability": "nonpayable",
      "type": "function"
    },
    {
      "constant": false,
      "inputs": [
        {
          "internalType": "address",
          "name": "acc",
          "type": "address"
        },
        {
          "internalType": "uint256",
          "name": "diff",
          "type": "uint256"
        }
      ],
      "name": "incNonce",
      "outputs": [],
      "payable": false,
      "stateMutability": "nonpayable",
      "type": "function"
    },
    {
      "constant": false,
      "inputs": [
        {
          "internalType": "address",
          "name": "_backend",
          "type": "address"
        },
        {
          "internalType": "address",
          "name": "_evmWriterAddress",
          "type": "address"
        }
      ],
      "name": "initialize",
      "outputs": [],
      "payable": false,
      "stateMutability": "nonpayable",
      "type": "function"
    },
    {
      "constant": false,
      "inputs": [
        {
          "internalType": "uint256[]",
          "name": "offlineTimes",
          "type": "uint256[]"
        },
        {
          "internalType": "uint256[]",
          "name": "offlineBlocks",
          "type": "uint256[]"
        },
        {
          "internalType": "uint256[]",
          "name": "uptimes",
          "type": "uint256[]"
        },
        {
          "internalType": "uint256[]",
          "name": "originatedTxsFee",
          "type": "uint256[]"
        }
      ],
      "name": "sealEpoch",
      "outputs": [],
      "payable": false,
      "stateMutability": "nonpayable",
      "type": "function"
    },
    {
      "constant": false,
      "inputs": [
        {
          "internalType": "uint256[]",
          "name": "offlineTimes",
          "type": "uint256[]"
        },
        {
          "internalType": "uint256[]",
          "name": "offlineBlocks",
          "type": "uint256[]"
        },
        {
          "internalType": "uint256[]",
          "name": "uptimes",
          "type": "uint256[]"
        },
        {
          "internalType": "uint256[]",
          "name": "originatedTxsFee",
          "type": "uint256[]"
        },
        {
          "internalType": "uint256",
          "name": "usedGas",
          "type": "uint256"
        }
      ],
      "name": "sealEpochV1",
      "outputs": [],
      "payable": false,
      "stateMutability": "nonpayable",
      "type": "function"
    },
    {
      "constant": false,
      "inputs": [
        {
          "internalType": "uint256[]",
          "name": "nextValidatorIDs",
          "type": "uint256[]"
        }
      ],
      "name": "sealEpochValidators",
      "outputs": [],
      "payable": false,
      "stateMutability": "nonpayable",
      "type": "function"
    },
    {
      "constant": false,
      "inputs": [
        {
          "internalType": "address",
          "name": "_backend",
          "type": "address"
        }
      ],
      "name": "setBackend",
      "outputs": [],
      "payable": false,
      "stateMutability": "nonpayable",
      "type": "function"
    },
    {
      "constant": false,
      "inputs": [
        {
          "internalType": "address",
          "name": "acc",
          "type": "address"
        },
        {
          "internalType": "uint256",
          "name": "value",
          "type": "uint256"
        }
      ],
      "name": "setBalance",
      "outputs": [],
      "payable": false,
      "stateMutability": "nonpayable",
      "type": "function"
    },
    {
      "constant": false,
      "inputs": [
        {
          "internalType": "address",
          "name": "delegator",
          "type": "address"
        },
        {
          "internalType": "uint256",
          "name": "toValidatorID",
          "type": "uint256"
        },
        {
          "internalType": "uint256",
          "name": "stake",
          "type": "uint256"
        },
        {
          "internalType": "uint256",
          "name": "lockedStake",
          "type": "uint256"
        },
        {
          "internalType": "uint256",
          "name": "lockupFromEpoch",
          "type": "uint256"
        },
        {
          "internalType": "uint256",
          "name": "lockupEndTime",
          "type": "uint256"
        },
        {
          "internalType": "uint256",
          "name": "lockupDuration",
          "type": "uint256"
        },
        {
          "internalType": "uint256",
          "name": "earlyUnlockPenalty",
          "type": "uint256"
        },
        {
          "internalType": "uint256",
          "name": "rewards",
          "type": "uint256"
        }
      ],
      "name": "setGenesisDelegation",
      "outputs": [],
      "payable": false,
      "stateMutability": "nonpayable",
      "type": "function"
    },
    {
      "constant": false,
      "inputs": [
        {
          "internalType": "address",
          "name": "_auth",
          "type": "address"
        },
        {
          "internalType": "uint256",
          "name": "validatorID",
          "type": "uint256"
        },
        {
          "internalType": "bytes",
          "name": "pubkey",
          "type": "bytes"
        },
        {
          "internalType": "uint256",
          "name": "status",
          "type": "uint256"
        },
        {
          "internalType": "uint256",
          "name": "createdEpoch",
          "type": "uint256"
        },
        {
          "internalType": "uint256",
          "name": "createdTime",
          "type": "uint256"
        },
        {
          "internalType": "uint256",
          "name": "deactivatedEpoch",
          "type": "uint256"
        },
        {
          "internalType": "uint256",
          "name": "deactivatedTime",
          "type": "uint256"
        }
      ],
      "name": "setGenesisValidator",
      "outputs": [],
      "payable": false,
      "stateMutability": "nonpayable",
      "type": "function"
    },
    {
      "constant": false,
      "inputs": [
        {
          "internalType": "address",
          "name": "acc",
          "type": "address"
        },
        {
          "internalType": "bytes32",
          "name": "key",
          "type": "bytes32"
        },
        {
          "internalType": "bytes32",
          "name": "value",
          "type": "bytes32"
        }
      ],
      "name": "setStorage",
      "outputs": [],
      "payable": false,
      "stateMutability": "nonpayable",
      "type": "function"
    },
    {
      "constant": false,
      "inputs": [
        {
          "internalType": "address",
          "name": "acc",
          "type": "address"
        },
        {
          "internalType": "address",
          "name": "with",
          "type": "address"
        }
      ],
      "name": "swapCode",
      "outputs": [],
      "payable": false,
      "stateMutability": "nonpayable",
      "type": "function"
    },
    {
      "constant": false,
      "inputs": [
        {
          "internalType": "bytes",
          "name": "diff",
          "type": "bytes"
        }
      ],
      "name": "updateNetworkRules",
      "outputs": [],
      "payable": false,
      "stateMutability": "nonpayable",
      "type": "function"
    },
    {
      "constant": false,
      "inputs": [
        {
          "internalType": "uint256",
          "name": "version",
          "type": "uint256"
        }
      ],
      "name": "updateNetworkVersion",
      "outputs": [],
      "payable": false,
      "stateMutability": "nonpayable",
      "type": "function"
    },
    {
      "constant": false,
      "inputs": [
        {
          "internalType": "uint256",
          "name": "validatorID",
          "type": "uint256"
        },
        {
          "internalType": "bytes",
          "name": "pubkey",
          "type": "bytes"
        }
      ],
      "name": "updateValidatorPubkey",
      "outputs": [],
      "payable": false,
      "stateMutability": "nonpayable",
      "type": "function"
    },
    {
      "constant": false,
      "inputs": [
        {
          "internalType": "uint256",
          "name": "validatorID",
          "type": "uint256"
        },
        {
          "internalType": "uint256",
          "name": "value",
          "type": "uint256"
        }
      ],
      "name": "updateValidatorWeight",
      "outputs": [],
      "payable": false,
      "stateMutability": "nonpayable",
      "type": "function"
    }
  ],
  "bytecode": "608060405234801561001057600080fd5b506116aa806100206000396000f3fe608060405234801561001057600080fd5b50600436106101165760003560e01c806379bead38116100a2578063d6a0c7af11610071578063d6a0c7af1461058c578063da7fc24f146105ba578063e08d7e66146105e0578063e30443bc1461064e578063ebdf104c1461067a57610116565b806379bead38146103715780637f52e13e1461039d578063a4066fbe146104fb578063b9cc6b1c1461051e57610116565b8063242a6e3f116100e9578063242a6e3f146101e3578063267ab4461461025857806339e503ab14610275578063485cc955146102a75780634feb92f3146102d557610116565b806307690b2a1461011b5780630aeeca001461014b57806318f628d4146101685780631e702f83146101c0575b600080fd5b6101496004803603604081101561013157600080fd5b506001600160a01b03813581169160200135166107d8565b005b6101496004803603602081101561016157600080fd5b5035610897565b610149600480360361012081101561017f57600080fd5b506001600160a01b038135169060208101359060408101359060608101359060808101359060a08101359060c08101359060e081013590610100013561091a565b610149600480360360408110156101d657600080fd5b5080359060200135610a07565b610149600480360360408110156101f957600080fd5b81359190810190604081016020820135600160201b81111561021a57600080fd5b82018360208201111561022c57600080fd5b803590602001918460018302840111600160201b8311171561024d57600080fd5b509092509050610a9d565b6101496004803603602081101561026e57600080fd5b5035610b50565b6101496004803603606081101561028b57600080fd5b506001600160a01b038135169060208101359060400135610bd3565b610149600480360360408110156102bd57600080fd5b506001600160a01b0381358116916020013516610c99565b61014960048036036101008110156102ec57600080fd5b6001600160a01b0382351691602081013591810190606081016040820135600160201b81111561031b57600080fd5b82018360208201111561032d57600080fd5b803590602001918460018302840111600160201b8311171561034e57600080fd5b919350915080359060208101359060408101359060608101359060800135610d9f565b6101496004803603604081101561038757600080fd5b506001600160a01b038135169060200135610eb2565b610149600480360360a08110156103b357600080fd5b810190602081018135600160201b8111156103cd57600080fd5b8201836020820111156103df57600080fd5b803590602001918460208302840111600160201b8311171561040057600080fd5b919390929091602081019035600160201b81111561041d57600080fd5b82018360208201111561042f57600080fd5b803590602001918460208302840111600160201b8311171561045057600080fd5b919390929091602081019035600160201b81111561046d57600080fd5b82018360208201111561047f57600080fd5b803590602001918460208302840111600160201b831117156104a057600080fd5b919390929091602081019035600160201b8111156104bd57600080fd5b8201836020820111156104cf57600080fd5b803590602001918460208302840111600160201b831117156104f057600080fd5b919350915035610f54565b6101496004803603604081101561051157600080fd5b50803590602001356110b8565b6101496004803603602081101561053457600080fd5b810190602081018135600160201b81111561054e57600080fd5b82018360208201111561056057600080fd5b803590602001918460018302840111600160201b8311171561058157600080fd5b50909250905061113f565b610149600480360360408110156105a257600080fd5b506001600160a01b03813581169160200135166111f0565b610149600480360360208110156105d057600080fd5b50356001600160a01b0316611293565b610149600480360360208110156105f657600080fd5b810190602081018135600160201b81111561061057600080fd5b82018360208201111561062257600080fd5b803590602001918460208302840111600160201b8311171561064357600080fd5b509092509050611336565b6101496004803603604081101561066457600080fd5b506001600160a01b0381351690602001356113f5565b6101496004803603608081101561069057600080fd5b810190602081018135600160201b8111156106aa57600080fd5b8201836020820111156106bc57600080fd5b803590602001918460208302840111600160201b831117156106dd57600080fd5b919390929091602081019035600160201b8111156106fa57600080fd5b82018360208201111561070c57600080fd5b803590602001918460208302840111600160201b8311171561072d57600080fd5b919390929091602081019035600160201b81111561074a57600080fd5b82018360208201111561075c57600080fd5b803590602001918460208302840111600160201b8311171561077d57600080fd5b919390929091602081019035600160201b81111561079a57600080fd5b8201836020820111156107ac57600080fd5b803590602001918460208302840111600160201b831117156107cd57600080fd5b509092509050611497565b6034546001600160a01b03163314610825576040805162461bcd60e51b81526020600482015260196024820152600080516020611628833981519152604482015290519081900360640190fd5b603554604080516303b4859560e11b81526001600160a01b0385811660048301528481166024830152915191909216916307690b2a91604480830192600092919082900301818387803b15801561087b57600080fd5b505af115801561088f573d6000803e3d6000fd5b505050505050565b6034546001600160a01b031633146108e4576040805162461bcd60e51b81526020600482015260196024820152600080516020611628833981519152604482015290519081900360640190fd5b6040805182815290517f0151256d62457b809bbc891b1f81c6dd0b9987552c70ce915b519750cd434dd19181900360200190a150565b331561095c576040805162461bcd60e51b815260206004820152600c60248201526b6e6f742063616c6c61626c6560a01b604482015290519081900360640190fd5b6034546040805163063d8a3560e21b81526001600160a01b038c81166004830152602482018c9052604482018b9052606482018a90526084820189905260a4820188905260c4820187905260e482018690526101048201859052915191909216916318f628d49161012480830192600092919082900301818387803b1580156109e457600080fd5b505af11580156109f8573d6000803e3d6000fd5b50505050505050505050505050565b3315610a49576040805162461bcd60e51b815260206004820152600c60248201526b6e6f742063616c6c61626c6560a01b604482015290519081900360640190fd5b60345460408051631e702f8360e01b8152600481018590526024810184905290516001600160a01b0390921691631e702f839160448082019260009290919082900301818387803b15801561087b57600080fd5b6034546001600160a01b03163314610aea576040805162461bcd60e51b81526020600482015260196024820152600080516020611628833981519152604482015290519081900360640190fd5b827f0f0ef1ab97439def0a9d2c6d9dc166207f1b13b99e62b442b2993d6153c63a6e838360405180806020018281038252848482818152602001925080828437600083820152604051601f909101601f19169092018290039550909350505050a2505050565b6034546001600160a01b03163314610b9d576040805162461bcd60e51b81526020600482015260196024820152600080516020611628833981519152604482015290519081900360640190fd5b6040805182815290517f2ccdfd47cf0c1f1069d949f1789bb79b2f12821f021634fc835af1de66ea2feb9181900360200190a150565b6034546001600160a01b03163314610c20576040805162461bcd60e51b81526020600482015260196024820152600080516020611628833981519152604482015290519081900360640190fd5b603554604080516339e503ab60e01b81526001600160a01b0386811660048301526024820186905260448201859052915191909216916339e503ab91606480830192600092919082900301818387803b158015610c7c57600080fd5b505af1158015610c90573d6000803e3d6000fd5b50505050505050565b600054610100900460ff1680610cb25750610cb2611621565b80610cc0575060005460ff16155b610cfb5760405162461bcd60e51b815260040180806020018281038252602e815260200180611648602e913960400191505060405180910390fd5b600054610100900460ff16158015610d26576000805460ff1961ff0019909116610100171660011790555b603480546001600160a01b0319166001600160a01b0385169081179091556040517f64ee8f7bfc37fc205d7194ee3d64947ab7b57e663cd0d1abd3ef24503583069390600090a2603580546001600160a01b0319166001600160a01b0384161790558015610d9a576000805461ff00191690555b505050565b3315610de1576040805162461bcd60e51b815260206004820152600c60248201526b6e6f742063616c6c61626c6560a01b604482015290519081900360640190fd5b603460009054906101000a90046001600160a01b03166001600160a01b0316634feb92f38a8a8a8a8a8a8a8a8a6040518a63ffffffff1660e01b8152600401808a6001600160a01b03166001600160a01b03168152602001898152602001806020018781526020018681526020018581526020018481526020018381526020018281038252898982818152602001925080828437600081840152601f19601f8201169050808301925050509a5050505050505050505050600060405180830381600087803b1580156109e457600080fd5b6034546001600160a01b03163314610eff576040805162461bcd60e51b81526020600482015260196024820152600080516020611628833981519152604482015290519081900360640190fd5b60355460408051630f37d5a760e31b81526001600160a01b03858116600483015260248201859052915191909216916379bead3891604480830192600092919082900301818387803b15801561087b57600080fd5b3315610f96576040805162461bcd60e51b815260206004820152600c60248201526b6e6f742063616c6c61626c6560a01b604482015290519081900360640190fd5b603460009054906101000a90046001600160a01b03166001600160a01b031663592fe0c08a8a8a8a8a8a8a8a8a6040518a63ffffffff1660e01b8152600401808060200180602001806020018060200186815260200185810385528e8e82818152602001925060200280828437600083820152601f01601f191690910186810385528c8152602090810191508d908d0280828437600083820152601f01601f191690910186810384528a8152602090810191508b908b0280828437600083820152601f01601f19169091018681038352888152602090810191508990890280828437600081840152601f19601f8201169050808301925050509d5050505050505050505050505050600060405180830381600087803b1580156109e457600080fd5b6034546001600160a01b03163314611105576040805162461bcd60e51b81526020600482015260196024820152600080516020611628833981519152604482015290519081900360640190fd5b60408051828152905183917fb975807576e3b1461be7de07ebf7d20e4790ed802d7a0c4fdd0a1a13df72a935919081900360200190a25050565b6034546001600160a01b0316331461118c576040805162461bcd60e51b81526020600482015260196024820152600080516020611628833981519152604482015290519081900360640190fd5b7f47d10eed096a44e3d0abc586c7e3a5d6cb5358cc90e7d437cd0627f7e765fb99828260405180806020018281038252848482818152602001925080828437600083820152604051601f909101601f19169092018290039550909350505050a15050565b6034546001600160a01b0316331461123d576040805162461bcd60e51b81526020600482015260196024820152600080516020611628833981519152604482015290519081900360640190fd5b6035546040805163d6a0c7af60e01b81526001600160a01b03858116600483015284811660248301529151919092169163d6a0c7af91604480830192600092919082900301818387803b15801561087b57600080fd5b6034546001600160a01b031633146112e0576040805162461bcd60e51b81526020600482015260196024820152600080516020611628833981519152604482015290519081900360640190fd5b6040516001600160a01b038216907f64ee8f7bfc37fc205d7194ee3d64947ab7b57e663cd0d1abd3ef24503583069390600090a2603480546001600160a01b0319166001600160a01b0392909216919091179055565b3315611378576040805162461bcd60e51b815260206004820152600c60248201526b6e6f742063616c6c61626c6560a01b604482015290519081900360640190fd5b603454604051637046bf3360e11b8152602060048201818152602483018590526001600160a01b039093169263e08d7e6692869286929182916044909101908590850280828437600081840152601f19601f8201169050808301925050509350505050600060405180830381600087803b15801561087b57600080fd5b6034546001600160a01b03163314611442576040805162461bcd60e51b81526020600482015260196024820152600080516020611628833981519152604482015290519081900360640190fd5b603554604080516338c110ef60e21b81526001600160a01b038581166004830152602482018590529151919092169163e30443bc91604480830192600092919082900301818387803b15801561087b57600080fd5b33156114d9576040805162461bcd60e51b815260206004820152600c60248201526b6e6f742063616c6c61626c6560a01b604482015290519081900360640190fd5b603460009054906101000a90046001600160a01b03166001600160a01b031663592fe0c0898989898989898963322adc3a6040518a63ffffffff1660e01b8152600401808060200180602001806020018060200186815260200185810385528e8e82818152602001925060200280828437600083820152601f01601f191690910186810385528c8152602090810191508d908d0280828437600083820152601f01601f191690910186810384528a8152602090810191508b908b0280828437600083820152601f01601f19169091018681038352888152602090810191508990890280828437600081840152601f19601f8201169050808301925050509d5050505050505050505050505050600060405180830381600087803b1580156115ff57600080fd5b505af1158015611613573d6000803e3d6000fd5b505050505050505050505050565b303b159056fe63616c6c6572206973206e6f7420746865206261636b656e6400000000000000436f6e747261637420696e7374616e63652068617320616c7265616479206265656e20696e697469616c697a6564a265627a7a72315820661bb667283e109dee5a4d4fd551994023dba8947d7bd310f027f564e1c9832864736f6c63430005110032",
  "bytecodeSha1": "8f91670bb513386f912cb616ec692d1de4e66581",
  "compiler": {
    "evm_version": "istanbul",
    "optimizer": {
      "enabled": true,
      "runs": 200
    },
    "version": "0.5.17+commit.d19bba13"
  },
  "contractName": "NodeDriver",
  "language": "Solidity",
  "natspec": {
    "methods": {}
  },
  "opcodes": "PUSH1 0x80 PUSH1 0x40 MSTORE CALLVALUE DUP1 ISZERO PUSH2 0x10 JUMPI PUSH1 0x0 DUP1 REVERT JUMPDEST POP PUSH1 0x4 CALLDATASIZE LT PUSH2 0x116 JUMPI PUSH1 0x0 CALLDATALOAD PUSH1 0xE0 SHR DUP1 PUSH4 0x79BEAD38 GT PUSH2 0xA2 JUMPI DUP1 PUSH4 0xD6A0C7AF GT PUSH2 0x71 JUMPI DUP1 PUSH4 0xD6A0C7AF EQ PUSH2 0x58C JUMPI DUP1 PUSH4 0xDA7FC24F EQ PUSH2 0x5BA JUMPI DUP1 PUSH4 0xE08D7E66 EQ PUSH2 0x5E0 JUMPI DUP1 PUSH4 0xE30443BC EQ PUSH2 0x64E JUMPI DUP1 PUSH4 0xEBDF104C EQ PUSH2 0x67A JUMPI PUSH2 0x116 JUMP JUMPDEST DUP1 PUSH4 0x79BEAD38 EQ PUSH2 0x371 JUMPI DUP1 PUSH4 0x7F52E13E EQ PUSH2 0x39D JUMPI DUP1 PUSH4 0xA4066FBE EQ PUSH2 0x4FB JUMPI DUP1 PUSH4 0xB9CC6B1C EQ PUSH2 0x51E JUMPI PUSH2 0x116 JUMP JUMPDEST DUP1 PUSH4 0x242A6E3F GT PUSH2 0xE9 JUMPI DUP1 PUSH4 0x242A6E3F EQ PUSH2 0x1E3 JUMPI DUP1 PUSH4 0x267AB446 EQ PUSH2 0x258 JUMPI DUP1 PUSH4 0x39E503AB EQ PUSH2 0x275 JUMPI DUP1 PUSH4 0x485CC955 EQ PUSH2 0x2A7 JUMPI DUP1 PUSH4 0x4FEB92F3 EQ PUSH2 0x2D5 JUMPI PUSH2 0x116 JUMP JUMPDEST DUP1 PUSH4 0x7690B2A EQ PUSH2 0x11B JUMPI DUP1 PUSH4 0xAEECA00 EQ PUSH2 0x14B JUMPI DUP1 PUSH4 0x18F628D4 EQ PUSH2 0x168 JUMPI DUP1 PUSH4 0x1E702F83 EQ PUSH2 0x1C0 JUMPI JUMPDEST PUSH1 0x0 DUP1 REVERT JUMPDEST PUSH2 0x149 PUSH1 0x4 DUP1 CALLDATASIZE SUB PUSH1 0x40 DUP2 LT ISZERO PUSH2 0x131 JUMPI PUSH1 0x0 DUP1 REVERT JUMPDEST POP PUSH1 0x1 PUSH1 0x1 PUSH1 0xA0 SHL SUB DUP2 CALLDATALOAD DUP2 AND SWAP2 PUSH1 0x20 ADD CALLDATALOAD AND PUSH2 0x7D8 JUMP JUMPDEST STOP JUMPDEST PUSH2 0x149 PUSH1 0x4 DUP1 CALLDATASIZE SUB PUSH1 0x20 DUP2 LT ISZERO PUSH2 0x161 JUMPI PUSH1 0x0 DUP1 REVERT JUMPDEST POP CALLDATALOAD PUSH2 0x897 JUMP JUMPDEST PUSH2 0x149 PUSH1 0x4 DUP1 CALLDATASIZE SUB PUSH2 0x120 DUP2 LT ISZERO PUSH2 0x17F JUMPI PUSH1 0x0 DUP1 REVERT JUMPDEST POP PUSH1 0x1 PUSH1 0x1 PUSH1 0xA0 SHL SUB DUP2 CALLDATALOAD AND SWAP1 PUSH1 0x20 DUP2 ADD CALLDATALOAD SWAP1 PUSH1 0x40 DUP2 ADD CALLDATALOAD SWAP1 PUSH1 0x60 DUP2 ADD CALLDATALOAD SWAP1 PUSH1 0x80 DUP2 ADD CALLDATALOAD SWAP1 PUSH1 0xA0 DUP2 ADD CALLDATALOAD SWAP1 PUSH1 0xC0 DUP2 ADD CALLDATALOAD SWAP1 PUSH1 0xE0 DUP2 ADD CALLDATALOAD SWAP1 PUSH2 0x100 ADD CALLDATALOAD PUSH2 0x91A JUMP JUMPDEST PUSH2 0x149 PUSH1 0x4 DUP1 CALLDATASIZE SUB PUSH1 0x40 DUP2 LT ISZERO PUSH2 0x1D6 JUMPI PUSH1 0x0 DUP1 REVERT JUMPDEST POP DUP1 CALLDATALOAD SWAP1 PUSH1 0x20 ADD CALLDATALOAD PUSH2 0xA07 JUMP JUMPDEST PUSH2 0x149 PUSH1 0x4 DUP1 CALLDATASIZE SUB PUSH1 0x40 DUP2 LT ISZERO PUSH2 0x1F9 JUMPI PUSH1 0x0 DUP1 REVERT JUMPDEST DUP2 CALLDATALOAD SWAP2 SWAP1 DUP2 ADD SWAP1 PUSH1 0x40 DUP2 ADD PUSH1 0x20 DUP3 ADD CALLDATALOAD PUSH1 0x1 PUSH1 0x20 SHL DUP2 GT ISZERO PUSH2 0x21A JUMPI PUSH1 0x0 DUP1 REVERT JUMPDEST DUP3 ADD DUP4 PUSH1 0x20 DUP3 ADD GT ISZERO PUSH2 0x22C JUMPI PUSH1 0x0 DUP1 REVERT JUMPDEST DUP1 CALLDATALOAD SWAP1 PUSH1 0x20 ADD SWAP2 DUP5 PUSH1 0x1 DUP4 MUL DUP5 ADD GT PUSH1 0x1 PUSH1 0x20 SHL DUP4 GT OR ISZERO PUSH2 0x24D JUMPI PUSH1 0x0 DUP1 REVERT JUMPDEST POP SWAP1 SWAP3 POP SWAP1 POP PUSH2 0xA9D JUMP JUMPDEST PUSH2 0x149 PUSH1 0x4 DUP1 CALLDATASIZE SUB PUSH1 0x20 DUP2 LT ISZERO PUSH2 0x26E JUMPI PUSH1 0x0 DUP1 REVERT JUMPDEST POP CALLDATALOAD PUSH2 0xB50 JUMP JUMPDEST PUSH2 0x149 PUSH1 0x4 DUP1 CALLDATASIZE SUB PUSH1 0x60 DUP2 LT ISZERO PUSH2 0x28B JUMPI PUSH1 0x0 DUP1 REVERT JUMPDEST POP PUSH1 0x1 PUSH1 0x1 PUSH1 0xA0 SHL SUB DUP2 CALLDATALOAD AND SWAP1 PUSH1 0x20 DUP2 ADD CALLDATALOAD SWAP1 PUSH1 0x40 ADD CALLDATALOAD PUSH2 0xBD3 JUMP JUMPDEST PUSH2 0x149 PUSH1 0x4 DUP1 CALLDATASIZE SUB PUSH1 0x40 DUP2 LT ISZERO PUSH2 0x2BD JUMPI PUSH1 0x0 DUP1 REVERT JUMPDEST POP PUSH1 0x1 PUSH1 0x1 PUSH1 0xA0 SHL SUB DUP2 CALLDATALOAD DUP2 AND SWAP2 PUSH1 0x20 ADD CALLDATALOAD AND PUSH2 0xC99 JUMP JUMPDEST PUSH2 0x149 PUSH1 0x4 DUP1 CALLDATASIZE SUB PUSH2 0x100 DUP2 LT ISZERO PUSH2 0x2EC JUMPI PUSH1 0x0 DUP1 REVERT JUMPDEST PUSH1 0x1 PUSH1 0x1 PUSH1 0xA0 SHL SUB DUP3 CALLDATALOAD AND SWAP2 PUSH1 0x20 DUP2 ADD CALLDATALOAD SWAP2 DUP2 ADD SWAP1 PUSH1 0x60 DUP2 ADD PUSH1 0x40 DUP3 ADD CALLDATALOAD PUSH1 0x1 PUSH1 0x20 SHL DUP2 GT ISZERO PUSH2 0x31B JUMPI PUSH1 0x0 DUP1 REVERT JUMPDEST DUP3 ADD DUP4 PUSH1 0x20 DUP3 ADD GT ISZERO PUSH2 0x32D JUMPI PUSH1 0x0 DUP1 REVERT JUMPDEST DUP1 CALLDATALOAD SWAP1 PUSH1 0x20 ADD SWAP2 DUP5 PUSH1 0x1 DUP4 MUL DUP5 ADD GT PUSH1 0x1 PUSH1 0x20 SHL DUP4 GT OR ISZERO PUSH2 0x34E JUMPI PUSH1 0x0 DUP1 REVERT JUMPDEST SWAP2 SWAP4 POP SWAP2 POP DUP1 CALLDATALOAD SWAP1 PUSH1 0x20 DUP2 ADD CALLDATALOAD SWAP1 PUSH1 0x40 DUP2 ADD CALLDATALOAD SWAP1 PUSH1 0x60 DUP2 ADD CALLDATALOAD SWAP1 PUSH1 0x80 ADD CALLDATALOAD PUSH2 0xD9F JUMP JUMPDEST PUSH2 0x149 PUSH1 0x4 DUP1 CALLDATASIZE SUB PUSH1 0x40 DUP2 LT ISZERO PUSH2 0x387 JUMPI PUSH1 0x0 DUP1 REVERT JUMPDEST POP PUSH1 0x1 PUSH1 0x1 PUSH1 0xA0 SHL SUB DUP2 CALLDATALOAD AND SWAP1 PUSH1 0x20 ADD CALLDATALOAD PUSH2 0xEB2 JUMP JUMPDEST PUSH2 0x149 PUSH1 0x4 DUP1 CALLDATASIZE SUB PUSH1 0xA0 DUP2 LT ISZERO PUSH2 0x3B3 JUMPI PUSH1 0x0 DUP1 REVERT JUMPDEST DUP2 ADD SWAP1 PUSH1 0x20 DUP2 ADD DUP2 CALLDATALOAD PUSH1 0x1 PUSH1 0x20 SHL DUP2 GT ISZERO PUSH2 0x3CD JUMPI PUSH1 0x0 DUP1 REVERT JUMPDEST DUP3 ADD DUP4 PUSH1 0x20 DUP3 ADD GT ISZERO PUSH2 0x3DF JUMPI PUSH1 0x0 DUP1 REVERT JUMPDEST DUP1 CALLDATALOAD SWAP1 PUSH1 0x20 ADD SWAP2 DUP5 PUSH1 0x20 DUP4 MUL DUP5 ADD GT PUSH1 0x1 PUSH1 0x20 SHL DUP4 GT OR ISZERO PUSH2 0x400 JUMPI PUSH1 0x0 DUP1 REVERT JUMPDEST SWAP2 SWAP4 SWAP1 SWAP3 SWAP1 SWAP2 PUSH1 0x20 DUP2 ADD SWAP1 CALLDATALOAD PUSH1 0x1 PUSH1 0x20 SHL DUP2 GT ISZERO PUSH2 0x41D JUMPI PUSH1 0x0 DUP1 REVERT JUMPDEST DUP3 ADD DUP4 PUSH1 0x20 DUP3 ADD GT ISZERO PUSH2 0x42F JUMPI PUSH1 0x0 DUP1 REVERT JUMPDEST DUP1 CALLDATALOAD SWAP1 PUSH1 0x20 ADD SWAP2 DUP5 PUSH1 0x20 DUP4 MUL DUP5 ADD GT PUSH1 0x1 PUSH1 0x20 SHL DUP4 GT OR ISZERO PUSH2 0x450 JUMPI PUSH1 0x0 DUP1 REVERT JUMPDEST SWAP2 SWAP4 SWAP1 SWAP3 SWAP1 SWAP2 PUSH1 0x20 DUP2 ADD SWAP1 CALLDATALOAD PUSH1 0x1 PUSH1 0x20 SHL DUP2 GT ISZERO PUSH2 0x46D JUMPI PUSH1 0x0 DUP1 REVERT JUMPDEST DUP3 ADD DUP4 PUSH1 0x20 DUP3 ADD GT ISZERO PUSH2 0x47F JUMPI PUSH1 0x0 DUP1 REVERT JUMPDEST DUP1 CALLDATALOAD SWAP1 PUSH1 0x20 ADD SWAP2 DUP5 PUSH1 0x20 DUP4 MUL DUP5 ADD GT PUSH1 0x1 PUSH1 0x20 SHL DUP4 GT OR ISZERO PUSH2 0x4A0 JUMPI PUSH1 0x0 DUP1 REVERT JUMPDEST SWAP2 SWAP4 SWAP1 SWAP3 SWAP1 SWAP2 PUSH1 0x20 DUP2 ADD SWAP1 CALLDATALOAD PUSH1 0x1 PUSH1 0x20 SHL DUP2 GT ISZERO PUSH2 0x4BD JUMPI PUSH1 0x0 DUP1 REVERT JUMPDEST DUP3 ADD DUP4 PUSH1 0x20 DUP3 ADD GT ISZERO PUSH2 0x4CF JUMPI PUSH1 0x0 DUP1 REVERT JUMPDEST DUP1 CALLDATALOAD SWAP1 PUSH1 0x20 ADD SWAP2 DUP5 PUSH1 0x20 DUP4 MUL DUP5 ADD GT PUSH1 0x1 PUSH1 0x20 SHL DUP4 GT OR ISZERO PUSH2 0x4F0 JUMPI PUSH1 0x0 DUP1 REVERT JUMPDEST SWAP2 SWAP4 POP SWAP2 POP CALLDATALOAD PUSH2 0xF54 JUMP JUMPDEST PUSH2 0x149 PUSH1 0x4 DUP1 CALLDATASIZE SUB PUSH1 0x40 DUP2 LT ISZERO PUSH2 0x511 JUMPI PUSH1 0x0 DUP1 REVERT JUMPDEST POP DUP1 CALLDATALOAD SWAP1 PUSH1 0x20 ADD CALLDATALOAD PUSH2 0x10B8 JUMP JUMPDEST PUSH2 0x149 PUSH1 0x4 DUP1 CALLDATASIZE SUB PUSH1 0x20 DUP2 LT ISZERO PUSH2 0x534 JUMPI PUSH1 0x0 DUP1 REVERT JUMPDEST DUP2 ADD SWAP1 PUSH1 0x20 DUP2 ADD DUP2 CALLDATALOAD PUSH1 0x1 PUSH1 0x20 SHL DUP2 GT ISZERO PUSH2 0x54E JUMPI PUSH1 0x0 DUP1 REVERT JUMPDEST DUP3 ADD DUP4 PUSH1 0x20 DUP3 ADD GT ISZERO PUSH2 0x560 JUMPI PUSH1 0x0 DUP1 REVERT JUMPDEST DUP1 CALLDATALOAD SWAP1 PUSH1 0x20 ADD SWAP2 DUP5 PUSH1 0x1 DUP4 MUL DUP5 ADD GT PUSH1 0x1 PUSH1 0x20 SHL DUP4 GT OR ISZERO PUSH2 0x581 JUMPI PUSH1 0x0 DUP1 REVERT JUMPDEST POP SWAP1 SWAP3 POP SWAP1 POP PUSH2 0x113F JUMP JUMPDEST PUSH2 0x149 PUSH1 0x4 DUP1 CALLDATASIZE SUB PUSH1 0x40 DUP2 LT ISZERO PUSH2 0x5A2 JUMPI PUSH1 0x0 DUP1 REVERT JUMPDEST POP PUSH1 0x1 PUSH1 0x1 PUSH1 0xA0 SHL SUB DUP2 CALLDATALOAD DUP2 AND SWAP2 PUSH1 0x20 ADD CALLDATALOAD AND PUSH2 0x11F0 JUMP JUMPDEST PUSH2 0x149 PUSH1 0x4 DUP1 CALLDATASIZE SUB PUSH1 0x20 DUP2 LT ISZERO PUSH2 0x5D0 JUMPI PUSH1 0x0 DUP1 REVERT JUMPDEST POP CALLDATALOAD PUSH1 0x1 PUSH1 0x1 PUSH1 0xA0 SHL SUB AND PUSH2 0x1293 JUMP JUMPDEST PUSH2 0x149 PUSH1 0x4 DUP1 CALLDATASIZE SUB PUSH1 0x20 DUP2 LT ISZERO PUSH2 0x5F6 JUMPI PUSH1 0x0 DUP1 REVERT JUMPDEST DUP2 ADD SWAP1 PUSH1 0x20 DUP2 ADD DUP2 CALLDATALOAD PUSH1 0x1 PUSH1 0x20 SHL DUP2 GT ISZERO PUSH2 0x610 JUMPI PUSH1 0x0 DUP1 REVERT JUMPDEST DUP3 ADD DUP4 PUSH1 0x20 DUP3 ADD GT ISZERO PUSH2 0x622 JUMPI PUSH1 0x0 DUP1 REVERT JUMPDEST DUP1 CALLDATALOAD SWAP1 PUSH1 0x20 ADD SWAP2 DUP5 PUSH1 0x20 DUP4 MUL DUP5 ADD GT PUSH1 0x1 PUSH1 0x20 SHL DUP4 GT OR ISZERO PUSH2 0x643 JUMPI PUSH1 0x0 DUP1 REVERT JUMPDEST POP SWAP1 SWAP3 POP SWAP1 POP PUSH2 0x1336 JUMP JUMPDEST PUSH2 0x149 PUSH1 0x4 DUP1 CALLDATASIZE SUB PUSH1 0x40 DUP2 LT ISZERO PUSH2 0x664 JUMPI PUSH1 0x0 DUP1 REVERT JUMPDEST POP PUSH1 0x1 PUSH1 0x1 PUSH1 0xA0 SHL SUB DUP2 CALLDATALOAD AND SWAP1 PUSH1 0x20 ADD CALLDATALOAD PUSH2 0x13F5 JUMP JUMPDEST PUSH2 0x149 PUSH1 0x4 DUP1 CALLDATASIZE SUB PUSH1 0x80 DUP2 LT ISZERO PUSH2 0x690 JUMPI PUSH1 0x0 DUP1 REVERT JUMPDEST DUP2 ADD SWAP1 PUSH1 0x20 DUP2 ADD DUP2 CALLDATALOAD PUSH1 0x1 PUSH1 0x20 SHL DUP2 GT ISZERO PUSH2 0x6AA JUMPI PUSH1 0x0 DUP1 REVERT JUMPDEST DUP3 ADD DUP4 PUSH1 0x20 DUP3 ADD GT ISZERO PUSH2 0x6BC JUMPI PUSH1 0x0 DUP1 REVERT JUMPDEST DUP1 CALLDATALOAD SWAP1 PUSH1 0x20 ADD SWAP2 DUP5 PUSH1 0x20 DUP4 MUL DUP5 ADD GT PUSH1 0x1 PUSH1 0x20 SHL DUP4 GT OR ISZERO PUSH2 0x6DD JUMPI PUSH1 0x0 DUP1 REVERT JUMPDEST SWAP2 SWAP4 SWAP1 SWAP3 SWAP1 SWAP2 PUSH1 0x20 DUP2 ADD SWAP1 CALLDATALOAD PUSH1 0x1 PUSH1 0x20 SHL DUP2 GT ISZERO PUSH2 0x6FA JUMPI PUSH1 0x0 DUP1 REVERT JUMPDEST DUP3 ADD DUP4 PUSH1 0x20 DUP3 ADD GT ISZERO PUSH2 0x70C JUMPI PUSH1 0x0 DUP1 REVERT JUMPDEST DUP1 CALLDATALOAD SWAP1 PUSH1 0x20 ADD SWAP2 DUP5 PUSH1 0x20 DUP4 MUL DUP5 ADD GT PUSH1 0x1 PUSH1 0x20 SHL DUP4 GT OR ISZERO PUSH2 0x72D JUMPI PUSH1 0x0 DUP1 REVERT JUMPDEST SWAP2 SWAP4 SWAP1 SWAP3 SWAP1 SWAP2 PUSH1 0x20 DUP2 ADD SWAP1 CALLDATALOAD PUSH1 0x1 PUSH1 0x20 SHL DUP2 GT ISZERO PUSH2 0x74A JUMPI PUSH1 0x0 DUP1 REVERT JUMPDEST DUP3 ADD DUP4 PUSH1 0x20 DUP3 ADD GT ISZERO PUSH2 0x75C JUMPI PUSH1 0x0 DUP1 REVERT JUMPDEST DUP1 CALLDATALOAD SWAP1 PUSH1 0x20 ADD SWAP2 DUP5 PUSH1 0x20 DUP4 MUL DUP5 ADD GT PUSH1 0x1 PUSH1 0x20 SHL DUP4 GT OR ISZERO PUSH2 0x77D JUMPI PUSH1 0x0 DUP1 REVERT JUMPDEST SWAP2 SWAP4 SWAP1 SWAP3 SWAP1 SWAP2 PUSH1 0x20 DUP2 ADD SWAP1 CALLDATALOAD PUSH1 0x1 PUSH1 0x20 SHL DUP2 GT ISZERO PUSH2 0x79A JUMPI PUSH1 0x0 DUP1 REVERT JUMPDEST DUP3 ADD DUP4 PUSH1 0x20 DUP3 ADD GT ISZERO PUSH2 0x7AC JUMPI PUSH1 0x0 DUP1 REVERT JUMPDEST DUP1 CALLDATALOAD SWAP1 PUSH1 0x20 ADD SWAP2 DUP5 PUSH1 0x20 DUP4 MUL DUP5 ADD GT PUSH1 0x1 PUSH1 0x20 SHL DUP4 GT OR ISZERO PUSH2 0x7CD JUMPI PUSH1 0x0 DUP1 REVERT JUMPDEST POP SWAP1 SWAP3 POP SWAP1 POP PUSH2 0x1497 JUMP JUMPDEST PUSH1 0x34 SLOAD PUSH1 0x1 PUSH1 0x1 PUSH1 0xA0 SHL SUB AND CALLER EQ PUSH2 0x825 JUMPI PUSH1 0x40 DUP1 MLOAD PUSH3 0x461BCD PUSH1 0xE5 SHL DUP2 MSTORE PUSH1 0x20 PUSH1 0x4 DUP3 ADD MSTORE PUSH1 0x19 PUSH1 0x24 DUP3 ADD MSTORE PUSH1 0x0 DUP1 MLOAD PUSH1 0x20 PUSH2 0x1628 DUP4 CODECOPY DUP2 MLOAD SWAP2 MSTORE PUSH1 0x44 DUP3 ADD MSTORE SWAP1 MLOAD SWAP1 DUP2 SWAP1 SUB PUSH1 0x64 ADD SWAP1 REVERT JUMPDEST PUSH1 0x35 SLOAD PUSH1 0x40 DUP1 MLOAD PUSH4 0x3B48595 PUSH1 0xE1 SHL DUP2 MSTORE PUSH1 0x1 PUSH1 0x1 PUSH1 0xA0 SHL SUB DUP6 DUP2 AND PUSH1 0x4 DUP4 ADD MSTORE DUP5 DUP2 AND PUSH1 0x24 DUP4 ADD MSTORE SWAP2 MLOAD SWAP2 SWAP1 SWAP3 AND SWAP2 PUSH4 0x7690B2A SWAP2 PUSH1 0x44 DUP1 DUP4 ADD SWAP3 PUSH1 0x0 SWAP3 SWAP2 SWAP1 DUP3 SWAP1 SUB ADD DUP2 DUP4 DUP8 DUP1 EXTCODESIZE ISZERO DUP1 ISZERO PUSH2 0x87B JUMPI PUSH1 0x0 DUP1 REVERT JUMPDEST POP GAS CALL ISZERO DUP1 ISZERO PUSH2 0x88F JUMPI RETURNDATASIZE PUSH1 0x0 DUP1 RETURNDATACOPY RETURNDATASIZE PUSH1 0x0 REVERT JUMPDEST POP POP POP POP POP POP JUMP JUMPDEST PUSH1 0x34 SLOAD PUSH1 0x1 PUSH1 0x1 PUSH1 0xA0 SHL SUB AND CALLER EQ PUSH2 0x8E4 JUMPI PUSH1 0x40 DUP1 MLOAD PUSH3 0x461BCD PUSH1 0xE5 SHL DUP2 MSTORE PUSH1 0x20 PUSH1 0x4 DUP3 ADD MSTORE PUSH1 0x19 PUSH1 0x24 DUP3 ADD MSTORE PUSH1 0x0 DUP1 MLOAD PUSH1 0x20 PUSH2 0x1628 DUP4 CODECOPY DUP2 MLOAD SWAP2 MSTORE PUSH1 0x44 DUP3 ADD MSTORE SWAP1 MLOAD SWAP1 DUP2 SWAP1 SUB PUSH1 0x64 ADD SWAP1 REVERT JUMPDEST PUSH1 0x40 DUP1 MLOAD DUP3 DUP2 MSTORE SWAP1 MLOAD PUSH32 0x151256D62457B809BBC891B1F81C6DD0B9987552C70CE915B519750CD434DD1 SWAP2 DUP2 SWAP1 SUB PUSH1 0x20 ADD SWAP1 LOG1 POP JUMP JUMPDEST CALLER ISZERO PUSH2 0x95C JUMPI PUSH1 0x40 DUP1 MLOAD PUSH3 0x461BCD PUSH1 0xE5 SHL DUP2 MSTORE PUSH1 0x20 PUSH1 0x4 DUP3 ADD MSTORE PUSH1 0xC PUSH1 0x24 DUP3 ADD MSTORE PUSH12 0x6E6F742063616C6C61626C65 PUSH1 0xA0 SHL PUSH1 0x44 DUP3 ADD MSTORE SWAP1 MLOAD SWAP1 DUP2 SWAP1 SUB PUSH1 0x64 ADD SWAP1 REVERT JUMPDEST PUSH1 0x34 SLOAD PUSH1 0x40 DUP1 MLOAD PUSH4 0x63D8A35 PUSH1 0xE2 SHL DUP2 MSTORE PUSH1 0x1 PUSH1 0x1 PUSH1 0xA0 SHL SUB DUP13 DUP2 AND PUSH1 0x4 DUP4 ADD MSTORE PUSH1 0x24 DUP3 ADD DUP13 SWAP1 MSTORE PUSH1 0x44 DUP3 ADD DUP12 SWAP1 MSTORE PUSH1 0x64 DUP3 ADD DUP11 SWAP1 MSTORE PUSH1 0x84 DUP3 ADD DUP10 SWAP1 MSTORE PUSH1 0xA4 DUP3 ADD DUP9 SWAP1 MSTORE PUSH1 0xC4 DUP3 ADD DUP8 SWAP1 MSTORE PUSH1 0xE4 DUP3 ADD DUP7 SWAP1 MSTORE PUSH2 0x104 DUP3 ADD DUP6 SWAP1 MSTORE SWAP2 MLOAD SWAP2 SWAP1 SWAP3 AND SWAP2 PUSH4 0x18F628D4 SWAP2 PUSH2 0x124 DUP1 DUP4 ADD SWAP3 PUSH1 0x0 SWAP3 SWAP2 SWAP1 DUP3 SWAP1 SUB ADD DUP2 DUP4 DUP8 DUP1 EXTCODESIZE ISZERO DUP1 ISZERO PUSH2 0x9E4 JUMPI PUSH1 0x0 DUP1 REVERT JUMPDEST POP GAS CALL ISZERO DUP1 ISZERO PUSH2 0x9F8 JUMPI RETURNDATASIZE PUSH1 0x0 DUP1 RETURNDATACOPY RETURNDATASIZE PUSH1 0x0 REVERT JUMPDEST POP POP POP POP POP POP POP POP POP POP POP POP POP JUMP JUMPDEST CALLER ISZERO PUSH2 0xA49 JUMPI PUSH1 0x40 DUP1 MLOAD PUSH3 0x461BCD PUSH1 0xE5 SHL DUP2 MSTORE PUSH1 0x20 PUSH1 0x4 DUP3 ADD MSTORE PUSH1 0xC PUSH1 0x24 DUP3 ADD MSTORE PUSH12 0x6E6F742063616C6C61626C65 PUSH1 0xA0 SHL PUSH1 0x44 DUP3 ADD MSTORE SWAP1 MLOAD SWAP1 DUP2 SWAP1 SUB PUSH1 0x64 ADD SWAP1 REVERT JUMPDEST PUSH1 0x34 SLOAD PUSH1 0x40 DUP1 MLOAD PUSH4 0x1E702F83 PUSH1 0xE0 SHL DUP2 MSTORE PUSH1 0x4 DUP2 ADD DUP6 SWAP1 MSTORE PUSH1 0x24 DUP2 ADD DUP5 SWAP1 MSTORE SWAP1 MLOAD PUSH1 0x1 PUSH1 0x1 PUSH1 0xA0 SHL SUB SWAP1 SWAP3 AND SWAP2 PUSH4 0x1E702F83 SWAP2 PUSH1 0x44 DUP1 DUP3 ADD SWAP3 PUSH1 0x0 SWAP3 SWAP1 SWAP2 SWAP1 DUP3 SWAP1 SUB ADD DUP2 DUP4 DUP8 DUP1 EXTCODESIZE ISZERO DUP1 ISZERO PUSH2 0x87B JUMPI PUSH1 0x0 DUP1 REVERT JUMPDEST PUSH1 0x34 SLOAD PUSH1 0x1 PUSH1 0x1 PUSH1 0xA0 SHL SUB AND CALLER EQ PUSH2 0xAEA JUMPI PUSH1 0x40 DUP1 MLOAD PUSH3 0x461BCD PUSH1 0xE5 SHL DUP2 MSTORE PUSH1 0x20 PUSH1 0x4 DUP3 ADD MSTORE PUSH1 0x19 PUSH1 0x24 DUP3 ADD MSTORE PUSH1 0x0 DUP1 MLOAD PUSH1 0x20 PUSH2 0x1628 DUP4 CODECOPY DUP2 MLOAD SWAP2 MSTORE PUSH1 0x44 DUP3 ADD MSTORE SWAP1 MLOAD SWAP1 DUP2 SWAP1 SUB PUSH1 0x64 ADD SWAP1 REVERT JUMPDEST DUP3 PUSH32 0xF0EF1AB97439DEF0A9D2C6D9DC166207F1B13B99E62B442B2993D6153C63A6E DUP4 DUP4 PUSH1 0x40 MLOAD DUP1 DUP1 PUSH1 0x20 ADD DUP3 DUP2 SUB DUP3 MSTORE DUP5 DUP5 DUP3 DUP2 DUP2 MSTORE PUSH1 0x20 ADD SWAP3 POP DUP1 DUP3 DUP5 CALLDATACOPY PUSH1 0x0 DUP4 DUP3 ADD MSTORE PUSH1 0x40 MLOAD PUSH1 0x1F SWAP1 SWAP2 ADD PUSH1 0x1F NOT AND SWAP1 SWAP3 ADD DUP3 SWAP1 SUB SWAP6 POP SWAP1 SWAP4 POP POP POP POP LOG2 POP POP POP JUMP JUMPDEST PUSH1 0x34 SLOAD PUSH1 0x1 PUSH1 0x1 PUSH1 0xA0 SHL SUB AND CALLER EQ PUSH2 0xB9D JUMPI PUSH1 0x40 DUP1 MLOAD PUSH3 0x461BCD PUSH1 0xE5 SHL DUP2 MSTORE PUSH1 0x20 PUSH1 0x4 DUP3 ADD MSTORE PUSH1 0x19 PUSH1 0x24 DUP3 ADD MSTORE PUSH1 0x0 DUP1 MLOAD PUSH1 0x20 PUSH2 0x1628 DUP4 CODECOPY DUP2 MLOAD SWAP2 MSTORE PUSH1 0x44 DUP3 ADD MSTORE SWAP1 MLOAD SWAP1 DUP2 SWAP1 SUB PUSH1 0x64 ADD SWAP1 REVERT JUMPDEST PUSH1 0x40 DUP1 MLOAD DUP3 DUP2 MSTORE SWAP1 MLOAD PUSH32 0x2CCDFD47CF0C1F1069D949F1789BB79B2F12821F021634FC835AF1DE66EA2FEB SWAP2 DUP2 SWAP1 SUB PUSH1 0x20 ADD SWAP1 LOG1 POP JUMP JUMPDEST PUSH1 0x34 SLOAD PUSH1 0x1 PUSH1 0x1 PUSH1 0xA0 SHL SUB AND CALLER EQ PUSH2 0xC20 JUMPI PUSH1 0x40 DUP1 MLOAD PUSH3 0x461BCD PUSH1 0xE5 SHL DUP2 MSTORE PUSH1 0x20 PUSH1 0x4 DUP3 ADD MSTORE PUSH1 0x19 PUSH1 0x24 DUP3 ADD MSTORE PUSH1 0x0 DUP1 MLOAD PUSH1 0x20 PUSH2 0x1628 DUP4 CODECOPY DUP2 MLOAD SWAP2 MSTORE PUSH1 0x44 DUP3 ADD MSTORE SWAP1 MLOAD SWAP1 DUP2 SWAP1 SUB PUSH1 0x64 ADD SWAP1 REVERT JUMPDEST PUSH1 0x35 SLOAD PUSH1 0x40 DUP1 MLOAD PUSH4 0x39E503AB PUSH1 0xE0 SHL DUP2 MSTORE PUSH1 0x1 PUSH1 0x1 PUSH1 0xA0 SHL SUB DUP7 DUP2 AND PUSH1 0x4 DUP4 ADD MSTORE PUSH1 0x24 DUP3 ADD DUP7 SWAP1 MSTORE PUSH1 0x44 DUP3 ADD DUP6 SWAP1 MSTORE SWAP2 MLOAD SWAP2 SWAP1 SWAP3 AND SWAP2 PUSH4 0x39E503AB SWAP2 PUSH1 0x64 DUP1 DUP4 ADD SWAP3 PUSH1 0x0 SWAP3 SWAP2 SWAP1 DUP3 SWAP1 SUB ADD DUP2 DUP4 DUP8 DUP1 EXTCODESIZE ISZERO DUP1 ISZERO PUSH2 0xC7C JUMPI PUSH1 0x0 DUP1 REVERT JUMPDEST POP GAS CALL ISZERO DUP1 ISZERO PUSH2 0xC90 JUMPI RETURNDATASIZE PUSH1 0x0 DUP1 RETURNDATACOPY RETURNDATASIZE PUSH1 0x0 REVERT JUMPDEST POP POP POP POP POP POP POP JUMP JUMPDEST PUSH1 0x0 SLOAD PUSH2 0x100 SWAP1 DIV PUSH1 0xFF AND DUP1 PUSH2 0xCB2 JUMPI POP PUSH2 0xCB2 PUSH2 0x1621 JUMP JUMPDEST DUP1 PUSH2 0xCC0 JUMPI POP PUSH1 0x0 SLOAD PUSH1 0xFF AND ISZERO JUMPDEST PUSH2 0xCFB JUMPI PUSH1 0x40 MLOAD PUSH3 0x461BCD PUSH1 0xE5 SHL DUP2 MSTORE PUSH1 0x4 ADD DUP1 DUP1 PUSH1 0x20 ADD DUP3 DUP2 SUB DUP3 MSTORE PUSH1 0x2E DUP2 MSTORE PUSH1 0x20 ADD DUP1 PUSH2 0x1648 PUSH1 0x2E SWAP2 CODECOPY PUSH1 0x40 ADD SWAP2 POP POP PUSH1 0x40 MLOAD DUP1 SWAP2 SUB SWAP1 REVERT JUMPDEST PUSH1 0x0 SLOAD PUSH2 0x100 SWAP1 DIV PUSH1 0xFF AND ISZERO DUP1 ISZERO PUSH2 0xD26 JUMPI PUSH1 0x0 DUP1 SLOAD PUSH1 0xFF NOT PUSH2 0xFF00 NOT SWAP1 SWAP2 AND PUSH2 0x100 OR AND PUSH1 0x1 OR SWAP1 SSTORE JUMPDEST PUSH1 0x34 DUP1 SLOAD PUSH1 0x1 PUSH1 0x1 PUSH1 0xA0 SHL SUB NOT AND PUSH1 0x1 PUSH1 0x1 PUSH1 0xA0 SHL SUB DUP6 AND SWAP1 DUP2 OR SWAP1 SWAP2 SSTORE PUSH1 0x40 MLOAD PUSH32 0x64EE8F7BFC37FC205D7194EE3D64947AB7B57E663CD0D1ABD3EF245035830693 SWAP1 PUSH1 0x0 SWAP1 LOG2 PUSH1 0x35 DUP1 SLOAD PUSH1 0x1 PUSH1 0x1 PUSH1 0xA0 SHL SUB NOT AND PUSH1 0x1 PUSH1 0x1 PUSH1 0xA0 SHL SUB DUP5 AND OR SWAP1 SSTORE DUP1 ISZERO PUSH2 0xD9A JUMPI PUSH1 0x0 DUP1 SLOAD PUSH2 0xFF00 NOT AND SWAP1 SSTORE JUMPDEST POP POP POP JUMP JUMPDEST CALLER ISZERO PUSH2 0xDE1 JUMPI PUSH1 0x40 DUP1 MLOAD PUSH3 0x461BCD PUSH1 0xE5 SHL DUP2 MSTORE PUSH1 0x20 PUSH1 0x4 DUP3 ADD MSTORE PUSH1 0xC PUSH1 0x24 DUP3 ADD MSTORE PUSH12 0x6E6F742063616C6C61626C65 PUSH1 0xA0 SHL PUSH1 0x44 DUP3 ADD MSTORE SWAP1 MLOAD SWAP1 DUP2 SWAP1 SUB PUSH1 0x64 ADD SWAP1 REVERT JUMPDEST PUSH1 0x34 PUSH1 0x0 SWAP1 SLOAD SWAP1 PUSH2 0x100 EXP SWAP1 DIV PUSH1 0x1 PUSH1 0x1 PUSH1 0xA0 SHL SUB AND PUSH1 0x1 PUSH1 0x1 PUSH1 0xA0 SHL SUB AND PUSH4 0x4FEB92F3 DUP11 DUP11 DUP11 DUP11 DUP11 DUP11 DUP11 DUP11 DUP11 PUSH1 0x40 MLOAD DUP11 PUSH4 0xFFFFFFFF AND PUSH1 0xE0 SHL DUP2 MSTORE PUSH1 0x4 ADD DUP1 DUP11 PUSH1 0x1 PUSH1 0x1 PUSH1 0xA0 SHL SUB AND PUSH1 0x1 PUSH1 0x1 PUSH1 0xA0 SHL SUB AND DUP2 MSTORE PUSH1 0x20 ADD DUP10 DUP2 MSTORE PUSH1 0x20 ADD DUP1 PUSH1 0x20 ADD DUP8 DUP2 MSTORE PUSH1 0x20 ADD DUP7 DUP2 MSTORE PUSH1 0x20 ADD DUP6 DUP2 MSTORE PUSH1 0x20 ADD DUP5 DUP2 MSTORE PUSH1 0x20 ADD DUP4 DUP2 MSTORE PUSH1 0x20 ADD DUP3 DUP2 SUB DUP3 MSTORE DUP10 DUP10 DUP3 DUP2 DUP2 MSTORE PUSH1 0x20 ADD SWAP3 POP DUP1 DUP3 DUP5 CALLDATACOPY PUSH1 0x0 DUP2 DUP5 ADD MSTORE PUSH1 0x1F NOT PUSH1 0x1F DUP3 ADD AND SWAP1 POP DUP1 DUP4 ADD SWAP3 POP POP POP SWAP11 POP POP POP POP POP POP POP POP POP POP POP PUSH1 0x0 PUSH1 0x40 MLOAD DUP1 DUP4 SUB DUP2 PUSH1 0x0 DUP8 DUP1 EXTCODESIZE ISZERO DUP1 ISZERO PUSH2 0x9E4 JUMPI PUSH1 0x0 DUP1 REVERT JUMPDEST PUSH1 0x34 SLOAD PUSH1 0x1 PUSH1 0x1 PUSH1 0xA0 SHL SUB AND CALLER EQ PUSH2 0xEFF JUMPI PUSH1 0x40 DUP1 MLOAD PUSH3 0x461BCD PUSH1 0xE5 SHL DUP2 MSTORE PUSH1 0x20 PUSH1 0x4 DUP3 ADD MSTORE PUSH1 0x19 PUSH1 0x24 DUP3 ADD MSTORE PUSH1 0x0 DUP1 MLOAD PUSH1 0x20 PUSH2 0x1628 DUP4 CODECOPY DUP2 MLOAD SWAP2 MSTORE PUSH1 0x44 DUP3 ADD MSTORE SWAP1 MLOAD SWAP1 DUP2 SWAP1 SUB PUSH1 0x64 ADD SWAP1 REVERT JUMPDEST PUSH1 0x35 SLOAD PUSH1 0x40 DUP1 MLOAD PUSH4 0xF37D5A7 PUSH1 0xE3 SHL DUP2 MSTORE PUSH1 0x1 PUSH1 0x1 PUSH1 0xA0 SHL SUB DUP6 DUP2 AND PUSH1 0x4 DUP4 ADD MSTORE PUSH1 0x24 DUP3 ADD DUP6 SWAP1 MSTORE SWAP2 MLOAD SWAP2 SWAP1 SWAP3 AND SWAP2 PUSH4 0x79BEAD38 SWAP2 PUSH1 0x44 DUP1 DUP4 ADD SWAP3 PUSH1 0x0 SWAP3 SWAP2 SWAP1 DUP3 SWAP1 SUB ADD DUP2 DUP4 DUP8 DUP1 EXTCODESIZE ISZERO DUP1 ISZERO PUSH2 0x87B JUMPI PUSH1 0x0 DUP1 REVERT JUMPDEST CALLER ISZERO PUSH2 0xF96 JUMPI PUSH1 0x40 DUP1 MLOAD PUSH3 0x461BCD PUSH1 0xE5 SHL DUP2 MSTORE PUSH1 0x20 PUSH1 0x4 DUP3 ADD MSTORE PUSH1 0xC PUSH1 0x24 DUP3 ADD MSTORE PUSH12 0x6E6F742063616C6C61626C65 PUSH1 0xA0 SHL PUSH1 0x44 DUP3 ADD MSTORE SWAP1 MLOAD SWAP1 DUP2 SWAP1 SUB PUSH1 0x64 ADD SWAP1 REVERT JUMPDEST PUSH1 0x34 PUSH1 0x0 SWAP1 SLOAD SWAP1 PUSH2 0x100 EXP SWAP1 DIV PUSH1 0x1 PUSH1 0x1 PUSH1 0xA0 SHL SUB AND PUSH1 0x1 PUSH1 0x1 PUSH1 0xA0 SHL SUB AND PUSH4 0x592FE0C0 DUP11 DUP11 DUP11 DUP11 DUP11 DUP11 DUP11 DUP11 DUP11 PUSH1 0x40 MLOAD DUP11 PUSH4 0xFFFFFFFF AND PUSH1 0xE0 SHL DUP2 MSTORE PUSH1 0x4 ADD DUP1 DUP1 PUSH1 0x20 ADD DUP1 PUSH1 0x20 ADD DUP1 PUSH1 0x20 ADD DUP1 PUSH1 0x20 ADD DUP7 DUP2 MSTORE PUSH1 0x20 ADD DUP6 DUP2 SUB DUP6 MSTORE DUP15 DUP15 DUP3 DUP2 DUP2 MSTORE PUSH1 0x20 ADD SWAP3 POP PUSH1 0x20 MUL DUP1 DUP3 DUP5 CALLDATACOPY PUSH1 0x0 DUP4 DUP3 ADD MSTORE PUSH1 0x1F ADD PUSH1 0x1F NOT AND SWAP1 SWAP2 ADD DUP7 DUP2 SUB DUP6 MSTORE DUP13 DUP2 MSTORE PUSH1 0x20 SWAP1 DUP2 ADD SWAP2 POP DUP14 SWAP1 DUP14 MUL DUP1 DUP3 DUP5 CALLDATACOPY PUSH1 0x0 DUP4 DUP3 ADD MSTORE PUSH1 0x1F ADD PUSH1 0x1F NOT AND SWAP1 SWAP2 ADD DUP7 DUP2 SUB DUP5 MSTORE DUP11 DUP2 MSTORE PUSH1 0x20 SWAP1 DUP2 ADD SWAP2 POP DUP12 SWAP1 DUP12 MUL DUP1 DUP3 DUP5 CALLDATACOPY PUSH1 0x0 DUP4 DUP3 ADD MSTORE PUSH1 0x1F ADD PUSH1 0x1F NOT AND SWAP1 SWAP2 ADD DUP7 DUP2 SUB DUP4 MSTORE DUP9 DUP2 MSTORE PUSH1 0x20 SWAP1 DUP2 ADD SWAP2 POP DUP10 SWAP1 DUP10 MUL DUP1 DUP3 DUP5 CALLDATACOPY PUSH1 0x0 DUP2 DUP5 ADD MSTORE PUSH1 0x1F NOT PUSH1 0x1F DUP3 ADD AND SWAP1 POP DUP1 DUP4 ADD SWAP3 POP POP POP SWAP14 POP POP POP POP POP POP POP POP POP POP POP POP POP POP PUSH1 0x0 PUSH1 0x40 MLOAD DUP1 DUP4 SUB DUP2 PUSH1 0x0 DUP8 DUP1 EXTCODESIZE ISZERO DUP1 ISZERO PUSH2 0x9E4 JUMPI PUSH1 0x0 DUP1 REVERT JUMPDEST PUSH1 0x34 SLOAD PUSH1 0x1 PUSH1 0x1 PUSH1 0xA0 SHL SUB AND CALLER EQ PUSH2 0x1105 JUMPI PUSH1 0x40 DUP1 MLOAD PUSH3 0x461BCD PUSH1 0xE5 SHL DUP2 MSTORE PUSH1 0x20 PUSH1 0x4 DUP3 ADD MSTORE PUSH1 0x19 PUSH1 0x24 DUP3 ADD MSTORE PUSH1 0x0 DUP1 MLOAD PUSH1 0x20 PUSH2 0x1628 DUP4 CODECOPY DUP2 MLOAD SWAP2 MSTORE PUSH1 0x44 DUP3 ADD MSTORE SWAP1 MLOAD SWAP1 DUP2 SWAP1 SUB PUSH1 0x64 ADD SWAP1 REVERT JUMPDEST PUSH1 0x40 DUP1 MLOAD DUP3 DUP2 MSTORE SWAP1 MLOAD DUP4 SWAP2 PUSH32 0xB975807576E3B1461BE7DE07EBF7D20E4790ED802D7A0C4FDD0A1A13DF72A935 SWAP2 SWAP1 DUP2 SWAP1 SUB PUSH1 0x20 ADD SWAP1 LOG2 POP POP JUMP JUMPDEST PUSH1 0x34 SLOAD PUSH1 0x1 PUSH1 0x1 PUSH1 0xA0 SHL SUB AND CALLER EQ PUSH2 0x118C JUMPI PUSH1 0x40 DUP1 MLOAD PUSH3 0x461BCD PUSH1 0xE5 SHL DUP2 MSTORE PUSH1 0x20 PUSH1 0x4 DUP3 ADD MSTORE PUSH1 0x19 PUSH1 0x24 DUP3 ADD MSTORE PUSH1 0x0 DUP1 MLOAD PUSH1 0x20 PUSH2 0x1628 DUP4 CODECOPY DUP2 MLOAD SWAP2 MSTORE PUSH1 0x44 DUP3 ADD MSTORE SWAP1 MLOAD SWAP1 DUP2 SWAP1 SUB PUSH1 0x64 ADD SWAP1 REVERT JUMPDEST PUSH32 0x47D10EED096A44E3D0ABC586C7E3A5D6CB5358CC90E7D437CD0627F7E765FB99 DUP3 DUP3 PUSH1 0x40 MLOAD DUP1 DUP1 PUSH1 0x20 ADD DUP3 DUP2 SUB DUP3 MSTORE DUP5 DUP5 DUP3 DUP2 DUP2 MSTORE PUSH1 0x20 ADD SWAP3 POP DUP1 DUP3 DUP5 CALLDATACOPY PUSH1 0x0 DUP4 DUP3 ADD MSTORE PUSH1 0x40 MLOAD PUSH1 0x1F SWAP1 SWAP2 ADD PUSH1 0x1F NOT AND SWAP1 SWAP3 ADD DUP3 SWAP1 SUB SWAP6 POP SWAP1 SWAP4 POP POP POP POP LOG1 POP POP JUMP JUMPDEST PUSH1 0x34 SLOAD PUSH1 0x1 PUSH1 0x1 PUSH1 0xA0 SHL SUB AND CALLER EQ PUSH2 0x123D JUMPI PUSH1 0x40 DUP1 MLOAD PUSH3 0x461BCD PUSH1 0xE5 SHL DUP2 MSTORE PUSH1 0x20 PUSH1 0x4 DUP3 ADD MSTORE PUSH1 0x19 PUSH1 0x24 DUP3 ADD MSTORE PUSH1 0x0 DUP1 MLOAD PUSH1 0x20 PUSH2 0x1628 DUP4 CODECOPY DUP2 MLOAD SWAP2 MSTORE PUSH1 0x44 DUP3 ADD MSTORE SWAP1 MLOAD SWAP1 DUP2 SWAP1 SUB PUSH1 0x64 ADD SWAP1 REVERT JUMPDEST PUSH1 0x35 SLOAD PUSH1 0x40 DUP1 MLOAD PUSH4 0xD6A0C7AF PUSH1 0xE0 SHL DUP2 MSTORE PUSH1 0x1 PUSH1 0x1 PUSH1 0xA0 SHL SUB DUP6 DUP2 AND PUSH1 0x4 DUP4 ADD MSTORE DUP5 DUP2 AND PUSH1 0x24 DUP4 ADD MSTORE SWAP2 MLOAD SWAP2 SWAP1 SWAP3 AND SWAP2 PUSH4 0xD6A0C7AF SWAP2 PUSH1 0x44 DUP1 DUP4 ADD SWAP3 PUSH1 0x0 SWAP3 SWAP2 SWAP1 DUP3 SWAP1 SUB ADD DUP2 DUP4 DUP8 DUP1 EXTCODESIZE ISZERO DUP1 ISZERO PUSH2 0x87B JUMPI PUSH1 0x0 DUP1 REVERT JUMPDEST PUSH1 0x34 SLOAD PUSH1 0x1 PUSH1 0x1 PUSH1 0xA0 SHL SUB AND CALLER EQ PUSH2 0x12E0 JUMPI PUSH1 0x40 DUP1 MLOAD PUSH3 0x461BCD PUSH1 0xE5 SHL DUP2 MSTORE PUSH1 0x20 PUSH1 0x4 DUP3 ADD MSTORE PUSH1 0x19 PUSH1 0x24 DUP3 ADD MSTORE PUSH1 0x0 DUP1 MLOAD PUSH1 0x20 PUSH2 0x1628 DUP4 CODECOPY DUP2 MLOAD SWAP2 MSTORE PUSH1 0x44 DUP3 ADD MSTORE SWAP1 MLOAD SWAP1 DUP2 SWAP1 SUB PUSH1 0x64 ADD SWAP1 REVERT JUMPDEST PUSH1 0x40 MLOAD PUSH1 0x1 PUSH1 0x1 PUSH1 0xA0 SHL SUB DUP3 AND SWAP1 PUSH32 0x64EE8F7BFC37FC205D7194EE3D64947AB7B57E663CD0D1ABD3EF245035830693 SWAP1 PUSH1 0x0 SWAP1 LOG2 PUSH1 0x34 DUP1 SLOAD PUSH1 0x1 PUSH1 0x1 PUSH1 0xA0 SHL SUB NOT AND PUSH1 0x1 PUSH1 0x1 PUSH1 0xA0 SHL SUB SWAP3 SWAP1 SWAP3 AND SWAP2 SWAP1 SWAP2 OR SWAP1 SSTORE JUMP JUMPDEST CALLER ISZERO PUSH2 0x1378 JUMPI PUSH1 0x40 DUP1 MLOAD PUSH3 0x461BCD PUSH1 0xE5 SHL DUP2 MSTORE PUSH1 0x20 PUSH1 0x4 DUP3 ADD MSTORE PUSH1 0xC PUSH1 0x24 DUP3 ADD MSTORE PUSH12 0x6E6F742063616C6C61626C65 PUSH1 0xA0 SHL PUSH1 0x44 DUP3 ADD MSTORE SWAP1 MLOAD SWAP1 DUP2 SWAP1 SUB PUSH1 0x64 ADD SWAP1 REVERT JUMPDEST PUSH1 0x34 SLOAD PUSH1 0x40 MLOAD PUSH4 0x7046BF33 PUSH1 0xE1 SHL DUP2 MSTORE PUSH1 0x20 PUSH1 0x4 DUP3 ADD DUP2 DUP2 MSTORE PUSH1 0x24 DUP4 ADD DUP6 SWAP1 MSTORE PUSH1 0x1 PUSH1 0x1 PUSH1 0xA0 SHL SUB SWAP1 SWAP4 AND SWAP3 PUSH4 0xE08D7E66 SWAP3 DUP7 SWAP3 DUP7 SWAP3 SWAP2 DUP3 SWAP2 PUSH1 0x44 SWAP1 SWAP2 ADD SWAP1 DUP6 SWAP1 DUP6 MUL DUP1 DUP3 DUP5 CALLDATACOPY PUSH1 0x0 DUP2 DUP5 ADD MSTORE PUSH1 0x1F NOT PUSH1 0x1F DUP3 ADD AND SWAP1 POP DUP1 DUP4 ADD SWAP3 POP POP POP SWAP4 POP POP POP POP PUSH1 0x0 PUSH1 0x40 MLOAD DUP1 DUP4 SUB DUP2 PUSH1 0x0 DUP8 DUP1 EXTCODESIZE ISZERO DUP1 ISZERO PUSH2 0x87B JUMPI PUSH1 0x0 DUP1 REVERT JUMPDEST PUSH1 0x34 SLOAD PUSH1 0x1 PUSH1 0x1 PUSH1 0xA0 SHL SUB AND CALLER EQ PUSH2 0x1442 JUMPI PUSH1 0x40 DUP1 MLOAD PUSH3 0x461BCD PUSH1 0xE5 SHL DUP2 MSTORE PUSH1 0x20 PUSH1 0x4 DUP3 ADD MSTORE PUSH1 0x19 PUSH1 0x24 DUP3 ADD MSTORE PUSH1 0x0 DUP1 MLOAD PUSH1 0x20 PUSH2 0x1628 DUP4 CODECOPY DUP2 MLOAD SWAP2 MSTORE PUSH1 0x44 DUP3 ADD MSTORE SWAP1 MLOAD SWAP1 DUP2 SWAP1 SUB PUSH1 0x64 ADD SWAP1 REVERT JUMPDEST PUSH1 0x35 SLOAD PUSH1 0x40 DUP1 MLOAD PUSH4 0x38C110EF PUSH1 0xE2 SHL DUP2 MSTORE PUSH1 0x1 PUSH1 0x1 PUSH1 0xA0 SHL SUB DUP6 DUP2 AND PUSH1 0x4 DUP4 ADD MSTORE PUSH1 0x24 DUP3 ADD DUP6 SWAP1 MSTORE SWAP2 MLOAD SWAP2 SWAP1 SWAP3 AND SWAP2 PUSH4 0xE30443BC SWAP2 PUSH1 0x44 DUP1 DUP4 ADD SWAP3 PUSH1 0x0 SWAP3 SWAP2 SWAP1 DUP3 SWAP1 SUB ADD DUP2 DUP4 DUP8 DUP1 EXTCODESIZE ISZERO DUP1 ISZERO PUSH2 0x87B JUMPI PUSH1 0x0 DUP1 REVERT JUMPDEST CALLER ISZERO PUSH2 0x14D9 JUMPI PUSH1 0x40 DUP1 MLOAD PUSH3 0x461BCD PUSH1 0xE5 SHL DUP2 MSTORE PUSH1 0x20 PUSH1 0x4 DUP3 ADD MSTORE PUSH1 0xC PUSH1 0x24 DUP3 ADD MSTORE PUSH12 0x6E6F742063616C6C61626C65 PUSH1 0xA0 SHL PUSH1 0x44 DUP3 ADD MSTORE SWAP1 MLOAD SWAP1 DUP2 SWAP1 SUB PUSH1 0x64 ADD SWAP1 REVERT JUMPDEST PUSH1 0x34 PUSH1 0x0 SWAP1 SLOAD SWAP1 PUSH2 0x100 EXP SWAP1 DIV PUSH1 0x1 PUSH1 0x1 PUSH1 0xA0 SHL SUB AND PUSH1 0x1 PUSH1 0x1 PUSH1 0xA0 SHL SUB AND PUSH4 0x592FE0C0 DUP10 DUP10 DUP10 DUP10 DUP10 DUP10 DUP10 DUP10 PUSH4 0x322ADC3A PUSH1 0x40 MLOAD DUP11 PUSH4 0xFFFFFFFF AND PUSH1 0xE0 SHL DUP2 MSTORE PUSH1 0x4 ADD DUP1 DUP1 PUSH1 0x20 ADD DUP1 PUSH1 0x20 ADD DUP1 PUSH1 0x20 ADD DUP1 PUSH1 0x20 ADD DUP7 DUP2 MSTORE PUSH1 0x20 ADD DUP6 DUP2 SUB DUP6 MSTORE DUP15 DUP15 DUP3 DUP2 DUP2 MSTORE PUSH1 0x20 ADD SWAP3 POP PUSH1 0x20 MUL DUP1 DUP3 DUP5 CALLDATACOPY PUSH1 0x0 DUP4 DUP3 ADD MSTORE PUSH1 0x1F ADD PUSH1 0x1F NOT AND SWAP1 SWAP2 ADD DUP7 DUP2 SUB DUP6 MSTORE DUP13 DUP2 MSTORE PUSH1 0x20 SWAP1 DUP2 ADD SWAP2 POP DUP14 SWAP1 DUP14 MUL DUP1 DUP3 DUP5 CALLDATACOPY PUSH1 0x0 DUP4 DUP3 ADD MSTORE PUSH1 0x1F ADD PUSH1 0x1F NOT AND SWAP1 SWAP2 ADD DUP7 DUP2 SUB DUP5 MSTORE DUP11 DUP2 MSTORE PUSH1 0x20 SWAP1 DUP2 ADD SWAP2 POP DUP12 SWAP1 DUP12 MUL DUP1 DUP3 DUP5 CALLDATACOPY PUSH1 0x0 DUP4 DUP3 ADD MSTORE PUSH1 0x1F ADD PUSH1 0x1F NOT AND SWAP1 SWAP2 ADD DUP7 DUP2 SUB DUP4 MSTORE DUP9 DUP2 MSTORE PUSH1 0x20 SWAP1 DUP2 ADD SWAP2 POP DUP10 SWAP1 DUP10 MUL DUP1 DUP3 DUP5 CALLDATACOPY PUSH1 0x0 DUP2 DUP5 ADD MSTORE PUSH1 0x1F NOT PUSH1 0x1F DUP3 ADD AND SWAP1 POP DUP1 DUP4 ADD SWAP3 POP POP POP SWAP14 POP POP POP POP POP POP POP POP POP POP POP POP POP POP PUSH1 0x0 PUSH1 0x40 MLOAD DUP1 DUP4 SUB DUP2 PUSH1 0x0 DUP8 DUP1 EXTCODESIZE ISZERO DUP1 ISZERO PUSH2 0x15FF JUMPI PUSH1 0x0 DUP1 REVERT JUMPDEST POP GAS CALL ISZERO DUP1 ISZERO PUSH2 0x1613 JUMPI RETURNDATASIZE PUSH1 0x0 DUP1 RETURNDATACOPY RETURNDATASIZE PUSH1 0x0 REVERT JUMPDEST POP POP POP POP POP POP POP POP POP POP POP POP JUMP JUMPDEST ADDRESS EXTCODESIZE ISZERO SWAP1 JUMP INVALID PUSH4 0x616C6C65 PUSH19 0x206973206E6F7420746865206261636B656E64 STOP STOP STOP STOP STOP STOP STOP NUMBER PUSH16 0x6E747261637420696E7374616E636520 PUSH9 0x617320616C72656164 PUSH26 0x206265656E20696E697469616C697A6564A265627A7A72315820 PUSH7 0x1BB667283E109D 0xEE GAS 0x4D 0x4F 0xD5 MLOAD SWAP10 BLOCKHASH 0x23 0xDB 0xA8 SWAP5 PUSH30 0x7BD310F027F564E1C9832864736F6C634300051100320000000000000000 ",
  "sha1": "6f4b22bbcb20c06273c0b218e880e64fc1d55759",
  "source": "// SPDX-License-Identifier: MIT\npragma solidity ^0.5.0;\n\ninterface SFCI {\n    function currentSealedEpoch() external view returns (uint256);\n\n    function getEpochSnapshot(uint256) external view returns (uint256 endTime, uint256 epochFee, uint256 totalBaseRewardWeight, uint256 totalTxRewardWeight, uint256 _baseRewardPerSecond, uint256 totalStake, uint256 totalSupply);\n\n    function getLockupInfo(address, uint256) external view returns (uint256 lockedStake, uint256 fromEpoch, uint256 endTime, uint256 duration);\n\n    function getStake(address, uint256) external view returns (uint256);\n\n    function getStashedLockupRewards(address, uint256) external view returns (uint256 lockupExtraReward, uint256 lockupBaseReward, uint256 unlockedReward);\n\n    function getValidator(uint256) external view returns (uint256 status, uint256 deactivatedTime, uint256 deactivatedEpoch, uint256 receivedStake, uint256 createdEpoch, uint256 createdTime, address auth);\n\n    function getValidatorID(address) external view returns (uint256);\n\n    function getValidatorPubkey(uint256) external view returns (bytes memory);\n\n    function getWithdrawalRequest(address, uint256, uint256) external view returns (uint256 epoch, uint256 time, uint256 amount);\n\n    function isOwner() external view returns (bool);\n\n    function lastValidatorID() external view returns (uint256);\n\n    function minGasPrice() external view returns (uint256);\n\n    function owner() external view returns (address);\n\n    function renounceOwnership() external;\n\n    function slashingRefundRatio(uint256) external view returns (uint256);\n\n    function stakeTokenizerAddress() external view returns (address);\n\n    function stashedRewardsUntilEpoch(address, uint256) external view returns (uint256);\n\n    function totalActiveStake() external view returns (uint256);\n\n    function totalSlashedStake() external view returns (uint256);\n\n    function totalStake() external view returns (uint256);\n\n    function totalSupply() external view returns (uint256);\n\n    function transferOwnership(address newOwner) external;\n\n    function treasuryAddress() external view returns (address);\n\n    function version() external pure returns (bytes3);\n\n    function currentEpoch() external view returns (uint256);\n\n    function updateConstsAddress(address v) external;\n\n    function constsAddress() external view returns (address);\n\n    function getEpochValidatorIDs(uint256 epoch) external view returns (uint256[] memory);\n\n    function getEpochReceivedStake(uint256 epoch, uint256 validatorID) external view returns (uint256);\n\n    function getEpochAccumulatedRewardPerToken(uint256 epoch, uint256 validatorID) external view returns (uint256);\n\n    function getEpochAccumulatedUptime(uint256 epoch, uint256 validatorID) external view returns (uint256);\n\n    function getEpochAccumulatedOriginatedTxsFee(uint256 epoch, uint256 validatorID) external view returns (uint256);\n\n    function getEpochOfflineTime(uint256 epoch, uint256 validatorID) external view returns (uint256);\n\n    function getEpochOfflineBlocks(uint256 epoch, uint256 validatorID) external view returns (uint256);\n\n    function rewardsStash(address delegator, uint256 validatorID) external view returns (uint256);\n\n    function getLockedStake(address delegator, uint256 toValidatorID) external view returns (uint256);\n\n    function createValidator(bytes calldata pubkey) external payable;\n\n    function getSelfStake(uint256 validatorID) external view returns (uint256);\n\n    function delegate(uint256 toValidatorID) external payable;\n\n    function undelegate(uint256 toValidatorID, uint256 wrID, uint256 amount) external;\n\n    function isSlashed(uint256 validatorID) external view returns (bool);\n\n    function withdraw(uint256 toValidatorID, uint256 wrID) external;\n\n    function deactivateValidator(uint256 validatorID, uint256 status) external;\n\n    function pendingRewards(address delegator, uint256 toValidatorID) external view returns (uint256);\n\n    function stashRewards(address delegator, uint256 toValidatorID) external;\n\n    function claimRewards(uint256 toValidatorID) external;\n\n    function restakeRewards(uint256 toValidatorID) external;\n\n    function updateBaseRewardPerSecond(uint256 value) external;\n\n    function updateOfflinePenaltyThreshold(uint256 blocksNum, uint256 time) external;\n\n    function updateSlashingRefundRatio(uint256 validatorID, uint256 refundRatio) external;\n\n    function updateStakeTokenizerAddress(address addr) external;\n\n    function updateTreasuryAddress(address v) external;\n\n    function mintFTM(address receiver, uint256 amount, string calldata justification) external;\n\n    function burnFTM(uint256 amount) external;\n\n    function sealEpoch(uint256[] calldata offlineTime, uint256[] calldata offlineBlocks, uint256[] calldata uptimes, uint256[] calldata originatedTxsFee, uint256 epochGas) external;\n\n    function sealEpochValidators(uint256[] calldata nextValidatorIDs) external;\n\n    function isLockedUp(address delegator, uint256 toValidatorID) external view returns (bool);\n\n    function getUnlockedStake(address delegator, uint256 toValidatorID) external view returns (uint256);\n\n    function lockStake(uint256 toValidatorID, uint256 lockupDuration, uint256 amount) external;\n\n    function relockStake(uint256 toValidatorID, uint256 lockupDuration, uint256 amount) external;\n\n    function unlockStake(uint256 toValidatorID, uint256 amount) external returns (uint256);\n\n    function initialize(uint256 sealedEpoch, uint256 _totalSupply, address nodeDriver, address lib, address consts, address _owner) external;\n\n    function setGenesisValidator(address auth, uint256 validatorID, bytes calldata pubkey, uint256 status, uint256 createdEpoch, uint256 createdTime, uint256 deactivatedEpoch, uint256 deactivatedTime) external;\n\n    function setGenesisDelegation(address delegator, uint256 toValidatorID, uint256 stake, uint256 lockedStake, uint256 lockupFromEpoch, uint256 lockupEndTime, uint256 lockupDuration, uint256 earlyUnlockPenalty, uint256 rewards) external;\n\n    function updateVoteBookAddress(address v) external;\n\n    function voteBookAddress(address v) external view returns (address);\n}\n\n// File: contracts/common/Initializable.sol\n\npragma solidity >=0.4.24 <0.7.0;\n\n\n/**\n * @title Initializable\n *\n * @dev Helper contract to support initializer functions. To use it, replace\n * the constructor with a function that has the `initializer` modifier.\n * WARNING: Unlike constructors, initializer functions must be manually\n * invoked. This applies both to deploying an Initializable contract, as well\n * as extending an Initializable contract via inheritance.\n * WARNING: When used with inheritance, manual care must be taken to not invoke\n * a parent initializer twice, or ensure that all initializers are idempotent,\n * because this is not dealt with automatically as with constructors.\n */\ncontract Initializable {\n\n  /**\n   * @dev Indicates that the contract has been initialized.\n   */\n  bool private initialized;\n\n  /**\n   * @dev Indicates that the contract is in the process of being initialized.\n   */\n  bool private initializing;\n\n  /**\n   * @dev Modifier to use in the initializer function of a contract.\n   */\n  modifier initializer() {\n    require(initializing || isConstructor() || !initialized, \"Contract instance has already been initialized\");\n\n    bool isTopLevelCall = !initializing;\n    if (isTopLevelCall) {\n      initializing = true;\n      initialized = true;\n    }\n\n    _;\n\n    if (isTopLevelCall) {\n      initializing = false;\n    }\n  }\n\n  /// @dev Returns true if and only if the function is running in the constructor\n  function isConstructor() private view returns (bool) {\n    // extcodesize checks the size of the code stored in an address, and\n    // address returns the current address. Since the code is still not\n    // deployed when running a constructor, any checks on its code size will\n    // yield zero, making it an effective way to detect if a contract is\n    // under construction or not.\n    address self = address(this);\n    uint256 cs;\n    assembly { cs := extcodesize(self) }\n    return cs == 0;\n  }\n\n  // Reserved storage space to allow for layout changes in the future.\n  uint256[50] private ______gap;\n}\n\n// File: contracts/ownership/Ownable.sol\n\npragma solidity ^0.5.0;\n\n\n/**\n * @dev Contract module which provides a basic access control mechanism, where\n * there is an account (an owner) that can be granted exclusive access to\n * specific functions.\n *\n * This module is used through inheritance. It will make available the modifier\n * `onlyOwner`, which can be aplied to your functions to restrict their use to\n * the owner.\n */\ncontract Ownable is Initializable {\n    address private _owner;\n\n    event OwnershipTransferred(address indexed previousOwner, address indexed newOwner);\n\n    /**\n     * @dev Initializes the contract setting the deployer as the initial owner.\n     */\n    function initialize(address sender) internal initializer {\n        _owner = sender;\n        emit OwnershipTransferred(address(0), _owner);\n    }\n\n    /**\n     * @dev Returns the address of the current owner.\n     */\n    function owner() public view returns (address) {\n        return _owner;\n    }\n\n    /**\n     * @dev Throws if called by any account other than the owner.\n     */\n    modifier onlyOwner() {\n        require(isOwner(), \"Ownable: caller is not the owner\");\n        _;\n    }\n\n    /**\n     * @dev Returns true if the caller is the current owner.\n     */\n    function isOwner() public view returns (bool) {\n        return msg.sender == _owner;\n    }\n\n    /**\n     * @dev Leaves the contract without owner. It will not be possible to call\n     * `onlyOwner` functions anymore. Can only be called by the current owner.\n     *\n     * > Note: Renouncing ownership will leave the contract without an owner,\n     * thereby removing any functionality that is only available to the owner.\n     */\n    function renounceOwnership() public onlyOwner {\n        emit OwnershipTransferred(_owner, address(0));\n        _owner = address(0);\n    }\n\n    /**\n     * @dev Transfers ownership of the contract to a new account (`newOwner`).\n     * Can only be called by the current owner.\n     */\n    function transferOwnership(address newOwner) public onlyOwner {\n        _transferOwnership(newOwner);\n    }\n\n    /**\n     * @dev Transfers ownership of the contract to a new account (`newOwner`).\n     */\n    function _transferOwnership(address newOwner) internal {\n        require(newOwner != address(0), \"Ownable: new owner is the zero address\");\n        emit OwnershipTransferred(_owner, newOwner);\n        _owner = newOwner;\n    }\n\n    uint256[50] private ______gap;\n}\n\n// File: @openzeppelin/contracts/math/SafeMath.sol\n\npragma solidity ^0.5.0;\n\n/**\n * @dev Wrappers over Solidity's arithmetic operations with added overflow\n * checks.\n *\n * Arithmetic operations in Solidity wrap on overflow. This can easily result\n * in bugs, because programmers usually assume that an overflow raises an\n * error, which is the standard behavior in high level programming languages.\n * `SafeMath` restores this intuition by reverting the transaction when an\n * operation overflows.\n *\n * Using this library instead of the unchecked operations eliminates an entire\n * class of bugs, so it's recommended to use it always.\n */\nlibrary SafeMath {\n    /**\n     * @dev Returns the addition of two unsigned integers, reverting on\n     * overflow.\n     *\n     * Counterpart to Solidity's `+` operator.\n     *\n     * Requirements:\n     * - Addition cannot overflow.\n     */\n    function add(uint256 a, uint256 b) internal pure returns (uint256) {\n        uint256 c = a + b;\n        require(c >= a, \"SafeMath: addition overflow\");\n\n        return c;\n    }\n\n    /**\n     * @dev Returns the subtraction of two unsigned integers, reverting on\n     * overflow (when the result is negative).\n     *\n     * Counterpart to Solidity's `-` operator.\n     *\n     * Requirements:\n     * - Subtraction cannot overflow.\n     */\n    function sub(uint256 a, uint256 b) internal pure returns (uint256) {\n        return sub(a, b, \"SafeMath: subtraction overflow\");\n    }\n\n    /**\n     * @dev Returns the subtraction of two unsigned integers, reverting with custom message on\n     * overflow (when the result is negative).\n     *\n     * Counterpart to Solidity's `-` operator.\n     *\n     * Requirements:\n     * - Subtraction cannot overflow.\n     *\n     * _Available since v2.4.0._\n     */\n    function sub(uint256 a, uint256 b, string memory errorMessage) internal pure returns (uint256) {\n        require(b <= a, errorMessage);\n        uint256 c = a - b;\n\n        return c;\n    }\n\n    /**\n     * @dev Returns the multiplication of two unsigned integers, reverting on\n     * overflow.\n     *\n     * Counterpart to Solidity's `*` operator.\n     *\n     * Requirements:\n     * - Multiplication cannot overflow.\n     */\n    function mul(uint256 a, uint256 b) internal pure returns (uint256) {\n        // Gas optimization: this is cheaper than requiring 'a' not being zero, but the\n        // benefit is lost if 'b' is also tested.\n        // See: https://github.com/OpenZeppelin/openzeppelin-contracts/pull/522\n        if (a == 0) {\n            return 0;\n        }\n\n        uint256 c = a * b;\n        require(c / a == b, \"SafeMath: multiplication overflow\");\n\n        return c;\n    }\n\n    /**\n     * @dev Returns the integer division of two unsigned integers. Reverts on\n     * division by zero. The result is rounded towards zero.\n     *\n     * Counterpart to Solidity's `/` operator. Note: this function uses a\n     * `revert` opcode (which leaves remaining gas untouched) while Solidity\n     * uses an invalid opcode to revert (consuming all remaining gas).\n     *\n     * Requirements:\n     * - The divisor cannot be zero.\n     */\n    function div(uint256 a, uint256 b) internal pure returns (uint256) {\n        return div(a, b, \"SafeMath: division by zero\");\n    }\n\n    /**\n     * @dev Returns the integer division of two unsigned integers. Reverts with custom message on\n     * division by zero. The result is rounded towards zero.\n     *\n     * Counterpart to Solidity's `/` operator. Note: this function uses a\n     * `revert` opcode (which leaves remaining gas untouched) while Solidity\n     * uses an invalid opcode to revert (consuming all remaining gas).\n     *\n     * Requirements:\n     * - The divisor cannot be zero.\n     *\n     * _Available since v2.4.0._\n     */\n    function div(uint256 a, uint256 b, string memory errorMessage) internal pure returns (uint256) {\n        // Solidity only automatically asserts when dividing by 0\n        require(b > 0, errorMessage);\n        uint256 c = a / b;\n        // assert(a == b * c + a % b); // There is no case in which this doesn't hold\n\n        return c;\n    }\n\n    /**\n     * @dev Returns the remainder of dividing two unsigned integers. (unsigned integer modulo),\n     * Reverts when dividing by zero.\n     *\n     * Counterpart to Solidity's `%` operator. This function uses a `revert`\n     * opcode (which leaves remaining gas untouched) while Solidity uses an\n     * invalid opcode to revert (consuming all remaining gas).\n     *\n     * Requirements:\n     * - The divisor cannot be zero.\n     */\n    function mod(uint256 a, uint256 b) internal pure returns (uint256) {\n        return mod(a, b, \"SafeMath: modulo by zero\");\n    }\n\n    /**\n     * @dev Returns the remainder of dividing two unsigned integers. (unsigned integer modulo),\n     * Reverts with custom message when dividing by zero.\n     *\n     * Counterpart to Solidity's `%` operator. This function uses a `revert`\n     * opcode (which leaves remaining gas untouched) while Solidity uses an\n     * invalid opcode to revert (consuming all remaining gas).\n     *\n     * Requirements:\n     * - The divisor cannot be zero.\n     *\n     * _Available since v2.4.0._\n     */\n    function mod(uint256 a, uint256 b, string memory errorMessage) internal pure returns (uint256) {\n        require(b != 0, errorMessage);\n        return a % b;\n    }\n}\n\n// File: contracts/sfc/NodeDriver.sol\n\npragma solidity ^0.5.0;\n\n\n\n\n\n\ninterface NodeDriverExecutable {\n    function execute() external;\n}\n\ncontract NodeDriverAuth is Initializable, Ownable {\n    using SafeMath for uint256;\n\n    SFCI internal sfc;\n    NodeDriver internal driver;\n\n    // Initialize NodeDriverAuth, NodeDriver and SFC in one call to allow fewer genesis transactions\n    function initialize(address payable _sfc, address _driver, address _owner) external initializer {\n        Ownable.initialize(_owner);\n        driver = NodeDriver(_driver);\n        sfc = SFCI(_sfc);\n    }\n\n    modifier onlySFC() {\n        require(msg.sender == address(sfc), \"caller is not the SFC contract\");\n        _;\n    }\n\n    modifier onlyDriver() {\n        require(msg.sender == address(driver), \"caller is not the NodeDriver contract\");\n        _;\n    }\n\n    function migrateTo(address newDriverAuth) external onlyOwner {\n        driver.setBackend(newDriverAuth);\n    }\n\n    function _execute(address executable, address newOwner, bytes32 selfCodeHash, bytes32 driverCodeHash) internal {\n        _transferOwnership(executable);\n        NodeDriverExecutable(executable).execute();\n        _transferOwnership(newOwner);\n        //require(driver.backend() == address(this), \"ownership of driver is lost\");\n        require(_getCodeHash(address(this)) == selfCodeHash, \"self code hash doesn't match\");\n        require(_getCodeHash(address(driver)) == driverCodeHash, \"driver code hash doesn't match\");\n    }\n\n    function execute(address executable) external onlyOwner {\n        _execute(executable, owner(), _getCodeHash(address(this)), _getCodeHash(address(driver)));\n    }\n\n    function mutExecute(address executable, address newOwner, bytes32 selfCodeHash, bytes32 driverCodeHash) external onlyOwner {\n        _execute(executable, newOwner, selfCodeHash, driverCodeHash);\n    }\n\n    function incBalance(address acc, uint256 diff) external onlySFC {\n        require(acc == address(sfc), \"recipient is not the SFC contract\");\n        driver.setBalance(acc, address(acc).balance.add(diff));\n    }\n\n    function upgradeCode(address acc, address from) external onlyOwner {\n        require(isContract(acc) && isContract(from), \"not a contract\");\n        driver.copyCode(acc, from);\n    }\n\n    function copyCode(address acc, address from) external onlyOwner {\n        driver.copyCode(acc, from);\n    }\n\n    function incNonce(address acc, uint256 diff) external onlyOwner {\n        driver.incNonce(acc, diff);\n    }\n\n    function updateNetworkRules(bytes calldata diff) external onlyOwner {\n        driver.updateNetworkRules(diff);\n    }\n\n    function updateMinGasPrice(uint256 minGasPrice) external onlySFC {\n        driver.updateNetworkRules(bytes(strConcat(\"{\\\"Economy\\\":{\\\"MinGasPrice\\\":\", uint256ToStr(minGasPrice), \"}}\")));\n    }\n\n    function updateNetworkVersion(uint256 version) external onlyOwner {\n        driver.updateNetworkVersion(version);\n    }\n\n    function advanceEpochs(uint256 num) external onlyOwner {\n        driver.advanceEpochs(num);\n    }\n\n    function updateValidatorWeight(uint256 validatorID, uint256 value) external onlySFC {\n        driver.updateValidatorWeight(validatorID, value);\n    }\n\n    function updateValidatorPubkey(uint256 validatorID, bytes calldata pubkey) external onlySFC {\n        driver.updateValidatorPubkey(validatorID, pubkey);\n    }\n\n    function setGenesisValidator(address _auth, uint256 validatorID, bytes calldata pubkey, uint256 status, uint256 createdEpoch, uint256 createdTime, uint256 deactivatedEpoch, uint256 deactivatedTime) external onlyDriver {\n        sfc.setGenesisValidator(_auth, validatorID, pubkey, status, createdEpoch, createdTime, deactivatedEpoch, deactivatedTime);\n    }\n\n    function setGenesisDelegation(address delegator, uint256 toValidatorID, uint256 stake, uint256 lockedStake, uint256 lockupFromEpoch, uint256 lockupEndTime, uint256 lockupDuration, uint256 earlyUnlockPenalty, uint256 rewards) external onlyDriver {\n        sfc.setGenesisDelegation(delegator, toValidatorID, stake, lockedStake, lockupFromEpoch, lockupEndTime, lockupDuration, earlyUnlockPenalty, rewards);\n    }\n\n    function deactivateValidator(uint256 validatorID, uint256 status) external onlyDriver {\n        sfc.deactivateValidator(validatorID, status);\n    }\n\n    function sealEpochValidators(uint256[] calldata nextValidatorIDs) external onlyDriver {\n        sfc.sealEpochValidators(nextValidatorIDs);\n    }\n\n    function sealEpoch(uint256[] calldata offlineTimes, uint256[] calldata offlineBlocks, uint256[] calldata uptimes, uint256[] calldata originatedTxsFee, uint256 usedGas) external onlyDriver {\n        sfc.sealEpoch(offlineTimes, offlineBlocks, uptimes, originatedTxsFee, usedGas);\n    }\n\n    function isContract(address account) internal view returns (bool) {\n        uint256 size;\n        // solhint-disable-next-line no-inline-assembly\n        assembly {size := extcodesize(account)}\n        return size > 0;\n    }\n\n    function decimalsNum(uint256 num) internal pure returns (uint256) {\n        uint decimals;\n        while (num != 0) {\n            decimals++;\n            num /= 10;\n        }\n        return decimals;\n    }\n\n    function uint256ToStr(uint256 num) internal pure returns (string memory) {\n        if (num == 0) {\n            return \"0\";\n        }\n        uint decimals = decimalsNum(num);\n        bytes memory bstr = new bytes(decimals);\n        uint strIdx = decimals - 1;\n        while (num != 0) {\n            bstr[strIdx] = byte(uint8(48 + num % 10));\n            num /= 10;\n            strIdx--;\n        }\n        return string(bstr);\n    }\n\n    function strConcat(string memory _a, string memory _b, string memory _c) internal pure returns (string memory) {\n        bytes memory _ba = bytes(_a);\n        bytes memory _bb = bytes(_b);\n        bytes memory _bc = bytes(_c);\n        string memory abc = new string(_ba.length + _bb.length + _bc.length);\n        bytes memory babc = bytes(abc);\n        uint k = 0;\n        uint i = 0;\n        for (i = 0; i < _ba.length; i++) {\n            babc[k++] = _ba[i];\n        }\n        for (i = 0; i < _bb.length; i++) {\n            babc[k++] = _bb[i];\n        }\n        for (i = 0; i < _bc.length; i++) {\n            babc[k++] = _bc[i];\n        }\n        return string(babc);\n    }\n\n    function _getCodeHash(address addr) internal view returns (bytes32) {\n        bytes32 codeHash;\n        assembly {codeHash := extcodehash(addr)}\n        return codeHash;\n    }\n}\n\ncontract NodeDriver is Initializable {\n    uint256 private erased0;\n    NodeDriverAuth internal backend;\n    EVMWriter internal evmWriter;\n\n    event UpdatedBackend(address indexed backend);\n\n    function setBackend(address _backend) external onlyBackend {\n        emit UpdatedBackend(_backend);\n        backend = NodeDriverAuth(_backend);\n    }\n\n    modifier onlyBackend() {\n        require(msg.sender == address(backend), \"caller is not the backend\");\n        _;\n    }\n\n    event UpdateValidatorWeight(uint256 indexed validatorID, uint256 weight);\n    event UpdateValidatorPubkey(uint256 indexed validatorID, bytes pubkey);\n\n    event UpdateNetworkRules(bytes diff);\n    event UpdateNetworkVersion(uint256 version);\n    event AdvanceEpochs(uint256 num);\n\n    function initialize(address _backend, address _evmWriterAddress) external initializer {\n        backend = NodeDriverAuth(_backend);\n        emit UpdatedBackend(_backend);\n        evmWriter = EVMWriter(_evmWriterAddress);\n    }\n\n    function setBalance(address acc, uint256 value) external onlyBackend {\n        evmWriter.setBalance(acc, value);\n    }\n\n    function copyCode(address acc, address from) external onlyBackend {\n        evmWriter.copyCode(acc, from);\n    }\n\n    function swapCode(address acc, address with) external onlyBackend {\n        evmWriter.swapCode(acc, with);\n    }\n\n    function setStorage(address acc, bytes32 key, bytes32 value) external onlyBackend {\n        evmWriter.setStorage(acc, key, value);\n    }\n\n    function incNonce(address acc, uint256 diff) external onlyBackend {\n        evmWriter.incNonce(acc, diff);\n    }\n\n    function updateNetworkRules(bytes calldata diff) external onlyBackend {\n        emit UpdateNetworkRules(diff);\n    }\n\n    function updateNetworkVersion(uint256 version) external onlyBackend {\n        emit UpdateNetworkVersion(version);\n    }\n\n    function advanceEpochs(uint256 num) external onlyBackend {\n        emit AdvanceEpochs(num);\n    }\n\n    function updateValidatorWeight(uint256 validatorID, uint256 value) external onlyBackend {\n        emit UpdateValidatorWeight(validatorID, value);\n    }\n\n    function updateValidatorPubkey(uint256 validatorID, bytes calldata pubkey) external onlyBackend {\n        emit UpdateValidatorPubkey(validatorID, pubkey);\n    }\n\n    modifier onlyNode() {\n        require(msg.sender == address(0), \"not callable\");\n        _;\n    }\n\n    // Methods which are called only by the node\n\n    function setGenesisValidator(address _auth, uint256 validatorID, bytes calldata pubkey, uint256 status, uint256 createdEpoch, uint256 createdTime, uint256 deactivatedEpoch, uint256 deactivatedTime) external onlyNode {\n        backend.setGenesisValidator(_auth, validatorID, pubkey, status, createdEpoch, createdTime, deactivatedEpoch, deactivatedTime);\n    }\n\n    function setGenesisDelegation(address delegator, uint256 toValidatorID, uint256 stake, uint256 lockedStake, uint256 lockupFromEpoch, uint256 lockupEndTime, uint256 lockupDuration, uint256 earlyUnlockPenalty, uint256 rewards) external onlyNode {\n        backend.setGenesisDelegation(delegator, toValidatorID, stake, lockedStake, lockupFromEpoch, lockupEndTime, lockupDuration, earlyUnlockPenalty, rewards);\n    }\n\n    function deactivateValidator(uint256 validatorID, uint256 status) external onlyNode {\n        backend.deactivateValidator(validatorID, status);\n    }\n\n    function sealEpochValidators(uint256[] calldata nextValidatorIDs) external onlyNode {\n        backend.sealEpochValidators(nextValidatorIDs);\n    }\n\n    function sealEpoch(uint256[] calldata offlineTimes, uint256[] calldata offlineBlocks, uint256[] calldata uptimes, uint256[] calldata originatedTxsFee) external onlyNode {\n        backend.sealEpoch(offlineTimes, offlineBlocks, uptimes, originatedTxsFee, 841669690);\n    }\n\n    function sealEpochV1(uint256[] calldata offlineTimes, uint256[] calldata offlineBlocks, uint256[] calldata uptimes, uint256[] calldata originatedTxsFee, uint256 usedGas) external onlyNode {\n        backend.sealEpoch(offlineTimes, offlineBlocks, uptimes, originatedTxsFee, usedGas);\n    }\n}\n\ninterface EVMWriter {\n    function setBalance(address acc, uint256 value) external;\n\n    function copyCode(address acc, address from) external;\n\n    function swapCode(address acc, address with) external;\n\n    function setStorage(address acc, bytes32 key, bytes32 value) external;\n\n    function incNonce(address acc, uint256 diff) external;\n}\n\n// File: contracts/version/Version.sol\n\npragma solidity ^0.5.0;\n\n/**\n * @dev Version contract gives the versioning information of the implementation contract\n */\ncontract Version {\n    /**\n     * @dev Returns the address of the current owner.\n     */\n    function version() public pure returns (bytes3) {\n        // version 3.0.4\n        return \"304\";\n    }\n}\n\n// File: contracts/common/Decimal.sol\n\npragma solidity ^0.5.0;\n\nlibrary Decimal {\n    // unit is used for decimals, e.g. 0.123456\n    function unit() internal pure returns (uint256) {\n        return 1e18;\n    }\n}\n\n// File: contracts/sfc/ConstantsManager.sol\n\npragma solidity ^0.5.0;\n\n\n\n\ncontract ConstantsManager is Ownable {\n    using SafeMath for uint256;\n\n    // Minimum amount of stake for a validator, i.e., 500000 FTM\n    uint256 public minSelfStake;\n    // Maximum ratio of delegations a validator can have, say, 15 times of self-stake\n    uint256 public maxDelegatedRatio;\n    // The commission fee in percentage a validator will get from a delegation, e.g., 15%\n    uint256 public validatorCommission;\n    // The percentage of fees to burn, e.g., 20%\n    uint256 public burntFeeShare;\n    // The percentage of fees to transfer to treasury address, e.g., 10%\n    uint256 public treasuryFeeShare;\n    // The ratio of the reward rate at base rate (no lock), e.g., 30%\n    uint256 public unlockedRewardRatio;\n    // The minimum duration of a stake/delegation lockup, e.g. 2 weeks\n    uint256 public minLockupDuration;\n    // The maximum duration of a stake/delegation lockup, e.g. 1 year\n    uint256 public maxLockupDuration;\n    // the number of epochs that undelegated stake is locked for\n    uint256 public withdrawalPeriodEpochs;\n    // the number of seconds that undelegated stake is locked for\n    uint256 public withdrawalPeriodTime;\n\n    uint256 public baseRewardPerSecond;\n    uint256 public offlinePenaltyThresholdBlocksNum;\n    uint256 public offlinePenaltyThresholdTime;\n    uint256 public targetGasPowerPerSecond;\n    uint256 public gasPriceBalancingCounterweight;\n\n    address private secondaryOwner_erased;\n\n//    event SecondaryOwnershipTransferred(address indexed previousOwner, address indexed newOwner);\n\n    function initialize() external initializer {\n        Ownable.initialize(msg.sender);\n    }\n\n//    function setSecondaryOwner(address v) onlyOwner external {\n//        emit SecondaryOwnershipTransferred(secondaryOwner, v);\n//        secondaryOwner = v;\n//    }\n\n    function updateMinSelfStake(uint256 v) onlyOwner external {\n        require(v >= 100000 * 1e18, \"too small value\");\n        require(v <= 10000000 * 1e18, \"too large value\");\n        minSelfStake = v;\n    }\n\n    function updateMaxDelegatedRatio(uint256 v) onlyOwner external {\n        require(v >= Decimal.unit(), \"too small value\");\n        require(v <= 31 * Decimal.unit(), \"too large value\");\n        maxDelegatedRatio = v;\n    }\n\n    function updateValidatorCommission(uint256 v) onlyOwner external {\n        require(v <= Decimal.unit() / 2, \"too large value\");\n        validatorCommission = v;\n    }\n\n    function updateBurntFeeShare(uint256 v) onlyOwner external {\n        require(v <= Decimal.unit() / 2, \"too large value\");\n        burntFeeShare = v;\n    }\n\n    function updateTreasuryFeeShare(uint256 v) onlyOwner external {\n        require(v <= Decimal.unit() / 2, \"too large value\");\n        treasuryFeeShare = v;\n    }\n\n    function updateUnlockedRewardRatio(uint256 v) onlyOwner external {\n        require(v >= (5 * Decimal.unit()) / 100, \"too small value\");\n        require(v <= Decimal.unit() / 2, \"too large value\");\n        unlockedRewardRatio = v;\n    }\n\n    function updateMinLockupDuration(uint256 v) onlyOwner external {\n        require(v >= 86400, \"too small value\");\n        require(v <= 86400 * 30, \"too large value\");\n        minLockupDuration = v;\n    }\n\n    function updateMaxLockupDuration(uint256 v) onlyOwner external {\n        require(v >= 86400 * 30, \"too small value\");\n        require(v <= 86400 * 1460, \"too large value\");\n        maxLockupDuration = v;\n    }\n\n    function updateWithdrawalPeriodEpochs(uint256 v) onlyOwner external {\n        require(v >= 2, \"too small value\");\n        require(v <= 100, \"too large value\");\n        withdrawalPeriodEpochs = v;\n    }\n\n    function updateWithdrawalPeriodTime(uint256 v) onlyOwner external {\n        require(v >= 86400, \"too small value\");\n        require(v <= 30 * 86400, \"too large value\");\n        withdrawalPeriodTime = v;\n    }\n\n    function updateBaseRewardPerSecond(uint256 v) onlyOwner external {\n        require(v >= 0.5 * 1e18, \"too small value\");\n        require(v <= 32 * 1e18, \"too large value\");\n        baseRewardPerSecond = v;\n    }\n\n    function updateOfflinePenaltyThresholdTime(uint256 v) onlyOwner external {\n        require(v >= 86400, \"too small value\");\n        require(v <= 10 * 86400, \"too large value\");\n        offlinePenaltyThresholdTime = v;\n    }\n\n    function updateOfflinePenaltyThresholdBlocksNum(uint256 v) onlyOwner external {\n        require(v >= 100, \"too small value\");\n        require(v <= 1000000, \"too large value\");\n        offlinePenaltyThresholdBlocksNum = v;\n    }\n\n    function updateTargetGasPowerPerSecond(uint256 v) onlyOwner external {\n        require(v >= 1000000, \"too small value\");\n        require(v <= 500000000, \"too large value\");\n        targetGasPowerPerSecond = v;\n    }\n\n    function updateGasPriceBalancingCounterweight(uint256 v) onlyOwner external {\n        require(v >= 100, \"too small value\");\n        require(v <= 10 * 86400, \"too large value\");\n        gasPriceBalancingCounterweight = v;\n    }\n}\n\n// File: contracts/sfc/SFCState.sol\n\npragma solidity ^0.5.0;\n\n\n\n\ncontract SFCState is Initializable, Ownable {\n    using SafeMath for uint256;\n    /**\n     * @dev The staking for validation\n     */\n    struct Validator {\n        uint256 status;\n        uint256 deactivatedTime;\n        uint256 deactivatedEpoch;\n\n        uint256 receivedStake;\n        uint256 createdEpoch;\n        uint256 createdTime;\n\n        address auth;\n    }\n\n    NodeDriverAuth internal node;\n\n    struct Rewards {\n        uint256 lockupExtraReward;\n        uint256 lockupBaseReward;\n        uint256 unlockedReward;\n    }\n\n    uint256 public currentSealedEpoch;\n    mapping(uint256 => Validator) public getValidator;\n    mapping(address => uint256) public getValidatorID;\n    mapping(uint256 => bytes) public getValidatorPubkey;\n\n    uint256 public lastValidatorID;\n    uint256 public totalStake;\n    uint256 public totalActiveStake;\n    uint256 public totalSlashedStake;\n\n    mapping(address => mapping(uint256 => Rewards)) internal _rewardsStash; // addr, validatorID -> Rewards\n\n    mapping(address => mapping(uint256 => uint256)) public stashedRewardsUntilEpoch;\n\n    struct WithdrawalRequest {\n        uint256 epoch;\n        uint256 time;\n\n        uint256 amount;\n    }\n\n    mapping(address => mapping(uint256 => mapping(uint256 => WithdrawalRequest))) public getWithdrawalRequest;\n\n    struct LockedDelegation {\n        uint256 lockedStake;\n        uint256 fromEpoch;\n        uint256 endTime;\n        uint256 duration;\n    }\n\n    mapping(address => mapping(uint256 => uint256)) public getStake;\n\n    mapping(address => mapping(uint256 => LockedDelegation)) public getLockupInfo;\n\n    mapping(address => mapping(uint256 => Rewards)) public getStashedLockupRewards;\n\n    struct EpochSnapshot {\n        mapping(uint256 => uint256) receivedStake;\n        mapping(uint256 => uint256) accumulatedRewardPerToken;\n        mapping(uint256 => uint256) accumulatedUptime;\n        mapping(uint256 => uint256) accumulatedOriginatedTxsFee;\n        mapping(uint256 => uint256) offlineTime;\n        mapping(uint256 => uint256) offlineBlocks;\n\n        uint256[] validatorIDs;\n\n        uint256 endTime;\n        uint256 epochFee;\n        uint256 totalBaseRewardWeight;\n        uint256 totalTxRewardWeight;\n        uint256 baseRewardPerSecond;\n        uint256 totalStake;\n        uint256 totalSupply;\n    }\n\n    uint256 private erased0;\n    uint256 public totalSupply;\n    mapping(uint256 => EpochSnapshot) public getEpochSnapshot;\n\n    uint256 private erased1;\n    uint256 private erased2;\n\n    mapping(uint256 => uint256) public slashingRefundRatio; // validator ID -> (slashing refund ratio)\n\n    address public stakeTokenizerAddress;\n\n    uint256 private erased3;\n    uint256 private erased4;\n    uint256 public minGasPrice;\n\n    address public treasuryAddress;\n\n    address internal libAddress;\n\n    ConstantsManager internal c;\n\n    address public voteBookAddress;\n}\n\n// File: contracts/sfc/SFCBase.sol\n\npragma solidity ^0.5.0;\n\n\ncontract SFCBase is SFCState {\n    using SafeMath for uint256;\n\n    uint256 internal constant OK_STATUS = 0;\n    uint256 internal constant WITHDRAWN_BIT = 1;\n    uint256 internal constant OFFLINE_BIT = 1 << 3;\n    uint256 internal constant DOUBLESIGN_BIT = 1 << 7;\n    uint256 internal constant CHEATER_MASK = DOUBLESIGN_BIT;\n\n    event DeactivatedValidator(uint256 indexed validatorID, uint256 deactivatedEpoch, uint256 deactivatedTime);\n    event ChangedValidatorStatus(uint256 indexed validatorID, uint256 status);\n\n    function isNode(address addr) internal view returns (bool) {\n        return addr == address(node);\n    }\n\n    modifier onlyDriver() {\n        require(isNode(msg.sender), \"caller is not the NodeDriverAuth contract\");\n        _;\n    }\n\n    function currentEpoch() public view returns (uint256) {\n        return currentSealedEpoch + 1;\n    }\n\n    function _calcRawValidatorEpochTxReward(uint256 epochFee, uint256 txRewardWeight, uint256 totalTxRewardWeight) internal view returns (uint256) {\n        if (txRewardWeight == 0) {\n            return 0;\n        }\n        uint256 txReward = epochFee.mul(txRewardWeight).div(totalTxRewardWeight);\n        // fee reward except burntFeeShare and treasuryFeeShare\n        return txReward.mul(Decimal.unit() - c.burntFeeShare() - c.treasuryFeeShare()).div(Decimal.unit());\n    }\n\n    function _calcRawValidatorEpochBaseReward(uint256 epochDuration, uint256 _baseRewardPerSecond, uint256 baseRewardWeight, uint256 totalBaseRewardWeight) internal pure returns (uint256) {\n        if (baseRewardWeight == 0) {\n            return 0;\n        }\n        uint256 totalReward = epochDuration.mul(_baseRewardPerSecond);\n        return totalReward.mul(baseRewardWeight).div(totalBaseRewardWeight);\n    }\n\n    function _mintNativeToken(uint256 amount) internal {\n        // balance will be increased after the transaction is processed\n        node.incBalance(address(this), amount);\n        totalSupply = totalSupply.add(amount);\n    }\n\n    function sumRewards(Rewards memory a, Rewards memory b) internal pure returns (Rewards memory) {\n        return Rewards(a.lockupExtraReward.add(b.lockupExtraReward), a.lockupBaseReward.add(b.lockupBaseReward), a.unlockedReward.add(b.unlockedReward));\n    }\n\n    function sumRewards(Rewards memory a, Rewards memory b, Rewards memory c) internal pure returns (Rewards memory) {\n        return sumRewards(sumRewards(a, b), c);\n    }\n\n    function _scaleLockupReward(uint256 fullReward, uint256 lockupDuration) internal view returns (Rewards memory reward) {\n        reward = Rewards(0, 0, 0);\n        uint256 unlockedRewardRatio = c.unlockedRewardRatio();\n        if (lockupDuration != 0) {\n            uint256 maxLockupExtraRatio = Decimal.unit() - unlockedRewardRatio;\n            uint256 lockupExtraRatio = maxLockupExtraRatio.mul(lockupDuration).div(c.maxLockupDuration());\n            uint256 totalScaledReward = fullReward.mul(unlockedRewardRatio + lockupExtraRatio).div(Decimal.unit());\n            reward.lockupBaseReward = fullReward.mul(unlockedRewardRatio).div(Decimal.unit());\n            reward.lockupExtraReward = totalScaledReward - reward.lockupBaseReward;\n        } else {\n            reward.unlockedReward = fullReward.mul(unlockedRewardRatio).div(Decimal.unit());\n        }\n        return reward;\n    }\n\n    function _recountVotes(address delegator, address validatorAuth, bool strict) internal {\n        if (voteBookAddress != address(0)) {\n            // Don't allow recountVotes to use up all the gas\n            (bool success,) = voteBookAddress.call.gas(8000000)(abi.encodeWithSignature(\"recountVotes(address,address)\", delegator, validatorAuth));\n            // Don't revert if recountVotes failed unless strict mode enabled\n            require(success || !strict, \"gov votes recounting failed\");\n        }\n    }\n\n    function _setValidatorDeactivated(uint256 validatorID, uint256 status) internal {\n        if (getValidator[validatorID].status == OK_STATUS && status != OK_STATUS) {\n            totalActiveStake = totalActiveStake.sub(getValidator[validatorID].receivedStake);\n        }\n        // status as a number is proportional to severity\n        if (status > getValidator[validatorID].status) {\n            getValidator[validatorID].status = status;\n            if (getValidator[validatorID].deactivatedEpoch == 0) {\n                getValidator[validatorID].deactivatedEpoch = currentEpoch();\n                getValidator[validatorID].deactivatedTime = _now();\n                emit DeactivatedValidator(validatorID, getValidator[validatorID].deactivatedEpoch, getValidator[validatorID].deactivatedTime);\n            }\n            emit ChangedValidatorStatus(validatorID, status);\n        }\n    }\n\n    function _syncValidator(uint256 validatorID, bool syncPubkey) public {\n        require(_validatorExists(validatorID), \"validator doesn't exist\");\n        // emit special log for node\n        uint256 weight = getValidator[validatorID].receivedStake;\n        if (getValidator[validatorID].status != OK_STATUS) {\n            weight = 0;\n        }\n        node.updateValidatorWeight(validatorID, weight);\n        if (syncPubkey && weight != 0) {\n            node.updateValidatorPubkey(validatorID, getValidatorPubkey[validatorID]);\n        }\n    }\n\n    function _validatorExists(uint256 validatorID) view internal returns (bool) {\n        return getValidator[validatorID].createdTime != 0;\n    }\n\n    function _calcValidatorCommission(uint256 rawReward, uint256 commission) internal pure returns (uint256)  {\n        return rawReward.mul(commission).div(Decimal.unit());\n    }\n\n    function getLockedStake(address delegator, uint256 toValidatorID) public view returns (uint256) {\n        if (!isLockedUp(delegator, toValidatorID)) {\n            return 0;\n        }\n        return getLockupInfo[delegator][toValidatorID].lockedStake;\n    }\n\n    function isLockedUp(address delegator, uint256 toValidatorID) view public returns (bool) {\n        return getLockupInfo[delegator][toValidatorID].endTime != 0 && getLockupInfo[delegator][toValidatorID].lockedStake != 0 && _now() <= getLockupInfo[delegator][toValidatorID].endTime;\n    }\n\n    function _now() internal view returns (uint256) {\n        return block.timestamp;\n    }\n}\n\n// File: contracts/sfc/GasPriceConstants.sol\n\npragma solidity ^0.5.0;\n\n\nlibrary GP {\n    function trimGasPriceChangeRatio(uint256 x) internal pure returns (uint256) {\n        if (x > Decimal.unit() * 105 / 100) {\n            return Decimal.unit() * 105 / 100;\n        }\n        if (x < Decimal.unit() * 95 / 100) {\n            return Decimal.unit() * 95 / 100;\n        }\n        return x;\n    }\n\n    function trimMinGasPrice(uint256 x) internal pure returns (uint256) {\n        if (x > 1000000 * 1e9) {\n            return 1000000 * 1e9;\n        }\n        if (x < 1e9) {\n            return 1e9;\n        }\n        return x;\n    }\n\n    function initialMinGasPrice() internal pure returns (uint256) {\n        return 100 * 1e9;\n    }\n}\n\n// File: contracts/sfc/SFC.sol\n\npragma solidity ^0.5.0;\n\n\n\n\n/**\n * @dev Stakers contract defines data structure and methods for validators / validators.\n */\ncontract SFC is SFCBase, Version {\n    function _delegate(address implementation) internal {\n        assembly {\n        // Copy msg.data. We take full control of memory in this inline assembly\n        // block because it will not return to Solidity code. We overwrite the\n        // Solidity scratch pad at memory position 0.\n            calldatacopy(0, 0, calldatasize)\n\n        // Call the implementation.\n        // out and outsize are 0 because we don't know the size yet.\n            let result := delegatecall(gas, implementation, 0, calldatasize, 0, 0)\n\n        // Copy the returned data.\n            returndatacopy(0, 0, returndatasize)\n\n            switch result\n            // delegatecall returns 0 on error.\n            case 0 {revert(0, returndatasize)}\n            default {return (0, returndatasize)}\n        }\n    }\n\n    function() payable external {\n        require(msg.data.length != 0, \"transfers not allowed\");\n        _delegate(libAddress);\n    }\n\n    event UpdatedBaseRewardPerSec(uint256 value);\n    event UpdatedOfflinePenaltyThreshold(uint256 blocksNum, uint256 period);\n\n    /*\n    Constructor\n    */\n\n    function initialize(uint256 sealedEpoch, uint256 _totalSupply, address nodeDriver, address lib, address _c, address owner) external initializer {\n        Ownable.initialize(owner);\n        currentSealedEpoch = sealedEpoch;\n        node = NodeDriverAuth(nodeDriver);\n        libAddress = lib;\n        c = ConstantsManager(_c);\n        totalSupply = _totalSupply;\n        minGasPrice = GP.initialMinGasPrice();\n        getEpochSnapshot[sealedEpoch].endTime = _now();\n    }\n\n    function updateStakeTokenizerAddress(address addr) onlyOwner external {\n        stakeTokenizerAddress = addr;\n    }\n\n    function updateLibAddress(address v) onlyOwner external {\n        libAddress = v;\n    }\n\n    function updateTreasuryAddress(address v) onlyOwner external {\n        treasuryAddress = v;\n    }\n\n    function updateConstsAddress(address v) onlyOwner external {\n        c = ConstantsManager(v);\n    }\n\n    function constsAddress() external view returns (address) {\n        return address(c);\n    }\n\n    function updateVoteBookAddress(address v) onlyOwner external {\n        voteBookAddress = v;\n    }\n\n    /*\n    Epoch callbacks\n    */\n\n    function _sealEpoch_offline(EpochSnapshot storage snapshot, uint256[] memory validatorIDs, uint256[] memory offlineTime, uint256[] memory offlineBlocks) internal {\n        // mark offline nodes\n        for (uint256 i = 0; i < validatorIDs.length; i++) {\n            if (offlineBlocks[i] > c.offlinePenaltyThresholdBlocksNum() && offlineTime[i] >= c.offlinePenaltyThresholdTime()) {\n                _setValidatorDeactivated(validatorIDs[i], OFFLINE_BIT);\n                _syncValidator(validatorIDs[i], false);\n            }\n            // log data\n            snapshot.offlineTime[validatorIDs[i]] = offlineTime[i];\n            snapshot.offlineBlocks[validatorIDs[i]] = offlineBlocks[i];\n        }\n    }\n\n    struct _SealEpochRewardsCtx {\n        uint256[] baseRewardWeights;\n        uint256 totalBaseRewardWeight;\n        uint256[] txRewardWeights;\n        uint256 totalTxRewardWeight;\n        uint256 epochFee;\n    }\n\n    function _sealEpoch_rewards(uint256 epochDuration, EpochSnapshot storage snapshot, EpochSnapshot storage prevSnapshot, uint256[] memory validatorIDs, uint256[] memory uptimes, uint256[] memory accumulatedOriginatedTxsFee) internal {\n        _SealEpochRewardsCtx memory ctx = _SealEpochRewardsCtx(new uint[](validatorIDs.length), 0, new uint[](validatorIDs.length), 0, 0);\n\n        for (uint256 i = 0; i < validatorIDs.length; i++) {\n            uint256 prevAccumulatedTxsFee = prevSnapshot.accumulatedOriginatedTxsFee[validatorIDs[i]];\n            uint256 originatedTxsFee = 0;\n            if (accumulatedOriginatedTxsFee[i] > prevAccumulatedTxsFee) {\n                originatedTxsFee = accumulatedOriginatedTxsFee[i] - prevAccumulatedTxsFee;\n            }\n            // txRewardWeight = {originatedTxsFee} * {uptime}\n            // originatedTxsFee is roughly proportional to {uptime} * {stake}, so the whole formula is roughly\n            // {stake} * {uptime} ^ 2\n            ctx.txRewardWeights[i] = originatedTxsFee * uptimes[i] / epochDuration;\n            ctx.totalTxRewardWeight = ctx.totalTxRewardWeight.add(ctx.txRewardWeights[i]);\n            ctx.epochFee = ctx.epochFee.add(originatedTxsFee);\n        }\n\n        for (uint256 i = 0; i < validatorIDs.length; i++) {\n            // baseRewardWeight = {stake} * {uptime ^ 2}\n            ctx.baseRewardWeights[i] = (((snapshot.receivedStake[validatorIDs[i]] * uptimes[i]) / epochDuration) * uptimes[i]) / epochDuration;\n            ctx.totalBaseRewardWeight = ctx.totalBaseRewardWeight.add(ctx.baseRewardWeights[i]);\n        }\n\n        for (uint256 i = 0; i < validatorIDs.length; i++) {\n            uint256 rawReward = _calcRawValidatorEpochBaseReward(epochDuration, c.baseRewardPerSecond(), ctx.baseRewardWeights[i], ctx.totalBaseRewardWeight);\n            rawReward = rawReward.add(_calcRawValidatorEpochTxReward(ctx.epochFee, ctx.txRewardWeights[i], ctx.totalTxRewardWeight));\n\n            uint256 validatorID = validatorIDs[i];\n            address validatorAddr = getValidator[validatorID].auth;\n            // accounting validator's commission\n            uint256 commissionRewardFull = _calcValidatorCommission(rawReward, c.validatorCommission());\n            uint256 selfStake = getStake[validatorAddr][validatorID];\n            if (selfStake != 0) {\n                uint256 lCommissionRewardFull = (commissionRewardFull * getLockedStake(validatorAddr, validatorID)) / selfStake;\n                uint256 uCommissionRewardFull = commissionRewardFull - lCommissionRewardFull;\n                Rewards memory lCommissionReward = _scaleLockupReward(lCommissionRewardFull, getLockupInfo[validatorAddr][validatorID].duration);\n                Rewards memory uCommissionReward = _scaleLockupReward(uCommissionRewardFull, 0);\n                _rewardsStash[validatorAddr][validatorID] = sumRewards(_rewardsStash[validatorAddr][validatorID], lCommissionReward, uCommissionReward);\n                getStashedLockupRewards[validatorAddr][validatorID] = sumRewards(getStashedLockupRewards[validatorAddr][validatorID], lCommissionReward, uCommissionReward);\n            }\n            // accounting reward per token for delegators\n            uint256 delegatorsReward = rawReward - commissionRewardFull;\n            // note: use latest stake for the sake of rewards distribution accuracy, not snapshot.receivedStake\n            uint256 receivedStake = getValidator[validatorID].receivedStake;\n            uint256 rewardPerToken = 0;\n            if (receivedStake != 0) {\n                rewardPerToken = (delegatorsReward * Decimal.unit()) / receivedStake;\n            }\n            snapshot.accumulatedRewardPerToken[validatorID] = prevSnapshot.accumulatedRewardPerToken[validatorID] + rewardPerToken;\n\n            snapshot.accumulatedOriginatedTxsFee[validatorID] = accumulatedOriginatedTxsFee[i];\n            snapshot.accumulatedUptime[validatorID] = prevSnapshot.accumulatedUptime[validatorID] + uptimes[i];\n        }\n\n        snapshot.epochFee = ctx.epochFee;\n        snapshot.totalBaseRewardWeight = ctx.totalBaseRewardWeight;\n        snapshot.totalTxRewardWeight = ctx.totalTxRewardWeight;\n        if (totalSupply > snapshot.epochFee) {\n            totalSupply -= snapshot.epochFee;\n        } else {\n            totalSupply = 0;\n        }\n\n        // transfer 10% of fees to treasury\n        if (treasuryAddress != address(0)) {\n            uint256 feeShare = ctx.epochFee * c.treasuryFeeShare() / Decimal.unit();\n            _mintNativeToken(feeShare);\n            treasuryAddress.call.value(feeShare)(\"\");\n        }\n    }\n\n\n    function _sealEpoch_minGasPrice(uint256 epochDuration, uint256 epochGas) internal {\n        // change minGasPrice proportionally to the difference between target and received epochGas\n        uint256 targetEpochGas = epochDuration * c.targetGasPowerPerSecond() + 1;\n        uint256 gasPriceDeltaRatio = epochGas * Decimal.unit() / targetEpochGas;\n        uint256 counterweight = c.gasPriceBalancingCounterweight();\n        // scale down the change speed (estimate gasPriceDeltaRatio ^ (epochDuration / counterweight))\n        gasPriceDeltaRatio = (epochDuration * gasPriceDeltaRatio + counterweight * Decimal.unit()) / (epochDuration + counterweight);\n        // limit the max/min possible delta in one epoch\n        gasPriceDeltaRatio = GP.trimGasPriceChangeRatio(gasPriceDeltaRatio);\n\n        // apply the ratio\n        uint256 newMinGasPrice = minGasPrice * gasPriceDeltaRatio / Decimal.unit();\n        // limit the max/min possible minGasPrice\n        newMinGasPrice = GP.trimMinGasPrice(newMinGasPrice);\n        // apply new minGasPrice\n        minGasPrice = newMinGasPrice;\n    }\n\n    function sealEpoch(uint256[] calldata offlineTime, uint256[] calldata offlineBlocks, uint256[] calldata uptimes, uint256[] calldata originatedTxsFee, uint256 epochGas) external onlyDriver {\n        EpochSnapshot storage snapshot = getEpochSnapshot[currentEpoch()];\n        uint256[] memory validatorIDs = snapshot.validatorIDs;\n\n        _sealEpoch_offline(snapshot, validatorIDs, offlineTime, offlineBlocks);\n        {\n            EpochSnapshot storage prevSnapshot = getEpochSnapshot[currentSealedEpoch];\n            uint256 epochDuration = 1;\n            if (_now() > prevSnapshot.endTime) {\n                epochDuration = _now() - prevSnapshot.endTime;\n            }\n            _sealEpoch_rewards(epochDuration, snapshot, prevSnapshot, validatorIDs, uptimes, originatedTxsFee);\n            _sealEpoch_minGasPrice(epochDuration, epochGas);\n        }\n\n        currentSealedEpoch = currentEpoch();\n        snapshot.endTime = _now();\n        snapshot.baseRewardPerSecond = c.baseRewardPerSecond();\n        snapshot.totalSupply = totalSupply;\n    }\n\n    function sealEpochValidators(uint256[] calldata nextValidatorIDs) external onlyDriver {\n        EpochSnapshot storage snapshot = getEpochSnapshot[currentEpoch()];\n        // fill data for the next snapshot\n        for (uint256 i = 0; i < nextValidatorIDs.length; i++) {\n            uint256 validatorID = nextValidatorIDs[i];\n            uint256 receivedStake = getValidator[validatorID].receivedStake;\n            snapshot.receivedStake[validatorID] = receivedStake;\n            snapshot.totalStake = snapshot.totalStake.add(receivedStake);\n        }\n        snapshot.validatorIDs = nextValidatorIDs;\n        node.updateMinGasPrice(minGasPrice);\n    }\n}",
  "sourcePath": "contracts/SFC.sol",
  "type": "contract"
}