{
  "abi": [
    {
      "inputs": [],
      "stateMutability": "nonpayable",
      "type": "constructor"
    },
    {
      "anonymous": false,
      "inputs": [
        {
          "indexed": true,
          "internalType": "address",
          "name": "newAnonIDContract",
          "type": "address"
        }
      ],
      "name": "AnonIDContractUpdated",
      "type": "event"
    },
    {
      "anonymous": false,
      "inputs": [
        {
          "indexed": true,
          "internalType": "address",
          "name": "owner",
          "type": "address"
        },
        {
          "indexed": true,
          "internalType": "address",
          "name": "spender",
          "type": "address"
        },
        {
          "indexed": false,
          "internalType": "uint256",
          "name": "value",
          "type": "uint256"
        }
      ],
      "name": "Approval",
      "type": "event"
    },
    {
      "anonymous": false,
      "inputs": [
        {
          "indexed": true,
          "internalType": "address",
          "name": "newForumContract",
          "type": "address"
        }
      ],
      "name": "ForumContractUpdated",
      "type": "event"
    },
    {
      "anonymous": false,
      "inputs": [
        {
          "indexed": true,
          "internalType": "address",
          "name": "newGameValContract",
          "type": "address"
        }
      ],
      "name": "GameValContractUpdated",
      "type": "event"
    },
    {
      "anonymous": false,
      "inputs": [
        {
          "indexed": true,
          "internalType": "address",
          "name": "newOnrampContract",
          "type": "address"
        }
      ],
      "name": "OnrampContractUpdated",
      "type": "event"
    },
    {
      "anonymous": false,
      "inputs": [
        {
          "indexed": true,
          "internalType": "address",
          "name": "from",
          "type": "address"
        },
        {
          "indexed": true,
          "internalType": "address",
          "name": "to",
          "type": "address"
        },
        {
          "indexed": false,
          "internalType": "uint256",
          "name": "value",
          "type": "uint256"
        }
      ],
      "name": "Transfer",
      "type": "event"
    },
    {
      "inputs": [
        {
          "internalType": "address",
          "name": "_address",
          "type": "address"
        },
        {
          "internalType": "string",
          "name": "_steamID",
          "type": "string"
        },
        {
          "internalType": "string",
          "name": "_playerName",
          "type": "string"
        },
        {
          "internalType": "uint256",
          "name": "_oracleKeyIndex1",
          "type": "uint256"
        },
        {
          "internalType": "uint256",
          "name": "_oracleKeyIndex2",
          "type": "uint256"
        },
        {
          "internalType": "address",
          "name": "_rewardAddress",
          "type": "address"
        }
      ],
      "name": "addOrUpdatePlayer",
      "outputs": [],
      "stateMutability": "nonpayable",
      "type": "function"
    },
    {
      "inputs": [
        {
          "internalType": "address",
          "name": "",
          "type": "address"
        },
        {
          "internalType": "address",
          "name": "",
          "type": "address"
        }
      ],
      "name": "allowance",
      "outputs": [
        {
          "internalType": "uint256",
          "name": "",
          "type": "uint256"
        }
      ],
      "stateMutability": "view",
      "type": "function"
    },
    {
      "inputs": [],
      "name": "anonIDContract",
      "outputs": [
        {
          "internalType": "contract IAnonID",
          "name": "",
          "type": "address"
        }
      ],
      "stateMutability": "view",
      "type": "function"
    },
    {
      "inputs": [
        {
          "internalType": "address",
          "name": "",
          "type": "address"
        }
      ],
      "name": "balanceOf",
      "outputs": [
        {
          "internalType": "uint256",
          "name": "",
          "type": "uint256"
        }
      ],
      "stateMutability": "view",
      "type": "function"
    },
    {
      "inputs": [
        {
          "internalType": "address",
          "name": "_address",
          "type": "address"
        }
      ],
      "name": "deletePlayer",
      "outputs": [],
      "stateMutability": "nonpayable",
      "type": "function"
    },
    {
      "inputs": [],
      "name": "forumContract",
      "outputs": [
        {
          "internalType": "address",
          "name": "",
          "type": "address"
        }
      ],
      "stateMutability": "view",
      "type": "function"
    },
    {
      "inputs": [
        {
          "internalType": "string",
          "name": "",
          "type": "string"
        }
      ],
      "name": "gameServerIPs",
      "outputs": [
        {
          "internalType": "bool",
          "name": "",
          "type": "bool"
        }
      ],
      "stateMutability": "view",
      "type": "function"
    },
    {
      "inputs": [],
      "name": "gameValContract",
      "outputs": [
        {
          "internalType": "address",
          "name": "",
          "type": "address"
        }
      ],
      "stateMutability": "view",
      "type": "function"
    },
    {
      "inputs": [],
      "name": "getAllPlayerNames",
      "outputs": [
        {
          "internalType": "string[]",
          "name": "",
          "type": "string[]"
        }
      ],
      "stateMutability": "view",
      "type": "function"
    },
    {
      "inputs": [],
      "name": "getAllServerIPs",
      "outputs": [
        {
          "internalType": "string[]",
          "name": "",
          "type": "string[]"
        }
      ],
      "stateMutability": "view",
      "type": "function"
    },
    {
      "inputs": [
        {
          "internalType": "address",
          "name": "_address",
          "type": "address"
        }
      ],
      "name": "getOracleKeyIndices",
      "outputs": [
        {
          "internalType": "uint256",
          "name": "",
          "type": "uint256"
        },
        {
          "internalType": "uint256",
          "name": "",
          "type": "uint256"
        }
      ],
      "stateMutability": "view",
      "type": "function"
    },
    {
      "inputs": [
        {
          "internalType": "string[]",
          "name": "playerNames",
          "type": "string[]"
        },
        {
          "internalType": "uint256",
          "name": "lastMintTime",
          "type": "uint256"
        }
      ],
      "name": "getValidRewardAddressesByNames",
      "outputs": [
        {
          "internalType": "address[]",
          "name": "",
          "type": "address[]"
        }
      ],
      "stateMutability": "nonpayable",
      "type": "function"
    },
    {
      "inputs": [
        {
          "internalType": "address",
          "name": "_address",
          "type": "address"
        }
      ],
      "name": "isGameAdmin",
      "outputs": [
        {
          "internalType": "bool",
          "name": "",
          "type": "bool"
        }
      ],
      "stateMutability": "view",
      "type": "function"
    },
    {
      "inputs": [
        {
          "internalType": "address",
          "name": "_address",
          "type": "address"
        }
      ],
      "name": "isModerator",
      "outputs": [
        {
          "internalType": "bool",
          "name": "",
          "type": "bool"
        }
      ],
      "stateMutability": "view",
      "type": "function"
    },
    {
      "inputs": [
        {
          "internalType": "address",
          "name": "_address",
          "type": "address"
        }
      ],
      "name": "isOnboardQueuer",
      "outputs": [
        {
          "internalType": "bool",
          "name": "",
          "type": "bool"
        }
      ],
      "stateMutability": "view",
      "type": "function"
    },
    {
      "inputs": [
        {
          "internalType": "address",
          "name": "_address",
          "type": "address"
        }
      ],
      "name": "isOnboardRegistrar",
      "outputs": [
        {
          "internalType": "bool",
          "name": "",
          "type": "bool"
        }
      ],
      "stateMutability": "view",
      "type": "function"
    },
    {
      "inputs": [
        {
          "internalType": "address",
          "name": "_address",
          "type": "address"
        }
      ],
      "name": "isRegistered",
      "outputs": [
        {
          "internalType": "bool",
          "name": "",
          "type": "bool"
        }
      ],
      "stateMutability": "view",
      "type": "function"
    },
    {
      "inputs": [
        {
          "internalType": "address",
          "name": "_address",
          "type": "address"
        }
      ],
      "name": "isTourneyMod",
      "outputs": [
        {
          "internalType": "bool",
          "name": "",
          "type": "bool"
        }
      ],
      "stateMutability": "view",
      "type": "function"
    },
    {
      "inputs": [
        {
          "internalType": "address",
          "name": "_address",
          "type": "address"
        }
      ],
      "name": "isValidator",
      "outputs": [
        {
          "internalType": "bool",
          "name": "",
          "type": "bool"
        }
      ],
      "stateMutability": "view",
      "type": "function"
    },
    {
      "inputs": [],
      "name": "lamportBase",
      "outputs": [
        {
          "internalType": "contract ILamportBase",
          "name": "",
          "type": "address"
        }
      ],
      "stateMutability": "view",
      "type": "function"
    },
    {
      "inputs": [],
      "name": "onrampContract",
      "outputs": [
        {
          "internalType": "address",
          "name": "",
          "type": "address"
        }
      ],
      "stateMutability": "view",
      "type": "function"
    },
    {
      "inputs": [
        {
          "internalType": "uint256",
          "name": "",
          "type": "uint256"
        }
      ],
      "name": "playerAddresses",
      "outputs": [
        {
          "internalType": "address",
          "name": "",
          "type": "address"
        }
      ],
      "stateMutability": "view",
      "type": "function"
    },
    {
      "inputs": [
        {
          "internalType": "address",
          "name": "",
          "type": "address"
        }
      ],
      "name": "playerData",
      "outputs": [
        {
          "internalType": "bool",
          "name": "isRegistered",
          "type": "bool"
        },
        {
          "internalType": "bool",
          "name": "isValidator",
          "type": "bool"
        },
        {
          "internalType": "bool",
          "name": "isModerator",
          "type": "bool"
        },
        {
          "internalType": "bool",
          "name": "isTourneyMod",
          "type": "bool"
        },
        {
          "internalType": "bool",
          "name": "isGameAdmin",
          "type": "bool"
        },
        {
          "internalType": "bool",
          "name": "isOnboardQueuer",
          "type": "bool"
        },
        {
          "internalType": "bool",
          "name": "isOnboardRegistrar",
          "type": "bool"
        },
        {
          "internalType": "string",
          "name": "playerName",
          "type": "string"
        },
        {
          "internalType": "bytes32",
          "name": "forumKey",
          "type": "bytes32"
        },
        {
          "internalType": "string",
          "name": "steamID",
          "type": "string"
        },
        {
          "internalType": "address",
          "name": "rewardAddress",
          "type": "address"
        },
        {
          "internalType": "uint256",
          "name": "oracleKeyIndex1",
          "type": "uint256"
        },
        {
          "internalType": "uint256",
          "name": "oracleKeyIndex2",
          "type": "uint256"
        }
      ],
      "stateMutability": "view",
      "type": "function"
    },
    {
      "inputs": [
        {
          "internalType": "uint256",
          "name": "",
          "type": "uint256"
        }
      ],
      "name": "serverIPList",
      "outputs": [
        {
          "internalType": "string",
          "name": "",
          "type": "string"
        }
      ],
      "stateMutability": "view",
      "type": "function"
    },
    {
      "inputs": [
        {
          "internalType": "address",
          "name": "_player",
          "type": "address"
        },
        {
          "internalType": "bytes32",
          "name": "_key",
          "type": "bytes32"
        }
      ],
      "name": "setForumKey",
      "outputs": [],
      "stateMutability": "nonpayable",
      "type": "function"
    },
    {
      "inputs": [
        {
          "internalType": "address",
          "name": "admin",
          "type": "address"
        },
        {
          "internalType": "bool",
          "name": "status",
          "type": "bool"
        }
      ],
      "name": "setGameAdminStatus",
      "outputs": [],
      "stateMutability": "nonpayable",
      "type": "function"
    },
    {
      "inputs": [
        {
          "internalType": "address",
          "name": "_player",
          "type": "address"
        },
        {
          "internalType": "bool",
          "name": "_status",
          "type": "bool"
        }
      ],
      "name": "setModeratorStatus",
      "outputs": [],
      "stateMutability": "nonpayable",
      "type": "function"
    },
    {
      "inputs": [
        {
          "internalType": "address",
          "name": "oracle",
          "type": "address"
        },
        {
          "internalType": "bool",
          "name": "status",
          "type": "bool"
        }
      ],
      "name": "setOnboardQueuerStatus",
      "outputs": [],
      "stateMutability": "nonpayable",
      "type": "function"
    },
    {
      "inputs": [
        {
          "internalType": "address",
          "name": "oracle",
          "type": "address"
        },
        {
          "internalType": "bool",
          "name": "status",
          "type": "bool"
        }
      ],
      "name": "setOnboardRegistrarStatus",
      "outputs": [],
      "stateMutability": "nonpayable",
      "type": "function"
    },
    {
      "inputs": [
        {
          "internalType": "address",
          "name": "_player",
          "type": "address"
        },
        {
          "internalType": "bool",
          "name": "_status",
          "type": "bool"
        }
      ],
      "name": "setTourneyModStatus",
      "outputs": [],
      "stateMutability": "nonpayable",
      "type": "function"
    },
    {
      "inputs": [
        {
          "internalType": "address",
          "name": "validator",
          "type": "address"
        },
        {
          "internalType": "bool",
          "name": "status",
          "type": "bool"
        }
      ],
      "name": "setValidatorStatus",
      "outputs": [],
      "stateMutability": "nonpayable",
      "type": "function"
    },
    {
      "inputs": [
        {
          "internalType": "bytes32[2][256]",
          "name": "currentpub",
          "type": "bytes32[2][256]"
        },
        {
          "internalType": "bytes[256]",
          "name": "sig",
          "type": "bytes[256]"
        },
        {
          "internalType": "bytes32",
          "name": "nextPKH",
          "type": "bytes32"
        },
        {
          "internalType": "address",
          "name": "_anonIDContract",
          "type": "address"
        }
      ],
      "name": "updateAnonIDContractAddressStepOne",
      "outputs": [],
      "stateMutability": "nonpayable",
      "type": "function"
    },
    {
      "inputs": [
        {
          "internalType": "bytes32[2][256]",
          "name": "currentpub",
          "type": "bytes32[2][256]"
        },
        {
          "internalType": "bytes[256]",
          "name": "sig",
          "type": "bytes[256]"
        },
        {
          "internalType": "bytes32",
          "name": "nextPKH",
          "type": "bytes32"
        },
        {
          "internalType": "address",
          "name": "_anonIDContract",
          "type": "address"
        }
      ],
      "name": "updateAnonIDContractAddressStepTwo",
      "outputs": [],
      "stateMutability": "nonpayable",
      "type": "function"
    },
    {
      "inputs": [
        {
          "internalType": "bytes32[2][256]",
          "name": "currentpub",
          "type": "bytes32[2][256]"
        },
        {
          "internalType": "bytes[256]",
          "name": "sig",
          "type": "bytes[256]"
        },
        {
          "internalType": "bytes32",
          "name": "nextPKH",
          "type": "bytes32"
        },
        {
          "internalType": "address",
          "name": "_forumContract",
          "type": "address"
        }
      ],
      "name": "updateForumContractAddressStepOne",
      "outputs": [],
      "stateMutability": "nonpayable",
      "type": "function"
    },
    {
      "inputs": [
        {
          "internalType": "bytes32[2][256]",
          "name": "currentpub",
          "type": "bytes32[2][256]"
        },
        {
          "internalType": "bytes[256]",
          "name": "sig",
          "type": "bytes[256]"
        },
        {
          "internalType": "bytes32",
          "name": "nextPKH",
          "type": "bytes32"
        },
        {
          "internalType": "address",
          "name": "_forumContract",
          "type": "address"
        }
      ],
      "name": "updateForumContractAddressStepTwo",
      "outputs": [],
      "stateMutability": "nonpayable",
      "type": "function"
    },
    {
      "inputs": [
        {
          "internalType": "string",
          "name": "serverIP",
          "type": "string"
        },
        {
          "internalType": "bool",
          "name": "add",
          "type": "bool"
        },
        {
          "internalType": "bytes32[2][256]",
          "name": "currentpub",
          "type": "bytes32[2][256]"
        },
        {
          "internalType": "bytes[256]",
          "name": "sig",
          "type": "bytes[256]"
        },
        {
          "internalType": "bytes32",
          "name": "nextPKH",
          "type": "bytes32"
        }
      ],
      "name": "updateGameServerIP",
      "outputs": [],
      "stateMutability": "nonpayable",
      "type": "function"
    },
    {
      "inputs": [
        {
          "internalType": "bytes32[2][256]",
          "name": "currentpub",
          "type": "bytes32[2][256]"
        },
        {
          "internalType": "bytes[256]",
          "name": "sig",
          "type": "bytes[256]"
        },
        {
          "internalType": "bytes32",
          "name": "nextPKH",
          "type": "bytes32"
        },
        {
          "internalType": "address",
          "name": "_gameValContract",
          "type": "address"
        }
      ],
      "name": "updateGameValContractAddressStepOne",
      "outputs": [],
      "stateMutability": "nonpayable",
      "type": "function"
    },
    {
      "inputs": [
        {
          "internalType": "bytes32[2][256]",
          "name": "currentpub",
          "type": "bytes32[2][256]"
        },
        {
          "internalType": "bytes[256]",
          "name": "sig",
          "type": "bytes[256]"
        },
        {
          "internalType": "bytes32",
          "name": "nextPKH",
          "type": "bytes32"
        },
        {
          "internalType": "address",
          "name": "_gameValContract",
          "type": "address"
        }
      ],
      "name": "updateGameValContractAddressStepTwo",
      "outputs": [],
      "stateMutability": "nonpayable",
      "type": "function"
    },
    {
      "inputs": [
        {
          "internalType": "bytes32[2][256]",
          "name": "currentpub",
          "type": "bytes32[2][256]"
        },
        {
          "internalType": "bytes[256]",
          "name": "sig",
          "type": "bytes[256]"
        },
        {
          "internalType": "bytes32",
          "name": "nextPKH",
          "type": "bytes32"
        },
        {
          "internalType": "address",
          "name": "_onrampContract",
          "type": "address"
        }
      ],
      "name": "updateOnrampContractAddressStepOne",
      "outputs": [],
      "stateMutability": "nonpayable",
      "type": "function"
    },
    {
      "inputs": [
        {
          "internalType": "bytes32[2][256]",
          "name": "currentpub",
          "type": "bytes32[2][256]"
        },
        {
          "internalType": "bytes[256]",
          "name": "sig",
          "type": "bytes[256]"
        },
        {
          "internalType": "bytes32",
          "name": "nextPKH",
          "type": "bytes32"
        },
        {
          "internalType": "address",
          "name": "_onrampContract",
          "type": "address"
        }
      ],
      "name": "updateOnrampContractAddressStepTwo",
      "outputs": [],
      "stateMutability": "nonpayable",
      "type": "function"
    }
  ],
  "bytecode": "60c0604052600360809081526254464360e81b60a05260079062000024908262000128565b50601180546001600160a01b03191673b3830ae69ee5962355e84f6bbac274ff337960e51790553480156200005857600080fd5b50601154600f80546001600160a01b0319166001600160a01b03909216919091179055620001f4565b634e487b7160e01b600052604160045260246000fd5b600181811c90821680620000ac57607f821691505b602082108103620000cd57634e487b7160e01b600052602260045260246000fd5b50919050565b601f82111562000123576000816000526020600020601f850160051c81016020861015620000fe5750805b601f850160051c820191505b818110156200011f578281556001016200010a565b5050505b505050565b81516001600160401b0381111562000144576200014462000081565b6200015c8162000155845462000097565b84620000d3565b602080601f8311600181146200019457600084156200017b5750858301515b600019600386901b1c1916600185901b1785556200011f565b600085815260208120601f198616915b82811015620001c557888601518255948401946001909101908401620001a4565b5085821015620001e45787850151600019600388901b60f8161c191681555b5050505050600190811b01905550565b613c2780620002046000396000f3fe608060405234801561001057600080fd5b50600436106102485760003560e01c80638098dcff1161013b578063bb517946116100b8578063e9fc174e1161007c578063e9fc174e1461063e578063f107f87714610651578063f34c9fbe14610664578063fa6f393614610677578063facd743b146106a957600080fd5b8063bb517946146105a1578063c3c5a547146105b4578063d90afa2b146105e0578063da76a700146105f3578063dd62ed3e1461061357600080fd5b8063ac2c34ef116100ff578063ac2c34ef1461054d578063ac4bcd0114610560578063aca2490b14610568578063aeb15a6d1461057b578063bac7e0321461058e57600080fd5b80638098dcff146104bf57806385d8f13d146104d4578063862dfd3e146104f4578063910fcd5a1461050757806395df06401461051a57600080fd5b806334a88c5b116101c9578063573088da1161018d578063573088da146103e25780635889fb34146104175780635d3f33961461042a57806370a082311461045e5780637f97ecc31461048c57600080fd5b806334a88c5b1461032a57806338a0b5c6146103525780633fe7829f14610390578063424aeded146103a357806356bf7b57146103cf57600080fd5b80631ccee0cc116102105780631ccee0cc146102cb57806325aacfa3146102de578063285edaa6146102f15780632b864feb1461030457806330a3db7e1461031757600080fd5b806302b8c2611461024d57806307fd3bbf1461026257806312243b671461027557806315c6aee2146102885780631881f255146102b8575b600080fd5b61026061025b366004612f68565b6106da565b005b610260610270366004612fc3565b610786565b610260610283366004613030565b6108d1565b61029b610296366004613052565b610aae565b6040516001600160a01b0390911681526020015b60405180910390f35b6102606102c636600461306b565b610ad8565b6102606102d9366004612fc3565b610b63565b6102606102ec366004612fc3565b610dba565b6102606102ff366004612f68565b610f05565b610260610312366004612fc3565b610fae565b61026061032536600461314c565b611104565b61033d610338366004613030565b611599565b604080519283526020830191909152016102af565b6103806103603660046131e3565b805160208183018101805160008252928201919093012091525460ff1681565b60405190151581526020016102af565b600d5461029b906001600160a01b031681565b6103b66103b1366004613030565b61162b565b6040516102af9d9c9b9a99989796959493929190613270565b600f5461029b906001600160a01b031681565b6103806103f0366004613030565b6001600160a01b031660009081526009602052604090205465010000000000900460ff1690565b610260610425366004612f68565b6117c3565b610380610438366004613030565b6001600160a01b0316600090815260096020526040902054640100000000900460ff1690565b61047e61046c366004613030565b60016020526000908152604090205481565b6040519081526020016102af565b61038061049a366004613030565b6001600160a01b0316600090815260096020526040902054600160301b900460ff1690565b6104c761185b565b6040516102af919061330e565b6104e76104e2366004613372565b6119b9565b6040516102af919061343b565b600c5461029b906001600160a01b031681565b610260610515366004613488565b611e6a565b610380610528366004613030565b6001600160a01b03166000908152600960205260409020546301000000900460ff1690565b61026061055b366004612f68565b6121e3565b6104c7612289565b610260610576366004612f68565b612362565b610260610589366004612fc3565b612401565b61026061059c366004612fc3565b61264e565b600e5461029b906001600160a01b031681565b6103806105c2366004613030565b6001600160a01b031660009081526009602052604090205460ff1690565b6102606105ee366004612fc3565b6128a3565b610606610601366004613052565b612998565b6040516102af919061351e565b61047e610621366004613531565b600260209081526000928352604080842090915290825290205481565b61026061064c366004612f68565b612a44565b600b5461029b906001600160a01b031681565b610260610672366004612fc3565b612af9565b610380610685366004613030565b6001600160a01b031660009081526009602052604090205462010000900460ff1690565b6103806106b7366004613030565b6001600160a01b0316600090815260096020526040902054610100900460ff1690565b600d546001600160a01b0316331461074d5760405162461bcd60e51b81526020600482015260396024820152600080516020613bd283398151915260448201527f6e6765204f6e626f61726420517565756572207374617475730000000000000060648201526084015b60405180910390fd5b6001600160a01b0390911660009081526009602052604090208054911515650100000000000265ff000000000019909216919091179055565b6000816040516020016107999190613564565b60408051601f1981840301815290829052600f5463333f611160e01b83529092506000916001600160a01b039091169063333f6111906107e39089908990899088906004016135aa565b6020604051808303816000875af1158015610802573d6000803e3d6000fd5b505050506040513d601f19601f82011682018060405250810190610826919061368b565b90508061089b5760405162461bcd60e51b815260206004820152603960248201527f417574686f72697a6174696f6e206661696c656420666f72207570646174696e60448201527f67204f6e72616d7020636f6e74726163742061646472657373000000000000006064820152608401610744565b505033600090815260056020526040902080546001600160a01b0319166001600160a01b03929092169190911790556010555050565b600d546001600160a01b0316331461093f5760405162461bcd60e51b815260206004820152602b60248201527f4f6e6c7920746865206f6e72616d7020636f6e74726163742063616e2064656c60448201526a65746520706c617965727360a81b6064820152608401610744565b6001600160a01b0381166000908152600960205260408120805466ffffffffffffff19168155906109736001830182612ee8565b600282016000905560038201600061098b9190612ee8565b506004810180546001600160a01b031916905560006005820181905560069091018190555b600a54811015610aaa57816001600160a01b0316600a82815481106109d7576109d76136a8565b6000918252602090912001546001600160a01b031603610aa257600a8054610a01906001906136be565b81548110610a1157610a116136a8565b600091825260209091200154600a80546001600160a01b039092169183908110610a3d57610a3d6136a8565b9060005260206000200160006101000a8154816001600160a01b0302191690836001600160a01b03160217905550600a805480610a7c57610a7c6136df565b600082815260209020810160001990810180546001600160a01b03191690550190555050565b6001016109b0565b5050565b600a8181548110610abe57600080fd5b6000918252602090912001546001600160a01b0316905081565b600e546001600160a01b03163314610b445760405162461bcd60e51b815260206004820152602960248201527f4f6e6c792074686520666f72756d20636f6e74726163742063616e2073657420604482015268666f72756d206b657960b81b6064820152608401610744565b6001600160a01b03909116600090815260096020526040902060020155565b600081604051602001610b769190613564565b60408051808303601f19018152918152336000908152600560205220549091506001600160a01b03838116911614610c005760405162461bcd60e51b815260206004820152602760248201527f4f6e72616d7020636f6e7472616374206164647265737320757064617465206d6044820152660d2e6dac2e8c6d60cb1b6064820152608401610744565b600085604051602001610c1391906136f5565b6040516020818303038152906040528051906020012090508060105403610c4c5760405162461bcd60e51b81526004016107449061372c565b600f5460405163333f611160e01b81526000916001600160a01b03169063333f611190610c83908a908a908a9089906004016135aa565b6020604051808303816000875af1158015610ca2573d6000803e3d6000fd5b505050506040513d601f19601f82011682018060405250810190610cc6919061368b565b905080610d4a5760405162461bcd60e51b815260206004820152604660248201527f417574686f72697a6174696f6e206661696c6564206f6e20636f6e6669726d6160448201527f74696f6e206f66204f6e72616d7020636f6e747261637420616464726573732060648201526575706461746560d01b608482015260a401610744565b600d80546001600160a01b0319166001600160a01b0386169081179091556040517f5959e7554218adbe3edb157f744a698c903698e2be92d199d2938afb8b0312ab90600090a2505033600090815260056020526040812080546001600160a01b03191690556010555050505050565b600081604051602001610dcd9190613564565b60408051601f1981840301815290829052600f5463333f611160e01b83529092506000916001600160a01b039091169063333f611190610e179089908990899088906004016135aa565b6020604051808303816000875af1158015610e36573d6000803e3d6000fd5b505050506040513d601f19601f82011682018060405250810190610e5a919061368b565b905080610ecf5760405162461bcd60e51b815260206004820152603a60248201527f417574686f72697a6174696f6e206661696c656420666f722070726f706f736560448201527f642047616d6556616c20636f6e747261637420616464726573730000000000006064820152608401610744565b505033600090815260046020526040902080546001600160a01b0319166001600160a01b03929092169190911790556010555050565b600e546001600160a01b03163314610f7b5760405162461bcd60e51b815260206004820152603360248201527f4f6e6c792074686520666f72756d20636f6e74726163742063616e206d6f64696044820152726679206d6f64657261746f722073746174757360681b6064820152608401610744565b6001600160a01b0390911660009081526009602052604090208054911515620100000262ff000019909216919091179055565b600081604051602001610fc19190613564565b60408051601f1981840301815290829052600f5463333f611160e01b83529092506000916001600160a01b039091169063333f61119061100b9089908990899088906004016135aa565b6020604051808303816000875af115801561102a573d6000803e3d6000fd5b505050506040513d601f19601f8201168201806040525081019061104e919061368b565b9050806110ce5760405162461bcd60e51b815260206004820152604260248201527f417574686f72697a6174696f6e206661696c656420666f722070726f706f736560448201527f6420757064617465206f6620466f72756d20636f6e7472616374206164647265606482015261737360f01b608482015260a401610744565b505033600090815260066020526040902080546001600160a01b0319166001600160a01b03929092169190911790556010555050565b600d546001600160a01b031633146111765760405162461bcd60e51b815260206004820152602f60248201527f4f6e6c7920746865206f6e72616d7020636f6e74726163742063616e2061646460448201526e2f75706461746520706c617965727360881b6064820152608401610744565b600c54604051633af32abf60e01b81526001600160a01b03888116600483015290911690633af32abf90602401602060405180830381865afa1580156111c0573d6000803e3d6000fd5b505050506040513d601f19601f820116820180604052508101906111e4919061368b565b61123a5760405162461bcd60e51b815260206004820152602160248201527f41646472657373206e6f742077686974656c697374656420696e20416e6f6e496044820152601160fa1b6064820152608401610744565b6001600160a01b0386166000908152600960205260409020805460ff16156112ea576003810161126a8782613818565b50600181016112798682613818565b506001600160a01b038216156112ab576004810180546001600160a01b0319166001600160a01b0384161790556112c9565b6004810180546001600160a01b0319166001600160a01b0389161790555b83156112d757600581018490555b82156112e557600681018390555b611590565b831515806112f757508215155b61135b5760405162461bcd60e51b815260206004820152602f60248201527f4f7261636c65206b657920696e6465782063616e6e6f74206265207a65726f2060448201526e666f72206e657720706c617965727360881b6064820152608401610744565b604051806101a001604052806001151581526020016000151581526020016000151581526020016000151581526020016000151581526020016000151581526020016000151581526020018681526020016000801b8152602001878152602001886001600160a01b031681526020018581526020018481525060096000896001600160a01b03166001600160a01b0316815260200190815260200160002060008201518160000160006101000a81548160ff02191690831515021790555060208201518160000160016101000a81548160ff02191690831515021790555060408201518160000160026101000a81548160ff02191690831515021790555060608201518160000160036101000a81548160ff02191690831515021790555060808201518160000160046101000a81548160ff02191690831515021790555060a08201518160000160056101000a81548160ff02191690831515021790555060c08201518160000160066101000a81548160ff02191690831515021790555060e08201518160010190816114ee9190613818565b506101008201516002820155610120820151600382019061150f9082613818565b506101408201516004820180546001600160a01b03199081166001600160a01b0393841617909155610160840151600584015561018090930151600690920191909155600a80546001810182556000919091527fc65a7bb8d6351c1cf70c95a316cc6a92839c986682d98bc35f958f4883f9d2a80180549092169089161790555b50505050505050565b6001600160a01b038116600090815260096020526040812054819060ff166116035760405162461bcd60e51b815260206004820152601860248201527f506c61796572206973206e6f74207265676973746572656400000000000000006044820152606401610744565b50506001600160a01b0316600090815260096020526040902060058101546006909101549091565b6009602052600090815260409020805460018201805460ff808416946101008504821694620100008104831694630100000082048416946401000000008304851694650100000000008404811694600160301b9094041692919061168e90613793565b80601f01602080910402602001604051908101604052809291908181526020018280546116ba90613793565b80156117075780601f106116dc57610100808354040283529160200191611707565b820191906000526020600020905b8154815290600101906020018083116116ea57829003601f168201915b50505050509080600201549080600301805461172290613793565b80601f016020809104026020016040519081016040528092919081815260200182805461174e90613793565b801561179b5780601f106117705761010080835404028352916020019161179b565b820191906000526020600020905b81548152906001019060200180831161177e57829003601f168201915b505050506004830154600584015460069094015492936001600160a01b03909116929091508d565b600d546001600160a01b031633146118245760405162461bcd60e51b81526020600482015260306024820152600080516020613bd283398151915260448201526f6e67652041646d696e2073746174757360801b6064820152608401610744565b6001600160a01b03909116600090815260096020526040902080549115156401000000000264ff0000000019909216919091179055565b600a5460609060009067ffffffffffffffff81111561187c5761187c613095565b6040519080825280602002602001820160405280156118af57816020015b606081526020019060019003908161189a5790505b50905060005b600a548110156119b357600060096000600a84815481106118d8576118d86136a8565b60009182526020808320909101546001600160a01b0316835282019290925260400190206001810180549192509061190f90613793565b80601f016020809104026020016040519081016040528092919081815260200182805461193b90613793565b80156119885780601f1061195d57610100808354040283529160200191611988565b820191906000526020600020905b81548152906001019060200180831161196b57829003601f168201915b505050505083838151811061199f5761199f6136a8565b6020908102919091010152506001016118b5565b50919050565b600b546060906001600160a01b03163314611a345760405162461bcd60e51b815260206004820152603560248201527f4f6e6c79207468652067616d652076616c696461746f7220636f6e74726163746044820152740818d85b881858d8d95cdcc81d1a1a5cc81b1a5cdd605a1b6064820152608401610744565b6000835167ffffffffffffffff811115611a5057611a50613095565b604051908082528060200260200182016040528015611a79578160200160208202803683370190505b50905060005b8451811015611e605760005b600a54811015611e5757858281518110611aa757611aa76136a8565b6020026020010151604051602001611abf91906138d8565b6040516020818303038152906040528051906020012060096000600a8481548110611aec57611aec6136a8565b60009182526020808320909101546001600160a01b0316835282810193909352604091820190209051611b269260019290920191016138f4565b6040516020818303038152906040528051906020012003611e4f57600c54600a80546000926001600160a01b031691635a725b07916007919086908110611b6f57611b6f6136a8565b6000918252602090912001546040516001600160e01b031960e085901b168152611ba692916001600160a01b0316906004016139e7565b602060405180830381865afa158015611bc3573d6000803e3d6000fd5b505050506040513d601f19601f82011682018060405250810190611be79190613a11565b90508060ff16600203611da85760096000600a8481548110611c0b57611c0b6136a8565b60009182526020808320909101546001600160a01b0390811684529083019390935260409091019020600401548551911690859085908110611c4f57611c4f6136a8565b6001600160a01b03909216602092830291909101909101526000611c74603c88613a34565b600c54600a80549293506001600160a01b039091169163d47b2e99919086908110611ca157611ca16136a8565b60009182526020909120015460405160e083901b6001600160e01b03191681526001600160a01b03909116600482015260248101849052604401600060405180830381600087803b158015611cf557600080fd5b505af1158015611d09573d6000803e3d6000fd5b5050600c54600a80546001600160a01b039092169350632eb4b54f92509086908110611d3757611d376136a8565b6000918252602090912001546040516001600160e01b031960e084901b168152611d70916001600160a01b031690600790600401613a56565b600060405180830381600087803b158015611d8a57600080fd5b505af1158015611d9e573d6000803e3d6000fd5b5050505050611e49565b8060ff16600003611e4957600c54600a80546001600160a01b0390921691632eb4b54f919085908110611ddd57611ddd6136a8565b6000918252602090912001546040516001600160e01b031960e084901b168152611e16916001600160a01b031690600790600401613a56565b600060405180830381600087803b158015611e3057600080fd5b505af1158015611e44573d6000803e3d6000fd5b505050505b50611e57565b600101611a8b565b50600101611a7f565b5090505b92915050565b600083604051602001611e7d91906136f5565b60408051808303601f19018152908290528051602090910120600f5463b9d57c5f60e01b8352600483018290529092506000916001600160a01b039091169063b9d57c5f90602401606060405180830381865afa158015611ee2573d6000803e3d6000fd5b505050506040513d601f19601f82011682018060405250810190611f069190613a7a565b92505050600080611f1633611599565b9150915081831480611f2757508083145b611f845760405162461bcd60e51b815260206004820152602860248201527f43616c6c65722773206f7261636c65206b657920696e64657820646f6573206e6044820152670dee840dac2e8c6d60c31b6064820152608401610744565b33600090815260096020526040902054640100000000900460ff16611feb5760405162461bcd60e51b815260206004820152601a60248201527f43616c6c6572206973206e6f7420612067616d652061646d696e0000000000006044820152606401610744565b600f546040516001600160a01b0390911690634a89d52b90899089908990612017908f906020016138d8565b6040516020818303038152906040526040518563ffffffff1660e01b815260040161204594939291906135aa565b6020604051808303816000875af1158015612064573d6000803e3d6000fd5b505050506040513d601f19601f82011682018060405250810190612088919061368b565b6120d45760405162461bcd60e51b815260206004820152601b60248201527f4c616d706f7274206f7261636c6520636865636b206661696c656400000000006044820152606401610744565b8715612176576000896040516120ea91906138d8565b9081526040519081900360200190205460ff1661217157600160008a60405161211391906138d8565b908152604051908190036020019020805491151560ff19909216919091179055600880546001810182556000919091527ff3f7a9fe364faab93b216da50a3214154f22a0a2b415b23a84c8169e8b636ee30161216f8a82613818565b505b6121d8565b60008960405161218691906138d8565b9081526040519081900360200190205460ff16156121d8576000808a6040516121af91906138d8565b908152604051908190036020019020805491151560ff199092169190911790556121d889612d45565b505050505050505050565b600d546001600160a01b031633146122515760405162461bcd60e51b815260206004820152603c6024820152600080516020613bd283398151915260448201527f6e6765204f6e626f6172642052656769737472617220537461747573000000006064820152608401610744565b6001600160a01b0390911660009081526009602052604090208054911515600160301b0266ff00000000000019909216919091179055565b60606008805480602002602001604051908101604052809291908181526020016000905b828210156123595783829060005260206000200180546122cc90613793565b80601f01602080910402602001604051908101604052809291908181526020018280546122f890613793565b80156123455780601f1061231a57610100808354040283529160200191612345565b820191906000526020600020905b81548152906001019060200180831161232857829003601f168201915b5050505050815260200190600101906122ad565b50505050905090565b600d546001600160a01b031633146123d05760405162461bcd60e51b81526020600482015260396024820152600080516020613bd283398151915260448201527f6e67652047616d652056616c696461746f7220737461747573000000000000006064820152608401610744565b6001600160a01b03909116600090815260096020526040902080549115156101000261ff0019909216919091179055565b6000816040516020016124149190613564565b60408051808303601f19018152918152336000908152600460205220549091506001600160a01b038381169116146124a15760405162461bcd60e51b815260206004820152602a60248201527f50726f706f7365642047616d6556616c20636f6e7472616374206164647265736044820152690e640dad2e6dac2e8c6d60b31b6064820152608401610744565b6000856040516020016124b491906136f5565b60405160208183030381529060405280519060200120905080601054036124ed5760405162461bcd60e51b81526004016107449061372c565b600f5460405163333f611160e01b81526000916001600160a01b03169063333f611190612524908a908a908a9089906004016135aa565b6020604051808303816000875af1158015612543573d6000803e3d6000fd5b505050506040513d601f19601f82011682018060405250810190612567919061368b565b9050806125de576040805162461bcd60e51b81526020600482015260248101919091527f417574686f72697a6174696f6e206661696c6564206f6e20636f6e6669726d6160448201527f74696f6e206f662047616d6556616c20636f6e747261637420616464726573736064820152608401610744565b600b80546001600160a01b0319166001600160a01b0386169081179091556040517f6f1895f9314e8b91a7a1c3a67319510d05c9d6729515f83cc2eaca70d3e81f8790600090a2505033600090815260046020526040812080546001600160a01b03191690556010555050505050565b6000816040516020016126619190613564565b60408051808303601f19018152918152336000908152600660205220549091506001600160a01b038381169116146126ea5760405162461bcd60e51b815260206004820152602660248201527f466f72756d20636f6e7472616374206164647265737320757064617465206d696044820152650e6dac2e8c6d60d31b6064820152608401610744565b6000856040516020016126fd91906136f5565b60405160208183030381529060405280519060200120905080601054036127365760405162461bcd60e51b81526004016107449061372c565b600f5460405163333f611160e01b81526000916001600160a01b03169063333f61119061276d908a908a908a9089906004016135aa565b6020604051808303816000875af115801561278c573d6000803e3d6000fd5b505050506040513d601f19601f820116820180604052508101906127b0919061368b565b9050806128335760405162461bcd60e51b815260206004820152604560248201527f417574686f72697a6174696f6e206661696c6564206f6e20636f6e6669726d6160448201527f74696f6e206f6620466f72756d20636f6e747261637420616464726573732075606482015264706461746560d81b608482015260a401610744565b600e80546001600160a01b0319166001600160a01b0386169081179091556040517f78e5262e53e14d17b3058c6b8cf7cd3c2fb92a4172fa393fddd75cb57523b1c690600090a2505033600090815260066020526040812080546001600160a01b03191690556010555050505050565b6000816040516020016128b69190613564565b60408051601f1981840301815290829052600f5463333f611160e01b83529092506000916001600160a01b039091169063333f6111906129009089908990899088906004016135aa565b6020604051808303816000875af115801561291f573d6000803e3d6000fd5b505050506040513d601f19601f82011682018060405250810190612943919061368b565b9050806129625760405162461bcd60e51b815260040161074490613ab5565b505033600090815260036020526040902080546001600160a01b0319166001600160a01b03929092169190911790556010555050565b600881815481106129a857600080fd5b9060005260206000200160009150905080546129c390613793565b80601f01602080910402602001604051908101604052809291908181526020018280546129ef90613793565b8015612a3c5780601f10612a1157610100808354040283529160200191612a3c565b820191906000526020600020905b815481529060010190602001808311612a1f57829003601f168201915b505050505081565b600e546001600160a01b03163314612ac45760405162461bcd60e51b815260206004820152603e60248201527f4f6e6c792074686520666f72756d20636f6e74726163742063616e206d6f646960448201527f667920746f75726e616d656e74206d6f64657261746f722073746174757300006064820152608401610744565b6001600160a01b039091166000908152600960205260409020805491151563010000000263ff00000019909216919091179055565b600081604051602001612b0c9190613564565b60408051808303601f19018152918152336000908152600360205220549091506001600160a01b03838116911614612b985760405162461bcd60e51b815260206004820152602960248201527f50726f706f73656420416e6f6e494420636f6e74726163742061646472657373604482015268040dad2e6dac2e8c6d60bb1b6064820152608401610744565b600085604051602001612bab91906136f5565b6040516020818303038152906040528051906020012090508060105403612c3c576040805162461bcd60e51b81526020600482015260248101919091527f4c616d706f7274426173653a20504b48206d617463686573206c61737420757360448201527f656420504b482028757365207365706172617465207365636f6e64206b6579296064820152608401610744565b600f5460405163333f611160e01b81526000916001600160a01b03169063333f611190612c73908a908a908a9089906004016135aa565b6020604051808303816000875af1158015612c92573d6000803e3d6000fd5b505050506040513d601f19601f82011682018060405250810190612cb6919061368b565b905080612cd55760405162461bcd60e51b815260040161074490613ab5565b600c80546001600160a01b0319166001600160a01b0386169081179091556040517febc4468d0c46ed1b5177ed98bdb5d4ccfc7dd4f9da4caa02b6fd46b1e7be0d4e90600090a2505033600090815260036020526040812080546001600160a01b03191690556010555050505050565b33600090815260096020526040902054640100000000900460ff16612dac5760405162461bcd60e51b815260206004820152601a60248201527f43616c6c6572206973206e6f7420612067616d652061646d696e0000000000006044820152606401610744565b60005b600854811015610aaa5781604051602001612dca91906138d8565b6040516020818303038152906040528051906020012060088281548110612df357612df36136a8565b90600052602060002001604051602001612e0d91906138f4565b6040516020818303038152906040528051906020012003612ee05760008083604051612e3991906138d8565b908152604051908190036020019020805491151560ff1990921691909117905560088054612e69906001906136be565b81548110612e7957612e796136a8565b9060005260206000200160088281548110612e9657612e966136a8565b906000526020600020019081612eac9190613af6565b506008805480612ebe57612ebe6136df565b600190038181906000526020600020016000612eda9190612ee8565b90555050565b600101612daf565b508054612ef490613793565b6000825580601f10612f04575050565b601f016020900490600052602060002090810190612f229190612f25565b50565b5b80821115612f3a5760008155600101612f26565b5090565b80356001600160a01b0381168114612f5557600080fd5b919050565b8015158114612f2257600080fd5b60008060408385031215612f7b57600080fd5b612f8483612f3e565b91506020830135612f9481612f5a565b809150509250929050565b806140008101831015611e6457600080fd5b806120008101831015611e6457600080fd5b6000806000806140608587031215612fda57600080fd5b612fe48686612f9f565b935061400085013567ffffffffffffffff81111561300157600080fd5b61300d87828801612fb1565b93505061402085013591506130256140408601612f3e565b905092959194509250565b60006020828403121561304257600080fd5b61304b82612f3e565b9392505050565b60006020828403121561306457600080fd5b5035919050565b6000806040838503121561307e57600080fd5b61308783612f3e565b946020939093013593505050565b634e487b7160e01b600052604160045260246000fd5b604051601f8201601f1916810167ffffffffffffffff811182821017156130d4576130d4613095565b604052919050565b600082601f8301126130ed57600080fd5b813567ffffffffffffffff81111561310757613107613095565b61311a601f8201601f19166020016130ab565b81815284602083860101111561312f57600080fd5b816020850160208301376000918101602001919091529392505050565b60008060008060008060c0878903121561316557600080fd5b61316e87612f3e565b9550602087013567ffffffffffffffff8082111561318b57600080fd5b6131978a838b016130dc565b965060408901359150808211156131ad57600080fd5b506131ba89828a016130dc565b94505060608701359250608087013591506131d760a08801612f3e565b90509295509295509295565b6000602082840312156131f557600080fd5b813567ffffffffffffffff81111561320c57600080fd5b613218848285016130dc565b949350505050565b60005b8381101561323b578181015183820152602001613223565b50506000910152565b6000815180845261325c816020860160208601613220565b601f01601f19169290920160200192915050565b8d151581528c151560208201528b1515604082015260006101a08c151560608401528b151560808401528a151560a084015289151560c08401528060e08401526132bc8184018a613244565b9050876101008401528281036101208401526132d88188613244565b9150506132f16101408301866001600160a01b03169052565b61016082019390935261018001529b9a5050505050505050505050565b600060208083016020845280855180835260408601915060408160051b87010192506020870160005b8281101561336557603f19888603018452613353858351613244565b94509285019290850190600101613337565b5092979650505050505050565b6000806040838503121561338557600080fd5b823567ffffffffffffffff8082111561339d57600080fd5b818501915085601f8301126133b157600080fd5b81356020828211156133c5576133c5613095565b8160051b6133d48282016130ab565b928352848101820192828101908a8511156133ee57600080fd5b83870192505b8483101561342a5782358681111561340c5760008081fd5b61341a8c86838b01016130dc565b83525091830191908301906133f4565b9a9890920135985050505050505050565b6020808252825182820181905260009190848201906040850190845b8181101561347c5783516001600160a01b031683529284019291840191600101613457565b50909695505050505050565b600080600080600061408086880312156134a157600080fd5b853567ffffffffffffffff808211156134b957600080fd5b6134c589838a016130dc565b9650602088013591506134d782612f5a565b8195506134e78960408a01612f9f565b94506140408801359150808211156134fe57600080fd5b5061350b88828901612fb1565b9598949750929561406001359392505050565b60208152600061304b6020830184613244565b6000806040838503121561354457600080fd5b61354d83612f3e565b915061355b60208401612f3e565b90509250929050565b60609190911b6bffffffffffffffffffffffff1916815260140190565b81835281816020850137506000828201602090810191909152601f909101601f19169091010190565b60006140608281018388845b6101008110156135d7576040808385379283019291909101906001016135b6565b50505061400084019190915261606083018660005b6101008110156136635785830361405f190184528135368a9003601e1901811261361557600080fd5b8901602081810191359067ffffffffffffffff82111561363457600080fd5b81360383131561364357600080fd5b61364e868385613581565b968101969550939093019250506001016135ec565b50508561402085015283810361404085015261367f8186613244565b98975050505050505050565b60006020828403121561369d57600080fd5b815161304b81612f5a565b634e487b7160e01b600052603260045260246000fd5b81810381811115611e6457634e487b7160e01b600052601160045260246000fd5b634e487b7160e01b600052603160045260246000fd5b60008183825b61010081101561371c576040808385379283019291909101906001016136fb565b5050506140008201905092915050565b60208082526041908201527f53616d6520504b48207573656420666f7220626f74682073746570733b20757360408201527f652061207365706172617465206b657920666f7220636f6e6669726d6174696f6060820152603760f91b608082015260a00190565b600181811c908216806137a757607f821691505b6020821081036119b357634e487b7160e01b600052602260045260246000fd5b601f821115613813576000816000526020600020601f850160051c810160208610156137f05750805b601f850160051c820191505b8181101561380f578281556001016137fc565b5050505b505050565b815167ffffffffffffffff81111561383257613832613095565b613846816138408454613793565b846137c7565b602080601f83116001811461387b57600084156138635750858301515b600019600386901b1c1916600185901b17855561380f565b600085815260208120601f198616915b828110156138aa5788860151825594840194600190910190840161388b565b50858210156138c85787850151600019600388901b60f8161c191681555b5050505050600190811b01905550565b600082516138ea818460208701613220565b9190910192915050565b600080835461390281613793565b6001828116801561391a576001811461392f5761395e565b60ff198416875282151583028701945061395e565b8760005260208060002060005b858110156139555781548a82015290840190820161393c565b50505082870194505b50929695505050505050565b6000815461397781613793565b80855260206001838116801561399457600181146139ae576139dc565b60ff1985168884015283151560051b8801830195506139dc565b866000528260002060005b858110156139d45781548a82018601529083019084016139b9565b890184019650505b505050505092915050565b6040815260006139fa604083018561396a565b905060018060a01b03831660208301529392505050565b600060208284031215613a2357600080fd5b815160ff8116811461304b57600080fd5b600082613a5157634e487b7160e01b600052601260045260246000fd5b500490565b6001600160a01b03831681526040602082018190526000906132189083018461396a565b600080600060608486031215613a8f57600080fd5b835160038110613a9e57600080fd5b602085015160409095015190969495509392505050565b60208082526021908201527f4c616d706f7274426173653a20417574686f72697a6174696f6e206661696c656040820152601960fa1b606082015260800190565b818103613b01575050565b613b0b8254613793565b67ffffffffffffffff811115613b2357613b23613095565b613b31816138408454613793565b6000601f821160018114613b655760008315613b4d5750848201545b600019600385901b1c1916600184901b178455613bca565b600085815260209020601f19841690600086815260209020845b83811015613b9f5782860154825560019586019590910190602001613b7f565b5085831015613bbd5781850154600019600388901b60f8161c191681555b50505060018360011b0184555b505050505056fe4f6e6c7920746865206f6e72616d7020636f6e74726163742063616e20636861a2646970667358221220f56e59c66c436de20a35de990cce88e8681de612e2f3eba8f11df613aae4262064736f6c63430008180033",
  "bytecodeSha1": "c6244f610bd7b910d7052e5bf8dee5cc85460caa",
  "compiler": {
    "evm_version": "istanbul",
    "optimizer": {
      "enabled": true,
      "runs": 200
    },
    "version": "0.8.24+commit.e11b9ed9"
  },
  "contractName": "PlayerDatabase",
  "language": "Solidity",
  "natspec": {
    "kind": "dev",
    "methods": {},
    "version": 1
  },
  "opcodes": "PUSH1 0x80 PUSH1 0x40 MSTORE CALLVALUE DUP1 ISZERO PUSH2 0x10 JUMPI PUSH1 0x0 DUP1 REVERT JUMPDEST POP PUSH1 0x4 CALLDATASIZE LT PUSH2 0x248 JUMPI PUSH1 0x0 CALLDATALOAD PUSH1 0xE0 SHR DUP1 PUSH4 0x8098DCFF GT PUSH2 0x13B JUMPI DUP1 PUSH4 0xBB517946 GT PUSH2 0xB8 JUMPI DUP1 PUSH4 0xE9FC174E GT PUSH2 0x7C JUMPI DUP1 PUSH4 0xE9FC174E EQ PUSH2 0x63E JUMPI DUP1 PUSH4 0xF107F877 EQ PUSH2 0x651 JUMPI DUP1 PUSH4 0xF34C9FBE EQ PUSH2 0x664 JUMPI DUP1 PUSH4 0xFA6F3936 EQ PUSH2 0x677 JUMPI DUP1 PUSH4 0xFACD743B EQ PUSH2 0x6A9 JUMPI PUSH1 0x0 DUP1 REVERT JUMPDEST DUP1 PUSH4 0xBB517946 EQ PUSH2 0x5A1 JUMPI DUP1 PUSH4 0xC3C5A547 EQ PUSH2 0x5B4 JUMPI DUP1 PUSH4 0xD90AFA2B EQ PUSH2 0x5E0 JUMPI DUP1 PUSH4 0xDA76A700 EQ PUSH2 0x5F3 JUMPI DUP1 PUSH4 0xDD62ED3E EQ PUSH2 0x613 JUMPI PUSH1 0x0 DUP1 REVERT JUMPDEST DUP1 PUSH4 0xAC2C34EF GT PUSH2 0xFF JUMPI DUP1 PUSH4 0xAC2C34EF EQ PUSH2 0x54D JUMPI DUP1 PUSH4 0xAC4BCD01 EQ PUSH2 0x560 JUMPI DUP1 PUSH4 0xACA2490B EQ PUSH2 0x568 JUMPI DUP1 PUSH4 0xAEB15A6D EQ PUSH2 0x57B JUMPI DUP1 PUSH4 0xBAC7E032 EQ PUSH2 0x58E JUMPI PUSH1 0x0 DUP1 REVERT JUMPDEST DUP1 PUSH4 0x8098DCFF EQ PUSH2 0x4BF JUMPI DUP1 PUSH4 0x85D8F13D EQ PUSH2 0x4D4 JUMPI DUP1 PUSH4 0x862DFD3E EQ PUSH2 0x4F4 JUMPI DUP1 PUSH4 0x910FCD5A EQ PUSH2 0x507 JUMPI DUP1 PUSH4 0x95DF0640 EQ PUSH2 0x51A JUMPI PUSH1 0x0 DUP1 REVERT JUMPDEST DUP1 PUSH4 0x34A88C5B GT PUSH2 0x1C9 JUMPI DUP1 PUSH4 0x573088DA GT PUSH2 0x18D JUMPI DUP1 PUSH4 0x573088DA EQ PUSH2 0x3E2 JUMPI DUP1 PUSH4 0x5889FB34 EQ PUSH2 0x417 JUMPI DUP1 PUSH4 0x5D3F3396 EQ PUSH2 0x42A JUMPI DUP1 PUSH4 0x70A08231 EQ PUSH2 0x45E JUMPI DUP1 PUSH4 0x7F97ECC3 EQ PUSH2 0x48C JUMPI PUSH1 0x0 DUP1 REVERT JUMPDEST DUP1 PUSH4 0x34A88C5B EQ PUSH2 0x32A JUMPI DUP1 PUSH4 0x38A0B5C6 EQ PUSH2 0x352 JUMPI DUP1 PUSH4 0x3FE7829F EQ PUSH2 0x390 JUMPI DUP1 PUSH4 0x424AEDED EQ PUSH2 0x3A3 JUMPI DUP1 PUSH4 0x56BF7B57 EQ PUSH2 0x3CF JUMPI PUSH1 0x0 DUP1 REVERT JUMPDEST DUP1 PUSH4 0x1CCEE0CC GT PUSH2 0x210 JUMPI DUP1 PUSH4 0x1CCEE0CC EQ PUSH2 0x2CB JUMPI DUP1 PUSH4 0x25AACFA3 EQ PUSH2 0x2DE JUMPI DUP1 PUSH4 0x285EDAA6 EQ PUSH2 0x2F1 JUMPI DUP1 PUSH4 0x2B864FEB EQ PUSH2 0x304 JUMPI DUP1 PUSH4 0x30A3DB7E EQ PUSH2 0x317 JUMPI PUSH1 0x0 DUP1 REVERT JUMPDEST DUP1 PUSH4 0x2B8C261 EQ PUSH2 0x24D JUMPI DUP1 PUSH4 0x7FD3BBF EQ PUSH2 0x262 JUMPI DUP1 PUSH4 0x12243B67 EQ PUSH2 0x275 JUMPI DUP1 PUSH4 0x15C6AEE2 EQ PUSH2 0x288 JUMPI DUP1 PUSH4 0x1881F255 EQ PUSH2 0x2B8 JUMPI JUMPDEST PUSH1 0x0 DUP1 REVERT JUMPDEST PUSH2 0x260 PUSH2 0x25B CALLDATASIZE PUSH1 0x4 PUSH2 0x2F68 JUMP JUMPDEST PUSH2 0x6DA JUMP JUMPDEST STOP JUMPDEST PUSH2 0x260 PUSH2 0x270 CALLDATASIZE PUSH1 0x4 PUSH2 0x2FC3 JUMP JUMPDEST PUSH2 0x786 JUMP JUMPDEST PUSH2 0x260 PUSH2 0x283 CALLDATASIZE PUSH1 0x4 PUSH2 0x3030 JUMP JUMPDEST PUSH2 0x8D1 JUMP JUMPDEST PUSH2 0x29B PUSH2 0x296 CALLDATASIZE PUSH1 0x4 PUSH2 0x3052 JUMP JUMPDEST PUSH2 0xAAE JUMP JUMPDEST PUSH1 0x40 MLOAD PUSH1 0x1 PUSH1 0x1 PUSH1 0xA0 SHL SUB SWAP1 SWAP2 AND DUP2 MSTORE PUSH1 0x20 ADD JUMPDEST PUSH1 0x40 MLOAD DUP1 SWAP2 SUB SWAP1 RETURN JUMPDEST PUSH2 0x260 PUSH2 0x2C6 CALLDATASIZE PUSH1 0x4 PUSH2 0x306B JUMP JUMPDEST PUSH2 0xAD8 JUMP JUMPDEST PUSH2 0x260 PUSH2 0x2D9 CALLDATASIZE PUSH1 0x4 PUSH2 0x2FC3 JUMP JUMPDEST PUSH2 0xB63 JUMP JUMPDEST PUSH2 0x260 PUSH2 0x2EC CALLDATASIZE PUSH1 0x4 PUSH2 0x2FC3 JUMP JUMPDEST PUSH2 0xDBA JUMP JUMPDEST PUSH2 0x260 PUSH2 0x2FF CALLDATASIZE PUSH1 0x4 PUSH2 0x2F68 JUMP JUMPDEST PUSH2 0xF05 JUMP JUMPDEST PUSH2 0x260 PUSH2 0x312 CALLDATASIZE PUSH1 0x4 PUSH2 0x2FC3 JUMP JUMPDEST PUSH2 0xFAE JUMP JUMPDEST PUSH2 0x260 PUSH2 0x325 CALLDATASIZE PUSH1 0x4 PUSH2 0x314C JUMP JUMPDEST PUSH2 0x1104 JUMP JUMPDEST PUSH2 0x33D PUSH2 0x338 CALLDATASIZE PUSH1 0x4 PUSH2 0x3030 JUMP JUMPDEST PUSH2 0x1599 JUMP JUMPDEST PUSH1 0x40 DUP1 MLOAD SWAP3 DUP4 MSTORE PUSH1 0x20 DUP4 ADD SWAP2 SWAP1 SWAP2 MSTORE ADD PUSH2 0x2AF JUMP JUMPDEST PUSH2 0x380 PUSH2 0x360 CALLDATASIZE PUSH1 0x4 PUSH2 0x31E3 JUMP JUMPDEST DUP1 MLOAD PUSH1 0x20 DUP2 DUP4 ADD DUP2 ADD DUP1 MLOAD PUSH1 0x0 DUP3 MSTORE SWAP3 DUP3 ADD SWAP2 SWAP1 SWAP4 ADD KECCAK256 SWAP2 MSTORE SLOAD PUSH1 0xFF AND DUP2 JUMP JUMPDEST PUSH1 0x40 MLOAD SWAP1 ISZERO ISZERO DUP2 MSTORE PUSH1 0x20 ADD PUSH2 0x2AF JUMP JUMPDEST PUSH1 0xD SLOAD PUSH2 0x29B SWAP1 PUSH1 0x1 PUSH1 0x1 PUSH1 0xA0 SHL SUB AND DUP2 JUMP JUMPDEST PUSH2 0x3B6 PUSH2 0x3B1 CALLDATASIZE PUSH1 0x4 PUSH2 0x3030 JUMP JUMPDEST PUSH2 0x162B JUMP JUMPDEST PUSH1 0x40 MLOAD PUSH2 0x2AF SWAP14 SWAP13 SWAP12 SWAP11 SWAP10 SWAP9 SWAP8 SWAP7 SWAP6 SWAP5 SWAP4 SWAP3 SWAP2 SWAP1 PUSH2 0x3270 JUMP JUMPDEST PUSH1 0xF SLOAD PUSH2 0x29B SWAP1 PUSH1 0x1 PUSH1 0x1 PUSH1 0xA0 SHL SUB AND DUP2 JUMP JUMPDEST PUSH2 0x380 PUSH2 0x3F0 CALLDATASIZE PUSH1 0x4 PUSH2 0x3030 JUMP JUMPDEST PUSH1 0x1 PUSH1 0x1 PUSH1 0xA0 SHL SUB AND PUSH1 0x0 SWAP1 DUP2 MSTORE PUSH1 0x9 PUSH1 0x20 MSTORE PUSH1 0x40 SWAP1 KECCAK256 SLOAD PUSH6 0x10000000000 SWAP1 DIV PUSH1 0xFF AND SWAP1 JUMP JUMPDEST PUSH2 0x260 PUSH2 0x425 CALLDATASIZE PUSH1 0x4 PUSH2 0x2F68 JUMP JUMPDEST PUSH2 0x17C3 JUMP JUMPDEST PUSH2 0x380 PUSH2 0x438 CALLDATASIZE PUSH1 0x4 PUSH2 0x3030 JUMP JUMPDEST PUSH1 0x1 PUSH1 0x1 PUSH1 0xA0 SHL SUB AND PUSH1 0x0 SWAP1 DUP2 MSTORE PUSH1 0x9 PUSH1 0x20 MSTORE PUSH1 0x40 SWAP1 KECCAK256 SLOAD PUSH5 0x100000000 SWAP1 DIV PUSH1 0xFF AND SWAP1 JUMP JUMPDEST PUSH2 0x47E PUSH2 0x46C CALLDATASIZE PUSH1 0x4 PUSH2 0x3030 JUMP JUMPDEST PUSH1 0x1 PUSH1 0x20 MSTORE PUSH1 0x0 SWAP1 DUP2 MSTORE PUSH1 0x40 SWAP1 KECCAK256 SLOAD DUP2 JUMP JUMPDEST PUSH1 0x40 MLOAD SWAP1 DUP2 MSTORE PUSH1 0x20 ADD PUSH2 0x2AF JUMP JUMPDEST PUSH2 0x380 PUSH2 0x49A CALLDATASIZE PUSH1 0x4 PUSH2 0x3030 JUMP JUMPDEST PUSH1 0x1 PUSH1 0x1 PUSH1 0xA0 SHL SUB AND PUSH1 0x0 SWAP1 DUP2 MSTORE PUSH1 0x9 PUSH1 0x20 MSTORE PUSH1 0x40 SWAP1 KECCAK256 SLOAD PUSH1 0x1 PUSH1 0x30 SHL SWAP1 DIV PUSH1 0xFF AND SWAP1 JUMP JUMPDEST PUSH2 0x4C7 PUSH2 0x185B JUMP JUMPDEST PUSH1 0x40 MLOAD PUSH2 0x2AF SWAP2 SWAP1 PUSH2 0x330E JUMP JUMPDEST PUSH2 0x4E7 PUSH2 0x4E2 CALLDATASIZE PUSH1 0x4 PUSH2 0x3372 JUMP JUMPDEST PUSH2 0x19B9 JUMP JUMPDEST PUSH1 0x40 MLOAD PUSH2 0x2AF SWAP2 SWAP1 PUSH2 0x343B JUMP JUMPDEST PUSH1 0xC SLOAD PUSH2 0x29B SWAP1 PUSH1 0x1 PUSH1 0x1 PUSH1 0xA0 SHL SUB AND DUP2 JUMP JUMPDEST PUSH2 0x260 PUSH2 0x515 CALLDATASIZE PUSH1 0x4 PUSH2 0x3488 JUMP JUMPDEST PUSH2 0x1E6A JUMP JUMPDEST PUSH2 0x380 PUSH2 0x528 CALLDATASIZE PUSH1 0x4 PUSH2 0x3030 JUMP JUMPDEST PUSH1 0x1 PUSH1 0x1 PUSH1 0xA0 SHL SUB AND PUSH1 0x0 SWAP1 DUP2 MSTORE PUSH1 0x9 PUSH1 0x20 MSTORE PUSH1 0x40 SWAP1 KECCAK256 SLOAD PUSH4 0x1000000 SWAP1 DIV PUSH1 0xFF AND SWAP1 JUMP JUMPDEST PUSH2 0x260 PUSH2 0x55B CALLDATASIZE PUSH1 0x4 PUSH2 0x2F68 JUMP JUMPDEST PUSH2 0x21E3 JUMP JUMPDEST PUSH2 0x4C7 PUSH2 0x2289 JUMP JUMPDEST PUSH2 0x260 PUSH2 0x576 CALLDATASIZE PUSH1 0x4 PUSH2 0x2F68 JUMP JUMPDEST PUSH2 0x2362 JUMP JUMPDEST PUSH2 0x260 PUSH2 0x589 CALLDATASIZE PUSH1 0x4 PUSH2 0x2FC3 JUMP JUMPDEST PUSH2 0x2401 JUMP JUMPDEST PUSH2 0x260 PUSH2 0x59C CALLDATASIZE PUSH1 0x4 PUSH2 0x2FC3 JUMP JUMPDEST PUSH2 0x264E JUMP JUMPDEST PUSH1 0xE SLOAD PUSH2 0x29B SWAP1 PUSH1 0x1 PUSH1 0x1 PUSH1 0xA0 SHL SUB AND DUP2 JUMP JUMPDEST PUSH2 0x380 PUSH2 0x5C2 CALLDATASIZE PUSH1 0x4 PUSH2 0x3030 JUMP JUMPDEST PUSH1 0x1 PUSH1 0x1 PUSH1 0xA0 SHL SUB AND PUSH1 0x0 SWAP1 DUP2 MSTORE PUSH1 0x9 PUSH1 0x20 MSTORE PUSH1 0x40 SWAP1 KECCAK256 SLOAD PUSH1 0xFF AND SWAP1 JUMP JUMPDEST PUSH2 0x260 PUSH2 0x5EE CALLDATASIZE PUSH1 0x4 PUSH2 0x2FC3 JUMP JUMPDEST PUSH2 0x28A3 JUMP JUMPDEST PUSH2 0x606 PUSH2 0x601 CALLDATASIZE PUSH1 0x4 PUSH2 0x3052 JUMP JUMPDEST PUSH2 0x2998 JUMP JUMPDEST PUSH1 0x40 MLOAD PUSH2 0x2AF SWAP2 SWAP1 PUSH2 0x351E JUMP JUMPDEST PUSH2 0x47E PUSH2 0x621 CALLDATASIZE PUSH1 0x4 PUSH2 0x3531 JUMP JUMPDEST PUSH1 0x2 PUSH1 0x20 SWAP1 DUP2 MSTORE PUSH1 0x0 SWAP3 DUP4 MSTORE PUSH1 0x40 DUP1 DUP5 KECCAK256 SWAP1 SWAP2 MSTORE SWAP1 DUP3 MSTORE SWAP1 KECCAK256 SLOAD DUP2 JUMP JUMPDEST PUSH2 0x260 PUSH2 0x64C CALLDATASIZE PUSH1 0x4 PUSH2 0x2F68 JUMP JUMPDEST PUSH2 0x2A44 JUMP JUMPDEST PUSH1 0xB SLOAD PUSH2 0x29B SWAP1 PUSH1 0x1 PUSH1 0x1 PUSH1 0xA0 SHL SUB AND DUP2 JUMP JUMPDEST PUSH2 0x260 PUSH2 0x672 CALLDATASIZE PUSH1 0x4 PUSH2 0x2FC3 JUMP JUMPDEST PUSH2 0x2AF9 JUMP JUMPDEST PUSH2 0x380 PUSH2 0x685 CALLDATASIZE PUSH1 0x4 PUSH2 0x3030 JUMP JUMPDEST PUSH1 0x1 PUSH1 0x1 PUSH1 0xA0 SHL SUB AND PUSH1 0x0 SWAP1 DUP2 MSTORE PUSH1 0x9 PUSH1 0x20 MSTORE PUSH1 0x40 SWAP1 KECCAK256 SLOAD PUSH3 0x10000 SWAP1 DIV PUSH1 0xFF AND SWAP1 JUMP JUMPDEST PUSH2 0x380 PUSH2 0x6B7 CALLDATASIZE PUSH1 0x4 PUSH2 0x3030 JUMP JUMPDEST PUSH1 0x1 PUSH1 0x1 PUSH1 0xA0 SHL SUB AND PUSH1 0x0 SWAP1 DUP2 MSTORE PUSH1 0x9 PUSH1 0x20 MSTORE PUSH1 0x40 SWAP1 KECCAK256 SLOAD PUSH2 0x100 SWAP1 DIV PUSH1 0xFF AND SWAP1 JUMP JUMPDEST PUSH1 0xD SLOAD PUSH1 0x1 PUSH1 0x1 PUSH1 0xA0 SHL SUB AND CALLER EQ PUSH2 0x74D JUMPI PUSH1 0x40 MLOAD PUSH3 0x461BCD PUSH1 0xE5 SHL DUP2 MSTORE PUSH1 0x20 PUSH1 0x4 DUP3 ADD MSTORE PUSH1 0x39 PUSH1 0x24 DUP3 ADD MSTORE PUSH1 0x0 DUP1 MLOAD PUSH1 0x20 PUSH2 0x3BD2 DUP4 CODECOPY DUP2 MLOAD SWAP2 MSTORE PUSH1 0x44 DUP3 ADD MSTORE PUSH32 0x6E6765204F6E626F617264205175657565722073746174757300000000000000 PUSH1 0x64 DUP3 ADD MSTORE PUSH1 0x84 ADD JUMPDEST PUSH1 0x40 MLOAD DUP1 SWAP2 SUB SWAP1 REVERT JUMPDEST PUSH1 0x1 PUSH1 0x1 PUSH1 0xA0 SHL SUB SWAP1 SWAP2 AND PUSH1 0x0 SWAP1 DUP2 MSTORE PUSH1 0x9 PUSH1 0x20 MSTORE PUSH1 0x40 SWAP1 KECCAK256 DUP1 SLOAD SWAP2 ISZERO ISZERO PUSH6 0x10000000000 MUL PUSH6 0xFF0000000000 NOT SWAP1 SWAP3 AND SWAP2 SWAP1 SWAP2 OR SWAP1 SSTORE JUMP JUMPDEST PUSH1 0x0 DUP2 PUSH1 0x40 MLOAD PUSH1 0x20 ADD PUSH2 0x799 SWAP2 SWAP1 PUSH2 0x3564 JUMP JUMPDEST PUSH1 0x40 DUP1 MLOAD PUSH1 0x1F NOT DUP2 DUP5 SUB ADD DUP2 MSTORE SWAP1 DUP3 SWAP1 MSTORE PUSH1 0xF SLOAD PUSH4 0x333F6111 PUSH1 0xE0 SHL DUP4 MSTORE SWAP1 SWAP3 POP PUSH1 0x0 SWAP2 PUSH1 0x1 PUSH1 0x1 PUSH1 0xA0 SHL SUB SWAP1 SWAP2 AND SWAP1 PUSH4 0x333F6111 SWAP1 PUSH2 0x7E3 SWAP1 DUP10 SWAP1 DUP10 SWAP1 DUP10 SWAP1 DUP9 SWAP1 PUSH1 0x4 ADD PUSH2 0x35AA JUMP JUMPDEST PUSH1 0x20 PUSH1 0x40 MLOAD DUP1 DUP4 SUB DUP2 PUSH1 0x0 DUP8 GAS CALL ISZERO DUP1 ISZERO PUSH2 0x802 JUMPI RETURNDATASIZE PUSH1 0x0 DUP1 RETURNDATACOPY RETURNDATASIZE PUSH1 0x0 REVERT JUMPDEST POP POP POP POP PUSH1 0x40 MLOAD RETURNDATASIZE PUSH1 0x1F NOT PUSH1 0x1F DUP3 ADD AND DUP3 ADD DUP1 PUSH1 0x40 MSTORE POP DUP2 ADD SWAP1 PUSH2 0x826 SWAP2 SWAP1 PUSH2 0x368B JUMP JUMPDEST SWAP1 POP DUP1 PUSH2 0x89B JUMPI PUSH1 0x40 MLOAD PUSH3 0x461BCD PUSH1 0xE5 SHL DUP2 MSTORE PUSH1 0x20 PUSH1 0x4 DUP3 ADD MSTORE PUSH1 0x39 PUSH1 0x24 DUP3 ADD MSTORE PUSH32 0x417574686F72697A6174696F6E206661696C656420666F72207570646174696E PUSH1 0x44 DUP3 ADD MSTORE PUSH32 0x67204F6E72616D7020636F6E7472616374206164647265737300000000000000 PUSH1 0x64 DUP3 ADD MSTORE PUSH1 0x84 ADD PUSH2 0x744 JUMP JUMPDEST POP POP CALLER PUSH1 0x0 SWAP1 DUP2 MSTORE PUSH1 0x5 PUSH1 0x20 MSTORE PUSH1 0x40 SWAP1 KECCAK256 DUP1 SLOAD PUSH1 0x1 PUSH1 0x1 PUSH1 0xA0 SHL SUB NOT AND PUSH1 0x1 PUSH1 0x1 PUSH1 0xA0 SHL SUB SWAP3 SWAP1 SWAP3 AND SWAP2 SWAP1 SWAP2 OR SWAP1 SSTORE PUSH1 0x10 SSTORE POP POP JUMP JUMPDEST PUSH1 0xD SLOAD PUSH1 0x1 PUSH1 0x1 PUSH1 0xA0 SHL SUB AND CALLER EQ PUSH2 0x93F JUMPI PUSH1 0x40 MLOAD PUSH3 0x461BCD PUSH1 0xE5 SHL DUP2 MSTORE PUSH1 0x20 PUSH1 0x4 DUP3 ADD MSTORE PUSH1 0x2B PUSH1 0x24 DUP3 ADD MSTORE PUSH32 0x4F6E6C7920746865206F6E72616D7020636F6E74726163742063616E2064656C PUSH1 0x44 DUP3 ADD MSTORE PUSH11 0x65746520706C6179657273 PUSH1 0xA8 SHL PUSH1 0x64 DUP3 ADD MSTORE PUSH1 0x84 ADD PUSH2 0x744 JUMP JUMPDEST PUSH1 0x1 PUSH1 0x1 PUSH1 0xA0 SHL SUB DUP2 AND PUSH1 0x0 SWAP1 DUP2 MSTORE PUSH1 0x9 PUSH1 0x20 MSTORE PUSH1 0x40 DUP2 KECCAK256 DUP1 SLOAD PUSH7 0xFFFFFFFFFFFFFF NOT AND DUP2 SSTORE SWAP1 PUSH2 0x973 PUSH1 0x1 DUP4 ADD DUP3 PUSH2 0x2EE8 JUMP JUMPDEST PUSH1 0x2 DUP3 ADD PUSH1 0x0 SWAP1 SSTORE PUSH1 0x3 DUP3 ADD PUSH1 0x0 PUSH2 0x98B SWAP2 SWAP1 PUSH2 0x2EE8 JUMP JUMPDEST POP PUSH1 0x4 DUP2 ADD DUP1 SLOAD PUSH1 0x1 PUSH1 0x1 PUSH1 0xA0 SHL SUB NOT AND SWAP1 SSTORE PUSH1 0x0 PUSH1 0x5 DUP3 ADD DUP2 SWAP1 SSTORE PUSH1 0x6 SWAP1 SWAP2 ADD DUP2 SWAP1 SSTORE JUMPDEST PUSH1 0xA SLOAD DUP2 LT ISZERO PUSH2 0xAAA JUMPI DUP2 PUSH1 0x1 PUSH1 0x1 PUSH1 0xA0 SHL SUB AND PUSH1 0xA DUP3 DUP2 SLOAD DUP2 LT PUSH2 0x9D7 JUMPI PUSH2 0x9D7 PUSH2 0x36A8 JUMP JUMPDEST PUSH1 0x0 SWAP2 DUP3 MSTORE PUSH1 0x20 SWAP1 SWAP2 KECCAK256 ADD SLOAD PUSH1 0x1 PUSH1 0x1 PUSH1 0xA0 SHL SUB AND SUB PUSH2 0xAA2 JUMPI PUSH1 0xA DUP1 SLOAD PUSH2 0xA01 SWAP1 PUSH1 0x1 SWAP1 PUSH2 0x36BE JUMP JUMPDEST DUP2 SLOAD DUP2 LT PUSH2 0xA11 JUMPI PUSH2 0xA11 PUSH2 0x36A8 JUMP JUMPDEST PUSH1 0x0 SWAP2 DUP3 MSTORE PUSH1 0x20 SWAP1 SWAP2 KECCAK256 ADD SLOAD PUSH1 0xA DUP1 SLOAD PUSH1 0x1 PUSH1 0x1 PUSH1 0xA0 SHL SUB SWAP1 SWAP3 AND SWAP2 DUP4 SWAP1 DUP2 LT PUSH2 0xA3D JUMPI PUSH2 0xA3D PUSH2 0x36A8 JUMP JUMPDEST SWAP1 PUSH1 0x0 MSTORE PUSH1 0x20 PUSH1 0x0 KECCAK256 ADD PUSH1 0x0 PUSH2 0x100 EXP DUP2 SLOAD DUP2 PUSH1 0x1 PUSH1 0x1 PUSH1 0xA0 SHL SUB MUL NOT AND SWAP1 DUP4 PUSH1 0x1 PUSH1 0x1 PUSH1 0xA0 SHL SUB AND MUL OR SWAP1 SSTORE POP PUSH1 0xA DUP1 SLOAD DUP1 PUSH2 0xA7C JUMPI PUSH2 0xA7C PUSH2 0x36DF JUMP JUMPDEST PUSH1 0x0 DUP3 DUP2 MSTORE PUSH1 0x20 SWAP1 KECCAK256 DUP2 ADD PUSH1 0x0 NOT SWAP1 DUP2 ADD DUP1 SLOAD PUSH1 0x1 PUSH1 0x1 PUSH1 0xA0 SHL SUB NOT AND SWAP1 SSTORE ADD SWAP1 SSTORE POP POP JUMP JUMPDEST PUSH1 0x1 ADD PUSH2 0x9B0 JUMP JUMPDEST POP POP JUMP JUMPDEST PUSH1 0xA DUP2 DUP2 SLOAD DUP2 LT PUSH2 0xABE JUMPI PUSH1 0x0 DUP1 REVERT JUMPDEST PUSH1 0x0 SWAP2 DUP3 MSTORE PUSH1 0x20 SWAP1 SWAP2 KECCAK256 ADD SLOAD PUSH1 0x1 PUSH1 0x1 PUSH1 0xA0 SHL SUB AND SWAP1 POP DUP2 JUMP JUMPDEST PUSH1 0xE SLOAD PUSH1 0x1 PUSH1 0x1 PUSH1 0xA0 SHL SUB AND CALLER EQ PUSH2 0xB44 JUMPI PUSH1 0x40 MLOAD PUSH3 0x461BCD PUSH1 0xE5 SHL DUP2 MSTORE PUSH1 0x20 PUSH1 0x4 DUP3 ADD MSTORE PUSH1 0x29 PUSH1 0x24 DUP3 ADD MSTORE PUSH32 0x4F6E6C792074686520666F72756D20636F6E74726163742063616E2073657420 PUSH1 0x44 DUP3 ADD MSTORE PUSH9 0x666F72756D206B6579 PUSH1 0xB8 SHL PUSH1 0x64 DUP3 ADD MSTORE PUSH1 0x84 ADD PUSH2 0x744 JUMP JUMPDEST PUSH1 0x1 PUSH1 0x1 PUSH1 0xA0 SHL SUB SWAP1 SWAP2 AND PUSH1 0x0 SWAP1 DUP2 MSTORE PUSH1 0x9 PUSH1 0x20 MSTORE PUSH1 0x40 SWAP1 KECCAK256 PUSH1 0x2 ADD SSTORE JUMP JUMPDEST PUSH1 0x0 DUP2 PUSH1 0x40 MLOAD PUSH1 0x20 ADD PUSH2 0xB76 SWAP2 SWAP1 PUSH2 0x3564 JUMP JUMPDEST PUSH1 0x40 DUP1 MLOAD DUP1 DUP4 SUB PUSH1 0x1F NOT ADD DUP2 MSTORE SWAP2 DUP2 MSTORE CALLER PUSH1 0x0 SWAP1 DUP2 MSTORE PUSH1 0x5 PUSH1 0x20 MSTORE KECCAK256 SLOAD SWAP1 SWAP2 POP PUSH1 0x1 PUSH1 0x1 PUSH1 0xA0 SHL SUB DUP4 DUP2 AND SWAP2 AND EQ PUSH2 0xC00 JUMPI PUSH1 0x40 MLOAD PUSH3 0x461BCD PUSH1 0xE5 SHL DUP2 MSTORE PUSH1 0x20 PUSH1 0x4 DUP3 ADD MSTORE PUSH1 0x27 PUSH1 0x24 DUP3 ADD MSTORE PUSH32 0x4F6E72616D7020636F6E7472616374206164647265737320757064617465206D PUSH1 0x44 DUP3 ADD MSTORE PUSH7 0xD2E6DAC2E8C6D PUSH1 0xCB SHL PUSH1 0x64 DUP3 ADD MSTORE PUSH1 0x84 ADD PUSH2 0x744 JUMP JUMPDEST PUSH1 0x0 DUP6 PUSH1 0x40 MLOAD PUSH1 0x20 ADD PUSH2 0xC13 SWAP2 SWAP1 PUSH2 0x36F5 JUMP JUMPDEST PUSH1 0x40 MLOAD PUSH1 0x20 DUP2 DUP4 SUB SUB DUP2 MSTORE SWAP1 PUSH1 0x40 MSTORE DUP1 MLOAD SWAP1 PUSH1 0x20 ADD KECCAK256 SWAP1 POP DUP1 PUSH1 0x10 SLOAD SUB PUSH2 0xC4C JUMPI PUSH1 0x40 MLOAD PUSH3 0x461BCD PUSH1 0xE5 SHL DUP2 MSTORE PUSH1 0x4 ADD PUSH2 0x744 SWAP1 PUSH2 0x372C JUMP JUMPDEST PUSH1 0xF SLOAD PUSH1 0x40 MLOAD PUSH4 0x333F6111 PUSH1 0xE0 SHL DUP2 MSTORE PUSH1 0x0 SWAP2 PUSH1 0x1 PUSH1 0x1 PUSH1 0xA0 SHL SUB AND SWAP1 PUSH4 0x333F6111 SWAP1 PUSH2 0xC83 SWAP1 DUP11 SWAP1 DUP11 SWAP1 DUP11 SWAP1 DUP10 SWAP1 PUSH1 0x4 ADD PUSH2 0x35AA JUMP JUMPDEST PUSH1 0x20 PUSH1 0x40 MLOAD DUP1 DUP4 SUB DUP2 PUSH1 0x0 DUP8 GAS CALL ISZERO DUP1 ISZERO PUSH2 0xCA2 JUMPI RETURNDATASIZE PUSH1 0x0 DUP1 RETURNDATACOPY RETURNDATASIZE PUSH1 0x0 REVERT JUMPDEST POP POP POP POP PUSH1 0x40 MLOAD RETURNDATASIZE PUSH1 0x1F NOT PUSH1 0x1F DUP3 ADD AND DUP3 ADD DUP1 PUSH1 0x40 MSTORE POP DUP2 ADD SWAP1 PUSH2 0xCC6 SWAP2 SWAP1 PUSH2 0x368B JUMP JUMPDEST SWAP1 POP DUP1 PUSH2 0xD4A JUMPI PUSH1 0x40 MLOAD PUSH3 0x461BCD PUSH1 0xE5 SHL DUP2 MSTORE PUSH1 0x20 PUSH1 0x4 DUP3 ADD MSTORE PUSH1 0x46 PUSH1 0x24 DUP3 ADD MSTORE PUSH32 0x417574686F72697A6174696F6E206661696C6564206F6E20636F6E6669726D61 PUSH1 0x44 DUP3 ADD MSTORE PUSH32 0x74696F6E206F66204F6E72616D7020636F6E7472616374206164647265737320 PUSH1 0x64 DUP3 ADD MSTORE PUSH6 0x757064617465 PUSH1 0xD0 SHL PUSH1 0x84 DUP3 ADD MSTORE PUSH1 0xA4 ADD PUSH2 0x744 JUMP JUMPDEST PUSH1 0xD DUP1 SLOAD PUSH1 0x1 PUSH1 0x1 PUSH1 0xA0 SHL SUB NOT AND PUSH1 0x1 PUSH1 0x1 PUSH1 0xA0 SHL SUB DUP7 AND SWAP1 DUP2 OR SWAP1 SWAP2 SSTORE PUSH1 0x40 MLOAD PUSH32 0x5959E7554218ADBE3EDB157F744A698C903698E2BE92D199D2938AFB8B0312AB SWAP1 PUSH1 0x0 SWAP1 LOG2 POP POP CALLER PUSH1 0x0 SWAP1 DUP2 MSTORE PUSH1 0x5 PUSH1 0x20 MSTORE PUSH1 0x40 DUP2 KECCAK256 DUP1 SLOAD PUSH1 0x1 PUSH1 0x1 PUSH1 0xA0 SHL SUB NOT AND SWAP1 SSTORE PUSH1 0x10 SSTORE POP POP POP POP POP JUMP JUMPDEST PUSH1 0x0 DUP2 PUSH1 0x40 MLOAD PUSH1 0x20 ADD PUSH2 0xDCD SWAP2 SWAP1 PUSH2 0x3564 JUMP JUMPDEST PUSH1 0x40 DUP1 MLOAD PUSH1 0x1F NOT DUP2 DUP5 SUB ADD DUP2 MSTORE SWAP1 DUP3 SWAP1 MSTORE PUSH1 0xF SLOAD PUSH4 0x333F6111 PUSH1 0xE0 SHL DUP4 MSTORE SWAP1 SWAP3 POP PUSH1 0x0 SWAP2 PUSH1 0x1 PUSH1 0x1 PUSH1 0xA0 SHL SUB SWAP1 SWAP2 AND SWAP1 PUSH4 0x333F6111 SWAP1 PUSH2 0xE17 SWAP1 DUP10 SWAP1 DUP10 SWAP1 DUP10 SWAP1 DUP9 SWAP1 PUSH1 0x4 ADD PUSH2 0x35AA JUMP JUMPDEST PUSH1 0x20 PUSH1 0x40 MLOAD DUP1 DUP4 SUB DUP2 PUSH1 0x0 DUP8 GAS CALL ISZERO DUP1 ISZERO PUSH2 0xE36 JUMPI RETURNDATASIZE PUSH1 0x0 DUP1 RETURNDATACOPY RETURNDATASIZE PUSH1 0x0 REVERT JUMPDEST POP POP POP POP PUSH1 0x40 MLOAD RETURNDATASIZE PUSH1 0x1F NOT PUSH1 0x1F DUP3 ADD AND DUP3 ADD DUP1 PUSH1 0x40 MSTORE POP DUP2 ADD SWAP1 PUSH2 0xE5A SWAP2 SWAP1 PUSH2 0x368B JUMP JUMPDEST SWAP1 POP DUP1 PUSH2 0xECF JUMPI PUSH1 0x40 MLOAD PUSH3 0x461BCD PUSH1 0xE5 SHL DUP2 MSTORE PUSH1 0x20 PUSH1 0x4 DUP3 ADD MSTORE PUSH1 0x3A PUSH1 0x24 DUP3 ADD MSTORE PUSH32 0x417574686F72697A6174696F6E206661696C656420666F722070726F706F7365 PUSH1 0x44 DUP3 ADD MSTORE PUSH32 0x642047616D6556616C20636F6E74726163742061646472657373000000000000 PUSH1 0x64 DUP3 ADD MSTORE PUSH1 0x84 ADD PUSH2 0x744 JUMP JUMPDEST POP POP CALLER PUSH1 0x0 SWAP1 DUP2 MSTORE PUSH1 0x4 PUSH1 0x20 MSTORE PUSH1 0x40 SWAP1 KECCAK256 DUP1 SLOAD PUSH1 0x1 PUSH1 0x1 PUSH1 0xA0 SHL SUB NOT AND PUSH1 0x1 PUSH1 0x1 PUSH1 0xA0 SHL SUB SWAP3 SWAP1 SWAP3 AND SWAP2 SWAP1 SWAP2 OR SWAP1 SSTORE PUSH1 0x10 SSTORE POP POP JUMP JUMPDEST PUSH1 0xE SLOAD PUSH1 0x1 PUSH1 0x1 PUSH1 0xA0 SHL SUB AND CALLER EQ PUSH2 0xF7B JUMPI PUSH1 0x40 MLOAD PUSH3 0x461BCD PUSH1 0xE5 SHL DUP2 MSTORE PUSH1 0x20 PUSH1 0x4 DUP3 ADD MSTORE PUSH1 0x33 PUSH1 0x24 DUP3 ADD MSTORE PUSH32 0x4F6E6C792074686520666F72756D20636F6E74726163742063616E206D6F6469 PUSH1 0x44 DUP3 ADD MSTORE PUSH19 0x6679206D6F64657261746F7220737461747573 PUSH1 0x68 SHL PUSH1 0x64 DUP3 ADD MSTORE PUSH1 0x84 ADD PUSH2 0x744 JUMP JUMPDEST PUSH1 0x1 PUSH1 0x1 PUSH1 0xA0 SHL SUB SWAP1 SWAP2 AND PUSH1 0x0 SWAP1 DUP2 MSTORE PUSH1 0x9 PUSH1 0x20 MSTORE PUSH1 0x40 SWAP1 KECCAK256 DUP1 SLOAD SWAP2 ISZERO ISZERO PUSH3 0x10000 MUL PUSH3 0xFF0000 NOT SWAP1 SWAP3 AND SWAP2 SWAP1 SWAP2 OR SWAP1 SSTORE JUMP JUMPDEST PUSH1 0x0 DUP2 PUSH1 0x40 MLOAD PUSH1 0x20 ADD PUSH2 0xFC1 SWAP2 SWAP1 PUSH2 0x3564 JUMP JUMPDEST PUSH1 0x40 DUP1 MLOAD PUSH1 0x1F NOT DUP2 DUP5 SUB ADD DUP2 MSTORE SWAP1 DUP3 SWAP1 MSTORE PUSH1 0xF SLOAD PUSH4 0x333F6111 PUSH1 0xE0 SHL DUP4 MSTORE SWAP1 SWAP3 POP PUSH1 0x0 SWAP2 PUSH1 0x1 PUSH1 0x1 PUSH1 0xA0 SHL SUB SWAP1 SWAP2 AND SWAP1 PUSH4 0x333F6111 SWAP1 PUSH2 0x100B SWAP1 DUP10 SWAP1 DUP10 SWAP1 DUP10 SWAP1 DUP9 SWAP1 PUSH1 0x4 ADD PUSH2 0x35AA JUMP JUMPDEST PUSH1 0x20 PUSH1 0x40 MLOAD DUP1 DUP4 SUB DUP2 PUSH1 0x0 DUP8 GAS CALL ISZERO DUP1 ISZERO PUSH2 0x102A JUMPI RETURNDATASIZE PUSH1 0x0 DUP1 RETURNDATACOPY RETURNDATASIZE PUSH1 0x0 REVERT JUMPDEST POP POP POP POP PUSH1 0x40 MLOAD RETURNDATASIZE PUSH1 0x1F NOT PUSH1 0x1F DUP3 ADD AND DUP3 ADD DUP1 PUSH1 0x40 MSTORE POP DUP2 ADD SWAP1 PUSH2 0x104E SWAP2 SWAP1 PUSH2 0x368B JUMP JUMPDEST SWAP1 POP DUP1 PUSH2 0x10CE JUMPI PUSH1 0x40 MLOAD PUSH3 0x461BCD PUSH1 0xE5 SHL DUP2 MSTORE PUSH1 0x20 PUSH1 0x4 DUP3 ADD MSTORE PUSH1 0x42 PUSH1 0x24 DUP3 ADD MSTORE PUSH32 0x417574686F72697A6174696F6E206661696C656420666F722070726F706F7365 PUSH1 0x44 DUP3 ADD MSTORE PUSH32 0x6420757064617465206F6620466F72756D20636F6E7472616374206164647265 PUSH1 0x64 DUP3 ADD MSTORE PUSH2 0x7373 PUSH1 0xF0 SHL PUSH1 0x84 DUP3 ADD MSTORE PUSH1 0xA4 ADD PUSH2 0x744 JUMP JUMPDEST POP POP CALLER PUSH1 0x0 SWAP1 DUP2 MSTORE PUSH1 0x6 PUSH1 0x20 MSTORE PUSH1 0x40 SWAP1 KECCAK256 DUP1 SLOAD PUSH1 0x1 PUSH1 0x1 PUSH1 0xA0 SHL SUB NOT AND PUSH1 0x1 PUSH1 0x1 PUSH1 0xA0 SHL SUB SWAP3 SWAP1 SWAP3 AND SWAP2 SWAP1 SWAP2 OR SWAP1 SSTORE PUSH1 0x10 SSTORE POP POP JUMP JUMPDEST PUSH1 0xD SLOAD PUSH1 0x1 PUSH1 0x1 PUSH1 0xA0 SHL SUB AND CALLER EQ PUSH2 0x1176 JUMPI PUSH1 0x40 MLOAD PUSH3 0x461BCD PUSH1 0xE5 SHL DUP2 MSTORE PUSH1 0x20 PUSH1 0x4 DUP3 ADD MSTORE PUSH1 0x2F PUSH1 0x24 DUP3 ADD MSTORE PUSH32 0x4F6E6C7920746865206F6E72616D7020636F6E74726163742063616E20616464 PUSH1 0x44 DUP3 ADD MSTORE PUSH15 0x2F75706461746520706C6179657273 PUSH1 0x88 SHL PUSH1 0x64 DUP3 ADD MSTORE PUSH1 0x84 ADD PUSH2 0x744 JUMP JUMPDEST PUSH1 0xC SLOAD PUSH1 0x40 MLOAD PUSH4 0x3AF32ABF PUSH1 0xE0 SHL DUP2 MSTORE PUSH1 0x1 PUSH1 0x1 PUSH1 0xA0 SHL SUB DUP9 DUP2 AND PUSH1 0x4 DUP4 ADD MSTORE SWAP1 SWAP2 AND SWAP1 PUSH4 0x3AF32ABF SWAP1 PUSH1 0x24 ADD PUSH1 0x20 PUSH1 0x40 MLOAD DUP1 DUP4 SUB DUP2 DUP7 GAS STATICCALL ISZERO DUP1 ISZERO PUSH2 0x11C0 JUMPI RETURNDATASIZE PUSH1 0x0 DUP1 RETURNDATACOPY RETURNDATASIZE PUSH1 0x0 REVERT JUMPDEST POP POP POP POP PUSH1 0x40 MLOAD RETURNDATASIZE PUSH1 0x1F NOT PUSH1 0x1F DUP3 ADD AND DUP3 ADD DUP1 PUSH1 0x40 MSTORE POP DUP2 ADD SWAP1 PUSH2 0x11E4 SWAP2 SWAP1 PUSH2 0x368B JUMP JUMPDEST PUSH2 0x123A JUMPI PUSH1 0x40 MLOAD PUSH3 0x461BCD PUSH1 0xE5 SHL DUP2 MSTORE PUSH1 0x20 PUSH1 0x4 DUP3 ADD MSTORE PUSH1 0x21 PUSH1 0x24 DUP3 ADD MSTORE PUSH32 0x41646472657373206E6F742077686974656C697374656420696E20416E6F6E49 PUSH1 0x44 DUP3 ADD MSTORE PUSH1 0x11 PUSH1 0xFA SHL PUSH1 0x64 DUP3 ADD MSTORE PUSH1 0x84 ADD PUSH2 0x744 JUMP JUMPDEST PUSH1 0x1 PUSH1 0x1 PUSH1 0xA0 SHL SUB DUP7 AND PUSH1 0x0 SWAP1 DUP2 MSTORE PUSH1 0x9 PUSH1 0x20 MSTORE PUSH1 0x40 SWAP1 KECCAK256 DUP1 SLOAD PUSH1 0xFF AND ISZERO PUSH2 0x12EA JUMPI PUSH1 0x3 DUP2 ADD PUSH2 0x126A DUP8 DUP3 PUSH2 0x3818 JUMP JUMPDEST POP PUSH1 0x1 DUP2 ADD PUSH2 0x1279 DUP7 DUP3 PUSH2 0x3818 JUMP JUMPDEST POP PUSH1 0x1 PUSH1 0x1 PUSH1 0xA0 SHL SUB DUP3 AND ISZERO PUSH2 0x12AB JUMPI PUSH1 0x4 DUP2 ADD DUP1 SLOAD PUSH1 0x1 PUSH1 0x1 PUSH1 0xA0 SHL SUB NOT AND PUSH1 0x1 PUSH1 0x1 PUSH1 0xA0 SHL SUB DUP5 AND OR SWAP1 SSTORE PUSH2 0x12C9 JUMP JUMPDEST PUSH1 0x4 DUP2 ADD DUP1 SLOAD PUSH1 0x1 PUSH1 0x1 PUSH1 0xA0 SHL SUB NOT AND PUSH1 0x1 PUSH1 0x1 PUSH1 0xA0 SHL SUB DUP10 AND OR SWAP1 SSTORE JUMPDEST DUP4 ISZERO PUSH2 0x12D7 JUMPI PUSH1 0x5 DUP2 ADD DUP5 SWAP1 SSTORE JUMPDEST DUP3 ISZERO PUSH2 0x12E5 JUMPI PUSH1 0x6 DUP2 ADD DUP4 SWAP1 SSTORE JUMPDEST PUSH2 0x1590 JUMP JUMPDEST DUP4 ISZERO ISZERO DUP1 PUSH2 0x12F7 JUMPI POP DUP3 ISZERO ISZERO JUMPDEST PUSH2 0x135B JUMPI PUSH1 0x40 MLOAD PUSH3 0x461BCD PUSH1 0xE5 SHL DUP2 MSTORE PUSH1 0x20 PUSH1 0x4 DUP3 ADD MSTORE PUSH1 0x2F PUSH1 0x24 DUP3 ADD MSTORE PUSH32 0x4F7261636C65206B657920696E6465782063616E6E6F74206265207A65726F20 PUSH1 0x44 DUP3 ADD MSTORE PUSH15 0x666F72206E657720706C6179657273 PUSH1 0x88 SHL PUSH1 0x64 DUP3 ADD MSTORE PUSH1 0x84 ADD PUSH2 0x744 JUMP JUMPDEST PUSH1 0x40 MLOAD DUP1 PUSH2 0x1A0 ADD PUSH1 0x40 MSTORE DUP1 PUSH1 0x1 ISZERO ISZERO DUP2 MSTORE PUSH1 0x20 ADD PUSH1 0x0 ISZERO ISZERO DUP2 MSTORE PUSH1 0x20 ADD PUSH1 0x0 ISZERO ISZERO DUP2 MSTORE PUSH1 0x20 ADD PUSH1 0x0 ISZERO ISZERO DUP2 MSTORE PUSH1 0x20 ADD PUSH1 0x0 ISZERO ISZERO DUP2 MSTORE PUSH1 0x20 ADD PUSH1 0x0 ISZERO ISZERO DUP2 MSTORE PUSH1 0x20 ADD PUSH1 0x0 ISZERO ISZERO DUP2 MSTORE PUSH1 0x20 ADD DUP7 DUP2 MSTORE PUSH1 0x20 ADD PUSH1 0x0 DUP1 SHL DUP2 MSTORE PUSH1 0x20 ADD DUP8 DUP2 MSTORE PUSH1 0x20 ADD DUP9 PUSH1 0x1 PUSH1 0x1 PUSH1 0xA0 SHL SUB AND DUP2 MSTORE PUSH1 0x20 ADD DUP6 DUP2 MSTORE PUSH1 0x20 ADD DUP5 DUP2 MSTORE POP PUSH1 0x9 PUSH1 0x0 DUP10 PUSH1 0x1 PUSH1 0x1 PUSH1 0xA0 SHL SUB AND PUSH1 0x1 PUSH1 0x1 PUSH1 0xA0 SHL SUB AND DUP2 MSTORE PUSH1 0x20 ADD SWAP1 DUP2 MSTORE PUSH1 0x20 ADD PUSH1 0x0 KECCAK256 PUSH1 0x0 DUP3 ADD MLOAD DUP2 PUSH1 0x0 ADD PUSH1 0x0 PUSH2 0x100 EXP DUP2 SLOAD DUP2 PUSH1 0xFF MUL NOT AND SWAP1 DUP4 ISZERO ISZERO MUL OR SWAP1 SSTORE POP PUSH1 0x20 DUP3 ADD MLOAD DUP2 PUSH1 0x0 ADD PUSH1 0x1 PUSH2 0x100 EXP DUP2 SLOAD DUP2 PUSH1 0xFF MUL NOT AND SWAP1 DUP4 ISZERO ISZERO MUL OR SWAP1 SSTORE POP PUSH1 0x40 DUP3 ADD MLOAD DUP2 PUSH1 0x0 ADD PUSH1 0x2 PUSH2 0x100 EXP DUP2 SLOAD DUP2 PUSH1 0xFF MUL NOT AND SWAP1 DUP4 ISZERO ISZERO MUL OR SWAP1 SSTORE POP PUSH1 0x60 DUP3 ADD MLOAD DUP2 PUSH1 0x0 ADD PUSH1 0x3 PUSH2 0x100 EXP DUP2 SLOAD DUP2 PUSH1 0xFF MUL NOT AND SWAP1 DUP4 ISZERO ISZERO MUL OR SWAP1 SSTORE POP PUSH1 0x80 DUP3 ADD MLOAD DUP2 PUSH1 0x0 ADD PUSH1 0x4 PUSH2 0x100 EXP DUP2 SLOAD DUP2 PUSH1 0xFF MUL NOT AND SWAP1 DUP4 ISZERO ISZERO MUL OR SWAP1 SSTORE POP PUSH1 0xA0 DUP3 ADD MLOAD DUP2 PUSH1 0x0 ADD PUSH1 0x5 PUSH2 0x100 EXP DUP2 SLOAD DUP2 PUSH1 0xFF MUL NOT AND SWAP1 DUP4 ISZERO ISZERO MUL OR SWAP1 SSTORE POP PUSH1 0xC0 DUP3 ADD MLOAD DUP2 PUSH1 0x0 ADD PUSH1 0x6 PUSH2 0x100 EXP DUP2 SLOAD DUP2 PUSH1 0xFF MUL NOT AND SWAP1 DUP4 ISZERO ISZERO MUL OR SWAP1 SSTORE POP PUSH1 0xE0 DUP3 ADD MLOAD DUP2 PUSH1 0x1 ADD SWAP1 DUP2 PUSH2 0x14EE SWAP2 SWAP1 PUSH2 0x3818 JUMP JUMPDEST POP PUSH2 0x100 DUP3 ADD MLOAD PUSH1 0x2 DUP3 ADD SSTORE PUSH2 0x120 DUP3 ADD MLOAD PUSH1 0x3 DUP3 ADD SWAP1 PUSH2 0x150F SWAP1 DUP3 PUSH2 0x3818 JUMP JUMPDEST POP PUSH2 0x140 DUP3 ADD MLOAD PUSH1 0x4 DUP3 ADD DUP1 SLOAD PUSH1 0x1 PUSH1 0x1 PUSH1 0xA0 SHL SUB NOT SWAP1 DUP2 AND PUSH1 0x1 PUSH1 0x1 PUSH1 0xA0 SHL SUB SWAP4 DUP5 AND OR SWAP1 SWAP2 SSTORE PUSH2 0x160 DUP5 ADD MLOAD PUSH1 0x5 DUP5 ADD SSTORE PUSH2 0x180 SWAP1 SWAP4 ADD MLOAD PUSH1 0x6 SWAP1 SWAP3 ADD SWAP2 SWAP1 SWAP2 SSTORE PUSH1 0xA DUP1 SLOAD PUSH1 0x1 DUP2 ADD DUP3 SSTORE PUSH1 0x0 SWAP2 SWAP1 SWAP2 MSTORE PUSH32 0xC65A7BB8D6351C1CF70C95A316CC6A92839C986682D98BC35F958F4883F9D2A8 ADD DUP1 SLOAD SWAP1 SWAP3 AND SWAP1 DUP10 AND OR SWAP1 SSTORE JUMPDEST POP POP POP POP POP POP POP JUMP JUMPDEST PUSH1 0x1 PUSH1 0x1 PUSH1 0xA0 SHL SUB DUP2 AND PUSH1 0x0 SWAP1 DUP2 MSTORE PUSH1 0x9 PUSH1 0x20 MSTORE PUSH1 0x40 DUP2 KECCAK256 SLOAD DUP2 SWAP1 PUSH1 0xFF AND PUSH2 0x1603 JUMPI PUSH1 0x40 MLOAD PUSH3 0x461BCD PUSH1 0xE5 SHL DUP2 MSTORE PUSH1 0x20 PUSH1 0x4 DUP3 ADD MSTORE PUSH1 0x18 PUSH1 0x24 DUP3 ADD MSTORE PUSH32 0x506C61796572206973206E6F7420726567697374657265640000000000000000 PUSH1 0x44 DUP3 ADD MSTORE PUSH1 0x64 ADD PUSH2 0x744 JUMP JUMPDEST POP POP PUSH1 0x1 PUSH1 0x1 PUSH1 0xA0 SHL SUB AND PUSH1 0x0 SWAP1 DUP2 MSTORE PUSH1 0x9 PUSH1 0x20 MSTORE PUSH1 0x40 SWAP1 KECCAK256 PUSH1 0x5 DUP2 ADD SLOAD PUSH1 0x6 SWAP1 SWAP2 ADD SLOAD SWAP1 SWAP2 JUMP JUMPDEST PUSH1 0x9 PUSH1 0x20 MSTORE PUSH1 0x0 SWAP1 DUP2 MSTORE PUSH1 0x40 SWAP1 KECCAK256 DUP1 SLOAD PUSH1 0x1 DUP3 ADD DUP1 SLOAD PUSH1 0xFF DUP1 DUP5 AND SWAP5 PUSH2 0x100 DUP6 DIV DUP3 AND SWAP5 PUSH3 0x10000 DUP2 DIV DUP4 AND SWAP5 PUSH4 0x1000000 DUP3 DIV DUP5 AND SWAP5 PUSH5 0x100000000 DUP4 DIV DUP6 AND SWAP5 PUSH6 0x10000000000 DUP5 DIV DUP2 AND SWAP5 PUSH1 0x1 PUSH1 0x30 SHL SWAP1 SWAP5 DIV AND SWAP3 SWAP2 SWAP1 PUSH2 0x168E SWAP1 PUSH2 0x3793 JUMP JUMPDEST DUP1 PUSH1 0x1F ADD PUSH1 0x20 DUP1 SWAP2 DIV MUL PUSH1 0x20 ADD PUSH1 0x40 MLOAD SWAP1 DUP2 ADD PUSH1 0x40 MSTORE DUP1 SWAP3 SWAP2 SWAP1 DUP2 DUP2 MSTORE PUSH1 0x20 ADD DUP3 DUP1 SLOAD PUSH2 0x16BA SWAP1 PUSH2 0x3793 JUMP JUMPDEST DUP1 ISZERO PUSH2 0x1707 JUMPI DUP1 PUSH1 0x1F LT PUSH2 0x16DC JUMPI PUSH2 0x100 DUP1 DUP4 SLOAD DIV MUL DUP4 MSTORE SWAP2 PUSH1 0x20 ADD SWAP2 PUSH2 0x1707 JUMP JUMPDEST DUP3 ADD SWAP2 SWAP1 PUSH1 0x0 MSTORE PUSH1 0x20 PUSH1 0x0 KECCAK256 SWAP1 JUMPDEST DUP2 SLOAD DUP2 MSTORE SWAP1 PUSH1 0x1 ADD SWAP1 PUSH1 0x20 ADD DUP1 DUP4 GT PUSH2 0x16EA JUMPI DUP3 SWAP1 SUB PUSH1 0x1F AND DUP3 ADD SWAP2 JUMPDEST POP POP POP POP POP SWAP1 DUP1 PUSH1 0x2 ADD SLOAD SWAP1 DUP1 PUSH1 0x3 ADD DUP1 SLOAD PUSH2 0x1722 SWAP1 PUSH2 0x3793 JUMP JUMPDEST DUP1 PUSH1 0x1F ADD PUSH1 0x20 DUP1 SWAP2 DIV MUL PUSH1 0x20 ADD PUSH1 0x40 MLOAD SWAP1 DUP2 ADD PUSH1 0x40 MSTORE DUP1 SWAP3 SWAP2 SWAP1 DUP2 DUP2 MSTORE PUSH1 0x20 ADD DUP3 DUP1 SLOAD PUSH2 0x174E SWAP1 PUSH2 0x3793 JUMP JUMPDEST DUP1 ISZERO PUSH2 0x179B JUMPI DUP1 PUSH1 0x1F LT PUSH2 0x1770 JUMPI PUSH2 0x100 DUP1 DUP4 SLOAD DIV MUL DUP4 MSTORE SWAP2 PUSH1 0x20 ADD SWAP2 PUSH2 0x179B JUMP JUMPDEST DUP3 ADD SWAP2 SWAP1 PUSH1 0x0 MSTORE PUSH1 0x20 PUSH1 0x0 KECCAK256 SWAP1 JUMPDEST DUP2 SLOAD DUP2 MSTORE SWAP1 PUSH1 0x1 ADD SWAP1 PUSH1 0x20 ADD DUP1 DUP4 GT PUSH2 0x177E JUMPI DUP3 SWAP1 SUB PUSH1 0x1F AND DUP3 ADD SWAP2 JUMPDEST POP POP POP POP PUSH1 0x4 DUP4 ADD SLOAD PUSH1 0x5 DUP5 ADD SLOAD PUSH1 0x6 SWAP1 SWAP5 ADD SLOAD SWAP3 SWAP4 PUSH1 0x1 PUSH1 0x1 PUSH1 0xA0 SHL SUB SWAP1 SWAP2 AND SWAP3 SWAP1 SWAP2 POP DUP14 JUMP JUMPDEST PUSH1 0xD SLOAD PUSH1 0x1 PUSH1 0x1 PUSH1 0xA0 SHL SUB AND CALLER EQ PUSH2 0x1824 JUMPI PUSH1 0x40 MLOAD PUSH3 0x461BCD PUSH1 0xE5 SHL DUP2 MSTORE PUSH1 0x20 PUSH1 0x4 DUP3 ADD MSTORE PUSH1 0x30 PUSH1 0x24 DUP3 ADD MSTORE PUSH1 0x0 DUP1 MLOAD PUSH1 0x20 PUSH2 0x3BD2 DUP4 CODECOPY DUP2 MLOAD SWAP2 MSTORE PUSH1 0x44 DUP3 ADD MSTORE PUSH16 0x6E67652041646D696E20737461747573 PUSH1 0x80 SHL PUSH1 0x64 DUP3 ADD MSTORE PUSH1 0x84 ADD PUSH2 0x744 JUMP JUMPDEST PUSH1 0x1 PUSH1 0x1 PUSH1 0xA0 SHL SUB SWAP1 SWAP2 AND PUSH1 0x0 SWAP1 DUP2 MSTORE PUSH1 0x9 PUSH1 0x20 MSTORE PUSH1 0x40 SWAP1 KECCAK256 DUP1 SLOAD SWAP2 ISZERO ISZERO PUSH5 0x100000000 MUL PUSH5 0xFF00000000 NOT SWAP1 SWAP3 AND SWAP2 SWAP1 SWAP2 OR SWAP1 SSTORE JUMP JUMPDEST PUSH1 0xA SLOAD PUSH1 0x60 SWAP1 PUSH1 0x0 SWAP1 PUSH8 0xFFFFFFFFFFFFFFFF DUP2 GT ISZERO PUSH2 0x187C JUMPI PUSH2 0x187C PUSH2 0x3095 JUMP JUMPDEST PUSH1 0x40 MLOAD SWAP1 DUP1 DUP3 MSTORE DUP1 PUSH1 0x20 MUL PUSH1 0x20 ADD DUP3 ADD PUSH1 0x40 MSTORE DUP1 ISZERO PUSH2 0x18AF JUMPI DUP2 PUSH1 0x20 ADD JUMPDEST PUSH1 0x60 DUP2 MSTORE PUSH1 0x20 ADD SWAP1 PUSH1 0x1 SWAP1 SUB SWAP1 DUP2 PUSH2 0x189A JUMPI SWAP1 POP JUMPDEST POP SWAP1 POP PUSH1 0x0 JUMPDEST PUSH1 0xA SLOAD DUP2 LT ISZERO PUSH2 0x19B3 JUMPI PUSH1 0x0 PUSH1 0x9 PUSH1 0x0 PUSH1 0xA DUP5 DUP2 SLOAD DUP2 LT PUSH2 0x18D8 JUMPI PUSH2 0x18D8 PUSH2 0x36A8 JUMP JUMPDEST PUSH1 0x0 SWAP2 DUP3 MSTORE PUSH1 0x20 DUP1 DUP4 KECCAK256 SWAP1 SWAP2 ADD SLOAD PUSH1 0x1 PUSH1 0x1 PUSH1 0xA0 SHL SUB AND DUP4 MSTORE DUP3 ADD SWAP3 SWAP1 SWAP3 MSTORE PUSH1 0x40 ADD SWAP1 KECCAK256 PUSH1 0x1 DUP2 ADD DUP1 SLOAD SWAP2 SWAP3 POP SWAP1 PUSH2 0x190F SWAP1 PUSH2 0x3793 JUMP JUMPDEST DUP1 PUSH1 0x1F ADD PUSH1 0x20 DUP1 SWAP2 DIV MUL PUSH1 0x20 ADD PUSH1 0x40 MLOAD SWAP1 DUP2 ADD PUSH1 0x40 MSTORE DUP1 SWAP3 SWAP2 SWAP1 DUP2 DUP2 MSTORE PUSH1 0x20 ADD DUP3 DUP1 SLOAD PUSH2 0x193B SWAP1 PUSH2 0x3793 JUMP JUMPDEST DUP1 ISZERO PUSH2 0x1988 JUMPI DUP1 PUSH1 0x1F LT PUSH2 0x195D JUMPI PUSH2 0x100 DUP1 DUP4 SLOAD DIV MUL DUP4 MSTORE SWAP2 PUSH1 0x20 ADD SWAP2 PUSH2 0x1988 JUMP JUMPDEST DUP3 ADD SWAP2 SWAP1 PUSH1 0x0 MSTORE PUSH1 0x20 PUSH1 0x0 KECCAK256 SWAP1 JUMPDEST DUP2 SLOAD DUP2 MSTORE SWAP1 PUSH1 0x1 ADD SWAP1 PUSH1 0x20 ADD DUP1 DUP4 GT PUSH2 0x196B JUMPI DUP3 SWAP1 SUB PUSH1 0x1F AND DUP3 ADD SWAP2 JUMPDEST POP POP POP POP POP DUP4 DUP4 DUP2 MLOAD DUP2 LT PUSH2 0x199F JUMPI PUSH2 0x199F PUSH2 0x36A8 JUMP JUMPDEST PUSH1 0x20 SWAP1 DUP2 MUL SWAP2 SWAP1 SWAP2 ADD ADD MSTORE POP PUSH1 0x1 ADD PUSH2 0x18B5 JUMP JUMPDEST POP SWAP2 SWAP1 POP JUMP JUMPDEST PUSH1 0xB SLOAD PUSH1 0x60 SWAP1 PUSH1 0x1 PUSH1 0x1 PUSH1 0xA0 SHL SUB AND CALLER EQ PUSH2 0x1A34 JUMPI PUSH1 0x40 MLOAD PUSH3 0x461BCD PUSH1 0xE5 SHL DUP2 MSTORE PUSH1 0x20 PUSH1 0x4 DUP3 ADD MSTORE PUSH1 0x35 PUSH1 0x24 DUP3 ADD MSTORE PUSH32 0x4F6E6C79207468652067616D652076616C696461746F7220636F6E7472616374 PUSH1 0x44 DUP3 ADD MSTORE PUSH21 0x818D85B881858D8D95CDCC81D1A1A5CC81B1A5CDD PUSH1 0x5A SHL PUSH1 0x64 DUP3 ADD MSTORE PUSH1 0x84 ADD PUSH2 0x744 JUMP JUMPDEST PUSH1 0x0 DUP4 MLOAD PUSH8 0xFFFFFFFFFFFFFFFF DUP2 GT ISZERO PUSH2 0x1A50 JUMPI PUSH2 0x1A50 PUSH2 0x3095 JUMP JUMPDEST PUSH1 0x40 MLOAD SWAP1 DUP1 DUP3 MSTORE DUP1 PUSH1 0x20 MUL PUSH1 0x20 ADD DUP3 ADD PUSH1 0x40 MSTORE DUP1 ISZERO PUSH2 0x1A79 JUMPI DUP2 PUSH1 0x20 ADD PUSH1 0x20 DUP3 MUL DUP1 CALLDATASIZE DUP4 CALLDATACOPY ADD SWAP1 POP JUMPDEST POP SWAP1 POP PUSH1 0x0 JUMPDEST DUP5 MLOAD DUP2 LT ISZERO PUSH2 0x1E60 JUMPI PUSH1 0x0 JUMPDEST PUSH1 0xA SLOAD DUP2 LT ISZERO PUSH2 0x1E57 JUMPI DUP6 DUP3 DUP2 MLOAD DUP2 LT PUSH2 0x1AA7 JUMPI PUSH2 0x1AA7 PUSH2 0x36A8 JUMP JUMPDEST PUSH1 0x20 MUL PUSH1 0x20 ADD ADD MLOAD PUSH1 0x40 MLOAD PUSH1 0x20 ADD PUSH2 0x1ABF SWAP2 SWAP1 PUSH2 0x38D8 JUMP JUMPDEST PUSH1 0x40 MLOAD PUSH1 0x20 DUP2 DUP4 SUB SUB DUP2 MSTORE SWAP1 PUSH1 0x40 MSTORE DUP1 MLOAD SWAP1 PUSH1 0x20 ADD KECCAK256 PUSH1 0x9 PUSH1 0x0 PUSH1 0xA DUP5 DUP2 SLOAD DUP2 LT PUSH2 0x1AEC JUMPI PUSH2 0x1AEC PUSH2 0x36A8 JUMP JUMPDEST PUSH1 0x0 SWAP2 DUP3 MSTORE PUSH1 0x20 DUP1 DUP4 KECCAK256 SWAP1 SWAP2 ADD SLOAD PUSH1 0x1 PUSH1 0x1 PUSH1 0xA0 SHL SUB AND DUP4 MSTORE DUP3 DUP2 ADD SWAP4 SWAP1 SWAP4 MSTORE PUSH1 0x40 SWAP2 DUP3 ADD SWAP1 KECCAK256 SWAP1 MLOAD PUSH2 0x1B26 SWAP3 PUSH1 0x1 SWAP3 SWAP1 SWAP3 ADD SWAP2 ADD PUSH2 0x38F4 JUMP JUMPDEST PUSH1 0x40 MLOAD PUSH1 0x20 DUP2 DUP4 SUB SUB DUP2 MSTORE SWAP1 PUSH1 0x40 MSTORE DUP1 MLOAD SWAP1 PUSH1 0x20 ADD KECCAK256 SUB PUSH2 0x1E4F JUMPI PUSH1 0xC SLOAD PUSH1 0xA DUP1 SLOAD PUSH1 0x0 SWAP3 PUSH1 0x1 PUSH1 0x1 PUSH1 0xA0 SHL SUB AND SWAP2 PUSH4 0x5A725B07 SWAP2 PUSH1 0x7 SWAP2 SWAP1 DUP7 SWAP1 DUP2 LT PUSH2 0x1B6F JUMPI PUSH2 0x1B6F PUSH2 0x36A8 JUMP JUMPDEST PUSH1 0x0 SWAP2 DUP3 MSTORE PUSH1 0x20 SWAP1 SWAP2 KECCAK256 ADD SLOAD PUSH1 0x40 MLOAD PUSH1 0x1 PUSH1 0x1 PUSH1 0xE0 SHL SUB NOT PUSH1 0xE0 DUP6 SWAP1 SHL AND DUP2 MSTORE PUSH2 0x1BA6 SWAP3 SWAP2 PUSH1 0x1 PUSH1 0x1 PUSH1 0xA0 SHL SUB AND SWAP1 PUSH1 0x4 ADD PUSH2 0x39E7 JUMP JUMPDEST PUSH1 0x20 PUSH1 0x40 MLOAD DUP1 DUP4 SUB DUP2 DUP7 GAS STATICCALL ISZERO DUP1 ISZERO PUSH2 0x1BC3 JUMPI RETURNDATASIZE PUSH1 0x0 DUP1 RETURNDATACOPY RETURNDATASIZE PUSH1 0x0 REVERT JUMPDEST POP POP POP POP PUSH1 0x40 MLOAD RETURNDATASIZE PUSH1 0x1F NOT PUSH1 0x1F DUP3 ADD AND DUP3 ADD DUP1 PUSH1 0x40 MSTORE POP DUP2 ADD SWAP1 PUSH2 0x1BE7 SWAP2 SWAP1 PUSH2 0x3A11 JUMP JUMPDEST SWAP1 POP DUP1 PUSH1 0xFF AND PUSH1 0x2 SUB PUSH2 0x1DA8 JUMPI PUSH1 0x9 PUSH1 0x0 PUSH1 0xA DUP5 DUP2 SLOAD DUP2 LT PUSH2 0x1C0B JUMPI PUSH2 0x1C0B PUSH2 0x36A8 JUMP JUMPDEST PUSH1 0x0 SWAP2 DUP3 MSTORE PUSH1 0x20 DUP1 DUP4 KECCAK256 SWAP1 SWAP2 ADD SLOAD PUSH1 0x1 PUSH1 0x1 PUSH1 0xA0 SHL SUB SWAP1 DUP2 AND DUP5 MSTORE SWAP1 DUP4 ADD SWAP4 SWAP1 SWAP4 MSTORE PUSH1 0x40 SWAP1 SWAP2 ADD SWAP1 KECCAK256 PUSH1 0x4 ADD SLOAD DUP6 MLOAD SWAP2 AND SWAP1 DUP6 SWAP1 DUP6 SWAP1 DUP2 LT PUSH2 0x1C4F JUMPI PUSH2 0x1C4F PUSH2 0x36A8 JUMP JUMPDEST PUSH1 0x1 PUSH1 0x1 PUSH1 0xA0 SHL SUB SWAP1 SWAP3 AND PUSH1 0x20 SWAP3 DUP4 MUL SWAP2 SWAP1 SWAP2 ADD SWAP1 SWAP2 ADD MSTORE PUSH1 0x0 PUSH2 0x1C74 PUSH1 0x3C DUP9 PUSH2 0x3A34 JUMP JUMPDEST PUSH1 0xC SLOAD PUSH1 0xA DUP1 SLOAD SWAP3 SWAP4 POP PUSH1 0x1 PUSH1 0x1 PUSH1 0xA0 SHL SUB SWAP1 SWAP2 AND SWAP2 PUSH4 0xD47B2E99 SWAP2 SWAP1 DUP7 SWAP1 DUP2 LT PUSH2 0x1CA1 JUMPI PUSH2 0x1CA1 PUSH2 0x36A8 JUMP JUMPDEST PUSH1 0x0 SWAP2 DUP3 MSTORE PUSH1 0x20 SWAP1 SWAP2 KECCAK256 ADD SLOAD PUSH1 0x40 MLOAD PUSH1 0xE0 DUP4 SWAP1 SHL PUSH1 0x1 PUSH1 0x1 PUSH1 0xE0 SHL SUB NOT AND DUP2 MSTORE PUSH1 0x1 PUSH1 0x1 PUSH1 0xA0 SHL SUB SWAP1 SWAP2 AND PUSH1 0x4 DUP3 ADD MSTORE PUSH1 0x24 DUP2 ADD DUP5 SWAP1 MSTORE PUSH1 0x44 ADD PUSH1 0x0 PUSH1 0x40 MLOAD DUP1 DUP4 SUB DUP2 PUSH1 0x0 DUP8 DUP1 EXTCODESIZE ISZERO DUP1 ISZERO PUSH2 0x1CF5 JUMPI PUSH1 0x0 DUP1 REVERT JUMPDEST POP GAS CALL ISZERO DUP1 ISZERO PUSH2 0x1D09 JUMPI RETURNDATASIZE PUSH1 0x0 DUP1 RETURNDATACOPY RETURNDATASIZE PUSH1 0x0 REVERT JUMPDEST POP POP PUSH1 0xC SLOAD PUSH1 0xA DUP1 SLOAD PUSH1 0x1 PUSH1 0x1 PUSH1 0xA0 SHL SUB SWAP1 SWAP3 AND SWAP4 POP PUSH4 0x2EB4B54F SWAP3 POP SWAP1 DUP7 SWAP1 DUP2 LT PUSH2 0x1D37 JUMPI PUSH2 0x1D37 PUSH2 0x36A8 JUMP JUMPDEST PUSH1 0x0 SWAP2 DUP3 MSTORE PUSH1 0x20 SWAP1 SWAP2 KECCAK256 ADD SLOAD PUSH1 0x40 MLOAD PUSH1 0x1 PUSH1 0x1 PUSH1 0xE0 SHL SUB NOT PUSH1 0xE0 DUP5 SWAP1 SHL AND DUP2 MSTORE PUSH2 0x1D70 SWAP2 PUSH1 0x1 PUSH1 0x1 PUSH1 0xA0 SHL SUB AND SWAP1 PUSH1 0x7 SWAP1 PUSH1 0x4 ADD PUSH2 0x3A56 JUMP JUMPDEST PUSH1 0x0 PUSH1 0x40 MLOAD DUP1 DUP4 SUB DUP2 PUSH1 0x0 DUP8 DUP1 EXTCODESIZE ISZERO DUP1 ISZERO PUSH2 0x1D8A JUMPI PUSH1 0x0 DUP1 REVERT JUMPDEST POP GAS CALL ISZERO DUP1 ISZERO PUSH2 0x1D9E JUMPI RETURNDATASIZE PUSH1 0x0 DUP1 RETURNDATACOPY RETURNDATASIZE PUSH1 0x0 REVERT JUMPDEST POP POP POP POP POP PUSH2 0x1E49 JUMP JUMPDEST DUP1 PUSH1 0xFF AND PUSH1 0x0 SUB PUSH2 0x1E49 JUMPI PUSH1 0xC SLOAD PUSH1 0xA DUP1 SLOAD PUSH1 0x1 PUSH1 0x1 PUSH1 0xA0 SHL SUB SWAP1 SWAP3 AND SWAP2 PUSH4 0x2EB4B54F SWAP2 SWAP1 DUP6 SWAP1 DUP2 LT PUSH2 0x1DDD JUMPI PUSH2 0x1DDD PUSH2 0x36A8 JUMP JUMPDEST PUSH1 0x0 SWAP2 DUP3 MSTORE PUSH1 0x20 SWAP1 SWAP2 KECCAK256 ADD SLOAD PUSH1 0x40 MLOAD PUSH1 0x1 PUSH1 0x1 PUSH1 0xE0 SHL SUB NOT PUSH1 0xE0 DUP5 SWAP1 SHL AND DUP2 MSTORE PUSH2 0x1E16 SWAP2 PUSH1 0x1 PUSH1 0x1 PUSH1 0xA0 SHL SUB AND SWAP1 PUSH1 0x7 SWAP1 PUSH1 0x4 ADD PUSH2 0x3A56 JUMP JUMPDEST PUSH1 0x0 PUSH1 0x40 MLOAD DUP1 DUP4 SUB DUP2 PUSH1 0x0 DUP8 DUP1 EXTCODESIZE ISZERO DUP1 ISZERO PUSH2 0x1E30 JUMPI PUSH1 0x0 DUP1 REVERT JUMPDEST POP GAS CALL ISZERO DUP1 ISZERO PUSH2 0x1E44 JUMPI RETURNDATASIZE PUSH1 0x0 DUP1 RETURNDATACOPY RETURNDATASIZE PUSH1 0x0 REVERT JUMPDEST POP POP POP POP JUMPDEST POP PUSH2 0x1E57 JUMP JUMPDEST PUSH1 0x1 ADD PUSH2 0x1A8B JUMP JUMPDEST POP PUSH1 0x1 ADD PUSH2 0x1A7F JUMP JUMPDEST POP SWAP1 POP JUMPDEST SWAP3 SWAP2 POP POP JUMP JUMPDEST PUSH1 0x0 DUP4 PUSH1 0x40 MLOAD PUSH1 0x20 ADD PUSH2 0x1E7D SWAP2 SWAP1 PUSH2 0x36F5 JUMP JUMPDEST PUSH1 0x40 DUP1 MLOAD DUP1 DUP4 SUB PUSH1 0x1F NOT ADD DUP2 MSTORE SWAP1 DUP3 SWAP1 MSTORE DUP1 MLOAD PUSH1 0x20 SWAP1 SWAP2 ADD KECCAK256 PUSH1 0xF SLOAD PUSH4 0xB9D57C5F PUSH1 0xE0 SHL DUP4 MSTORE PUSH1 0x4 DUP4 ADD DUP3 SWAP1 MSTORE SWAP1 SWAP3 POP PUSH1 0x0 SWAP2 PUSH1 0x1 PUSH1 0x1 PUSH1 0xA0 SHL SUB SWAP1 SWAP2 AND SWAP1 PUSH4 0xB9D57C5F SWAP1 PUSH1 0x24 ADD PUSH1 0x60 PUSH1 0x40 MLOAD DUP1 DUP4 SUB DUP2 DUP7 GAS STATICCALL ISZERO DUP1 ISZERO PUSH2 0x1EE2 JUMPI RETURNDATASIZE PUSH1 0x0 DUP1 RETURNDATACOPY RETURNDATASIZE PUSH1 0x0 REVERT JUMPDEST POP POP POP POP PUSH1 0x40 MLOAD RETURNDATASIZE PUSH1 0x1F NOT PUSH1 0x1F DUP3 ADD AND DUP3 ADD DUP1 PUSH1 0x40 MSTORE POP DUP2 ADD SWAP1 PUSH2 0x1F06 SWAP2 SWAP1 PUSH2 0x3A7A JUMP JUMPDEST SWAP3 POP POP POP PUSH1 0x0 DUP1 PUSH2 0x1F16 CALLER PUSH2 0x1599 JUMP JUMPDEST SWAP2 POP SWAP2 POP DUP2 DUP4 EQ DUP1 PUSH2 0x1F27 JUMPI POP DUP1 DUP4 EQ JUMPDEST PUSH2 0x1F84 JUMPI PUSH1 0x40 MLOAD PUSH3 0x461BCD PUSH1 0xE5 SHL DUP2 MSTORE PUSH1 0x20 PUSH1 0x4 DUP3 ADD MSTORE PUSH1 0x28 PUSH1 0x24 DUP3 ADD MSTORE PUSH32 0x43616C6C65722773206F7261636C65206B657920696E64657820646F6573206E PUSH1 0x44 DUP3 ADD MSTORE PUSH8 0xDEE840DAC2E8C6D PUSH1 0xC3 SHL PUSH1 0x64 DUP3 ADD MSTORE PUSH1 0x84 ADD PUSH2 0x744 JUMP JUMPDEST CALLER PUSH1 0x0 SWAP1 DUP2 MSTORE PUSH1 0x9 PUSH1 0x20 MSTORE PUSH1 0x40 SWAP1 KECCAK256 SLOAD PUSH5 0x100000000 SWAP1 DIV PUSH1 0xFF AND PUSH2 0x1FEB JUMPI PUSH1 0x40 MLOAD PUSH3 0x461BCD PUSH1 0xE5 SHL DUP2 MSTORE PUSH1 0x20 PUSH1 0x4 DUP3 ADD MSTORE PUSH1 0x1A PUSH1 0x24 DUP3 ADD MSTORE PUSH32 0x43616C6C6572206973206E6F7420612067616D652061646D696E000000000000 PUSH1 0x44 DUP3 ADD MSTORE PUSH1 0x64 ADD PUSH2 0x744 JUMP JUMPDEST PUSH1 0xF SLOAD PUSH1 0x40 MLOAD PUSH1 0x1 PUSH1 0x1 PUSH1 0xA0 SHL SUB SWAP1 SWAP2 AND SWAP1 PUSH4 0x4A89D52B SWAP1 DUP10 SWAP1 DUP10 SWAP1 DUP10 SWAP1 PUSH2 0x2017 SWAP1 DUP16 SWAP1 PUSH1 0x20 ADD PUSH2 0x38D8 JUMP JUMPDEST PUSH1 0x40 MLOAD PUSH1 0x20 DUP2 DUP4 SUB SUB DUP2 MSTORE SWAP1 PUSH1 0x40 MSTORE PUSH1 0x40 MLOAD DUP6 PUSH4 0xFFFFFFFF AND PUSH1 0xE0 SHL DUP2 MSTORE PUSH1 0x4 ADD PUSH2 0x2045 SWAP5 SWAP4 SWAP3 SWAP2 SWAP1 PUSH2 0x35AA JUMP JUMPDEST PUSH1 0x20 PUSH1 0x40 MLOAD DUP1 DUP4 SUB DUP2 PUSH1 0x0 DUP8 GAS CALL ISZERO DUP1 ISZERO PUSH2 0x2064 JUMPI RETURNDATASIZE PUSH1 0x0 DUP1 RETURNDATACOPY RETURNDATASIZE PUSH1 0x0 REVERT JUMPDEST POP POP POP POP PUSH1 0x40 MLOAD RETURNDATASIZE PUSH1 0x1F NOT PUSH1 0x1F DUP3 ADD AND DUP3 ADD DUP1 PUSH1 0x40 MSTORE POP DUP2 ADD SWAP1 PUSH2 0x2088 SWAP2 SWAP1 PUSH2 0x368B JUMP JUMPDEST PUSH2 0x20D4 JUMPI PUSH1 0x40 MLOAD PUSH3 0x461BCD PUSH1 0xE5 SHL DUP2 MSTORE PUSH1 0x20 PUSH1 0x4 DUP3 ADD MSTORE PUSH1 0x1B PUSH1 0x24 DUP3 ADD MSTORE PUSH32 0x4C616D706F7274206F7261636C6520636865636B206661696C65640000000000 PUSH1 0x44 DUP3 ADD MSTORE PUSH1 0x64 ADD PUSH2 0x744 JUMP JUMPDEST DUP8 ISZERO PUSH2 0x2176 JUMPI PUSH1 0x0 DUP10 PUSH1 0x40 MLOAD PUSH2 0x20EA SWAP2 SWAP1 PUSH2 0x38D8 JUMP JUMPDEST SWAP1 DUP2 MSTORE PUSH1 0x40 MLOAD SWAP1 DUP2 SWAP1 SUB PUSH1 0x20 ADD SWAP1 KECCAK256 SLOAD PUSH1 0xFF AND PUSH2 0x2171 JUMPI PUSH1 0x1 PUSH1 0x0 DUP11 PUSH1 0x40 MLOAD PUSH2 0x2113 SWAP2 SWAP1 PUSH2 0x38D8 JUMP JUMPDEST SWAP1 DUP2 MSTORE PUSH1 0x40 MLOAD SWAP1 DUP2 SWAP1 SUB PUSH1 0x20 ADD SWAP1 KECCAK256 DUP1 SLOAD SWAP2 ISZERO ISZERO PUSH1 0xFF NOT SWAP1 SWAP3 AND SWAP2 SWAP1 SWAP2 OR SWAP1 SSTORE PUSH1 0x8 DUP1 SLOAD PUSH1 0x1 DUP2 ADD DUP3 SSTORE PUSH1 0x0 SWAP2 SWAP1 SWAP2 MSTORE PUSH32 0xF3F7A9FE364FAAB93B216DA50A3214154F22A0A2B415B23A84C8169E8B636EE3 ADD PUSH2 0x216F DUP11 DUP3 PUSH2 0x3818 JUMP JUMPDEST POP JUMPDEST PUSH2 0x21D8 JUMP JUMPDEST PUSH1 0x0 DUP10 PUSH1 0x40 MLOAD PUSH2 0x2186 SWAP2 SWAP1 PUSH2 0x38D8 JUMP JUMPDEST SWAP1 DUP2 MSTORE PUSH1 0x40 MLOAD SWAP1 DUP2 SWAP1 SUB PUSH1 0x20 ADD SWAP1 KECCAK256 SLOAD PUSH1 0xFF AND ISZERO PUSH2 0x21D8 JUMPI PUSH1 0x0 DUP1 DUP11 PUSH1 0x40 MLOAD PUSH2 0x21AF SWAP2 SWAP1 PUSH2 0x38D8 JUMP JUMPDEST SWAP1 DUP2 MSTORE PUSH1 0x40 MLOAD SWAP1 DUP2 SWAP1 SUB PUSH1 0x20 ADD SWAP1 KECCAK256 DUP1 SLOAD SWAP2 ISZERO ISZERO PUSH1 0xFF NOT SWAP1 SWAP3 AND SWAP2 SWAP1 SWAP2 OR SWAP1 SSTORE PUSH2 0x21D8 DUP10 PUSH2 0x2D45 JUMP JUMPDEST POP POP POP POP POP POP POP POP POP JUMP JUMPDEST PUSH1 0xD SLOAD PUSH1 0x1 PUSH1 0x1 PUSH1 0xA0 SHL SUB AND CALLER EQ PUSH2 0x2251 JUMPI PUSH1 0x40 MLOAD PUSH3 0x461BCD PUSH1 0xE5 SHL DUP2 MSTORE PUSH1 0x20 PUSH1 0x4 DUP3 ADD MSTORE PUSH1 0x3C PUSH1 0x24 DUP3 ADD MSTORE PUSH1 0x0 DUP1 MLOAD PUSH1 0x20 PUSH2 0x3BD2 DUP4 CODECOPY DUP2 MLOAD SWAP2 MSTORE PUSH1 0x44 DUP3 ADD MSTORE PUSH32 0x6E6765204F6E626F617264205265676973747261722053746174757300000000 PUSH1 0x64 DUP3 ADD MSTORE PUSH1 0x84 ADD PUSH2 0x744 JUMP JUMPDEST PUSH1 0x1 PUSH1 0x1 PUSH1 0xA0 SHL SUB SWAP1 SWAP2 AND PUSH1 0x0 SWAP1 DUP2 MSTORE PUSH1 0x9 PUSH1 0x20 MSTORE PUSH1 0x40 SWAP1 KECCAK256 DUP1 SLOAD SWAP2 ISZERO ISZERO PUSH1 0x1 PUSH1 0x30 SHL MUL PUSH7 0xFF000000000000 NOT SWAP1 SWAP3 AND SWAP2 SWAP1 SWAP2 OR SWAP1 SSTORE JUMP JUMPDEST PUSH1 0x60 PUSH1 0x8 DUP1 SLOAD DUP1 PUSH1 0x20 MUL PUSH1 0x20 ADD PUSH1 0x40 MLOAD SWAP1 DUP2 ADD PUSH1 0x40 MSTORE DUP1 SWAP3 SWAP2 SWAP1 DUP2 DUP2 MSTORE PUSH1 0x20 ADD PUSH1 0x0 SWAP1 JUMPDEST DUP3 DUP3 LT ISZERO PUSH2 0x2359 JUMPI DUP4 DUP3 SWAP1 PUSH1 0x0 MSTORE PUSH1 0x20 PUSH1 0x0 KECCAK256 ADD DUP1 SLOAD PUSH2 0x22CC SWAP1 PUSH2 0x3793 JUMP JUMPDEST DUP1 PUSH1 0x1F ADD PUSH1 0x20 DUP1 SWAP2 DIV MUL PUSH1 0x20 ADD PUSH1 0x40 MLOAD SWAP1 DUP2 ADD PUSH1 0x40 MSTORE DUP1 SWAP3 SWAP2 SWAP1 DUP2 DUP2 MSTORE PUSH1 0x20 ADD DUP3 DUP1 SLOAD PUSH2 0x22F8 SWAP1 PUSH2 0x3793 JUMP JUMPDEST DUP1 ISZERO PUSH2 0x2345 JUMPI DUP1 PUSH1 0x1F LT PUSH2 0x231A JUMPI PUSH2 0x100 DUP1 DUP4 SLOAD DIV MUL DUP4 MSTORE SWAP2 PUSH1 0x20 ADD SWAP2 PUSH2 0x2345 JUMP JUMPDEST DUP3 ADD SWAP2 SWAP1 PUSH1 0x0 MSTORE PUSH1 0x20 PUSH1 0x0 KECCAK256 SWAP1 JUMPDEST DUP2 SLOAD DUP2 MSTORE SWAP1 PUSH1 0x1 ADD SWAP1 PUSH1 0x20 ADD DUP1 DUP4 GT PUSH2 0x2328 JUMPI DUP3 SWAP1 SUB PUSH1 0x1F AND DUP3 ADD SWAP2 JUMPDEST POP POP POP POP POP DUP2 MSTORE PUSH1 0x20 ADD SWAP1 PUSH1 0x1 ADD SWAP1 PUSH2 0x22AD JUMP JUMPDEST POP POP POP POP SWAP1 POP SWAP1 JUMP JUMPDEST PUSH1 0xD SLOAD PUSH1 0x1 PUSH1 0x1 PUSH1 0xA0 SHL SUB AND CALLER EQ PUSH2 0x23D0 JUMPI PUSH1 0x40 MLOAD PUSH3 0x461BCD PUSH1 0xE5 SHL DUP2 MSTORE PUSH1 0x20 PUSH1 0x4 DUP3 ADD MSTORE PUSH1 0x39 PUSH1 0x24 DUP3 ADD MSTORE PUSH1 0x0 DUP1 MLOAD PUSH1 0x20 PUSH2 0x3BD2 DUP4 CODECOPY DUP2 MLOAD SWAP2 MSTORE PUSH1 0x44 DUP3 ADD MSTORE PUSH32 0x6E67652047616D652056616C696461746F722073746174757300000000000000 PUSH1 0x64 DUP3 ADD MSTORE PUSH1 0x84 ADD PUSH2 0x744 JUMP JUMPDEST PUSH1 0x1 PUSH1 0x1 PUSH1 0xA0 SHL SUB SWAP1 SWAP2 AND PUSH1 0x0 SWAP1 DUP2 MSTORE PUSH1 0x9 PUSH1 0x20 MSTORE PUSH1 0x40 SWAP1 KECCAK256 DUP1 SLOAD SWAP2 ISZERO ISZERO PUSH2 0x100 MUL PUSH2 0xFF00 NOT SWAP1 SWAP3 AND SWAP2 SWAP1 SWAP2 OR SWAP1 SSTORE JUMP JUMPDEST PUSH1 0x0 DUP2 PUSH1 0x40 MLOAD PUSH1 0x20 ADD PUSH2 0x2414 SWAP2 SWAP1 PUSH2 0x3564 JUMP JUMPDEST PUSH1 0x40 DUP1 MLOAD DUP1 DUP4 SUB PUSH1 0x1F NOT ADD DUP2 MSTORE SWAP2 DUP2 MSTORE CALLER PUSH1 0x0 SWAP1 DUP2 MSTORE PUSH1 0x4 PUSH1 0x20 MSTORE KECCAK256 SLOAD SWAP1 SWAP2 POP PUSH1 0x1 PUSH1 0x1 PUSH1 0xA0 SHL SUB DUP4 DUP2 AND SWAP2 AND EQ PUSH2 0x24A1 JUMPI PUSH1 0x40 MLOAD PUSH3 0x461BCD PUSH1 0xE5 SHL DUP2 MSTORE PUSH1 0x20 PUSH1 0x4 DUP3 ADD MSTORE PUSH1 0x2A PUSH1 0x24 DUP3 ADD MSTORE PUSH32 0x50726F706F7365642047616D6556616C20636F6E747261637420616464726573 PUSH1 0x44 DUP3 ADD MSTORE PUSH10 0xE640DAD2E6DAC2E8C6D PUSH1 0xB3 SHL PUSH1 0x64 DUP3 ADD MSTORE PUSH1 0x84 ADD PUSH2 0x744 JUMP JUMPDEST PUSH1 0x0 DUP6 PUSH1 0x40 MLOAD PUSH1 0x20 ADD PUSH2 0x24B4 SWAP2 SWAP1 PUSH2 0x36F5 JUMP JUMPDEST PUSH1 0x40 MLOAD PUSH1 0x20 DUP2 DUP4 SUB SUB DUP2 MSTORE SWAP1 PUSH1 0x40 MSTORE DUP1 MLOAD SWAP1 PUSH1 0x20 ADD KECCAK256 SWAP1 POP DUP1 PUSH1 0x10 SLOAD SUB PUSH2 0x24ED JUMPI PUSH1 0x40 MLOAD PUSH3 0x461BCD PUSH1 0xE5 SHL DUP2 MSTORE PUSH1 0x4 ADD PUSH2 0x744 SWAP1 PUSH2 0x372C JUMP JUMPDEST PUSH1 0xF SLOAD PUSH1 0x40 MLOAD PUSH4 0x333F6111 PUSH1 0xE0 SHL DUP2 MSTORE PUSH1 0x0 SWAP2 PUSH1 0x1 PUSH1 0x1 PUSH1 0xA0 SHL SUB AND SWAP1 PUSH4 0x333F6111 SWAP1 PUSH2 0x2524 SWAP1 DUP11 SWAP1 DUP11 SWAP1 DUP11 SWAP1 DUP10 SWAP1 PUSH1 0x4 ADD PUSH2 0x35AA JUMP JUMPDEST PUSH1 0x20 PUSH1 0x40 MLOAD DUP1 DUP4 SUB DUP2 PUSH1 0x0 DUP8 GAS CALL ISZERO DUP1 ISZERO PUSH2 0x2543 JUMPI RETURNDATASIZE PUSH1 0x0 DUP1 RETURNDATACOPY RETURNDATASIZE PUSH1 0x0 REVERT JUMPDEST POP POP POP POP PUSH1 0x40 MLOAD RETURNDATASIZE PUSH1 0x1F NOT PUSH1 0x1F DUP3 ADD AND DUP3 ADD DUP1 PUSH1 0x40 MSTORE POP DUP2 ADD SWAP1 PUSH2 0x2567 SWAP2 SWAP1 PUSH2 0x368B JUMP JUMPDEST SWAP1 POP DUP1 PUSH2 0x25DE JUMPI PUSH1 0x40 DUP1 MLOAD PUSH3 0x461BCD PUSH1 0xE5 SHL DUP2 MSTORE PUSH1 0x20 PUSH1 0x4 DUP3 ADD MSTORE PUSH1 0x24 DUP2 ADD SWAP2 SWAP1 SWAP2 MSTORE PUSH32 0x417574686F72697A6174696F6E206661696C6564206F6E20636F6E6669726D61 PUSH1 0x44 DUP3 ADD MSTORE PUSH32 0x74696F6E206F662047616D6556616C20636F6E74726163742061646472657373 PUSH1 0x64 DUP3 ADD MSTORE PUSH1 0x84 ADD PUSH2 0x744 JUMP JUMPDEST PUSH1 0xB DUP1 SLOAD PUSH1 0x1 PUSH1 0x1 PUSH1 0xA0 SHL SUB NOT AND PUSH1 0x1 PUSH1 0x1 PUSH1 0xA0 SHL SUB DUP7 AND SWAP1 DUP2 OR SWAP1 SWAP2 SSTORE PUSH1 0x40 MLOAD PUSH32 0x6F1895F9314E8B91A7A1C3A67319510D05C9D6729515F83CC2EACA70D3E81F87 SWAP1 PUSH1 0x0 SWAP1 LOG2 POP POP CALLER PUSH1 0x0 SWAP1 DUP2 MSTORE PUSH1 0x4 PUSH1 0x20 MSTORE PUSH1 0x40 DUP2 KECCAK256 DUP1 SLOAD PUSH1 0x1 PUSH1 0x1 PUSH1 0xA0 SHL SUB NOT AND SWAP1 SSTORE PUSH1 0x10 SSTORE POP POP POP POP POP JUMP JUMPDEST PUSH1 0x0 DUP2 PUSH1 0x40 MLOAD PUSH1 0x20 ADD PUSH2 0x2661 SWAP2 SWAP1 PUSH2 0x3564 JUMP JUMPDEST PUSH1 0x40 DUP1 MLOAD DUP1 DUP4 SUB PUSH1 0x1F NOT ADD DUP2 MSTORE SWAP2 DUP2 MSTORE CALLER PUSH1 0x0 SWAP1 DUP2 MSTORE PUSH1 0x6 PUSH1 0x20 MSTORE KECCAK256 SLOAD SWAP1 SWAP2 POP PUSH1 0x1 PUSH1 0x1 PUSH1 0xA0 SHL SUB DUP4 DUP2 AND SWAP2 AND EQ PUSH2 0x26EA JUMPI PUSH1 0x40 MLOAD PUSH3 0x461BCD PUSH1 0xE5 SHL DUP2 MSTORE PUSH1 0x20 PUSH1 0x4 DUP3 ADD MSTORE PUSH1 0x26 PUSH1 0x24 DUP3 ADD MSTORE PUSH32 0x466F72756D20636F6E7472616374206164647265737320757064617465206D69 PUSH1 0x44 DUP3 ADD MSTORE PUSH6 0xE6DAC2E8C6D PUSH1 0xD3 SHL PUSH1 0x64 DUP3 ADD MSTORE PUSH1 0x84 ADD PUSH2 0x744 JUMP JUMPDEST PUSH1 0x0 DUP6 PUSH1 0x40 MLOAD PUSH1 0x20 ADD PUSH2 0x26FD SWAP2 SWAP1 PUSH2 0x36F5 JUMP JUMPDEST PUSH1 0x40 MLOAD PUSH1 0x20 DUP2 DUP4 SUB SUB DUP2 MSTORE SWAP1 PUSH1 0x40 MSTORE DUP1 MLOAD SWAP1 PUSH1 0x20 ADD KECCAK256 SWAP1 POP DUP1 PUSH1 0x10 SLOAD SUB PUSH2 0x2736 JUMPI PUSH1 0x40 MLOAD PUSH3 0x461BCD PUSH1 0xE5 SHL DUP2 MSTORE PUSH1 0x4 ADD PUSH2 0x744 SWAP1 PUSH2 0x372C JUMP JUMPDEST PUSH1 0xF SLOAD PUSH1 0x40 MLOAD PUSH4 0x333F6111 PUSH1 0xE0 SHL DUP2 MSTORE PUSH1 0x0 SWAP2 PUSH1 0x1 PUSH1 0x1 PUSH1 0xA0 SHL SUB AND SWAP1 PUSH4 0x333F6111 SWAP1 PUSH2 0x276D SWAP1 DUP11 SWAP1 DUP11 SWAP1 DUP11 SWAP1 DUP10 SWAP1 PUSH1 0x4 ADD PUSH2 0x35AA JUMP JUMPDEST PUSH1 0x20 PUSH1 0x40 MLOAD DUP1 DUP4 SUB DUP2 PUSH1 0x0 DUP8 GAS CALL ISZERO DUP1 ISZERO PUSH2 0x278C JUMPI RETURNDATASIZE PUSH1 0x0 DUP1 RETURNDATACOPY RETURNDATASIZE PUSH1 0x0 REVERT JUMPDEST POP POP POP POP PUSH1 0x40 MLOAD RETURNDATASIZE PUSH1 0x1F NOT PUSH1 0x1F DUP3 ADD AND DUP3 ADD DUP1 PUSH1 0x40 MSTORE POP DUP2 ADD SWAP1 PUSH2 0x27B0 SWAP2 SWAP1 PUSH2 0x368B JUMP JUMPDEST SWAP1 POP DUP1 PUSH2 0x2833 JUMPI PUSH1 0x40 MLOAD PUSH3 0x461BCD PUSH1 0xE5 SHL DUP2 MSTORE PUSH1 0x20 PUSH1 0x4 DUP3 ADD MSTORE PUSH1 0x45 PUSH1 0x24 DUP3 ADD MSTORE PUSH32 0x417574686F72697A6174696F6E206661696C6564206F6E20636F6E6669726D61 PUSH1 0x44 DUP3 ADD MSTORE PUSH32 0x74696F6E206F6620466F72756D20636F6E747261637420616464726573732075 PUSH1 0x64 DUP3 ADD MSTORE PUSH5 0x7064617465 PUSH1 0xD8 SHL PUSH1 0x84 DUP3 ADD MSTORE PUSH1 0xA4 ADD PUSH2 0x744 JUMP JUMPDEST PUSH1 0xE DUP1 SLOAD PUSH1 0x1 PUSH1 0x1 PUSH1 0xA0 SHL SUB NOT AND PUSH1 0x1 PUSH1 0x1 PUSH1 0xA0 SHL SUB DUP7 AND SWAP1 DUP2 OR SWAP1 SWAP2 SSTORE PUSH1 0x40 MLOAD PUSH32 0x78E5262E53E14D17B3058C6B8CF7CD3C2FB92A4172FA393FDDD75CB57523B1C6 SWAP1 PUSH1 0x0 SWAP1 LOG2 POP POP CALLER PUSH1 0x0 SWAP1 DUP2 MSTORE PUSH1 0x6 PUSH1 0x20 MSTORE PUSH1 0x40 DUP2 KECCAK256 DUP1 SLOAD PUSH1 0x1 PUSH1 0x1 PUSH1 0xA0 SHL SUB NOT AND SWAP1 SSTORE PUSH1 0x10 SSTORE POP POP POP POP POP JUMP JUMPDEST PUSH1 0x0 DUP2 PUSH1 0x40 MLOAD PUSH1 0x20 ADD PUSH2 0x28B6 SWAP2 SWAP1 PUSH2 0x3564 JUMP JUMPDEST PUSH1 0x40 DUP1 MLOAD PUSH1 0x1F NOT DUP2 DUP5 SUB ADD DUP2 MSTORE SWAP1 DUP3 SWAP1 MSTORE PUSH1 0xF SLOAD PUSH4 0x333F6111 PUSH1 0xE0 SHL DUP4 MSTORE SWAP1 SWAP3 POP PUSH1 0x0 SWAP2 PUSH1 0x1 PUSH1 0x1 PUSH1 0xA0 SHL SUB SWAP1 SWAP2 AND SWAP1 PUSH4 0x333F6111 SWAP1 PUSH2 0x2900 SWAP1 DUP10 SWAP1 DUP10 SWAP1 DUP10 SWAP1 DUP9 SWAP1 PUSH1 0x4 ADD PUSH2 0x35AA JUMP JUMPDEST PUSH1 0x20 PUSH1 0x40 MLOAD DUP1 DUP4 SUB DUP2 PUSH1 0x0 DUP8 GAS CALL ISZERO DUP1 ISZERO PUSH2 0x291F JUMPI RETURNDATASIZE PUSH1 0x0 DUP1 RETURNDATACOPY RETURNDATASIZE PUSH1 0x0 REVERT JUMPDEST POP POP POP POP PUSH1 0x40 MLOAD RETURNDATASIZE PUSH1 0x1F NOT PUSH1 0x1F DUP3 ADD AND DUP3 ADD DUP1 PUSH1 0x40 MSTORE POP DUP2 ADD SWAP1 PUSH2 0x2943 SWAP2 SWAP1 PUSH2 0x368B JUMP JUMPDEST SWAP1 POP DUP1 PUSH2 0x2962 JUMPI PUSH1 0x40 MLOAD PUSH3 0x461BCD PUSH1 0xE5 SHL DUP2 MSTORE PUSH1 0x4 ADD PUSH2 0x744 SWAP1 PUSH2 0x3AB5 JUMP JUMPDEST POP POP CALLER PUSH1 0x0 SWAP1 DUP2 MSTORE PUSH1 0x3 PUSH1 0x20 MSTORE PUSH1 0x40 SWAP1 KECCAK256 DUP1 SLOAD PUSH1 0x1 PUSH1 0x1 PUSH1 0xA0 SHL SUB NOT AND PUSH1 0x1 PUSH1 0x1 PUSH1 0xA0 SHL SUB SWAP3 SWAP1 SWAP3 AND SWAP2 SWAP1 SWAP2 OR SWAP1 SSTORE PUSH1 0x10 SSTORE POP POP JUMP JUMPDEST PUSH1 0x8 DUP2 DUP2 SLOAD DUP2 LT PUSH2 0x29A8 JUMPI PUSH1 0x0 DUP1 REVERT JUMPDEST SWAP1 PUSH1 0x0 MSTORE PUSH1 0x20 PUSH1 0x0 KECCAK256 ADD PUSH1 0x0 SWAP2 POP SWAP1 POP DUP1 SLOAD PUSH2 0x29C3 SWAP1 PUSH2 0x3793 JUMP JUMPDEST DUP1 PUSH1 0x1F ADD PUSH1 0x20 DUP1 SWAP2 DIV MUL PUSH1 0x20 ADD PUSH1 0x40 MLOAD SWAP1 DUP2 ADD PUSH1 0x40 MSTORE DUP1 SWAP3 SWAP2 SWAP1 DUP2 DUP2 MSTORE PUSH1 0x20 ADD DUP3 DUP1 SLOAD PUSH2 0x29EF SWAP1 PUSH2 0x3793 JUMP JUMPDEST DUP1 ISZERO PUSH2 0x2A3C JUMPI DUP1 PUSH1 0x1F LT PUSH2 0x2A11 JUMPI PUSH2 0x100 DUP1 DUP4 SLOAD DIV MUL DUP4 MSTORE SWAP2 PUSH1 0x20 ADD SWAP2 PUSH2 0x2A3C JUMP JUMPDEST DUP3 ADD SWAP2 SWAP1 PUSH1 0x0 MSTORE PUSH1 0x20 PUSH1 0x0 KECCAK256 SWAP1 JUMPDEST DUP2 SLOAD DUP2 MSTORE SWAP1 PUSH1 0x1 ADD SWAP1 PUSH1 0x20 ADD DUP1 DUP4 GT PUSH2 0x2A1F JUMPI DUP3 SWAP1 SUB PUSH1 0x1F AND DUP3 ADD SWAP2 JUMPDEST POP POP POP POP POP DUP2 JUMP JUMPDEST PUSH1 0xE SLOAD PUSH1 0x1 PUSH1 0x1 PUSH1 0xA0 SHL SUB AND CALLER EQ PUSH2 0x2AC4 JUMPI PUSH1 0x40 MLOAD PUSH3 0x461BCD PUSH1 0xE5 SHL DUP2 MSTORE PUSH1 0x20 PUSH1 0x4 DUP3 ADD MSTORE PUSH1 0x3E PUSH1 0x24 DUP3 ADD MSTORE PUSH32 0x4F6E6C792074686520666F72756D20636F6E74726163742063616E206D6F6469 PUSH1 0x44 DUP3 ADD MSTORE PUSH32 0x667920746F75726E616D656E74206D6F64657261746F72207374617475730000 PUSH1 0x64 DUP3 ADD MSTORE PUSH1 0x84 ADD PUSH2 0x744 JUMP JUMPDEST PUSH1 0x1 PUSH1 0x1 PUSH1 0xA0 SHL SUB SWAP1 SWAP2 AND PUSH1 0x0 SWAP1 DUP2 MSTORE PUSH1 0x9 PUSH1 0x20 MSTORE PUSH1 0x40 SWAP1 KECCAK256 DUP1 SLOAD SWAP2 ISZERO ISZERO PUSH4 0x1000000 MUL PUSH4 0xFF000000 NOT SWAP1 SWAP3 AND SWAP2 SWAP1 SWAP2 OR SWAP1 SSTORE JUMP JUMPDEST PUSH1 0x0 DUP2 PUSH1 0x40 MLOAD PUSH1 0x20 ADD PUSH2 0x2B0C SWAP2 SWAP1 PUSH2 0x3564 JUMP JUMPDEST PUSH1 0x40 DUP1 MLOAD DUP1 DUP4 SUB PUSH1 0x1F NOT ADD DUP2 MSTORE SWAP2 DUP2 MSTORE CALLER PUSH1 0x0 SWAP1 DUP2 MSTORE PUSH1 0x3 PUSH1 0x20 MSTORE KECCAK256 SLOAD SWAP1 SWAP2 POP PUSH1 0x1 PUSH1 0x1 PUSH1 0xA0 SHL SUB DUP4 DUP2 AND SWAP2 AND EQ PUSH2 0x2B98 JUMPI PUSH1 0x40 MLOAD PUSH3 0x461BCD PUSH1 0xE5 SHL DUP2 MSTORE PUSH1 0x20 PUSH1 0x4 DUP3 ADD MSTORE PUSH1 0x29 PUSH1 0x24 DUP3 ADD MSTORE PUSH32 0x50726F706F73656420416E6F6E494420636F6E74726163742061646472657373 PUSH1 0x44 DUP3 ADD MSTORE PUSH9 0x40DAD2E6DAC2E8C6D PUSH1 0xBB SHL PUSH1 0x64 DUP3 ADD MSTORE PUSH1 0x84 ADD PUSH2 0x744 JUMP JUMPDEST PUSH1 0x0 DUP6 PUSH1 0x40 MLOAD PUSH1 0x20 ADD PUSH2 0x2BAB SWAP2 SWAP1 PUSH2 0x36F5 JUMP JUMPDEST PUSH1 0x40 MLOAD PUSH1 0x20 DUP2 DUP4 SUB SUB DUP2 MSTORE SWAP1 PUSH1 0x40 MSTORE DUP1 MLOAD SWAP1 PUSH1 0x20 ADD KECCAK256 SWAP1 POP DUP1 PUSH1 0x10 SLOAD SUB PUSH2 0x2C3C JUMPI PUSH1 0x40 DUP1 MLOAD PUSH3 0x461BCD PUSH1 0xE5 SHL DUP2 MSTORE PUSH1 0x20 PUSH1 0x4 DUP3 ADD MSTORE PUSH1 0x24 DUP2 ADD SWAP2 SWAP1 SWAP2 MSTORE PUSH32 0x4C616D706F7274426173653A20504B48206D617463686573206C617374207573 PUSH1 0x44 DUP3 ADD MSTORE PUSH32 0x656420504B482028757365207365706172617465207365636F6E64206B657929 PUSH1 0x64 DUP3 ADD MSTORE PUSH1 0x84 ADD PUSH2 0x744 JUMP JUMPDEST PUSH1 0xF SLOAD PUSH1 0x40 MLOAD PUSH4 0x333F6111 PUSH1 0xE0 SHL DUP2 MSTORE PUSH1 0x0 SWAP2 PUSH1 0x1 PUSH1 0x1 PUSH1 0xA0 SHL SUB AND SWAP1 PUSH4 0x333F6111 SWAP1 PUSH2 0x2C73 SWAP1 DUP11 SWAP1 DUP11 SWAP1 DUP11 SWAP1 DUP10 SWAP1 PUSH1 0x4 ADD PUSH2 0x35AA JUMP JUMPDEST PUSH1 0x20 PUSH1 0x40 MLOAD DUP1 DUP4 SUB DUP2 PUSH1 0x0 DUP8 GAS CALL ISZERO DUP1 ISZERO PUSH2 0x2C92 JUMPI RETURNDATASIZE PUSH1 0x0 DUP1 RETURNDATACOPY RETURNDATASIZE PUSH1 0x0 REVERT JUMPDEST POP POP POP POP PUSH1 0x40 MLOAD RETURNDATASIZE PUSH1 0x1F NOT PUSH1 0x1F DUP3 ADD AND DUP3 ADD DUP1 PUSH1 0x40 MSTORE POP DUP2 ADD SWAP1 PUSH2 0x2CB6 SWAP2 SWAP1 PUSH2 0x368B JUMP JUMPDEST SWAP1 POP DUP1 PUSH2 0x2CD5 JUMPI PUSH1 0x40 MLOAD PUSH3 0x461BCD PUSH1 0xE5 SHL DUP2 MSTORE PUSH1 0x4 ADD PUSH2 0x744 SWAP1 PUSH2 0x3AB5 JUMP JUMPDEST PUSH1 0xC DUP1 SLOAD PUSH1 0x1 PUSH1 0x1 PUSH1 0xA0 SHL SUB NOT AND PUSH1 0x1 PUSH1 0x1 PUSH1 0xA0 SHL SUB DUP7 AND SWAP1 DUP2 OR SWAP1 SWAP2 SSTORE PUSH1 0x40 MLOAD PUSH32 0xEBC4468D0C46ED1B5177ED98BDB5D4CCFC7DD4F9DA4CAA02B6FD46B1E7BE0D4E SWAP1 PUSH1 0x0 SWAP1 LOG2 POP POP CALLER PUSH1 0x0 SWAP1 DUP2 MSTORE PUSH1 0x3 PUSH1 0x20 MSTORE PUSH1 0x40 DUP2 KECCAK256 DUP1 SLOAD PUSH1 0x1 PUSH1 0x1 PUSH1 0xA0 SHL SUB NOT AND SWAP1 SSTORE PUSH1 0x10 SSTORE POP POP POP POP POP JUMP JUMPDEST CALLER PUSH1 0x0 SWAP1 DUP2 MSTORE PUSH1 0x9 PUSH1 0x20 MSTORE PUSH1 0x40 SWAP1 KECCAK256 SLOAD PUSH5 0x100000000 SWAP1 DIV PUSH1 0xFF AND PUSH2 0x2DAC JUMPI PUSH1 0x40 MLOAD PUSH3 0x461BCD PUSH1 0xE5 SHL DUP2 MSTORE PUSH1 0x20 PUSH1 0x4 DUP3 ADD MSTORE PUSH1 0x1A PUSH1 0x24 DUP3 ADD MSTORE PUSH32 0x43616C6C6572206973206E6F7420612067616D652061646D696E000000000000 PUSH1 0x44 DUP3 ADD MSTORE PUSH1 0x64 ADD PUSH2 0x744 JUMP JUMPDEST PUSH1 0x0 JUMPDEST PUSH1 0x8 SLOAD DUP2 LT ISZERO PUSH2 0xAAA JUMPI DUP2 PUSH1 0x40 MLOAD PUSH1 0x20 ADD PUSH2 0x2DCA SWAP2 SWAP1 PUSH2 0x38D8 JUMP JUMPDEST PUSH1 0x40 MLOAD PUSH1 0x20 DUP2 DUP4 SUB SUB DUP2 MSTORE SWAP1 PUSH1 0x40 MSTORE DUP1 MLOAD SWAP1 PUSH1 0x20 ADD KECCAK256 PUSH1 0x8 DUP3 DUP2 SLOAD DUP2 LT PUSH2 0x2DF3 JUMPI PUSH2 0x2DF3 PUSH2 0x36A8 JUMP JUMPDEST SWAP1 PUSH1 0x0 MSTORE PUSH1 0x20 PUSH1 0x0 KECCAK256 ADD PUSH1 0x40 MLOAD PUSH1 0x20 ADD PUSH2 0x2E0D SWAP2 SWAP1 PUSH2 0x38F4 JUMP JUMPDEST PUSH1 0x40 MLOAD PUSH1 0x20 DUP2 DUP4 SUB SUB DUP2 MSTORE SWAP1 PUSH1 0x40 MSTORE DUP1 MLOAD SWAP1 PUSH1 0x20 ADD KECCAK256 SUB PUSH2 0x2EE0 JUMPI PUSH1 0x0 DUP1 DUP4 PUSH1 0x40 MLOAD PUSH2 0x2E39 SWAP2 SWAP1 PUSH2 0x38D8 JUMP JUMPDEST SWAP1 DUP2 MSTORE PUSH1 0x40 MLOAD SWAP1 DUP2 SWAP1 SUB PUSH1 0x20 ADD SWAP1 KECCAK256 DUP1 SLOAD SWAP2 ISZERO ISZERO PUSH1 0xFF NOT SWAP1 SWAP3 AND SWAP2 SWAP1 SWAP2 OR SWAP1 SSTORE PUSH1 0x8 DUP1 SLOAD PUSH2 0x2E69 SWAP1 PUSH1 0x1 SWAP1 PUSH2 0x36BE JUMP JUMPDEST DUP2 SLOAD DUP2 LT PUSH2 0x2E79 JUMPI PUSH2 0x2E79 PUSH2 0x36A8 JUMP JUMPDEST SWAP1 PUSH1 0x0 MSTORE PUSH1 0x20 PUSH1 0x0 KECCAK256 ADD PUSH1 0x8 DUP3 DUP2 SLOAD DUP2 LT PUSH2 0x2E96 JUMPI PUSH2 0x2E96 PUSH2 0x36A8 JUMP JUMPDEST SWAP1 PUSH1 0x0 MSTORE PUSH1 0x20 PUSH1 0x0 KECCAK256 ADD SWAP1 DUP2 PUSH2 0x2EAC SWAP2 SWAP1 PUSH2 0x3AF6 JUMP JUMPDEST POP PUSH1 0x8 DUP1 SLOAD DUP1 PUSH2 0x2EBE JUMPI PUSH2 0x2EBE PUSH2 0x36DF JUMP JUMPDEST PUSH1 0x1 SWAP1 SUB DUP2 DUP2 SWAP1 PUSH1 0x0 MSTORE PUSH1 0x20 PUSH1 0x0 KECCAK256 ADD PUSH1 0x0 PUSH2 0x2EDA SWAP2 SWAP1 PUSH2 0x2EE8 JUMP JUMPDEST SWAP1 SSTORE POP POP JUMP JUMPDEST PUSH1 0x1 ADD PUSH2 0x2DAF JUMP JUMPDEST POP DUP1 SLOAD PUSH2 0x2EF4 SWAP1 PUSH2 0x3793 JUMP JUMPDEST PUSH1 0x0 DUP3 SSTORE DUP1 PUSH1 0x1F LT PUSH2 0x2F04 JUMPI POP POP JUMP JUMPDEST PUSH1 0x1F ADD PUSH1 0x20 SWAP1 DIV SWAP1 PUSH1 0x0 MSTORE PUSH1 0x20 PUSH1 0x0 KECCAK256 SWAP1 DUP2 ADD SWAP1 PUSH2 0x2F22 SWAP2 SWAP1 PUSH2 0x2F25 JUMP JUMPDEST POP JUMP JUMPDEST JUMPDEST DUP1 DUP3 GT ISZERO PUSH2 0x2F3A JUMPI PUSH1 0x0 DUP2 SSTORE PUSH1 0x1 ADD PUSH2 0x2F26 JUMP JUMPDEST POP SWAP1 JUMP JUMPDEST DUP1 CALLDATALOAD PUSH1 0x1 PUSH1 0x1 PUSH1 0xA0 SHL SUB DUP2 AND DUP2 EQ PUSH2 0x2F55 JUMPI PUSH1 0x0 DUP1 REVERT JUMPDEST SWAP2 SWAP1 POP JUMP JUMPDEST DUP1 ISZERO ISZERO DUP2 EQ PUSH2 0x2F22 JUMPI PUSH1 0x0 DUP1 REVERT JUMPDEST PUSH1 0x0 DUP1 PUSH1 0x40 DUP4 DUP6 SUB SLT ISZERO PUSH2 0x2F7B JUMPI PUSH1 0x0 DUP1 REVERT JUMPDEST PUSH2 0x2F84 DUP4 PUSH2 0x2F3E JUMP JUMPDEST SWAP2 POP PUSH1 0x20 DUP4 ADD CALLDATALOAD PUSH2 0x2F94 DUP2 PUSH2 0x2F5A JUMP JUMPDEST DUP1 SWAP2 POP POP SWAP3 POP SWAP3 SWAP1 POP JUMP JUMPDEST DUP1 PUSH2 0x4000 DUP2 ADD DUP4 LT ISZERO PUSH2 0x1E64 JUMPI PUSH1 0x0 DUP1 REVERT JUMPDEST DUP1 PUSH2 0x2000 DUP2 ADD DUP4 LT ISZERO PUSH2 0x1E64 JUMPI PUSH1 0x0 DUP1 REVERT JUMPDEST PUSH1 0x0 DUP1 PUSH1 0x0 DUP1 PUSH2 0x4060 DUP6 DUP8 SUB SLT ISZERO PUSH2 0x2FDA JUMPI PUSH1 0x0 DUP1 REVERT JUMPDEST PUSH2 0x2FE4 DUP7 DUP7 PUSH2 0x2F9F JUMP JUMPDEST SWAP4 POP PUSH2 0x4000 DUP6 ADD CALLDATALOAD PUSH8 0xFFFFFFFFFFFFFFFF DUP2 GT ISZERO PUSH2 0x3001 JUMPI PUSH1 0x0 DUP1 REVERT JUMPDEST PUSH2 0x300D DUP8 DUP3 DUP9 ADD PUSH2 0x2FB1 JUMP JUMPDEST SWAP4 POP POP PUSH2 0x4020 DUP6 ADD CALLDATALOAD SWAP2 POP PUSH2 0x3025 PUSH2 0x4040 DUP7 ADD PUSH2 0x2F3E JUMP JUMPDEST SWAP1 POP SWAP3 SWAP6 SWAP2 SWAP5 POP SWAP3 POP JUMP JUMPDEST PUSH1 0x0 PUSH1 0x20 DUP3 DUP5 SUB SLT ISZERO PUSH2 0x3042 JUMPI PUSH1 0x0 DUP1 REVERT JUMPDEST PUSH2 0x304B DUP3 PUSH2 0x2F3E JUMP JUMPDEST SWAP4 SWAP3 POP POP POP JUMP JUMPDEST PUSH1 0x0 PUSH1 0x20 DUP3 DUP5 SUB SLT ISZERO PUSH2 0x3064 JUMPI PUSH1 0x0 DUP1 REVERT JUMPDEST POP CALLDATALOAD SWAP2 SWAP1 POP JUMP JUMPDEST PUSH1 0x0 DUP1 PUSH1 0x40 DUP4 DUP6 SUB SLT ISZERO PUSH2 0x307E JUMPI PUSH1 0x0 DUP1 REVERT JUMPDEST PUSH2 0x3087 DUP4 PUSH2 0x2F3E JUMP JUMPDEST SWAP5 PUSH1 0x20 SWAP4 SWAP1 SWAP4 ADD CALLDATALOAD SWAP4 POP POP POP JUMP JUMPDEST PUSH4 0x4E487B71 PUSH1 0xE0 SHL PUSH1 0x0 MSTORE PUSH1 0x41 PUSH1 0x4 MSTORE PUSH1 0x24 PUSH1 0x0 REVERT JUMPDEST PUSH1 0x40 MLOAD PUSH1 0x1F DUP3 ADD PUSH1 0x1F NOT AND DUP2 ADD PUSH8 0xFFFFFFFFFFFFFFFF DUP2 GT DUP3 DUP3 LT OR ISZERO PUSH2 0x30D4 JUMPI PUSH2 0x30D4 PUSH2 0x3095 JUMP JUMPDEST PUSH1 0x40 MSTORE SWAP2 SWAP1 POP JUMP JUMPDEST PUSH1 0x0 DUP3 PUSH1 0x1F DUP4 ADD SLT PUSH2 0x30ED JUMPI PUSH1 0x0 DUP1 REVERT JUMPDEST DUP2 CALLDATALOAD PUSH8 0xFFFFFFFFFFFFFFFF DUP2 GT ISZERO PUSH2 0x3107 JUMPI PUSH2 0x3107 PUSH2 0x3095 JUMP JUMPDEST PUSH2 0x311A PUSH1 0x1F DUP3 ADD PUSH1 0x1F NOT AND PUSH1 0x20 ADD PUSH2 0x30AB JUMP JUMPDEST DUP2 DUP2 MSTORE DUP5 PUSH1 0x20 DUP4 DUP7 ADD ADD GT ISZERO PUSH2 0x312F JUMPI PUSH1 0x0 DUP1 REVERT JUMPDEST DUP2 PUSH1 0x20 DUP6 ADD PUSH1 0x20 DUP4 ADD CALLDATACOPY PUSH1 0x0 SWAP2 DUP2 ADD PUSH1 0x20 ADD SWAP2 SWAP1 SWAP2 MSTORE SWAP4 SWAP3 POP POP POP JUMP JUMPDEST PUSH1 0x0 DUP1 PUSH1 0x0 DUP1 PUSH1 0x0 DUP1 PUSH1 0xC0 DUP8 DUP10 SUB SLT ISZERO PUSH2 0x3165 JUMPI PUSH1 0x0 DUP1 REVERT JUMPDEST PUSH2 0x316E DUP8 PUSH2 0x2F3E JUMP JUMPDEST SWAP6 POP PUSH1 0x20 DUP8 ADD CALLDATALOAD PUSH8 0xFFFFFFFFFFFFFFFF DUP1 DUP3 GT ISZERO PUSH2 0x318B JUMPI PUSH1 0x0 DUP1 REVERT JUMPDEST PUSH2 0x3197 DUP11 DUP4 DUP12 ADD PUSH2 0x30DC JUMP JUMPDEST SWAP7 POP PUSH1 0x40 DUP10 ADD CALLDATALOAD SWAP2 POP DUP1 DUP3 GT ISZERO PUSH2 0x31AD JUMPI PUSH1 0x0 DUP1 REVERT JUMPDEST POP PUSH2 0x31BA DUP10 DUP3 DUP11 ADD PUSH2 0x30DC JUMP JUMPDEST SWAP5 POP POP PUSH1 0x60 DUP8 ADD CALLDATALOAD SWAP3 POP PUSH1 0x80 DUP8 ADD CALLDATALOAD SWAP2 POP PUSH2 0x31D7 PUSH1 0xA0 DUP9 ADD PUSH2 0x2F3E JUMP JUMPDEST SWAP1 POP SWAP3 SWAP6 POP SWAP3 SWAP6 POP SWAP3 SWAP6 JUMP JUMPDEST PUSH1 0x0 PUSH1 0x20 DUP3 DUP5 SUB SLT ISZERO PUSH2 0x31F5 JUMPI PUSH1 0x0 DUP1 REVERT JUMPDEST DUP2 CALLDATALOAD PUSH8 0xFFFFFFFFFFFFFFFF DUP2 GT ISZERO PUSH2 0x320C JUMPI PUSH1 0x0 DUP1 REVERT JUMPDEST PUSH2 0x3218 DUP5 DUP3 DUP6 ADD PUSH2 0x30DC JUMP JUMPDEST SWAP5 SWAP4 POP POP POP POP JUMP JUMPDEST PUSH1 0x0 JUMPDEST DUP4 DUP2 LT ISZERO PUSH2 0x323B JUMPI DUP2 DUP2 ADD MLOAD DUP4 DUP3 ADD MSTORE PUSH1 0x20 ADD PUSH2 0x3223 JUMP JUMPDEST POP POP PUSH1 0x0 SWAP2 ADD MSTORE JUMP JUMPDEST PUSH1 0x0 DUP2 MLOAD DUP1 DUP5 MSTORE PUSH2 0x325C DUP2 PUSH1 0x20 DUP7 ADD PUSH1 0x20 DUP7 ADD PUSH2 0x3220 JUMP JUMPDEST PUSH1 0x1F ADD PUSH1 0x1F NOT AND SWAP3 SWAP1 SWAP3 ADD PUSH1 0x20 ADD SWAP3 SWAP2 POP POP JUMP JUMPDEST DUP14 ISZERO ISZERO DUP2 MSTORE DUP13 ISZERO ISZERO PUSH1 0x20 DUP3 ADD MSTORE DUP12 ISZERO ISZERO PUSH1 0x40 DUP3 ADD MSTORE PUSH1 0x0 PUSH2 0x1A0 DUP13 ISZERO ISZERO PUSH1 0x60 DUP5 ADD MSTORE DUP12 ISZERO ISZERO PUSH1 0x80 DUP5 ADD MSTORE DUP11 ISZERO ISZERO PUSH1 0xA0 DUP5 ADD MSTORE DUP10 ISZERO ISZERO PUSH1 0xC0 DUP5 ADD MSTORE DUP1 PUSH1 0xE0 DUP5 ADD MSTORE PUSH2 0x32BC DUP2 DUP5 ADD DUP11 PUSH2 0x3244 JUMP JUMPDEST SWAP1 POP DUP8 PUSH2 0x100 DUP5 ADD MSTORE DUP3 DUP2 SUB PUSH2 0x120 DUP5 ADD MSTORE PUSH2 0x32D8 DUP2 DUP9 PUSH2 0x3244 JUMP JUMPDEST SWAP2 POP POP PUSH2 0x32F1 PUSH2 0x140 DUP4 ADD DUP7 PUSH1 0x1 PUSH1 0x1 PUSH1 0xA0 SHL SUB AND SWAP1 MSTORE JUMP JUMPDEST PUSH2 0x160 DUP3 ADD SWAP4 SWAP1 SWAP4 MSTORE PUSH2 0x180 ADD MSTORE SWAP12 SWAP11 POP POP POP POP POP POP POP POP POP POP POP JUMP JUMPDEST PUSH1 0x0 PUSH1 0x20 DUP1 DUP4 ADD PUSH1 0x20 DUP5 MSTORE DUP1 DUP6 MLOAD DUP1 DUP4 MSTORE PUSH1 0x40 DUP7 ADD SWAP2 POP PUSH1 0x40 DUP2 PUSH1 0x5 SHL DUP8 ADD ADD SWAP3 POP PUSH1 0x20 DUP8 ADD PUSH1 0x0 JUMPDEST DUP3 DUP2 LT ISZERO PUSH2 0x3365 JUMPI PUSH1 0x3F NOT DUP9 DUP7 SUB ADD DUP5 MSTORE PUSH2 0x3353 DUP6 DUP4 MLOAD PUSH2 0x3244 JUMP JUMPDEST SWAP5 POP SWAP3 DUP6 ADD SWAP3 SWAP1 DUP6 ADD SWAP1 PUSH1 0x1 ADD PUSH2 0x3337 JUMP JUMPDEST POP SWAP3 SWAP8 SWAP7 POP POP POP POP POP POP POP JUMP JUMPDEST PUSH1 0x0 DUP1 PUSH1 0x40 DUP4 DUP6 SUB SLT ISZERO PUSH2 0x3385 JUMPI PUSH1 0x0 DUP1 REVERT JUMPDEST DUP3 CALLDATALOAD PUSH8 0xFFFFFFFFFFFFFFFF DUP1 DUP3 GT ISZERO PUSH2 0x339D JUMPI PUSH1 0x0 DUP1 REVERT JUMPDEST DUP2 DUP6 ADD SWAP2 POP DUP6 PUSH1 0x1F DUP4 ADD SLT PUSH2 0x33B1 JUMPI PUSH1 0x0 DUP1 REVERT JUMPDEST DUP2 CALLDATALOAD PUSH1 0x20 DUP3 DUP3 GT ISZERO PUSH2 0x33C5 JUMPI PUSH2 0x33C5 PUSH2 0x3095 JUMP JUMPDEST DUP2 PUSH1 0x5 SHL PUSH2 0x33D4 DUP3 DUP3 ADD PUSH2 0x30AB JUMP JUMPDEST SWAP3 DUP4 MSTORE DUP5 DUP2 ADD DUP3 ADD SWAP3 DUP3 DUP2 ADD SWAP1 DUP11 DUP6 GT ISZERO PUSH2 0x33EE JUMPI PUSH1 0x0 DUP1 REVERT JUMPDEST DUP4 DUP8 ADD SWAP3 POP JUMPDEST DUP5 DUP4 LT ISZERO PUSH2 0x342A JUMPI DUP3 CALLDATALOAD DUP7 DUP2 GT ISZERO PUSH2 0x340C JUMPI PUSH1 0x0 DUP1 DUP2 REVERT JUMPDEST PUSH2 0x341A DUP13 DUP7 DUP4 DUP12 ADD ADD PUSH2 0x30DC JUMP JUMPDEST DUP4 MSTORE POP SWAP2 DUP4 ADD SWAP2 SWAP1 DUP4 ADD SWAP1 PUSH2 0x33F4 JUMP JUMPDEST SWAP11 SWAP9 SWAP1 SWAP3 ADD CALLDATALOAD SWAP9 POP POP POP POP POP POP POP POP JUMP JUMPDEST PUSH1 0x20 DUP1 DUP3 MSTORE DUP3 MLOAD DUP3 DUP3 ADD DUP2 SWAP1 MSTORE PUSH1 0x0 SWAP2 SWAP1 DUP5 DUP3 ADD SWAP1 PUSH1 0x40 DUP6 ADD SWAP1 DUP5 JUMPDEST DUP2 DUP2 LT ISZERO PUSH2 0x347C JUMPI DUP4 MLOAD PUSH1 0x1 PUSH1 0x1 PUSH1 0xA0 SHL SUB AND DUP4 MSTORE SWAP3 DUP5 ADD SWAP3 SWAP2 DUP5 ADD SWAP2 PUSH1 0x1 ADD PUSH2 0x3457 JUMP JUMPDEST POP SWAP1 SWAP7 SWAP6 POP POP POP POP POP POP JUMP JUMPDEST PUSH1 0x0 DUP1 PUSH1 0x0 DUP1 PUSH1 0x0 PUSH2 0x4080 DUP7 DUP9 SUB SLT ISZERO PUSH2 0x34A1 JUMPI PUSH1 0x0 DUP1 REVERT JUMPDEST DUP6 CALLDATALOAD PUSH8 0xFFFFFFFFFFFFFFFF DUP1 DUP3 GT ISZERO PUSH2 0x34B9 JUMPI PUSH1 0x0 DUP1 REVERT JUMPDEST PUSH2 0x34C5 DUP10 DUP4 DUP11 ADD PUSH2 0x30DC JUMP JUMPDEST SWAP7 POP PUSH1 0x20 DUP9 ADD CALLDATALOAD SWAP2 POP PUSH2 0x34D7 DUP3 PUSH2 0x2F5A JUMP JUMPDEST DUP2 SWAP6 POP PUSH2 0x34E7 DUP10 PUSH1 0x40 DUP11 ADD PUSH2 0x2F9F JUMP JUMPDEST SWAP5 POP PUSH2 0x4040 DUP9 ADD CALLDATALOAD SWAP2 POP DUP1 DUP3 GT ISZERO PUSH2 0x34FE JUMPI PUSH1 0x0 DUP1 REVERT JUMPDEST POP PUSH2 0x350B DUP9 DUP3 DUP10 ADD PUSH2 0x2FB1 JUMP JUMPDEST SWAP6 SWAP9 SWAP5 SWAP8 POP SWAP3 SWAP6 PUSH2 0x4060 ADD CALLDATALOAD SWAP4 SWAP3 POP POP POP JUMP JUMPDEST PUSH1 0x20 DUP2 MSTORE PUSH1 0x0 PUSH2 0x304B PUSH1 0x20 DUP4 ADD DUP5 PUSH2 0x3244 JUMP JUMPDEST PUSH1 0x0 DUP1 PUSH1 0x40 DUP4 DUP6 SUB SLT ISZERO PUSH2 0x3544 JUMPI PUSH1 0x0 DUP1 REVERT JUMPDEST PUSH2 0x354D DUP4 PUSH2 0x2F3E JUMP JUMPDEST SWAP2 POP PUSH2 0x355B PUSH1 0x20 DUP5 ADD PUSH2 0x2F3E JUMP JUMPDEST SWAP1 POP SWAP3 POP SWAP3 SWAP1 POP JUMP JUMPDEST PUSH1 0x60 SWAP2 SWAP1 SWAP2 SHL PUSH12 0xFFFFFFFFFFFFFFFFFFFFFFFF NOT AND DUP2 MSTORE PUSH1 0x14 ADD SWAP1 JUMP JUMPDEST DUP2 DUP4 MSTORE DUP2 DUP2 PUSH1 0x20 DUP6 ADD CALLDATACOPY POP PUSH1 0x0 DUP3 DUP3 ADD PUSH1 0x20 SWAP1 DUP2 ADD SWAP2 SWAP1 SWAP2 MSTORE PUSH1 0x1F SWAP1 SWAP2 ADD PUSH1 0x1F NOT AND SWAP1 SWAP2 ADD ADD SWAP1 JUMP JUMPDEST PUSH1 0x0 PUSH2 0x4060 DUP3 DUP2 ADD DUP4 DUP9 DUP5 JUMPDEST PUSH2 0x100 DUP2 LT ISZERO PUSH2 0x35D7 JUMPI PUSH1 0x40 DUP1 DUP4 DUP6 CALLDATACOPY SWAP3 DUP4 ADD SWAP3 SWAP2 SWAP1 SWAP2 ADD SWAP1 PUSH1 0x1 ADD PUSH2 0x35B6 JUMP JUMPDEST POP POP POP PUSH2 0x4000 DUP5 ADD SWAP2 SWAP1 SWAP2 MSTORE PUSH2 0x6060 DUP4 ADD DUP7 PUSH1 0x0 JUMPDEST PUSH2 0x100 DUP2 LT ISZERO PUSH2 0x3663 JUMPI DUP6 DUP4 SUB PUSH2 0x405F NOT ADD DUP5 MSTORE DUP2 CALLDATALOAD CALLDATASIZE DUP11 SWAP1 SUB PUSH1 0x1E NOT ADD DUP2 SLT PUSH2 0x3615 JUMPI PUSH1 0x0 DUP1 REVERT JUMPDEST DUP10 ADD PUSH1 0x20 DUP2 DUP2 ADD SWAP2 CALLDATALOAD SWAP1 PUSH8 0xFFFFFFFFFFFFFFFF DUP3 GT ISZERO PUSH2 0x3634 JUMPI PUSH1 0x0 DUP1 REVERT JUMPDEST DUP2 CALLDATASIZE SUB DUP4 SGT ISZERO PUSH2 0x3643 JUMPI PUSH1 0x0 DUP1 REVERT JUMPDEST PUSH2 0x364E DUP7 DUP4 DUP6 PUSH2 0x3581 JUMP JUMPDEST SWAP7 DUP2 ADD SWAP7 SWAP6 POP SWAP4 SWAP1 SWAP4 ADD SWAP3 POP POP PUSH1 0x1 ADD PUSH2 0x35EC JUMP JUMPDEST POP POP DUP6 PUSH2 0x4020 DUP6 ADD MSTORE DUP4 DUP2 SUB PUSH2 0x4040 DUP6 ADD MSTORE PUSH2 0x367F DUP2 DUP7 PUSH2 0x3244 JUMP JUMPDEST SWAP9 SWAP8 POP POP POP POP POP POP POP POP JUMP JUMPDEST PUSH1 0x0 PUSH1 0x20 DUP3 DUP5 SUB SLT ISZERO PUSH2 0x369D JUMPI PUSH1 0x0 DUP1 REVERT JUMPDEST DUP2 MLOAD PUSH2 0x304B DUP2 PUSH2 0x2F5A JUMP JUMPDEST PUSH4 0x4E487B71 PUSH1 0xE0 SHL PUSH1 0x0 MSTORE PUSH1 0x32 PUSH1 0x4 MSTORE PUSH1 0x24 PUSH1 0x0 REVERT JUMPDEST DUP2 DUP2 SUB DUP2 DUP2 GT ISZERO PUSH2 0x1E64 JUMPI PUSH4 0x4E487B71 PUSH1 0xE0 SHL PUSH1 0x0 MSTORE PUSH1 0x11 PUSH1 0x4 MSTORE PUSH1 0x24 PUSH1 0x0 REVERT JUMPDEST PUSH4 0x4E487B71 PUSH1 0xE0 SHL PUSH1 0x0 MSTORE PUSH1 0x31 PUSH1 0x4 MSTORE PUSH1 0x24 PUSH1 0x0 REVERT JUMPDEST PUSH1 0x0 DUP2 DUP4 DUP3 JUMPDEST PUSH2 0x100 DUP2 LT ISZERO PUSH2 0x371C JUMPI PUSH1 0x40 DUP1 DUP4 DUP6 CALLDATACOPY SWAP3 DUP4 ADD SWAP3 SWAP2 SWAP1 SWAP2 ADD SWAP1 PUSH1 0x1 ADD PUSH2 0x36FB JUMP JUMPDEST POP POP POP PUSH2 0x4000 DUP3 ADD SWAP1 POP SWAP3 SWAP2 POP POP JUMP JUMPDEST PUSH1 0x20 DUP1 DUP3 MSTORE PUSH1 0x41 SWAP1 DUP3 ADD MSTORE PUSH32 0x53616D6520504B48207573656420666F7220626F74682073746570733B207573 PUSH1 0x40 DUP3 ADD MSTORE PUSH32 0x652061207365706172617465206B657920666F7220636F6E6669726D6174696F PUSH1 0x60 DUP3 ADD MSTORE PUSH1 0x37 PUSH1 0xF9 SHL PUSH1 0x80 DUP3 ADD MSTORE PUSH1 0xA0 ADD SWAP1 JUMP JUMPDEST PUSH1 0x1 DUP2 DUP2 SHR SWAP1 DUP3 AND DUP1 PUSH2 0x37A7 JUMPI PUSH1 0x7F DUP3 AND SWAP2 POP JUMPDEST PUSH1 0x20 DUP3 LT DUP2 SUB PUSH2 0x19B3 JUMPI PUSH4 0x4E487B71 PUSH1 0xE0 SHL PUSH1 0x0 MSTORE PUSH1 0x22 PUSH1 0x4 MSTORE PUSH1 0x24 PUSH1 0x0 REVERT JUMPDEST PUSH1 0x1F DUP3 GT ISZERO PUSH2 0x3813 JUMPI PUSH1 0x0 DUP2 PUSH1 0x0 MSTORE PUSH1 0x20 PUSH1 0x0 KECCAK256 PUSH1 0x1F DUP6 ADD PUSH1 0x5 SHR DUP2 ADD PUSH1 0x20 DUP7 LT ISZERO PUSH2 0x37F0 JUMPI POP DUP1 JUMPDEST PUSH1 0x1F DUP6 ADD PUSH1 0x5 SHR DUP3 ADD SWAP2 POP JUMPDEST DUP2 DUP2 LT ISZERO PUSH2 0x380F JUMPI DUP3 DUP2 SSTORE PUSH1 0x1 ADD PUSH2 0x37FC JUMP JUMPDEST POP POP POP JUMPDEST POP POP POP JUMP JUMPDEST DUP2 MLOAD PUSH8 0xFFFFFFFFFFFFFFFF DUP2 GT ISZERO PUSH2 0x3832 JUMPI PUSH2 0x3832 PUSH2 0x3095 JUMP JUMPDEST PUSH2 0x3846 DUP2 PUSH2 0x3840 DUP5 SLOAD PUSH2 0x3793 JUMP JUMPDEST DUP5 PUSH2 0x37C7 JUMP JUMPDEST PUSH1 0x20 DUP1 PUSH1 0x1F DUP4 GT PUSH1 0x1 DUP2 EQ PUSH2 0x387B JUMPI PUSH1 0x0 DUP5 ISZERO PUSH2 0x3863 JUMPI POP DUP6 DUP4 ADD MLOAD JUMPDEST PUSH1 0x0 NOT PUSH1 0x3 DUP7 SWAP1 SHL SHR NOT AND PUSH1 0x1 DUP6 SWAP1 SHL OR DUP6 SSTORE PUSH2 0x380F JUMP JUMPDEST PUSH1 0x0 DUP6 DUP2 MSTORE PUSH1 0x20 DUP2 KECCAK256 PUSH1 0x1F NOT DUP7 AND SWAP2 JUMPDEST DUP3 DUP2 LT ISZERO PUSH2 0x38AA JUMPI DUP9 DUP7 ADD MLOAD DUP3 SSTORE SWAP5 DUP5 ADD SWAP5 PUSH1 0x1 SWAP1 SWAP2 ADD SWAP1 DUP5 ADD PUSH2 0x388B JUMP JUMPDEST POP DUP6 DUP3 LT ISZERO PUSH2 0x38C8 JUMPI DUP8 DUP6 ADD MLOAD PUSH1 0x0 NOT PUSH1 0x3 DUP9 SWAP1 SHL PUSH1 0xF8 AND SHR NOT AND DUP2 SSTORE JUMPDEST POP POP POP POP POP PUSH1 0x1 SWAP1 DUP2 SHL ADD SWAP1 SSTORE POP JUMP JUMPDEST PUSH1 0x0 DUP3 MLOAD PUSH2 0x38EA DUP2 DUP5 PUSH1 0x20 DUP8 ADD PUSH2 0x3220 JUMP JUMPDEST SWAP2 SWAP1 SWAP2 ADD SWAP3 SWAP2 POP POP JUMP JUMPDEST PUSH1 0x0 DUP1 DUP4 SLOAD PUSH2 0x3902 DUP2 PUSH2 0x3793 JUMP JUMPDEST PUSH1 0x1 DUP3 DUP2 AND DUP1 ISZERO PUSH2 0x391A JUMPI PUSH1 0x1 DUP2 EQ PUSH2 0x392F JUMPI PUSH2 0x395E JUMP JUMPDEST PUSH1 0xFF NOT DUP5 AND DUP8 MSTORE DUP3 ISZERO ISZERO DUP4 MUL DUP8 ADD SWAP5 POP PUSH2 0x395E JUMP JUMPDEST DUP8 PUSH1 0x0 MSTORE PUSH1 0x20 DUP1 PUSH1 0x0 KECCAK256 PUSH1 0x0 JUMPDEST DUP6 DUP2 LT ISZERO PUSH2 0x3955 JUMPI DUP2 SLOAD DUP11 DUP3 ADD MSTORE SWAP1 DUP5 ADD SWAP1 DUP3 ADD PUSH2 0x393C JUMP JUMPDEST POP POP POP DUP3 DUP8 ADD SWAP5 POP JUMPDEST POP SWAP3 SWAP7 SWAP6 POP POP POP POP POP POP JUMP JUMPDEST PUSH1 0x0 DUP2 SLOAD PUSH2 0x3977 DUP2 PUSH2 0x3793 JUMP JUMPDEST DUP1 DUP6 MSTORE PUSH1 0x20 PUSH1 0x1 DUP4 DUP2 AND DUP1 ISZERO PUSH2 0x3994 JUMPI PUSH1 0x1 DUP2 EQ PUSH2 0x39AE JUMPI PUSH2 0x39DC JUMP JUMPDEST PUSH1 0xFF NOT DUP6 AND DUP9 DUP5 ADD MSTORE DUP4 ISZERO ISZERO PUSH1 0x5 SHL DUP9 ADD DUP4 ADD SWAP6 POP PUSH2 0x39DC JUMP JUMPDEST DUP7 PUSH1 0x0 MSTORE DUP3 PUSH1 0x0 KECCAK256 PUSH1 0x0 JUMPDEST DUP6 DUP2 LT ISZERO PUSH2 0x39D4 JUMPI DUP2 SLOAD DUP11 DUP3 ADD DUP7 ADD MSTORE SWAP1 DUP4 ADD SWAP1 DUP5 ADD PUSH2 0x39B9 JUMP JUMPDEST DUP10 ADD DUP5 ADD SWAP7 POP POP JUMPDEST POP POP POP POP POP SWAP3 SWAP2 POP POP JUMP JUMPDEST PUSH1 0x40 DUP2 MSTORE PUSH1 0x0 PUSH2 0x39FA PUSH1 0x40 DUP4 ADD DUP6 PUSH2 0x396A JUMP JUMPDEST SWAP1 POP PUSH1 0x1 DUP1 PUSH1 0xA0 SHL SUB DUP4 AND PUSH1 0x20 DUP4 ADD MSTORE SWAP4 SWAP3 POP POP POP JUMP JUMPDEST PUSH1 0x0 PUSH1 0x20 DUP3 DUP5 SUB SLT ISZERO PUSH2 0x3A23 JUMPI PUSH1 0x0 DUP1 REVERT JUMPDEST DUP2 MLOAD PUSH1 0xFF DUP2 AND DUP2 EQ PUSH2 0x304B JUMPI PUSH1 0x0 DUP1 REVERT JUMPDEST PUSH1 0x0 DUP3 PUSH2 0x3A51 JUMPI PUSH4 0x4E487B71 PUSH1 0xE0 SHL PUSH1 0x0 MSTORE PUSH1 0x12 PUSH1 0x4 MSTORE PUSH1 0x24 PUSH1 0x0 REVERT JUMPDEST POP DIV SWAP1 JUMP JUMPDEST PUSH1 0x1 PUSH1 0x1 PUSH1 0xA0 SHL SUB DUP4 AND DUP2 MSTORE PUSH1 0x40 PUSH1 0x20 DUP3 ADD DUP2 SWAP1 MSTORE PUSH1 0x0 SWAP1 PUSH2 0x3218 SWAP1 DUP4 ADD DUP5 PUSH2 0x396A JUMP JUMPDEST PUSH1 0x0 DUP1 PUSH1 0x0 PUSH1 0x60 DUP5 DUP7 SUB SLT ISZERO PUSH2 0x3A8F JUMPI PUSH1 0x0 DUP1 REVERT JUMPDEST DUP4 MLOAD PUSH1 0x3 DUP2 LT PUSH2 0x3A9E JUMPI PUSH1 0x0 DUP1 REVERT JUMPDEST PUSH1 0x20 DUP6 ADD MLOAD PUSH1 0x40 SWAP1 SWAP6 ADD MLOAD SWAP1 SWAP7 SWAP5 SWAP6 POP SWAP4 SWAP3 POP POP POP JUMP JUMPDEST PUSH1 0x20 DUP1 DUP3 MSTORE PUSH1 0x21 SWAP1 DUP3 ADD MSTORE PUSH32 0x4C616D706F7274426173653A20417574686F72697A6174696F6E206661696C65 PUSH1 0x40 DUP3 ADD MSTORE PUSH1 0x19 PUSH1 0xFA SHL PUSH1 0x60 DUP3 ADD MSTORE PUSH1 0x80 ADD SWAP1 JUMP JUMPDEST DUP2 DUP2 SUB PUSH2 0x3B01 JUMPI POP POP JUMP JUMPDEST PUSH2 0x3B0B DUP3 SLOAD PUSH2 0x3793 JUMP JUMPDEST PUSH8 0xFFFFFFFFFFFFFFFF DUP2 GT ISZERO PUSH2 0x3B23 JUMPI PUSH2 0x3B23 PUSH2 0x3095 JUMP JUMPDEST PUSH2 0x3B31 DUP2 PUSH2 0x3840 DUP5 SLOAD PUSH2 0x3793 JUMP JUMPDEST PUSH1 0x0 PUSH1 0x1F DUP3 GT PUSH1 0x1 DUP2 EQ PUSH2 0x3B65 JUMPI PUSH1 0x0 DUP4 ISZERO PUSH2 0x3B4D JUMPI POP DUP5 DUP3 ADD SLOAD JUMPDEST PUSH1 0x0 NOT PUSH1 0x3 DUP6 SWAP1 SHL SHR NOT AND PUSH1 0x1 DUP5 SWAP1 SHL OR DUP5 SSTORE PUSH2 0x3BCA JUMP JUMPDEST PUSH1 0x0 DUP6 DUP2 MSTORE PUSH1 0x20 SWAP1 KECCAK256 PUSH1 0x1F NOT DUP5 AND SWAP1 PUSH1 0x0 DUP7 DUP2 MSTORE PUSH1 0x20 SWAP1 KECCAK256 DUP5 JUMPDEST DUP4 DUP2 LT ISZERO PUSH2 0x3B9F JUMPI DUP3 DUP7 ADD SLOAD DUP3 SSTORE PUSH1 0x1 SWAP6 DUP7 ADD SWAP6 SWAP1 SWAP2 ADD SWAP1 PUSH1 0x20 ADD PUSH2 0x3B7F JUMP JUMPDEST POP DUP6 DUP4 LT ISZERO PUSH2 0x3BBD JUMPI DUP2 DUP6 ADD SLOAD PUSH1 0x0 NOT PUSH1 0x3 DUP9 SWAP1 SHL PUSH1 0xF8 AND SHR NOT AND DUP2 SSTORE JUMPDEST POP POP POP PUSH1 0x1 DUP4 PUSH1 0x1 SHL ADD DUP5 SSTORE JUMPDEST POP POP POP POP POP JUMP INVALID 0x4F PUSH15 0x6C7920746865206F6E72616D702063 PUSH16 0x6E74726163742063616E20636861A264 PUSH10 0x70667358221220F56E59 0xC6 PUSH13 0x436DE20A35DE990CCE88E8681D 0xE6 SLT 0xE2 RETURN 0xEB 0xA8 CALL SAR 0xF6 SGT 0xAA 0xE4 0x26 KECCAK256 PUSH5 0x736F6C6343 STOP ADDMOD XOR STOP CALLER ",
  "sha1": "73f33501be485c090e6ce4e60fa05542f46b5379",
  "source": "// SPDX-License-Identifier: MIT\n\npragma solidity ^0.8.0;\n\ninterface ILamportBase {\n\n    enum KeyType { MASTER, ORACLE, DELETED }\n\n    function performLamportMasterCheck(\n        bytes32[2][256] calldata currentpub,\n        bytes[256] calldata sig,\n        bytes32 nextPKH,\n        bytes memory prepacked\n    ) external returns (bool);\n    \n    function performLamportOracleCheck(\n        bytes32[2][256] calldata currentpub,\n        bytes[256] calldata sig,\n        bytes32 nextPKH,\n        bytes memory prepacked\n    ) external returns (bool);\n\n    function getKeyAndIndexByPKH(bytes32 pkh) external view returns (KeyType, bytes32, uint);\n}\n\ninterface IAnonID {\n    function incrementMinutesPlayed(address user, uint256 _minutes) external;\n    function updateLastPlayed(address _address, string memory _gameId) external;\n    function isWhitelisted(address _address) external view returns (bool);\n    function isPlayerActiveInGame(string memory gameID, address player) external view returns (uint8);\n}\n// MintyDatabase contract inheriting from AnonID\ncontract PlayerDatabase  {\n    // ERC20 Token variables\n    // string public name;\n    // string public symbol;\n    // uint8 public decimals;\n    // uint256 public totalSupply;\n    //uint256 public gameID; // Variable to store the game ID \n    mapping(string => bool) public gameServerIPs; // Mapping to store game server IPs\n    mapping(address => uint256) public balanceOf;\n    mapping(address => mapping(address => uint256)) public allowance;\n    mapping(address => address) private proposedAnonIDContractAddresses;\n    mapping(address => address) private proposedGameValContractAddresses;\n    mapping(address => address) private proposedOnrampContractAddresses;\n    mapping(address => address) private proposedForumContractAddresses;\n\n\n\n    string gameID = \"TFC\"; // Define your game ID for TFC\n    string[] public serverIPList; // Array for listing all server IPs\n\n    // Player Database variables\n    struct Player {\n        bool isRegistered;\n        bool isValidator;\n        bool isModerator;\n        bool isTourneyMod;\n        bool isGameAdmin;\n        bool isOnboardQueuer;\n        bool isOnboardRegistrar;\n        string playerName; // Name of the player\n        bytes32 forumKey; // Unique key for forum entitlements\n        string steamID;\n        address rewardAddress;\n        uint256 oracleKeyIndex1;\n        uint256 oracleKeyIndex2;\n    }\n\n    mapping(address => Player) public playerData;\n    address[] public playerAddresses;\n\n    // Shared variables\n    address public gameValContract; // Address of the game subcontractor\n    IAnonID public anonIDContract; // Reference to the AnonID contract\n    address public onrampContract; // Address of the onramp contract\n    address public forumContract; // Address of the forum contract\n    ILamportBase public lamportBase; // Reference to the lamportBase contract\n    bytes32 private lastUsedNextPKH;\n\n    // Events\n    event ForumContractUpdated(address indexed newForumContract);\n    event AnonIDContractUpdated(address indexed newAnonIDContract);\n    event GameValContractUpdated(address indexed newGameValContract);\n    event OnrampContractUpdated(address indexed newOnrampContract);\n    event Transfer(address indexed from, address indexed to, uint256 value);\n    event Approval(address indexed owner, address indexed spender, uint256 value);\n\n    address _lamportBase = 0xB3830AE69EE5962355e84f6bbAC274Ff337960E5;\n\n    // Constructor\n    //constructor(string memory _name, string memory _symbol, uint8 _decimals) { //}, uint256 _totalSupply) {\n    constructor() {\n\n        lamportBase = ILamportBase(_lamportBase);\n\n        // name = \"GPConcs\";\n        // symbol = \"GPConcs\";\n        // decimals = 18;\n        // balanceOf[msg.sender] = 80000000000000000000000;\n        // gameID = \"TFC\";\n    }\n    function isValidator(address _address) public view returns (bool) {\n        return playerData[_address].isValidator;\n    }\n    function isModerator(address _address) public view returns (bool) {\n        return playerData[_address].isModerator;\n    }\n\n    function isRegistered(address _address) public view returns (bool) {\n        return playerData[_address].isRegistered;\n    }\n    \n    function isTourneyMod(address _address) public view returns (bool) {\n        return playerData[_address].isTourneyMod;\n    }\n    \n    function isGameAdmin(address _address) public view returns (bool) {\n        return playerData[_address].isGameAdmin;\n    }\n    \n    function isOnboardQueuer(address _address) public view returns (bool) {\n        return playerData[_address].isOnboardQueuer;\n    }\n    \n    function isOnboardRegistrar(address _address) public view returns (bool) {\n        return playerData[_address].isOnboardRegistrar;\n    }\n\n    function getOracleKeyIndices(address _address) public view returns (uint256, uint256) {\n        require(isRegistered(_address), \"Player is not registered\");\n        return (playerData[_address].oracleKeyIndex1, playerData[_address].oracleKeyIndex2);\n    }\n    // function getRewardAddressesByNames(string[] memory playerNames) public view returns (address[] memory) {\n    //     address[] memory rewardAddresses = new address[](playerNames.length);\n\n    //     for (uint i = 0; i < playerNames.length; i++) {\n    //         for (uint j = 0; j < playerAddresses.length; j++) {\n    //             if (keccak256(abi.encodePacked(playerData[playerAddresses[j]].playerName)) == keccak256(abi.encodePacked(playerNames[i]))) {\n    //                 rewardAddresses[i] = playerData[playerAddresses[j]].rewardAddress;\n    //                 break; // Stop the inner loop once the address is found\n    //             }\n    //         }\n    //     }\n\n    //     return rewardAddresses;\n    // }\n    function getValidRewardAddressesByNames(string[] memory playerNames, uint256 lastMintTime) public returns (address[] memory) {\n\n        require(msg.sender == gameValContract, \"Only the game validator contract can access this list\");\n    \n        address[] memory validRewardAddresses = new address[](playerNames.length);\n\n        for (uint i = 0; i < playerNames.length; i++) {\n            for (uint j = 0; j < playerAddresses.length; j++) {\n                if (keccak256(abi.encodePacked(playerData[playerAddresses[j]].playerName)) == keccak256(abi.encodePacked(playerNames[i]))) {\n                    uint8 playerStatus = anonIDContract.isPlayerActiveInGame(gameID, playerAddresses[j]);\n\n                    if (playerStatus == 2) { // Player already minted for TFC\n                        validRewardAddresses[i] = playerData[playerAddresses[j]].rewardAddress;\n                        // Increment the minutes played using lastMintTime\n                        uint256 minutesPlayed = lastMintTime / 60; // Convert seconds to minutes\n                        anonIDContract.incrementMinutesPlayed(playerAddresses[j], minutesPlayed);\n                        anonIDContract.updateLastPlayed(playerAddresses[j], gameID);\n\n                    } else if (playerStatus == 0) { // Player not in a game, flag as active\n                        anonIDContract.updateLastPlayed(playerAddresses[j], gameID);\n                        // block.timestamp - lastMintTime = i\n                        // Do not include this player in the reward addresses for this round\n                    }\n                    break; // Stop the inner loop once the player is processed\n                }\n            }\n        }\n\n        return validRewardAddresses;\n    }\n    // // Function to interact with AnonID contract\n    // function updateAnonIDData(address _user, uint256 _minutes, uint256 _gameId) public {\n    //     // Ensure the caller has permission to update AnonID data\n    //     anonIDContract.incrementMinutesPlayed(_user, _minutes);\n    //     anonIDContract.updateLastPlayed(_user, _gameId);\n    // }// validator does this\n\n    // Player Database functions\n    // Assuming IAnonID interface and anonIDContract are already defined and set up in your contract\n    function updateGameServerIP(\n        string memory serverIP,\n        bool add,\n        bytes32[2][256] calldata currentpub,\n        bytes[256] calldata sig,\n        bytes32 nextPKH\n    ) public {\n        // Calculate pkh from currentpub\n        bytes32 pkh = keccak256(abi.encodePacked(currentpub));\n\n        // Perform Lamport Oracle check with \"1\" as the prepacked value\n\n\n        // Retrieve oracle key index and type by PKH\n        (, , uint index) = lamportBase.getKeyAndIndexByPKH(pkh);\n\n        // Retrieve player's oracle key indices\n        (uint256 oracleKeyIndex1, uint256 oracleKeyIndex2) = getOracleKeyIndices(msg.sender);\n\n        // Ensure the current index matches one of the player's oracle key indices\n        require(\n            index == oracleKeyIndex1 || index == oracleKeyIndex2,\n            \"Caller's oracle key index does not match\"\n        );\n\n        // Proceed with the original logic after passing the oracle check and index match\n        require(playerData[msg.sender].isGameAdmin, \"Caller is not a game admin\");\n        require(\n            lamportBase.performLamportOracleCheck(\n                currentpub,\n                sig,\n                nextPKH,\n                abi.encodePacked(serverIP)\n            ),\n            \"Lamport oracle check failed\"\n        );\n        if (add) {\n            if (!gameServerIPs[serverIP]) {\n                gameServerIPs[serverIP] = true;\n                serverIPList.push(serverIP);\n            }\n        } else {\n            if (gameServerIPs[serverIP]) {\n                gameServerIPs[serverIP] = false;\n                removeServerIPFromArray(serverIP);\n            }\n        }\n    }\n    // Helper function to remove a server IP from the array\n    function removeServerIPFromArray(string memory serverIP) private {\n\n        require(playerData[msg.sender].isGameAdmin, \"Caller is not a game admin\");\n        for (uint i = 0; i < serverIPList.length; i++) {\n            if (keccak256(abi.encodePacked(serverIPList[i])) == keccak256(abi.encodePacked(serverIP))) {\n                // Update the mapping to reflect the server IP is no longer registered\n                gameServerIPs[serverIP] = false;\n\n                // Remove the server IP from the array\n                serverIPList[i] = serverIPList[serverIPList.length - 1];\n                serverIPList.pop();\n                break;\n            }\n        }\n    }\n\n    // Function to get the full list of server IPs\n    function getAllServerIPs() public view returns (string[] memory) {\n        return serverIPList;\n    }\n    // function addOrUpdatePlayer(address _address, string memory _steamID, bool _isValidator, bool _isRegistered, string memory _playerName) public {\n    //     require(msg.sender == onrampContract, \"Only the onramp contract can add/update players\");\n    //     require(anonIDContract.isWhitelisted(_address), \"Address not whitelisted in AnonID\");\n\n    //     Player storage player = playerData[_address];\n    //     bool alreadyRegistered = player.isRegistered;\n\n    //     playerData[_address] = Player({\n    //         steamID: _steamID,\n    //         isValidator: _isValidator,\n    //         isRegistered: _isRegistered,\n    //         rewardAddress: _address,\n    //         playerName: _playerName,\n    //         // Zero out or set default values for the non-argument fields\n    //         isModerator: false,\n    //         isTourneyMod: false,\n    //         isGameAdmin: false,\n    //         forumKey: 0 // Assuming 0 is the default value for forumKey\n    //     });\n\n    //     if (!alreadyRegistered) {\n    //         playerAddresses.push(_address);\n    //     }\n    // }\n    function addOrUpdatePlayer(\n        address _address,\n        string memory _steamID,\n        string memory _playerName,\n        uint256 _oracleKeyIndex1, // Revert for new players if this is 0\n        uint256 _oracleKeyIndex2,\n        address _rewardAddress\n    ) \n        public \n    {\n        require(msg.sender == onrampContract, \"Only the onramp contract can add/update players\");\n        require(anonIDContract.isWhitelisted(_address), \"Address not whitelisted in AnonID\");\n\n        Player storage player = playerData[_address];\n        if (player.isRegistered) {\n            // Update existing player data\n            player.steamID = _steamID;\n            player.playerName = _playerName;\n            if (_rewardAddress != address(0)) {\n                player.rewardAddress = _rewardAddress;\n            }\n            else player.rewardAddress = _address;\n            // If _oracleKeyIndex is not 0, update the oracleKeyIndex. Otherwise, leave it unchanged.\n            if (_oracleKeyIndex1 != 0) {\n                player.oracleKeyIndex1 = _oracleKeyIndex1;\n            }\n            if (_oracleKeyIndex2 != 0) {\n                player.oracleKeyIndex2 = _oracleKeyIndex2;\n            }\n            // No additional action required for existing players with _oracleKeyIndex = 0\n        } else {\n            // For a new player, revert the transaction if _oracleKeyIndex is 0\n            require(_oracleKeyIndex1 != 0 || _oracleKeyIndex2 != 0, \"Oracle key index cannot be zero for new players\");\n\n            // Since we're here, _oracleKeyIndex is guaranteed not to be 0\n            playerData[_address] = Player({\n                steamID: _steamID,\n                isValidator: false,\n                isRegistered: true,\n                rewardAddress: _address,\n                playerName: _playerName,\n                isModerator: false,\n                isTourneyMod: false,\n                isGameAdmin: false,\n                isOnboardQueuer: false,\n                isOnboardRegistrar: false,\n                forumKey: 0,\n                oracleKeyIndex1: _oracleKeyIndex1, // Directly set the provided index\n                oracleKeyIndex2: _oracleKeyIndex2\n            });\n            playerAddresses.push(_address);\n        }\n    }\n\n\n    // Function to delete a player by address\n    function deletePlayer(address _address) public {\n        require(msg.sender == onrampContract, \"Only the onramp contract can delete players\");\n\n        delete playerData[_address]; // Remove player data from mapping\n\n        // Find and remove address from playerAddresses array\n        for (uint i = 0; i < playerAddresses.length; i++) {\n            if (playerAddresses[i] == _address) {\n                playerAddresses[i] = playerAddresses[playerAddresses.length - 1]; // Swap with the last element\n                playerAddresses.pop(); // Remove the last element\n                break;\n            }\n        }\n    }\n\n\n    function getAllPlayerNames() public view returns (string[] memory) {\n        string[] memory playerNames = new string[](playerAddresses.length);\n\n        for (uint i = 0; i < playerAddresses.length; i++) {\n            Player storage player = playerData[playerAddresses[i]];\n            playerNames[i] = player.playerName;\n        }\n\n        return playerNames;\n    }\n    // ... [Other Player Database functions]\n    // Function to set the AnonID contract address\n\n    function updateAnonIDContractAddressStepOne(\n        bytes32[2][256] calldata currentpub,\n        bytes[256] calldata sig,\n        bytes32 nextPKH,\n        address _anonIDContract\n    ) public {\n        // Encode the new contract address to bytes\n        bytes memory prepacked = abi.encodePacked(_anonIDContract);\n\n        // Directly call performLamportMasterCheck\n        bool isAuthorized = lamportBase.performLamportMasterCheck(currentpub, sig, nextPKH, prepacked);\n        \n        // Ensure that the Lamport Master Check passed\n        require(isAuthorized, \"LamportBase: Authorization failed\");\n\n        // Save the proposed AnonID contract address in a global variable\n        proposedAnonIDContractAddresses[msg.sender] = _anonIDContract;\n        lastUsedNextPKH = nextPKH;\n    }\n\n    function updateAnonIDContractAddressStepTwo(\n        bytes32[2][256] calldata currentpub,\n        bytes[256] calldata sig,\n        bytes32 nextPKH,\n        address _anonIDContract\n    ) public {\n        // Encode the new contract address to bytes\n        bytes memory prepacked = abi.encodePacked(_anonIDContract);\n\n\n        // Check that the proposed contract address matches the address in the current call\n        require(proposedAnonIDContractAddresses[msg.sender] == _anonIDContract, \"Proposed AnonID contract address mismatch\");\n\n        // Check if the used NextPKH matches the last used PKH to prevent replay with the same keys\n        bytes32 currentPKH = keccak256(abi.encodePacked(currentpub));\n        require(lastUsedNextPKH != currentPKH, \"LamportBase: PKH matches last used PKH (use separate second key)\");\n        // Perform the Lamport Master Check again\n        bool isAuthorized = lamportBase.performLamportMasterCheck(currentpub, sig, nextPKH, prepacked);\n\n        // Ensure that the Lamport Master Check passed\n        require(isAuthorized, \"LamportBase: Authorization failed\");\n        \n        // Update the AnonID contract address\n        anonIDContract = IAnonID(_anonIDContract);\n        emit AnonIDContractUpdated(_anonIDContract);\n\n        // Clear the temporary storage\n        delete proposedAnonIDContractAddresses[msg.sender];\n        lastUsedNextPKH = bytes32(0);\n    }\n\n\n    function updateGameValContractAddressStepOne(\n        bytes32[2][256] calldata currentpub,\n        bytes[256] calldata sig,\n        bytes32 nextPKH,\n        address _gameValContract\n    ) public {\n        // Encode the new contract address to bytes for the Lamport check\n        bytes memory prepacked = abi.encodePacked(_gameValContract);\n\n        // Directly call performLamportMasterCheck from lamportBase\n        bool isAuthorized = lamportBase.performLamportMasterCheck(currentpub, sig, nextPKH, prepacked);\n        \n        // Ensure that the Lamport Master Check passed\n        require(isAuthorized, \"Authorization failed for proposed GameVal contract address\");\n\n        // Store the proposed GameVal contract address for the sender\n        proposedGameValContractAddresses[msg.sender] = _gameValContract;\n        lastUsedNextPKH = nextPKH;\n    }\n\n    function updateGameValContractAddressStepTwo(\n        bytes32[2][256] calldata currentpub,\n        bytes[256] calldata sig,\n        bytes32 nextPKH,\n        address _gameValContract\n    ) public {\n        // Encode the new contract address to bytes for the Lamport check\n        bytes memory prepacked = abi.encodePacked(_gameValContract);\n\n        // Perform the Lamport Master Check again\n\n        // Check that the proposed contract address matches the address being confirmed\n        require(proposedGameValContractAddresses[msg.sender] == _gameValContract, \"Proposed GameVal contract address mismatch\");\n\n        // Check if the used NextPKH matches the last used PKH to ensure a different key is used\n        bytes32 currentPKH = keccak256(abi.encodePacked(currentpub));\n        require(lastUsedNextPKH != currentPKH, \"Same PKH used for both steps; use a separate key for confirmation\");\n        bool isAuthorized = lamportBase.performLamportMasterCheck(currentpub, sig, nextPKH, prepacked);\n\n        // Ensure that the Lamport Master Check passed\n        require(isAuthorized, \"Authorization failed on confirmation of GameVal contract address\");\n\n        // Update the GameVal contract address\n        gameValContract = _gameValContract;\n        emit GameValContractUpdated(_gameValContract);\n\n        // Clear the temporary storage\n        delete proposedGameValContractAddresses[msg.sender];\n        lastUsedNextPKH = bytes32(0);\n    }\n\n\n    function updateOnrampContractAddressStepOne(\n        bytes32[2][256] calldata currentpub,\n        bytes[256] calldata sig,\n        bytes32 nextPKH,\n        address _onrampContract\n    ) public {\n        // Encode the new contract address to bytes for the Lamport check\n        bytes memory prepacked = abi.encodePacked(_onrampContract);\n\n        // Perform the Lamport Master Check directly calling lamportBase\n        bool isAuthorized = lamportBase.performLamportMasterCheck(currentpub, sig, nextPKH, prepacked);\n        \n        // Ensure that the Lamport Master Check passed\n        require(isAuthorized, \"Authorization failed for updating Onramp contract address\");\n\n        // Temporarily store the proposed Onramp contract address for the sender\n        proposedOnrampContractAddresses[msg.sender] = _onrampContract;\n        lastUsedNextPKH = nextPKH;\n    }\n    function updateOnrampContractAddressStepTwo(\n        bytes32[2][256] calldata currentpub,\n        bytes[256] calldata sig,\n        bytes32 nextPKH,\n        address _onrampContract\n    ) public {\n        // Encode the new contract address to bytes for the Lamport check\n        bytes memory prepacked = abi.encodePacked(_onrampContract);\n\n        // Perform the Lamport Master Check again\n\n        // Verify that the proposed contract address matches the address being confirmed\n        require(proposedOnrampContractAddresses[msg.sender] == _onrampContract, \"Onramp contract address update mismatch\");\n\n        // Ensure a different key is used for the confirmation step\n        bytes32 currentPKH = keccak256(abi.encodePacked(currentpub));\n        require(lastUsedNextPKH != currentPKH, \"Same PKH used for both steps; use a separate key for confirmation\");\n        bool isAuthorized = lamportBase.performLamportMasterCheck(currentpub, sig, nextPKH, prepacked);\n\n        // Ensure that the Lamport Master Check passed\n        require(isAuthorized, \"Authorization failed on confirmation of Onramp contract address update\");\n\n        // Officially update the Onramp contract address\n        onrampContract = _onrampContract;\n        emit OnrampContractUpdated(_onrampContract);\n\n        // Clear the temporary storage\n        delete proposedOnrampContractAddresses[msg.sender];\n        lastUsedNextPKH = bytes32(0);\n    }\n\n    function updateForumContractAddressStepOne(\n        bytes32[2][256] calldata currentpub,\n        bytes[256] calldata sig,\n        bytes32 nextPKH,\n        address _forumContract\n    ) public {\n        // Encode the new contract address to bytes for the Lamport check\n        bytes memory prepacked = abi.encodePacked(_forumContract);\n\n        // Perform the Lamport Master Check directly calling lamportBase\n        bool isAuthorized = lamportBase.performLamportMasterCheck(currentpub, sig, nextPKH, prepacked);\n        \n        // Ensure that the Lamport Master Check passed\n        require(isAuthorized, \"Authorization failed for proposed update of Forum contract address\");\n\n        // Temporarily store the proposed Forum contract address for the sender\n        proposedForumContractAddresses[msg.sender] = _forumContract;\n        lastUsedNextPKH = nextPKH;\n    }\n\n    function updateForumContractAddressStepTwo(\n        bytes32[2][256] calldata currentpub,\n        bytes[256] calldata sig,\n        bytes32 nextPKH,\n        address _forumContract\n    ) public {\n        // Encode the new contract address to bytes for the Lamport check\n        bytes memory prepacked = abi.encodePacked(_forumContract);\n\n        // Perform the Lamport Master Check again\n\n        // Verify that the proposed contract address matches the address being confirmed\n        require(proposedForumContractAddresses[msg.sender] == _forumContract, \"Forum contract address update mismatch\");\n\n        // Ensure a different key is used for the confirmation step\n        bytes32 currentPKH = keccak256(abi.encodePacked(currentpub));\n        require(lastUsedNextPKH != currentPKH, \"Same PKH used for both steps; use a separate key for confirmation\");\n        bool isAuthorized = lamportBase.performLamportMasterCheck(currentpub, sig, nextPKH, prepacked);\n\n        // Ensure that the Lamport Master Check passed\n        require(isAuthorized, \"Authorization failed on confirmation of Forum contract address update\");\n\n        // Officially update the Forum contract address\n        forumContract = _forumContract;\n        emit ForumContractUpdated(_forumContract);\n\n        // Clear the temporary storage\n        delete proposedForumContractAddresses[msg.sender];\n        lastUsedNextPKH = bytes32(0);\n    }\n    // ... [Previous variables and functions]\n\n    // ... [Rest of the existing contract]\n\n\n    // Function to change a player's moderator status\n    function setModeratorStatus(address _player, bool _status) external {\n        require(msg.sender == forumContract, \"Only the forum contract can modify moderator status\");\n        playerData[_player].isModerator = _status;\n    }\n\n    // Function to change a player's tournament moderator status\n    function setTourneyModStatus(address _player, bool _status) external {\n        require(msg.sender == forumContract, \"Only the forum contract can modify tournament moderator status\");\n        playerData[_player].isTourneyMod = _status;\n    }\n\n    // Function to set or update a player's forum key\n    function setForumKey(address _player, bytes32 _key) external {\n        require(msg.sender == forumContract, \"Only the forum contract can set forum key\");\n        playerData[_player].forumKey = _key;\n    }\n    function setGameAdminStatus(address admin, bool status) external {\n        require(msg.sender == onrampContract, \"Only the onramp contract can change Admin status\");\n        // Add security check to ensure only authorized contract or account can call this\n        playerData[admin].isGameAdmin = status;\n    }\n\n    function setValidatorStatus(address validator, bool status) external {\n        require(msg.sender == onrampContract, \"Only the onramp contract can change Game Validator status\");\n        // Add security check to ensure only authorized contract or account can call this\n        playerData[validator].isValidator = status;\n    }\n    \n    function setOnboardQueuerStatus(address oracle, bool status) external {\n        require(msg.sender == onrampContract, \"Only the onramp contract can change Onboard Queuer status\");\n        // Add security check to ensure only authorized contract or account can call this\n        playerData[oracle].isOnboardQueuer = status;\n    }\n    \n    function setOnboardRegistrarStatus(address oracle, bool status) external {\n        require(msg.sender == onrampContract, \"Only the onramp contract can change Onboard Registrar Status\");\n        // Add security check to ensure only authorized contract or account can call this\n        playerData[oracle].isOnboardRegistrar = status;\n    }\n    // ... [Additional functions and security checks as necessary]\n}\n// pragma solidity ^0.8.0;\n\n// contract TFCPlayAndEarn {\n//     // Other contract variables...\n\n//     struct Submission {\n//         address validator;\n//         string[] names;\n//     }\n//     Submission[] submissions;\n\n//     function processSubmissions(string[] memory rawNames, address validator) public {\n//         require(isValidator(validator), \"Not a validator\");\n//         string[] memory sanitizedNames = sanitizeNames(rawNames);\n        \n//         // Store the sanitized names along with the validator's address\n//         submissions.push(Submission({\n//             validator: validator,\n//             names: sanitizedNames\n//         }));\n//     }\n\n//     function sanitizeNames(string[] memory rawNames) private pure returns (string[] memory) {\n//         string[] memory sanitizedNames = new string[](rawNames.length);\n\n//         for (uint i = 0; i < rawNames.length; i++) {\n//             // Implement sanitation logic\n//             // This might include removing or replacing brackets, punctuation, etc.\n//             sanitizedNames[i] = sanitize(rawNames[i]);\n//         }\n\n//         return sanitizedNames;\n//     }\n\n//     function sanitize(string memory name) private pure returns (string memory) {\n//         // Detailed implementation of the sanitization logic\n//         // Could involve regex replacements or character filtering\n//         // Solidity does not natively support regex, so this might require character-by-character processing\n//     }\n\n//     // Additional functions like isValidator, auditSubmissions, etc.\n// }\n",
  "sourcePath": "contracts/3_GP_PlayerDatabase.sol",
  "type": "contract"
}