{
  "abi": [
    {
      "inputs": [],
      "stateMutability": "nonpayable",
      "type": "constructor"
    },
    {
      "anonymous": false,
      "inputs": [
        {
          "indexed": true,
          "internalType": "address",
          "name": "playerAddress",
          "type": "address"
        },
        {
          "indexed": false,
          "internalType": "string",
          "name": "steamID",
          "type": "string"
        },
        {
          "indexed": false,
          "internalType": "bool",
          "name": "isValidator",
          "type": "bool"
        },
        {
          "indexed": false,
          "internalType": "string",
          "name": "_playerName",
          "type": "string"
        }
      ],
      "name": "PlayerOnboarded",
      "type": "event"
    },
    {
      "anonymous": false,
      "inputs": [
        {
          "indexed": true,
          "internalType": "address",
          "name": "deletedPlayerAddress",
          "type": "address"
        }
      ],
      "name": "PlayerRemoved",
      "type": "event"
    },
    {
      "inputs": [
        {
          "internalType": "address",
          "name": "_address",
          "type": "address"
        }
      ],
      "name": "deletePlayer",
      "outputs": [],
      "stateMutability": "nonpayable",
      "type": "function"
    },
    {
      "inputs": [
        {
          "internalType": "address",
          "name": "_address",
          "type": "address"
        },
        {
          "internalType": "string",
          "name": "_steamID",
          "type": "string"
        },
        {
          "internalType": "bool",
          "name": "_isValidator",
          "type": "bool"
        },
        {
          "internalType": "string",
          "name": "_playerName",
          "type": "string"
        }
      ],
      "name": "onboardPlayer",
      "outputs": [],
      "stateMutability": "nonpayable",
      "type": "function"
    },
    {
      "inputs": [],
      "name": "playerDatabase",
      "outputs": [
        {
          "internalType": "contract IPlayerDatabase",
          "name": "",
          "type": "address"
        }
      ],
      "stateMutability": "view",
      "type": "function"
    },
    {
      "inputs": [
        {
          "internalType": "address",
          "name": "admin",
          "type": "address"
        }
      ],
      "name": "registerAdmin",
      "outputs": [],
      "stateMutability": "nonpayable",
      "type": "function"
    },
    {
      "inputs": [
        {
          "internalType": "address",
          "name": "validator",
          "type": "address"
        }
      ],
      "name": "registerValidator",
      "outputs": [],
      "stateMutability": "nonpayable",
      "type": "function"
    },
    {
      "inputs": [
        {
          "internalType": "address",
          "name": "admin",
          "type": "address"
        }
      ],
      "name": "removeAdmin",
      "outputs": [],
      "stateMutability": "nonpayable",
      "type": "function"
    },
    {
      "inputs": [
        {
          "internalType": "address",
          "name": "validator",
          "type": "address"
        }
      ],
      "name": "removeValidator",
      "outputs": [],
      "stateMutability": "nonpayable",
      "type": "function"
    },
    {
      "inputs": [
        {
          "internalType": "address",
          "name": "__playerDatabaseAddress",
          "type": "address"
        }
      ],
      "name": "setPlayerDatabaseAddress",
      "outputs": [],
      "stateMutability": "nonpayable",
      "type": "function"
    }
  ],
  "bytecode": "6080604052600180546001600160a01b03191673b03a6afd440a2a9db8834f1a6093680f02f1114c17905534801561003657600080fd5b50600154600080546001600160a01b0319166001600160a01b03909216919091179055610696806100686000396000f3fe608060405234801561001057600080fd5b50600436106100885760003560e01c80637189822d1161005b5780637189822d146100f85780639fca51691461010b578063c38c58131461011e578063cb7449931461013157600080fd5b806312243b671461008d578063143acc71146100a25780631785f53c146100d257806340a141ff146100e5575b600080fd5b6100a061009b3660046103e1565b610160565b005b6100a06100b03660046103e1565b600080546001600160a01b0319166001600160a01b0392909216919091179055565b6100a06100e03660046103e1565b6101f6565b6100a06100f33660046103e1565b610261565b6100a06101063660046104b6565b61029b565b6100a06101193660046103e1565b610353565b6100a061012c3660046103e1565b61038c565b600054610144906001600160a01b031681565b6040516001600160a01b03909116815260200160405180910390f35b6000546040516312243b6760e01b81526001600160a01b038381166004830152909116906312243b6790602401600060405180830381600087803b1580156101a757600080fd5b505af11580156101bb573d6000803e3d6000fd5b50506040516001600160a01b03841692507f9ac3117b086b001d2bcd36ff49e64f86a26f25d7c9ff453e9dbd9d496b8bf0849150600090a250565b600080546040516316227ecd60e21b81526001600160a01b0384811660048301526024820193909352911690635889fb34906044015b600060405180830381600087803b15801561024657600080fd5b505af115801561025a573d6000803e3d6000fd5b5050505050565b6000805460405163aca2490b60e01b81526001600160a01b038481166004830152602482019390935291169063aca2490b9060440161022c565b600054604051630875392f60e31b81526001600160a01b03909116906343a9c978906102d390889088908890889088906004016105dc565b600060405180830381600087803b1580156102ed57600080fd5b505af1158015610301573d6000803e3d6000fd5b50505050846001600160a01b03167f8e30371244f1db40392ee88b22115d21957f87a855479908276aa4055f29fa1b858585856040516103449493929190610627565b60405180910390a25050505050565b60005460405163aca2490b60e01b81526001600160a01b038381166004830152600160248301529091169063aca2490b9060440161022c565b6000546040516316227ecd60e21b81526001600160a01b0383811660048301526001602483015290911690635889fb349060440161022c565b80356001600160a01b03811681146103dc57600080fd5b919050565b6000602082840312156103f357600080fd5b6103fc826103c5565b9392505050565b803580151581146103dc57600080fd5b634e487b7160e01b600052604160045260246000fd5b600082601f83011261043a57600080fd5b813567ffffffffffffffff8082111561045557610455610413565b604051601f8301601f19908116603f0116810190828211818310171561047d5761047d610413565b8160405283815286602085880101111561049657600080fd5b836020870160208301376000602085830101528094505050505092915050565b6000806000806000608086880312156104ce57600080fd5b6104d7866103c5565b9450602086013567ffffffffffffffff808211156104f457600080fd5b818801915088601f83011261050857600080fd5b81358181111561051757600080fd5b89602082850101111561052957600080fd5b602083019650945061053d60408901610403565b9350606088013591508082111561055357600080fd5b5061056088828901610429565b9150509295509295909350565b81835281816020850137506000828201602090810191909152601f909101601f19169091010190565b6000815180845260005b818110156105bc576020818501810151868301820152016105a0565b506000602082860101526020601f19601f83011685010191505092915050565b6001600160a01b0386168152608060208201819052600090610601908301868861056d565b8415156040840152828103606084015261061b8185610596565b98975050505050505050565b60608152600061063b60608301868861056d565b841515602084015282810360408401526106558185610596565b97965050505050505056fea2646970667358221220500981c3bf7ad86fe609a8f8c7432f62b3b140081e12b6ca8420b1625536839664736f6c63430008180033",
  "bytecodeSha1": "eb675b2d704e829ac93f20cd706f4ffc6c8a916b",
  "compiler": {
    "evm_version": "istanbul",
    "optimizer": {
      "enabled": true,
      "runs": 200
    },
    "version": "0.8.24+commit.e11b9ed9"
  },
  "contractName": "PlayerOnboardContract",
  "language": "Solidity",
  "natspec": {
    "kind": "dev",
    "methods": {},
    "version": 1
  },
  "opcodes": "PUSH1 0x80 PUSH1 0x40 MSTORE CALLVALUE DUP1 ISZERO PUSH2 0x10 JUMPI PUSH1 0x0 DUP1 REVERT JUMPDEST POP PUSH1 0x4 CALLDATASIZE LT PUSH2 0x88 JUMPI PUSH1 0x0 CALLDATALOAD PUSH1 0xE0 SHR DUP1 PUSH4 0x7189822D GT PUSH2 0x5B JUMPI DUP1 PUSH4 0x7189822D EQ PUSH2 0xF8 JUMPI DUP1 PUSH4 0x9FCA5169 EQ PUSH2 0x10B JUMPI DUP1 PUSH4 0xC38C5813 EQ PUSH2 0x11E JUMPI DUP1 PUSH4 0xCB744993 EQ PUSH2 0x131 JUMPI PUSH1 0x0 DUP1 REVERT JUMPDEST DUP1 PUSH4 0x12243B67 EQ PUSH2 0x8D JUMPI DUP1 PUSH4 0x143ACC71 EQ PUSH2 0xA2 JUMPI DUP1 PUSH4 0x1785F53C EQ PUSH2 0xD2 JUMPI DUP1 PUSH4 0x40A141FF EQ PUSH2 0xE5 JUMPI JUMPDEST PUSH1 0x0 DUP1 REVERT JUMPDEST PUSH2 0xA0 PUSH2 0x9B CALLDATASIZE PUSH1 0x4 PUSH2 0x3E1 JUMP JUMPDEST PUSH2 0x160 JUMP JUMPDEST STOP JUMPDEST PUSH2 0xA0 PUSH2 0xB0 CALLDATASIZE PUSH1 0x4 PUSH2 0x3E1 JUMP JUMPDEST PUSH1 0x0 DUP1 SLOAD PUSH1 0x1 PUSH1 0x1 PUSH1 0xA0 SHL SUB NOT AND PUSH1 0x1 PUSH1 0x1 PUSH1 0xA0 SHL SUB SWAP3 SWAP1 SWAP3 AND SWAP2 SWAP1 SWAP2 OR SWAP1 SSTORE JUMP JUMPDEST PUSH2 0xA0 PUSH2 0xE0 CALLDATASIZE PUSH1 0x4 PUSH2 0x3E1 JUMP JUMPDEST PUSH2 0x1F6 JUMP JUMPDEST PUSH2 0xA0 PUSH2 0xF3 CALLDATASIZE PUSH1 0x4 PUSH2 0x3E1 JUMP JUMPDEST PUSH2 0x261 JUMP JUMPDEST PUSH2 0xA0 PUSH2 0x106 CALLDATASIZE PUSH1 0x4 PUSH2 0x4B6 JUMP JUMPDEST PUSH2 0x29B JUMP JUMPDEST PUSH2 0xA0 PUSH2 0x119 CALLDATASIZE PUSH1 0x4 PUSH2 0x3E1 JUMP JUMPDEST PUSH2 0x353 JUMP JUMPDEST PUSH2 0xA0 PUSH2 0x12C CALLDATASIZE PUSH1 0x4 PUSH2 0x3E1 JUMP JUMPDEST PUSH2 0x38C JUMP JUMPDEST PUSH1 0x0 SLOAD PUSH2 0x144 SWAP1 PUSH1 0x1 PUSH1 0x1 PUSH1 0xA0 SHL SUB AND DUP2 JUMP JUMPDEST PUSH1 0x40 MLOAD PUSH1 0x1 PUSH1 0x1 PUSH1 0xA0 SHL SUB SWAP1 SWAP2 AND DUP2 MSTORE PUSH1 0x20 ADD PUSH1 0x40 MLOAD DUP1 SWAP2 SUB SWAP1 RETURN JUMPDEST PUSH1 0x0 SLOAD PUSH1 0x40 MLOAD PUSH4 0x12243B67 PUSH1 0xE0 SHL DUP2 MSTORE PUSH1 0x1 PUSH1 0x1 PUSH1 0xA0 SHL SUB DUP4 DUP2 AND PUSH1 0x4 DUP4 ADD MSTORE SWAP1 SWAP2 AND SWAP1 PUSH4 0x12243B67 SWAP1 PUSH1 0x24 ADD PUSH1 0x0 PUSH1 0x40 MLOAD DUP1 DUP4 SUB DUP2 PUSH1 0x0 DUP8 DUP1 EXTCODESIZE ISZERO DUP1 ISZERO PUSH2 0x1A7 JUMPI PUSH1 0x0 DUP1 REVERT JUMPDEST POP GAS CALL ISZERO DUP1 ISZERO PUSH2 0x1BB JUMPI RETURNDATASIZE PUSH1 0x0 DUP1 RETURNDATACOPY RETURNDATASIZE PUSH1 0x0 REVERT JUMPDEST POP POP PUSH1 0x40 MLOAD PUSH1 0x1 PUSH1 0x1 PUSH1 0xA0 SHL SUB DUP5 AND SWAP3 POP PUSH32 0x9AC3117B086B001D2BCD36FF49E64F86A26F25D7C9FF453E9DBD9D496B8BF084 SWAP2 POP PUSH1 0x0 SWAP1 LOG2 POP JUMP JUMPDEST PUSH1 0x0 DUP1 SLOAD PUSH1 0x40 MLOAD PUSH4 0x16227ECD PUSH1 0xE2 SHL DUP2 MSTORE PUSH1 0x1 PUSH1 0x1 PUSH1 0xA0 SHL SUB DUP5 DUP2 AND PUSH1 0x4 DUP4 ADD MSTORE PUSH1 0x24 DUP3 ADD SWAP4 SWAP1 SWAP4 MSTORE SWAP2 AND SWAP1 PUSH4 0x5889FB34 SWAP1 PUSH1 0x44 ADD JUMPDEST PUSH1 0x0 PUSH1 0x40 MLOAD DUP1 DUP4 SUB DUP2 PUSH1 0x0 DUP8 DUP1 EXTCODESIZE ISZERO DUP1 ISZERO PUSH2 0x246 JUMPI PUSH1 0x0 DUP1 REVERT JUMPDEST POP GAS CALL ISZERO DUP1 ISZERO PUSH2 0x25A JUMPI RETURNDATASIZE PUSH1 0x0 DUP1 RETURNDATACOPY RETURNDATASIZE PUSH1 0x0 REVERT JUMPDEST POP POP POP POP POP JUMP JUMPDEST PUSH1 0x0 DUP1 SLOAD PUSH1 0x40 MLOAD PUSH4 0xACA2490B PUSH1 0xE0 SHL DUP2 MSTORE PUSH1 0x1 PUSH1 0x1 PUSH1 0xA0 SHL SUB DUP5 DUP2 AND PUSH1 0x4 DUP4 ADD MSTORE PUSH1 0x24 DUP3 ADD SWAP4 SWAP1 SWAP4 MSTORE SWAP2 AND SWAP1 PUSH4 0xACA2490B SWAP1 PUSH1 0x44 ADD PUSH2 0x22C JUMP JUMPDEST PUSH1 0x0 SLOAD PUSH1 0x40 MLOAD PUSH4 0x875392F PUSH1 0xE3 SHL DUP2 MSTORE PUSH1 0x1 PUSH1 0x1 PUSH1 0xA0 SHL SUB SWAP1 SWAP2 AND SWAP1 PUSH4 0x43A9C978 SWAP1 PUSH2 0x2D3 SWAP1 DUP9 SWAP1 DUP9 SWAP1 DUP9 SWAP1 DUP9 SWAP1 DUP9 SWAP1 PUSH1 0x4 ADD PUSH2 0x5DC JUMP JUMPDEST PUSH1 0x0 PUSH1 0x40 MLOAD DUP1 DUP4 SUB DUP2 PUSH1 0x0 DUP8 DUP1 EXTCODESIZE ISZERO DUP1 ISZERO PUSH2 0x2ED JUMPI PUSH1 0x0 DUP1 REVERT JUMPDEST POP GAS CALL ISZERO DUP1 ISZERO PUSH2 0x301 JUMPI RETURNDATASIZE PUSH1 0x0 DUP1 RETURNDATACOPY RETURNDATASIZE PUSH1 0x0 REVERT JUMPDEST POP POP POP POP DUP5 PUSH1 0x1 PUSH1 0x1 PUSH1 0xA0 SHL SUB AND PUSH32 0x8E30371244F1DB40392EE88B22115D21957F87A855479908276AA4055F29FA1B DUP6 DUP6 DUP6 DUP6 PUSH1 0x40 MLOAD PUSH2 0x344 SWAP5 SWAP4 SWAP3 SWAP2 SWAP1 PUSH2 0x627 JUMP JUMPDEST PUSH1 0x40 MLOAD DUP1 SWAP2 SUB SWAP1 LOG2 POP POP POP POP POP JUMP JUMPDEST PUSH1 0x0 SLOAD PUSH1 0x40 MLOAD PUSH4 0xACA2490B PUSH1 0xE0 SHL DUP2 MSTORE PUSH1 0x1 PUSH1 0x1 PUSH1 0xA0 SHL SUB DUP4 DUP2 AND PUSH1 0x4 DUP4 ADD MSTORE PUSH1 0x1 PUSH1 0x24 DUP4 ADD MSTORE SWAP1 SWAP2 AND SWAP1 PUSH4 0xACA2490B SWAP1 PUSH1 0x44 ADD PUSH2 0x22C JUMP JUMPDEST PUSH1 0x0 SLOAD PUSH1 0x40 MLOAD PUSH4 0x16227ECD PUSH1 0xE2 SHL DUP2 MSTORE PUSH1 0x1 PUSH1 0x1 PUSH1 0xA0 SHL SUB DUP4 DUP2 AND PUSH1 0x4 DUP4 ADD MSTORE PUSH1 0x1 PUSH1 0x24 DUP4 ADD MSTORE SWAP1 SWAP2 AND SWAP1 PUSH4 0x5889FB34 SWAP1 PUSH1 0x44 ADD PUSH2 0x22C JUMP JUMPDEST DUP1 CALLDATALOAD PUSH1 0x1 PUSH1 0x1 PUSH1 0xA0 SHL SUB DUP2 AND DUP2 EQ PUSH2 0x3DC JUMPI PUSH1 0x0 DUP1 REVERT JUMPDEST SWAP2 SWAP1 POP JUMP JUMPDEST PUSH1 0x0 PUSH1 0x20 DUP3 DUP5 SUB SLT ISZERO PUSH2 0x3F3 JUMPI PUSH1 0x0 DUP1 REVERT JUMPDEST PUSH2 0x3FC DUP3 PUSH2 0x3C5 JUMP JUMPDEST SWAP4 SWAP3 POP POP POP JUMP JUMPDEST DUP1 CALLDATALOAD DUP1 ISZERO ISZERO DUP2 EQ PUSH2 0x3DC JUMPI PUSH1 0x0 DUP1 REVERT JUMPDEST PUSH4 0x4E487B71 PUSH1 0xE0 SHL PUSH1 0x0 MSTORE PUSH1 0x41 PUSH1 0x4 MSTORE PUSH1 0x24 PUSH1 0x0 REVERT JUMPDEST PUSH1 0x0 DUP3 PUSH1 0x1F DUP4 ADD SLT PUSH2 0x43A JUMPI PUSH1 0x0 DUP1 REVERT JUMPDEST DUP2 CALLDATALOAD PUSH8 0xFFFFFFFFFFFFFFFF DUP1 DUP3 GT ISZERO PUSH2 0x455 JUMPI PUSH2 0x455 PUSH2 0x413 JUMP JUMPDEST PUSH1 0x40 MLOAD PUSH1 0x1F DUP4 ADD PUSH1 0x1F NOT SWAP1 DUP2 AND PUSH1 0x3F ADD AND DUP2 ADD SWAP1 DUP3 DUP3 GT DUP2 DUP4 LT OR ISZERO PUSH2 0x47D JUMPI PUSH2 0x47D PUSH2 0x413 JUMP JUMPDEST DUP2 PUSH1 0x40 MSTORE DUP4 DUP2 MSTORE DUP7 PUSH1 0x20 DUP6 DUP9 ADD ADD GT ISZERO PUSH2 0x496 JUMPI PUSH1 0x0 DUP1 REVERT JUMPDEST DUP4 PUSH1 0x20 DUP8 ADD PUSH1 0x20 DUP4 ADD CALLDATACOPY PUSH1 0x0 PUSH1 0x20 DUP6 DUP4 ADD ADD MSTORE DUP1 SWAP5 POP POP POP POP POP SWAP3 SWAP2 POP POP JUMP JUMPDEST PUSH1 0x0 DUP1 PUSH1 0x0 DUP1 PUSH1 0x0 PUSH1 0x80 DUP7 DUP9 SUB SLT ISZERO PUSH2 0x4CE JUMPI PUSH1 0x0 DUP1 REVERT JUMPDEST PUSH2 0x4D7 DUP7 PUSH2 0x3C5 JUMP JUMPDEST SWAP5 POP PUSH1 0x20 DUP7 ADD CALLDATALOAD PUSH8 0xFFFFFFFFFFFFFFFF DUP1 DUP3 GT ISZERO PUSH2 0x4F4 JUMPI PUSH1 0x0 DUP1 REVERT JUMPDEST DUP2 DUP9 ADD SWAP2 POP DUP9 PUSH1 0x1F DUP4 ADD SLT PUSH2 0x508 JUMPI PUSH1 0x0 DUP1 REVERT JUMPDEST DUP2 CALLDATALOAD DUP2 DUP2 GT ISZERO PUSH2 0x517 JUMPI PUSH1 0x0 DUP1 REVERT JUMPDEST DUP10 PUSH1 0x20 DUP3 DUP6 ADD ADD GT ISZERO PUSH2 0x529 JUMPI PUSH1 0x0 DUP1 REVERT JUMPDEST PUSH1 0x20 DUP4 ADD SWAP7 POP SWAP5 POP PUSH2 0x53D PUSH1 0x40 DUP10 ADD PUSH2 0x403 JUMP JUMPDEST SWAP4 POP PUSH1 0x60 DUP9 ADD CALLDATALOAD SWAP2 POP DUP1 DUP3 GT ISZERO PUSH2 0x553 JUMPI PUSH1 0x0 DUP1 REVERT JUMPDEST POP PUSH2 0x560 DUP9 DUP3 DUP10 ADD PUSH2 0x429 JUMP JUMPDEST SWAP2 POP POP SWAP3 SWAP6 POP SWAP3 SWAP6 SWAP1 SWAP4 POP JUMP JUMPDEST DUP2 DUP4 MSTORE DUP2 DUP2 PUSH1 0x20 DUP6 ADD CALLDATACOPY POP PUSH1 0x0 DUP3 DUP3 ADD PUSH1 0x20 SWAP1 DUP2 ADD SWAP2 SWAP1 SWAP2 MSTORE PUSH1 0x1F SWAP1 SWAP2 ADD PUSH1 0x1F NOT AND SWAP1 SWAP2 ADD ADD SWAP1 JUMP JUMPDEST PUSH1 0x0 DUP2 MLOAD DUP1 DUP5 MSTORE PUSH1 0x0 JUMPDEST DUP2 DUP2 LT ISZERO PUSH2 0x5BC JUMPI PUSH1 0x20 DUP2 DUP6 ADD DUP2 ADD MLOAD DUP7 DUP4 ADD DUP3 ADD MSTORE ADD PUSH2 0x5A0 JUMP JUMPDEST POP PUSH1 0x0 PUSH1 0x20 DUP3 DUP7 ADD ADD MSTORE PUSH1 0x20 PUSH1 0x1F NOT PUSH1 0x1F DUP4 ADD AND DUP6 ADD ADD SWAP2 POP POP SWAP3 SWAP2 POP POP JUMP JUMPDEST PUSH1 0x1 PUSH1 0x1 PUSH1 0xA0 SHL SUB DUP7 AND DUP2 MSTORE PUSH1 0x80 PUSH1 0x20 DUP3 ADD DUP2 SWAP1 MSTORE PUSH1 0x0 SWAP1 PUSH2 0x601 SWAP1 DUP4 ADD DUP7 DUP9 PUSH2 0x56D JUMP JUMPDEST DUP5 ISZERO ISZERO PUSH1 0x40 DUP5 ADD MSTORE DUP3 DUP2 SUB PUSH1 0x60 DUP5 ADD MSTORE PUSH2 0x61B DUP2 DUP6 PUSH2 0x596 JUMP JUMPDEST SWAP9 SWAP8 POP POP POP POP POP POP POP POP JUMP JUMPDEST PUSH1 0x60 DUP2 MSTORE PUSH1 0x0 PUSH2 0x63B PUSH1 0x60 DUP4 ADD DUP7 DUP9 PUSH2 0x56D JUMP JUMPDEST DUP5 ISZERO ISZERO PUSH1 0x20 DUP5 ADD MSTORE DUP3 DUP2 SUB PUSH1 0x40 DUP5 ADD MSTORE PUSH2 0x655 DUP2 DUP6 PUSH2 0x596 JUMP JUMPDEST SWAP8 SWAP7 POP POP POP POP POP POP POP JUMP INVALID LOG2 PUSH5 0x6970667358 0x22 SLT KECCAK256 POP MULMOD DUP2 0xC3 0xBF PUSH27 0xD86FE609A8F8C7432F62B3B140081E12B6CA8420B1625536839664 PUSH20 0x6F6C634300081800330000000000000000000000 ",
  "sha1": "275dc02313710a16e976024b8738bd188f7382e4",
  "source": "// SPDX-License-Identifier: MIT\n\npragma solidity ^0.8.0;\n\n// interface IPlayerDatabaseSubcontract {\n//     function addOrUpdatePlayer(address _address, string calldata _steamID, bool _isValidator, bool _isRegistered) external;\n// }\n\ninterface IPlayerDatabase {\n    function addOrUpdatePlayer(address _address, string calldata _steamID, bool _isValidator, string memory _playerName) external;\n    function deletePlayer(address _address) external;\n    // Include other functions from PlayerDatabase that PlayerOnrampContract needs to call\n\n    function setGameAdminStatus(address admin, bool status) external;\n    function setValidatorStatus(address validator, bool status) external;\n\n}\n\ncontract PlayerOnboardContract {\n    IPlayerDatabase public playerDatabase;\n\n    event PlayerOnboarded(address indexed playerAddress, string steamID, bool isValidator, string _playerName);\n    event PlayerRemoved(address indexed deletedPlayerAddress);\n    address _playerDatabaseAddress = 0xB03A6aFd440a2a9db8834F1A6093680f02f1114C;\n\n    constructor() {\n        playerDatabase = IPlayerDatabase(_playerDatabaseAddress);\n    }\n\n    function onboardPlayer(address _address, string calldata _steamID, bool _isValidator, string memory _playerName) public {\n        // Additional logic and security checks as needed\n        playerDatabase.addOrUpdatePlayer(_address, _steamID, _isValidator, _playerName);\n        emit PlayerOnboarded(_address, _steamID, _isValidator, _playerName);\n    }\n\n    function deletePlayer(address _address) public {\n        playerDatabase.deletePlayer(_address);\n        emit PlayerRemoved(_address);\n    }\n\n    function setPlayerDatabaseAddress(address __playerDatabaseAddress) public {\n        playerDatabase = IPlayerDatabase(__playerDatabaseAddress);\n    }\n    // Additional functions and logic as required for onramping...\n\n\n    function registerValidator(address validator) public {\n        // Add appropriate checks here\n        playerDatabase.setValidatorStatus(validator, true);\n    }\n\n    function removeValidator(address validator) public {\n        // Add appropriate checks here\n        playerDatabase.setValidatorStatus(validator, false);\n    }\n\n    function registerAdmin(address admin) public {\n        // Add appropriate checks here\n        playerDatabase.setGameAdminStatus(admin, true);\n    }\n\n    function removeAdmin(address admin) public {\n        // Add appropriate checks here\n        playerDatabase.setGameAdminStatus(admin, false);\n    }\n}\n// contract PlayerOnrampContract {\n//     IMintyDatabaseSubcontract public mintyDatabase;\n\n//     event PlayerOnboarded(address indexed playerAddress, string steamID, bool isValidator, bool isRegistered);\n\n//     constructor(address _mintyDatabaseAddress) {\n//         mintyDatabase = IMintyDatabaseSubcontract(_mintyDatabaseAddress);\n//     }\n\n//     function onboardPlayer(address _address, string calldata _steamID, bool _isValidator, bool _isRegistered) public {\n//         // Additional logic and security checks as needed\n//         mintyDatabase.addOrUpdatePlayer(_address, _steamID, _isValidator, _isRegistered);\n//         emit PlayerOnboarded(_address, _steamID, _isValidator, _isRegistered);\n//     }\n\n//     // Additional functions and logic as required for onramping...\n// }\n",
  "sourcePath": "contracts/5_GP_Onboard.sol",
  "type": "contract"
}