{
  "abi": [
    {
      "inputs": [],
      "stateMutability": "nonpayable",
      "type": "constructor"
    },
    {
      "anonymous": false,
      "inputs": [
        {
          "indexed": true,
          "internalType": "address",
          "name": "_address",
          "type": "address"
        },
        {
          "indexed": false,
          "internalType": "string",
          "name": "_steamID",
          "type": "string"
        },
        {
          "indexed": false,
          "internalType": "string",
          "name": "_playerName",
          "type": "string"
        },
        {
          "indexed": false,
          "internalType": "uint256",
          "name": "_oracleKeyIndex1",
          "type": "uint256"
        },
        {
          "indexed": false,
          "internalType": "uint256",
          "name": "_oracleKeyIndex2",
          "type": "uint256"
        },
        {
          "indexed": false,
          "internalType": "address",
          "name": "_rewardAddress",
          "type": "address"
        }
      ],
      "name": "PlayerOnboarded",
      "type": "event"
    },
    {
      "anonymous": false,
      "inputs": [
        {
          "indexed": true,
          "internalType": "address",
          "name": "deletedPlayerAddress",
          "type": "address"
        }
      ],
      "name": "PlayerRemoved",
      "type": "event"
    },
    {
      "inputs": [
        {
          "internalType": "address",
          "name": "_address",
          "type": "address"
        }
      ],
      "name": "deletePlayer",
      "outputs": [],
      "stateMutability": "nonpayable",
      "type": "function"
    },
    {
      "inputs": [
        {
          "internalType": "address",
          "name": "_address",
          "type": "address"
        },
        {
          "internalType": "string",
          "name": "_steamID",
          "type": "string"
        },
        {
          "internalType": "string",
          "name": "_playerName",
          "type": "string"
        },
        {
          "internalType": "uint256",
          "name": "_oracleKeyIndex1",
          "type": "uint256"
        },
        {
          "internalType": "uint256",
          "name": "_oracleKeyIndex2",
          "type": "uint256"
        },
        {
          "internalType": "address",
          "name": "_rewardAddress",
          "type": "address"
        }
      ],
      "name": "onboardPlayer",
      "outputs": [],
      "stateMutability": "nonpayable",
      "type": "function"
    },
    {
      "inputs": [],
      "name": "playerDatabase",
      "outputs": [
        {
          "internalType": "contract IPlayerDatabase",
          "name": "",
          "type": "address"
        }
      ],
      "stateMutability": "view",
      "type": "function"
    },
    {
      "inputs": [
        {
          "internalType": "address",
          "name": "admin",
          "type": "address"
        }
      ],
      "name": "registerAdmin",
      "outputs": [],
      "stateMutability": "nonpayable",
      "type": "function"
    },
    {
      "inputs": [
        {
          "internalType": "address",
          "name": "validator",
          "type": "address"
        }
      ],
      "name": "registerValidator",
      "outputs": [],
      "stateMutability": "nonpayable",
      "type": "function"
    },
    {
      "inputs": [
        {
          "internalType": "address",
          "name": "admin",
          "type": "address"
        }
      ],
      "name": "removeAdmin",
      "outputs": [],
      "stateMutability": "nonpayable",
      "type": "function"
    },
    {
      "inputs": [
        {
          "internalType": "address",
          "name": "validator",
          "type": "address"
        }
      ],
      "name": "removeValidator",
      "outputs": [],
      "stateMutability": "nonpayable",
      "type": "function"
    },
    {
      "inputs": [
        {
          "internalType": "address",
          "name": "__playerDatabaseAddress",
          "type": "address"
        }
      ],
      "name": "setPlayerDatabaseAddress",
      "outputs": [],
      "stateMutability": "nonpayable",
      "type": "function"
    }
  ],
  "bytecode": "6080604052600180546001600160a01b031916733b9467de1800bbb6ba6bd3d1cb7e7bebc0efa96f17905534801561003657600080fd5b50600154600080546001600160a01b0319166001600160a01b039092169190911790556106cd806100686000396000f3fe608060405234801561001057600080fd5b50600436106100885760003560e01c806340a141ff1161005b57806340a141ff146100f85780639fca51691461010b578063c38c58131461011e578063cb7449931461013157600080fd5b806312243b671461008d578063143acc71146100a257806315fca479146100d25780631785f53c146100e5575b600080fd5b6100a061009b366004610454565b610160565b005b6100a06100b0366004610454565b600080546001600160a01b0319166001600160a01b0392909216919091179055565b6100a06100e0366004610519565b6101f6565b6100a06100f3366004610454565b610321565b6100a0610106366004610454565b61038c565b6100a0610119366004610454565b6103c6565b6100a061012c366004610454565b6103ff565b600054610144906001600160a01b031681565b6040516001600160a01b03909116815260200160405180910390f35b6000546040516312243b6760e01b81526001600160a01b038381166004830152909116906312243b6790602401600060405180830381600087803b1580156101a757600080fd5b505af11580156101bb573d6000803e3d6000fd5b50506040516001600160a01b03841692507f9ac3117b086b001d2bcd36ff49e64f86a26f25d7c9ff453e9dbd9d496b8bf0849150600090a250565b826000036102645760405162461bcd60e51b815260206004820152603160248201527f4f7261636c65206b657920696e64657820312063616e6e6f74206265207a65726044820152706f20666f72206e657720706c617965727360781b606482015260840160405180910390fd5b600054604051631851edbf60e11b81526001600160a01b03909116906330a3db7e9061029e908990899089908990899089906004016105f6565b600060405180830381600087803b1580156102b857600080fd5b505af11580156102cc573d6000803e3d6000fd5b50505050856001600160a01b03167f8b06958157a003611013dd834a3bdfb55eeb806af66ebdb86b4952ede3191d5f868686868660405161031195949392919061064b565b60405180910390a2505050505050565b600080546040516316227ecd60e21b81526001600160a01b0384811660048301526024820193909352911690635889fb34906044015b600060405180830381600087803b15801561037157600080fd5b505af1158015610385573d6000803e3d6000fd5b5050505050565b6000805460405163aca2490b60e01b81526001600160a01b038481166004830152602482019390935291169063aca2490b90604401610357565b60005460405163aca2490b60e01b81526001600160a01b038381166004830152600160248301529091169063aca2490b90604401610357565b6000546040516316227ecd60e21b81526001600160a01b0383811660048301526001602483015290911690635889fb3490604401610357565b80356001600160a01b038116811461044f57600080fd5b919050565b60006020828403121561046657600080fd5b61046f82610438565b9392505050565b634e487b7160e01b600052604160045260246000fd5b600082601f83011261049d57600080fd5b813567ffffffffffffffff808211156104b8576104b8610476565b604051601f8301601f19908116603f011681019082821181831017156104e0576104e0610476565b816040528381528660208588010111156104f957600080fd5b836020870160208301376000602085830101528094505050505092915050565b60008060008060008060c0878903121561053257600080fd5b61053b87610438565b9550602087013567ffffffffffffffff8082111561055857600080fd5b6105648a838b0161048c565b9650604089013591508082111561057a57600080fd5b5061058789828a0161048c565b94505060608701359250608087013591506105a460a08801610438565b90509295509295509295565b6000815180845260005b818110156105d6576020818501810151868301820152016105ba565b506000602082860101526020601f19601f83011685010191505092915050565b600060018060a01b03808916835260c0602084015261061860c08401896105b0565b838103604085015261062a81896105b0565b606085019790975250608083019490945250911660a0909101529392505050565b60a08152600061065e60a08301886105b0565b828103602084015261067081886105b0565b6040840196909652505060608101929092526001600160a01b03166080909101529291505056fea264697066735822122098738806a084663721713b8753af0d8eb8851bb97b7053d126fe8d09cb33da2064736f6c63430008180033",
  "bytecodeSha1": "43353ecd277172a6751de9ad41bcc8c76e7f9033",
  "compiler": {
    "evm_version": "istanbul",
    "optimizer": {
      "enabled": true,
      "runs": 200
    },
    "version": "0.8.24+commit.e11b9ed9"
  },
  "contractName": "PlayerOnboardContract",
  "language": "Solidity",
  "natspec": {
    "kind": "dev",
    "methods": {},
    "version": 1
  },
  "opcodes": "PUSH1 0x80 PUSH1 0x40 MSTORE CALLVALUE DUP1 ISZERO PUSH2 0x10 JUMPI PUSH1 0x0 DUP1 REVERT JUMPDEST POP PUSH1 0x4 CALLDATASIZE LT PUSH2 0x88 JUMPI PUSH1 0x0 CALLDATALOAD PUSH1 0xE0 SHR DUP1 PUSH4 0x40A141FF GT PUSH2 0x5B JUMPI DUP1 PUSH4 0x40A141FF EQ PUSH2 0xF8 JUMPI DUP1 PUSH4 0x9FCA5169 EQ PUSH2 0x10B JUMPI DUP1 PUSH4 0xC38C5813 EQ PUSH2 0x11E JUMPI DUP1 PUSH4 0xCB744993 EQ PUSH2 0x131 JUMPI PUSH1 0x0 DUP1 REVERT JUMPDEST DUP1 PUSH4 0x12243B67 EQ PUSH2 0x8D JUMPI DUP1 PUSH4 0x143ACC71 EQ PUSH2 0xA2 JUMPI DUP1 PUSH4 0x15FCA479 EQ PUSH2 0xD2 JUMPI DUP1 PUSH4 0x1785F53C EQ PUSH2 0xE5 JUMPI JUMPDEST PUSH1 0x0 DUP1 REVERT JUMPDEST PUSH2 0xA0 PUSH2 0x9B CALLDATASIZE PUSH1 0x4 PUSH2 0x454 JUMP JUMPDEST PUSH2 0x160 JUMP JUMPDEST STOP JUMPDEST PUSH2 0xA0 PUSH2 0xB0 CALLDATASIZE PUSH1 0x4 PUSH2 0x454 JUMP JUMPDEST PUSH1 0x0 DUP1 SLOAD PUSH1 0x1 PUSH1 0x1 PUSH1 0xA0 SHL SUB NOT AND PUSH1 0x1 PUSH1 0x1 PUSH1 0xA0 SHL SUB SWAP3 SWAP1 SWAP3 AND SWAP2 SWAP1 SWAP2 OR SWAP1 SSTORE JUMP JUMPDEST PUSH2 0xA0 PUSH2 0xE0 CALLDATASIZE PUSH1 0x4 PUSH2 0x519 JUMP JUMPDEST PUSH2 0x1F6 JUMP JUMPDEST PUSH2 0xA0 PUSH2 0xF3 CALLDATASIZE PUSH1 0x4 PUSH2 0x454 JUMP JUMPDEST PUSH2 0x321 JUMP JUMPDEST PUSH2 0xA0 PUSH2 0x106 CALLDATASIZE PUSH1 0x4 PUSH2 0x454 JUMP JUMPDEST PUSH2 0x38C JUMP JUMPDEST PUSH2 0xA0 PUSH2 0x119 CALLDATASIZE PUSH1 0x4 PUSH2 0x454 JUMP JUMPDEST PUSH2 0x3C6 JUMP JUMPDEST PUSH2 0xA0 PUSH2 0x12C CALLDATASIZE PUSH1 0x4 PUSH2 0x454 JUMP JUMPDEST PUSH2 0x3FF JUMP JUMPDEST PUSH1 0x0 SLOAD PUSH2 0x144 SWAP1 PUSH1 0x1 PUSH1 0x1 PUSH1 0xA0 SHL SUB AND DUP2 JUMP JUMPDEST PUSH1 0x40 MLOAD PUSH1 0x1 PUSH1 0x1 PUSH1 0xA0 SHL SUB SWAP1 SWAP2 AND DUP2 MSTORE PUSH1 0x20 ADD PUSH1 0x40 MLOAD DUP1 SWAP2 SUB SWAP1 RETURN JUMPDEST PUSH1 0x0 SLOAD PUSH1 0x40 MLOAD PUSH4 0x12243B67 PUSH1 0xE0 SHL DUP2 MSTORE PUSH1 0x1 PUSH1 0x1 PUSH1 0xA0 SHL SUB DUP4 DUP2 AND PUSH1 0x4 DUP4 ADD MSTORE SWAP1 SWAP2 AND SWAP1 PUSH4 0x12243B67 SWAP1 PUSH1 0x24 ADD PUSH1 0x0 PUSH1 0x40 MLOAD DUP1 DUP4 SUB DUP2 PUSH1 0x0 DUP8 DUP1 EXTCODESIZE ISZERO DUP1 ISZERO PUSH2 0x1A7 JUMPI PUSH1 0x0 DUP1 REVERT JUMPDEST POP GAS CALL ISZERO DUP1 ISZERO PUSH2 0x1BB JUMPI RETURNDATASIZE PUSH1 0x0 DUP1 RETURNDATACOPY RETURNDATASIZE PUSH1 0x0 REVERT JUMPDEST POP POP PUSH1 0x40 MLOAD PUSH1 0x1 PUSH1 0x1 PUSH1 0xA0 SHL SUB DUP5 AND SWAP3 POP PUSH32 0x9AC3117B086B001D2BCD36FF49E64F86A26F25D7C9FF453E9DBD9D496B8BF084 SWAP2 POP PUSH1 0x0 SWAP1 LOG2 POP JUMP JUMPDEST DUP3 PUSH1 0x0 SUB PUSH2 0x264 JUMPI PUSH1 0x40 MLOAD PUSH3 0x461BCD PUSH1 0xE5 SHL DUP2 MSTORE PUSH1 0x20 PUSH1 0x4 DUP3 ADD MSTORE PUSH1 0x31 PUSH1 0x24 DUP3 ADD MSTORE PUSH32 0x4F7261636C65206B657920696E64657820312063616E6E6F74206265207A6572 PUSH1 0x44 DUP3 ADD MSTORE PUSH17 0x6F20666F72206E657720706C6179657273 PUSH1 0x78 SHL PUSH1 0x64 DUP3 ADD MSTORE PUSH1 0x84 ADD PUSH1 0x40 MLOAD DUP1 SWAP2 SUB SWAP1 REVERT JUMPDEST PUSH1 0x0 SLOAD PUSH1 0x40 MLOAD PUSH4 0x1851EDBF PUSH1 0xE1 SHL DUP2 MSTORE PUSH1 0x1 PUSH1 0x1 PUSH1 0xA0 SHL SUB SWAP1 SWAP2 AND SWAP1 PUSH4 0x30A3DB7E SWAP1 PUSH2 0x29E SWAP1 DUP10 SWAP1 DUP10 SWAP1 DUP10 SWAP1 DUP10 SWAP1 DUP10 SWAP1 DUP10 SWAP1 PUSH1 0x4 ADD PUSH2 0x5F6 JUMP JUMPDEST PUSH1 0x0 PUSH1 0x40 MLOAD DUP1 DUP4 SUB DUP2 PUSH1 0x0 DUP8 DUP1 EXTCODESIZE ISZERO DUP1 ISZERO PUSH2 0x2B8 JUMPI PUSH1 0x0 DUP1 REVERT JUMPDEST POP GAS CALL ISZERO DUP1 ISZERO PUSH2 0x2CC JUMPI RETURNDATASIZE PUSH1 0x0 DUP1 RETURNDATACOPY RETURNDATASIZE PUSH1 0x0 REVERT JUMPDEST POP POP POP POP DUP6 PUSH1 0x1 PUSH1 0x1 PUSH1 0xA0 SHL SUB AND PUSH32 0x8B06958157A003611013DD834A3BDFB55EEB806AF66EBDB86B4952EDE3191D5F DUP7 DUP7 DUP7 DUP7 DUP7 PUSH1 0x40 MLOAD PUSH2 0x311 SWAP6 SWAP5 SWAP4 SWAP3 SWAP2 SWAP1 PUSH2 0x64B JUMP JUMPDEST PUSH1 0x40 MLOAD DUP1 SWAP2 SUB SWAP1 LOG2 POP POP POP POP POP POP JUMP JUMPDEST PUSH1 0x0 DUP1 SLOAD PUSH1 0x40 MLOAD PUSH4 0x16227ECD PUSH1 0xE2 SHL DUP2 MSTORE PUSH1 0x1 PUSH1 0x1 PUSH1 0xA0 SHL SUB DUP5 DUP2 AND PUSH1 0x4 DUP4 ADD MSTORE PUSH1 0x24 DUP3 ADD SWAP4 SWAP1 SWAP4 MSTORE SWAP2 AND SWAP1 PUSH4 0x5889FB34 SWAP1 PUSH1 0x44 ADD JUMPDEST PUSH1 0x0 PUSH1 0x40 MLOAD DUP1 DUP4 SUB DUP2 PUSH1 0x0 DUP8 DUP1 EXTCODESIZE ISZERO DUP1 ISZERO PUSH2 0x371 JUMPI PUSH1 0x0 DUP1 REVERT JUMPDEST POP GAS CALL ISZERO DUP1 ISZERO PUSH2 0x385 JUMPI RETURNDATASIZE PUSH1 0x0 DUP1 RETURNDATACOPY RETURNDATASIZE PUSH1 0x0 REVERT JUMPDEST POP POP POP POP POP JUMP JUMPDEST PUSH1 0x0 DUP1 SLOAD PUSH1 0x40 MLOAD PUSH4 0xACA2490B PUSH1 0xE0 SHL DUP2 MSTORE PUSH1 0x1 PUSH1 0x1 PUSH1 0xA0 SHL SUB DUP5 DUP2 AND PUSH1 0x4 DUP4 ADD MSTORE PUSH1 0x24 DUP3 ADD SWAP4 SWAP1 SWAP4 MSTORE SWAP2 AND SWAP1 PUSH4 0xACA2490B SWAP1 PUSH1 0x44 ADD PUSH2 0x357 JUMP JUMPDEST PUSH1 0x0 SLOAD PUSH1 0x40 MLOAD PUSH4 0xACA2490B PUSH1 0xE0 SHL DUP2 MSTORE PUSH1 0x1 PUSH1 0x1 PUSH1 0xA0 SHL SUB DUP4 DUP2 AND PUSH1 0x4 DUP4 ADD MSTORE PUSH1 0x1 PUSH1 0x24 DUP4 ADD MSTORE SWAP1 SWAP2 AND SWAP1 PUSH4 0xACA2490B SWAP1 PUSH1 0x44 ADD PUSH2 0x357 JUMP JUMPDEST PUSH1 0x0 SLOAD PUSH1 0x40 MLOAD PUSH4 0x16227ECD PUSH1 0xE2 SHL DUP2 MSTORE PUSH1 0x1 PUSH1 0x1 PUSH1 0xA0 SHL SUB DUP4 DUP2 AND PUSH1 0x4 DUP4 ADD MSTORE PUSH1 0x1 PUSH1 0x24 DUP4 ADD MSTORE SWAP1 SWAP2 AND SWAP1 PUSH4 0x5889FB34 SWAP1 PUSH1 0x44 ADD PUSH2 0x357 JUMP JUMPDEST DUP1 CALLDATALOAD PUSH1 0x1 PUSH1 0x1 PUSH1 0xA0 SHL SUB DUP2 AND DUP2 EQ PUSH2 0x44F JUMPI PUSH1 0x0 DUP1 REVERT JUMPDEST SWAP2 SWAP1 POP JUMP JUMPDEST PUSH1 0x0 PUSH1 0x20 DUP3 DUP5 SUB SLT ISZERO PUSH2 0x466 JUMPI PUSH1 0x0 DUP1 REVERT JUMPDEST PUSH2 0x46F DUP3 PUSH2 0x438 JUMP JUMPDEST SWAP4 SWAP3 POP POP POP JUMP JUMPDEST PUSH4 0x4E487B71 PUSH1 0xE0 SHL PUSH1 0x0 MSTORE PUSH1 0x41 PUSH1 0x4 MSTORE PUSH1 0x24 PUSH1 0x0 REVERT JUMPDEST PUSH1 0x0 DUP3 PUSH1 0x1F DUP4 ADD SLT PUSH2 0x49D JUMPI PUSH1 0x0 DUP1 REVERT JUMPDEST DUP2 CALLDATALOAD PUSH8 0xFFFFFFFFFFFFFFFF DUP1 DUP3 GT ISZERO PUSH2 0x4B8 JUMPI PUSH2 0x4B8 PUSH2 0x476 JUMP JUMPDEST PUSH1 0x40 MLOAD PUSH1 0x1F DUP4 ADD PUSH1 0x1F NOT SWAP1 DUP2 AND PUSH1 0x3F ADD AND DUP2 ADD SWAP1 DUP3 DUP3 GT DUP2 DUP4 LT OR ISZERO PUSH2 0x4E0 JUMPI PUSH2 0x4E0 PUSH2 0x476 JUMP JUMPDEST DUP2 PUSH1 0x40 MSTORE DUP4 DUP2 MSTORE DUP7 PUSH1 0x20 DUP6 DUP9 ADD ADD GT ISZERO PUSH2 0x4F9 JUMPI PUSH1 0x0 DUP1 REVERT JUMPDEST DUP4 PUSH1 0x20 DUP8 ADD PUSH1 0x20 DUP4 ADD CALLDATACOPY PUSH1 0x0 PUSH1 0x20 DUP6 DUP4 ADD ADD MSTORE DUP1 SWAP5 POP POP POP POP POP SWAP3 SWAP2 POP POP JUMP JUMPDEST PUSH1 0x0 DUP1 PUSH1 0x0 DUP1 PUSH1 0x0 DUP1 PUSH1 0xC0 DUP8 DUP10 SUB SLT ISZERO PUSH2 0x532 JUMPI PUSH1 0x0 DUP1 REVERT JUMPDEST PUSH2 0x53B DUP8 PUSH2 0x438 JUMP JUMPDEST SWAP6 POP PUSH1 0x20 DUP8 ADD CALLDATALOAD PUSH8 0xFFFFFFFFFFFFFFFF DUP1 DUP3 GT ISZERO PUSH2 0x558 JUMPI PUSH1 0x0 DUP1 REVERT JUMPDEST PUSH2 0x564 DUP11 DUP4 DUP12 ADD PUSH2 0x48C JUMP JUMPDEST SWAP7 POP PUSH1 0x40 DUP10 ADD CALLDATALOAD SWAP2 POP DUP1 DUP3 GT ISZERO PUSH2 0x57A JUMPI PUSH1 0x0 DUP1 REVERT JUMPDEST POP PUSH2 0x587 DUP10 DUP3 DUP11 ADD PUSH2 0x48C JUMP JUMPDEST SWAP5 POP POP PUSH1 0x60 DUP8 ADD CALLDATALOAD SWAP3 POP PUSH1 0x80 DUP8 ADD CALLDATALOAD SWAP2 POP PUSH2 0x5A4 PUSH1 0xA0 DUP9 ADD PUSH2 0x438 JUMP JUMPDEST SWAP1 POP SWAP3 SWAP6 POP SWAP3 SWAP6 POP SWAP3 SWAP6 JUMP JUMPDEST PUSH1 0x0 DUP2 MLOAD DUP1 DUP5 MSTORE PUSH1 0x0 JUMPDEST DUP2 DUP2 LT ISZERO PUSH2 0x5D6 JUMPI PUSH1 0x20 DUP2 DUP6 ADD DUP2 ADD MLOAD DUP7 DUP4 ADD DUP3 ADD MSTORE ADD PUSH2 0x5BA JUMP JUMPDEST POP PUSH1 0x0 PUSH1 0x20 DUP3 DUP7 ADD ADD MSTORE PUSH1 0x20 PUSH1 0x1F NOT PUSH1 0x1F DUP4 ADD AND DUP6 ADD ADD SWAP2 POP POP SWAP3 SWAP2 POP POP JUMP JUMPDEST PUSH1 0x0 PUSH1 0x1 DUP1 PUSH1 0xA0 SHL SUB DUP1 DUP10 AND DUP4 MSTORE PUSH1 0xC0 PUSH1 0x20 DUP5 ADD MSTORE PUSH2 0x618 PUSH1 0xC0 DUP5 ADD DUP10 PUSH2 0x5B0 JUMP JUMPDEST DUP4 DUP2 SUB PUSH1 0x40 DUP6 ADD MSTORE PUSH2 0x62A DUP2 DUP10 PUSH2 0x5B0 JUMP JUMPDEST PUSH1 0x60 DUP6 ADD SWAP8 SWAP1 SWAP8 MSTORE POP PUSH1 0x80 DUP4 ADD SWAP5 SWAP1 SWAP5 MSTORE POP SWAP2 AND PUSH1 0xA0 SWAP1 SWAP2 ADD MSTORE SWAP4 SWAP3 POP POP POP JUMP JUMPDEST PUSH1 0xA0 DUP2 MSTORE PUSH1 0x0 PUSH2 0x65E PUSH1 0xA0 DUP4 ADD DUP9 PUSH2 0x5B0 JUMP JUMPDEST DUP3 DUP2 SUB PUSH1 0x20 DUP5 ADD MSTORE PUSH2 0x670 DUP2 DUP9 PUSH2 0x5B0 JUMP JUMPDEST PUSH1 0x40 DUP5 ADD SWAP7 SWAP1 SWAP7 MSTORE POP POP PUSH1 0x60 DUP2 ADD SWAP3 SWAP1 SWAP3 MSTORE PUSH1 0x1 PUSH1 0x1 PUSH1 0xA0 SHL SUB AND PUSH1 0x80 SWAP1 SWAP2 ADD MSTORE SWAP3 SWAP2 POP POP JUMP INVALID LOG2 PUSH5 0x6970667358 0x22 SLT KECCAK256 SWAP9 PUSH20 0x8806A084663721713B8753AF0D8EB8851BB97B70 MSTORE8 0xD1 0x26 INVALID DUP14 MULMOD 0xCB CALLER 0xDA KECCAK256 PUSH5 0x736F6C6343 STOP ADDMOD XOR STOP CALLER ",
  "sha1": "7745d4a5bfbd73b5e56ef80caa20bd32b7000082",
  "source": "// SPDX-License-Identifier: MIT\n\npragma solidity ^0.8.0;\n\n// interface IPlayerDatabaseSubcontract {\n//     function addOrUpdatePlayer(address _address, string calldata _steamID, bool _isValidator, bool _isRegistered) external;\n// }\n\ninterface IPlayerDatabase {\n    function addOrUpdatePlayer(\n        address _address,\n        string memory _steamID,\n        string memory _playerName,\n        uint256 _oracleKeyIndex1,\n        uint256 _oracleKeyIndex2,\n        address _rewardAddress\n    ) external;    \n    function deletePlayer(address _address) external;\n    // Include other functions from PlayerDatabase that PlayerOnrampContract needs to call\n\n    function setGameAdminStatus(address admin, bool status) external;\n    function setValidatorStatus(address validator, bool status) external;\n\n}\n\ncontract PlayerOnboardContract {\n    IPlayerDatabase public playerDatabase;\n\n    event PlayerOnboarded(address indexed _address, string _steamID, string _playerName, uint256 _oracleKeyIndex1, uint256 _oracleKeyIndex2, address _rewardAddress);\n    event PlayerRemoved(address indexed deletedPlayerAddress);\n    address _playerDatabaseAddress = 0x3b9467De1800bBB6ba6Bd3D1cb7e7BEBC0EFa96f;\n\n    constructor() {\n        playerDatabase = IPlayerDatabase(_playerDatabaseAddress);\n    }\n\n    // function onboardPlayer(address _address, string calldata _steamID, bool _isValidator, string memory _playerName) public {\n    //     // Additional logic and security checks as needed\n    //     playerDatabase.addOrUpdatePlayer(_address, _steamID, _isValidator, _playerName);\n    //     emit PlayerOnboarded(_address, _steamID, _isValidator, _playerName);\n    // }\n    function onboardPlayer(\n        address _address,\n        string memory _steamID,\n        string memory _playerName,\n        uint256 _oracleKeyIndex1, // Expect this to be provided; revert if 0 for new players\n        uint256 _oracleKeyIndex2, // Expect this to be provided; could be 0 if only one key is used\n        address _rewardAddress // Reward address for the player\n    ) public {\n        // Here you might want to include checks for the caller's permissions to onboard a player\n        // and other business logic validations.\n\n        // Revert if oracleKeyIndex1 is 0 for new players\n        require(_oracleKeyIndex1 != 0, \"Oracle key index 1 cannot be zero for new players\");\n\n        // Call the PlayerDatabase to add or update the player with new parameters\n        playerDatabase.addOrUpdatePlayer(_address, _steamID, _playerName, _oracleKeyIndex1, _oracleKeyIndex2, _rewardAddress);\n\n        // Emit an event with all the provided information\n        emit PlayerOnboarded(_address, _steamID, _playerName, _oracleKeyIndex1, _oracleKeyIndex2, _rewardAddress);\n    }\n\n\n    function deletePlayer(address _address) public {\n        playerDatabase.deletePlayer(_address);\n        emit PlayerRemoved(_address);\n    }\n\n    function setPlayerDatabaseAddress(address __playerDatabaseAddress) public {\n        playerDatabase = IPlayerDatabase(__playerDatabaseAddress);\n    }\n    // Additional functions and logic as required for onramping...\n\n\n    function registerValidator(address validator) public {\n        // Add appropriate checks here\n        playerDatabase.setValidatorStatus(validator, true);\n    }\n\n    function removeValidator(address validator) public {\n        // Add appropriate checks here\n        playerDatabase.setValidatorStatus(validator, false);\n    }\n\n    function registerAdmin(address admin) public {\n        // Add appropriate checks here\n        playerDatabase.setGameAdminStatus(admin, true);\n    }\n\n    function removeAdmin(address admin) public {\n        // Add appropriate checks here\n        playerDatabase.setGameAdminStatus(admin, false);\n    }\n}\n// contract PlayerOnrampContract {\n//     IMintyDatabaseSubcontract public mintyDatabase;\n\n//     event PlayerOnboarded(address indexed playerAddress, string steamID, bool isValidator, bool isRegistered);\n\n//     constructor(address _mintyDatabaseAddress) {\n//         mintyDatabase = IMintyDatabaseSubcontract(_mintyDatabaseAddress);\n//     }\n\n//     function onboardPlayer(address _address, string calldata _steamID, bool _isValidator, bool _isRegistered) public {\n//         // Additional logic and security checks as needed\n//         mintyDatabase.addOrUpdatePlayer(_address, _steamID, _isValidator, _isRegistered);\n//         emit PlayerOnboarded(_address, _steamID, _isValidator, _isRegistered);\n//     }\n\n//     // Additional functions and logic as required for onramping...\n// }\n",
  "sourcePath": "contracts/5_GP_Onboard.sol",
  "type": "contract"
}