{
  "abi": [
    {
      "inputs": [],
      "stateMutability": "nonpayable",
      "type": "constructor"
    },
    {
      "anonymous": false,
      "inputs": [
        {
          "indexed": true,
          "internalType": "address",
          "name": "owner",
          "type": "address"
        },
        {
          "indexed": true,
          "internalType": "address",
          "name": "spender",
          "type": "address"
        },
        {
          "indexed": false,
          "internalType": "uint256",
          "name": "value",
          "type": "uint256"
        }
      ],
      "name": "Approval",
      "type": "event"
    },
    {
      "anonymous": false,
      "inputs": [
        {
          "indexed": true,
          "internalType": "address",
          "name": "newGameValContract",
          "type": "address"
        }
      ],
      "name": "GameValContractUpdated",
      "type": "event"
    },
    {
      "anonymous": false,
      "inputs": [
        {
          "indexed": true,
          "internalType": "address",
          "name": "newOnrampContract",
          "type": "address"
        }
      ],
      "name": "OnrampContractUpdated",
      "type": "event"
    },
    {
      "anonymous": false,
      "inputs": [
        {
          "indexed": true,
          "internalType": "address",
          "name": "from",
          "type": "address"
        },
        {
          "indexed": true,
          "internalType": "address",
          "name": "to",
          "type": "address"
        },
        {
          "indexed": false,
          "internalType": "uint256",
          "name": "value",
          "type": "uint256"
        }
      ],
      "name": "Transfer",
      "type": "event"
    },
    {
      "inputs": [
        {
          "internalType": "address",
          "name": "_address",
          "type": "address"
        },
        {
          "internalType": "string",
          "name": "_steamID",
          "type": "string"
        },
        {
          "internalType": "bool",
          "name": "_isValidator",
          "type": "bool"
        },
        {
          "internalType": "bool",
          "name": "_isRegistered",
          "type": "bool"
        },
        {
          "internalType": "string",
          "name": "_playerName",
          "type": "string"
        }
      ],
      "name": "addOrUpdatePlayer",
      "outputs": [],
      "stateMutability": "nonpayable",
      "type": "function"
    },
    {
      "inputs": [
        {
          "internalType": "address",
          "name": "",
          "type": "address"
        },
        {
          "internalType": "address",
          "name": "",
          "type": "address"
        }
      ],
      "name": "allowance",
      "outputs": [
        {
          "internalType": "uint256",
          "name": "",
          "type": "uint256"
        }
      ],
      "stateMutability": "view",
      "type": "function"
    },
    {
      "inputs": [],
      "name": "anonIDContract",
      "outputs": [
        {
          "internalType": "contract IAnonID",
          "name": "",
          "type": "address"
        }
      ],
      "stateMutability": "view",
      "type": "function"
    },
    {
      "inputs": [
        {
          "internalType": "address",
          "name": "",
          "type": "address"
        }
      ],
      "name": "balanceOf",
      "outputs": [
        {
          "internalType": "uint256",
          "name": "",
          "type": "uint256"
        }
      ],
      "stateMutability": "view",
      "type": "function"
    },
    {
      "inputs": [],
      "name": "forumContract",
      "outputs": [
        {
          "internalType": "address",
          "name": "",
          "type": "address"
        }
      ],
      "stateMutability": "view",
      "type": "function"
    },
    {
      "inputs": [
        {
          "internalType": "string",
          "name": "",
          "type": "string"
        }
      ],
      "name": "gameServerIPs",
      "outputs": [
        {
          "internalType": "bool",
          "name": "",
          "type": "bool"
        }
      ],
      "stateMutability": "view",
      "type": "function"
    },
    {
      "inputs": [],
      "name": "gameValContract",
      "outputs": [
        {
          "internalType": "address",
          "name": "",
          "type": "address"
        }
      ],
      "stateMutability": "view",
      "type": "function"
    },
    {
      "inputs": [],
      "name": "getAllPlayerNames",
      "outputs": [
        {
          "internalType": "string[]",
          "name": "",
          "type": "string[]"
        }
      ],
      "stateMutability": "view",
      "type": "function"
    },
    {
      "inputs": [],
      "name": "getAllServerIPs",
      "outputs": [
        {
          "internalType": "string[]",
          "name": "",
          "type": "string[]"
        }
      ],
      "stateMutability": "view",
      "type": "function"
    },
    {
      "inputs": [
        {
          "internalType": "string[]",
          "name": "playerNames",
          "type": "string[]"
        },
        {
          "internalType": "uint256",
          "name": "lastMintTime",
          "type": "uint256"
        }
      ],
      "name": "getValidRewardAddressesByNames",
      "outputs": [
        {
          "internalType": "address[]",
          "name": "",
          "type": "address[]"
        }
      ],
      "stateMutability": "nonpayable",
      "type": "function"
    },
    {
      "inputs": [
        {
          "internalType": "address",
          "name": "_address",
          "type": "address"
        }
      ],
      "name": "isModerator",
      "outputs": [
        {
          "internalType": "bool",
          "name": "",
          "type": "bool"
        }
      ],
      "stateMutability": "view",
      "type": "function"
    },
    {
      "inputs": [
        {
          "internalType": "address",
          "name": "_address",
          "type": "address"
        }
      ],
      "name": "isRegistered",
      "outputs": [
        {
          "internalType": "bool",
          "name": "",
          "type": "bool"
        }
      ],
      "stateMutability": "view",
      "type": "function"
    },
    {
      "inputs": [
        {
          "internalType": "address",
          "name": "_address",
          "type": "address"
        }
      ],
      "name": "isValidator",
      "outputs": [
        {
          "internalType": "bool",
          "name": "",
          "type": "bool"
        }
      ],
      "stateMutability": "view",
      "type": "function"
    },
    {
      "inputs": [],
      "name": "onrampContract",
      "outputs": [
        {
          "internalType": "address",
          "name": "",
          "type": "address"
        }
      ],
      "stateMutability": "view",
      "type": "function"
    },
    {
      "inputs": [
        {
          "internalType": "uint256",
          "name": "",
          "type": "uint256"
        }
      ],
      "name": "playerAddresses",
      "outputs": [
        {
          "internalType": "address",
          "name": "",
          "type": "address"
        }
      ],
      "stateMutability": "view",
      "type": "function"
    },
    {
      "inputs": [
        {
          "internalType": "address",
          "name": "",
          "type": "address"
        }
      ],
      "name": "playerData",
      "outputs": [
        {
          "internalType": "bool",
          "name": "isRegistered",
          "type": "bool"
        },
        {
          "internalType": "bool",
          "name": "isValidator",
          "type": "bool"
        },
        {
          "internalType": "bool",
          "name": "isModerator",
          "type": "bool"
        },
        {
          "internalType": "bool",
          "name": "isTourneyMod",
          "type": "bool"
        },
        {
          "internalType": "bool",
          "name": "isGameAdmin",
          "type": "bool"
        },
        {
          "internalType": "string",
          "name": "playerName",
          "type": "string"
        },
        {
          "internalType": "bytes32",
          "name": "forumKey",
          "type": "bytes32"
        },
        {
          "internalType": "string",
          "name": "steamID",
          "type": "string"
        },
        {
          "internalType": "address",
          "name": "rewardAddress",
          "type": "address"
        }
      ],
      "stateMutability": "view",
      "type": "function"
    },
    {
      "inputs": [
        {
          "internalType": "uint256",
          "name": "",
          "type": "uint256"
        }
      ],
      "name": "serverIPList",
      "outputs": [
        {
          "internalType": "string",
          "name": "",
          "type": "string"
        }
      ],
      "stateMutability": "view",
      "type": "function"
    },
    {
      "inputs": [
        {
          "internalType": "address",
          "name": "_anonIDAddress",
          "type": "address"
        }
      ],
      "name": "setAnonIDContractAddress",
      "outputs": [],
      "stateMutability": "nonpayable",
      "type": "function"
    },
    {
      "inputs": [
        {
          "internalType": "address",
          "name": "_player",
          "type": "address"
        },
        {
          "internalType": "bytes32",
          "name": "_key",
          "type": "bytes32"
        }
      ],
      "name": "setForumKey",
      "outputs": [],
      "stateMutability": "nonpayable",
      "type": "function"
    },
    {
      "inputs": [
        {
          "internalType": "address",
          "name": "admin",
          "type": "address"
        },
        {
          "internalType": "bool",
          "name": "status",
          "type": "bool"
        }
      ],
      "name": "setGameAdminStatus",
      "outputs": [],
      "stateMutability": "nonpayable",
      "type": "function"
    },
    {
      "inputs": [
        {
          "internalType": "address",
          "name": "validator",
          "type": "address"
        },
        {
          "internalType": "bool",
          "name": "status",
          "type": "bool"
        }
      ],
      "name": "setValidatorStatus",
      "outputs": [],
      "stateMutability": "nonpayable",
      "type": "function"
    },
    {
      "inputs": [
        {
          "internalType": "address",
          "name": "_player",
          "type": "address"
        },
        {
          "internalType": "bool",
          "name": "_status",
          "type": "bool"
        }
      ],
      "name": "toggleModeratorStatus",
      "outputs": [],
      "stateMutability": "nonpayable",
      "type": "function"
    },
    {
      "inputs": [
        {
          "internalType": "address",
          "name": "_player",
          "type": "address"
        },
        {
          "internalType": "bool",
          "name": "_status",
          "type": "bool"
        }
      ],
      "name": "toggleTourneyModStatus",
      "outputs": [],
      "stateMutability": "nonpayable",
      "type": "function"
    },
    {
      "inputs": [
        {
          "internalType": "address",
          "name": "_forumContract",
          "type": "address"
        }
      ],
      "name": "updateForumContract",
      "outputs": [],
      "stateMutability": "nonpayable",
      "type": "function"
    },
    {
      "inputs": [
        {
          "internalType": "string",
          "name": "serverIP",
          "type": "string"
        },
        {
          "internalType": "bool",
          "name": "add",
          "type": "bool"
        }
      ],
      "name": "updateGameServerIP",
      "outputs": [],
      "stateMutability": "nonpayable",
      "type": "function"
    },
    {
      "inputs": [
        {
          "internalType": "address",
          "name": "_gameValContract",
          "type": "address"
        }
      ],
      "name": "updateGameValContract",
      "outputs": [],
      "stateMutability": "nonpayable",
      "type": "function"
    },
    {
      "inputs": [
        {
          "internalType": "address",
          "name": "_onrampContract",
          "type": "address"
        }
      ],
      "name": "updateOnrampContract",
      "outputs": [],
      "stateMutability": "nonpayable",
      "type": "function"
    }
  ],
  "bytecode": "60c0604052600360808181526254464360e81b60a052620000219082620000db565b503480156200002f57600080fd5b50620001a7565b634e487b7160e01b600052604160045260246000fd5b600181811c908216806200006157607f821691505b6020821081036200008257634e487b7160e01b600052602260045260246000fd5b50919050565b601f821115620000d657600081815260208120601f850160051c81016020861015620000b15750805b601f850160051c820191505b81811015620000d257828155600101620000bd565b5050505b505050565b81516001600160401b03811115620000f757620000f762000036565b6200010f816200010884546200004c565b8462000088565b602080601f8311600181146200014757600084156200012e5750858301515b600019600386901b1c1916600185901b178555620000d2565b600085815260208120601f198616915b82811015620001785788860151825594840194600190910190840162000157565b5085821015620001975787850151600019600388901b60f8161c191681555b5050505050600190811b01905550565b61208f80620001b76000396000f3fe608060405234801561001057600080fd5b50600436106101a95760003560e01c806385d8f13d116100f9578063c3c5a54711610097578063dd62ed3e11610071578063dd62ed3e1461049f578063f107f877146104ca578063fa6f3936146104dd578063facd743b1461050f57600080fd5b8063c3c5a54714610440578063d28c446d1461046c578063da76a7001461047f57600080fd5b8063ac4bcd01116100d3578063ac4bcd01146103b6578063aca2490b146103be578063ae5d7afa146103fd578063bb5179461461042d57600080fd5b806385d8f13d14610370578063862dfd3e14610390578063a86ac4a8146103a357600080fd5b806343828be611610166578063623503331161014057806362350333146102ea57806370a08231146102fd5780637dd241681461032b5780638098dcff1461035b57600080fd5b806343828be61461027f5780635889fb3414610292578063611b3a25146102d757600080fd5b806311bac630146101ae57806315c6aee2146101c35780631881f255146101f357806338a0b5c6146102065780633fe7829f14610244578063424aeded14610257575b600080fd5b6101c16101bc3660046117b1565b610540565b005b6101d66101d1366004611803565b6106af565b6040516001600160a01b0390911681526020015b60405180910390f35b6101c1610201366004611838565b6106d9565b610234610214366004611862565b805160208183018101805160008252928201919093012091525460ff1681565b60405190151581526020016101ea565b6009546101d6906001600160a01b031681565b61026a61026536600461189f565b610764565b6040516101ea99989796959493929190611911565b6101c161028d366004611987565b6108d8565b6101c16102a0366004611987565b6001600160a01b03909116600090815260056020526040902080549115156401000000000264ff0000000019909216919091179055565b6101c16102e5366004611987565b61098d565b6101c16102f836600461189f565b610a36565b61031d61030b36600461189f565b60016020526000908152604090205481565b6040519081526020016101ea565b6101c161033936600461189f565b600a80546001600160a01b0319166001600160a01b0392909216919091179055565b610363610a80565b6040516101ea91906119b3565b61038361037e366004611a15565b610be9565b6040516101ea9190611ade565b6008546101d6906001600160a01b031681565b6101c16103b136600461189f565b611035565b61036361107f565b6101c16103cc366004611987565b6001600160a01b03909116600090815260056020526040902080549115156101000261ff0019909216919091179055565b6101c161040b36600461189f565b600880546001600160a01b0319166001600160a01b0392909216919091179055565b600a546101d6906001600160a01b031681565b61023461044e36600461189f565b6001600160a01b031660009081526005602052604090205460ff1690565b6101c161047a366004611b2b565b611158565b61049261048d366004611803565b6114a4565b6040516101ea9190611bc9565b61031d6104ad366004611bdc565b600260209081526000928352604080842090915290825290205481565b6007546101d6906001600160a01b031681565b6102346104eb36600461189f565b6001600160a01b031660009081526005602052604090205462010000900460ff1690565b61023461051d36600461189f565b6001600160a01b0316600090815260056020526040902054610100900460ff1690565b33600090815260056020526040902054640100000000900460ff166105ac5760405162461bcd60e51b815260206004820152601a60248201527f43616c6c6572206973206e6f7420612067616d652061646d696e00000000000060448201526064015b60405180910390fd5b801561064d576000826040516105c29190611c0f565b9081526040519081900360200190205460ff166106495760016000836040516105eb9190611c0f565b908152604051908190036020019020805491151560ff19909216919091179055600480546001810182556000919091527f8a35acfbc15ff81a39ae7d344fd709f28e8600b4aa8c65c6b64bfe7fe36bd19b016106478382611cad565b505b5050565b60008260405161065d9190611c0f565b9081526040519081900360200190205460ff161561064957600080836040516106869190611c0f565b908152604051908190036020019020805491151560ff1990921691909117905561064982611550565b600681815481106106bf57600080fd5b6000918252602090912001546001600160a01b0316905081565b600a546001600160a01b031633146107455760405162461bcd60e51b815260206004820152602960248201527f4f6e6c792074686520666f72756d20636f6e74726163742063616e2073657420604482015268666f72756d206b657960b81b60648201526084016105a3565b6001600160a01b03909116600090815260056020526040902060020155565b6005602052600090815260409020805460018201805460ff8084169461010085048216946201000081048316946301000000820484169464010000000090920490931692906107b290611c2b565b80601f01602080910402602001604051908101604052809291908181526020018280546107de90611c2b565b801561082b5780601f106108005761010080835404028352916020019161082b565b820191906000526020600020905b81548152906001019060200180831161080e57829003601f168201915b50505050509080600201549080600301805461084690611c2b565b80601f016020809104026020016040519081016040528092919081815260200182805461087290611c2b565b80156108bf5780601f10610894576101008083540402835291602001916108bf565b820191906000526020600020905b8154815290600101906020018083116108a257829003601f168201915b505050600490930154919250506001600160a01b031689565b600a546001600160a01b031633146109585760405162461bcd60e51b815260206004820152603e60248201527f4f6e6c792074686520666f72756d20636f6e74726163742063616e206d6f646960448201527f667920746f75726e616d656e74206d6f64657261746f7220737461747573000060648201526084016105a3565b6001600160a01b039091166000908152600560205260409020805491151563010000000263ff00000019909216919091179055565b600a546001600160a01b03163314610a035760405162461bcd60e51b815260206004820152603360248201527f4f6e6c792074686520666f72756d20636f6e74726163742063616e206d6f64696044820152726679206d6f64657261746f722073746174757360681b60648201526084016105a3565b6001600160a01b0390911660009081526005602052604090208054911515620100000262ff000019909216919091179055565b600980546001600160a01b0319166001600160a01b0383169081179091556040517f5959e7554218adbe3edb157f744a698c903698e2be92d199d2938afb8b0312ab90600090a250565b60065460609060009067ffffffffffffffff811115610aa157610aa16116ec565b604051908082528060200260200182016040528015610ad457816020015b6060815260200190600190039081610abf5790505b50905060005b600654811015610be35760006005600060068481548110610afd57610afd611d6d565b60009182526020808320909101546001600160a01b03168352820192909252604001902060018101805491925090610b3490611c2b565b80601f0160208091040260200160405190810160405280929190818152602001828054610b6090611c2b565b8015610bad5780601f10610b8257610100808354040283529160200191610bad565b820191906000526020600020905b815481529060010190602001808311610b9057829003601f168201915b5050505050838381518110610bc457610bc4611d6d565b6020026020010181905250508080610bdb90611d99565b915050610ada565b50919050565b60606000835167ffffffffffffffff811115610c0757610c076116ec565b604051908082528060200260200182016040528015610c30578160200160208202803683370190505b50905060005b845181101561102b5760005b60065481101561101857858281518110610c5e57610c5e611d6d565b6020026020010151604051602001610c769190611c0f565b604051602081830303815290604052805190602001206005600060068481548110610ca357610ca3611d6d565b60009182526020808320909101546001600160a01b0316835282810193909352604091820190209051610cdd926001929092019101611db2565b604051602081830303815290604052805190602001200361100657600854600680546000926001600160a01b031691635a725b07916003919086908110610d2657610d26611d6d565b6000918252602090912001546040516001600160e01b031960e085901b168152610d5d92916001600160a01b031690600401611ea5565b602060405180830381865afa158015610d7a573d6000803e3d6000fd5b505050506040513d601f19601f82011682018060405250810190610d9e9190611ecf565b90508060ff16600203610f5f576005600060068481548110610dc257610dc2611d6d565b60009182526020808320909101546001600160a01b0390811684529083019390935260409091019020600401548551911690859085908110610e0657610e06611d6d565b6001600160a01b03909216602092830291909101909101526000610e2b603c88611ef2565b600854600680549293506001600160a01b039091169163d47b2e99919086908110610e5857610e58611d6d565b60009182526020909120015460405160e083901b6001600160e01b03191681526001600160a01b03909116600482015260248101849052604401600060405180830381600087803b158015610eac57600080fd5b505af1158015610ec0573d6000803e3d6000fd5b5050600854600680546001600160a01b039092169350632eb4b54f92509086908110610eee57610eee611d6d565b6000918252602090912001546040516001600160e01b031960e084901b168152610f27916001600160a01b031690600390600401611f14565b600060405180830381600087803b158015610f4157600080fd5b505af1158015610f55573d6000803e3d6000fd5b5050505050611000565b8060ff1660000361100057600854600680546001600160a01b0390921691632eb4b54f919085908110610f9457610f94611d6d565b6000918252602090912001546040516001600160e01b031960e084901b168152610fcd916001600160a01b031690600390600401611f14565b600060405180830381600087803b158015610fe757600080fd5b505af1158015610ffb573d6000803e3d6000fd5b505050505b50611018565b8061101081611d99565b915050610c42565b508061102381611d99565b915050610c36565b5090505b92915050565b600780546001600160a01b0319166001600160a01b0383169081179091556040517f6f1895f9314e8b91a7a1c3a67319510d05c9d6729515f83cc2eaca70d3e81f8790600090a250565b60606004805480602002602001604051908101604052809291908181526020016000905b8282101561114f5783829060005260206000200180546110c290611c2b565b80601f01602080910402602001604051908101604052809291908181526020018280546110ee90611c2b565b801561113b5780601f106111105761010080835404028352916020019161113b565b820191906000526020600020905b81548152906001019060200180831161111e57829003601f168201915b5050505050815260200190600101906110a3565b50505050905090565b6009546001600160a01b031633146111ca5760405162461bcd60e51b815260206004820152602f60248201527f4f6e6c7920746865206f6e72616d7020636f6e74726163742063616e2061646460448201526e2f75706461746520706c617965727360881b60648201526084016105a3565b600854604051633af32abf60e01b81526001600160a01b03878116600483015290911690633af32abf90602401602060405180830381865afa158015611214573d6000803e3d6000fd5b505050506040513d601f19601f820116820180604052508101906112389190611f38565b61128e5760405162461bcd60e51b815260206004820152602160248201527f41646472657373206e6f742077686974656c697374656420696e20416e6f6e496044820152601160fa1b60648201526084016105a3565b600060056000876001600160a01b03166001600160a01b03168152602001908152602001600020905060008160000160009054906101000a900460ff169050604051806101200160405280851515815260200186151581526020016000151581526020016000151581526020016000151581526020018481526020016000801b8152602001878152602001886001600160a01b031681525060056000896001600160a01b03166001600160a01b0316815260200190815260200160002060008201518160000160006101000a81548160ff02191690831515021790555060208201518160000160016101000a81548160ff02191690831515021790555060408201518160000160026101000a81548160ff02191690831515021790555060608201518160000160036101000a81548160ff02191690831515021790555060808201518160000160046101000a81548160ff02191690831515021790555060a08201518160010190816114009190611cad565b5060c0820151600282015560e0820151600382019061141f9082611cad565b506101009190910151600490910180546001600160a01b0319166001600160a01b039092169190911790558061149b57600680546001810182556000919091527ff652222313e28459528d920b65115c16c04f3efc82aaedc97be59f3f377c0d3f0180546001600160a01b0319166001600160a01b0389161790555b50505050505050565b600481815481106114b457600080fd5b9060005260206000200160009150905080546114cf90611c2b565b80601f01602080910402602001604051908101604052809291908181526020018280546114fb90611c2b565b80156115485780601f1061151d57610100808354040283529160200191611548565b820191906000526020600020905b81548152906001019060200180831161152b57829003601f168201915b505050505081565b60005b600454811015610649578160405160200161156e9190611c0f565b604051602081830303815290604052805190602001206004828154811061159757611597611d6d565b906000526020600020016040516020016115b19190611db2565b604051602081830303815290604052805190602001200361168457600080836040516115dd9190611c0f565b908152604051908190036020019020805491151560ff199092169190911790556004805461160d90600190611f55565b8154811061161d5761161d611d6d565b906000526020600020016004828154811061163a5761163a611d6d565b9060005260206000200190816116509190611f68565b50600480548061166257611662612043565b60019003818190600052602060002001600061167e9190611696565b90555050565b8061168e81611d99565b915050611553565b5080546116a290611c2b565b6000825580601f106116b2575050565b601f0160209004906000526020600020908101906116d091906116d3565b50565b5b808211156116e857600081556001016116d4565b5090565b634e487b7160e01b600052604160045260246000fd5b604051601f8201601f1916810167ffffffffffffffff8111828210171561172b5761172b6116ec565b604052919050565b600082601f83011261174457600080fd5b813567ffffffffffffffff81111561175e5761175e6116ec565b611771601f8201601f1916602001611702565b81815284602083860101111561178657600080fd5b816020850160208301376000918101602001919091529392505050565b80151581146116d057600080fd5b600080604083850312156117c457600080fd5b823567ffffffffffffffff8111156117db57600080fd5b6117e785828601611733565b92505060208301356117f8816117a3565b809150509250929050565b60006020828403121561181557600080fd5b5035919050565b80356001600160a01b038116811461183357600080fd5b919050565b6000806040838503121561184b57600080fd5b6118548361181c565b946020939093013593505050565b60006020828403121561187457600080fd5b813567ffffffffffffffff81111561188b57600080fd5b61189784828501611733565b949350505050565b6000602082840312156118b157600080fd5b6118ba8261181c565b9392505050565b60005b838110156118dc5781810151838201526020016118c4565b50506000910152565b600081518084526118fd8160208601602086016118c1565b601f01601f19169290920160200192915050565b60006101208b151583528a151560208401528915156040840152881515606084015287151560808401528060a084015261194d818401886118e5565b90508560c084015282810360e084015261196781866118e5565b91505060018060a01b0383166101008301529a9950505050505050505050565b6000806040838503121561199a57600080fd5b6119a38361181c565b915060208301356117f8816117a3565b6000602080830181845280855180835260408601915060408160051b870101925083870160005b82811015611a0857603f198886030184526119f68583516118e5565b945092850192908501906001016119da565b5092979650505050505050565b60008060408385031215611a2857600080fd5b823567ffffffffffffffff80821115611a4057600080fd5b818501915085601f830112611a5457600080fd5b8135602082821115611a6857611a686116ec565b8160051b611a77828201611702565b928352848101820192828101908a851115611a9157600080fd5b83870192505b84831015611acd57823586811115611aaf5760008081fd5b611abd8c86838b0101611733565b8352509183019190830190611a97565b9a9890920135985050505050505050565b6020808252825182820181905260009190848201906040850190845b81811015611b1f5783516001600160a01b031683529284019291840191600101611afa565b50909695505050505050565b600080600080600060a08688031215611b4357600080fd5b611b4c8661181c565b9450602086013567ffffffffffffffff80821115611b6957600080fd5b611b7589838a01611733565b955060408801359150611b87826117a3565b909350606087013590611b99826117a3565b90925060808701359080821115611baf57600080fd5b50611bbc88828901611733565b9150509295509295909350565b6020815260006118ba60208301846118e5565b60008060408385031215611bef57600080fd5b611bf88361181c565b9150611c066020840161181c565b90509250929050565b60008251611c218184602087016118c1565b9190910192915050565b600181811c90821680611c3f57607f821691505b602082108103610be357634e487b7160e01b600052602260045260246000fd5b601f82111561064757600081815260208120601f850160051c81016020861015611c865750805b601f850160051c820191505b81811015611ca557828155600101611c92565b505050505050565b815167ffffffffffffffff811115611cc757611cc76116ec565b611cdb81611cd58454611c2b565b84611c5f565b602080601f831160018114611d105760008415611cf85750858301515b600019600386901b1c1916600185901b178555611ca5565b600085815260208120601f198616915b82811015611d3f57888601518255948401946001909101908401611d20565b5085821015611d5d5787850151600019600388901b60f8161c191681555b5050505050600190811b01905550565b634e487b7160e01b600052603260045260246000fd5b634e487b7160e01b600052601160045260246000fd5b600060018201611dab57611dab611d83565b5060010190565b6000808354611dc081611c2b565b60018281168015611dd85760018114611ded57611e1c565b60ff1984168752821515830287019450611e1c565b8760005260208060002060005b85811015611e135781548a820152908401908201611dfa565b50505082870194505b50929695505050505050565b60008154611e3581611c2b565b808552602060018381168015611e525760018114611e6c57611e9a565b60ff1985168884015283151560051b880183019550611e9a565b866000528260002060005b85811015611e925781548a8201860152908301908401611e77565b890184019650505b505050505092915050565b604081526000611eb86040830185611e28565b905060018060a01b03831660208301529392505050565b600060208284031215611ee157600080fd5b815160ff811681146118ba57600080fd5b600082611f0f57634e487b7160e01b600052601260045260246000fd5b500490565b6001600160a01b038316815260406020820181905260009061189790830184611e28565b600060208284031215611f4a57600080fd5b81516118ba816117a3565b8181038181111561102f5761102f611d83565b818103611f73575050565b611f7d8254611c2b565b67ffffffffffffffff811115611f9557611f956116ec565b611fa381611cd58454611c2b565b6000601f821160018114611fd75760008315611fbf5750848201545b600019600385901b1c1916600184901b17845561203c565b600085815260209020601f19841690600086815260209020845b838110156120115782860154825560019586019590910190602001611ff1565b508583101561202f5781850154600019600388901b60f8161c191681555b50505060018360011b0184555b5050505050565b634e487b7160e01b600052603160045260246000fdfea264697066735822122014b85809702127102b94939d4cac62999aebc1e41e08901dee3d79bec7f8b58a64736f6c63430008150033",
  "bytecodeSha1": "e442c308a69016b89082ac61ffc927b5d6c1e423",
  "compiler": {
    "evm_version": "istanbul",
    "optimizer": {
      "enabled": true,
      "runs": 200
    },
    "version": "0.8.21+commit.d9974bed"
  },
  "contractName": "PlayerDatabase",
  "language": "Solidity",
  "natspec": {
    "kind": "dev",
    "methods": {},
    "version": 1
  },
  "opcodes": "PUSH1 0x80 PUSH1 0x40 MSTORE CALLVALUE DUP1 ISZERO PUSH2 0x10 JUMPI PUSH1 0x0 DUP1 REVERT JUMPDEST POP PUSH1 0x4 CALLDATASIZE LT PUSH2 0x1A9 JUMPI PUSH1 0x0 CALLDATALOAD PUSH1 0xE0 SHR DUP1 PUSH4 0x85D8F13D GT PUSH2 0xF9 JUMPI DUP1 PUSH4 0xC3C5A547 GT PUSH2 0x97 JUMPI DUP1 PUSH4 0xDD62ED3E GT PUSH2 0x71 JUMPI DUP1 PUSH4 0xDD62ED3E EQ PUSH2 0x49F JUMPI DUP1 PUSH4 0xF107F877 EQ PUSH2 0x4CA JUMPI DUP1 PUSH4 0xFA6F3936 EQ PUSH2 0x4DD JUMPI DUP1 PUSH4 0xFACD743B EQ PUSH2 0x50F JUMPI PUSH1 0x0 DUP1 REVERT JUMPDEST DUP1 PUSH4 0xC3C5A547 EQ PUSH2 0x440 JUMPI DUP1 PUSH4 0xD28C446D EQ PUSH2 0x46C JUMPI DUP1 PUSH4 0xDA76A700 EQ PUSH2 0x47F JUMPI PUSH1 0x0 DUP1 REVERT JUMPDEST DUP1 PUSH4 0xAC4BCD01 GT PUSH2 0xD3 JUMPI DUP1 PUSH4 0xAC4BCD01 EQ PUSH2 0x3B6 JUMPI DUP1 PUSH4 0xACA2490B EQ PUSH2 0x3BE JUMPI DUP1 PUSH4 0xAE5D7AFA EQ PUSH2 0x3FD JUMPI DUP1 PUSH4 0xBB517946 EQ PUSH2 0x42D JUMPI PUSH1 0x0 DUP1 REVERT JUMPDEST DUP1 PUSH4 0x85D8F13D EQ PUSH2 0x370 JUMPI DUP1 PUSH4 0x862DFD3E EQ PUSH2 0x390 JUMPI DUP1 PUSH4 0xA86AC4A8 EQ PUSH2 0x3A3 JUMPI PUSH1 0x0 DUP1 REVERT JUMPDEST DUP1 PUSH4 0x43828BE6 GT PUSH2 0x166 JUMPI DUP1 PUSH4 0x62350333 GT PUSH2 0x140 JUMPI DUP1 PUSH4 0x62350333 EQ PUSH2 0x2EA JUMPI DUP1 PUSH4 0x70A08231 EQ PUSH2 0x2FD JUMPI DUP1 PUSH4 0x7DD24168 EQ PUSH2 0x32B JUMPI DUP1 PUSH4 0x8098DCFF EQ PUSH2 0x35B JUMPI PUSH1 0x0 DUP1 REVERT JUMPDEST DUP1 PUSH4 0x43828BE6 EQ PUSH2 0x27F JUMPI DUP1 PUSH4 0x5889FB34 EQ PUSH2 0x292 JUMPI DUP1 PUSH4 0x611B3A25 EQ PUSH2 0x2D7 JUMPI PUSH1 0x0 DUP1 REVERT JUMPDEST DUP1 PUSH4 0x11BAC630 EQ PUSH2 0x1AE JUMPI DUP1 PUSH4 0x15C6AEE2 EQ PUSH2 0x1C3 JUMPI DUP1 PUSH4 0x1881F255 EQ PUSH2 0x1F3 JUMPI DUP1 PUSH4 0x38A0B5C6 EQ PUSH2 0x206 JUMPI DUP1 PUSH4 0x3FE7829F EQ PUSH2 0x244 JUMPI DUP1 PUSH4 0x424AEDED EQ PUSH2 0x257 JUMPI JUMPDEST PUSH1 0x0 DUP1 REVERT JUMPDEST PUSH2 0x1C1 PUSH2 0x1BC CALLDATASIZE PUSH1 0x4 PUSH2 0x17B1 JUMP JUMPDEST PUSH2 0x540 JUMP JUMPDEST STOP JUMPDEST PUSH2 0x1D6 PUSH2 0x1D1 CALLDATASIZE PUSH1 0x4 PUSH2 0x1803 JUMP JUMPDEST PUSH2 0x6AF JUMP JUMPDEST PUSH1 0x40 MLOAD PUSH1 0x1 PUSH1 0x1 PUSH1 0xA0 SHL SUB SWAP1 SWAP2 AND DUP2 MSTORE PUSH1 0x20 ADD JUMPDEST PUSH1 0x40 MLOAD DUP1 SWAP2 SUB SWAP1 RETURN JUMPDEST PUSH2 0x1C1 PUSH2 0x201 CALLDATASIZE PUSH1 0x4 PUSH2 0x1838 JUMP JUMPDEST PUSH2 0x6D9 JUMP JUMPDEST PUSH2 0x234 PUSH2 0x214 CALLDATASIZE PUSH1 0x4 PUSH2 0x1862 JUMP JUMPDEST DUP1 MLOAD PUSH1 0x20 DUP2 DUP4 ADD DUP2 ADD DUP1 MLOAD PUSH1 0x0 DUP3 MSTORE SWAP3 DUP3 ADD SWAP2 SWAP1 SWAP4 ADD KECCAK256 SWAP2 MSTORE SLOAD PUSH1 0xFF AND DUP2 JUMP JUMPDEST PUSH1 0x40 MLOAD SWAP1 ISZERO ISZERO DUP2 MSTORE PUSH1 0x20 ADD PUSH2 0x1EA JUMP JUMPDEST PUSH1 0x9 SLOAD PUSH2 0x1D6 SWAP1 PUSH1 0x1 PUSH1 0x1 PUSH1 0xA0 SHL SUB AND DUP2 JUMP JUMPDEST PUSH2 0x26A PUSH2 0x265 CALLDATASIZE PUSH1 0x4 PUSH2 0x189F JUMP JUMPDEST PUSH2 0x764 JUMP JUMPDEST PUSH1 0x40 MLOAD PUSH2 0x1EA SWAP10 SWAP9 SWAP8 SWAP7 SWAP6 SWAP5 SWAP4 SWAP3 SWAP2 SWAP1 PUSH2 0x1911 JUMP JUMPDEST PUSH2 0x1C1 PUSH2 0x28D CALLDATASIZE PUSH1 0x4 PUSH2 0x1987 JUMP JUMPDEST PUSH2 0x8D8 JUMP JUMPDEST PUSH2 0x1C1 PUSH2 0x2A0 CALLDATASIZE PUSH1 0x4 PUSH2 0x1987 JUMP JUMPDEST PUSH1 0x1 PUSH1 0x1 PUSH1 0xA0 SHL SUB SWAP1 SWAP2 AND PUSH1 0x0 SWAP1 DUP2 MSTORE PUSH1 0x5 PUSH1 0x20 MSTORE PUSH1 0x40 SWAP1 KECCAK256 DUP1 SLOAD SWAP2 ISZERO ISZERO PUSH5 0x100000000 MUL PUSH5 0xFF00000000 NOT SWAP1 SWAP3 AND SWAP2 SWAP1 SWAP2 OR SWAP1 SSTORE JUMP JUMPDEST PUSH2 0x1C1 PUSH2 0x2E5 CALLDATASIZE PUSH1 0x4 PUSH2 0x1987 JUMP JUMPDEST PUSH2 0x98D JUMP JUMPDEST PUSH2 0x1C1 PUSH2 0x2F8 CALLDATASIZE PUSH1 0x4 PUSH2 0x189F JUMP JUMPDEST PUSH2 0xA36 JUMP JUMPDEST PUSH2 0x31D PUSH2 0x30B CALLDATASIZE PUSH1 0x4 PUSH2 0x189F JUMP JUMPDEST PUSH1 0x1 PUSH1 0x20 MSTORE PUSH1 0x0 SWAP1 DUP2 MSTORE PUSH1 0x40 SWAP1 KECCAK256 SLOAD DUP2 JUMP JUMPDEST PUSH1 0x40 MLOAD SWAP1 DUP2 MSTORE PUSH1 0x20 ADD PUSH2 0x1EA JUMP JUMPDEST PUSH2 0x1C1 PUSH2 0x339 CALLDATASIZE PUSH1 0x4 PUSH2 0x189F JUMP JUMPDEST PUSH1 0xA DUP1 SLOAD PUSH1 0x1 PUSH1 0x1 PUSH1 0xA0 SHL SUB NOT AND PUSH1 0x1 PUSH1 0x1 PUSH1 0xA0 SHL SUB SWAP3 SWAP1 SWAP3 AND SWAP2 SWAP1 SWAP2 OR SWAP1 SSTORE JUMP JUMPDEST PUSH2 0x363 PUSH2 0xA80 JUMP JUMPDEST PUSH1 0x40 MLOAD PUSH2 0x1EA SWAP2 SWAP1 PUSH2 0x19B3 JUMP JUMPDEST PUSH2 0x383 PUSH2 0x37E CALLDATASIZE PUSH1 0x4 PUSH2 0x1A15 JUMP JUMPDEST PUSH2 0xBE9 JUMP JUMPDEST PUSH1 0x40 MLOAD PUSH2 0x1EA SWAP2 SWAP1 PUSH2 0x1ADE JUMP JUMPDEST PUSH1 0x8 SLOAD PUSH2 0x1D6 SWAP1 PUSH1 0x1 PUSH1 0x1 PUSH1 0xA0 SHL SUB AND DUP2 JUMP JUMPDEST PUSH2 0x1C1 PUSH2 0x3B1 CALLDATASIZE PUSH1 0x4 PUSH2 0x189F JUMP JUMPDEST PUSH2 0x1035 JUMP JUMPDEST PUSH2 0x363 PUSH2 0x107F JUMP JUMPDEST PUSH2 0x1C1 PUSH2 0x3CC CALLDATASIZE PUSH1 0x4 PUSH2 0x1987 JUMP JUMPDEST PUSH1 0x1 PUSH1 0x1 PUSH1 0xA0 SHL SUB SWAP1 SWAP2 AND PUSH1 0x0 SWAP1 DUP2 MSTORE PUSH1 0x5 PUSH1 0x20 MSTORE PUSH1 0x40 SWAP1 KECCAK256 DUP1 SLOAD SWAP2 ISZERO ISZERO PUSH2 0x100 MUL PUSH2 0xFF00 NOT SWAP1 SWAP3 AND SWAP2 SWAP1 SWAP2 OR SWAP1 SSTORE JUMP JUMPDEST PUSH2 0x1C1 PUSH2 0x40B CALLDATASIZE PUSH1 0x4 PUSH2 0x189F JUMP JUMPDEST PUSH1 0x8 DUP1 SLOAD PUSH1 0x1 PUSH1 0x1 PUSH1 0xA0 SHL SUB NOT AND PUSH1 0x1 PUSH1 0x1 PUSH1 0xA0 SHL SUB SWAP3 SWAP1 SWAP3 AND SWAP2 SWAP1 SWAP2 OR SWAP1 SSTORE JUMP JUMPDEST PUSH1 0xA SLOAD PUSH2 0x1D6 SWAP1 PUSH1 0x1 PUSH1 0x1 PUSH1 0xA0 SHL SUB AND DUP2 JUMP JUMPDEST PUSH2 0x234 PUSH2 0x44E CALLDATASIZE PUSH1 0x4 PUSH2 0x189F JUMP JUMPDEST PUSH1 0x1 PUSH1 0x1 PUSH1 0xA0 SHL SUB AND PUSH1 0x0 SWAP1 DUP2 MSTORE PUSH1 0x5 PUSH1 0x20 MSTORE PUSH1 0x40 SWAP1 KECCAK256 SLOAD PUSH1 0xFF AND SWAP1 JUMP JUMPDEST PUSH2 0x1C1 PUSH2 0x47A CALLDATASIZE PUSH1 0x4 PUSH2 0x1B2B JUMP JUMPDEST PUSH2 0x1158 JUMP JUMPDEST PUSH2 0x492 PUSH2 0x48D CALLDATASIZE PUSH1 0x4 PUSH2 0x1803 JUMP JUMPDEST PUSH2 0x14A4 JUMP JUMPDEST PUSH1 0x40 MLOAD PUSH2 0x1EA SWAP2 SWAP1 PUSH2 0x1BC9 JUMP JUMPDEST PUSH2 0x31D PUSH2 0x4AD CALLDATASIZE PUSH1 0x4 PUSH2 0x1BDC JUMP JUMPDEST PUSH1 0x2 PUSH1 0x20 SWAP1 DUP2 MSTORE PUSH1 0x0 SWAP3 DUP4 MSTORE PUSH1 0x40 DUP1 DUP5 KECCAK256 SWAP1 SWAP2 MSTORE SWAP1 DUP3 MSTORE SWAP1 KECCAK256 SLOAD DUP2 JUMP JUMPDEST PUSH1 0x7 SLOAD PUSH2 0x1D6 SWAP1 PUSH1 0x1 PUSH1 0x1 PUSH1 0xA0 SHL SUB AND DUP2 JUMP JUMPDEST PUSH2 0x234 PUSH2 0x4EB CALLDATASIZE PUSH1 0x4 PUSH2 0x189F JUMP JUMPDEST PUSH1 0x1 PUSH1 0x1 PUSH1 0xA0 SHL SUB AND PUSH1 0x0 SWAP1 DUP2 MSTORE PUSH1 0x5 PUSH1 0x20 MSTORE PUSH1 0x40 SWAP1 KECCAK256 SLOAD PUSH3 0x10000 SWAP1 DIV PUSH1 0xFF AND SWAP1 JUMP JUMPDEST PUSH2 0x234 PUSH2 0x51D CALLDATASIZE PUSH1 0x4 PUSH2 0x189F JUMP JUMPDEST PUSH1 0x1 PUSH1 0x1 PUSH1 0xA0 SHL SUB AND PUSH1 0x0 SWAP1 DUP2 MSTORE PUSH1 0x5 PUSH1 0x20 MSTORE PUSH1 0x40 SWAP1 KECCAK256 SLOAD PUSH2 0x100 SWAP1 DIV PUSH1 0xFF AND SWAP1 JUMP JUMPDEST CALLER PUSH1 0x0 SWAP1 DUP2 MSTORE PUSH1 0x5 PUSH1 0x20 MSTORE PUSH1 0x40 SWAP1 KECCAK256 SLOAD PUSH5 0x100000000 SWAP1 DIV PUSH1 0xFF AND PUSH2 0x5AC JUMPI PUSH1 0x40 MLOAD PUSH3 0x461BCD PUSH1 0xE5 SHL DUP2 MSTORE PUSH1 0x20 PUSH1 0x4 DUP3 ADD MSTORE PUSH1 0x1A PUSH1 0x24 DUP3 ADD MSTORE PUSH32 0x43616C6C6572206973206E6F7420612067616D652061646D696E000000000000 PUSH1 0x44 DUP3 ADD MSTORE PUSH1 0x64 ADD JUMPDEST PUSH1 0x40 MLOAD DUP1 SWAP2 SUB SWAP1 REVERT JUMPDEST DUP1 ISZERO PUSH2 0x64D JUMPI PUSH1 0x0 DUP3 PUSH1 0x40 MLOAD PUSH2 0x5C2 SWAP2 SWAP1 PUSH2 0x1C0F JUMP JUMPDEST SWAP1 DUP2 MSTORE PUSH1 0x40 MLOAD SWAP1 DUP2 SWAP1 SUB PUSH1 0x20 ADD SWAP1 KECCAK256 SLOAD PUSH1 0xFF AND PUSH2 0x649 JUMPI PUSH1 0x1 PUSH1 0x0 DUP4 PUSH1 0x40 MLOAD PUSH2 0x5EB SWAP2 SWAP1 PUSH2 0x1C0F JUMP JUMPDEST SWAP1 DUP2 MSTORE PUSH1 0x40 MLOAD SWAP1 DUP2 SWAP1 SUB PUSH1 0x20 ADD SWAP1 KECCAK256 DUP1 SLOAD SWAP2 ISZERO ISZERO PUSH1 0xFF NOT SWAP1 SWAP3 AND SWAP2 SWAP1 SWAP2 OR SWAP1 SSTORE PUSH1 0x4 DUP1 SLOAD PUSH1 0x1 DUP2 ADD DUP3 SSTORE PUSH1 0x0 SWAP2 SWAP1 SWAP2 MSTORE PUSH32 0x8A35ACFBC15FF81A39AE7D344FD709F28E8600B4AA8C65C6B64BFE7FE36BD19B ADD PUSH2 0x647 DUP4 DUP3 PUSH2 0x1CAD JUMP JUMPDEST POP JUMPDEST POP POP JUMP JUMPDEST PUSH1 0x0 DUP3 PUSH1 0x40 MLOAD PUSH2 0x65D SWAP2 SWAP1 PUSH2 0x1C0F JUMP JUMPDEST SWAP1 DUP2 MSTORE PUSH1 0x40 MLOAD SWAP1 DUP2 SWAP1 SUB PUSH1 0x20 ADD SWAP1 KECCAK256 SLOAD PUSH1 0xFF AND ISZERO PUSH2 0x649 JUMPI PUSH1 0x0 DUP1 DUP4 PUSH1 0x40 MLOAD PUSH2 0x686 SWAP2 SWAP1 PUSH2 0x1C0F JUMP JUMPDEST SWAP1 DUP2 MSTORE PUSH1 0x40 MLOAD SWAP1 DUP2 SWAP1 SUB PUSH1 0x20 ADD SWAP1 KECCAK256 DUP1 SLOAD SWAP2 ISZERO ISZERO PUSH1 0xFF NOT SWAP1 SWAP3 AND SWAP2 SWAP1 SWAP2 OR SWAP1 SSTORE PUSH2 0x649 DUP3 PUSH2 0x1550 JUMP JUMPDEST PUSH1 0x6 DUP2 DUP2 SLOAD DUP2 LT PUSH2 0x6BF JUMPI PUSH1 0x0 DUP1 REVERT JUMPDEST PUSH1 0x0 SWAP2 DUP3 MSTORE PUSH1 0x20 SWAP1 SWAP2 KECCAK256 ADD SLOAD PUSH1 0x1 PUSH1 0x1 PUSH1 0xA0 SHL SUB AND SWAP1 POP DUP2 JUMP JUMPDEST PUSH1 0xA SLOAD PUSH1 0x1 PUSH1 0x1 PUSH1 0xA0 SHL SUB AND CALLER EQ PUSH2 0x745 JUMPI PUSH1 0x40 MLOAD PUSH3 0x461BCD PUSH1 0xE5 SHL DUP2 MSTORE PUSH1 0x20 PUSH1 0x4 DUP3 ADD MSTORE PUSH1 0x29 PUSH1 0x24 DUP3 ADD MSTORE PUSH32 0x4F6E6C792074686520666F72756D20636F6E74726163742063616E2073657420 PUSH1 0x44 DUP3 ADD MSTORE PUSH9 0x666F72756D206B6579 PUSH1 0xB8 SHL PUSH1 0x64 DUP3 ADD MSTORE PUSH1 0x84 ADD PUSH2 0x5A3 JUMP JUMPDEST PUSH1 0x1 PUSH1 0x1 PUSH1 0xA0 SHL SUB SWAP1 SWAP2 AND PUSH1 0x0 SWAP1 DUP2 MSTORE PUSH1 0x5 PUSH1 0x20 MSTORE PUSH1 0x40 SWAP1 KECCAK256 PUSH1 0x2 ADD SSTORE JUMP JUMPDEST PUSH1 0x5 PUSH1 0x20 MSTORE PUSH1 0x0 SWAP1 DUP2 MSTORE PUSH1 0x40 SWAP1 KECCAK256 DUP1 SLOAD PUSH1 0x1 DUP3 ADD DUP1 SLOAD PUSH1 0xFF DUP1 DUP5 AND SWAP5 PUSH2 0x100 DUP6 DIV DUP3 AND SWAP5 PUSH3 0x10000 DUP2 DIV DUP4 AND SWAP5 PUSH4 0x1000000 DUP3 DIV DUP5 AND SWAP5 PUSH5 0x100000000 SWAP1 SWAP3 DIV SWAP1 SWAP4 AND SWAP3 SWAP1 PUSH2 0x7B2 SWAP1 PUSH2 0x1C2B JUMP JUMPDEST DUP1 PUSH1 0x1F ADD PUSH1 0x20 DUP1 SWAP2 DIV MUL PUSH1 0x20 ADD PUSH1 0x40 MLOAD SWAP1 DUP2 ADD PUSH1 0x40 MSTORE DUP1 SWAP3 SWAP2 SWAP1 DUP2 DUP2 MSTORE PUSH1 0x20 ADD DUP3 DUP1 SLOAD PUSH2 0x7DE SWAP1 PUSH2 0x1C2B JUMP JUMPDEST DUP1 ISZERO PUSH2 0x82B JUMPI DUP1 PUSH1 0x1F LT PUSH2 0x800 JUMPI PUSH2 0x100 DUP1 DUP4 SLOAD DIV MUL DUP4 MSTORE SWAP2 PUSH1 0x20 ADD SWAP2 PUSH2 0x82B JUMP JUMPDEST DUP3 ADD SWAP2 SWAP1 PUSH1 0x0 MSTORE PUSH1 0x20 PUSH1 0x0 KECCAK256 SWAP1 JUMPDEST DUP2 SLOAD DUP2 MSTORE SWAP1 PUSH1 0x1 ADD SWAP1 PUSH1 0x20 ADD DUP1 DUP4 GT PUSH2 0x80E JUMPI DUP3 SWAP1 SUB PUSH1 0x1F AND DUP3 ADD SWAP2 JUMPDEST POP POP POP POP POP SWAP1 DUP1 PUSH1 0x2 ADD SLOAD SWAP1 DUP1 PUSH1 0x3 ADD DUP1 SLOAD PUSH2 0x846 SWAP1 PUSH2 0x1C2B JUMP JUMPDEST DUP1 PUSH1 0x1F ADD PUSH1 0x20 DUP1 SWAP2 DIV MUL PUSH1 0x20 ADD PUSH1 0x40 MLOAD SWAP1 DUP2 ADD PUSH1 0x40 MSTORE DUP1 SWAP3 SWAP2 SWAP1 DUP2 DUP2 MSTORE PUSH1 0x20 ADD DUP3 DUP1 SLOAD PUSH2 0x872 SWAP1 PUSH2 0x1C2B JUMP JUMPDEST DUP1 ISZERO PUSH2 0x8BF JUMPI DUP1 PUSH1 0x1F LT PUSH2 0x894 JUMPI PUSH2 0x100 DUP1 DUP4 SLOAD DIV MUL DUP4 MSTORE SWAP2 PUSH1 0x20 ADD SWAP2 PUSH2 0x8BF JUMP JUMPDEST DUP3 ADD SWAP2 SWAP1 PUSH1 0x0 MSTORE PUSH1 0x20 PUSH1 0x0 KECCAK256 SWAP1 JUMPDEST DUP2 SLOAD DUP2 MSTORE SWAP1 PUSH1 0x1 ADD SWAP1 PUSH1 0x20 ADD DUP1 DUP4 GT PUSH2 0x8A2 JUMPI DUP3 SWAP1 SUB PUSH1 0x1F AND DUP3 ADD SWAP2 JUMPDEST POP POP POP PUSH1 0x4 SWAP1 SWAP4 ADD SLOAD SWAP2 SWAP3 POP POP PUSH1 0x1 PUSH1 0x1 PUSH1 0xA0 SHL SUB AND DUP10 JUMP JUMPDEST PUSH1 0xA SLOAD PUSH1 0x1 PUSH1 0x1 PUSH1 0xA0 SHL SUB AND CALLER EQ PUSH2 0x958 JUMPI PUSH1 0x40 MLOAD PUSH3 0x461BCD PUSH1 0xE5 SHL DUP2 MSTORE PUSH1 0x20 PUSH1 0x4 DUP3 ADD MSTORE PUSH1 0x3E PUSH1 0x24 DUP3 ADD MSTORE PUSH32 0x4F6E6C792074686520666F72756D20636F6E74726163742063616E206D6F6469 PUSH1 0x44 DUP3 ADD MSTORE PUSH32 0x667920746F75726E616D656E74206D6F64657261746F72207374617475730000 PUSH1 0x64 DUP3 ADD MSTORE PUSH1 0x84 ADD PUSH2 0x5A3 JUMP JUMPDEST PUSH1 0x1 PUSH1 0x1 PUSH1 0xA0 SHL SUB SWAP1 SWAP2 AND PUSH1 0x0 SWAP1 DUP2 MSTORE PUSH1 0x5 PUSH1 0x20 MSTORE PUSH1 0x40 SWAP1 KECCAK256 DUP1 SLOAD SWAP2 ISZERO ISZERO PUSH4 0x1000000 MUL PUSH4 0xFF000000 NOT SWAP1 SWAP3 AND SWAP2 SWAP1 SWAP2 OR SWAP1 SSTORE JUMP JUMPDEST PUSH1 0xA SLOAD PUSH1 0x1 PUSH1 0x1 PUSH1 0xA0 SHL SUB AND CALLER EQ PUSH2 0xA03 JUMPI PUSH1 0x40 MLOAD PUSH3 0x461BCD PUSH1 0xE5 SHL DUP2 MSTORE PUSH1 0x20 PUSH1 0x4 DUP3 ADD MSTORE PUSH1 0x33 PUSH1 0x24 DUP3 ADD MSTORE PUSH32 0x4F6E6C792074686520666F72756D20636F6E74726163742063616E206D6F6469 PUSH1 0x44 DUP3 ADD MSTORE PUSH19 0x6679206D6F64657261746F7220737461747573 PUSH1 0x68 SHL PUSH1 0x64 DUP3 ADD MSTORE PUSH1 0x84 ADD PUSH2 0x5A3 JUMP JUMPDEST PUSH1 0x1 PUSH1 0x1 PUSH1 0xA0 SHL SUB SWAP1 SWAP2 AND PUSH1 0x0 SWAP1 DUP2 MSTORE PUSH1 0x5 PUSH1 0x20 MSTORE PUSH1 0x40 SWAP1 KECCAK256 DUP1 SLOAD SWAP2 ISZERO ISZERO PUSH3 0x10000 MUL PUSH3 0xFF0000 NOT SWAP1 SWAP3 AND SWAP2 SWAP1 SWAP2 OR SWAP1 SSTORE JUMP JUMPDEST PUSH1 0x9 DUP1 SLOAD PUSH1 0x1 PUSH1 0x1 PUSH1 0xA0 SHL SUB NOT AND PUSH1 0x1 PUSH1 0x1 PUSH1 0xA0 SHL SUB DUP4 AND SWAP1 DUP2 OR SWAP1 SWAP2 SSTORE PUSH1 0x40 MLOAD PUSH32 0x5959E7554218ADBE3EDB157F744A698C903698E2BE92D199D2938AFB8B0312AB SWAP1 PUSH1 0x0 SWAP1 LOG2 POP JUMP JUMPDEST PUSH1 0x6 SLOAD PUSH1 0x60 SWAP1 PUSH1 0x0 SWAP1 PUSH8 0xFFFFFFFFFFFFFFFF DUP2 GT ISZERO PUSH2 0xAA1 JUMPI PUSH2 0xAA1 PUSH2 0x16EC JUMP JUMPDEST PUSH1 0x40 MLOAD SWAP1 DUP1 DUP3 MSTORE DUP1 PUSH1 0x20 MUL PUSH1 0x20 ADD DUP3 ADD PUSH1 0x40 MSTORE DUP1 ISZERO PUSH2 0xAD4 JUMPI DUP2 PUSH1 0x20 ADD JUMPDEST PUSH1 0x60 DUP2 MSTORE PUSH1 0x20 ADD SWAP1 PUSH1 0x1 SWAP1 SUB SWAP1 DUP2 PUSH2 0xABF JUMPI SWAP1 POP JUMPDEST POP SWAP1 POP PUSH1 0x0 JUMPDEST PUSH1 0x6 SLOAD DUP2 LT ISZERO PUSH2 0xBE3 JUMPI PUSH1 0x0 PUSH1 0x5 PUSH1 0x0 PUSH1 0x6 DUP5 DUP2 SLOAD DUP2 LT PUSH2 0xAFD JUMPI PUSH2 0xAFD PUSH2 0x1D6D JUMP JUMPDEST PUSH1 0x0 SWAP2 DUP3 MSTORE PUSH1 0x20 DUP1 DUP4 KECCAK256 SWAP1 SWAP2 ADD SLOAD PUSH1 0x1 PUSH1 0x1 PUSH1 0xA0 SHL SUB AND DUP4 MSTORE DUP3 ADD SWAP3 SWAP1 SWAP3 MSTORE PUSH1 0x40 ADD SWAP1 KECCAK256 PUSH1 0x1 DUP2 ADD DUP1 SLOAD SWAP2 SWAP3 POP SWAP1 PUSH2 0xB34 SWAP1 PUSH2 0x1C2B JUMP JUMPDEST DUP1 PUSH1 0x1F ADD PUSH1 0x20 DUP1 SWAP2 DIV MUL PUSH1 0x20 ADD PUSH1 0x40 MLOAD SWAP1 DUP2 ADD PUSH1 0x40 MSTORE DUP1 SWAP3 SWAP2 SWAP1 DUP2 DUP2 MSTORE PUSH1 0x20 ADD DUP3 DUP1 SLOAD PUSH2 0xB60 SWAP1 PUSH2 0x1C2B JUMP JUMPDEST DUP1 ISZERO PUSH2 0xBAD JUMPI DUP1 PUSH1 0x1F LT PUSH2 0xB82 JUMPI PUSH2 0x100 DUP1 DUP4 SLOAD DIV MUL DUP4 MSTORE SWAP2 PUSH1 0x20 ADD SWAP2 PUSH2 0xBAD JUMP JUMPDEST DUP3 ADD SWAP2 SWAP1 PUSH1 0x0 MSTORE PUSH1 0x20 PUSH1 0x0 KECCAK256 SWAP1 JUMPDEST DUP2 SLOAD DUP2 MSTORE SWAP1 PUSH1 0x1 ADD SWAP1 PUSH1 0x20 ADD DUP1 DUP4 GT PUSH2 0xB90 JUMPI DUP3 SWAP1 SUB PUSH1 0x1F AND DUP3 ADD SWAP2 JUMPDEST POP POP POP POP POP DUP4 DUP4 DUP2 MLOAD DUP2 LT PUSH2 0xBC4 JUMPI PUSH2 0xBC4 PUSH2 0x1D6D JUMP JUMPDEST PUSH1 0x20 MUL PUSH1 0x20 ADD ADD DUP2 SWAP1 MSTORE POP POP DUP1 DUP1 PUSH2 0xBDB SWAP1 PUSH2 0x1D99 JUMP JUMPDEST SWAP2 POP POP PUSH2 0xADA JUMP JUMPDEST POP SWAP2 SWAP1 POP JUMP JUMPDEST PUSH1 0x60 PUSH1 0x0 DUP4 MLOAD PUSH8 0xFFFFFFFFFFFFFFFF DUP2 GT ISZERO PUSH2 0xC07 JUMPI PUSH2 0xC07 PUSH2 0x16EC JUMP JUMPDEST PUSH1 0x40 MLOAD SWAP1 DUP1 DUP3 MSTORE DUP1 PUSH1 0x20 MUL PUSH1 0x20 ADD DUP3 ADD PUSH1 0x40 MSTORE DUP1 ISZERO PUSH2 0xC30 JUMPI DUP2 PUSH1 0x20 ADD PUSH1 0x20 DUP3 MUL DUP1 CALLDATASIZE DUP4 CALLDATACOPY ADD SWAP1 POP JUMPDEST POP SWAP1 POP PUSH1 0x0 JUMPDEST DUP5 MLOAD DUP2 LT ISZERO PUSH2 0x102B JUMPI PUSH1 0x0 JUMPDEST PUSH1 0x6 SLOAD DUP2 LT ISZERO PUSH2 0x1018 JUMPI DUP6 DUP3 DUP2 MLOAD DUP2 LT PUSH2 0xC5E JUMPI PUSH2 0xC5E PUSH2 0x1D6D JUMP JUMPDEST PUSH1 0x20 MUL PUSH1 0x20 ADD ADD MLOAD PUSH1 0x40 MLOAD PUSH1 0x20 ADD PUSH2 0xC76 SWAP2 SWAP1 PUSH2 0x1C0F JUMP JUMPDEST PUSH1 0x40 MLOAD PUSH1 0x20 DUP2 DUP4 SUB SUB DUP2 MSTORE SWAP1 PUSH1 0x40 MSTORE DUP1 MLOAD SWAP1 PUSH1 0x20 ADD KECCAK256 PUSH1 0x5 PUSH1 0x0 PUSH1 0x6 DUP5 DUP2 SLOAD DUP2 LT PUSH2 0xCA3 JUMPI PUSH2 0xCA3 PUSH2 0x1D6D JUMP JUMPDEST PUSH1 0x0 SWAP2 DUP3 MSTORE PUSH1 0x20 DUP1 DUP4 KECCAK256 SWAP1 SWAP2 ADD SLOAD PUSH1 0x1 PUSH1 0x1 PUSH1 0xA0 SHL SUB AND DUP4 MSTORE DUP3 DUP2 ADD SWAP4 SWAP1 SWAP4 MSTORE PUSH1 0x40 SWAP2 DUP3 ADD SWAP1 KECCAK256 SWAP1 MLOAD PUSH2 0xCDD SWAP3 PUSH1 0x1 SWAP3 SWAP1 SWAP3 ADD SWAP2 ADD PUSH2 0x1DB2 JUMP JUMPDEST PUSH1 0x40 MLOAD PUSH1 0x20 DUP2 DUP4 SUB SUB DUP2 MSTORE SWAP1 PUSH1 0x40 MSTORE DUP1 MLOAD SWAP1 PUSH1 0x20 ADD KECCAK256 SUB PUSH2 0x1006 JUMPI PUSH1 0x8 SLOAD PUSH1 0x6 DUP1 SLOAD PUSH1 0x0 SWAP3 PUSH1 0x1 PUSH1 0x1 PUSH1 0xA0 SHL SUB AND SWAP2 PUSH4 0x5A725B07 SWAP2 PUSH1 0x3 SWAP2 SWAP1 DUP7 SWAP1 DUP2 LT PUSH2 0xD26 JUMPI PUSH2 0xD26 PUSH2 0x1D6D JUMP JUMPDEST PUSH1 0x0 SWAP2 DUP3 MSTORE PUSH1 0x20 SWAP1 SWAP2 KECCAK256 ADD SLOAD PUSH1 0x40 MLOAD PUSH1 0x1 PUSH1 0x1 PUSH1 0xE0 SHL SUB NOT PUSH1 0xE0 DUP6 SWAP1 SHL AND DUP2 MSTORE PUSH2 0xD5D SWAP3 SWAP2 PUSH1 0x1 PUSH1 0x1 PUSH1 0xA0 SHL SUB AND SWAP1 PUSH1 0x4 ADD PUSH2 0x1EA5 JUMP JUMPDEST PUSH1 0x20 PUSH1 0x40 MLOAD DUP1 DUP4 SUB DUP2 DUP7 GAS STATICCALL ISZERO DUP1 ISZERO PUSH2 0xD7A JUMPI RETURNDATASIZE PUSH1 0x0 DUP1 RETURNDATACOPY RETURNDATASIZE PUSH1 0x0 REVERT JUMPDEST POP POP POP POP PUSH1 0x40 MLOAD RETURNDATASIZE PUSH1 0x1F NOT PUSH1 0x1F DUP3 ADD AND DUP3 ADD DUP1 PUSH1 0x40 MSTORE POP DUP2 ADD SWAP1 PUSH2 0xD9E SWAP2 SWAP1 PUSH2 0x1ECF JUMP JUMPDEST SWAP1 POP DUP1 PUSH1 0xFF AND PUSH1 0x2 SUB PUSH2 0xF5F JUMPI PUSH1 0x5 PUSH1 0x0 PUSH1 0x6 DUP5 DUP2 SLOAD DUP2 LT PUSH2 0xDC2 JUMPI PUSH2 0xDC2 PUSH2 0x1D6D JUMP JUMPDEST PUSH1 0x0 SWAP2 DUP3 MSTORE PUSH1 0x20 DUP1 DUP4 KECCAK256 SWAP1 SWAP2 ADD SLOAD PUSH1 0x1 PUSH1 0x1 PUSH1 0xA0 SHL SUB SWAP1 DUP2 AND DUP5 MSTORE SWAP1 DUP4 ADD SWAP4 SWAP1 SWAP4 MSTORE PUSH1 0x40 SWAP1 SWAP2 ADD SWAP1 KECCAK256 PUSH1 0x4 ADD SLOAD DUP6 MLOAD SWAP2 AND SWAP1 DUP6 SWAP1 DUP6 SWAP1 DUP2 LT PUSH2 0xE06 JUMPI PUSH2 0xE06 PUSH2 0x1D6D JUMP JUMPDEST PUSH1 0x1 PUSH1 0x1 PUSH1 0xA0 SHL SUB SWAP1 SWAP3 AND PUSH1 0x20 SWAP3 DUP4 MUL SWAP2 SWAP1 SWAP2 ADD SWAP1 SWAP2 ADD MSTORE PUSH1 0x0 PUSH2 0xE2B PUSH1 0x3C DUP9 PUSH2 0x1EF2 JUMP JUMPDEST PUSH1 0x8 SLOAD PUSH1 0x6 DUP1 SLOAD SWAP3 SWAP4 POP PUSH1 0x1 PUSH1 0x1 PUSH1 0xA0 SHL SUB SWAP1 SWAP2 AND SWAP2 PUSH4 0xD47B2E99 SWAP2 SWAP1 DUP7 SWAP1 DUP2 LT PUSH2 0xE58 JUMPI PUSH2 0xE58 PUSH2 0x1D6D JUMP JUMPDEST PUSH1 0x0 SWAP2 DUP3 MSTORE PUSH1 0x20 SWAP1 SWAP2 KECCAK256 ADD SLOAD PUSH1 0x40 MLOAD PUSH1 0xE0 DUP4 SWAP1 SHL PUSH1 0x1 PUSH1 0x1 PUSH1 0xE0 SHL SUB NOT AND DUP2 MSTORE PUSH1 0x1 PUSH1 0x1 PUSH1 0xA0 SHL SUB SWAP1 SWAP2 AND PUSH1 0x4 DUP3 ADD MSTORE PUSH1 0x24 DUP2 ADD DUP5 SWAP1 MSTORE PUSH1 0x44 ADD PUSH1 0x0 PUSH1 0x40 MLOAD DUP1 DUP4 SUB DUP2 PUSH1 0x0 DUP8 DUP1 EXTCODESIZE ISZERO DUP1 ISZERO PUSH2 0xEAC JUMPI PUSH1 0x0 DUP1 REVERT JUMPDEST POP GAS CALL ISZERO DUP1 ISZERO PUSH2 0xEC0 JUMPI RETURNDATASIZE PUSH1 0x0 DUP1 RETURNDATACOPY RETURNDATASIZE PUSH1 0x0 REVERT JUMPDEST POP POP PUSH1 0x8 SLOAD PUSH1 0x6 DUP1 SLOAD PUSH1 0x1 PUSH1 0x1 PUSH1 0xA0 SHL SUB SWAP1 SWAP3 AND SWAP4 POP PUSH4 0x2EB4B54F SWAP3 POP SWAP1 DUP7 SWAP1 DUP2 LT PUSH2 0xEEE JUMPI PUSH2 0xEEE PUSH2 0x1D6D JUMP JUMPDEST PUSH1 0x0 SWAP2 DUP3 MSTORE PUSH1 0x20 SWAP1 SWAP2 KECCAK256 ADD SLOAD PUSH1 0x40 MLOAD PUSH1 0x1 PUSH1 0x1 PUSH1 0xE0 SHL SUB NOT PUSH1 0xE0 DUP5 SWAP1 SHL AND DUP2 MSTORE PUSH2 0xF27 SWAP2 PUSH1 0x1 PUSH1 0x1 PUSH1 0xA0 SHL SUB AND SWAP1 PUSH1 0x3 SWAP1 PUSH1 0x4 ADD PUSH2 0x1F14 JUMP JUMPDEST PUSH1 0x0 PUSH1 0x40 MLOAD DUP1 DUP4 SUB DUP2 PUSH1 0x0 DUP8 DUP1 EXTCODESIZE ISZERO DUP1 ISZERO PUSH2 0xF41 JUMPI PUSH1 0x0 DUP1 REVERT JUMPDEST POP GAS CALL ISZERO DUP1 ISZERO PUSH2 0xF55 JUMPI RETURNDATASIZE PUSH1 0x0 DUP1 RETURNDATACOPY RETURNDATASIZE PUSH1 0x0 REVERT JUMPDEST POP POP POP POP POP PUSH2 0x1000 JUMP JUMPDEST DUP1 PUSH1 0xFF AND PUSH1 0x0 SUB PUSH2 0x1000 JUMPI PUSH1 0x8 SLOAD PUSH1 0x6 DUP1 SLOAD PUSH1 0x1 PUSH1 0x1 PUSH1 0xA0 SHL SUB SWAP1 SWAP3 AND SWAP2 PUSH4 0x2EB4B54F SWAP2 SWAP1 DUP6 SWAP1 DUP2 LT PUSH2 0xF94 JUMPI PUSH2 0xF94 PUSH2 0x1D6D JUMP JUMPDEST PUSH1 0x0 SWAP2 DUP3 MSTORE PUSH1 0x20 SWAP1 SWAP2 KECCAK256 ADD SLOAD PUSH1 0x40 MLOAD PUSH1 0x1 PUSH1 0x1 PUSH1 0xE0 SHL SUB NOT PUSH1 0xE0 DUP5 SWAP1 SHL AND DUP2 MSTORE PUSH2 0xFCD SWAP2 PUSH1 0x1 PUSH1 0x1 PUSH1 0xA0 SHL SUB AND SWAP1 PUSH1 0x3 SWAP1 PUSH1 0x4 ADD PUSH2 0x1F14 JUMP JUMPDEST PUSH1 0x0 PUSH1 0x40 MLOAD DUP1 DUP4 SUB DUP2 PUSH1 0x0 DUP8 DUP1 EXTCODESIZE ISZERO DUP1 ISZERO PUSH2 0xFE7 JUMPI PUSH1 0x0 DUP1 REVERT JUMPDEST POP GAS CALL ISZERO DUP1 ISZERO PUSH2 0xFFB JUMPI RETURNDATASIZE PUSH1 0x0 DUP1 RETURNDATACOPY RETURNDATASIZE PUSH1 0x0 REVERT JUMPDEST POP POP POP POP JUMPDEST POP PUSH2 0x1018 JUMP JUMPDEST DUP1 PUSH2 0x1010 DUP2 PUSH2 0x1D99 JUMP JUMPDEST SWAP2 POP POP PUSH2 0xC42 JUMP JUMPDEST POP DUP1 PUSH2 0x1023 DUP2 PUSH2 0x1D99 JUMP JUMPDEST SWAP2 POP POP PUSH2 0xC36 JUMP JUMPDEST POP SWAP1 POP JUMPDEST SWAP3 SWAP2 POP POP JUMP JUMPDEST PUSH1 0x7 DUP1 SLOAD PUSH1 0x1 PUSH1 0x1 PUSH1 0xA0 SHL SUB NOT AND PUSH1 0x1 PUSH1 0x1 PUSH1 0xA0 SHL SUB DUP4 AND SWAP1 DUP2 OR SWAP1 SWAP2 SSTORE PUSH1 0x40 MLOAD PUSH32 0x6F1895F9314E8B91A7A1C3A67319510D05C9D6729515F83CC2EACA70D3E81F87 SWAP1 PUSH1 0x0 SWAP1 LOG2 POP JUMP JUMPDEST PUSH1 0x60 PUSH1 0x4 DUP1 SLOAD DUP1 PUSH1 0x20 MUL PUSH1 0x20 ADD PUSH1 0x40 MLOAD SWAP1 DUP2 ADD PUSH1 0x40 MSTORE DUP1 SWAP3 SWAP2 SWAP1 DUP2 DUP2 MSTORE PUSH1 0x20 ADD PUSH1 0x0 SWAP1 JUMPDEST DUP3 DUP3 LT ISZERO PUSH2 0x114F JUMPI DUP4 DUP3 SWAP1 PUSH1 0x0 MSTORE PUSH1 0x20 PUSH1 0x0 KECCAK256 ADD DUP1 SLOAD PUSH2 0x10C2 SWAP1 PUSH2 0x1C2B JUMP JUMPDEST DUP1 PUSH1 0x1F ADD PUSH1 0x20 DUP1 SWAP2 DIV MUL PUSH1 0x20 ADD PUSH1 0x40 MLOAD SWAP1 DUP2 ADD PUSH1 0x40 MSTORE DUP1 SWAP3 SWAP2 SWAP1 DUP2 DUP2 MSTORE PUSH1 0x20 ADD DUP3 DUP1 SLOAD PUSH2 0x10EE SWAP1 PUSH2 0x1C2B JUMP JUMPDEST DUP1 ISZERO PUSH2 0x113B JUMPI DUP1 PUSH1 0x1F LT PUSH2 0x1110 JUMPI PUSH2 0x100 DUP1 DUP4 SLOAD DIV MUL DUP4 MSTORE SWAP2 PUSH1 0x20 ADD SWAP2 PUSH2 0x113B JUMP JUMPDEST DUP3 ADD SWAP2 SWAP1 PUSH1 0x0 MSTORE PUSH1 0x20 PUSH1 0x0 KECCAK256 SWAP1 JUMPDEST DUP2 SLOAD DUP2 MSTORE SWAP1 PUSH1 0x1 ADD SWAP1 PUSH1 0x20 ADD DUP1 DUP4 GT PUSH2 0x111E JUMPI DUP3 SWAP1 SUB PUSH1 0x1F AND DUP3 ADD SWAP2 JUMPDEST POP POP POP POP POP DUP2 MSTORE PUSH1 0x20 ADD SWAP1 PUSH1 0x1 ADD SWAP1 PUSH2 0x10A3 JUMP JUMPDEST POP POP POP POP SWAP1 POP SWAP1 JUMP JUMPDEST PUSH1 0x9 SLOAD PUSH1 0x1 PUSH1 0x1 PUSH1 0xA0 SHL SUB AND CALLER EQ PUSH2 0x11CA JUMPI PUSH1 0x40 MLOAD PUSH3 0x461BCD PUSH1 0xE5 SHL DUP2 MSTORE PUSH1 0x20 PUSH1 0x4 DUP3 ADD MSTORE PUSH1 0x2F PUSH1 0x24 DUP3 ADD MSTORE PUSH32 0x4F6E6C7920746865206F6E72616D7020636F6E74726163742063616E20616464 PUSH1 0x44 DUP3 ADD MSTORE PUSH15 0x2F75706461746520706C6179657273 PUSH1 0x88 SHL PUSH1 0x64 DUP3 ADD MSTORE PUSH1 0x84 ADD PUSH2 0x5A3 JUMP JUMPDEST PUSH1 0x8 SLOAD PUSH1 0x40 MLOAD PUSH4 0x3AF32ABF PUSH1 0xE0 SHL DUP2 MSTORE PUSH1 0x1 PUSH1 0x1 PUSH1 0xA0 SHL SUB DUP8 DUP2 AND PUSH1 0x4 DUP4 ADD MSTORE SWAP1 SWAP2 AND SWAP1 PUSH4 0x3AF32ABF SWAP1 PUSH1 0x24 ADD PUSH1 0x20 PUSH1 0x40 MLOAD DUP1 DUP4 SUB DUP2 DUP7 GAS STATICCALL ISZERO DUP1 ISZERO PUSH2 0x1214 JUMPI RETURNDATASIZE PUSH1 0x0 DUP1 RETURNDATACOPY RETURNDATASIZE PUSH1 0x0 REVERT JUMPDEST POP POP POP POP PUSH1 0x40 MLOAD RETURNDATASIZE PUSH1 0x1F NOT PUSH1 0x1F DUP3 ADD AND DUP3 ADD DUP1 PUSH1 0x40 MSTORE POP DUP2 ADD SWAP1 PUSH2 0x1238 SWAP2 SWAP1 PUSH2 0x1F38 JUMP JUMPDEST PUSH2 0x128E JUMPI PUSH1 0x40 MLOAD PUSH3 0x461BCD PUSH1 0xE5 SHL DUP2 MSTORE PUSH1 0x20 PUSH1 0x4 DUP3 ADD MSTORE PUSH1 0x21 PUSH1 0x24 DUP3 ADD MSTORE PUSH32 0x41646472657373206E6F742077686974656C697374656420696E20416E6F6E49 PUSH1 0x44 DUP3 ADD MSTORE PUSH1 0x11 PUSH1 0xFA SHL PUSH1 0x64 DUP3 ADD MSTORE PUSH1 0x84 ADD PUSH2 0x5A3 JUMP JUMPDEST PUSH1 0x0 PUSH1 0x5 PUSH1 0x0 DUP8 PUSH1 0x1 PUSH1 0x1 PUSH1 0xA0 SHL SUB AND PUSH1 0x1 PUSH1 0x1 PUSH1 0xA0 SHL SUB AND DUP2 MSTORE PUSH1 0x20 ADD SWAP1 DUP2 MSTORE PUSH1 0x20 ADD PUSH1 0x0 KECCAK256 SWAP1 POP PUSH1 0x0 DUP2 PUSH1 0x0 ADD PUSH1 0x0 SWAP1 SLOAD SWAP1 PUSH2 0x100 EXP SWAP1 DIV PUSH1 0xFF AND SWAP1 POP PUSH1 0x40 MLOAD DUP1 PUSH2 0x120 ADD PUSH1 0x40 MSTORE DUP1 DUP6 ISZERO ISZERO DUP2 MSTORE PUSH1 0x20 ADD DUP7 ISZERO ISZERO DUP2 MSTORE PUSH1 0x20 ADD PUSH1 0x0 ISZERO ISZERO DUP2 MSTORE PUSH1 0x20 ADD PUSH1 0x0 ISZERO ISZERO DUP2 MSTORE PUSH1 0x20 ADD PUSH1 0x0 ISZERO ISZERO DUP2 MSTORE PUSH1 0x20 ADD DUP5 DUP2 MSTORE PUSH1 0x20 ADD PUSH1 0x0 DUP1 SHL DUP2 MSTORE PUSH1 0x20 ADD DUP8 DUP2 MSTORE PUSH1 0x20 ADD DUP9 PUSH1 0x1 PUSH1 0x1 PUSH1 0xA0 SHL SUB AND DUP2 MSTORE POP PUSH1 0x5 PUSH1 0x0 DUP10 PUSH1 0x1 PUSH1 0x1 PUSH1 0xA0 SHL SUB AND PUSH1 0x1 PUSH1 0x1 PUSH1 0xA0 SHL SUB AND DUP2 MSTORE PUSH1 0x20 ADD SWAP1 DUP2 MSTORE PUSH1 0x20 ADD PUSH1 0x0 KECCAK256 PUSH1 0x0 DUP3 ADD MLOAD DUP2 PUSH1 0x0 ADD PUSH1 0x0 PUSH2 0x100 EXP DUP2 SLOAD DUP2 PUSH1 0xFF MUL NOT AND SWAP1 DUP4 ISZERO ISZERO MUL OR SWAP1 SSTORE POP PUSH1 0x20 DUP3 ADD MLOAD DUP2 PUSH1 0x0 ADD PUSH1 0x1 PUSH2 0x100 EXP DUP2 SLOAD DUP2 PUSH1 0xFF MUL NOT AND SWAP1 DUP4 ISZERO ISZERO MUL OR SWAP1 SSTORE POP PUSH1 0x40 DUP3 ADD MLOAD DUP2 PUSH1 0x0 ADD PUSH1 0x2 PUSH2 0x100 EXP DUP2 SLOAD DUP2 PUSH1 0xFF MUL NOT AND SWAP1 DUP4 ISZERO ISZERO MUL OR SWAP1 SSTORE POP PUSH1 0x60 DUP3 ADD MLOAD DUP2 PUSH1 0x0 ADD PUSH1 0x3 PUSH2 0x100 EXP DUP2 SLOAD DUP2 PUSH1 0xFF MUL NOT AND SWAP1 DUP4 ISZERO ISZERO MUL OR SWAP1 SSTORE POP PUSH1 0x80 DUP3 ADD MLOAD DUP2 PUSH1 0x0 ADD PUSH1 0x4 PUSH2 0x100 EXP DUP2 SLOAD DUP2 PUSH1 0xFF MUL NOT AND SWAP1 DUP4 ISZERO ISZERO MUL OR SWAP1 SSTORE POP PUSH1 0xA0 DUP3 ADD MLOAD DUP2 PUSH1 0x1 ADD SWAP1 DUP2 PUSH2 0x1400 SWAP2 SWAP1 PUSH2 0x1CAD JUMP JUMPDEST POP PUSH1 0xC0 DUP3 ADD MLOAD PUSH1 0x2 DUP3 ADD SSTORE PUSH1 0xE0 DUP3 ADD MLOAD PUSH1 0x3 DUP3 ADD SWAP1 PUSH2 0x141F SWAP1 DUP3 PUSH2 0x1CAD JUMP JUMPDEST POP PUSH2 0x100 SWAP2 SWAP1 SWAP2 ADD MLOAD PUSH1 0x4 SWAP1 SWAP2 ADD DUP1 SLOAD PUSH1 0x1 PUSH1 0x1 PUSH1 0xA0 SHL SUB NOT AND PUSH1 0x1 PUSH1 0x1 PUSH1 0xA0 SHL SUB SWAP1 SWAP3 AND SWAP2 SWAP1 SWAP2 OR SWAP1 SSTORE DUP1 PUSH2 0x149B JUMPI PUSH1 0x6 DUP1 SLOAD PUSH1 0x1 DUP2 ADD DUP3 SSTORE PUSH1 0x0 SWAP2 SWAP1 SWAP2 MSTORE PUSH32 0xF652222313E28459528D920B65115C16C04F3EFC82AAEDC97BE59F3F377C0D3F ADD DUP1 SLOAD PUSH1 0x1 PUSH1 0x1 PUSH1 0xA0 SHL SUB NOT AND PUSH1 0x1 PUSH1 0x1 PUSH1 0xA0 SHL SUB DUP10 AND OR SWAP1 SSTORE JUMPDEST POP POP POP POP POP POP POP JUMP JUMPDEST PUSH1 0x4 DUP2 DUP2 SLOAD DUP2 LT PUSH2 0x14B4 JUMPI PUSH1 0x0 DUP1 REVERT JUMPDEST SWAP1 PUSH1 0x0 MSTORE PUSH1 0x20 PUSH1 0x0 KECCAK256 ADD PUSH1 0x0 SWAP2 POP SWAP1 POP DUP1 SLOAD PUSH2 0x14CF SWAP1 PUSH2 0x1C2B JUMP JUMPDEST DUP1 PUSH1 0x1F ADD PUSH1 0x20 DUP1 SWAP2 DIV MUL PUSH1 0x20 ADD PUSH1 0x40 MLOAD SWAP1 DUP2 ADD PUSH1 0x40 MSTORE DUP1 SWAP3 SWAP2 SWAP1 DUP2 DUP2 MSTORE PUSH1 0x20 ADD DUP3 DUP1 SLOAD PUSH2 0x14FB SWAP1 PUSH2 0x1C2B JUMP JUMPDEST DUP1 ISZERO PUSH2 0x1548 JUMPI DUP1 PUSH1 0x1F LT PUSH2 0x151D JUMPI PUSH2 0x100 DUP1 DUP4 SLOAD DIV MUL DUP4 MSTORE SWAP2 PUSH1 0x20 ADD SWAP2 PUSH2 0x1548 JUMP JUMPDEST DUP3 ADD SWAP2 SWAP1 PUSH1 0x0 MSTORE PUSH1 0x20 PUSH1 0x0 KECCAK256 SWAP1 JUMPDEST DUP2 SLOAD DUP2 MSTORE SWAP1 PUSH1 0x1 ADD SWAP1 PUSH1 0x20 ADD DUP1 DUP4 GT PUSH2 0x152B JUMPI DUP3 SWAP1 SUB PUSH1 0x1F AND DUP3 ADD SWAP2 JUMPDEST POP POP POP POP POP DUP2 JUMP JUMPDEST PUSH1 0x0 JUMPDEST PUSH1 0x4 SLOAD DUP2 LT ISZERO PUSH2 0x649 JUMPI DUP2 PUSH1 0x40 MLOAD PUSH1 0x20 ADD PUSH2 0x156E SWAP2 SWAP1 PUSH2 0x1C0F JUMP JUMPDEST PUSH1 0x40 MLOAD PUSH1 0x20 DUP2 DUP4 SUB SUB DUP2 MSTORE SWAP1 PUSH1 0x40 MSTORE DUP1 MLOAD SWAP1 PUSH1 0x20 ADD KECCAK256 PUSH1 0x4 DUP3 DUP2 SLOAD DUP2 LT PUSH2 0x1597 JUMPI PUSH2 0x1597 PUSH2 0x1D6D JUMP JUMPDEST SWAP1 PUSH1 0x0 MSTORE PUSH1 0x20 PUSH1 0x0 KECCAK256 ADD PUSH1 0x40 MLOAD PUSH1 0x20 ADD PUSH2 0x15B1 SWAP2 SWAP1 PUSH2 0x1DB2 JUMP JUMPDEST PUSH1 0x40 MLOAD PUSH1 0x20 DUP2 DUP4 SUB SUB DUP2 MSTORE SWAP1 PUSH1 0x40 MSTORE DUP1 MLOAD SWAP1 PUSH1 0x20 ADD KECCAK256 SUB PUSH2 0x1684 JUMPI PUSH1 0x0 DUP1 DUP4 PUSH1 0x40 MLOAD PUSH2 0x15DD SWAP2 SWAP1 PUSH2 0x1C0F JUMP JUMPDEST SWAP1 DUP2 MSTORE PUSH1 0x40 MLOAD SWAP1 DUP2 SWAP1 SUB PUSH1 0x20 ADD SWAP1 KECCAK256 DUP1 SLOAD SWAP2 ISZERO ISZERO PUSH1 0xFF NOT SWAP1 SWAP3 AND SWAP2 SWAP1 SWAP2 OR SWAP1 SSTORE PUSH1 0x4 DUP1 SLOAD PUSH2 0x160D SWAP1 PUSH1 0x1 SWAP1 PUSH2 0x1F55 JUMP JUMPDEST DUP2 SLOAD DUP2 LT PUSH2 0x161D JUMPI PUSH2 0x161D PUSH2 0x1D6D JUMP JUMPDEST SWAP1 PUSH1 0x0 MSTORE PUSH1 0x20 PUSH1 0x0 KECCAK256 ADD PUSH1 0x4 DUP3 DUP2 SLOAD DUP2 LT PUSH2 0x163A JUMPI PUSH2 0x163A PUSH2 0x1D6D JUMP JUMPDEST SWAP1 PUSH1 0x0 MSTORE PUSH1 0x20 PUSH1 0x0 KECCAK256 ADD SWAP1 DUP2 PUSH2 0x1650 SWAP2 SWAP1 PUSH2 0x1F68 JUMP JUMPDEST POP PUSH1 0x4 DUP1 SLOAD DUP1 PUSH2 0x1662 JUMPI PUSH2 0x1662 PUSH2 0x2043 JUMP JUMPDEST PUSH1 0x1 SWAP1 SUB DUP2 DUP2 SWAP1 PUSH1 0x0 MSTORE PUSH1 0x20 PUSH1 0x0 KECCAK256 ADD PUSH1 0x0 PUSH2 0x167E SWAP2 SWAP1 PUSH2 0x1696 JUMP JUMPDEST SWAP1 SSTORE POP POP JUMP JUMPDEST DUP1 PUSH2 0x168E DUP2 PUSH2 0x1D99 JUMP JUMPDEST SWAP2 POP POP PUSH2 0x1553 JUMP JUMPDEST POP DUP1 SLOAD PUSH2 0x16A2 SWAP1 PUSH2 0x1C2B JUMP JUMPDEST PUSH1 0x0 DUP3 SSTORE DUP1 PUSH1 0x1F LT PUSH2 0x16B2 JUMPI POP POP JUMP JUMPDEST PUSH1 0x1F ADD PUSH1 0x20 SWAP1 DIV SWAP1 PUSH1 0x0 MSTORE PUSH1 0x20 PUSH1 0x0 KECCAK256 SWAP1 DUP2 ADD SWAP1 PUSH2 0x16D0 SWAP2 SWAP1 PUSH2 0x16D3 JUMP JUMPDEST POP JUMP JUMPDEST JUMPDEST DUP1 DUP3 GT ISZERO PUSH2 0x16E8 JUMPI PUSH1 0x0 DUP2 SSTORE PUSH1 0x1 ADD PUSH2 0x16D4 JUMP JUMPDEST POP SWAP1 JUMP JUMPDEST PUSH4 0x4E487B71 PUSH1 0xE0 SHL PUSH1 0x0 MSTORE PUSH1 0x41 PUSH1 0x4 MSTORE PUSH1 0x24 PUSH1 0x0 REVERT JUMPDEST PUSH1 0x40 MLOAD PUSH1 0x1F DUP3 ADD PUSH1 0x1F NOT AND DUP2 ADD PUSH8 0xFFFFFFFFFFFFFFFF DUP2 GT DUP3 DUP3 LT OR ISZERO PUSH2 0x172B JUMPI PUSH2 0x172B PUSH2 0x16EC JUMP JUMPDEST PUSH1 0x40 MSTORE SWAP2 SWAP1 POP JUMP JUMPDEST PUSH1 0x0 DUP3 PUSH1 0x1F DUP4 ADD SLT PUSH2 0x1744 JUMPI PUSH1 0x0 DUP1 REVERT JUMPDEST DUP2 CALLDATALOAD PUSH8 0xFFFFFFFFFFFFFFFF DUP2 GT ISZERO PUSH2 0x175E JUMPI PUSH2 0x175E PUSH2 0x16EC JUMP JUMPDEST PUSH2 0x1771 PUSH1 0x1F DUP3 ADD PUSH1 0x1F NOT AND PUSH1 0x20 ADD PUSH2 0x1702 JUMP JUMPDEST DUP2 DUP2 MSTORE DUP5 PUSH1 0x20 DUP4 DUP7 ADD ADD GT ISZERO PUSH2 0x1786 JUMPI PUSH1 0x0 DUP1 REVERT JUMPDEST DUP2 PUSH1 0x20 DUP6 ADD PUSH1 0x20 DUP4 ADD CALLDATACOPY PUSH1 0x0 SWAP2 DUP2 ADD PUSH1 0x20 ADD SWAP2 SWAP1 SWAP2 MSTORE SWAP4 SWAP3 POP POP POP JUMP JUMPDEST DUP1 ISZERO ISZERO DUP2 EQ PUSH2 0x16D0 JUMPI PUSH1 0x0 DUP1 REVERT JUMPDEST PUSH1 0x0 DUP1 PUSH1 0x40 DUP4 DUP6 SUB SLT ISZERO PUSH2 0x17C4 JUMPI PUSH1 0x0 DUP1 REVERT JUMPDEST DUP3 CALLDATALOAD PUSH8 0xFFFFFFFFFFFFFFFF DUP2 GT ISZERO PUSH2 0x17DB JUMPI PUSH1 0x0 DUP1 REVERT JUMPDEST PUSH2 0x17E7 DUP6 DUP3 DUP7 ADD PUSH2 0x1733 JUMP JUMPDEST SWAP3 POP POP PUSH1 0x20 DUP4 ADD CALLDATALOAD PUSH2 0x17F8 DUP2 PUSH2 0x17A3 JUMP JUMPDEST DUP1 SWAP2 POP POP SWAP3 POP SWAP3 SWAP1 POP JUMP JUMPDEST PUSH1 0x0 PUSH1 0x20 DUP3 DUP5 SUB SLT ISZERO PUSH2 0x1815 JUMPI PUSH1 0x0 DUP1 REVERT JUMPDEST POP CALLDATALOAD SWAP2 SWAP1 POP JUMP JUMPDEST DUP1 CALLDATALOAD PUSH1 0x1 PUSH1 0x1 PUSH1 0xA0 SHL SUB DUP2 AND DUP2 EQ PUSH2 0x1833 JUMPI PUSH1 0x0 DUP1 REVERT JUMPDEST SWAP2 SWAP1 POP JUMP JUMPDEST PUSH1 0x0 DUP1 PUSH1 0x40 DUP4 DUP6 SUB SLT ISZERO PUSH2 0x184B JUMPI PUSH1 0x0 DUP1 REVERT JUMPDEST PUSH2 0x1854 DUP4 PUSH2 0x181C JUMP JUMPDEST SWAP5 PUSH1 0x20 SWAP4 SWAP1 SWAP4 ADD CALLDATALOAD SWAP4 POP POP POP JUMP JUMPDEST PUSH1 0x0 PUSH1 0x20 DUP3 DUP5 SUB SLT ISZERO PUSH2 0x1874 JUMPI PUSH1 0x0 DUP1 REVERT JUMPDEST DUP2 CALLDATALOAD PUSH8 0xFFFFFFFFFFFFFFFF DUP2 GT ISZERO PUSH2 0x188B JUMPI PUSH1 0x0 DUP1 REVERT JUMPDEST PUSH2 0x1897 DUP5 DUP3 DUP6 ADD PUSH2 0x1733 JUMP JUMPDEST SWAP5 SWAP4 POP POP POP POP JUMP JUMPDEST PUSH1 0x0 PUSH1 0x20 DUP3 DUP5 SUB SLT ISZERO PUSH2 0x18B1 JUMPI PUSH1 0x0 DUP1 REVERT JUMPDEST PUSH2 0x18BA DUP3 PUSH2 0x181C JUMP JUMPDEST SWAP4 SWAP3 POP POP POP JUMP JUMPDEST PUSH1 0x0 JUMPDEST DUP4 DUP2 LT ISZERO PUSH2 0x18DC JUMPI DUP2 DUP2 ADD MLOAD DUP4 DUP3 ADD MSTORE PUSH1 0x20 ADD PUSH2 0x18C4 JUMP JUMPDEST POP POP PUSH1 0x0 SWAP2 ADD MSTORE JUMP JUMPDEST PUSH1 0x0 DUP2 MLOAD DUP1 DUP5 MSTORE PUSH2 0x18FD DUP2 PUSH1 0x20 DUP7 ADD PUSH1 0x20 DUP7 ADD PUSH2 0x18C1 JUMP JUMPDEST PUSH1 0x1F ADD PUSH1 0x1F NOT AND SWAP3 SWAP1 SWAP3 ADD PUSH1 0x20 ADD SWAP3 SWAP2 POP POP JUMP JUMPDEST PUSH1 0x0 PUSH2 0x120 DUP12 ISZERO ISZERO DUP4 MSTORE DUP11 ISZERO ISZERO PUSH1 0x20 DUP5 ADD MSTORE DUP10 ISZERO ISZERO PUSH1 0x40 DUP5 ADD MSTORE DUP9 ISZERO ISZERO PUSH1 0x60 DUP5 ADD MSTORE DUP8 ISZERO ISZERO PUSH1 0x80 DUP5 ADD MSTORE DUP1 PUSH1 0xA0 DUP5 ADD MSTORE PUSH2 0x194D DUP2 DUP5 ADD DUP9 PUSH2 0x18E5 JUMP JUMPDEST SWAP1 POP DUP6 PUSH1 0xC0 DUP5 ADD MSTORE DUP3 DUP2 SUB PUSH1 0xE0 DUP5 ADD MSTORE PUSH2 0x1967 DUP2 DUP7 PUSH2 0x18E5 JUMP JUMPDEST SWAP2 POP POP PUSH1 0x1 DUP1 PUSH1 0xA0 SHL SUB DUP4 AND PUSH2 0x100 DUP4 ADD MSTORE SWAP11 SWAP10 POP POP POP POP POP POP POP POP POP POP JUMP JUMPDEST PUSH1 0x0 DUP1 PUSH1 0x40 DUP4 DUP6 SUB SLT ISZERO PUSH2 0x199A JUMPI PUSH1 0x0 DUP1 REVERT JUMPDEST PUSH2 0x19A3 DUP4 PUSH2 0x181C JUMP JUMPDEST SWAP2 POP PUSH1 0x20 DUP4 ADD CALLDATALOAD PUSH2 0x17F8 DUP2 PUSH2 0x17A3 JUMP JUMPDEST PUSH1 0x0 PUSH1 0x20 DUP1 DUP4 ADD DUP2 DUP5 MSTORE DUP1 DUP6 MLOAD DUP1 DUP4 MSTORE PUSH1 0x40 DUP7 ADD SWAP2 POP PUSH1 0x40 DUP2 PUSH1 0x5 SHL DUP8 ADD ADD SWAP3 POP DUP4 DUP8 ADD PUSH1 0x0 JUMPDEST DUP3 DUP2 LT ISZERO PUSH2 0x1A08 JUMPI PUSH1 0x3F NOT DUP9 DUP7 SUB ADD DUP5 MSTORE PUSH2 0x19F6 DUP6 DUP4 MLOAD PUSH2 0x18E5 JUMP JUMPDEST SWAP5 POP SWAP3 DUP6 ADD SWAP3 SWAP1 DUP6 ADD SWAP1 PUSH1 0x1 ADD PUSH2 0x19DA JUMP JUMPDEST POP SWAP3 SWAP8 SWAP7 POP POP POP POP POP POP POP JUMP JUMPDEST PUSH1 0x0 DUP1 PUSH1 0x40 DUP4 DUP6 SUB SLT ISZERO PUSH2 0x1A28 JUMPI PUSH1 0x0 DUP1 REVERT JUMPDEST DUP3 CALLDATALOAD PUSH8 0xFFFFFFFFFFFFFFFF DUP1 DUP3 GT ISZERO PUSH2 0x1A40 JUMPI PUSH1 0x0 DUP1 REVERT JUMPDEST DUP2 DUP6 ADD SWAP2 POP DUP6 PUSH1 0x1F DUP4 ADD SLT PUSH2 0x1A54 JUMPI PUSH1 0x0 DUP1 REVERT JUMPDEST DUP2 CALLDATALOAD PUSH1 0x20 DUP3 DUP3 GT ISZERO PUSH2 0x1A68 JUMPI PUSH2 0x1A68 PUSH2 0x16EC JUMP JUMPDEST DUP2 PUSH1 0x5 SHL PUSH2 0x1A77 DUP3 DUP3 ADD PUSH2 0x1702 JUMP JUMPDEST SWAP3 DUP4 MSTORE DUP5 DUP2 ADD DUP3 ADD SWAP3 DUP3 DUP2 ADD SWAP1 DUP11 DUP6 GT ISZERO PUSH2 0x1A91 JUMPI PUSH1 0x0 DUP1 REVERT JUMPDEST DUP4 DUP8 ADD SWAP3 POP JUMPDEST DUP5 DUP4 LT ISZERO PUSH2 0x1ACD JUMPI DUP3 CALLDATALOAD DUP7 DUP2 GT ISZERO PUSH2 0x1AAF JUMPI PUSH1 0x0 DUP1 DUP2 REVERT JUMPDEST PUSH2 0x1ABD DUP13 DUP7 DUP4 DUP12 ADD ADD PUSH2 0x1733 JUMP JUMPDEST DUP4 MSTORE POP SWAP2 DUP4 ADD SWAP2 SWAP1 DUP4 ADD SWAP1 PUSH2 0x1A97 JUMP JUMPDEST SWAP11 SWAP9 SWAP1 SWAP3 ADD CALLDATALOAD SWAP9 POP POP POP POP POP POP POP POP JUMP JUMPDEST PUSH1 0x20 DUP1 DUP3 MSTORE DUP3 MLOAD DUP3 DUP3 ADD DUP2 SWAP1 MSTORE PUSH1 0x0 SWAP2 SWAP1 DUP5 DUP3 ADD SWAP1 PUSH1 0x40 DUP6 ADD SWAP1 DUP5 JUMPDEST DUP2 DUP2 LT ISZERO PUSH2 0x1B1F JUMPI DUP4 MLOAD PUSH1 0x1 PUSH1 0x1 PUSH1 0xA0 SHL SUB AND DUP4 MSTORE SWAP3 DUP5 ADD SWAP3 SWAP2 DUP5 ADD SWAP2 PUSH1 0x1 ADD PUSH2 0x1AFA JUMP JUMPDEST POP SWAP1 SWAP7 SWAP6 POP POP POP POP POP POP JUMP JUMPDEST PUSH1 0x0 DUP1 PUSH1 0x0 DUP1 PUSH1 0x0 PUSH1 0xA0 DUP7 DUP9 SUB SLT ISZERO PUSH2 0x1B43 JUMPI PUSH1 0x0 DUP1 REVERT JUMPDEST PUSH2 0x1B4C DUP7 PUSH2 0x181C JUMP JUMPDEST SWAP5 POP PUSH1 0x20 DUP7 ADD CALLDATALOAD PUSH8 0xFFFFFFFFFFFFFFFF DUP1 DUP3 GT ISZERO PUSH2 0x1B69 JUMPI PUSH1 0x0 DUP1 REVERT JUMPDEST PUSH2 0x1B75 DUP10 DUP4 DUP11 ADD PUSH2 0x1733 JUMP JUMPDEST SWAP6 POP PUSH1 0x40 DUP9 ADD CALLDATALOAD SWAP2 POP PUSH2 0x1B87 DUP3 PUSH2 0x17A3 JUMP JUMPDEST SWAP1 SWAP4 POP PUSH1 0x60 DUP8 ADD CALLDATALOAD SWAP1 PUSH2 0x1B99 DUP3 PUSH2 0x17A3 JUMP JUMPDEST SWAP1 SWAP3 POP PUSH1 0x80 DUP8 ADD CALLDATALOAD SWAP1 DUP1 DUP3 GT ISZERO PUSH2 0x1BAF JUMPI PUSH1 0x0 DUP1 REVERT JUMPDEST POP PUSH2 0x1BBC DUP9 DUP3 DUP10 ADD PUSH2 0x1733 JUMP JUMPDEST SWAP2 POP POP SWAP3 SWAP6 POP SWAP3 SWAP6 SWAP1 SWAP4 POP JUMP JUMPDEST PUSH1 0x20 DUP2 MSTORE PUSH1 0x0 PUSH2 0x18BA PUSH1 0x20 DUP4 ADD DUP5 PUSH2 0x18E5 JUMP JUMPDEST PUSH1 0x0 DUP1 PUSH1 0x40 DUP4 DUP6 SUB SLT ISZERO PUSH2 0x1BEF JUMPI PUSH1 0x0 DUP1 REVERT JUMPDEST PUSH2 0x1BF8 DUP4 PUSH2 0x181C JUMP JUMPDEST SWAP2 POP PUSH2 0x1C06 PUSH1 0x20 DUP5 ADD PUSH2 0x181C JUMP JUMPDEST SWAP1 POP SWAP3 POP SWAP3 SWAP1 POP JUMP JUMPDEST PUSH1 0x0 DUP3 MLOAD PUSH2 0x1C21 DUP2 DUP5 PUSH1 0x20 DUP8 ADD PUSH2 0x18C1 JUMP JUMPDEST SWAP2 SWAP1 SWAP2 ADD SWAP3 SWAP2 POP POP JUMP JUMPDEST PUSH1 0x1 DUP2 DUP2 SHR SWAP1 DUP3 AND DUP1 PUSH2 0x1C3F JUMPI PUSH1 0x7F DUP3 AND SWAP2 POP JUMPDEST PUSH1 0x20 DUP3 LT DUP2 SUB PUSH2 0xBE3 JUMPI PUSH4 0x4E487B71 PUSH1 0xE0 SHL PUSH1 0x0 MSTORE PUSH1 0x22 PUSH1 0x4 MSTORE PUSH1 0x24 PUSH1 0x0 REVERT JUMPDEST PUSH1 0x1F DUP3 GT ISZERO PUSH2 0x647 JUMPI PUSH1 0x0 DUP2 DUP2 MSTORE PUSH1 0x20 DUP2 KECCAK256 PUSH1 0x1F DUP6 ADD PUSH1 0x5 SHR DUP2 ADD PUSH1 0x20 DUP7 LT ISZERO PUSH2 0x1C86 JUMPI POP DUP1 JUMPDEST PUSH1 0x1F DUP6 ADD PUSH1 0x5 SHR DUP3 ADD SWAP2 POP JUMPDEST DUP2 DUP2 LT ISZERO PUSH2 0x1CA5 JUMPI DUP3 DUP2 SSTORE PUSH1 0x1 ADD PUSH2 0x1C92 JUMP JUMPDEST POP POP POP POP POP POP JUMP JUMPDEST DUP2 MLOAD PUSH8 0xFFFFFFFFFFFFFFFF DUP2 GT ISZERO PUSH2 0x1CC7 JUMPI PUSH2 0x1CC7 PUSH2 0x16EC JUMP JUMPDEST PUSH2 0x1CDB DUP2 PUSH2 0x1CD5 DUP5 SLOAD PUSH2 0x1C2B JUMP JUMPDEST DUP5 PUSH2 0x1C5F JUMP JUMPDEST PUSH1 0x20 DUP1 PUSH1 0x1F DUP4 GT PUSH1 0x1 DUP2 EQ PUSH2 0x1D10 JUMPI PUSH1 0x0 DUP5 ISZERO PUSH2 0x1CF8 JUMPI POP DUP6 DUP4 ADD MLOAD JUMPDEST PUSH1 0x0 NOT PUSH1 0x3 DUP7 SWAP1 SHL SHR NOT AND PUSH1 0x1 DUP6 SWAP1 SHL OR DUP6 SSTORE PUSH2 0x1CA5 JUMP JUMPDEST PUSH1 0x0 DUP6 DUP2 MSTORE PUSH1 0x20 DUP2 KECCAK256 PUSH1 0x1F NOT DUP7 AND SWAP2 JUMPDEST DUP3 DUP2 LT ISZERO PUSH2 0x1D3F JUMPI DUP9 DUP7 ADD MLOAD DUP3 SSTORE SWAP5 DUP5 ADD SWAP5 PUSH1 0x1 SWAP1 SWAP2 ADD SWAP1 DUP5 ADD PUSH2 0x1D20 JUMP JUMPDEST POP DUP6 DUP3 LT ISZERO PUSH2 0x1D5D JUMPI DUP8 DUP6 ADD MLOAD PUSH1 0x0 NOT PUSH1 0x3 DUP9 SWAP1 SHL PUSH1 0xF8 AND SHR NOT AND DUP2 SSTORE JUMPDEST POP POP POP POP POP PUSH1 0x1 SWAP1 DUP2 SHL ADD SWAP1 SSTORE POP JUMP JUMPDEST PUSH4 0x4E487B71 PUSH1 0xE0 SHL PUSH1 0x0 MSTORE PUSH1 0x32 PUSH1 0x4 MSTORE PUSH1 0x24 PUSH1 0x0 REVERT JUMPDEST PUSH4 0x4E487B71 PUSH1 0xE0 SHL PUSH1 0x0 MSTORE PUSH1 0x11 PUSH1 0x4 MSTORE PUSH1 0x24 PUSH1 0x0 REVERT JUMPDEST PUSH1 0x0 PUSH1 0x1 DUP3 ADD PUSH2 0x1DAB JUMPI PUSH2 0x1DAB PUSH2 0x1D83 JUMP JUMPDEST POP PUSH1 0x1 ADD SWAP1 JUMP JUMPDEST PUSH1 0x0 DUP1 DUP4 SLOAD PUSH2 0x1DC0 DUP2 PUSH2 0x1C2B JUMP JUMPDEST PUSH1 0x1 DUP3 DUP2 AND DUP1 ISZERO PUSH2 0x1DD8 JUMPI PUSH1 0x1 DUP2 EQ PUSH2 0x1DED JUMPI PUSH2 0x1E1C JUMP JUMPDEST PUSH1 0xFF NOT DUP5 AND DUP8 MSTORE DUP3 ISZERO ISZERO DUP4 MUL DUP8 ADD SWAP5 POP PUSH2 0x1E1C JUMP JUMPDEST DUP8 PUSH1 0x0 MSTORE PUSH1 0x20 DUP1 PUSH1 0x0 KECCAK256 PUSH1 0x0 JUMPDEST DUP6 DUP2 LT ISZERO PUSH2 0x1E13 JUMPI DUP2 SLOAD DUP11 DUP3 ADD MSTORE SWAP1 DUP5 ADD SWAP1 DUP3 ADD PUSH2 0x1DFA JUMP JUMPDEST POP POP POP DUP3 DUP8 ADD SWAP5 POP JUMPDEST POP SWAP3 SWAP7 SWAP6 POP POP POP POP POP POP JUMP JUMPDEST PUSH1 0x0 DUP2 SLOAD PUSH2 0x1E35 DUP2 PUSH2 0x1C2B JUMP JUMPDEST DUP1 DUP6 MSTORE PUSH1 0x20 PUSH1 0x1 DUP4 DUP2 AND DUP1 ISZERO PUSH2 0x1E52 JUMPI PUSH1 0x1 DUP2 EQ PUSH2 0x1E6C JUMPI PUSH2 0x1E9A JUMP JUMPDEST PUSH1 0xFF NOT DUP6 AND DUP9 DUP5 ADD MSTORE DUP4 ISZERO ISZERO PUSH1 0x5 SHL DUP9 ADD DUP4 ADD SWAP6 POP PUSH2 0x1E9A JUMP JUMPDEST DUP7 PUSH1 0x0 MSTORE DUP3 PUSH1 0x0 KECCAK256 PUSH1 0x0 JUMPDEST DUP6 DUP2 LT ISZERO PUSH2 0x1E92 JUMPI DUP2 SLOAD DUP11 DUP3 ADD DUP7 ADD MSTORE SWAP1 DUP4 ADD SWAP1 DUP5 ADD PUSH2 0x1E77 JUMP JUMPDEST DUP10 ADD DUP5 ADD SWAP7 POP POP JUMPDEST POP POP POP POP POP SWAP3 SWAP2 POP POP JUMP JUMPDEST PUSH1 0x40 DUP2 MSTORE PUSH1 0x0 PUSH2 0x1EB8 PUSH1 0x40 DUP4 ADD DUP6 PUSH2 0x1E28 JUMP JUMPDEST SWAP1 POP PUSH1 0x1 DUP1 PUSH1 0xA0 SHL SUB DUP4 AND PUSH1 0x20 DUP4 ADD MSTORE SWAP4 SWAP3 POP POP POP JUMP JUMPDEST PUSH1 0x0 PUSH1 0x20 DUP3 DUP5 SUB SLT ISZERO PUSH2 0x1EE1 JUMPI PUSH1 0x0 DUP1 REVERT JUMPDEST DUP2 MLOAD PUSH1 0xFF DUP2 AND DUP2 EQ PUSH2 0x18BA JUMPI PUSH1 0x0 DUP1 REVERT JUMPDEST PUSH1 0x0 DUP3 PUSH2 0x1F0F JUMPI PUSH4 0x4E487B71 PUSH1 0xE0 SHL PUSH1 0x0 MSTORE PUSH1 0x12 PUSH1 0x4 MSTORE PUSH1 0x24 PUSH1 0x0 REVERT JUMPDEST POP DIV SWAP1 JUMP JUMPDEST PUSH1 0x1 PUSH1 0x1 PUSH1 0xA0 SHL SUB DUP4 AND DUP2 MSTORE PUSH1 0x40 PUSH1 0x20 DUP3 ADD DUP2 SWAP1 MSTORE PUSH1 0x0 SWAP1 PUSH2 0x1897 SWAP1 DUP4 ADD DUP5 PUSH2 0x1E28 JUMP JUMPDEST PUSH1 0x0 PUSH1 0x20 DUP3 DUP5 SUB SLT ISZERO PUSH2 0x1F4A JUMPI PUSH1 0x0 DUP1 REVERT JUMPDEST DUP2 MLOAD PUSH2 0x18BA DUP2 PUSH2 0x17A3 JUMP JUMPDEST DUP2 DUP2 SUB DUP2 DUP2 GT ISZERO PUSH2 0x102F JUMPI PUSH2 0x102F PUSH2 0x1D83 JUMP JUMPDEST DUP2 DUP2 SUB PUSH2 0x1F73 JUMPI POP POP JUMP JUMPDEST PUSH2 0x1F7D DUP3 SLOAD PUSH2 0x1C2B JUMP JUMPDEST PUSH8 0xFFFFFFFFFFFFFFFF DUP2 GT ISZERO PUSH2 0x1F95 JUMPI PUSH2 0x1F95 PUSH2 0x16EC JUMP JUMPDEST PUSH2 0x1FA3 DUP2 PUSH2 0x1CD5 DUP5 SLOAD PUSH2 0x1C2B JUMP JUMPDEST PUSH1 0x0 PUSH1 0x1F DUP3 GT PUSH1 0x1 DUP2 EQ PUSH2 0x1FD7 JUMPI PUSH1 0x0 DUP4 ISZERO PUSH2 0x1FBF JUMPI POP DUP5 DUP3 ADD SLOAD JUMPDEST PUSH1 0x0 NOT PUSH1 0x3 DUP6 SWAP1 SHL SHR NOT AND PUSH1 0x1 DUP5 SWAP1 SHL OR DUP5 SSTORE PUSH2 0x203C JUMP JUMPDEST PUSH1 0x0 DUP6 DUP2 MSTORE PUSH1 0x20 SWAP1 KECCAK256 PUSH1 0x1F NOT DUP5 AND SWAP1 PUSH1 0x0 DUP7 DUP2 MSTORE PUSH1 0x20 SWAP1 KECCAK256 DUP5 JUMPDEST DUP4 DUP2 LT ISZERO PUSH2 0x2011 JUMPI DUP3 DUP7 ADD SLOAD DUP3 SSTORE PUSH1 0x1 SWAP6 DUP7 ADD SWAP6 SWAP1 SWAP2 ADD SWAP1 PUSH1 0x20 ADD PUSH2 0x1FF1 JUMP JUMPDEST POP DUP6 DUP4 LT ISZERO PUSH2 0x202F JUMPI DUP2 DUP6 ADD SLOAD PUSH1 0x0 NOT PUSH1 0x3 DUP9 SWAP1 SHL PUSH1 0xF8 AND SHR NOT AND DUP2 SSTORE JUMPDEST POP POP POP PUSH1 0x1 DUP4 PUSH1 0x1 SHL ADD DUP5 SSTORE JUMPDEST POP POP POP POP POP JUMP JUMPDEST PUSH4 0x4E487B71 PUSH1 0xE0 SHL PUSH1 0x0 MSTORE PUSH1 0x31 PUSH1 0x4 MSTORE PUSH1 0x24 PUSH1 0x0 REVERT INVALID LOG2 PUSH5 0x6970667358 0x22 SLT KECCAK256 EQ 0xB8 PC MULMOD PUSH17 0x2127102B94939D4CAC62999AEBC1E41E08 SWAP1 SAR 0xEE RETURNDATASIZE PUSH26 0xBEC7F8B58A64736F6C6343000815003300000000000000000000 ",
  "sha1": "221312fabdd70f0f6b0f939ba0112394123a84ed",
  "source": "// SPDX-License-Identifier: MIT\n\npragma solidity ^0.8.0;\n\n\ninterface IAnonID {\n    function incrementMinutesPlayed(address user, uint256 _minutes) external;\n    function updateLastPlayed(address _address, string memory _gameId) external;\n    function isWhitelisted(address _address) external view returns (bool);\n    function isPlayerActiveInGame(string memory gameID, address player) external view returns (uint8);\n}\n// MintyDatabase contract inheriting from AnonID\ncontract PlayerDatabase  {\n    // ERC20 Token variables\n    // string public name;\n    // string public symbol;\n    // uint8 public decimals;\n    // uint256 public totalSupply;\n    //uint256 public gameID; // Variable to store the game ID \n    mapping(string => bool) public gameServerIPs; // Mapping to store game server IPs\n    mapping(address => uint256) public balanceOf;\n    mapping(address => mapping(address => uint256)) public allowance;\n\n    string gameID = \"TFC\"; // Define your game ID for TFC\n    string[] public serverIPList; // Array for listing all server IPs\n\n    // Player Database variables\n    struct Player {\n        bool isRegistered;\n        bool isValidator;\n        bool isModerator;\n        bool isTourneyMod;\n        bool isGameAdmin;\n        string playerName; // Name of the player\n        bytes32 forumKey; // Unique key for forum entitlements\n        string steamID;\n        address rewardAddress;\n    }\n\n    mapping(address => Player) public playerData;\n    address[] public playerAddresses;\n\n    // Shared variables\n    address public gameValContract; // Address of the game subcontractor\n    IAnonID public anonIDContract; // Reference to the AnonID contract\n    address public onrampContract; // Address of the onramp contract\n    address public forumContract; // Address of the forum contract\n\n    // Events\n    event GameValContractUpdated(address indexed newGameValContract);\n    event OnrampContractUpdated(address indexed newOnrampContract);\n    event Transfer(address indexed from, address indexed to, uint256 value);\n    event Approval(address indexed owner, address indexed spender, uint256 value);\n\n    // Constructor\n    //constructor(string memory _name, string memory _symbol, uint8 _decimals) { //}, uint256 _totalSupply) {\n    constructor() {\n        // name = \"GPConcs\";\n        // symbol = \"GPConcs\";\n        // decimals = 18;\n        // balanceOf[msg.sender] = 80000000000000000000000;\n        // gameID = \"TFC\";\n    }\n    function isValidator(address _address) public view returns (bool) {\n        return playerData[_address].isValidator;\n    }\n    function isModerator(address _address) public view returns (bool) {\n        return playerData[_address].isModerator;\n    }\n    // Function to set the AnonID contract address\n    function setAnonIDContractAddress(address _anonIDAddress) public {\n        // Add appropriate security checks\n        anonIDContract = IAnonID(_anonIDAddress);\n    }\n\n    function isRegistered(address _address) public view returns (bool) {\n        return playerData[_address].isRegistered;\n    }\n    // function getRewardAddressesByNames(string[] memory playerNames) public view returns (address[] memory) {\n    //     address[] memory rewardAddresses = new address[](playerNames.length);\n\n    //     for (uint i = 0; i < playerNames.length; i++) {\n    //         for (uint j = 0; j < playerAddresses.length; j++) {\n    //             if (keccak256(abi.encodePacked(playerData[playerAddresses[j]].playerName)) == keccak256(abi.encodePacked(playerNames[i]))) {\n    //                 rewardAddresses[i] = playerData[playerAddresses[j]].rewardAddress;\n    //                 break; // Stop the inner loop once the address is found\n    //             }\n    //         }\n    //     }\n\n    //     return rewardAddresses;\n    // }\n    function getValidRewardAddressesByNames(string[] memory playerNames, uint256 lastMintTime) public returns (address[] memory) {\n        address[] memory validRewardAddresses = new address[](playerNames.length);\n\n        for (uint i = 0; i < playerNames.length; i++) {\n            for (uint j = 0; j < playerAddresses.length; j++) {\n                if (keccak256(abi.encodePacked(playerData[playerAddresses[j]].playerName)) == keccak256(abi.encodePacked(playerNames[i]))) {\n                    uint8 playerStatus = anonIDContract.isPlayerActiveInGame(gameID, playerAddresses[j]);\n\n                    if (playerStatus == 2) { // Player already minted for TFC\n                        validRewardAddresses[i] = playerData[playerAddresses[j]].rewardAddress;\n                        // Increment the minutes played using lastMintTime\n                        uint256 minutesPlayed = lastMintTime / 60; // Convert seconds to minutes\n                        anonIDContract.incrementMinutesPlayed(playerAddresses[j], minutesPlayed);\n                        anonIDContract.updateLastPlayed(playerAddresses[j], gameID);\n\n                    } else if (playerStatus == 0) { // Player not in a game, flag as active\n                        anonIDContract.updateLastPlayed(playerAddresses[j], gameID);\n                        // block.timestamp - lastMintTime = i\n                        // Do not include this player in the reward addresses for this round\n                    }\n                    break; // Stop the inner loop once the player is processed\n                }\n            }\n        }\n\n        return validRewardAddresses;\n    }\n    // // Function to interact with AnonID contract\n    // function updateAnonIDData(address _user, uint256 _minutes, uint256 _gameId) public {\n    //     // Ensure the caller has permission to update AnonID data\n    //     anonIDContract.incrementMinutesPlayed(_user, _minutes);\n    //     anonIDContract.updateLastPlayed(_user, _gameId);\n    // }// validator does this\n\n    // Player Database functions\n    // Assuming IAnonID interface and anonIDContract are already defined and set up in your contract\n    function updateGameServerIP(string memory serverIP, bool add) public {\n        require(playerData[msg.sender].isGameAdmin, \"Caller is not a game admin\");\n\n        if (add) {\n            if (!gameServerIPs[serverIP]) {\n                gameServerIPs[serverIP] = true;\n                serverIPList.push(serverIP);\n            }\n        } else {\n            if (gameServerIPs[serverIP]) {\n                gameServerIPs[serverIP] = false;\n                removeServerIPFromArray(serverIP);\n            }\n        }\n    }\n\n    // Helper function to remove a server IP from the array\n    function removeServerIPFromArray(string memory serverIP) private {\n        for (uint i = 0; i < serverIPList.length; i++) {\n            if (keccak256(abi.encodePacked(serverIPList[i])) == keccak256(abi.encodePacked(serverIP))) {\n                // Update the mapping to reflect the server IP is no longer registered\n                gameServerIPs[serverIP] = false;\n\n                // Remove the server IP from the array\n                serverIPList[i] = serverIPList[serverIPList.length - 1];\n                serverIPList.pop();\n                break;\n            }\n        }\n    }\n\n    // Function to get the full list of server IPs\n    function getAllServerIPs() public view returns (string[] memory) {\n        return serverIPList;\n    }\n    function addOrUpdatePlayer(address _address, string memory _steamID, bool _isValidator, bool _isRegistered, string memory _playerName) public {\n        require(msg.sender == onrampContract, \"Only the onramp contract can add/update players\");\n        require(anonIDContract.isWhitelisted(_address), \"Address not whitelisted in AnonID\");\n\n        Player storage player = playerData[_address];\n        bool alreadyRegistered = player.isRegistered;\n\n        playerData[_address] = Player({\n            steamID: _steamID,\n            isValidator: _isValidator,\n            isRegistered: _isRegistered,\n            rewardAddress: _address,\n            playerName: _playerName,\n            // Zero out or set default values for the non-argument fields\n            isModerator: false,\n            isTourneyMod: false,\n            isGameAdmin: false,\n            forumKey: 0 // Assuming 0 is the default value for forumKey\n        });\n\n        if (!alreadyRegistered) {\n            playerAddresses.push(_address);\n        }\n    }\n\n    function getAllPlayerNames() public view returns (string[] memory) {\n        string[] memory playerNames = new string[](playerAddresses.length);\n\n        for (uint i = 0; i < playerAddresses.length; i++) {\n            Player storage player = playerData[playerAddresses[i]];\n            playerNames[i] = player.playerName;\n        }\n\n        return playerNames;\n    }\n    // ... [Other Player Database functions]\n\n    // Shared functions\n    function updateGameValContract(address _gameValContract) public {\n        gameValContract = _gameValContract;\n        emit GameValContractUpdated(_gameValContract);\n    }\n\n    function updateOnrampContract(address _onrampContract) public {\n        onrampContract = _onrampContract;\n        emit OnrampContractUpdated(_onrampContract);\n    }\n    // ... [Previous variables and functions]\n\n\n    // ... [Rest of the existing contract]\n\n    // Function to update the forum contract address\n    function updateForumContract(address _forumContract) public {\n        // Add appropriate security checks\n        forumContract = _forumContract;\n    }\n\n    // Function to change a player's moderator status\n    function toggleModeratorStatus(address _player, bool _status) external {\n        require(msg.sender == forumContract, \"Only the forum contract can modify moderator status\");\n        playerData[_player].isModerator = _status;\n    }\n\n    // Function to change a player's tournament moderator status\n    function toggleTourneyModStatus(address _player, bool _status) external {\n        require(msg.sender == forumContract, \"Only the forum contract can modify tournament moderator status\");\n        playerData[_player].isTourneyMod = _status;\n    }\n\n    // Function to set or update a player's forum key\n    function setForumKey(address _player, bytes32 _key) external {\n        require(msg.sender == forumContract, \"Only the forum contract can set forum key\");\n        playerData[_player].forumKey = _key;\n    }\n    function setGameAdminStatus(address admin, bool status) external {\n        // Add security check to ensure only authorized contract or account can call this\n        playerData[admin].isGameAdmin = status;\n    }\n\n    function setValidatorStatus(address validator, bool status) external {\n        // Add security check to ensure only authorized contract or account can call this\n        playerData[validator].isValidator = status;\n    }\n    // ... [Additional functions and security checks as necessary]\n}\n// pragma solidity ^0.8.0;\n\n// contract TFCPlayAndEarn {\n//     // Other contract variables...\n\n//     struct Submission {\n//         address validator;\n//         string[] names;\n//     }\n//     Submission[] submissions;\n\n//     function processSubmissions(string[] memory rawNames, address validator) public {\n//         require(isValidator(validator), \"Not a validator\");\n//         string[] memory sanitizedNames = sanitizeNames(rawNames);\n        \n//         // Store the sanitized names along with the validator's address\n//         submissions.push(Submission({\n//             validator: validator,\n//             names: sanitizedNames\n//         }));\n//     }\n\n//     function sanitizeNames(string[] memory rawNames) private pure returns (string[] memory) {\n//         string[] memory sanitizedNames = new string[](rawNames.length);\n\n//         for (uint i = 0; i < rawNames.length; i++) {\n//             // Implement sanitation logic\n//             // This might include removing or replacing brackets, punctuation, etc.\n//             sanitizedNames[i] = sanitize(rawNames[i]);\n//         }\n\n//         return sanitizedNames;\n//     }\n\n//     function sanitize(string memory name) private pure returns (string memory) {\n//         // Detailed implementation of the sanitization logic\n//         // Could involve regex replacements or character filtering\n//         // Solidity does not natively support regex, so this might require character-by-character processing\n//     }\n\n//     // Additional functions like isValidator, auditSubmissions, etc.\n// }\n",
  "sourcePath": "contracts/3_GP_PlayerDatabase.sol",
  "type": "contract"
}