{"abi":[{"anonymous":false,"inputs":[{"components":[{"internalType":"address","name":"addr","type":"address"},{"internalType":"bytes32","name":"value","type":"bytes32"}],"indexed":false,"internalType":"struct LamportTest2.AddressValuePair[]","name":"pairs","type":"tuple[]"}],"name":"AddressValuePairsBroadcasted","type":"event"},{"anonymous":false,"inputs":[{"indexed":false,"internalType":"bytes","name":"encodedPairs","type":"bytes"}],"name":"EncodedPairs","type":"event"},{"anonymous":false,"inputs":[{"indexed":false,"internalType":"enum LamportBase.KeyType","name":"keyType","type":"uint8"},{"indexed":false,"internalType":"bytes32","name":"newPKH","type":"bytes32"}],"name":"KeyAdded","type":"event"},{"anonymous":false,"inputs":[{"indexed":false,"internalType":"enum LamportBase.KeyType","name":"originalKeyType","type":"uint8"},{"indexed":false,"internalType":"bytes32","name":"originalPKH","type":"bytes32"},{"indexed":false,"internalType":"bytes32","name":"modifiedPKH","type":"bytes32"},{"indexed":false,"internalType":"enum LamportBase.KeyType","name":"newKeyType","type":"uint8"}],"name":"KeyModified","type":"event"},{"anonymous":false,"inputs":[{"indexed":false,"internalType":"uint256","name":"hash","type":"uint256"}],"name":"LogLastCalculatedHash","type":"event"},{"anonymous":false,"inputs":[{"indexed":false,"internalType":"string","name":"message","type":"string"}],"name":"Message","type":"event"},{"anonymous":false,"inputs":[{"indexed":false,"internalType":"string","name":"message","type":"string"},{"indexed":false,"internalType":"uint256","name":"number","type":"uint256"}],"name":"MessageWithNumber","type":"event"},{"anonymous":false,"inputs":[{"indexed":false,"internalType":"string","name":"message","type":"string"},{"indexed":false,"internalType":"uint256","name":"number","type":"uint256"},{"indexed":false,"internalType":"address","name":"addr","type":"address"}],"name":"MessageWithNumberAndAddress","type":"event"},{"anonymous":false,"inputs":[{"indexed":false,"internalType":"enum LamportBase.KeyType","name":"keyType","type":"uint8"},{"indexed":false,"internalType":"bytes32","name":"previousPKH","type":"bytes32"},{"indexed":false,"internalType":"bytes32","name":"newPKH","type":"bytes32"}],"name":"PkhUpdated","type":"event"},{"anonymous":false,"inputs":[{"indexed":false,"internalType":"uint256","name":"hashedData","type":"uint256"}],"name":"VerificationFailed","type":"event"},{"inputs":[{"internalType":"string","name":"messageToBroadcast","type":"string"},{"internalType":"uint256","name":"numberToBroadcast","type":"uint256"},{"internalType":"address","name":"addrToBroadcast","type":"address"},{"internalType":"bytes32[2][256]","name":"currentpub","type":"bytes32[2][256]"},{"internalType":"bytes32","name":"nextPKH","type":"bytes32"},{"internalType":"bytes[256]","name":"sig","type":"bytes[256]"}],"name":"broadcastWithNumberAndAddress","outputs":[],"stateMutability":"nonpayable","type":"function"},{"inputs":[{"internalType":"string","name":"messageToBroadcast","type":"string"},{"internalType":"uint256","name":"numberToBroadcast","type":"uint256"},{"internalType":"bytes32[2][256]","name":"currentpub","type":"bytes32[2][256]"},{"internalType":"bytes32","name":"nextPKH","type":"bytes32"},{"internalType":"bytes[256]","name":"sig","type":"bytes[256]"}],"name":"broadcastnextpkhdcastWithNumber","outputs":[],"stateMutability":"nonpayable","type":"function"},{"inputs":[{"internalType":"bytes32[2][10]","name":"pairs","type":"bytes32[2][10]"},{"internalType":"bytes32[2][256]","name":"currentpub","type":"bytes32[2][256]"},{"internalType":"bytes32","name":"nextPKH","type":"bytes32"},{"internalType":"bytes[256]","name":"sig","type":"bytes[256]"}],"name":"contractCallTest","outputs":[],"stateMutability":"nonpayable","type":"function"},{"inputs":[{"internalType":"bytes32[2][10]","name":"pairs","type":"bytes32[2][10]"},{"internalType":"bytes32[2][256]","name":"currentpub","type":"bytes32[2][256]"},{"internalType":"string","name":"messageToBroadcast","type":"string"},{"internalType":"uint256","name":"numberToBroadcast","type":"uint256"},{"internalType":"address","name":"addrToBroadcast","type":"address"},{"internalType":"bytes[256]","name":"sig","type":"bytes[256]"},{"internalType":"bytes32","name":"nextPKH","type":"bytes32"}],"name":"contractCallTest2","outputs":[],"stateMutability":"nonpayable","type":"function"},{"inputs":[{"internalType":"bytes32[2][256]","name":"currentpub","type":"bytes32[2][256]"},{"internalType":"bytes[256]","name":"sig","type":"bytes[256]"},{"internalType":"bytes32","name":"nextPKH","type":"bytes32"},{"internalType":"bytes","name":"newmasterPKH","type":"bytes"}],"name":"createMasterKeyStepOne","outputs":[],"stateMutability":"nonpayable","type":"function"},{"inputs":[{"internalType":"bytes32[2][256]","name":"currentpub","type":"bytes32[2][256]"},{"internalType":"bytes[256]","name":"sig","type":"bytes[256]"},{"internalType":"bytes32","name":"nextPKH","type":"bytes32"},{"internalType":"bytes32","name":"newmasterPKH","type":"bytes32"}],"name":"createMasterKeyStepTwo","outputs":[],"stateMutability":"nonpayable","type":"function"},{"inputs":[{"internalType":"bytes32[2][256]","name":"currentpub","type":"bytes32[2][256]"},{"internalType":"bytes32","name":"nextPKH","type":"bytes32"},{"internalType":"bytes[256]","name":"sig","type":"bytes[256]"},{"internalType":"bytes32","name":"neworaclePKH","type":"bytes32"}],"name":"createOracleKeyFromMaster","outputs":[],"stateMutability":"nonpayable","type":"function"},{"inputs":[{"internalType":"bytes32[2][256]","name":"currentpub","type":"bytes32[2][256]"},{"internalType":"bytes[256]","name":"sig","type":"bytes[256]"},{"internalType":"bytes32","name":"nextPKH","type":"bytes32"},{"internalType":"bytes32","name":"deleteKeyHash","type":"bytes32"}],"name":"deleteKeyStepOne","outputs":[],"stateMutability":"nonpayable","type":"function"},{"inputs":[{"internalType":"bytes32[2][256]","name":"currentpub","type":"bytes32[2][256]"},{"internalType":"bytes[256]","name":"sig","type":"bytes[256]"},{"internalType":"bytes32","name":"nextPKH","type":"bytes32"},{"internalType":"bytes32","name":"confirmDeleteKeyHash","type":"bytes32"}],"name":"deleteKeyStepTwo","outputs":[],"stateMutability":"nonpayable","type":"function"},{"inputs":[{"internalType":"bytes32[2][10]","name":"pairs","type":"bytes32[2][10]"},{"internalType":"bytes32[2][256]","name":"currentpub","type":"bytes32[2][256]"},{"internalType":"string","name":"messageToBroadcast","type":"string"},{"internalType":"uint256","name":"numberToBroadcast","type":"uint256"},{"internalType":"address","name":"addrToBroadcast","type":"address"},{"internalType":"bytes32","name":"nextPKH","type":"bytes32"}],"name":"getEncodedPairs","outputs":[],"stateMutability":"nonpayable","type":"function"},{"inputs":[{"internalType":"bytes32","name":"pkh","type":"bytes32"}],"name":"getKeyAndPosByPKH","outputs":[{"internalType":"enum LamportBase.KeyType","name":"","type":"uint8"},{"internalType":"bytes32","name":"","type":"bytes32"},{"internalType":"uint256","name":"","type":"uint256"}],"stateMutability":"view","type":"function"},{"inputs":[{"internalType":"enum LamportBase.KeyType","name":"privilege","type":"uint8"}],"name":"getPKHsByPrivilege","outputs":[{"internalType":"bytes32[]","name":"","type":"bytes32[]"}],"stateMutability":"view","type":"function"},{"inputs":[{"internalType":"bytes32","name":"masterPKH1","type":"bytes32"},{"internalType":"bytes32","name":"masterPKH2","type":"bytes32"},{"internalType":"bytes32","name":"oraclePKH","type":"bytes32"}],"name":"init","outputs":[],"stateMutability":"nonpayable","type":"function"},{"inputs":[{"internalType":"bytes32","name":"","type":"bytes32"}],"name":"keyData","outputs":[{"internalType":"enum LamportBase.KeyType","name":"keyType","type":"uint8"},{"internalType":"bytes32","name":"pkh","type":"bytes32"}],"stateMutability":"view","type":"function"},{"inputs":[{"internalType":"uint256","name":"","type":"uint256"}],"name":"keys","outputs":[{"internalType":"enum LamportBase.KeyType","name":"keyType","type":"uint8"},{"internalType":"bytes32","name":"pkh","type":"bytes32"}],"stateMutability":"view","type":"function"},{"inputs":[],"name":"lastUsedNextPKH","outputs":[{"internalType":"bytes32","name":"","type":"bytes32"}],"stateMutability":"view","type":"function"},{"inputs":[],"name":"lastVerificationResult","outputs":[{"internalType":"bool","name":"","type":"bool"}],"stateMutability":"view","type":"function"},{"inputs":[{"internalType":"uint256","name":"","type":"uint256"}],"name":"pairsArray","outputs":[{"internalType":"address","name":"addr","type":"address"},{"internalType":"bytes32","name":"value","type":"bytes32"}],"stateMutability":"view","type":"function"},{"inputs":[{"internalType":"uint256","name":"bits","type":"uint256"},{"internalType":"bytes[256]","name":"sig","type":"bytes[256]"},{"internalType":"bytes32[2][256]","name":"pub","type":"bytes32[2][256]"}],"name":"verify_u256","outputs":[{"internalType":"bool","name":"","type":"bool"}],"stateMutability":"pure","type":"function"}],"bytecode":"60806040526000805460ff1916905534801561001a57600080fd5b50612aea8061002a6000396000f3fe608060405234801561001057600080fd5b50600436106101215760003560e01c80638eb8f1a6116100ad578063d77c8bfb11610071578063d77c8bfb146102b1578063d83c413c146102c4578063ddc10085146102d7578063e673d71f146102ea578063ecf017ac146102fd57600080fd5b80638eb8f1a61461022b5780639c90c17f1461023e578063a9711ee314610251578063af82f3e71461027e578063b97b4f771461029157600080fd5b80634bdd4499116100f45780634bdd4499146101a95780634e657d2a146101c05780635796841a146101d35780637ff8bb3a146101e657806381867b001461021857600080fd5b806305aacc7d146101265780630b0ad508146101515780630cb6aaf1146101665780632fd5c24714610187575b600080fd5b610139610134366004611fe6565b610310565b60405161014893929190612037565b60405180910390f35b61016461015f366004612056565b610417565b005b610179610174366004611fe6565b61049d565b604051610148929190612082565b60005461019990610100900460ff1681565b6040519015158152602001610148565b6101b260055481565b604051908152602001610148565b6101646101ce366004612152565b6104cf565b6101646101e13660046121e8565b610670565b6101f96101f4366004611fe6565b6108cf565b604080516001600160a01b039093168352602083019190915201610148565b61016461022636600461225c565b610907565b6101646102393660046122bd565b610b88565b61016461024c36600461235c565b610d31565b61017961025f366004611fe6565b6002602052600090815260409020805460019091015460ff9091169082565b61019961028c36600461240d565b610f57565b6102a461029f366004612465565b61100c565b6040516101489190612486565b6101646102bf3660046124ca565b6111ba565b6101646102d23660046121e8565b6113c2565b6101646102e5366004612564565b61156a565b6101646102f83660046121e8565b6115f3565b61016461030b3660046125ec565b611b28565b60008181526002602081905260408083208151808301909252805484938493849390929091839160ff169081111561034a5761034a611fff565b600281111561035b5761035b611fff565b8152600191909101546020918201528101519091506000036103985760405162461bcd60e51b815260040161038f90612677565b60405180910390fd5b60005b6001548110156103f75785600182815481106103b9576103b96126ae565b906000526020600020906002020160010154036103e55781516020909201519194509092509050610410565b806103ef816126c4565b91505061039b565b5060405162461bcd60e51b815260040161038f90612677565b9193909250565b60005460ff161561046a5760405162461bcd60e51b815260206004820181905260248201527f4c616d706f7274426173653a20416c726561647920696e697469616c697a6564604482015260640161038f565b610475600084611d2b565b610480600083611d2b565b61048b600182611d2b565b50506000805460ff1916600117905550565b600181815481106104ad57600080fd5b60009182526020909120600290910201805460019091015460ff909116915082565b600054849084908490849060ff166104f95760405162461bcd60e51b815260040161038f906126eb565b60008460405160200161050c9190612722565b60408051601f19818403018152919052805160209091012090506000808281526002602081905260409091205460ff169081111561054c5761054c611fff565b146105695760405162461bcd60e51b815260040161038f90612759565b6000828460405160200161057e9291906127b4565b60408051601f198184030181529082905280516020918201208083529250600080516020612a75833981519152910160405180910390a160006105c2828789610f57565b6000805461ff0019166101008315150217905590508061061657604051828152600080516020612a55833981519152906020015b60405180910390a160405162461bcd60e51b815260040161038f906127d6565b60008381526002602052604090819020549051600080516020612a958339815191529161064c9160ff9091169086908990612037565b60405180910390a161065e8386611e44565b50505060059590955550505050505050565b8383838360405160200161068691815260200190565b60408051601f1981840301815291905260005460ff166106b85760405162461bcd60e51b815260040161038f906126eb565b6000846040516020016106cb9190612722565b60408051601f19818403018152919052805160209091012090506000808281526002602081905260409091205460ff169081111561070b5761070b611fff565b146107285760405162461bcd60e51b815260040161038f90612759565b6000828460405160200161073d9291906127b4565b60408051601f198184030181529082905280516020918201208083529250600080516020612a75833981519152910160405180910390a16000610781828789610f57565b6000805461ff001916610100831515021790559050806107b957604051828152600080516020612a55833981519152906020016105f6565b60008381526002602052604090819020549051600080516020612a95833981519152916107ef9160ff9091169086908990612037565b60405180910390a16108018386611e44565b60008b6040516020016108149190612722565b60408051601f198184030181529190528051602090910120600580546000909155909150811415806108b0576040805162461bcd60e51b81526020600482015260248101919091527f4c616d706f7274426173653a20504b48206d617463686573206c61737420757360448201527f656420504b482028757365207365706172617465207365636f6e64206b657929606482015260840161038f565b6108bb60008b611d2b565b505060006005555050505050505050505050565b600681815481106108df57600080fd5b6000918252602090912060029091020180546001909101546001600160a01b03909116915082565b8281838660405160200161091b9190612835565b60408051601f1981840301815291905260005460ff1661094d5760405162461bcd60e51b815260040161038f906126eb565b6000846040516020016109609190612722565b60408051601f19818403018152919052805160209091012090506000808281526002602081905260409091205460ff16908111156109a0576109a0611fff565b146109bd5760405162461bcd60e51b815260040161038f90612759565b600082846040516020016109d29291906127b4565b60408051601f198184030181529082905280516020918201208083529250600080516020612a75833981519152910160405180910390a16000610a16828789610f57565b6000805461ff00191661010083151502179055905080610a4e57604051828152600080516020612a55833981519152906020016105f6565b60008381526002602052604090819020549051600080516020612a9583398151915291610a849160ff9091169086908990612037565b60405180910390a1610a968386611e44565b60005b600a811015610b4257600660405180604001604052808e84600a8110610ac157610ac16126ae565b604002013560601c81526020018e84600a8110610ae057610ae06126ae565b60400201600160209081029190910135909152825460018082018555600094855293829020835160029092020180546001600160a01b0319166001600160a01b0390921691909117815591015191015580610b3a816126c4565b915050610a99565b507fe97438c7690599fae9afa6ab3ffd17f5a6bdf6de48e8645c7d35a0b1e6479fba6006604051610b739190612848565b60405180910390a15050505050505050505050565b83828483604051602001610b9e91815260200190565b60408051601f1981840301815291905260005460ff16610bd05760405162461bcd60e51b815260040161038f906126eb565b600084604051602001610be39190612722565b60408051601f19818403018152919052805160209091012090506000808281526002602081905260409091205460ff1690811115610c2357610c23611fff565b14610c405760405162461bcd60e51b815260040161038f90612759565b60008284604051602001610c559291906127b4565b60408051601f198184030181529082905280516020918201208083529250600080516020612a75833981519152910160405180910390a16000610c99828789610f57565b6000805461ff00191661010083151502179055905080610cd157604051828152600080516020612a55833981519152906020016105f6565b60008381526002602052604090819020549051600080516020612a9583398151915291610d079160ff9091169086908990612037565b60405180910390a1610d198386611e44565b610d24600189611d2b565b5050505050505050505050565b85828289888888604051602001610d4b94939291906128a8565b60408051601f1981840301815291905260005460ff16610d7d5760405162461bcd60e51b815260040161038f906126eb565b600084604051602001610d909190612722565b60408051601f19818403018152919052805160209091012090506000808281526002602081905260409091205460ff1690811115610dd057610dd0611fff565b14610ded5760405162461bcd60e51b815260040161038f90612759565b60008284604051602001610e029291906127b4565b60408051601f198184030181529082905280516020918201208083529250600080516020612a75833981519152910160405180910390a16000610e46828789610f57565b6000805461ff00191661010083151502179055905080610e7e57604051828152600080516020612a55833981519152906020016105f6565b60008381526002602052604090819020549051600080516020612a9583398151915291610eb49160ff9091169086908990612037565b60405180910390a1610ec68386611e44565b60008e8d8d8d604051602001610edf94939291906128a8565b60405160208183030381529060405290507f0439e3ce2fb9a6bc9b02eca4ed3a05602d64d28b25644d289d8adde65c3a5df3818a604051602001610f249291906127b4565b60408051601f1981840301815290829052610f3e91612926565b60405180910390a1505050505050505050505050505050565b6000805b610100811015610fff5783816101008110610f7857610f786126ae565b602002810190610f889190612939565b604051610f96929190612986565b604051809103902083826101008110610fb157610fb16126ae565b6040020160008360ff036001901b881611610fcd576000610fd0565b60015b60ff1660028110610fe357610fe36126ae565b602002013514610ff7576000915050611005565b600101610f5b565b50600190505b9392505050565b6001546060906000906001600160401b0381111561102c5761102c6120c7565b604051908082528060200260200182016040528015611055578160200160208202803683370190505b5090506000805b6001548110156111165784600281111561107857611078611fff565b6001828154811061108b5761108b6126ae565b600091825260209091206002918202015460ff16908111156110af576110af611fff565b0361110457600181815481106110c7576110c76126ae565b9060005260206000209060020201600101548383815181106110eb576110eb6126ae565b602090810291909101015281611100816126c4565b9250505b8061110e816126c4565b91505061105c565b506000816001600160401b03811115611131576111316120c7565b60405190808252806020026020018201604052801561115a578160200160208202803683370190505b50905060005b828110156111b15783818151811061117a5761117a6126ae565b6020026020010151828281518110611194576111946126ae565b6020908102919091010152806111a9816126c4565b915050611160565b50949350505050565b8281838888886040516020016111d293929190612996565b60408051601f1981840301815291905260005460ff166112045760405162461bcd60e51b815260040161038f906126eb565b6000846040516020016112179190612722565b60408051601f1981840301815291905280516020909101209050600160008281526002602081905260409091205460ff169081111561125857611258611fff565b146112a55760405162461bcd60e51b815260206004820152601e60248201527f4c616d706f7274426173653a204e6f7420616e206f7261636c65206b65790000604482015260640161038f565b600082846040516020016112ba9291906127b4565b60408051601f198184030181529082905280516020918201208083529250600080516020612a75833981519152910160405180910390a160006112fe828789610f57565b6000805461ff001916610100831515021790559050806113305760405162461bcd60e51b815260040161038f906127d6565b60008381526002602052604090819020549051600080516020612a95833981519152916113669160ff9091169086908990612037565b60405180910390a16113788386611e44565b7f5bee3a20ea3a72a82e77a882003ff7dcf3ee864289922c283ac5091afc700ab48d8d8d6040516113ab939291906129cf565b60405180910390a150505050505050505050505050565b838383836040516020016113d891815260200190565b60408051601f1981840301815291905260005460ff1661140a5760405162461bcd60e51b815260040161038f906126eb565b60008460405160200161141d9190612722565b60408051601f19818403018152919052805160209091012090506000808281526002602081905260409091205460ff169081111561145d5761145d611fff565b1461147a5760405162461bcd60e51b815260040161038f90612759565b6000828460405160200161148f9291906127b4565b60408051601f198184030181529082905280516020918201208083529250600080516020612a75833981519152910160405180910390a160006114d3828789610f57565b6000805461ff0019166101008315150217905590508061150b57604051828152600080516020612a55833981519152906020016105f6565b60008381526002602052604090819020549051600080516020612a95833981519152916115419160ff9091169086908990612037565b60405180910390a16115538386611e44565b505050600394909455505050600491909155505050565b60008685858560405160200161158394939291906128a8565b60405160208183030381529060405290507f0439e3ce2fb9a6bc9b02eca4ed3a05602d64d28b25644d289d8adde65c3a5df381836040516020016115c89291906127b4565b60408051601f19818403018152908290526115e291612926565b60405180910390a150505050505050565b8383838360405160200161160991815260200190565b60408051601f1981840301815291905260005460ff1661163b5760405162461bcd60e51b815260040161038f906126eb565b60008460405160200161164e9190612722565b60408051601f19818403018152919052805160209091012090506000808281526002602081905260409091205460ff169081111561168e5761168e611fff565b146116ab5760405162461bcd60e51b815260040161038f90612759565b600082846040516020016116c09291906127b4565b60408051601f198184030181529082905280516020918201208083529250600080516020612a75833981519152910160405180910390a16000611704828789610f57565b6000805461ff0019166101008315150217905590508061173c57604051828152600080516020612a55833981519152906020016105f6565b60008381526002602052604090819020549051600080516020612a95833981519152916117729160ff9091169086908990612037565b60405180910390a16117848386611e44565b60008b6040516020016117979190612722565b60405160208183030381529060405280519060200120905060045481036118305760405162461bcd60e51b815260206004820152604160248201527f4c616d706f7274426173653a2043616e6e6f7420757365207468652073616d6560448201527f206b6579636861696e20747769636520666f7220746869732066756e6374696f6064820152603760f91b608482015260a40161038f565b88600354146118815760405162461bcd60e51b815260206004820152601e60248201527f4c616d706f7274426173653a204b65797320646f206e6f74206d617463680000604482015260640161038f565b600454818a6000808481526002602081905260409091205460ff16908111156118ac576118ac611fff565b1480156118da5750600082815260026020819052604082205460ff16908111156118d8576118d8611fff565b145b61193d5760405162461bcd60e51b815260206004820152602e60248201527f4c616d706f7274426173653a2050726f7669646564206b65797320617265206e60448201526d6f74206d6173746572206b65797360901b606482015260840161038f565b82811415801561194d5750818114155b6119b35760405162461bcd60e51b815260206004820152603160248201527f4c616d706f7274426173653a204d6173746572206b6579732063616e6e6f742060448201527064656c657465207468656d73656c76657360781b606482015260840161038f565b6000818152600260205260408120600101549003611a1f5760405162461bcd60e51b815260206004820152602360248201527f4c616d706f7274426173653a204e6f2073756368206b6579202864656c6574696044820152626f6e2960e81b606482015260840161038f565b60005b600154811015611b0c578160018281548110611a4057611a406126ae565b90600052602060002090600202016001015403611afa57600082815260026020818152604080842080548251428186015244818501528351808203850181526060909101938490528051908501209588905292849052630de1e7ed60e41b85186001820181905560ff198416851790915560ff9092169391927f0643be3612916977c69d5ed1abb75a50cca49df49ba2444d836e2a0cf65fe07491611aea91869189918791612a02565b60405180910390a1505050611b0c565b80611b04816126c4565b915050611a22565b5050600060038190556004555050505050505050505050505050565b8281838787604051602001611b3e9291906127b4565b60408051601f1981840301815291905260005460ff16611b705760405162461bcd60e51b815260040161038f906126eb565b600084604051602001611b839190612722565b60408051601f1981840301815291905280516020909101209050600160008281526002602081905260409091205460ff1690811115611bc457611bc4611fff565b14611c115760405162461bcd60e51b815260206004820152601e60248201527f4c616d706f7274426173653a204e6f7420616e206f7261636c65206b65790000604482015260640161038f565b60008284604051602001611c269291906127b4565b60408051601f198184030181529082905280516020918201208083529250600080516020612a75833981519152910160405180910390a16000611c6a828789610f57565b6000805461ff00191661010083151502179055905080611c9c5760405162461bcd60e51b815260040161038f906127d6565b60008381526002602052604090819020549051600080516020612a9583398151915291611cd29160ff9091169086908990612037565b60405180910390a1611ce48386611e44565b7f2f8bb53cd3bd0ad7f1e40674103a8a9352db4ff07b7505286d242c543ba70ccc8c8c604051611d15929190612a32565b60405180910390a1505050505050505050505050565b60006040518060400160405280846002811115611d4a57611d4a611fff565b81526020018390526001805480820182556000829052825160029182027fb10e2d527612073b26eecdfd717e6a320cf44b4afac2b0732d9fcbe2b7fa0cf6018054949550859490939192849260ff1990921691908490811115611daf57611daf611fff565b021790555060209182015160019182015560008481526002928390526040902083518154859492939192849260ff1990921691908490811115611df457611df4611fff565b0217905550602082015181600101559050507f2172c7b01a6de957d29fd6166a23025d181bf56538ad606a526ab2d62603f3fc8383604051611e37929190612082565b60405180910390a1505050565b6000828152600260205260408120600101549003611e745760405162461bcd60e51b815260040161038f90612677565b604080518082018252600084815260026020819052928120549092829160ff1690811115611ea457611ea4611fff565b8152602001838152509050806002600084815260200190815260200160002060008201518160000160006101000a81548160ff02191690836002811115611eed57611eed611fff565b02179055506020918201516001918201556000858152600290925260408220805460ff19168155018190555b600154811015611fc3578360018281548110611f3757611f376126ae565b90600052602060002090600202016001015403611fb1578160018281548110611f6257611f626126ae565b906000526020600020906002020160008201518160000160006101000a81548160ff02191690836002811115611f9a57611f9a611fff565b021790555060208201518160010155905050611fc3565b80611fbb816126c4565b915050611f19565b508051604051600080516020612a9583398151915291611e379186908690612037565b600060208284031215611ff857600080fd5b5035919050565b634e487b7160e01b600052602160045260246000fd5b6003811061203357634e487b7160e01b600052602160045260246000fd5b9052565b606081016120458286612015565b602082019390935260400152919050565b60008060006060848603121561206b57600080fd5b505081359360208301359350604090920135919050565b604081016120908285612015565b8260208301529392505050565b8061400081018310156120af57600080fd5b92915050565b8061200081018310156120af57600080fd5b634e487b7160e01b600052604160045260246000fd5b60006001600160401b03808411156120f7576120f76120c7565b604051601f8501601f19908116603f0116810190828211818310171561211f5761211f6120c7565b8160405280935085815286868601111561213857600080fd5b858560208301376000602087830101525050509392505050565b600080600080614060858703121561216957600080fd5b612173868661209d565b93506140008501356001600160401b038082111561219057600080fd5b61219c888389016120b5565b945061402087013593506140408701359150808211156121bb57600080fd5b508501601f810187136121cd57600080fd5b6121dc878235602084016120dd565b91505092959194509250565b60008060008061406085870312156121ff57600080fd5b612209868661209d565b93506140008501356001600160401b0381111561222557600080fd5b612231878288016120b5565b9497949650505050614020830135926140400135919050565b8061028081018310156120af57600080fd5b6000806000806142c0858703121561227357600080fd5b61227d868661224a565b935061228d86610280870161209d565b925061428085013591506142a08501356001600160401b038111156122b157600080fd5b6121dc878288016120b5565b60008060008061406085870312156122d457600080fd5b6122de868661209d565b935061400085013592506140208501356001600160401b0381111561230257600080fd5b61230e878288016120b5565b94979396509394614040013593505050565b600082601f83011261233157600080fd5b611005838335602085016120dd565b80356001600160a01b038116811461235757600080fd5b919050565b6000806000806000806000614320888a03121561237857600080fd5b612382898961224a565b9650612392896102808a0161209d565b95506142808801356001600160401b03808211156123af57600080fd5b6123bb8b838c01612320565b96506142a08a013595506123d26142c08b01612340565b94506142e08a01359150808211156123e957600080fd5b506123f68a828b016120b5565b925050614300880135905092959891949750929550565b6000806000614040848603121561242357600080fd5b8335925060208401356001600160401b0381111561244057600080fd5b61244c868287016120b5565b92505061245c856040860161209d565b90509250925092565b60006020828403121561247757600080fd5b81356003811061100557600080fd5b6020808252825182820181905260009190848201906040850190845b818110156124be578351835292840192918401916001016124a2565b50909695505050505050565b6000806000806000806140a087890312156124e457600080fd5b86356001600160401b03808211156124fb57600080fd5b6125078a838b01612320565b97506020890135965061251c60408a01612340565b955061252b8a60608b0161209d565b9450614060890135935061408089013591508082111561254a57600080fd5b5061255789828a016120b5565b9150509295509295509295565b600080600080600080614300878903121561257e57600080fd5b612588888861224a565b955061259888610280890161209d565b94506142808701356001600160401b038111156125b457600080fd5b6125c089828a01612320565b9450506142a087013592506125d86142c08801612340565b91506142e087013590509295509295509295565b6000806000806000614080868803121561260557600080fd5b85356001600160401b038082111561261c57600080fd5b61262889838a01612320565b96506020880135955061263e8960408a0161209d565b9450614040880135935061406088013591508082111561265d57600080fd5b5061266a888289016120b5565b9150509295509295909350565b60208082526018908201527f4c616d706f7274426173653a204e6f2073756368206b65790000000000000000604082015260600190565b634e487b7160e01b600052603260045260246000fd5b6000600182016126e457634e487b7160e01b600052601160045260246000fd5b5060010190565b6020808252601c908201527f4c616d706f7274426173653a206e6f7420696e697469616c697a656400000000604082015260600190565b60008183825b61010081101561274957604080838537928301929190910190600101612728565b5050506140008201905092915050565b6020808252601d908201527f4c616d706f7274426173653a204e6f742061206d6173746572206b6579000000604082015260600190565b60005b838110156127ab578181015183820152602001612793565b50506000910152565b600083516127c6818460208801612790565b9190910191825250602001919050565b6020808252818101527f4c616d706f7274426173653a20566572696669636174696f6e206661696c6564604082015260600190565b8060005b600a81101561282f5760408083863793840193919091019060010161280f565b50505050565b61283f818361280b565b61028001919050565b60006020808301818452808554808352604092508286019150866000528360002060005b8281101561289b5781546001600160a01b0316845260018281015487860152938501936002909201910161286c565b5091979650505050505050565b6128b2818661280b565b600061028085516128c98183860160208a01612790565b929092019182019390935260609190911b6bffffffffffffffffffffffff19166102a08201526102b4019392505050565b60008151808452612912816020860160208601612790565b601f01601f19169290920160200192915050565b60208152600061100560208301846128fa565b6000808335601e1984360301811261295057600080fd5b8301803591506001600160401b0382111561296a57600080fd5b60200191503681900382131561297f57600080fd5b9250929050565b8183823760009101908152919050565b600084516129a8818460208901612790565b919091019283525060601b6bffffffffffffffffffffffff19166020820152603401919050565b6060815260006129e260608301866128fa565b6020830194909452506001600160a01b0391909116604090910152919050565b60808101612a108287612015565b846020830152836040830152612a296060830184612015565b95945050505050565b604081526000612a4560408301856128fa565b9050826020830152939250505056fe32629d580208e19f97e5752eef849e102f803999c88aa7f75e12b1744eecd5a7d87e68f36f73a7eb22739d6639e36cafebfcde0b5543340b39f42cac68fdd1f06825a39bd161f4ef5aab6cfd2c26db3ee0005c11b43cffd544fc876312116edda26469706673582212206a1d41a69ec147150b8e59a07e92fb636796b9a00ef081f1d17a9f3c7f60cab664736f6c63430008150033","bytecodeSha1":"dd149721ce1b39f6672e62bbded4015da101e48b","compiler":{"evm_version":"istanbul","optimizer":{"enabled":true,"runs":200},"version":"0.8.21+commit.d9974bed"},"contractName":"LamportTest2","language":"Solidity","natspec":{"kind":"dev","methods":{},"version":1},"opcodes":"PUSH1 0x80 PUSH1 0x40 MSTORE CALLVALUE DUP1 ISZERO PUSH2 0x10 JUMPI PUSH1 0x0 DUP1 REVERT JUMPDEST POP PUSH1 0x4 CALLDATASIZE LT PUSH2 0x121 JUMPI PUSH1 0x0 CALLDATALOAD PUSH1 0xE0 SHR DUP1 PUSH4 0x8EB8F1A6 GT PUSH2 0xAD JUMPI DUP1 PUSH4 0xD77C8BFB GT PUSH2 0x71 JUMPI DUP1 PUSH4 0xD77C8BFB EQ PUSH2 0x2B1 JUMPI DUP1 PUSH4 0xD83C413C EQ PUSH2 0x2C4 JUMPI DUP1 PUSH4 0xDDC10085 EQ PUSH2 0x2D7 JUMPI DUP1 PUSH4 0xE673D71F EQ PUSH2 0x2EA JUMPI DUP1 PUSH4 0xECF017AC EQ PUSH2 0x2FD JUMPI PUSH1 0x0 DUP1 REVERT JUMPDEST DUP1 PUSH4 0x8EB8F1A6 EQ PUSH2 0x22B JUMPI DUP1 PUSH4 0x9C90C17F EQ PUSH2 0x23E JUMPI DUP1 PUSH4 0xA9711EE3 EQ PUSH2 0x251 JUMPI DUP1 PUSH4 0xAF82F3E7 EQ PUSH2 0x27E JUMPI DUP1 PUSH4 0xB97B4F77 EQ PUSH2 0x291 JUMPI PUSH1 0x0 DUP1 REVERT JUMPDEST DUP1 PUSH4 0x4BDD4499 GT PUSH2 0xF4 JUMPI DUP1 PUSH4 0x4BDD4499 EQ PUSH2 0x1A9 JUMPI DUP1 PUSH4 0x4E657D2A EQ PUSH2 0x1C0 JUMPI DUP1 PUSH4 0x5796841A EQ PUSH2 0x1D3 JUMPI DUP1 PUSH4 0x7FF8BB3A EQ PUSH2 0x1E6 JUMPI DUP1 PUSH4 0x81867B00 EQ PUSH2 0x218 JUMPI PUSH1 0x0 DUP1 REVERT JUMPDEST DUP1 PUSH4 0x5AACC7D EQ PUSH2 0x126 JUMPI DUP1 PUSH4 0xB0AD508 EQ PUSH2 0x151 JUMPI DUP1 PUSH4 0xCB6AAF1 EQ PUSH2 0x166 JUMPI DUP1 PUSH4 0x2FD5C247 EQ PUSH2 0x187 JUMPI JUMPDEST PUSH1 0x0 DUP1 REVERT JUMPDEST PUSH2 0x139 PUSH2 0x134 CALLDATASIZE PUSH1 0x4 PUSH2 0x1FE6 JUMP JUMPDEST PUSH2 0x310 JUMP JUMPDEST PUSH1 0x40 MLOAD PUSH2 0x148 SWAP4 SWAP3 SWAP2 SWAP1 PUSH2 0x2037 JUMP JUMPDEST PUSH1 0x40 MLOAD DUP1 SWAP2 SUB SWAP1 RETURN JUMPDEST PUSH2 0x164 PUSH2 0x15F CALLDATASIZE PUSH1 0x4 PUSH2 0x2056 JUMP JUMPDEST PUSH2 0x417 JUMP JUMPDEST STOP JUMPDEST PUSH2 0x179 PUSH2 0x174 CALLDATASIZE PUSH1 0x4 PUSH2 0x1FE6 JUMP JUMPDEST PUSH2 0x49D JUMP JUMPDEST PUSH1 0x40 MLOAD PUSH2 0x148 SWAP3 SWAP2 SWAP1 PUSH2 0x2082 JUMP JUMPDEST PUSH1 0x0 SLOAD PUSH2 0x199 SWAP1 PUSH2 0x100 SWAP1 DIV PUSH1 0xFF AND DUP2 JUMP JUMPDEST PUSH1 0x40 MLOAD SWAP1 ISZERO ISZERO DUP2 MSTORE PUSH1 0x20 ADD PUSH2 0x148 JUMP JUMPDEST PUSH2 0x1B2 PUSH1 0x5 SLOAD DUP2 JUMP JUMPDEST PUSH1 0x40 MLOAD SWAP1 DUP2 MSTORE PUSH1 0x20 ADD PUSH2 0x148 JUMP JUMPDEST PUSH2 0x164 PUSH2 0x1CE CALLDATASIZE PUSH1 0x4 PUSH2 0x2152 JUMP JUMPDEST PUSH2 0x4CF JUMP JUMPDEST PUSH2 0x164 PUSH2 0x1E1 CALLDATASIZE PUSH1 0x4 PUSH2 0x21E8 JUMP JUMPDEST PUSH2 0x670 JUMP JUMPDEST PUSH2 0x1F9 PUSH2 0x1F4 CALLDATASIZE PUSH1 0x4 PUSH2 0x1FE6 JUMP JUMPDEST PUSH2 0x8CF JUMP JUMPDEST PUSH1 0x40 DUP1 MLOAD PUSH1 0x1 PUSH1 0x1 PUSH1 0xA0 SHL SUB SWAP1 SWAP4 AND DUP4 MSTORE PUSH1 0x20 DUP4 ADD SWAP2 SWAP1 SWAP2 MSTORE ADD PUSH2 0x148 JUMP JUMPDEST PUSH2 0x164 PUSH2 0x226 CALLDATASIZE PUSH1 0x4 PUSH2 0x225C JUMP JUMPDEST PUSH2 0x907 JUMP JUMPDEST PUSH2 0x164 PUSH2 0x239 CALLDATASIZE PUSH1 0x4 PUSH2 0x22BD JUMP JUMPDEST PUSH2 0xB88 JUMP JUMPDEST PUSH2 0x164 PUSH2 0x24C CALLDATASIZE PUSH1 0x4 PUSH2 0x235C JUMP JUMPDEST PUSH2 0xD31 JUMP JUMPDEST PUSH2 0x179 PUSH2 0x25F CALLDATASIZE PUSH1 0x4 PUSH2 0x1FE6 JUMP JUMPDEST PUSH1 0x2 PUSH1 0x20 MSTORE PUSH1 0x0 SWAP1 DUP2 MSTORE PUSH1 0x40 SWAP1 KECCAK256 DUP1 SLOAD PUSH1 0x1 SWAP1 SWAP2 ADD SLOAD PUSH1 0xFF SWAP1 SWAP2 AND SWAP1 DUP3 JUMP JUMPDEST PUSH2 0x199 PUSH2 0x28C CALLDATASIZE PUSH1 0x4 PUSH2 0x240D JUMP JUMPDEST PUSH2 0xF57 JUMP JUMPDEST PUSH2 0x2A4 PUSH2 0x29F CALLDATASIZE PUSH1 0x4 PUSH2 0x2465 JUMP JUMPDEST PUSH2 0x100C JUMP JUMPDEST PUSH1 0x40 MLOAD PUSH2 0x148 SWAP2 SWAP1 PUSH2 0x2486 JUMP JUMPDEST PUSH2 0x164 PUSH2 0x2BF CALLDATASIZE PUSH1 0x4 PUSH2 0x24CA JUMP JUMPDEST PUSH2 0x11BA JUMP JUMPDEST PUSH2 0x164 PUSH2 0x2D2 CALLDATASIZE PUSH1 0x4 PUSH2 0x21E8 JUMP JUMPDEST PUSH2 0x13C2 JUMP JUMPDEST PUSH2 0x164 PUSH2 0x2E5 CALLDATASIZE PUSH1 0x4 PUSH2 0x2564 JUMP JUMPDEST PUSH2 0x156A JUMP JUMPDEST PUSH2 0x164 PUSH2 0x2F8 CALLDATASIZE PUSH1 0x4 PUSH2 0x21E8 JUMP JUMPDEST PUSH2 0x15F3 JUMP JUMPDEST PUSH2 0x164 PUSH2 0x30B CALLDATASIZE PUSH1 0x4 PUSH2 0x25EC JUMP JUMPDEST PUSH2 0x1B28 JUMP JUMPDEST PUSH1 0x0 DUP2 DUP2 MSTORE PUSH1 0x2 PUSH1 0x20 DUP2 SWAP1 MSTORE PUSH1 0x40 DUP1 DUP4 KECCAK256 DUP2 MLOAD DUP1 DUP4 ADD SWAP1 SWAP3 MSTORE DUP1 SLOAD DUP5 SWAP4 DUP5 SWAP4 DUP5 SWAP4 SWAP1 SWAP3 SWAP1 SWAP2 DUP4 SWAP2 PUSH1 0xFF AND SWAP1 DUP2 GT ISZERO PUSH2 0x34A JUMPI PUSH2 0x34A PUSH2 0x1FFF JUMP JUMPDEST PUSH1 0x2 DUP2 GT ISZERO PUSH2 0x35B JUMPI PUSH2 0x35B PUSH2 0x1FFF JUMP JUMPDEST DUP2 MSTORE PUSH1 0x1 SWAP2 SWAP1 SWAP2 ADD SLOAD PUSH1 0x20 SWAP2 DUP3 ADD MSTORE DUP2 ADD MLOAD SWAP1 SWAP2 POP PUSH1 0x0 SUB PUSH2 0x398 JUMPI PUSH1 0x40 MLOAD PUSH3 0x461BCD PUSH1 0xE5 SHL DUP2 MSTORE PUSH1 0x4 ADD PUSH2 0x38F SWAP1 PUSH2 0x2677 JUMP JUMPDEST PUSH1 0x40 MLOAD DUP1 SWAP2 SUB SWAP1 REVERT JUMPDEST PUSH1 0x0 JUMPDEST PUSH1 0x1 SLOAD DUP2 LT ISZERO PUSH2 0x3F7 JUMPI DUP6 PUSH1 0x1 DUP3 DUP2 SLOAD DUP2 LT PUSH2 0x3B9 JUMPI PUSH2 0x3B9 PUSH2 0x26AE JUMP JUMPDEST SWAP1 PUSH1 0x0 MSTORE PUSH1 0x20 PUSH1 0x0 KECCAK256 SWAP1 PUSH1 0x2 MUL ADD PUSH1 0x1 ADD SLOAD SUB PUSH2 0x3E5 JUMPI DUP2 MLOAD PUSH1 0x20 SWAP1 SWAP3 ADD MLOAD SWAP2 SWAP5 POP SWAP1 SWAP3 POP SWAP1 POP PUSH2 0x410 JUMP JUMPDEST DUP1 PUSH2 0x3EF DUP2 PUSH2 0x26C4 JUMP JUMPDEST SWAP2 POP POP PUSH2 0x39B JUMP JUMPDEST POP PUSH1 0x40 MLOAD PUSH3 0x461BCD PUSH1 0xE5 SHL DUP2 MSTORE PUSH1 0x4 ADD PUSH2 0x38F SWAP1 PUSH2 0x2677 JUMP JUMPDEST SWAP2 SWAP4 SWAP1 SWAP3 POP JUMP JUMPDEST PUSH1 0x0 SLOAD PUSH1 0xFF AND ISZERO PUSH2 0x46A JUMPI PUSH1 0x40 MLOAD PUSH3 0x461BCD PUSH1 0xE5 SHL DUP2 MSTORE PUSH1 0x20 PUSH1 0x4 DUP3 ADD DUP2 SWAP1 MSTORE PUSH1 0x24 DUP3 ADD MSTORE PUSH32 0x4C616D706F7274426173653A20416C726561647920696E697469616C697A6564 PUSH1 0x44 DUP3 ADD MSTORE PUSH1 0x64 ADD PUSH2 0x38F JUMP JUMPDEST PUSH2 0x475 PUSH1 0x0 DUP5 PUSH2 0x1D2B JUMP JUMPDEST PUSH2 0x480 PUSH1 0x0 DUP4 PUSH2 0x1D2B JUMP JUMPDEST PUSH2 0x48B PUSH1 0x1 DUP3 PUSH2 0x1D2B JUMP JUMPDEST POP POP PUSH1 0x0 DUP1 SLOAD PUSH1 0xFF NOT AND PUSH1 0x1 OR SWAP1 SSTORE POP JUMP JUMPDEST PUSH1 0x1 DUP2 DUP2 SLOAD DUP2 LT PUSH2 0x4AD JUMPI PUSH1 0x0 DUP1 REVERT JUMPDEST PUSH1 0x0 SWAP2 DUP3 MSTORE PUSH1 0x20 SWAP1 SWAP2 KECCAK256 PUSH1 0x2 SWAP1 SWAP2 MUL ADD DUP1 SLOAD PUSH1 0x1 SWAP1 SWAP2 ADD SLOAD PUSH1 0xFF SWAP1 SWAP2 AND SWAP2 POP DUP3 JUMP JUMPDEST PUSH1 0x0 SLOAD DUP5 SWAP1 DUP5 SWAP1 DUP5 SWAP1 DUP5 SWAP1 PUSH1 0xFF AND PUSH2 0x4F9 JUMPI PUSH1 0x40 MLOAD PUSH3 0x461BCD PUSH1 0xE5 SHL DUP2 MSTORE PUSH1 0x4 ADD PUSH2 0x38F SWAP1 PUSH2 0x26EB JUMP JUMPDEST PUSH1 0x0 DUP5 PUSH1 0x40 MLOAD PUSH1 0x20 ADD PUSH2 0x50C SWAP2 SWAP1 PUSH2 0x2722 JUMP JUMPDEST PUSH1 0x40 DUP1 MLOAD PUSH1 0x1F NOT DUP2 DUP5 SUB ADD DUP2 MSTORE SWAP2 SWAP1 MSTORE DUP1 MLOAD PUSH1 0x20 SWAP1 SWAP2 ADD KECCAK256 SWAP1 POP PUSH1 0x0 DUP1 DUP3 DUP2 MSTORE PUSH1 0x2 PUSH1 0x20 DUP2 SWAP1 MSTORE PUSH1 0x40 SWAP1 SWAP2 KECCAK256 SLOAD PUSH1 0xFF AND SWAP1 DUP2 GT ISZERO PUSH2 0x54C JUMPI PUSH2 0x54C PUSH2 0x1FFF JUMP JUMPDEST EQ PUSH2 0x569 JUMPI PUSH1 0x40 MLOAD PUSH3 0x461BCD PUSH1 0xE5 SHL DUP2 MSTORE PUSH1 0x4 ADD PUSH2 0x38F SWAP1 PUSH2 0x2759 JUMP JUMPDEST PUSH1 0x0 DUP3 DUP5 PUSH1 0x40 MLOAD PUSH1 0x20 ADD PUSH2 0x57E SWAP3 SWAP2 SWAP1 PUSH2 0x27B4 JUMP JUMPDEST PUSH1 0x40 DUP1 MLOAD PUSH1 0x1F NOT DUP2 DUP5 SUB ADD DUP2 MSTORE SWAP1 DUP3 SWAP1 MSTORE DUP1 MLOAD PUSH1 0x20 SWAP2 DUP3 ADD KECCAK256 DUP1 DUP4 MSTORE SWAP3 POP PUSH1 0x0 DUP1 MLOAD PUSH1 0x20 PUSH2 0x2A75 DUP4 CODECOPY DUP2 MLOAD SWAP2 MSTORE SWAP2 ADD PUSH1 0x40 MLOAD DUP1 SWAP2 SUB SWAP1 LOG1 PUSH1 0x0 PUSH2 0x5C2 DUP3 DUP8 DUP10 PUSH2 0xF57 JUMP JUMPDEST PUSH1 0x0 DUP1 SLOAD PUSH2 0xFF00 NOT AND PUSH2 0x100 DUP4 ISZERO ISZERO MUL OR SWAP1 SSTORE SWAP1 POP DUP1 PUSH2 0x616 JUMPI PUSH1 0x40 MLOAD DUP3 DUP2 MSTORE PUSH1 0x0 DUP1 MLOAD PUSH1 0x20 PUSH2 0x2A55 DUP4 CODECOPY DUP2 MLOAD SWAP2 MSTORE SWAP1 PUSH1 0x20 ADD JUMPDEST PUSH1 0x40 MLOAD DUP1 SWAP2 SUB SWAP1 LOG1 PUSH1 0x40 MLOAD PUSH3 0x461BCD PUSH1 0xE5 SHL DUP2 MSTORE PUSH1 0x4 ADD PUSH2 0x38F SWAP1 PUSH2 0x27D6 JUMP JUMPDEST PUSH1 0x0 DUP4 DUP2 MSTORE PUSH1 0x2 PUSH1 0x20 MSTORE PUSH1 0x40 SWAP1 DUP2 SWAP1 KECCAK256 SLOAD SWAP1 MLOAD PUSH1 0x0 DUP1 MLOAD PUSH1 0x20 PUSH2 0x2A95 DUP4 CODECOPY DUP2 MLOAD SWAP2 MSTORE SWAP2 PUSH2 0x64C SWAP2 PUSH1 0xFF SWAP1 SWAP2 AND SWAP1 DUP7 SWAP1 DUP10 SWAP1 PUSH2 0x2037 JUMP JUMPDEST PUSH1 0x40 MLOAD DUP1 SWAP2 SUB SWAP1 LOG1 PUSH2 0x65E DUP4 DUP7 PUSH2 0x1E44 JUMP JUMPDEST POP POP POP PUSH1 0x5 SWAP6 SWAP1 SWAP6 SSTORE POP POP POP POP POP POP POP JUMP JUMPDEST DUP4 DUP4 DUP4 DUP4 PUSH1 0x40 MLOAD PUSH1 0x20 ADD PUSH2 0x686 SWAP2 DUP2 MSTORE PUSH1 0x20 ADD SWAP1 JUMP JUMPDEST PUSH1 0x40 DUP1 MLOAD PUSH1 0x1F NOT DUP2 DUP5 SUB ADD DUP2 MSTORE SWAP2 SWAP1 MSTORE PUSH1 0x0 SLOAD PUSH1 0xFF AND PUSH2 0x6B8 JUMPI PUSH1 0x40 MLOAD PUSH3 0x461BCD PUSH1 0xE5 SHL DUP2 MSTORE PUSH1 0x4 ADD PUSH2 0x38F SWAP1 PUSH2 0x26EB JUMP JUMPDEST PUSH1 0x0 DUP5 PUSH1 0x40 MLOAD PUSH1 0x20 ADD PUSH2 0x6CB SWAP2 SWAP1 PUSH2 0x2722 JUMP JUMPDEST PUSH1 0x40 DUP1 MLOAD PUSH1 0x1F NOT DUP2 DUP5 SUB ADD DUP2 MSTORE SWAP2 SWAP1 MSTORE DUP1 MLOAD PUSH1 0x20 SWAP1 SWAP2 ADD KECCAK256 SWAP1 POP PUSH1 0x0 DUP1 DUP3 DUP2 MSTORE PUSH1 0x2 PUSH1 0x20 DUP2 SWAP1 MSTORE PUSH1 0x40 SWAP1 SWAP2 KECCAK256 SLOAD PUSH1 0xFF AND SWAP1 DUP2 GT ISZERO PUSH2 0x70B JUMPI PUSH2 0x70B PUSH2 0x1FFF JUMP JUMPDEST EQ PUSH2 0x728 JUMPI PUSH1 0x40 MLOAD PUSH3 0x461BCD PUSH1 0xE5 SHL DUP2 MSTORE PUSH1 0x4 ADD PUSH2 0x38F SWAP1 PUSH2 0x2759 JUMP JUMPDEST PUSH1 0x0 DUP3 DUP5 PUSH1 0x40 MLOAD PUSH1 0x20 ADD PUSH2 0x73D SWAP3 SWAP2 SWAP1 PUSH2 0x27B4 JUMP JUMPDEST PUSH1 0x40 DUP1 MLOAD PUSH1 0x1F NOT DUP2 DUP5 SUB ADD DUP2 MSTORE SWAP1 DUP3 SWAP1 MSTORE DUP1 MLOAD PUSH1 0x20 SWAP2 DUP3 ADD KECCAK256 DUP1 DUP4 MSTORE SWAP3 POP PUSH1 0x0 DUP1 MLOAD PUSH1 0x20 PUSH2 0x2A75 DUP4 CODECOPY DUP2 MLOAD SWAP2 MSTORE SWAP2 ADD PUSH1 0x40 MLOAD DUP1 SWAP2 SUB SWAP1 LOG1 PUSH1 0x0 PUSH2 0x781 DUP3 DUP8 DUP10 PUSH2 0xF57 JUMP JUMPDEST PUSH1 0x0 DUP1 SLOAD PUSH2 0xFF00 NOT AND PUSH2 0x100 DUP4 ISZERO ISZERO MUL OR SWAP1 SSTORE SWAP1 POP DUP1 PUSH2 0x7B9 JUMPI PUSH1 0x40 MLOAD DUP3 DUP2 MSTORE PUSH1 0x0 DUP1 MLOAD PUSH1 0x20 PUSH2 0x2A55 DUP4 CODECOPY DUP2 MLOAD SWAP2 MSTORE SWAP1 PUSH1 0x20 ADD PUSH2 0x5F6 JUMP JUMPDEST PUSH1 0x0 DUP4 DUP2 MSTORE PUSH1 0x2 PUSH1 0x20 MSTORE PUSH1 0x40 SWAP1 DUP2 SWAP1 KECCAK256 SLOAD SWAP1 MLOAD PUSH1 0x0 DUP1 MLOAD PUSH1 0x20 PUSH2 0x2A95 DUP4 CODECOPY DUP2 MLOAD SWAP2 MSTORE SWAP2 PUSH2 0x7EF SWAP2 PUSH1 0xFF SWAP1 SWAP2 AND SWAP1 DUP7 SWAP1 DUP10 SWAP1 PUSH2 0x2037 JUMP JUMPDEST PUSH1 0x40 MLOAD DUP1 SWAP2 SUB SWAP1 LOG1 PUSH2 0x801 DUP4 DUP7 PUSH2 0x1E44 JUMP JUMPDEST PUSH1 0x0 DUP12 PUSH1 0x40 MLOAD PUSH1 0x20 ADD PUSH2 0x814 SWAP2 SWAP1 PUSH2 0x2722 JUMP JUMPDEST PUSH1 0x40 DUP1 MLOAD PUSH1 0x1F NOT DUP2 DUP5 SUB ADD DUP2 MSTORE SWAP2 SWAP1 MSTORE DUP1 MLOAD PUSH1 0x20 SWAP1 SWAP2 ADD KECCAK256 PUSH1 0x5 DUP1 SLOAD PUSH1 0x0 SWAP1 SWAP2 SSTORE SWAP1 SWAP2 POP DUP2 EQ ISZERO DUP1 PUSH2 0x8B0 JUMPI PUSH1 0x40 DUP1 MLOAD PUSH3 0x461BCD PUSH1 0xE5 SHL DUP2 MSTORE PUSH1 0x20 PUSH1 0x4 DUP3 ADD MSTORE PUSH1 0x24 DUP2 ADD SWAP2 SWAP1 SWAP2 MSTORE PUSH32 0x4C616D706F7274426173653A20504B48206D617463686573206C617374207573 PUSH1 0x44 DUP3 ADD MSTORE PUSH32 0x656420504B482028757365207365706172617465207365636F6E64206B657929 PUSH1 0x64 DUP3 ADD MSTORE PUSH1 0x84 ADD PUSH2 0x38F JUMP JUMPDEST PUSH2 0x8BB PUSH1 0x0 DUP12 PUSH2 0x1D2B JUMP JUMPDEST POP POP PUSH1 0x0 PUSH1 0x5 SSTORE POP POP POP POP POP POP POP POP POP POP POP JUMP JUMPDEST PUSH1 0x6 DUP2 DUP2 SLOAD DUP2 LT PUSH2 0x8DF JUMPI PUSH1 0x0 DUP1 REVERT JUMPDEST PUSH1 0x0 SWAP2 DUP3 MSTORE PUSH1 0x20 SWAP1 SWAP2 KECCAK256 PUSH1 0x2 SWAP1 SWAP2 MUL ADD DUP1 SLOAD PUSH1 0x1 SWAP1 SWAP2 ADD SLOAD PUSH1 0x1 PUSH1 0x1 PUSH1 0xA0 SHL SUB SWAP1 SWAP2 AND SWAP2 POP DUP3 JUMP JUMPDEST DUP3 DUP2 DUP4 DUP7 PUSH1 0x40 MLOAD PUSH1 0x20 ADD PUSH2 0x91B SWAP2 SWAP1 PUSH2 0x2835 JUMP JUMPDEST PUSH1 0x40 DUP1 MLOAD PUSH1 0x1F NOT DUP2 DUP5 SUB ADD DUP2 MSTORE SWAP2 SWAP1 MSTORE PUSH1 0x0 SLOAD PUSH1 0xFF AND PUSH2 0x94D JUMPI PUSH1 0x40 MLOAD PUSH3 0x461BCD PUSH1 0xE5 SHL DUP2 MSTORE PUSH1 0x4 ADD PUSH2 0x38F SWAP1 PUSH2 0x26EB JUMP JUMPDEST PUSH1 0x0 DUP5 PUSH1 0x40 MLOAD PUSH1 0x20 ADD PUSH2 0x960 SWAP2 SWAP1 PUSH2 0x2722 JUMP JUMPDEST PUSH1 0x40 DUP1 MLOAD PUSH1 0x1F NOT DUP2 DUP5 SUB ADD DUP2 MSTORE SWAP2 SWAP1 MSTORE DUP1 MLOAD PUSH1 0x20 SWAP1 SWAP2 ADD KECCAK256 SWAP1 POP PUSH1 0x0 DUP1 DUP3 DUP2 MSTORE PUSH1 0x2 PUSH1 0x20 DUP2 SWAP1 MSTORE PUSH1 0x40 SWAP1 SWAP2 KECCAK256 SLOAD PUSH1 0xFF AND SWAP1 DUP2 GT ISZERO PUSH2 0x9A0 JUMPI PUSH2 0x9A0 PUSH2 0x1FFF JUMP JUMPDEST EQ PUSH2 0x9BD JUMPI PUSH1 0x40 MLOAD PUSH3 0x461BCD PUSH1 0xE5 SHL DUP2 MSTORE PUSH1 0x4 ADD PUSH2 0x38F SWAP1 PUSH2 0x2759 JUMP JUMPDEST PUSH1 0x0 DUP3 DUP5 PUSH1 0x40 MLOAD PUSH1 0x20 ADD PUSH2 0x9D2 SWAP3 SWAP2 SWAP1 PUSH2 0x27B4 JUMP JUMPDEST PUSH1 0x40 DUP1 MLOAD PUSH1 0x1F NOT DUP2 DUP5 SUB ADD DUP2 MSTORE SWAP1 DUP3 SWAP1 MSTORE DUP1 MLOAD PUSH1 0x20 SWAP2 DUP3 ADD KECCAK256 DUP1 DUP4 MSTORE SWAP3 POP PUSH1 0x0 DUP1 MLOAD PUSH1 0x20 PUSH2 0x2A75 DUP4 CODECOPY DUP2 MLOAD SWAP2 MSTORE SWAP2 ADD PUSH1 0x40 MLOAD DUP1 SWAP2 SUB SWAP1 LOG1 PUSH1 0x0 PUSH2 0xA16 DUP3 DUP8 DUP10 PUSH2 0xF57 JUMP JUMPDEST PUSH1 0x0 DUP1 SLOAD PUSH2 0xFF00 NOT AND PUSH2 0x100 DUP4 ISZERO ISZERO MUL OR SWAP1 SSTORE SWAP1 POP DUP1 PUSH2 0xA4E JUMPI PUSH1 0x40 MLOAD DUP3 DUP2 MSTORE PUSH1 0x0 DUP1 MLOAD PUSH1 0x20 PUSH2 0x2A55 DUP4 CODECOPY DUP2 MLOAD SWAP2 MSTORE SWAP1 PUSH1 0x20 ADD PUSH2 0x5F6 JUMP JUMPDEST PUSH1 0x0 DUP4 DUP2 MSTORE PUSH1 0x2 PUSH1 0x20 MSTORE PUSH1 0x40 SWAP1 DUP2 SWAP1 KECCAK256 SLOAD SWAP1 MLOAD PUSH1 0x0 DUP1 MLOAD PUSH1 0x20 PUSH2 0x2A95 DUP4 CODECOPY DUP2 MLOAD SWAP2 MSTORE SWAP2 PUSH2 0xA84 SWAP2 PUSH1 0xFF SWAP1 SWAP2 AND SWAP1 DUP7 SWAP1 DUP10 SWAP1 PUSH2 0x2037 JUMP JUMPDEST PUSH1 0x40 MLOAD DUP1 SWAP2 SUB SWAP1 LOG1 PUSH2 0xA96 DUP4 DUP7 PUSH2 0x1E44 JUMP JUMPDEST PUSH1 0x0 JUMPDEST PUSH1 0xA DUP2 LT ISZERO PUSH2 0xB42 JUMPI PUSH1 0x6 PUSH1 0x40 MLOAD DUP1 PUSH1 0x40 ADD PUSH1 0x40 MSTORE DUP1 DUP15 DUP5 PUSH1 0xA DUP2 LT PUSH2 0xAC1 JUMPI PUSH2 0xAC1 PUSH2 0x26AE JUMP JUMPDEST PUSH1 0x40 MUL ADD CALLDATALOAD PUSH1 0x60 SHR DUP2 MSTORE PUSH1 0x20 ADD DUP15 DUP5 PUSH1 0xA DUP2 LT PUSH2 0xAE0 JUMPI PUSH2 0xAE0 PUSH2 0x26AE JUMP JUMPDEST PUSH1 0x40 MUL ADD PUSH1 0x1 PUSH1 0x20 SWAP1 DUP2 MUL SWAP2 SWAP1 SWAP2 ADD CALLDATALOAD SWAP1 SWAP2 MSTORE DUP3 SLOAD PUSH1 0x1 DUP1 DUP3 ADD DUP6 SSTORE PUSH1 0x0 SWAP5 DUP6 MSTORE SWAP4 DUP3 SWAP1 KECCAK256 DUP4 MLOAD PUSH1 0x2 SWAP1 SWAP3 MUL ADD DUP1 SLOAD PUSH1 0x1 PUSH1 0x1 PUSH1 0xA0 SHL SUB NOT AND PUSH1 0x1 PUSH1 0x1 PUSH1 0xA0 SHL SUB SWAP1 SWAP3 AND SWAP2 SWAP1 SWAP2 OR DUP2 SSTORE SWAP2 ADD MLOAD SWAP2 ADD SSTORE DUP1 PUSH2 0xB3A DUP2 PUSH2 0x26C4 JUMP JUMPDEST SWAP2 POP POP PUSH2 0xA99 JUMP JUMPDEST POP PUSH32 0xE97438C7690599FAE9AFA6AB3FFD17F5A6BDF6DE48E8645C7D35A0B1E6479FBA PUSH1 0x6 PUSH1 0x40 MLOAD PUSH2 0xB73 SWAP2 SWAP1 PUSH2 0x2848 JUMP JUMPDEST PUSH1 0x40 MLOAD DUP1 SWAP2 SUB SWAP1 LOG1 POP POP POP POP POP POP POP POP POP POP POP JUMP JUMPDEST DUP4 DUP3 DUP5 DUP4 PUSH1 0x40 MLOAD PUSH1 0x20 ADD PUSH2 0xB9E SWAP2 DUP2 MSTORE PUSH1 0x20 ADD SWAP1 JUMP JUMPDEST PUSH1 0x40 DUP1 MLOAD PUSH1 0x1F NOT DUP2 DUP5 SUB ADD DUP2 MSTORE SWAP2 SWAP1 MSTORE PUSH1 0x0 SLOAD PUSH1 0xFF AND PUSH2 0xBD0 JUMPI PUSH1 0x40 MLOAD PUSH3 0x461BCD PUSH1 0xE5 SHL DUP2 MSTORE PUSH1 0x4 ADD PUSH2 0x38F SWAP1 PUSH2 0x26EB JUMP JUMPDEST PUSH1 0x0 DUP5 PUSH1 0x40 MLOAD PUSH1 0x20 ADD PUSH2 0xBE3 SWAP2 SWAP1 PUSH2 0x2722 JUMP JUMPDEST PUSH1 0x40 DUP1 MLOAD PUSH1 0x1F NOT DUP2 DUP5 SUB ADD DUP2 MSTORE SWAP2 SWAP1 MSTORE DUP1 MLOAD PUSH1 0x20 SWAP1 SWAP2 ADD KECCAK256 SWAP1 POP PUSH1 0x0 DUP1 DUP3 DUP2 MSTORE PUSH1 0x2 PUSH1 0x20 DUP2 SWAP1 MSTORE PUSH1 0x40 SWAP1 SWAP2 KECCAK256 SLOAD PUSH1 0xFF AND SWAP1 DUP2 GT ISZERO PUSH2 0xC23 JUMPI PUSH2 0xC23 PUSH2 0x1FFF JUMP JUMPDEST EQ PUSH2 0xC40 JUMPI PUSH1 0x40 MLOAD PUSH3 0x461BCD PUSH1 0xE5 SHL DUP2 MSTORE PUSH1 0x4 ADD PUSH2 0x38F SWAP1 PUSH2 0x2759 JUMP JUMPDEST PUSH1 0x0 DUP3 DUP5 PUSH1 0x40 MLOAD PUSH1 0x20 ADD PUSH2 0xC55 SWAP3 SWAP2 SWAP1 PUSH2 0x27B4 JUMP JUMPDEST PUSH1 0x40 DUP1 MLOAD PUSH1 0x1F NOT DUP2 DUP5 SUB ADD DUP2 MSTORE SWAP1 DUP3 SWAP1 MSTORE DUP1 MLOAD PUSH1 0x20 SWAP2 DUP3 ADD KECCAK256 DUP1 DUP4 MSTORE SWAP3 POP PUSH1 0x0 DUP1 MLOAD PUSH1 0x20 PUSH2 0x2A75 DUP4 CODECOPY DUP2 MLOAD SWAP2 MSTORE SWAP2 ADD PUSH1 0x40 MLOAD DUP1 SWAP2 SUB SWAP1 LOG1 PUSH1 0x0 PUSH2 0xC99 DUP3 DUP8 DUP10 PUSH2 0xF57 JUMP JUMPDEST PUSH1 0x0 DUP1 SLOAD PUSH2 0xFF00 NOT AND PUSH2 0x100 DUP4 ISZERO ISZERO MUL OR SWAP1 SSTORE SWAP1 POP DUP1 PUSH2 0xCD1 JUMPI PUSH1 0x40 MLOAD DUP3 DUP2 MSTORE PUSH1 0x0 DUP1 MLOAD PUSH1 0x20 PUSH2 0x2A55 DUP4 CODECOPY DUP2 MLOAD SWAP2 MSTORE SWAP1 PUSH1 0x20 ADD PUSH2 0x5F6 JUMP JUMPDEST PUSH1 0x0 DUP4 DUP2 MSTORE PUSH1 0x2 PUSH1 0x20 MSTORE PUSH1 0x40 SWAP1 DUP2 SWAP1 KECCAK256 SLOAD SWAP1 MLOAD PUSH1 0x0 DUP1 MLOAD PUSH1 0x20 PUSH2 0x2A95 DUP4 CODECOPY DUP2 MLOAD SWAP2 MSTORE SWAP2 PUSH2 0xD07 SWAP2 PUSH1 0xFF SWAP1 SWAP2 AND SWAP1 DUP7 SWAP1 DUP10 SWAP1 PUSH2 0x2037 JUMP JUMPDEST PUSH1 0x40 MLOAD DUP1 SWAP2 SUB SWAP1 LOG1 PUSH2 0xD19 DUP4 DUP7 PUSH2 0x1E44 JUMP JUMPDEST PUSH2 0xD24 PUSH1 0x1 DUP10 PUSH2 0x1D2B JUMP JUMPDEST POP POP POP POP POP POP POP POP POP POP POP JUMP JUMPDEST DUP6 DUP3 DUP3 DUP10 DUP9 DUP9 DUP9 PUSH1 0x40 MLOAD PUSH1 0x20 ADD PUSH2 0xD4B SWAP5 SWAP4 SWAP3 SWAP2 SWAP1 PUSH2 0x28A8 JUMP JUMPDEST PUSH1 0x40 DUP1 MLOAD PUSH1 0x1F NOT DUP2 DUP5 SUB ADD DUP2 MSTORE SWAP2 SWAP1 MSTORE PUSH1 0x0 SLOAD PUSH1 0xFF AND PUSH2 0xD7D JUMPI PUSH1 0x40 MLOAD PUSH3 0x461BCD PUSH1 0xE5 SHL DUP2 MSTORE PUSH1 0x4 ADD PUSH2 0x38F SWAP1 PUSH2 0x26EB JUMP JUMPDEST PUSH1 0x0 DUP5 PUSH1 0x40 MLOAD PUSH1 0x20 ADD PUSH2 0xD90 SWAP2 SWAP1 PUSH2 0x2722 JUMP JUMPDEST PUSH1 0x40 DUP1 MLOAD PUSH1 0x1F NOT DUP2 DUP5 SUB ADD DUP2 MSTORE SWAP2 SWAP1 MSTORE DUP1 MLOAD PUSH1 0x20 SWAP1 SWAP2 ADD KECCAK256 SWAP1 POP PUSH1 0x0 DUP1 DUP3 DUP2 MSTORE PUSH1 0x2 PUSH1 0x20 DUP2 SWAP1 MSTORE PUSH1 0x40 SWAP1 SWAP2 KECCAK256 SLOAD PUSH1 0xFF AND SWAP1 DUP2 GT ISZERO PUSH2 0xDD0 JUMPI PUSH2 0xDD0 PUSH2 0x1FFF JUMP JUMPDEST EQ PUSH2 0xDED JUMPI PUSH1 0x40 MLOAD PUSH3 0x461BCD PUSH1 0xE5 SHL DUP2 MSTORE PUSH1 0x4 ADD PUSH2 0x38F SWAP1 PUSH2 0x2759 JUMP JUMPDEST PUSH1 0x0 DUP3 DUP5 PUSH1 0x40 MLOAD PUSH1 0x20 ADD PUSH2 0xE02 SWAP3 SWAP2 SWAP1 PUSH2 0x27B4 JUMP JUMPDEST PUSH1 0x40 DUP1 MLOAD PUSH1 0x1F NOT DUP2 DUP5 SUB ADD DUP2 MSTORE SWAP1 DUP3 SWAP1 MSTORE DUP1 MLOAD PUSH1 0x20 SWAP2 DUP3 ADD KECCAK256 DUP1 DUP4 MSTORE SWAP3 POP PUSH1 0x0 DUP1 MLOAD PUSH1 0x20 PUSH2 0x2A75 DUP4 CODECOPY DUP2 MLOAD SWAP2 MSTORE SWAP2 ADD PUSH1 0x40 MLOAD DUP1 SWAP2 SUB SWAP1 LOG1 PUSH1 0x0 PUSH2 0xE46 DUP3 DUP8 DUP10 PUSH2 0xF57 JUMP JUMPDEST PUSH1 0x0 DUP1 SLOAD PUSH2 0xFF00 NOT AND PUSH2 0x100 DUP4 ISZERO ISZERO MUL OR SWAP1 SSTORE SWAP1 POP DUP1 PUSH2 0xE7E JUMPI PUSH1 0x40 MLOAD DUP3 DUP2 MSTORE PUSH1 0x0 DUP1 MLOAD PUSH1 0x20 PUSH2 0x2A55 DUP4 CODECOPY DUP2 MLOAD SWAP2 MSTORE SWAP1 PUSH1 0x20 ADD PUSH2 0x5F6 JUMP JUMPDEST PUSH1 0x0 DUP4 DUP2 MSTORE PUSH1 0x2 PUSH1 0x20 MSTORE PUSH1 0x40 SWAP1 DUP2 SWAP1 KECCAK256 SLOAD SWAP1 MLOAD PUSH1 0x0 DUP1 MLOAD PUSH1 0x20 PUSH2 0x2A95 DUP4 CODECOPY DUP2 MLOAD SWAP2 MSTORE SWAP2 PUSH2 0xEB4 SWAP2 PUSH1 0xFF SWAP1 SWAP2 AND SWAP1 DUP7 SWAP1 DUP10 SWAP1 PUSH2 0x2037 JUMP JUMPDEST PUSH1 0x40 MLOAD DUP1 SWAP2 SUB SWAP1 LOG1 PUSH2 0xEC6 DUP4 DUP7 PUSH2 0x1E44 JUMP JUMPDEST PUSH1 0x0 DUP15 DUP14 DUP14 DUP14 PUSH1 0x40 MLOAD PUSH1 0x20 ADD PUSH2 0xEDF SWAP5 SWAP4 SWAP3 SWAP2 SWAP1 PUSH2 0x28A8 JUMP JUMPDEST PUSH1 0x40 MLOAD PUSH1 0x20 DUP2 DUP4 SUB SUB DUP2 MSTORE SWAP1 PUSH1 0x40 MSTORE SWAP1 POP PUSH32 0x439E3CE2FB9A6BC9B02ECA4ED3A05602D64D28B25644D289D8ADDE65C3A5DF3 DUP2 DUP11 PUSH1 0x40 MLOAD PUSH1 0x20 ADD PUSH2 0xF24 SWAP3 SWAP2 SWAP1 PUSH2 0x27B4 JUMP JUMPDEST PUSH1 0x40 DUP1 MLOAD PUSH1 0x1F NOT DUP2 DUP5 SUB ADD DUP2 MSTORE SWAP1 DUP3 SWAP1 MSTORE PUSH2 0xF3E SWAP2 PUSH2 0x2926 JUMP JUMPDEST PUSH1 0x40 MLOAD DUP1 SWAP2 SUB SWAP1 LOG1 POP POP POP POP POP POP POP POP POP POP POP POP POP POP POP JUMP JUMPDEST PUSH1 0x0 DUP1 JUMPDEST PUSH2 0x100 DUP2 LT ISZERO PUSH2 0xFFF JUMPI DUP4 DUP2 PUSH2 0x100 DUP2 LT PUSH2 0xF78 JUMPI PUSH2 0xF78 PUSH2 0x26AE JUMP JUMPDEST PUSH1 0x20 MUL DUP2 ADD SWAP1 PUSH2 0xF88 SWAP2 SWAP1 PUSH2 0x2939 JUMP JUMPDEST PUSH1 0x40 MLOAD PUSH2 0xF96 SWAP3 SWAP2 SWAP1 PUSH2 0x2986 JUMP JUMPDEST PUSH1 0x40 MLOAD DUP1 SWAP2 SUB SWAP1 KECCAK256 DUP4 DUP3 PUSH2 0x100 DUP2 LT PUSH2 0xFB1 JUMPI PUSH2 0xFB1 PUSH2 0x26AE JUMP JUMPDEST PUSH1 0x40 MUL ADD PUSH1 0x0 DUP4 PUSH1 0xFF SUB PUSH1 0x1 SWAP1 SHL DUP9 AND GT PUSH2 0xFCD JUMPI PUSH1 0x0 PUSH2 0xFD0 JUMP JUMPDEST PUSH1 0x1 JUMPDEST PUSH1 0xFF AND PUSH1 0x2 DUP2 LT PUSH2 0xFE3 JUMPI PUSH2 0xFE3 PUSH2 0x26AE JUMP JUMPDEST PUSH1 0x20 MUL ADD CALLDATALOAD EQ PUSH2 0xFF7 JUMPI PUSH1 0x0 SWAP2 POP POP PUSH2 0x1005 JUMP JUMPDEST PUSH1 0x1 ADD PUSH2 0xF5B JUMP JUMPDEST POP PUSH1 0x1 SWAP1 POP JUMPDEST SWAP4 SWAP3 POP POP POP JUMP JUMPDEST PUSH1 0x1 SLOAD PUSH1 0x60 SWAP1 PUSH1 0x0 SWAP1 PUSH1 0x1 PUSH1 0x1 PUSH1 0x40 SHL SUB DUP2 GT ISZERO PUSH2 0x102C JUMPI PUSH2 0x102C PUSH2 0x20C7 JUMP JUMPDEST PUSH1 0x40 MLOAD SWAP1 DUP1 DUP3 MSTORE DUP1 PUSH1 0x20 MUL PUSH1 0x20 ADD DUP3 ADD PUSH1 0x40 MSTORE DUP1 ISZERO PUSH2 0x1055 JUMPI DUP2 PUSH1 0x20 ADD PUSH1 0x20 DUP3 MUL DUP1 CALLDATASIZE DUP4 CALLDATACOPY ADD SWAP1 POP JUMPDEST POP SWAP1 POP PUSH1 0x0 DUP1 JUMPDEST PUSH1 0x1 SLOAD DUP2 LT ISZERO PUSH2 0x1116 JUMPI DUP5 PUSH1 0x2 DUP2 GT ISZERO PUSH2 0x1078 JUMPI PUSH2 0x1078 PUSH2 0x1FFF JUMP JUMPDEST PUSH1 0x1 DUP3 DUP2 SLOAD DUP2 LT PUSH2 0x108B JUMPI PUSH2 0x108B PUSH2 0x26AE JUMP JUMPDEST PUSH1 0x0 SWAP2 DUP3 MSTORE PUSH1 0x20 SWAP1 SWAP2 KECCAK256 PUSH1 0x2 SWAP2 DUP3 MUL ADD SLOAD PUSH1 0xFF AND SWAP1 DUP2 GT ISZERO PUSH2 0x10AF JUMPI PUSH2 0x10AF PUSH2 0x1FFF JUMP JUMPDEST SUB PUSH2 0x1104 JUMPI PUSH1 0x1 DUP2 DUP2 SLOAD DUP2 LT PUSH2 0x10C7 JUMPI PUSH2 0x10C7 PUSH2 0x26AE JUMP JUMPDEST SWAP1 PUSH1 0x0 MSTORE PUSH1 0x20 PUSH1 0x0 KECCAK256 SWAP1 PUSH1 0x2 MUL ADD PUSH1 0x1 ADD SLOAD DUP4 DUP4 DUP2 MLOAD DUP2 LT PUSH2 0x10EB JUMPI PUSH2 0x10EB PUSH2 0x26AE JUMP JUMPDEST PUSH1 0x20 SWAP1 DUP2 MUL SWAP2 SWAP1 SWAP2 ADD ADD MSTORE DUP2 PUSH2 0x1100 DUP2 PUSH2 0x26C4 JUMP JUMPDEST SWAP3 POP POP JUMPDEST DUP1 PUSH2 0x110E DUP2 PUSH2 0x26C4 JUMP JUMPDEST SWAP2 POP POP PUSH2 0x105C JUMP JUMPDEST POP PUSH1 0x0 DUP2 PUSH1 0x1 PUSH1 0x1 PUSH1 0x40 SHL SUB DUP2 GT ISZERO PUSH2 0x1131 JUMPI PUSH2 0x1131 PUSH2 0x20C7 JUMP JUMPDEST PUSH1 0x40 MLOAD SWAP1 DUP1 DUP3 MSTORE DUP1 PUSH1 0x20 MUL PUSH1 0x20 ADD DUP3 ADD PUSH1 0x40 MSTORE DUP1 ISZERO PUSH2 0x115A JUMPI DUP2 PUSH1 0x20 ADD PUSH1 0x20 DUP3 MUL DUP1 CALLDATASIZE DUP4 CALLDATACOPY ADD SWAP1 POP JUMPDEST POP SWAP1 POP PUSH1 0x0 JUMPDEST DUP3 DUP2 LT ISZERO PUSH2 0x11B1 JUMPI DUP4 DUP2 DUP2 MLOAD DUP2 LT PUSH2 0x117A JUMPI PUSH2 0x117A PUSH2 0x26AE JUMP JUMPDEST PUSH1 0x20 MUL PUSH1 0x20 ADD ADD MLOAD DUP3 DUP3 DUP2 MLOAD DUP2 LT PUSH2 0x1194 JUMPI PUSH2 0x1194 PUSH2 0x26AE JUMP JUMPDEST PUSH1 0x20 SWAP1 DUP2 MUL SWAP2 SWAP1 SWAP2 ADD ADD MSTORE DUP1 PUSH2 0x11A9 DUP2 PUSH2 0x26C4 JUMP JUMPDEST SWAP2 POP POP PUSH2 0x1160 JUMP JUMPDEST POP SWAP5 SWAP4 POP POP POP POP JUMP JUMPDEST DUP3 DUP2 DUP4 DUP9 DUP9 DUP9 PUSH1 0x40 MLOAD PUSH1 0x20 ADD PUSH2 0x11D2 SWAP4 SWAP3 SWAP2 SWAP1 PUSH2 0x2996 JUMP JUMPDEST PUSH1 0x40 DUP1 MLOAD PUSH1 0x1F NOT DUP2 DUP5 SUB ADD DUP2 MSTORE SWAP2 SWAP1 MSTORE PUSH1 0x0 SLOAD PUSH1 0xFF AND PUSH2 0x1204 JUMPI PUSH1 0x40 MLOAD PUSH3 0x461BCD PUSH1 0xE5 SHL DUP2 MSTORE PUSH1 0x4 ADD PUSH2 0x38F SWAP1 PUSH2 0x26EB JUMP JUMPDEST PUSH1 0x0 DUP5 PUSH1 0x40 MLOAD PUSH1 0x20 ADD PUSH2 0x1217 SWAP2 SWAP1 PUSH2 0x2722 JUMP JUMPDEST PUSH1 0x40 DUP1 MLOAD PUSH1 0x1F NOT DUP2 DUP5 SUB ADD DUP2 MSTORE SWAP2 SWAP1 MSTORE DUP1 MLOAD PUSH1 0x20 SWAP1 SWAP2 ADD KECCAK256 SWAP1 POP PUSH1 0x1 PUSH1 0x0 DUP3 DUP2 MSTORE PUSH1 0x2 PUSH1 0x20 DUP2 SWAP1 MSTORE PUSH1 0x40 SWAP1 SWAP2 KECCAK256 SLOAD PUSH1 0xFF AND SWAP1 DUP2 GT ISZERO PUSH2 0x1258 JUMPI PUSH2 0x1258 PUSH2 0x1FFF JUMP JUMPDEST EQ PUSH2 0x12A5 JUMPI PUSH1 0x40 MLOAD PUSH3 0x461BCD PUSH1 0xE5 SHL DUP2 MSTORE PUSH1 0x20 PUSH1 0x4 DUP3 ADD MSTORE PUSH1 0x1E PUSH1 0x24 DUP3 ADD MSTORE PUSH32 0x4C616D706F7274426173653A204E6F7420616E206F7261636C65206B65790000 PUSH1 0x44 DUP3 ADD MSTORE PUSH1 0x64 ADD PUSH2 0x38F JUMP JUMPDEST PUSH1 0x0 DUP3 DUP5 PUSH1 0x40 MLOAD PUSH1 0x20 ADD PUSH2 0x12BA SWAP3 SWAP2 SWAP1 PUSH2 0x27B4 JUMP JUMPDEST PUSH1 0x40 DUP1 MLOAD PUSH1 0x1F NOT DUP2 DUP5 SUB ADD DUP2 MSTORE SWAP1 DUP3 SWAP1 MSTORE DUP1 MLOAD PUSH1 0x20 SWAP2 DUP3 ADD KECCAK256 DUP1 DUP4 MSTORE SWAP3 POP PUSH1 0x0 DUP1 MLOAD PUSH1 0x20 PUSH2 0x2A75 DUP4 CODECOPY DUP2 MLOAD SWAP2 MSTORE SWAP2 ADD PUSH1 0x40 MLOAD DUP1 SWAP2 SUB SWAP1 LOG1 PUSH1 0x0 PUSH2 0x12FE DUP3 DUP8 DUP10 PUSH2 0xF57 JUMP JUMPDEST PUSH1 0x0 DUP1 SLOAD PUSH2 0xFF00 NOT AND PUSH2 0x100 DUP4 ISZERO ISZERO MUL OR SWAP1 SSTORE SWAP1 POP DUP1 PUSH2 0x1330 JUMPI PUSH1 0x40 MLOAD PUSH3 0x461BCD PUSH1 0xE5 SHL DUP2 MSTORE PUSH1 0x4 ADD PUSH2 0x38F SWAP1 PUSH2 0x27D6 JUMP JUMPDEST PUSH1 0x0 DUP4 DUP2 MSTORE PUSH1 0x2 PUSH1 0x20 MSTORE PUSH1 0x40 SWAP1 DUP2 SWAP1 KECCAK256 SLOAD SWAP1 MLOAD PUSH1 0x0 DUP1 MLOAD PUSH1 0x20 PUSH2 0x2A95 DUP4 CODECOPY DUP2 MLOAD SWAP2 MSTORE SWAP2 PUSH2 0x1366 SWAP2 PUSH1 0xFF SWAP1 SWAP2 AND SWAP1 DUP7 SWAP1 DUP10 SWAP1 PUSH2 0x2037 JUMP JUMPDEST PUSH1 0x40 MLOAD DUP1 SWAP2 SUB SWAP1 LOG1 PUSH2 0x1378 DUP4 DUP7 PUSH2 0x1E44 JUMP JUMPDEST PUSH32 0x5BEE3A20EA3A72A82E77A882003FF7DCF3EE864289922C283AC5091AFC700AB4 DUP14 DUP14 DUP14 PUSH1 0x40 MLOAD PUSH2 0x13AB SWAP4 SWAP3 SWAP2 SWAP1 PUSH2 0x29CF JUMP JUMPDEST PUSH1 0x40 MLOAD DUP1 SWAP2 SUB SWAP1 LOG1 POP POP POP POP POP POP POP POP POP POP POP POP POP JUMP JUMPDEST DUP4 DUP4 DUP4 DUP4 PUSH1 0x40 MLOAD PUSH1 0x20 ADD PUSH2 0x13D8 SWAP2 DUP2 MSTORE PUSH1 0x20 ADD SWAP1 JUMP JUMPDEST PUSH1 0x40 DUP1 MLOAD PUSH1 0x1F NOT DUP2 DUP5 SUB ADD DUP2 MSTORE SWAP2 SWAP1 MSTORE PUSH1 0x0 SLOAD PUSH1 0xFF AND PUSH2 0x140A JUMPI PUSH1 0x40 MLOAD PUSH3 0x461BCD PUSH1 0xE5 SHL DUP2 MSTORE PUSH1 0x4 ADD PUSH2 0x38F SWAP1 PUSH2 0x26EB JUMP JUMPDEST PUSH1 0x0 DUP5 PUSH1 0x40 MLOAD PUSH1 0x20 ADD PUSH2 0x141D SWAP2 SWAP1 PUSH2 0x2722 JUMP JUMPDEST PUSH1 0x40 DUP1 MLOAD PUSH1 0x1F NOT DUP2 DUP5 SUB ADD DUP2 MSTORE SWAP2 SWAP1 MSTORE DUP1 MLOAD PUSH1 0x20 SWAP1 SWAP2 ADD KECCAK256 SWAP1 POP PUSH1 0x0 DUP1 DUP3 DUP2 MSTORE PUSH1 0x2 PUSH1 0x20 DUP2 SWAP1 MSTORE PUSH1 0x40 SWAP1 SWAP2 KECCAK256 SLOAD PUSH1 0xFF AND SWAP1 DUP2 GT ISZERO PUSH2 0x145D JUMPI PUSH2 0x145D PUSH2 0x1FFF JUMP JUMPDEST EQ PUSH2 0x147A JUMPI PUSH1 0x40 MLOAD PUSH3 0x461BCD PUSH1 0xE5 SHL DUP2 MSTORE PUSH1 0x4 ADD PUSH2 0x38F SWAP1 PUSH2 0x2759 JUMP JUMPDEST PUSH1 0x0 DUP3 DUP5 PUSH1 0x40 MLOAD PUSH1 0x20 ADD PUSH2 0x148F SWAP3 SWAP2 SWAP1 PUSH2 0x27B4 JUMP JUMPDEST PUSH1 0x40 DUP1 MLOAD PUSH1 0x1F NOT DUP2 DUP5 SUB ADD DUP2 MSTORE SWAP1 DUP3 SWAP1 MSTORE DUP1 MLOAD PUSH1 0x20 SWAP2 DUP3 ADD KECCAK256 DUP1 DUP4 MSTORE SWAP3 POP PUSH1 0x0 DUP1 MLOAD PUSH1 0x20 PUSH2 0x2A75 DUP4 CODECOPY DUP2 MLOAD SWAP2 MSTORE SWAP2 ADD PUSH1 0x40 MLOAD DUP1 SWAP2 SUB SWAP1 LOG1 PUSH1 0x0 PUSH2 0x14D3 DUP3 DUP8 DUP10 PUSH2 0xF57 JUMP JUMPDEST PUSH1 0x0 DUP1 SLOAD PUSH2 0xFF00 NOT AND PUSH2 0x100 DUP4 ISZERO ISZERO MUL OR SWAP1 SSTORE SWAP1 POP DUP1 PUSH2 0x150B JUMPI PUSH1 0x40 MLOAD DUP3 DUP2 MSTORE PUSH1 0x0 DUP1 MLOAD PUSH1 0x20 PUSH2 0x2A55 DUP4 CODECOPY DUP2 MLOAD SWAP2 MSTORE SWAP1 PUSH1 0x20 ADD PUSH2 0x5F6 JUMP JUMPDEST PUSH1 0x0 DUP4 DUP2 MSTORE PUSH1 0x2 PUSH1 0x20 MSTORE PUSH1 0x40 SWAP1 DUP2 SWAP1 KECCAK256 SLOAD SWAP1 MLOAD PUSH1 0x0 DUP1 MLOAD PUSH1 0x20 PUSH2 0x2A95 DUP4 CODECOPY DUP2 MLOAD SWAP2 MSTORE SWAP2 PUSH2 0x1541 SWAP2 PUSH1 0xFF SWAP1 SWAP2 AND SWAP1 DUP7 SWAP1 DUP10 SWAP1 PUSH2 0x2037 JUMP JUMPDEST PUSH1 0x40 MLOAD DUP1 SWAP2 SUB SWAP1 LOG1 PUSH2 0x1553 DUP4 DUP7 PUSH2 0x1E44 JUMP JUMPDEST POP POP POP PUSH1 0x3 SWAP5 SWAP1 SWAP5 SSTORE POP POP POP PUSH1 0x4 SWAP2 SWAP1 SWAP2 SSTORE POP POP POP JUMP JUMPDEST PUSH1 0x0 DUP7 DUP6 DUP6 DUP6 PUSH1 0x40 MLOAD PUSH1 0x20 ADD PUSH2 0x1583 SWAP5 SWAP4 SWAP3 SWAP2 SWAP1 PUSH2 0x28A8 JUMP JUMPDEST PUSH1 0x40 MLOAD PUSH1 0x20 DUP2 DUP4 SUB SUB DUP2 MSTORE SWAP1 PUSH1 0x40 MSTORE SWAP1 POP PUSH32 0x439E3CE2FB9A6BC9B02ECA4ED3A05602D64D28B25644D289D8ADDE65C3A5DF3 DUP2 DUP4 PUSH1 0x40 MLOAD PUSH1 0x20 ADD PUSH2 0x15C8 SWAP3 SWAP2 SWAP1 PUSH2 0x27B4 JUMP JUMPDEST PUSH1 0x40 DUP1 MLOAD PUSH1 0x1F NOT DUP2 DUP5 SUB ADD DUP2 MSTORE SWAP1 DUP3 SWAP1 MSTORE PUSH2 0x15E2 SWAP2 PUSH2 0x2926 JUMP JUMPDEST PUSH1 0x40 MLOAD DUP1 SWAP2 SUB SWAP1 LOG1 POP POP POP POP POP POP POP JUMP JUMPDEST DUP4 DUP4 DUP4 DUP4 PUSH1 0x40 MLOAD PUSH1 0x20 ADD PUSH2 0x1609 SWAP2 DUP2 MSTORE PUSH1 0x20 ADD SWAP1 JUMP JUMPDEST PUSH1 0x40 DUP1 MLOAD PUSH1 0x1F NOT DUP2 DUP5 SUB ADD DUP2 MSTORE SWAP2 SWAP1 MSTORE PUSH1 0x0 SLOAD PUSH1 0xFF AND PUSH2 0x163B JUMPI PUSH1 0x40 MLOAD PUSH3 0x461BCD PUSH1 0xE5 SHL DUP2 MSTORE PUSH1 0x4 ADD PUSH2 0x38F SWAP1 PUSH2 0x26EB JUMP JUMPDEST PUSH1 0x0 DUP5 PUSH1 0x40 MLOAD PUSH1 0x20 ADD PUSH2 0x164E SWAP2 SWAP1 PUSH2 0x2722 JUMP JUMPDEST PUSH1 0x40 DUP1 MLOAD PUSH1 0x1F NOT DUP2 DUP5 SUB ADD DUP2 MSTORE SWAP2 SWAP1 MSTORE DUP1 MLOAD PUSH1 0x20 SWAP1 SWAP2 ADD KECCAK256 SWAP1 POP PUSH1 0x0 DUP1 DUP3 DUP2 MSTORE PUSH1 0x2 PUSH1 0x20 DUP2 SWAP1 MSTORE PUSH1 0x40 SWAP1 SWAP2 KECCAK256 SLOAD PUSH1 0xFF AND SWAP1 DUP2 GT ISZERO PUSH2 0x168E JUMPI PUSH2 0x168E PUSH2 0x1FFF JUMP JUMPDEST EQ PUSH2 0x16AB JUMPI PUSH1 0x40 MLOAD PUSH3 0x461BCD PUSH1 0xE5 SHL DUP2 MSTORE PUSH1 0x4 ADD PUSH2 0x38F SWAP1 PUSH2 0x2759 JUMP JUMPDEST PUSH1 0x0 DUP3 DUP5 PUSH1 0x40 MLOAD PUSH1 0x20 ADD PUSH2 0x16C0 SWAP3 SWAP2 SWAP1 PUSH2 0x27B4 JUMP JUMPDEST PUSH1 0x40 DUP1 MLOAD PUSH1 0x1F NOT DUP2 DUP5 SUB ADD DUP2 MSTORE SWAP1 DUP3 SWAP1 MSTORE DUP1 MLOAD PUSH1 0x20 SWAP2 DUP3 ADD KECCAK256 DUP1 DUP4 MSTORE SWAP3 POP PUSH1 0x0 DUP1 MLOAD PUSH1 0x20 PUSH2 0x2A75 DUP4 CODECOPY DUP2 MLOAD SWAP2 MSTORE SWAP2 ADD PUSH1 0x40 MLOAD DUP1 SWAP2 SUB SWAP1 LOG1 PUSH1 0x0 PUSH2 0x1704 DUP3 DUP8 DUP10 PUSH2 0xF57 JUMP JUMPDEST PUSH1 0x0 DUP1 SLOAD PUSH2 0xFF00 NOT AND PUSH2 0x100 DUP4 ISZERO ISZERO MUL OR SWAP1 SSTORE SWAP1 POP DUP1 PUSH2 0x173C JUMPI PUSH1 0x40 MLOAD DUP3 DUP2 MSTORE PUSH1 0x0 DUP1 MLOAD PUSH1 0x20 PUSH2 0x2A55 DUP4 CODECOPY DUP2 MLOAD SWAP2 MSTORE SWAP1 PUSH1 0x20 ADD PUSH2 0x5F6 JUMP JUMPDEST PUSH1 0x0 DUP4 DUP2 MSTORE PUSH1 0x2 PUSH1 0x20 MSTORE PUSH1 0x40 SWAP1 DUP2 SWAP1 KECCAK256 SLOAD SWAP1 MLOAD PUSH1 0x0 DUP1 MLOAD PUSH1 0x20 PUSH2 0x2A95 DUP4 CODECOPY DUP2 MLOAD SWAP2 MSTORE SWAP2 PUSH2 0x1772 SWAP2 PUSH1 0xFF SWAP1 SWAP2 AND SWAP1 DUP7 SWAP1 DUP10 SWAP1 PUSH2 0x2037 JUMP JUMPDEST PUSH1 0x40 MLOAD DUP1 SWAP2 SUB SWAP1 LOG1 PUSH2 0x1784 DUP4 DUP7 PUSH2 0x1E44 JUMP JUMPDEST PUSH1 0x0 DUP12 PUSH1 0x40 MLOAD PUSH1 0x20 ADD PUSH2 0x1797 SWAP2 SWAP1 PUSH2 0x2722 JUMP JUMPDEST PUSH1 0x40 MLOAD PUSH1 0x20 DUP2 DUP4 SUB SUB DUP2 MSTORE SWAP1 PUSH1 0x40 MSTORE DUP1 MLOAD SWAP1 PUSH1 0x20 ADD KECCAK256 SWAP1 POP PUSH1 0x4 SLOAD DUP2 SUB PUSH2 0x1830 JUMPI PUSH1 0x40 MLOAD PUSH3 0x461BCD PUSH1 0xE5 SHL DUP2 MSTORE PUSH1 0x20 PUSH1 0x4 DUP3 ADD MSTORE PUSH1 0x41 PUSH1 0x24 DUP3 ADD MSTORE PUSH32 0x4C616D706F7274426173653A2043616E6E6F7420757365207468652073616D65 PUSH1 0x44 DUP3 ADD MSTORE PUSH32 0x206B6579636861696E20747769636520666F7220746869732066756E6374696F PUSH1 0x64 DUP3 ADD MSTORE PUSH1 0x37 PUSH1 0xF9 SHL PUSH1 0x84 DUP3 ADD MSTORE PUSH1 0xA4 ADD PUSH2 0x38F JUMP JUMPDEST DUP9 PUSH1 0x3 SLOAD EQ PUSH2 0x1881 JUMPI PUSH1 0x40 MLOAD PUSH3 0x461BCD PUSH1 0xE5 SHL DUP2 MSTORE PUSH1 0x20 PUSH1 0x4 DUP3 ADD MSTORE PUSH1 0x1E PUSH1 0x24 DUP3 ADD MSTORE PUSH32 0x4C616D706F7274426173653A204B65797320646F206E6F74206D617463680000 PUSH1 0x44 DUP3 ADD MSTORE PUSH1 0x64 ADD PUSH2 0x38F JUMP JUMPDEST PUSH1 0x4 SLOAD DUP2 DUP11 PUSH1 0x0 DUP1 DUP5 DUP2 MSTORE PUSH1 0x2 PUSH1 0x20 DUP2 SWAP1 MSTORE PUSH1 0x40 SWAP1 SWAP2 KECCAK256 SLOAD PUSH1 0xFF AND SWAP1 DUP2 GT ISZERO PUSH2 0x18AC JUMPI PUSH2 0x18AC PUSH2 0x1FFF JUMP JUMPDEST EQ DUP1 ISZERO PUSH2 0x18DA JUMPI POP PUSH1 0x0 DUP3 DUP2 MSTORE PUSH1 0x2 PUSH1 0x20 DUP2 SWAP1 MSTORE PUSH1 0x40 DUP3 KECCAK256 SLOAD PUSH1 0xFF AND SWAP1 DUP2 GT ISZERO PUSH2 0x18D8 JUMPI PUSH2 0x18D8 PUSH2 0x1FFF JUMP JUMPDEST EQ JUMPDEST PUSH2 0x193D JUMPI PUSH1 0x40 MLOAD PUSH3 0x461BCD PUSH1 0xE5 SHL DUP2 MSTORE PUSH1 0x20 PUSH1 0x4 DUP3 ADD MSTORE PUSH1 0x2E PUSH1 0x24 DUP3 ADD MSTORE PUSH32 0x4C616D706F7274426173653A2050726F7669646564206B65797320617265206E PUSH1 0x44 DUP3 ADD MSTORE PUSH14 0x6F74206D6173746572206B657973 PUSH1 0x90 SHL PUSH1 0x64 DUP3 ADD MSTORE PUSH1 0x84 ADD PUSH2 0x38F JUMP JUMPDEST DUP3 DUP2 EQ ISZERO DUP1 ISZERO PUSH2 0x194D JUMPI POP DUP2 DUP2 EQ ISZERO JUMPDEST PUSH2 0x19B3 JUMPI PUSH1 0x40 MLOAD PUSH3 0x461BCD PUSH1 0xE5 SHL DUP2 MSTORE PUSH1 0x20 PUSH1 0x4 DUP3 ADD MSTORE PUSH1 0x31 PUSH1 0x24 DUP3 ADD MSTORE PUSH32 0x4C616D706F7274426173653A204D6173746572206B6579732063616E6E6F7420 PUSH1 0x44 DUP3 ADD MSTORE PUSH17 0x64656C657465207468656D73656C766573 PUSH1 0x78 SHL PUSH1 0x64 DUP3 ADD MSTORE PUSH1 0x84 ADD PUSH2 0x38F JUMP JUMPDEST PUSH1 0x0 DUP2 DUP2 MSTORE PUSH1 0x2 PUSH1 0x20 MSTORE PUSH1 0x40 DUP2 KECCAK256 PUSH1 0x1 ADD SLOAD SWAP1 SUB PUSH2 0x1A1F JUMPI PUSH1 0x40 MLOAD PUSH3 0x461BCD PUSH1 0xE5 SHL DUP2 MSTORE PUSH1 0x20 PUSH1 0x4 DUP3 ADD MSTORE PUSH1 0x23 PUSH1 0x24 DUP3 ADD MSTORE PUSH32 0x4C616D706F7274426173653A204E6F2073756368206B6579202864656C657469 PUSH1 0x44 DUP3 ADD MSTORE PUSH3 0x6F6E29 PUSH1 0xE8 SHL PUSH1 0x64 DUP3 ADD MSTORE PUSH1 0x84 ADD PUSH2 0x38F JUMP JUMPDEST PUSH1 0x0 JUMPDEST PUSH1 0x1 SLOAD DUP2 LT ISZERO PUSH2 0x1B0C JUMPI DUP2 PUSH1 0x1 DUP3 DUP2 SLOAD DUP2 LT PUSH2 0x1A40 JUMPI PUSH2 0x1A40 PUSH2 0x26AE JUMP JUMPDEST SWAP1 PUSH1 0x0 MSTORE PUSH1 0x20 PUSH1 0x0 KECCAK256 SWAP1 PUSH1 0x2 MUL ADD PUSH1 0x1 ADD SLOAD SUB PUSH2 0x1AFA JUMPI PUSH1 0x0 DUP3 DUP2 MSTORE PUSH1 0x2 PUSH1 0x20 DUP2 DUP2 MSTORE PUSH1 0x40 DUP1 DUP5 KECCAK256 DUP1 SLOAD DUP3 MLOAD TIMESTAMP DUP2 DUP7 ADD MSTORE DIFFICULTY DUP2 DUP6 ADD MSTORE DUP4 MLOAD DUP1 DUP3 SUB DUP6 ADD DUP2 MSTORE PUSH1 0x60 SWAP1 SWAP2 ADD SWAP4 DUP5 SWAP1 MSTORE DUP1 MLOAD SWAP1 DUP6 ADD KECCAK256 SWAP6 DUP9 SWAP1 MSTORE SWAP3 DUP5 SWAP1 MSTORE PUSH4 0xDE1E7ED PUSH1 0xE4 SHL DUP6 XOR PUSH1 0x1 DUP3 ADD DUP2 SWAP1 SSTORE PUSH1 0xFF NOT DUP5 AND DUP6 OR SWAP1 SWAP2 SSTORE PUSH1 0xFF SWAP1 SWAP3 AND SWAP4 SWAP2 SWAP3 PUSH32 0x643BE3612916977C69D5ED1ABB75A50CCA49DF49BA2444D836E2A0CF65FE074 SWAP2 PUSH2 0x1AEA SWAP2 DUP7 SWAP2 DUP10 SWAP2 DUP8 SWAP2 PUSH2 0x2A02 JUMP JUMPDEST PUSH1 0x40 MLOAD DUP1 SWAP2 SUB SWAP1 LOG1 POP POP POP PUSH2 0x1B0C JUMP JUMPDEST DUP1 PUSH2 0x1B04 DUP2 PUSH2 0x26C4 JUMP JUMPDEST SWAP2 POP POP PUSH2 0x1A22 JUMP JUMPDEST POP POP PUSH1 0x0 PUSH1 0x3 DUP2 SWAP1 SSTORE PUSH1 0x4 SSTORE POP POP POP POP POP POP POP POP POP POP POP POP POP POP JUMP JUMPDEST DUP3 DUP2 DUP4 DUP8 DUP8 PUSH1 0x40 MLOAD PUSH1 0x20 ADD PUSH2 0x1B3E SWAP3 SWAP2 SWAP1 PUSH2 0x27B4 JUMP JUMPDEST PUSH1 0x40 DUP1 MLOAD PUSH1 0x1F NOT DUP2 DUP5 SUB ADD DUP2 MSTORE SWAP2 SWAP1 MSTORE PUSH1 0x0 SLOAD PUSH1 0xFF AND PUSH2 0x1B70 JUMPI PUSH1 0x40 MLOAD PUSH3 0x461BCD PUSH1 0xE5 SHL DUP2 MSTORE PUSH1 0x4 ADD PUSH2 0x38F SWAP1 PUSH2 0x26EB JUMP JUMPDEST PUSH1 0x0 DUP5 PUSH1 0x40 MLOAD PUSH1 0x20 ADD PUSH2 0x1B83 SWAP2 SWAP1 PUSH2 0x2722 JUMP JUMPDEST PUSH1 0x40 DUP1 MLOAD PUSH1 0x1F NOT DUP2 DUP5 SUB ADD DUP2 MSTORE SWAP2 SWAP1 MSTORE DUP1 MLOAD PUSH1 0x20 SWAP1 SWAP2 ADD KECCAK256 SWAP1 POP PUSH1 0x1 PUSH1 0x0 DUP3 DUP2 MSTORE PUSH1 0x2 PUSH1 0x20 DUP2 SWAP1 MSTORE PUSH1 0x40 SWAP1 SWAP2 KECCAK256 SLOAD PUSH1 0xFF AND SWAP1 DUP2 GT ISZERO PUSH2 0x1BC4 JUMPI PUSH2 0x1BC4 PUSH2 0x1FFF JUMP JUMPDEST EQ PUSH2 0x1C11 JUMPI PUSH1 0x40 MLOAD PUSH3 0x461BCD PUSH1 0xE5 SHL DUP2 MSTORE PUSH1 0x20 PUSH1 0x4 DUP3 ADD MSTORE PUSH1 0x1E PUSH1 0x24 DUP3 ADD MSTORE PUSH32 0x4C616D706F7274426173653A204E6F7420616E206F7261636C65206B65790000 PUSH1 0x44 DUP3 ADD MSTORE PUSH1 0x64 ADD PUSH2 0x38F JUMP JUMPDEST PUSH1 0x0 DUP3 DUP5 PUSH1 0x40 MLOAD PUSH1 0x20 ADD PUSH2 0x1C26 SWAP3 SWAP2 SWAP1 PUSH2 0x27B4 JUMP JUMPDEST PUSH1 0x40 DUP1 MLOAD PUSH1 0x1F NOT DUP2 DUP5 SUB ADD DUP2 MSTORE SWAP1 DUP3 SWAP1 MSTORE DUP1 MLOAD PUSH1 0x20 SWAP2 DUP3 ADD KECCAK256 DUP1 DUP4 MSTORE SWAP3 POP PUSH1 0x0 DUP1 MLOAD PUSH1 0x20 PUSH2 0x2A75 DUP4 CODECOPY DUP2 MLOAD SWAP2 MSTORE SWAP2 ADD PUSH1 0x40 MLOAD DUP1 SWAP2 SUB SWAP1 LOG1 PUSH1 0x0 PUSH2 0x1C6A DUP3 DUP8 DUP10 PUSH2 0xF57 JUMP JUMPDEST PUSH1 0x0 DUP1 SLOAD PUSH2 0xFF00 NOT AND PUSH2 0x100 DUP4 ISZERO ISZERO MUL OR SWAP1 SSTORE SWAP1 POP DUP1 PUSH2 0x1C9C JUMPI PUSH1 0x40 MLOAD PUSH3 0x461BCD PUSH1 0xE5 SHL DUP2 MSTORE PUSH1 0x4 ADD PUSH2 0x38F SWAP1 PUSH2 0x27D6 JUMP JUMPDEST PUSH1 0x0 DUP4 DUP2 MSTORE PUSH1 0x2 PUSH1 0x20 MSTORE PUSH1 0x40 SWAP1 DUP2 SWAP1 KECCAK256 SLOAD SWAP1 MLOAD PUSH1 0x0 DUP1 MLOAD PUSH1 0x20 PUSH2 0x2A95 DUP4 CODECOPY DUP2 MLOAD SWAP2 MSTORE SWAP2 PUSH2 0x1CD2 SWAP2 PUSH1 0xFF SWAP1 SWAP2 AND SWAP1 DUP7 SWAP1 DUP10 SWAP1 PUSH2 0x2037 JUMP JUMPDEST PUSH1 0x40 MLOAD DUP1 SWAP2 SUB SWAP1 LOG1 PUSH2 0x1CE4 DUP4 DUP7 PUSH2 0x1E44 JUMP JUMPDEST PUSH32 0x2F8BB53CD3BD0AD7F1E40674103A8A9352DB4FF07B7505286D242C543BA70CCC DUP13 DUP13 PUSH1 0x40 MLOAD PUSH2 0x1D15 SWAP3 SWAP2 SWAP1 PUSH2 0x2A32 JUMP JUMPDEST PUSH1 0x40 MLOAD DUP1 SWAP2 SUB SWAP1 LOG1 POP POP POP POP POP POP POP POP POP POP POP POP JUMP JUMPDEST PUSH1 0x0 PUSH1 0x40 MLOAD DUP1 PUSH1 0x40 ADD PUSH1 0x40 MSTORE DUP1 DUP5 PUSH1 0x2 DUP2 GT ISZERO PUSH2 0x1D4A JUMPI PUSH2 0x1D4A PUSH2 0x1FFF JUMP JUMPDEST DUP2 MSTORE PUSH1 0x20 ADD DUP4 SWAP1 MSTORE PUSH1 0x1 DUP1 SLOAD DUP1 DUP3 ADD DUP3 SSTORE PUSH1 0x0 DUP3 SWAP1 MSTORE DUP3 MLOAD PUSH1 0x2 SWAP2 DUP3 MUL PUSH32 0xB10E2D527612073B26EECDFD717E6A320CF44B4AFAC2B0732D9FCBE2B7FA0CF6 ADD DUP1 SLOAD SWAP5 SWAP6 POP DUP6 SWAP5 SWAP1 SWAP4 SWAP2 SWAP3 DUP5 SWAP3 PUSH1 0xFF NOT SWAP1 SWAP3 AND SWAP2 SWAP1 DUP5 SWAP1 DUP2 GT ISZERO PUSH2 0x1DAF JUMPI PUSH2 0x1DAF PUSH2 0x1FFF JUMP JUMPDEST MUL OR SWAP1 SSTORE POP PUSH1 0x20 SWAP2 DUP3 ADD MLOAD PUSH1 0x1 SWAP2 DUP3 ADD SSTORE PUSH1 0x0 DUP5 DUP2 MSTORE PUSH1 0x2 SWAP3 DUP4 SWAP1 MSTORE PUSH1 0x40 SWAP1 KECCAK256 DUP4 MLOAD DUP2 SLOAD DUP6 SWAP5 SWAP3 SWAP4 SWAP2 SWAP3 DUP5 SWAP3 PUSH1 0xFF NOT SWAP1 SWAP3 AND SWAP2 SWAP1 DUP5 SWAP1 DUP2 GT ISZERO PUSH2 0x1DF4 JUMPI PUSH2 0x1DF4 PUSH2 0x1FFF JUMP JUMPDEST MUL OR SWAP1 SSTORE POP PUSH1 0x20 DUP3 ADD MLOAD DUP2 PUSH1 0x1 ADD SSTORE SWAP1 POP POP PUSH32 0x2172C7B01A6DE957D29FD6166A23025D181BF56538AD606A526AB2D62603F3FC DUP4 DUP4 PUSH1 0x40 MLOAD PUSH2 0x1E37 SWAP3 SWAP2 SWAP1 PUSH2 0x2082 JUMP JUMPDEST PUSH1 0x40 MLOAD DUP1 SWAP2 SUB SWAP1 LOG1 POP POP POP JUMP JUMPDEST PUSH1 0x0 DUP3 DUP2 MSTORE PUSH1 0x2 PUSH1 0x20 MSTORE PUSH1 0x40 DUP2 KECCAK256 PUSH1 0x1 ADD SLOAD SWAP1 SUB PUSH2 0x1E74 JUMPI PUSH1 0x40 MLOAD PUSH3 0x461BCD PUSH1 0xE5 SHL DUP2 MSTORE PUSH1 0x4 ADD PUSH2 0x38F SWAP1 PUSH2 0x2677 JUMP JUMPDEST PUSH1 0x40 DUP1 MLOAD DUP1 DUP3 ADD DUP3 MSTORE PUSH1 0x0 DUP5 DUP2 MSTORE PUSH1 0x2 PUSH1 0x20 DUP2 SWAP1 MSTORE SWAP3 DUP2 KECCAK256 SLOAD SWAP1 SWAP3 DUP3 SWAP2 PUSH1 0xFF AND SWAP1 DUP2 GT ISZERO PUSH2 0x1EA4 JUMPI PUSH2 0x1EA4 PUSH2 0x1FFF JUMP JUMPDEST DUP2 MSTORE PUSH1 0x20 ADD DUP4 DUP2 MSTORE POP SWAP1 POP DUP1 PUSH1 0x2 PUSH1 0x0 DUP5 DUP2 MSTORE PUSH1 0x20 ADD SWAP1 DUP2 MSTORE PUSH1 0x20 ADD PUSH1 0x0 KECCAK256 PUSH1 0x0 DUP3 ADD MLOAD DUP2 PUSH1 0x0 ADD PUSH1 0x0 PUSH2 0x100 EXP DUP2 SLOAD DUP2 PUSH1 0xFF MUL NOT AND SWAP1 DUP4 PUSH1 0x2 DUP2 GT ISZERO PUSH2 0x1EED JUMPI PUSH2 0x1EED PUSH2 0x1FFF JUMP JUMPDEST MUL OR SWAP1 SSTORE POP PUSH1 0x20 SWAP2 DUP3 ADD MLOAD PUSH1 0x1 SWAP2 DUP3 ADD SSTORE PUSH1 0x0 DUP6 DUP2 MSTORE PUSH1 0x2 SWAP1 SWAP3 MSTORE PUSH1 0x40 DUP3 KECCAK256 DUP1 SLOAD PUSH1 0xFF NOT AND DUP2 SSTORE ADD DUP2 SWAP1 SSTORE JUMPDEST PUSH1 0x1 SLOAD DUP2 LT ISZERO PUSH2 0x1FC3 JUMPI DUP4 PUSH1 0x1 DUP3 DUP2 SLOAD DUP2 LT PUSH2 0x1F37 JUMPI PUSH2 0x1F37 PUSH2 0x26AE JUMP JUMPDEST SWAP1 PUSH1 0x0 MSTORE PUSH1 0x20 PUSH1 0x0 KECCAK256 SWAP1 PUSH1 0x2 MUL ADD PUSH1 0x1 ADD SLOAD SUB PUSH2 0x1FB1 JUMPI DUP2 PUSH1 0x1 DUP3 DUP2 SLOAD DUP2 LT PUSH2 0x1F62 JUMPI PUSH2 0x1F62 PUSH2 0x26AE JUMP JUMPDEST SWAP1 PUSH1 0x0 MSTORE PUSH1 0x20 PUSH1 0x0 KECCAK256 SWAP1 PUSH1 0x2 MUL ADD PUSH1 0x0 DUP3 ADD MLOAD DUP2 PUSH1 0x0 ADD PUSH1 0x0 PUSH2 0x100 EXP DUP2 SLOAD DUP2 PUSH1 0xFF MUL NOT AND SWAP1 DUP4 PUSH1 0x2 DUP2 GT ISZERO PUSH2 0x1F9A JUMPI PUSH2 0x1F9A PUSH2 0x1FFF JUMP JUMPDEST MUL OR SWAP1 SSTORE POP PUSH1 0x20 DUP3 ADD MLOAD DUP2 PUSH1 0x1 ADD SSTORE SWAP1 POP POP PUSH2 0x1FC3 JUMP JUMPDEST DUP1 PUSH2 0x1FBB DUP2 PUSH2 0x26C4 JUMP JUMPDEST SWAP2 POP POP PUSH2 0x1F19 JUMP JUMPDEST POP DUP1 MLOAD PUSH1 0x40 MLOAD PUSH1 0x0 DUP1 MLOAD PUSH1 0x20 PUSH2 0x2A95 DUP4 CODECOPY DUP2 MLOAD SWAP2 MSTORE SWAP2 PUSH2 0x1E37 SWAP2 DUP7 SWAP1 DUP7 SWAP1 PUSH2 0x2037 JUMP JUMPDEST PUSH1 0x0 PUSH1 0x20 DUP3 DUP5 SUB SLT ISZERO PUSH2 0x1FF8 JUMPI PUSH1 0x0 DUP1 REVERT JUMPDEST POP CALLDATALOAD SWAP2 SWAP1 POP JUMP JUMPDEST PUSH4 0x4E487B71 PUSH1 0xE0 SHL PUSH1 0x0 MSTORE PUSH1 0x21 PUSH1 0x4 MSTORE PUSH1 0x24 PUSH1 0x0 REVERT JUMPDEST PUSH1 0x3 DUP2 LT PUSH2 0x2033 JUMPI PUSH4 0x4E487B71 PUSH1 0xE0 SHL PUSH1 0x0 MSTORE PUSH1 0x21 PUSH1 0x4 MSTORE PUSH1 0x24 PUSH1 0x0 REVERT JUMPDEST SWAP1 MSTORE JUMP JUMPDEST PUSH1 0x60 DUP2 ADD PUSH2 0x2045 DUP3 DUP7 PUSH2 0x2015 JUMP JUMPDEST PUSH1 0x20 DUP3 ADD SWAP4 SWAP1 SWAP4 MSTORE PUSH1 0x40 ADD MSTORE SWAP2 SWAP1 POP JUMP JUMPDEST PUSH1 0x0 DUP1 PUSH1 0x0 PUSH1 0x60 DUP5 DUP7 SUB SLT ISZERO PUSH2 0x206B JUMPI PUSH1 0x0 DUP1 REVERT JUMPDEST POP POP DUP2 CALLDATALOAD SWAP4 PUSH1 0x20 DUP4 ADD CALLDATALOAD SWAP4 POP PUSH1 0x40 SWAP1 SWAP3 ADD CALLDATALOAD SWAP2 SWAP1 POP JUMP JUMPDEST PUSH1 0x40 DUP2 ADD PUSH2 0x2090 DUP3 DUP6 PUSH2 0x2015 JUMP JUMPDEST DUP3 PUSH1 0x20 DUP4 ADD MSTORE SWAP4 SWAP3 POP POP POP JUMP JUMPDEST DUP1 PUSH2 0x4000 DUP2 ADD DUP4 LT ISZERO PUSH2 0x20AF JUMPI PUSH1 0x0 DUP1 REVERT JUMPDEST SWAP3 SWAP2 POP POP JUMP JUMPDEST DUP1 PUSH2 0x2000 DUP2 ADD DUP4 LT ISZERO PUSH2 0x20AF JUMPI PUSH1 0x0 DUP1 REVERT JUMPDEST PUSH4 0x4E487B71 PUSH1 0xE0 SHL PUSH1 0x0 MSTORE PUSH1 0x41 PUSH1 0x4 MSTORE PUSH1 0x24 PUSH1 0x0 REVERT JUMPDEST PUSH1 0x0 PUSH1 0x1 PUSH1 0x1 PUSH1 0x40 SHL SUB DUP1 DUP5 GT ISZERO PUSH2 0x20F7 JUMPI PUSH2 0x20F7 PUSH2 0x20C7 JUMP JUMPDEST PUSH1 0x40 MLOAD PUSH1 0x1F DUP6 ADD PUSH1 0x1F NOT SWAP1 DUP2 AND PUSH1 0x3F ADD AND DUP2 ADD SWAP1 DUP3 DUP3 GT DUP2 DUP4 LT OR ISZERO PUSH2 0x211F JUMPI PUSH2 0x211F PUSH2 0x20C7 JUMP JUMPDEST DUP2 PUSH1 0x40 MSTORE DUP1 SWAP4 POP DUP6 DUP2 MSTORE DUP7 DUP7 DUP7 ADD GT ISZERO PUSH2 0x2138 JUMPI PUSH1 0x0 DUP1 REVERT JUMPDEST DUP6 DUP6 PUSH1 0x20 DUP4 ADD CALLDATACOPY PUSH1 0x0 PUSH1 0x20 DUP8 DUP4 ADD ADD MSTORE POP POP POP SWAP4 SWAP3 POP POP POP JUMP JUMPDEST PUSH1 0x0 DUP1 PUSH1 0x0 DUP1 PUSH2 0x4060 DUP6 DUP8 SUB SLT ISZERO PUSH2 0x2169 JUMPI PUSH1 0x0 DUP1 REVERT JUMPDEST PUSH2 0x2173 DUP7 DUP7 PUSH2 0x209D JUMP JUMPDEST SWAP4 POP PUSH2 0x4000 DUP6 ADD CALLDATALOAD PUSH1 0x1 PUSH1 0x1 PUSH1 0x40 SHL SUB DUP1 DUP3 GT ISZERO PUSH2 0x2190 JUMPI PUSH1 0x0 DUP1 REVERT JUMPDEST PUSH2 0x219C DUP9 DUP4 DUP10 ADD PUSH2 0x20B5 JUMP JUMPDEST SWAP5 POP PUSH2 0x4020 DUP8 ADD CALLDATALOAD SWAP4 POP PUSH2 0x4040 DUP8 ADD CALLDATALOAD SWAP2 POP DUP1 DUP3 GT ISZERO PUSH2 0x21BB JUMPI PUSH1 0x0 DUP1 REVERT JUMPDEST POP DUP6 ADD PUSH1 0x1F DUP2 ADD DUP8 SGT PUSH2 0x21CD JUMPI PUSH1 0x0 DUP1 REVERT JUMPDEST PUSH2 0x21DC DUP8 DUP3 CALLDATALOAD PUSH1 0x20 DUP5 ADD PUSH2 0x20DD JUMP JUMPDEST SWAP2 POP POP SWAP3 SWAP6 SWAP2 SWAP5 POP SWAP3 POP JUMP JUMPDEST PUSH1 0x0 DUP1 PUSH1 0x0 DUP1 PUSH2 0x4060 DUP6 DUP8 SUB SLT ISZERO PUSH2 0x21FF JUMPI PUSH1 0x0 DUP1 REVERT JUMPDEST PUSH2 0x2209 DUP7 DUP7 PUSH2 0x209D JUMP JUMPDEST SWAP4 POP PUSH2 0x4000 DUP6 ADD CALLDATALOAD PUSH1 0x1 PUSH1 0x1 PUSH1 0x40 SHL SUB DUP2 GT ISZERO PUSH2 0x2225 JUMPI PUSH1 0x0 DUP1 REVERT JUMPDEST PUSH2 0x2231 DUP8 DUP3 DUP9 ADD PUSH2 0x20B5 JUMP JUMPDEST SWAP5 SWAP8 SWAP5 SWAP7 POP POP POP POP PUSH2 0x4020 DUP4 ADD CALLDATALOAD SWAP3 PUSH2 0x4040 ADD CALLDATALOAD SWAP2 SWAP1 POP JUMP JUMPDEST DUP1 PUSH2 0x280 DUP2 ADD DUP4 LT ISZERO PUSH2 0x20AF JUMPI PUSH1 0x0 DUP1 REVERT JUMPDEST PUSH1 0x0 DUP1 PUSH1 0x0 DUP1 PUSH2 0x42C0 DUP6 DUP8 SUB SLT ISZERO PUSH2 0x2273 JUMPI PUSH1 0x0 DUP1 REVERT JUMPDEST PUSH2 0x227D DUP7 DUP7 PUSH2 0x224A JUMP JUMPDEST SWAP4 POP PUSH2 0x228D DUP7 PUSH2 0x280 DUP8 ADD PUSH2 0x209D JUMP JUMPDEST SWAP3 POP PUSH2 0x4280 DUP6 ADD CALLDATALOAD SWAP2 POP PUSH2 0x42A0 DUP6 ADD CALLDATALOAD PUSH1 0x1 PUSH1 0x1 PUSH1 0x40 SHL SUB DUP2 GT ISZERO PUSH2 0x22B1 JUMPI PUSH1 0x0 DUP1 REVERT JUMPDEST PUSH2 0x21DC DUP8 DUP3 DUP9 ADD PUSH2 0x20B5 JUMP JUMPDEST PUSH1 0x0 DUP1 PUSH1 0x0 DUP1 PUSH2 0x4060 DUP6 DUP8 SUB SLT ISZERO PUSH2 0x22D4 JUMPI PUSH1 0x0 DUP1 REVERT JUMPDEST PUSH2 0x22DE DUP7 DUP7 PUSH2 0x209D JUMP JUMPDEST SWAP4 POP PUSH2 0x4000 DUP6 ADD CALLDATALOAD SWAP3 POP PUSH2 0x4020 DUP6 ADD CALLDATALOAD PUSH1 0x1 PUSH1 0x1 PUSH1 0x40 SHL SUB DUP2 GT ISZERO PUSH2 0x2302 JUMPI PUSH1 0x0 DUP1 REVERT JUMPDEST PUSH2 0x230E DUP8 DUP3 DUP9 ADD PUSH2 0x20B5 JUMP JUMPDEST SWAP5 SWAP8 SWAP4 SWAP7 POP SWAP4 SWAP5 PUSH2 0x4040 ADD CALLDATALOAD SWAP4 POP POP POP JUMP JUMPDEST PUSH1 0x0 DUP3 PUSH1 0x1F DUP4 ADD SLT PUSH2 0x2331 JUMPI PUSH1 0x0 DUP1 REVERT JUMPDEST PUSH2 0x1005 DUP4 DUP4 CALLDATALOAD PUSH1 0x20 DUP6 ADD PUSH2 0x20DD JUMP JUMPDEST DUP1 CALLDATALOAD PUSH1 0x1 PUSH1 0x1 PUSH1 0xA0 SHL SUB DUP2 AND DUP2 EQ PUSH2 0x2357 JUMPI PUSH1 0x0 DUP1 REVERT JUMPDEST SWAP2 SWAP1 POP JUMP JUMPDEST PUSH1 0x0 DUP1 PUSH1 0x0 DUP1 PUSH1 0x0 DUP1 PUSH1 0x0 PUSH2 0x4320 DUP9 DUP11 SUB SLT ISZERO PUSH2 0x2378 JUMPI PUSH1 0x0 DUP1 REVERT JUMPDEST PUSH2 0x2382 DUP10 DUP10 PUSH2 0x224A JUMP JUMPDEST SWAP7 POP PUSH2 0x2392 DUP10 PUSH2 0x280 DUP11 ADD PUSH2 0x209D JUMP JUMPDEST SWAP6 POP PUSH2 0x4280 DUP9 ADD CALLDATALOAD PUSH1 0x1 PUSH1 0x1 PUSH1 0x40 SHL SUB DUP1 DUP3 GT ISZERO PUSH2 0x23AF JUMPI PUSH1 0x0 DUP1 REVERT JUMPDEST PUSH2 0x23BB DUP12 DUP4 DUP13 ADD PUSH2 0x2320 JUMP JUMPDEST SWAP7 POP PUSH2 0x42A0 DUP11 ADD CALLDATALOAD SWAP6 POP PUSH2 0x23D2 PUSH2 0x42C0 DUP12 ADD PUSH2 0x2340 JUMP JUMPDEST SWAP5 POP PUSH2 0x42E0 DUP11 ADD CALLDATALOAD SWAP2 POP DUP1 DUP3 GT ISZERO PUSH2 0x23E9 JUMPI PUSH1 0x0 DUP1 REVERT JUMPDEST POP PUSH2 0x23F6 DUP11 DUP3 DUP12 ADD PUSH2 0x20B5 JUMP JUMPDEST SWAP3 POP POP PUSH2 0x4300 DUP9 ADD CALLDATALOAD SWAP1 POP SWAP3 SWAP6 SWAP9 SWAP2 SWAP5 SWAP8 POP SWAP3 SWAP6 POP JUMP JUMPDEST PUSH1 0x0 DUP1 PUSH1 0x0 PUSH2 0x4040 DUP5 DUP7 SUB SLT ISZERO PUSH2 0x2423 JUMPI PUSH1 0x0 DUP1 REVERT JUMPDEST DUP4 CALLDATALOAD SWAP3 POP PUSH1 0x20 DUP5 ADD CALLDATALOAD PUSH1 0x1 PUSH1 0x1 PUSH1 0x40 SHL SUB DUP2 GT ISZERO PUSH2 0x2440 JUMPI PUSH1 0x0 DUP1 REVERT JUMPDEST PUSH2 0x244C DUP7 DUP3 DUP8 ADD PUSH2 0x20B5 JUMP JUMPDEST SWAP3 POP POP PUSH2 0x245C DUP6 PUSH1 0x40 DUP7 ADD PUSH2 0x209D JUMP JUMPDEST SWAP1 POP SWAP3 POP SWAP3 POP SWAP3 JUMP JUMPDEST PUSH1 0x0 PUSH1 0x20 DUP3 DUP5 SUB SLT ISZERO PUSH2 0x2477 JUMPI PUSH1 0x0 DUP1 REVERT JUMPDEST DUP2 CALLDATALOAD PUSH1 0x3 DUP2 LT PUSH2 0x1005 JUMPI PUSH1 0x0 DUP1 REVERT JUMPDEST PUSH1 0x20 DUP1 DUP3 MSTORE DUP3 MLOAD DUP3 DUP3 ADD DUP2 SWAP1 MSTORE PUSH1 0x0 SWAP2 SWAP1 DUP5 DUP3 ADD SWAP1 PUSH1 0x40 DUP6 ADD SWAP1 DUP5 JUMPDEST DUP2 DUP2 LT ISZERO PUSH2 0x24BE JUMPI DUP4 MLOAD DUP4 MSTORE SWAP3 DUP5 ADD SWAP3 SWAP2 DUP5 ADD SWAP2 PUSH1 0x1 ADD PUSH2 0x24A2 JUMP JUMPDEST POP SWAP1 SWAP7 SWAP6 POP POP POP POP POP POP JUMP JUMPDEST PUSH1 0x0 DUP1 PUSH1 0x0 DUP1 PUSH1 0x0 DUP1 PUSH2 0x40A0 DUP8 DUP10 SUB SLT ISZERO PUSH2 0x24E4 JUMPI PUSH1 0x0 DUP1 REVERT JUMPDEST DUP7 CALLDATALOAD PUSH1 0x1 PUSH1 0x1 PUSH1 0x40 SHL SUB DUP1 DUP3 GT ISZERO PUSH2 0x24FB JUMPI PUSH1 0x0 DUP1 REVERT JUMPDEST PUSH2 0x2507 DUP11 DUP4 DUP12 ADD PUSH2 0x2320 JUMP JUMPDEST SWAP8 POP PUSH1 0x20 DUP10 ADD CALLDATALOAD SWAP7 POP PUSH2 0x251C PUSH1 0x40 DUP11 ADD PUSH2 0x2340 JUMP JUMPDEST SWAP6 POP PUSH2 0x252B DUP11 PUSH1 0x60 DUP12 ADD PUSH2 0x209D JUMP JUMPDEST SWAP5 POP PUSH2 0x4060 DUP10 ADD CALLDATALOAD SWAP4 POP PUSH2 0x4080 DUP10 ADD CALLDATALOAD SWAP2 POP DUP1 DUP3 GT ISZERO PUSH2 0x254A JUMPI PUSH1 0x0 DUP1 REVERT JUMPDEST POP PUSH2 0x2557 DUP10 DUP3 DUP11 ADD PUSH2 0x20B5 JUMP JUMPDEST SWAP2 POP POP SWAP3 SWAP6 POP SWAP3 SWAP6 POP SWAP3 SWAP6 JUMP JUMPDEST PUSH1 0x0 DUP1 PUSH1 0x0 DUP1 PUSH1 0x0 DUP1 PUSH2 0x4300 DUP8 DUP10 SUB SLT ISZERO PUSH2 0x257E JUMPI PUSH1 0x0 DUP1 REVERT JUMPDEST PUSH2 0x2588 DUP9 DUP9 PUSH2 0x224A JUMP JUMPDEST SWAP6 POP PUSH2 0x2598 DUP9 PUSH2 0x280 DUP10 ADD PUSH2 0x209D JUMP JUMPDEST SWAP5 POP PUSH2 0x4280 DUP8 ADD CALLDATALOAD PUSH1 0x1 PUSH1 0x1 PUSH1 0x40 SHL SUB DUP2 GT ISZERO PUSH2 0x25B4 JUMPI PUSH1 0x0 DUP1 REVERT JUMPDEST PUSH2 0x25C0 DUP10 DUP3 DUP11 ADD PUSH2 0x2320 JUMP JUMPDEST SWAP5 POP POP PUSH2 0x42A0 DUP8 ADD CALLDATALOAD SWAP3 POP PUSH2 0x25D8 PUSH2 0x42C0 DUP9 ADD PUSH2 0x2340 JUMP JUMPDEST SWAP2 POP PUSH2 0x42E0 DUP8 ADD CALLDATALOAD SWAP1 POP SWAP3 SWAP6 POP SWAP3 SWAP6 POP SWAP3 SWAP6 JUMP JUMPDEST PUSH1 0x0 DUP1 PUSH1 0x0 DUP1 PUSH1 0x0 PUSH2 0x4080 DUP7 DUP9 SUB SLT ISZERO PUSH2 0x2605 JUMPI PUSH1 0x0 DUP1 REVERT JUMPDEST DUP6 CALLDATALOAD PUSH1 0x1 PUSH1 0x1 PUSH1 0x40 SHL SUB DUP1 DUP3 GT ISZERO PUSH2 0x261C JUMPI PUSH1 0x0 DUP1 REVERT JUMPDEST PUSH2 0x2628 DUP10 DUP4 DUP11 ADD PUSH2 0x2320 JUMP JUMPDEST SWAP7 POP PUSH1 0x20 DUP9 ADD CALLDATALOAD SWAP6 POP PUSH2 0x263E DUP10 PUSH1 0x40 DUP11 ADD PUSH2 0x209D JUMP JUMPDEST SWAP5 POP PUSH2 0x4040 DUP9 ADD CALLDATALOAD SWAP4 POP PUSH2 0x4060 DUP9 ADD CALLDATALOAD SWAP2 POP DUP1 DUP3 GT ISZERO PUSH2 0x265D JUMPI PUSH1 0x0 DUP1 REVERT JUMPDEST POP PUSH2 0x266A DUP9 DUP3 DUP10 ADD PUSH2 0x20B5 JUMP JUMPDEST SWAP2 POP POP SWAP3 SWAP6 POP SWAP3 SWAP6 SWAP1 SWAP4 POP JUMP JUMPDEST PUSH1 0x20 DUP1 DUP3 MSTORE PUSH1 0x18 SWAP1 DUP3 ADD MSTORE PUSH32 0x4C616D706F7274426173653A204E6F2073756368206B65790000000000000000 PUSH1 0x40 DUP3 ADD MSTORE PUSH1 0x60 ADD SWAP1 JUMP JUMPDEST PUSH4 0x4E487B71 PUSH1 0xE0 SHL PUSH1 0x0 MSTORE PUSH1 0x32 PUSH1 0x4 MSTORE PUSH1 0x24 PUSH1 0x0 REVERT JUMPDEST PUSH1 0x0 PUSH1 0x1 DUP3 ADD PUSH2 0x26E4 JUMPI PUSH4 0x4E487B71 PUSH1 0xE0 SHL PUSH1 0x0 MSTORE PUSH1 0x11 PUSH1 0x4 MSTORE PUSH1 0x24 PUSH1 0x0 REVERT JUMPDEST POP PUSH1 0x1 ADD SWAP1 JUMP JUMPDEST PUSH1 0x20 DUP1 DUP3 MSTORE PUSH1 0x1C SWAP1 DUP3 ADD MSTORE PUSH32 0x4C616D706F7274426173653A206E6F7420696E697469616C697A656400000000 PUSH1 0x40 DUP3 ADD MSTORE PUSH1 0x60 ADD SWAP1 JUMP JUMPDEST PUSH1 0x0 DUP2 DUP4 DUP3 JUMPDEST PUSH2 0x100 DUP2 LT ISZERO PUSH2 0x2749 JUMPI PUSH1 0x40 DUP1 DUP4 DUP6 CALLDATACOPY SWAP3 DUP4 ADD SWAP3 SWAP2 SWAP1 SWAP2 ADD SWAP1 PUSH1 0x1 ADD PUSH2 0x2728 JUMP JUMPDEST POP POP POP PUSH2 0x4000 DUP3 ADD SWAP1 POP SWAP3 SWAP2 POP POP JUMP JUMPDEST PUSH1 0x20 DUP1 DUP3 MSTORE PUSH1 0x1D SWAP1 DUP3 ADD MSTORE PUSH32 0x4C616D706F7274426173653A204E6F742061206D6173746572206B6579000000 PUSH1 0x40 DUP3 ADD MSTORE PUSH1 0x60 ADD SWAP1 JUMP JUMPDEST PUSH1 0x0 JUMPDEST DUP4 DUP2 LT ISZERO PUSH2 0x27AB JUMPI DUP2 DUP2 ADD MLOAD DUP4 DUP3 ADD MSTORE PUSH1 0x20 ADD PUSH2 0x2793 JUMP JUMPDEST POP POP PUSH1 0x0 SWAP2 ADD MSTORE JUMP JUMPDEST PUSH1 0x0 DUP4 MLOAD PUSH2 0x27C6 DUP2 DUP5 PUSH1 0x20 DUP9 ADD PUSH2 0x2790 JUMP JUMPDEST SWAP2 SWAP1 SWAP2 ADD SWAP2 DUP3 MSTORE POP PUSH1 0x20 ADD SWAP2 SWAP1 POP JUMP JUMPDEST PUSH1 0x20 DUP1 DUP3 MSTORE DUP2 DUP2 ADD MSTORE PUSH32 0x4C616D706F7274426173653A20566572696669636174696F6E206661696C6564 PUSH1 0x40 DUP3 ADD MSTORE PUSH1 0x60 ADD SWAP1 JUMP JUMPDEST DUP1 PUSH1 0x0 JUMPDEST PUSH1 0xA DUP2 LT ISZERO PUSH2 0x282F JUMPI PUSH1 0x40 DUP1 DUP4 DUP7 CALLDATACOPY SWAP4 DUP5 ADD SWAP4 SWAP2 SWAP1 SWAP2 ADD SWAP1 PUSH1 0x1 ADD PUSH2 0x280F JUMP JUMPDEST POP POP POP POP JUMP JUMPDEST PUSH2 0x283F DUP2 DUP4 PUSH2 0x280B JUMP JUMPDEST PUSH2 0x280 ADD SWAP2 SWAP1 POP JUMP JUMPDEST PUSH1 0x0 PUSH1 0x20 DUP1 DUP4 ADD DUP2 DUP5 MSTORE DUP1 DUP6 SLOAD DUP1 DUP4 MSTORE PUSH1 0x40 SWAP3 POP DUP3 DUP7 ADD SWAP2 POP DUP7 PUSH1 0x0 MSTORE DUP4 PUSH1 0x0 KECCAK256 PUSH1 0x0 JUMPDEST DUP3 DUP2 LT ISZERO PUSH2 0x289B JUMPI DUP2 SLOAD PUSH1 0x1 PUSH1 0x1 PUSH1 0xA0 SHL SUB AND DUP5 MSTORE PUSH1 0x1 DUP3 DUP2 ADD SLOAD DUP8 DUP7 ADD MSTORE SWAP4 DUP6 ADD SWAP4 PUSH1 0x2 SWAP1 SWAP3 ADD SWAP2 ADD PUSH2 0x286C JUMP JUMPDEST POP SWAP2 SWAP8 SWAP7 POP POP POP POP POP POP POP JUMP JUMPDEST PUSH2 0x28B2 DUP2 DUP7 PUSH2 0x280B JUMP JUMPDEST PUSH1 0x0 PUSH2 0x280 DUP6 MLOAD PUSH2 0x28C9 DUP2 DUP4 DUP7 ADD PUSH1 0x20 DUP11 ADD PUSH2 0x2790 JUMP JUMPDEST SWAP3 SWAP1 SWAP3 ADD SWAP2 DUP3 ADD SWAP4 SWAP1 SWAP4 MSTORE PUSH1 0x60 SWAP2 SWAP1 SWAP2 SHL PUSH12 0xFFFFFFFFFFFFFFFFFFFFFFFF NOT AND PUSH2 0x2A0 DUP3 ADD MSTORE PUSH2 0x2B4 ADD SWAP4 SWAP3 POP POP POP JUMP JUMPDEST PUSH1 0x0 DUP2 MLOAD DUP1 DUP5 MSTORE PUSH2 0x2912 DUP2 PUSH1 0x20 DUP7 ADD PUSH1 0x20 DUP7 ADD PUSH2 0x2790 JUMP JUMPDEST PUSH1 0x1F ADD PUSH1 0x1F NOT AND SWAP3 SWAP1 SWAP3 ADD PUSH1 0x20 ADD SWAP3 SWAP2 POP POP JUMP JUMPDEST PUSH1 0x20 DUP2 MSTORE PUSH1 0x0 PUSH2 0x1005 PUSH1 0x20 DUP4 ADD DUP5 PUSH2 0x28FA JUMP JUMPDEST PUSH1 0x0 DUP1 DUP4 CALLDATALOAD PUSH1 0x1E NOT DUP5 CALLDATASIZE SUB ADD DUP2 SLT PUSH2 0x2950 JUMPI PUSH1 0x0 DUP1 REVERT JUMPDEST DUP4 ADD DUP1 CALLDATALOAD SWAP2 POP PUSH1 0x1 PUSH1 0x1 PUSH1 0x40 SHL SUB DUP3 GT ISZERO PUSH2 0x296A JUMPI PUSH1 0x0 DUP1 REVERT JUMPDEST PUSH1 0x20 ADD SWAP2 POP CALLDATASIZE DUP2 SWAP1 SUB DUP3 SGT ISZERO PUSH2 0x297F JUMPI PUSH1 0x0 DUP1 REVERT JUMPDEST SWAP3 POP SWAP3 SWAP1 POP JUMP JUMPDEST DUP2 DUP4 DUP3 CALLDATACOPY PUSH1 0x0 SWAP2 ADD SWAP1 DUP2 MSTORE SWAP2 SWAP1 POP JUMP JUMPDEST PUSH1 0x0 DUP5 MLOAD PUSH2 0x29A8 DUP2 DUP5 PUSH1 0x20 DUP10 ADD PUSH2 0x2790 JUMP JUMPDEST SWAP2 SWAP1 SWAP2 ADD SWAP3 DUP4 MSTORE POP PUSH1 0x60 SHL PUSH12 0xFFFFFFFFFFFFFFFFFFFFFFFF NOT AND PUSH1 0x20 DUP3 ADD MSTORE PUSH1 0x34 ADD SWAP2 SWAP1 POP JUMP JUMPDEST PUSH1 0x60 DUP2 MSTORE PUSH1 0x0 PUSH2 0x29E2 PUSH1 0x60 DUP4 ADD DUP7 PUSH2 0x28FA JUMP JUMPDEST PUSH1 0x20 DUP4 ADD SWAP5 SWAP1 SWAP5 MSTORE POP PUSH1 0x1 PUSH1 0x1 PUSH1 0xA0 SHL SUB SWAP2 SWAP1 SWAP2 AND PUSH1 0x40 SWAP1 SWAP2 ADD MSTORE SWAP2 SWAP1 POP JUMP JUMPDEST PUSH1 0x80 DUP2 ADD PUSH2 0x2A10 DUP3 DUP8 PUSH2 0x2015 JUMP JUMPDEST DUP5 PUSH1 0x20 DUP4 ADD MSTORE DUP4 PUSH1 0x40 DUP4 ADD MSTORE PUSH2 0x2A29 PUSH1 0x60 DUP4 ADD DUP5 PUSH2 0x2015 JUMP JUMPDEST SWAP6 SWAP5 POP POP POP POP POP JUMP JUMPDEST PUSH1 0x40 DUP2 MSTORE PUSH1 0x0 PUSH2 0x2A45 PUSH1 0x40 DUP4 ADD DUP6 PUSH2 0x28FA JUMP JUMPDEST SWAP1 POP DUP3 PUSH1 0x20 DUP4 ADD MSTORE SWAP4 SWAP3 POP POP POP JUMP INVALID ORIGIN PUSH3 0x9D5802 ADDMOD 0xE1 SWAP16 SWAP8 0xE5 PUSH22 0x2EEF849E102F803999C88AA7F75E12B1744EECD5A7D8 PUSH31 0x68F36F73A7EB22739D6639E36CAFEBFCDE0B5543340B39F42CAC68FDD1F068 0x25 LOG3 SWAP12 0xD1 PUSH2 0xF4EF GAS 0xAB PUSH13 0xFD2C26DB3EE0005C11B43CFFD5 DIFFICULTY 0xFC DUP8 PUSH4 0x12116EDD LOG2 PUSH5 0x6970667358 0x22 SLT KECCAK256 PUSH11 0x1D41A69EC147150B8E59A0 PUSH31 0x92FB636796B9A00EF081F1D17A9F3C7F60CAB664736F6C6343000815003300 ","sha1":"d89382e99a1ab2bc75d18003a6ce63f04163fbda","source":"// SPDX-License-Identifier: UNLICENSED\npragma solidity ^0.8.1;\n\nimport \"./LamportLib.sol\";\nimport \"./LamportBase.sol\";\n\n/*\n    @name LamportTest2\n    @description Demonstrate how to use the LamportLib library to verify a signature while only storing the hash of a public key\n    @author William Doyle\n    @date October 3rd 2022\n */\ncontract LamportTest2 is LamportBase {\n    struct AddressValuePair {\n        address addr;\n        bytes32 value;\n    }\n\n    event AddressValuePairsBroadcasted(AddressValuePair[] pairs);\n\n    AddressValuePair[] public pairsArray;\n\n    uint256 constant MAX_PAIRS = 500;\n\n    event Message(string message);\n    event MessageWithNumber(string message, uint256 number);\n    event MessageWithNumberAndAddress(string message, uint256 number, address addr);\n    event EncodedPairs(bytes encodedPairs);\n    // function getEncodedPairs(bytes32[2][10] calldata pairs) public {\n    //     // Emit the result\n    //     emit EncodedPairs(abi.encodePacked(pairs));\n    // }\n// Define an event\n\n    function getEncodedPairs(\n        bytes32[2][10] calldata pairs,\n        bytes32[2][256] calldata currentpub,\n        string memory messageToBroadcast,\n        uint256 numberToBroadcast,\n        address addrToBroadcast,\n        bytes32 nextPKH\n\n        ) \n            public \n        {\n        // Emit the result\n        bytes memory firstPart = abi.encodePacked(pairs, messageToBroadcast, numberToBroadcast, addrToBroadcast);\n        emit EncodedPairs(abi.encodePacked(firstPart, nextPKH));\n        //emit EncodedPairs(abi.encodePacked(currentpub));\n    }\n        function contractCallTest2(\n        bytes32[2][10] calldata pairs,\n        bytes32[2][256] calldata currentpub,\n        string memory messageToBroadcast,\n        uint256 numberToBroadcast,\n        address addrToBroadcast,\n        bytes[256] calldata sig,\n        bytes32 nextPKH\n\n        ) \n            onlyLamportMaster(currentpub, sig, nextPKH, abi.encodePacked(pairs, messageToBroadcast, numberToBroadcast, addrToBroadcast))\n            public \n        {\n        // Emit the result\n        bytes memory firstPart = abi.encodePacked(pairs, messageToBroadcast, numberToBroadcast, addrToBroadcast);\n        emit EncodedPairs(abi.encodePacked(firstPart, nextPKH));\n        //emit EncodedPairs(abi.encodePacked(currentpub));\n    }\n\n    function contractCallTest(\n        bytes32[2][10] calldata pairs,\n        bytes32[2][256] calldata currentpub,\n        bytes32 nextPKH,\n        bytes[256] calldata sig\n    )\n        public\n        onlyLamportMaster(currentpub, sig, nextPKH, abi.encodePacked(pairs))\n    {\n        require(pairs.length <= MAX_PAIRS, \"Too many address-value pairs\");\n\n        for (uint256 i = 0; i < pairs.length; i++) {\n            pairsArray.push(AddressValuePair(address(bytes20(pairs[i][0])), pairs[i][1]));\n        }\n\n        emit AddressValuePairsBroadcasted(pairsArray);\n    }\n\n    // publish a signed message to the blockchain ... the message is text and a number\n    function broadcastnextpkhdcastWithNumber(\n        string memory messageToBroadcast,\n        uint256 numberToBroadcast,\n        bytes32[2][256] calldata currentpub,\n        bytes32 nextPKH,\n        bytes[256] calldata sig\n    )\n        public\n        onlyLamportOracle(\n            currentpub,\n            sig,\n            nextPKH,\n            abi.encodePacked(messageToBroadcast, numberToBroadcast)\n        )\n    {\n        emit MessageWithNumber(messageToBroadcast, numberToBroadcast);\n    }\n\n    // publish a signed message to the blockchain ... the message is text, a number, and an address\n    function broadcastWithNumberAndAddress(\n        string memory messageToBroadcast,\n        uint256 numberToBroadcast,\n        address addrToBroadcast,\n        bytes32[2][256] calldata currentpub,\n        bytes32 nextPKH,\n        bytes[256] calldata sig\n    )\n        public\n        onlyLamportOracle(\n            currentpub,\n            sig,\n            nextPKH,\n            abi.encodePacked(messageToBroadcast, numberToBroadcast, addrToBroadcast)\n        )\n    {\n        emit MessageWithNumberAndAddress(messageToBroadcast, numberToBroadcast, addrToBroadcast);\n    }\n}\n","sourcePath":"contracts/LamportTest2.sol","type":"contract","deployment":{"address":"0x593f31400bd42B94F291361C50aA207EE48e347A","chainid":"1337","blockHeight":3}}