{
  "abi": [
    {
      "anonymous": false,
      "inputs": [
        {
          "indexed": true,
          "internalType": "bytes32",
          "name": "deathhash",
          "type": "bytes32"
        },
        {
          "indexed": true,
          "internalType": "uint256",
          "name": "count",
          "type": "uint256"
        }
      ],
      "name": "DeathByTenThousandHashes",
      "type": "event"
    },
    {
      "anonymous": false,
      "inputs": [
        {
          "indexed": false,
          "internalType": "string",
          "name": "message",
          "type": "string"
        }
      ],
      "name": "Message",
      "type": "event"
    },
    {
      "inputs": [
        {
          "internalType": "string",
          "name": "messageToBroadcast",
          "type": "string"
        },
        {
          "internalType": "bytes32[2][256]",
          "name": "nextpub",
          "type": "bytes32[2][256]"
        },
        {
          "internalType": "bytes[256]",
          "name": "sig",
          "type": "bytes[256]"
        }
      ],
      "name": "broadcast",
      "outputs": [],
      "stateMutability": "nonpayable",
      "type": "function"
    },
    {
      "inputs": [
        {
          "internalType": "address",
          "name": "newTipJar",
          "type": "address"
        },
        {
          "internalType": "bytes32[2][256]",
          "name": "nextpub",
          "type": "bytes32[2][256]"
        },
        {
          "internalType": "bytes[256]",
          "name": "sig",
          "type": "bytes[256]"
        }
      ],
      "name": "change_tip_jar",
      "outputs": [],
      "stateMutability": "nonpayable",
      "type": "function"
    },
    {
      "inputs": [
        {
          "internalType": "bytes32",
          "name": "initialValue",
          "type": "bytes32"
        },
        {
          "internalType": "uint256",
          "name": "count",
          "type": "uint256"
        }
      ],
      "name": "death_by_ten_thousand_hashes",
      "outputs": [
        {
          "internalType": "bytes32",
          "name": "",
          "type": "bytes32"
        }
      ],
      "stateMutability": "nonpayable",
      "type": "function"
    },
    {
      "inputs": [],
      "name": "getPublicKey",
      "outputs": [
        {
          "internalType": "bytes32[2][256]",
          "name": "",
          "type": "bytes32[2][256]"
        }
      ],
      "stateMutability": "view",
      "type": "function"
    },
    {
      "inputs": [],
      "name": "getTipJar",
      "outputs": [
        {
          "internalType": "address",
          "name": "",
          "type": "address"
        }
      ],
      "stateMutability": "view",
      "type": "function"
    },
    {
      "inputs": [
        {
          "internalType": "bytes32[2][256]",
          "name": "firstPublicKey",
          "type": "bytes32[2][256]"
        }
      ],
      "name": "init",
      "outputs": [],
      "stateMutability": "nonpayable",
      "type": "function"
    }
  ],
  "bytecode": "60806040526000805460ff1916905534801561001a57600080fd5b50610bf38061002a6000396000f3fe608060405234801561001057600080fd5b50600436106100625760003560e01c806301207d0b146100675780632e3344521461007c5780633bbc12b71461009a578063667e9a73146100b6578063b7a110e8146100c9578063e772ac22146100ea575b600080fd5b61007a61007536600461084c565b6100fd565b005b610084610279565b60405161009191906108bb565b60405180910390f35b610201546040516001600160a01b039091168152602001610091565b61007a6100c4366004610917565b6102e5565b6100dc6100d736600461093b565b610360565b604051908152602001610091565b61007a6100f836600461095d565b6103d0565b60005460ff166101545760405162461bcd60e51b815260206004820152601b60248201527f4c616d706f727454657374206e6f7420696e697469616c697a6564000000000060448201526064015b60405180910390fd5b73__LamportLib____________________________63af82f3e78484604051602001610181929190610a34565b60408051601f198184030181529082905280516020909101206001600160e01b031960e084901b1682526101bc918590600190600401610ab0565b602060405180830381865af41580156101d9573d6000803e3d6000fd5b505050506040513d601f19601f820116820180604052508101906101fd9190610b5e565b6102495760405162461bcd60e51b815260206004820152601b60248201527f4c616d706f7274205369676e6174757265206e6f742076616c69640000000000604482015260640161014b565b61020180546001600160a01b0319166001600160a01b038516179055610273600183610100610558565b50505050565b6102816105a4565b60408051612000810190915260016101006000835b828210156102dc57604080518082019182905290600284810287019182845b8154815260200190600101908083116102b557505050505081526020019060010190610296565b50505050905090565b60005460ff161561032e5760405162461bcd60e51b8152602060048201526013602482015272105b1c9958591e481a5b9a5d1a585b1a5e9959606a1b604482015260640161014b565b61033c600182610100610558565b505061020180546001600160a01b031916331790556000805460ff19166001179055565b600082815b8381101561039b5760408051602081018490520160408051601f1981840301815291905280516020909101209150600101610365565b50604051839082907f575813bc304d7ef2f6e82ea12db21d6ec2a04ae2576ecdc7b5957d9b06095d6d90600090a39392505050565b60005460ff166104225760405162461bcd60e51b815260206004820152601b60248201527f4c616d706f727454657374206e6f7420696e697469616c697a65640000000000604482015260640161014b565b73__LamportLib____________________________63af82f3e7848460405160200161044f929190610b80565b60408051601f198184030181529082905280516020909101206001600160e01b031960e084901b16825261048a918590600190600401610ab0565b602060405180830381865af41580156104a7573d6000803e3d6000fd5b505050506040513d601f19601f820116820180604052508101906104cb9190610b5e565b6105175760405162461bcd60e51b815260206004820152601b60248201527f4c616d706f7274205369676e6174757265206e6f742076616c69640000000000604482015260640161014b565b7f51a7f65c6325882f237d4aeb43228179cfad48b868511d508e24b4437a819137836040516105469190610baa565b60405180910390a16102736001836101005b61020083019183908215610594579160200282015b8281111561059457825161058490839060026105d3565b509160200191906002019061056d565b506105a092915061060d565b5090565b604051806120000160405280610100905b6105bd610627565b8152602001906001900390816105b55790505090565b8260028101928215610601579160200282015b828111156106015782518255916020019190600101906105e6565b506105a0929150610645565b808211156105a0576000808255600182015560020161060d565b60405180604001604052806002906020820280368337509192915050565b5b808211156105a05760008155600101610646565b634e487b7160e01b600052604160045260246000fd5b604051612000810167ffffffffffffffff811182821017156106945761069461065a565b60405290565b6040805190810167ffffffffffffffff811182821017156106945761069461065a565b6000601f83818401126106cf57600080fd5b6106d7610670565b806140008501868111156106ea57600080fd5b855b8181101561074b5787858201126107035760008081fd5b61070b61069a565b80604083018a81111561071e5760008081fd5b835b81811015610738578035845260209384019301610720565b50508552506020909301926040016106ec565b50909695505050505050565b600067ffffffffffffffff808411156107725761077261065a565b604051601f8501601f19908116603f0116810190828211818310171561079a5761079a61065a565b816040528093508581528686860111156107b357600080fd5b858560208301376000602087830101525050509392505050565b6000601f83818401126107df57600080fd5b6107e7610670565b806120008501868111156107fa57600080fd5b855b8181101561074b57803567ffffffffffffffff81111561081c5760008081fd5b8701858101891361082d5760008081fd5b602061083d8a8335838501610757565b865290940193506020016107fc565b6000806000614040848603121561086257600080fd5b83356001600160a01b038116811461087957600080fd5b925061088885602086016106bd565b915061402084013567ffffffffffffffff8111156108a557600080fd5b6108b1868287016107cd565b9150509250925092565b614000810181836000805b61010081101561090d57825184835b60028110156108f45782518252602092830192909101906001016108d5565b50505060409390930192602092909201916001016108c6565b5050505092915050565b6000614000828403121561092a57600080fd5b61093483836106bd565b9392505050565b6000806040838503121561094e57600080fd5b50508035926020909101359150565b6000806000614040848603121561097357600080fd5b833567ffffffffffffffff8082111561098b57600080fd5b818601915086601f83011261099f57600080fd5b6109ae87833560208501610757565b94506109bd87602088016106bd565b93506140208601359150808211156109d457600080fd5b506108b1868287016107cd565b806000805b610100811015610a2d57825185835b6002811015610a145782518252602092830192909101906001016109f5565b50505060409490940193602092909201916001016109e6565b5050505050565b6bffffffffffffffffffffffff198360601b168152610a5660148201836109e1565b6140140192915050565b60005b83811015610a7b578181015183820152602001610a63565b50506000910152565b60008151808452610a9c816020860160208601610a60565b601f01601f19169290920160200192915050565b838152614040602080830182905260009183019061604084019086845b610100811015610afe5761403f19878503018552610aec848351610a84565b94830194935090820190600101610acd565b509193506040925084830191508560005b610100811015610b5157838260005b6002811015610b3b57815483529185019160019182019101610b1e565b5050509284019260029190910190600101610b0f565b5050505050949350505050565b600060208284031215610b7057600080fd5b8151801515811461093457600080fd5b60008351610b92818460208801610a60565b8201610b9e81856109e1565b61400001949350505050565b6020815260006109346020830184610a8456fea26469706673582212205b8842a0398c4245bf372b393d4dbd45f0a891ccd0b593feae6d708ff2585ff764736f6c63430008150033",
  "bytecodeSha1": "5f2cb9a42904fdb95fa77c856e3c3fa6d96198d8",
  "compiler": {
    "evm_version": "istanbul",
    "optimizer": {
      "enabled": true,
      "runs": 200
    },
    "version": "0.8.21+commit.d9974bed"
  },
  "contractName": "LamportTest",
  "deployedBytecode": "608060405234801561001057600080fd5b50600436106100625760003560e01c806301207d0b146100675780632e3344521461007c5780633bbc12b71461009a578063667e9a73146100b6578063b7a110e8146100c9578063e772ac22146100ea575b600080fd5b61007a61007536600461084c565b6100fd565b005b610084610279565b60405161009191906108bb565b60405180910390f35b610201546040516001600160a01b039091168152602001610091565b61007a6100c4366004610917565b6102e5565b6100dc6100d736600461093b565b610360565b604051908152602001610091565b61007a6100f836600461095d565b6103d0565b60005460ff166101545760405162461bcd60e51b815260206004820152601b60248201527f4c616d706f727454657374206e6f7420696e697469616c697a6564000000000060448201526064015b60405180910390fd5b73__$a9219b8692141c7a33803af6da0f71e1a2$__63af82f3e78484604051602001610181929190610a34565b60408051601f198184030181529082905280516020909101206001600160e01b031960e084901b1682526101bc918590600190600401610ab0565b602060405180830381865af41580156101d9573d6000803e3d6000fd5b505050506040513d601f19601f820116820180604052508101906101fd9190610b5e565b6102495760405162461bcd60e51b815260206004820152601b60248201527f4c616d706f7274205369676e6174757265206e6f742076616c69640000000000604482015260640161014b565b61020180546001600160a01b0319166001600160a01b038516179055610273600183610100610558565b50505050565b6102816105a4565b60408051612000810190915260016101006000835b828210156102dc57604080518082019182905290600284810287019182845b8154815260200190600101908083116102b557505050505081526020019060010190610296565b50505050905090565b60005460ff161561032e5760405162461bcd60e51b8152602060048201526013602482015272105b1c9958591e481a5b9a5d1a585b1a5e9959606a1b604482015260640161014b565b61033c600182610100610558565b505061020180546001600160a01b031916331790556000805460ff19166001179055565b600082815b8381101561039b5760408051602081018490520160408051601f1981840301815291905280516020909101209150600101610365565b50604051839082907f575813bc304d7ef2f6e82ea12db21d6ec2a04ae2576ecdc7b5957d9b06095d6d90600090a39392505050565b60005460ff166104225760405162461bcd60e51b815260206004820152601b60248201527f4c616d706f727454657374206e6f7420696e697469616c697a65640000000000604482015260640161014b565b73__$a9219b8692141c7a33803af6da0f71e1a2$__63af82f3e7848460405160200161044f929190610b80565b60408051601f198184030181529082905280516020909101206001600160e01b031960e084901b16825261048a918590600190600401610ab0565b602060405180830381865af41580156104a7573d6000803e3d6000fd5b505050506040513d601f19601f820116820180604052508101906104cb9190610b5e565b6105175760405162461bcd60e51b815260206004820152601b60248201527f4c616d706f7274205369676e6174757265206e6f742076616c69640000000000604482015260640161014b565b7f51a7f65c6325882f237d4aeb43228179cfad48b868511d508e24b4437a819137836040516105469190610baa565b60405180910390a16102736001836101005b61020083019183908215610594579160200282015b8281111561059457825161058490839060026105d3565b509160200191906002019061056d565b506105a092915061060d565b5090565b604051806120000160405280610100905b6105bd610627565b8152602001906001900390816105b55790505090565b8260028101928215610601579160200282015b828111156106015782518255916020019190600101906105e6565b506105a0929150610645565b808211156105a0576000808255600182015560020161060d565b60405180604001604052806002906020820280368337509192915050565b5b808211156105a05760008155600101610646565b634e487b7160e01b600052604160045260246000fd5b604051612000810167ffffffffffffffff811182821017156106945761069461065a565b60405290565b6040805190810167ffffffffffffffff811182821017156106945761069461065a565b6000601f83818401126106cf57600080fd5b6106d7610670565b806140008501868111156106ea57600080fd5b855b8181101561074b5787858201126107035760008081fd5b61070b61069a565b80604083018a81111561071e5760008081fd5b835b81811015610738578035845260209384019301610720565b50508552506020909301926040016106ec565b50909695505050505050565b600067ffffffffffffffff808411156107725761077261065a565b604051601f8501601f19908116603f0116810190828211818310171561079a5761079a61065a565b816040528093508581528686860111156107b357600080fd5b858560208301376000602087830101525050509392505050565b6000601f83818401126107df57600080fd5b6107e7610670565b806120008501868111156107fa57600080fd5b855b8181101561074b57803567ffffffffffffffff81111561081c5760008081fd5b8701858101891361082d5760008081fd5b602061083d8a8335838501610757565b865290940193506020016107fc565b6000806000614040848603121561086257600080fd5b83356001600160a01b038116811461087957600080fd5b925061088885602086016106bd565b915061402084013567ffffffffffffffff8111156108a557600080fd5b6108b1868287016107cd565b9150509250925092565b614000810181836000805b61010081101561090d57825184835b60028110156108f45782518252602092830192909101906001016108d5565b50505060409390930192602092909201916001016108c6565b5050505092915050565b6000614000828403121561092a57600080fd5b61093483836106bd565b9392505050565b6000806040838503121561094e57600080fd5b50508035926020909101359150565b6000806000614040848603121561097357600080fd5b833567ffffffffffffffff8082111561098b57600080fd5b818601915086601f83011261099f57600080fd5b6109ae87833560208501610757565b94506109bd87602088016106bd565b93506140208601359150808211156109d457600080fd5b506108b1868287016107cd565b806000805b610100811015610a2d57825185835b6002811015610a145782518252602092830192909101906001016109f5565b50505060409490940193602092909201916001016109e6565b5050505050565b6bffffffffffffffffffffffff198360601b168152610a5660148201836109e1565b6140140192915050565b60005b83811015610a7b578181015183820152602001610a63565b50506000910152565b60008151808452610a9c816020860160208601610a60565b601f01601f19169290920160200192915050565b838152614040602080830182905260009183019061604084019086845b610100811015610afe5761403f19878503018552610aec848351610a84565b94830194935090820190600101610acd565b509193506040925084830191508560005b610100811015610b5157838260005b6002811015610b3b57815483529185019160019182019101610b1e565b5050509284019260029190910190600101610b0f565b5050505050949350505050565b600060208284031215610b7057600080fd5b8151801515811461093457600080fd5b60008351610b92818460208801610a60565b8201610b9e81856109e1565b61400001949350505050565b6020815260006109346020830184610a8456fea26469706673582212205b8842a0398c4245bf372b393d4dbd45f0a891ccd0b593feae6d708ff2585ff764736f6c63430008150033",
  "language": "Solidity",
  "natspec": {
    "kind": "dev",
    "methods": {},
    "version": 1
  },
  "opcodes": "PUSH1 0x80 PUSH1 0x40 MSTORE CALLVALUE DUP1 ISZERO PUSH2 0x10 JUMPI PUSH1 0x0 DUP1 REVERT JUMPDEST POP PUSH1 0x4 CALLDATASIZE LT PUSH2 0x62 JUMPI PUSH1 0x0 CALLDATALOAD PUSH1 0xE0 SHR DUP1 PUSH4 0x1207D0B EQ PUSH2 0x67 JUMPI DUP1 PUSH4 0x2E334452 EQ PUSH2 0x7C JUMPI DUP1 PUSH4 0x3BBC12B7 EQ PUSH2 0x9A JUMPI DUP1 PUSH4 0x667E9A73 EQ PUSH2 0xB6 JUMPI DUP1 PUSH4 0xB7A110E8 EQ PUSH2 0xC9 JUMPI DUP1 PUSH4 0xE772AC22 EQ PUSH2 0xEA JUMPI JUMPDEST PUSH1 0x0 DUP1 REVERT JUMPDEST PUSH2 0x7A PUSH2 0x75 CALLDATASIZE PUSH1 0x4 PUSH2 0x84C JUMP JUMPDEST PUSH2 0xFD JUMP JUMPDEST STOP JUMPDEST PUSH2 0x84 PUSH2 0x279 JUMP JUMPDEST PUSH1 0x40 MLOAD PUSH2 0x91 SWAP2 SWAP1 PUSH2 0x8BB JUMP JUMPDEST PUSH1 0x40 MLOAD DUP1 SWAP2 SUB SWAP1 RETURN JUMPDEST PUSH2 0x201 SLOAD PUSH1 0x40 MLOAD PUSH1 0x1 PUSH1 0x1 PUSH1 0xA0 SHL SUB SWAP1 SWAP2 AND DUP2 MSTORE PUSH1 0x20 ADD PUSH2 0x91 JUMP JUMPDEST PUSH2 0x7A PUSH2 0xC4 CALLDATASIZE PUSH1 0x4 PUSH2 0x917 JUMP JUMPDEST PUSH2 0x2E5 JUMP JUMPDEST PUSH2 0xDC PUSH2 0xD7 CALLDATASIZE PUSH1 0x4 PUSH2 0x93B JUMP JUMPDEST PUSH2 0x360 JUMP JUMPDEST PUSH1 0x40 MLOAD SWAP1 DUP2 MSTORE PUSH1 0x20 ADD PUSH2 0x91 JUMP JUMPDEST PUSH2 0x7A PUSH2 0xF8 CALLDATASIZE PUSH1 0x4 PUSH2 0x95D JUMP JUMPDEST PUSH2 0x3D0 JUMP JUMPDEST PUSH1 0x0 SLOAD PUSH1 0xFF AND PUSH2 0x154 JUMPI PUSH1 0x40 MLOAD PUSH3 0x461BCD PUSH1 0xE5 SHL DUP2 MSTORE PUSH1 0x20 PUSH1 0x4 DUP3 ADD MSTORE PUSH1 0x1B PUSH1 0x24 DUP3 ADD MSTORE PUSH32 0x4C616D706F727454657374206E6F7420696E697469616C697A65640000000000 PUSH1 0x44 DUP3 ADD MSTORE PUSH1 0x64 ADD JUMPDEST PUSH1 0x40 MLOAD DUP1 SWAP2 SUB SWAP1 REVERT JUMPDEST PUSH20 0x0 PUSH4 0xAF82F3E7 DUP5 DUP5 PUSH1 0x40 MLOAD PUSH1 0x20 ADD PUSH2 0x181 SWAP3 SWAP2 SWAP1 PUSH2 0xA34 JUMP JUMPDEST PUSH1 0x40 DUP1 MLOAD PUSH1 0x1F NOT DUP2 DUP5 SUB ADD DUP2 MSTORE SWAP1 DUP3 SWAP1 MSTORE DUP1 MLOAD PUSH1 0x20 SWAP1 SWAP2 ADD KECCAK256 PUSH1 0x1 PUSH1 0x1 PUSH1 0xE0 SHL SUB NOT PUSH1 0xE0 DUP5 SWAP1 SHL AND DUP3 MSTORE PUSH2 0x1BC SWAP2 DUP6 SWAP1 PUSH1 0x1 SWAP1 PUSH1 0x4 ADD PUSH2 0xAB0 JUMP JUMPDEST PUSH1 0x20 PUSH1 0x40 MLOAD DUP1 DUP4 SUB DUP2 DUP7 GAS DELEGATECALL ISZERO DUP1 ISZERO PUSH2 0x1D9 JUMPI RETURNDATASIZE PUSH1 0x0 DUP1 RETURNDATACOPY RETURNDATASIZE PUSH1 0x0 REVERT JUMPDEST POP POP POP POP PUSH1 0x40 MLOAD RETURNDATASIZE PUSH1 0x1F NOT PUSH1 0x1F DUP3 ADD AND DUP3 ADD DUP1 PUSH1 0x40 MSTORE POP DUP2 ADD SWAP1 PUSH2 0x1FD SWAP2 SWAP1 PUSH2 0xB5E JUMP JUMPDEST PUSH2 0x249 JUMPI PUSH1 0x40 MLOAD PUSH3 0x461BCD PUSH1 0xE5 SHL DUP2 MSTORE PUSH1 0x20 PUSH1 0x4 DUP3 ADD MSTORE PUSH1 0x1B PUSH1 0x24 DUP3 ADD MSTORE PUSH32 0x4C616D706F7274205369676E6174757265206E6F742076616C69640000000000 PUSH1 0x44 DUP3 ADD MSTORE PUSH1 0x64 ADD PUSH2 0x14B JUMP JUMPDEST PUSH2 0x201 DUP1 SLOAD PUSH1 0x1 PUSH1 0x1 PUSH1 0xA0 SHL SUB NOT AND PUSH1 0x1 PUSH1 0x1 PUSH1 0xA0 SHL SUB DUP6 AND OR SWAP1 SSTORE PUSH2 0x273 PUSH1 0x1 DUP4 PUSH2 0x100 PUSH2 0x558 JUMP JUMPDEST POP POP POP POP JUMP JUMPDEST PUSH2 0x281 PUSH2 0x5A4 JUMP JUMPDEST PUSH1 0x40 DUP1 MLOAD PUSH2 0x2000 DUP2 ADD SWAP1 SWAP2 MSTORE PUSH1 0x1 PUSH2 0x100 PUSH1 0x0 DUP4 JUMPDEST DUP3 DUP3 LT ISZERO PUSH2 0x2DC JUMPI PUSH1 0x40 DUP1 MLOAD DUP1 DUP3 ADD SWAP2 DUP3 SWAP1 MSTORE SWAP1 PUSH1 0x2 DUP5 DUP2 MUL DUP8 ADD SWAP2 DUP3 DUP5 JUMPDEST DUP2 SLOAD DUP2 MSTORE PUSH1 0x20 ADD SWAP1 PUSH1 0x1 ADD SWAP1 DUP1 DUP4 GT PUSH2 0x2B5 JUMPI POP POP POP POP POP DUP2 MSTORE PUSH1 0x20 ADD SWAP1 PUSH1 0x1 ADD SWAP1 PUSH2 0x296 JUMP JUMPDEST POP POP POP POP SWAP1 POP SWAP1 JUMP JUMPDEST PUSH1 0x0 SLOAD PUSH1 0xFF AND ISZERO PUSH2 0x32E JUMPI PUSH1 0x40 MLOAD PUSH3 0x461BCD PUSH1 0xE5 SHL DUP2 MSTORE PUSH1 0x20 PUSH1 0x4 DUP3 ADD MSTORE PUSH1 0x13 PUSH1 0x24 DUP3 ADD MSTORE PUSH19 0x105B1C9958591E481A5B9A5D1A585B1A5E9959 PUSH1 0x6A SHL PUSH1 0x44 DUP3 ADD MSTORE PUSH1 0x64 ADD PUSH2 0x14B JUMP JUMPDEST PUSH2 0x33C PUSH1 0x1 DUP3 PUSH2 0x100 PUSH2 0x558 JUMP JUMPDEST POP POP PUSH2 0x201 DUP1 SLOAD PUSH1 0x1 PUSH1 0x1 PUSH1 0xA0 SHL SUB NOT AND CALLER OR SWAP1 SSTORE PUSH1 0x0 DUP1 SLOAD PUSH1 0xFF NOT AND PUSH1 0x1 OR SWAP1 SSTORE JUMP JUMPDEST PUSH1 0x0 DUP3 DUP2 JUMPDEST DUP4 DUP2 LT ISZERO PUSH2 0x39B JUMPI PUSH1 0x40 DUP1 MLOAD PUSH1 0x20 DUP2 ADD DUP5 SWAP1 MSTORE ADD PUSH1 0x40 DUP1 MLOAD PUSH1 0x1F NOT DUP2 DUP5 SUB ADD DUP2 MSTORE SWAP2 SWAP1 MSTORE DUP1 MLOAD PUSH1 0x20 SWAP1 SWAP2 ADD KECCAK256 SWAP2 POP PUSH1 0x1 ADD PUSH2 0x365 JUMP JUMPDEST POP PUSH1 0x40 MLOAD DUP4 SWAP1 DUP3 SWAP1 PUSH32 0x575813BC304D7EF2F6E82EA12DB21D6EC2A04AE2576ECDC7B5957D9B06095D6D SWAP1 PUSH1 0x0 SWAP1 LOG3 SWAP4 SWAP3 POP POP POP JUMP JUMPDEST PUSH1 0x0 SLOAD PUSH1 0xFF AND PUSH2 0x422 JUMPI PUSH1 0x40 MLOAD PUSH3 0x461BCD PUSH1 0xE5 SHL DUP2 MSTORE PUSH1 0x20 PUSH1 0x4 DUP3 ADD MSTORE PUSH1 0x1B PUSH1 0x24 DUP3 ADD MSTORE PUSH32 0x4C616D706F727454657374206E6F7420696E697469616C697A65640000000000 PUSH1 0x44 DUP3 ADD MSTORE PUSH1 0x64 ADD PUSH2 0x14B JUMP JUMPDEST PUSH20 0x0 PUSH4 0xAF82F3E7 DUP5 DUP5 PUSH1 0x40 MLOAD PUSH1 0x20 ADD PUSH2 0x44F SWAP3 SWAP2 SWAP1 PUSH2 0xB80 JUMP JUMPDEST PUSH1 0x40 DUP1 MLOAD PUSH1 0x1F NOT DUP2 DUP5 SUB ADD DUP2 MSTORE SWAP1 DUP3 SWAP1 MSTORE DUP1 MLOAD PUSH1 0x20 SWAP1 SWAP2 ADD KECCAK256 PUSH1 0x1 PUSH1 0x1 PUSH1 0xE0 SHL SUB NOT PUSH1 0xE0 DUP5 SWAP1 SHL AND DUP3 MSTORE PUSH2 0x48A SWAP2 DUP6 SWAP1 PUSH1 0x1 SWAP1 PUSH1 0x4 ADD PUSH2 0xAB0 JUMP JUMPDEST PUSH1 0x20 PUSH1 0x40 MLOAD DUP1 DUP4 SUB DUP2 DUP7 GAS DELEGATECALL ISZERO DUP1 ISZERO PUSH2 0x4A7 JUMPI RETURNDATASIZE PUSH1 0x0 DUP1 RETURNDATACOPY RETURNDATASIZE PUSH1 0x0 REVERT JUMPDEST POP POP POP POP PUSH1 0x40 MLOAD RETURNDATASIZE PUSH1 0x1F NOT PUSH1 0x1F DUP3 ADD AND DUP3 ADD DUP1 PUSH1 0x40 MSTORE POP DUP2 ADD SWAP1 PUSH2 0x4CB SWAP2 SWAP1 PUSH2 0xB5E JUMP JUMPDEST PUSH2 0x517 JUMPI PUSH1 0x40 MLOAD PUSH3 0x461BCD PUSH1 0xE5 SHL DUP2 MSTORE PUSH1 0x20 PUSH1 0x4 DUP3 ADD MSTORE PUSH1 0x1B PUSH1 0x24 DUP3 ADD MSTORE PUSH32 0x4C616D706F7274205369676E6174757265206E6F742076616C69640000000000 PUSH1 0x44 DUP3 ADD MSTORE PUSH1 0x64 ADD PUSH2 0x14B JUMP JUMPDEST PUSH32 0x51A7F65C6325882F237D4AEB43228179CFAD48B868511D508E24B4437A819137 DUP4 PUSH1 0x40 MLOAD PUSH2 0x546 SWAP2 SWAP1 PUSH2 0xBAA JUMP JUMPDEST PUSH1 0x40 MLOAD DUP1 SWAP2 SUB SWAP1 LOG1 PUSH2 0x273 PUSH1 0x1 DUP4 PUSH2 0x100 JUMPDEST PUSH2 0x200 DUP4 ADD SWAP2 DUP4 SWAP1 DUP3 ISZERO PUSH2 0x594 JUMPI SWAP2 PUSH1 0x20 MUL DUP3 ADD JUMPDEST DUP3 DUP2 GT ISZERO PUSH2 0x594 JUMPI DUP3 MLOAD PUSH2 0x584 SWAP1 DUP4 SWAP1 PUSH1 0x2 PUSH2 0x5D3 JUMP JUMPDEST POP SWAP2 PUSH1 0x20 ADD SWAP2 SWAP1 PUSH1 0x2 ADD SWAP1 PUSH2 0x56D JUMP JUMPDEST POP PUSH2 0x5A0 SWAP3 SWAP2 POP PUSH2 0x60D JUMP JUMPDEST POP SWAP1 JUMP JUMPDEST PUSH1 0x40 MLOAD DUP1 PUSH2 0x2000 ADD PUSH1 0x40 MSTORE DUP1 PUSH2 0x100 SWAP1 JUMPDEST PUSH2 0x5BD PUSH2 0x627 JUMP JUMPDEST DUP2 MSTORE PUSH1 0x20 ADD SWAP1 PUSH1 0x1 SWAP1 SUB SWAP1 DUP2 PUSH2 0x5B5 JUMPI SWAP1 POP POP SWAP1 JUMP JUMPDEST DUP3 PUSH1 0x2 DUP2 ADD SWAP3 DUP3 ISZERO PUSH2 0x601 JUMPI SWAP2 PUSH1 0x20 MUL DUP3 ADD JUMPDEST DUP3 DUP2 GT ISZERO PUSH2 0x601 JUMPI DUP3 MLOAD DUP3 SSTORE SWAP2 PUSH1 0x20 ADD SWAP2 SWAP1 PUSH1 0x1 ADD SWAP1 PUSH2 0x5E6 JUMP JUMPDEST POP PUSH2 0x5A0 SWAP3 SWAP2 POP PUSH2 0x645 JUMP JUMPDEST DUP1 DUP3 GT ISZERO PUSH2 0x5A0 JUMPI PUSH1 0x0 DUP1 DUP3 SSTORE PUSH1 0x1 DUP3 ADD SSTORE PUSH1 0x2 ADD PUSH2 0x60D JUMP JUMPDEST PUSH1 0x40 MLOAD DUP1 PUSH1 0x40 ADD PUSH1 0x40 MSTORE DUP1 PUSH1 0x2 SWAP1 PUSH1 0x20 DUP3 MUL DUP1 CALLDATASIZE DUP4 CALLDATACOPY POP SWAP2 SWAP3 SWAP2 POP POP JUMP JUMPDEST JUMPDEST DUP1 DUP3 GT ISZERO PUSH2 0x5A0 JUMPI PUSH1 0x0 DUP2 SSTORE PUSH1 0x1 ADD PUSH2 0x646 JUMP JUMPDEST PUSH4 0x4E487B71 PUSH1 0xE0 SHL PUSH1 0x0 MSTORE PUSH1 0x41 PUSH1 0x4 MSTORE PUSH1 0x24 PUSH1 0x0 REVERT JUMPDEST PUSH1 0x40 MLOAD PUSH2 0x2000 DUP2 ADD PUSH8 0xFFFFFFFFFFFFFFFF DUP2 GT DUP3 DUP3 LT OR ISZERO PUSH2 0x694 JUMPI PUSH2 0x694 PUSH2 0x65A JUMP JUMPDEST PUSH1 0x40 MSTORE SWAP1 JUMP JUMPDEST PUSH1 0x40 DUP1 MLOAD SWAP1 DUP2 ADD PUSH8 0xFFFFFFFFFFFFFFFF DUP2 GT DUP3 DUP3 LT OR ISZERO PUSH2 0x694 JUMPI PUSH2 0x694 PUSH2 0x65A JUMP JUMPDEST PUSH1 0x0 PUSH1 0x1F DUP4 DUP2 DUP5 ADD SLT PUSH2 0x6CF JUMPI PUSH1 0x0 DUP1 REVERT JUMPDEST PUSH2 0x6D7 PUSH2 0x670 JUMP JUMPDEST DUP1 PUSH2 0x4000 DUP6 ADD DUP7 DUP2 GT ISZERO PUSH2 0x6EA JUMPI PUSH1 0x0 DUP1 REVERT JUMPDEST DUP6 JUMPDEST DUP2 DUP2 LT ISZERO PUSH2 0x74B JUMPI DUP8 DUP6 DUP3 ADD SLT PUSH2 0x703 JUMPI PUSH1 0x0 DUP1 DUP2 REVERT JUMPDEST PUSH2 0x70B PUSH2 0x69A JUMP JUMPDEST DUP1 PUSH1 0x40 DUP4 ADD DUP11 DUP2 GT ISZERO PUSH2 0x71E JUMPI PUSH1 0x0 DUP1 DUP2 REVERT JUMPDEST DUP4 JUMPDEST DUP2 DUP2 LT ISZERO PUSH2 0x738 JUMPI DUP1 CALLDATALOAD DUP5 MSTORE PUSH1 0x20 SWAP4 DUP5 ADD SWAP4 ADD PUSH2 0x720 JUMP JUMPDEST POP POP DUP6 MSTORE POP PUSH1 0x20 SWAP1 SWAP4 ADD SWAP3 PUSH1 0x40 ADD PUSH2 0x6EC JUMP JUMPDEST POP SWAP1 SWAP7 SWAP6 POP POP POP POP POP POP JUMP JUMPDEST PUSH1 0x0 PUSH8 0xFFFFFFFFFFFFFFFF DUP1 DUP5 GT ISZERO PUSH2 0x772 JUMPI PUSH2 0x772 PUSH2 0x65A JUMP JUMPDEST PUSH1 0x40 MLOAD PUSH1 0x1F DUP6 ADD PUSH1 0x1F NOT SWAP1 DUP2 AND PUSH1 0x3F ADD AND DUP2 ADD SWAP1 DUP3 DUP3 GT DUP2 DUP4 LT OR ISZERO PUSH2 0x79A JUMPI PUSH2 0x79A PUSH2 0x65A JUMP JUMPDEST DUP2 PUSH1 0x40 MSTORE DUP1 SWAP4 POP DUP6 DUP2 MSTORE DUP7 DUP7 DUP7 ADD GT ISZERO PUSH2 0x7B3 JUMPI PUSH1 0x0 DUP1 REVERT JUMPDEST DUP6 DUP6 PUSH1 0x20 DUP4 ADD CALLDATACOPY PUSH1 0x0 PUSH1 0x20 DUP8 DUP4 ADD ADD MSTORE POP POP POP SWAP4 SWAP3 POP POP POP JUMP JUMPDEST PUSH1 0x0 PUSH1 0x1F DUP4 DUP2 DUP5 ADD SLT PUSH2 0x7DF JUMPI PUSH1 0x0 DUP1 REVERT JUMPDEST PUSH2 0x7E7 PUSH2 0x670 JUMP JUMPDEST DUP1 PUSH2 0x2000 DUP6 ADD DUP7 DUP2 GT ISZERO PUSH2 0x7FA JUMPI PUSH1 0x0 DUP1 REVERT JUMPDEST DUP6 JUMPDEST DUP2 DUP2 LT ISZERO PUSH2 0x74B JUMPI DUP1 CALLDATALOAD PUSH8 0xFFFFFFFFFFFFFFFF DUP2 GT ISZERO PUSH2 0x81C JUMPI PUSH1 0x0 DUP1 DUP2 REVERT JUMPDEST DUP8 ADD DUP6 DUP2 ADD DUP10 SGT PUSH2 0x82D JUMPI PUSH1 0x0 DUP1 DUP2 REVERT JUMPDEST PUSH1 0x20 PUSH2 0x83D DUP11 DUP4 CALLDATALOAD DUP4 DUP6 ADD PUSH2 0x757 JUMP JUMPDEST DUP7 MSTORE SWAP1 SWAP5 ADD SWAP4 POP PUSH1 0x20 ADD PUSH2 0x7FC JUMP JUMPDEST PUSH1 0x0 DUP1 PUSH1 0x0 PUSH2 0x4040 DUP5 DUP7 SUB SLT ISZERO PUSH2 0x862 JUMPI PUSH1 0x0 DUP1 REVERT JUMPDEST DUP4 CALLDATALOAD PUSH1 0x1 PUSH1 0x1 PUSH1 0xA0 SHL SUB DUP2 AND DUP2 EQ PUSH2 0x879 JUMPI PUSH1 0x0 DUP1 REVERT JUMPDEST SWAP3 POP PUSH2 0x888 DUP6 PUSH1 0x20 DUP7 ADD PUSH2 0x6BD JUMP JUMPDEST SWAP2 POP PUSH2 0x4020 DUP5 ADD CALLDATALOAD PUSH8 0xFFFFFFFFFFFFFFFF DUP2 GT ISZERO PUSH2 0x8A5 JUMPI PUSH1 0x0 DUP1 REVERT JUMPDEST PUSH2 0x8B1 DUP7 DUP3 DUP8 ADD PUSH2 0x7CD JUMP JUMPDEST SWAP2 POP POP SWAP3 POP SWAP3 POP SWAP3 JUMP JUMPDEST PUSH2 0x4000 DUP2 ADD DUP2 DUP4 PUSH1 0x0 DUP1 JUMPDEST PUSH2 0x100 DUP2 LT ISZERO PUSH2 0x90D JUMPI DUP3 MLOAD DUP5 DUP4 JUMPDEST PUSH1 0x2 DUP2 LT ISZERO PUSH2 0x8F4 JUMPI DUP3 MLOAD DUP3 MSTORE PUSH1 0x20 SWAP3 DUP4 ADD SWAP3 SWAP1 SWAP2 ADD SWAP1 PUSH1 0x1 ADD PUSH2 0x8D5 JUMP JUMPDEST POP POP POP PUSH1 0x40 SWAP4 SWAP1 SWAP4 ADD SWAP3 PUSH1 0x20 SWAP3 SWAP1 SWAP3 ADD SWAP2 PUSH1 0x1 ADD PUSH2 0x8C6 JUMP JUMPDEST POP POP POP POP SWAP3 SWAP2 POP POP JUMP JUMPDEST PUSH1 0x0 PUSH2 0x4000 DUP3 DUP5 SUB SLT ISZERO PUSH2 0x92A JUMPI PUSH1 0x0 DUP1 REVERT JUMPDEST PUSH2 0x934 DUP4 DUP4 PUSH2 0x6BD JUMP JUMPDEST SWAP4 SWAP3 POP POP POP JUMP JUMPDEST PUSH1 0x0 DUP1 PUSH1 0x40 DUP4 DUP6 SUB SLT ISZERO PUSH2 0x94E JUMPI PUSH1 0x0 DUP1 REVERT JUMPDEST POP POP DUP1 CALLDATALOAD SWAP3 PUSH1 0x20 SWAP1 SWAP2 ADD CALLDATALOAD SWAP2 POP JUMP JUMPDEST PUSH1 0x0 DUP1 PUSH1 0x0 PUSH2 0x4040 DUP5 DUP7 SUB SLT ISZERO PUSH2 0x973 JUMPI PUSH1 0x0 DUP1 REVERT JUMPDEST DUP4 CALLDATALOAD PUSH8 0xFFFFFFFFFFFFFFFF DUP1 DUP3 GT ISZERO PUSH2 0x98B JUMPI PUSH1 0x0 DUP1 REVERT JUMPDEST DUP2 DUP7 ADD SWAP2 POP DUP7 PUSH1 0x1F DUP4 ADD SLT PUSH2 0x99F JUMPI PUSH1 0x0 DUP1 REVERT JUMPDEST PUSH2 0x9AE DUP8 DUP4 CALLDATALOAD PUSH1 0x20 DUP6 ADD PUSH2 0x757 JUMP JUMPDEST SWAP5 POP PUSH2 0x9BD DUP8 PUSH1 0x20 DUP9 ADD PUSH2 0x6BD JUMP JUMPDEST SWAP4 POP PUSH2 0x4020 DUP7 ADD CALLDATALOAD SWAP2 POP DUP1 DUP3 GT ISZERO PUSH2 0x9D4 JUMPI PUSH1 0x0 DUP1 REVERT JUMPDEST POP PUSH2 0x8B1 DUP7 DUP3 DUP8 ADD PUSH2 0x7CD JUMP JUMPDEST DUP1 PUSH1 0x0 DUP1 JUMPDEST PUSH2 0x100 DUP2 LT ISZERO PUSH2 0xA2D JUMPI DUP3 MLOAD DUP6 DUP4 JUMPDEST PUSH1 0x2 DUP2 LT ISZERO PUSH2 0xA14 JUMPI DUP3 MLOAD DUP3 MSTORE PUSH1 0x20 SWAP3 DUP4 ADD SWAP3 SWAP1 SWAP2 ADD SWAP1 PUSH1 0x1 ADD PUSH2 0x9F5 JUMP JUMPDEST POP POP POP PUSH1 0x40 SWAP5 SWAP1 SWAP5 ADD SWAP4 PUSH1 0x20 SWAP3 SWAP1 SWAP3 ADD SWAP2 PUSH1 0x1 ADD PUSH2 0x9E6 JUMP JUMPDEST POP POP POP POP POP JUMP JUMPDEST PUSH12 0xFFFFFFFFFFFFFFFFFFFFFFFF NOT DUP4 PUSH1 0x60 SHL AND DUP2 MSTORE PUSH2 0xA56 PUSH1 0x14 DUP3 ADD DUP4 PUSH2 0x9E1 JUMP JUMPDEST PUSH2 0x4014 ADD SWAP3 SWAP2 POP POP JUMP JUMPDEST PUSH1 0x0 JUMPDEST DUP4 DUP2 LT ISZERO PUSH2 0xA7B JUMPI DUP2 DUP2 ADD MLOAD DUP4 DUP3 ADD MSTORE PUSH1 0x20 ADD PUSH2 0xA63 JUMP JUMPDEST POP POP PUSH1 0x0 SWAP2 ADD MSTORE JUMP JUMPDEST PUSH1 0x0 DUP2 MLOAD DUP1 DUP5 MSTORE PUSH2 0xA9C DUP2 PUSH1 0x20 DUP7 ADD PUSH1 0x20 DUP7 ADD PUSH2 0xA60 JUMP JUMPDEST PUSH1 0x1F ADD PUSH1 0x1F NOT AND SWAP3 SWAP1 SWAP3 ADD PUSH1 0x20 ADD SWAP3 SWAP2 POP POP JUMP JUMPDEST DUP4 DUP2 MSTORE PUSH2 0x4040 PUSH1 0x20 DUP1 DUP4 ADD DUP3 SWAP1 MSTORE PUSH1 0x0 SWAP2 DUP4 ADD SWAP1 PUSH2 0x6040 DUP5 ADD SWAP1 DUP7 DUP5 JUMPDEST PUSH2 0x100 DUP2 LT ISZERO PUSH2 0xAFE JUMPI PUSH2 0x403F NOT DUP8 DUP6 SUB ADD DUP6 MSTORE PUSH2 0xAEC DUP5 DUP4 MLOAD PUSH2 0xA84 JUMP JUMPDEST SWAP5 DUP4 ADD SWAP5 SWAP4 POP SWAP1 DUP3 ADD SWAP1 PUSH1 0x1 ADD PUSH2 0xACD JUMP JUMPDEST POP SWAP2 SWAP4 POP PUSH1 0x40 SWAP3 POP DUP5 DUP4 ADD SWAP2 POP DUP6 PUSH1 0x0 JUMPDEST PUSH2 0x100 DUP2 LT ISZERO PUSH2 0xB51 JUMPI DUP4 DUP3 PUSH1 0x0 JUMPDEST PUSH1 0x2 DUP2 LT ISZERO PUSH2 0xB3B JUMPI DUP2 SLOAD DUP4 MSTORE SWAP2 DUP6 ADD SWAP2 PUSH1 0x1 SWAP2 DUP3 ADD SWAP2 ADD PUSH2 0xB1E JUMP JUMPDEST POP POP POP SWAP3 DUP5 ADD SWAP3 PUSH1 0x2 SWAP2 SWAP1 SWAP2 ADD SWAP1 PUSH1 0x1 ADD PUSH2 0xB0F JUMP JUMPDEST POP POP POP POP POP SWAP5 SWAP4 POP POP POP POP JUMP JUMPDEST PUSH1 0x0 PUSH1 0x20 DUP3 DUP5 SUB SLT ISZERO PUSH2 0xB70 JUMPI PUSH1 0x0 DUP1 REVERT JUMPDEST DUP2 MLOAD DUP1 ISZERO ISZERO DUP2 EQ PUSH2 0x934 JUMPI PUSH1 0x0 DUP1 REVERT JUMPDEST PUSH1 0x0 DUP4 MLOAD PUSH2 0xB92 DUP2 DUP5 PUSH1 0x20 DUP9 ADD PUSH2 0xA60 JUMP JUMPDEST DUP3 ADD PUSH2 0xB9E DUP2 DUP6 PUSH2 0x9E1 JUMP JUMPDEST PUSH2 0x4000 ADD SWAP5 SWAP4 POP POP POP POP JUMP JUMPDEST PUSH1 0x20 DUP2 MSTORE PUSH1 0x0 PUSH2 0x934 PUSH1 0x20 DUP4 ADD DUP5 PUSH2 0xA84 JUMP INVALID LOG2 PUSH5 0x6970667358 0x22 SLT KECCAK256 JUMPDEST DUP9 TIMESTAMP LOG0 CODECOPY DUP13 TIMESTAMP GASLIMIT 0xBF CALLDATACOPY 0x2B CODECOPY RETURNDATASIZE 0x4D 0xBD GASLIMIT CREATE 0xA8 SWAP2 0xCC 0xD0 0xB5 SWAP4 INVALID 0xAE PUSH14 0x708FF2585FF764736F6C63430008 ISZERO STOP CALLER ",
  "sha1": "d91dec610410ec0ba67ab0d0780ed8b3d054900b",
  "source": "// SPDX-License-Identifier: UNLICENSED\npragma solidity ^0.8.1;\n\nimport \"./LamportLib.sol\";\n\ncontract LamportTest {\n    event Message(string message);\n\n    bool initialized = false;\n    bytes32[2][256] publicKey;\n    address tipjar;\n\n    function getPublicKey() public view returns (bytes32[2][256] memory) {\n        return publicKey;\n    }\n\n    function getTipJar() public view returns (address) {\n        return tipjar;\n    }\n\n    function init(bytes32[2][256] memory firstPublicKey) public {\n        require(!initialized, \"Already initialized\");\n        publicKey = firstPublicKey;\n        tipjar = msg.sender;\n        initialized = true;\n    }\n\n    function change_tip_jar(\n        address newTipJar,\n        bytes32[2][256] memory nextpub,\n        bytes[256] memory sig\n    ) public {\n        require(initialized, \"LamportTest not initialized\");\n        require(\n            LamportLib.verify_u256(\n                uint256(keccak256(abi.encodePacked(newTipJar, nextpub))),\n                sig,\n                publicKey\n            ),\n            \"Lamport Signature not valid\"\n        );\n        tipjar = newTipJar;\n        publicKey = nextpub;\n    }\n\n    function broadcast(\n        string memory messageToBroadcast,\n        bytes32[2][256] memory nextpub,\n        bytes[256] memory sig\n    ) public {\n        require(initialized, \"LamportTest not initialized\");\n        require(\n            LamportLib.verify_u256(\n                uint256(\n                    keccak256(abi.encodePacked(messageToBroadcast, nextpub))\n                ),\n                sig,\n                publicKey\n            ),\n            \"Lamport Signature not valid\"\n        );\n\n        emit Message(messageToBroadcast);\n        publicKey = nextpub;\n    }\n\n    ////////////////////////////////////////////////////////////////////////////////////////////////////////////////////////\n    event DeathByTenThousandHashes(bytes32 indexed deathhash, uint256 indexed count);\n\n    function death_by_ten_thousand_hashes(bytes32 initialValue, uint256 count )\n        public\n        returns (bytes32)\n    {\n        unchecked {\n            bytes32 hash = initialValue;\n            for (uint256 i = 0; i < count; i++) {\n                hash = keccak256(abi.encodePacked(hash));\n            }\n\n            emit DeathByTenThousandHashes(hash, count);\n            return hash;\n        }\n    }\n    ////////////////////////////////////////////////////////////////////////////////////////////////////////////////////////\n}\n",
  "sourcePath": "contracts/LamportTest.sol",
  "type": "contract"
}